{
  "contracts/facets/CredentialEventFacet.sol": {
    "CredentialEventFacet": {
      "abi": [
        {
          "anonymous": false,
          "inputs": [
            {
              "indexed": false,
              "internalType": "string",
              "name": "list_id",
              "type": "string"
            },
            {
              "indexed": false,
              "internalType": "address",
              "name": "original_msg_sender",
              "type": "address"
            },
            {
              "indexed": false,
              "internalType": "address",
              "name": "contractAddr",
              "type": "address"
            },
            {
              "indexed": false,
              "internalType": "bytes",
              "name": "original_msg_data",
              "type": "bytes"
            }
          ],
          "name": "RequestCredentialsCallback",
          "type": "event"
        },
        {
          "inputs": [
            {
              "internalType": "string",
              "name": "list_id",
              "type": "string"
            },
            {
              "internalType": "address",
              "name": "sender",
              "type": "address"
            },
            {
              "internalType": "address",
              "name": "contractAddr",
              "type": "address"
            },
            {
              "internalType": "bytes",
              "name": "data",
              "type": "bytes"
            }
          ],
          "name": "emitEvent",
          "outputs": [],
          "stateMutability": "nonpayable",
          "type": "function"
        }
      ],
      "evm": {
        "bytecode": {
          "linkReferences": {},
          "object": "608060405234801561001057600080fd5b506104fc806100206000396000f3fe608060405234801561001057600080fd5b506004361061002b5760003560e01c8063b5f829d814610030575b600080fd5b61004a60048036038101906100459190610184565b61004c565b005b7f8f037683903568a16b9ad06c39761085b99c5049638c262684cc7b4e7cb350ad8484848460405161008194939291906102a4565b60405180910390a150505050565b60006100a261009d8461031c565b6102f7565b9050828152602081018484840111156100be576100bd61048f565b5b6100c98482856103e8565b509392505050565b60006100e46100df8461034d565b6102f7565b905082815260208101848484011115610100576100ff61048f565b5b61010b8482856103e8565b509392505050565b600081359050610122816104af565b92915050565b600082601f83011261013d5761013c61048a565b5b813561014d84826020860161008f565b91505092915050565b600082601f83011261016b5761016a61048a565b5b813561017b8482602086016100d1565b91505092915050565b6000806000806080858703121561019e5761019d610499565b5b600085013567ffffffffffffffff8111156101bc576101bb610494565b5b6101c887828801610156565b94505060206101d987828801610113565b93505060406101ea87828801610113565b925050606085013567ffffffffffffffff81111561020b5761020a610494565b5b61021787828801610128565b91505092959194509250565b61022c816103b6565b82525050565b600061023d8261037e565b6102478185610394565b93506102578185602086016103f7565b6102608161049e565b840191505092915050565b600061027682610389565b61028081856103a5565b93506102908185602086016103f7565b6102998161049e565b840191505092915050565b600060808201905081810360008301526102be818761026b565b90506102cd6020830186610223565b6102da6040830185610223565b81810360608301526102ec8184610232565b905095945050505050565b6000610301610312565b905061030d828261042a565b919050565b6000604051905090565b600067ffffffffffffffff8211156103375761033661045b565b5b6103408261049e565b9050602081019050919050565b600067ffffffffffffffff8211156103685761036761045b565b5b6103718261049e565b9050602081019050919050565b600081519050919050565b600081519050919050565b600082825260208201905092915050565b600082825260208201905092915050565b60006103c1826103c8565b9050919050565b600073ffffffffffffffffffffffffffffffffffffffff82169050919050565b82818337600083830152505050565b60005b838110156104155780820151818401526020810190506103fa565b83811115610424576000848401525b50505050565b6104338261049e565b810181811067ffffffffffffffff821117156104525761045161045b565b5b80604052505050565b7f4e487b7100000000000000000000000000000000000000000000000000000000600052604160045260246000fd5b600080fd5b600080fd5b600080fd5b600080fd5b6000601f19601f8301169050919050565b6104b8816103b6565b81146104c357600080fd5b5056fea2646970667358221220eff1bc3cfe273796e174991ce957ad6c758ab12ccd6562f4d9e4149e711ed30464736f6c63430008070033",
          "opcodes": "PUSH1 0x80 PUSH1 0x40 MSTORE CALLVALUE DUP1 ISZERO PUSH2 0x10 JUMPI PUSH1 0x0 DUP1 REVERT JUMPDEST POP PUSH2 0x4FC DUP1 PUSH2 0x20 PUSH1 0x0 CODECOPY PUSH1 0x0 RETURN INVALID PUSH1 0x80 PUSH1 0x40 MSTORE CALLVALUE DUP1 ISZERO PUSH2 0x10 JUMPI PUSH1 0x0 DUP1 REVERT JUMPDEST POP PUSH1 0x4 CALLDATASIZE LT PUSH2 0x2B JUMPI PUSH1 0x0 CALLDATALOAD PUSH1 0xE0 SHR DUP1 PUSH4 0xB5F829D8 EQ PUSH2 0x30 JUMPI JUMPDEST PUSH1 0x0 DUP1 REVERT JUMPDEST PUSH2 0x4A PUSH1 0x4 DUP1 CALLDATASIZE SUB DUP2 ADD SWAP1 PUSH2 0x45 SWAP2 SWAP1 PUSH2 0x184 JUMP JUMPDEST PUSH2 0x4C JUMP JUMPDEST STOP JUMPDEST PUSH32 0x8F037683903568A16B9AD06C39761085B99C5049638C262684CC7B4E7CB350AD DUP5 DUP5 DUP5 DUP5 PUSH1 0x40 MLOAD PUSH2 0x81 SWAP5 SWAP4 SWAP3 SWAP2 SWAP1 PUSH2 0x2A4 JUMP JUMPDEST PUSH1 0x40 MLOAD DUP1 SWAP2 SUB SWAP1 LOG1 POP POP POP POP JUMP JUMPDEST PUSH1 0x0 PUSH2 0xA2 PUSH2 0x9D DUP5 PUSH2 0x31C JUMP JUMPDEST PUSH2 0x2F7 JUMP JUMPDEST SWAP1 POP DUP3 DUP2 MSTORE PUSH1 0x20 DUP2 ADD DUP5 DUP5 DUP5 ADD GT ISZERO PUSH2 0xBE JUMPI PUSH2 0xBD PUSH2 0x48F JUMP JUMPDEST JUMPDEST PUSH2 0xC9 DUP5 DUP3 DUP6 PUSH2 0x3E8 JUMP JUMPDEST POP SWAP4 SWAP3 POP POP POP JUMP JUMPDEST PUSH1 0x0 PUSH2 0xE4 PUSH2 0xDF DUP5 PUSH2 0x34D JUMP JUMPDEST PUSH2 0x2F7 JUMP JUMPDEST SWAP1 POP DUP3 DUP2 MSTORE PUSH1 0x20 DUP2 ADD DUP5 DUP5 DUP5 ADD GT ISZERO PUSH2 0x100 JUMPI PUSH2 0xFF PUSH2 0x48F JUMP JUMPDEST JUMPDEST PUSH2 0x10B DUP5 DUP3 DUP6 PUSH2 0x3E8 JUMP JUMPDEST POP SWAP4 SWAP3 POP POP POP JUMP JUMPDEST PUSH1 0x0 DUP2 CALLDATALOAD SWAP1 POP PUSH2 0x122 DUP2 PUSH2 0x4AF JUMP JUMPDEST SWAP3 SWAP2 POP POP JUMP JUMPDEST PUSH1 0x0 DUP3 PUSH1 0x1F DUP4 ADD SLT PUSH2 0x13D JUMPI PUSH2 0x13C PUSH2 0x48A JUMP JUMPDEST JUMPDEST DUP2 CALLDATALOAD PUSH2 0x14D DUP5 DUP3 PUSH1 0x20 DUP7 ADD PUSH2 0x8F JUMP JUMPDEST SWAP2 POP POP SWAP3 SWAP2 POP POP JUMP JUMPDEST PUSH1 0x0 DUP3 PUSH1 0x1F DUP4 ADD SLT PUSH2 0x16B JUMPI PUSH2 0x16A PUSH2 0x48A JUMP JUMPDEST JUMPDEST DUP2 CALLDATALOAD PUSH2 0x17B DUP5 DUP3 PUSH1 0x20 DUP7 ADD PUSH2 0xD1 JUMP JUMPDEST SWAP2 POP POP SWAP3 SWAP2 POP POP JUMP JUMPDEST PUSH1 0x0 DUP1 PUSH1 0x0 DUP1 PUSH1 0x80 DUP6 DUP8 SUB SLT ISZERO PUSH2 0x19E JUMPI PUSH2 0x19D PUSH2 0x499 JUMP JUMPDEST JUMPDEST PUSH1 0x0 DUP6 ADD CALLDATALOAD PUSH8 0xFFFFFFFFFFFFFFFF DUP2 GT ISZERO PUSH2 0x1BC JUMPI PUSH2 0x1BB PUSH2 0x494 JUMP JUMPDEST JUMPDEST PUSH2 0x1C8 DUP8 DUP3 DUP9 ADD PUSH2 0x156 JUMP JUMPDEST SWAP5 POP POP PUSH1 0x20 PUSH2 0x1D9 DUP8 DUP3 DUP9 ADD PUSH2 0x113 JUMP JUMPDEST SWAP4 POP POP PUSH1 0x40 PUSH2 0x1EA DUP8 DUP3 DUP9 ADD PUSH2 0x113 JUMP JUMPDEST SWAP3 POP POP PUSH1 0x60 DUP6 ADD CALLDATALOAD PUSH8 0xFFFFFFFFFFFFFFFF DUP2 GT ISZERO PUSH2 0x20B JUMPI PUSH2 0x20A PUSH2 0x494 JUMP JUMPDEST JUMPDEST PUSH2 0x217 DUP8 DUP3 DUP9 ADD PUSH2 0x128 JUMP JUMPDEST SWAP2 POP POP SWAP3 SWAP6 SWAP2 SWAP5 POP SWAP3 POP JUMP JUMPDEST PUSH2 0x22C DUP2 PUSH2 0x3B6 JUMP JUMPDEST DUP3 MSTORE POP POP JUMP JUMPDEST PUSH1 0x0 PUSH2 0x23D DUP3 PUSH2 0x37E JUMP JUMPDEST PUSH2 0x247 DUP2 DUP6 PUSH2 0x394 JUMP JUMPDEST SWAP4 POP PUSH2 0x257 DUP2 DUP6 PUSH1 0x20 DUP7 ADD PUSH2 0x3F7 JUMP JUMPDEST PUSH2 0x260 DUP2 PUSH2 0x49E JUMP JUMPDEST DUP5 ADD SWAP2 POP POP SWAP3 SWAP2 POP POP JUMP JUMPDEST PUSH1 0x0 PUSH2 0x276 DUP3 PUSH2 0x389 JUMP JUMPDEST PUSH2 0x280 DUP2 DUP6 PUSH2 0x3A5 JUMP JUMPDEST SWAP4 POP PUSH2 0x290 DUP2 DUP6 PUSH1 0x20 DUP7 ADD PUSH2 0x3F7 JUMP JUMPDEST PUSH2 0x299 DUP2 PUSH2 0x49E JUMP JUMPDEST DUP5 ADD SWAP2 POP POP SWAP3 SWAP2 POP POP JUMP JUMPDEST PUSH1 0x0 PUSH1 0x80 DUP3 ADD SWAP1 POP DUP2 DUP2 SUB PUSH1 0x0 DUP4 ADD MSTORE PUSH2 0x2BE DUP2 DUP8 PUSH2 0x26B JUMP JUMPDEST SWAP1 POP PUSH2 0x2CD PUSH1 0x20 DUP4 ADD DUP7 PUSH2 0x223 JUMP JUMPDEST PUSH2 0x2DA PUSH1 0x40 DUP4 ADD DUP6 PUSH2 0x223 JUMP JUMPDEST DUP2 DUP2 SUB PUSH1 0x60 DUP4 ADD MSTORE PUSH2 0x2EC DUP2 DUP5 PUSH2 0x232 JUMP JUMPDEST SWAP1 POP SWAP6 SWAP5 POP POP POP POP POP JUMP JUMPDEST PUSH1 0x0 PUSH2 0x301 PUSH2 0x312 JUMP JUMPDEST SWAP1 POP PUSH2 0x30D DUP3 DUP3 PUSH2 0x42A JUMP JUMPDEST SWAP2 SWAP1 POP JUMP JUMPDEST PUSH1 0x0 PUSH1 0x40 MLOAD SWAP1 POP SWAP1 JUMP JUMPDEST PUSH1 0x0 PUSH8 0xFFFFFFFFFFFFFFFF DUP3 GT ISZERO PUSH2 0x337 JUMPI PUSH2 0x336 PUSH2 0x45B JUMP JUMPDEST JUMPDEST PUSH2 0x340 DUP3 PUSH2 0x49E JUMP JUMPDEST SWAP1 POP PUSH1 0x20 DUP2 ADD SWAP1 POP SWAP2 SWAP1 POP JUMP JUMPDEST PUSH1 0x0 PUSH8 0xFFFFFFFFFFFFFFFF DUP3 GT ISZERO PUSH2 0x368 JUMPI PUSH2 0x367 PUSH2 0x45B JUMP JUMPDEST JUMPDEST PUSH2 0x371 DUP3 PUSH2 0x49E JUMP JUMPDEST SWAP1 POP PUSH1 0x20 DUP2 ADD SWAP1 POP SWAP2 SWAP1 POP JUMP JUMPDEST PUSH1 0x0 DUP2 MLOAD SWAP1 POP SWAP2 SWAP1 POP JUMP JUMPDEST PUSH1 0x0 DUP2 MLOAD SWAP1 POP SWAP2 SWAP1 POP JUMP JUMPDEST PUSH1 0x0 DUP3 DUP3 MSTORE PUSH1 0x20 DUP3 ADD SWAP1 POP SWAP3 SWAP2 POP POP JUMP JUMPDEST PUSH1 0x0 DUP3 DUP3 MSTORE PUSH1 0x20 DUP3 ADD SWAP1 POP SWAP3 SWAP2 POP POP JUMP JUMPDEST PUSH1 0x0 PUSH2 0x3C1 DUP3 PUSH2 0x3C8 JUMP JUMPDEST SWAP1 POP SWAP2 SWAP1 POP JUMP JUMPDEST PUSH1 0x0 PUSH20 0xFFFFFFFFFFFFFFFFFFFFFFFFFFFFFFFFFFFFFFFF DUP3 AND SWAP1 POP SWAP2 SWAP1 POP JUMP JUMPDEST DUP3 DUP2 DUP4 CALLDATACOPY PUSH1 0x0 DUP4 DUP4 ADD MSTORE POP POP POP JUMP JUMPDEST PUSH1 0x0 JUMPDEST DUP4 DUP2 LT ISZERO PUSH2 0x415 JUMPI DUP1 DUP3 ADD MLOAD DUP2 DUP5 ADD MSTORE PUSH1 0x20 DUP2 ADD SWAP1 POP PUSH2 0x3FA JUMP JUMPDEST DUP4 DUP2 GT ISZERO PUSH2 0x424 JUMPI PUSH1 0x0 DUP5 DUP5 ADD MSTORE JUMPDEST POP POP POP POP JUMP JUMPDEST PUSH2 0x433 DUP3 PUSH2 0x49E JUMP JUMPDEST DUP2 ADD DUP2 DUP2 LT PUSH8 0xFFFFFFFFFFFFFFFF DUP3 GT OR ISZERO PUSH2 0x452 JUMPI PUSH2 0x451 PUSH2 0x45B JUMP JUMPDEST JUMPDEST DUP1 PUSH1 0x40 MSTORE POP POP POP JUMP JUMPDEST PUSH32 0x4E487B7100000000000000000000000000000000000000000000000000000000 PUSH1 0x0 MSTORE PUSH1 0x41 PUSH1 0x4 MSTORE PUSH1 0x24 PUSH1 0x0 REVERT JUMPDEST PUSH1 0x0 DUP1 REVERT JUMPDEST PUSH1 0x0 DUP1 REVERT JUMPDEST PUSH1 0x0 DUP1 REVERT JUMPDEST PUSH1 0x0 DUP1 REVERT JUMPDEST PUSH1 0x0 PUSH1 0x1F NOT PUSH1 0x1F DUP4 ADD AND SWAP1 POP SWAP2 SWAP1 POP JUMP JUMPDEST PUSH2 0x4B8 DUP2 PUSH2 0x3B6 JUMP JUMPDEST DUP2 EQ PUSH2 0x4C3 JUMPI PUSH1 0x0 DUP1 REVERT JUMPDEST POP JUMP INVALID LOG2 PUSH5 0x6970667358 0x22 SLT KECCAK256 0xEF CALL 0xBC EXTCODECOPY INVALID 0x27 CALLDATACOPY SWAP7 0xE1 PUSH21 0x991CE957AD6C758AB12CCD6562F4D9E4149E711ED3 DIV PUSH5 0x736F6C6343 STOP ADDMOD SMOD STOP CALLER "
        },
        "methodIdentifiers": {
          "emitEvent(string,address,address,bytes)": "b5f829d8"
        }
      }
    }
  }
}