{
  "contracts/facets/CredentialEventFacet.sol": {
    "CredentialEventFacet": {
      "abi": [
        {
          "anonymous": false,
          "inputs": [
            {
              "indexed": false,
              "internalType": "string",
              "name": "list_id",
              "type": "string"
            },
            {
              "indexed": false,
              "internalType": "address",
              "name": "original_msg_sender",
              "type": "address"
            },
            {
              "indexed": false,
              "internalType": "address",
              "name": "contractAddr",
              "type": "address"
            },
            {
              "indexed": false,
              "internalType": "string",
              "name": "funcName",
              "type": "string"
            },
            {
              "indexed": false,
              "internalType": "bytes",
              "name": "original_msg_data",
              "type": "bytes"
            }
          ],
          "name": "RequestCredentialsCallback",
          "type": "event"
        },
        {
          "inputs": [
            {
              "internalType": "string",
              "name": "_list_id",
              "type": "string"
            },
            {
              "internalType": "address",
              "name": "_sender",
              "type": "address"
            },
            {
              "internalType": "address",
              "name": "_contractAddr",
              "type": "address"
            },
            {
              "internalType": "string",
              "name": "_funcName",
              "type": "string"
            },
            {
              "internalType": "bytes",
              "name": "_data",
              "type": "bytes"
            }
          ],
          "name": "emitEvent",
          "outputs": [],
          "stateMutability": "nonpayable",
          "type": "function"
        }
      ],
      "evm": {
        "bytecode": {
          "linkReferences": {},
          "object": "608060405234801561001057600080fd5b50610544806100206000396000f3fe608060405234801561001057600080fd5b506004361061002b5760003560e01c8063a78d2ba314610030575b600080fd5b61004a60048036038101906100459190610187565b61004c565b005b7f37c3fbf03a160c29acc48ad2883e3c46f0041d8d41057b519658a7135a2afbf785858585856040516100839594939291906102d7565b60405180910390a15050505050565b60006100a56100a084610364565b61033f565b9050828152602081018484840111156100c1576100c06104d7565b5b6100cc848285610430565b509392505050565b60006100e76100e284610395565b61033f565b905082815260208101848484011115610103576101026104d7565b5b61010e848285610430565b509392505050565b600081359050610125816104f7565b92915050565b600082601f8301126101405761013f6104d2565b5b8135610150848260208601610092565b91505092915050565b600082601f83011261016e5761016d6104d2565b5b813561017e8482602086016100d4565b91505092915050565b600080600080600060a086880312156101a3576101a26104e1565b5b600086013567ffffffffffffffff8111156101c1576101c06104dc565b5b6101cd88828901610159565b95505060206101de88828901610116565b94505060406101ef88828901610116565b935050606086013567ffffffffffffffff8111156102105761020f6104dc565b5b61021c88828901610159565b925050608086013567ffffffffffffffff81111561023d5761023c6104dc565b5b6102498882890161012b565b9150509295509295909350565b61025f816103fe565b82525050565b6000610270826103c6565b61027a81856103dc565b935061028a81856020860161043f565b610293816104e6565b840191505092915050565b60006102a9826103d1565b6102b381856103ed565b93506102c381856020860161043f565b6102cc816104e6565b840191505092915050565b600060a08201905081810360008301526102f1818861029e565b90506103006020830187610256565b61030d6040830186610256565b818103606083015261031f818561029e565b905081810360808301526103338184610265565b90509695505050505050565b600061034961035a565b90506103558282610472565b919050565b6000604051905090565b600067ffffffffffffffff82111561037f5761037e6104a3565b5b610388826104e6565b9050602081019050919050565b600067ffffffffffffffff8211156103b0576103af6104a3565b5b6103b9826104e6565b9050602081019050919050565b600081519050919050565b600081519050919050565b600082825260208201905092915050565b600082825260208201905092915050565b600061040982610410565b9050919050565b600073ffffffffffffffffffffffffffffffffffffffff82169050919050565b82818337600083830152505050565b60005b8381101561045d578082015181840152602081019050610442565b8381111561046c576000848401525b50505050565b61047b826104e6565b810181811067ffffffffffffffff8211171561049a576104996104a3565b5b80604052505050565b7f4e487b7100000000000000000000000000000000000000000000000000000000600052604160045260246000fd5b600080fd5b600080fd5b600080fd5b600080fd5b6000601f19601f8301169050919050565b610500816103fe565b811461050b57600080fd5b5056fea2646970667358221220398d169a70fa3eaeac15ae44ff825ce6b695c4f3146a925827863b7c69b1c02a64736f6c63430008070033",
          "opcodes": "PUSH1 0x80 PUSH1 0x40 MSTORE CALLVALUE DUP1 ISZERO PUSH2 0x10 JUMPI PUSH1 0x0 DUP1 REVERT JUMPDEST POP PUSH2 0x544 DUP1 PUSH2 0x20 PUSH1 0x0 CODECOPY PUSH1 0x0 RETURN INVALID PUSH1 0x80 PUSH1 0x40 MSTORE CALLVALUE DUP1 ISZERO PUSH2 0x10 JUMPI PUSH1 0x0 DUP1 REVERT JUMPDEST POP PUSH1 0x4 CALLDATASIZE LT PUSH2 0x2B JUMPI PUSH1 0x0 CALLDATALOAD PUSH1 0xE0 SHR DUP1 PUSH4 0xA78D2BA3 EQ PUSH2 0x30 JUMPI JUMPDEST PUSH1 0x0 DUP1 REVERT JUMPDEST PUSH2 0x4A PUSH1 0x4 DUP1 CALLDATASIZE SUB DUP2 ADD SWAP1 PUSH2 0x45 SWAP2 SWAP1 PUSH2 0x187 JUMP JUMPDEST PUSH2 0x4C JUMP JUMPDEST STOP JUMPDEST PUSH32 0x37C3FBF03A160C29ACC48AD2883E3C46F0041D8D41057B519658A7135A2AFBF7 DUP6 DUP6 DUP6 DUP6 DUP6 PUSH1 0x40 MLOAD PUSH2 0x83 SWAP6 SWAP5 SWAP4 SWAP3 SWAP2 SWAP1 PUSH2 0x2D7 JUMP JUMPDEST PUSH1 0x40 MLOAD DUP1 SWAP2 SUB SWAP1 LOG1 POP POP POP POP POP JUMP JUMPDEST PUSH1 0x0 PUSH2 0xA5 PUSH2 0xA0 DUP5 PUSH2 0x364 JUMP JUMPDEST PUSH2 0x33F JUMP JUMPDEST SWAP1 POP DUP3 DUP2 MSTORE PUSH1 0x20 DUP2 ADD DUP5 DUP5 DUP5 ADD GT ISZERO PUSH2 0xC1 JUMPI PUSH2 0xC0 PUSH2 0x4D7 JUMP JUMPDEST JUMPDEST PUSH2 0xCC DUP5 DUP3 DUP6 PUSH2 0x430 JUMP JUMPDEST POP SWAP4 SWAP3 POP POP POP JUMP JUMPDEST PUSH1 0x0 PUSH2 0xE7 PUSH2 0xE2 DUP5 PUSH2 0x395 JUMP JUMPDEST PUSH2 0x33F JUMP JUMPDEST SWAP1 POP DUP3 DUP2 MSTORE PUSH1 0x20 DUP2 ADD DUP5 DUP5 DUP5 ADD GT ISZERO PUSH2 0x103 JUMPI PUSH2 0x102 PUSH2 0x4D7 JUMP JUMPDEST JUMPDEST PUSH2 0x10E DUP5 DUP3 DUP6 PUSH2 0x430 JUMP JUMPDEST POP SWAP4 SWAP3 POP POP POP JUMP JUMPDEST PUSH1 0x0 DUP2 CALLDATALOAD SWAP1 POP PUSH2 0x125 DUP2 PUSH2 0x4F7 JUMP JUMPDEST SWAP3 SWAP2 POP POP JUMP JUMPDEST PUSH1 0x0 DUP3 PUSH1 0x1F DUP4 ADD SLT PUSH2 0x140 JUMPI PUSH2 0x13F PUSH2 0x4D2 JUMP JUMPDEST JUMPDEST DUP2 CALLDATALOAD PUSH2 0x150 DUP5 DUP3 PUSH1 0x20 DUP7 ADD PUSH2 0x92 JUMP JUMPDEST SWAP2 POP POP SWAP3 SWAP2 POP POP JUMP JUMPDEST PUSH1 0x0 DUP3 PUSH1 0x1F DUP4 ADD SLT PUSH2 0x16E JUMPI PUSH2 0x16D PUSH2 0x4D2 JUMP JUMPDEST JUMPDEST DUP2 CALLDATALOAD PUSH2 0x17E DUP5 DUP3 PUSH1 0x20 DUP7 ADD PUSH2 0xD4 JUMP JUMPDEST SWAP2 POP POP SWAP3 SWAP2 POP POP JUMP JUMPDEST PUSH1 0x0 DUP1 PUSH1 0x0 DUP1 PUSH1 0x0 PUSH1 0xA0 DUP7 DUP9 SUB SLT ISZERO PUSH2 0x1A3 JUMPI PUSH2 0x1A2 PUSH2 0x4E1 JUMP JUMPDEST JUMPDEST PUSH1 0x0 DUP7 ADD CALLDATALOAD PUSH8 0xFFFFFFFFFFFFFFFF DUP2 GT ISZERO PUSH2 0x1C1 JUMPI PUSH2 0x1C0 PUSH2 0x4DC JUMP JUMPDEST JUMPDEST PUSH2 0x1CD DUP9 DUP3 DUP10 ADD PUSH2 0x159 JUMP JUMPDEST SWAP6 POP POP PUSH1 0x20 PUSH2 0x1DE DUP9 DUP3 DUP10 ADD PUSH2 0x116 JUMP JUMPDEST SWAP5 POP POP PUSH1 0x40 PUSH2 0x1EF DUP9 DUP3 DUP10 ADD PUSH2 0x116 JUMP JUMPDEST SWAP4 POP POP PUSH1 0x60 DUP7 ADD CALLDATALOAD PUSH8 0xFFFFFFFFFFFFFFFF DUP2 GT ISZERO PUSH2 0x210 JUMPI PUSH2 0x20F PUSH2 0x4DC JUMP JUMPDEST JUMPDEST PUSH2 0x21C DUP9 DUP3 DUP10 ADD PUSH2 0x159 JUMP JUMPDEST SWAP3 POP POP PUSH1 0x80 DUP7 ADD CALLDATALOAD PUSH8 0xFFFFFFFFFFFFFFFF DUP2 GT ISZERO PUSH2 0x23D JUMPI PUSH2 0x23C PUSH2 0x4DC JUMP JUMPDEST JUMPDEST PUSH2 0x249 DUP9 DUP3 DUP10 ADD PUSH2 0x12B JUMP JUMPDEST SWAP2 POP POP SWAP3 SWAP6 POP SWAP3 SWAP6 SWAP1 SWAP4 POP JUMP JUMPDEST PUSH2 0x25F DUP2 PUSH2 0x3FE JUMP JUMPDEST DUP3 MSTORE POP POP JUMP JUMPDEST PUSH1 0x0 PUSH2 0x270 DUP3 PUSH2 0x3C6 JUMP JUMPDEST PUSH2 0x27A DUP2 DUP6 PUSH2 0x3DC JUMP JUMPDEST SWAP4 POP PUSH2 0x28A DUP2 DUP6 PUSH1 0x20 DUP7 ADD PUSH2 0x43F JUMP JUMPDEST PUSH2 0x293 DUP2 PUSH2 0x4E6 JUMP JUMPDEST DUP5 ADD SWAP2 POP POP SWAP3 SWAP2 POP POP JUMP JUMPDEST PUSH1 0x0 PUSH2 0x2A9 DUP3 PUSH2 0x3D1 JUMP JUMPDEST PUSH2 0x2B3 DUP2 DUP6 PUSH2 0x3ED JUMP JUMPDEST SWAP4 POP PUSH2 0x2C3 DUP2 DUP6 PUSH1 0x20 DUP7 ADD PUSH2 0x43F JUMP JUMPDEST PUSH2 0x2CC DUP2 PUSH2 0x4E6 JUMP JUMPDEST DUP5 ADD SWAP2 POP POP SWAP3 SWAP2 POP POP JUMP JUMPDEST PUSH1 0x0 PUSH1 0xA0 DUP3 ADD SWAP1 POP DUP2 DUP2 SUB PUSH1 0x0 DUP4 ADD MSTORE PUSH2 0x2F1 DUP2 DUP9 PUSH2 0x29E JUMP JUMPDEST SWAP1 POP PUSH2 0x300 PUSH1 0x20 DUP4 ADD DUP8 PUSH2 0x256 JUMP JUMPDEST PUSH2 0x30D PUSH1 0x40 DUP4 ADD DUP7 PUSH2 0x256 JUMP JUMPDEST DUP2 DUP2 SUB PUSH1 0x60 DUP4 ADD MSTORE PUSH2 0x31F DUP2 DUP6 PUSH2 0x29E JUMP JUMPDEST SWAP1 POP DUP2 DUP2 SUB PUSH1 0x80 DUP4 ADD MSTORE PUSH2 0x333 DUP2 DUP5 PUSH2 0x265 JUMP JUMPDEST SWAP1 POP SWAP7 SWAP6 POP POP POP POP POP POP JUMP JUMPDEST PUSH1 0x0 PUSH2 0x349 PUSH2 0x35A JUMP JUMPDEST SWAP1 POP PUSH2 0x355 DUP3 DUP3 PUSH2 0x472 JUMP JUMPDEST SWAP2 SWAP1 POP JUMP JUMPDEST PUSH1 0x0 PUSH1 0x40 MLOAD SWAP1 POP SWAP1 JUMP JUMPDEST PUSH1 0x0 PUSH8 0xFFFFFFFFFFFFFFFF DUP3 GT ISZERO PUSH2 0x37F JUMPI PUSH2 0x37E PUSH2 0x4A3 JUMP JUMPDEST JUMPDEST PUSH2 0x388 DUP3 PUSH2 0x4E6 JUMP JUMPDEST SWAP1 POP PUSH1 0x20 DUP2 ADD SWAP1 POP SWAP2 SWAP1 POP JUMP JUMPDEST PUSH1 0x0 PUSH8 0xFFFFFFFFFFFFFFFF DUP3 GT ISZERO PUSH2 0x3B0 JUMPI PUSH2 0x3AF PUSH2 0x4A3 JUMP JUMPDEST JUMPDEST PUSH2 0x3B9 DUP3 PUSH2 0x4E6 JUMP JUMPDEST SWAP1 POP PUSH1 0x20 DUP2 ADD SWAP1 POP SWAP2 SWAP1 POP JUMP JUMPDEST PUSH1 0x0 DUP2 MLOAD SWAP1 POP SWAP2 SWAP1 POP JUMP JUMPDEST PUSH1 0x0 DUP2 MLOAD SWAP1 POP SWAP2 SWAP1 POP JUMP JUMPDEST PUSH1 0x0 DUP3 DUP3 MSTORE PUSH1 0x20 DUP3 ADD SWAP1 POP SWAP3 SWAP2 POP POP JUMP JUMPDEST PUSH1 0x0 DUP3 DUP3 MSTORE PUSH1 0x20 DUP3 ADD SWAP1 POP SWAP3 SWAP2 POP POP JUMP JUMPDEST PUSH1 0x0 PUSH2 0x409 DUP3 PUSH2 0x410 JUMP JUMPDEST SWAP1 POP SWAP2 SWAP1 POP JUMP JUMPDEST PUSH1 0x0 PUSH20 0xFFFFFFFFFFFFFFFFFFFFFFFFFFFFFFFFFFFFFFFF DUP3 AND SWAP1 POP SWAP2 SWAP1 POP JUMP JUMPDEST DUP3 DUP2 DUP4 CALLDATACOPY PUSH1 0x0 DUP4 DUP4 ADD MSTORE POP POP POP JUMP JUMPDEST PUSH1 0x0 JUMPDEST DUP4 DUP2 LT ISZERO PUSH2 0x45D JUMPI DUP1 DUP3 ADD MLOAD DUP2 DUP5 ADD MSTORE PUSH1 0x20 DUP2 ADD SWAP1 POP PUSH2 0x442 JUMP JUMPDEST DUP4 DUP2 GT ISZERO PUSH2 0x46C JUMPI PUSH1 0x0 DUP5 DUP5 ADD MSTORE JUMPDEST POP POP POP POP JUMP JUMPDEST PUSH2 0x47B DUP3 PUSH2 0x4E6 JUMP JUMPDEST DUP2 ADD DUP2 DUP2 LT PUSH8 0xFFFFFFFFFFFFFFFF DUP3 GT OR ISZERO PUSH2 0x49A JUMPI PUSH2 0x499 PUSH2 0x4A3 JUMP JUMPDEST JUMPDEST DUP1 PUSH1 0x40 MSTORE POP POP POP JUMP JUMPDEST PUSH32 0x4E487B7100000000000000000000000000000000000000000000000000000000 PUSH1 0x0 MSTORE PUSH1 0x41 PUSH1 0x4 MSTORE PUSH1 0x24 PUSH1 0x0 REVERT JUMPDEST PUSH1 0x0 DUP1 REVERT JUMPDEST PUSH1 0x0 DUP1 REVERT JUMPDEST PUSH1 0x0 DUP1 REVERT JUMPDEST PUSH1 0x0 DUP1 REVERT JUMPDEST PUSH1 0x0 PUSH1 0x1F NOT PUSH1 0x1F DUP4 ADD AND SWAP1 POP SWAP2 SWAP1 POP JUMP JUMPDEST PUSH2 0x500 DUP2 PUSH2 0x3FE JUMP JUMPDEST DUP2 EQ PUSH2 0x50B JUMPI PUSH1 0x0 DUP1 REVERT JUMPDEST POP JUMP INVALID LOG2 PUSH5 0x6970667358 0x22 SLT KECCAK256 CODECOPY DUP14 AND SWAP11 PUSH17 0xFA3EAEAC15AE44FF825CE6B695C4F3146A SWAP3 PC 0x27 DUP7 EXTCODESIZE PUSH29 0x69B1C02A64736F6C634300080700330000000000000000000000000000 "
        },
        "methodIdentifiers": {
          "emitEvent(string,address,address,string,bytes)": "a78d2ba3"
        }
      }
    }
  }
}