{
  "_format": "hh-sol-artifact-1",
  "contractName": "GovernanceFacet",
  "sourceName": "contracts/facets/GovernanceFacet.sol",
  "abi": [
    {
      "inputs": [
        {
          "internalType": "contract CredentialEventFacet",
          "name": "_credentialOracle",
          "type": "address"
        }
      ],
      "stateMutability": "nonpayable",
      "type": "constructor"
    },
    {
      "inputs": [],
      "name": "CREDENTIAL_EVENT",
      "outputs": [
        {
          "internalType": "contract CredentialEventFacet",
          "name": "",
          "type": "address"
        }
      ],
      "stateMutability": "view",
      "type": "function"
    },
    {
      "inputs": [],
      "name": "list",
      "outputs": [
        {
          "internalType": "string",
          "name": "",
          "type": "string"
        }
      ],
      "stateMutability": "view",
      "type": "function"
    },
    {
      "inputs": [],
      "name": "name",
      "outputs": [
        {
          "internalType": "string",
          "name": "",
          "type": "string"
        }
      ],
      "stateMutability": "view",
      "type": "function"
    },
    {
      "inputs": [
        {
          "internalType": "string",
          "name": "someParam",
          "type": "string"
        },
        {
          "internalType": "string",
          "name": "_listId",
          "type": "string"
        }
      ],
      "name": "raiseNoConfidenceMotion",
      "outputs": [],
      "stateMutability": "nonpayable",
      "type": "function"
    },
    {
      "inputs": [
        {
          "internalType": "string",
          "name": "someParam",
          "type": "string"
        },
        {
          "internalType": "bytes[]",
          "name": "proof",
          "type": "bytes[]"
        }
      ],
      "name": "raiseNoConfidenceMotion_authorised",
      "outputs": [],
      "stateMutability": "nonpayable",
      "type": "function"
    },
    {
      "inputs": [
        {
          "internalType": "string",
          "name": "someParam",
          "type": "string"
        }
      ],
      "name": "raiseNoConfidenceMotion_unauthorised",
      "outputs": [],
      "stateMutability": "nonpayable",
      "type": "function"
    },
    {
      "inputs": [
        {
          "internalType": "string",
          "name": "someParam",
          "type": "string"
        },
        {
          "internalType": "string",
          "name": "_listId",
          "type": "string"
        }
      ],
      "name": "reviewApplication",
      "outputs": [],
      "stateMutability": "nonpayable",
      "type": "function"
    },
    {
      "inputs": [
        {
          "internalType": "string",
          "name": "someParam",
          "type": "string"
        },
        {
          "internalType": "bytes[]",
          "name": "proof",
          "type": "bytes[]"
        }
      ],
      "name": "reviewApplication_authorised",
      "outputs": [],
      "stateMutability": "nonpayable",
      "type": "function"
    },
    {
      "inputs": [
        {
          "internalType": "string",
          "name": "someParam",
          "type": "string"
        }
      ],
      "name": "reviewApplication_unauthorised",
      "outputs": [],
      "stateMutability": "nonpayable",
      "type": "function"
    }
  ],
  "bytecode": "0x608060405234801561001057600080fd5b5060405162000edf38038062000edf833981810160405281019061003491906100d2565b80806000806101000a81548173ffffffffffffffffffffffffffffffffffffffff021916908373ffffffffffffffffffffffffffffffffffffffff16021790555080600160006101000a81548173ffffffffffffffffffffffffffffffffffffffff021916908373ffffffffffffffffffffffffffffffffffffffff160217905550505061015f565b6000815190506100cc81610148565b92915050565b6000602082840312156100e8576100e7610143565b5b60006100f6848285016100bd565b91505092915050565b600061010a82610123565b9050919050565b600061011c826100ff565b9050919050565b600073ffffffffffffffffffffffffffffffffffffffff82169050919050565b600080fd5b61015181610111565b811461015c57600080fd5b50565b610d70806200016f6000396000f3fe608060405234801561001057600080fd5b50600436106100935760003560e01c806339c33c6c1161006657806339c33c6c1461010c5780635f7690b31461012857806376b0544c14610146578063dfa41b3214610162578063f3f8ac741461017e57610093565b8063031839aa1461009857806306fdde03146100b45780630f560cd7146100d257806319912c05146100f0575b600080fd5b6100b260048036038101906100ad91906108b3565b61019a565b005b6100bc610234565b6040516100c991906109ed565b60405180910390f35b6100da6102c2565b6040516100e791906109ed565b60405180910390f35b61010a6004803603810190610105919061083b565b610350565b005b610126600480360381019061012191906107f2565b6103e2565b005b610130610473565b60405161013d91906109d2565b60405180910390f35b610160600480360381019061015b91906108b3565b610499565b005b61017c600480360381019061017791906107f2565b610533565b005b6101986004803603810190610193919061083b565b6105c4565b005b80600160009054906101000a900473ffffffffffffffffffffffffffffffffffffffff1673ffffffffffffffffffffffffffffffffffffffff16631a971c1b82336000366040518563ffffffff1660e01b81526004016101fd9493929190610a0f565b600060405180830381600087803b15801561021757600080fd5b505af115801561022b573d6000803e3d6000fd5b50505050505050565b6002805461024190610c00565b80601f016020809104026020016040519081016040528092919081815260200182805461026d90610c00565b80156102ba5780601f1061028f576101008083540402835291602001916102ba565b820191906000526020600020905b81548152906001019060200180831161029d57829003601f168201915b505050505081565b600380546102cf90610c00565b80601f01602080910402602001604051908101604052809291908181526020018280546102fb90610c00565b80156103485780601f1061031d57610100808354040283529160200191610348565b820191906000526020600020905b81548152906001019060200180831161032b57829003601f168201915b505050505081565b60008054906101000a900473ffffffffffffffffffffffffffffffffffffffff1673ffffffffffffffffffffffffffffffffffffffff163373ffffffffffffffffffffffffffffffffffffffff16146103de576040517f08c379a00000000000000000000000000000000000000000000000000000000081526004016103d590610a56565b60405180910390fd5b5050565b60008054906101000a900473ffffffffffffffffffffffffffffffffffffffff1673ffffffffffffffffffffffffffffffffffffffff163373ffffffffffffffffffffffffffffffffffffffff1614610470576040517f08c379a000000000000000000000000000000000000000000000000000000000815260040161046790610a56565b60405180910390fd5b50565b600160009054906101000a900473ffffffffffffffffffffffffffffffffffffffff1681565b80600160009054906101000a900473ffffffffffffffffffffffffffffffffffffffff1673ffffffffffffffffffffffffffffffffffffffff16631a971c1b82336000366040518563ffffffff1660e01b81526004016104fc9493929190610a0f565b600060405180830381600087803b15801561051657600080fd5b505af115801561052a573d6000803e3d6000fd5b50505050505050565b60008054906101000a900473ffffffffffffffffffffffffffffffffffffffff1673ffffffffffffffffffffffffffffffffffffffff163373ffffffffffffffffffffffffffffffffffffffff16146105c1576040517f08c379a00000000000000000000000000000000000000000000000000000000081526004016105b890610a56565b60405180910390fd5b50565b60008054906101000a900473ffffffffffffffffffffffffffffffffffffffff1673ffffffffffffffffffffffffffffffffffffffff163373ffffffffffffffffffffffffffffffffffffffff1614610652576040517f08c379a000000000000000000000000000000000000000000000000000000000815260040161064990610a56565b60405180910390fd5b5050565b600061066961066484610a9b565b610a76565b9050808382526020820190508285602086028201111561068c5761068b610cc6565b5b60005b858110156106da57813567ffffffffffffffff8111156106b2576106b1610cc1565b5b8086016106bf8982610796565b8552602085019450602084019350505060018101905061068f565b5050509392505050565b60006106f76106f284610ac7565b610a76565b90508281526020810184848401111561071357610712610ccb565b5b61071e848285610bbe565b509392505050565b600061073961073484610af8565b610a76565b90508281526020810184848401111561075557610754610ccb565b5b610760848285610bbe565b509392505050565b600082601f83011261077d5761077c610cc1565b5b813561078d848260208601610656565b91505092915050565b600082601f8301126107ab576107aa610cc1565b5b81356107bb8482602086016106e4565b91505092915050565b600082601f8301126107d9576107d8610cc1565b5b81356107e9848260208601610726565b91505092915050565b60006020828403121561080857610807610cd5565b5b600082013567ffffffffffffffff81111561082657610825610cd0565b5b610832848285016107c4565b91505092915050565b6000806040838503121561085257610851610cd5565b5b600083013567ffffffffffffffff8111156108705761086f610cd0565b5b61087c858286016107c4565b925050602083013567ffffffffffffffff81111561089d5761089c610cd0565b5b6108a985828601610768565b9150509250929050565b600080604083850312156108ca576108c9610cd5565b5b600083013567ffffffffffffffff8111156108e8576108e7610cd0565b5b6108f4858286016107c4565b925050602083013567ffffffffffffffff81111561091557610914610cd0565b5b610921858286016107c4565b9150509250929050565b61093481610b56565b82525050565b60006109468385610b34565b9350610953838584610bbe565b61095c83610cda565b840190509392505050565b61097081610b88565b82525050565b600061098182610b29565b61098b8185610b45565b935061099b818560208601610bcd565b6109a481610cda565b840191505092915050565b60006109bc603b83610b45565b91506109c782610ceb565b604082019050919050565b60006020820190506109e76000830184610967565b92915050565b60006020820190508181036000830152610a078184610976565b905092915050565b60006060820190508181036000830152610a298187610976565b9050610a38602083018661092b565b8181036040830152610a4b81848661093a565b905095945050505050565b60006020820190508181036000830152610a6f816109af565b9050919050565b6000610a80610a91565b9050610a8c8282610c32565b919050565b6000604051905090565b600067ffffffffffffffff821115610ab657610ab5610c92565b5b602082029050602081019050919050565b600067ffffffffffffffff821115610ae257610ae1610c92565b5b610aeb82610cda565b9050602081019050919050565b600067ffffffffffffffff821115610b1357610b12610c92565b5b610b1c82610cda565b9050602081019050919050565b600081519050919050565b600082825260208201905092915050565b600082825260208201905092915050565b6000610b6182610b68565b9050919050565b600073ffffffffffffffffffffffffffffffffffffffff82169050919050565b6000610b9382610b9a565b9050919050565b6000610ba582610bac565b9050919050565b6000610bb782610b68565b9050919050565b82818337600083830152505050565b60005b83811015610beb578082015181840152602081019050610bd0565b83811115610bfa576000848401525b50505050565b60006002820490506001821680610c1857607f821691505b60208210811415610c2c57610c2b610c63565b5b50919050565b610c3b82610cda565b810181811067ffffffffffffffff82111715610c5a57610c59610c92565b5b80604052505050565b7f4e487b7100000000000000000000000000000000000000000000000000000000600052602260045260246000fd5b7f4e487b7100000000000000000000000000000000000000000000000000000000600052604160045260246000fd5b600080fd5b600080fd5b600080fd5b600080fd5b600080fd5b6000601f19601f8301169050919050565b7f43726564656e7469616c2043616c6c4261636b3a204f6e6c7920746865206f7260008201527f61636c652063616e2063616c6c20746869732066756e6374696f6e000000000060208201525056fea264697066735822122028cd3c5a7fbd2b789847892be834ec0edd4814651f9ee1ada958142edd3d2cee64736f6c63430008070033",
  "linkReferences": {},
  "deployedLinkReferences": {}
}