{
  "_format": "hh-sol-artifact-1",
  "contractName": "GovernanceFacet",
  "sourceName": "contracts/facets/GovernanceFacet.sol",
  "abi": [
    {
      "inputs": [
        {
          "internalType": "contract CredentialEventFacet",
          "name": "_credentialOracle",
          "type": "address"
        }
      ],
      "stateMutability": "nonpayable",
      "type": "constructor"
    },
    {
      "inputs": [],
      "name": "CREDENTIAL_EVENT",
      "outputs": [
        {
          "internalType": "contract CredentialEventFacet",
          "name": "",
          "type": "address"
        }
      ],
      "stateMutability": "view",
      "type": "function"
    },
    {
      "inputs": [],
      "name": "list",
      "outputs": [
        {
          "internalType": "string",
          "name": "",
          "type": "string"
        }
      ],
      "stateMutability": "view",
      "type": "function"
    },
    {
      "inputs": [],
      "name": "name",
      "outputs": [
        {
          "internalType": "string",
          "name": "",
          "type": "string"
        }
      ],
      "stateMutability": "view",
      "type": "function"
    },
    {
      "inputs": [
        {
          "internalType": "string",
          "name": "someParam",
          "type": "string"
        },
        {
          "internalType": "string",
          "name": "_listId",
          "type": "string"
        }
      ],
      "name": "raiseNoConfidenceMotion",
      "outputs": [],
      "stateMutability": "nonpayable",
      "type": "function"
    },
    {
      "inputs": [
        {
          "internalType": "string",
          "name": "someParam",
          "type": "string"
        },
        {
          "internalType": "bytes[]",
          "name": "proof",
          "type": "bytes[]"
        }
      ],
      "name": "raiseNoConfidenceMotion_authorised",
      "outputs": [],
      "stateMutability": "nonpayable",
      "type": "function"
    },
    {
      "inputs": [
        {
          "internalType": "string",
          "name": "someParam",
          "type": "string"
        }
      ],
      "name": "raiseNoConfidenceMotion_unauthorised",
      "outputs": [],
      "stateMutability": "nonpayable",
      "type": "function"
    },
    {
      "inputs": [
        {
          "internalType": "string",
          "name": "someParam",
          "type": "string"
        },
        {
          "internalType": "string",
          "name": "_listId",
          "type": "string"
        }
      ],
      "name": "reviewApplication",
      "outputs": [],
      "stateMutability": "nonpayable",
      "type": "function"
    },
    {
      "inputs": [
        {
          "internalType": "string",
          "name": "someParam",
          "type": "string"
        },
        {
          "internalType": "bytes[]",
          "name": "proof",
          "type": "bytes[]"
        }
      ],
      "name": "reviewApplication_authorised",
      "outputs": [],
      "stateMutability": "nonpayable",
      "type": "function"
    },
    {
      "inputs": [
        {
          "internalType": "string",
          "name": "someParam",
          "type": "string"
        }
      ],
      "name": "reviewApplication_unauthorised",
      "outputs": [],
      "stateMutability": "nonpayable",
      "type": "function"
    }
  ],
  "bytecode": "0x608060405234801561001057600080fd5b5060405162000ef538038062000ef5833981810160405281019061003491906100d2565b80806000806101000a81548173ffffffffffffffffffffffffffffffffffffffff021916908373ffffffffffffffffffffffffffffffffffffffff16021790555080600160006101000a81548173ffffffffffffffffffffffffffffffffffffffff021916908373ffffffffffffffffffffffffffffffffffffffff160217905550505061015f565b6000815190506100cc81610148565b92915050565b6000602082840312156100e8576100e7610143565b5b60006100f6848285016100bd565b91505092915050565b600061010a82610123565b9050919050565b600061011c826100ff565b9050919050565b600073ffffffffffffffffffffffffffffffffffffffff82169050919050565b600080fd5b61015181610111565b811461015c57600080fd5b50565b610d86806200016f6000396000f3fe608060405234801561001057600080fd5b50600436106100935760003560e01c806339c33c6c1161006657806339c33c6c1461010c5780635f7690b31461012857806376b0544c14610146578063dfa41b3214610162578063f3f8ac741461017e57610093565b8063031839aa1461009857806306fdde03146100b45780630f560cd7146100d257806319912c05146100f0575b600080fd5b6100b260048036038101906100ad91906108bb565b61019a565b005b6100bc610238565b6040516100c991906109f5565b60405180910390f35b6100da6102c6565b6040516100e791906109f5565b60405180910390f35b61010a60048036038101906101059190610843565b610354565b005b610126600480360381019061012191906107fa565b6103e6565b005b610130610477565b60405161013d91906109da565b60405180910390f35b610160600480360381019061015b91906108bb565b61049d565b005b61017c600480360381019061017791906107fa565b61053b565b005b61019860048036038101906101939190610843565b6105cc565b005b8030600160009054906101000a900473ffffffffffffffffffffffffffffffffffffffff1673ffffffffffffffffffffffffffffffffffffffff1663b5f829d88333846000366040518663ffffffff1660e01b8152600401610200959493929190610a17565b600060405180830381600087803b15801561021a57600080fd5b505af115801561022e573d6000803e3d6000fd5b5050505050505050565b6002805461024590610c16565b80601f016020809104026020016040519081016040528092919081815260200182805461027190610c16565b80156102be5780601f10610293576101008083540402835291602001916102be565b820191906000526020600020905b8154815290600101906020018083116102a157829003601f168201915b505050505081565b600380546102d390610c16565b80601f01602080910402602001604051908101604052809291908181526020018280546102ff90610c16565b801561034c5780601f106103215761010080835404028352916020019161034c565b820191906000526020600020905b81548152906001019060200180831161032f57829003601f168201915b505050505081565b60008054906101000a900473ffffffffffffffffffffffffffffffffffffffff1673ffffffffffffffffffffffffffffffffffffffff163373ffffffffffffffffffffffffffffffffffffffff16146103e2576040517f08c379a00000000000000000000000000000000000000000000000000000000081526004016103d990610a6c565b60405180910390fd5b5050565b60008054906101000a900473ffffffffffffffffffffffffffffffffffffffff1673ffffffffffffffffffffffffffffffffffffffff163373ffffffffffffffffffffffffffffffffffffffff1614610474576040517f08c379a000000000000000000000000000000000000000000000000000000000815260040161046b90610a6c565b60405180910390fd5b50565b600160009054906101000a900473ffffffffffffffffffffffffffffffffffffffff1681565b8030600160009054906101000a900473ffffffffffffffffffffffffffffffffffffffff1673ffffffffffffffffffffffffffffffffffffffff1663b5f829d88333846000366040518663ffffffff1660e01b8152600401610503959493929190610a17565b600060405180830381600087803b15801561051d57600080fd5b505af1158015610531573d6000803e3d6000fd5b5050505050505050565b60008054906101000a900473ffffffffffffffffffffffffffffffffffffffff1673ffffffffffffffffffffffffffffffffffffffff163373ffffffffffffffffffffffffffffffffffffffff16146105c9576040517f08c379a00000000000000000000000000000000000000000000000000000000081526004016105c090610a6c565b60405180910390fd5b50565b60008054906101000a900473ffffffffffffffffffffffffffffffffffffffff1673ffffffffffffffffffffffffffffffffffffffff163373ffffffffffffffffffffffffffffffffffffffff161461065a576040517f08c379a000000000000000000000000000000000000000000000000000000000815260040161065190610a6c565b60405180910390fd5b5050565b600061067161066c84610ab1565b610a8c565b9050808382526020820190508285602086028201111561069457610693610cdc565b5b60005b858110156106e257813567ffffffffffffffff8111156106ba576106b9610cd7565b5b8086016106c7898261079e565b85526020850194506020840193505050600181019050610697565b5050509392505050565b60006106ff6106fa84610add565b610a8c565b90508281526020810184848401111561071b5761071a610ce1565b5b610726848285610bd4565b509392505050565b600061074161073c84610b0e565b610a8c565b90508281526020810184848401111561075d5761075c610ce1565b5b610768848285610bd4565b509392505050565b600082601f83011261078557610784610cd7565b5b813561079584826020860161065e565b91505092915050565b600082601f8301126107b3576107b2610cd7565b5b81356107c38482602086016106ec565b91505092915050565b600082601f8301126107e1576107e0610cd7565b5b81356107f184826020860161072e565b91505092915050565b6000602082840312156108105761080f610ceb565b5b600082013567ffffffffffffffff81111561082e5761082d610ce6565b5b61083a848285016107cc565b91505092915050565b6000806040838503121561085a57610859610ceb565b5b600083013567ffffffffffffffff81111561087857610877610ce6565b5b610884858286016107cc565b925050602083013567ffffffffffffffff8111156108a5576108a4610ce6565b5b6108b185828601610770565b9150509250929050565b600080604083850312156108d2576108d1610ceb565b5b600083013567ffffffffffffffff8111156108f0576108ef610ce6565b5b6108fc858286016107cc565b925050602083013567ffffffffffffffff81111561091d5761091c610ce6565b5b610929858286016107cc565b9150509250929050565b61093c81610b6c565b82525050565b600061094e8385610b4a565b935061095b838584610bd4565b61096483610cf0565b840190509392505050565b61097881610b9e565b82525050565b600061098982610b3f565b6109938185610b5b565b93506109a3818560208601610be3565b6109ac81610cf0565b840191505092915050565b60006109c4603b83610b5b565b91506109cf82610d01565b604082019050919050565b60006020820190506109ef600083018461096f565b92915050565b60006020820190508181036000830152610a0f818461097e565b905092915050565b60006080820190508181036000830152610a31818861097e565b9050610a406020830187610933565b610a4d6040830186610933565b8181036060830152610a60818486610942565b90509695505050505050565b60006020820190508181036000830152610a85816109b7565b9050919050565b6000610a96610aa7565b9050610aa28282610c48565b919050565b6000604051905090565b600067ffffffffffffffff821115610acc57610acb610ca8565b5b602082029050602081019050919050565b600067ffffffffffffffff821115610af857610af7610ca8565b5b610b0182610cf0565b9050602081019050919050565b600067ffffffffffffffff821115610b2957610b28610ca8565b5b610b3282610cf0565b9050602081019050919050565b600081519050919050565b600082825260208201905092915050565b600082825260208201905092915050565b6000610b7782610b7e565b9050919050565b600073ffffffffffffffffffffffffffffffffffffffff82169050919050565b6000610ba982610bb0565b9050919050565b6000610bbb82610bc2565b9050919050565b6000610bcd82610b7e565b9050919050565b82818337600083830152505050565b60005b83811015610c01578082015181840152602081019050610be6565b83811115610c10576000848401525b50505050565b60006002820490506001821680610c2e57607f821691505b60208210811415610c4257610c41610c79565b5b50919050565b610c5182610cf0565b810181811067ffffffffffffffff82111715610c7057610c6f610ca8565b5b80604052505050565b7f4e487b7100000000000000000000000000000000000000000000000000000000600052602260045260246000fd5b7f4e487b7100000000000000000000000000000000000000000000000000000000600052604160045260246000fd5b600080fd5b600080fd5b600080fd5b600080fd5b600080fd5b6000601f19601f8301169050919050565b7f43726564656e7469616c2043616c6c4261636b3a204f6e6c7920746865206f7260008201527f61636c652063616e2063616c6c20746869732066756e6374696f6e000000000060208201525056fea264697066735822122045ffff075b327f1c62ea01b610753d2f54013b06cdb31fae6afa4a357357ae0964736f6c63430008070033",
  "linkReferences": {},
  "deployedLinkReferences": {}
}