{
  "_format": "hh-sol-artifact-1",
  "contractName": "GovernanceFacet",
  "sourceName": "contracts/facets/GovernanceFacet.sol",
  "abi": [
    {
      "inputs": [
        {
          "internalType": "address",
          "name": "_credentialOracle",
          "type": "address"
        }
      ],
      "stateMutability": "nonpayable",
      "type": "constructor"
    },
    {
      "inputs": [],
      "name": "CREDENTIAL_EVENT",
      "outputs": [
        {
          "internalType": "contract CredentialEventFacet",
          "name": "",
          "type": "address"
        }
      ],
      "stateMutability": "view",
      "type": "function"
    },
    {
      "inputs": [
        {
          "internalType": "string",
          "name": "someParam",
          "type": "string"
        },
        {
          "internalType": "string",
          "name": "_listId",
          "type": "string"
        }
      ],
      "name": "raiseNoConfidenceMotion",
      "outputs": [],
      "stateMutability": "nonpayable",
      "type": "function"
    },
    {
      "inputs": [
        {
          "internalType": "string",
          "name": "someParam",
          "type": "string"
        },
        {
          "internalType": "bytes[]",
          "name": "proof",
          "type": "bytes[]"
        }
      ],
      "name": "raiseNoConfidenceMotion_authorised",
      "outputs": [],
      "stateMutability": "nonpayable",
      "type": "function"
    },
    {
      "inputs": [
        {
          "internalType": "string",
          "name": "someParam",
          "type": "string"
        }
      ],
      "name": "raiseNoConfidenceMotion_unauthorised",
      "outputs": [],
      "stateMutability": "nonpayable",
      "type": "function"
    },
    {
      "inputs": [
        {
          "internalType": "string",
          "name": "someParam",
          "type": "string"
        },
        {
          "internalType": "string",
          "name": "_listId",
          "type": "string"
        }
      ],
      "name": "reviewApplication",
      "outputs": [],
      "stateMutability": "nonpayable",
      "type": "function"
    },
    {
      "inputs": [
        {
          "internalType": "string",
          "name": "someParam",
          "type": "string"
        },
        {
          "internalType": "bytes[]",
          "name": "proof",
          "type": "bytes[]"
        }
      ],
      "name": "reviewApplication_authorised",
      "outputs": [],
      "stateMutability": "nonpayable",
      "type": "function"
    },
    {
      "inputs": [
        {
          "internalType": "string",
          "name": "someParam",
          "type": "string"
        }
      ],
      "name": "reviewApplication_unauthorised",
      "outputs": [],
      "stateMutability": "nonpayable",
      "type": "function"
    }
  ],
  "bytecode": "0x608060405234801561001057600080fd5b50604051610c98380380610c988339818101604052810190610032919061008f565b80806000806101000a81548173ffffffffffffffffffffffffffffffffffffffff021916908373ffffffffffffffffffffffffffffffffffffffff160217905550505061010a565b600081519050610089816100f3565b92915050565b6000602082840312156100a5576100a46100ee565b5b60006100b38482850161007a565b91505092915050565b60006100c7826100ce565b9050919050565b600073ffffffffffffffffffffffffffffffffffffffff82169050919050565b600080fd5b6100fc816100bc565b811461010757600080fd5b50565b610b7f806101196000396000f3fe608060405234801561001057600080fd5b506004361061007d5760003560e01c80635f7690b31161005b5780635f7690b3146100d657806376b0544c146100f4578063dfa41b3214610110578063f3f8ac741461012c5761007d565b8063031839aa1461008257806319912c051461009e57806339c33c6c146100ba575b600080fd5b61009c60048036038101906100979190610745565b610148565b005b6100b860048036038101906100b391906106cd565b6101e2565b005b6100d460048036038101906100cf9190610684565b610274565b005b6100de610305565b6040516100eb9190610864565b60405180910390f35b61010e60048036038101906101099190610745565b61032b565b005b61012a60048036038101906101259190610684565b6103c5565b005b610146600480360381019061014191906106cd565b610456565b005b80600160009054906101000a900473ffffffffffffffffffffffffffffffffffffffff1673ffffffffffffffffffffffffffffffffffffffff16631a971c1b82336000366040518563ffffffff1660e01b81526004016101ab949392919061087f565b600060405180830381600087803b1580156101c557600080fd5b505af11580156101d9573d6000803e3d6000fd5b50505050505050565b60008054906101000a900473ffffffffffffffffffffffffffffffffffffffff1673ffffffffffffffffffffffffffffffffffffffff163373ffffffffffffffffffffffffffffffffffffffff1614610270576040517f08c379a0000000000000000000000000000000000000000000000000000000008152600401610267906108c6565b60405180910390fd5b5050565b60008054906101000a900473ffffffffffffffffffffffffffffffffffffffff1673ffffffffffffffffffffffffffffffffffffffff163373ffffffffffffffffffffffffffffffffffffffff1614610302576040517f08c379a00000000000000000000000000000000000000000000000000000000081526004016102f9906108c6565b60405180910390fd5b50565b600160009054906101000a900473ffffffffffffffffffffffffffffffffffffffff1681565b80600160009054906101000a900473ffffffffffffffffffffffffffffffffffffffff1673ffffffffffffffffffffffffffffffffffffffff16631a971c1b82336000366040518563ffffffff1660e01b815260040161038e949392919061087f565b600060405180830381600087803b1580156103a857600080fd5b505af11580156103bc573d6000803e3d6000fd5b50505050505050565b60008054906101000a900473ffffffffffffffffffffffffffffffffffffffff1673ffffffffffffffffffffffffffffffffffffffff163373ffffffffffffffffffffffffffffffffffffffff1614610453576040517f08c379a000000000000000000000000000000000000000000000000000000000815260040161044a906108c6565b60405180910390fd5b50565b60008054906101000a900473ffffffffffffffffffffffffffffffffffffffff1673ffffffffffffffffffffffffffffffffffffffff163373ffffffffffffffffffffffffffffffffffffffff16146104e4576040517f08c379a00000000000000000000000000000000000000000000000000000000081526004016104db906108c6565b60405180910390fd5b5050565b60006104fb6104f68461090b565b6108e6565b9050808382526020820190508285602086028201111561051e5761051d610ad5565b5b60005b8581101561056c57813567ffffffffffffffff81111561054457610543610ad0565b5b8086016105518982610628565b85526020850194506020840193505050600181019050610521565b5050509392505050565b600061058961058484610937565b6108e6565b9050828152602081018484840111156105a5576105a4610ada565b5b6105b0848285610a2e565b509392505050565b60006105cb6105c684610968565b6108e6565b9050828152602081018484840111156105e7576105e6610ada565b5b6105f2848285610a2e565b509392505050565b600082601f83011261060f5761060e610ad0565b5b813561061f8482602086016104e8565b91505092915050565b600082601f83011261063d5761063c610ad0565b5b813561064d848260208601610576565b91505092915050565b600082601f83011261066b5761066a610ad0565b5b813561067b8482602086016105b8565b91505092915050565b60006020828403121561069a57610699610ae4565b5b600082013567ffffffffffffffff8111156106b8576106b7610adf565b5b6106c484828501610656565b91505092915050565b600080604083850312156106e4576106e3610ae4565b5b600083013567ffffffffffffffff81111561070257610701610adf565b5b61070e85828601610656565b925050602083013567ffffffffffffffff81111561072f5761072e610adf565b5b61073b858286016105fa565b9150509250929050565b6000806040838503121561075c5761075b610ae4565b5b600083013567ffffffffffffffff81111561077a57610779610adf565b5b61078685828601610656565b925050602083013567ffffffffffffffff8111156107a7576107a6610adf565b5b6107b385828601610656565b9150509250929050565b6107c6816109c6565b82525050565b60006107d883856109a4565b93506107e5838584610a2e565b6107ee83610ae9565b840190509392505050565b610802816109f8565b82525050565b600061081382610999565b61081d81856109b5565b935061082d818560208601610a3d565b61083681610ae9565b840191505092915050565b600061084e603b836109b5565b915061085982610afa565b604082019050919050565b600060208201905061087960008301846107f9565b92915050565b600060608201905081810360008301526108998187610808565b90506108a860208301866107bd565b81810360408301526108bb8184866107cc565b905095945050505050565b600060208201905081810360008301526108df81610841565b9050919050565b60006108f0610901565b90506108fc8282610a70565b919050565b6000604051905090565b600067ffffffffffffffff82111561092657610925610aa1565b5b602082029050602081019050919050565b600067ffffffffffffffff82111561095257610951610aa1565b5b61095b82610ae9565b9050602081019050919050565b600067ffffffffffffffff82111561098357610982610aa1565b5b61098c82610ae9565b9050602081019050919050565b600081519050919050565b600082825260208201905092915050565b600082825260208201905092915050565b60006109d1826109d8565b9050919050565b600073ffffffffffffffffffffffffffffffffffffffff82169050919050565b6000610a0382610a0a565b9050919050565b6000610a1582610a1c565b9050919050565b6000610a27826109d8565b9050919050565b82818337600083830152505050565b60005b83811015610a5b578082015181840152602081019050610a40565b83811115610a6a576000848401525b50505050565b610a7982610ae9565b810181811067ffffffffffffffff82111715610a9857610a97610aa1565b5b80604052505050565b7f4e487b7100000000000000000000000000000000000000000000000000000000600052604160045260246000fd5b600080fd5b600080fd5b600080fd5b600080fd5b600080fd5b6000601f19601f8301169050919050565b7f43726564656e7469616c2043616c6c4261636b3a204f6e6c7920746865206f7260008201527f61636c652063616e2063616c6c20746869732066756e6374696f6e000000000060208201525056fea2646970667358221220a79d272bf4a82202812f97f44ead82fb4ff8b3088ee3882d7ca530c98798565864736f6c63430008070033",
  "linkReferences": {},
  "deployedLinkReferences": {}
}