{
  "_format": "hh-sol-artifact-1",
  "contractName": "GateableFacet",
  "sourceName": "contracts/facets/GateableFacet.sol",
  "abi": [
    {
      "inputs": [
        {
          "internalType": "contract CredentialEventFacet",
          "name": "_credentialOracle",
          "type": "address"
        }
      ],
      "stateMutability": "nonpayable",
      "type": "constructor"
    },
    {
      "inputs": [],
      "name": "CREDENTIAL_EVENT",
      "outputs": [
        {
          "internalType": "contract CredentialEventFacet",
          "name": "",
          "type": "address"
        }
      ],
      "stateMutability": "view",
      "type": "function"
    }
  ],
  "bytecode": "0x608060405234801561001057600080fd5b50604051610283380380610283833981810160405281019061003291906100ce565b806000806101000a81548173ffffffffffffffffffffffffffffffffffffffff021916908373ffffffffffffffffffffffffffffffffffffffff16021790555080600160006101000a81548173ffffffffffffffffffffffffffffffffffffffff021916908373ffffffffffffffffffffffffffffffffffffffff1602179055505061015b565b6000815190506100c881610144565b92915050565b6000602082840312156100e4576100e361013f565b5b60006100f2848285016100b9565b91505092915050565b60006101068261011f565b9050919050565b6000610118826100fb565b9050919050565b600073ffffffffffffffffffffffffffffffffffffffff82169050919050565b600080fd5b61014d8161010d565b811461015857600080fd5b50565b6101198061016a6000396000f3fe6080604052348015600f57600080fd5b506004361060285760003560e01c80635f7690b314602d575b600080fd5b60336047565b604051603e9190607a565b60405180910390f35b600160009054906101000a900473ffffffffffffffffffffffffffffffffffffffff1681565b60748160b3565b82525050565b6000602082019050608d6000830184606d565b92915050565b600073ffffffffffffffffffffffffffffffffffffffff82169050919050565b600060bc8260c3565b9050919050565b600060cc8260d3565b9050919050565b600060dc826093565b905091905056fea2646970667358221220a09bf70fb1b43e0f4eb7a00f1ff48088cde874b4e76f4b96482662ba180222c764736f6c63430008070033",
  "linkReferences": {},
  "deployedLinkReferences": {}
}