{
  "_format": "hh-sol-artifact-1",
  "contractName": "CredentialEventFacet",
  "sourceName": "contracts/facets/CredentialEventFacet.sol",
  "abi": [
    {
      "anonymous": false,
      "inputs": [
        {
          "indexed": false,
          "internalType": "string",
          "name": "list_id",
          "type": "string"
        },
        {
          "indexed": false,
          "internalType": "address",
          "name": "original_msg_sender",
          "type": "address"
        },
        {
          "indexed": false,
          "internalType": "address",
          "name": "contractAddr",
          "type": "address"
        },
        {
          "indexed": false,
          "internalType": "bytes",
          "name": "original_msg_data",
          "type": "bytes"
        }
      ],
      "name": "RequestCredentialsCallback",
      "type": "event"
    },
    {
      "inputs": [
        {
          "internalType": "string",
          "name": "list_id",
          "type": "string"
        },
        {
          "internalType": "address",
          "name": "sender",
          "type": "address"
        },
        {
          "internalType": "address",
          "name": "contractAddr",
          "type": "address"
        },
        {
          "internalType": "bytes",
          "name": "data",
          "type": "bytes"
        }
      ],
      "name": "emitEvent",
      "outputs": [],
      "stateMutability": "nonpayable",
      "type": "function"
    }
  ],
  "bytecode": "0x608060405234801561001057600080fd5b506104fc806100206000396000f3fe608060405234801561001057600080fd5b506004361061002b5760003560e01c8063b5f829d814610030575b600080fd5b61004a60048036038101906100459190610184565b61004c565b005b7f8f037683903568a16b9ad06c39761085b99c5049638c262684cc7b4e7cb350ad8484848460405161008194939291906102a4565b60405180910390a150505050565b60006100a261009d8461031c565b6102f7565b9050828152602081018484840111156100be576100bd61048f565b5b6100c98482856103e8565b509392505050565b60006100e46100df8461034d565b6102f7565b905082815260208101848484011115610100576100ff61048f565b5b61010b8482856103e8565b509392505050565b600081359050610122816104af565b92915050565b600082601f83011261013d5761013c61048a565b5b813561014d84826020860161008f565b91505092915050565b600082601f83011261016b5761016a61048a565b5b813561017b8482602086016100d1565b91505092915050565b6000806000806080858703121561019e5761019d610499565b5b600085013567ffffffffffffffff8111156101bc576101bb610494565b5b6101c887828801610156565b94505060206101d987828801610113565b93505060406101ea87828801610113565b925050606085013567ffffffffffffffff81111561020b5761020a610494565b5b61021787828801610128565b91505092959194509250565b61022c816103b6565b82525050565b600061023d8261037e565b6102478185610394565b93506102578185602086016103f7565b6102608161049e565b840191505092915050565b600061027682610389565b61028081856103a5565b93506102908185602086016103f7565b6102998161049e565b840191505092915050565b600060808201905081810360008301526102be818761026b565b90506102cd6020830186610223565b6102da6040830185610223565b81810360608301526102ec8184610232565b905095945050505050565b6000610301610312565b905061030d828261042a565b919050565b6000604051905090565b600067ffffffffffffffff8211156103375761033661045b565b5b6103408261049e565b9050602081019050919050565b600067ffffffffffffffff8211156103685761036761045b565b5b6103718261049e565b9050602081019050919050565b600081519050919050565b600081519050919050565b600082825260208201905092915050565b600082825260208201905092915050565b60006103c1826103c8565b9050919050565b600073ffffffffffffffffffffffffffffffffffffffff82169050919050565b82818337600083830152505050565b60005b838110156104155780820151818401526020810190506103fa565b83811115610424576000848401525b50505050565b6104338261049e565b810181811067ffffffffffffffff821117156104525761045161045b565b5b80604052505050565b7f4e487b7100000000000000000000000000000000000000000000000000000000600052604160045260246000fd5b600080fd5b600080fd5b600080fd5b600080fd5b6000601f19601f8301169050919050565b6104b8816103b6565b81146104c357600080fd5b5056fea2646970667358221220eff1bc3cfe273796e174991ce957ad6c758ab12ccd6562f4d9e4149e711ed30464736f6c63430008070033",
  "linkReferences": {},
  "deployedLinkReferences": {}
}