{
  "_format": "hh-sol-artifact-1",
  "contractName": "CredentialEventFacet",
  "sourceName": "contracts/facets/CredentialEventFacet.sol",
  "abi": [
    {
      "anonymous": false,
      "inputs": [
        {
          "indexed": false,
          "internalType": "address",
          "name": "original_msg_sender",
          "type": "address"
        },
        {
          "indexed": false,
          "internalType": "address",
          "name": "contractAddr",
          "type": "address"
        },
        {
          "indexed": false,
          "internalType": "bytes",
          "name": "original_msg_data",
          "type": "bytes"
        }
      ],
      "name": "RequestCredentialsCallback",
      "type": "event"
    },
    {
      "inputs": [
        {
          "internalType": "address",
          "name": "",
          "type": "address"
        }
      ],
      "name": "abiStorage",
      "outputs": [
        {
          "internalType": "bytes",
          "name": "",
          "type": "bytes"
        }
      ],
      "stateMutability": "view",
      "type": "function"
    },
    {
      "inputs": [
        {
          "internalType": "address",
          "name": "_sender",
          "type": "address"
        },
        {
          "internalType": "address",
          "name": "_contractAddr",
          "type": "address"
        },
        {
          "internalType": "bytes",
          "name": "_data",
          "type": "bytes"
        }
      ],
      "name": "emitEvent",
      "outputs": [],
      "stateMutability": "nonpayable",
      "type": "function"
    },
    {
      "inputs": [
        {
          "internalType": "address",
          "name": "_contractAddr",
          "type": "address"
        },
        {
          "internalType": "bytes",
          "name": "_abiData",
          "type": "bytes"
        }
      ],
      "name": "storeAbi",
      "outputs": [],
      "stateMutability": "nonpayable",
      "type": "function"
    }
  ],
  "bytecode": "0x608060405234801561001057600080fd5b50610632806100206000396000f3fe608060405234801561001057600080fd5b50600436106100415760003560e01c806345b0e8a814610046578063502d667114610062578063634aa9831461007e575b600080fd5b610060600480360381019061005b9190610393565b6100ae565b005b61007c6004803603810190610077919061031f565b610101565b005b610098600480360381019061009391906102f2565b610144565b6040516100a591906104a8565b60405180910390f35b81816000808673ffffffffffffffffffffffffffffffffffffffff1673ffffffffffffffffffffffffffffffffffffffff16815260200190815260200160002091906100fb9291906101e4565b50505050565b7fe60e741ea95959817b4306ee40617b8fecf1263dd266175627f1ef8f113101fe848484846040516101369493929190610468565b60405180910390a150505050565b600060205280600052604060002060009150905080546101639061055a565b80601f016020809104026020016040519081016040528092919081815260200182805461018f9061055a565b80156101dc5780601f106101b1576101008083540402835291602001916101dc565b820191906000526020600020905b8154815290600101906020018083116101bf57829003601f168201915b505050505081565b8280546101f09061055a565b90600052602060002090601f0160209004810192826102125760008555610259565b82601f1061022b57803560ff1916838001178555610259565b82800160010185558215610259579182015b8281111561025857823582559160200191906001019061023d565b5b509050610266919061026a565b5090565b5b8082111561028357600081600090555060010161026b565b5090565b600081359050610296816105e5565b92915050565b60008083601f8401126102b2576102b16105c0565b5b8235905067ffffffffffffffff8111156102cf576102ce6105bb565b5b6020830191508360018202830111156102eb576102ea6105c5565b5b9250929050565b600060208284031215610308576103076105cf565b5b600061031684828501610287565b91505092915050565b60008060008060608587031215610339576103386105cf565b5b600061034787828801610287565b945050602061035887828801610287565b935050604085013567ffffffffffffffff811115610379576103786105ca565b5b6103858782880161029c565b925092505092959194509250565b6000806000604084860312156103ac576103ab6105cf565b5b60006103ba86828701610287565b935050602084013567ffffffffffffffff8111156103db576103da6105ca565b5b6103e78682870161029c565b92509250509250925092565b6103fc816104e6565b82525050565b600061040e83856104d5565b935061041b838584610518565b610424836105d4565b840190509392505050565b600061043a826104ca565b61044481856104d5565b9350610454818560208601610527565b61045d816105d4565b840191505092915050565b600060608201905061047d60008301876103f3565b61048a60208301866103f3565b818103604083015261049d818486610402565b905095945050505050565b600060208201905081810360008301526104c2818461042f565b905092915050565b600081519050919050565b600082825260208201905092915050565b60006104f1826104f8565b9050919050565b600073ffffffffffffffffffffffffffffffffffffffff82169050919050565b82818337600083830152505050565b60005b8381101561054557808201518184015260208101905061052a565b83811115610554576000848401525b50505050565b6000600282049050600182168061057257607f821691505b602082108114156105865761058561058c565b5b50919050565b7f4e487b7100000000000000000000000000000000000000000000000000000000600052602260045260246000fd5b600080fd5b600080fd5b600080fd5b600080fd5b600080fd5b6000601f19601f8301169050919050565b6105ee816104e6565b81146105f957600080fd5b5056fea2646970667358221220ce0457b2189bd34a65f349c31489e7e0d3815b55483dad16e1408f8e3fc132b164736f6c63430008070033",
  "linkReferences": {},
  "deployedLinkReferences": {}
}