{
  "_format": "hh-sol-artifact-1",
  "contractName": "CredentialEventFacet",
  "sourceName": "contracts/facets/CredentialEventFacet.sol",
  "abi": [
    {
      "anonymous": false,
      "inputs": [
        {
          "indexed": false,
          "internalType": "string",
          "name": "list_id",
          "type": "string"
        },
        {
          "indexed": false,
          "internalType": "address",
          "name": "original_msg_sender",
          "type": "address"
        },
        {
          "indexed": false,
          "internalType": "bytes",
          "name": "original_msg_data",
          "type": "bytes"
        }
      ],
      "name": "RequestCredentialsCallback",
      "type": "event"
    },
    {
      "inputs": [
        {
          "internalType": "string",
          "name": "list_id",
          "type": "string"
        },
        {
          "internalType": "address",
          "name": "sender",
          "type": "address"
        },
        {
          "internalType": "bytes",
          "name": "data",
          "type": "bytes"
        }
      ],
      "name": "emitEvent",
      "outputs": [],
      "stateMutability": "nonpayable",
      "type": "function"
    }
  ],
  "bytecode": "0x608060405234801561001057600080fd5b506104d7806100206000396000f3fe608060405234801561001057600080fd5b506004361061002b5760003560e01c80631a971c1b14610030575b600080fd5b61004a60048036038101906100459190610181565b61004c565b005b7fd2e7fdee19d1ee09bae37f350e4d1126dec12dde96addc0ab89c09d143cedaeb83838360405161007f9392919061028d565b60405180910390a1505050565b600061009f61009a846102f7565b6102d2565b9050828152602081018484840111156100bb576100ba61046a565b5b6100c68482856103c3565b509392505050565b60006100e16100dc84610328565b6102d2565b9050828152602081018484840111156100fd576100fc61046a565b5b6101088482856103c3565b509392505050565b60008135905061011f8161048a565b92915050565b600082601f83011261013a57610139610465565b5b813561014a84826020860161008c565b91505092915050565b600082601f83011261016857610167610465565b5b81356101788482602086016100ce565b91505092915050565b60008060006060848603121561019a57610199610474565b5b600084013567ffffffffffffffff8111156101b8576101b761046f565b5b6101c486828701610153565b93505060206101d586828701610110565b925050604084013567ffffffffffffffff8111156101f6576101f561046f565b5b61020286828701610125565b9150509250925092565b61021581610391565b82525050565b600061022682610359565b610230818561036f565b93506102408185602086016103d2565b61024981610479565b840191505092915050565b600061025f82610364565b6102698185610380565b93506102798185602086016103d2565b61028281610479565b840191505092915050565b600060608201905081810360008301526102a78186610254565b90506102b6602083018561020c565b81810360408301526102c8818461021b565b9050949350505050565b60006102dc6102ed565b90506102e88282610405565b919050565b6000604051905090565b600067ffffffffffffffff82111561031257610311610436565b5b61031b82610479565b9050602081019050919050565b600067ffffffffffffffff82111561034357610342610436565b5b61034c82610479565b9050602081019050919050565b600081519050919050565b600081519050919050565b600082825260208201905092915050565b600082825260208201905092915050565b600061039c826103a3565b9050919050565b600073ffffffffffffffffffffffffffffffffffffffff82169050919050565b82818337600083830152505050565b60005b838110156103f05780820151818401526020810190506103d5565b838111156103ff576000848401525b50505050565b61040e82610479565b810181811067ffffffffffffffff8211171561042d5761042c610436565b5b80604052505050565b7f4e487b7100000000000000000000000000000000000000000000000000000000600052604160045260246000fd5b600080fd5b600080fd5b600080fd5b600080fd5b6000601f19601f8301169050919050565b61049381610391565b811461049e57600080fd5b5056fea26469706673582212204021e40255313c46228333cfdeb072ff935d76015f3ad9b52c661aac6b35297964736f6c63430008070033",
  "linkReferences": {},
  "deployedLinkReferences": {}
}