{
  "_format": "hh-sol-artifact-1",
  "contractName": "CredentialEventFacet",
  "sourceName": "contracts/facets/CredentialEventFacet.sol",
  "abi": [
    {
      "anonymous": false,
      "inputs": [
        {
          "indexed": false,
          "internalType": "string",
          "name": "list_id",
          "type": "string"
        },
        {
          "indexed": false,
          "internalType": "address",
          "name": "original_msg_sender",
          "type": "address"
        },
        {
          "indexed": false,
          "internalType": "address",
          "name": "contractAddr",
          "type": "address"
        },
        {
          "indexed": false,
          "internalType": "string",
          "name": "funcName",
          "type": "string"
        },
        {
          "indexed": false,
          "internalType": "bytes",
          "name": "original_msg_data",
          "type": "bytes"
        }
      ],
      "name": "RequestCredentialsCallback",
      "type": "event"
    },
    {
      "inputs": [
        {
          "internalType": "string",
          "name": "_list_id",
          "type": "string"
        },
        {
          "internalType": "address",
          "name": "_sender",
          "type": "address"
        },
        {
          "internalType": "address",
          "name": "_contractAddr",
          "type": "address"
        },
        {
          "internalType": "string",
          "name": "_funcName",
          "type": "string"
        },
        {
          "internalType": "bytes",
          "name": "_data",
          "type": "bytes"
        }
      ],
      "name": "emitEvent",
      "outputs": [],
      "stateMutability": "nonpayable",
      "type": "function"
    }
  ],
  "bytecode": "0x608060405234801561001057600080fd5b50610544806100206000396000f3fe608060405234801561001057600080fd5b506004361061002b5760003560e01c8063a78d2ba314610030575b600080fd5b61004a60048036038101906100459190610187565b61004c565b005b7f37c3fbf03a160c29acc48ad2883e3c46f0041d8d41057b519658a7135a2afbf785858585856040516100839594939291906102d7565b60405180910390a15050505050565b60006100a56100a084610364565b61033f565b9050828152602081018484840111156100c1576100c06104d7565b5b6100cc848285610430565b509392505050565b60006100e76100e284610395565b61033f565b905082815260208101848484011115610103576101026104d7565b5b61010e848285610430565b509392505050565b600081359050610125816104f7565b92915050565b600082601f8301126101405761013f6104d2565b5b8135610150848260208601610092565b91505092915050565b600082601f83011261016e5761016d6104d2565b5b813561017e8482602086016100d4565b91505092915050565b600080600080600060a086880312156101a3576101a26104e1565b5b600086013567ffffffffffffffff8111156101c1576101c06104dc565b5b6101cd88828901610159565b95505060206101de88828901610116565b94505060406101ef88828901610116565b935050606086013567ffffffffffffffff8111156102105761020f6104dc565b5b61021c88828901610159565b925050608086013567ffffffffffffffff81111561023d5761023c6104dc565b5b6102498882890161012b565b9150509295509295909350565b61025f816103fe565b82525050565b6000610270826103c6565b61027a81856103dc565b935061028a81856020860161043f565b610293816104e6565b840191505092915050565b60006102a9826103d1565b6102b381856103ed565b93506102c381856020860161043f565b6102cc816104e6565b840191505092915050565b600060a08201905081810360008301526102f1818861029e565b90506103006020830187610256565b61030d6040830186610256565b818103606083015261031f818561029e565b905081810360808301526103338184610265565b90509695505050505050565b600061034961035a565b90506103558282610472565b919050565b6000604051905090565b600067ffffffffffffffff82111561037f5761037e6104a3565b5b610388826104e6565b9050602081019050919050565b600067ffffffffffffffff8211156103b0576103af6104a3565b5b6103b9826104e6565b9050602081019050919050565b600081519050919050565b600081519050919050565b600082825260208201905092915050565b600082825260208201905092915050565b600061040982610410565b9050919050565b600073ffffffffffffffffffffffffffffffffffffffff82169050919050565b82818337600083830152505050565b60005b8381101561045d578082015181840152602081019050610442565b8381111561046c576000848401525b50505050565b61047b826104e6565b810181811067ffffffffffffffff8211171561049a576104996104a3565b5b80604052505050565b7f4e487b7100000000000000000000000000000000000000000000000000000000600052604160045260246000fd5b600080fd5b600080fd5b600080fd5b600080fd5b6000601f19601f8301169050919050565b610500816103fe565b811461050b57600080fd5b5056fea2646970667358221220398d169a70fa3eaeac15ae44ff825ce6b695c4f3146a925827863b7c69b1c02a64736f6c63430008070033",
  "linkReferences": {},
  "deployedLinkReferences": {}
}