{
	"facets/CredentialEventFacet.sol": {
		"CredentialEventFacet": {
			"abi": [
				{
					"anonymous": false,
					"inputs": [
						{
							"indexed": false,
							"internalType": "string",
							"name": "list_id",
							"type": "string"
						},
						{
							"indexed": false,
							"internalType": "address",
							"name": "original_msg_sender",
							"type": "address"
						},
						{
							"indexed": false,
							"internalType": "address",
							"name": "contractAddr",
							"type": "address"
						},
						{
							"indexed": false,
							"internalType": "string",
							"name": "funcName",
							"type": "string"
						},
						{
							"indexed": false,
							"internalType": "bytes",
							"name": "original_msg_data",
							"type": "bytes"
						}
					],
					"name": "RequestCredentialsCallback",
					"type": "event"
				},
				{
					"inputs": [
						{
							"internalType": "address",
							"name": "",
							"type": "address"
						}
					],
					"name": "abiStorage",
					"outputs": [
						{
							"internalType": "bytes",
							"name": "",
							"type": "bytes"
						}
					],
					"stateMutability": "view",
					"type": "function"
				},
				{
					"inputs": [
						{
							"internalType": "string",
							"name": "_list_id",
							"type": "string"
						},
						{
							"internalType": "address",
							"name": "_sender",
							"type": "address"
						},
						{
							"internalType": "address",
							"name": "_contractAddr",
							"type": "address"
						},
						{
							"internalType": "string",
							"name": "_funcName",
							"type": "string"
						},
						{
							"internalType": "bytes",
							"name": "_data",
							"type": "bytes"
						}
					],
					"name": "emitEvent",
					"outputs": [],
					"stateMutability": "nonpayable",
					"type": "function"
				},
				{
					"inputs": [
						{
							"internalType": "address",
							"name": "_contractAddr",
							"type": "address"
						},
						{
							"internalType": "bytes",
							"name": "_abiData",
							"type": "bytes"
						}
					],
					"name": "storeAbi",
					"outputs": [],
					"stateMutability": "nonpayable",
					"type": "function"
				}
			],
			"devdoc": {
				"kind": "dev",
				"methods": {},
				"version": 1
			},
			"evm": {
				"assembly": "    /* \"facets/CredentialEventFacet.sol\":57:1051  contract CredentialEventFacet {... */\n  mstore(0x40, 0x80)\n  callvalue\n  dup1\n  iszero\n  tag_1\n  jumpi\n  0x00\n  dup1\n  revert\ntag_1:\n  pop\n  dataSize(sub_0)\n  dup1\n  dataOffset(sub_0)\n  0x00\n  codecopy\n  0x00\n  return\nstop\n\nsub_0: assembly {\n        /* \"facets/CredentialEventFacet.sol\":57:1051  contract CredentialEventFacet {... */\n      mstore(0x40, 0x80)\n      callvalue\n      dup1\n      iszero\n      tag_1\n      jumpi\n      0x00\n      dup1\n      revert\n    tag_1:\n      pop\n      jumpi(tag_2, lt(calldatasize, 0x04))\n      shr(0xe0, calldataload(0x00))\n      dup1\n      0x45b0e8a8\n      eq\n      tag_3\n      jumpi\n      dup1\n      0x634aa983\n      eq\n      tag_4\n      jumpi\n      dup1\n      0xa78d2ba3\n      eq\n      tag_5\n      jumpi\n    tag_2:\n      0x00\n      dup1\n      revert\n        /* \"facets/CredentialEventFacet.sol\":893:1049  function storeAbi(address _contractAddr, bytes calldata _abiData) public {... */\n    tag_3:\n      tag_6\n      0x04\n      dup1\n      calldatasize\n      sub\n      dup2\n      add\n      swap1\n      tag_7\n      swap2\n      swap1\n      tag_8\n      jump\t// in\n    tag_7:\n      tag_9\n      jump\t// in\n    tag_6:\n      stop\n        /* \"facets/CredentialEventFacet.sol\":91:134  mapping(address => bytes) public abiStorage */\n    tag_4:\n      tag_10\n      0x04\n      dup1\n      calldatasize\n      sub\n      dup2\n      add\n      swap1\n      tag_11\n      swap2\n      swap1\n      tag_12\n      jump\t// in\n    tag_11:\n      tag_13\n      jump\t// in\n    tag_10:\n      mload(0x40)\n      tag_14\n      swap2\n      swap1\n      tag_15\n      jump\t// in\n    tag_14:\n      mload(0x40)\n      dup1\n      swap2\n      sub\n      swap1\n      return\n        /* \"facets/CredentialEventFacet.sol\":284:891  function emitEvent(string memory _list_id, address _sender, address _contractAddr, string memory _funcName, bytes calldata _data) public {... */\n    tag_5:\n      tag_16\n      0x04\n      dup1\n      calldatasize\n      sub\n      dup2\n      add\n      swap1\n      tag_17\n      swap2\n      swap1\n      tag_18\n      jump\t// in\n    tag_17:\n      tag_19\n      jump\t// in\n    tag_16:\n      stop\n        /* \"facets/CredentialEventFacet.sol\":893:1049  function storeAbi(address _contractAddr, bytes calldata _abiData) public {... */\n    tag_9:\n        /* \"facets/CredentialEventFacet.sol\":1038:1046  _abiData */\n      dup2\n      dup2\n        /* \"facets/CredentialEventFacet.sol\":1010:1020  abiStorage */\n      0x00\n        /* \"facets/CredentialEventFacet.sol\":1010:1035  abiStorage[_contractAddr] */\n      dup1\n        /* \"facets/CredentialEventFacet.sol\":1021:1034  _contractAddr */\n      dup7\n        /* \"facets/CredentialEventFacet.sol\":1010:1035  abiStorage[_contractAddr] */\n      0xffffffffffffffffffffffffffffffffffffffff\n      and\n      0xffffffffffffffffffffffffffffffffffffffff\n      and\n      dup2\n      mstore\n      0x20\n      add\n      swap1\n      dup2\n      mstore\n      0x20\n      add\n      0x00\n      keccak256\n        /* \"facets/CredentialEventFacet.sol\":1010:1046  abiStorage[_contractAddr] = _abiData */\n      swap2\n      swap1\n      tag_21\n      swap3\n      swap2\n      swap1\n      tag_22\n      jump\t// in\n    tag_21:\n      pop\n        /* \"facets/CredentialEventFacet.sol\":893:1049  function storeAbi(address _contractAddr, bytes calldata _abiData) public {... */\n      pop\n      pop\n      pop\n      jump\t// out\n        /* \"facets/CredentialEventFacet.sol\":91:134  mapping(address => bytes) public abiStorage */\n    tag_13:\n      mstore(0x20, 0x00)\n      dup1\n      0x00\n      mstore\n      keccak256(0x00, 0x40)\n      0x00\n      swap2\n      pop\n      swap1\n      pop\n      dup1\n      sload\n      tag_23\n      swap1\n      tag_24\n      jump\t// in\n    tag_23:\n      dup1\n      0x1f\n      add\n      0x20\n      dup1\n      swap2\n      div\n      mul\n      0x20\n      add\n      mload(0x40)\n      swap1\n      dup2\n      add\n      0x40\n      mstore\n      dup1\n      swap3\n      swap2\n      swap1\n      dup2\n      dup2\n      mstore\n      0x20\n      add\n      dup3\n      dup1\n      sload\n      tag_25\n      swap1\n      tag_24\n      jump\t// in\n    tag_25:\n      dup1\n      iszero\n      tag_26\n      jumpi\n      dup1\n      0x1f\n      lt\n      tag_27\n      jumpi\n      0x0100\n      dup1\n      dup4\n      sload\n      div\n      mul\n      dup4\n      mstore\n      swap2\n      0x20\n      add\n      swap2\n      jump(tag_26)\n    tag_27:\n      dup3\n      add\n      swap2\n      swap1\n      0x00\n      mstore\n      keccak256(0x00, 0x20)\n      swap1\n    tag_28:\n      dup2\n      sload\n      dup2\n      mstore\n      swap1\n      0x01\n      add\n      swap1\n      0x20\n      add\n      dup1\n      dup4\n      gt\n      tag_28\n      jumpi\n      dup3\n      swap1\n      sub\n      0x1f\n      and\n      dup3\n      add\n      swap2\n    tag_26:\n      pop\n      pop\n      pop\n      pop\n      pop\n      dup2\n      jump\t// out\n        /* \"facets/CredentialEventFacet.sol\":284:891  function emitEvent(string memory _list_id, address _sender, address _contractAddr, string memory _funcName, bytes calldata _data) public {... */\n    tag_19:\n        /* \"facets/CredentialEventFacet.sol\":807:886  RequestCredentialsCallback(_list_id, _sender, _contractAddr, _funcName,  _data) */\n      0x37c3fbf03a160c29acc48ad2883e3c46f0041d8d41057b519658a7135a2afbf7\n        /* \"facets/CredentialEventFacet.sol\":834:842  _list_id */\n      dup7\n        /* \"facets/CredentialEventFacet.sol\":844:851  _sender */\n      dup7\n        /* \"facets/CredentialEventFacet.sol\":853:866  _contractAddr */\n      dup7\n        /* \"facets/CredentialEventFacet.sol\":868:877  _funcName */\n      dup7\n        /* \"facets/CredentialEventFacet.sol\":880:885  _data */\n      dup7\n      dup7\n        /* \"facets/CredentialEventFacet.sol\":807:886  RequestCredentialsCallback(_list_id, _sender, _contractAddr, _funcName,  _data) */\n      mload(0x40)\n      tag_30\n      swap7\n      swap6\n      swap5\n      swap4\n      swap3\n      swap2\n      swap1\n      tag_31\n      jump\t// in\n    tag_30:\n      mload(0x40)\n      dup1\n      swap2\n      sub\n      swap1\n      log1\n        /* \"facets/CredentialEventFacet.sol\":284:891  function emitEvent(string memory _list_id, address _sender, address _contractAddr, string memory _funcName, bytes calldata _data) public {... */\n      pop\n      pop\n      pop\n      pop\n      pop\n      pop\n      jump\t// out\n    tag_22:\n      dup3\n      dup1\n      sload\n      tag_32\n      swap1\n      tag_24\n      jump\t// in\n    tag_32:\n      swap1\n      0x00\n      mstore\n      keccak256(0x00, 0x20)\n      swap1\n      0x1f\n      add\n      0x20\n      swap1\n      div\n      dup2\n      add\n      swap3\n      dup3\n      tag_34\n      jumpi\n      0x00\n      dup6\n      sstore\n      jump(tag_33)\n    tag_34:\n      dup3\n      0x1f\n      lt\n      tag_35\n      jumpi\n      dup1\n      calldataload\n      not(0xff)\n      and\n      dup4\n      dup1\n      add\n      or\n      dup6\n      sstore\n      jump(tag_33)\n    tag_35:\n      dup3\n      dup1\n      add\n      0x01\n      add\n      dup6\n      sstore\n      dup3\n      iszero\n      tag_33\n      jumpi\n      swap2\n      dup3\n      add\n    tag_36:\n      dup3\n      dup2\n      gt\n      iszero\n      tag_37\n      jumpi\n      dup3\n      calldataload\n      dup3\n      sstore\n      swap2\n      0x20\n      add\n      swap2\n      swap1\n      0x01\n      add\n      swap1\n      jump(tag_36)\n    tag_37:\n    tag_33:\n      pop\n      swap1\n      pop\n      tag_38\n      swap2\n      swap1\n      tag_39\n      jump\t// in\n    tag_38:\n      pop\n      swap1\n      jump\t// out\n    tag_39:\n    tag_40:\n      dup1\n      dup3\n      gt\n      iszero\n      tag_41\n      jumpi\n      0x00\n      dup2\n      0x00\n      swap1\n      sstore\n      pop\n      0x01\n      add\n      jump(tag_40)\n    tag_41:\n      pop\n      swap1\n      jump\t// out\n        /* \"#utility.yul\":7:419   */\n    tag_43:\n        /* \"#utility.yul\":85:90   */\n      0x00\n        /* \"#utility.yul\":110:176   */\n      tag_45\n        /* \"#utility.yul\":126:175   */\n      tag_46\n        /* \"#utility.yul\":168:174   */\n      dup5\n        /* \"#utility.yul\":126:175   */\n      tag_47\n      jump\t// in\n    tag_46:\n        /* \"#utility.yul\":110:176   */\n      tag_48\n      jump\t// in\n    tag_45:\n        /* \"#utility.yul\":101:176   */\n      swap1\n      pop\n        /* \"#utility.yul\":199:205   */\n      dup3\n        /* \"#utility.yul\":192:197   */\n      dup2\n        /* \"#utility.yul\":185:206   */\n      mstore\n        /* \"#utility.yul\":237:241   */\n      0x20\n        /* \"#utility.yul\":230:235   */\n      dup2\n        /* \"#utility.yul\":226:242   */\n      add\n        /* \"#utility.yul\":275:278   */\n      dup5\n        /* \"#utility.yul\":266:272   */\n      dup5\n        /* \"#utility.yul\":261:264   */\n      dup5\n        /* \"#utility.yul\":257:273   */\n      add\n        /* \"#utility.yul\":254:279   */\n      gt\n        /* \"#utility.yul\":251:363   */\n      iszero\n      tag_49\n      jumpi\n        /* \"#utility.yul\":282:361   */\n      tag_50\n      tag_51\n      jump\t// in\n    tag_50:\n        /* \"#utility.yul\":251:363   */\n    tag_49:\n        /* \"#utility.yul\":372:413   */\n      tag_52\n        /* \"#utility.yul\":406:412   */\n      dup5\n        /* \"#utility.yul\":401:404   */\n      dup3\n        /* \"#utility.yul\":396:399   */\n      dup6\n        /* \"#utility.yul\":372:413   */\n      tag_53\n      jump\t// in\n    tag_52:\n        /* \"#utility.yul\":91:419   */\n      pop\n        /* \"#utility.yul\":7:419   */\n      swap4\n      swap3\n      pop\n      pop\n      pop\n      jump\t// out\n        /* \"#utility.yul\":425:564   */\n    tag_54:\n        /* \"#utility.yul\":471:476   */\n      0x00\n        /* \"#utility.yul\":509:515   */\n      dup2\n        /* \"#utility.yul\":496:516   */\n      calldataload\n        /* \"#utility.yul\":487:516   */\n      swap1\n      pop\n        /* \"#utility.yul\":525:558   */\n      tag_56\n        /* \"#utility.yul\":552:557   */\n      dup2\n        /* \"#utility.yul\":525:558   */\n      tag_57\n      jump\t// in\n    tag_56:\n        /* \"#utility.yul\":425:564   */\n      swap3\n      swap2\n      pop\n      pop\n      jump\t// out\n        /* \"#utility.yul\":583:1135   */\n    tag_58:\n        /* \"#utility.yul\":640:648   */\n      0x00\n        /* \"#utility.yul\":650:656   */\n      dup1\n        /* \"#utility.yul\":700:703   */\n      dup4\n        /* \"#utility.yul\":693:697   */\n      0x1f\n        /* \"#utility.yul\":685:691   */\n      dup5\n        /* \"#utility.yul\":681:698   */\n      add\n        /* \"#utility.yul\":677:704   */\n      slt\n        /* \"#utility.yul\":667:789   */\n      tag_60\n      jumpi\n        /* \"#utility.yul\":708:787   */\n      tag_61\n      tag_62\n      jump\t// in\n    tag_61:\n        /* \"#utility.yul\":667:789   */\n    tag_60:\n        /* \"#utility.yul\":821:827   */\n      dup3\n        /* \"#utility.yul\":808:828   */\n      calldataload\n        /* \"#utility.yul\":798:828   */\n      swap1\n      pop\n        /* \"#utility.yul\":851:869   */\n      0xffffffffffffffff\n        /* \"#utility.yul\":843:849   */\n      dup2\n        /* \"#utility.yul\":840:870   */\n      gt\n        /* \"#utility.yul\":837:954   */\n      iszero\n      tag_63\n      jumpi\n        /* \"#utility.yul\":873:952   */\n      tag_64\n      tag_65\n      jump\t// in\n    tag_64:\n        /* \"#utility.yul\":837:954   */\n    tag_63:\n        /* \"#utility.yul\":987:991   */\n      0x20\n        /* \"#utility.yul\":979:985   */\n      dup4\n        /* \"#utility.yul\":975:992   */\n      add\n        /* \"#utility.yul\":963:992   */\n      swap2\n      pop\n        /* \"#utility.yul\":1041:1044   */\n      dup4\n        /* \"#utility.yul\":1033:1037   */\n      0x01\n        /* \"#utility.yul\":1025:1031   */\n      dup3\n        /* \"#utility.yul\":1021:1038   */\n      mul\n        /* \"#utility.yul\":1011:1019   */\n      dup4\n        /* \"#utility.yul\":1007:1039   */\n      add\n        /* \"#utility.yul\":1004:1045   */\n      gt\n        /* \"#utility.yul\":1001:1129   */\n      iszero\n      tag_66\n      jumpi\n        /* \"#utility.yul\":1048:1127   */\n      tag_67\n      tag_68\n      jump\t// in\n    tag_67:\n        /* \"#utility.yul\":1001:1129   */\n    tag_66:\n        /* \"#utility.yul\":583:1135   */\n      swap3\n      pop\n      swap3\n      swap1\n      pop\n      jump\t// out\n        /* \"#utility.yul\":1155:1495   */\n    tag_69:\n        /* \"#utility.yul\":1211:1216   */\n      0x00\n        /* \"#utility.yul\":1260:1263   */\n      dup3\n        /* \"#utility.yul\":1253:1257   */\n      0x1f\n        /* \"#utility.yul\":1245:1251   */\n      dup4\n        /* \"#utility.yul\":1241:1258   */\n      add\n        /* \"#utility.yul\":1237:1264   */\n      slt\n        /* \"#utility.yul\":1227:1349   */\n      tag_71\n      jumpi\n        /* \"#utility.yul\":1268:1347   */\n      tag_72\n      tag_62\n      jump\t// in\n    tag_72:\n        /* \"#utility.yul\":1227:1349   */\n    tag_71:\n        /* \"#utility.yul\":1385:1391   */\n      dup2\n        /* \"#utility.yul\":1372:1392   */\n      calldataload\n        /* \"#utility.yul\":1410:1489   */\n      tag_73\n        /* \"#utility.yul\":1485:1488   */\n      dup5\n        /* \"#utility.yul\":1477:1483   */\n      dup3\n        /* \"#utility.yul\":1470:1474   */\n      0x20\n        /* \"#utility.yul\":1462:1468   */\n      dup7\n        /* \"#utility.yul\":1458:1475   */\n      add\n        /* \"#utility.yul\":1410:1489   */\n      tag_43\n      jump\t// in\n    tag_73:\n        /* \"#utility.yul\":1401:1489   */\n      swap2\n      pop\n        /* \"#utility.yul\":1217:1495   */\n      pop\n        /* \"#utility.yul\":1155:1495   */\n      swap3\n      swap2\n      pop\n      pop\n      jump\t// out\n        /* \"#utility.yul\":1501:1830   */\n    tag_12:\n        /* \"#utility.yul\":1560:1566   */\n      0x00\n        /* \"#utility.yul\":1609:1611   */\n      0x20\n        /* \"#utility.yul\":1597:1606   */\n      dup3\n        /* \"#utility.yul\":1588:1595   */\n      dup5\n        /* \"#utility.yul\":1584:1607   */\n      sub\n        /* \"#utility.yul\":1580:1612   */\n      slt\n        /* \"#utility.yul\":1577:1696   */\n      iszero\n      tag_75\n      jumpi\n        /* \"#utility.yul\":1615:1694   */\n      tag_76\n      tag_77\n      jump\t// in\n    tag_76:\n        /* \"#utility.yul\":1577:1696   */\n    tag_75:\n        /* \"#utility.yul\":1735:1736   */\n      0x00\n        /* \"#utility.yul\":1760:1813   */\n      tag_78\n        /* \"#utility.yul\":1805:1812   */\n      dup5\n        /* \"#utility.yul\":1796:1802   */\n      dup3\n        /* \"#utility.yul\":1785:1794   */\n      dup6\n        /* \"#utility.yul\":1781:1803   */\n      add\n        /* \"#utility.yul\":1760:1813   */\n      tag_54\n      jump\t// in\n    tag_78:\n        /* \"#utility.yul\":1750:1813   */\n      swap2\n      pop\n        /* \"#utility.yul\":1706:1823   */\n      pop\n        /* \"#utility.yul\":1501:1830   */\n      swap3\n      swap2\n      pop\n      pop\n      jump\t// out\n        /* \"#utility.yul\":1836:2508   */\n    tag_8:\n        /* \"#utility.yul\":1915:1921   */\n      0x00\n        /* \"#utility.yul\":1923:1929   */\n      dup1\n        /* \"#utility.yul\":1931:1937   */\n      0x00\n        /* \"#utility.yul\":1980:1982   */\n      0x40\n        /* \"#utility.yul\":1968:1977   */\n      dup5\n        /* \"#utility.yul\":1959:1966   */\n      dup7\n        /* \"#utility.yul\":1955:1978   */\n      sub\n        /* \"#utility.yul\":1951:1983   */\n      slt\n        /* \"#utility.yul\":1948:2067   */\n      iszero\n      tag_80\n      jumpi\n        /* \"#utility.yul\":1986:2065   */\n      tag_81\n      tag_77\n      jump\t// in\n    tag_81:\n        /* \"#utility.yul\":1948:2067   */\n    tag_80:\n        /* \"#utility.yul\":2106:2107   */\n      0x00\n        /* \"#utility.yul\":2131:2184   */\n      tag_82\n        /* \"#utility.yul\":2176:2183   */\n      dup7\n        /* \"#utility.yul\":2167:2173   */\n      dup3\n        /* \"#utility.yul\":2156:2165   */\n      dup8\n        /* \"#utility.yul\":2152:2174   */\n      add\n        /* \"#utility.yul\":2131:2184   */\n      tag_54\n      jump\t// in\n    tag_82:\n        /* \"#utility.yul\":2121:2184   */\n      swap4\n      pop\n        /* \"#utility.yul\":2077:2194   */\n      pop\n        /* \"#utility.yul\":2261:2263   */\n      0x20\n        /* \"#utility.yul\":2250:2259   */\n      dup5\n        /* \"#utility.yul\":2246:2264   */\n      add\n        /* \"#utility.yul\":2233:2265   */\n      calldataload\n        /* \"#utility.yul\":2292:2310   */\n      0xffffffffffffffff\n        /* \"#utility.yul\":2284:2290   */\n      dup2\n        /* \"#utility.yul\":2281:2311   */\n      gt\n        /* \"#utility.yul\":2278:2395   */\n      iszero\n      tag_83\n      jumpi\n        /* \"#utility.yul\":2314:2393   */\n      tag_84\n      tag_85\n      jump\t// in\n    tag_84:\n        /* \"#utility.yul\":2278:2395   */\n    tag_83:\n        /* \"#utility.yul\":2427:2491   */\n      tag_86\n        /* \"#utility.yul\":2483:2490   */\n      dup7\n        /* \"#utility.yul\":2474:2480   */\n      dup3\n        /* \"#utility.yul\":2463:2472   */\n      dup8\n        /* \"#utility.yul\":2459:2481   */\n      add\n        /* \"#utility.yul\":2427:2491   */\n      tag_58\n      jump\t// in\n    tag_86:\n        /* \"#utility.yul\":2409:2491   */\n      swap3\n      pop\n      swap3\n      pop\n        /* \"#utility.yul\":2204:2501   */\n      pop\n        /* \"#utility.yul\":1836:2508   */\n      swap3\n      pop\n      swap3\n      pop\n      swap3\n      jump\t// out\n        /* \"#utility.yul\":2514:3983   */\n    tag_18:\n        /* \"#utility.yul\":2640:2646   */\n      0x00\n        /* \"#utility.yul\":2648:2654   */\n      dup1\n        /* \"#utility.yul\":2656:2662   */\n      0x00\n        /* \"#utility.yul\":2664:2670   */\n      dup1\n        /* \"#utility.yul\":2672:2678   */\n      0x00\n        /* \"#utility.yul\":2680:2686   */\n      dup1\n        /* \"#utility.yul\":2729:2732   */\n      0xa0\n        /* \"#utility.yul\":2717:2726   */\n      dup8\n        /* \"#utility.yul\":2708:2715   */\n      dup10\n        /* \"#utility.yul\":2704:2727   */\n      sub\n        /* \"#utility.yul\":2700:2733   */\n      slt\n        /* \"#utility.yul\":2697:2817   */\n      iszero\n      tag_88\n      jumpi\n        /* \"#utility.yul\":2736:2815   */\n      tag_89\n      tag_77\n      jump\t// in\n    tag_89:\n        /* \"#utility.yul\":2697:2817   */\n    tag_88:\n        /* \"#utility.yul\":2884:2885   */\n      0x00\n        /* \"#utility.yul\":2873:2882   */\n      dup8\n        /* \"#utility.yul\":2869:2886   */\n      add\n        /* \"#utility.yul\":2856:2887   */\n      calldataload\n        /* \"#utility.yul\":2914:2932   */\n      0xffffffffffffffff\n        /* \"#utility.yul\":2906:2912   */\n      dup2\n        /* \"#utility.yul\":2903:2933   */\n      gt\n        /* \"#utility.yul\":2900:3017   */\n      iszero\n      tag_90\n      jumpi\n        /* \"#utility.yul\":2936:3015   */\n      tag_91\n      tag_85\n      jump\t// in\n    tag_91:\n        /* \"#utility.yul\":2900:3017   */\n    tag_90:\n        /* \"#utility.yul\":3041:3104   */\n      tag_92\n        /* \"#utility.yul\":3096:3103   */\n      dup10\n        /* \"#utility.yul\":3087:3093   */\n      dup3\n        /* \"#utility.yul\":3076:3085   */\n      dup11\n        /* \"#utility.yul\":3072:3094   */\n      add\n        /* \"#utility.yul\":3041:3104   */\n      tag_69\n      jump\t// in\n    tag_92:\n        /* \"#utility.yul\":3031:3104   */\n      swap7\n      pop\n        /* \"#utility.yul\":2827:3114   */\n      pop\n        /* \"#utility.yul\":3153:3155   */\n      0x20\n        /* \"#utility.yul\":3179:3232   */\n      tag_93\n        /* \"#utility.yul\":3224:3231   */\n      dup10\n        /* \"#utility.yul\":3215:3221   */\n      dup3\n        /* \"#utility.yul\":3204:3213   */\n      dup11\n        /* \"#utility.yul\":3200:3222   */\n      add\n        /* \"#utility.yul\":3179:3232   */\n      tag_54\n      jump\t// in\n    tag_93:\n        /* \"#utility.yul\":3169:3232   */\n      swap6\n      pop\n        /* \"#utility.yul\":3124:3242   */\n      pop\n        /* \"#utility.yul\":3281:3283   */\n      0x40\n        /* \"#utility.yul\":3307:3360   */\n      tag_94\n        /* \"#utility.yul\":3352:3359   */\n      dup10\n        /* \"#utility.yul\":3343:3349   */\n      dup3\n        /* \"#utility.yul\":3332:3341   */\n      dup11\n        /* \"#utility.yul\":3328:3350   */\n      add\n        /* \"#utility.yul\":3307:3360   */\n      tag_54\n      jump\t// in\n    tag_94:\n        /* \"#utility.yul\":3297:3360   */\n      swap5\n      pop\n        /* \"#utility.yul\":3252:3370   */\n      pop\n        /* \"#utility.yul\":3437:3439   */\n      0x60\n        /* \"#utility.yul\":3426:3435   */\n      dup8\n        /* \"#utility.yul\":3422:3440   */\n      add\n        /* \"#utility.yul\":3409:3441   */\n      calldataload\n        /* \"#utility.yul\":3468:3486   */\n      0xffffffffffffffff\n        /* \"#utility.yul\":3460:3466   */\n      dup2\n        /* \"#utility.yul\":3457:3487   */\n      gt\n        /* \"#utility.yul\":3454:3571   */\n      iszero\n      tag_95\n      jumpi\n        /* \"#utility.yul\":3490:3569   */\n      tag_96\n      tag_85\n      jump\t// in\n    tag_96:\n        /* \"#utility.yul\":3454:3571   */\n    tag_95:\n        /* \"#utility.yul\":3595:3658   */\n      tag_97\n        /* \"#utility.yul\":3650:3657   */\n      dup10\n        /* \"#utility.yul\":3641:3647   */\n      dup3\n        /* \"#utility.yul\":3630:3639   */\n      dup11\n        /* \"#utility.yul\":3626:3648   */\n      add\n        /* \"#utility.yul\":3595:3658   */\n      tag_69\n      jump\t// in\n    tag_97:\n        /* \"#utility.yul\":3585:3658   */\n      swap4\n      pop\n        /* \"#utility.yul\":3380:3668   */\n      pop\n        /* \"#utility.yul\":3735:3738   */\n      0x80\n        /* \"#utility.yul\":3724:3733   */\n      dup8\n        /* \"#utility.yul\":3720:3739   */\n      add\n        /* \"#utility.yul\":3707:3740   */\n      calldataload\n        /* \"#utility.yul\":3767:3785   */\n      0xffffffffffffffff\n        /* \"#utility.yul\":3759:3765   */\n      dup2\n        /* \"#utility.yul\":3756:3786   */\n      gt\n        /* \"#utility.yul\":3753:3870   */\n      iszero\n      tag_98\n      jumpi\n        /* \"#utility.yul\":3789:3868   */\n      tag_99\n      tag_85\n      jump\t// in\n    tag_99:\n        /* \"#utility.yul\":3753:3870   */\n    tag_98:\n        /* \"#utility.yul\":3902:3966   */\n      tag_100\n        /* \"#utility.yul\":3958:3965   */\n      dup10\n        /* \"#utility.yul\":3949:3955   */\n      dup3\n        /* \"#utility.yul\":3938:3947   */\n      dup11\n        /* \"#utility.yul\":3934:3956   */\n      add\n        /* \"#utility.yul\":3902:3966   */\n      tag_58\n      jump\t// in\n    tag_100:\n        /* \"#utility.yul\":3884:3966   */\n      swap3\n      pop\n      swap3\n      pop\n        /* \"#utility.yul\":3678:3976   */\n      pop\n        /* \"#utility.yul\":2514:3983   */\n      swap3\n      swap6\n      pop\n      swap3\n      swap6\n      pop\n      swap3\n      swap6\n      jump\t// out\n        /* \"#utility.yul\":3989:4107   */\n    tag_101:\n        /* \"#utility.yul\":4076:4100   */\n      tag_103\n        /* \"#utility.yul\":4094:4099   */\n      dup2\n        /* \"#utility.yul\":4076:4100   */\n      tag_104\n      jump\t// in\n    tag_103:\n        /* \"#utility.yul\":4071:4074   */\n      dup3\n        /* \"#utility.yul\":4064:4101   */\n      mstore\n        /* \"#utility.yul\":3989:4107   */\n      pop\n      pop\n      jump\t// out\n        /* \"#utility.yul\":4135:4436   */\n    tag_105:\n        /* \"#utility.yul\":4231:4234   */\n      0x00\n        /* \"#utility.yul\":4252:4322   */\n      tag_107\n        /* \"#utility.yul\":4315:4321   */\n      dup4\n        /* \"#utility.yul\":4310:4313   */\n      dup6\n        /* \"#utility.yul\":4252:4322   */\n      tag_108\n      jump\t// in\n    tag_107:\n        /* \"#utility.yul\":4245:4322   */\n      swap4\n      pop\n        /* \"#utility.yul\":4332:4375   */\n      tag_109\n        /* \"#utility.yul\":4368:4374   */\n      dup4\n        /* \"#utility.yul\":4363:4366   */\n      dup6\n        /* \"#utility.yul\":4356:4361   */\n      dup5\n        /* \"#utility.yul\":4332:4375   */\n      tag_53\n      jump\t// in\n    tag_109:\n        /* \"#utility.yul\":4400:4429   */\n      tag_110\n        /* \"#utility.yul\":4422:4428   */\n      dup4\n        /* \"#utility.yul\":4400:4429   */\n      tag_111\n      jump\t// in\n    tag_110:\n        /* \"#utility.yul\":4395:4398   */\n      dup5\n        /* \"#utility.yul\":4391:4430   */\n      add\n        /* \"#utility.yul\":4384:4430   */\n      swap1\n      pop\n        /* \"#utility.yul\":4135:4436   */\n      swap4\n      swap3\n      pop\n      pop\n      pop\n      jump\t// out\n        /* \"#utility.yul\":4442:4802   */\n    tag_112:\n        /* \"#utility.yul\":4528:4531   */\n      0x00\n        /* \"#utility.yul\":4556:4594   */\n      tag_114\n        /* \"#utility.yul\":4588:4593   */\n      dup3\n        /* \"#utility.yul\":4556:4594   */\n      tag_115\n      jump\t// in\n    tag_114:\n        /* \"#utility.yul\":4610:4680   */\n      tag_116\n        /* \"#utility.yul\":4673:4679   */\n      dup2\n        /* \"#utility.yul\":4668:4671   */\n      dup6\n        /* \"#utility.yul\":4610:4680   */\n      tag_108\n      jump\t// in\n    tag_116:\n        /* \"#utility.yul\":4603:4680   */\n      swap4\n      pop\n        /* \"#utility.yul\":4689:4741   */\n      tag_117\n        /* \"#utility.yul\":4734:4740   */\n      dup2\n        /* \"#utility.yul\":4729:4732   */\n      dup6\n        /* \"#utility.yul\":4722:4726   */\n      0x20\n        /* \"#utility.yul\":4715:4720   */\n      dup7\n        /* \"#utility.yul\":4711:4727   */\n      add\n        /* \"#utility.yul\":4689:4741   */\n      tag_118\n      jump\t// in\n    tag_117:\n        /* \"#utility.yul\":4766:4795   */\n      tag_119\n        /* \"#utility.yul\":4788:4794   */\n      dup2\n        /* \"#utility.yul\":4766:4795   */\n      tag_111\n      jump\t// in\n    tag_119:\n        /* \"#utility.yul\":4761:4764   */\n      dup5\n        /* \"#utility.yul\":4757:4796   */\n      add\n        /* \"#utility.yul\":4750:4796   */\n      swap2\n      pop\n        /* \"#utility.yul\":4532:4802   */\n      pop\n        /* \"#utility.yul\":4442:4802   */\n      swap3\n      swap2\n      pop\n      pop\n      jump\t// out\n        /* \"#utility.yul\":4808:5172   */\n    tag_120:\n        /* \"#utility.yul\":4896:4899   */\n      0x00\n        /* \"#utility.yul\":4924:4963   */\n      tag_122\n        /* \"#utility.yul\":4957:4962   */\n      dup3\n        /* \"#utility.yul\":4924:4963   */\n      tag_123\n      jump\t// in\n    tag_122:\n        /* \"#utility.yul\":4979:5050   */\n      tag_124\n        /* \"#utility.yul\":5043:5049   */\n      dup2\n        /* \"#utility.yul\":5038:5041   */\n      dup6\n        /* \"#utility.yul\":4979:5050   */\n      tag_125\n      jump\t// in\n    tag_124:\n        /* \"#utility.yul\":4972:5050   */\n      swap4\n      pop\n        /* \"#utility.yul\":5059:5111   */\n      tag_126\n        /* \"#utility.yul\":5104:5110   */\n      dup2\n        /* \"#utility.yul\":5099:5102   */\n      dup6\n        /* \"#utility.yul\":5092:5096   */\n      0x20\n        /* \"#utility.yul\":5085:5090   */\n      dup7\n        /* \"#utility.yul\":5081:5097   */\n      add\n        /* \"#utility.yul\":5059:5111   */\n      tag_118\n      jump\t// in\n    tag_126:\n        /* \"#utility.yul\":5136:5165   */\n      tag_127\n        /* \"#utility.yul\":5158:5164   */\n      dup2\n        /* \"#utility.yul\":5136:5165   */\n      tag_111\n      jump\t// in\n    tag_127:\n        /* \"#utility.yul\":5131:5134   */\n      dup5\n        /* \"#utility.yul\":5127:5166   */\n      add\n        /* \"#utility.yul\":5120:5166   */\n      swap2\n      pop\n        /* \"#utility.yul\":4900:5172   */\n      pop\n        /* \"#utility.yul\":4808:5172   */\n      swap3\n      swap2\n      pop\n      pop\n      jump\t// out\n        /* \"#utility.yul\":5178:5487   */\n    tag_15:\n        /* \"#utility.yul\":5289:5293   */\n      0x00\n        /* \"#utility.yul\":5327:5329   */\n      0x20\n        /* \"#utility.yul\":5316:5325   */\n      dup3\n        /* \"#utility.yul\":5312:5330   */\n      add\n        /* \"#utility.yul\":5304:5330   */\n      swap1\n      pop\n        /* \"#utility.yul\":5376:5385   */\n      dup2\n        /* \"#utility.yul\":5370:5374   */\n      dup2\n        /* \"#utility.yul\":5366:5386   */\n      sub\n        /* \"#utility.yul\":5362:5363   */\n      0x00\n        /* \"#utility.yul\":5351:5360   */\n      dup4\n        /* \"#utility.yul\":5347:5364   */\n      add\n        /* \"#utility.yul\":5340:5387   */\n      mstore\n        /* \"#utility.yul\":5404:5480   */\n      tag_129\n        /* \"#utility.yul\":5475:5479   */\n      dup2\n        /* \"#utility.yul\":5466:5472   */\n      dup5\n        /* \"#utility.yul\":5404:5480   */\n      tag_112\n      jump\t// in\n    tag_129:\n        /* \"#utility.yul\":5396:5480   */\n      swap1\n      pop\n        /* \"#utility.yul\":5178:5487   */\n      swap3\n      swap2\n      pop\n      pop\n      jump\t// out\n        /* \"#utility.yul\":5493:6446   */\n    tag_31:\n        /* \"#utility.yul\":5766:5770   */\n      0x00\n        /* \"#utility.yul\":5804:5807   */\n      0xa0\n        /* \"#utility.yul\":5793:5802   */\n      dup3\n        /* \"#utility.yul\":5789:5808   */\n      add\n        /* \"#utility.yul\":5781:5808   */\n      swap1\n      pop\n        /* \"#utility.yul\":5854:5863   */\n      dup2\n        /* \"#utility.yul\":5848:5852   */\n      dup2\n        /* \"#utility.yul\":5844:5864   */\n      sub\n        /* \"#utility.yul\":5840:5841   */\n      0x00\n        /* \"#utility.yul\":5829:5838   */\n      dup4\n        /* \"#utility.yul\":5825:5842   */\n      add\n        /* \"#utility.yul\":5818:5865   */\n      mstore\n        /* \"#utility.yul\":5882:5960   */\n      tag_131\n        /* \"#utility.yul\":5955:5959   */\n      dup2\n        /* \"#utility.yul\":5946:5952   */\n      dup10\n        /* \"#utility.yul\":5882:5960   */\n      tag_120\n      jump\t// in\n    tag_131:\n        /* \"#utility.yul\":5874:5960   */\n      swap1\n      pop\n        /* \"#utility.yul\":5970:6042   */\n      tag_132\n        /* \"#utility.yul\":6038:6040   */\n      0x20\n        /* \"#utility.yul\":6027:6036   */\n      dup4\n        /* \"#utility.yul\":6023:6041   */\n      add\n        /* \"#utility.yul\":6014:6020   */\n      dup9\n        /* \"#utility.yul\":5970:6042   */\n      tag_101\n      jump\t// in\n    tag_132:\n        /* \"#utility.yul\":6052:6124   */\n      tag_133\n        /* \"#utility.yul\":6120:6122   */\n      0x40\n        /* \"#utility.yul\":6109:6118   */\n      dup4\n        /* \"#utility.yul\":6105:6123   */\n      add\n        /* \"#utility.yul\":6096:6102   */\n      dup8\n        /* \"#utility.yul\":6052:6124   */\n      tag_101\n      jump\t// in\n    tag_133:\n        /* \"#utility.yul\":6171:6180   */\n      dup2\n        /* \"#utility.yul\":6165:6169   */\n      dup2\n        /* \"#utility.yul\":6161:6181   */\n      sub\n        /* \"#utility.yul\":6156:6158   */\n      0x60\n        /* \"#utility.yul\":6145:6154   */\n      dup4\n        /* \"#utility.yul\":6141:6159   */\n      add\n        /* \"#utility.yul\":6134:6182   */\n      mstore\n        /* \"#utility.yul\":6199:6277   */\n      tag_134\n        /* \"#utility.yul\":6272:6276   */\n      dup2\n        /* \"#utility.yul\":6263:6269   */\n      dup7\n        /* \"#utility.yul\":6199:6277   */\n      tag_120\n      jump\t// in\n    tag_134:\n        /* \"#utility.yul\":6191:6277   */\n      swap1\n      pop\n        /* \"#utility.yul\":6325:6334   */\n      dup2\n        /* \"#utility.yul\":6319:6323   */\n      dup2\n        /* \"#utility.yul\":6315:6335   */\n      sub\n        /* \"#utility.yul\":6309:6312   */\n      0x80\n        /* \"#utility.yul\":6298:6307   */\n      dup4\n        /* \"#utility.yul\":6294:6313   */\n      add\n        /* \"#utility.yul\":6287:6336   */\n      mstore\n        /* \"#utility.yul\":6353:6439   */\n      tag_135\n        /* \"#utility.yul\":6434:6438   */\n      dup2\n        /* \"#utility.yul\":6425:6431   */\n      dup5\n        /* \"#utility.yul\":6417:6423   */\n      dup7\n        /* \"#utility.yul\":6353:6439   */\n      tag_105\n      jump\t// in\n    tag_135:\n        /* \"#utility.yul\":6345:6439   */\n      swap1\n      pop\n        /* \"#utility.yul\":5493:6446   */\n      swap8\n      swap7\n      pop\n      pop\n      pop\n      pop\n      pop\n      pop\n      pop\n      jump\t// out\n        /* \"#utility.yul\":6452:6581   */\n    tag_48:\n        /* \"#utility.yul\":6486:6492   */\n      0x00\n        /* \"#utility.yul\":6513:6533   */\n      tag_137\n      tag_138\n      jump\t// in\n    tag_137:\n        /* \"#utility.yul\":6503:6533   */\n      swap1\n      pop\n        /* \"#utility.yul\":6542:6575   */\n      tag_139\n        /* \"#utility.yul\":6570:6574   */\n      dup3\n        /* \"#utility.yul\":6562:6568   */\n      dup3\n        /* \"#utility.yul\":6542:6575   */\n      tag_140\n      jump\t// in\n    tag_139:\n        /* \"#utility.yul\":6452:6581   */\n      swap2\n      swap1\n      pop\n      jump\t// out\n        /* \"#utility.yul\":6587:6662   */\n    tag_138:\n        /* \"#utility.yul\":6620:6626   */\n      0x00\n        /* \"#utility.yul\":6653:6655   */\n      0x40\n        /* \"#utility.yul\":6647:6656   */\n      mload\n        /* \"#utility.yul\":6637:6656   */\n      swap1\n      pop\n        /* \"#utility.yul\":6587:6662   */\n      swap1\n      jump\t// out\n        /* \"#utility.yul\":6668:6976   */\n    tag_47:\n        /* \"#utility.yul\":6730:6734   */\n      0x00\n        /* \"#utility.yul\":6820:6838   */\n      0xffffffffffffffff\n        /* \"#utility.yul\":6812:6818   */\n      dup3\n        /* \"#utility.yul\":6809:6839   */\n      gt\n        /* \"#utility.yul\":6806:6862   */\n      iszero\n      tag_143\n      jumpi\n        /* \"#utility.yul\":6842:6860   */\n      tag_144\n      tag_145\n      jump\t// in\n    tag_144:\n        /* \"#utility.yul\":6806:6862   */\n    tag_143:\n        /* \"#utility.yul\":6880:6909   */\n      tag_146\n        /* \"#utility.yul\":6902:6908   */\n      dup3\n        /* \"#utility.yul\":6880:6909   */\n      tag_111\n      jump\t// in\n    tag_146:\n        /* \"#utility.yul\":6872:6909   */\n      swap1\n      pop\n        /* \"#utility.yul\":6964:6968   */\n      0x20\n        /* \"#utility.yul\":6958:6962   */\n      dup2\n        /* \"#utility.yul\":6954:6969   */\n      add\n        /* \"#utility.yul\":6946:6969   */\n      swap1\n      pop\n        /* \"#utility.yul\":6668:6976   */\n      swap2\n      swap1\n      pop\n      jump\t// out\n        /* \"#utility.yul\":6982:7080   */\n    tag_115:\n        /* \"#utility.yul\":7033:7039   */\n      0x00\n        /* \"#utility.yul\":7067:7072   */\n      dup2\n        /* \"#utility.yul\":7061:7073   */\n      mload\n        /* \"#utility.yul\":7051:7073   */\n      swap1\n      pop\n        /* \"#utility.yul\":6982:7080   */\n      swap2\n      swap1\n      pop\n      jump\t// out\n        /* \"#utility.yul\":7086:7185   */\n    tag_123:\n        /* \"#utility.yul\":7138:7144   */\n      0x00\n        /* \"#utility.yul\":7172:7177   */\n      dup2\n        /* \"#utility.yul\":7166:7178   */\n      mload\n        /* \"#utility.yul\":7156:7178   */\n      swap1\n      pop\n        /* \"#utility.yul\":7086:7185   */\n      swap2\n      swap1\n      pop\n      jump\t// out\n        /* \"#utility.yul\":7191:7359   */\n    tag_108:\n        /* \"#utility.yul\":7274:7285   */\n      0x00\n        /* \"#utility.yul\":7308:7314   */\n      dup3\n        /* \"#utility.yul\":7303:7306   */\n      dup3\n        /* \"#utility.yul\":7296:7315   */\n      mstore\n        /* \"#utility.yul\":7348:7352   */\n      0x20\n        /* \"#utility.yul\":7343:7346   */\n      dup3\n        /* \"#utility.yul\":7339:7353   */\n      add\n        /* \"#utility.yul\":7324:7353   */\n      swap1\n      pop\n        /* \"#utility.yul\":7191:7359   */\n      swap3\n      swap2\n      pop\n      pop\n      jump\t// out\n        /* \"#utility.yul\":7365:7534   */\n    tag_125:\n        /* \"#utility.yul\":7449:7460   */\n      0x00\n        /* \"#utility.yul\":7483:7489   */\n      dup3\n        /* \"#utility.yul\":7478:7481   */\n      dup3\n        /* \"#utility.yul\":7471:7490   */\n      mstore\n        /* \"#utility.yul\":7523:7527   */\n      0x20\n        /* \"#utility.yul\":7518:7521   */\n      dup3\n        /* \"#utility.yul\":7514:7528   */\n      add\n        /* \"#utility.yul\":7499:7528   */\n      swap1\n      pop\n        /* \"#utility.yul\":7365:7534   */\n      swap3\n      swap2\n      pop\n      pop\n      jump\t// out\n        /* \"#utility.yul\":7540:7636   */\n    tag_104:\n        /* \"#utility.yul\":7577:7584   */\n      0x00\n        /* \"#utility.yul\":7606:7630   */\n      tag_152\n        /* \"#utility.yul\":7624:7629   */\n      dup3\n        /* \"#utility.yul\":7606:7630   */\n      tag_153\n      jump\t// in\n    tag_152:\n        /* \"#utility.yul\":7595:7630   */\n      swap1\n      pop\n        /* \"#utility.yul\":7540:7636   */\n      swap2\n      swap1\n      pop\n      jump\t// out\n        /* \"#utility.yul\":7642:7768   */\n    tag_153:\n        /* \"#utility.yul\":7679:7686   */\n      0x00\n        /* \"#utility.yul\":7719:7761   */\n      0xffffffffffffffffffffffffffffffffffffffff\n        /* \"#utility.yul\":7712:7717   */\n      dup3\n        /* \"#utility.yul\":7708:7762   */\n      and\n        /* \"#utility.yul\":7697:7762   */\n      swap1\n      pop\n        /* \"#utility.yul\":7642:7768   */\n      swap2\n      swap1\n      pop\n      jump\t// out\n        /* \"#utility.yul\":7774:7928   */\n    tag_53:\n        /* \"#utility.yul\":7858:7864   */\n      dup3\n        /* \"#utility.yul\":7853:7856   */\n      dup2\n        /* \"#utility.yul\":7848:7851   */\n      dup4\n        /* \"#utility.yul\":7835:7865   */\n      calldatacopy\n        /* \"#utility.yul\":7920:7921   */\n      0x00\n        /* \"#utility.yul\":7911:7917   */\n      dup4\n        /* \"#utility.yul\":7906:7909   */\n      dup4\n        /* \"#utility.yul\":7902:7918   */\n      add\n        /* \"#utility.yul\":7895:7922   */\n      mstore\n        /* \"#utility.yul\":7774:7928   */\n      pop\n      pop\n      pop\n      jump\t// out\n        /* \"#utility.yul\":7934:8241   */\n    tag_118:\n        /* \"#utility.yul\":8002:8003   */\n      0x00\n        /* \"#utility.yul\":8012:8125   */\n    tag_157:\n        /* \"#utility.yul\":8026:8032   */\n      dup4\n        /* \"#utility.yul\":8023:8024   */\n      dup2\n        /* \"#utility.yul\":8020:8033   */\n      lt\n        /* \"#utility.yul\":8012:8125   */\n      iszero\n      tag_159\n      jumpi\n        /* \"#utility.yul\":8111:8112   */\n      dup1\n        /* \"#utility.yul\":8106:8109   */\n      dup3\n        /* \"#utility.yul\":8102:8113   */\n      add\n        /* \"#utility.yul\":8096:8114   */\n      mload\n        /* \"#utility.yul\":8092:8093   */\n      dup2\n        /* \"#utility.yul\":8087:8090   */\n      dup5\n        /* \"#utility.yul\":8083:8094   */\n      add\n        /* \"#utility.yul\":8076:8115   */\n      mstore\n        /* \"#utility.yul\":8048:8050   */\n      0x20\n        /* \"#utility.yul\":8045:8046   */\n      dup2\n        /* \"#utility.yul\":8041:8051   */\n      add\n        /* \"#utility.yul\":8036:8051   */\n      swap1\n      pop\n        /* \"#utility.yul\":8012:8125   */\n      jump(tag_157)\n    tag_159:\n        /* \"#utility.yul\":8143:8149   */\n      dup4\n        /* \"#utility.yul\":8140:8141   */\n      dup2\n        /* \"#utility.yul\":8137:8150   */\n      gt\n        /* \"#utility.yul\":8134:8235   */\n      iszero\n      tag_160\n      jumpi\n        /* \"#utility.yul\":8223:8224   */\n      0x00\n        /* \"#utility.yul\":8214:8220   */\n      dup5\n        /* \"#utility.yul\":8209:8212   */\n      dup5\n        /* \"#utility.yul\":8205:8221   */\n      add\n        /* \"#utility.yul\":8198:8225   */\n      mstore\n        /* \"#utility.yul\":8134:8235   */\n    tag_160:\n        /* \"#utility.yul\":7983:8241   */\n      pop\n        /* \"#utility.yul\":7934:8241   */\n      pop\n      pop\n      pop\n      jump\t// out\n        /* \"#utility.yul\":8247:8567   */\n    tag_24:\n        /* \"#utility.yul\":8291:8297   */\n      0x00\n        /* \"#utility.yul\":8328:8329   */\n      0x02\n        /* \"#utility.yul\":8322:8326   */\n      dup3\n        /* \"#utility.yul\":8318:8330   */\n      div\n        /* \"#utility.yul\":8308:8330   */\n      swap1\n      pop\n        /* \"#utility.yul\":8375:8376   */\n      0x01\n        /* \"#utility.yul\":8369:8373   */\n      dup3\n        /* \"#utility.yul\":8365:8377   */\n      and\n        /* \"#utility.yul\":8396:8414   */\n      dup1\n        /* \"#utility.yul\":8386:8467   */\n      tag_162\n      jumpi\n        /* \"#utility.yul\":8452:8456   */\n      0x7f\n        /* \"#utility.yul\":8444:8450   */\n      dup3\n        /* \"#utility.yul\":8440:8457   */\n      and\n        /* \"#utility.yul\":8430:8457   */\n      swap2\n      pop\n        /* \"#utility.yul\":8386:8467   */\n    tag_162:\n        /* \"#utility.yul\":8514:8516   */\n      0x20\n        /* \"#utility.yul\":8506:8512   */\n      dup3\n        /* \"#utility.yul\":8503:8517   */\n      lt\n        /* \"#utility.yul\":8483:8501   */\n      dup2\n        /* \"#utility.yul\":8480:8518   */\n      eq\n        /* \"#utility.yul\":8477:8561   */\n      iszero\n      tag_163\n      jumpi\n        /* \"#utility.yul\":8533:8551   */\n      tag_164\n      tag_165\n      jump\t// in\n    tag_164:\n        /* \"#utility.yul\":8477:8561   */\n    tag_163:\n        /* \"#utility.yul\":8298:8567   */\n      pop\n        /* \"#utility.yul\":8247:8567   */\n      swap2\n      swap1\n      pop\n      jump\t// out\n        /* \"#utility.yul\":8573:8854   */\n    tag_140:\n        /* \"#utility.yul\":8656:8683   */\n      tag_167\n        /* \"#utility.yul\":8678:8682   */\n      dup3\n        /* \"#utility.yul\":8656:8683   */\n      tag_111\n      jump\t// in\n    tag_167:\n        /* \"#utility.yul\":8648:8654   */\n      dup2\n        /* \"#utility.yul\":8644:8684   */\n      add\n        /* \"#utility.yul\":8786:8792   */\n      dup2\n        /* \"#utility.yul\":8774:8784   */\n      dup2\n        /* \"#utility.yul\":8771:8793   */\n      lt\n        /* \"#utility.yul\":8750:8768   */\n      0xffffffffffffffff\n        /* \"#utility.yul\":8738:8748   */\n      dup3\n        /* \"#utility.yul\":8735:8769   */\n      gt\n        /* \"#utility.yul\":8732:8794   */\n      or\n        /* \"#utility.yul\":8729:8817   */\n      iszero\n      tag_168\n      jumpi\n        /* \"#utility.yul\":8797:8815   */\n      tag_169\n      tag_145\n      jump\t// in\n    tag_169:\n        /* \"#utility.yul\":8729:8817   */\n    tag_168:\n        /* \"#utility.yul\":8837:8847   */\n      dup1\n        /* \"#utility.yul\":8833:8835   */\n      0x40\n        /* \"#utility.yul\":8826:8848   */\n      mstore\n        /* \"#utility.yul\":8616:8854   */\n      pop\n        /* \"#utility.yul\":8573:8854   */\n      pop\n      pop\n      jump\t// out\n        /* \"#utility.yul\":8860:9040   */\n    tag_165:\n        /* \"#utility.yul\":8908:8985   */\n      0x4e487b7100000000000000000000000000000000000000000000000000000000\n        /* \"#utility.yul\":8905:8906   */\n      0x00\n        /* \"#utility.yul\":8898:8986   */\n      mstore\n        /* \"#utility.yul\":9005:9009   */\n      0x22\n        /* \"#utility.yul\":9002:9003   */\n      0x04\n        /* \"#utility.yul\":8995:9010   */\n      mstore\n        /* \"#utility.yul\":9029:9033   */\n      0x24\n        /* \"#utility.yul\":9026:9027   */\n      0x00\n        /* \"#utility.yul\":9019:9034   */\n      revert\n        /* \"#utility.yul\":9046:9226   */\n    tag_145:\n        /* \"#utility.yul\":9094:9171   */\n      0x4e487b7100000000000000000000000000000000000000000000000000000000\n        /* \"#utility.yul\":9091:9092   */\n      0x00\n        /* \"#utility.yul\":9084:9172   */\n      mstore\n        /* \"#utility.yul\":9191:9195   */\n      0x41\n        /* \"#utility.yul\":9188:9189   */\n      0x04\n        /* \"#utility.yul\":9181:9196   */\n      mstore\n        /* \"#utility.yul\":9215:9219   */\n      0x24\n        /* \"#utility.yul\":9212:9213   */\n      0x00\n        /* \"#utility.yul\":9205:9220   */\n      revert\n        /* \"#utility.yul\":9232:9349   */\n    tag_65:\n        /* \"#utility.yul\":9341:9342   */\n      0x00\n        /* \"#utility.yul\":9338:9339   */\n      dup1\n        /* \"#utility.yul\":9331:9343   */\n      revert\n        /* \"#utility.yul\":9355:9472   */\n    tag_62:\n        /* \"#utility.yul\":9464:9465   */\n      0x00\n        /* \"#utility.yul\":9461:9462   */\n      dup1\n        /* \"#utility.yul\":9454:9466   */\n      revert\n        /* \"#utility.yul\":9478:9595   */\n    tag_68:\n        /* \"#utility.yul\":9587:9588   */\n      0x00\n        /* \"#utility.yul\":9584:9585   */\n      dup1\n        /* \"#utility.yul\":9577:9589   */\n      revert\n        /* \"#utility.yul\":9601:9718   */\n    tag_51:\n        /* \"#utility.yul\":9710:9711   */\n      0x00\n        /* \"#utility.yul\":9707:9708   */\n      dup1\n        /* \"#utility.yul\":9700:9712   */\n      revert\n        /* \"#utility.yul\":9724:9841   */\n    tag_85:\n        /* \"#utility.yul\":9833:9834   */\n      0x00\n        /* \"#utility.yul\":9830:9831   */\n      dup1\n        /* \"#utility.yul\":9823:9835   */\n      revert\n        /* \"#utility.yul\":9847:9964   */\n    tag_77:\n        /* \"#utility.yul\":9956:9957   */\n      0x00\n        /* \"#utility.yul\":9953:9954   */\n      dup1\n        /* \"#utility.yul\":9946:9958   */\n      revert\n        /* \"#utility.yul\":9970:10072   */\n    tag_111:\n        /* \"#utility.yul\":10011:10017   */\n      0x00\n        /* \"#utility.yul\":10062:10064   */\n      0x1f\n        /* \"#utility.yul\":10058:10065   */\n      not\n        /* \"#utility.yul\":10053:10055   */\n      0x1f\n        /* \"#utility.yul\":10046:10051   */\n      dup4\n        /* \"#utility.yul\":10042:10056   */\n      add\n        /* \"#utility.yul\":10038:10066   */\n      and\n        /* \"#utility.yul\":10028:10066   */\n      swap1\n      pop\n        /* \"#utility.yul\":9970:10072   */\n      swap2\n      swap1\n      pop\n      jump\t// out\n        /* \"#utility.yul\":10078:10200   */\n    tag_57:\n        /* \"#utility.yul\":10151:10175   */\n      tag_180\n        /* \"#utility.yul\":10169:10174   */\n      dup2\n        /* \"#utility.yul\":10151:10175   */\n      tag_104\n      jump\t// in\n    tag_180:\n        /* \"#utility.yul\":10144:10149   */\n      dup2\n        /* \"#utility.yul\":10141:10176   */\n      eq\n        /* \"#utility.yul\":10131:10194   */\n      tag_181\n      jumpi\n        /* \"#utility.yul\":10190:10191   */\n      0x00\n        /* \"#utility.yul\":10187:10188   */\n      dup1\n        /* \"#utility.yul\":10180:10192   */\n      revert\n        /* \"#utility.yul\":10131:10194   */\n    tag_181:\n        /* \"#utility.yul\":10078:10200   */\n      pop\n      jump\t// out\n\n    auxdata: 0xa264697066735822122058d1d31e7afa44b005b9fd4155aed879ec027d7889f75fa0492bc61e01f563ef64736f6c63430008070033\n}\n",
				"bytecode": {
					"linkReferences": {},
					"object": "608060405234801561001057600080fd5b50610840806100206000396000f3fe608060405234801561001057600080fd5b50600436106100415760003560e01c806345b0e8a814610046578063634aa98314610062578063a78d2ba314610092575b600080fd5b610060600480360381019061005b9190610395565b6100ae565b005b61007c60048036038101906100779190610368565b610101565b6040516100899190610575565b60405180910390f35b6100ac60048036038101906100a791906103f5565b6101a1565b005b81816000808673ffffffffffffffffffffffffffffffffffffffff1673ffffffffffffffffffffffffffffffffffffffff16815260200190815260200160002091906100fb9291906101ea565b50505050565b6000602052806000526040600020600091509050805461012090610703565b80601f016020809104026020016040519081016040528092919081815260200182805461014c90610703565b80156101995780601f1061016e57610100808354040283529160200191610199565b820191906000526020600020905b81548152906001019060200180831161017c57829003601f168201915b505050505081565b7f37c3fbf03a160c29acc48ad2883e3c46f0041d8d41057b519658a7135a2afbf78686868686866040516101da96959493929190610597565b60405180910390a1505050505050565b8280546101f690610703565b90600052602060002090601f016020900481019282610218576000855561025f565b82601f1061023157803560ff191683800117855561025f565b8280016001018555821561025f579182015b8281111561025e578235825591602001919060010190610243565b5b50905061026c9190610270565b5090565b5b80821115610289576000816000905550600101610271565b5090565b60006102a061029b84610626565b610601565b9050828152602081018484840111156102bc576102bb6107d3565b5b6102c78482856106c1565b509392505050565b6000813590506102de816107f3565b92915050565b60008083601f8401126102fa576102f96107c9565b5b8235905067ffffffffffffffff811115610317576103166107c4565b5b602083019150836001820283011115610333576103326107ce565b5b9250929050565b600082601f83011261034f5761034e6107c9565b5b813561035f84826020860161028d565b91505092915050565b60006020828403121561037e5761037d6107dd565b5b600061038c848285016102cf565b91505092915050565b6000806000604084860312156103ae576103ad6107dd565b5b60006103bc868287016102cf565b935050602084013567ffffffffffffffff8111156103dd576103dc6107d8565b5b6103e9868287016102e4565b92509250509250925092565b60008060008060008060a08789031215610412576104116107dd565b5b600087013567ffffffffffffffff8111156104305761042f6107d8565b5b61043c89828a0161033a565b965050602061044d89828a016102cf565b955050604061045e89828a016102cf565b945050606087013567ffffffffffffffff81111561047f5761047e6107d8565b5b61048b89828a0161033a565b935050608087013567ffffffffffffffff8111156104ac576104ab6107d8565b5b6104b889828a016102e4565b92509250509295509295509295565b6104d08161068f565b82525050565b60006104e2838561066d565b93506104ef8385846106c1565b6104f8836107e2565b840190509392505050565b600061050e82610657565b610518818561066d565b93506105288185602086016106d0565b610531816107e2565b840191505092915050565b600061054782610662565b610551818561067e565b93506105618185602086016106d0565b61056a816107e2565b840191505092915050565b6000602082019050818103600083015261058f8184610503565b905092915050565b600060a08201905081810360008301526105b1818961053c565b90506105c060208301886104c7565b6105cd60408301876104c7565b81810360608301526105df818661053c565b905081810360808301526105f48184866104d6565b9050979650505050505050565b600061060b61061c565b90506106178282610735565b919050565b6000604051905090565b600067ffffffffffffffff82111561064157610640610795565b5b61064a826107e2565b9050602081019050919050565b600081519050919050565b600081519050919050565b600082825260208201905092915050565b600082825260208201905092915050565b600061069a826106a1565b9050919050565b600073ffffffffffffffffffffffffffffffffffffffff82169050919050565b82818337600083830152505050565b60005b838110156106ee5780820151818401526020810190506106d3565b838111156106fd576000848401525b50505050565b6000600282049050600182168061071b57607f821691505b6020821081141561072f5761072e610766565b5b50919050565b61073e826107e2565b810181811067ffffffffffffffff8211171561075d5761075c610795565b5b80604052505050565b7f4e487b7100000000000000000000000000000000000000000000000000000000600052602260045260246000fd5b7f4e487b7100000000000000000000000000000000000000000000000000000000600052604160045260246000fd5b600080fd5b600080fd5b600080fd5b600080fd5b600080fd5b600080fd5b6000601f19601f8301169050919050565b6107fc8161068f565b811461080757600080fd5b5056fea264697066735822122058d1d31e7afa44b005b9fd4155aed879ec027d7889f75fa0492bc61e01f563ef64736f6c63430008070033",
					"opcodes": "PUSH1 0x80 PUSH1 0x40 MSTORE CALLVALUE DUP1 ISZERO PUSH2 0x10 JUMPI PUSH1 0x0 DUP1 REVERT JUMPDEST POP PUSH2 0x840 DUP1 PUSH2 0x20 PUSH1 0x0 CODECOPY PUSH1 0x0 RETURN INVALID PUSH1 0x80 PUSH1 0x40 MSTORE CALLVALUE DUP1 ISZERO PUSH2 0x10 JUMPI PUSH1 0x0 DUP1 REVERT JUMPDEST POP PUSH1 0x4 CALLDATASIZE LT PUSH2 0x41 JUMPI PUSH1 0x0 CALLDATALOAD PUSH1 0xE0 SHR DUP1 PUSH4 0x45B0E8A8 EQ PUSH2 0x46 JUMPI DUP1 PUSH4 0x634AA983 EQ PUSH2 0x62 JUMPI DUP1 PUSH4 0xA78D2BA3 EQ PUSH2 0x92 JUMPI JUMPDEST PUSH1 0x0 DUP1 REVERT JUMPDEST PUSH2 0x60 PUSH1 0x4 DUP1 CALLDATASIZE SUB DUP2 ADD SWAP1 PUSH2 0x5B SWAP2 SWAP1 PUSH2 0x395 JUMP JUMPDEST PUSH2 0xAE JUMP JUMPDEST STOP JUMPDEST PUSH2 0x7C PUSH1 0x4 DUP1 CALLDATASIZE SUB DUP2 ADD SWAP1 PUSH2 0x77 SWAP2 SWAP1 PUSH2 0x368 JUMP JUMPDEST PUSH2 0x101 JUMP JUMPDEST PUSH1 0x40 MLOAD PUSH2 0x89 SWAP2 SWAP1 PUSH2 0x575 JUMP JUMPDEST PUSH1 0x40 MLOAD DUP1 SWAP2 SUB SWAP1 RETURN JUMPDEST PUSH2 0xAC PUSH1 0x4 DUP1 CALLDATASIZE SUB DUP2 ADD SWAP1 PUSH2 0xA7 SWAP2 SWAP1 PUSH2 0x3F5 JUMP JUMPDEST PUSH2 0x1A1 JUMP JUMPDEST STOP JUMPDEST DUP2 DUP2 PUSH1 0x0 DUP1 DUP7 PUSH20 0xFFFFFFFFFFFFFFFFFFFFFFFFFFFFFFFFFFFFFFFF AND PUSH20 0xFFFFFFFFFFFFFFFFFFFFFFFFFFFFFFFFFFFFFFFF AND DUP2 MSTORE PUSH1 0x20 ADD SWAP1 DUP2 MSTORE PUSH1 0x20 ADD PUSH1 0x0 KECCAK256 SWAP2 SWAP1 PUSH2 0xFB SWAP3 SWAP2 SWAP1 PUSH2 0x1EA JUMP JUMPDEST POP POP POP POP JUMP JUMPDEST PUSH1 0x0 PUSH1 0x20 MSTORE DUP1 PUSH1 0x0 MSTORE PUSH1 0x40 PUSH1 0x0 KECCAK256 PUSH1 0x0 SWAP2 POP SWAP1 POP DUP1 SLOAD PUSH2 0x120 SWAP1 PUSH2 0x703 JUMP JUMPDEST DUP1 PUSH1 0x1F ADD PUSH1 0x20 DUP1 SWAP2 DIV MUL PUSH1 0x20 ADD PUSH1 0x40 MLOAD SWAP1 DUP2 ADD PUSH1 0x40 MSTORE DUP1 SWAP3 SWAP2 SWAP1 DUP2 DUP2 MSTORE PUSH1 0x20 ADD DUP3 DUP1 SLOAD PUSH2 0x14C SWAP1 PUSH2 0x703 JUMP JUMPDEST DUP1 ISZERO PUSH2 0x199 JUMPI DUP1 PUSH1 0x1F LT PUSH2 0x16E JUMPI PUSH2 0x100 DUP1 DUP4 SLOAD DIV MUL DUP4 MSTORE SWAP2 PUSH1 0x20 ADD SWAP2 PUSH2 0x199 JUMP JUMPDEST DUP3 ADD SWAP2 SWAP1 PUSH1 0x0 MSTORE PUSH1 0x20 PUSH1 0x0 KECCAK256 SWAP1 JUMPDEST DUP2 SLOAD DUP2 MSTORE SWAP1 PUSH1 0x1 ADD SWAP1 PUSH1 0x20 ADD DUP1 DUP4 GT PUSH2 0x17C JUMPI DUP3 SWAP1 SUB PUSH1 0x1F AND DUP3 ADD SWAP2 JUMPDEST POP POP POP POP POP DUP2 JUMP JUMPDEST PUSH32 0x37C3FBF03A160C29ACC48AD2883E3C46F0041D8D41057B519658A7135A2AFBF7 DUP7 DUP7 DUP7 DUP7 DUP7 DUP7 PUSH1 0x40 MLOAD PUSH2 0x1DA SWAP7 SWAP6 SWAP5 SWAP4 SWAP3 SWAP2 SWAP1 PUSH2 0x597 JUMP JUMPDEST PUSH1 0x40 MLOAD DUP1 SWAP2 SUB SWAP1 LOG1 POP POP POP POP POP POP JUMP JUMPDEST DUP3 DUP1 SLOAD PUSH2 0x1F6 SWAP1 PUSH2 0x703 JUMP JUMPDEST SWAP1 PUSH1 0x0 MSTORE PUSH1 0x20 PUSH1 0x0 KECCAK256 SWAP1 PUSH1 0x1F ADD PUSH1 0x20 SWAP1 DIV DUP2 ADD SWAP3 DUP3 PUSH2 0x218 JUMPI PUSH1 0x0 DUP6 SSTORE PUSH2 0x25F JUMP JUMPDEST DUP3 PUSH1 0x1F LT PUSH2 0x231 JUMPI DUP1 CALLDATALOAD PUSH1 0xFF NOT AND DUP4 DUP1 ADD OR DUP6 SSTORE PUSH2 0x25F JUMP JUMPDEST DUP3 DUP1 ADD PUSH1 0x1 ADD DUP6 SSTORE DUP3 ISZERO PUSH2 0x25F JUMPI SWAP2 DUP3 ADD JUMPDEST DUP3 DUP2 GT ISZERO PUSH2 0x25E JUMPI DUP3 CALLDATALOAD DUP3 SSTORE SWAP2 PUSH1 0x20 ADD SWAP2 SWAP1 PUSH1 0x1 ADD SWAP1 PUSH2 0x243 JUMP JUMPDEST JUMPDEST POP SWAP1 POP PUSH2 0x26C SWAP2 SWAP1 PUSH2 0x270 JUMP JUMPDEST POP SWAP1 JUMP JUMPDEST JUMPDEST DUP1 DUP3 GT ISZERO PUSH2 0x289 JUMPI PUSH1 0x0 DUP2 PUSH1 0x0 SWAP1 SSTORE POP PUSH1 0x1 ADD PUSH2 0x271 JUMP JUMPDEST POP SWAP1 JUMP JUMPDEST PUSH1 0x0 PUSH2 0x2A0 PUSH2 0x29B DUP5 PUSH2 0x626 JUMP JUMPDEST PUSH2 0x601 JUMP JUMPDEST SWAP1 POP DUP3 DUP2 MSTORE PUSH1 0x20 DUP2 ADD DUP5 DUP5 DUP5 ADD GT ISZERO PUSH2 0x2BC JUMPI PUSH2 0x2BB PUSH2 0x7D3 JUMP JUMPDEST JUMPDEST PUSH2 0x2C7 DUP5 DUP3 DUP6 PUSH2 0x6C1 JUMP JUMPDEST POP SWAP4 SWAP3 POP POP POP JUMP JUMPDEST PUSH1 0x0 DUP2 CALLDATALOAD SWAP1 POP PUSH2 0x2DE DUP2 PUSH2 0x7F3 JUMP JUMPDEST SWAP3 SWAP2 POP POP JUMP JUMPDEST PUSH1 0x0 DUP1 DUP4 PUSH1 0x1F DUP5 ADD SLT PUSH2 0x2FA JUMPI PUSH2 0x2F9 PUSH2 0x7C9 JUMP JUMPDEST JUMPDEST DUP3 CALLDATALOAD SWAP1 POP PUSH8 0xFFFFFFFFFFFFFFFF DUP2 GT ISZERO PUSH2 0x317 JUMPI PUSH2 0x316 PUSH2 0x7C4 JUMP JUMPDEST JUMPDEST PUSH1 0x20 DUP4 ADD SWAP2 POP DUP4 PUSH1 0x1 DUP3 MUL DUP4 ADD GT ISZERO PUSH2 0x333 JUMPI PUSH2 0x332 PUSH2 0x7CE JUMP JUMPDEST JUMPDEST SWAP3 POP SWAP3 SWAP1 POP JUMP JUMPDEST PUSH1 0x0 DUP3 PUSH1 0x1F DUP4 ADD SLT PUSH2 0x34F JUMPI PUSH2 0x34E PUSH2 0x7C9 JUMP JUMPDEST JUMPDEST DUP2 CALLDATALOAD PUSH2 0x35F DUP5 DUP3 PUSH1 0x20 DUP7 ADD PUSH2 0x28D JUMP JUMPDEST SWAP2 POP POP SWAP3 SWAP2 POP POP JUMP JUMPDEST PUSH1 0x0 PUSH1 0x20 DUP3 DUP5 SUB SLT ISZERO PUSH2 0x37E JUMPI PUSH2 0x37D PUSH2 0x7DD JUMP JUMPDEST JUMPDEST PUSH1 0x0 PUSH2 0x38C DUP5 DUP3 DUP6 ADD PUSH2 0x2CF JUMP JUMPDEST SWAP2 POP POP SWAP3 SWAP2 POP POP JUMP JUMPDEST PUSH1 0x0 DUP1 PUSH1 0x0 PUSH1 0x40 DUP5 DUP7 SUB SLT ISZERO PUSH2 0x3AE JUMPI PUSH2 0x3AD PUSH2 0x7DD JUMP JUMPDEST JUMPDEST PUSH1 0x0 PUSH2 0x3BC DUP7 DUP3 DUP8 ADD PUSH2 0x2CF JUMP JUMPDEST SWAP4 POP POP PUSH1 0x20 DUP5 ADD CALLDATALOAD PUSH8 0xFFFFFFFFFFFFFFFF DUP2 GT ISZERO PUSH2 0x3DD JUMPI PUSH2 0x3DC PUSH2 0x7D8 JUMP JUMPDEST JUMPDEST PUSH2 0x3E9 DUP7 DUP3 DUP8 ADD PUSH2 0x2E4 JUMP JUMPDEST SWAP3 POP SWAP3 POP POP SWAP3 POP SWAP3 POP SWAP3 JUMP JUMPDEST PUSH1 0x0 DUP1 PUSH1 0x0 DUP1 PUSH1 0x0 DUP1 PUSH1 0xA0 DUP8 DUP10 SUB SLT ISZERO PUSH2 0x412 JUMPI PUSH2 0x411 PUSH2 0x7DD JUMP JUMPDEST JUMPDEST PUSH1 0x0 DUP8 ADD CALLDATALOAD PUSH8 0xFFFFFFFFFFFFFFFF DUP2 GT ISZERO PUSH2 0x430 JUMPI PUSH2 0x42F PUSH2 0x7D8 JUMP JUMPDEST JUMPDEST PUSH2 0x43C DUP10 DUP3 DUP11 ADD PUSH2 0x33A JUMP JUMPDEST SWAP7 POP POP PUSH1 0x20 PUSH2 0x44D DUP10 DUP3 DUP11 ADD PUSH2 0x2CF JUMP JUMPDEST SWAP6 POP POP PUSH1 0x40 PUSH2 0x45E DUP10 DUP3 DUP11 ADD PUSH2 0x2CF JUMP JUMPDEST SWAP5 POP POP PUSH1 0x60 DUP8 ADD CALLDATALOAD PUSH8 0xFFFFFFFFFFFFFFFF DUP2 GT ISZERO PUSH2 0x47F JUMPI PUSH2 0x47E PUSH2 0x7D8 JUMP JUMPDEST JUMPDEST PUSH2 0x48B DUP10 DUP3 DUP11 ADD PUSH2 0x33A JUMP JUMPDEST SWAP4 POP POP PUSH1 0x80 DUP8 ADD CALLDATALOAD PUSH8 0xFFFFFFFFFFFFFFFF DUP2 GT ISZERO PUSH2 0x4AC JUMPI PUSH2 0x4AB PUSH2 0x7D8 JUMP JUMPDEST JUMPDEST PUSH2 0x4B8 DUP10 DUP3 DUP11 ADD PUSH2 0x2E4 JUMP JUMPDEST SWAP3 POP SWAP3 POP POP SWAP3 SWAP6 POP SWAP3 SWAP6 POP SWAP3 SWAP6 JUMP JUMPDEST PUSH2 0x4D0 DUP2 PUSH2 0x68F JUMP JUMPDEST DUP3 MSTORE POP POP JUMP JUMPDEST PUSH1 0x0 PUSH2 0x4E2 DUP4 DUP6 PUSH2 0x66D JUMP JUMPDEST SWAP4 POP PUSH2 0x4EF DUP4 DUP6 DUP5 PUSH2 0x6C1 JUMP JUMPDEST PUSH2 0x4F8 DUP4 PUSH2 0x7E2 JUMP JUMPDEST DUP5 ADD SWAP1 POP SWAP4 SWAP3 POP POP POP JUMP JUMPDEST PUSH1 0x0 PUSH2 0x50E DUP3 PUSH2 0x657 JUMP JUMPDEST PUSH2 0x518 DUP2 DUP6 PUSH2 0x66D JUMP JUMPDEST SWAP4 POP PUSH2 0x528 DUP2 DUP6 PUSH1 0x20 DUP7 ADD PUSH2 0x6D0 JUMP JUMPDEST PUSH2 0x531 DUP2 PUSH2 0x7E2 JUMP JUMPDEST DUP5 ADD SWAP2 POP POP SWAP3 SWAP2 POP POP JUMP JUMPDEST PUSH1 0x0 PUSH2 0x547 DUP3 PUSH2 0x662 JUMP JUMPDEST PUSH2 0x551 DUP2 DUP6 PUSH2 0x67E JUMP JUMPDEST SWAP4 POP PUSH2 0x561 DUP2 DUP6 PUSH1 0x20 DUP7 ADD PUSH2 0x6D0 JUMP JUMPDEST PUSH2 0x56A DUP2 PUSH2 0x7E2 JUMP JUMPDEST DUP5 ADD SWAP2 POP POP SWAP3 SWAP2 POP POP JUMP JUMPDEST PUSH1 0x0 PUSH1 0x20 DUP3 ADD SWAP1 POP DUP2 DUP2 SUB PUSH1 0x0 DUP4 ADD MSTORE PUSH2 0x58F DUP2 DUP5 PUSH2 0x503 JUMP JUMPDEST SWAP1 POP SWAP3 SWAP2 POP POP JUMP JUMPDEST PUSH1 0x0 PUSH1 0xA0 DUP3 ADD SWAP1 POP DUP2 DUP2 SUB PUSH1 0x0 DUP4 ADD MSTORE PUSH2 0x5B1 DUP2 DUP10 PUSH2 0x53C JUMP JUMPDEST SWAP1 POP PUSH2 0x5C0 PUSH1 0x20 DUP4 ADD DUP9 PUSH2 0x4C7 JUMP JUMPDEST PUSH2 0x5CD PUSH1 0x40 DUP4 ADD DUP8 PUSH2 0x4C7 JUMP JUMPDEST DUP2 DUP2 SUB PUSH1 0x60 DUP4 ADD MSTORE PUSH2 0x5DF DUP2 DUP7 PUSH2 0x53C JUMP JUMPDEST SWAP1 POP DUP2 DUP2 SUB PUSH1 0x80 DUP4 ADD MSTORE PUSH2 0x5F4 DUP2 DUP5 DUP7 PUSH2 0x4D6 JUMP JUMPDEST SWAP1 POP SWAP8 SWAP7 POP POP POP POP POP POP POP JUMP JUMPDEST PUSH1 0x0 PUSH2 0x60B PUSH2 0x61C JUMP JUMPDEST SWAP1 POP PUSH2 0x617 DUP3 DUP3 PUSH2 0x735 JUMP JUMPDEST SWAP2 SWAP1 POP JUMP JUMPDEST PUSH1 0x0 PUSH1 0x40 MLOAD SWAP1 POP SWAP1 JUMP JUMPDEST PUSH1 0x0 PUSH8 0xFFFFFFFFFFFFFFFF DUP3 GT ISZERO PUSH2 0x641 JUMPI PUSH2 0x640 PUSH2 0x795 JUMP JUMPDEST JUMPDEST PUSH2 0x64A DUP3 PUSH2 0x7E2 JUMP JUMPDEST SWAP1 POP PUSH1 0x20 DUP2 ADD SWAP1 POP SWAP2 SWAP1 POP JUMP JUMPDEST PUSH1 0x0 DUP2 MLOAD SWAP1 POP SWAP2 SWAP1 POP JUMP JUMPDEST PUSH1 0x0 DUP2 MLOAD SWAP1 POP SWAP2 SWAP1 POP JUMP JUMPDEST PUSH1 0x0 DUP3 DUP3 MSTORE PUSH1 0x20 DUP3 ADD SWAP1 POP SWAP3 SWAP2 POP POP JUMP JUMPDEST PUSH1 0x0 DUP3 DUP3 MSTORE PUSH1 0x20 DUP3 ADD SWAP1 POP SWAP3 SWAP2 POP POP JUMP JUMPDEST PUSH1 0x0 PUSH2 0x69A DUP3 PUSH2 0x6A1 JUMP JUMPDEST SWAP1 POP SWAP2 SWAP1 POP JUMP JUMPDEST PUSH1 0x0 PUSH20 0xFFFFFFFFFFFFFFFFFFFFFFFFFFFFFFFFFFFFFFFF DUP3 AND SWAP1 POP SWAP2 SWAP1 POP JUMP JUMPDEST DUP3 DUP2 DUP4 CALLDATACOPY PUSH1 0x0 DUP4 DUP4 ADD MSTORE POP POP POP JUMP JUMPDEST PUSH1 0x0 JUMPDEST DUP4 DUP2 LT ISZERO PUSH2 0x6EE JUMPI DUP1 DUP3 ADD MLOAD DUP2 DUP5 ADD MSTORE PUSH1 0x20 DUP2 ADD SWAP1 POP PUSH2 0x6D3 JUMP JUMPDEST DUP4 DUP2 GT ISZERO PUSH2 0x6FD JUMPI PUSH1 0x0 DUP5 DUP5 ADD MSTORE JUMPDEST POP POP POP POP JUMP JUMPDEST PUSH1 0x0 PUSH1 0x2 DUP3 DIV SWAP1 POP PUSH1 0x1 DUP3 AND DUP1 PUSH2 0x71B JUMPI PUSH1 0x7F DUP3 AND SWAP2 POP JUMPDEST PUSH1 0x20 DUP3 LT DUP2 EQ ISZERO PUSH2 0x72F JUMPI PUSH2 0x72E PUSH2 0x766 JUMP JUMPDEST JUMPDEST POP SWAP2 SWAP1 POP JUMP JUMPDEST PUSH2 0x73E DUP3 PUSH2 0x7E2 JUMP JUMPDEST DUP2 ADD DUP2 DUP2 LT PUSH8 0xFFFFFFFFFFFFFFFF DUP3 GT OR ISZERO PUSH2 0x75D JUMPI PUSH2 0x75C PUSH2 0x795 JUMP JUMPDEST JUMPDEST DUP1 PUSH1 0x40 MSTORE POP POP POP JUMP JUMPDEST PUSH32 0x4E487B7100000000000000000000000000000000000000000000000000000000 PUSH1 0x0 MSTORE PUSH1 0x22 PUSH1 0x4 MSTORE PUSH1 0x24 PUSH1 0x0 REVERT JUMPDEST PUSH32 0x4E487B7100000000000000000000000000000000000000000000000000000000 PUSH1 0x0 MSTORE PUSH1 0x41 PUSH1 0x4 MSTORE PUSH1 0x24 PUSH1 0x0 REVERT JUMPDEST PUSH1 0x0 DUP1 REVERT JUMPDEST PUSH1 0x0 DUP1 REVERT JUMPDEST PUSH1 0x0 DUP1 REVERT JUMPDEST PUSH1 0x0 DUP1 REVERT JUMPDEST PUSH1 0x0 DUP1 REVERT JUMPDEST PUSH1 0x0 DUP1 REVERT JUMPDEST PUSH1 0x0 PUSH1 0x1F NOT PUSH1 0x1F DUP4 ADD AND SWAP1 POP SWAP2 SWAP1 POP JUMP JUMPDEST PUSH2 0x7FC DUP2 PUSH2 0x68F JUMP JUMPDEST DUP2 EQ PUSH2 0x807 JUMPI PUSH1 0x0 DUP1 REVERT JUMPDEST POP JUMP INVALID LOG2 PUSH5 0x6970667358 0x22 SLT KECCAK256 PC 0xD1 0xD3 0x1E PUSH27 0xFA44B005B9FD4155AED879EC027D7889F75FA0492BC61E01F563EF PUSH5 0x736F6C6343 STOP ADDMOD SMOD STOP CALLER "
				},
				"gasEstimates": {
					"creation": {
						"codeDepositCost": "422400",
						"executionCost": "455",
						"totalCost": "422855"
					},
					"external": {
						"abiStorage(address)": "infinite",
						"emitEvent(string,address,address,string,bytes)": "infinite",
						"storeAbi(address,bytes)": "infinite"
					}
				},
				"methodIdentifiers": {
					"abiStorage(address)": "634aa983",
					"emitEvent(string,address,address,string,bytes)": "a78d2ba3",
					"storeAbi(address,bytes)": "45b0e8a8"
				}
			},
			"storageLayout": {
				"storage": [
					{
						"astId": 5,
						"contract": "facets/CredentialEventFacet.sol:CredentialEventFacet",
						"label": "abiStorage",
						"offset": 0,
						"slot": "0",
						"type": "t_mapping(t_address,t_bytes_storage)"
					}
				],
				"types": {
					"t_address": {
						"encoding": "inplace",
						"label": "address",
						"numberOfBytes": "20"
					},
					"t_bytes_storage": {
						"encoding": "bytes",
						"label": "bytes",
						"numberOfBytes": "32"
					},
					"t_mapping(t_address,t_bytes_storage)": {
						"encoding": "mapping",
						"key": "t_address",
						"label": "mapping(address => bytes)",
						"numberOfBytes": "32",
						"value": "t_bytes_storage"
					}
				}
			},
			"userdoc": {
				"kind": "user",
				"methods": {},
				"version": 1
			}
		}
	}
}