{
	"facets/CommunicationFacet.sol": {
		"CommunicationFacet": {
			"abi": [
				{
					"inputs": [
						{
							"internalType": "contract CredentialEventFacet",
							"name": "_credentialOracle",
							"type": "address"
						}
					],
					"stateMutability": "nonpayable",
					"type": "constructor"
				},
				{
					"anonymous": false,
					"inputs": [
						{
							"indexed": true,
							"internalType": "address",
							"name": "previousOwner",
							"type": "address"
						},
						{
							"indexed": true,
							"internalType": "address",
							"name": "newOwner",
							"type": "address"
						}
					],
					"name": "OwnershipTransferred",
					"type": "event"
				},
				{
					"inputs": [],
					"name": "CREDENTIAL_EVENT",
					"outputs": [
						{
							"internalType": "contract CredentialEventFacet",
							"name": "",
							"type": "address"
						}
					],
					"stateMutability": "view",
					"type": "function"
				},
				{
					"inputs": [],
					"name": "owner",
					"outputs": [
						{
							"internalType": "address",
							"name": "",
							"type": "address"
						}
					],
					"stateMutability": "view",
					"type": "function"
				},
				{
					"inputs": [
						{
							"internalType": "string",
							"name": "someParam",
							"type": "string"
						},
						{
							"internalType": "string",
							"name": "_listId",
							"type": "string"
						}
					],
					"name": "postVibe",
					"outputs": [],
					"stateMutability": "nonpayable",
					"type": "function"
				},
				{
					"inputs": [
						{
							"internalType": "string",
							"name": "someParam",
							"type": "string"
						},
						{
							"internalType": "bytes[]",
							"name": "proof",
							"type": "bytes[]"
						}
					],
					"name": "postVibe_authorised",
					"outputs": [],
					"stateMutability": "nonpayable",
					"type": "function"
				},
				{
					"inputs": [
						{
							"internalType": "string",
							"name": "someParam",
							"type": "string"
						}
					],
					"name": "postVibe_unauthorised",
					"outputs": [],
					"stateMutability": "nonpayable",
					"type": "function"
				},
				{
					"inputs": [],
					"name": "renounceOwnership",
					"outputs": [],
					"stateMutability": "nonpayable",
					"type": "function"
				},
				{
					"inputs": [
						{
							"internalType": "address",
							"name": "newOwner",
							"type": "address"
						}
					],
					"name": "transferOwnership",
					"outputs": [],
					"stateMutability": "nonpayable",
					"type": "function"
				}
			],
			"devdoc": {
				"kind": "dev",
				"methods": {
					"owner()": {
						"details": "Returns the address of the current owner."
					},
					"renounceOwnership()": {
						"details": "Leaves the contract without owner. It will not be possible to call `onlyOwner` functions anymore. Can only be called by the current owner. NOTE: Renouncing ownership will leave the contract without an owner, thereby removing any functionality that is only available to the owner."
					},
					"transferOwnership(address)": {
						"details": "Transfers ownership of the contract to a new account (`newOwner`). Can only be called by the current owner."
					}
				},
				"version": 1
			},
			"evm": {
				"assembly": "    /* \"facets/CommunicationFacet.sol\":141:757  contract CommunicationFacet is Ownable, GateableFacet {... */\n  mstore(0x40, 0x80)\n    /* \"facets/CommunicationFacet.sol\":197:285  constructor(CredentialEventFacet _credentialOracle) GateableFacet(_credentialOracle) {... */\n  callvalue\n  dup1\n  iszero\n  tag_1\n  jumpi\n  0x00\n  dup1\n  revert\ntag_1:\n  pop\n  mload(0x40)\n  sub(codesize, bytecodeSize)\n  dup1\n  bytecodeSize\n  dup4\n  codecopy\n  dup2\n  dup2\n  add\n  0x40\n  mstore\n  dup2\n  add\n  swap1\n  tag_2\n  swap2\n  swap1\n  tag_3\n  jump\t// in\ntag_2:\n    /* \"facets/CommunicationFacet.sol\":263:280  _credentialOracle */\n  dup1\n    /* \"@openzeppelin/contracts/access/Ownable.sol\":921:953  _transferOwnership(_msgSender()) */\n  tag_8\n    /* \"@openzeppelin/contracts/access/Ownable.sol\":940:952  _msgSender() */\n  tag_9\n    /* \"@openzeppelin/contracts/access/Ownable.sol\":940:950  _msgSender */\n  shl(0x20, tag_10)\n    /* \"@openzeppelin/contracts/access/Ownable.sol\":940:952  _msgSender() */\n  0x20\n  shr\n  jump\t// in\ntag_9:\n    /* \"@openzeppelin/contracts/access/Ownable.sol\":921:939  _transferOwnership */\n  shl(0x20, tag_11)\n    /* \"@openzeppelin/contracts/access/Ownable.sol\":921:953  _transferOwnership(_msgSender()) */\n  0x20\n  shr\n  jump\t// in\ntag_8:\n    /* \"facets/GateableFacet.sol\":919:936  _credentialOracle */\n  dup1\n    /* \"facets/GateableFacet.sol\":891:908  CREDENTIAL_ORACLE */\n  0x01\n  0x00\n    /* \"facets/GateableFacet.sol\":891:937  CREDENTIAL_ORACLE = address(_credentialOracle) */\n  0x0100\n  exp\n  dup2\n  sload\n  dup2\n  0xffffffffffffffffffffffffffffffffffffffff\n  mul\n  not\n  and\n  swap1\n  dup4\n  0xffffffffffffffffffffffffffffffffffffffff\n  and\n  mul\n  or\n  swap1\n  sstore\n  pop\n    /* \"facets/GateableFacet.sol\":962:979  _credentialOracle */\n  dup1\n    /* \"facets/GateableFacet.sol\":943:959  CREDENTIAL_EVENT */\n  0x02\n  0x00\n    /* \"facets/GateableFacet.sol\":943:979  CREDENTIAL_EVENT = _credentialOracle */\n  0x0100\n  exp\n  dup2\n  sload\n  dup2\n  0xffffffffffffffffffffffffffffffffffffffff\n  mul\n  not\n  and\n  swap1\n  dup4\n  0xffffffffffffffffffffffffffffffffffffffff\n  and\n  mul\n  or\n  swap1\n  sstore\n  pop\n    /* \"facets/GateableFacet.sol\":833:982  constructor(CredentialEventFacet _credentialOracle) {... */\n  pop\n    /* \"facets/CommunicationFacet.sol\":197:285  constructor(CredentialEventFacet _credentialOracle) GateableFacet(_credentialOracle) {... */\n  pop\n    /* \"facets/CommunicationFacet.sol\":141:757  contract CommunicationFacet is Ownable, GateableFacet {... */\n  jump(tag_14)\n    /* \"@openzeppelin/contracts/utils/Context.sol\":640:736  function _msgSender() internal view virtual returns (address) {... */\ntag_10:\n    /* \"@openzeppelin/contracts/utils/Context.sol\":693:700  address */\n  0x00\n    /* \"@openzeppelin/contracts/utils/Context.sol\":719:729  msg.sender */\n  caller\n    /* \"@openzeppelin/contracts/utils/Context.sol\":712:729  return msg.sender */\n  swap1\n  pop\n    /* \"@openzeppelin/contracts/utils/Context.sol\":640:736  function _msgSender() internal view virtual returns (address) {... */\n  swap1\n  jump\t// out\n    /* \"@openzeppelin/contracts/access/Ownable.sol\":2270:2457  function _transferOwnership(address newOwner) internal virtual {... */\ntag_11:\n    /* \"@openzeppelin/contracts/access/Ownable.sol\":2343:2359  address oldOwner */\n  0x00\n    /* \"@openzeppelin/contracts/access/Ownable.sol\":2362:2368  _owner */\n  dup1\n  0x00\n  swap1\n  sload\n  swap1\n  0x0100\n  exp\n  swap1\n  div\n  0xffffffffffffffffffffffffffffffffffffffff\n  and\n    /* \"@openzeppelin/contracts/access/Ownable.sol\":2343:2368  address oldOwner = _owner */\n  swap1\n  pop\n    /* \"@openzeppelin/contracts/access/Ownable.sol\":2387:2395  newOwner */\n  dup2\n    /* \"@openzeppelin/contracts/access/Ownable.sol\":2378:2384  _owner */\n  0x00\n  dup1\n    /* \"@openzeppelin/contracts/access/Ownable.sol\":2378:2395  _owner = newOwner */\n  0x0100\n  exp\n  dup2\n  sload\n  dup2\n  0xffffffffffffffffffffffffffffffffffffffff\n  mul\n  not\n  and\n  swap1\n  dup4\n  0xffffffffffffffffffffffffffffffffffffffff\n  and\n  mul\n  or\n  swap1\n  sstore\n  pop\n    /* \"@openzeppelin/contracts/access/Ownable.sol\":2441:2449  newOwner */\n  dup2\n    /* \"@openzeppelin/contracts/access/Ownable.sol\":2410:2450  OwnershipTransferred(oldOwner, newOwner) */\n  0xffffffffffffffffffffffffffffffffffffffff\n  and\n    /* \"@openzeppelin/contracts/access/Ownable.sol\":2431:2439  oldOwner */\n  dup2\n    /* \"@openzeppelin/contracts/access/Ownable.sol\":2410:2450  OwnershipTransferred(oldOwner, newOwner) */\n  0xffffffffffffffffffffffffffffffffffffffff\n  and\n  0x8be0079c531659141344cd1fd0a4f28419497f9722a3daafe3b4186f6b6457e0\n  mload(0x40)\n  mload(0x40)\n  dup1\n  swap2\n  sub\n  swap1\n  log3\n    /* \"@openzeppelin/contracts/access/Ownable.sol\":2333:2457  {... */\n  pop\n    /* \"@openzeppelin/contracts/access/Ownable.sol\":2270:2457  function _transferOwnership(address newOwner) internal virtual {... */\n  pop\n  jump\t// out\n    /* \"#utility.yul\":7:206   */\ntag_18:\n    /* \"#utility.yul\":92:97   */\n  0x00\n    /* \"#utility.yul\":123:129   */\n  dup2\n    /* \"#utility.yul\":117:130   */\n  mload\n    /* \"#utility.yul\":108:130   */\n  swap1\n  pop\n    /* \"#utility.yul\":139:200   */\n  tag_20\n    /* \"#utility.yul\":194:199   */\n  dup2\n    /* \"#utility.yul\":139:200   */\n  tag_21\n  jump\t// in\ntag_20:\n    /* \"#utility.yul\":7:206   */\n  swap3\n  swap2\n  pop\n  pop\n  jump\t// out\n    /* \"#utility.yul\":212:619   */\ntag_3:\n    /* \"#utility.yul\":310:316   */\n  0x00\n    /* \"#utility.yul\":359:361   */\n  0x20\n    /* \"#utility.yul\":347:356   */\n  dup3\n    /* \"#utility.yul\":338:345   */\n  dup5\n    /* \"#utility.yul\":334:357   */\n  sub\n    /* \"#utility.yul\":330:362   */\n  slt\n    /* \"#utility.yul\":327:446   */\n  iszero\n  tag_23\n  jumpi\n    /* \"#utility.yul\":365:444   */\n  tag_24\n  tag_25\n  jump\t// in\ntag_24:\n    /* \"#utility.yul\":327:446   */\ntag_23:\n    /* \"#utility.yul\":485:486   */\n  0x00\n    /* \"#utility.yul\":510:602   */\n  tag_26\n    /* \"#utility.yul\":594:601   */\n  dup5\n    /* \"#utility.yul\":585:591   */\n  dup3\n    /* \"#utility.yul\":574:583   */\n  dup6\n    /* \"#utility.yul\":570:592   */\n  add\n    /* \"#utility.yul\":510:602   */\n  tag_18\n  jump\t// in\ntag_26:\n    /* \"#utility.yul\":500:602   */\n  swap2\n  pop\n    /* \"#utility.yul\":456:612   */\n  pop\n    /* \"#utility.yul\":212:619   */\n  swap3\n  swap2\n  pop\n  pop\n  jump\t// out\n    /* \"#utility.yul\":706:802   */\ntag_29:\n    /* \"#utility.yul\":743:750   */\n  0x00\n    /* \"#utility.yul\":772:796   */\n  tag_31\n    /* \"#utility.yul\":790:795   */\n  dup3\n    /* \"#utility.yul\":772:796   */\n  tag_32\n  jump\t// in\ntag_31:\n    /* \"#utility.yul\":761:796   */\n  swap1\n  pop\n    /* \"#utility.yul\":706:802   */\n  swap2\n  swap1\n  pop\n  jump\t// out\n    /* \"#utility.yul\":808:932   */\ntag_33:\n    /* \"#utility.yul\":873:880   */\n  0x00\n    /* \"#utility.yul\":902:926   */\n  tag_35\n    /* \"#utility.yul\":920:925   */\n  dup3\n    /* \"#utility.yul\":902:926   */\n  tag_29\n  jump\t// in\ntag_35:\n    /* \"#utility.yul\":891:926   */\n  swap1\n  pop\n    /* \"#utility.yul\":808:932   */\n  swap2\n  swap1\n  pop\n  jump\t// out\n    /* \"#utility.yul\":938:1064   */\ntag_32:\n    /* \"#utility.yul\":975:982   */\n  0x00\n    /* \"#utility.yul\":1015:1057   */\n  0xffffffffffffffffffffffffffffffffffffffff\n    /* \"#utility.yul\":1008:1013   */\n  dup3\n    /* \"#utility.yul\":1004:1058   */\n  and\n    /* \"#utility.yul\":993:1058   */\n  swap1\n  pop\n    /* \"#utility.yul\":938:1064   */\n  swap2\n  swap1\n  pop\n  jump\t// out\n    /* \"#utility.yul\":1193:1310   */\ntag_25:\n    /* \"#utility.yul\":1302:1303   */\n  0x00\n    /* \"#utility.yul\":1299:1300   */\n  dup1\n    /* \"#utility.yul\":1292:1304   */\n  revert\n    /* \"#utility.yul\":1316:1494   */\ntag_21:\n    /* \"#utility.yul\":1417:1469   */\n  tag_41\n    /* \"#utility.yul\":1463:1468   */\n  dup2\n    /* \"#utility.yul\":1417:1469   */\n  tag_33\n  jump\t// in\ntag_41:\n    /* \"#utility.yul\":1410:1415   */\n  dup2\n    /* \"#utility.yul\":1407:1470   */\n  eq\n    /* \"#utility.yul\":1397:1488   */\n  tag_42\n  jumpi\n    /* \"#utility.yul\":1484:1485   */\n  0x00\n    /* \"#utility.yul\":1481:1482   */\n  dup1\n    /* \"#utility.yul\":1474:1486   */\n  revert\n    /* \"#utility.yul\":1397:1488   */\ntag_42:\n    /* \"#utility.yul\":1316:1494   */\n  pop\n  jump\t// out\n    /* \"facets/CommunicationFacet.sol\":141:757  contract CommunicationFacet is Ownable, GateableFacet {... */\ntag_14:\n  dataSize(sub_0)\n  dup1\n  dataOffset(sub_0)\n  0x00\n  codecopy\n  0x00\n  return\nstop\n\nsub_0: assembly {\n        /* \"facets/CommunicationFacet.sol\":141:757  contract CommunicationFacet is Ownable, GateableFacet {... */\n      mstore(0x40, 0x80)\n      callvalue\n      dup1\n      iszero\n      tag_1\n      jumpi\n      0x00\n      dup1\n      revert\n    tag_1:\n      pop\n      jumpi(tag_2, lt(calldatasize, 0x04))\n      shr(0xe0, calldataload(0x00))\n      dup1\n      0x8da5cb5b\n      gt\n      tag_10\n      jumpi\n      dup1\n      0x8da5cb5b\n      eq\n      tag_6\n      jumpi\n      dup1\n      0xbe58afb0\n      eq\n      tag_7\n      jumpi\n      dup1\n      0xdce8a955\n      eq\n      tag_8\n      jumpi\n      dup1\n      0xf2fde38b\n      eq\n      tag_9\n      jumpi\n      jump(tag_2)\n    tag_10:\n      dup1\n      0x436e99f3\n      eq\n      tag_3\n      jumpi\n      dup1\n      0x5f7690b3\n      eq\n      tag_4\n      jumpi\n      dup1\n      0x715018a6\n      eq\n      tag_5\n      jumpi\n    tag_2:\n      0x00\n      dup1\n      revert\n        /* \"facets/CommunicationFacet.sol\":637:754  function postVibe_unauthorised(string memory someParam) credentialCallback external {... */\n    tag_3:\n      tag_11\n      0x04\n      dup1\n      calldatasize\n      sub\n      dup2\n      add\n      swap1\n      tag_12\n      swap2\n      swap1\n      tag_13\n      jump\t// in\n    tag_12:\n      tag_14\n      jump\t// in\n    tag_11:\n      stop\n        /* \"facets/GateableFacet.sol\":165:209  CredentialEventFacet public CREDENTIAL_EVENT */\n    tag_4:\n      tag_15\n      tag_16\n      jump\t// in\n    tag_15:\n      mload(0x40)\n      tag_17\n      swap2\n      swap1\n      tag_18\n      jump\t// in\n    tag_17:\n      mload(0x40)\n      dup1\n      swap2\n      sub\n      swap1\n      return\n        /* \"@openzeppelin/contracts/access/Ownable.sol\":1668:1769  function renounceOwnership() public virtual onlyOwner {... */\n    tag_5:\n      tag_19\n      tag_20\n      jump\t// in\n    tag_19:\n      stop\n        /* \"@openzeppelin/contracts/access/Ownable.sol\":1036:1121  function owner() public view virtual returns (address) {... */\n    tag_6:\n      tag_21\n      tag_22\n      jump\t// in\n    tag_21:\n      mload(0x40)\n      tag_23\n      swap2\n      swap1\n      tag_24\n      jump\t// in\n    tag_23:\n      mload(0x40)\n      dup1\n      swap2\n      sub\n      swap1\n      return\n        /* \"facets/CommunicationFacet.sol\":370:499  function postVibe(string memory someParam, string memory _listId) has_credential(_listId, address(this), 'postVibe') external {... */\n    tag_7:\n      tag_25\n      0x04\n      dup1\n      calldatasize\n      sub\n      dup2\n      add\n      swap1\n      tag_26\n      swap2\n      swap1\n      tag_27\n      jump\t// in\n    tag_26:\n      tag_28\n      jump\t// in\n    tag_25:\n      stop\n        /* \"facets/CommunicationFacet.sol\":501:635  function postVibe_authorised(string memory someParam, bytes[] memory proof) credentialCallback external {... */\n    tag_8:\n      tag_29\n      0x04\n      dup1\n      calldatasize\n      sub\n      dup2\n      add\n      swap1\n      tag_30\n      swap2\n      swap1\n      tag_31\n      jump\t// in\n    tag_30:\n      tag_32\n      jump\t// in\n    tag_29:\n      stop\n        /* \"@openzeppelin/contracts/access/Ownable.sol\":1918:2116  function transferOwnership(address newOwner) public virtual onlyOwner {... */\n    tag_9:\n      tag_33\n      0x04\n      dup1\n      calldatasize\n      sub\n      dup2\n      add\n      swap1\n      tag_34\n      swap2\n      swap1\n      tag_35\n      jump\t// in\n    tag_34:\n      tag_36\n      jump\t// in\n    tag_33:\n      stop\n        /* \"facets/CommunicationFacet.sol\":637:754  function postVibe_unauthorised(string memory someParam) credentialCallback external {... */\n    tag_14:\n        /* \"facets/GateableFacet.sol\":742:759  CREDENTIAL_ORACLE */\n      0x01\n      0x00\n      swap1\n      sload\n      swap1\n      0x0100\n      exp\n      swap1\n      div\n      0xffffffffffffffffffffffffffffffffffffffff\n      and\n        /* \"facets/GateableFacet.sol\":728:759  msg.sender == CREDENTIAL_ORACLE */\n      0xffffffffffffffffffffffffffffffffffffffff\n      and\n        /* \"facets/GateableFacet.sol\":728:738  msg.sender */\n      caller\n        /* \"facets/GateableFacet.sol\":728:759  msg.sender == CREDENTIAL_ORACLE */\n      0xffffffffffffffffffffffffffffffffffffffff\n      and\n      eq\n        /* \"facets/GateableFacet.sol\":720:823  require(msg.sender == CREDENTIAL_ORACLE, \"Credential CallBack: Only the oracle can call this function\") */\n      tag_38\n      jumpi\n      mload(0x40)\n      0x08c379a000000000000000000000000000000000000000000000000000000000\n      dup2\n      mstore\n      0x04\n      add\n      tag_39\n      swap1\n      tag_40\n      jump\t// in\n    tag_39:\n      mload(0x40)\n      dup1\n      swap2\n      sub\n      swap1\n      revert\n    tag_38:\n        /* \"facets/CommunicationFacet.sol\":637:754  function postVibe_unauthorised(string memory someParam) credentialCallback external {... */\n      pop\n      jump\t// out\n        /* \"facets/GateableFacet.sol\":165:209  CredentialEventFacet public CREDENTIAL_EVENT */\n    tag_16:\n      0x02\n      0x00\n      swap1\n      sload\n      swap1\n      0x0100\n      exp\n      swap1\n      div\n      0xffffffffffffffffffffffffffffffffffffffff\n      and\n      dup2\n      jump\t// out\n        /* \"@openzeppelin/contracts/access/Ownable.sol\":1668:1769  function renounceOwnership() public virtual onlyOwner {... */\n    tag_20:\n        /* \"@openzeppelin/contracts/access/Ownable.sol\":1259:1271  _msgSender() */\n      tag_43\n        /* \"@openzeppelin/contracts/access/Ownable.sol\":1259:1269  _msgSender */\n      tag_44\n        /* \"@openzeppelin/contracts/access/Ownable.sol\":1259:1271  _msgSender() */\n      jump\t// in\n    tag_43:\n        /* \"@openzeppelin/contracts/access/Ownable.sol\":1248:1271  owner() == _msgSender() */\n      0xffffffffffffffffffffffffffffffffffffffff\n      and\n        /* \"@openzeppelin/contracts/access/Ownable.sol\":1248:1255  owner() */\n      tag_45\n        /* \"@openzeppelin/contracts/access/Ownable.sol\":1248:1253  owner */\n      tag_22\n        /* \"@openzeppelin/contracts/access/Ownable.sol\":1248:1255  owner() */\n      jump\t// in\n    tag_45:\n        /* \"@openzeppelin/contracts/access/Ownable.sol\":1248:1271  owner() == _msgSender() */\n      0xffffffffffffffffffffffffffffffffffffffff\n      and\n      eq\n        /* \"@openzeppelin/contracts/access/Ownable.sol\":1240:1308  require(owner() == _msgSender(), \"Ownable: caller is not the owner\") */\n      tag_46\n      jumpi\n      mload(0x40)\n      0x08c379a000000000000000000000000000000000000000000000000000000000\n      dup2\n      mstore\n      0x04\n      add\n      tag_47\n      swap1\n      tag_48\n      jump\t// in\n    tag_47:\n      mload(0x40)\n      dup1\n      swap2\n      sub\n      swap1\n      revert\n    tag_46:\n        /* \"@openzeppelin/contracts/access/Ownable.sol\":1732:1762  _transferOwnership(address(0)) */\n      tag_50\n        /* \"@openzeppelin/contracts/access/Ownable.sol\":1759:1760  0 */\n      0x00\n        /* \"@openzeppelin/contracts/access/Ownable.sol\":1732:1750  _transferOwnership */\n      tag_51\n        /* \"@openzeppelin/contracts/access/Ownable.sol\":1732:1762  _transferOwnership(address(0)) */\n      jump\t// in\n    tag_50:\n        /* \"@openzeppelin/contracts/access/Ownable.sol\":1668:1769  function renounceOwnership() public virtual onlyOwner {... */\n      jump\t// out\n        /* \"@openzeppelin/contracts/access/Ownable.sol\":1036:1121  function owner() public view virtual returns (address) {... */\n    tag_22:\n        /* \"@openzeppelin/contracts/access/Ownable.sol\":1082:1089  address */\n      0x00\n        /* \"@openzeppelin/contracts/access/Ownable.sol\":1108:1114  _owner */\n      dup1\n      0x00\n      swap1\n      sload\n      swap1\n      0x0100\n      exp\n      swap1\n      div\n      0xffffffffffffffffffffffffffffffffffffffff\n      and\n        /* \"@openzeppelin/contracts/access/Ownable.sol\":1101:1114  return _owner */\n      swap1\n      pop\n        /* \"@openzeppelin/contracts/access/Ownable.sol\":1036:1121  function owner() public view virtual returns (address) {... */\n      swap1\n      jump\t// out\n        /* \"facets/CommunicationFacet.sol\":370:499  function postVibe(string memory someParam, string memory _listId) has_credential(_listId, address(this), 'postVibe') external {... */\n    tag_28:\n        /* \"facets/CommunicationFacet.sol\":451:458  _listId */\n      dup1\n        /* \"facets/CommunicationFacet.sol\":468:472  this */\n      address\n        /* \"facets/GateableFacet.sol\":328:521  modifier has_credential(string memory _list_id, address _contractAddr, string memory _funcName) {... */\n      mload(0x40)\n      dup1\n      0x40\n      add\n      0x40\n      mstore\n      dup1\n      0x08\n      dup2\n      mstore\n      0x20\n      add\n      0x706f737456696265000000000000000000000000000000000000000000000000\n      dup2\n      mstore\n      pop\n        /* \"facets/GateableFacet.sol\":427:443  CREDENTIAL_EVENT */\n      0x02\n      0x00\n      swap1\n      sload\n      swap1\n      0x0100\n      exp\n      swap1\n      div\n      0xffffffffffffffffffffffffffffffffffffffff\n      and\n        /* \"facets/GateableFacet.sol\":427:453  CREDENTIAL_EVENT.emitEvent */\n      0xffffffffffffffffffffffffffffffffffffffff\n      and\n      0xa78d2ba3\n        /* \"facets/GateableFacet.sol\":454:462  _list_id */\n      dup5\n        /* \"facets/GateableFacet.sol\":464:474  msg.sender */\n      caller\n        /* \"facets/GateableFacet.sol\":476:489  _contractAddr */\n      dup6\n        /* \"facets/GateableFacet.sol\":491:500  _funcName */\n      dup6\n        /* \"facets/GateableFacet.sol\":502:510  msg.data */\n      0x00\n      calldatasize\n        /* \"facets/GateableFacet.sol\":427:511  CREDENTIAL_EVENT.emitEvent(_list_id, msg.sender, _contractAddr, _funcName, msg.data) */\n      mload(0x40)\n      dup8\n      0xffffffff\n      and\n      0xe0\n      shl\n      dup2\n      mstore\n      0x04\n      add\n      tag_54\n      swap7\n      swap6\n      swap5\n      swap4\n      swap3\n      swap2\n      swap1\n      tag_55\n      jump\t// in\n    tag_54:\n      0x00\n      mload(0x40)\n      dup1\n      dup4\n      sub\n      dup2\n      0x00\n      dup8\n      dup1\n      extcodesize\n      iszero\n      dup1\n      iszero\n      tag_56\n      jumpi\n      0x00\n      dup1\n      revert\n    tag_56:\n      pop\n      gas\n      call\n      iszero\n      dup1\n      iszero\n      tag_58\n      jumpi\n      returndatasize\n      0x00\n      dup1\n      returndatacopy\n      revert(0x00, returndatasize)\n    tag_58:\n      pop\n      pop\n      pop\n      pop\n        /* \"facets/CommunicationFacet.sol\":370:499  function postVibe(string memory someParam, string memory _listId) has_credential(_listId, address(this), 'postVibe') external {... */\n      pop\n      pop\n      pop\n      pop\n      pop\n      jump\t// out\n        /* \"facets/CommunicationFacet.sol\":501:635  function postVibe_authorised(string memory someParam, bytes[] memory proof) credentialCallback external {... */\n    tag_32:\n        /* \"facets/GateableFacet.sol\":742:759  CREDENTIAL_ORACLE */\n      0x01\n      0x00\n      swap1\n      sload\n      swap1\n      0x0100\n      exp\n      swap1\n      div\n      0xffffffffffffffffffffffffffffffffffffffff\n      and\n        /* \"facets/GateableFacet.sol\":728:759  msg.sender == CREDENTIAL_ORACLE */\n      0xffffffffffffffffffffffffffffffffffffffff\n      and\n        /* \"facets/GateableFacet.sol\":728:738  msg.sender */\n      caller\n        /* \"facets/GateableFacet.sol\":728:759  msg.sender == CREDENTIAL_ORACLE */\n      0xffffffffffffffffffffffffffffffffffffffff\n      and\n      eq\n        /* \"facets/GateableFacet.sol\":720:823  require(msg.sender == CREDENTIAL_ORACLE, \"Credential CallBack: Only the oracle can call this function\") */\n      tag_61\n      jumpi\n      mload(0x40)\n      0x08c379a000000000000000000000000000000000000000000000000000000000\n      dup2\n      mstore\n      0x04\n      add\n      tag_62\n      swap1\n      tag_40\n      jump\t// in\n    tag_62:\n      mload(0x40)\n      dup1\n      swap2\n      sub\n      swap1\n      revert\n    tag_61:\n        /* \"facets/CommunicationFacet.sol\":501:635  function postVibe_authorised(string memory someParam, bytes[] memory proof) credentialCallback external {... */\n      pop\n      pop\n      jump\t// out\n        /* \"@openzeppelin/contracts/access/Ownable.sol\":1918:2116  function transferOwnership(address newOwner) public virtual onlyOwner {... */\n    tag_36:\n        /* \"@openzeppelin/contracts/access/Ownable.sol\":1259:1271  _msgSender() */\n      tag_65\n        /* \"@openzeppelin/contracts/access/Ownable.sol\":1259:1269  _msgSender */\n      tag_44\n        /* \"@openzeppelin/contracts/access/Ownable.sol\":1259:1271  _msgSender() */\n      jump\t// in\n    tag_65:\n        /* \"@openzeppelin/contracts/access/Ownable.sol\":1248:1271  owner() == _msgSender() */\n      0xffffffffffffffffffffffffffffffffffffffff\n      and\n        /* \"@openzeppelin/contracts/access/Ownable.sol\":1248:1255  owner() */\n      tag_66\n        /* \"@openzeppelin/contracts/access/Ownable.sol\":1248:1253  owner */\n      tag_22\n        /* \"@openzeppelin/contracts/access/Ownable.sol\":1248:1255  owner() */\n      jump\t// in\n    tag_66:\n        /* \"@openzeppelin/contracts/access/Ownable.sol\":1248:1271  owner() == _msgSender() */\n      0xffffffffffffffffffffffffffffffffffffffff\n      and\n      eq\n        /* \"@openzeppelin/contracts/access/Ownable.sol\":1240:1308  require(owner() == _msgSender(), \"Ownable: caller is not the owner\") */\n      tag_67\n      jumpi\n      mload(0x40)\n      0x08c379a000000000000000000000000000000000000000000000000000000000\n      dup2\n      mstore\n      0x04\n      add\n      tag_68\n      swap1\n      tag_48\n      jump\t// in\n    tag_68:\n      mload(0x40)\n      dup1\n      swap2\n      sub\n      swap1\n      revert\n    tag_67:\n        /* \"@openzeppelin/contracts/access/Ownable.sol\":2026:2027  0 */\n      0x00\n        /* \"@openzeppelin/contracts/access/Ownable.sol\":2006:2028  newOwner != address(0) */\n      0xffffffffffffffffffffffffffffffffffffffff\n      and\n        /* \"@openzeppelin/contracts/access/Ownable.sol\":2006:2014  newOwner */\n      dup2\n        /* \"@openzeppelin/contracts/access/Ownable.sol\":2006:2028  newOwner != address(0) */\n      0xffffffffffffffffffffffffffffffffffffffff\n      and\n      eq\n      iszero\n        /* \"@openzeppelin/contracts/access/Ownable.sol\":1998:2071  require(newOwner != address(0), \"Ownable: new owner is the zero address\") */\n      tag_70\n      jumpi\n      mload(0x40)\n      0x08c379a000000000000000000000000000000000000000000000000000000000\n      dup2\n      mstore\n      0x04\n      add\n      tag_71\n      swap1\n      tag_72\n      jump\t// in\n    tag_71:\n      mload(0x40)\n      dup1\n      swap2\n      sub\n      swap1\n      revert\n    tag_70:\n        /* \"@openzeppelin/contracts/access/Ownable.sol\":2081:2109  _transferOwnership(newOwner) */\n      tag_73\n        /* \"@openzeppelin/contracts/access/Ownable.sol\":2100:2108  newOwner */\n      dup2\n        /* \"@openzeppelin/contracts/access/Ownable.sol\":2081:2099  _transferOwnership */\n      tag_51\n        /* \"@openzeppelin/contracts/access/Ownable.sol\":2081:2109  _transferOwnership(newOwner) */\n      jump\t// in\n    tag_73:\n        /* \"@openzeppelin/contracts/access/Ownable.sol\":1918:2116  function transferOwnership(address newOwner) public virtual onlyOwner {... */\n      pop\n      jump\t// out\n        /* \"@openzeppelin/contracts/utils/Context.sol\":640:736  function _msgSender() internal view virtual returns (address) {... */\n    tag_44:\n        /* \"@openzeppelin/contracts/utils/Context.sol\":693:700  address */\n      0x00\n        /* \"@openzeppelin/contracts/utils/Context.sol\":719:729  msg.sender */\n      caller\n        /* \"@openzeppelin/contracts/utils/Context.sol\":712:729  return msg.sender */\n      swap1\n      pop\n        /* \"@openzeppelin/contracts/utils/Context.sol\":640:736  function _msgSender() internal view virtual returns (address) {... */\n      swap1\n      jump\t// out\n        /* \"@openzeppelin/contracts/access/Ownable.sol\":2270:2457  function _transferOwnership(address newOwner) internal virtual {... */\n    tag_51:\n        /* \"@openzeppelin/contracts/access/Ownable.sol\":2343:2359  address oldOwner */\n      0x00\n        /* \"@openzeppelin/contracts/access/Ownable.sol\":2362:2368  _owner */\n      dup1\n      0x00\n      swap1\n      sload\n      swap1\n      0x0100\n      exp\n      swap1\n      div\n      0xffffffffffffffffffffffffffffffffffffffff\n      and\n        /* \"@openzeppelin/contracts/access/Ownable.sol\":2343:2368  address oldOwner = _owner */\n      swap1\n      pop\n        /* \"@openzeppelin/contracts/access/Ownable.sol\":2387:2395  newOwner */\n      dup2\n        /* \"@openzeppelin/contracts/access/Ownable.sol\":2378:2384  _owner */\n      0x00\n      dup1\n        /* \"@openzeppelin/contracts/access/Ownable.sol\":2378:2395  _owner = newOwner */\n      0x0100\n      exp\n      dup2\n      sload\n      dup2\n      0xffffffffffffffffffffffffffffffffffffffff\n      mul\n      not\n      and\n      swap1\n      dup4\n      0xffffffffffffffffffffffffffffffffffffffff\n      and\n      mul\n      or\n      swap1\n      sstore\n      pop\n        /* \"@openzeppelin/contracts/access/Ownable.sol\":2441:2449  newOwner */\n      dup2\n        /* \"@openzeppelin/contracts/access/Ownable.sol\":2410:2450  OwnershipTransferred(oldOwner, newOwner) */\n      0xffffffffffffffffffffffffffffffffffffffff\n      and\n        /* \"@openzeppelin/contracts/access/Ownable.sol\":2431:2439  oldOwner */\n      dup2\n        /* \"@openzeppelin/contracts/access/Ownable.sol\":2410:2450  OwnershipTransferred(oldOwner, newOwner) */\n      0xffffffffffffffffffffffffffffffffffffffff\n      and\n      0x8be0079c531659141344cd1fd0a4f28419497f9722a3daafe3b4186f6b6457e0\n      mload(0x40)\n      mload(0x40)\n      dup1\n      swap2\n      sub\n      swap1\n      log3\n        /* \"@openzeppelin/contracts/access/Ownable.sol\":2333:2457  {... */\n      pop\n        /* \"@openzeppelin/contracts/access/Ownable.sol\":2270:2457  function _transferOwnership(address newOwner) internal virtual {... */\n      pop\n      jump\t// out\n        /* \"#utility.yul\":22:976   */\n    tag_77:\n        /* \"#utility.yul\":127:132   */\n      0x00\n        /* \"#utility.yul\":152:242   */\n      tag_79\n        /* \"#utility.yul\":168:241   */\n      tag_80\n        /* \"#utility.yul\":234:240   */\n      dup5\n        /* \"#utility.yul\":168:241   */\n      tag_81\n      jump\t// in\n    tag_80:\n        /* \"#utility.yul\":152:242   */\n      tag_82\n      jump\t// in\n    tag_79:\n        /* \"#utility.yul\":143:242   */\n      swap1\n      pop\n        /* \"#utility.yul\":262:267   */\n      dup1\n        /* \"#utility.yul\":291:297   */\n      dup4\n        /* \"#utility.yul\":284:289   */\n      dup3\n        /* \"#utility.yul\":277:298   */\n      mstore\n        /* \"#utility.yul\":325:329   */\n      0x20\n        /* \"#utility.yul\":318:323   */\n      dup3\n        /* \"#utility.yul\":314:330   */\n      add\n        /* \"#utility.yul\":307:330   */\n      swap1\n      pop\n        /* \"#utility.yul\":351:357   */\n      dup3\n        /* \"#utility.yul\":401:404   */\n      dup6\n        /* \"#utility.yul\":393:397   */\n      0x20\n        /* \"#utility.yul\":385:391   */\n      dup7\n        /* \"#utility.yul\":381:398   */\n      mul\n        /* \"#utility.yul\":376:379   */\n      dup3\n        /* \"#utility.yul\":372:399   */\n      add\n        /* \"#utility.yul\":369:405   */\n      gt\n        /* \"#utility.yul\":366:509   */\n      iszero\n      tag_83\n      jumpi\n        /* \"#utility.yul\":420:499   */\n      tag_84\n      tag_85\n      jump\t// in\n    tag_84:\n        /* \"#utility.yul\":366:509   */\n    tag_83:\n        /* \"#utility.yul\":533:534   */\n      0x00\n        /* \"#utility.yul\":518:970   */\n    tag_86:\n        /* \"#utility.yul\":543:549   */\n      dup6\n        /* \"#utility.yul\":540:541   */\n      dup2\n        /* \"#utility.yul\":537:550   */\n      lt\n        /* \"#utility.yul\":518:970   */\n      iszero\n      tag_88\n      jumpi\n        /* \"#utility.yul\":625:628   */\n      dup2\n        /* \"#utility.yul\":612:629   */\n      calldataload\n        /* \"#utility.yul\":661:679   */\n      0xffffffffffffffff\n        /* \"#utility.yul\":648:659   */\n      dup2\n        /* \"#utility.yul\":645:680   */\n      gt\n        /* \"#utility.yul\":642:764   */\n      iszero\n      tag_89\n      jumpi\n        /* \"#utility.yul\":683:762   */\n      tag_90\n      tag_91\n      jump\t// in\n    tag_90:\n        /* \"#utility.yul\":642:764   */\n    tag_89:\n        /* \"#utility.yul\":807:818   */\n      dup1\n        /* \"#utility.yul\":799:805   */\n      dup7\n        /* \"#utility.yul\":795:819   */\n      add\n        /* \"#utility.yul\":845:891   */\n      tag_92\n        /* \"#utility.yul\":887:890   */\n      dup10\n        /* \"#utility.yul\":875:885   */\n      dup3\n        /* \"#utility.yul\":845:891   */\n      tag_93\n      jump\t// in\n    tag_92:\n        /* \"#utility.yul\":840:843   */\n      dup6\n        /* \"#utility.yul\":833:892   */\n      mstore\n        /* \"#utility.yul\":921:925   */\n      0x20\n        /* \"#utility.yul\":916:919   */\n      dup6\n        /* \"#utility.yul\":912:926   */\n      add\n        /* \"#utility.yul\":905:926   */\n      swap5\n      pop\n        /* \"#utility.yul\":955:959   */\n      0x20\n        /* \"#utility.yul\":950:953   */\n      dup5\n        /* \"#utility.yul\":946:960   */\n      add\n        /* \"#utility.yul\":939:960   */\n      swap4\n      pop\n        /* \"#utility.yul\":578:970   */\n      pop\n      pop\n        /* \"#utility.yul\":565:566   */\n      0x01\n        /* \"#utility.yul\":562:563   */\n      dup2\n        /* \"#utility.yul\":558:567   */\n      add\n        /* \"#utility.yul\":553:567   */\n      swap1\n      pop\n        /* \"#utility.yul\":518:970   */\n      jump(tag_86)\n    tag_88:\n        /* \"#utility.yul\":522:536   */\n      pop\n        /* \"#utility.yul\":133:976   */\n      pop\n      pop\n        /* \"#utility.yul\":22:976   */\n      swap4\n      swap3\n      pop\n      pop\n      pop\n      jump\t// out\n        /* \"#utility.yul\":982:1392   */\n    tag_94:\n        /* \"#utility.yul\":1059:1064   */\n      0x00\n        /* \"#utility.yul\":1084:1149   */\n      tag_96\n        /* \"#utility.yul\":1100:1148   */\n      tag_97\n        /* \"#utility.yul\":1141:1147   */\n      dup5\n        /* \"#utility.yul\":1100:1148   */\n      tag_98\n      jump\t// in\n    tag_97:\n        /* \"#utility.yul\":1084:1149   */\n      tag_82\n      jump\t// in\n    tag_96:\n        /* \"#utility.yul\":1075:1149   */\n      swap1\n      pop\n        /* \"#utility.yul\":1172:1178   */\n      dup3\n        /* \"#utility.yul\":1165:1170   */\n      dup2\n        /* \"#utility.yul\":1158:1179   */\n      mstore\n        /* \"#utility.yul\":1210:1214   */\n      0x20\n        /* \"#utility.yul\":1203:1208   */\n      dup2\n        /* \"#utility.yul\":1199:1215   */\n      add\n        /* \"#utility.yul\":1248:1251   */\n      dup5\n        /* \"#utility.yul\":1239:1245   */\n      dup5\n        /* \"#utility.yul\":1234:1237   */\n      dup5\n        /* \"#utility.yul\":1230:1246   */\n      add\n        /* \"#utility.yul\":1227:1252   */\n      gt\n        /* \"#utility.yul\":1224:1336   */\n      iszero\n      tag_99\n      jumpi\n        /* \"#utility.yul\":1255:1334   */\n      tag_100\n      tag_101\n      jump\t// in\n    tag_100:\n        /* \"#utility.yul\":1224:1336   */\n    tag_99:\n        /* \"#utility.yul\":1345:1386   */\n      tag_102\n        /* \"#utility.yul\":1379:1385   */\n      dup5\n        /* \"#utility.yul\":1374:1377   */\n      dup3\n        /* \"#utility.yul\":1369:1372   */\n      dup6\n        /* \"#utility.yul\":1345:1386   */\n      tag_103\n      jump\t// in\n    tag_102:\n        /* \"#utility.yul\":1065:1392   */\n      pop\n        /* \"#utility.yul\":982:1392   */\n      swap4\n      swap3\n      pop\n      pop\n      pop\n      jump\t// out\n        /* \"#utility.yul\":1398:1810   */\n    tag_104:\n        /* \"#utility.yul\":1476:1481   */\n      0x00\n        /* \"#utility.yul\":1501:1567   */\n      tag_106\n        /* \"#utility.yul\":1517:1566   */\n      tag_107\n        /* \"#utility.yul\":1559:1565   */\n      dup5\n        /* \"#utility.yul\":1517:1566   */\n      tag_108\n      jump\t// in\n    tag_107:\n        /* \"#utility.yul\":1501:1567   */\n      tag_82\n      jump\t// in\n    tag_106:\n        /* \"#utility.yul\":1492:1567   */\n      swap1\n      pop\n        /* \"#utility.yul\":1590:1596   */\n      dup3\n        /* \"#utility.yul\":1583:1588   */\n      dup2\n        /* \"#utility.yul\":1576:1597   */\n      mstore\n        /* \"#utility.yul\":1628:1632   */\n      0x20\n        /* \"#utility.yul\":1621:1626   */\n      dup2\n        /* \"#utility.yul\":1617:1633   */\n      add\n        /* \"#utility.yul\":1666:1669   */\n      dup5\n        /* \"#utility.yul\":1657:1663   */\n      dup5\n        /* \"#utility.yul\":1652:1655   */\n      dup5\n        /* \"#utility.yul\":1648:1664   */\n      add\n        /* \"#utility.yul\":1645:1670   */\n      gt\n        /* \"#utility.yul\":1642:1754   */\n      iszero\n      tag_109\n      jumpi\n        /* \"#utility.yul\":1673:1752   */\n      tag_110\n      tag_101\n      jump\t// in\n    tag_110:\n        /* \"#utility.yul\":1642:1754   */\n    tag_109:\n        /* \"#utility.yul\":1763:1804   */\n      tag_111\n        /* \"#utility.yul\":1797:1803   */\n      dup5\n        /* \"#utility.yul\":1792:1795   */\n      dup3\n        /* \"#utility.yul\":1787:1790   */\n      dup6\n        /* \"#utility.yul\":1763:1804   */\n      tag_103\n      jump\t// in\n    tag_111:\n        /* \"#utility.yul\":1482:1810   */\n      pop\n        /* \"#utility.yul\":1398:1810   */\n      swap4\n      swap3\n      pop\n      pop\n      pop\n      jump\t// out\n        /* \"#utility.yul\":1816:1955   */\n    tag_112:\n        /* \"#utility.yul\":1862:1867   */\n      0x00\n        /* \"#utility.yul\":1900:1906   */\n      dup2\n        /* \"#utility.yul\":1887:1907   */\n      calldataload\n        /* \"#utility.yul\":1878:1907   */\n      swap1\n      pop\n        /* \"#utility.yul\":1916:1949   */\n      tag_114\n        /* \"#utility.yul\":1943:1948   */\n      dup2\n        /* \"#utility.yul\":1916:1949   */\n      tag_115\n      jump\t// in\n    tag_114:\n        /* \"#utility.yul\":1816:1955   */\n      swap3\n      swap2\n      pop\n      pop\n      jump\t// out\n        /* \"#utility.yul\":1976:2364   */\n    tag_116:\n        /* \"#utility.yul\":2056:2061   */\n      0x00\n        /* \"#utility.yul\":2105:2108   */\n      dup3\n        /* \"#utility.yul\":2098:2102   */\n      0x1f\n        /* \"#utility.yul\":2090:2096   */\n      dup4\n        /* \"#utility.yul\":2086:2103   */\n      add\n        /* \"#utility.yul\":2082:2109   */\n      slt\n        /* \"#utility.yul\":2072:2194   */\n      tag_118\n      jumpi\n        /* \"#utility.yul\":2113:2192   */\n      tag_119\n      tag_91\n      jump\t// in\n    tag_119:\n        /* \"#utility.yul\":2072:2194   */\n    tag_118:\n        /* \"#utility.yul\":2230:2236   */\n      dup2\n        /* \"#utility.yul\":2217:2237   */\n      calldataload\n        /* \"#utility.yul\":2255:2358   */\n      tag_120\n        /* \"#utility.yul\":2354:2357   */\n      dup5\n        /* \"#utility.yul\":2346:2352   */\n      dup3\n        /* \"#utility.yul\":2339:2343   */\n      0x20\n        /* \"#utility.yul\":2331:2337   */\n      dup7\n        /* \"#utility.yul\":2327:2344   */\n      add\n        /* \"#utility.yul\":2255:2358   */\n      tag_77\n      jump\t// in\n    tag_120:\n        /* \"#utility.yul\":2246:2358   */\n      swap2\n      pop\n        /* \"#utility.yul\":2062:2364   */\n      pop\n        /* \"#utility.yul\":1976:2364   */\n      swap3\n      swap2\n      pop\n      pop\n      jump\t// out\n        /* \"#utility.yul\":2383:2721   */\n    tag_93:\n        /* \"#utility.yul\":2438:2443   */\n      0x00\n        /* \"#utility.yul\":2487:2490   */\n      dup3\n        /* \"#utility.yul\":2480:2484   */\n      0x1f\n        /* \"#utility.yul\":2472:2478   */\n      dup4\n        /* \"#utility.yul\":2468:2485   */\n      add\n        /* \"#utility.yul\":2464:2491   */\n      slt\n        /* \"#utility.yul\":2454:2576   */\n      tag_122\n      jumpi\n        /* \"#utility.yul\":2495:2574   */\n      tag_123\n      tag_91\n      jump\t// in\n    tag_123:\n        /* \"#utility.yul\":2454:2576   */\n    tag_122:\n        /* \"#utility.yul\":2612:2618   */\n      dup2\n        /* \"#utility.yul\":2599:2619   */\n      calldataload\n        /* \"#utility.yul\":2637:2715   */\n      tag_124\n        /* \"#utility.yul\":2711:2714   */\n      dup5\n        /* \"#utility.yul\":2703:2709   */\n      dup3\n        /* \"#utility.yul\":2696:2700   */\n      0x20\n        /* \"#utility.yul\":2688:2694   */\n      dup7\n        /* \"#utility.yul\":2684:2701   */\n      add\n        /* \"#utility.yul\":2637:2715   */\n      tag_94\n      jump\t// in\n    tag_124:\n        /* \"#utility.yul\":2628:2715   */\n      swap2\n      pop\n        /* \"#utility.yul\":2444:2721   */\n      pop\n        /* \"#utility.yul\":2383:2721   */\n      swap3\n      swap2\n      pop\n      pop\n      jump\t// out\n        /* \"#utility.yul\":2741:3081   */\n    tag_125:\n        /* \"#utility.yul\":2797:2802   */\n      0x00\n        /* \"#utility.yul\":2846:2849   */\n      dup3\n        /* \"#utility.yul\":2839:2843   */\n      0x1f\n        /* \"#utility.yul\":2831:2837   */\n      dup4\n        /* \"#utility.yul\":2827:2844   */\n      add\n        /* \"#utility.yul\":2823:2850   */\n      slt\n        /* \"#utility.yul\":2813:2935   */\n      tag_127\n      jumpi\n        /* \"#utility.yul\":2854:2933   */\n      tag_128\n      tag_91\n      jump\t// in\n    tag_128:\n        /* \"#utility.yul\":2813:2935   */\n    tag_127:\n        /* \"#utility.yul\":2971:2977   */\n      dup2\n        /* \"#utility.yul\":2958:2978   */\n      calldataload\n        /* \"#utility.yul\":2996:3075   */\n      tag_129\n        /* \"#utility.yul\":3071:3074   */\n      dup5\n        /* \"#utility.yul\":3063:3069   */\n      dup3\n        /* \"#utility.yul\":3056:3060   */\n      0x20\n        /* \"#utility.yul\":3048:3054   */\n      dup7\n        /* \"#utility.yul\":3044:3061   */\n      add\n        /* \"#utility.yul\":2996:3075   */\n      tag_104\n      jump\t// in\n    tag_129:\n        /* \"#utility.yul\":2987:3075   */\n      swap2\n      pop\n        /* \"#utility.yul\":2803:3081   */\n      pop\n        /* \"#utility.yul\":2741:3081   */\n      swap3\n      swap2\n      pop\n      pop\n      jump\t// out\n        /* \"#utility.yul\":3087:3416   */\n    tag_35:\n        /* \"#utility.yul\":3146:3152   */\n      0x00\n        /* \"#utility.yul\":3195:3197   */\n      0x20\n        /* \"#utility.yul\":3183:3192   */\n      dup3\n        /* \"#utility.yul\":3174:3181   */\n      dup5\n        /* \"#utility.yul\":3170:3193   */\n      sub\n        /* \"#utility.yul\":3166:3198   */\n      slt\n        /* \"#utility.yul\":3163:3282   */\n      iszero\n      tag_131\n      jumpi\n        /* \"#utility.yul\":3201:3280   */\n      tag_132\n      tag_133\n      jump\t// in\n    tag_132:\n        /* \"#utility.yul\":3163:3282   */\n    tag_131:\n        /* \"#utility.yul\":3321:3322   */\n      0x00\n        /* \"#utility.yul\":3346:3399   */\n      tag_134\n        /* \"#utility.yul\":3391:3398   */\n      dup5\n        /* \"#utility.yul\":3382:3388   */\n      dup3\n        /* \"#utility.yul\":3371:3380   */\n      dup6\n        /* \"#utility.yul\":3367:3389   */\n      add\n        /* \"#utility.yul\":3346:3399   */\n      tag_112\n      jump\t// in\n    tag_134:\n        /* \"#utility.yul\":3336:3399   */\n      swap2\n      pop\n        /* \"#utility.yul\":3292:3409   */\n      pop\n        /* \"#utility.yul\":3087:3416   */\n      swap3\n      swap2\n      pop\n      pop\n      jump\t// out\n        /* \"#utility.yul\":3422:3931   */\n    tag_13:\n        /* \"#utility.yul\":3491:3497   */\n      0x00\n        /* \"#utility.yul\":3540:3542   */\n      0x20\n        /* \"#utility.yul\":3528:3537   */\n      dup3\n        /* \"#utility.yul\":3519:3526   */\n      dup5\n        /* \"#utility.yul\":3515:3538   */\n      sub\n        /* \"#utility.yul\":3511:3543   */\n      slt\n        /* \"#utility.yul\":3508:3627   */\n      iszero\n      tag_136\n      jumpi\n        /* \"#utility.yul\":3546:3625   */\n      tag_137\n      tag_133\n      jump\t// in\n    tag_137:\n        /* \"#utility.yul\":3508:3627   */\n    tag_136:\n        /* \"#utility.yul\":3694:3695   */\n      0x00\n        /* \"#utility.yul\":3683:3692   */\n      dup3\n        /* \"#utility.yul\":3679:3696   */\n      add\n        /* \"#utility.yul\":3666:3697   */\n      calldataload\n        /* \"#utility.yul\":3724:3742   */\n      0xffffffffffffffff\n        /* \"#utility.yul\":3716:3722   */\n      dup2\n        /* \"#utility.yul\":3713:3743   */\n      gt\n        /* \"#utility.yul\":3710:3827   */\n      iszero\n      tag_138\n      jumpi\n        /* \"#utility.yul\":3746:3825   */\n      tag_139\n      tag_140\n      jump\t// in\n    tag_139:\n        /* \"#utility.yul\":3710:3827   */\n    tag_138:\n        /* \"#utility.yul\":3851:3914   */\n      tag_141\n        /* \"#utility.yul\":3906:3913   */\n      dup5\n        /* \"#utility.yul\":3897:3903   */\n      dup3\n        /* \"#utility.yul\":3886:3895   */\n      dup6\n        /* \"#utility.yul\":3882:3904   */\n      add\n        /* \"#utility.yul\":3851:3914   */\n      tag_125\n      jump\t// in\n    tag_141:\n        /* \"#utility.yul\":3841:3914   */\n      swap2\n      pop\n        /* \"#utility.yul\":3637:3924   */\n      pop\n        /* \"#utility.yul\":3422:3931   */\n      swap3\n      swap2\n      pop\n      pop\n      jump\t// out\n        /* \"#utility.yul\":3937:4819   */\n    tag_31:\n        /* \"#utility.yul\":4049:4055   */\n      0x00\n        /* \"#utility.yul\":4057:4063   */\n      dup1\n        /* \"#utility.yul\":4106:4108   */\n      0x40\n        /* \"#utility.yul\":4094:4103   */\n      dup4\n        /* \"#utility.yul\":4085:4092   */\n      dup6\n        /* \"#utility.yul\":4081:4104   */\n      sub\n        /* \"#utility.yul\":4077:4109   */\n      slt\n        /* \"#utility.yul\":4074:4193   */\n      iszero\n      tag_143\n      jumpi\n        /* \"#utility.yul\":4112:4191   */\n      tag_144\n      tag_133\n      jump\t// in\n    tag_144:\n        /* \"#utility.yul\":4074:4193   */\n    tag_143:\n        /* \"#utility.yul\":4260:4261   */\n      0x00\n        /* \"#utility.yul\":4249:4258   */\n      dup4\n        /* \"#utility.yul\":4245:4262   */\n      add\n        /* \"#utility.yul\":4232:4263   */\n      calldataload\n        /* \"#utility.yul\":4290:4308   */\n      0xffffffffffffffff\n        /* \"#utility.yul\":4282:4288   */\n      dup2\n        /* \"#utility.yul\":4279:4309   */\n      gt\n        /* \"#utility.yul\":4276:4393   */\n      iszero\n      tag_145\n      jumpi\n        /* \"#utility.yul\":4312:4391   */\n      tag_146\n      tag_140\n      jump\t// in\n    tag_146:\n        /* \"#utility.yul\":4276:4393   */\n    tag_145:\n        /* \"#utility.yul\":4417:4480   */\n      tag_147\n        /* \"#utility.yul\":4472:4479   */\n      dup6\n        /* \"#utility.yul\":4463:4469   */\n      dup3\n        /* \"#utility.yul\":4452:4461   */\n      dup7\n        /* \"#utility.yul\":4448:4470   */\n      add\n        /* \"#utility.yul\":4417:4480   */\n      tag_125\n      jump\t// in\n    tag_147:\n        /* \"#utility.yul\":4407:4480   */\n      swap3\n      pop\n        /* \"#utility.yul\":4203:4490   */\n      pop\n        /* \"#utility.yul\":4557:4559   */\n      0x20\n        /* \"#utility.yul\":4546:4555   */\n      dup4\n        /* \"#utility.yul\":4542:4560   */\n      add\n        /* \"#utility.yul\":4529:4561   */\n      calldataload\n        /* \"#utility.yul\":4588:4606   */\n      0xffffffffffffffff\n        /* \"#utility.yul\":4580:4586   */\n      dup2\n        /* \"#utility.yul\":4577:4607   */\n      gt\n        /* \"#utility.yul\":4574:4691   */\n      iszero\n      tag_148\n      jumpi\n        /* \"#utility.yul\":4610:4689   */\n      tag_149\n      tag_140\n      jump\t// in\n    tag_149:\n        /* \"#utility.yul\":4574:4691   */\n    tag_148:\n        /* \"#utility.yul\":4715:4802   */\n      tag_150\n        /* \"#utility.yul\":4794:4801   */\n      dup6\n        /* \"#utility.yul\":4785:4791   */\n      dup3\n        /* \"#utility.yul\":4774:4783   */\n      dup7\n        /* \"#utility.yul\":4770:4792   */\n      add\n        /* \"#utility.yul\":4715:4802   */\n      tag_116\n      jump\t// in\n    tag_150:\n        /* \"#utility.yul\":4705:4802   */\n      swap2\n      pop\n        /* \"#utility.yul\":4500:4812   */\n      pop\n        /* \"#utility.yul\":3937:4819   */\n      swap3\n      pop\n      swap3\n      swap1\n      pop\n      jump\t// out\n        /* \"#utility.yul\":4825:5659   */\n    tag_27:\n        /* \"#utility.yul\":4913:4919   */\n      0x00\n        /* \"#utility.yul\":4921:4927   */\n      dup1\n        /* \"#utility.yul\":4970:4972   */\n      0x40\n        /* \"#utility.yul\":4958:4967   */\n      dup4\n        /* \"#utility.yul\":4949:4956   */\n      dup6\n        /* \"#utility.yul\":4945:4968   */\n      sub\n        /* \"#utility.yul\":4941:4973   */\n      slt\n        /* \"#utility.yul\":4938:5057   */\n      iszero\n      tag_152\n      jumpi\n        /* \"#utility.yul\":4976:5055   */\n      tag_153\n      tag_133\n      jump\t// in\n    tag_153:\n        /* \"#utility.yul\":4938:5057   */\n    tag_152:\n        /* \"#utility.yul\":5124:5125   */\n      0x00\n        /* \"#utility.yul\":5113:5122   */\n      dup4\n        /* \"#utility.yul\":5109:5126   */\n      add\n        /* \"#utility.yul\":5096:5127   */\n      calldataload\n        /* \"#utility.yul\":5154:5172   */\n      0xffffffffffffffff\n        /* \"#utility.yul\":5146:5152   */\n      dup2\n        /* \"#utility.yul\":5143:5173   */\n      gt\n        /* \"#utility.yul\":5140:5257   */\n      iszero\n      tag_154\n      jumpi\n        /* \"#utility.yul\":5176:5255   */\n      tag_155\n      tag_140\n      jump\t// in\n    tag_155:\n        /* \"#utility.yul\":5140:5257   */\n    tag_154:\n        /* \"#utility.yul\":5281:5344   */\n      tag_156\n        /* \"#utility.yul\":5336:5343   */\n      dup6\n        /* \"#utility.yul\":5327:5333   */\n      dup3\n        /* \"#utility.yul\":5316:5325   */\n      dup7\n        /* \"#utility.yul\":5312:5334   */\n      add\n        /* \"#utility.yul\":5281:5344   */\n      tag_125\n      jump\t// in\n    tag_156:\n        /* \"#utility.yul\":5271:5344   */\n      swap3\n      pop\n        /* \"#utility.yul\":5067:5354   */\n      pop\n        /* \"#utility.yul\":5421:5423   */\n      0x20\n        /* \"#utility.yul\":5410:5419   */\n      dup4\n        /* \"#utility.yul\":5406:5424   */\n      add\n        /* \"#utility.yul\":5393:5425   */\n      calldataload\n        /* \"#utility.yul\":5452:5470   */\n      0xffffffffffffffff\n        /* \"#utility.yul\":5444:5450   */\n      dup2\n        /* \"#utility.yul\":5441:5471   */\n      gt\n        /* \"#utility.yul\":5438:5555   */\n      iszero\n      tag_157\n      jumpi\n        /* \"#utility.yul\":5474:5553   */\n      tag_158\n      tag_140\n      jump\t// in\n    tag_158:\n        /* \"#utility.yul\":5438:5555   */\n    tag_157:\n        /* \"#utility.yul\":5579:5642   */\n      tag_159\n        /* \"#utility.yul\":5634:5641   */\n      dup6\n        /* \"#utility.yul\":5625:5631   */\n      dup3\n        /* \"#utility.yul\":5614:5623   */\n      dup7\n        /* \"#utility.yul\":5610:5632   */\n      add\n        /* \"#utility.yul\":5579:5642   */\n      tag_125\n      jump\t// in\n    tag_159:\n        /* \"#utility.yul\":5569:5642   */\n      swap2\n      pop\n        /* \"#utility.yul\":5364:5652   */\n      pop\n        /* \"#utility.yul\":4825:5659   */\n      swap3\n      pop\n      swap3\n      swap1\n      pop\n      jump\t// out\n        /* \"#utility.yul\":5665:5783   */\n    tag_160:\n        /* \"#utility.yul\":5752:5776   */\n      tag_162\n        /* \"#utility.yul\":5770:5775   */\n      dup2\n        /* \"#utility.yul\":5752:5776   */\n      tag_163\n      jump\t// in\n    tag_162:\n        /* \"#utility.yul\":5747:5750   */\n      dup3\n        /* \"#utility.yul\":5740:5777   */\n      mstore\n        /* \"#utility.yul\":5665:5783   */\n      pop\n      pop\n      jump\t// out\n        /* \"#utility.yul\":5811:6112   */\n    tag_164:\n        /* \"#utility.yul\":5907:5910   */\n      0x00\n        /* \"#utility.yul\":5928:5998   */\n      tag_166\n        /* \"#utility.yul\":5991:5997   */\n      dup4\n        /* \"#utility.yul\":5986:5989   */\n      dup6\n        /* \"#utility.yul\":5928:5998   */\n      tag_167\n      jump\t// in\n    tag_166:\n        /* \"#utility.yul\":5921:5998   */\n      swap4\n      pop\n        /* \"#utility.yul\":6008:6051   */\n      tag_168\n        /* \"#utility.yul\":6044:6050   */\n      dup4\n        /* \"#utility.yul\":6039:6042   */\n      dup6\n        /* \"#utility.yul\":6032:6037   */\n      dup5\n        /* \"#utility.yul\":6008:6051   */\n      tag_103\n      jump\t// in\n    tag_168:\n        /* \"#utility.yul\":6076:6105   */\n      tag_169\n        /* \"#utility.yul\":6098:6104   */\n      dup4\n        /* \"#utility.yul\":6076:6105   */\n      tag_170\n      jump\t// in\n    tag_169:\n        /* \"#utility.yul\":6071:6074   */\n      dup5\n        /* \"#utility.yul\":6067:6106   */\n      add\n        /* \"#utility.yul\":6060:6106   */\n      swap1\n      pop\n        /* \"#utility.yul\":5811:6112   */\n      swap4\n      swap3\n      pop\n      pop\n      pop\n      jump\t// out\n        /* \"#utility.yul\":6118:6305   */\n    tag_171:\n        /* \"#utility.yul\":6233:6298   */\n      tag_173\n        /* \"#utility.yul\":6292:6297   */\n      dup2\n        /* \"#utility.yul\":6233:6298   */\n      tag_174\n      jump\t// in\n    tag_173:\n        /* \"#utility.yul\":6228:6231   */\n      dup3\n        /* \"#utility.yul\":6221:6299   */\n      mstore\n        /* \"#utility.yul\":6118:6305   */\n      pop\n      pop\n      jump\t// out\n        /* \"#utility.yul\":6311:6675   */\n    tag_175:\n        /* \"#utility.yul\":6399:6402   */\n      0x00\n        /* \"#utility.yul\":6427:6466   */\n      tag_177\n        /* \"#utility.yul\":6460:6465   */\n      dup3\n        /* \"#utility.yul\":6427:6466   */\n      tag_178\n      jump\t// in\n    tag_177:\n        /* \"#utility.yul\":6482:6553   */\n      tag_179\n        /* \"#utility.yul\":6546:6552   */\n      dup2\n        /* \"#utility.yul\":6541:6544   */\n      dup6\n        /* \"#utility.yul\":6482:6553   */\n      tag_180\n      jump\t// in\n    tag_179:\n        /* \"#utility.yul\":6475:6553   */\n      swap4\n      pop\n        /* \"#utility.yul\":6562:6614   */\n      tag_181\n        /* \"#utility.yul\":6607:6613   */\n      dup2\n        /* \"#utility.yul\":6602:6605   */\n      dup6\n        /* \"#utility.yul\":6595:6599   */\n      0x20\n        /* \"#utility.yul\":6588:6593   */\n      dup7\n        /* \"#utility.yul\":6584:6600   */\n      add\n        /* \"#utility.yul\":6562:6614   */\n      tag_182\n      jump\t// in\n    tag_181:\n        /* \"#utility.yul\":6639:6668   */\n      tag_183\n        /* \"#utility.yul\":6661:6667   */\n      dup2\n        /* \"#utility.yul\":6639:6668   */\n      tag_170\n      jump\t// in\n    tag_183:\n        /* \"#utility.yul\":6634:6637   */\n      dup5\n        /* \"#utility.yul\":6630:6669   */\n      add\n        /* \"#utility.yul\":6623:6669   */\n      swap2\n      pop\n        /* \"#utility.yul\":6403:6675   */\n      pop\n        /* \"#utility.yul\":6311:6675   */\n      swap3\n      swap2\n      pop\n      pop\n      jump\t// out\n        /* \"#utility.yul\":6681:7047   */\n    tag_184:\n        /* \"#utility.yul\":6823:6826   */\n      0x00\n        /* \"#utility.yul\":6844:6911   */\n      tag_186\n        /* \"#utility.yul\":6908:6910   */\n      0x26\n        /* \"#utility.yul\":6903:6906   */\n      dup4\n        /* \"#utility.yul\":6844:6911   */\n      tag_180\n      jump\t// in\n    tag_186:\n        /* \"#utility.yul\":6837:6911   */\n      swap2\n      pop\n        /* \"#utility.yul\":6920:7013   */\n      tag_187\n        /* \"#utility.yul\":7009:7012   */\n      dup3\n        /* \"#utility.yul\":6920:7013   */\n      tag_188\n      jump\t// in\n    tag_187:\n        /* \"#utility.yul\":7038:7040   */\n      0x40\n        /* \"#utility.yul\":7033:7036   */\n      dup3\n        /* \"#utility.yul\":7029:7041   */\n      add\n        /* \"#utility.yul\":7022:7041   */\n      swap1\n      pop\n        /* \"#utility.yul\":6681:7047   */\n      swap2\n      swap1\n      pop\n      jump\t// out\n        /* \"#utility.yul\":7053:7419   */\n    tag_189:\n        /* \"#utility.yul\":7195:7198   */\n      0x00\n        /* \"#utility.yul\":7216:7283   */\n      tag_191\n        /* \"#utility.yul\":7280:7282   */\n      0x20\n        /* \"#utility.yul\":7275:7278   */\n      dup4\n        /* \"#utility.yul\":7216:7283   */\n      tag_180\n      jump\t// in\n    tag_191:\n        /* \"#utility.yul\":7209:7283   */\n      swap2\n      pop\n        /* \"#utility.yul\":7292:7385   */\n      tag_192\n        /* \"#utility.yul\":7381:7384   */\n      dup3\n        /* \"#utility.yul\":7292:7385   */\n      tag_193\n      jump\t// in\n    tag_192:\n        /* \"#utility.yul\":7410:7412   */\n      0x20\n        /* \"#utility.yul\":7405:7408   */\n      dup3\n        /* \"#utility.yul\":7401:7413   */\n      add\n        /* \"#utility.yul\":7394:7413   */\n      swap1\n      pop\n        /* \"#utility.yul\":7053:7419   */\n      swap2\n      swap1\n      pop\n      jump\t// out\n        /* \"#utility.yul\":7425:7791   */\n    tag_194:\n        /* \"#utility.yul\":7567:7570   */\n      0x00\n        /* \"#utility.yul\":7588:7655   */\n      tag_196\n        /* \"#utility.yul\":7652:7654   */\n      0x3b\n        /* \"#utility.yul\":7647:7650   */\n      dup4\n        /* \"#utility.yul\":7588:7655   */\n      tag_180\n      jump\t// in\n    tag_196:\n        /* \"#utility.yul\":7581:7655   */\n      swap2\n      pop\n        /* \"#utility.yul\":7664:7757   */\n      tag_197\n        /* \"#utility.yul\":7753:7756   */\n      dup3\n        /* \"#utility.yul\":7664:7757   */\n      tag_198\n      jump\t// in\n    tag_197:\n        /* \"#utility.yul\":7782:7784   */\n      0x40\n        /* \"#utility.yul\":7777:7780   */\n      dup3\n        /* \"#utility.yul\":7773:7785   */\n      add\n        /* \"#utility.yul\":7766:7785   */\n      swap1\n      pop\n        /* \"#utility.yul\":7425:7791   */\n      swap2\n      swap1\n      pop\n      jump\t// out\n        /* \"#utility.yul\":7797:8019   */\n    tag_24:\n        /* \"#utility.yul\":7890:7894   */\n      0x00\n        /* \"#utility.yul\":7928:7930   */\n      0x20\n        /* \"#utility.yul\":7917:7926   */\n      dup3\n        /* \"#utility.yul\":7913:7931   */\n      add\n        /* \"#utility.yul\":7905:7931   */\n      swap1\n      pop\n        /* \"#utility.yul\":7941:8012   */\n      tag_200\n        /* \"#utility.yul\":8009:8010   */\n      0x00\n        /* \"#utility.yul\":7998:8007   */\n      dup4\n        /* \"#utility.yul\":7994:8011   */\n      add\n        /* \"#utility.yul\":7985:7991   */\n      dup5\n        /* \"#utility.yul\":7941:8012   */\n      tag_160\n      jump\t// in\n    tag_200:\n        /* \"#utility.yul\":7797:8019   */\n      swap3\n      swap2\n      pop\n      pop\n      jump\t// out\n        /* \"#utility.yul\":8025:8303   */\n    tag_18:\n        /* \"#utility.yul\":8146:8150   */\n      0x00\n        /* \"#utility.yul\":8184:8186   */\n      0x20\n        /* \"#utility.yul\":8173:8182   */\n      dup3\n        /* \"#utility.yul\":8169:8187   */\n      add\n        /* \"#utility.yul\":8161:8187   */\n      swap1\n      pop\n        /* \"#utility.yul\":8197:8296   */\n      tag_202\n        /* \"#utility.yul\":8293:8294   */\n      0x00\n        /* \"#utility.yul\":8282:8291   */\n      dup4\n        /* \"#utility.yul\":8278:8295   */\n      add\n        /* \"#utility.yul\":8269:8275   */\n      dup5\n        /* \"#utility.yul\":8197:8296   */\n      tag_171\n      jump\t// in\n    tag_202:\n        /* \"#utility.yul\":8025:8303   */\n      swap3\n      swap2\n      pop\n      pop\n      jump\t// out\n        /* \"#utility.yul\":8309:9262   */\n    tag_55:\n        /* \"#utility.yul\":8582:8586   */\n      0x00\n        /* \"#utility.yul\":8620:8623   */\n      0xa0\n        /* \"#utility.yul\":8609:8618   */\n      dup3\n        /* \"#utility.yul\":8605:8624   */\n      add\n        /* \"#utility.yul\":8597:8624   */\n      swap1\n      pop\n        /* \"#utility.yul\":8670:8679   */\n      dup2\n        /* \"#utility.yul\":8664:8668   */\n      dup2\n        /* \"#utility.yul\":8660:8680   */\n      sub\n        /* \"#utility.yul\":8656:8657   */\n      0x00\n        /* \"#utility.yul\":8645:8654   */\n      dup4\n        /* \"#utility.yul\":8641:8658   */\n      add\n        /* \"#utility.yul\":8634:8681   */\n      mstore\n        /* \"#utility.yul\":8698:8776   */\n      tag_204\n        /* \"#utility.yul\":8771:8775   */\n      dup2\n        /* \"#utility.yul\":8762:8768   */\n      dup10\n        /* \"#utility.yul\":8698:8776   */\n      tag_175\n      jump\t// in\n    tag_204:\n        /* \"#utility.yul\":8690:8776   */\n      swap1\n      pop\n        /* \"#utility.yul\":8786:8858   */\n      tag_205\n        /* \"#utility.yul\":8854:8856   */\n      0x20\n        /* \"#utility.yul\":8843:8852   */\n      dup4\n        /* \"#utility.yul\":8839:8857   */\n      add\n        /* \"#utility.yul\":8830:8836   */\n      dup9\n        /* \"#utility.yul\":8786:8858   */\n      tag_160\n      jump\t// in\n    tag_205:\n        /* \"#utility.yul\":8868:8940   */\n      tag_206\n        /* \"#utility.yul\":8936:8938   */\n      0x40\n        /* \"#utility.yul\":8925:8934   */\n      dup4\n        /* \"#utility.yul\":8921:8939   */\n      add\n        /* \"#utility.yul\":8912:8918   */\n      dup8\n        /* \"#utility.yul\":8868:8940   */\n      tag_160\n      jump\t// in\n    tag_206:\n        /* \"#utility.yul\":8987:8996   */\n      dup2\n        /* \"#utility.yul\":8981:8985   */\n      dup2\n        /* \"#utility.yul\":8977:8997   */\n      sub\n        /* \"#utility.yul\":8972:8974   */\n      0x60\n        /* \"#utility.yul\":8961:8970   */\n      dup4\n        /* \"#utility.yul\":8957:8975   */\n      add\n        /* \"#utility.yul\":8950:8998   */\n      mstore\n        /* \"#utility.yul\":9015:9093   */\n      tag_207\n        /* \"#utility.yul\":9088:9092   */\n      dup2\n        /* \"#utility.yul\":9079:9085   */\n      dup7\n        /* \"#utility.yul\":9015:9093   */\n      tag_175\n      jump\t// in\n    tag_207:\n        /* \"#utility.yul\":9007:9093   */\n      swap1\n      pop\n        /* \"#utility.yul\":9141:9150   */\n      dup2\n        /* \"#utility.yul\":9135:9139   */\n      dup2\n        /* \"#utility.yul\":9131:9151   */\n      sub\n        /* \"#utility.yul\":9125:9128   */\n      0x80\n        /* \"#utility.yul\":9114:9123   */\n      dup4\n        /* \"#utility.yul\":9110:9129   */\n      add\n        /* \"#utility.yul\":9103:9152   */\n      mstore\n        /* \"#utility.yul\":9169:9255   */\n      tag_208\n        /* \"#utility.yul\":9250:9254   */\n      dup2\n        /* \"#utility.yul\":9241:9247   */\n      dup5\n        /* \"#utility.yul\":9233:9239   */\n      dup7\n        /* \"#utility.yul\":9169:9255   */\n      tag_164\n      jump\t// in\n    tag_208:\n        /* \"#utility.yul\":9161:9255   */\n      swap1\n      pop\n        /* \"#utility.yul\":8309:9262   */\n      swap8\n      swap7\n      pop\n      pop\n      pop\n      pop\n      pop\n      pop\n      pop\n      jump\t// out\n        /* \"#utility.yul\":9268:9687   */\n    tag_72:\n        /* \"#utility.yul\":9434:9438   */\n      0x00\n        /* \"#utility.yul\":9472:9474   */\n      0x20\n        /* \"#utility.yul\":9461:9470   */\n      dup3\n        /* \"#utility.yul\":9457:9475   */\n      add\n        /* \"#utility.yul\":9449:9475   */\n      swap1\n      pop\n        /* \"#utility.yul\":9521:9530   */\n      dup2\n        /* \"#utility.yul\":9515:9519   */\n      dup2\n        /* \"#utility.yul\":9511:9531   */\n      sub\n        /* \"#utility.yul\":9507:9508   */\n      0x00\n        /* \"#utility.yul\":9496:9505   */\n      dup4\n        /* \"#utility.yul\":9492:9509   */\n      add\n        /* \"#utility.yul\":9485:9532   */\n      mstore\n        /* \"#utility.yul\":9549:9680   */\n      tag_210\n        /* \"#utility.yul\":9675:9679   */\n      dup2\n        /* \"#utility.yul\":9549:9680   */\n      tag_184\n      jump\t// in\n    tag_210:\n        /* \"#utility.yul\":9541:9680   */\n      swap1\n      pop\n        /* \"#utility.yul\":9268:9687   */\n      swap2\n      swap1\n      pop\n      jump\t// out\n        /* \"#utility.yul\":9693:10112   */\n    tag_48:\n        /* \"#utility.yul\":9859:9863   */\n      0x00\n        /* \"#utility.yul\":9897:9899   */\n      0x20\n        /* \"#utility.yul\":9886:9895   */\n      dup3\n        /* \"#utility.yul\":9882:9900   */\n      add\n        /* \"#utility.yul\":9874:9900   */\n      swap1\n      pop\n        /* \"#utility.yul\":9946:9955   */\n      dup2\n        /* \"#utility.yul\":9940:9944   */\n      dup2\n        /* \"#utility.yul\":9936:9956   */\n      sub\n        /* \"#utility.yul\":9932:9933   */\n      0x00\n        /* \"#utility.yul\":9921:9930   */\n      dup4\n        /* \"#utility.yul\":9917:9934   */\n      add\n        /* \"#utility.yul\":9910:9957   */\n      mstore\n        /* \"#utility.yul\":9974:10105   */\n      tag_212\n        /* \"#utility.yul\":10100:10104   */\n      dup2\n        /* \"#utility.yul\":9974:10105   */\n      tag_189\n      jump\t// in\n    tag_212:\n        /* \"#utility.yul\":9966:10105   */\n      swap1\n      pop\n        /* \"#utility.yul\":9693:10112   */\n      swap2\n      swap1\n      pop\n      jump\t// out\n        /* \"#utility.yul\":10118:10537   */\n    tag_40:\n        /* \"#utility.yul\":10284:10288   */\n      0x00\n        /* \"#utility.yul\":10322:10324   */\n      0x20\n        /* \"#utility.yul\":10311:10320   */\n      dup3\n        /* \"#utility.yul\":10307:10325   */\n      add\n        /* \"#utility.yul\":10299:10325   */\n      swap1\n      pop\n        /* \"#utility.yul\":10371:10380   */\n      dup2\n        /* \"#utility.yul\":10365:10369   */\n      dup2\n        /* \"#utility.yul\":10361:10381   */\n      sub\n        /* \"#utility.yul\":10357:10358   */\n      0x00\n        /* \"#utility.yul\":10346:10355   */\n      dup4\n        /* \"#utility.yul\":10342:10359   */\n      add\n        /* \"#utility.yul\":10335:10382   */\n      mstore\n        /* \"#utility.yul\":10399:10530   */\n      tag_214\n        /* \"#utility.yul\":10525:10529   */\n      dup2\n        /* \"#utility.yul\":10399:10530   */\n      tag_194\n      jump\t// in\n    tag_214:\n        /* \"#utility.yul\":10391:10530   */\n      swap1\n      pop\n        /* \"#utility.yul\":10118:10537   */\n      swap2\n      swap1\n      pop\n      jump\t// out\n        /* \"#utility.yul\":10543:10672   */\n    tag_82:\n        /* \"#utility.yul\":10577:10583   */\n      0x00\n        /* \"#utility.yul\":10604:10624   */\n      tag_216\n      tag_217\n      jump\t// in\n    tag_216:\n        /* \"#utility.yul\":10594:10624   */\n      swap1\n      pop\n        /* \"#utility.yul\":10633:10666   */\n      tag_218\n        /* \"#utility.yul\":10661:10665   */\n      dup3\n        /* \"#utility.yul\":10653:10659   */\n      dup3\n        /* \"#utility.yul\":10633:10666   */\n      tag_219\n      jump\t// in\n    tag_218:\n        /* \"#utility.yul\":10543:10672   */\n      swap2\n      swap1\n      pop\n      jump\t// out\n        /* \"#utility.yul\":10678:10753   */\n    tag_217:\n        /* \"#utility.yul\":10711:10717   */\n      0x00\n        /* \"#utility.yul\":10744:10746   */\n      0x40\n        /* \"#utility.yul\":10738:10747   */\n      mload\n        /* \"#utility.yul\":10728:10747   */\n      swap1\n      pop\n        /* \"#utility.yul\":10678:10753   */\n      swap1\n      jump\t// out\n        /* \"#utility.yul\":10759:11079   */\n    tag_81:\n        /* \"#utility.yul\":10845:10849   */\n      0x00\n        /* \"#utility.yul\":10935:10953   */\n      0xffffffffffffffff\n        /* \"#utility.yul\":10927:10933   */\n      dup3\n        /* \"#utility.yul\":10924:10954   */\n      gt\n        /* \"#utility.yul\":10921:10977   */\n      iszero\n      tag_222\n      jumpi\n        /* \"#utility.yul\":10957:10975   */\n      tag_223\n      tag_224\n      jump\t// in\n    tag_223:\n        /* \"#utility.yul\":10921:10977   */\n    tag_222:\n        /* \"#utility.yul\":11007:11011   */\n      0x20\n        /* \"#utility.yul\":10999:11005   */\n      dup3\n        /* \"#utility.yul\":10995:11012   */\n      mul\n        /* \"#utility.yul\":10987:11012   */\n      swap1\n      pop\n        /* \"#utility.yul\":11067:11071   */\n      0x20\n        /* \"#utility.yul\":11061:11065   */\n      dup2\n        /* \"#utility.yul\":11057:11072   */\n      add\n        /* \"#utility.yul\":11049:11072   */\n      swap1\n      pop\n        /* \"#utility.yul\":10759:11079   */\n      swap2\n      swap1\n      pop\n      jump\t// out\n        /* \"#utility.yul\":11085:11392   */\n    tag_98:\n        /* \"#utility.yul\":11146:11150   */\n      0x00\n        /* \"#utility.yul\":11236:11254   */\n      0xffffffffffffffff\n        /* \"#utility.yul\":11228:11234   */\n      dup3\n        /* \"#utility.yul\":11225:11255   */\n      gt\n        /* \"#utility.yul\":11222:11278   */\n      iszero\n      tag_226\n      jumpi\n        /* \"#utility.yul\":11258:11276   */\n      tag_227\n      tag_224\n      jump\t// in\n    tag_227:\n        /* \"#utility.yul\":11222:11278   */\n    tag_226:\n        /* \"#utility.yul\":11296:11325   */\n      tag_228\n        /* \"#utility.yul\":11318:11324   */\n      dup3\n        /* \"#utility.yul\":11296:11325   */\n      tag_170\n      jump\t// in\n    tag_228:\n        /* \"#utility.yul\":11288:11325   */\n      swap1\n      pop\n        /* \"#utility.yul\":11380:11384   */\n      0x20\n        /* \"#utility.yul\":11374:11378   */\n      dup2\n        /* \"#utility.yul\":11370:11385   */\n      add\n        /* \"#utility.yul\":11362:11385   */\n      swap1\n      pop\n        /* \"#utility.yul\":11085:11392   */\n      swap2\n      swap1\n      pop\n      jump\t// out\n        /* \"#utility.yul\":11398:11706   */\n    tag_108:\n        /* \"#utility.yul\":11460:11464   */\n      0x00\n        /* \"#utility.yul\":11550:11568   */\n      0xffffffffffffffff\n        /* \"#utility.yul\":11542:11548   */\n      dup3\n        /* \"#utility.yul\":11539:11569   */\n      gt\n        /* \"#utility.yul\":11536:11592   */\n      iszero\n      tag_230\n      jumpi\n        /* \"#utility.yul\":11572:11590   */\n      tag_231\n      tag_224\n      jump\t// in\n    tag_231:\n        /* \"#utility.yul\":11536:11592   */\n    tag_230:\n        /* \"#utility.yul\":11610:11639   */\n      tag_232\n        /* \"#utility.yul\":11632:11638   */\n      dup3\n        /* \"#utility.yul\":11610:11639   */\n      tag_170\n      jump\t// in\n    tag_232:\n        /* \"#utility.yul\":11602:11639   */\n      swap1\n      pop\n        /* \"#utility.yul\":11694:11698   */\n      0x20\n        /* \"#utility.yul\":11688:11692   */\n      dup2\n        /* \"#utility.yul\":11684:11699   */\n      add\n        /* \"#utility.yul\":11676:11699   */\n      swap1\n      pop\n        /* \"#utility.yul\":11398:11706   */\n      swap2\n      swap1\n      pop\n      jump\t// out\n        /* \"#utility.yul\":11712:11811   */\n    tag_178:\n        /* \"#utility.yul\":11764:11770   */\n      0x00\n        /* \"#utility.yul\":11798:11803   */\n      dup2\n        /* \"#utility.yul\":11792:11804   */\n      mload\n        /* \"#utility.yul\":11782:11804   */\n      swap1\n      pop\n        /* \"#utility.yul\":11712:11811   */\n      swap2\n      swap1\n      pop\n      jump\t// out\n        /* \"#utility.yul\":11817:11985   */\n    tag_167:\n        /* \"#utility.yul\":11900:11911   */\n      0x00\n        /* \"#utility.yul\":11934:11940   */\n      dup3\n        /* \"#utility.yul\":11929:11932   */\n      dup3\n        /* \"#utility.yul\":11922:11941   */\n      mstore\n        /* \"#utility.yul\":11974:11978   */\n      0x20\n        /* \"#utility.yul\":11969:11972   */\n      dup3\n        /* \"#utility.yul\":11965:11979   */\n      add\n        /* \"#utility.yul\":11950:11979   */\n      swap1\n      pop\n        /* \"#utility.yul\":11817:11985   */\n      swap3\n      swap2\n      pop\n      pop\n      jump\t// out\n        /* \"#utility.yul\":11991:12160   */\n    tag_180:\n        /* \"#utility.yul\":12075:12086   */\n      0x00\n        /* \"#utility.yul\":12109:12115   */\n      dup3\n        /* \"#utility.yul\":12104:12107   */\n      dup3\n        /* \"#utility.yul\":12097:12116   */\n      mstore\n        /* \"#utility.yul\":12149:12153   */\n      0x20\n        /* \"#utility.yul\":12144:12147   */\n      dup3\n        /* \"#utility.yul\":12140:12154   */\n      add\n        /* \"#utility.yul\":12125:12154   */\n      swap1\n      pop\n        /* \"#utility.yul\":11991:12160   */\n      swap3\n      swap2\n      pop\n      pop\n      jump\t// out\n        /* \"#utility.yul\":12166:12262   */\n    tag_163:\n        /* \"#utility.yul\":12203:12210   */\n      0x00\n        /* \"#utility.yul\":12232:12256   */\n      tag_237\n        /* \"#utility.yul\":12250:12255   */\n      dup3\n        /* \"#utility.yul\":12232:12256   */\n      tag_238\n      jump\t// in\n    tag_237:\n        /* \"#utility.yul\":12221:12256   */\n      swap1\n      pop\n        /* \"#utility.yul\":12166:12262   */\n      swap2\n      swap1\n      pop\n      jump\t// out\n        /* \"#utility.yul\":12268:12394   */\n    tag_238:\n        /* \"#utility.yul\":12305:12312   */\n      0x00\n        /* \"#utility.yul\":12345:12387   */\n      0xffffffffffffffffffffffffffffffffffffffff\n        /* \"#utility.yul\":12338:12343   */\n      dup3\n        /* \"#utility.yul\":12334:12388   */\n      and\n        /* \"#utility.yul\":12323:12388   */\n      swap1\n      pop\n        /* \"#utility.yul\":12268:12394   */\n      swap2\n      swap1\n      pop\n      jump\t// out\n        /* \"#utility.yul\":12400:12554   */\n    tag_174:\n        /* \"#utility.yul\":12478:12487   */\n      0x00\n        /* \"#utility.yul\":12511:12548   */\n      tag_241\n        /* \"#utility.yul\":12542:12547   */\n      dup3\n        /* \"#utility.yul\":12511:12548   */\n      tag_242\n      jump\t// in\n    tag_241:\n        /* \"#utility.yul\":12498:12548   */\n      swap1\n      pop\n        /* \"#utility.yul\":12400:12554   */\n      swap2\n      swap1\n      pop\n      jump\t// out\n        /* \"#utility.yul\":12560:12686   */\n    tag_242:\n        /* \"#utility.yul\":12610:12619   */\n      0x00\n        /* \"#utility.yul\":12643:12680   */\n      tag_244\n        /* \"#utility.yul\":12674:12679   */\n      dup3\n        /* \"#utility.yul\":12643:12680   */\n      tag_245\n      jump\t// in\n    tag_244:\n        /* \"#utility.yul\":12630:12680   */\n      swap1\n      pop\n        /* \"#utility.yul\":12560:12686   */\n      swap2\n      swap1\n      pop\n      jump\t// out\n        /* \"#utility.yul\":12692:12805   */\n    tag_245:\n        /* \"#utility.yul\":12742:12751   */\n      0x00\n        /* \"#utility.yul\":12775:12799   */\n      tag_247\n        /* \"#utility.yul\":12793:12798   */\n      dup3\n        /* \"#utility.yul\":12775:12799   */\n      tag_238\n      jump\t// in\n    tag_247:\n        /* \"#utility.yul\":12762:12799   */\n      swap1\n      pop\n        /* \"#utility.yul\":12692:12805   */\n      swap2\n      swap1\n      pop\n      jump\t// out\n        /* \"#utility.yul\":12811:12965   */\n    tag_103:\n        /* \"#utility.yul\":12895:12901   */\n      dup3\n        /* \"#utility.yul\":12890:12893   */\n      dup2\n        /* \"#utility.yul\":12885:12888   */\n      dup4\n        /* \"#utility.yul\":12872:12902   */\n      calldatacopy\n        /* \"#utility.yul\":12957:12958   */\n      0x00\n        /* \"#utility.yul\":12948:12954   */\n      dup4\n        /* \"#utility.yul\":12943:12946   */\n      dup4\n        /* \"#utility.yul\":12939:12955   */\n      add\n        /* \"#utility.yul\":12932:12959   */\n      mstore\n        /* \"#utility.yul\":12811:12965   */\n      pop\n      pop\n      pop\n      jump\t// out\n        /* \"#utility.yul\":12971:13278   */\n    tag_182:\n        /* \"#utility.yul\":13039:13040   */\n      0x00\n        /* \"#utility.yul\":13049:13162   */\n    tag_250:\n        /* \"#utility.yul\":13063:13069   */\n      dup4\n        /* \"#utility.yul\":13060:13061   */\n      dup2\n        /* \"#utility.yul\":13057:13070   */\n      lt\n        /* \"#utility.yul\":13049:13162   */\n      iszero\n      tag_252\n      jumpi\n        /* \"#utility.yul\":13148:13149   */\n      dup1\n        /* \"#utility.yul\":13143:13146   */\n      dup3\n        /* \"#utility.yul\":13139:13150   */\n      add\n        /* \"#utility.yul\":13133:13151   */\n      mload\n        /* \"#utility.yul\":13129:13130   */\n      dup2\n        /* \"#utility.yul\":13124:13127   */\n      dup5\n        /* \"#utility.yul\":13120:13131   */\n      add\n        /* \"#utility.yul\":13113:13152   */\n      mstore\n        /* \"#utility.yul\":13085:13087   */\n      0x20\n        /* \"#utility.yul\":13082:13083   */\n      dup2\n        /* \"#utility.yul\":13078:13088   */\n      add\n        /* \"#utility.yul\":13073:13088   */\n      swap1\n      pop\n        /* \"#utility.yul\":13049:13162   */\n      jump(tag_250)\n    tag_252:\n        /* \"#utility.yul\":13180:13186   */\n      dup4\n        /* \"#utility.yul\":13177:13178   */\n      dup2\n        /* \"#utility.yul\":13174:13187   */\n      gt\n        /* \"#utility.yul\":13171:13272   */\n      iszero\n      tag_253\n      jumpi\n        /* \"#utility.yul\":13260:13261   */\n      0x00\n        /* \"#utility.yul\":13251:13257   */\n      dup5\n        /* \"#utility.yul\":13246:13249   */\n      dup5\n        /* \"#utility.yul\":13242:13258   */\n      add\n        /* \"#utility.yul\":13235:13262   */\n      mstore\n        /* \"#utility.yul\":13171:13272   */\n    tag_253:\n        /* \"#utility.yul\":13020:13278   */\n      pop\n        /* \"#utility.yul\":12971:13278   */\n      pop\n      pop\n      pop\n      jump\t// out\n        /* \"#utility.yul\":13284:13565   */\n    tag_219:\n        /* \"#utility.yul\":13367:13394   */\n      tag_255\n        /* \"#utility.yul\":13389:13393   */\n      dup3\n        /* \"#utility.yul\":13367:13394   */\n      tag_170\n      jump\t// in\n    tag_255:\n        /* \"#utility.yul\":13359:13365   */\n      dup2\n        /* \"#utility.yul\":13355:13395   */\n      add\n        /* \"#utility.yul\":13497:13503   */\n      dup2\n        /* \"#utility.yul\":13485:13495   */\n      dup2\n        /* \"#utility.yul\":13482:13504   */\n      lt\n        /* \"#utility.yul\":13461:13479   */\n      0xffffffffffffffff\n        /* \"#utility.yul\":13449:13459   */\n      dup3\n        /* \"#utility.yul\":13446:13480   */\n      gt\n        /* \"#utility.yul\":13443:13505   */\n      or\n        /* \"#utility.yul\":13440:13528   */\n      iszero\n      tag_256\n      jumpi\n        /* \"#utility.yul\":13508:13526   */\n      tag_257\n      tag_224\n      jump\t// in\n    tag_257:\n        /* \"#utility.yul\":13440:13528   */\n    tag_256:\n        /* \"#utility.yul\":13548:13558   */\n      dup1\n        /* \"#utility.yul\":13544:13546   */\n      0x40\n        /* \"#utility.yul\":13537:13559   */\n      mstore\n        /* \"#utility.yul\":13327:13565   */\n      pop\n        /* \"#utility.yul\":13284:13565   */\n      pop\n      pop\n      jump\t// out\n        /* \"#utility.yul\":13571:13751   */\n    tag_224:\n        /* \"#utility.yul\":13619:13696   */\n      0x4e487b7100000000000000000000000000000000000000000000000000000000\n        /* \"#utility.yul\":13616:13617   */\n      0x00\n        /* \"#utility.yul\":13609:13697   */\n      mstore\n        /* \"#utility.yul\":13716:13720   */\n      0x41\n        /* \"#utility.yul\":13713:13714   */\n      0x04\n        /* \"#utility.yul\":13706:13721   */\n      mstore\n        /* \"#utility.yul\":13740:13744   */\n      0x24\n        /* \"#utility.yul\":13737:13738   */\n      0x00\n        /* \"#utility.yul\":13730:13745   */\n      revert\n        /* \"#utility.yul\":13757:13874   */\n    tag_91:\n        /* \"#utility.yul\":13866:13867   */\n      0x00\n        /* \"#utility.yul\":13863:13864   */\n      dup1\n        /* \"#utility.yul\":13856:13868   */\n      revert\n        /* \"#utility.yul\":13880:13997   */\n    tag_85:\n        /* \"#utility.yul\":13989:13990   */\n      0x00\n        /* \"#utility.yul\":13986:13987   */\n      dup1\n        /* \"#utility.yul\":13979:13991   */\n      revert\n        /* \"#utility.yul\":14003:14120   */\n    tag_101:\n        /* \"#utility.yul\":14112:14113   */\n      0x00\n        /* \"#utility.yul\":14109:14110   */\n      dup1\n        /* \"#utility.yul\":14102:14114   */\n      revert\n        /* \"#utility.yul\":14126:14243   */\n    tag_140:\n        /* \"#utility.yul\":14235:14236   */\n      0x00\n        /* \"#utility.yul\":14232:14233   */\n      dup1\n        /* \"#utility.yul\":14225:14237   */\n      revert\n        /* \"#utility.yul\":14249:14366   */\n    tag_133:\n        /* \"#utility.yul\":14358:14359   */\n      0x00\n        /* \"#utility.yul\":14355:14356   */\n      dup1\n        /* \"#utility.yul\":14348:14360   */\n      revert\n        /* \"#utility.yul\":14372:14474   */\n    tag_170:\n        /* \"#utility.yul\":14413:14419   */\n      0x00\n        /* \"#utility.yul\":14464:14466   */\n      0x1f\n        /* \"#utility.yul\":14460:14467   */\n      not\n        /* \"#utility.yul\":14455:14457   */\n      0x1f\n        /* \"#utility.yul\":14448:14453   */\n      dup4\n        /* \"#utility.yul\":14444:14458   */\n      add\n        /* \"#utility.yul\":14440:14468   */\n      and\n        /* \"#utility.yul\":14430:14468   */\n      swap1\n      pop\n        /* \"#utility.yul\":14372:14474   */\n      swap2\n      swap1\n      pop\n      jump\t// out\n        /* \"#utility.yul\":14480:14705   */\n    tag_188:\n        /* \"#utility.yul\":14620:14654   */\n      0x4f776e61626c653a206e6577206f776e657220697320746865207a65726f2061\n        /* \"#utility.yul\":14616:14617   */\n      0x00\n        /* \"#utility.yul\":14608:14614   */\n      dup3\n        /* \"#utility.yul\":14604:14618   */\n      add\n        /* \"#utility.yul\":14597:14655   */\n      mstore\n        /* \"#utility.yul\":14689:14697   */\n      0x6464726573730000000000000000000000000000000000000000000000000000\n        /* \"#utility.yul\":14684:14686   */\n      0x20\n        /* \"#utility.yul\":14676:14682   */\n      dup3\n        /* \"#utility.yul\":14672:14687   */\n      add\n        /* \"#utility.yul\":14665:14698   */\n      mstore\n        /* \"#utility.yul\":14480:14705   */\n      pop\n      jump\t// out\n        /* \"#utility.yul\":14711:14893   */\n    tag_193:\n        /* \"#utility.yul\":14851:14885   */\n      0x4f776e61626c653a2063616c6c6572206973206e6f7420746865206f776e6572\n        /* \"#utility.yul\":14847:14848   */\n      0x00\n        /* \"#utility.yul\":14839:14845   */\n      dup3\n        /* \"#utility.yul\":14835:14849   */\n      add\n        /* \"#utility.yul\":14828:14886   */\n      mstore\n        /* \"#utility.yul\":14711:14893   */\n      pop\n      jump\t// out\n        /* \"#utility.yul\":14899:15145   */\n    tag_198:\n        /* \"#utility.yul\":15039:15073   */\n      0x43726564656e7469616c2043616c6c4261636b3a204f6e6c7920746865206f72\n        /* \"#utility.yul\":15035:15036   */\n      0x00\n        /* \"#utility.yul\":15027:15033   */\n      dup3\n        /* \"#utility.yul\":15023:15037   */\n      add\n        /* \"#utility.yul\":15016:15074   */\n      mstore\n        /* \"#utility.yul\":15108:15137   */\n      0x61636c652063616e2063616c6c20746869732066756e6374696f6e0000000000\n        /* \"#utility.yul\":15103:15105   */\n      0x20\n        /* \"#utility.yul\":15095:15101   */\n      dup3\n        /* \"#utility.yul\":15091:15106   */\n      add\n        /* \"#utility.yul\":15084:15138   */\n      mstore\n        /* \"#utility.yul\":14899:15145   */\n      pop\n      jump\t// out\n        /* \"#utility.yul\":15151:15273   */\n    tag_115:\n        /* \"#utility.yul\":15224:15248   */\n      tag_269\n        /* \"#utility.yul\":15242:15247   */\n      dup2\n        /* \"#utility.yul\":15224:15248   */\n      tag_163\n      jump\t// in\n    tag_269:\n        /* \"#utility.yul\":15217:15222   */\n      dup2\n        /* \"#utility.yul\":15214:15249   */\n      eq\n        /* \"#utility.yul\":15204:15267   */\n      tag_270\n      jumpi\n        /* \"#utility.yul\":15263:15264   */\n      0x00\n        /* \"#utility.yul\":15260:15261   */\n      dup1\n        /* \"#utility.yul\":15253:15265   */\n      revert\n        /* \"#utility.yul\":15204:15267   */\n    tag_270:\n        /* \"#utility.yul\":15151:15273   */\n      pop\n      jump\t// out\n\n    auxdata: 0xa2646970667358221220526cbf0855bf4dc8721cf189927364a38bc4589b7f4f91c26331f2312001cef164736f6c63430008070033\n}\n",
				"bytecode": {
					"linkReferences": {},
					"object": "60806040523480156200001157600080fd5b506040516200106b3803806200106b8339818101604052810190620000379190620001c5565b80620000586200004c620000e260201b60201c565b620000ea60201b60201c565b80600160006101000a81548173ffffffffffffffffffffffffffffffffffffffff021916908373ffffffffffffffffffffffffffffffffffffffff16021790555080600260006101000a81548173ffffffffffffffffffffffffffffffffffffffff021916908373ffffffffffffffffffffffffffffffffffffffff16021790555050506200025e565b600033905090565b60008060009054906101000a900473ffffffffffffffffffffffffffffffffffffffff169050816000806101000a81548173ffffffffffffffffffffffffffffffffffffffff021916908373ffffffffffffffffffffffffffffffffffffffff1602179055508173ffffffffffffffffffffffffffffffffffffffff168173ffffffffffffffffffffffffffffffffffffffff167f8be0079c531659141344cd1fd0a4f28419497f9722a3daafe3b4186f6b6457e060405160405180910390a35050565b600081519050620001bf8162000244565b92915050565b600060208284031215620001de57620001dd6200023f565b5b6000620001ee84828501620001ae565b91505092915050565b600062000204826200021f565b9050919050565b60006200021882620001f7565b9050919050565b600073ffffffffffffffffffffffffffffffffffffffff82169050919050565b600080fd5b6200024f816200020b565b81146200025b57600080fd5b50565b610dfd806200026e6000396000f3fe608060405234801561001057600080fd5b506004361061007d5760003560e01c80638da5cb5b1161005b5780638da5cb5b146100c6578063be58afb0146100e4578063dce8a95514610100578063f2fde38b1461011c5761007d565b8063436e99f3146100825780635f7690b31461009e578063715018a6146100bc575b600080fd5b61009c600480360381019061009791906107af565b610138565b005b6100a66101cb565b6040516100b391906109f0565b60405180910390f35b6100c46101f1565b005b6100ce610279565b6040516100db91906109d5565b60405180910390f35b6100fe60048036038101906100f99190610870565b6102a2565b005b61011a600480360381019061011591906107f8565b610379565b005b61013660048036038101906101319190610782565b61040d565b005b600160009054906101000a900473ffffffffffffffffffffffffffffffffffffffff1673ffffffffffffffffffffffffffffffffffffffff163373ffffffffffffffffffffffffffffffffffffffff16146101c8576040517f08c379a00000000000000000000000000000000000000000000000000000000081526004016101bf90610ab5565b60405180910390fd5b50565b600260009054906101000a900473ffffffffffffffffffffffffffffffffffffffff1681565b6101f9610505565b73ffffffffffffffffffffffffffffffffffffffff16610217610279565b73ffffffffffffffffffffffffffffffffffffffff161461026d576040517f08c379a000000000000000000000000000000000000000000000000000000000815260040161026490610a95565b60405180910390fd5b610277600061050d565b565b60008060009054906101000a900473ffffffffffffffffffffffffffffffffffffffff16905090565b80306040518060400160405280600881526020017f706f737456696265000000000000000000000000000000000000000000000000815250600260009054906101000a900473ffffffffffffffffffffffffffffffffffffffff1673ffffffffffffffffffffffffffffffffffffffff1663a78d2ba3843385856000366040518763ffffffff1660e01b815260040161034096959493929190610a0b565b600060405180830381600087803b15801561035a57600080fd5b505af115801561036e573d6000803e3d6000fd5b505050505050505050565b600160009054906101000a900473ffffffffffffffffffffffffffffffffffffffff1673ffffffffffffffffffffffffffffffffffffffff163373ffffffffffffffffffffffffffffffffffffffff1614610409576040517f08c379a000000000000000000000000000000000000000000000000000000000815260040161040090610ab5565b60405180910390fd5b5050565b610415610505565b73ffffffffffffffffffffffffffffffffffffffff16610433610279565b73ffffffffffffffffffffffffffffffffffffffff1614610489576040517f08c379a000000000000000000000000000000000000000000000000000000000815260040161048090610a95565b60405180910390fd5b600073ffffffffffffffffffffffffffffffffffffffff168173ffffffffffffffffffffffffffffffffffffffff1614156104f9576040517f08c379a00000000000000000000000000000000000000000000000000000000081526004016104f090610a75565b60405180910390fd5b6105028161050d565b50565b600033905090565b60008060009054906101000a900473ffffffffffffffffffffffffffffffffffffffff169050816000806101000a81548173ffffffffffffffffffffffffffffffffffffffff021916908373ffffffffffffffffffffffffffffffffffffffff1602179055508173ffffffffffffffffffffffffffffffffffffffff168173ffffffffffffffffffffffffffffffffffffffff167f8be0079c531659141344cd1fd0a4f28419497f9722a3daafe3b4186f6b6457e060405160405180910390a35050565b60006105e46105df84610afa565b610ad5565b9050808382526020820190508285602086028201111561060757610606610cc4565b5b60005b8581101561065557813567ffffffffffffffff81111561062d5761062c610cbf565b5b80860161063a8982610726565b8552602085019450602084019350505060018101905061060a565b5050509392505050565b600061067261066d84610b26565b610ad5565b90508281526020810184848401111561068e5761068d610cc9565b5b610699848285610c1d565b509392505050565b60006106b46106af84610b57565b610ad5565b9050828152602081018484840111156106d0576106cf610cc9565b5b6106db848285610c1d565b509392505050565b6000813590506106f281610db0565b92915050565b600082601f83011261070d5761070c610cbf565b5b813561071d8482602086016105d1565b91505092915050565b600082601f83011261073b5761073a610cbf565b5b813561074b84826020860161065f565b91505092915050565b600082601f83011261076957610768610cbf565b5b81356107798482602086016106a1565b91505092915050565b60006020828403121561079857610797610cd3565b5b60006107a6848285016106e3565b91505092915050565b6000602082840312156107c5576107c4610cd3565b5b600082013567ffffffffffffffff8111156107e3576107e2610cce565b5b6107ef84828501610754565b91505092915050565b6000806040838503121561080f5761080e610cd3565b5b600083013567ffffffffffffffff81111561082d5761082c610cce565b5b61083985828601610754565b925050602083013567ffffffffffffffff81111561085a57610859610cce565b5b610866858286016106f8565b9150509250929050565b6000806040838503121561088757610886610cd3565b5b600083013567ffffffffffffffff8111156108a5576108a4610cce565b5b6108b185828601610754565b925050602083013567ffffffffffffffff8111156108d2576108d1610cce565b5b6108de85828601610754565b9150509250929050565b6108f181610bb5565b82525050565b60006109038385610b93565b9350610910838584610c1d565b61091983610cd8565b840190509392505050565b61092d81610be7565b82525050565b600061093e82610b88565b6109488185610ba4565b9350610958818560208601610c2c565b61096181610cd8565b840191505092915050565b6000610979602683610ba4565b915061098482610ce9565b604082019050919050565b600061099c602083610ba4565b91506109a782610d38565b602082019050919050565b60006109bf603b83610ba4565b91506109ca82610d61565b604082019050919050565b60006020820190506109ea60008301846108e8565b92915050565b6000602082019050610a056000830184610924565b92915050565b600060a0820190508181036000830152610a258189610933565b9050610a3460208301886108e8565b610a4160408301876108e8565b8181036060830152610a538186610933565b90508181036080830152610a688184866108f7565b9050979650505050505050565b60006020820190508181036000830152610a8e8161096c565b9050919050565b60006020820190508181036000830152610aae8161098f565b9050919050565b60006020820190508181036000830152610ace816109b2565b9050919050565b6000610adf610af0565b9050610aeb8282610c5f565b919050565b6000604051905090565b600067ffffffffffffffff821115610b1557610b14610c90565b5b602082029050602081019050919050565b600067ffffffffffffffff821115610b4157610b40610c90565b5b610b4a82610cd8565b9050602081019050919050565b600067ffffffffffffffff821115610b7257610b71610c90565b5b610b7b82610cd8565b9050602081019050919050565b600081519050919050565b600082825260208201905092915050565b600082825260208201905092915050565b6000610bc082610bc7565b9050919050565b600073ffffffffffffffffffffffffffffffffffffffff82169050919050565b6000610bf282610bf9565b9050919050565b6000610c0482610c0b565b9050919050565b6000610c1682610bc7565b9050919050565b82818337600083830152505050565b60005b83811015610c4a578082015181840152602081019050610c2f565b83811115610c59576000848401525b50505050565b610c6882610cd8565b810181811067ffffffffffffffff82111715610c8757610c86610c90565b5b80604052505050565b7f4e487b7100000000000000000000000000000000000000000000000000000000600052604160045260246000fd5b600080fd5b600080fd5b600080fd5b600080fd5b600080fd5b6000601f19601f8301169050919050565b7f4f776e61626c653a206e6577206f776e657220697320746865207a65726f206160008201527f6464726573730000000000000000000000000000000000000000000000000000602082015250565b7f4f776e61626c653a2063616c6c6572206973206e6f7420746865206f776e6572600082015250565b7f43726564656e7469616c2043616c6c4261636b3a204f6e6c7920746865206f7260008201527f61636c652063616e2063616c6c20746869732066756e6374696f6e0000000000602082015250565b610db981610bb5565b8114610dc457600080fd5b5056fea2646970667358221220526cbf0855bf4dc8721cf189927364a38bc4589b7f4f91c26331f2312001cef164736f6c63430008070033",
					"opcodes": "PUSH1 0x80 PUSH1 0x40 MSTORE CALLVALUE DUP1 ISZERO PUSH3 0x11 JUMPI PUSH1 0x0 DUP1 REVERT JUMPDEST POP PUSH1 0x40 MLOAD PUSH3 0x106B CODESIZE SUB DUP1 PUSH3 0x106B DUP4 CODECOPY DUP2 DUP2 ADD PUSH1 0x40 MSTORE DUP2 ADD SWAP1 PUSH3 0x37 SWAP2 SWAP1 PUSH3 0x1C5 JUMP JUMPDEST DUP1 PUSH3 0x58 PUSH3 0x4C PUSH3 0xE2 PUSH1 0x20 SHL PUSH1 0x20 SHR JUMP JUMPDEST PUSH3 0xEA PUSH1 0x20 SHL PUSH1 0x20 SHR JUMP JUMPDEST DUP1 PUSH1 0x1 PUSH1 0x0 PUSH2 0x100 EXP DUP2 SLOAD DUP2 PUSH20 0xFFFFFFFFFFFFFFFFFFFFFFFFFFFFFFFFFFFFFFFF MUL NOT AND SWAP1 DUP4 PUSH20 0xFFFFFFFFFFFFFFFFFFFFFFFFFFFFFFFFFFFFFFFF AND MUL OR SWAP1 SSTORE POP DUP1 PUSH1 0x2 PUSH1 0x0 PUSH2 0x100 EXP DUP2 SLOAD DUP2 PUSH20 0xFFFFFFFFFFFFFFFFFFFFFFFFFFFFFFFFFFFFFFFF MUL NOT AND SWAP1 DUP4 PUSH20 0xFFFFFFFFFFFFFFFFFFFFFFFFFFFFFFFFFFFFFFFF AND MUL OR SWAP1 SSTORE POP POP POP PUSH3 0x25E JUMP JUMPDEST PUSH1 0x0 CALLER SWAP1 POP SWAP1 JUMP JUMPDEST PUSH1 0x0 DUP1 PUSH1 0x0 SWAP1 SLOAD SWAP1 PUSH2 0x100 EXP SWAP1 DIV PUSH20 0xFFFFFFFFFFFFFFFFFFFFFFFFFFFFFFFFFFFFFFFF AND SWAP1 POP DUP2 PUSH1 0x0 DUP1 PUSH2 0x100 EXP DUP2 SLOAD DUP2 PUSH20 0xFFFFFFFFFFFFFFFFFFFFFFFFFFFFFFFFFFFFFFFF MUL NOT AND SWAP1 DUP4 PUSH20 0xFFFFFFFFFFFFFFFFFFFFFFFFFFFFFFFFFFFFFFFF AND MUL OR SWAP1 SSTORE POP DUP2 PUSH20 0xFFFFFFFFFFFFFFFFFFFFFFFFFFFFFFFFFFFFFFFF AND DUP2 PUSH20 0xFFFFFFFFFFFFFFFFFFFFFFFFFFFFFFFFFFFFFFFF AND PUSH32 0x8BE0079C531659141344CD1FD0A4F28419497F9722A3DAAFE3B4186F6B6457E0 PUSH1 0x40 MLOAD PUSH1 0x40 MLOAD DUP1 SWAP2 SUB SWAP1 LOG3 POP POP JUMP JUMPDEST PUSH1 0x0 DUP2 MLOAD SWAP1 POP PUSH3 0x1BF DUP2 PUSH3 0x244 JUMP JUMPDEST SWAP3 SWAP2 POP POP JUMP JUMPDEST PUSH1 0x0 PUSH1 0x20 DUP3 DUP5 SUB SLT ISZERO PUSH3 0x1DE JUMPI PUSH3 0x1DD PUSH3 0x23F JUMP JUMPDEST JUMPDEST PUSH1 0x0 PUSH3 0x1EE DUP5 DUP3 DUP6 ADD PUSH3 0x1AE JUMP JUMPDEST SWAP2 POP POP SWAP3 SWAP2 POP POP JUMP JUMPDEST PUSH1 0x0 PUSH3 0x204 DUP3 PUSH3 0x21F JUMP JUMPDEST SWAP1 POP SWAP2 SWAP1 POP JUMP JUMPDEST PUSH1 0x0 PUSH3 0x218 DUP3 PUSH3 0x1F7 JUMP JUMPDEST SWAP1 POP SWAP2 SWAP1 POP JUMP JUMPDEST PUSH1 0x0 PUSH20 0xFFFFFFFFFFFFFFFFFFFFFFFFFFFFFFFFFFFFFFFF DUP3 AND SWAP1 POP SWAP2 SWAP1 POP JUMP JUMPDEST PUSH1 0x0 DUP1 REVERT JUMPDEST PUSH3 0x24F DUP2 PUSH3 0x20B JUMP JUMPDEST DUP2 EQ PUSH3 0x25B JUMPI PUSH1 0x0 DUP1 REVERT JUMPDEST POP JUMP JUMPDEST PUSH2 0xDFD DUP1 PUSH3 0x26E PUSH1 0x0 CODECOPY PUSH1 0x0 RETURN INVALID PUSH1 0x80 PUSH1 0x40 MSTORE CALLVALUE DUP1 ISZERO PUSH2 0x10 JUMPI PUSH1 0x0 DUP1 REVERT JUMPDEST POP PUSH1 0x4 CALLDATASIZE LT PUSH2 0x7D JUMPI PUSH1 0x0 CALLDATALOAD PUSH1 0xE0 SHR DUP1 PUSH4 0x8DA5CB5B GT PUSH2 0x5B JUMPI DUP1 PUSH4 0x8DA5CB5B EQ PUSH2 0xC6 JUMPI DUP1 PUSH4 0xBE58AFB0 EQ PUSH2 0xE4 JUMPI DUP1 PUSH4 0xDCE8A955 EQ PUSH2 0x100 JUMPI DUP1 PUSH4 0xF2FDE38B EQ PUSH2 0x11C JUMPI PUSH2 0x7D JUMP JUMPDEST DUP1 PUSH4 0x436E99F3 EQ PUSH2 0x82 JUMPI DUP1 PUSH4 0x5F7690B3 EQ PUSH2 0x9E JUMPI DUP1 PUSH4 0x715018A6 EQ PUSH2 0xBC JUMPI JUMPDEST PUSH1 0x0 DUP1 REVERT JUMPDEST PUSH2 0x9C PUSH1 0x4 DUP1 CALLDATASIZE SUB DUP2 ADD SWAP1 PUSH2 0x97 SWAP2 SWAP1 PUSH2 0x7AF JUMP JUMPDEST PUSH2 0x138 JUMP JUMPDEST STOP JUMPDEST PUSH2 0xA6 PUSH2 0x1CB JUMP JUMPDEST PUSH1 0x40 MLOAD PUSH2 0xB3 SWAP2 SWAP1 PUSH2 0x9F0 JUMP JUMPDEST PUSH1 0x40 MLOAD DUP1 SWAP2 SUB SWAP1 RETURN JUMPDEST PUSH2 0xC4 PUSH2 0x1F1 JUMP JUMPDEST STOP JUMPDEST PUSH2 0xCE PUSH2 0x279 JUMP JUMPDEST PUSH1 0x40 MLOAD PUSH2 0xDB SWAP2 SWAP1 PUSH2 0x9D5 JUMP JUMPDEST PUSH1 0x40 MLOAD DUP1 SWAP2 SUB SWAP1 RETURN JUMPDEST PUSH2 0xFE PUSH1 0x4 DUP1 CALLDATASIZE SUB DUP2 ADD SWAP1 PUSH2 0xF9 SWAP2 SWAP1 PUSH2 0x870 JUMP JUMPDEST PUSH2 0x2A2 JUMP JUMPDEST STOP JUMPDEST PUSH2 0x11A PUSH1 0x4 DUP1 CALLDATASIZE SUB DUP2 ADD SWAP1 PUSH2 0x115 SWAP2 SWAP1 PUSH2 0x7F8 JUMP JUMPDEST PUSH2 0x379 JUMP JUMPDEST STOP JUMPDEST PUSH2 0x136 PUSH1 0x4 DUP1 CALLDATASIZE SUB DUP2 ADD SWAP1 PUSH2 0x131 SWAP2 SWAP1 PUSH2 0x782 JUMP JUMPDEST PUSH2 0x40D JUMP JUMPDEST STOP JUMPDEST PUSH1 0x1 PUSH1 0x0 SWAP1 SLOAD SWAP1 PUSH2 0x100 EXP SWAP1 DIV PUSH20 0xFFFFFFFFFFFFFFFFFFFFFFFFFFFFFFFFFFFFFFFF AND PUSH20 0xFFFFFFFFFFFFFFFFFFFFFFFFFFFFFFFFFFFFFFFF AND CALLER PUSH20 0xFFFFFFFFFFFFFFFFFFFFFFFFFFFFFFFFFFFFFFFF AND EQ PUSH2 0x1C8 JUMPI PUSH1 0x40 MLOAD PUSH32 0x8C379A000000000000000000000000000000000000000000000000000000000 DUP2 MSTORE PUSH1 0x4 ADD PUSH2 0x1BF SWAP1 PUSH2 0xAB5 JUMP JUMPDEST PUSH1 0x40 MLOAD DUP1 SWAP2 SUB SWAP1 REVERT JUMPDEST POP JUMP JUMPDEST PUSH1 0x2 PUSH1 0x0 SWAP1 SLOAD SWAP1 PUSH2 0x100 EXP SWAP1 DIV PUSH20 0xFFFFFFFFFFFFFFFFFFFFFFFFFFFFFFFFFFFFFFFF AND DUP2 JUMP JUMPDEST PUSH2 0x1F9 PUSH2 0x505 JUMP JUMPDEST PUSH20 0xFFFFFFFFFFFFFFFFFFFFFFFFFFFFFFFFFFFFFFFF AND PUSH2 0x217 PUSH2 0x279 JUMP JUMPDEST PUSH20 0xFFFFFFFFFFFFFFFFFFFFFFFFFFFFFFFFFFFFFFFF AND EQ PUSH2 0x26D JUMPI PUSH1 0x40 MLOAD PUSH32 0x8C379A000000000000000000000000000000000000000000000000000000000 DUP2 MSTORE PUSH1 0x4 ADD PUSH2 0x264 SWAP1 PUSH2 0xA95 JUMP JUMPDEST PUSH1 0x40 MLOAD DUP1 SWAP2 SUB SWAP1 REVERT JUMPDEST PUSH2 0x277 PUSH1 0x0 PUSH2 0x50D JUMP JUMPDEST JUMP JUMPDEST PUSH1 0x0 DUP1 PUSH1 0x0 SWAP1 SLOAD SWAP1 PUSH2 0x100 EXP SWAP1 DIV PUSH20 0xFFFFFFFFFFFFFFFFFFFFFFFFFFFFFFFFFFFFFFFF AND SWAP1 POP SWAP1 JUMP JUMPDEST DUP1 ADDRESS PUSH1 0x40 MLOAD DUP1 PUSH1 0x40 ADD PUSH1 0x40 MSTORE DUP1 PUSH1 0x8 DUP2 MSTORE PUSH1 0x20 ADD PUSH32 0x706F737456696265000000000000000000000000000000000000000000000000 DUP2 MSTORE POP PUSH1 0x2 PUSH1 0x0 SWAP1 SLOAD SWAP1 PUSH2 0x100 EXP SWAP1 DIV PUSH20 0xFFFFFFFFFFFFFFFFFFFFFFFFFFFFFFFFFFFFFFFF AND PUSH20 0xFFFFFFFFFFFFFFFFFFFFFFFFFFFFFFFFFFFFFFFF AND PUSH4 0xA78D2BA3 DUP5 CALLER DUP6 DUP6 PUSH1 0x0 CALLDATASIZE PUSH1 0x40 MLOAD DUP8 PUSH4 0xFFFFFFFF AND PUSH1 0xE0 SHL DUP2 MSTORE PUSH1 0x4 ADD PUSH2 0x340 SWAP7 SWAP6 SWAP5 SWAP4 SWAP3 SWAP2 SWAP1 PUSH2 0xA0B JUMP JUMPDEST PUSH1 0x0 PUSH1 0x40 MLOAD DUP1 DUP4 SUB DUP2 PUSH1 0x0 DUP8 DUP1 EXTCODESIZE ISZERO DUP1 ISZERO PUSH2 0x35A JUMPI PUSH1 0x0 DUP1 REVERT JUMPDEST POP GAS CALL ISZERO DUP1 ISZERO PUSH2 0x36E JUMPI RETURNDATASIZE PUSH1 0x0 DUP1 RETURNDATACOPY RETURNDATASIZE PUSH1 0x0 REVERT JUMPDEST POP POP POP POP POP POP POP POP POP JUMP JUMPDEST PUSH1 0x1 PUSH1 0x0 SWAP1 SLOAD SWAP1 PUSH2 0x100 EXP SWAP1 DIV PUSH20 0xFFFFFFFFFFFFFFFFFFFFFFFFFFFFFFFFFFFFFFFF AND PUSH20 0xFFFFFFFFFFFFFFFFFFFFFFFFFFFFFFFFFFFFFFFF AND CALLER PUSH20 0xFFFFFFFFFFFFFFFFFFFFFFFFFFFFFFFFFFFFFFFF AND EQ PUSH2 0x409 JUMPI PUSH1 0x40 MLOAD PUSH32 0x8C379A000000000000000000000000000000000000000000000000000000000 DUP2 MSTORE PUSH1 0x4 ADD PUSH2 0x400 SWAP1 PUSH2 0xAB5 JUMP JUMPDEST PUSH1 0x40 MLOAD DUP1 SWAP2 SUB SWAP1 REVERT JUMPDEST POP POP JUMP JUMPDEST PUSH2 0x415 PUSH2 0x505 JUMP JUMPDEST PUSH20 0xFFFFFFFFFFFFFFFFFFFFFFFFFFFFFFFFFFFFFFFF AND PUSH2 0x433 PUSH2 0x279 JUMP JUMPDEST PUSH20 0xFFFFFFFFFFFFFFFFFFFFFFFFFFFFFFFFFFFFFFFF AND EQ PUSH2 0x489 JUMPI PUSH1 0x40 MLOAD PUSH32 0x8C379A000000000000000000000000000000000000000000000000000000000 DUP2 MSTORE PUSH1 0x4 ADD PUSH2 0x480 SWAP1 PUSH2 0xA95 JUMP JUMPDEST PUSH1 0x40 MLOAD DUP1 SWAP2 SUB SWAP1 REVERT JUMPDEST PUSH1 0x0 PUSH20 0xFFFFFFFFFFFFFFFFFFFFFFFFFFFFFFFFFFFFFFFF AND DUP2 PUSH20 0xFFFFFFFFFFFFFFFFFFFFFFFFFFFFFFFFFFFFFFFF AND EQ ISZERO PUSH2 0x4F9 JUMPI PUSH1 0x40 MLOAD PUSH32 0x8C379A000000000000000000000000000000000000000000000000000000000 DUP2 MSTORE PUSH1 0x4 ADD PUSH2 0x4F0 SWAP1 PUSH2 0xA75 JUMP JUMPDEST PUSH1 0x40 MLOAD DUP1 SWAP2 SUB SWAP1 REVERT JUMPDEST PUSH2 0x502 DUP2 PUSH2 0x50D JUMP JUMPDEST POP JUMP JUMPDEST PUSH1 0x0 CALLER SWAP1 POP SWAP1 JUMP JUMPDEST PUSH1 0x0 DUP1 PUSH1 0x0 SWAP1 SLOAD SWAP1 PUSH2 0x100 EXP SWAP1 DIV PUSH20 0xFFFFFFFFFFFFFFFFFFFFFFFFFFFFFFFFFFFFFFFF AND SWAP1 POP DUP2 PUSH1 0x0 DUP1 PUSH2 0x100 EXP DUP2 SLOAD DUP2 PUSH20 0xFFFFFFFFFFFFFFFFFFFFFFFFFFFFFFFFFFFFFFFF MUL NOT AND SWAP1 DUP4 PUSH20 0xFFFFFFFFFFFFFFFFFFFFFFFFFFFFFFFFFFFFFFFF AND MUL OR SWAP1 SSTORE POP DUP2 PUSH20 0xFFFFFFFFFFFFFFFFFFFFFFFFFFFFFFFFFFFFFFFF AND DUP2 PUSH20 0xFFFFFFFFFFFFFFFFFFFFFFFFFFFFFFFFFFFFFFFF AND PUSH32 0x8BE0079C531659141344CD1FD0A4F28419497F9722A3DAAFE3B4186F6B6457E0 PUSH1 0x40 MLOAD PUSH1 0x40 MLOAD DUP1 SWAP2 SUB SWAP1 LOG3 POP POP JUMP JUMPDEST PUSH1 0x0 PUSH2 0x5E4 PUSH2 0x5DF DUP5 PUSH2 0xAFA JUMP JUMPDEST PUSH2 0xAD5 JUMP JUMPDEST SWAP1 POP DUP1 DUP4 DUP3 MSTORE PUSH1 0x20 DUP3 ADD SWAP1 POP DUP3 DUP6 PUSH1 0x20 DUP7 MUL DUP3 ADD GT ISZERO PUSH2 0x607 JUMPI PUSH2 0x606 PUSH2 0xCC4 JUMP JUMPDEST JUMPDEST PUSH1 0x0 JUMPDEST DUP6 DUP2 LT ISZERO PUSH2 0x655 JUMPI DUP2 CALLDATALOAD PUSH8 0xFFFFFFFFFFFFFFFF DUP2 GT ISZERO PUSH2 0x62D JUMPI PUSH2 0x62C PUSH2 0xCBF JUMP JUMPDEST JUMPDEST DUP1 DUP7 ADD PUSH2 0x63A DUP10 DUP3 PUSH2 0x726 JUMP JUMPDEST DUP6 MSTORE PUSH1 0x20 DUP6 ADD SWAP5 POP PUSH1 0x20 DUP5 ADD SWAP4 POP POP POP PUSH1 0x1 DUP2 ADD SWAP1 POP PUSH2 0x60A JUMP JUMPDEST POP POP POP SWAP4 SWAP3 POP POP POP JUMP JUMPDEST PUSH1 0x0 PUSH2 0x672 PUSH2 0x66D DUP5 PUSH2 0xB26 JUMP JUMPDEST PUSH2 0xAD5 JUMP JUMPDEST SWAP1 POP DUP3 DUP2 MSTORE PUSH1 0x20 DUP2 ADD DUP5 DUP5 DUP5 ADD GT ISZERO PUSH2 0x68E JUMPI PUSH2 0x68D PUSH2 0xCC9 JUMP JUMPDEST JUMPDEST PUSH2 0x699 DUP5 DUP3 DUP6 PUSH2 0xC1D JUMP JUMPDEST POP SWAP4 SWAP3 POP POP POP JUMP JUMPDEST PUSH1 0x0 PUSH2 0x6B4 PUSH2 0x6AF DUP5 PUSH2 0xB57 JUMP JUMPDEST PUSH2 0xAD5 JUMP JUMPDEST SWAP1 POP DUP3 DUP2 MSTORE PUSH1 0x20 DUP2 ADD DUP5 DUP5 DUP5 ADD GT ISZERO PUSH2 0x6D0 JUMPI PUSH2 0x6CF PUSH2 0xCC9 JUMP JUMPDEST JUMPDEST PUSH2 0x6DB DUP5 DUP3 DUP6 PUSH2 0xC1D JUMP JUMPDEST POP SWAP4 SWAP3 POP POP POP JUMP JUMPDEST PUSH1 0x0 DUP2 CALLDATALOAD SWAP1 POP PUSH2 0x6F2 DUP2 PUSH2 0xDB0 JUMP JUMPDEST SWAP3 SWAP2 POP POP JUMP JUMPDEST PUSH1 0x0 DUP3 PUSH1 0x1F DUP4 ADD SLT PUSH2 0x70D JUMPI PUSH2 0x70C PUSH2 0xCBF JUMP JUMPDEST JUMPDEST DUP2 CALLDATALOAD PUSH2 0x71D DUP5 DUP3 PUSH1 0x20 DUP7 ADD PUSH2 0x5D1 JUMP JUMPDEST SWAP2 POP POP SWAP3 SWAP2 POP POP JUMP JUMPDEST PUSH1 0x0 DUP3 PUSH1 0x1F DUP4 ADD SLT PUSH2 0x73B JUMPI PUSH2 0x73A PUSH2 0xCBF JUMP JUMPDEST JUMPDEST DUP2 CALLDATALOAD PUSH2 0x74B DUP5 DUP3 PUSH1 0x20 DUP7 ADD PUSH2 0x65F JUMP JUMPDEST SWAP2 POP POP SWAP3 SWAP2 POP POP JUMP JUMPDEST PUSH1 0x0 DUP3 PUSH1 0x1F DUP4 ADD SLT PUSH2 0x769 JUMPI PUSH2 0x768 PUSH2 0xCBF JUMP JUMPDEST JUMPDEST DUP2 CALLDATALOAD PUSH2 0x779 DUP5 DUP3 PUSH1 0x20 DUP7 ADD PUSH2 0x6A1 JUMP JUMPDEST SWAP2 POP POP SWAP3 SWAP2 POP POP JUMP JUMPDEST PUSH1 0x0 PUSH1 0x20 DUP3 DUP5 SUB SLT ISZERO PUSH2 0x798 JUMPI PUSH2 0x797 PUSH2 0xCD3 JUMP JUMPDEST JUMPDEST PUSH1 0x0 PUSH2 0x7A6 DUP5 DUP3 DUP6 ADD PUSH2 0x6E3 JUMP JUMPDEST SWAP2 POP POP SWAP3 SWAP2 POP POP JUMP JUMPDEST PUSH1 0x0 PUSH1 0x20 DUP3 DUP5 SUB SLT ISZERO PUSH2 0x7C5 JUMPI PUSH2 0x7C4 PUSH2 0xCD3 JUMP JUMPDEST JUMPDEST PUSH1 0x0 DUP3 ADD CALLDATALOAD PUSH8 0xFFFFFFFFFFFFFFFF DUP2 GT ISZERO PUSH2 0x7E3 JUMPI PUSH2 0x7E2 PUSH2 0xCCE JUMP JUMPDEST JUMPDEST PUSH2 0x7EF DUP5 DUP3 DUP6 ADD PUSH2 0x754 JUMP JUMPDEST SWAP2 POP POP SWAP3 SWAP2 POP POP JUMP JUMPDEST PUSH1 0x0 DUP1 PUSH1 0x40 DUP4 DUP6 SUB SLT ISZERO PUSH2 0x80F JUMPI PUSH2 0x80E PUSH2 0xCD3 JUMP JUMPDEST JUMPDEST PUSH1 0x0 DUP4 ADD CALLDATALOAD PUSH8 0xFFFFFFFFFFFFFFFF DUP2 GT ISZERO PUSH2 0x82D JUMPI PUSH2 0x82C PUSH2 0xCCE JUMP JUMPDEST JUMPDEST PUSH2 0x839 DUP6 DUP3 DUP7 ADD PUSH2 0x754 JUMP JUMPDEST SWAP3 POP POP PUSH1 0x20 DUP4 ADD CALLDATALOAD PUSH8 0xFFFFFFFFFFFFFFFF DUP2 GT ISZERO PUSH2 0x85A JUMPI PUSH2 0x859 PUSH2 0xCCE JUMP JUMPDEST JUMPDEST PUSH2 0x866 DUP6 DUP3 DUP7 ADD PUSH2 0x6F8 JUMP JUMPDEST SWAP2 POP POP SWAP3 POP SWAP3 SWAP1 POP JUMP JUMPDEST PUSH1 0x0 DUP1 PUSH1 0x40 DUP4 DUP6 SUB SLT ISZERO PUSH2 0x887 JUMPI PUSH2 0x886 PUSH2 0xCD3 JUMP JUMPDEST JUMPDEST PUSH1 0x0 DUP4 ADD CALLDATALOAD PUSH8 0xFFFFFFFFFFFFFFFF DUP2 GT ISZERO PUSH2 0x8A5 JUMPI PUSH2 0x8A4 PUSH2 0xCCE JUMP JUMPDEST JUMPDEST PUSH2 0x8B1 DUP6 DUP3 DUP7 ADD PUSH2 0x754 JUMP JUMPDEST SWAP3 POP POP PUSH1 0x20 DUP4 ADD CALLDATALOAD PUSH8 0xFFFFFFFFFFFFFFFF DUP2 GT ISZERO PUSH2 0x8D2 JUMPI PUSH2 0x8D1 PUSH2 0xCCE JUMP JUMPDEST JUMPDEST PUSH2 0x8DE DUP6 DUP3 DUP7 ADD PUSH2 0x754 JUMP JUMPDEST SWAP2 POP POP SWAP3 POP SWAP3 SWAP1 POP JUMP JUMPDEST PUSH2 0x8F1 DUP2 PUSH2 0xBB5 JUMP JUMPDEST DUP3 MSTORE POP POP JUMP JUMPDEST PUSH1 0x0 PUSH2 0x903 DUP4 DUP6 PUSH2 0xB93 JUMP JUMPDEST SWAP4 POP PUSH2 0x910 DUP4 DUP6 DUP5 PUSH2 0xC1D JUMP JUMPDEST PUSH2 0x919 DUP4 PUSH2 0xCD8 JUMP JUMPDEST DUP5 ADD SWAP1 POP SWAP4 SWAP3 POP POP POP JUMP JUMPDEST PUSH2 0x92D DUP2 PUSH2 0xBE7 JUMP JUMPDEST DUP3 MSTORE POP POP JUMP JUMPDEST PUSH1 0x0 PUSH2 0x93E DUP3 PUSH2 0xB88 JUMP JUMPDEST PUSH2 0x948 DUP2 DUP6 PUSH2 0xBA4 JUMP JUMPDEST SWAP4 POP PUSH2 0x958 DUP2 DUP6 PUSH1 0x20 DUP7 ADD PUSH2 0xC2C JUMP JUMPDEST PUSH2 0x961 DUP2 PUSH2 0xCD8 JUMP JUMPDEST DUP5 ADD SWAP2 POP POP SWAP3 SWAP2 POP POP JUMP JUMPDEST PUSH1 0x0 PUSH2 0x979 PUSH1 0x26 DUP4 PUSH2 0xBA4 JUMP JUMPDEST SWAP2 POP PUSH2 0x984 DUP3 PUSH2 0xCE9 JUMP JUMPDEST PUSH1 0x40 DUP3 ADD SWAP1 POP SWAP2 SWAP1 POP JUMP JUMPDEST PUSH1 0x0 PUSH2 0x99C PUSH1 0x20 DUP4 PUSH2 0xBA4 JUMP JUMPDEST SWAP2 POP PUSH2 0x9A7 DUP3 PUSH2 0xD38 JUMP JUMPDEST PUSH1 0x20 DUP3 ADD SWAP1 POP SWAP2 SWAP1 POP JUMP JUMPDEST PUSH1 0x0 PUSH2 0x9BF PUSH1 0x3B DUP4 PUSH2 0xBA4 JUMP JUMPDEST SWAP2 POP PUSH2 0x9CA DUP3 PUSH2 0xD61 JUMP JUMPDEST PUSH1 0x40 DUP3 ADD SWAP1 POP SWAP2 SWAP1 POP JUMP JUMPDEST PUSH1 0x0 PUSH1 0x20 DUP3 ADD SWAP1 POP PUSH2 0x9EA PUSH1 0x0 DUP4 ADD DUP5 PUSH2 0x8E8 JUMP JUMPDEST SWAP3 SWAP2 POP POP JUMP JUMPDEST PUSH1 0x0 PUSH1 0x20 DUP3 ADD SWAP1 POP PUSH2 0xA05 PUSH1 0x0 DUP4 ADD DUP5 PUSH2 0x924 JUMP JUMPDEST SWAP3 SWAP2 POP POP JUMP JUMPDEST PUSH1 0x0 PUSH1 0xA0 DUP3 ADD SWAP1 POP DUP2 DUP2 SUB PUSH1 0x0 DUP4 ADD MSTORE PUSH2 0xA25 DUP2 DUP10 PUSH2 0x933 JUMP JUMPDEST SWAP1 POP PUSH2 0xA34 PUSH1 0x20 DUP4 ADD DUP9 PUSH2 0x8E8 JUMP JUMPDEST PUSH2 0xA41 PUSH1 0x40 DUP4 ADD DUP8 PUSH2 0x8E8 JUMP JUMPDEST DUP2 DUP2 SUB PUSH1 0x60 DUP4 ADD MSTORE PUSH2 0xA53 DUP2 DUP7 PUSH2 0x933 JUMP JUMPDEST SWAP1 POP DUP2 DUP2 SUB PUSH1 0x80 DUP4 ADD MSTORE PUSH2 0xA68 DUP2 DUP5 DUP7 PUSH2 0x8F7 JUMP JUMPDEST SWAP1 POP SWAP8 SWAP7 POP POP POP POP POP POP POP JUMP JUMPDEST PUSH1 0x0 PUSH1 0x20 DUP3 ADD SWAP1 POP DUP2 DUP2 SUB PUSH1 0x0 DUP4 ADD MSTORE PUSH2 0xA8E DUP2 PUSH2 0x96C JUMP JUMPDEST SWAP1 POP SWAP2 SWAP1 POP JUMP JUMPDEST PUSH1 0x0 PUSH1 0x20 DUP3 ADD SWAP1 POP DUP2 DUP2 SUB PUSH1 0x0 DUP4 ADD MSTORE PUSH2 0xAAE DUP2 PUSH2 0x98F JUMP JUMPDEST SWAP1 POP SWAP2 SWAP1 POP JUMP JUMPDEST PUSH1 0x0 PUSH1 0x20 DUP3 ADD SWAP1 POP DUP2 DUP2 SUB PUSH1 0x0 DUP4 ADD MSTORE PUSH2 0xACE DUP2 PUSH2 0x9B2 JUMP JUMPDEST SWAP1 POP SWAP2 SWAP1 POP JUMP JUMPDEST PUSH1 0x0 PUSH2 0xADF PUSH2 0xAF0 JUMP JUMPDEST SWAP1 POP PUSH2 0xAEB DUP3 DUP3 PUSH2 0xC5F JUMP JUMPDEST SWAP2 SWAP1 POP JUMP JUMPDEST PUSH1 0x0 PUSH1 0x40 MLOAD SWAP1 POP SWAP1 JUMP JUMPDEST PUSH1 0x0 PUSH8 0xFFFFFFFFFFFFFFFF DUP3 GT ISZERO PUSH2 0xB15 JUMPI PUSH2 0xB14 PUSH2 0xC90 JUMP JUMPDEST JUMPDEST PUSH1 0x20 DUP3 MUL SWAP1 POP PUSH1 0x20 DUP2 ADD SWAP1 POP SWAP2 SWAP1 POP JUMP JUMPDEST PUSH1 0x0 PUSH8 0xFFFFFFFFFFFFFFFF DUP3 GT ISZERO PUSH2 0xB41 JUMPI PUSH2 0xB40 PUSH2 0xC90 JUMP JUMPDEST JUMPDEST PUSH2 0xB4A DUP3 PUSH2 0xCD8 JUMP JUMPDEST SWAP1 POP PUSH1 0x20 DUP2 ADD SWAP1 POP SWAP2 SWAP1 POP JUMP JUMPDEST PUSH1 0x0 PUSH8 0xFFFFFFFFFFFFFFFF DUP3 GT ISZERO PUSH2 0xB72 JUMPI PUSH2 0xB71 PUSH2 0xC90 JUMP JUMPDEST JUMPDEST PUSH2 0xB7B DUP3 PUSH2 0xCD8 JUMP JUMPDEST SWAP1 POP PUSH1 0x20 DUP2 ADD SWAP1 POP SWAP2 SWAP1 POP JUMP JUMPDEST PUSH1 0x0 DUP2 MLOAD SWAP1 POP SWAP2 SWAP1 POP JUMP JUMPDEST PUSH1 0x0 DUP3 DUP3 MSTORE PUSH1 0x20 DUP3 ADD SWAP1 POP SWAP3 SWAP2 POP POP JUMP JUMPDEST PUSH1 0x0 DUP3 DUP3 MSTORE PUSH1 0x20 DUP3 ADD SWAP1 POP SWAP3 SWAP2 POP POP JUMP JUMPDEST PUSH1 0x0 PUSH2 0xBC0 DUP3 PUSH2 0xBC7 JUMP JUMPDEST SWAP1 POP SWAP2 SWAP1 POP JUMP JUMPDEST PUSH1 0x0 PUSH20 0xFFFFFFFFFFFFFFFFFFFFFFFFFFFFFFFFFFFFFFFF DUP3 AND SWAP1 POP SWAP2 SWAP1 POP JUMP JUMPDEST PUSH1 0x0 PUSH2 0xBF2 DUP3 PUSH2 0xBF9 JUMP JUMPDEST SWAP1 POP SWAP2 SWAP1 POP JUMP JUMPDEST PUSH1 0x0 PUSH2 0xC04 DUP3 PUSH2 0xC0B JUMP JUMPDEST SWAP1 POP SWAP2 SWAP1 POP JUMP JUMPDEST PUSH1 0x0 PUSH2 0xC16 DUP3 PUSH2 0xBC7 JUMP JUMPDEST SWAP1 POP SWAP2 SWAP1 POP JUMP JUMPDEST DUP3 DUP2 DUP4 CALLDATACOPY PUSH1 0x0 DUP4 DUP4 ADD MSTORE POP POP POP JUMP JUMPDEST PUSH1 0x0 JUMPDEST DUP4 DUP2 LT ISZERO PUSH2 0xC4A JUMPI DUP1 DUP3 ADD MLOAD DUP2 DUP5 ADD MSTORE PUSH1 0x20 DUP2 ADD SWAP1 POP PUSH2 0xC2F JUMP JUMPDEST DUP4 DUP2 GT ISZERO PUSH2 0xC59 JUMPI PUSH1 0x0 DUP5 DUP5 ADD MSTORE JUMPDEST POP POP POP POP JUMP JUMPDEST PUSH2 0xC68 DUP3 PUSH2 0xCD8 JUMP JUMPDEST DUP2 ADD DUP2 DUP2 LT PUSH8 0xFFFFFFFFFFFFFFFF DUP3 GT OR ISZERO PUSH2 0xC87 JUMPI PUSH2 0xC86 PUSH2 0xC90 JUMP JUMPDEST JUMPDEST DUP1 PUSH1 0x40 MSTORE POP POP POP JUMP JUMPDEST PUSH32 0x4E487B7100000000000000000000000000000000000000000000000000000000 PUSH1 0x0 MSTORE PUSH1 0x41 PUSH1 0x4 MSTORE PUSH1 0x24 PUSH1 0x0 REVERT JUMPDEST PUSH1 0x0 DUP1 REVERT JUMPDEST PUSH1 0x0 DUP1 REVERT JUMPDEST PUSH1 0x0 DUP1 REVERT JUMPDEST PUSH1 0x0 DUP1 REVERT JUMPDEST PUSH1 0x0 DUP1 REVERT JUMPDEST PUSH1 0x0 PUSH1 0x1F NOT PUSH1 0x1F DUP4 ADD AND SWAP1 POP SWAP2 SWAP1 POP JUMP JUMPDEST PUSH32 0x4F776E61626C653A206E6577206F776E657220697320746865207A65726F2061 PUSH1 0x0 DUP3 ADD MSTORE PUSH32 0x6464726573730000000000000000000000000000000000000000000000000000 PUSH1 0x20 DUP3 ADD MSTORE POP JUMP JUMPDEST PUSH32 0x4F776E61626C653A2063616C6C6572206973206E6F7420746865206F776E6572 PUSH1 0x0 DUP3 ADD MSTORE POP JUMP JUMPDEST PUSH32 0x43726564656E7469616C2043616C6C4261636B3A204F6E6C7920746865206F72 PUSH1 0x0 DUP3 ADD MSTORE PUSH32 0x61636C652063616E2063616C6C20746869732066756E6374696F6E0000000000 PUSH1 0x20 DUP3 ADD MSTORE POP JUMP JUMPDEST PUSH2 0xDB9 DUP2 PUSH2 0xBB5 JUMP JUMPDEST DUP2 EQ PUSH2 0xDC4 JUMPI PUSH1 0x0 DUP1 REVERT JUMPDEST POP JUMP INVALID LOG2 PUSH5 0x6970667358 0x22 SLT KECCAK256 MSTORE PUSH13 0xBF0855BF4DC8721CF189927364 LOG3 DUP12 0xC4 PC SWAP12 PUSH32 0x4F91C26331F2312001CEF164736F6C6343000807003300000000000000000000 "
				},
				"gasEstimates": {
					"creation": {
						"codeDepositCost": "716200",
						"executionCost": "infinite",
						"totalCost": "infinite"
					},
					"external": {
						"CREDENTIAL_EVENT()": "2623",
						"owner()": "2522",
						"postVibe(string,string)": "infinite",
						"postVibe_authorised(string,bytes[])": "infinite",
						"postVibe_unauthorised(string)": "infinite",
						"renounceOwnership()": "30419",
						"transferOwnership(address)": "30789"
					}
				},
				"methodIdentifiers": {
					"CREDENTIAL_EVENT()": "5f7690b3",
					"owner()": "8da5cb5b",
					"postVibe(string,string)": "be58afb0",
					"postVibe_authorised(string,bytes[])": "dce8a955",
					"postVibe_unauthorised(string)": "436e99f3",
					"renounceOwnership()": "715018a6",
					"transferOwnership(address)": "f2fde38b"
				}
			},
			"storageLayout": {
				"storage": [
					{
						"astId": 7,
						"contract": "facets/CommunicationFacet.sol:CommunicationFacet",
						"label": "_owner",
						"offset": 0,
						"slot": "0",
						"type": "t_address"
					},
					{
						"astId": 222,
						"contract": "facets/CommunicationFacet.sol:CommunicationFacet",
						"label": "CREDENTIAL_ORACLE",
						"offset": 0,
						"slot": "1",
						"type": "t_address"
					},
					{
						"astId": 225,
						"contract": "facets/CommunicationFacet.sol:CommunicationFacet",
						"label": "CREDENTIAL_EVENT",
						"offset": 0,
						"slot": "2",
						"type": "t_contract(CredentialEventFacet)217"
					}
				],
				"types": {
					"t_address": {
						"encoding": "inplace",
						"label": "address",
						"numberOfBytes": "20"
					},
					"t_contract(CredentialEventFacet)217": {
						"encoding": "inplace",
						"label": "contract CredentialEventFacet",
						"numberOfBytes": "20"
					}
				}
			},
			"userdoc": {
				"kind": "user",
				"methods": {},
				"version": 1
			}
		}
	}
}