{
	"CommunicationFacet.sol": {
		"CommunicationFacet": {
			"abi": [
				{
					"inputs": [
						{
							"internalType": "contract CredentialEventFacet",
							"name": "_credentialOracle",
							"type": "address"
						}
					],
					"stateMutability": "nonpayable",
					"type": "constructor"
				},
				{
					"anonymous": false,
					"inputs": [
						{
							"indexed": true,
							"internalType": "address",
							"name": "previousOwner",
							"type": "address"
						},
						{
							"indexed": true,
							"internalType": "address",
							"name": "newOwner",
							"type": "address"
						}
					],
					"name": "OwnershipTransferred",
					"type": "event"
				},
				{
					"inputs": [],
					"name": "CREDENTIAL_EVENT",
					"outputs": [
						{
							"internalType": "contract CredentialEventFacet",
							"name": "",
							"type": "address"
						}
					],
					"stateMutability": "view",
					"type": "function"
				},
				{
					"inputs": [
						{
							"internalType": "string",
							"name": "someParam",
							"type": "string"
						},
						{
							"internalType": "string",
							"name": "_listId",
							"type": "string"
						}
					],
					"name": "downVoteVibe",
					"outputs": [],
					"stateMutability": "nonpayable",
					"type": "function"
				},
				{
					"inputs": [
						{
							"internalType": "string",
							"name": "someParam",
							"type": "string"
						},
						{
							"internalType": "bytes[]",
							"name": "proof",
							"type": "bytes[]"
						}
					],
					"name": "downVoteVibe_authorised",
					"outputs": [],
					"stateMutability": "nonpayable",
					"type": "function"
				},
				{
					"inputs": [
						{
							"internalType": "string",
							"name": "someParam",
							"type": "string"
						}
					],
					"name": "downVoteVibe_unauthorised",
					"outputs": [],
					"stateMutability": "nonpayable",
					"type": "function"
				},
				{
					"inputs": [],
					"name": "owner",
					"outputs": [
						{
							"internalType": "address",
							"name": "",
							"type": "address"
						}
					],
					"stateMutability": "view",
					"type": "function"
				},
				{
					"inputs": [
						{
							"internalType": "string",
							"name": "someParam",
							"type": "string"
						},
						{
							"internalType": "string",
							"name": "_listId",
							"type": "string"
						},
						{
							"internalType": "string",
							"name": "_testing",
							"type": "string"
						}
					],
					"name": "postVibe",
					"outputs": [],
					"stateMutability": "nonpayable",
					"type": "function"
				},
				{
					"inputs": [
						{
							"internalType": "string",
							"name": "someParam",
							"type": "string"
						},
						{
							"internalType": "bytes[]",
							"name": "proof",
							"type": "bytes[]"
						}
					],
					"name": "postVibe_authorised",
					"outputs": [],
					"stateMutability": "nonpayable",
					"type": "function"
				},
				{
					"inputs": [
						{
							"internalType": "string",
							"name": "someParam",
							"type": "string"
						}
					],
					"name": "postVibe_unauthorised",
					"outputs": [],
					"stateMutability": "nonpayable",
					"type": "function"
				},
				{
					"inputs": [],
					"name": "renounceOwnership",
					"outputs": [],
					"stateMutability": "nonpayable",
					"type": "function"
				},
				{
					"inputs": [
						{
							"internalType": "string",
							"name": "someParam",
							"type": "string"
						}
					],
					"name": "setInboxPriceForCredential",
					"outputs": [],
					"stateMutability": "nonpayable",
					"type": "function"
				},
				{
					"inputs": [],
					"name": "setUpVibePool",
					"outputs": [],
					"stateMutability": "nonpayable",
					"type": "function"
				},
				{
					"inputs": [],
					"name": "settleVibes",
					"outputs": [],
					"stateMutability": "nonpayable",
					"type": "function"
				},
				{
					"inputs": [
						{
							"internalType": "address",
							"name": "newOwner",
							"type": "address"
						}
					],
					"name": "transferOwnership",
					"outputs": [],
					"stateMutability": "nonpayable",
					"type": "function"
				},
				{
					"inputs": [
						{
							"internalType": "string",
							"name": "someParam",
							"type": "string"
						},
						{
							"internalType": "string",
							"name": "_listId",
							"type": "string"
						}
					],
					"name": "upVoteVibe",
					"outputs": [],
					"stateMutability": "nonpayable",
					"type": "function"
				},
				{
					"inputs": [
						{
							"internalType": "string",
							"name": "someParam",
							"type": "string"
						},
						{
							"internalType": "bytes[]",
							"name": "proof",
							"type": "bytes[]"
						}
					],
					"name": "upVoteVibe_authorised",
					"outputs": [],
					"stateMutability": "nonpayable",
					"type": "function"
				},
				{
					"inputs": [
						{
							"internalType": "string",
							"name": "someParam",
							"type": "string"
						}
					],
					"name": "upVoteVibe_unauthorised",
					"outputs": [],
					"stateMutability": "nonpayable",
					"type": "function"
				}
			],
			"devdoc": {
				"kind": "dev",
				"methods": {
					"owner()": {
						"details": "Returns the address of the current owner."
					},
					"renounceOwnership()": {
						"details": "Leaves the contract without owner. It will not be possible to call `onlyOwner` functions anymore. Can only be called by the current owner. NOTE: Renouncing ownership will leave the contract without an owner, thereby removing any functionality that is only available to the owner."
					},
					"transferOwnership(address)": {
						"details": "Transfers ownership of the contract to a new account (`newOwner`). Can only be called by the current owner."
					}
				},
				"version": 1
			},
			"evm": {
				"assembly": "    /* \"CommunicationFacet.sol\":141:1575  contract CommunicationFacet is Ownable, GateableFacet {... */\n  mstore(0x40, 0x80)\n    /* \"CommunicationFacet.sol\":198:286  constructor(CredentialEventFacet _credentialOracle) GateableFacet(_credentialOracle) {... */\n  callvalue\n  dup1\n  iszero\n  tag_1\n  jumpi\n  0x00\n  dup1\n  revert\ntag_1:\n  pop\n  mload(0x40)\n  sub(codesize, bytecodeSize)\n  dup1\n  bytecodeSize\n  dup4\n  codecopy\n  dup2\n  dup2\n  add\n  0x40\n  mstore\n  dup2\n  add\n  swap1\n  tag_2\n  swap2\n  swap1\n  tag_3\n  jump\t// in\ntag_2:\n    /* \"CommunicationFacet.sol\":264:281  _credentialOracle */\n  dup1\n    /* \"@openzeppelin/contracts/access/Ownable.sol\":921:953  _transferOwnership(_msgSender()) */\n  tag_8\n    /* \"@openzeppelin/contracts/access/Ownable.sol\":940:952  _msgSender() */\n  tag_9\n    /* \"@openzeppelin/contracts/access/Ownable.sol\":940:950  _msgSender */\n  shl(0x20, tag_10)\n    /* \"@openzeppelin/contracts/access/Ownable.sol\":940:952  _msgSender() */\n  0x20\n  shr\n  jump\t// in\ntag_9:\n    /* \"@openzeppelin/contracts/access/Ownable.sol\":921:939  _transferOwnership */\n  shl(0x20, tag_11)\n    /* \"@openzeppelin/contracts/access/Ownable.sol\":921:953  _transferOwnership(_msgSender()) */\n  0x20\n  shr\n  jump\t// in\ntag_8:\n    /* \"GateableFacet.sol\":843:860  _credentialOracle */\n  dup1\n    /* \"GateableFacet.sol\":815:832  CREDENTIAL_ORACLE */\n  0x01\n  0x00\n    /* \"GateableFacet.sol\":815:861  CREDENTIAL_ORACLE = address(_credentialOracle) */\n  0x0100\n  exp\n  dup2\n  sload\n  dup2\n  0xffffffffffffffffffffffffffffffffffffffff\n  mul\n  not\n  and\n  swap1\n  dup4\n  0xffffffffffffffffffffffffffffffffffffffff\n  and\n  mul\n  or\n  swap1\n  sstore\n  pop\n    /* \"GateableFacet.sol\":886:903  _credentialOracle */\n  dup1\n    /* \"GateableFacet.sol\":867:883  CREDENTIAL_EVENT */\n  0x02\n  0x00\n    /* \"GateableFacet.sol\":867:903  CREDENTIAL_EVENT = _credentialOracle */\n  0x0100\n  exp\n  dup2\n  sload\n  dup2\n  0xffffffffffffffffffffffffffffffffffffffff\n  mul\n  not\n  and\n  swap1\n  dup4\n  0xffffffffffffffffffffffffffffffffffffffff\n  and\n  mul\n  or\n  swap1\n  sstore\n  pop\n    /* \"GateableFacet.sol\":757:906  constructor(CredentialEventFacet _credentialOracle) {... */\n  pop\n    /* \"CommunicationFacet.sol\":198:286  constructor(CredentialEventFacet _credentialOracle) GateableFacet(_credentialOracle) {... */\n  pop\n    /* \"CommunicationFacet.sol\":141:1575  contract CommunicationFacet is Ownable, GateableFacet {... */\n  jump(tag_14)\n    /* \"@openzeppelin/contracts/utils/Context.sol\":640:736  function _msgSender() internal view virtual returns (address) {... */\ntag_10:\n    /* \"@openzeppelin/contracts/utils/Context.sol\":693:700  address */\n  0x00\n    /* \"@openzeppelin/contracts/utils/Context.sol\":719:729  msg.sender */\n  caller\n    /* \"@openzeppelin/contracts/utils/Context.sol\":712:729  return msg.sender */\n  swap1\n  pop\n    /* \"@openzeppelin/contracts/utils/Context.sol\":640:736  function _msgSender() internal view virtual returns (address) {... */\n  swap1\n  jump\t// out\n    /* \"@openzeppelin/contracts/access/Ownable.sol\":2270:2457  function _transferOwnership(address newOwner) internal virtual {... */\ntag_11:\n    /* \"@openzeppelin/contracts/access/Ownable.sol\":2343:2359  address oldOwner */\n  0x00\n    /* \"@openzeppelin/contracts/access/Ownable.sol\":2362:2368  _owner */\n  dup1\n  0x00\n  swap1\n  sload\n  swap1\n  0x0100\n  exp\n  swap1\n  div\n  0xffffffffffffffffffffffffffffffffffffffff\n  and\n    /* \"@openzeppelin/contracts/access/Ownable.sol\":2343:2368  address oldOwner = _owner */\n  swap1\n  pop\n    /* \"@openzeppelin/contracts/access/Ownable.sol\":2387:2395  newOwner */\n  dup2\n    /* \"@openzeppelin/contracts/access/Ownable.sol\":2378:2384  _owner */\n  0x00\n  dup1\n    /* \"@openzeppelin/contracts/access/Ownable.sol\":2378:2395  _owner = newOwner */\n  0x0100\n  exp\n  dup2\n  sload\n  dup2\n  0xffffffffffffffffffffffffffffffffffffffff\n  mul\n  not\n  and\n  swap1\n  dup4\n  0xffffffffffffffffffffffffffffffffffffffff\n  and\n  mul\n  or\n  swap1\n  sstore\n  pop\n    /* \"@openzeppelin/contracts/access/Ownable.sol\":2441:2449  newOwner */\n  dup2\n    /* \"@openzeppelin/contracts/access/Ownable.sol\":2410:2450  OwnershipTransferred(oldOwner, newOwner) */\n  0xffffffffffffffffffffffffffffffffffffffff\n  and\n    /* \"@openzeppelin/contracts/access/Ownable.sol\":2431:2439  oldOwner */\n  dup2\n    /* \"@openzeppelin/contracts/access/Ownable.sol\":2410:2450  OwnershipTransferred(oldOwner, newOwner) */\n  0xffffffffffffffffffffffffffffffffffffffff\n  and\n  0x8be0079c531659141344cd1fd0a4f28419497f9722a3daafe3b4186f6b6457e0\n  mload(0x40)\n  mload(0x40)\n  dup1\n  swap2\n  sub\n  swap1\n  log3\n    /* \"@openzeppelin/contracts/access/Ownable.sol\":2333:2457  {... */\n  pop\n    /* \"@openzeppelin/contracts/access/Ownable.sol\":2270:2457  function _transferOwnership(address newOwner) internal virtual {... */\n  pop\n  jump\t// out\n    /* \"#utility.yul\":7:206   */\ntag_18:\n    /* \"#utility.yul\":92:97   */\n  0x00\n    /* \"#utility.yul\":123:129   */\n  dup2\n    /* \"#utility.yul\":117:130   */\n  mload\n    /* \"#utility.yul\":108:130   */\n  swap1\n  pop\n    /* \"#utility.yul\":139:200   */\n  tag_20\n    /* \"#utility.yul\":194:199   */\n  dup2\n    /* \"#utility.yul\":139:200   */\n  tag_21\n  jump\t// in\ntag_20:\n    /* \"#utility.yul\":7:206   */\n  swap3\n  swap2\n  pop\n  pop\n  jump\t// out\n    /* \"#utility.yul\":212:619   */\ntag_3:\n    /* \"#utility.yul\":310:316   */\n  0x00\n    /* \"#utility.yul\":359:361   */\n  0x20\n    /* \"#utility.yul\":347:356   */\n  dup3\n    /* \"#utility.yul\":338:345   */\n  dup5\n    /* \"#utility.yul\":334:357   */\n  sub\n    /* \"#utility.yul\":330:362   */\n  slt\n    /* \"#utility.yul\":327:446   */\n  iszero\n  tag_23\n  jumpi\n    /* \"#utility.yul\":365:444   */\n  tag_24\n  tag_25\n  jump\t// in\ntag_24:\n    /* \"#utility.yul\":327:446   */\ntag_23:\n    /* \"#utility.yul\":485:486   */\n  0x00\n    /* \"#utility.yul\":510:602   */\n  tag_26\n    /* \"#utility.yul\":594:601   */\n  dup5\n    /* \"#utility.yul\":585:591   */\n  dup3\n    /* \"#utility.yul\":574:583   */\n  dup6\n    /* \"#utility.yul\":570:592   */\n  add\n    /* \"#utility.yul\":510:602   */\n  tag_18\n  jump\t// in\ntag_26:\n    /* \"#utility.yul\":500:602   */\n  swap2\n  pop\n    /* \"#utility.yul\":456:612   */\n  pop\n    /* \"#utility.yul\":212:619   */\n  swap3\n  swap2\n  pop\n  pop\n  jump\t// out\n    /* \"#utility.yul\":706:802   */\ntag_29:\n    /* \"#utility.yul\":743:750   */\n  0x00\n    /* \"#utility.yul\":772:796   */\n  tag_31\n    /* \"#utility.yul\":790:795   */\n  dup3\n    /* \"#utility.yul\":772:796   */\n  tag_32\n  jump\t// in\ntag_31:\n    /* \"#utility.yul\":761:796   */\n  swap1\n  pop\n    /* \"#utility.yul\":706:802   */\n  swap2\n  swap1\n  pop\n  jump\t// out\n    /* \"#utility.yul\":808:932   */\ntag_33:\n    /* \"#utility.yul\":873:880   */\n  0x00\n    /* \"#utility.yul\":902:926   */\n  tag_35\n    /* \"#utility.yul\":920:925   */\n  dup3\n    /* \"#utility.yul\":902:926   */\n  tag_29\n  jump\t// in\ntag_35:\n    /* \"#utility.yul\":891:926   */\n  swap1\n  pop\n    /* \"#utility.yul\":808:932   */\n  swap2\n  swap1\n  pop\n  jump\t// out\n    /* \"#utility.yul\":938:1064   */\ntag_32:\n    /* \"#utility.yul\":975:982   */\n  0x00\n    /* \"#utility.yul\":1015:1057   */\n  0xffffffffffffffffffffffffffffffffffffffff\n    /* \"#utility.yul\":1008:1013   */\n  dup3\n    /* \"#utility.yul\":1004:1058   */\n  and\n    /* \"#utility.yul\":993:1058   */\n  swap1\n  pop\n    /* \"#utility.yul\":938:1064   */\n  swap2\n  swap1\n  pop\n  jump\t// out\n    /* \"#utility.yul\":1193:1310   */\ntag_25:\n    /* \"#utility.yul\":1302:1303   */\n  0x00\n    /* \"#utility.yul\":1299:1300   */\n  dup1\n    /* \"#utility.yul\":1292:1304   */\n  revert\n    /* \"#utility.yul\":1316:1494   */\ntag_21:\n    /* \"#utility.yul\":1417:1469   */\n  tag_41\n    /* \"#utility.yul\":1463:1468   */\n  dup2\n    /* \"#utility.yul\":1417:1469   */\n  tag_33\n  jump\t// in\ntag_41:\n    /* \"#utility.yul\":1410:1415   */\n  dup2\n    /* \"#utility.yul\":1407:1470   */\n  eq\n    /* \"#utility.yul\":1397:1488   */\n  tag_42\n  jumpi\n    /* \"#utility.yul\":1484:1485   */\n  0x00\n    /* \"#utility.yul\":1481:1482   */\n  dup1\n    /* \"#utility.yul\":1474:1486   */\n  revert\n    /* \"#utility.yul\":1397:1488   */\ntag_42:\n    /* \"#utility.yul\":1316:1494   */\n  pop\n  jump\t// out\n    /* \"CommunicationFacet.sol\":141:1575  contract CommunicationFacet is Ownable, GateableFacet {... */\ntag_14:\n  dataSize(sub_0)\n  dup1\n  dataOffset(sub_0)\n  0x00\n  codecopy\n  0x00\n  return\nstop\n\nsub_0: assembly {\n        /* \"CommunicationFacet.sol\":141:1575  contract CommunicationFacet is Ownable, GateableFacet {... */\n      mstore(0x40, 0x80)\n      callvalue\n      dup1\n      iszero\n      tag_1\n      jumpi\n      0x00\n      dup1\n      revert\n    tag_1:\n      pop\n      jumpi(tag_2, lt(calldatasize, 0x04))\n      shr(0xe0, calldataload(0x00))\n      dup1\n      0xa890e381\n      gt\n      tag_19\n      jumpi\n      dup1\n      0xcd680492\n      gt\n      tag_20\n      jumpi\n      dup1\n      0xcd680492\n      eq\n      tag_15\n      jumpi\n      dup1\n      0xdce8a955\n      eq\n      tag_16\n      jumpi\n      dup1\n      0xf2fde38b\n      eq\n      tag_17\n      jumpi\n      dup1\n      0xf37d9ecd\n      eq\n      tag_18\n      jumpi\n      jump(tag_2)\n    tag_20:\n      dup1\n      0xa890e381\n      eq\n      tag_11\n      jumpi\n      dup1\n      0xb0c7f4c0\n      eq\n      tag_12\n      jumpi\n      dup1\n      0xc113344b\n      eq\n      tag_13\n      jumpi\n      dup1\n      0xc1d15676\n      eq\n      tag_14\n      jumpi\n      jump(tag_2)\n    tag_19:\n      dup1\n      0x787a9a95\n      gt\n      tag_21\n      jumpi\n      dup1\n      0x787a9a95\n      eq\n      tag_7\n      jumpi\n      dup1\n      0x7fa25879\n      eq\n      tag_8\n      jumpi\n      dup1\n      0x89aeb071\n      eq\n      tag_9\n      jumpi\n      dup1\n      0x8da5cb5b\n      eq\n      tag_10\n      jumpi\n      jump(tag_2)\n    tag_21:\n      dup1\n      0x0bf0ea18\n      eq\n      tag_3\n      jumpi\n      dup1\n      0x436e99f3\n      eq\n      tag_4\n      jumpi\n      dup1\n      0x5f7690b3\n      eq\n      tag_5\n      jumpi\n      dup1\n      0x715018a6\n      eq\n      tag_6\n      jumpi\n    tag_2:\n      0x00\n      dup1\n      revert\n        /* \"CommunicationFacet.sol\":1226:1364  function downVoteVibe_authorised(string memory someParam, bytes[] memory proof) credentialCallback external {... */\n    tag_3:\n      tag_22\n      0x04\n      dup1\n      calldatasize\n      sub\n      dup2\n      add\n      swap1\n      tag_23\n      swap2\n      swap1\n      tag_24\n      jump\t// in\n    tag_23:\n      tag_25\n      jump\t// in\n    tag_22:\n      stop\n        /* \"CommunicationFacet.sol\":630:747  function postVibe_unauthorised(string memory someParam) credentialCallback external {... */\n    tag_4:\n      tag_26\n      0x04\n      dup1\n      calldatasize\n      sub\n      dup2\n      add\n      swap1\n      tag_27\n      swap2\n      swap1\n      tag_28\n      jump\t// in\n    tag_27:\n      tag_29\n      jump\t// in\n    tag_26:\n      stop\n        /* \"GateableFacet.sol\":165:209  CredentialEventFacet public CREDENTIAL_EVENT */\n    tag_5:\n      tag_30\n      tag_31\n      jump\t// in\n    tag_30:\n      mload(0x40)\n      tag_32\n      swap2\n      swap1\n      tag_33\n      jump\t// in\n    tag_32:\n      mload(0x40)\n      dup1\n      swap2\n      sub\n      swap1\n      return\n        /* \"@openzeppelin/contracts/access/Ownable.sol\":1668:1769  function renounceOwnership() public virtual onlyOwner {... */\n    tag_6:\n      tag_34\n      tag_35\n      jump\t// in\n    tag_34:\n      stop\n        /* \"CommunicationFacet.sol\":995:1114  function upVoteVibe_unauthorised(string memory someParam) credentialCallback external {... */\n    tag_7:\n      tag_36\n      0x04\n      dup1\n      calldatasize\n      sub\n      dup2\n      add\n      swap1\n      tag_37\n      swap2\n      swap1\n      tag_28\n      jump\t// in\n    tag_37:\n      tag_38\n      jump\t// in\n    tag_36:\n      stop\n        /* \"CommunicationFacet.sol\":1366:1487  function downVoteVibe_unauthorised(string memory someParam) credentialCallback external {... */\n    tag_8:\n      tag_39\n      0x04\n      dup1\n      calldatasize\n      sub\n      dup2\n      add\n      swap1\n      tag_40\n      swap2\n      swap1\n      tag_28\n      jump\t// in\n    tag_40:\n      tag_41\n      jump\t// in\n    tag_39:\n      stop\n        /* \"CommunicationFacet.sol\":1490:1534  function settleVibes() external onlyOwner {} */\n    tag_9:\n      tag_42\n      tag_43\n      jump\t// in\n    tag_42:\n      stop\n        /* \"@openzeppelin/contracts/access/Ownable.sol\":1036:1121  function owner() public view virtual returns (address) {... */\n    tag_10:\n      tag_44\n      tag_45\n      jump\t// in\n    tag_44:\n      mload(0x40)\n      tag_46\n      swap2\n      swap1\n      tag_47\n      jump\t// in\n    tag_46:\n      mload(0x40)\n      dup1\n      swap2\n      sub\n      swap1\n      return\n        /* \"CommunicationFacet.sol\":1117:1224  function downVoteVibe(string memory someParam, string memory _listId) has_credential(_listId) external {... */\n    tag_11:\n      tag_48\n      0x04\n      dup1\n      calldatasize\n      sub\n      dup2\n      add\n      swap1\n      tag_49\n      swap2\n      swap1\n      tag_50\n      jump\t// in\n    tag_49:\n      tag_51\n      jump\t// in\n    tag_48:\n      stop\n        /* \"CommunicationFacet.sol\":857:993  function upVoteVibe_authorised(string memory someParam, bytes[] memory proof) credentialCallback external {... */\n    tag_12:\n      tag_52\n      0x04\n      dup1\n      calldatasize\n      sub\n      dup2\n      add\n      swap1\n      tag_53\n      swap2\n      swap1\n      tag_24\n      jump\t// in\n    tag_53:\n      tag_54\n      jump\t// in\n    tag_52:\n      stop\n        /* \"CommunicationFacet.sol\":750:855  function upVoteVibe(string memory someParam, string memory _listId) has_credential(_listId) external {... */\n    tag_13:\n      tag_55\n      0x04\n      dup1\n      calldatasize\n      sub\n      dup2\n      add\n      swap1\n      tag_56\n      swap2\n      swap1\n      tag_50\n      jump\t// in\n    tag_56:\n      tag_57\n      jump\t// in\n    tag_55:\n      stop\n        /* \"CommunicationFacet.sol\":1536:1572  function setUpVibePool() external {} */\n    tag_14:\n      tag_58\n      tag_59\n      jump\t// in\n    tag_58:\n      stop\n        /* \"CommunicationFacet.sol\":289:363  function setInboxPriceForCredential(string memory someParam) external {... */\n    tag_15:\n      tag_60\n      0x04\n      dup1\n      calldatasize\n      sub\n      dup2\n      add\n      swap1\n      tag_61\n      swap2\n      swap1\n      tag_28\n      jump\t// in\n    tag_61:\n      tag_62\n      jump\t// in\n    tag_60:\n      stop\n        /* \"CommunicationFacet.sol\":494:628  function postVibe_authorised(string memory someParam, bytes[] memory proof) credentialCallback external {... */\n    tag_16:\n      tag_63\n      0x04\n      dup1\n      calldatasize\n      sub\n      dup2\n      add\n      swap1\n      tag_64\n      swap2\n      swap1\n      tag_24\n      jump\t// in\n    tag_64:\n      tag_65\n      jump\t// in\n    tag_63:\n      stop\n        /* \"@openzeppelin/contracts/access/Ownable.sol\":1918:2116  function transferOwnership(address newOwner) public virtual onlyOwner {... */\n    tag_17:\n      tag_66\n      0x04\n      dup1\n      calldatasize\n      sub\n      dup2\n      add\n      swap1\n      tag_67\n      swap2\n      swap1\n      tag_68\n      jump\t// in\n    tag_67:\n      tag_69\n      jump\t// in\n    tag_66:\n      stop\n        /* \"CommunicationFacet.sol\":366:492  function postVibe(string memory someParam, string memory _listId, string memory _testing) has_credential(_listId) external {... */\n    tag_18:\n      tag_70\n      0x04\n      dup1\n      calldatasize\n      sub\n      dup2\n      add\n      swap1\n      tag_71\n      swap2\n      swap1\n      tag_72\n      jump\t// in\n    tag_71:\n      tag_73\n      jump\t// in\n    tag_70:\n      stop\n        /* \"CommunicationFacet.sol\":1226:1364  function downVoteVibe_authorised(string memory someParam, bytes[] memory proof) credentialCallback external {... */\n    tag_25:\n        /* \"GateableFacet.sol\":666:683  CREDENTIAL_ORACLE */\n      0x01\n      0x00\n      swap1\n      sload\n      swap1\n      0x0100\n      exp\n      swap1\n      div\n      0xffffffffffffffffffffffffffffffffffffffff\n      and\n        /* \"GateableFacet.sol\":652:683  msg.sender == CREDENTIAL_ORACLE */\n      0xffffffffffffffffffffffffffffffffffffffff\n      and\n        /* \"GateableFacet.sol\":652:662  msg.sender */\n      caller\n        /* \"GateableFacet.sol\":652:683  msg.sender == CREDENTIAL_ORACLE */\n      0xffffffffffffffffffffffffffffffffffffffff\n      and\n      eq\n        /* \"GateableFacet.sol\":644:747  require(msg.sender == CREDENTIAL_ORACLE, \"Credential CallBack: Only the oracle can call this function\") */\n      tag_75\n      jumpi\n      mload(0x40)\n      0x08c379a000000000000000000000000000000000000000000000000000000000\n      dup2\n      mstore\n      0x04\n      add\n      tag_76\n      swap1\n      tag_77\n      jump\t// in\n    tag_76:\n      mload(0x40)\n      dup1\n      swap2\n      sub\n      swap1\n      revert\n    tag_75:\n        /* \"CommunicationFacet.sol\":1226:1364  function downVoteVibe_authorised(string memory someParam, bytes[] memory proof) credentialCallback external {... */\n      pop\n      pop\n      jump\t// out\n        /* \"CommunicationFacet.sol\":630:747  function postVibe_unauthorised(string memory someParam) credentialCallback external {... */\n    tag_29:\n        /* \"GateableFacet.sol\":666:683  CREDENTIAL_ORACLE */\n      0x01\n      0x00\n      swap1\n      sload\n      swap1\n      0x0100\n      exp\n      swap1\n      div\n      0xffffffffffffffffffffffffffffffffffffffff\n      and\n        /* \"GateableFacet.sol\":652:683  msg.sender == CREDENTIAL_ORACLE */\n      0xffffffffffffffffffffffffffffffffffffffff\n      and\n        /* \"GateableFacet.sol\":652:662  msg.sender */\n      caller\n        /* \"GateableFacet.sol\":652:683  msg.sender == CREDENTIAL_ORACLE */\n      0xffffffffffffffffffffffffffffffffffffffff\n      and\n      eq\n        /* \"GateableFacet.sol\":644:747  require(msg.sender == CREDENTIAL_ORACLE, \"Credential CallBack: Only the oracle can call this function\") */\n      tag_80\n      jumpi\n      mload(0x40)\n      0x08c379a000000000000000000000000000000000000000000000000000000000\n      dup2\n      mstore\n      0x04\n      add\n      tag_81\n      swap1\n      tag_77\n      jump\t// in\n    tag_81:\n      mload(0x40)\n      dup1\n      swap2\n      sub\n      swap1\n      revert\n    tag_80:\n        /* \"CommunicationFacet.sol\":630:747  function postVibe_unauthorised(string memory someParam) credentialCallback external {... */\n      pop\n      jump\t// out\n        /* \"GateableFacet.sol\":165:209  CredentialEventFacet public CREDENTIAL_EVENT */\n    tag_31:\n      0x02\n      0x00\n      swap1\n      sload\n      swap1\n      0x0100\n      exp\n      swap1\n      div\n      0xffffffffffffffffffffffffffffffffffffffff\n      and\n      dup2\n      jump\t// out\n        /* \"@openzeppelin/contracts/access/Ownable.sol\":1668:1769  function renounceOwnership() public virtual onlyOwner {... */\n    tag_35:\n        /* \"@openzeppelin/contracts/access/Ownable.sol\":1259:1271  _msgSender() */\n      tag_84\n        /* \"@openzeppelin/contracts/access/Ownable.sol\":1259:1269  _msgSender */\n      tag_85\n        /* \"@openzeppelin/contracts/access/Ownable.sol\":1259:1271  _msgSender() */\n      jump\t// in\n    tag_84:\n        /* \"@openzeppelin/contracts/access/Ownable.sol\":1248:1271  owner() == _msgSender() */\n      0xffffffffffffffffffffffffffffffffffffffff\n      and\n        /* \"@openzeppelin/contracts/access/Ownable.sol\":1248:1255  owner() */\n      tag_86\n        /* \"@openzeppelin/contracts/access/Ownable.sol\":1248:1253  owner */\n      tag_45\n        /* \"@openzeppelin/contracts/access/Ownable.sol\":1248:1255  owner() */\n      jump\t// in\n    tag_86:\n        /* \"@openzeppelin/contracts/access/Ownable.sol\":1248:1271  owner() == _msgSender() */\n      0xffffffffffffffffffffffffffffffffffffffff\n      and\n      eq\n        /* \"@openzeppelin/contracts/access/Ownable.sol\":1240:1308  require(owner() == _msgSender(), \"Ownable: caller is not the owner\") */\n      tag_87\n      jumpi\n      mload(0x40)\n      0x08c379a000000000000000000000000000000000000000000000000000000000\n      dup2\n      mstore\n      0x04\n      add\n      tag_88\n      swap1\n      tag_89\n      jump\t// in\n    tag_88:\n      mload(0x40)\n      dup1\n      swap2\n      sub\n      swap1\n      revert\n    tag_87:\n        /* \"@openzeppelin/contracts/access/Ownable.sol\":1732:1762  _transferOwnership(address(0)) */\n      tag_91\n        /* \"@openzeppelin/contracts/access/Ownable.sol\":1759:1760  0 */\n      0x00\n        /* \"@openzeppelin/contracts/access/Ownable.sol\":1732:1750  _transferOwnership */\n      tag_92\n        /* \"@openzeppelin/contracts/access/Ownable.sol\":1732:1762  _transferOwnership(address(0)) */\n      jump\t// in\n    tag_91:\n        /* \"@openzeppelin/contracts/access/Ownable.sol\":1668:1769  function renounceOwnership() public virtual onlyOwner {... */\n      jump\t// out\n        /* \"CommunicationFacet.sol\":995:1114  function upVoteVibe_unauthorised(string memory someParam) credentialCallback external {... */\n    tag_38:\n        /* \"GateableFacet.sol\":666:683  CREDENTIAL_ORACLE */\n      0x01\n      0x00\n      swap1\n      sload\n      swap1\n      0x0100\n      exp\n      swap1\n      div\n      0xffffffffffffffffffffffffffffffffffffffff\n      and\n        /* \"GateableFacet.sol\":652:683  msg.sender == CREDENTIAL_ORACLE */\n      0xffffffffffffffffffffffffffffffffffffffff\n      and\n        /* \"GateableFacet.sol\":652:662  msg.sender */\n      caller\n        /* \"GateableFacet.sol\":652:683  msg.sender == CREDENTIAL_ORACLE */\n      0xffffffffffffffffffffffffffffffffffffffff\n      and\n      eq\n        /* \"GateableFacet.sol\":644:747  require(msg.sender == CREDENTIAL_ORACLE, \"Credential CallBack: Only the oracle can call this function\") */\n      tag_94\n      jumpi\n      mload(0x40)\n      0x08c379a000000000000000000000000000000000000000000000000000000000\n      dup2\n      mstore\n      0x04\n      add\n      tag_95\n      swap1\n      tag_77\n      jump\t// in\n    tag_95:\n      mload(0x40)\n      dup1\n      swap2\n      sub\n      swap1\n      revert\n    tag_94:\n        /* \"CommunicationFacet.sol\":995:1114  function upVoteVibe_unauthorised(string memory someParam) credentialCallback external {... */\n      pop\n      jump\t// out\n        /* \"CommunicationFacet.sol\":1366:1487  function downVoteVibe_unauthorised(string memory someParam) credentialCallback external {... */\n    tag_41:\n        /* \"GateableFacet.sol\":666:683  CREDENTIAL_ORACLE */\n      0x01\n      0x00\n      swap1\n      sload\n      swap1\n      0x0100\n      exp\n      swap1\n      div\n      0xffffffffffffffffffffffffffffffffffffffff\n      and\n        /* \"GateableFacet.sol\":652:683  msg.sender == CREDENTIAL_ORACLE */\n      0xffffffffffffffffffffffffffffffffffffffff\n      and\n        /* \"GateableFacet.sol\":652:662  msg.sender */\n      caller\n        /* \"GateableFacet.sol\":652:683  msg.sender == CREDENTIAL_ORACLE */\n      0xffffffffffffffffffffffffffffffffffffffff\n      and\n      eq\n        /* \"GateableFacet.sol\":644:747  require(msg.sender == CREDENTIAL_ORACLE, \"Credential CallBack: Only the oracle can call this function\") */\n      tag_98\n      jumpi\n      mload(0x40)\n      0x08c379a000000000000000000000000000000000000000000000000000000000\n      dup2\n      mstore\n      0x04\n      add\n      tag_99\n      swap1\n      tag_77\n      jump\t// in\n    tag_99:\n      mload(0x40)\n      dup1\n      swap2\n      sub\n      swap1\n      revert\n    tag_98:\n        /* \"CommunicationFacet.sol\":1366:1487  function downVoteVibe_unauthorised(string memory someParam) credentialCallback external {... */\n      pop\n      jump\t// out\n        /* \"CommunicationFacet.sol\":1490:1534  function settleVibes() external onlyOwner {} */\n    tag_43:\n        /* \"@openzeppelin/contracts/access/Ownable.sol\":1259:1271  _msgSender() */\n      tag_102\n        /* \"@openzeppelin/contracts/access/Ownable.sol\":1259:1269  _msgSender */\n      tag_85\n        /* \"@openzeppelin/contracts/access/Ownable.sol\":1259:1271  _msgSender() */\n      jump\t// in\n    tag_102:\n        /* \"@openzeppelin/contracts/access/Ownable.sol\":1248:1271  owner() == _msgSender() */\n      0xffffffffffffffffffffffffffffffffffffffff\n      and\n        /* \"@openzeppelin/contracts/access/Ownable.sol\":1248:1255  owner() */\n      tag_103\n        /* \"@openzeppelin/contracts/access/Ownable.sol\":1248:1253  owner */\n      tag_45\n        /* \"@openzeppelin/contracts/access/Ownable.sol\":1248:1255  owner() */\n      jump\t// in\n    tag_103:\n        /* \"@openzeppelin/contracts/access/Ownable.sol\":1248:1271  owner() == _msgSender() */\n      0xffffffffffffffffffffffffffffffffffffffff\n      and\n      eq\n        /* \"@openzeppelin/contracts/access/Ownable.sol\":1240:1308  require(owner() == _msgSender(), \"Ownable: caller is not the owner\") */\n      tag_104\n      jumpi\n      mload(0x40)\n      0x08c379a000000000000000000000000000000000000000000000000000000000\n      dup2\n      mstore\n      0x04\n      add\n      tag_105\n      swap1\n      tag_89\n      jump\t// in\n    tag_105:\n      mload(0x40)\n      dup1\n      swap2\n      sub\n      swap1\n      revert\n    tag_104:\n        /* \"CommunicationFacet.sol\":1490:1534  function settleVibes() external onlyOwner {} */\n      jump\t// out\n        /* \"@openzeppelin/contracts/access/Ownable.sol\":1036:1121  function owner() public view virtual returns (address) {... */\n    tag_45:\n        /* \"@openzeppelin/contracts/access/Ownable.sol\":1082:1089  address */\n      0x00\n        /* \"@openzeppelin/contracts/access/Ownable.sol\":1108:1114  _owner */\n      dup1\n      0x00\n      swap1\n      sload\n      swap1\n      0x0100\n      exp\n      swap1\n      div\n      0xffffffffffffffffffffffffffffffffffffffff\n      and\n        /* \"@openzeppelin/contracts/access/Ownable.sol\":1101:1114  return _owner */\n      swap1\n      pop\n        /* \"@openzeppelin/contracts/access/Ownable.sol\":1036:1121  function owner() public view virtual returns (address) {... */\n      swap1\n      jump\t// out\n        /* \"CommunicationFacet.sol\":1117:1224  function downVoteVibe(string memory someParam, string memory _listId) has_credential(_listId) external {... */\n    tag_51:\n        /* \"CommunicationFacet.sol\":1202:1209  _listId */\n      dup1\n        /* \"GateableFacet.sol\":378:394  CREDENTIAL_EVENT */\n      0x02\n      0x00\n      swap1\n      sload\n      swap1\n      0x0100\n      exp\n      swap1\n      div\n      0xffffffffffffffffffffffffffffffffffffffff\n      and\n        /* \"GateableFacet.sol\":378:404  CREDENTIAL_EVENT.emitEvent */\n      0xffffffffffffffffffffffffffffffffffffffff\n      and\n      0x1a971c1b\n        /* \"GateableFacet.sol\":405:412  list_id */\n      dup3\n        /* \"GateableFacet.sol\":414:424  msg.sender */\n      caller\n        /* \"GateableFacet.sol\":426:434  msg.data */\n      0x00\n      calldatasize\n        /* \"GateableFacet.sol\":378:435  CREDENTIAL_EVENT.emitEvent(list_id, msg.sender, msg.data) */\n      mload(0x40)\n      dup6\n      0xffffffff\n      and\n      0xe0\n      shl\n      dup2\n      mstore\n      0x04\n      add\n      tag_109\n      swap5\n      swap4\n      swap3\n      swap2\n      swap1\n      tag_110\n      jump\t// in\n    tag_109:\n      0x00\n      mload(0x40)\n      dup1\n      dup4\n      sub\n      dup2\n      0x00\n      dup8\n      dup1\n      extcodesize\n      iszero\n      dup1\n      iszero\n      tag_111\n      jumpi\n      0x00\n      dup1\n      revert\n    tag_111:\n      pop\n      gas\n      call\n      iszero\n      dup1\n      iszero\n      tag_113\n      jumpi\n      returndatasize\n      0x00\n      dup1\n      returndatacopy\n      revert(0x00, returndatasize)\n    tag_113:\n      pop\n      pop\n      pop\n      pop\n        /* \"CommunicationFacet.sol\":1117:1224  function downVoteVibe(string memory someParam, string memory _listId) has_credential(_listId) external {... */\n      pop\n      pop\n      pop\n      jump\t// out\n        /* \"CommunicationFacet.sol\":857:993  function upVoteVibe_authorised(string memory someParam, bytes[] memory proof) credentialCallback external {... */\n    tag_54:\n        /* \"GateableFacet.sol\":666:683  CREDENTIAL_ORACLE */\n      0x01\n      0x00\n      swap1\n      sload\n      swap1\n      0x0100\n      exp\n      swap1\n      div\n      0xffffffffffffffffffffffffffffffffffffffff\n      and\n        /* \"GateableFacet.sol\":652:683  msg.sender == CREDENTIAL_ORACLE */\n      0xffffffffffffffffffffffffffffffffffffffff\n      and\n        /* \"GateableFacet.sol\":652:662  msg.sender */\n      caller\n        /* \"GateableFacet.sol\":652:683  msg.sender == CREDENTIAL_ORACLE */\n      0xffffffffffffffffffffffffffffffffffffffff\n      and\n      eq\n        /* \"GateableFacet.sol\":644:747  require(msg.sender == CREDENTIAL_ORACLE, \"Credential CallBack: Only the oracle can call this function\") */\n      tag_116\n      jumpi\n      mload(0x40)\n      0x08c379a000000000000000000000000000000000000000000000000000000000\n      dup2\n      mstore\n      0x04\n      add\n      tag_117\n      swap1\n      tag_77\n      jump\t// in\n    tag_117:\n      mload(0x40)\n      dup1\n      swap2\n      sub\n      swap1\n      revert\n    tag_116:\n        /* \"CommunicationFacet.sol\":857:993  function upVoteVibe_authorised(string memory someParam, bytes[] memory proof) credentialCallback external {... */\n      pop\n      pop\n      jump\t// out\n        /* \"CommunicationFacet.sol\":750:855  function upVoteVibe(string memory someParam, string memory _listId) has_credential(_listId) external {... */\n    tag_57:\n        /* \"CommunicationFacet.sol\":833:840  _listId */\n      dup1\n        /* \"GateableFacet.sol\":378:394  CREDENTIAL_EVENT */\n      0x02\n      0x00\n      swap1\n      sload\n      swap1\n      0x0100\n      exp\n      swap1\n      div\n      0xffffffffffffffffffffffffffffffffffffffff\n      and\n        /* \"GateableFacet.sol\":378:404  CREDENTIAL_EVENT.emitEvent */\n      0xffffffffffffffffffffffffffffffffffffffff\n      and\n      0x1a971c1b\n        /* \"GateableFacet.sol\":405:412  list_id */\n      dup3\n        /* \"GateableFacet.sol\":414:424  msg.sender */\n      caller\n        /* \"GateableFacet.sol\":426:434  msg.data */\n      0x00\n      calldatasize\n        /* \"GateableFacet.sol\":378:435  CREDENTIAL_EVENT.emitEvent(list_id, msg.sender, msg.data) */\n      mload(0x40)\n      dup6\n      0xffffffff\n      and\n      0xe0\n      shl\n      dup2\n      mstore\n      0x04\n      add\n      tag_120\n      swap5\n      swap4\n      swap3\n      swap2\n      swap1\n      tag_110\n      jump\t// in\n    tag_120:\n      0x00\n      mload(0x40)\n      dup1\n      dup4\n      sub\n      dup2\n      0x00\n      dup8\n      dup1\n      extcodesize\n      iszero\n      dup1\n      iszero\n      tag_121\n      jumpi\n      0x00\n      dup1\n      revert\n    tag_121:\n      pop\n      gas\n      call\n      iszero\n      dup1\n      iszero\n      tag_123\n      jumpi\n      returndatasize\n      0x00\n      dup1\n      returndatacopy\n      revert(0x00, returndatasize)\n    tag_123:\n      pop\n      pop\n      pop\n      pop\n        /* \"CommunicationFacet.sol\":750:855  function upVoteVibe(string memory someParam, string memory _listId) has_credential(_listId) external {... */\n      pop\n      pop\n      pop\n      jump\t// out\n        /* \"CommunicationFacet.sol\":1536:1572  function setUpVibePool() external {} */\n    tag_59:\n      jump\t// out\n        /* \"CommunicationFacet.sol\":289:363  function setInboxPriceForCredential(string memory someParam) external {... */\n    tag_62:\n      pop\n      jump\t// out\n        /* \"CommunicationFacet.sol\":494:628  function postVibe_authorised(string memory someParam, bytes[] memory proof) credentialCallback external {... */\n    tag_65:\n        /* \"GateableFacet.sol\":666:683  CREDENTIAL_ORACLE */\n      0x01\n      0x00\n      swap1\n      sload\n      swap1\n      0x0100\n      exp\n      swap1\n      div\n      0xffffffffffffffffffffffffffffffffffffffff\n      and\n        /* \"GateableFacet.sol\":652:683  msg.sender == CREDENTIAL_ORACLE */\n      0xffffffffffffffffffffffffffffffffffffffff\n      and\n        /* \"GateableFacet.sol\":652:662  msg.sender */\n      caller\n        /* \"GateableFacet.sol\":652:683  msg.sender == CREDENTIAL_ORACLE */\n      0xffffffffffffffffffffffffffffffffffffffff\n      and\n      eq\n        /* \"GateableFacet.sol\":644:747  require(msg.sender == CREDENTIAL_ORACLE, \"Credential CallBack: Only the oracle can call this function\") */\n      tag_128\n      jumpi\n      mload(0x40)\n      0x08c379a000000000000000000000000000000000000000000000000000000000\n      dup2\n      mstore\n      0x04\n      add\n      tag_129\n      swap1\n      tag_77\n      jump\t// in\n    tag_129:\n      mload(0x40)\n      dup1\n      swap2\n      sub\n      swap1\n      revert\n    tag_128:\n        /* \"CommunicationFacet.sol\":494:628  function postVibe_authorised(string memory someParam, bytes[] memory proof) credentialCallback external {... */\n      pop\n      pop\n      jump\t// out\n        /* \"@openzeppelin/contracts/access/Ownable.sol\":1918:2116  function transferOwnership(address newOwner) public virtual onlyOwner {... */\n    tag_69:\n        /* \"@openzeppelin/contracts/access/Ownable.sol\":1259:1271  _msgSender() */\n      tag_132\n        /* \"@openzeppelin/contracts/access/Ownable.sol\":1259:1269  _msgSender */\n      tag_85\n        /* \"@openzeppelin/contracts/access/Ownable.sol\":1259:1271  _msgSender() */\n      jump\t// in\n    tag_132:\n        /* \"@openzeppelin/contracts/access/Ownable.sol\":1248:1271  owner() == _msgSender() */\n      0xffffffffffffffffffffffffffffffffffffffff\n      and\n        /* \"@openzeppelin/contracts/access/Ownable.sol\":1248:1255  owner() */\n      tag_133\n        /* \"@openzeppelin/contracts/access/Ownable.sol\":1248:1253  owner */\n      tag_45\n        /* \"@openzeppelin/contracts/access/Ownable.sol\":1248:1255  owner() */\n      jump\t// in\n    tag_133:\n        /* \"@openzeppelin/contracts/access/Ownable.sol\":1248:1271  owner() == _msgSender() */\n      0xffffffffffffffffffffffffffffffffffffffff\n      and\n      eq\n        /* \"@openzeppelin/contracts/access/Ownable.sol\":1240:1308  require(owner() == _msgSender(), \"Ownable: caller is not the owner\") */\n      tag_134\n      jumpi\n      mload(0x40)\n      0x08c379a000000000000000000000000000000000000000000000000000000000\n      dup2\n      mstore\n      0x04\n      add\n      tag_135\n      swap1\n      tag_89\n      jump\t// in\n    tag_135:\n      mload(0x40)\n      dup1\n      swap2\n      sub\n      swap1\n      revert\n    tag_134:\n        /* \"@openzeppelin/contracts/access/Ownable.sol\":2026:2027  0 */\n      0x00\n        /* \"@openzeppelin/contracts/access/Ownable.sol\":2006:2028  newOwner != address(0) */\n      0xffffffffffffffffffffffffffffffffffffffff\n      and\n        /* \"@openzeppelin/contracts/access/Ownable.sol\":2006:2014  newOwner */\n      dup2\n        /* \"@openzeppelin/contracts/access/Ownable.sol\":2006:2028  newOwner != address(0) */\n      0xffffffffffffffffffffffffffffffffffffffff\n      and\n      eq\n      iszero\n        /* \"@openzeppelin/contracts/access/Ownable.sol\":1998:2071  require(newOwner != address(0), \"Ownable: new owner is the zero address\") */\n      tag_137\n      jumpi\n      mload(0x40)\n      0x08c379a000000000000000000000000000000000000000000000000000000000\n      dup2\n      mstore\n      0x04\n      add\n      tag_138\n      swap1\n      tag_139\n      jump\t// in\n    tag_138:\n      mload(0x40)\n      dup1\n      swap2\n      sub\n      swap1\n      revert\n    tag_137:\n        /* \"@openzeppelin/contracts/access/Ownable.sol\":2081:2109  _transferOwnership(newOwner) */\n      tag_140\n        /* \"@openzeppelin/contracts/access/Ownable.sol\":2100:2108  newOwner */\n      dup2\n        /* \"@openzeppelin/contracts/access/Ownable.sol\":2081:2099  _transferOwnership */\n      tag_92\n        /* \"@openzeppelin/contracts/access/Ownable.sol\":2081:2109  _transferOwnership(newOwner) */\n      jump\t// in\n    tag_140:\n        /* \"@openzeppelin/contracts/access/Ownable.sol\":1918:2116  function transferOwnership(address newOwner) public virtual onlyOwner {... */\n      pop\n      jump\t// out\n        /* \"CommunicationFacet.sol\":366:492  function postVibe(string memory someParam, string memory _listId, string memory _testing) has_credential(_listId) external {... */\n    tag_73:\n        /* \"CommunicationFacet.sol\":471:478  _listId */\n      dup2\n        /* \"GateableFacet.sol\":378:394  CREDENTIAL_EVENT */\n      0x02\n      0x00\n      swap1\n      sload\n      swap1\n      0x0100\n      exp\n      swap1\n      div\n      0xffffffffffffffffffffffffffffffffffffffff\n      and\n        /* \"GateableFacet.sol\":378:404  CREDENTIAL_EVENT.emitEvent */\n      0xffffffffffffffffffffffffffffffffffffffff\n      and\n      0x1a971c1b\n        /* \"GateableFacet.sol\":405:412  list_id */\n      dup3\n        /* \"GateableFacet.sol\":414:424  msg.sender */\n      caller\n        /* \"GateableFacet.sol\":426:434  msg.data */\n      0x00\n      calldatasize\n        /* \"GateableFacet.sol\":378:435  CREDENTIAL_EVENT.emitEvent(list_id, msg.sender, msg.data) */\n      mload(0x40)\n      dup6\n      0xffffffff\n      and\n      0xe0\n      shl\n      dup2\n      mstore\n      0x04\n      add\n      tag_142\n      swap5\n      swap4\n      swap3\n      swap2\n      swap1\n      tag_110\n      jump\t// in\n    tag_142:\n      0x00\n      mload(0x40)\n      dup1\n      dup4\n      sub\n      dup2\n      0x00\n      dup8\n      dup1\n      extcodesize\n      iszero\n      dup1\n      iszero\n      tag_143\n      jumpi\n      0x00\n      dup1\n      revert\n    tag_143:\n      pop\n      gas\n      call\n      iszero\n      dup1\n      iszero\n      tag_145\n      jumpi\n      returndatasize\n      0x00\n      dup1\n      returndatacopy\n      revert(0x00, returndatasize)\n    tag_145:\n      pop\n      pop\n      pop\n      pop\n        /* \"CommunicationFacet.sol\":366:492  function postVibe(string memory someParam, string memory _listId, string memory _testing) has_credential(_listId) external {... */\n      pop\n      pop\n      pop\n      pop\n      jump\t// out\n        /* \"@openzeppelin/contracts/utils/Context.sol\":640:736  function _msgSender() internal view virtual returns (address) {... */\n    tag_85:\n        /* \"@openzeppelin/contracts/utils/Context.sol\":693:700  address */\n      0x00\n        /* \"@openzeppelin/contracts/utils/Context.sol\":719:729  msg.sender */\n      caller\n        /* \"@openzeppelin/contracts/utils/Context.sol\":712:729  return msg.sender */\n      swap1\n      pop\n        /* \"@openzeppelin/contracts/utils/Context.sol\":640:736  function _msgSender() internal view virtual returns (address) {... */\n      swap1\n      jump\t// out\n        /* \"@openzeppelin/contracts/access/Ownable.sol\":2270:2457  function _transferOwnership(address newOwner) internal virtual {... */\n    tag_92:\n        /* \"@openzeppelin/contracts/access/Ownable.sol\":2343:2359  address oldOwner */\n      0x00\n        /* \"@openzeppelin/contracts/access/Ownable.sol\":2362:2368  _owner */\n      dup1\n      0x00\n      swap1\n      sload\n      swap1\n      0x0100\n      exp\n      swap1\n      div\n      0xffffffffffffffffffffffffffffffffffffffff\n      and\n        /* \"@openzeppelin/contracts/access/Ownable.sol\":2343:2368  address oldOwner = _owner */\n      swap1\n      pop\n        /* \"@openzeppelin/contracts/access/Ownable.sol\":2387:2395  newOwner */\n      dup2\n        /* \"@openzeppelin/contracts/access/Ownable.sol\":2378:2384  _owner */\n      0x00\n      dup1\n        /* \"@openzeppelin/contracts/access/Ownable.sol\":2378:2395  _owner = newOwner */\n      0x0100\n      exp\n      dup2\n      sload\n      dup2\n      0xffffffffffffffffffffffffffffffffffffffff\n      mul\n      not\n      and\n      swap1\n      dup4\n      0xffffffffffffffffffffffffffffffffffffffff\n      and\n      mul\n      or\n      swap1\n      sstore\n      pop\n        /* \"@openzeppelin/contracts/access/Ownable.sol\":2441:2449  newOwner */\n      dup2\n        /* \"@openzeppelin/contracts/access/Ownable.sol\":2410:2450  OwnershipTransferred(oldOwner, newOwner) */\n      0xffffffffffffffffffffffffffffffffffffffff\n      and\n        /* \"@openzeppelin/contracts/access/Ownable.sol\":2431:2439  oldOwner */\n      dup2\n        /* \"@openzeppelin/contracts/access/Ownable.sol\":2410:2450  OwnershipTransferred(oldOwner, newOwner) */\n      0xffffffffffffffffffffffffffffffffffffffff\n      and\n      0x8be0079c531659141344cd1fd0a4f28419497f9722a3daafe3b4186f6b6457e0\n      mload(0x40)\n      mload(0x40)\n      dup1\n      swap2\n      sub\n      swap1\n      log3\n        /* \"@openzeppelin/contracts/access/Ownable.sol\":2333:2457  {... */\n      pop\n        /* \"@openzeppelin/contracts/access/Ownable.sol\":2270:2457  function _transferOwnership(address newOwner) internal virtual {... */\n      pop\n      jump\t// out\n        /* \"#utility.yul\":22:976   */\n    tag_150:\n        /* \"#utility.yul\":127:132   */\n      0x00\n        /* \"#utility.yul\":152:242   */\n      tag_152\n        /* \"#utility.yul\":168:241   */\n      tag_153\n        /* \"#utility.yul\":234:240   */\n      dup5\n        /* \"#utility.yul\":168:241   */\n      tag_154\n      jump\t// in\n    tag_153:\n        /* \"#utility.yul\":152:242   */\n      tag_155\n      jump\t// in\n    tag_152:\n        /* \"#utility.yul\":143:242   */\n      swap1\n      pop\n        /* \"#utility.yul\":262:267   */\n      dup1\n        /* \"#utility.yul\":291:297   */\n      dup4\n        /* \"#utility.yul\":284:289   */\n      dup3\n        /* \"#utility.yul\":277:298   */\n      mstore\n        /* \"#utility.yul\":325:329   */\n      0x20\n        /* \"#utility.yul\":318:323   */\n      dup3\n        /* \"#utility.yul\":314:330   */\n      add\n        /* \"#utility.yul\":307:330   */\n      swap1\n      pop\n        /* \"#utility.yul\":351:357   */\n      dup3\n        /* \"#utility.yul\":401:404   */\n      dup6\n        /* \"#utility.yul\":393:397   */\n      0x20\n        /* \"#utility.yul\":385:391   */\n      dup7\n        /* \"#utility.yul\":381:398   */\n      mul\n        /* \"#utility.yul\":376:379   */\n      dup3\n        /* \"#utility.yul\":372:399   */\n      add\n        /* \"#utility.yul\":369:405   */\n      gt\n        /* \"#utility.yul\":366:509   */\n      iszero\n      tag_156\n      jumpi\n        /* \"#utility.yul\":420:499   */\n      tag_157\n      tag_158\n      jump\t// in\n    tag_157:\n        /* \"#utility.yul\":366:509   */\n    tag_156:\n        /* \"#utility.yul\":533:534   */\n      0x00\n        /* \"#utility.yul\":518:970   */\n    tag_159:\n        /* \"#utility.yul\":543:549   */\n      dup6\n        /* \"#utility.yul\":540:541   */\n      dup2\n        /* \"#utility.yul\":537:550   */\n      lt\n        /* \"#utility.yul\":518:970   */\n      iszero\n      tag_161\n      jumpi\n        /* \"#utility.yul\":625:628   */\n      dup2\n        /* \"#utility.yul\":612:629   */\n      calldataload\n        /* \"#utility.yul\":661:679   */\n      0xffffffffffffffff\n        /* \"#utility.yul\":648:659   */\n      dup2\n        /* \"#utility.yul\":645:680   */\n      gt\n        /* \"#utility.yul\":642:764   */\n      iszero\n      tag_162\n      jumpi\n        /* \"#utility.yul\":683:762   */\n      tag_163\n      tag_164\n      jump\t// in\n    tag_163:\n        /* \"#utility.yul\":642:764   */\n    tag_162:\n        /* \"#utility.yul\":807:818   */\n      dup1\n        /* \"#utility.yul\":799:805   */\n      dup7\n        /* \"#utility.yul\":795:819   */\n      add\n        /* \"#utility.yul\":845:891   */\n      tag_165\n        /* \"#utility.yul\":887:890   */\n      dup10\n        /* \"#utility.yul\":875:885   */\n      dup3\n        /* \"#utility.yul\":845:891   */\n      tag_166\n      jump\t// in\n    tag_165:\n        /* \"#utility.yul\":840:843   */\n      dup6\n        /* \"#utility.yul\":833:892   */\n      mstore\n        /* \"#utility.yul\":921:925   */\n      0x20\n        /* \"#utility.yul\":916:919   */\n      dup6\n        /* \"#utility.yul\":912:926   */\n      add\n        /* \"#utility.yul\":905:926   */\n      swap5\n      pop\n        /* \"#utility.yul\":955:959   */\n      0x20\n        /* \"#utility.yul\":950:953   */\n      dup5\n        /* \"#utility.yul\":946:960   */\n      add\n        /* \"#utility.yul\":939:960   */\n      swap4\n      pop\n        /* \"#utility.yul\":578:970   */\n      pop\n      pop\n        /* \"#utility.yul\":565:566   */\n      0x01\n        /* \"#utility.yul\":562:563   */\n      dup2\n        /* \"#utility.yul\":558:567   */\n      add\n        /* \"#utility.yul\":553:567   */\n      swap1\n      pop\n        /* \"#utility.yul\":518:970   */\n      jump(tag_159)\n    tag_161:\n        /* \"#utility.yul\":522:536   */\n      pop\n        /* \"#utility.yul\":133:976   */\n      pop\n      pop\n        /* \"#utility.yul\":22:976   */\n      swap4\n      swap3\n      pop\n      pop\n      pop\n      jump\t// out\n        /* \"#utility.yul\":982:1392   */\n    tag_167:\n        /* \"#utility.yul\":1059:1064   */\n      0x00\n        /* \"#utility.yul\":1084:1149   */\n      tag_169\n        /* \"#utility.yul\":1100:1148   */\n      tag_170\n        /* \"#utility.yul\":1141:1147   */\n      dup5\n        /* \"#utility.yul\":1100:1148   */\n      tag_171\n      jump\t// in\n    tag_170:\n        /* \"#utility.yul\":1084:1149   */\n      tag_155\n      jump\t// in\n    tag_169:\n        /* \"#utility.yul\":1075:1149   */\n      swap1\n      pop\n        /* \"#utility.yul\":1172:1178   */\n      dup3\n        /* \"#utility.yul\":1165:1170   */\n      dup2\n        /* \"#utility.yul\":1158:1179   */\n      mstore\n        /* \"#utility.yul\":1210:1214   */\n      0x20\n        /* \"#utility.yul\":1203:1208   */\n      dup2\n        /* \"#utility.yul\":1199:1215   */\n      add\n        /* \"#utility.yul\":1248:1251   */\n      dup5\n        /* \"#utility.yul\":1239:1245   */\n      dup5\n        /* \"#utility.yul\":1234:1237   */\n      dup5\n        /* \"#utility.yul\":1230:1246   */\n      add\n        /* \"#utility.yul\":1227:1252   */\n      gt\n        /* \"#utility.yul\":1224:1336   */\n      iszero\n      tag_172\n      jumpi\n        /* \"#utility.yul\":1255:1334   */\n      tag_173\n      tag_174\n      jump\t// in\n    tag_173:\n        /* \"#utility.yul\":1224:1336   */\n    tag_172:\n        /* \"#utility.yul\":1345:1386   */\n      tag_175\n        /* \"#utility.yul\":1379:1385   */\n      dup5\n        /* \"#utility.yul\":1374:1377   */\n      dup3\n        /* \"#utility.yul\":1369:1372   */\n      dup6\n        /* \"#utility.yul\":1345:1386   */\n      tag_176\n      jump\t// in\n    tag_175:\n        /* \"#utility.yul\":1065:1392   */\n      pop\n        /* \"#utility.yul\":982:1392   */\n      swap4\n      swap3\n      pop\n      pop\n      pop\n      jump\t// out\n        /* \"#utility.yul\":1398:1810   */\n    tag_177:\n        /* \"#utility.yul\":1476:1481   */\n      0x00\n        /* \"#utility.yul\":1501:1567   */\n      tag_179\n        /* \"#utility.yul\":1517:1566   */\n      tag_180\n        /* \"#utility.yul\":1559:1565   */\n      dup5\n        /* \"#utility.yul\":1517:1566   */\n      tag_181\n      jump\t// in\n    tag_180:\n        /* \"#utility.yul\":1501:1567   */\n      tag_155\n      jump\t// in\n    tag_179:\n        /* \"#utility.yul\":1492:1567   */\n      swap1\n      pop\n        /* \"#utility.yul\":1590:1596   */\n      dup3\n        /* \"#utility.yul\":1583:1588   */\n      dup2\n        /* \"#utility.yul\":1576:1597   */\n      mstore\n        /* \"#utility.yul\":1628:1632   */\n      0x20\n        /* \"#utility.yul\":1621:1626   */\n      dup2\n        /* \"#utility.yul\":1617:1633   */\n      add\n        /* \"#utility.yul\":1666:1669   */\n      dup5\n        /* \"#utility.yul\":1657:1663   */\n      dup5\n        /* \"#utility.yul\":1652:1655   */\n      dup5\n        /* \"#utility.yul\":1648:1664   */\n      add\n        /* \"#utility.yul\":1645:1670   */\n      gt\n        /* \"#utility.yul\":1642:1754   */\n      iszero\n      tag_182\n      jumpi\n        /* \"#utility.yul\":1673:1752   */\n      tag_183\n      tag_174\n      jump\t// in\n    tag_183:\n        /* \"#utility.yul\":1642:1754   */\n    tag_182:\n        /* \"#utility.yul\":1763:1804   */\n      tag_184\n        /* \"#utility.yul\":1797:1803   */\n      dup5\n        /* \"#utility.yul\":1792:1795   */\n      dup3\n        /* \"#utility.yul\":1787:1790   */\n      dup6\n        /* \"#utility.yul\":1763:1804   */\n      tag_176\n      jump\t// in\n    tag_184:\n        /* \"#utility.yul\":1482:1810   */\n      pop\n        /* \"#utility.yul\":1398:1810   */\n      swap4\n      swap3\n      pop\n      pop\n      pop\n      jump\t// out\n        /* \"#utility.yul\":1816:1955   */\n    tag_185:\n        /* \"#utility.yul\":1862:1867   */\n      0x00\n        /* \"#utility.yul\":1900:1906   */\n      dup2\n        /* \"#utility.yul\":1887:1907   */\n      calldataload\n        /* \"#utility.yul\":1878:1907   */\n      swap1\n      pop\n        /* \"#utility.yul\":1916:1949   */\n      tag_187\n        /* \"#utility.yul\":1943:1948   */\n      dup2\n        /* \"#utility.yul\":1916:1949   */\n      tag_188\n      jump\t// in\n    tag_187:\n        /* \"#utility.yul\":1816:1955   */\n      swap3\n      swap2\n      pop\n      pop\n      jump\t// out\n        /* \"#utility.yul\":1976:2364   */\n    tag_189:\n        /* \"#utility.yul\":2056:2061   */\n      0x00\n        /* \"#utility.yul\":2105:2108   */\n      dup3\n        /* \"#utility.yul\":2098:2102   */\n      0x1f\n        /* \"#utility.yul\":2090:2096   */\n      dup4\n        /* \"#utility.yul\":2086:2103   */\n      add\n        /* \"#utility.yul\":2082:2109   */\n      slt\n        /* \"#utility.yul\":2072:2194   */\n      tag_191\n      jumpi\n        /* \"#utility.yul\":2113:2192   */\n      tag_192\n      tag_164\n      jump\t// in\n    tag_192:\n        /* \"#utility.yul\":2072:2194   */\n    tag_191:\n        /* \"#utility.yul\":2230:2236   */\n      dup2\n        /* \"#utility.yul\":2217:2237   */\n      calldataload\n        /* \"#utility.yul\":2255:2358   */\n      tag_193\n        /* \"#utility.yul\":2354:2357   */\n      dup5\n        /* \"#utility.yul\":2346:2352   */\n      dup3\n        /* \"#utility.yul\":2339:2343   */\n      0x20\n        /* \"#utility.yul\":2331:2337   */\n      dup7\n        /* \"#utility.yul\":2327:2344   */\n      add\n        /* \"#utility.yul\":2255:2358   */\n      tag_150\n      jump\t// in\n    tag_193:\n        /* \"#utility.yul\":2246:2358   */\n      swap2\n      pop\n        /* \"#utility.yul\":2062:2364   */\n      pop\n        /* \"#utility.yul\":1976:2364   */\n      swap3\n      swap2\n      pop\n      pop\n      jump\t// out\n        /* \"#utility.yul\":2383:2721   */\n    tag_166:\n        /* \"#utility.yul\":2438:2443   */\n      0x00\n        /* \"#utility.yul\":2487:2490   */\n      dup3\n        /* \"#utility.yul\":2480:2484   */\n      0x1f\n        /* \"#utility.yul\":2472:2478   */\n      dup4\n        /* \"#utility.yul\":2468:2485   */\n      add\n        /* \"#utility.yul\":2464:2491   */\n      slt\n        /* \"#utility.yul\":2454:2576   */\n      tag_195\n      jumpi\n        /* \"#utility.yul\":2495:2574   */\n      tag_196\n      tag_164\n      jump\t// in\n    tag_196:\n        /* \"#utility.yul\":2454:2576   */\n    tag_195:\n        /* \"#utility.yul\":2612:2618   */\n      dup2\n        /* \"#utility.yul\":2599:2619   */\n      calldataload\n        /* \"#utility.yul\":2637:2715   */\n      tag_197\n        /* \"#utility.yul\":2711:2714   */\n      dup5\n        /* \"#utility.yul\":2703:2709   */\n      dup3\n        /* \"#utility.yul\":2696:2700   */\n      0x20\n        /* \"#utility.yul\":2688:2694   */\n      dup7\n        /* \"#utility.yul\":2684:2701   */\n      add\n        /* \"#utility.yul\":2637:2715   */\n      tag_167\n      jump\t// in\n    tag_197:\n        /* \"#utility.yul\":2628:2715   */\n      swap2\n      pop\n        /* \"#utility.yul\":2444:2721   */\n      pop\n        /* \"#utility.yul\":2383:2721   */\n      swap3\n      swap2\n      pop\n      pop\n      jump\t// out\n        /* \"#utility.yul\":2741:3081   */\n    tag_198:\n        /* \"#utility.yul\":2797:2802   */\n      0x00\n        /* \"#utility.yul\":2846:2849   */\n      dup3\n        /* \"#utility.yul\":2839:2843   */\n      0x1f\n        /* \"#utility.yul\":2831:2837   */\n      dup4\n        /* \"#utility.yul\":2827:2844   */\n      add\n        /* \"#utility.yul\":2823:2850   */\n      slt\n        /* \"#utility.yul\":2813:2935   */\n      tag_200\n      jumpi\n        /* \"#utility.yul\":2854:2933   */\n      tag_201\n      tag_164\n      jump\t// in\n    tag_201:\n        /* \"#utility.yul\":2813:2935   */\n    tag_200:\n        /* \"#utility.yul\":2971:2977   */\n      dup2\n        /* \"#utility.yul\":2958:2978   */\n      calldataload\n        /* \"#utility.yul\":2996:3075   */\n      tag_202\n        /* \"#utility.yul\":3071:3074   */\n      dup5\n        /* \"#utility.yul\":3063:3069   */\n      dup3\n        /* \"#utility.yul\":3056:3060   */\n      0x20\n        /* \"#utility.yul\":3048:3054   */\n      dup7\n        /* \"#utility.yul\":3044:3061   */\n      add\n        /* \"#utility.yul\":2996:3075   */\n      tag_177\n      jump\t// in\n    tag_202:\n        /* \"#utility.yul\":2987:3075   */\n      swap2\n      pop\n        /* \"#utility.yul\":2803:3081   */\n      pop\n        /* \"#utility.yul\":2741:3081   */\n      swap3\n      swap2\n      pop\n      pop\n      jump\t// out\n        /* \"#utility.yul\":3087:3416   */\n    tag_68:\n        /* \"#utility.yul\":3146:3152   */\n      0x00\n        /* \"#utility.yul\":3195:3197   */\n      0x20\n        /* \"#utility.yul\":3183:3192   */\n      dup3\n        /* \"#utility.yul\":3174:3181   */\n      dup5\n        /* \"#utility.yul\":3170:3193   */\n      sub\n        /* \"#utility.yul\":3166:3198   */\n      slt\n        /* \"#utility.yul\":3163:3282   */\n      iszero\n      tag_204\n      jumpi\n        /* \"#utility.yul\":3201:3280   */\n      tag_205\n      tag_206\n      jump\t// in\n    tag_205:\n        /* \"#utility.yul\":3163:3282   */\n    tag_204:\n        /* \"#utility.yul\":3321:3322   */\n      0x00\n        /* \"#utility.yul\":3346:3399   */\n      tag_207\n        /* \"#utility.yul\":3391:3398   */\n      dup5\n        /* \"#utility.yul\":3382:3388   */\n      dup3\n        /* \"#utility.yul\":3371:3380   */\n      dup6\n        /* \"#utility.yul\":3367:3389   */\n      add\n        /* \"#utility.yul\":3346:3399   */\n      tag_185\n      jump\t// in\n    tag_207:\n        /* \"#utility.yul\":3336:3399   */\n      swap2\n      pop\n        /* \"#utility.yul\":3292:3409   */\n      pop\n        /* \"#utility.yul\":3087:3416   */\n      swap3\n      swap2\n      pop\n      pop\n      jump\t// out\n        /* \"#utility.yul\":3422:3931   */\n    tag_28:\n        /* \"#utility.yul\":3491:3497   */\n      0x00\n        /* \"#utility.yul\":3540:3542   */\n      0x20\n        /* \"#utility.yul\":3528:3537   */\n      dup3\n        /* \"#utility.yul\":3519:3526   */\n      dup5\n        /* \"#utility.yul\":3515:3538   */\n      sub\n        /* \"#utility.yul\":3511:3543   */\n      slt\n        /* \"#utility.yul\":3508:3627   */\n      iszero\n      tag_209\n      jumpi\n        /* \"#utility.yul\":3546:3625   */\n      tag_210\n      tag_206\n      jump\t// in\n    tag_210:\n        /* \"#utility.yul\":3508:3627   */\n    tag_209:\n        /* \"#utility.yul\":3694:3695   */\n      0x00\n        /* \"#utility.yul\":3683:3692   */\n      dup3\n        /* \"#utility.yul\":3679:3696   */\n      add\n        /* \"#utility.yul\":3666:3697   */\n      calldataload\n        /* \"#utility.yul\":3724:3742   */\n      0xffffffffffffffff\n        /* \"#utility.yul\":3716:3722   */\n      dup2\n        /* \"#utility.yul\":3713:3743   */\n      gt\n        /* \"#utility.yul\":3710:3827   */\n      iszero\n      tag_211\n      jumpi\n        /* \"#utility.yul\":3746:3825   */\n      tag_212\n      tag_213\n      jump\t// in\n    tag_212:\n        /* \"#utility.yul\":3710:3827   */\n    tag_211:\n        /* \"#utility.yul\":3851:3914   */\n      tag_214\n        /* \"#utility.yul\":3906:3913   */\n      dup5\n        /* \"#utility.yul\":3897:3903   */\n      dup3\n        /* \"#utility.yul\":3886:3895   */\n      dup6\n        /* \"#utility.yul\":3882:3904   */\n      add\n        /* \"#utility.yul\":3851:3914   */\n      tag_198\n      jump\t// in\n    tag_214:\n        /* \"#utility.yul\":3841:3914   */\n      swap2\n      pop\n        /* \"#utility.yul\":3637:3924   */\n      pop\n        /* \"#utility.yul\":3422:3931   */\n      swap3\n      swap2\n      pop\n      pop\n      jump\t// out\n        /* \"#utility.yul\":3937:4819   */\n    tag_24:\n        /* \"#utility.yul\":4049:4055   */\n      0x00\n        /* \"#utility.yul\":4057:4063   */\n      dup1\n        /* \"#utility.yul\":4106:4108   */\n      0x40\n        /* \"#utility.yul\":4094:4103   */\n      dup4\n        /* \"#utility.yul\":4085:4092   */\n      dup6\n        /* \"#utility.yul\":4081:4104   */\n      sub\n        /* \"#utility.yul\":4077:4109   */\n      slt\n        /* \"#utility.yul\":4074:4193   */\n      iszero\n      tag_216\n      jumpi\n        /* \"#utility.yul\":4112:4191   */\n      tag_217\n      tag_206\n      jump\t// in\n    tag_217:\n        /* \"#utility.yul\":4074:4193   */\n    tag_216:\n        /* \"#utility.yul\":4260:4261   */\n      0x00\n        /* \"#utility.yul\":4249:4258   */\n      dup4\n        /* \"#utility.yul\":4245:4262   */\n      add\n        /* \"#utility.yul\":4232:4263   */\n      calldataload\n        /* \"#utility.yul\":4290:4308   */\n      0xffffffffffffffff\n        /* \"#utility.yul\":4282:4288   */\n      dup2\n        /* \"#utility.yul\":4279:4309   */\n      gt\n        /* \"#utility.yul\":4276:4393   */\n      iszero\n      tag_218\n      jumpi\n        /* \"#utility.yul\":4312:4391   */\n      tag_219\n      tag_213\n      jump\t// in\n    tag_219:\n        /* \"#utility.yul\":4276:4393   */\n    tag_218:\n        /* \"#utility.yul\":4417:4480   */\n      tag_220\n        /* \"#utility.yul\":4472:4479   */\n      dup6\n        /* \"#utility.yul\":4463:4469   */\n      dup3\n        /* \"#utility.yul\":4452:4461   */\n      dup7\n        /* \"#utility.yul\":4448:4470   */\n      add\n        /* \"#utility.yul\":4417:4480   */\n      tag_198\n      jump\t// in\n    tag_220:\n        /* \"#utility.yul\":4407:4480   */\n      swap3\n      pop\n        /* \"#utility.yul\":4203:4490   */\n      pop\n        /* \"#utility.yul\":4557:4559   */\n      0x20\n        /* \"#utility.yul\":4546:4555   */\n      dup4\n        /* \"#utility.yul\":4542:4560   */\n      add\n        /* \"#utility.yul\":4529:4561   */\n      calldataload\n        /* \"#utility.yul\":4588:4606   */\n      0xffffffffffffffff\n        /* \"#utility.yul\":4580:4586   */\n      dup2\n        /* \"#utility.yul\":4577:4607   */\n      gt\n        /* \"#utility.yul\":4574:4691   */\n      iszero\n      tag_221\n      jumpi\n        /* \"#utility.yul\":4610:4689   */\n      tag_222\n      tag_213\n      jump\t// in\n    tag_222:\n        /* \"#utility.yul\":4574:4691   */\n    tag_221:\n        /* \"#utility.yul\":4715:4802   */\n      tag_223\n        /* \"#utility.yul\":4794:4801   */\n      dup6\n        /* \"#utility.yul\":4785:4791   */\n      dup3\n        /* \"#utility.yul\":4774:4783   */\n      dup7\n        /* \"#utility.yul\":4770:4792   */\n      add\n        /* \"#utility.yul\":4715:4802   */\n      tag_189\n      jump\t// in\n    tag_223:\n        /* \"#utility.yul\":4705:4802   */\n      swap2\n      pop\n        /* \"#utility.yul\":4500:4812   */\n      pop\n        /* \"#utility.yul\":3937:4819   */\n      swap3\n      pop\n      swap3\n      swap1\n      pop\n      jump\t// out\n        /* \"#utility.yul\":4825:5659   */\n    tag_50:\n        /* \"#utility.yul\":4913:4919   */\n      0x00\n        /* \"#utility.yul\":4921:4927   */\n      dup1\n        /* \"#utility.yul\":4970:4972   */\n      0x40\n        /* \"#utility.yul\":4958:4967   */\n      dup4\n        /* \"#utility.yul\":4949:4956   */\n      dup6\n        /* \"#utility.yul\":4945:4968   */\n      sub\n        /* \"#utility.yul\":4941:4973   */\n      slt\n        /* \"#utility.yul\":4938:5057   */\n      iszero\n      tag_225\n      jumpi\n        /* \"#utility.yul\":4976:5055   */\n      tag_226\n      tag_206\n      jump\t// in\n    tag_226:\n        /* \"#utility.yul\":4938:5057   */\n    tag_225:\n        /* \"#utility.yul\":5124:5125   */\n      0x00\n        /* \"#utility.yul\":5113:5122   */\n      dup4\n        /* \"#utility.yul\":5109:5126   */\n      add\n        /* \"#utility.yul\":5096:5127   */\n      calldataload\n        /* \"#utility.yul\":5154:5172   */\n      0xffffffffffffffff\n        /* \"#utility.yul\":5146:5152   */\n      dup2\n        /* \"#utility.yul\":5143:5173   */\n      gt\n        /* \"#utility.yul\":5140:5257   */\n      iszero\n      tag_227\n      jumpi\n        /* \"#utility.yul\":5176:5255   */\n      tag_228\n      tag_213\n      jump\t// in\n    tag_228:\n        /* \"#utility.yul\":5140:5257   */\n    tag_227:\n        /* \"#utility.yul\":5281:5344   */\n      tag_229\n        /* \"#utility.yul\":5336:5343   */\n      dup6\n        /* \"#utility.yul\":5327:5333   */\n      dup3\n        /* \"#utility.yul\":5316:5325   */\n      dup7\n        /* \"#utility.yul\":5312:5334   */\n      add\n        /* \"#utility.yul\":5281:5344   */\n      tag_198\n      jump\t// in\n    tag_229:\n        /* \"#utility.yul\":5271:5344   */\n      swap3\n      pop\n        /* \"#utility.yul\":5067:5354   */\n      pop\n        /* \"#utility.yul\":5421:5423   */\n      0x20\n        /* \"#utility.yul\":5410:5419   */\n      dup4\n        /* \"#utility.yul\":5406:5424   */\n      add\n        /* \"#utility.yul\":5393:5425   */\n      calldataload\n        /* \"#utility.yul\":5452:5470   */\n      0xffffffffffffffff\n        /* \"#utility.yul\":5444:5450   */\n      dup2\n        /* \"#utility.yul\":5441:5471   */\n      gt\n        /* \"#utility.yul\":5438:5555   */\n      iszero\n      tag_230\n      jumpi\n        /* \"#utility.yul\":5474:5553   */\n      tag_231\n      tag_213\n      jump\t// in\n    tag_231:\n        /* \"#utility.yul\":5438:5555   */\n    tag_230:\n        /* \"#utility.yul\":5579:5642   */\n      tag_232\n        /* \"#utility.yul\":5634:5641   */\n      dup6\n        /* \"#utility.yul\":5625:5631   */\n      dup3\n        /* \"#utility.yul\":5614:5623   */\n      dup7\n        /* \"#utility.yul\":5610:5632   */\n      add\n        /* \"#utility.yul\":5579:5642   */\n      tag_198\n      jump\t// in\n    tag_232:\n        /* \"#utility.yul\":5569:5642   */\n      swap2\n      pop\n        /* \"#utility.yul\":5364:5652   */\n      pop\n        /* \"#utility.yul\":4825:5659   */\n      swap3\n      pop\n      swap3\n      swap1\n      pop\n      jump\t// out\n        /* \"#utility.yul\":5665:6824   */\n    tag_72:\n        /* \"#utility.yul\":5772:5778   */\n      0x00\n        /* \"#utility.yul\":5780:5786   */\n      dup1\n        /* \"#utility.yul\":5788:5794   */\n      0x00\n        /* \"#utility.yul\":5837:5839   */\n      0x60\n        /* \"#utility.yul\":5825:5834   */\n      dup5\n        /* \"#utility.yul\":5816:5823   */\n      dup7\n        /* \"#utility.yul\":5812:5835   */\n      sub\n        /* \"#utility.yul\":5808:5840   */\n      slt\n        /* \"#utility.yul\":5805:5924   */\n      iszero\n      tag_234\n      jumpi\n        /* \"#utility.yul\":5843:5922   */\n      tag_235\n      tag_206\n      jump\t// in\n    tag_235:\n        /* \"#utility.yul\":5805:5924   */\n    tag_234:\n        /* \"#utility.yul\":5991:5992   */\n      0x00\n        /* \"#utility.yul\":5980:5989   */\n      dup5\n        /* \"#utility.yul\":5976:5993   */\n      add\n        /* \"#utility.yul\":5963:5994   */\n      calldataload\n        /* \"#utility.yul\":6021:6039   */\n      0xffffffffffffffff\n        /* \"#utility.yul\":6013:6019   */\n      dup2\n        /* \"#utility.yul\":6010:6040   */\n      gt\n        /* \"#utility.yul\":6007:6124   */\n      iszero\n      tag_236\n      jumpi\n        /* \"#utility.yul\":6043:6122   */\n      tag_237\n      tag_213\n      jump\t// in\n    tag_237:\n        /* \"#utility.yul\":6007:6124   */\n    tag_236:\n        /* \"#utility.yul\":6148:6211   */\n      tag_238\n        /* \"#utility.yul\":6203:6210   */\n      dup7\n        /* \"#utility.yul\":6194:6200   */\n      dup3\n        /* \"#utility.yul\":6183:6192   */\n      dup8\n        /* \"#utility.yul\":6179:6201   */\n      add\n        /* \"#utility.yul\":6148:6211   */\n      tag_198\n      jump\t// in\n    tag_238:\n        /* \"#utility.yul\":6138:6211   */\n      swap4\n      pop\n        /* \"#utility.yul\":5934:6221   */\n      pop\n        /* \"#utility.yul\":6288:6290   */\n      0x20\n        /* \"#utility.yul\":6277:6286   */\n      dup5\n        /* \"#utility.yul\":6273:6291   */\n      add\n        /* \"#utility.yul\":6260:6292   */\n      calldataload\n        /* \"#utility.yul\":6319:6337   */\n      0xffffffffffffffff\n        /* \"#utility.yul\":6311:6317   */\n      dup2\n        /* \"#utility.yul\":6308:6338   */\n      gt\n        /* \"#utility.yul\":6305:6422   */\n      iszero\n      tag_239\n      jumpi\n        /* \"#utility.yul\":6341:6420   */\n      tag_240\n      tag_213\n      jump\t// in\n    tag_240:\n        /* \"#utility.yul\":6305:6422   */\n    tag_239:\n        /* \"#utility.yul\":6446:6509   */\n      tag_241\n        /* \"#utility.yul\":6501:6508   */\n      dup7\n        /* \"#utility.yul\":6492:6498   */\n      dup3\n        /* \"#utility.yul\":6481:6490   */\n      dup8\n        /* \"#utility.yul\":6477:6499   */\n      add\n        /* \"#utility.yul\":6446:6509   */\n      tag_198\n      jump\t// in\n    tag_241:\n        /* \"#utility.yul\":6436:6509   */\n      swap3\n      pop\n        /* \"#utility.yul\":6231:6519   */\n      pop\n        /* \"#utility.yul\":6586:6588   */\n      0x40\n        /* \"#utility.yul\":6575:6584   */\n      dup5\n        /* \"#utility.yul\":6571:6589   */\n      add\n        /* \"#utility.yul\":6558:6590   */\n      calldataload\n        /* \"#utility.yul\":6617:6635   */\n      0xffffffffffffffff\n        /* \"#utility.yul\":6609:6615   */\n      dup2\n        /* \"#utility.yul\":6606:6636   */\n      gt\n        /* \"#utility.yul\":6603:6720   */\n      iszero\n      tag_242\n      jumpi\n        /* \"#utility.yul\":6639:6718   */\n      tag_243\n      tag_213\n      jump\t// in\n    tag_243:\n        /* \"#utility.yul\":6603:6720   */\n    tag_242:\n        /* \"#utility.yul\":6744:6807   */\n      tag_244\n        /* \"#utility.yul\":6799:6806   */\n      dup7\n        /* \"#utility.yul\":6790:6796   */\n      dup3\n        /* \"#utility.yul\":6779:6788   */\n      dup8\n        /* \"#utility.yul\":6775:6797   */\n      add\n        /* \"#utility.yul\":6744:6807   */\n      tag_198\n      jump\t// in\n    tag_244:\n        /* \"#utility.yul\":6734:6807   */\n      swap2\n      pop\n        /* \"#utility.yul\":6529:6817   */\n      pop\n        /* \"#utility.yul\":5665:6824   */\n      swap3\n      pop\n      swap3\n      pop\n      swap3\n      jump\t// out\n        /* \"#utility.yul\":6830:6948   */\n    tag_245:\n        /* \"#utility.yul\":6917:6941   */\n      tag_247\n        /* \"#utility.yul\":6935:6940   */\n      dup2\n        /* \"#utility.yul\":6917:6941   */\n      tag_248\n      jump\t// in\n    tag_247:\n        /* \"#utility.yul\":6912:6915   */\n      dup3\n        /* \"#utility.yul\":6905:6942   */\n      mstore\n        /* \"#utility.yul\":6830:6948   */\n      pop\n      pop\n      jump\t// out\n        /* \"#utility.yul\":6976:7277   */\n    tag_249:\n        /* \"#utility.yul\":7072:7075   */\n      0x00\n        /* \"#utility.yul\":7093:7163   */\n      tag_251\n        /* \"#utility.yul\":7156:7162   */\n      dup4\n        /* \"#utility.yul\":7151:7154   */\n      dup6\n        /* \"#utility.yul\":7093:7163   */\n      tag_252\n      jump\t// in\n    tag_251:\n        /* \"#utility.yul\":7086:7163   */\n      swap4\n      pop\n        /* \"#utility.yul\":7173:7216   */\n      tag_253\n        /* \"#utility.yul\":7209:7215   */\n      dup4\n        /* \"#utility.yul\":7204:7207   */\n      dup6\n        /* \"#utility.yul\":7197:7202   */\n      dup5\n        /* \"#utility.yul\":7173:7216   */\n      tag_176\n      jump\t// in\n    tag_253:\n        /* \"#utility.yul\":7241:7270   */\n      tag_254\n        /* \"#utility.yul\":7263:7269   */\n      dup4\n        /* \"#utility.yul\":7241:7270   */\n      tag_255\n      jump\t// in\n    tag_254:\n        /* \"#utility.yul\":7236:7239   */\n      dup5\n        /* \"#utility.yul\":7232:7271   */\n      add\n        /* \"#utility.yul\":7225:7271   */\n      swap1\n      pop\n        /* \"#utility.yul\":6976:7277   */\n      swap4\n      swap3\n      pop\n      pop\n      pop\n      jump\t// out\n        /* \"#utility.yul\":7283:7470   */\n    tag_256:\n        /* \"#utility.yul\":7398:7463   */\n      tag_258\n        /* \"#utility.yul\":7457:7462   */\n      dup2\n        /* \"#utility.yul\":7398:7463   */\n      tag_259\n      jump\t// in\n    tag_258:\n        /* \"#utility.yul\":7393:7396   */\n      dup3\n        /* \"#utility.yul\":7386:7464   */\n      mstore\n        /* \"#utility.yul\":7283:7470   */\n      pop\n      pop\n      jump\t// out\n        /* \"#utility.yul\":7476:7840   */\n    tag_260:\n        /* \"#utility.yul\":7564:7567   */\n      0x00\n        /* \"#utility.yul\":7592:7631   */\n      tag_262\n        /* \"#utility.yul\":7625:7630   */\n      dup3\n        /* \"#utility.yul\":7592:7631   */\n      tag_263\n      jump\t// in\n    tag_262:\n        /* \"#utility.yul\":7647:7718   */\n      tag_264\n        /* \"#utility.yul\":7711:7717   */\n      dup2\n        /* \"#utility.yul\":7706:7709   */\n      dup6\n        /* \"#utility.yul\":7647:7718   */\n      tag_265\n      jump\t// in\n    tag_264:\n        /* \"#utility.yul\":7640:7718   */\n      swap4\n      pop\n        /* \"#utility.yul\":7727:7779   */\n      tag_266\n        /* \"#utility.yul\":7772:7778   */\n      dup2\n        /* \"#utility.yul\":7767:7770   */\n      dup6\n        /* \"#utility.yul\":7760:7764   */\n      0x20\n        /* \"#utility.yul\":7753:7758   */\n      dup7\n        /* \"#utility.yul\":7749:7765   */\n      add\n        /* \"#utility.yul\":7727:7779   */\n      tag_267\n      jump\t// in\n    tag_266:\n        /* \"#utility.yul\":7804:7833   */\n      tag_268\n        /* \"#utility.yul\":7826:7832   */\n      dup2\n        /* \"#utility.yul\":7804:7833   */\n      tag_255\n      jump\t// in\n    tag_268:\n        /* \"#utility.yul\":7799:7802   */\n      dup5\n        /* \"#utility.yul\":7795:7834   */\n      add\n        /* \"#utility.yul\":7788:7834   */\n      swap2\n      pop\n        /* \"#utility.yul\":7568:7840   */\n      pop\n        /* \"#utility.yul\":7476:7840   */\n      swap3\n      swap2\n      pop\n      pop\n      jump\t// out\n        /* \"#utility.yul\":7846:8212   */\n    tag_269:\n        /* \"#utility.yul\":7988:7991   */\n      0x00\n        /* \"#utility.yul\":8009:8076   */\n      tag_271\n        /* \"#utility.yul\":8073:8075   */\n      0x26\n        /* \"#utility.yul\":8068:8071   */\n      dup4\n        /* \"#utility.yul\":8009:8076   */\n      tag_265\n      jump\t// in\n    tag_271:\n        /* \"#utility.yul\":8002:8076   */\n      swap2\n      pop\n        /* \"#utility.yul\":8085:8178   */\n      tag_272\n        /* \"#utility.yul\":8174:8177   */\n      dup3\n        /* \"#utility.yul\":8085:8178   */\n      tag_273\n      jump\t// in\n    tag_272:\n        /* \"#utility.yul\":8203:8205   */\n      0x40\n        /* \"#utility.yul\":8198:8201   */\n      dup3\n        /* \"#utility.yul\":8194:8206   */\n      add\n        /* \"#utility.yul\":8187:8206   */\n      swap1\n      pop\n        /* \"#utility.yul\":7846:8212   */\n      swap2\n      swap1\n      pop\n      jump\t// out\n        /* \"#utility.yul\":8218:8584   */\n    tag_274:\n        /* \"#utility.yul\":8360:8363   */\n      0x00\n        /* \"#utility.yul\":8381:8448   */\n      tag_276\n        /* \"#utility.yul\":8445:8447   */\n      0x20\n        /* \"#utility.yul\":8440:8443   */\n      dup4\n        /* \"#utility.yul\":8381:8448   */\n      tag_265\n      jump\t// in\n    tag_276:\n        /* \"#utility.yul\":8374:8448   */\n      swap2\n      pop\n        /* \"#utility.yul\":8457:8550   */\n      tag_277\n        /* \"#utility.yul\":8546:8549   */\n      dup3\n        /* \"#utility.yul\":8457:8550   */\n      tag_278\n      jump\t// in\n    tag_277:\n        /* \"#utility.yul\":8575:8577   */\n      0x20\n        /* \"#utility.yul\":8570:8573   */\n      dup3\n        /* \"#utility.yul\":8566:8578   */\n      add\n        /* \"#utility.yul\":8559:8578   */\n      swap1\n      pop\n        /* \"#utility.yul\":8218:8584   */\n      swap2\n      swap1\n      pop\n      jump\t// out\n        /* \"#utility.yul\":8590:8956   */\n    tag_279:\n        /* \"#utility.yul\":8732:8735   */\n      0x00\n        /* \"#utility.yul\":8753:8820   */\n      tag_281\n        /* \"#utility.yul\":8817:8819   */\n      0x3b\n        /* \"#utility.yul\":8812:8815   */\n      dup4\n        /* \"#utility.yul\":8753:8820   */\n      tag_265\n      jump\t// in\n    tag_281:\n        /* \"#utility.yul\":8746:8820   */\n      swap2\n      pop\n        /* \"#utility.yul\":8829:8922   */\n      tag_282\n        /* \"#utility.yul\":8918:8921   */\n      dup3\n        /* \"#utility.yul\":8829:8922   */\n      tag_283\n      jump\t// in\n    tag_282:\n        /* \"#utility.yul\":8947:8949   */\n      0x40\n        /* \"#utility.yul\":8942:8945   */\n      dup3\n        /* \"#utility.yul\":8938:8950   */\n      add\n        /* \"#utility.yul\":8931:8950   */\n      swap1\n      pop\n        /* \"#utility.yul\":8590:8956   */\n      swap2\n      swap1\n      pop\n      jump\t// out\n        /* \"#utility.yul\":8962:9184   */\n    tag_47:\n        /* \"#utility.yul\":9055:9059   */\n      0x00\n        /* \"#utility.yul\":9093:9095   */\n      0x20\n        /* \"#utility.yul\":9082:9091   */\n      dup3\n        /* \"#utility.yul\":9078:9096   */\n      add\n        /* \"#utility.yul\":9070:9096   */\n      swap1\n      pop\n        /* \"#utility.yul\":9106:9177   */\n      tag_285\n        /* \"#utility.yul\":9174:9175   */\n      0x00\n        /* \"#utility.yul\":9163:9172   */\n      dup4\n        /* \"#utility.yul\":9159:9176   */\n      add\n        /* \"#utility.yul\":9150:9156   */\n      dup5\n        /* \"#utility.yul\":9106:9177   */\n      tag_245\n      jump\t// in\n    tag_285:\n        /* \"#utility.yul\":8962:9184   */\n      swap3\n      swap2\n      pop\n      pop\n      jump\t// out\n        /* \"#utility.yul\":9190:9468   */\n    tag_33:\n        /* \"#utility.yul\":9311:9315   */\n      0x00\n        /* \"#utility.yul\":9349:9351   */\n      0x20\n        /* \"#utility.yul\":9338:9347   */\n      dup3\n        /* \"#utility.yul\":9334:9352   */\n      add\n        /* \"#utility.yul\":9326:9352   */\n      swap1\n      pop\n        /* \"#utility.yul\":9362:9461   */\n      tag_287\n        /* \"#utility.yul\":9458:9459   */\n      0x00\n        /* \"#utility.yul\":9447:9456   */\n      dup4\n        /* \"#utility.yul\":9443:9460   */\n      add\n        /* \"#utility.yul\":9434:9440   */\n      dup5\n        /* \"#utility.yul\":9362:9461   */\n      tag_256\n      jump\t// in\n    tag_287:\n        /* \"#utility.yul\":9190:9468   */\n      swap3\n      swap2\n      pop\n      pop\n      jump\t// out\n        /* \"#utility.yul\":9474:10114   */\n    tag_110:\n        /* \"#utility.yul\":9671:9675   */\n      0x00\n        /* \"#utility.yul\":9709:9711   */\n      0x60\n        /* \"#utility.yul\":9698:9707   */\n      dup3\n        /* \"#utility.yul\":9694:9712   */\n      add\n        /* \"#utility.yul\":9686:9712   */\n      swap1\n      pop\n        /* \"#utility.yul\":9758:9767   */\n      dup2\n        /* \"#utility.yul\":9752:9756   */\n      dup2\n        /* \"#utility.yul\":9748:9768   */\n      sub\n        /* \"#utility.yul\":9744:9745   */\n      0x00\n        /* \"#utility.yul\":9733:9742   */\n      dup4\n        /* \"#utility.yul\":9729:9746   */\n      add\n        /* \"#utility.yul\":9722:9769   */\n      mstore\n        /* \"#utility.yul\":9786:9864   */\n      tag_289\n        /* \"#utility.yul\":9859:9863   */\n      dup2\n        /* \"#utility.yul\":9850:9856   */\n      dup8\n        /* \"#utility.yul\":9786:9864   */\n      tag_260\n      jump\t// in\n    tag_289:\n        /* \"#utility.yul\":9778:9864   */\n      swap1\n      pop\n        /* \"#utility.yul\":9874:9946   */\n      tag_290\n        /* \"#utility.yul\":9942:9944   */\n      0x20\n        /* \"#utility.yul\":9931:9940   */\n      dup4\n        /* \"#utility.yul\":9927:9945   */\n      add\n        /* \"#utility.yul\":9918:9924   */\n      dup7\n        /* \"#utility.yul\":9874:9946   */\n      tag_245\n      jump\t// in\n    tag_290:\n        /* \"#utility.yul\":9993:10002   */\n      dup2\n        /* \"#utility.yul\":9987:9991   */\n      dup2\n        /* \"#utility.yul\":9983:10003   */\n      sub\n        /* \"#utility.yul\":9978:9980   */\n      0x40\n        /* \"#utility.yul\":9967:9976   */\n      dup4\n        /* \"#utility.yul\":9963:9981   */\n      add\n        /* \"#utility.yul\":9956:10004   */\n      mstore\n        /* \"#utility.yul\":10021:10107   */\n      tag_291\n        /* \"#utility.yul\":10102:10106   */\n      dup2\n        /* \"#utility.yul\":10093:10099   */\n      dup5\n        /* \"#utility.yul\":10085:10091   */\n      dup7\n        /* \"#utility.yul\":10021:10107   */\n      tag_249\n      jump\t// in\n    tag_291:\n        /* \"#utility.yul\":10013:10107   */\n      swap1\n      pop\n        /* \"#utility.yul\":9474:10114   */\n      swap6\n      swap5\n      pop\n      pop\n      pop\n      pop\n      pop\n      jump\t// out\n        /* \"#utility.yul\":10120:10539   */\n    tag_139:\n        /* \"#utility.yul\":10286:10290   */\n      0x00\n        /* \"#utility.yul\":10324:10326   */\n      0x20\n        /* \"#utility.yul\":10313:10322   */\n      dup3\n        /* \"#utility.yul\":10309:10327   */\n      add\n        /* \"#utility.yul\":10301:10327   */\n      swap1\n      pop\n        /* \"#utility.yul\":10373:10382   */\n      dup2\n        /* \"#utility.yul\":10367:10371   */\n      dup2\n        /* \"#utility.yul\":10363:10383   */\n      sub\n        /* \"#utility.yul\":10359:10360   */\n      0x00\n        /* \"#utility.yul\":10348:10357   */\n      dup4\n        /* \"#utility.yul\":10344:10361   */\n      add\n        /* \"#utility.yul\":10337:10384   */\n      mstore\n        /* \"#utility.yul\":10401:10532   */\n      tag_293\n        /* \"#utility.yul\":10527:10531   */\n      dup2\n        /* \"#utility.yul\":10401:10532   */\n      tag_269\n      jump\t// in\n    tag_293:\n        /* \"#utility.yul\":10393:10532   */\n      swap1\n      pop\n        /* \"#utility.yul\":10120:10539   */\n      swap2\n      swap1\n      pop\n      jump\t// out\n        /* \"#utility.yul\":10545:10964   */\n    tag_89:\n        /* \"#utility.yul\":10711:10715   */\n      0x00\n        /* \"#utility.yul\":10749:10751   */\n      0x20\n        /* \"#utility.yul\":10738:10747   */\n      dup3\n        /* \"#utility.yul\":10734:10752   */\n      add\n        /* \"#utility.yul\":10726:10752   */\n      swap1\n      pop\n        /* \"#utility.yul\":10798:10807   */\n      dup2\n        /* \"#utility.yul\":10792:10796   */\n      dup2\n        /* \"#utility.yul\":10788:10808   */\n      sub\n        /* \"#utility.yul\":10784:10785   */\n      0x00\n        /* \"#utility.yul\":10773:10782   */\n      dup4\n        /* \"#utility.yul\":10769:10786   */\n      add\n        /* \"#utility.yul\":10762:10809   */\n      mstore\n        /* \"#utility.yul\":10826:10957   */\n      tag_295\n        /* \"#utility.yul\":10952:10956   */\n      dup2\n        /* \"#utility.yul\":10826:10957   */\n      tag_274\n      jump\t// in\n    tag_295:\n        /* \"#utility.yul\":10818:10957   */\n      swap1\n      pop\n        /* \"#utility.yul\":10545:10964   */\n      swap2\n      swap1\n      pop\n      jump\t// out\n        /* \"#utility.yul\":10970:11389   */\n    tag_77:\n        /* \"#utility.yul\":11136:11140   */\n      0x00\n        /* \"#utility.yul\":11174:11176   */\n      0x20\n        /* \"#utility.yul\":11163:11172   */\n      dup3\n        /* \"#utility.yul\":11159:11177   */\n      add\n        /* \"#utility.yul\":11151:11177   */\n      swap1\n      pop\n        /* \"#utility.yul\":11223:11232   */\n      dup2\n        /* \"#utility.yul\":11217:11221   */\n      dup2\n        /* \"#utility.yul\":11213:11233   */\n      sub\n        /* \"#utility.yul\":11209:11210   */\n      0x00\n        /* \"#utility.yul\":11198:11207   */\n      dup4\n        /* \"#utility.yul\":11194:11211   */\n      add\n        /* \"#utility.yul\":11187:11234   */\n      mstore\n        /* \"#utility.yul\":11251:11382   */\n      tag_297\n        /* \"#utility.yul\":11377:11381   */\n      dup2\n        /* \"#utility.yul\":11251:11382   */\n      tag_279\n      jump\t// in\n    tag_297:\n        /* \"#utility.yul\":11243:11382   */\n      swap1\n      pop\n        /* \"#utility.yul\":10970:11389   */\n      swap2\n      swap1\n      pop\n      jump\t// out\n        /* \"#utility.yul\":11395:11524   */\n    tag_155:\n        /* \"#utility.yul\":11429:11435   */\n      0x00\n        /* \"#utility.yul\":11456:11476   */\n      tag_299\n      tag_300\n      jump\t// in\n    tag_299:\n        /* \"#utility.yul\":11446:11476   */\n      swap1\n      pop\n        /* \"#utility.yul\":11485:11518   */\n      tag_301\n        /* \"#utility.yul\":11513:11517   */\n      dup3\n        /* \"#utility.yul\":11505:11511   */\n      dup3\n        /* \"#utility.yul\":11485:11518   */\n      tag_302\n      jump\t// in\n    tag_301:\n        /* \"#utility.yul\":11395:11524   */\n      swap2\n      swap1\n      pop\n      jump\t// out\n        /* \"#utility.yul\":11530:11605   */\n    tag_300:\n        /* \"#utility.yul\":11563:11569   */\n      0x00\n        /* \"#utility.yul\":11596:11598   */\n      0x40\n        /* \"#utility.yul\":11590:11599   */\n      mload\n        /* \"#utility.yul\":11580:11599   */\n      swap1\n      pop\n        /* \"#utility.yul\":11530:11605   */\n      swap1\n      jump\t// out\n        /* \"#utility.yul\":11611:11931   */\n    tag_154:\n        /* \"#utility.yul\":11697:11701   */\n      0x00\n        /* \"#utility.yul\":11787:11805   */\n      0xffffffffffffffff\n        /* \"#utility.yul\":11779:11785   */\n      dup3\n        /* \"#utility.yul\":11776:11806   */\n      gt\n        /* \"#utility.yul\":11773:11829   */\n      iszero\n      tag_305\n      jumpi\n        /* \"#utility.yul\":11809:11827   */\n      tag_306\n      tag_307\n      jump\t// in\n    tag_306:\n        /* \"#utility.yul\":11773:11829   */\n    tag_305:\n        /* \"#utility.yul\":11859:11863   */\n      0x20\n        /* \"#utility.yul\":11851:11857   */\n      dup3\n        /* \"#utility.yul\":11847:11864   */\n      mul\n        /* \"#utility.yul\":11839:11864   */\n      swap1\n      pop\n        /* \"#utility.yul\":11919:11923   */\n      0x20\n        /* \"#utility.yul\":11913:11917   */\n      dup2\n        /* \"#utility.yul\":11909:11924   */\n      add\n        /* \"#utility.yul\":11901:11924   */\n      swap1\n      pop\n        /* \"#utility.yul\":11611:11931   */\n      swap2\n      swap1\n      pop\n      jump\t// out\n        /* \"#utility.yul\":11937:12244   */\n    tag_171:\n        /* \"#utility.yul\":11998:12002   */\n      0x00\n        /* \"#utility.yul\":12088:12106   */\n      0xffffffffffffffff\n        /* \"#utility.yul\":12080:12086   */\n      dup3\n        /* \"#utility.yul\":12077:12107   */\n      gt\n        /* \"#utility.yul\":12074:12130   */\n      iszero\n      tag_309\n      jumpi\n        /* \"#utility.yul\":12110:12128   */\n      tag_310\n      tag_307\n      jump\t// in\n    tag_310:\n        /* \"#utility.yul\":12074:12130   */\n    tag_309:\n        /* \"#utility.yul\":12148:12177   */\n      tag_311\n        /* \"#utility.yul\":12170:12176   */\n      dup3\n        /* \"#utility.yul\":12148:12177   */\n      tag_255\n      jump\t// in\n    tag_311:\n        /* \"#utility.yul\":12140:12177   */\n      swap1\n      pop\n        /* \"#utility.yul\":12232:12236   */\n      0x20\n        /* \"#utility.yul\":12226:12230   */\n      dup2\n        /* \"#utility.yul\":12222:12237   */\n      add\n        /* \"#utility.yul\":12214:12237   */\n      swap1\n      pop\n        /* \"#utility.yul\":11937:12244   */\n      swap2\n      swap1\n      pop\n      jump\t// out\n        /* \"#utility.yul\":12250:12558   */\n    tag_181:\n        /* \"#utility.yul\":12312:12316   */\n      0x00\n        /* \"#utility.yul\":12402:12420   */\n      0xffffffffffffffff\n        /* \"#utility.yul\":12394:12400   */\n      dup3\n        /* \"#utility.yul\":12391:12421   */\n      gt\n        /* \"#utility.yul\":12388:12444   */\n      iszero\n      tag_313\n      jumpi\n        /* \"#utility.yul\":12424:12442   */\n      tag_314\n      tag_307\n      jump\t// in\n    tag_314:\n        /* \"#utility.yul\":12388:12444   */\n    tag_313:\n        /* \"#utility.yul\":12462:12491   */\n      tag_315\n        /* \"#utility.yul\":12484:12490   */\n      dup3\n        /* \"#utility.yul\":12462:12491   */\n      tag_255\n      jump\t// in\n    tag_315:\n        /* \"#utility.yul\":12454:12491   */\n      swap1\n      pop\n        /* \"#utility.yul\":12546:12550   */\n      0x20\n        /* \"#utility.yul\":12540:12544   */\n      dup2\n        /* \"#utility.yul\":12536:12551   */\n      add\n        /* \"#utility.yul\":12528:12551   */\n      swap1\n      pop\n        /* \"#utility.yul\":12250:12558   */\n      swap2\n      swap1\n      pop\n      jump\t// out\n        /* \"#utility.yul\":12564:12663   */\n    tag_263:\n        /* \"#utility.yul\":12616:12622   */\n      0x00\n        /* \"#utility.yul\":12650:12655   */\n      dup2\n        /* \"#utility.yul\":12644:12656   */\n      mload\n        /* \"#utility.yul\":12634:12656   */\n      swap1\n      pop\n        /* \"#utility.yul\":12564:12663   */\n      swap2\n      swap1\n      pop\n      jump\t// out\n        /* \"#utility.yul\":12669:12837   */\n    tag_252:\n        /* \"#utility.yul\":12752:12763   */\n      0x00\n        /* \"#utility.yul\":12786:12792   */\n      dup3\n        /* \"#utility.yul\":12781:12784   */\n      dup3\n        /* \"#utility.yul\":12774:12793   */\n      mstore\n        /* \"#utility.yul\":12826:12830   */\n      0x20\n        /* \"#utility.yul\":12821:12824   */\n      dup3\n        /* \"#utility.yul\":12817:12831   */\n      add\n        /* \"#utility.yul\":12802:12831   */\n      swap1\n      pop\n        /* \"#utility.yul\":12669:12837   */\n      swap3\n      swap2\n      pop\n      pop\n      jump\t// out\n        /* \"#utility.yul\":12843:13012   */\n    tag_265:\n        /* \"#utility.yul\":12927:12938   */\n      0x00\n        /* \"#utility.yul\":12961:12967   */\n      dup3\n        /* \"#utility.yul\":12956:12959   */\n      dup3\n        /* \"#utility.yul\":12949:12968   */\n      mstore\n        /* \"#utility.yul\":13001:13005   */\n      0x20\n        /* \"#utility.yul\":12996:12999   */\n      dup3\n        /* \"#utility.yul\":12992:13006   */\n      add\n        /* \"#utility.yul\":12977:13006   */\n      swap1\n      pop\n        /* \"#utility.yul\":12843:13012   */\n      swap3\n      swap2\n      pop\n      pop\n      jump\t// out\n        /* \"#utility.yul\":13018:13114   */\n    tag_248:\n        /* \"#utility.yul\":13055:13062   */\n      0x00\n        /* \"#utility.yul\":13084:13108   */\n      tag_320\n        /* \"#utility.yul\":13102:13107   */\n      dup3\n        /* \"#utility.yul\":13084:13108   */\n      tag_321\n      jump\t// in\n    tag_320:\n        /* \"#utility.yul\":13073:13108   */\n      swap1\n      pop\n        /* \"#utility.yul\":13018:13114   */\n      swap2\n      swap1\n      pop\n      jump\t// out\n        /* \"#utility.yul\":13120:13246   */\n    tag_321:\n        /* \"#utility.yul\":13157:13164   */\n      0x00\n        /* \"#utility.yul\":13197:13239   */\n      0xffffffffffffffffffffffffffffffffffffffff\n        /* \"#utility.yul\":13190:13195   */\n      dup3\n        /* \"#utility.yul\":13186:13240   */\n      and\n        /* \"#utility.yul\":13175:13240   */\n      swap1\n      pop\n        /* \"#utility.yul\":13120:13246   */\n      swap2\n      swap1\n      pop\n      jump\t// out\n        /* \"#utility.yul\":13252:13406   */\n    tag_259:\n        /* \"#utility.yul\":13330:13339   */\n      0x00\n        /* \"#utility.yul\":13363:13400   */\n      tag_324\n        /* \"#utility.yul\":13394:13399   */\n      dup3\n        /* \"#utility.yul\":13363:13400   */\n      tag_325\n      jump\t// in\n    tag_324:\n        /* \"#utility.yul\":13350:13400   */\n      swap1\n      pop\n        /* \"#utility.yul\":13252:13406   */\n      swap2\n      swap1\n      pop\n      jump\t// out\n        /* \"#utility.yul\":13412:13538   */\n    tag_325:\n        /* \"#utility.yul\":13462:13471   */\n      0x00\n        /* \"#utility.yul\":13495:13532   */\n      tag_327\n        /* \"#utility.yul\":13526:13531   */\n      dup3\n        /* \"#utility.yul\":13495:13532   */\n      tag_328\n      jump\t// in\n    tag_327:\n        /* \"#utility.yul\":13482:13532   */\n      swap1\n      pop\n        /* \"#utility.yul\":13412:13538   */\n      swap2\n      swap1\n      pop\n      jump\t// out\n        /* \"#utility.yul\":13544:13657   */\n    tag_328:\n        /* \"#utility.yul\":13594:13603   */\n      0x00\n        /* \"#utility.yul\":13627:13651   */\n      tag_330\n        /* \"#utility.yul\":13645:13650   */\n      dup3\n        /* \"#utility.yul\":13627:13651   */\n      tag_321\n      jump\t// in\n    tag_330:\n        /* \"#utility.yul\":13614:13651   */\n      swap1\n      pop\n        /* \"#utility.yul\":13544:13657   */\n      swap2\n      swap1\n      pop\n      jump\t// out\n        /* \"#utility.yul\":13663:13817   */\n    tag_176:\n        /* \"#utility.yul\":13747:13753   */\n      dup3\n        /* \"#utility.yul\":13742:13745   */\n      dup2\n        /* \"#utility.yul\":13737:13740   */\n      dup4\n        /* \"#utility.yul\":13724:13754   */\n      calldatacopy\n        /* \"#utility.yul\":13809:13810   */\n      0x00\n        /* \"#utility.yul\":13800:13806   */\n      dup4\n        /* \"#utility.yul\":13795:13798   */\n      dup4\n        /* \"#utility.yul\":13791:13807   */\n      add\n        /* \"#utility.yul\":13784:13811   */\n      mstore\n        /* \"#utility.yul\":13663:13817   */\n      pop\n      pop\n      pop\n      jump\t// out\n        /* \"#utility.yul\":13823:14130   */\n    tag_267:\n        /* \"#utility.yul\":13891:13892   */\n      0x00\n        /* \"#utility.yul\":13901:14014   */\n    tag_333:\n        /* \"#utility.yul\":13915:13921   */\n      dup4\n        /* \"#utility.yul\":13912:13913   */\n      dup2\n        /* \"#utility.yul\":13909:13922   */\n      lt\n        /* \"#utility.yul\":13901:14014   */\n      iszero\n      tag_335\n      jumpi\n        /* \"#utility.yul\":14000:14001   */\n      dup1\n        /* \"#utility.yul\":13995:13998   */\n      dup3\n        /* \"#utility.yul\":13991:14002   */\n      add\n        /* \"#utility.yul\":13985:14003   */\n      mload\n        /* \"#utility.yul\":13981:13982   */\n      dup2\n        /* \"#utility.yul\":13976:13979   */\n      dup5\n        /* \"#utility.yul\":13972:13983   */\n      add\n        /* \"#utility.yul\":13965:14004   */\n      mstore\n        /* \"#utility.yul\":13937:13939   */\n      0x20\n        /* \"#utility.yul\":13934:13935   */\n      dup2\n        /* \"#utility.yul\":13930:13940   */\n      add\n        /* \"#utility.yul\":13925:13940   */\n      swap1\n      pop\n        /* \"#utility.yul\":13901:14014   */\n      jump(tag_333)\n    tag_335:\n        /* \"#utility.yul\":14032:14038   */\n      dup4\n        /* \"#utility.yul\":14029:14030   */\n      dup2\n        /* \"#utility.yul\":14026:14039   */\n      gt\n        /* \"#utility.yul\":14023:14124   */\n      iszero\n      tag_336\n      jumpi\n        /* \"#utility.yul\":14112:14113   */\n      0x00\n        /* \"#utility.yul\":14103:14109   */\n      dup5\n        /* \"#utility.yul\":14098:14101   */\n      dup5\n        /* \"#utility.yul\":14094:14110   */\n      add\n        /* \"#utility.yul\":14087:14114   */\n      mstore\n        /* \"#utility.yul\":14023:14124   */\n    tag_336:\n        /* \"#utility.yul\":13872:14130   */\n      pop\n        /* \"#utility.yul\":13823:14130   */\n      pop\n      pop\n      pop\n      jump\t// out\n        /* \"#utility.yul\":14136:14417   */\n    tag_302:\n        /* \"#utility.yul\":14219:14246   */\n      tag_338\n        /* \"#utility.yul\":14241:14245   */\n      dup3\n        /* \"#utility.yul\":14219:14246   */\n      tag_255\n      jump\t// in\n    tag_338:\n        /* \"#utility.yul\":14211:14217   */\n      dup2\n        /* \"#utility.yul\":14207:14247   */\n      add\n        /* \"#utility.yul\":14349:14355   */\n      dup2\n        /* \"#utility.yul\":14337:14347   */\n      dup2\n        /* \"#utility.yul\":14334:14356   */\n      lt\n        /* \"#utility.yul\":14313:14331   */\n      0xffffffffffffffff\n        /* \"#utility.yul\":14301:14311   */\n      dup3\n        /* \"#utility.yul\":14298:14332   */\n      gt\n        /* \"#utility.yul\":14295:14357   */\n      or\n        /* \"#utility.yul\":14292:14380   */\n      iszero\n      tag_339\n      jumpi\n        /* \"#utility.yul\":14360:14378   */\n      tag_340\n      tag_307\n      jump\t// in\n    tag_340:\n        /* \"#utility.yul\":14292:14380   */\n    tag_339:\n        /* \"#utility.yul\":14400:14410   */\n      dup1\n        /* \"#utility.yul\":14396:14398   */\n      0x40\n        /* \"#utility.yul\":14389:14411   */\n      mstore\n        /* \"#utility.yul\":14179:14417   */\n      pop\n        /* \"#utility.yul\":14136:14417   */\n      pop\n      pop\n      jump\t// out\n        /* \"#utility.yul\":14423:14603   */\n    tag_307:\n        /* \"#utility.yul\":14471:14548   */\n      0x4e487b7100000000000000000000000000000000000000000000000000000000\n        /* \"#utility.yul\":14468:14469   */\n      0x00\n        /* \"#utility.yul\":14461:14549   */\n      mstore\n        /* \"#utility.yul\":14568:14572   */\n      0x41\n        /* \"#utility.yul\":14565:14566   */\n      0x04\n        /* \"#utility.yul\":14558:14573   */\n      mstore\n        /* \"#utility.yul\":14592:14596   */\n      0x24\n        /* \"#utility.yul\":14589:14590   */\n      0x00\n        /* \"#utility.yul\":14582:14597   */\n      revert\n        /* \"#utility.yul\":14609:14726   */\n    tag_164:\n        /* \"#utility.yul\":14718:14719   */\n      0x00\n        /* \"#utility.yul\":14715:14716   */\n      dup1\n        /* \"#utility.yul\":14708:14720   */\n      revert\n        /* \"#utility.yul\":14732:14849   */\n    tag_158:\n        /* \"#utility.yul\":14841:14842   */\n      0x00\n        /* \"#utility.yul\":14838:14839   */\n      dup1\n        /* \"#utility.yul\":14831:14843   */\n      revert\n        /* \"#utility.yul\":14855:14972   */\n    tag_174:\n        /* \"#utility.yul\":14964:14965   */\n      0x00\n        /* \"#utility.yul\":14961:14962   */\n      dup1\n        /* \"#utility.yul\":14954:14966   */\n      revert\n        /* \"#utility.yul\":14978:15095   */\n    tag_213:\n        /* \"#utility.yul\":15087:15088   */\n      0x00\n        /* \"#utility.yul\":15084:15085   */\n      dup1\n        /* \"#utility.yul\":15077:15089   */\n      revert\n        /* \"#utility.yul\":15101:15218   */\n    tag_206:\n        /* \"#utility.yul\":15210:15211   */\n      0x00\n        /* \"#utility.yul\":15207:15208   */\n      dup1\n        /* \"#utility.yul\":15200:15212   */\n      revert\n        /* \"#utility.yul\":15224:15326   */\n    tag_255:\n        /* \"#utility.yul\":15265:15271   */\n      0x00\n        /* \"#utility.yul\":15316:15318   */\n      0x1f\n        /* \"#utility.yul\":15312:15319   */\n      not\n        /* \"#utility.yul\":15307:15309   */\n      0x1f\n        /* \"#utility.yul\":15300:15305   */\n      dup4\n        /* \"#utility.yul\":15296:15310   */\n      add\n        /* \"#utility.yul\":15292:15320   */\n      and\n        /* \"#utility.yul\":15282:15320   */\n      swap1\n      pop\n        /* \"#utility.yul\":15224:15326   */\n      swap2\n      swap1\n      pop\n      jump\t// out\n        /* \"#utility.yul\":15332:15557   */\n    tag_273:\n        /* \"#utility.yul\":15472:15506   */\n      0x4f776e61626c653a206e6577206f776e657220697320746865207a65726f2061\n        /* \"#utility.yul\":15468:15469   */\n      0x00\n        /* \"#utility.yul\":15460:15466   */\n      dup3\n        /* \"#utility.yul\":15456:15470   */\n      add\n        /* \"#utility.yul\":15449:15507   */\n      mstore\n        /* \"#utility.yul\":15541:15549   */\n      0x6464726573730000000000000000000000000000000000000000000000000000\n        /* \"#utility.yul\":15536:15538   */\n      0x20\n        /* \"#utility.yul\":15528:15534   */\n      dup3\n        /* \"#utility.yul\":15524:15539   */\n      add\n        /* \"#utility.yul\":15517:15550   */\n      mstore\n        /* \"#utility.yul\":15332:15557   */\n      pop\n      jump\t// out\n        /* \"#utility.yul\":15563:15745   */\n    tag_278:\n        /* \"#utility.yul\":15703:15737   */\n      0x4f776e61626c653a2063616c6c6572206973206e6f7420746865206f776e6572\n        /* \"#utility.yul\":15699:15700   */\n      0x00\n        /* \"#utility.yul\":15691:15697   */\n      dup3\n        /* \"#utility.yul\":15687:15701   */\n      add\n        /* \"#utility.yul\":15680:15738   */\n      mstore\n        /* \"#utility.yul\":15563:15745   */\n      pop\n      jump\t// out\n        /* \"#utility.yul\":15751:15997   */\n    tag_283:\n        /* \"#utility.yul\":15891:15925   */\n      0x43726564656e7469616c2043616c6c4261636b3a204f6e6c7920746865206f72\n        /* \"#utility.yul\":15887:15888   */\n      0x00\n        /* \"#utility.yul\":15879:15885   */\n      dup3\n        /* \"#utility.yul\":15875:15889   */\n      add\n        /* \"#utility.yul\":15868:15926   */\n      mstore\n        /* \"#utility.yul\":15960:15989   */\n      0x61636c652063616e2063616c6c20746869732066756e6374696f6e0000000000\n        /* \"#utility.yul\":15955:15957   */\n      0x20\n        /* \"#utility.yul\":15947:15953   */\n      dup3\n        /* \"#utility.yul\":15943:15958   */\n      add\n        /* \"#utility.yul\":15936:15990   */\n      mstore\n        /* \"#utility.yul\":15751:15997   */\n      pop\n      jump\t// out\n        /* \"#utility.yul\":16003:16125   */\n    tag_188:\n        /* \"#utility.yul\":16076:16100   */\n      tag_352\n        /* \"#utility.yul\":16094:16099   */\n      dup2\n        /* \"#utility.yul\":16076:16100   */\n      tag_248\n      jump\t// in\n    tag_352:\n        /* \"#utility.yul\":16069:16074   */\n      dup2\n        /* \"#utility.yul\":16066:16101   */\n      eq\n        /* \"#utility.yul\":16056:16119   */\n      tag_353\n      jumpi\n        /* \"#utility.yul\":16115:16116   */\n      0x00\n        /* \"#utility.yul\":16112:16113   */\n      dup1\n        /* \"#utility.yul\":16105:16117   */\n      revert\n        /* \"#utility.yul\":16056:16119   */\n    tag_353:\n        /* \"#utility.yul\":16003:16125   */\n      pop\n      jump\t// out\n\n    auxdata: 0xa2646970667358221220cede94dbeae095cfc984d7c648acd90cd50031386c3d2527c150694159374db964736f6c63430008070033\n}\n",
				"bytecode": {
					"linkReferences": {},
					"object": "60806040523480156200001157600080fd5b5060405162001613380380620016138339818101604052810190620000379190620001c5565b80620000586200004c620000e260201b60201c565b620000ea60201b60201c565b80600160006101000a81548173ffffffffffffffffffffffffffffffffffffffff021916908373ffffffffffffffffffffffffffffffffffffffff16021790555080600260006101000a81548173ffffffffffffffffffffffffffffffffffffffff021916908373ffffffffffffffffffffffffffffffffffffffff16021790555050506200025e565b600033905090565b60008060009054906101000a900473ffffffffffffffffffffffffffffffffffffffff169050816000806101000a81548173ffffffffffffffffffffffffffffffffffffffff021916908373ffffffffffffffffffffffffffffffffffffffff1602179055508173ffffffffffffffffffffffffffffffffffffffff168173ffffffffffffffffffffffffffffffffffffffff167f8be0079c531659141344cd1fd0a4f28419497f9722a3daafe3b4186f6b6457e060405160405180910390a35050565b600081519050620001bf8162000244565b92915050565b600060208284031215620001de57620001dd6200023f565b5b6000620001ee84828501620001ae565b91505092915050565b600062000204826200021f565b9050919050565b60006200021882620001f7565b9050919050565b600073ffffffffffffffffffffffffffffffffffffffff82169050919050565b600080fd5b6200024f816200020b565b81146200025b57600080fd5b50565b6113a5806200026e6000396000f3fe608060405234801561001057600080fd5b50600436106101005760003560e01c8063a890e38111610097578063cd68049211610066578063cd68049214610223578063dce8a9551461023f578063f2fde38b1461025b578063f37d9ecd1461027757610100565b8063a890e381146101c5578063b0c7f4c0146101e1578063c113344b146101fd578063c1d156761461021957610100565b8063787a9a95116100d3578063787a9a95146101655780637fa258791461018157806389aeb0711461019d5780638da5cb5b146101a757610100565b80630bf0ea1814610105578063436e99f3146101215780635f7690b31461013d578063715018a61461015b575b600080fd5b61011f600480360381019061011a9190610d1c565b610293565b005b61013b60048036038101906101369190610cd3565b610327565b005b6101456103ba565b6040516101529190610fbb565b60405180910390f35b6101636103e0565b005b61017f600480360381019061017a9190610cd3565b610468565b005b61019b60048036038101906101969190610cd3565b6104fb565b005b6101a561058e565b005b6101af61060c565b6040516101bc9190610fa0565b60405180910390f35b6101df60048036038101906101da9190610d94565b610635565b005b6101fb60048036038101906101f69190610d1c565b6106cf565b005b61021760048036038101906102129190610d94565b610763565b005b6102216107fd565b005b61023d60048036038101906102389190610cd3565b6107ff565b005b61025960048036038101906102549190610d1c565b610802565b005b61027560048036038101906102709190610ca6565b610896565b005b610291600480360381019061028c9190610e0c565b61098e565b005b600160009054906101000a900473ffffffffffffffffffffffffffffffffffffffff1673ffffffffffffffffffffffffffffffffffffffff163373ffffffffffffffffffffffffffffffffffffffff1614610323576040517f08c379a000000000000000000000000000000000000000000000000000000000815260040161031a9061105d565b60405180910390fd5b5050565b600160009054906101000a900473ffffffffffffffffffffffffffffffffffffffff1673ffffffffffffffffffffffffffffffffffffffff163373ffffffffffffffffffffffffffffffffffffffff16146103b7576040517f08c379a00000000000000000000000000000000000000000000000000000000081526004016103ae9061105d565b60405180910390fd5b50565b600260009054906101000a900473ffffffffffffffffffffffffffffffffffffffff1681565b6103e8610a29565b73ffffffffffffffffffffffffffffffffffffffff1661040661060c565b73ffffffffffffffffffffffffffffffffffffffff161461045c576040517f08c379a00000000000000000000000000000000000000000000000000000000081526004016104539061103d565b60405180910390fd5b6104666000610a31565b565b600160009054906101000a900473ffffffffffffffffffffffffffffffffffffffff1673ffffffffffffffffffffffffffffffffffffffff163373ffffffffffffffffffffffffffffffffffffffff16146104f8576040517f08c379a00000000000000000000000000000000000000000000000000000000081526004016104ef9061105d565b60405180910390fd5b50565b600160009054906101000a900473ffffffffffffffffffffffffffffffffffffffff1673ffffffffffffffffffffffffffffffffffffffff163373ffffffffffffffffffffffffffffffffffffffff161461058b576040517f08c379a00000000000000000000000000000000000000000000000000000000081526004016105829061105d565b60405180910390fd5b50565b610596610a29565b73ffffffffffffffffffffffffffffffffffffffff166105b461060c565b73ffffffffffffffffffffffffffffffffffffffff161461060a576040517f08c379a00000000000000000000000000000000000000000000000000000000081526004016106019061103d565b60405180910390fd5b565b60008060009054906101000a900473ffffffffffffffffffffffffffffffffffffffff16905090565b80600260009054906101000a900473ffffffffffffffffffffffffffffffffffffffff1673ffffffffffffffffffffffffffffffffffffffff16631a971c1b82336000366040518563ffffffff1660e01b81526004016106989493929190610fd6565b600060405180830381600087803b1580156106b257600080fd5b505af11580156106c6573d6000803e3d6000fd5b50505050505050565b600160009054906101000a900473ffffffffffffffffffffffffffffffffffffffff1673ffffffffffffffffffffffffffffffffffffffff163373ffffffffffffffffffffffffffffffffffffffff161461075f576040517f08c379a00000000000000000000000000000000000000000000000000000000081526004016107569061105d565b60405180910390fd5b5050565b80600260009054906101000a900473ffffffffffffffffffffffffffffffffffffffff1673ffffffffffffffffffffffffffffffffffffffff16631a971c1b82336000366040518563ffffffff1660e01b81526004016107c69493929190610fd6565b600060405180830381600087803b1580156107e057600080fd5b505af11580156107f4573d6000803e3d6000fd5b50505050505050565b565b50565b600160009054906101000a900473ffffffffffffffffffffffffffffffffffffffff1673ffffffffffffffffffffffffffffffffffffffff163373ffffffffffffffffffffffffffffffffffffffff1614610892576040517f08c379a00000000000000000000000000000000000000000000000000000000081526004016108899061105d565b60405180910390fd5b5050565b61089e610a29565b73ffffffffffffffffffffffffffffffffffffffff166108bc61060c565b73ffffffffffffffffffffffffffffffffffffffff1614610912576040517f08c379a00000000000000000000000000000000000000000000000000000000081526004016109099061103d565b60405180910390fd5b600073ffffffffffffffffffffffffffffffffffffffff168173ffffffffffffffffffffffffffffffffffffffff161415610982576040517f08c379a00000000000000000000000000000000000000000000000000000000081526004016109799061101d565b60405180910390fd5b61098b81610a31565b50565b81600260009054906101000a900473ffffffffffffffffffffffffffffffffffffffff1673ffffffffffffffffffffffffffffffffffffffff16631a971c1b82336000366040518563ffffffff1660e01b81526004016109f19493929190610fd6565b600060405180830381600087803b158015610a0b57600080fd5b505af1158015610a1f573d6000803e3d6000fd5b5050505050505050565b600033905090565b60008060009054906101000a900473ffffffffffffffffffffffffffffffffffffffff169050816000806101000a81548173ffffffffffffffffffffffffffffffffffffffff021916908373ffffffffffffffffffffffffffffffffffffffff1602179055508173ffffffffffffffffffffffffffffffffffffffff168173ffffffffffffffffffffffffffffffffffffffff167f8be0079c531659141344cd1fd0a4f28419497f9722a3daafe3b4186f6b6457e060405160405180910390a35050565b6000610b08610b03846110a2565b61107d565b90508083825260208201905082856020860282011115610b2b57610b2a61126c565b5b60005b85811015610b7957813567ffffffffffffffff811115610b5157610b50611267565b5b808601610b5e8982610c4a565b85526020850194506020840193505050600181019050610b2e565b5050509392505050565b6000610b96610b91846110ce565b61107d565b905082815260208101848484011115610bb257610bb1611271565b5b610bbd8482856111c5565b509392505050565b6000610bd8610bd3846110ff565b61107d565b905082815260208101848484011115610bf457610bf3611271565b5b610bff8482856111c5565b509392505050565b600081359050610c1681611358565b92915050565b600082601f830112610c3157610c30611267565b5b8135610c41848260208601610af5565b91505092915050565b600082601f830112610c5f57610c5e611267565b5b8135610c6f848260208601610b83565b91505092915050565b600082601f830112610c8d57610c8c611267565b5b8135610c9d848260208601610bc5565b91505092915050565b600060208284031215610cbc57610cbb61127b565b5b6000610cca84828501610c07565b91505092915050565b600060208284031215610ce957610ce861127b565b5b600082013567ffffffffffffffff811115610d0757610d06611276565b5b610d1384828501610c78565b91505092915050565b60008060408385031215610d3357610d3261127b565b5b600083013567ffffffffffffffff811115610d5157610d50611276565b5b610d5d85828601610c78565b925050602083013567ffffffffffffffff811115610d7e57610d7d611276565b5b610d8a85828601610c1c565b9150509250929050565b60008060408385031215610dab57610daa61127b565b5b600083013567ffffffffffffffff811115610dc957610dc8611276565b5b610dd585828601610c78565b925050602083013567ffffffffffffffff811115610df657610df5611276565b5b610e0285828601610c78565b9150509250929050565b600080600060608486031215610e2557610e2461127b565b5b600084013567ffffffffffffffff811115610e4357610e42611276565b5b610e4f86828701610c78565b935050602084013567ffffffffffffffff811115610e7057610e6f611276565b5b610e7c86828701610c78565b925050604084013567ffffffffffffffff811115610e9d57610e9c611276565b5b610ea986828701610c78565b9150509250925092565b610ebc8161115d565b82525050565b6000610ece838561113b565b9350610edb8385846111c5565b610ee483611280565b840190509392505050565b610ef88161118f565b82525050565b6000610f0982611130565b610f13818561114c565b9350610f238185602086016111d4565b610f2c81611280565b840191505092915050565b6000610f4460268361114c565b9150610f4f82611291565b604082019050919050565b6000610f6760208361114c565b9150610f72826112e0565b602082019050919050565b6000610f8a603b8361114c565b9150610f9582611309565b604082019050919050565b6000602082019050610fb56000830184610eb3565b92915050565b6000602082019050610fd06000830184610eef565b92915050565b60006060820190508181036000830152610ff08187610efe565b9050610fff6020830186610eb3565b8181036040830152611012818486610ec2565b905095945050505050565b6000602082019050818103600083015261103681610f37565b9050919050565b6000602082019050818103600083015261105681610f5a565b9050919050565b6000602082019050818103600083015261107681610f7d565b9050919050565b6000611087611098565b90506110938282611207565b919050565b6000604051905090565b600067ffffffffffffffff8211156110bd576110bc611238565b5b602082029050602081019050919050565b600067ffffffffffffffff8211156110e9576110e8611238565b5b6110f282611280565b9050602081019050919050565b600067ffffffffffffffff82111561111a57611119611238565b5b61112382611280565b9050602081019050919050565b600081519050919050565b600082825260208201905092915050565b600082825260208201905092915050565b60006111688261116f565b9050919050565b600073ffffffffffffffffffffffffffffffffffffffff82169050919050565b600061119a826111a1565b9050919050565b60006111ac826111b3565b9050919050565b60006111be8261116f565b9050919050565b82818337600083830152505050565b60005b838110156111f25780820151818401526020810190506111d7565b83811115611201576000848401525b50505050565b61121082611280565b810181811067ffffffffffffffff8211171561122f5761122e611238565b5b80604052505050565b7f4e487b7100000000000000000000000000000000000000000000000000000000600052604160045260246000fd5b600080fd5b600080fd5b600080fd5b600080fd5b600080fd5b6000601f19601f8301169050919050565b7f4f776e61626c653a206e6577206f776e657220697320746865207a65726f206160008201527f6464726573730000000000000000000000000000000000000000000000000000602082015250565b7f4f776e61626c653a2063616c6c6572206973206e6f7420746865206f776e6572600082015250565b7f43726564656e7469616c2043616c6c4261636b3a204f6e6c7920746865206f7260008201527f61636c652063616e2063616c6c20746869732066756e6374696f6e0000000000602082015250565b6113618161115d565b811461136c57600080fd5b5056fea2646970667358221220cede94dbeae095cfc984d7c648acd90cd50031386c3d2527c150694159374db964736f6c63430008070033",
					"opcodes": "PUSH1 0x80 PUSH1 0x40 MSTORE CALLVALUE DUP1 ISZERO PUSH3 0x11 JUMPI PUSH1 0x0 DUP1 REVERT JUMPDEST POP PUSH1 0x40 MLOAD PUSH3 0x1613 CODESIZE SUB DUP1 PUSH3 0x1613 DUP4 CODECOPY DUP2 DUP2 ADD PUSH1 0x40 MSTORE DUP2 ADD SWAP1 PUSH3 0x37 SWAP2 SWAP1 PUSH3 0x1C5 JUMP JUMPDEST DUP1 PUSH3 0x58 PUSH3 0x4C PUSH3 0xE2 PUSH1 0x20 SHL PUSH1 0x20 SHR JUMP JUMPDEST PUSH3 0xEA PUSH1 0x20 SHL PUSH1 0x20 SHR JUMP JUMPDEST DUP1 PUSH1 0x1 PUSH1 0x0 PUSH2 0x100 EXP DUP2 SLOAD DUP2 PUSH20 0xFFFFFFFFFFFFFFFFFFFFFFFFFFFFFFFFFFFFFFFF MUL NOT AND SWAP1 DUP4 PUSH20 0xFFFFFFFFFFFFFFFFFFFFFFFFFFFFFFFFFFFFFFFF AND MUL OR SWAP1 SSTORE POP DUP1 PUSH1 0x2 PUSH1 0x0 PUSH2 0x100 EXP DUP2 SLOAD DUP2 PUSH20 0xFFFFFFFFFFFFFFFFFFFFFFFFFFFFFFFFFFFFFFFF MUL NOT AND SWAP1 DUP4 PUSH20 0xFFFFFFFFFFFFFFFFFFFFFFFFFFFFFFFFFFFFFFFF AND MUL OR SWAP1 SSTORE POP POP POP PUSH3 0x25E JUMP JUMPDEST PUSH1 0x0 CALLER SWAP1 POP SWAP1 JUMP JUMPDEST PUSH1 0x0 DUP1 PUSH1 0x0 SWAP1 SLOAD SWAP1 PUSH2 0x100 EXP SWAP1 DIV PUSH20 0xFFFFFFFFFFFFFFFFFFFFFFFFFFFFFFFFFFFFFFFF AND SWAP1 POP DUP2 PUSH1 0x0 DUP1 PUSH2 0x100 EXP DUP2 SLOAD DUP2 PUSH20 0xFFFFFFFFFFFFFFFFFFFFFFFFFFFFFFFFFFFFFFFF MUL NOT AND SWAP1 DUP4 PUSH20 0xFFFFFFFFFFFFFFFFFFFFFFFFFFFFFFFFFFFFFFFF AND MUL OR SWAP1 SSTORE POP DUP2 PUSH20 0xFFFFFFFFFFFFFFFFFFFFFFFFFFFFFFFFFFFFFFFF AND DUP2 PUSH20 0xFFFFFFFFFFFFFFFFFFFFFFFFFFFFFFFFFFFFFFFF AND PUSH32 0x8BE0079C531659141344CD1FD0A4F28419497F9722A3DAAFE3B4186F6B6457E0 PUSH1 0x40 MLOAD PUSH1 0x40 MLOAD DUP1 SWAP2 SUB SWAP1 LOG3 POP POP JUMP JUMPDEST PUSH1 0x0 DUP2 MLOAD SWAP1 POP PUSH3 0x1BF DUP2 PUSH3 0x244 JUMP JUMPDEST SWAP3 SWAP2 POP POP JUMP JUMPDEST PUSH1 0x0 PUSH1 0x20 DUP3 DUP5 SUB SLT ISZERO PUSH3 0x1DE JUMPI PUSH3 0x1DD PUSH3 0x23F JUMP JUMPDEST JUMPDEST PUSH1 0x0 PUSH3 0x1EE DUP5 DUP3 DUP6 ADD PUSH3 0x1AE JUMP JUMPDEST SWAP2 POP POP SWAP3 SWAP2 POP POP JUMP JUMPDEST PUSH1 0x0 PUSH3 0x204 DUP3 PUSH3 0x21F JUMP JUMPDEST SWAP1 POP SWAP2 SWAP1 POP JUMP JUMPDEST PUSH1 0x0 PUSH3 0x218 DUP3 PUSH3 0x1F7 JUMP JUMPDEST SWAP1 POP SWAP2 SWAP1 POP JUMP JUMPDEST PUSH1 0x0 PUSH20 0xFFFFFFFFFFFFFFFFFFFFFFFFFFFFFFFFFFFFFFFF DUP3 AND SWAP1 POP SWAP2 SWAP1 POP JUMP JUMPDEST PUSH1 0x0 DUP1 REVERT JUMPDEST PUSH3 0x24F DUP2 PUSH3 0x20B JUMP JUMPDEST DUP2 EQ PUSH3 0x25B JUMPI PUSH1 0x0 DUP1 REVERT JUMPDEST POP JUMP JUMPDEST PUSH2 0x13A5 DUP1 PUSH3 0x26E PUSH1 0x0 CODECOPY PUSH1 0x0 RETURN INVALID PUSH1 0x80 PUSH1 0x40 MSTORE CALLVALUE DUP1 ISZERO PUSH2 0x10 JUMPI PUSH1 0x0 DUP1 REVERT JUMPDEST POP PUSH1 0x4 CALLDATASIZE LT PUSH2 0x100 JUMPI PUSH1 0x0 CALLDATALOAD PUSH1 0xE0 SHR DUP1 PUSH4 0xA890E381 GT PUSH2 0x97 JUMPI DUP1 PUSH4 0xCD680492 GT PUSH2 0x66 JUMPI DUP1 PUSH4 0xCD680492 EQ PUSH2 0x223 JUMPI DUP1 PUSH4 0xDCE8A955 EQ PUSH2 0x23F JUMPI DUP1 PUSH4 0xF2FDE38B EQ PUSH2 0x25B JUMPI DUP1 PUSH4 0xF37D9ECD EQ PUSH2 0x277 JUMPI PUSH2 0x100 JUMP JUMPDEST DUP1 PUSH4 0xA890E381 EQ PUSH2 0x1C5 JUMPI DUP1 PUSH4 0xB0C7F4C0 EQ PUSH2 0x1E1 JUMPI DUP1 PUSH4 0xC113344B EQ PUSH2 0x1FD JUMPI DUP1 PUSH4 0xC1D15676 EQ PUSH2 0x219 JUMPI PUSH2 0x100 JUMP JUMPDEST DUP1 PUSH4 0x787A9A95 GT PUSH2 0xD3 JUMPI DUP1 PUSH4 0x787A9A95 EQ PUSH2 0x165 JUMPI DUP1 PUSH4 0x7FA25879 EQ PUSH2 0x181 JUMPI DUP1 PUSH4 0x89AEB071 EQ PUSH2 0x19D JUMPI DUP1 PUSH4 0x8DA5CB5B EQ PUSH2 0x1A7 JUMPI PUSH2 0x100 JUMP JUMPDEST DUP1 PUSH4 0xBF0EA18 EQ PUSH2 0x105 JUMPI DUP1 PUSH4 0x436E99F3 EQ PUSH2 0x121 JUMPI DUP1 PUSH4 0x5F7690B3 EQ PUSH2 0x13D JUMPI DUP1 PUSH4 0x715018A6 EQ PUSH2 0x15B JUMPI JUMPDEST PUSH1 0x0 DUP1 REVERT JUMPDEST PUSH2 0x11F PUSH1 0x4 DUP1 CALLDATASIZE SUB DUP2 ADD SWAP1 PUSH2 0x11A SWAP2 SWAP1 PUSH2 0xD1C JUMP JUMPDEST PUSH2 0x293 JUMP JUMPDEST STOP JUMPDEST PUSH2 0x13B PUSH1 0x4 DUP1 CALLDATASIZE SUB DUP2 ADD SWAP1 PUSH2 0x136 SWAP2 SWAP1 PUSH2 0xCD3 JUMP JUMPDEST PUSH2 0x327 JUMP JUMPDEST STOP JUMPDEST PUSH2 0x145 PUSH2 0x3BA JUMP JUMPDEST PUSH1 0x40 MLOAD PUSH2 0x152 SWAP2 SWAP1 PUSH2 0xFBB JUMP JUMPDEST PUSH1 0x40 MLOAD DUP1 SWAP2 SUB SWAP1 RETURN JUMPDEST PUSH2 0x163 PUSH2 0x3E0 JUMP JUMPDEST STOP JUMPDEST PUSH2 0x17F PUSH1 0x4 DUP1 CALLDATASIZE SUB DUP2 ADD SWAP1 PUSH2 0x17A SWAP2 SWAP1 PUSH2 0xCD3 JUMP JUMPDEST PUSH2 0x468 JUMP JUMPDEST STOP JUMPDEST PUSH2 0x19B PUSH1 0x4 DUP1 CALLDATASIZE SUB DUP2 ADD SWAP1 PUSH2 0x196 SWAP2 SWAP1 PUSH2 0xCD3 JUMP JUMPDEST PUSH2 0x4FB JUMP JUMPDEST STOP JUMPDEST PUSH2 0x1A5 PUSH2 0x58E JUMP JUMPDEST STOP JUMPDEST PUSH2 0x1AF PUSH2 0x60C JUMP JUMPDEST PUSH1 0x40 MLOAD PUSH2 0x1BC SWAP2 SWAP1 PUSH2 0xFA0 JUMP JUMPDEST PUSH1 0x40 MLOAD DUP1 SWAP2 SUB SWAP1 RETURN JUMPDEST PUSH2 0x1DF PUSH1 0x4 DUP1 CALLDATASIZE SUB DUP2 ADD SWAP1 PUSH2 0x1DA SWAP2 SWAP1 PUSH2 0xD94 JUMP JUMPDEST PUSH2 0x635 JUMP JUMPDEST STOP JUMPDEST PUSH2 0x1FB PUSH1 0x4 DUP1 CALLDATASIZE SUB DUP2 ADD SWAP1 PUSH2 0x1F6 SWAP2 SWAP1 PUSH2 0xD1C JUMP JUMPDEST PUSH2 0x6CF JUMP JUMPDEST STOP JUMPDEST PUSH2 0x217 PUSH1 0x4 DUP1 CALLDATASIZE SUB DUP2 ADD SWAP1 PUSH2 0x212 SWAP2 SWAP1 PUSH2 0xD94 JUMP JUMPDEST PUSH2 0x763 JUMP JUMPDEST STOP JUMPDEST PUSH2 0x221 PUSH2 0x7FD JUMP JUMPDEST STOP JUMPDEST PUSH2 0x23D PUSH1 0x4 DUP1 CALLDATASIZE SUB DUP2 ADD SWAP1 PUSH2 0x238 SWAP2 SWAP1 PUSH2 0xCD3 JUMP JUMPDEST PUSH2 0x7FF JUMP JUMPDEST STOP JUMPDEST PUSH2 0x259 PUSH1 0x4 DUP1 CALLDATASIZE SUB DUP2 ADD SWAP1 PUSH2 0x254 SWAP2 SWAP1 PUSH2 0xD1C JUMP JUMPDEST PUSH2 0x802 JUMP JUMPDEST STOP JUMPDEST PUSH2 0x275 PUSH1 0x4 DUP1 CALLDATASIZE SUB DUP2 ADD SWAP1 PUSH2 0x270 SWAP2 SWAP1 PUSH2 0xCA6 JUMP JUMPDEST PUSH2 0x896 JUMP JUMPDEST STOP JUMPDEST PUSH2 0x291 PUSH1 0x4 DUP1 CALLDATASIZE SUB DUP2 ADD SWAP1 PUSH2 0x28C SWAP2 SWAP1 PUSH2 0xE0C JUMP JUMPDEST PUSH2 0x98E JUMP JUMPDEST STOP JUMPDEST PUSH1 0x1 PUSH1 0x0 SWAP1 SLOAD SWAP1 PUSH2 0x100 EXP SWAP1 DIV PUSH20 0xFFFFFFFFFFFFFFFFFFFFFFFFFFFFFFFFFFFFFFFF AND PUSH20 0xFFFFFFFFFFFFFFFFFFFFFFFFFFFFFFFFFFFFFFFF AND CALLER PUSH20 0xFFFFFFFFFFFFFFFFFFFFFFFFFFFFFFFFFFFFFFFF AND EQ PUSH2 0x323 JUMPI PUSH1 0x40 MLOAD PUSH32 0x8C379A000000000000000000000000000000000000000000000000000000000 DUP2 MSTORE PUSH1 0x4 ADD PUSH2 0x31A SWAP1 PUSH2 0x105D JUMP JUMPDEST PUSH1 0x40 MLOAD DUP1 SWAP2 SUB SWAP1 REVERT JUMPDEST POP POP JUMP JUMPDEST PUSH1 0x1 PUSH1 0x0 SWAP1 SLOAD SWAP1 PUSH2 0x100 EXP SWAP1 DIV PUSH20 0xFFFFFFFFFFFFFFFFFFFFFFFFFFFFFFFFFFFFFFFF AND PUSH20 0xFFFFFFFFFFFFFFFFFFFFFFFFFFFFFFFFFFFFFFFF AND CALLER PUSH20 0xFFFFFFFFFFFFFFFFFFFFFFFFFFFFFFFFFFFFFFFF AND EQ PUSH2 0x3B7 JUMPI PUSH1 0x40 MLOAD PUSH32 0x8C379A000000000000000000000000000000000000000000000000000000000 DUP2 MSTORE PUSH1 0x4 ADD PUSH2 0x3AE SWAP1 PUSH2 0x105D JUMP JUMPDEST PUSH1 0x40 MLOAD DUP1 SWAP2 SUB SWAP1 REVERT JUMPDEST POP JUMP JUMPDEST PUSH1 0x2 PUSH1 0x0 SWAP1 SLOAD SWAP1 PUSH2 0x100 EXP SWAP1 DIV PUSH20 0xFFFFFFFFFFFFFFFFFFFFFFFFFFFFFFFFFFFFFFFF AND DUP2 JUMP JUMPDEST PUSH2 0x3E8 PUSH2 0xA29 JUMP JUMPDEST PUSH20 0xFFFFFFFFFFFFFFFFFFFFFFFFFFFFFFFFFFFFFFFF AND PUSH2 0x406 PUSH2 0x60C JUMP JUMPDEST PUSH20 0xFFFFFFFFFFFFFFFFFFFFFFFFFFFFFFFFFFFFFFFF AND EQ PUSH2 0x45C JUMPI PUSH1 0x40 MLOAD PUSH32 0x8C379A000000000000000000000000000000000000000000000000000000000 DUP2 MSTORE PUSH1 0x4 ADD PUSH2 0x453 SWAP1 PUSH2 0x103D JUMP JUMPDEST PUSH1 0x40 MLOAD DUP1 SWAP2 SUB SWAP1 REVERT JUMPDEST PUSH2 0x466 PUSH1 0x0 PUSH2 0xA31 JUMP JUMPDEST JUMP JUMPDEST PUSH1 0x1 PUSH1 0x0 SWAP1 SLOAD SWAP1 PUSH2 0x100 EXP SWAP1 DIV PUSH20 0xFFFFFFFFFFFFFFFFFFFFFFFFFFFFFFFFFFFFFFFF AND PUSH20 0xFFFFFFFFFFFFFFFFFFFFFFFFFFFFFFFFFFFFFFFF AND CALLER PUSH20 0xFFFFFFFFFFFFFFFFFFFFFFFFFFFFFFFFFFFFFFFF AND EQ PUSH2 0x4F8 JUMPI PUSH1 0x40 MLOAD PUSH32 0x8C379A000000000000000000000000000000000000000000000000000000000 DUP2 MSTORE PUSH1 0x4 ADD PUSH2 0x4EF SWAP1 PUSH2 0x105D JUMP JUMPDEST PUSH1 0x40 MLOAD DUP1 SWAP2 SUB SWAP1 REVERT JUMPDEST POP JUMP JUMPDEST PUSH1 0x1 PUSH1 0x0 SWAP1 SLOAD SWAP1 PUSH2 0x100 EXP SWAP1 DIV PUSH20 0xFFFFFFFFFFFFFFFFFFFFFFFFFFFFFFFFFFFFFFFF AND PUSH20 0xFFFFFFFFFFFFFFFFFFFFFFFFFFFFFFFFFFFFFFFF AND CALLER PUSH20 0xFFFFFFFFFFFFFFFFFFFFFFFFFFFFFFFFFFFFFFFF AND EQ PUSH2 0x58B JUMPI PUSH1 0x40 MLOAD PUSH32 0x8C379A000000000000000000000000000000000000000000000000000000000 DUP2 MSTORE PUSH1 0x4 ADD PUSH2 0x582 SWAP1 PUSH2 0x105D JUMP JUMPDEST PUSH1 0x40 MLOAD DUP1 SWAP2 SUB SWAP1 REVERT JUMPDEST POP JUMP JUMPDEST PUSH2 0x596 PUSH2 0xA29 JUMP JUMPDEST PUSH20 0xFFFFFFFFFFFFFFFFFFFFFFFFFFFFFFFFFFFFFFFF AND PUSH2 0x5B4 PUSH2 0x60C JUMP JUMPDEST PUSH20 0xFFFFFFFFFFFFFFFFFFFFFFFFFFFFFFFFFFFFFFFF AND EQ PUSH2 0x60A JUMPI PUSH1 0x40 MLOAD PUSH32 0x8C379A000000000000000000000000000000000000000000000000000000000 DUP2 MSTORE PUSH1 0x4 ADD PUSH2 0x601 SWAP1 PUSH2 0x103D JUMP JUMPDEST PUSH1 0x40 MLOAD DUP1 SWAP2 SUB SWAP1 REVERT JUMPDEST JUMP JUMPDEST PUSH1 0x0 DUP1 PUSH1 0x0 SWAP1 SLOAD SWAP1 PUSH2 0x100 EXP SWAP1 DIV PUSH20 0xFFFFFFFFFFFFFFFFFFFFFFFFFFFFFFFFFFFFFFFF AND SWAP1 POP SWAP1 JUMP JUMPDEST DUP1 PUSH1 0x2 PUSH1 0x0 SWAP1 SLOAD SWAP1 PUSH2 0x100 EXP SWAP1 DIV PUSH20 0xFFFFFFFFFFFFFFFFFFFFFFFFFFFFFFFFFFFFFFFF AND PUSH20 0xFFFFFFFFFFFFFFFFFFFFFFFFFFFFFFFFFFFFFFFF AND PUSH4 0x1A971C1B DUP3 CALLER PUSH1 0x0 CALLDATASIZE PUSH1 0x40 MLOAD DUP6 PUSH4 0xFFFFFFFF AND PUSH1 0xE0 SHL DUP2 MSTORE PUSH1 0x4 ADD PUSH2 0x698 SWAP5 SWAP4 SWAP3 SWAP2 SWAP1 PUSH2 0xFD6 JUMP JUMPDEST PUSH1 0x0 PUSH1 0x40 MLOAD DUP1 DUP4 SUB DUP2 PUSH1 0x0 DUP8 DUP1 EXTCODESIZE ISZERO DUP1 ISZERO PUSH2 0x6B2 JUMPI PUSH1 0x0 DUP1 REVERT JUMPDEST POP GAS CALL ISZERO DUP1 ISZERO PUSH2 0x6C6 JUMPI RETURNDATASIZE PUSH1 0x0 DUP1 RETURNDATACOPY RETURNDATASIZE PUSH1 0x0 REVERT JUMPDEST POP POP POP POP POP POP POP JUMP JUMPDEST PUSH1 0x1 PUSH1 0x0 SWAP1 SLOAD SWAP1 PUSH2 0x100 EXP SWAP1 DIV PUSH20 0xFFFFFFFFFFFFFFFFFFFFFFFFFFFFFFFFFFFFFFFF AND PUSH20 0xFFFFFFFFFFFFFFFFFFFFFFFFFFFFFFFFFFFFFFFF AND CALLER PUSH20 0xFFFFFFFFFFFFFFFFFFFFFFFFFFFFFFFFFFFFFFFF AND EQ PUSH2 0x75F JUMPI PUSH1 0x40 MLOAD PUSH32 0x8C379A000000000000000000000000000000000000000000000000000000000 DUP2 MSTORE PUSH1 0x4 ADD PUSH2 0x756 SWAP1 PUSH2 0x105D JUMP JUMPDEST PUSH1 0x40 MLOAD DUP1 SWAP2 SUB SWAP1 REVERT JUMPDEST POP POP JUMP JUMPDEST DUP1 PUSH1 0x2 PUSH1 0x0 SWAP1 SLOAD SWAP1 PUSH2 0x100 EXP SWAP1 DIV PUSH20 0xFFFFFFFFFFFFFFFFFFFFFFFFFFFFFFFFFFFFFFFF AND PUSH20 0xFFFFFFFFFFFFFFFFFFFFFFFFFFFFFFFFFFFFFFFF AND PUSH4 0x1A971C1B DUP3 CALLER PUSH1 0x0 CALLDATASIZE PUSH1 0x40 MLOAD DUP6 PUSH4 0xFFFFFFFF AND PUSH1 0xE0 SHL DUP2 MSTORE PUSH1 0x4 ADD PUSH2 0x7C6 SWAP5 SWAP4 SWAP3 SWAP2 SWAP1 PUSH2 0xFD6 JUMP JUMPDEST PUSH1 0x0 PUSH1 0x40 MLOAD DUP1 DUP4 SUB DUP2 PUSH1 0x0 DUP8 DUP1 EXTCODESIZE ISZERO DUP1 ISZERO PUSH2 0x7E0 JUMPI PUSH1 0x0 DUP1 REVERT JUMPDEST POP GAS CALL ISZERO DUP1 ISZERO PUSH2 0x7F4 JUMPI RETURNDATASIZE PUSH1 0x0 DUP1 RETURNDATACOPY RETURNDATASIZE PUSH1 0x0 REVERT JUMPDEST POP POP POP POP POP POP POP JUMP JUMPDEST JUMP JUMPDEST POP JUMP JUMPDEST PUSH1 0x1 PUSH1 0x0 SWAP1 SLOAD SWAP1 PUSH2 0x100 EXP SWAP1 DIV PUSH20 0xFFFFFFFFFFFFFFFFFFFFFFFFFFFFFFFFFFFFFFFF AND PUSH20 0xFFFFFFFFFFFFFFFFFFFFFFFFFFFFFFFFFFFFFFFF AND CALLER PUSH20 0xFFFFFFFFFFFFFFFFFFFFFFFFFFFFFFFFFFFFFFFF AND EQ PUSH2 0x892 JUMPI PUSH1 0x40 MLOAD PUSH32 0x8C379A000000000000000000000000000000000000000000000000000000000 DUP2 MSTORE PUSH1 0x4 ADD PUSH2 0x889 SWAP1 PUSH2 0x105D JUMP JUMPDEST PUSH1 0x40 MLOAD DUP1 SWAP2 SUB SWAP1 REVERT JUMPDEST POP POP JUMP JUMPDEST PUSH2 0x89E PUSH2 0xA29 JUMP JUMPDEST PUSH20 0xFFFFFFFFFFFFFFFFFFFFFFFFFFFFFFFFFFFFFFFF AND PUSH2 0x8BC PUSH2 0x60C JUMP JUMPDEST PUSH20 0xFFFFFFFFFFFFFFFFFFFFFFFFFFFFFFFFFFFFFFFF AND EQ PUSH2 0x912 JUMPI PUSH1 0x40 MLOAD PUSH32 0x8C379A000000000000000000000000000000000000000000000000000000000 DUP2 MSTORE PUSH1 0x4 ADD PUSH2 0x909 SWAP1 PUSH2 0x103D JUMP JUMPDEST PUSH1 0x40 MLOAD DUP1 SWAP2 SUB SWAP1 REVERT JUMPDEST PUSH1 0x0 PUSH20 0xFFFFFFFFFFFFFFFFFFFFFFFFFFFFFFFFFFFFFFFF AND DUP2 PUSH20 0xFFFFFFFFFFFFFFFFFFFFFFFFFFFFFFFFFFFFFFFF AND EQ ISZERO PUSH2 0x982 JUMPI PUSH1 0x40 MLOAD PUSH32 0x8C379A000000000000000000000000000000000000000000000000000000000 DUP2 MSTORE PUSH1 0x4 ADD PUSH2 0x979 SWAP1 PUSH2 0x101D JUMP JUMPDEST PUSH1 0x40 MLOAD DUP1 SWAP2 SUB SWAP1 REVERT JUMPDEST PUSH2 0x98B DUP2 PUSH2 0xA31 JUMP JUMPDEST POP JUMP JUMPDEST DUP2 PUSH1 0x2 PUSH1 0x0 SWAP1 SLOAD SWAP1 PUSH2 0x100 EXP SWAP1 DIV PUSH20 0xFFFFFFFFFFFFFFFFFFFFFFFFFFFFFFFFFFFFFFFF AND PUSH20 0xFFFFFFFFFFFFFFFFFFFFFFFFFFFFFFFFFFFFFFFF AND PUSH4 0x1A971C1B DUP3 CALLER PUSH1 0x0 CALLDATASIZE PUSH1 0x40 MLOAD DUP6 PUSH4 0xFFFFFFFF AND PUSH1 0xE0 SHL DUP2 MSTORE PUSH1 0x4 ADD PUSH2 0x9F1 SWAP5 SWAP4 SWAP3 SWAP2 SWAP1 PUSH2 0xFD6 JUMP JUMPDEST PUSH1 0x0 PUSH1 0x40 MLOAD DUP1 DUP4 SUB DUP2 PUSH1 0x0 DUP8 DUP1 EXTCODESIZE ISZERO DUP1 ISZERO PUSH2 0xA0B JUMPI PUSH1 0x0 DUP1 REVERT JUMPDEST POP GAS CALL ISZERO DUP1 ISZERO PUSH2 0xA1F JUMPI RETURNDATASIZE PUSH1 0x0 DUP1 RETURNDATACOPY RETURNDATASIZE PUSH1 0x0 REVERT JUMPDEST POP POP POP POP POP POP POP POP JUMP JUMPDEST PUSH1 0x0 CALLER SWAP1 POP SWAP1 JUMP JUMPDEST PUSH1 0x0 DUP1 PUSH1 0x0 SWAP1 SLOAD SWAP1 PUSH2 0x100 EXP SWAP1 DIV PUSH20 0xFFFFFFFFFFFFFFFFFFFFFFFFFFFFFFFFFFFFFFFF AND SWAP1 POP DUP2 PUSH1 0x0 DUP1 PUSH2 0x100 EXP DUP2 SLOAD DUP2 PUSH20 0xFFFFFFFFFFFFFFFFFFFFFFFFFFFFFFFFFFFFFFFF MUL NOT AND SWAP1 DUP4 PUSH20 0xFFFFFFFFFFFFFFFFFFFFFFFFFFFFFFFFFFFFFFFF AND MUL OR SWAP1 SSTORE POP DUP2 PUSH20 0xFFFFFFFFFFFFFFFFFFFFFFFFFFFFFFFFFFFFFFFF AND DUP2 PUSH20 0xFFFFFFFFFFFFFFFFFFFFFFFFFFFFFFFFFFFFFFFF AND PUSH32 0x8BE0079C531659141344CD1FD0A4F28419497F9722A3DAAFE3B4186F6B6457E0 PUSH1 0x40 MLOAD PUSH1 0x40 MLOAD DUP1 SWAP2 SUB SWAP1 LOG3 POP POP JUMP JUMPDEST PUSH1 0x0 PUSH2 0xB08 PUSH2 0xB03 DUP5 PUSH2 0x10A2 JUMP JUMPDEST PUSH2 0x107D JUMP JUMPDEST SWAP1 POP DUP1 DUP4 DUP3 MSTORE PUSH1 0x20 DUP3 ADD SWAP1 POP DUP3 DUP6 PUSH1 0x20 DUP7 MUL DUP3 ADD GT ISZERO PUSH2 0xB2B JUMPI PUSH2 0xB2A PUSH2 0x126C JUMP JUMPDEST JUMPDEST PUSH1 0x0 JUMPDEST DUP6 DUP2 LT ISZERO PUSH2 0xB79 JUMPI DUP2 CALLDATALOAD PUSH8 0xFFFFFFFFFFFFFFFF DUP2 GT ISZERO PUSH2 0xB51 JUMPI PUSH2 0xB50 PUSH2 0x1267 JUMP JUMPDEST JUMPDEST DUP1 DUP7 ADD PUSH2 0xB5E DUP10 DUP3 PUSH2 0xC4A JUMP JUMPDEST DUP6 MSTORE PUSH1 0x20 DUP6 ADD SWAP5 POP PUSH1 0x20 DUP5 ADD SWAP4 POP POP POP PUSH1 0x1 DUP2 ADD SWAP1 POP PUSH2 0xB2E JUMP JUMPDEST POP POP POP SWAP4 SWAP3 POP POP POP JUMP JUMPDEST PUSH1 0x0 PUSH2 0xB96 PUSH2 0xB91 DUP5 PUSH2 0x10CE JUMP JUMPDEST PUSH2 0x107D JUMP JUMPDEST SWAP1 POP DUP3 DUP2 MSTORE PUSH1 0x20 DUP2 ADD DUP5 DUP5 DUP5 ADD GT ISZERO PUSH2 0xBB2 JUMPI PUSH2 0xBB1 PUSH2 0x1271 JUMP JUMPDEST JUMPDEST PUSH2 0xBBD DUP5 DUP3 DUP6 PUSH2 0x11C5 JUMP JUMPDEST POP SWAP4 SWAP3 POP POP POP JUMP JUMPDEST PUSH1 0x0 PUSH2 0xBD8 PUSH2 0xBD3 DUP5 PUSH2 0x10FF JUMP JUMPDEST PUSH2 0x107D JUMP JUMPDEST SWAP1 POP DUP3 DUP2 MSTORE PUSH1 0x20 DUP2 ADD DUP5 DUP5 DUP5 ADD GT ISZERO PUSH2 0xBF4 JUMPI PUSH2 0xBF3 PUSH2 0x1271 JUMP JUMPDEST JUMPDEST PUSH2 0xBFF DUP5 DUP3 DUP6 PUSH2 0x11C5 JUMP JUMPDEST POP SWAP4 SWAP3 POP POP POP JUMP JUMPDEST PUSH1 0x0 DUP2 CALLDATALOAD SWAP1 POP PUSH2 0xC16 DUP2 PUSH2 0x1358 JUMP JUMPDEST SWAP3 SWAP2 POP POP JUMP JUMPDEST PUSH1 0x0 DUP3 PUSH1 0x1F DUP4 ADD SLT PUSH2 0xC31 JUMPI PUSH2 0xC30 PUSH2 0x1267 JUMP JUMPDEST JUMPDEST DUP2 CALLDATALOAD PUSH2 0xC41 DUP5 DUP3 PUSH1 0x20 DUP7 ADD PUSH2 0xAF5 JUMP JUMPDEST SWAP2 POP POP SWAP3 SWAP2 POP POP JUMP JUMPDEST PUSH1 0x0 DUP3 PUSH1 0x1F DUP4 ADD SLT PUSH2 0xC5F JUMPI PUSH2 0xC5E PUSH2 0x1267 JUMP JUMPDEST JUMPDEST DUP2 CALLDATALOAD PUSH2 0xC6F DUP5 DUP3 PUSH1 0x20 DUP7 ADD PUSH2 0xB83 JUMP JUMPDEST SWAP2 POP POP SWAP3 SWAP2 POP POP JUMP JUMPDEST PUSH1 0x0 DUP3 PUSH1 0x1F DUP4 ADD SLT PUSH2 0xC8D JUMPI PUSH2 0xC8C PUSH2 0x1267 JUMP JUMPDEST JUMPDEST DUP2 CALLDATALOAD PUSH2 0xC9D DUP5 DUP3 PUSH1 0x20 DUP7 ADD PUSH2 0xBC5 JUMP JUMPDEST SWAP2 POP POP SWAP3 SWAP2 POP POP JUMP JUMPDEST PUSH1 0x0 PUSH1 0x20 DUP3 DUP5 SUB SLT ISZERO PUSH2 0xCBC JUMPI PUSH2 0xCBB PUSH2 0x127B JUMP JUMPDEST JUMPDEST PUSH1 0x0 PUSH2 0xCCA DUP5 DUP3 DUP6 ADD PUSH2 0xC07 JUMP JUMPDEST SWAP2 POP POP SWAP3 SWAP2 POP POP JUMP JUMPDEST PUSH1 0x0 PUSH1 0x20 DUP3 DUP5 SUB SLT ISZERO PUSH2 0xCE9 JUMPI PUSH2 0xCE8 PUSH2 0x127B JUMP JUMPDEST JUMPDEST PUSH1 0x0 DUP3 ADD CALLDATALOAD PUSH8 0xFFFFFFFFFFFFFFFF DUP2 GT ISZERO PUSH2 0xD07 JUMPI PUSH2 0xD06 PUSH2 0x1276 JUMP JUMPDEST JUMPDEST PUSH2 0xD13 DUP5 DUP3 DUP6 ADD PUSH2 0xC78 JUMP JUMPDEST SWAP2 POP POP SWAP3 SWAP2 POP POP JUMP JUMPDEST PUSH1 0x0 DUP1 PUSH1 0x40 DUP4 DUP6 SUB SLT ISZERO PUSH2 0xD33 JUMPI PUSH2 0xD32 PUSH2 0x127B JUMP JUMPDEST JUMPDEST PUSH1 0x0 DUP4 ADD CALLDATALOAD PUSH8 0xFFFFFFFFFFFFFFFF DUP2 GT ISZERO PUSH2 0xD51 JUMPI PUSH2 0xD50 PUSH2 0x1276 JUMP JUMPDEST JUMPDEST PUSH2 0xD5D DUP6 DUP3 DUP7 ADD PUSH2 0xC78 JUMP JUMPDEST SWAP3 POP POP PUSH1 0x20 DUP4 ADD CALLDATALOAD PUSH8 0xFFFFFFFFFFFFFFFF DUP2 GT ISZERO PUSH2 0xD7E JUMPI PUSH2 0xD7D PUSH2 0x1276 JUMP JUMPDEST JUMPDEST PUSH2 0xD8A DUP6 DUP3 DUP7 ADD PUSH2 0xC1C JUMP JUMPDEST SWAP2 POP POP SWAP3 POP SWAP3 SWAP1 POP JUMP JUMPDEST PUSH1 0x0 DUP1 PUSH1 0x40 DUP4 DUP6 SUB SLT ISZERO PUSH2 0xDAB JUMPI PUSH2 0xDAA PUSH2 0x127B JUMP JUMPDEST JUMPDEST PUSH1 0x0 DUP4 ADD CALLDATALOAD PUSH8 0xFFFFFFFFFFFFFFFF DUP2 GT ISZERO PUSH2 0xDC9 JUMPI PUSH2 0xDC8 PUSH2 0x1276 JUMP JUMPDEST JUMPDEST PUSH2 0xDD5 DUP6 DUP3 DUP7 ADD PUSH2 0xC78 JUMP JUMPDEST SWAP3 POP POP PUSH1 0x20 DUP4 ADD CALLDATALOAD PUSH8 0xFFFFFFFFFFFFFFFF DUP2 GT ISZERO PUSH2 0xDF6 JUMPI PUSH2 0xDF5 PUSH2 0x1276 JUMP JUMPDEST JUMPDEST PUSH2 0xE02 DUP6 DUP3 DUP7 ADD PUSH2 0xC78 JUMP JUMPDEST SWAP2 POP POP SWAP3 POP SWAP3 SWAP1 POP JUMP JUMPDEST PUSH1 0x0 DUP1 PUSH1 0x0 PUSH1 0x60 DUP5 DUP7 SUB SLT ISZERO PUSH2 0xE25 JUMPI PUSH2 0xE24 PUSH2 0x127B JUMP JUMPDEST JUMPDEST PUSH1 0x0 DUP5 ADD CALLDATALOAD PUSH8 0xFFFFFFFFFFFFFFFF DUP2 GT ISZERO PUSH2 0xE43 JUMPI PUSH2 0xE42 PUSH2 0x1276 JUMP JUMPDEST JUMPDEST PUSH2 0xE4F DUP7 DUP3 DUP8 ADD PUSH2 0xC78 JUMP JUMPDEST SWAP4 POP POP PUSH1 0x20 DUP5 ADD CALLDATALOAD PUSH8 0xFFFFFFFFFFFFFFFF DUP2 GT ISZERO PUSH2 0xE70 JUMPI PUSH2 0xE6F PUSH2 0x1276 JUMP JUMPDEST JUMPDEST PUSH2 0xE7C DUP7 DUP3 DUP8 ADD PUSH2 0xC78 JUMP JUMPDEST SWAP3 POP POP PUSH1 0x40 DUP5 ADD CALLDATALOAD PUSH8 0xFFFFFFFFFFFFFFFF DUP2 GT ISZERO PUSH2 0xE9D JUMPI PUSH2 0xE9C PUSH2 0x1276 JUMP JUMPDEST JUMPDEST PUSH2 0xEA9 DUP7 DUP3 DUP8 ADD PUSH2 0xC78 JUMP JUMPDEST SWAP2 POP POP SWAP3 POP SWAP3 POP SWAP3 JUMP JUMPDEST PUSH2 0xEBC DUP2 PUSH2 0x115D JUMP JUMPDEST DUP3 MSTORE POP POP JUMP JUMPDEST PUSH1 0x0 PUSH2 0xECE DUP4 DUP6 PUSH2 0x113B JUMP JUMPDEST SWAP4 POP PUSH2 0xEDB DUP4 DUP6 DUP5 PUSH2 0x11C5 JUMP JUMPDEST PUSH2 0xEE4 DUP4 PUSH2 0x1280 JUMP JUMPDEST DUP5 ADD SWAP1 POP SWAP4 SWAP3 POP POP POP JUMP JUMPDEST PUSH2 0xEF8 DUP2 PUSH2 0x118F JUMP JUMPDEST DUP3 MSTORE POP POP JUMP JUMPDEST PUSH1 0x0 PUSH2 0xF09 DUP3 PUSH2 0x1130 JUMP JUMPDEST PUSH2 0xF13 DUP2 DUP6 PUSH2 0x114C JUMP JUMPDEST SWAP4 POP PUSH2 0xF23 DUP2 DUP6 PUSH1 0x20 DUP7 ADD PUSH2 0x11D4 JUMP JUMPDEST PUSH2 0xF2C DUP2 PUSH2 0x1280 JUMP JUMPDEST DUP5 ADD SWAP2 POP POP SWAP3 SWAP2 POP POP JUMP JUMPDEST PUSH1 0x0 PUSH2 0xF44 PUSH1 0x26 DUP4 PUSH2 0x114C JUMP JUMPDEST SWAP2 POP PUSH2 0xF4F DUP3 PUSH2 0x1291 JUMP JUMPDEST PUSH1 0x40 DUP3 ADD SWAP1 POP SWAP2 SWAP1 POP JUMP JUMPDEST PUSH1 0x0 PUSH2 0xF67 PUSH1 0x20 DUP4 PUSH2 0x114C JUMP JUMPDEST SWAP2 POP PUSH2 0xF72 DUP3 PUSH2 0x12E0 JUMP JUMPDEST PUSH1 0x20 DUP3 ADD SWAP1 POP SWAP2 SWAP1 POP JUMP JUMPDEST PUSH1 0x0 PUSH2 0xF8A PUSH1 0x3B DUP4 PUSH2 0x114C JUMP JUMPDEST SWAP2 POP PUSH2 0xF95 DUP3 PUSH2 0x1309 JUMP JUMPDEST PUSH1 0x40 DUP3 ADD SWAP1 POP SWAP2 SWAP1 POP JUMP JUMPDEST PUSH1 0x0 PUSH1 0x20 DUP3 ADD SWAP1 POP PUSH2 0xFB5 PUSH1 0x0 DUP4 ADD DUP5 PUSH2 0xEB3 JUMP JUMPDEST SWAP3 SWAP2 POP POP JUMP JUMPDEST PUSH1 0x0 PUSH1 0x20 DUP3 ADD SWAP1 POP PUSH2 0xFD0 PUSH1 0x0 DUP4 ADD DUP5 PUSH2 0xEEF JUMP JUMPDEST SWAP3 SWAP2 POP POP JUMP JUMPDEST PUSH1 0x0 PUSH1 0x60 DUP3 ADD SWAP1 POP DUP2 DUP2 SUB PUSH1 0x0 DUP4 ADD MSTORE PUSH2 0xFF0 DUP2 DUP8 PUSH2 0xEFE JUMP JUMPDEST SWAP1 POP PUSH2 0xFFF PUSH1 0x20 DUP4 ADD DUP7 PUSH2 0xEB3 JUMP JUMPDEST DUP2 DUP2 SUB PUSH1 0x40 DUP4 ADD MSTORE PUSH2 0x1012 DUP2 DUP5 DUP7 PUSH2 0xEC2 JUMP JUMPDEST SWAP1 POP SWAP6 SWAP5 POP POP POP POP POP JUMP JUMPDEST PUSH1 0x0 PUSH1 0x20 DUP3 ADD SWAP1 POP DUP2 DUP2 SUB PUSH1 0x0 DUP4 ADD MSTORE PUSH2 0x1036 DUP2 PUSH2 0xF37 JUMP JUMPDEST SWAP1 POP SWAP2 SWAP1 POP JUMP JUMPDEST PUSH1 0x0 PUSH1 0x20 DUP3 ADD SWAP1 POP DUP2 DUP2 SUB PUSH1 0x0 DUP4 ADD MSTORE PUSH2 0x1056 DUP2 PUSH2 0xF5A JUMP JUMPDEST SWAP1 POP SWAP2 SWAP1 POP JUMP JUMPDEST PUSH1 0x0 PUSH1 0x20 DUP3 ADD SWAP1 POP DUP2 DUP2 SUB PUSH1 0x0 DUP4 ADD MSTORE PUSH2 0x1076 DUP2 PUSH2 0xF7D JUMP JUMPDEST SWAP1 POP SWAP2 SWAP1 POP JUMP JUMPDEST PUSH1 0x0 PUSH2 0x1087 PUSH2 0x1098 JUMP JUMPDEST SWAP1 POP PUSH2 0x1093 DUP3 DUP3 PUSH2 0x1207 JUMP JUMPDEST SWAP2 SWAP1 POP JUMP JUMPDEST PUSH1 0x0 PUSH1 0x40 MLOAD SWAP1 POP SWAP1 JUMP JUMPDEST PUSH1 0x0 PUSH8 0xFFFFFFFFFFFFFFFF DUP3 GT ISZERO PUSH2 0x10BD JUMPI PUSH2 0x10BC PUSH2 0x1238 JUMP JUMPDEST JUMPDEST PUSH1 0x20 DUP3 MUL SWAP1 POP PUSH1 0x20 DUP2 ADD SWAP1 POP SWAP2 SWAP1 POP JUMP JUMPDEST PUSH1 0x0 PUSH8 0xFFFFFFFFFFFFFFFF DUP3 GT ISZERO PUSH2 0x10E9 JUMPI PUSH2 0x10E8 PUSH2 0x1238 JUMP JUMPDEST JUMPDEST PUSH2 0x10F2 DUP3 PUSH2 0x1280 JUMP JUMPDEST SWAP1 POP PUSH1 0x20 DUP2 ADD SWAP1 POP SWAP2 SWAP1 POP JUMP JUMPDEST PUSH1 0x0 PUSH8 0xFFFFFFFFFFFFFFFF DUP3 GT ISZERO PUSH2 0x111A JUMPI PUSH2 0x1119 PUSH2 0x1238 JUMP JUMPDEST JUMPDEST PUSH2 0x1123 DUP3 PUSH2 0x1280 JUMP JUMPDEST SWAP1 POP PUSH1 0x20 DUP2 ADD SWAP1 POP SWAP2 SWAP1 POP JUMP JUMPDEST PUSH1 0x0 DUP2 MLOAD SWAP1 POP SWAP2 SWAP1 POP JUMP JUMPDEST PUSH1 0x0 DUP3 DUP3 MSTORE PUSH1 0x20 DUP3 ADD SWAP1 POP SWAP3 SWAP2 POP POP JUMP JUMPDEST PUSH1 0x0 DUP3 DUP3 MSTORE PUSH1 0x20 DUP3 ADD SWAP1 POP SWAP3 SWAP2 POP POP JUMP JUMPDEST PUSH1 0x0 PUSH2 0x1168 DUP3 PUSH2 0x116F JUMP JUMPDEST SWAP1 POP SWAP2 SWAP1 POP JUMP JUMPDEST PUSH1 0x0 PUSH20 0xFFFFFFFFFFFFFFFFFFFFFFFFFFFFFFFFFFFFFFFF DUP3 AND SWAP1 POP SWAP2 SWAP1 POP JUMP JUMPDEST PUSH1 0x0 PUSH2 0x119A DUP3 PUSH2 0x11A1 JUMP JUMPDEST SWAP1 POP SWAP2 SWAP1 POP JUMP JUMPDEST PUSH1 0x0 PUSH2 0x11AC DUP3 PUSH2 0x11B3 JUMP JUMPDEST SWAP1 POP SWAP2 SWAP1 POP JUMP JUMPDEST PUSH1 0x0 PUSH2 0x11BE DUP3 PUSH2 0x116F JUMP JUMPDEST SWAP1 POP SWAP2 SWAP1 POP JUMP JUMPDEST DUP3 DUP2 DUP4 CALLDATACOPY PUSH1 0x0 DUP4 DUP4 ADD MSTORE POP POP POP JUMP JUMPDEST PUSH1 0x0 JUMPDEST DUP4 DUP2 LT ISZERO PUSH2 0x11F2 JUMPI DUP1 DUP3 ADD MLOAD DUP2 DUP5 ADD MSTORE PUSH1 0x20 DUP2 ADD SWAP1 POP PUSH2 0x11D7 JUMP JUMPDEST DUP4 DUP2 GT ISZERO PUSH2 0x1201 JUMPI PUSH1 0x0 DUP5 DUP5 ADD MSTORE JUMPDEST POP POP POP POP JUMP JUMPDEST PUSH2 0x1210 DUP3 PUSH2 0x1280 JUMP JUMPDEST DUP2 ADD DUP2 DUP2 LT PUSH8 0xFFFFFFFFFFFFFFFF DUP3 GT OR ISZERO PUSH2 0x122F JUMPI PUSH2 0x122E PUSH2 0x1238 JUMP JUMPDEST JUMPDEST DUP1 PUSH1 0x40 MSTORE POP POP POP JUMP JUMPDEST PUSH32 0x4E487B7100000000000000000000000000000000000000000000000000000000 PUSH1 0x0 MSTORE PUSH1 0x41 PUSH1 0x4 MSTORE PUSH1 0x24 PUSH1 0x0 REVERT JUMPDEST PUSH1 0x0 DUP1 REVERT JUMPDEST PUSH1 0x0 DUP1 REVERT JUMPDEST PUSH1 0x0 DUP1 REVERT JUMPDEST PUSH1 0x0 DUP1 REVERT JUMPDEST PUSH1 0x0 DUP1 REVERT JUMPDEST PUSH1 0x0 PUSH1 0x1F NOT PUSH1 0x1F DUP4 ADD AND SWAP1 POP SWAP2 SWAP1 POP JUMP JUMPDEST PUSH32 0x4F776E61626C653A206E6577206F776E657220697320746865207A65726F2061 PUSH1 0x0 DUP3 ADD MSTORE PUSH32 0x6464726573730000000000000000000000000000000000000000000000000000 PUSH1 0x20 DUP3 ADD MSTORE POP JUMP JUMPDEST PUSH32 0x4F776E61626C653A2063616C6C6572206973206E6F7420746865206F776E6572 PUSH1 0x0 DUP3 ADD MSTORE POP JUMP JUMPDEST PUSH32 0x43726564656E7469616C2043616C6C4261636B3A204F6E6C7920746865206F72 PUSH1 0x0 DUP3 ADD MSTORE PUSH32 0x61636C652063616E2063616C6C20746869732066756E6374696F6E0000000000 PUSH1 0x20 DUP3 ADD MSTORE POP JUMP JUMPDEST PUSH2 0x1361 DUP2 PUSH2 0x115D JUMP JUMPDEST DUP2 EQ PUSH2 0x136C JUMPI PUSH1 0x0 DUP1 REVERT JUMPDEST POP JUMP INVALID LOG2 PUSH5 0x6970667358 0x22 SLT KECCAK256 0xCE 0xDE SWAP5 0xDB 0xEA 0xE0 SWAP6 0xCF 0xC9 DUP5 0xD7 0xC6 BASEFEE 0xAC 0xD9 0xC 0xD5 STOP BALANCE CODESIZE PUSH13 0x3D2527C150694159374DB96473 PUSH16 0x6C634300080700330000000000000000 "
				},
				"gasEstimates": {
					"creation": {
						"codeDepositCost": "1005800",
						"executionCost": "infinite",
						"totalCost": "infinite"
					},
					"external": {
						"CREDENTIAL_EVENT()": "2668",
						"downVoteVibe(string,string)": "infinite",
						"downVoteVibe_authorised(string,bytes[])": "infinite",
						"downVoteVibe_unauthorised(string)": "infinite",
						"owner()": "2611",
						"postVibe(string,string,string)": "infinite",
						"postVibe_authorised(string,bytes[])": "infinite",
						"postVibe_unauthorised(string)": "infinite",
						"renounceOwnership()": "30464",
						"setInboxPriceForCredential(string)": "infinite",
						"setUpVibePool()": "233",
						"settleVibes()": "2740",
						"transferOwnership(address)": "30789",
						"upVoteVibe(string,string)": "infinite",
						"upVoteVibe_authorised(string,bytes[])": "infinite",
						"upVoteVibe_unauthorised(string)": "infinite"
					}
				},
				"methodIdentifiers": {
					"CREDENTIAL_EVENT()": "5f7690b3",
					"downVoteVibe(string,string)": "a890e381",
					"downVoteVibe_authorised(string,bytes[])": "0bf0ea18",
					"downVoteVibe_unauthorised(string)": "7fa25879",
					"owner()": "8da5cb5b",
					"postVibe(string,string,string)": "f37d9ecd",
					"postVibe_authorised(string,bytes[])": "dce8a955",
					"postVibe_unauthorised(string)": "436e99f3",
					"renounceOwnership()": "715018a6",
					"setInboxPriceForCredential(string)": "cd680492",
					"setUpVibePool()": "c1d15676",
					"settleVibes()": "89aeb071",
					"transferOwnership(address)": "f2fde38b",
					"upVoteVibe(string,string)": "c113344b",
					"upVoteVibe_authorised(string,bytes[])": "b0c7f4c0",
					"upVoteVibe_unauthorised(string)": "787a9a95"
				}
			},
			"storageLayout": {
				"storage": [
					{
						"astId": 7,
						"contract": "CommunicationFacet.sol:CommunicationFacet",
						"label": "_owner",
						"offset": 0,
						"slot": "0",
						"type": "t_address"
					},
					{
						"astId": 285,
						"contract": "CommunicationFacet.sol:CommunicationFacet",
						"label": "CREDENTIAL_ORACLE",
						"offset": 0,
						"slot": "1",
						"type": "t_address"
					},
					{
						"astId": 288,
						"contract": "CommunicationFacet.sol:CommunicationFacet",
						"label": "CREDENTIAL_EVENT",
						"offset": 0,
						"slot": "2",
						"type": "t_contract(CredentialEventFacet)280"
					}
				],
				"types": {
					"t_address": {
						"encoding": "inplace",
						"label": "address",
						"numberOfBytes": "20"
					},
					"t_contract(CredentialEventFacet)280": {
						"encoding": "inplace",
						"label": "contract CredentialEventFacet",
						"numberOfBytes": "20"
					}
				}
			},
			"userdoc": {
				"kind": "user",
				"methods": {},
				"version": 1
			}
		}
	}
}