{
	"CredentialEventFacet.sol": {
		"CredentialEventFacet": {
			"abi": [
				{
					"anonymous": false,
					"inputs": [
						{
							"indexed": false,
							"internalType": "string",
							"name": "list_id",
							"type": "string"
						},
						{
							"indexed": false,
							"internalType": "address",
							"name": "original_msg_sender",
							"type": "address"
						},
						{
							"indexed": false,
							"internalType": "bytes",
							"name": "original_msg_data",
							"type": "bytes"
						}
					],
					"name": "RequestCredentialsCallback",
					"type": "event"
				},
				{
					"inputs": [
						{
							"internalType": "string",
							"name": "list_id",
							"type": "string"
						},
						{
							"internalType": "address",
							"name": "sender",
							"type": "address"
						},
						{
							"internalType": "bytes",
							"name": "data",
							"type": "bytes"
						}
					],
					"name": "emitEvent",
					"outputs": [],
					"stateMutability": "nonpayable",
					"type": "function"
				}
			],
			"devdoc": {
				"kind": "dev",
				"methods": {},
				"version": 1
			},
			"evm": {
				"assembly": "    /* \"CredentialEventFacet.sol\":57:597  contract CredentialEventFacet {... */\n  mstore(0x40, 0x80)\n  callvalue\n  dup1\n  iszero\n  tag_1\n  jumpi\n  0x00\n  dup1\n  revert\ntag_1:\n  pop\n  dataSize(sub_0)\n  dup1\n  dataOffset(sub_0)\n  0x00\n  codecopy\n  0x00\n  return\nstop\n\nsub_0: assembly {\n        /* \"CredentialEventFacet.sol\":57:597  contract CredentialEventFacet {... */\n      mstore(0x40, 0x80)\n      callvalue\n      dup1\n      iszero\n      tag_1\n      jumpi\n      0x00\n      dup1\n      revert\n    tag_1:\n      pop\n      jumpi(tag_2, lt(calldatasize, 0x04))\n      shr(0xe0, calldataload(0x00))\n      dup1\n      0x1a971c1b\n      eq\n      tag_3\n      jumpi\n    tag_2:\n      0x00\n      dup1\n      revert\n        /* \"CredentialEventFacet.sol\":200:594  function emitEvent(string memory list_id, address sender, bytes memory data) public {... */\n    tag_3:\n      tag_4\n      0x04\n      dup1\n      calldatasize\n      sub\n      dup2\n      add\n      swap1\n      tag_5\n      swap2\n      swap1\n      tag_6\n      jump\t// in\n    tag_5:\n      tag_7\n      jump\t// in\n    tag_4:\n      stop\n    tag_7:\n        /* \"CredentialEventFacet.sol\":540:589  RequestCredentialsCallback(list_id, sender, data) */\n      0xd2e7fdee19d1ee09bae37f350e4d1126dec12dde96addc0ab89c09d143cedaeb\n        /* \"CredentialEventFacet.sol\":567:574  list_id */\n      dup4\n        /* \"CredentialEventFacet.sol\":576:582  sender */\n      dup4\n        /* \"CredentialEventFacet.sol\":584:588  data */\n      dup4\n        /* \"CredentialEventFacet.sol\":540:589  RequestCredentialsCallback(list_id, sender, data) */\n      mload(0x40)\n      tag_9\n      swap4\n      swap3\n      swap2\n      swap1\n      tag_10\n      jump\t// in\n    tag_9:\n      mload(0x40)\n      dup1\n      swap2\n      sub\n      swap1\n      log1\n        /* \"CredentialEventFacet.sol\":200:594  function emitEvent(string memory list_id, address sender, bytes memory data) public {... */\n      pop\n      pop\n      pop\n      jump\t// out\n        /* \"#utility.yul\":7:417   */\n    tag_12:\n        /* \"#utility.yul\":84:89   */\n      0x00\n        /* \"#utility.yul\":109:174   */\n      tag_14\n        /* \"#utility.yul\":125:173   */\n      tag_15\n        /* \"#utility.yul\":166:172   */\n      dup5\n        /* \"#utility.yul\":125:173   */\n      tag_16\n      jump\t// in\n    tag_15:\n        /* \"#utility.yul\":109:174   */\n      tag_17\n      jump\t// in\n    tag_14:\n        /* \"#utility.yul\":100:174   */\n      swap1\n      pop\n        /* \"#utility.yul\":197:203   */\n      dup3\n        /* \"#utility.yul\":190:195   */\n      dup2\n        /* \"#utility.yul\":183:204   */\n      mstore\n        /* \"#utility.yul\":235:239   */\n      0x20\n        /* \"#utility.yul\":228:233   */\n      dup2\n        /* \"#utility.yul\":224:240   */\n      add\n        /* \"#utility.yul\":273:276   */\n      dup5\n        /* \"#utility.yul\":264:270   */\n      dup5\n        /* \"#utility.yul\":259:262   */\n      dup5\n        /* \"#utility.yul\":255:271   */\n      add\n        /* \"#utility.yul\":252:277   */\n      gt\n        /* \"#utility.yul\":249:361   */\n      iszero\n      tag_18\n      jumpi\n        /* \"#utility.yul\":280:359   */\n      tag_19\n      tag_20\n      jump\t// in\n    tag_19:\n        /* \"#utility.yul\":249:361   */\n    tag_18:\n        /* \"#utility.yul\":370:411   */\n      tag_21\n        /* \"#utility.yul\":404:410   */\n      dup5\n        /* \"#utility.yul\":399:402   */\n      dup3\n        /* \"#utility.yul\":394:397   */\n      dup6\n        /* \"#utility.yul\":370:411   */\n      tag_22\n      jump\t// in\n    tag_21:\n        /* \"#utility.yul\":90:417   */\n      pop\n        /* \"#utility.yul\":7:417   */\n      swap4\n      swap3\n      pop\n      pop\n      pop\n      jump\t// out\n        /* \"#utility.yul\":423:835   */\n    tag_23:\n        /* \"#utility.yul\":501:506   */\n      0x00\n        /* \"#utility.yul\":526:592   */\n      tag_25\n        /* \"#utility.yul\":542:591   */\n      tag_26\n        /* \"#utility.yul\":584:590   */\n      dup5\n        /* \"#utility.yul\":542:591   */\n      tag_27\n      jump\t// in\n    tag_26:\n        /* \"#utility.yul\":526:592   */\n      tag_17\n      jump\t// in\n    tag_25:\n        /* \"#utility.yul\":517:592   */\n      swap1\n      pop\n        /* \"#utility.yul\":615:621   */\n      dup3\n        /* \"#utility.yul\":608:613   */\n      dup2\n        /* \"#utility.yul\":601:622   */\n      mstore\n        /* \"#utility.yul\":653:657   */\n      0x20\n        /* \"#utility.yul\":646:651   */\n      dup2\n        /* \"#utility.yul\":642:658   */\n      add\n        /* \"#utility.yul\":691:694   */\n      dup5\n        /* \"#utility.yul\":682:688   */\n      dup5\n        /* \"#utility.yul\":677:680   */\n      dup5\n        /* \"#utility.yul\":673:689   */\n      add\n        /* \"#utility.yul\":670:695   */\n      gt\n        /* \"#utility.yul\":667:779   */\n      iszero\n      tag_28\n      jumpi\n        /* \"#utility.yul\":698:777   */\n      tag_29\n      tag_20\n      jump\t// in\n    tag_29:\n        /* \"#utility.yul\":667:779   */\n    tag_28:\n        /* \"#utility.yul\":788:829   */\n      tag_30\n        /* \"#utility.yul\":822:828   */\n      dup5\n        /* \"#utility.yul\":817:820   */\n      dup3\n        /* \"#utility.yul\":812:815   */\n      dup6\n        /* \"#utility.yul\":788:829   */\n      tag_22\n      jump\t// in\n    tag_30:\n        /* \"#utility.yul\":507:835   */\n      pop\n        /* \"#utility.yul\":423:835   */\n      swap4\n      swap3\n      pop\n      pop\n      pop\n      jump\t// out\n        /* \"#utility.yul\":841:980   */\n    tag_31:\n        /* \"#utility.yul\":887:892   */\n      0x00\n        /* \"#utility.yul\":925:931   */\n      dup2\n        /* \"#utility.yul\":912:932   */\n      calldataload\n        /* \"#utility.yul\":903:932   */\n      swap1\n      pop\n        /* \"#utility.yul\":941:974   */\n      tag_33\n        /* \"#utility.yul\":968:973   */\n      dup2\n        /* \"#utility.yul\":941:974   */\n      tag_34\n      jump\t// in\n    tag_33:\n        /* \"#utility.yul\":841:980   */\n      swap3\n      swap2\n      pop\n      pop\n      jump\t// out\n        /* \"#utility.yul\":999:1337   */\n    tag_35:\n        /* \"#utility.yul\":1054:1059   */\n      0x00\n        /* \"#utility.yul\":1103:1106   */\n      dup3\n        /* \"#utility.yul\":1096:1100   */\n      0x1f\n        /* \"#utility.yul\":1088:1094   */\n      dup4\n        /* \"#utility.yul\":1084:1101   */\n      add\n        /* \"#utility.yul\":1080:1107   */\n      slt\n        /* \"#utility.yul\":1070:1192   */\n      tag_37\n      jumpi\n        /* \"#utility.yul\":1111:1190   */\n      tag_38\n      tag_39\n      jump\t// in\n    tag_38:\n        /* \"#utility.yul\":1070:1192   */\n    tag_37:\n        /* \"#utility.yul\":1228:1234   */\n      dup2\n        /* \"#utility.yul\":1215:1235   */\n      calldataload\n        /* \"#utility.yul\":1253:1331   */\n      tag_40\n        /* \"#utility.yul\":1327:1330   */\n      dup5\n        /* \"#utility.yul\":1319:1325   */\n      dup3\n        /* \"#utility.yul\":1312:1316   */\n      0x20\n        /* \"#utility.yul\":1304:1310   */\n      dup7\n        /* \"#utility.yul\":1300:1317   */\n      add\n        /* \"#utility.yul\":1253:1331   */\n      tag_12\n      jump\t// in\n    tag_40:\n        /* \"#utility.yul\":1244:1331   */\n      swap2\n      pop\n        /* \"#utility.yul\":1060:1337   */\n      pop\n        /* \"#utility.yul\":999:1337   */\n      swap3\n      swap2\n      pop\n      pop\n      jump\t// out\n        /* \"#utility.yul\":1357:1697   */\n    tag_41:\n        /* \"#utility.yul\":1413:1418   */\n      0x00\n        /* \"#utility.yul\":1462:1465   */\n      dup3\n        /* \"#utility.yul\":1455:1459   */\n      0x1f\n        /* \"#utility.yul\":1447:1453   */\n      dup4\n        /* \"#utility.yul\":1443:1460   */\n      add\n        /* \"#utility.yul\":1439:1466   */\n      slt\n        /* \"#utility.yul\":1429:1551   */\n      tag_43\n      jumpi\n        /* \"#utility.yul\":1470:1549   */\n      tag_44\n      tag_39\n      jump\t// in\n    tag_44:\n        /* \"#utility.yul\":1429:1551   */\n    tag_43:\n        /* \"#utility.yul\":1587:1593   */\n      dup2\n        /* \"#utility.yul\":1574:1594   */\n      calldataload\n        /* \"#utility.yul\":1612:1691   */\n      tag_45\n        /* \"#utility.yul\":1687:1690   */\n      dup5\n        /* \"#utility.yul\":1679:1685   */\n      dup3\n        /* \"#utility.yul\":1672:1676   */\n      0x20\n        /* \"#utility.yul\":1664:1670   */\n      dup7\n        /* \"#utility.yul\":1660:1677   */\n      add\n        /* \"#utility.yul\":1612:1691   */\n      tag_23\n      jump\t// in\n    tag_45:\n        /* \"#utility.yul\":1603:1691   */\n      swap2\n      pop\n        /* \"#utility.yul\":1419:1697   */\n      pop\n        /* \"#utility.yul\":1357:1697   */\n      swap3\n      swap2\n      pop\n      pop\n      jump\t// out\n        /* \"#utility.yul\":1703:2680   */\n    tag_6:\n        /* \"#utility.yul\":1799:1805   */\n      0x00\n        /* \"#utility.yul\":1807:1813   */\n      dup1\n        /* \"#utility.yul\":1815:1821   */\n      0x00\n        /* \"#utility.yul\":1864:1866   */\n      0x60\n        /* \"#utility.yul\":1852:1861   */\n      dup5\n        /* \"#utility.yul\":1843:1850   */\n      dup7\n        /* \"#utility.yul\":1839:1862   */\n      sub\n        /* \"#utility.yul\":1835:1867   */\n      slt\n        /* \"#utility.yul\":1832:1951   */\n      iszero\n      tag_47\n      jumpi\n        /* \"#utility.yul\":1870:1949   */\n      tag_48\n      tag_49\n      jump\t// in\n    tag_48:\n        /* \"#utility.yul\":1832:1951   */\n    tag_47:\n        /* \"#utility.yul\":2018:2019   */\n      0x00\n        /* \"#utility.yul\":2007:2016   */\n      dup5\n        /* \"#utility.yul\":2003:2020   */\n      add\n        /* \"#utility.yul\":1990:2021   */\n      calldataload\n        /* \"#utility.yul\":2048:2066   */\n      0xffffffffffffffff\n        /* \"#utility.yul\":2040:2046   */\n      dup2\n        /* \"#utility.yul\":2037:2067   */\n      gt\n        /* \"#utility.yul\":2034:2151   */\n      iszero\n      tag_50\n      jumpi\n        /* \"#utility.yul\":2070:2149   */\n      tag_51\n      tag_52\n      jump\t// in\n    tag_51:\n        /* \"#utility.yul\":2034:2151   */\n    tag_50:\n        /* \"#utility.yul\":2175:2238   */\n      tag_53\n        /* \"#utility.yul\":2230:2237   */\n      dup7\n        /* \"#utility.yul\":2221:2227   */\n      dup3\n        /* \"#utility.yul\":2210:2219   */\n      dup8\n        /* \"#utility.yul\":2206:2228   */\n      add\n        /* \"#utility.yul\":2175:2238   */\n      tag_41\n      jump\t// in\n    tag_53:\n        /* \"#utility.yul\":2165:2238   */\n      swap4\n      pop\n        /* \"#utility.yul\":1961:2248   */\n      pop\n        /* \"#utility.yul\":2287:2289   */\n      0x20\n        /* \"#utility.yul\":2313:2366   */\n      tag_54\n        /* \"#utility.yul\":2358:2365   */\n      dup7\n        /* \"#utility.yul\":2349:2355   */\n      dup3\n        /* \"#utility.yul\":2338:2347   */\n      dup8\n        /* \"#utility.yul\":2334:2356   */\n      add\n        /* \"#utility.yul\":2313:2366   */\n      tag_31\n      jump\t// in\n    tag_54:\n        /* \"#utility.yul\":2303:2366   */\n      swap3\n      pop\n        /* \"#utility.yul\":2258:2376   */\n      pop\n        /* \"#utility.yul\":2443:2445   */\n      0x40\n        /* \"#utility.yul\":2432:2441   */\n      dup5\n        /* \"#utility.yul\":2428:2446   */\n      add\n        /* \"#utility.yul\":2415:2447   */\n      calldataload\n        /* \"#utility.yul\":2474:2492   */\n      0xffffffffffffffff\n        /* \"#utility.yul\":2466:2472   */\n      dup2\n        /* \"#utility.yul\":2463:2493   */\n      gt\n        /* \"#utility.yul\":2460:2577   */\n      iszero\n      tag_55\n      jumpi\n        /* \"#utility.yul\":2496:2575   */\n      tag_56\n      tag_52\n      jump\t// in\n    tag_56:\n        /* \"#utility.yul\":2460:2577   */\n    tag_55:\n        /* \"#utility.yul\":2601:2663   */\n      tag_57\n        /* \"#utility.yul\":2655:2662   */\n      dup7\n        /* \"#utility.yul\":2646:2652   */\n      dup3\n        /* \"#utility.yul\":2635:2644   */\n      dup8\n        /* \"#utility.yul\":2631:2653   */\n      add\n        /* \"#utility.yul\":2601:2663   */\n      tag_35\n      jump\t// in\n    tag_57:\n        /* \"#utility.yul\":2591:2663   */\n      swap2\n      pop\n        /* \"#utility.yul\":2386:2673   */\n      pop\n        /* \"#utility.yul\":1703:2680   */\n      swap3\n      pop\n      swap3\n      pop\n      swap3\n      jump\t// out\n        /* \"#utility.yul\":2686:2804   */\n    tag_58:\n        /* \"#utility.yul\":2773:2797   */\n      tag_60\n        /* \"#utility.yul\":2791:2796   */\n      dup2\n        /* \"#utility.yul\":2773:2797   */\n      tag_61\n      jump\t// in\n    tag_60:\n        /* \"#utility.yul\":2768:2771   */\n      dup3\n        /* \"#utility.yul\":2761:2798   */\n      mstore\n        /* \"#utility.yul\":2686:2804   */\n      pop\n      pop\n      jump\t// out\n        /* \"#utility.yul\":2810:3170   */\n    tag_62:\n        /* \"#utility.yul\":2896:2899   */\n      0x00\n        /* \"#utility.yul\":2924:2962   */\n      tag_64\n        /* \"#utility.yul\":2956:2961   */\n      dup3\n        /* \"#utility.yul\":2924:2962   */\n      tag_65\n      jump\t// in\n    tag_64:\n        /* \"#utility.yul\":2978:3048   */\n      tag_66\n        /* \"#utility.yul\":3041:3047   */\n      dup2\n        /* \"#utility.yul\":3036:3039   */\n      dup6\n        /* \"#utility.yul\":2978:3048   */\n      tag_67\n      jump\t// in\n    tag_66:\n        /* \"#utility.yul\":2971:3048   */\n      swap4\n      pop\n        /* \"#utility.yul\":3057:3109   */\n      tag_68\n        /* \"#utility.yul\":3102:3108   */\n      dup2\n        /* \"#utility.yul\":3097:3100   */\n      dup6\n        /* \"#utility.yul\":3090:3094   */\n      0x20\n        /* \"#utility.yul\":3083:3088   */\n      dup7\n        /* \"#utility.yul\":3079:3095   */\n      add\n        /* \"#utility.yul\":3057:3109   */\n      tag_69\n      jump\t// in\n    tag_68:\n        /* \"#utility.yul\":3134:3163   */\n      tag_70\n        /* \"#utility.yul\":3156:3162   */\n      dup2\n        /* \"#utility.yul\":3134:3163   */\n      tag_71\n      jump\t// in\n    tag_70:\n        /* \"#utility.yul\":3129:3132   */\n      dup5\n        /* \"#utility.yul\":3125:3164   */\n      add\n        /* \"#utility.yul\":3118:3164   */\n      swap2\n      pop\n        /* \"#utility.yul\":2900:3170   */\n      pop\n        /* \"#utility.yul\":2810:3170   */\n      swap3\n      swap2\n      pop\n      pop\n      jump\t// out\n        /* \"#utility.yul\":3176:3540   */\n    tag_72:\n        /* \"#utility.yul\":3264:3267   */\n      0x00\n        /* \"#utility.yul\":3292:3331   */\n      tag_74\n        /* \"#utility.yul\":3325:3330   */\n      dup3\n        /* \"#utility.yul\":3292:3331   */\n      tag_75\n      jump\t// in\n    tag_74:\n        /* \"#utility.yul\":3347:3418   */\n      tag_76\n        /* \"#utility.yul\":3411:3417   */\n      dup2\n        /* \"#utility.yul\":3406:3409   */\n      dup6\n        /* \"#utility.yul\":3347:3418   */\n      tag_77\n      jump\t// in\n    tag_76:\n        /* \"#utility.yul\":3340:3418   */\n      swap4\n      pop\n        /* \"#utility.yul\":3427:3479   */\n      tag_78\n        /* \"#utility.yul\":3472:3478   */\n      dup2\n        /* \"#utility.yul\":3467:3470   */\n      dup6\n        /* \"#utility.yul\":3460:3464   */\n      0x20\n        /* \"#utility.yul\":3453:3458   */\n      dup7\n        /* \"#utility.yul\":3449:3465   */\n      add\n        /* \"#utility.yul\":3427:3479   */\n      tag_69\n      jump\t// in\n    tag_78:\n        /* \"#utility.yul\":3504:3533   */\n      tag_79\n        /* \"#utility.yul\":3526:3532   */\n      dup2\n        /* \"#utility.yul\":3504:3533   */\n      tag_71\n      jump\t// in\n    tag_79:\n        /* \"#utility.yul\":3499:3502   */\n      dup5\n        /* \"#utility.yul\":3495:3534   */\n      add\n        /* \"#utility.yul\":3488:3534   */\n      swap2\n      pop\n        /* \"#utility.yul\":3268:3540   */\n      pop\n        /* \"#utility.yul\":3176:3540   */\n      swap3\n      swap2\n      pop\n      pop\n      jump\t// out\n        /* \"#utility.yul\":3546:4166   */\n    tag_10:\n        /* \"#utility.yul\":3733:3737   */\n      0x00\n        /* \"#utility.yul\":3771:3773   */\n      0x60\n        /* \"#utility.yul\":3760:3769   */\n      dup3\n        /* \"#utility.yul\":3756:3774   */\n      add\n        /* \"#utility.yul\":3748:3774   */\n      swap1\n      pop\n        /* \"#utility.yul\":3820:3829   */\n      dup2\n        /* \"#utility.yul\":3814:3818   */\n      dup2\n        /* \"#utility.yul\":3810:3830   */\n      sub\n        /* \"#utility.yul\":3806:3807   */\n      0x00\n        /* \"#utility.yul\":3795:3804   */\n      dup4\n        /* \"#utility.yul\":3791:3808   */\n      add\n        /* \"#utility.yul\":3784:3831   */\n      mstore\n        /* \"#utility.yul\":3848:3926   */\n      tag_81\n        /* \"#utility.yul\":3921:3925   */\n      dup2\n        /* \"#utility.yul\":3912:3918   */\n      dup7\n        /* \"#utility.yul\":3848:3926   */\n      tag_72\n      jump\t// in\n    tag_81:\n        /* \"#utility.yul\":3840:3926   */\n      swap1\n      pop\n        /* \"#utility.yul\":3936:4008   */\n      tag_82\n        /* \"#utility.yul\":4004:4006   */\n      0x20\n        /* \"#utility.yul\":3993:4002   */\n      dup4\n        /* \"#utility.yul\":3989:4007   */\n      add\n        /* \"#utility.yul\":3980:3986   */\n      dup6\n        /* \"#utility.yul\":3936:4008   */\n      tag_58\n      jump\t// in\n    tag_82:\n        /* \"#utility.yul\":4055:4064   */\n      dup2\n        /* \"#utility.yul\":4049:4053   */\n      dup2\n        /* \"#utility.yul\":4045:4065   */\n      sub\n        /* \"#utility.yul\":4040:4042   */\n      0x40\n        /* \"#utility.yul\":4029:4038   */\n      dup4\n        /* \"#utility.yul\":4025:4043   */\n      add\n        /* \"#utility.yul\":4018:4066   */\n      mstore\n        /* \"#utility.yul\":4083:4159   */\n      tag_83\n        /* \"#utility.yul\":4154:4158   */\n      dup2\n        /* \"#utility.yul\":4145:4151   */\n      dup5\n        /* \"#utility.yul\":4083:4159   */\n      tag_62\n      jump\t// in\n    tag_83:\n        /* \"#utility.yul\":4075:4159   */\n      swap1\n      pop\n        /* \"#utility.yul\":3546:4166   */\n      swap5\n      swap4\n      pop\n      pop\n      pop\n      pop\n      jump\t// out\n        /* \"#utility.yul\":4172:4301   */\n    tag_17:\n        /* \"#utility.yul\":4206:4212   */\n      0x00\n        /* \"#utility.yul\":4233:4253   */\n      tag_85\n      tag_86\n      jump\t// in\n    tag_85:\n        /* \"#utility.yul\":4223:4253   */\n      swap1\n      pop\n        /* \"#utility.yul\":4262:4295   */\n      tag_87\n        /* \"#utility.yul\":4290:4294   */\n      dup3\n        /* \"#utility.yul\":4282:4288   */\n      dup3\n        /* \"#utility.yul\":4262:4295   */\n      tag_88\n      jump\t// in\n    tag_87:\n        /* \"#utility.yul\":4172:4301   */\n      swap2\n      swap1\n      pop\n      jump\t// out\n        /* \"#utility.yul\":4307:4382   */\n    tag_86:\n        /* \"#utility.yul\":4340:4346   */\n      0x00\n        /* \"#utility.yul\":4373:4375   */\n      0x40\n        /* \"#utility.yul\":4367:4376   */\n      mload\n        /* \"#utility.yul\":4357:4376   */\n      swap1\n      pop\n        /* \"#utility.yul\":4307:4382   */\n      swap1\n      jump\t// out\n        /* \"#utility.yul\":4388:4695   */\n    tag_16:\n        /* \"#utility.yul\":4449:4453   */\n      0x00\n        /* \"#utility.yul\":4539:4557   */\n      0xffffffffffffffff\n        /* \"#utility.yul\":4531:4537   */\n      dup3\n        /* \"#utility.yul\":4528:4558   */\n      gt\n        /* \"#utility.yul\":4525:4581   */\n      iszero\n      tag_91\n      jumpi\n        /* \"#utility.yul\":4561:4579   */\n      tag_92\n      tag_93\n      jump\t// in\n    tag_92:\n        /* \"#utility.yul\":4525:4581   */\n    tag_91:\n        /* \"#utility.yul\":4599:4628   */\n      tag_94\n        /* \"#utility.yul\":4621:4627   */\n      dup3\n        /* \"#utility.yul\":4599:4628   */\n      tag_71\n      jump\t// in\n    tag_94:\n        /* \"#utility.yul\":4591:4628   */\n      swap1\n      pop\n        /* \"#utility.yul\":4683:4687   */\n      0x20\n        /* \"#utility.yul\":4677:4681   */\n      dup2\n        /* \"#utility.yul\":4673:4688   */\n      add\n        /* \"#utility.yul\":4665:4688   */\n      swap1\n      pop\n        /* \"#utility.yul\":4388:4695   */\n      swap2\n      swap1\n      pop\n      jump\t// out\n        /* \"#utility.yul\":4701:5009   */\n    tag_27:\n        /* \"#utility.yul\":4763:4767   */\n      0x00\n        /* \"#utility.yul\":4853:4871   */\n      0xffffffffffffffff\n        /* \"#utility.yul\":4845:4851   */\n      dup3\n        /* \"#utility.yul\":4842:4872   */\n      gt\n        /* \"#utility.yul\":4839:4895   */\n      iszero\n      tag_96\n      jumpi\n        /* \"#utility.yul\":4875:4893   */\n      tag_97\n      tag_93\n      jump\t// in\n    tag_97:\n        /* \"#utility.yul\":4839:4895   */\n    tag_96:\n        /* \"#utility.yul\":4913:4942   */\n      tag_98\n        /* \"#utility.yul\":4935:4941   */\n      dup3\n        /* \"#utility.yul\":4913:4942   */\n      tag_71\n      jump\t// in\n    tag_98:\n        /* \"#utility.yul\":4905:4942   */\n      swap1\n      pop\n        /* \"#utility.yul\":4997:5001   */\n      0x20\n        /* \"#utility.yul\":4991:4995   */\n      dup2\n        /* \"#utility.yul\":4987:5002   */\n      add\n        /* \"#utility.yul\":4979:5002   */\n      swap1\n      pop\n        /* \"#utility.yul\":4701:5009   */\n      swap2\n      swap1\n      pop\n      jump\t// out\n        /* \"#utility.yul\":5015:5113   */\n    tag_65:\n        /* \"#utility.yul\":5066:5072   */\n      0x00\n        /* \"#utility.yul\":5100:5105   */\n      dup2\n        /* \"#utility.yul\":5094:5106   */\n      mload\n        /* \"#utility.yul\":5084:5106   */\n      swap1\n      pop\n        /* \"#utility.yul\":5015:5113   */\n      swap2\n      swap1\n      pop\n      jump\t// out\n        /* \"#utility.yul\":5119:5218   */\n    tag_75:\n        /* \"#utility.yul\":5171:5177   */\n      0x00\n        /* \"#utility.yul\":5205:5210   */\n      dup2\n        /* \"#utility.yul\":5199:5211   */\n      mload\n        /* \"#utility.yul\":5189:5211   */\n      swap1\n      pop\n        /* \"#utility.yul\":5119:5218   */\n      swap2\n      swap1\n      pop\n      jump\t// out\n        /* \"#utility.yul\":5224:5392   */\n    tag_67:\n        /* \"#utility.yul\":5307:5318   */\n      0x00\n        /* \"#utility.yul\":5341:5347   */\n      dup3\n        /* \"#utility.yul\":5336:5339   */\n      dup3\n        /* \"#utility.yul\":5329:5348   */\n      mstore\n        /* \"#utility.yul\":5381:5385   */\n      0x20\n        /* \"#utility.yul\":5376:5379   */\n      dup3\n        /* \"#utility.yul\":5372:5386   */\n      add\n        /* \"#utility.yul\":5357:5386   */\n      swap1\n      pop\n        /* \"#utility.yul\":5224:5392   */\n      swap3\n      swap2\n      pop\n      pop\n      jump\t// out\n        /* \"#utility.yul\":5398:5567   */\n    tag_77:\n        /* \"#utility.yul\":5482:5493   */\n      0x00\n        /* \"#utility.yul\":5516:5522   */\n      dup3\n        /* \"#utility.yul\":5511:5514   */\n      dup3\n        /* \"#utility.yul\":5504:5523   */\n      mstore\n        /* \"#utility.yul\":5556:5560   */\n      0x20\n        /* \"#utility.yul\":5551:5554   */\n      dup3\n        /* \"#utility.yul\":5547:5561   */\n      add\n        /* \"#utility.yul\":5532:5561   */\n      swap1\n      pop\n        /* \"#utility.yul\":5398:5567   */\n      swap3\n      swap2\n      pop\n      pop\n      jump\t// out\n        /* \"#utility.yul\":5573:5669   */\n    tag_61:\n        /* \"#utility.yul\":5610:5617   */\n      0x00\n        /* \"#utility.yul\":5639:5663   */\n      tag_104\n        /* \"#utility.yul\":5657:5662   */\n      dup3\n        /* \"#utility.yul\":5639:5663   */\n      tag_105\n      jump\t// in\n    tag_104:\n        /* \"#utility.yul\":5628:5663   */\n      swap1\n      pop\n        /* \"#utility.yul\":5573:5669   */\n      swap2\n      swap1\n      pop\n      jump\t// out\n        /* \"#utility.yul\":5675:5801   */\n    tag_105:\n        /* \"#utility.yul\":5712:5719   */\n      0x00\n        /* \"#utility.yul\":5752:5794   */\n      0xffffffffffffffffffffffffffffffffffffffff\n        /* \"#utility.yul\":5745:5750   */\n      dup3\n        /* \"#utility.yul\":5741:5795   */\n      and\n        /* \"#utility.yul\":5730:5795   */\n      swap1\n      pop\n        /* \"#utility.yul\":5675:5801   */\n      swap2\n      swap1\n      pop\n      jump\t// out\n        /* \"#utility.yul\":5807:5961   */\n    tag_22:\n        /* \"#utility.yul\":5891:5897   */\n      dup3\n        /* \"#utility.yul\":5886:5889   */\n      dup2\n        /* \"#utility.yul\":5881:5884   */\n      dup4\n        /* \"#utility.yul\":5868:5898   */\n      calldatacopy\n        /* \"#utility.yul\":5953:5954   */\n      0x00\n        /* \"#utility.yul\":5944:5950   */\n      dup4\n        /* \"#utility.yul\":5939:5942   */\n      dup4\n        /* \"#utility.yul\":5935:5951   */\n      add\n        /* \"#utility.yul\":5928:5955   */\n      mstore\n        /* \"#utility.yul\":5807:5961   */\n      pop\n      pop\n      pop\n      jump\t// out\n        /* \"#utility.yul\":5967:6274   */\n    tag_69:\n        /* \"#utility.yul\":6035:6036   */\n      0x00\n        /* \"#utility.yul\":6045:6158   */\n    tag_109:\n        /* \"#utility.yul\":6059:6065   */\n      dup4\n        /* \"#utility.yul\":6056:6057   */\n      dup2\n        /* \"#utility.yul\":6053:6066   */\n      lt\n        /* \"#utility.yul\":6045:6158   */\n      iszero\n      tag_111\n      jumpi\n        /* \"#utility.yul\":6144:6145   */\n      dup1\n        /* \"#utility.yul\":6139:6142   */\n      dup3\n        /* \"#utility.yul\":6135:6146   */\n      add\n        /* \"#utility.yul\":6129:6147   */\n      mload\n        /* \"#utility.yul\":6125:6126   */\n      dup2\n        /* \"#utility.yul\":6120:6123   */\n      dup5\n        /* \"#utility.yul\":6116:6127   */\n      add\n        /* \"#utility.yul\":6109:6148   */\n      mstore\n        /* \"#utility.yul\":6081:6083   */\n      0x20\n        /* \"#utility.yul\":6078:6079   */\n      dup2\n        /* \"#utility.yul\":6074:6084   */\n      add\n        /* \"#utility.yul\":6069:6084   */\n      swap1\n      pop\n        /* \"#utility.yul\":6045:6158   */\n      jump(tag_109)\n    tag_111:\n        /* \"#utility.yul\":6176:6182   */\n      dup4\n        /* \"#utility.yul\":6173:6174   */\n      dup2\n        /* \"#utility.yul\":6170:6183   */\n      gt\n        /* \"#utility.yul\":6167:6268   */\n      iszero\n      tag_112\n      jumpi\n        /* \"#utility.yul\":6256:6257   */\n      0x00\n        /* \"#utility.yul\":6247:6253   */\n      dup5\n        /* \"#utility.yul\":6242:6245   */\n      dup5\n        /* \"#utility.yul\":6238:6254   */\n      add\n        /* \"#utility.yul\":6231:6258   */\n      mstore\n        /* \"#utility.yul\":6167:6268   */\n    tag_112:\n        /* \"#utility.yul\":6016:6274   */\n      pop\n        /* \"#utility.yul\":5967:6274   */\n      pop\n      pop\n      pop\n      jump\t// out\n        /* \"#utility.yul\":6280:6561   */\n    tag_88:\n        /* \"#utility.yul\":6363:6390   */\n      tag_114\n        /* \"#utility.yul\":6385:6389   */\n      dup3\n        /* \"#utility.yul\":6363:6390   */\n      tag_71\n      jump\t// in\n    tag_114:\n        /* \"#utility.yul\":6355:6361   */\n      dup2\n        /* \"#utility.yul\":6351:6391   */\n      add\n        /* \"#utility.yul\":6493:6499   */\n      dup2\n        /* \"#utility.yul\":6481:6491   */\n      dup2\n        /* \"#utility.yul\":6478:6500   */\n      lt\n        /* \"#utility.yul\":6457:6475   */\n      0xffffffffffffffff\n        /* \"#utility.yul\":6445:6455   */\n      dup3\n        /* \"#utility.yul\":6442:6476   */\n      gt\n        /* \"#utility.yul\":6439:6501   */\n      or\n        /* \"#utility.yul\":6436:6524   */\n      iszero\n      tag_115\n      jumpi\n        /* \"#utility.yul\":6504:6522   */\n      tag_116\n      tag_93\n      jump\t// in\n    tag_116:\n        /* \"#utility.yul\":6436:6524   */\n    tag_115:\n        /* \"#utility.yul\":6544:6554   */\n      dup1\n        /* \"#utility.yul\":6540:6542   */\n      0x40\n        /* \"#utility.yul\":6533:6555   */\n      mstore\n        /* \"#utility.yul\":6323:6561   */\n      pop\n        /* \"#utility.yul\":6280:6561   */\n      pop\n      pop\n      jump\t// out\n        /* \"#utility.yul\":6567:6747   */\n    tag_93:\n        /* \"#utility.yul\":6615:6692   */\n      0x4e487b7100000000000000000000000000000000000000000000000000000000\n        /* \"#utility.yul\":6612:6613   */\n      0x00\n        /* \"#utility.yul\":6605:6693   */\n      mstore\n        /* \"#utility.yul\":6712:6716   */\n      0x41\n        /* \"#utility.yul\":6709:6710   */\n      0x04\n        /* \"#utility.yul\":6702:6717   */\n      mstore\n        /* \"#utility.yul\":6736:6740   */\n      0x24\n        /* \"#utility.yul\":6733:6734   */\n      0x00\n        /* \"#utility.yul\":6726:6741   */\n      revert\n        /* \"#utility.yul\":6753:6870   */\n    tag_39:\n        /* \"#utility.yul\":6862:6863   */\n      0x00\n        /* \"#utility.yul\":6859:6860   */\n      dup1\n        /* \"#utility.yul\":6852:6864   */\n      revert\n        /* \"#utility.yul\":6876:6993   */\n    tag_20:\n        /* \"#utility.yul\":6985:6986   */\n      0x00\n        /* \"#utility.yul\":6982:6983   */\n      dup1\n        /* \"#utility.yul\":6975:6987   */\n      revert\n        /* \"#utility.yul\":6999:7116   */\n    tag_52:\n        /* \"#utility.yul\":7108:7109   */\n      0x00\n        /* \"#utility.yul\":7105:7106   */\n      dup1\n        /* \"#utility.yul\":7098:7110   */\n      revert\n        /* \"#utility.yul\":7122:7239   */\n    tag_49:\n        /* \"#utility.yul\":7231:7232   */\n      0x00\n        /* \"#utility.yul\":7228:7229   */\n      dup1\n        /* \"#utility.yul\":7221:7233   */\n      revert\n        /* \"#utility.yul\":7245:7347   */\n    tag_71:\n        /* \"#utility.yul\":7286:7292   */\n      0x00\n        /* \"#utility.yul\":7337:7339   */\n      0x1f\n        /* \"#utility.yul\":7333:7340   */\n      not\n        /* \"#utility.yul\":7328:7330   */\n      0x1f\n        /* \"#utility.yul\":7321:7326   */\n      dup4\n        /* \"#utility.yul\":7317:7331   */\n      add\n        /* \"#utility.yul\":7313:7341   */\n      and\n        /* \"#utility.yul\":7303:7341   */\n      swap1\n      pop\n        /* \"#utility.yul\":7245:7347   */\n      swap2\n      swap1\n      pop\n      jump\t// out\n        /* \"#utility.yul\":7353:7475   */\n    tag_34:\n        /* \"#utility.yul\":7426:7450   */\n      tag_124\n        /* \"#utility.yul\":7444:7449   */\n      dup2\n        /* \"#utility.yul\":7426:7450   */\n      tag_61\n      jump\t// in\n    tag_124:\n        /* \"#utility.yul\":7419:7424   */\n      dup2\n        /* \"#utility.yul\":7416:7451   */\n      eq\n        /* \"#utility.yul\":7406:7469   */\n      tag_125\n      jumpi\n        /* \"#utility.yul\":7465:7466   */\n      0x00\n        /* \"#utility.yul\":7462:7463   */\n      dup1\n        /* \"#utility.yul\":7455:7467   */\n      revert\n        /* \"#utility.yul\":7406:7469   */\n    tag_125:\n        /* \"#utility.yul\":7353:7475   */\n      pop\n      jump\t// out\n\n    auxdata: 0xa2646970667358221220ae7f086f9b5156bf50812e37a113c18b73c7095b62f1c287e50e51aa197dda4c64736f6c63430008070033\n}\n",
				"bytecode": {
					"linkReferences": {},
					"object": "608060405234801561001057600080fd5b506104d7806100206000396000f3fe608060405234801561001057600080fd5b506004361061002b5760003560e01c80631a971c1b14610030575b600080fd5b61004a60048036038101906100459190610181565b61004c565b005b7fd2e7fdee19d1ee09bae37f350e4d1126dec12dde96addc0ab89c09d143cedaeb83838360405161007f9392919061028d565b60405180910390a1505050565b600061009f61009a846102f7565b6102d2565b9050828152602081018484840111156100bb576100ba61046a565b5b6100c68482856103c3565b509392505050565b60006100e16100dc84610328565b6102d2565b9050828152602081018484840111156100fd576100fc61046a565b5b6101088482856103c3565b509392505050565b60008135905061011f8161048a565b92915050565b600082601f83011261013a57610139610465565b5b813561014a84826020860161008c565b91505092915050565b600082601f83011261016857610167610465565b5b81356101788482602086016100ce565b91505092915050565b60008060006060848603121561019a57610199610474565b5b600084013567ffffffffffffffff8111156101b8576101b761046f565b5b6101c486828701610153565b93505060206101d586828701610110565b925050604084013567ffffffffffffffff8111156101f6576101f561046f565b5b61020286828701610125565b9150509250925092565b61021581610391565b82525050565b600061022682610359565b610230818561036f565b93506102408185602086016103d2565b61024981610479565b840191505092915050565b600061025f82610364565b6102698185610380565b93506102798185602086016103d2565b61028281610479565b840191505092915050565b600060608201905081810360008301526102a78186610254565b90506102b6602083018561020c565b81810360408301526102c8818461021b565b9050949350505050565b60006102dc6102ed565b90506102e88282610405565b919050565b6000604051905090565b600067ffffffffffffffff82111561031257610311610436565b5b61031b82610479565b9050602081019050919050565b600067ffffffffffffffff82111561034357610342610436565b5b61034c82610479565b9050602081019050919050565b600081519050919050565b600081519050919050565b600082825260208201905092915050565b600082825260208201905092915050565b600061039c826103a3565b9050919050565b600073ffffffffffffffffffffffffffffffffffffffff82169050919050565b82818337600083830152505050565b60005b838110156103f05780820151818401526020810190506103d5565b838111156103ff576000848401525b50505050565b61040e82610479565b810181811067ffffffffffffffff8211171561042d5761042c610436565b5b80604052505050565b7f4e487b7100000000000000000000000000000000000000000000000000000000600052604160045260246000fd5b600080fd5b600080fd5b600080fd5b600080fd5b6000601f19601f8301169050919050565b61049381610391565b811461049e57600080fd5b5056fea2646970667358221220ae7f086f9b5156bf50812e37a113c18b73c7095b62f1c287e50e51aa197dda4c64736f6c63430008070033",
					"opcodes": "PUSH1 0x80 PUSH1 0x40 MSTORE CALLVALUE DUP1 ISZERO PUSH2 0x10 JUMPI PUSH1 0x0 DUP1 REVERT JUMPDEST POP PUSH2 0x4D7 DUP1 PUSH2 0x20 PUSH1 0x0 CODECOPY PUSH1 0x0 RETURN INVALID PUSH1 0x80 PUSH1 0x40 MSTORE CALLVALUE DUP1 ISZERO PUSH2 0x10 JUMPI PUSH1 0x0 DUP1 REVERT JUMPDEST POP PUSH1 0x4 CALLDATASIZE LT PUSH2 0x2B JUMPI PUSH1 0x0 CALLDATALOAD PUSH1 0xE0 SHR DUP1 PUSH4 0x1A971C1B EQ PUSH2 0x30 JUMPI JUMPDEST PUSH1 0x0 DUP1 REVERT JUMPDEST PUSH2 0x4A PUSH1 0x4 DUP1 CALLDATASIZE SUB DUP2 ADD SWAP1 PUSH2 0x45 SWAP2 SWAP1 PUSH2 0x181 JUMP JUMPDEST PUSH2 0x4C JUMP JUMPDEST STOP JUMPDEST PUSH32 0xD2E7FDEE19D1EE09BAE37F350E4D1126DEC12DDE96ADDC0AB89C09D143CEDAEB DUP4 DUP4 DUP4 PUSH1 0x40 MLOAD PUSH2 0x7F SWAP4 SWAP3 SWAP2 SWAP1 PUSH2 0x28D JUMP JUMPDEST PUSH1 0x40 MLOAD DUP1 SWAP2 SUB SWAP1 LOG1 POP POP POP JUMP JUMPDEST PUSH1 0x0 PUSH2 0x9F PUSH2 0x9A DUP5 PUSH2 0x2F7 JUMP JUMPDEST PUSH2 0x2D2 JUMP JUMPDEST SWAP1 POP DUP3 DUP2 MSTORE PUSH1 0x20 DUP2 ADD DUP5 DUP5 DUP5 ADD GT ISZERO PUSH2 0xBB JUMPI PUSH2 0xBA PUSH2 0x46A JUMP JUMPDEST JUMPDEST PUSH2 0xC6 DUP5 DUP3 DUP6 PUSH2 0x3C3 JUMP JUMPDEST POP SWAP4 SWAP3 POP POP POP JUMP JUMPDEST PUSH1 0x0 PUSH2 0xE1 PUSH2 0xDC DUP5 PUSH2 0x328 JUMP JUMPDEST PUSH2 0x2D2 JUMP JUMPDEST SWAP1 POP DUP3 DUP2 MSTORE PUSH1 0x20 DUP2 ADD DUP5 DUP5 DUP5 ADD GT ISZERO PUSH2 0xFD JUMPI PUSH2 0xFC PUSH2 0x46A JUMP JUMPDEST JUMPDEST PUSH2 0x108 DUP5 DUP3 DUP6 PUSH2 0x3C3 JUMP JUMPDEST POP SWAP4 SWAP3 POP POP POP JUMP JUMPDEST PUSH1 0x0 DUP2 CALLDATALOAD SWAP1 POP PUSH2 0x11F DUP2 PUSH2 0x48A JUMP JUMPDEST SWAP3 SWAP2 POP POP JUMP JUMPDEST PUSH1 0x0 DUP3 PUSH1 0x1F DUP4 ADD SLT PUSH2 0x13A JUMPI PUSH2 0x139 PUSH2 0x465 JUMP JUMPDEST JUMPDEST DUP2 CALLDATALOAD PUSH2 0x14A DUP5 DUP3 PUSH1 0x20 DUP7 ADD PUSH2 0x8C JUMP JUMPDEST SWAP2 POP POP SWAP3 SWAP2 POP POP JUMP JUMPDEST PUSH1 0x0 DUP3 PUSH1 0x1F DUP4 ADD SLT PUSH2 0x168 JUMPI PUSH2 0x167 PUSH2 0x465 JUMP JUMPDEST JUMPDEST DUP2 CALLDATALOAD PUSH2 0x178 DUP5 DUP3 PUSH1 0x20 DUP7 ADD PUSH2 0xCE JUMP JUMPDEST SWAP2 POP POP SWAP3 SWAP2 POP POP JUMP JUMPDEST PUSH1 0x0 DUP1 PUSH1 0x0 PUSH1 0x60 DUP5 DUP7 SUB SLT ISZERO PUSH2 0x19A JUMPI PUSH2 0x199 PUSH2 0x474 JUMP JUMPDEST JUMPDEST PUSH1 0x0 DUP5 ADD CALLDATALOAD PUSH8 0xFFFFFFFFFFFFFFFF DUP2 GT ISZERO PUSH2 0x1B8 JUMPI PUSH2 0x1B7 PUSH2 0x46F JUMP JUMPDEST JUMPDEST PUSH2 0x1C4 DUP7 DUP3 DUP8 ADD PUSH2 0x153 JUMP JUMPDEST SWAP4 POP POP PUSH1 0x20 PUSH2 0x1D5 DUP7 DUP3 DUP8 ADD PUSH2 0x110 JUMP JUMPDEST SWAP3 POP POP PUSH1 0x40 DUP5 ADD CALLDATALOAD PUSH8 0xFFFFFFFFFFFFFFFF DUP2 GT ISZERO PUSH2 0x1F6 JUMPI PUSH2 0x1F5 PUSH2 0x46F JUMP JUMPDEST JUMPDEST PUSH2 0x202 DUP7 DUP3 DUP8 ADD PUSH2 0x125 JUMP JUMPDEST SWAP2 POP POP SWAP3 POP SWAP3 POP SWAP3 JUMP JUMPDEST PUSH2 0x215 DUP2 PUSH2 0x391 JUMP JUMPDEST DUP3 MSTORE POP POP JUMP JUMPDEST PUSH1 0x0 PUSH2 0x226 DUP3 PUSH2 0x359 JUMP JUMPDEST PUSH2 0x230 DUP2 DUP6 PUSH2 0x36F JUMP JUMPDEST SWAP4 POP PUSH2 0x240 DUP2 DUP6 PUSH1 0x20 DUP7 ADD PUSH2 0x3D2 JUMP JUMPDEST PUSH2 0x249 DUP2 PUSH2 0x479 JUMP JUMPDEST DUP5 ADD SWAP2 POP POP SWAP3 SWAP2 POP POP JUMP JUMPDEST PUSH1 0x0 PUSH2 0x25F DUP3 PUSH2 0x364 JUMP JUMPDEST PUSH2 0x269 DUP2 DUP6 PUSH2 0x380 JUMP JUMPDEST SWAP4 POP PUSH2 0x279 DUP2 DUP6 PUSH1 0x20 DUP7 ADD PUSH2 0x3D2 JUMP JUMPDEST PUSH2 0x282 DUP2 PUSH2 0x479 JUMP JUMPDEST DUP5 ADD SWAP2 POP POP SWAP3 SWAP2 POP POP JUMP JUMPDEST PUSH1 0x0 PUSH1 0x60 DUP3 ADD SWAP1 POP DUP2 DUP2 SUB PUSH1 0x0 DUP4 ADD MSTORE PUSH2 0x2A7 DUP2 DUP7 PUSH2 0x254 JUMP JUMPDEST SWAP1 POP PUSH2 0x2B6 PUSH1 0x20 DUP4 ADD DUP6 PUSH2 0x20C JUMP JUMPDEST DUP2 DUP2 SUB PUSH1 0x40 DUP4 ADD MSTORE PUSH2 0x2C8 DUP2 DUP5 PUSH2 0x21B JUMP JUMPDEST SWAP1 POP SWAP5 SWAP4 POP POP POP POP JUMP JUMPDEST PUSH1 0x0 PUSH2 0x2DC PUSH2 0x2ED JUMP JUMPDEST SWAP1 POP PUSH2 0x2E8 DUP3 DUP3 PUSH2 0x405 JUMP JUMPDEST SWAP2 SWAP1 POP JUMP JUMPDEST PUSH1 0x0 PUSH1 0x40 MLOAD SWAP1 POP SWAP1 JUMP JUMPDEST PUSH1 0x0 PUSH8 0xFFFFFFFFFFFFFFFF DUP3 GT ISZERO PUSH2 0x312 JUMPI PUSH2 0x311 PUSH2 0x436 JUMP JUMPDEST JUMPDEST PUSH2 0x31B DUP3 PUSH2 0x479 JUMP JUMPDEST SWAP1 POP PUSH1 0x20 DUP2 ADD SWAP1 POP SWAP2 SWAP1 POP JUMP JUMPDEST PUSH1 0x0 PUSH8 0xFFFFFFFFFFFFFFFF DUP3 GT ISZERO PUSH2 0x343 JUMPI PUSH2 0x342 PUSH2 0x436 JUMP JUMPDEST JUMPDEST PUSH2 0x34C DUP3 PUSH2 0x479 JUMP JUMPDEST SWAP1 POP PUSH1 0x20 DUP2 ADD SWAP1 POP SWAP2 SWAP1 POP JUMP JUMPDEST PUSH1 0x0 DUP2 MLOAD SWAP1 POP SWAP2 SWAP1 POP JUMP JUMPDEST PUSH1 0x0 DUP2 MLOAD SWAP1 POP SWAP2 SWAP1 POP JUMP JUMPDEST PUSH1 0x0 DUP3 DUP3 MSTORE PUSH1 0x20 DUP3 ADD SWAP1 POP SWAP3 SWAP2 POP POP JUMP JUMPDEST PUSH1 0x0 DUP3 DUP3 MSTORE PUSH1 0x20 DUP3 ADD SWAP1 POP SWAP3 SWAP2 POP POP JUMP JUMPDEST PUSH1 0x0 PUSH2 0x39C DUP3 PUSH2 0x3A3 JUMP JUMPDEST SWAP1 POP SWAP2 SWAP1 POP JUMP JUMPDEST PUSH1 0x0 PUSH20 0xFFFFFFFFFFFFFFFFFFFFFFFFFFFFFFFFFFFFFFFF DUP3 AND SWAP1 POP SWAP2 SWAP1 POP JUMP JUMPDEST DUP3 DUP2 DUP4 CALLDATACOPY PUSH1 0x0 DUP4 DUP4 ADD MSTORE POP POP POP JUMP JUMPDEST PUSH1 0x0 JUMPDEST DUP4 DUP2 LT ISZERO PUSH2 0x3F0 JUMPI DUP1 DUP3 ADD MLOAD DUP2 DUP5 ADD MSTORE PUSH1 0x20 DUP2 ADD SWAP1 POP PUSH2 0x3D5 JUMP JUMPDEST DUP4 DUP2 GT ISZERO PUSH2 0x3FF JUMPI PUSH1 0x0 DUP5 DUP5 ADD MSTORE JUMPDEST POP POP POP POP JUMP JUMPDEST PUSH2 0x40E DUP3 PUSH2 0x479 JUMP JUMPDEST DUP2 ADD DUP2 DUP2 LT PUSH8 0xFFFFFFFFFFFFFFFF DUP3 GT OR ISZERO PUSH2 0x42D JUMPI PUSH2 0x42C PUSH2 0x436 JUMP JUMPDEST JUMPDEST DUP1 PUSH1 0x40 MSTORE POP POP POP JUMP JUMPDEST PUSH32 0x4E487B7100000000000000000000000000000000000000000000000000000000 PUSH1 0x0 MSTORE PUSH1 0x41 PUSH1 0x4 MSTORE PUSH1 0x24 PUSH1 0x0 REVERT JUMPDEST PUSH1 0x0 DUP1 REVERT JUMPDEST PUSH1 0x0 DUP1 REVERT JUMPDEST PUSH1 0x0 DUP1 REVERT JUMPDEST PUSH1 0x0 DUP1 REVERT JUMPDEST PUSH1 0x0 PUSH1 0x1F NOT PUSH1 0x1F DUP4 ADD AND SWAP1 POP SWAP2 SWAP1 POP JUMP JUMPDEST PUSH2 0x493 DUP2 PUSH2 0x391 JUMP JUMPDEST DUP2 EQ PUSH2 0x49E JUMPI PUSH1 0x0 DUP1 REVERT JUMPDEST POP JUMP INVALID LOG2 PUSH5 0x6970667358 0x22 SLT KECCAK256 0xAE PUSH32 0x86F9B5156BF50812E37A113C18B73C7095B62F1C287E50E51AA197DDA4C6473 PUSH16 0x6C634300080700330000000000000000 "
				},
				"gasEstimates": {
					"creation": {
						"codeDepositCost": "247800",
						"executionCost": "287",
						"totalCost": "248087"
					},
					"external": {
						"emitEvent(string,address,bytes)": "infinite"
					}
				},
				"methodIdentifiers": {
					"emitEvent(string,address,bytes)": "1a971c1b"
				}
			},
			"storageLayout": {
				"storage": [],
				"types": null
			},
			"userdoc": {
				"kind": "user",
				"methods": {},
				"version": 1
			}
		}
	}
}