{
	"facets/GateableFacet.sol": {
		"GateableFacet": {
			"abi": [
				{
					"inputs": [
						{
							"internalType": "address",
							"name": "_credentialOracle",
							"type": "address"
						}
					],
					"stateMutability": "nonpayable",
					"type": "constructor"
				},
				{
					"inputs": [],
					"name": "CREDENTIAL_EVENT",
					"outputs": [
						{
							"internalType": "contract CredentialEventFacet",
							"name": "",
							"type": "address"
						}
					],
					"stateMutability": "view",
					"type": "function"
				},
				{
					"inputs": [],
					"name": "list",
					"outputs": [
						{
							"internalType": "string",
							"name": "",
							"type": "string"
						}
					],
					"stateMutability": "view",
					"type": "function"
				},
				{
					"inputs": [],
					"name": "name",
					"outputs": [
						{
							"internalType": "string",
							"name": "",
							"type": "string"
						}
					],
					"stateMutability": "view",
					"type": "function"
				},
				{
					"inputs": [
						{
							"internalType": "string",
							"name": "someParam",
							"type": "string"
						},
						{
							"internalType": "string",
							"name": "_listId",
							"type": "string"
						}
					],
					"name": "postVibe",
					"outputs": [],
					"stateMutability": "nonpayable",
					"type": "function"
				}
			],
			"devdoc": {
				"kind": "dev",
				"methods": {},
				"version": 1
			},
			"evm": {
				"assembly": "    /* \"facets/GateableFacet.sol\":95:1047  contract GateableFacet {... */\n  mstore(0x40, 0x80)\n    /* \"facets/GateableFacet.sol\":817:902  constructor(address _credentialOracle) {... */\n  callvalue\n  dup1\n  iszero\n  tag_1\n  jumpi\n  0x00\n  dup1\n  revert\ntag_1:\n  pop\n  mload(0x40)\n  sub(codesize, bytecodeSize)\n  dup1\n  bytecodeSize\n  dup4\n  codecopy\n  dup2\n  dup2\n  add\n  0x40\n  mstore\n  dup2\n  add\n  swap1\n  tag_2\n  swap2\n  swap1\n  tag_3\n  jump\t// in\ntag_2:\n    /* \"facets/GateableFacet.sol\":882:899  _credentialOracle */\n  dup1\n    /* \"facets/GateableFacet.sol\":862:879  CREDENTIAL_ORACLE */\n  0x02\n  0x00\n    /* \"facets/GateableFacet.sol\":862:899  CREDENTIAL_ORACLE = _credentialOracle */\n  0x0100\n  exp\n  dup2\n  sload\n  dup2\n  0xffffffffffffffffffffffffffffffffffffffff\n  mul\n  not\n  and\n  swap1\n  dup4\n  0xffffffffffffffffffffffffffffffffffffffff\n  and\n  mul\n  or\n  swap1\n  sstore\n  pop\n    /* \"facets/GateableFacet.sol\":817:902  constructor(address _credentialOracle) {... */\n  pop\n    /* \"facets/GateableFacet.sol\":95:1047  contract GateableFacet {... */\n  jump(tag_6)\n    /* \"#utility.yul\":7:150   */\ntag_8:\n    /* \"#utility.yul\":64:69   */\n  0x00\n    /* \"#utility.yul\":95:101   */\n  dup2\n    /* \"#utility.yul\":89:102   */\n  mload\n    /* \"#utility.yul\":80:102   */\n  swap1\n  pop\n    /* \"#utility.yul\":111:144   */\n  tag_10\n    /* \"#utility.yul\":138:143   */\n  dup2\n    /* \"#utility.yul\":111:144   */\n  tag_11\n  jump\t// in\ntag_10:\n    /* \"#utility.yul\":7:150   */\n  swap3\n  swap2\n  pop\n  pop\n  jump\t// out\n    /* \"#utility.yul\":156:507   */\ntag_3:\n    /* \"#utility.yul\":226:232   */\n  0x00\n    /* \"#utility.yul\":275:277   */\n  0x20\n    /* \"#utility.yul\":263:272   */\n  dup3\n    /* \"#utility.yul\":254:261   */\n  dup5\n    /* \"#utility.yul\":250:273   */\n  sub\n    /* \"#utility.yul\":246:278   */\n  slt\n    /* \"#utility.yul\":243:362   */\n  iszero\n  tag_13\n  jumpi\n    /* \"#utility.yul\":281:360   */\n  tag_14\n  tag_15\n  jump\t// in\ntag_14:\n    /* \"#utility.yul\":243:362   */\ntag_13:\n    /* \"#utility.yul\":401:402   */\n  0x00\n    /* \"#utility.yul\":426:490   */\n  tag_16\n    /* \"#utility.yul\":482:489   */\n  dup5\n    /* \"#utility.yul\":473:479   */\n  dup3\n    /* \"#utility.yul\":462:471   */\n  dup6\n    /* \"#utility.yul\":458:480   */\n  add\n    /* \"#utility.yul\":426:490   */\n  tag_8\n  jump\t// in\ntag_16:\n    /* \"#utility.yul\":416:490   */\n  swap2\n  pop\n    /* \"#utility.yul\":372:500   */\n  pop\n    /* \"#utility.yul\":156:507   */\n  swap3\n  swap2\n  pop\n  pop\n  jump\t// out\n    /* \"#utility.yul\":594:690   */\ntag_19:\n    /* \"#utility.yul\":631:638   */\n  0x00\n    /* \"#utility.yul\":660:684   */\n  tag_21\n    /* \"#utility.yul\":678:683   */\n  dup3\n    /* \"#utility.yul\":660:684   */\n  tag_22\n  jump\t// in\ntag_21:\n    /* \"#utility.yul\":649:684   */\n  swap1\n  pop\n    /* \"#utility.yul\":594:690   */\n  swap2\n  swap1\n  pop\n  jump\t// out\n    /* \"#utility.yul\":696:822   */\ntag_22:\n    /* \"#utility.yul\":733:740   */\n  0x00\n    /* \"#utility.yul\":773:815   */\n  0xffffffffffffffffffffffffffffffffffffffff\n    /* \"#utility.yul\":766:771   */\n  dup3\n    /* \"#utility.yul\":762:816   */\n  and\n    /* \"#utility.yul\":751:816   */\n  swap1\n  pop\n    /* \"#utility.yul\":696:822   */\n  swap2\n  swap1\n  pop\n  jump\t// out\n    /* \"#utility.yul\":951:1068   */\ntag_15:\n    /* \"#utility.yul\":1060:1061   */\n  0x00\n    /* \"#utility.yul\":1057:1058   */\n  dup1\n    /* \"#utility.yul\":1050:1062   */\n  revert\n    /* \"#utility.yul\":1074:1196   */\ntag_11:\n    /* \"#utility.yul\":1147:1171   */\n  tag_28\n    /* \"#utility.yul\":1165:1170   */\n  dup2\n    /* \"#utility.yul\":1147:1171   */\n  tag_19\n  jump\t// in\ntag_28:\n    /* \"#utility.yul\":1140:1145   */\n  dup2\n    /* \"#utility.yul\":1137:1172   */\n  eq\n    /* \"#utility.yul\":1127:1190   */\n  tag_29\n  jumpi\n    /* \"#utility.yul\":1186:1187   */\n  0x00\n    /* \"#utility.yul\":1183:1184   */\n  dup1\n    /* \"#utility.yul\":1176:1188   */\n  revert\n    /* \"#utility.yul\":1127:1190   */\ntag_29:\n    /* \"#utility.yul\":1074:1196   */\n  pop\n  jump\t// out\n    /* \"facets/GateableFacet.sol\":95:1047  contract GateableFacet {... */\ntag_6:\n  dataSize(sub_0)\n  dup1\n  dataOffset(sub_0)\n  0x00\n  codecopy\n  0x00\n  return\nstop\n\nsub_0: assembly {\n        /* \"facets/GateableFacet.sol\":95:1047  contract GateableFacet {... */\n      mstore(0x40, 0x80)\n      callvalue\n      dup1\n      iszero\n      tag_1\n      jumpi\n      0x00\n      dup1\n      revert\n    tag_1:\n      pop\n      jumpi(tag_2, lt(calldatasize, 0x04))\n      shr(0xe0, calldataload(0x00))\n      dup1\n      0x06fdde03\n      eq\n      tag_3\n      jumpi\n      dup1\n      0x0f560cd7\n      eq\n      tag_4\n      jumpi\n      dup1\n      0x5f7690b3\n      eq\n      tag_5\n      jumpi\n      dup1\n      0xbe58afb0\n      eq\n      tag_6\n      jumpi\n    tag_2:\n      0x00\n      dup1\n      revert\n        /* \"facets/GateableFacet.sol\":125:143  string public name */\n    tag_3:\n      tag_7\n      tag_8\n      jump\t// in\n    tag_7:\n      mload(0x40)\n      tag_9\n      swap2\n      swap1\n      tag_10\n      jump\t// in\n    tag_9:\n      mload(0x40)\n      dup1\n      swap2\n      sub\n      swap1\n      return\n        /* \"facets/GateableFacet.sol\":149:167  string public list */\n    tag_4:\n      tag_11\n      tag_12\n      jump\t// in\n    tag_11:\n      mload(0x40)\n      tag_13\n      swap2\n      swap1\n      tag_10\n      jump\t// in\n    tag_13:\n      mload(0x40)\n      dup1\n      swap2\n      sub\n      swap1\n      return\n        /* \"facets/GateableFacet.sol\":213:257  CredentialEventFacet public CREDENTIAL_EVENT */\n    tag_5:\n      tag_14\n      tag_15\n      jump\t// in\n    tag_14:\n      mload(0x40)\n      tag_16\n      swap2\n      swap1\n      tag_17\n      jump\t// in\n    tag_16:\n      mload(0x40)\n      dup1\n      swap2\n      sub\n      swap1\n      return\n        /* \"facets/GateableFacet.sol\":904:1044  function postVibe(string memory someParam, string memory _listId) has_credential(_listId) external {... */\n    tag_6:\n      tag_18\n      0x04\n      dup1\n      calldatasize\n      sub\n      dup2\n      add\n      swap1\n      tag_19\n      swap2\n      swap1\n      tag_20\n      jump\t// in\n    tag_19:\n      tag_21\n      jump\t// in\n    tag_18:\n      stop\n        /* \"facets/GateableFacet.sol\":125:143  string public name */\n    tag_8:\n      0x00\n      dup1\n      sload\n      tag_22\n      swap1\n      tag_23\n      jump\t// in\n    tag_22:\n      dup1\n      0x1f\n      add\n      0x20\n      dup1\n      swap2\n      div\n      mul\n      0x20\n      add\n      mload(0x40)\n      swap1\n      dup2\n      add\n      0x40\n      mstore\n      dup1\n      swap3\n      swap2\n      swap1\n      dup2\n      dup2\n      mstore\n      0x20\n      add\n      dup3\n      dup1\n      sload\n      tag_24\n      swap1\n      tag_23\n      jump\t// in\n    tag_24:\n      dup1\n      iszero\n      tag_25\n      jumpi\n      dup1\n      0x1f\n      lt\n      tag_26\n      jumpi\n      0x0100\n      dup1\n      dup4\n      sload\n      div\n      mul\n      dup4\n      mstore\n      swap2\n      0x20\n      add\n      swap2\n      jump(tag_25)\n    tag_26:\n      dup3\n      add\n      swap2\n      swap1\n      0x00\n      mstore\n      keccak256(0x00, 0x20)\n      swap1\n    tag_27:\n      dup2\n      sload\n      dup2\n      mstore\n      swap1\n      0x01\n      add\n      swap1\n      0x20\n      add\n      dup1\n      dup4\n      gt\n      tag_27\n      jumpi\n      dup3\n      swap1\n      sub\n      0x1f\n      and\n      dup3\n      add\n      swap2\n    tag_25:\n      pop\n      pop\n      pop\n      pop\n      pop\n      dup2\n      jump\t// out\n        /* \"facets/GateableFacet.sol\":149:167  string public list */\n    tag_12:\n      0x01\n      dup1\n      sload\n      tag_28\n      swap1\n      tag_23\n      jump\t// in\n    tag_28:\n      dup1\n      0x1f\n      add\n      0x20\n      dup1\n      swap2\n      div\n      mul\n      0x20\n      add\n      mload(0x40)\n      swap1\n      dup2\n      add\n      0x40\n      mstore\n      dup1\n      swap3\n      swap2\n      swap1\n      dup2\n      dup2\n      mstore\n      0x20\n      add\n      dup3\n      dup1\n      sload\n      tag_29\n      swap1\n      tag_23\n      jump\t// in\n    tag_29:\n      dup1\n      iszero\n      tag_30\n      jumpi\n      dup1\n      0x1f\n      lt\n      tag_31\n      jumpi\n      0x0100\n      dup1\n      dup4\n      sload\n      div\n      mul\n      dup4\n      mstore\n      swap2\n      0x20\n      add\n      swap2\n      jump(tag_30)\n    tag_31:\n      dup3\n      add\n      swap2\n      swap1\n      0x00\n      mstore\n      keccak256(0x00, 0x20)\n      swap1\n    tag_32:\n      dup2\n      sload\n      dup2\n      mstore\n      swap1\n      0x01\n      add\n      swap1\n      0x20\n      add\n      dup1\n      dup4\n      gt\n      tag_32\n      jumpi\n      dup3\n      swap1\n      sub\n      0x1f\n      and\n      dup3\n      add\n      swap2\n    tag_30:\n      pop\n      pop\n      pop\n      pop\n      pop\n      dup2\n      jump\t// out\n        /* \"facets/GateableFacet.sol\":213:257  CredentialEventFacet public CREDENTIAL_EVENT */\n    tag_15:\n      0x03\n      0x00\n      swap1\n      sload\n      swap1\n      0x0100\n      exp\n      swap1\n      div\n      0xffffffffffffffffffffffffffffffffffffffff\n      and\n      dup2\n      jump\t// out\n        /* \"facets/GateableFacet.sol\":904:1044  function postVibe(string memory someParam, string memory _listId) has_credential(_listId) external {... */\n    tag_21:\n        /* \"facets/GateableFacet.sol\":985:992  _listId */\n      dup1\n        /* \"facets/GateableFacet.sol\":426:442  CREDENTIAL_EVENT */\n      0x03\n      0x00\n      swap1\n      sload\n      swap1\n      0x0100\n      exp\n      swap1\n      div\n      0xffffffffffffffffffffffffffffffffffffffff\n      and\n        /* \"facets/GateableFacet.sol\":426:452  CREDENTIAL_EVENT.emitEvent */\n      0xffffffffffffffffffffffffffffffffffffffff\n      and\n      0x1a971c1b\n        /* \"facets/GateableFacet.sol\":453:460  list_id */\n      dup3\n        /* \"facets/GateableFacet.sol\":462:472  msg.sender */\n      caller\n        /* \"facets/GateableFacet.sol\":474:482  msg.data */\n      0x00\n      calldatasize\n        /* \"facets/GateableFacet.sol\":426:483  CREDENTIAL_EVENT.emitEvent(list_id, msg.sender, msg.data) */\n      mload(0x40)\n      dup6\n      0xffffffff\n      and\n      0xe0\n      shl\n      dup2\n      mstore\n      0x04\n      add\n      tag_34\n      swap5\n      swap4\n      swap3\n      swap2\n      swap1\n      tag_35\n      jump\t// in\n    tag_34:\n      0x00\n      mload(0x40)\n      dup1\n      dup4\n      sub\n      dup2\n      0x00\n      dup8\n      dup1\n      extcodesize\n      iszero\n      dup1\n      iszero\n      tag_36\n      jumpi\n      0x00\n      dup1\n      revert\n    tag_36:\n      pop\n      gas\n      call\n      iszero\n      dup1\n      iszero\n      tag_38\n      jumpi\n      returndatasize\n      0x00\n      dup1\n      returndatacopy\n      revert(0x00, returndatasize)\n    tag_38:\n      pop\n      pop\n      pop\n      pop\n        /* \"facets/GateableFacet.sol\":1014:1023  someParam */\n      dup3\n        /* \"facets/GateableFacet.sol\":1007:1011  name */\n      0x00\n        /* \"facets/GateableFacet.sol\":1007:1023  name = someParam */\n      swap1\n      dup1\n      mload\n      swap1\n      0x20\n      add\n      swap1\n      tag_40\n      swap3\n      swap2\n      swap1\n      tag_41\n      jump\t// in\n    tag_40:\n      pop\n        /* \"facets/GateableFacet.sol\":1034:1041  _listId */\n      dup2\n        /* \"facets/GateableFacet.sol\":1027:1031  list */\n      0x01\n        /* \"facets/GateableFacet.sol\":1027:1041  list = _listId */\n      swap1\n      dup1\n      mload\n      swap1\n      0x20\n      add\n      swap1\n      tag_42\n      swap3\n      swap2\n      swap1\n      tag_41\n      jump\t// in\n    tag_42:\n      pop\n        /* \"facets/GateableFacet.sol\":904:1044  function postVibe(string memory someParam, string memory _listId) has_credential(_listId) external {... */\n      pop\n      pop\n      pop\n      jump\t// out\n    tag_41:\n      dup3\n      dup1\n      sload\n      tag_43\n      swap1\n      tag_23\n      jump\t// in\n    tag_43:\n      swap1\n      0x00\n      mstore\n      keccak256(0x00, 0x20)\n      swap1\n      0x1f\n      add\n      0x20\n      swap1\n      div\n      dup2\n      add\n      swap3\n      dup3\n      tag_45\n      jumpi\n      0x00\n      dup6\n      sstore\n      jump(tag_44)\n    tag_45:\n      dup3\n      0x1f\n      lt\n      tag_46\n      jumpi\n      dup1\n      mload\n      not(0xff)\n      and\n      dup4\n      dup1\n      add\n      or\n      dup6\n      sstore\n      jump(tag_44)\n    tag_46:\n      dup3\n      dup1\n      add\n      0x01\n      add\n      dup6\n      sstore\n      dup3\n      iszero\n      tag_44\n      jumpi\n      swap2\n      dup3\n      add\n    tag_47:\n      dup3\n      dup2\n      gt\n      iszero\n      tag_48\n      jumpi\n      dup3\n      mload\n      dup3\n      sstore\n      swap2\n      0x20\n      add\n      swap2\n      swap1\n      0x01\n      add\n      swap1\n      jump(tag_47)\n    tag_48:\n    tag_44:\n      pop\n      swap1\n      pop\n      tag_49\n      swap2\n      swap1\n      tag_50\n      jump\t// in\n    tag_49:\n      pop\n      swap1\n      jump\t// out\n    tag_50:\n    tag_51:\n      dup1\n      dup3\n      gt\n      iszero\n      tag_52\n      jumpi\n      0x00\n      dup2\n      0x00\n      swap1\n      sstore\n      pop\n      0x01\n      add\n      jump(tag_51)\n    tag_52:\n      pop\n      swap1\n      jump\t// out\n        /* \"#utility.yul\":7:419   */\n    tag_54:\n        /* \"#utility.yul\":85:90   */\n      0x00\n        /* \"#utility.yul\":110:176   */\n      tag_56\n        /* \"#utility.yul\":126:175   */\n      tag_57\n        /* \"#utility.yul\":168:174   */\n      dup5\n        /* \"#utility.yul\":126:175   */\n      tag_58\n      jump\t// in\n    tag_57:\n        /* \"#utility.yul\":110:176   */\n      tag_59\n      jump\t// in\n    tag_56:\n        /* \"#utility.yul\":101:176   */\n      swap1\n      pop\n        /* \"#utility.yul\":199:205   */\n      dup3\n        /* \"#utility.yul\":192:197   */\n      dup2\n        /* \"#utility.yul\":185:206   */\n      mstore\n        /* \"#utility.yul\":237:241   */\n      0x20\n        /* \"#utility.yul\":230:235   */\n      dup2\n        /* \"#utility.yul\":226:242   */\n      add\n        /* \"#utility.yul\":275:278   */\n      dup5\n        /* \"#utility.yul\":266:272   */\n      dup5\n        /* \"#utility.yul\":261:264   */\n      dup5\n        /* \"#utility.yul\":257:273   */\n      add\n        /* \"#utility.yul\":254:279   */\n      gt\n        /* \"#utility.yul\":251:363   */\n      iszero\n      tag_60\n      jumpi\n        /* \"#utility.yul\":282:361   */\n      tag_61\n      tag_62\n      jump\t// in\n    tag_61:\n        /* \"#utility.yul\":251:363   */\n    tag_60:\n        /* \"#utility.yul\":372:413   */\n      tag_63\n        /* \"#utility.yul\":406:412   */\n      dup5\n        /* \"#utility.yul\":401:404   */\n      dup3\n        /* \"#utility.yul\":396:399   */\n      dup6\n        /* \"#utility.yul\":372:413   */\n      tag_64\n      jump\t// in\n    tag_63:\n        /* \"#utility.yul\":91:419   */\n      pop\n        /* \"#utility.yul\":7:419   */\n      swap4\n      swap3\n      pop\n      pop\n      pop\n      jump\t// out\n        /* \"#utility.yul\":439:779   */\n    tag_65:\n        /* \"#utility.yul\":495:500   */\n      0x00\n        /* \"#utility.yul\":544:547   */\n      dup3\n        /* \"#utility.yul\":537:541   */\n      0x1f\n        /* \"#utility.yul\":529:535   */\n      dup4\n        /* \"#utility.yul\":525:542   */\n      add\n        /* \"#utility.yul\":521:548   */\n      slt\n        /* \"#utility.yul\":511:633   */\n      tag_67\n      jumpi\n        /* \"#utility.yul\":552:631   */\n      tag_68\n      tag_69\n      jump\t// in\n    tag_68:\n        /* \"#utility.yul\":511:633   */\n    tag_67:\n        /* \"#utility.yul\":669:675   */\n      dup2\n        /* \"#utility.yul\":656:676   */\n      calldataload\n        /* \"#utility.yul\":694:773   */\n      tag_70\n        /* \"#utility.yul\":769:772   */\n      dup5\n        /* \"#utility.yul\":761:767   */\n      dup3\n        /* \"#utility.yul\":754:758   */\n      0x20\n        /* \"#utility.yul\":746:752   */\n      dup7\n        /* \"#utility.yul\":742:759   */\n      add\n        /* \"#utility.yul\":694:773   */\n      tag_54\n      jump\t// in\n    tag_70:\n        /* \"#utility.yul\":685:773   */\n      swap2\n      pop\n        /* \"#utility.yul\":501:779   */\n      pop\n        /* \"#utility.yul\":439:779   */\n      swap3\n      swap2\n      pop\n      pop\n      jump\t// out\n        /* \"#utility.yul\":785:1619   */\n    tag_20:\n        /* \"#utility.yul\":873:879   */\n      0x00\n        /* \"#utility.yul\":881:887   */\n      dup1\n        /* \"#utility.yul\":930:932   */\n      0x40\n        /* \"#utility.yul\":918:927   */\n      dup4\n        /* \"#utility.yul\":909:916   */\n      dup6\n        /* \"#utility.yul\":905:928   */\n      sub\n        /* \"#utility.yul\":901:933   */\n      slt\n        /* \"#utility.yul\":898:1017   */\n      iszero\n      tag_72\n      jumpi\n        /* \"#utility.yul\":936:1015   */\n      tag_73\n      tag_74\n      jump\t// in\n    tag_73:\n        /* \"#utility.yul\":898:1017   */\n    tag_72:\n        /* \"#utility.yul\":1084:1085   */\n      0x00\n        /* \"#utility.yul\":1073:1082   */\n      dup4\n        /* \"#utility.yul\":1069:1086   */\n      add\n        /* \"#utility.yul\":1056:1087   */\n      calldataload\n        /* \"#utility.yul\":1114:1132   */\n      0xffffffffffffffff\n        /* \"#utility.yul\":1106:1112   */\n      dup2\n        /* \"#utility.yul\":1103:1133   */\n      gt\n        /* \"#utility.yul\":1100:1217   */\n      iszero\n      tag_75\n      jumpi\n        /* \"#utility.yul\":1136:1215   */\n      tag_76\n      tag_77\n      jump\t// in\n    tag_76:\n        /* \"#utility.yul\":1100:1217   */\n    tag_75:\n        /* \"#utility.yul\":1241:1304   */\n      tag_78\n        /* \"#utility.yul\":1296:1303   */\n      dup6\n        /* \"#utility.yul\":1287:1293   */\n      dup3\n        /* \"#utility.yul\":1276:1285   */\n      dup7\n        /* \"#utility.yul\":1272:1294   */\n      add\n        /* \"#utility.yul\":1241:1304   */\n      tag_65\n      jump\t// in\n    tag_78:\n        /* \"#utility.yul\":1231:1304   */\n      swap3\n      pop\n        /* \"#utility.yul\":1027:1314   */\n      pop\n        /* \"#utility.yul\":1381:1383   */\n      0x20\n        /* \"#utility.yul\":1370:1379   */\n      dup4\n        /* \"#utility.yul\":1366:1384   */\n      add\n        /* \"#utility.yul\":1353:1385   */\n      calldataload\n        /* \"#utility.yul\":1412:1430   */\n      0xffffffffffffffff\n        /* \"#utility.yul\":1404:1410   */\n      dup2\n        /* \"#utility.yul\":1401:1431   */\n      gt\n        /* \"#utility.yul\":1398:1515   */\n      iszero\n      tag_79\n      jumpi\n        /* \"#utility.yul\":1434:1513   */\n      tag_80\n      tag_77\n      jump\t// in\n    tag_80:\n        /* \"#utility.yul\":1398:1515   */\n    tag_79:\n        /* \"#utility.yul\":1539:1602   */\n      tag_81\n        /* \"#utility.yul\":1594:1601   */\n      dup6\n        /* \"#utility.yul\":1585:1591   */\n      dup3\n        /* \"#utility.yul\":1574:1583   */\n      dup7\n        /* \"#utility.yul\":1570:1592   */\n      add\n        /* \"#utility.yul\":1539:1602   */\n      tag_65\n      jump\t// in\n    tag_81:\n        /* \"#utility.yul\":1529:1602   */\n      swap2\n      pop\n        /* \"#utility.yul\":1324:1612   */\n      pop\n        /* \"#utility.yul\":785:1619   */\n      swap3\n      pop\n      swap3\n      swap1\n      pop\n      jump\t// out\n        /* \"#utility.yul\":1625:1743   */\n    tag_82:\n        /* \"#utility.yul\":1712:1736   */\n      tag_84\n        /* \"#utility.yul\":1730:1735   */\n      dup2\n        /* \"#utility.yul\":1712:1736   */\n      tag_85\n      jump\t// in\n    tag_84:\n        /* \"#utility.yul\":1707:1710   */\n      dup3\n        /* \"#utility.yul\":1700:1737   */\n      mstore\n        /* \"#utility.yul\":1625:1743   */\n      pop\n      pop\n      jump\t// out\n        /* \"#utility.yul\":1771:2072   */\n    tag_86:\n        /* \"#utility.yul\":1867:1870   */\n      0x00\n        /* \"#utility.yul\":1888:1958   */\n      tag_88\n        /* \"#utility.yul\":1951:1957   */\n      dup4\n        /* \"#utility.yul\":1946:1949   */\n      dup6\n        /* \"#utility.yul\":1888:1958   */\n      tag_89\n      jump\t// in\n    tag_88:\n        /* \"#utility.yul\":1881:1958   */\n      swap4\n      pop\n        /* \"#utility.yul\":1968:2011   */\n      tag_90\n        /* \"#utility.yul\":2004:2010   */\n      dup4\n        /* \"#utility.yul\":1999:2002   */\n      dup6\n        /* \"#utility.yul\":1992:1997   */\n      dup5\n        /* \"#utility.yul\":1968:2011   */\n      tag_64\n      jump\t// in\n    tag_90:\n        /* \"#utility.yul\":2036:2065   */\n      tag_91\n        /* \"#utility.yul\":2058:2064   */\n      dup4\n        /* \"#utility.yul\":2036:2065   */\n      tag_92\n      jump\t// in\n    tag_91:\n        /* \"#utility.yul\":2031:2034   */\n      dup5\n        /* \"#utility.yul\":2027:2066   */\n      add\n        /* \"#utility.yul\":2020:2066   */\n      swap1\n      pop\n        /* \"#utility.yul\":1771:2072   */\n      swap4\n      swap3\n      pop\n      pop\n      pop\n      jump\t// out\n        /* \"#utility.yul\":2078:2263   */\n    tag_93:\n        /* \"#utility.yul\":2192:2256   */\n      tag_95\n        /* \"#utility.yul\":2250:2255   */\n      dup2\n        /* \"#utility.yul\":2192:2256   */\n      tag_96\n      jump\t// in\n    tag_95:\n        /* \"#utility.yul\":2187:2190   */\n      dup3\n        /* \"#utility.yul\":2180:2257   */\n      mstore\n        /* \"#utility.yul\":2078:2263   */\n      pop\n      pop\n      jump\t// out\n        /* \"#utility.yul\":2269:2633   */\n    tag_97:\n        /* \"#utility.yul\":2357:2360   */\n      0x00\n        /* \"#utility.yul\":2385:2424   */\n      tag_99\n        /* \"#utility.yul\":2418:2423   */\n      dup3\n        /* \"#utility.yul\":2385:2424   */\n      tag_100\n      jump\t// in\n    tag_99:\n        /* \"#utility.yul\":2440:2511   */\n      tag_101\n        /* \"#utility.yul\":2504:2510   */\n      dup2\n        /* \"#utility.yul\":2499:2502   */\n      dup6\n        /* \"#utility.yul\":2440:2511   */\n      tag_102\n      jump\t// in\n    tag_101:\n        /* \"#utility.yul\":2433:2511   */\n      swap4\n      pop\n        /* \"#utility.yul\":2520:2572   */\n      tag_103\n        /* \"#utility.yul\":2565:2571   */\n      dup2\n        /* \"#utility.yul\":2560:2563   */\n      dup6\n        /* \"#utility.yul\":2553:2557   */\n      0x20\n        /* \"#utility.yul\":2546:2551   */\n      dup7\n        /* \"#utility.yul\":2542:2558   */\n      add\n        /* \"#utility.yul\":2520:2572   */\n      tag_104\n      jump\t// in\n    tag_103:\n        /* \"#utility.yul\":2597:2626   */\n      tag_105\n        /* \"#utility.yul\":2619:2625   */\n      dup2\n        /* \"#utility.yul\":2597:2626   */\n      tag_92\n      jump\t// in\n    tag_105:\n        /* \"#utility.yul\":2592:2595   */\n      dup5\n        /* \"#utility.yul\":2588:2627   */\n      add\n        /* \"#utility.yul\":2581:2627   */\n      swap2\n      pop\n        /* \"#utility.yul\":2361:2633   */\n      pop\n        /* \"#utility.yul\":2269:2633   */\n      swap3\n      swap2\n      pop\n      pop\n      jump\t// out\n        /* \"#utility.yul\":2639:2915   */\n    tag_17:\n        /* \"#utility.yul\":2759:2763   */\n      0x00\n        /* \"#utility.yul\":2797:2799   */\n      0x20\n        /* \"#utility.yul\":2786:2795   */\n      dup3\n        /* \"#utility.yul\":2782:2800   */\n      add\n        /* \"#utility.yul\":2774:2800   */\n      swap1\n      pop\n        /* \"#utility.yul\":2810:2908   */\n      tag_107\n        /* \"#utility.yul\":2905:2906   */\n      0x00\n        /* \"#utility.yul\":2894:2903   */\n      dup4\n        /* \"#utility.yul\":2890:2907   */\n      add\n        /* \"#utility.yul\":2881:2887   */\n      dup5\n        /* \"#utility.yul\":2810:2908   */\n      tag_93\n      jump\t// in\n    tag_107:\n        /* \"#utility.yul\":2639:2915   */\n      swap3\n      swap2\n      pop\n      pop\n      jump\t// out\n        /* \"#utility.yul\":2921:3234   */\n    tag_10:\n        /* \"#utility.yul\":3034:3038   */\n      0x00\n        /* \"#utility.yul\":3072:3074   */\n      0x20\n        /* \"#utility.yul\":3061:3070   */\n      dup3\n        /* \"#utility.yul\":3057:3075   */\n      add\n        /* \"#utility.yul\":3049:3075   */\n      swap1\n      pop\n        /* \"#utility.yul\":3121:3130   */\n      dup2\n        /* \"#utility.yul\":3115:3119   */\n      dup2\n        /* \"#utility.yul\":3111:3131   */\n      sub\n        /* \"#utility.yul\":3107:3108   */\n      0x00\n        /* \"#utility.yul\":3096:3105   */\n      dup4\n        /* \"#utility.yul\":3092:3109   */\n      add\n        /* \"#utility.yul\":3085:3132   */\n      mstore\n        /* \"#utility.yul\":3149:3227   */\n      tag_109\n        /* \"#utility.yul\":3222:3226   */\n      dup2\n        /* \"#utility.yul\":3213:3219   */\n      dup5\n        /* \"#utility.yul\":3149:3227   */\n      tag_97\n      jump\t// in\n    tag_109:\n        /* \"#utility.yul\":3141:3227   */\n      swap1\n      pop\n        /* \"#utility.yul\":2921:3234   */\n      swap3\n      swap2\n      pop\n      pop\n      jump\t// out\n        /* \"#utility.yul\":3240:3880   */\n    tag_35:\n        /* \"#utility.yul\":3437:3441   */\n      0x00\n        /* \"#utility.yul\":3475:3477   */\n      0x60\n        /* \"#utility.yul\":3464:3473   */\n      dup3\n        /* \"#utility.yul\":3460:3478   */\n      add\n        /* \"#utility.yul\":3452:3478   */\n      swap1\n      pop\n        /* \"#utility.yul\":3524:3533   */\n      dup2\n        /* \"#utility.yul\":3518:3522   */\n      dup2\n        /* \"#utility.yul\":3514:3534   */\n      sub\n        /* \"#utility.yul\":3510:3511   */\n      0x00\n        /* \"#utility.yul\":3499:3508   */\n      dup4\n        /* \"#utility.yul\":3495:3512   */\n      add\n        /* \"#utility.yul\":3488:3535   */\n      mstore\n        /* \"#utility.yul\":3552:3630   */\n      tag_111\n        /* \"#utility.yul\":3625:3629   */\n      dup2\n        /* \"#utility.yul\":3616:3622   */\n      dup8\n        /* \"#utility.yul\":3552:3630   */\n      tag_97\n      jump\t// in\n    tag_111:\n        /* \"#utility.yul\":3544:3630   */\n      swap1\n      pop\n        /* \"#utility.yul\":3640:3712   */\n      tag_112\n        /* \"#utility.yul\":3708:3710   */\n      0x20\n        /* \"#utility.yul\":3697:3706   */\n      dup4\n        /* \"#utility.yul\":3693:3711   */\n      add\n        /* \"#utility.yul\":3684:3690   */\n      dup7\n        /* \"#utility.yul\":3640:3712   */\n      tag_82\n      jump\t// in\n    tag_112:\n        /* \"#utility.yul\":3759:3768   */\n      dup2\n        /* \"#utility.yul\":3753:3757   */\n      dup2\n        /* \"#utility.yul\":3749:3769   */\n      sub\n        /* \"#utility.yul\":3744:3746   */\n      0x40\n        /* \"#utility.yul\":3733:3742   */\n      dup4\n        /* \"#utility.yul\":3729:3747   */\n      add\n        /* \"#utility.yul\":3722:3770   */\n      mstore\n        /* \"#utility.yul\":3787:3873   */\n      tag_113\n        /* \"#utility.yul\":3868:3872   */\n      dup2\n        /* \"#utility.yul\":3859:3865   */\n      dup5\n        /* \"#utility.yul\":3851:3857   */\n      dup7\n        /* \"#utility.yul\":3787:3873   */\n      tag_86\n      jump\t// in\n    tag_113:\n        /* \"#utility.yul\":3779:3873   */\n      swap1\n      pop\n        /* \"#utility.yul\":3240:3880   */\n      swap6\n      swap5\n      pop\n      pop\n      pop\n      pop\n      pop\n      jump\t// out\n        /* \"#utility.yul\":3886:4015   */\n    tag_59:\n        /* \"#utility.yul\":3920:3926   */\n      0x00\n        /* \"#utility.yul\":3947:3967   */\n      tag_115\n      tag_116\n      jump\t// in\n    tag_115:\n        /* \"#utility.yul\":3937:3967   */\n      swap1\n      pop\n        /* \"#utility.yul\":3976:4009   */\n      tag_117\n        /* \"#utility.yul\":4004:4008   */\n      dup3\n        /* \"#utility.yul\":3996:4002   */\n      dup3\n        /* \"#utility.yul\":3976:4009   */\n      tag_118\n      jump\t// in\n    tag_117:\n        /* \"#utility.yul\":3886:4015   */\n      swap2\n      swap1\n      pop\n      jump\t// out\n        /* \"#utility.yul\":4021:4096   */\n    tag_116:\n        /* \"#utility.yul\":4054:4060   */\n      0x00\n        /* \"#utility.yul\":4087:4089   */\n      0x40\n        /* \"#utility.yul\":4081:4090   */\n      mload\n        /* \"#utility.yul\":4071:4090   */\n      swap1\n      pop\n        /* \"#utility.yul\":4021:4096   */\n      swap1\n      jump\t// out\n        /* \"#utility.yul\":4102:4410   */\n    tag_58:\n        /* \"#utility.yul\":4164:4168   */\n      0x00\n        /* \"#utility.yul\":4254:4272   */\n      0xffffffffffffffff\n        /* \"#utility.yul\":4246:4252   */\n      dup3\n        /* \"#utility.yul\":4243:4273   */\n      gt\n        /* \"#utility.yul\":4240:4296   */\n      iszero\n      tag_121\n      jumpi\n        /* \"#utility.yul\":4276:4294   */\n      tag_122\n      tag_123\n      jump\t// in\n    tag_122:\n        /* \"#utility.yul\":4240:4296   */\n    tag_121:\n        /* \"#utility.yul\":4314:4343   */\n      tag_124\n        /* \"#utility.yul\":4336:4342   */\n      dup3\n        /* \"#utility.yul\":4314:4343   */\n      tag_92\n      jump\t// in\n    tag_124:\n        /* \"#utility.yul\":4306:4343   */\n      swap1\n      pop\n        /* \"#utility.yul\":4398:4402   */\n      0x20\n        /* \"#utility.yul\":4392:4396   */\n      dup2\n        /* \"#utility.yul\":4388:4403   */\n      add\n        /* \"#utility.yul\":4380:4403   */\n      swap1\n      pop\n        /* \"#utility.yul\":4102:4410   */\n      swap2\n      swap1\n      pop\n      jump\t// out\n        /* \"#utility.yul\":4416:4515   */\n    tag_100:\n        /* \"#utility.yul\":4468:4474   */\n      0x00\n        /* \"#utility.yul\":4502:4507   */\n      dup2\n        /* \"#utility.yul\":4496:4508   */\n      mload\n        /* \"#utility.yul\":4486:4508   */\n      swap1\n      pop\n        /* \"#utility.yul\":4416:4515   */\n      swap2\n      swap1\n      pop\n      jump\t// out\n        /* \"#utility.yul\":4521:4689   */\n    tag_89:\n        /* \"#utility.yul\":4604:4615   */\n      0x00\n        /* \"#utility.yul\":4638:4644   */\n      dup3\n        /* \"#utility.yul\":4633:4636   */\n      dup3\n        /* \"#utility.yul\":4626:4645   */\n      mstore\n        /* \"#utility.yul\":4678:4682   */\n      0x20\n        /* \"#utility.yul\":4673:4676   */\n      dup3\n        /* \"#utility.yul\":4669:4683   */\n      add\n        /* \"#utility.yul\":4654:4683   */\n      swap1\n      pop\n        /* \"#utility.yul\":4521:4689   */\n      swap3\n      swap2\n      pop\n      pop\n      jump\t// out\n        /* \"#utility.yul\":4695:4864   */\n    tag_102:\n        /* \"#utility.yul\":4779:4790   */\n      0x00\n        /* \"#utility.yul\":4813:4819   */\n      dup3\n        /* \"#utility.yul\":4808:4811   */\n      dup3\n        /* \"#utility.yul\":4801:4820   */\n      mstore\n        /* \"#utility.yul\":4853:4857   */\n      0x20\n        /* \"#utility.yul\":4848:4851   */\n      dup3\n        /* \"#utility.yul\":4844:4858   */\n      add\n        /* \"#utility.yul\":4829:4858   */\n      swap1\n      pop\n        /* \"#utility.yul\":4695:4864   */\n      swap3\n      swap2\n      pop\n      pop\n      jump\t// out\n        /* \"#utility.yul\":4870:4966   */\n    tag_85:\n        /* \"#utility.yul\":4907:4914   */\n      0x00\n        /* \"#utility.yul\":4936:4960   */\n      tag_129\n        /* \"#utility.yul\":4954:4959   */\n      dup3\n        /* \"#utility.yul\":4936:4960   */\n      tag_130\n      jump\t// in\n    tag_129:\n        /* \"#utility.yul\":4925:4960   */\n      swap1\n      pop\n        /* \"#utility.yul\":4870:4966   */\n      swap2\n      swap1\n      pop\n      jump\t// out\n        /* \"#utility.yul\":4972:5098   */\n    tag_130:\n        /* \"#utility.yul\":5009:5016   */\n      0x00\n        /* \"#utility.yul\":5049:5091   */\n      0xffffffffffffffffffffffffffffffffffffffff\n        /* \"#utility.yul\":5042:5047   */\n      dup3\n        /* \"#utility.yul\":5038:5092   */\n      and\n        /* \"#utility.yul\":5027:5092   */\n      swap1\n      pop\n        /* \"#utility.yul\":4972:5098   */\n      swap2\n      swap1\n      pop\n      jump\t// out\n        /* \"#utility.yul\":5104:5257   */\n    tag_96:\n        /* \"#utility.yul\":5181:5190   */\n      0x00\n        /* \"#utility.yul\":5214:5251   */\n      tag_133\n        /* \"#utility.yul\":5245:5250   */\n      dup3\n        /* \"#utility.yul\":5214:5251   */\n      tag_134\n      jump\t// in\n    tag_133:\n        /* \"#utility.yul\":5201:5251   */\n      swap1\n      pop\n        /* \"#utility.yul\":5104:5257   */\n      swap2\n      swap1\n      pop\n      jump\t// out\n        /* \"#utility.yul\":5263:5389   */\n    tag_134:\n        /* \"#utility.yul\":5313:5322   */\n      0x00\n        /* \"#utility.yul\":5346:5383   */\n      tag_136\n        /* \"#utility.yul\":5377:5382   */\n      dup3\n        /* \"#utility.yul\":5346:5383   */\n      tag_137\n      jump\t// in\n    tag_136:\n        /* \"#utility.yul\":5333:5383   */\n      swap1\n      pop\n        /* \"#utility.yul\":5263:5389   */\n      swap2\n      swap1\n      pop\n      jump\t// out\n        /* \"#utility.yul\":5395:5508   */\n    tag_137:\n        /* \"#utility.yul\":5445:5454   */\n      0x00\n        /* \"#utility.yul\":5478:5502   */\n      tag_139\n        /* \"#utility.yul\":5496:5501   */\n      dup3\n        /* \"#utility.yul\":5478:5502   */\n      tag_130\n      jump\t// in\n    tag_139:\n        /* \"#utility.yul\":5465:5502   */\n      swap1\n      pop\n        /* \"#utility.yul\":5395:5508   */\n      swap2\n      swap1\n      pop\n      jump\t// out\n        /* \"#utility.yul\":5514:5668   */\n    tag_64:\n        /* \"#utility.yul\":5598:5604   */\n      dup3\n        /* \"#utility.yul\":5593:5596   */\n      dup2\n        /* \"#utility.yul\":5588:5591   */\n      dup4\n        /* \"#utility.yul\":5575:5605   */\n      calldatacopy\n        /* \"#utility.yul\":5660:5661   */\n      0x00\n        /* \"#utility.yul\":5651:5657   */\n      dup4\n        /* \"#utility.yul\":5646:5649   */\n      dup4\n        /* \"#utility.yul\":5642:5658   */\n      add\n        /* \"#utility.yul\":5635:5662   */\n      mstore\n        /* \"#utility.yul\":5514:5668   */\n      pop\n      pop\n      pop\n      jump\t// out\n        /* \"#utility.yul\":5674:5981   */\n    tag_104:\n        /* \"#utility.yul\":5742:5743   */\n      0x00\n        /* \"#utility.yul\":5752:5865   */\n    tag_142:\n        /* \"#utility.yul\":5766:5772   */\n      dup4\n        /* \"#utility.yul\":5763:5764   */\n      dup2\n        /* \"#utility.yul\":5760:5773   */\n      lt\n        /* \"#utility.yul\":5752:5865   */\n      iszero\n      tag_144\n      jumpi\n        /* \"#utility.yul\":5851:5852   */\n      dup1\n        /* \"#utility.yul\":5846:5849   */\n      dup3\n        /* \"#utility.yul\":5842:5853   */\n      add\n        /* \"#utility.yul\":5836:5854   */\n      mload\n        /* \"#utility.yul\":5832:5833   */\n      dup2\n        /* \"#utility.yul\":5827:5830   */\n      dup5\n        /* \"#utility.yul\":5823:5834   */\n      add\n        /* \"#utility.yul\":5816:5855   */\n      mstore\n        /* \"#utility.yul\":5788:5790   */\n      0x20\n        /* \"#utility.yul\":5785:5786   */\n      dup2\n        /* \"#utility.yul\":5781:5791   */\n      add\n        /* \"#utility.yul\":5776:5791   */\n      swap1\n      pop\n        /* \"#utility.yul\":5752:5865   */\n      jump(tag_142)\n    tag_144:\n        /* \"#utility.yul\":5883:5889   */\n      dup4\n        /* \"#utility.yul\":5880:5881   */\n      dup2\n        /* \"#utility.yul\":5877:5890   */\n      gt\n        /* \"#utility.yul\":5874:5975   */\n      iszero\n      tag_145\n      jumpi\n        /* \"#utility.yul\":5963:5964   */\n      0x00\n        /* \"#utility.yul\":5954:5960   */\n      dup5\n        /* \"#utility.yul\":5949:5952   */\n      dup5\n        /* \"#utility.yul\":5945:5961   */\n      add\n        /* \"#utility.yul\":5938:5965   */\n      mstore\n        /* \"#utility.yul\":5874:5975   */\n    tag_145:\n        /* \"#utility.yul\":5723:5981   */\n      pop\n        /* \"#utility.yul\":5674:5981   */\n      pop\n      pop\n      pop\n      jump\t// out\n        /* \"#utility.yul\":5987:6307   */\n    tag_23:\n        /* \"#utility.yul\":6031:6037   */\n      0x00\n        /* \"#utility.yul\":6068:6069   */\n      0x02\n        /* \"#utility.yul\":6062:6066   */\n      dup3\n        /* \"#utility.yul\":6058:6070   */\n      div\n        /* \"#utility.yul\":6048:6070   */\n      swap1\n      pop\n        /* \"#utility.yul\":6115:6116   */\n      0x01\n        /* \"#utility.yul\":6109:6113   */\n      dup3\n        /* \"#utility.yul\":6105:6117   */\n      and\n        /* \"#utility.yul\":6136:6154   */\n      dup1\n        /* \"#utility.yul\":6126:6207   */\n      tag_147\n      jumpi\n        /* \"#utility.yul\":6192:6196   */\n      0x7f\n        /* \"#utility.yul\":6184:6190   */\n      dup3\n        /* \"#utility.yul\":6180:6197   */\n      and\n        /* \"#utility.yul\":6170:6197   */\n      swap2\n      pop\n        /* \"#utility.yul\":6126:6207   */\n    tag_147:\n        /* \"#utility.yul\":6254:6256   */\n      0x20\n        /* \"#utility.yul\":6246:6252   */\n      dup3\n        /* \"#utility.yul\":6243:6257   */\n      lt\n        /* \"#utility.yul\":6223:6241   */\n      dup2\n        /* \"#utility.yul\":6220:6258   */\n      eq\n        /* \"#utility.yul\":6217:6301   */\n      iszero\n      tag_148\n      jumpi\n        /* \"#utility.yul\":6273:6291   */\n      tag_149\n      tag_150\n      jump\t// in\n    tag_149:\n        /* \"#utility.yul\":6217:6301   */\n    tag_148:\n        /* \"#utility.yul\":6038:6307   */\n      pop\n        /* \"#utility.yul\":5987:6307   */\n      swap2\n      swap1\n      pop\n      jump\t// out\n        /* \"#utility.yul\":6313:6594   */\n    tag_118:\n        /* \"#utility.yul\":6396:6423   */\n      tag_152\n        /* \"#utility.yul\":6418:6422   */\n      dup3\n        /* \"#utility.yul\":6396:6423   */\n      tag_92\n      jump\t// in\n    tag_152:\n        /* \"#utility.yul\":6388:6394   */\n      dup2\n        /* \"#utility.yul\":6384:6424   */\n      add\n        /* \"#utility.yul\":6526:6532   */\n      dup2\n        /* \"#utility.yul\":6514:6524   */\n      dup2\n        /* \"#utility.yul\":6511:6533   */\n      lt\n        /* \"#utility.yul\":6490:6508   */\n      0xffffffffffffffff\n        /* \"#utility.yul\":6478:6488   */\n      dup3\n        /* \"#utility.yul\":6475:6509   */\n      gt\n        /* \"#utility.yul\":6472:6534   */\n      or\n        /* \"#utility.yul\":6469:6557   */\n      iszero\n      tag_153\n      jumpi\n        /* \"#utility.yul\":6537:6555   */\n      tag_154\n      tag_123\n      jump\t// in\n    tag_154:\n        /* \"#utility.yul\":6469:6557   */\n    tag_153:\n        /* \"#utility.yul\":6577:6587   */\n      dup1\n        /* \"#utility.yul\":6573:6575   */\n      0x40\n        /* \"#utility.yul\":6566:6588   */\n      mstore\n        /* \"#utility.yul\":6356:6594   */\n      pop\n        /* \"#utility.yul\":6313:6594   */\n      pop\n      pop\n      jump\t// out\n        /* \"#utility.yul\":6600:6780   */\n    tag_150:\n        /* \"#utility.yul\":6648:6725   */\n      0x4e487b7100000000000000000000000000000000000000000000000000000000\n        /* \"#utility.yul\":6645:6646   */\n      0x00\n        /* \"#utility.yul\":6638:6726   */\n      mstore\n        /* \"#utility.yul\":6745:6749   */\n      0x22\n        /* \"#utility.yul\":6742:6743   */\n      0x04\n        /* \"#utility.yul\":6735:6750   */\n      mstore\n        /* \"#utility.yul\":6769:6773   */\n      0x24\n        /* \"#utility.yul\":6766:6767   */\n      0x00\n        /* \"#utility.yul\":6759:6774   */\n      revert\n        /* \"#utility.yul\":6786:6966   */\n    tag_123:\n        /* \"#utility.yul\":6834:6911   */\n      0x4e487b7100000000000000000000000000000000000000000000000000000000\n        /* \"#utility.yul\":6831:6832   */\n      0x00\n        /* \"#utility.yul\":6824:6912   */\n      mstore\n        /* \"#utility.yul\":6931:6935   */\n      0x41\n        /* \"#utility.yul\":6928:6929   */\n      0x04\n        /* \"#utility.yul\":6921:6936   */\n      mstore\n        /* \"#utility.yul\":6955:6959   */\n      0x24\n        /* \"#utility.yul\":6952:6953   */\n      0x00\n        /* \"#utility.yul\":6945:6960   */\n      revert\n        /* \"#utility.yul\":6972:7089   */\n    tag_69:\n        /* \"#utility.yul\":7081:7082   */\n      0x00\n        /* \"#utility.yul\":7078:7079   */\n      dup1\n        /* \"#utility.yul\":7071:7083   */\n      revert\n        /* \"#utility.yul\":7095:7212   */\n    tag_62:\n        /* \"#utility.yul\":7204:7205   */\n      0x00\n        /* \"#utility.yul\":7201:7202   */\n      dup1\n        /* \"#utility.yul\":7194:7206   */\n      revert\n        /* \"#utility.yul\":7218:7335   */\n    tag_77:\n        /* \"#utility.yul\":7327:7328   */\n      0x00\n        /* \"#utility.yul\":7324:7325   */\n      dup1\n        /* \"#utility.yul\":7317:7329   */\n      revert\n        /* \"#utility.yul\":7341:7458   */\n    tag_74:\n        /* \"#utility.yul\":7450:7451   */\n      0x00\n        /* \"#utility.yul\":7447:7448   */\n      dup1\n        /* \"#utility.yul\":7440:7452   */\n      revert\n        /* \"#utility.yul\":7464:7566   */\n    tag_92:\n        /* \"#utility.yul\":7505:7511   */\n      0x00\n        /* \"#utility.yul\":7556:7558   */\n      0x1f\n        /* \"#utility.yul\":7552:7559   */\n      not\n        /* \"#utility.yul\":7547:7549   */\n      0x1f\n        /* \"#utility.yul\":7540:7545   */\n      dup4\n        /* \"#utility.yul\":7536:7550   */\n      add\n        /* \"#utility.yul\":7532:7560   */\n      and\n        /* \"#utility.yul\":7522:7560   */\n      swap1\n      pop\n        /* \"#utility.yul\":7464:7566   */\n      swap2\n      swap1\n      pop\n      jump\t// out\n\n    auxdata: 0xa26469706673582212208773ae2bcc89602f7a246d4f75572ede61f32da0ab0f49d175c209d6867b2ca264736f6c63430008070033\n}\n",
				"bytecode": {
					"linkReferences": {},
					"object": "608060405234801561001057600080fd5b506040516108c53803806108c58339818101604052810190610032919061008e565b80600260006101000a81548173ffffffffffffffffffffffffffffffffffffffff021916908373ffffffffffffffffffffffffffffffffffffffff16021790555050610109565b600081519050610088816100f2565b92915050565b6000602082840312156100a4576100a36100ed565b5b60006100b284828501610079565b91505092915050565b60006100c6826100cd565b9050919050565b600073ffffffffffffffffffffffffffffffffffffffff82169050919050565b600080fd5b6100fb816100bb565b811461010657600080fd5b50565b6107ad806101186000396000f3fe608060405234801561001057600080fd5b506004361061004c5760003560e01c806306fdde03146100515780630f560cd71461006f5780635f7690b31461008d578063be58afb0146100ab575b600080fd5b6100596100c7565b60405161006691906104fb565b60405180910390f35b610077610155565b60405161008491906104fb565b60405180910390f35b6100956101e3565b6040516100a291906104e0565b60405180910390f35b6100c560048036038101906100c091906103e4565b610209565b005b600080546100d490610691565b80601f016020809104026020016040519081016040528092919081815260200182805461010090610691565b801561014d5780601f106101225761010080835404028352916020019161014d565b820191906000526020600020905b81548152906001019060200180831161013057829003601f168201915b505050505081565b6001805461016290610691565b80601f016020809104026020016040519081016040528092919081815260200182805461018e90610691565b80156101db5780601f106101b0576101008083540402835291602001916101db565b820191906000526020600020905b8154815290600101906020018083116101be57829003601f168201915b505050505081565b600360009054906101000a900473ffffffffffffffffffffffffffffffffffffffff1681565b80600360009054906101000a900473ffffffffffffffffffffffffffffffffffffffff1673ffffffffffffffffffffffffffffffffffffffff16631a971c1b82336000366040518563ffffffff1660e01b815260040161026c949392919061051d565b600060405180830381600087803b15801561028657600080fd5b505af115801561029a573d6000803e3d6000fd5b5050505082600090805190602001906102b49291906102d1565b5081600190805190602001906102cb9291906102d1565b50505050565b8280546102dd90610691565b90600052602060002090601f0160209004810192826102ff5760008555610346565b82601f1061031857805160ff1916838001178555610346565b82800160010185558215610346579182015b8281111561034557825182559160200191906001019061032a565b5b5090506103539190610357565b5090565b5b80821115610370576000816000905550600101610358565b5090565b600061038761038284610589565b610564565b9050828152602081018484840111156103a3576103a2610757565b5b6103ae84828561064f565b509392505050565b600082601f8301126103cb576103ca610752565b5b81356103db848260208601610374565b91505092915050565b600080604083850312156103fb576103fa610761565b5b600083013567ffffffffffffffff8111156104195761041861075c565b5b610425858286016103b6565b925050602083013567ffffffffffffffff8111156104465761044561075c565b5b610452858286016103b6565b9150509250929050565b610465816105e7565b82525050565b600061047783856105c5565b935061048483858461064f565b61048d83610766565b840190509392505050565b6104a181610619565b82525050565b60006104b2826105ba565b6104bc81856105d6565b93506104cc81856020860161065e565b6104d581610766565b840191505092915050565b60006020820190506104f56000830184610498565b92915050565b6000602082019050818103600083015261051581846104a7565b905092915050565b6000606082019050818103600083015261053781876104a7565b9050610546602083018661045c565b818103604083015261055981848661046b565b905095945050505050565b600061056e61057f565b905061057a82826106c3565b919050565b6000604051905090565b600067ffffffffffffffff8211156105a4576105a3610723565b5b6105ad82610766565b9050602081019050919050565b600081519050919050565b600082825260208201905092915050565b600082825260208201905092915050565b60006105f2826105f9565b9050919050565b600073ffffffffffffffffffffffffffffffffffffffff82169050919050565b60006106248261062b565b9050919050565b60006106368261063d565b9050919050565b6000610648826105f9565b9050919050565b82818337600083830152505050565b60005b8381101561067c578082015181840152602081019050610661565b8381111561068b576000848401525b50505050565b600060028204905060018216806106a957607f821691505b602082108114156106bd576106bc6106f4565b5b50919050565b6106cc82610766565b810181811067ffffffffffffffff821117156106eb576106ea610723565b5b80604052505050565b7f4e487b7100000000000000000000000000000000000000000000000000000000600052602260045260246000fd5b7f4e487b7100000000000000000000000000000000000000000000000000000000600052604160045260246000fd5b600080fd5b600080fd5b600080fd5b600080fd5b6000601f19601f830116905091905056fea26469706673582212208773ae2bcc89602f7a246d4f75572ede61f32da0ab0f49d175c209d6867b2ca264736f6c63430008070033",
					"opcodes": "PUSH1 0x80 PUSH1 0x40 MSTORE CALLVALUE DUP1 ISZERO PUSH2 0x10 JUMPI PUSH1 0x0 DUP1 REVERT JUMPDEST POP PUSH1 0x40 MLOAD PUSH2 0x8C5 CODESIZE SUB DUP1 PUSH2 0x8C5 DUP4 CODECOPY DUP2 DUP2 ADD PUSH1 0x40 MSTORE DUP2 ADD SWAP1 PUSH2 0x32 SWAP2 SWAP1 PUSH2 0x8E JUMP JUMPDEST DUP1 PUSH1 0x2 PUSH1 0x0 PUSH2 0x100 EXP DUP2 SLOAD DUP2 PUSH20 0xFFFFFFFFFFFFFFFFFFFFFFFFFFFFFFFFFFFFFFFF MUL NOT AND SWAP1 DUP4 PUSH20 0xFFFFFFFFFFFFFFFFFFFFFFFFFFFFFFFFFFFFFFFF AND MUL OR SWAP1 SSTORE POP POP PUSH2 0x109 JUMP JUMPDEST PUSH1 0x0 DUP2 MLOAD SWAP1 POP PUSH2 0x88 DUP2 PUSH2 0xF2 JUMP JUMPDEST SWAP3 SWAP2 POP POP JUMP JUMPDEST PUSH1 0x0 PUSH1 0x20 DUP3 DUP5 SUB SLT ISZERO PUSH2 0xA4 JUMPI PUSH2 0xA3 PUSH2 0xED JUMP JUMPDEST JUMPDEST PUSH1 0x0 PUSH2 0xB2 DUP5 DUP3 DUP6 ADD PUSH2 0x79 JUMP JUMPDEST SWAP2 POP POP SWAP3 SWAP2 POP POP JUMP JUMPDEST PUSH1 0x0 PUSH2 0xC6 DUP3 PUSH2 0xCD JUMP JUMPDEST SWAP1 POP SWAP2 SWAP1 POP JUMP JUMPDEST PUSH1 0x0 PUSH20 0xFFFFFFFFFFFFFFFFFFFFFFFFFFFFFFFFFFFFFFFF DUP3 AND SWAP1 POP SWAP2 SWAP1 POP JUMP JUMPDEST PUSH1 0x0 DUP1 REVERT JUMPDEST PUSH2 0xFB DUP2 PUSH2 0xBB JUMP JUMPDEST DUP2 EQ PUSH2 0x106 JUMPI PUSH1 0x0 DUP1 REVERT JUMPDEST POP JUMP JUMPDEST PUSH2 0x7AD DUP1 PUSH2 0x118 PUSH1 0x0 CODECOPY PUSH1 0x0 RETURN INVALID PUSH1 0x80 PUSH1 0x40 MSTORE CALLVALUE DUP1 ISZERO PUSH2 0x10 JUMPI PUSH1 0x0 DUP1 REVERT JUMPDEST POP PUSH1 0x4 CALLDATASIZE LT PUSH2 0x4C JUMPI PUSH1 0x0 CALLDATALOAD PUSH1 0xE0 SHR DUP1 PUSH4 0x6FDDE03 EQ PUSH2 0x51 JUMPI DUP1 PUSH4 0xF560CD7 EQ PUSH2 0x6F JUMPI DUP1 PUSH4 0x5F7690B3 EQ PUSH2 0x8D JUMPI DUP1 PUSH4 0xBE58AFB0 EQ PUSH2 0xAB JUMPI JUMPDEST PUSH1 0x0 DUP1 REVERT JUMPDEST PUSH2 0x59 PUSH2 0xC7 JUMP JUMPDEST PUSH1 0x40 MLOAD PUSH2 0x66 SWAP2 SWAP1 PUSH2 0x4FB JUMP JUMPDEST PUSH1 0x40 MLOAD DUP1 SWAP2 SUB SWAP1 RETURN JUMPDEST PUSH2 0x77 PUSH2 0x155 JUMP JUMPDEST PUSH1 0x40 MLOAD PUSH2 0x84 SWAP2 SWAP1 PUSH2 0x4FB JUMP JUMPDEST PUSH1 0x40 MLOAD DUP1 SWAP2 SUB SWAP1 RETURN JUMPDEST PUSH2 0x95 PUSH2 0x1E3 JUMP JUMPDEST PUSH1 0x40 MLOAD PUSH2 0xA2 SWAP2 SWAP1 PUSH2 0x4E0 JUMP JUMPDEST PUSH1 0x40 MLOAD DUP1 SWAP2 SUB SWAP1 RETURN JUMPDEST PUSH2 0xC5 PUSH1 0x4 DUP1 CALLDATASIZE SUB DUP2 ADD SWAP1 PUSH2 0xC0 SWAP2 SWAP1 PUSH2 0x3E4 JUMP JUMPDEST PUSH2 0x209 JUMP JUMPDEST STOP JUMPDEST PUSH1 0x0 DUP1 SLOAD PUSH2 0xD4 SWAP1 PUSH2 0x691 JUMP JUMPDEST DUP1 PUSH1 0x1F ADD PUSH1 0x20 DUP1 SWAP2 DIV MUL PUSH1 0x20 ADD PUSH1 0x40 MLOAD SWAP1 DUP2 ADD PUSH1 0x40 MSTORE DUP1 SWAP3 SWAP2 SWAP1 DUP2 DUP2 MSTORE PUSH1 0x20 ADD DUP3 DUP1 SLOAD PUSH2 0x100 SWAP1 PUSH2 0x691 JUMP JUMPDEST DUP1 ISZERO PUSH2 0x14D JUMPI DUP1 PUSH1 0x1F LT PUSH2 0x122 JUMPI PUSH2 0x100 DUP1 DUP4 SLOAD DIV MUL DUP4 MSTORE SWAP2 PUSH1 0x20 ADD SWAP2 PUSH2 0x14D JUMP JUMPDEST DUP3 ADD SWAP2 SWAP1 PUSH1 0x0 MSTORE PUSH1 0x20 PUSH1 0x0 KECCAK256 SWAP1 JUMPDEST DUP2 SLOAD DUP2 MSTORE SWAP1 PUSH1 0x1 ADD SWAP1 PUSH1 0x20 ADD DUP1 DUP4 GT PUSH2 0x130 JUMPI DUP3 SWAP1 SUB PUSH1 0x1F AND DUP3 ADD SWAP2 JUMPDEST POP POP POP POP POP DUP2 JUMP JUMPDEST PUSH1 0x1 DUP1 SLOAD PUSH2 0x162 SWAP1 PUSH2 0x691 JUMP JUMPDEST DUP1 PUSH1 0x1F ADD PUSH1 0x20 DUP1 SWAP2 DIV MUL PUSH1 0x20 ADD PUSH1 0x40 MLOAD SWAP1 DUP2 ADD PUSH1 0x40 MSTORE DUP1 SWAP3 SWAP2 SWAP1 DUP2 DUP2 MSTORE PUSH1 0x20 ADD DUP3 DUP1 SLOAD PUSH2 0x18E SWAP1 PUSH2 0x691 JUMP JUMPDEST DUP1 ISZERO PUSH2 0x1DB JUMPI DUP1 PUSH1 0x1F LT PUSH2 0x1B0 JUMPI PUSH2 0x100 DUP1 DUP4 SLOAD DIV MUL DUP4 MSTORE SWAP2 PUSH1 0x20 ADD SWAP2 PUSH2 0x1DB JUMP JUMPDEST DUP3 ADD SWAP2 SWAP1 PUSH1 0x0 MSTORE PUSH1 0x20 PUSH1 0x0 KECCAK256 SWAP1 JUMPDEST DUP2 SLOAD DUP2 MSTORE SWAP1 PUSH1 0x1 ADD SWAP1 PUSH1 0x20 ADD DUP1 DUP4 GT PUSH2 0x1BE JUMPI DUP3 SWAP1 SUB PUSH1 0x1F AND DUP3 ADD SWAP2 JUMPDEST POP POP POP POP POP DUP2 JUMP JUMPDEST PUSH1 0x3 PUSH1 0x0 SWAP1 SLOAD SWAP1 PUSH2 0x100 EXP SWAP1 DIV PUSH20 0xFFFFFFFFFFFFFFFFFFFFFFFFFFFFFFFFFFFFFFFF AND DUP2 JUMP JUMPDEST DUP1 PUSH1 0x3 PUSH1 0x0 SWAP1 SLOAD SWAP1 PUSH2 0x100 EXP SWAP1 DIV PUSH20 0xFFFFFFFFFFFFFFFFFFFFFFFFFFFFFFFFFFFFFFFF AND PUSH20 0xFFFFFFFFFFFFFFFFFFFFFFFFFFFFFFFFFFFFFFFF AND PUSH4 0x1A971C1B DUP3 CALLER PUSH1 0x0 CALLDATASIZE PUSH1 0x40 MLOAD DUP6 PUSH4 0xFFFFFFFF AND PUSH1 0xE0 SHL DUP2 MSTORE PUSH1 0x4 ADD PUSH2 0x26C SWAP5 SWAP4 SWAP3 SWAP2 SWAP1 PUSH2 0x51D JUMP JUMPDEST PUSH1 0x0 PUSH1 0x40 MLOAD DUP1 DUP4 SUB DUP2 PUSH1 0x0 DUP8 DUP1 EXTCODESIZE ISZERO DUP1 ISZERO PUSH2 0x286 JUMPI PUSH1 0x0 DUP1 REVERT JUMPDEST POP GAS CALL ISZERO DUP1 ISZERO PUSH2 0x29A JUMPI RETURNDATASIZE PUSH1 0x0 DUP1 RETURNDATACOPY RETURNDATASIZE PUSH1 0x0 REVERT JUMPDEST POP POP POP POP DUP3 PUSH1 0x0 SWAP1 DUP1 MLOAD SWAP1 PUSH1 0x20 ADD SWAP1 PUSH2 0x2B4 SWAP3 SWAP2 SWAP1 PUSH2 0x2D1 JUMP JUMPDEST POP DUP2 PUSH1 0x1 SWAP1 DUP1 MLOAD SWAP1 PUSH1 0x20 ADD SWAP1 PUSH2 0x2CB SWAP3 SWAP2 SWAP1 PUSH2 0x2D1 JUMP JUMPDEST POP POP POP POP JUMP JUMPDEST DUP3 DUP1 SLOAD PUSH2 0x2DD SWAP1 PUSH2 0x691 JUMP JUMPDEST SWAP1 PUSH1 0x0 MSTORE PUSH1 0x20 PUSH1 0x0 KECCAK256 SWAP1 PUSH1 0x1F ADD PUSH1 0x20 SWAP1 DIV DUP2 ADD SWAP3 DUP3 PUSH2 0x2FF JUMPI PUSH1 0x0 DUP6 SSTORE PUSH2 0x346 JUMP JUMPDEST DUP3 PUSH1 0x1F LT PUSH2 0x318 JUMPI DUP1 MLOAD PUSH1 0xFF NOT AND DUP4 DUP1 ADD OR DUP6 SSTORE PUSH2 0x346 JUMP JUMPDEST DUP3 DUP1 ADD PUSH1 0x1 ADD DUP6 SSTORE DUP3 ISZERO PUSH2 0x346 JUMPI SWAP2 DUP3 ADD JUMPDEST DUP3 DUP2 GT ISZERO PUSH2 0x345 JUMPI DUP3 MLOAD DUP3 SSTORE SWAP2 PUSH1 0x20 ADD SWAP2 SWAP1 PUSH1 0x1 ADD SWAP1 PUSH2 0x32A JUMP JUMPDEST JUMPDEST POP SWAP1 POP PUSH2 0x353 SWAP2 SWAP1 PUSH2 0x357 JUMP JUMPDEST POP SWAP1 JUMP JUMPDEST JUMPDEST DUP1 DUP3 GT ISZERO PUSH2 0x370 JUMPI PUSH1 0x0 DUP2 PUSH1 0x0 SWAP1 SSTORE POP PUSH1 0x1 ADD PUSH2 0x358 JUMP JUMPDEST POP SWAP1 JUMP JUMPDEST PUSH1 0x0 PUSH2 0x387 PUSH2 0x382 DUP5 PUSH2 0x589 JUMP JUMPDEST PUSH2 0x564 JUMP JUMPDEST SWAP1 POP DUP3 DUP2 MSTORE PUSH1 0x20 DUP2 ADD DUP5 DUP5 DUP5 ADD GT ISZERO PUSH2 0x3A3 JUMPI PUSH2 0x3A2 PUSH2 0x757 JUMP JUMPDEST JUMPDEST PUSH2 0x3AE DUP5 DUP3 DUP6 PUSH2 0x64F JUMP JUMPDEST POP SWAP4 SWAP3 POP POP POP JUMP JUMPDEST PUSH1 0x0 DUP3 PUSH1 0x1F DUP4 ADD SLT PUSH2 0x3CB JUMPI PUSH2 0x3CA PUSH2 0x752 JUMP JUMPDEST JUMPDEST DUP2 CALLDATALOAD PUSH2 0x3DB DUP5 DUP3 PUSH1 0x20 DUP7 ADD PUSH2 0x374 JUMP JUMPDEST SWAP2 POP POP SWAP3 SWAP2 POP POP JUMP JUMPDEST PUSH1 0x0 DUP1 PUSH1 0x40 DUP4 DUP6 SUB SLT ISZERO PUSH2 0x3FB JUMPI PUSH2 0x3FA PUSH2 0x761 JUMP JUMPDEST JUMPDEST PUSH1 0x0 DUP4 ADD CALLDATALOAD PUSH8 0xFFFFFFFFFFFFFFFF DUP2 GT ISZERO PUSH2 0x419 JUMPI PUSH2 0x418 PUSH2 0x75C JUMP JUMPDEST JUMPDEST PUSH2 0x425 DUP6 DUP3 DUP7 ADD PUSH2 0x3B6 JUMP JUMPDEST SWAP3 POP POP PUSH1 0x20 DUP4 ADD CALLDATALOAD PUSH8 0xFFFFFFFFFFFFFFFF DUP2 GT ISZERO PUSH2 0x446 JUMPI PUSH2 0x445 PUSH2 0x75C JUMP JUMPDEST JUMPDEST PUSH2 0x452 DUP6 DUP3 DUP7 ADD PUSH2 0x3B6 JUMP JUMPDEST SWAP2 POP POP SWAP3 POP SWAP3 SWAP1 POP JUMP JUMPDEST PUSH2 0x465 DUP2 PUSH2 0x5E7 JUMP JUMPDEST DUP3 MSTORE POP POP JUMP JUMPDEST PUSH1 0x0 PUSH2 0x477 DUP4 DUP6 PUSH2 0x5C5 JUMP JUMPDEST SWAP4 POP PUSH2 0x484 DUP4 DUP6 DUP5 PUSH2 0x64F JUMP JUMPDEST PUSH2 0x48D DUP4 PUSH2 0x766 JUMP JUMPDEST DUP5 ADD SWAP1 POP SWAP4 SWAP3 POP POP POP JUMP JUMPDEST PUSH2 0x4A1 DUP2 PUSH2 0x619 JUMP JUMPDEST DUP3 MSTORE POP POP JUMP JUMPDEST PUSH1 0x0 PUSH2 0x4B2 DUP3 PUSH2 0x5BA JUMP JUMPDEST PUSH2 0x4BC DUP2 DUP6 PUSH2 0x5D6 JUMP JUMPDEST SWAP4 POP PUSH2 0x4CC DUP2 DUP6 PUSH1 0x20 DUP7 ADD PUSH2 0x65E JUMP JUMPDEST PUSH2 0x4D5 DUP2 PUSH2 0x766 JUMP JUMPDEST DUP5 ADD SWAP2 POP POP SWAP3 SWAP2 POP POP JUMP JUMPDEST PUSH1 0x0 PUSH1 0x20 DUP3 ADD SWAP1 POP PUSH2 0x4F5 PUSH1 0x0 DUP4 ADD DUP5 PUSH2 0x498 JUMP JUMPDEST SWAP3 SWAP2 POP POP JUMP JUMPDEST PUSH1 0x0 PUSH1 0x20 DUP3 ADD SWAP1 POP DUP2 DUP2 SUB PUSH1 0x0 DUP4 ADD MSTORE PUSH2 0x515 DUP2 DUP5 PUSH2 0x4A7 JUMP JUMPDEST SWAP1 POP SWAP3 SWAP2 POP POP JUMP JUMPDEST PUSH1 0x0 PUSH1 0x60 DUP3 ADD SWAP1 POP DUP2 DUP2 SUB PUSH1 0x0 DUP4 ADD MSTORE PUSH2 0x537 DUP2 DUP8 PUSH2 0x4A7 JUMP JUMPDEST SWAP1 POP PUSH2 0x546 PUSH1 0x20 DUP4 ADD DUP7 PUSH2 0x45C JUMP JUMPDEST DUP2 DUP2 SUB PUSH1 0x40 DUP4 ADD MSTORE PUSH2 0x559 DUP2 DUP5 DUP7 PUSH2 0x46B JUMP JUMPDEST SWAP1 POP SWAP6 SWAP5 POP POP POP POP POP JUMP JUMPDEST PUSH1 0x0 PUSH2 0x56E PUSH2 0x57F JUMP JUMPDEST SWAP1 POP PUSH2 0x57A DUP3 DUP3 PUSH2 0x6C3 JUMP JUMPDEST SWAP2 SWAP1 POP JUMP JUMPDEST PUSH1 0x0 PUSH1 0x40 MLOAD SWAP1 POP SWAP1 JUMP JUMPDEST PUSH1 0x0 PUSH8 0xFFFFFFFFFFFFFFFF DUP3 GT ISZERO PUSH2 0x5A4 JUMPI PUSH2 0x5A3 PUSH2 0x723 JUMP JUMPDEST JUMPDEST PUSH2 0x5AD DUP3 PUSH2 0x766 JUMP JUMPDEST SWAP1 POP PUSH1 0x20 DUP2 ADD SWAP1 POP SWAP2 SWAP1 POP JUMP JUMPDEST PUSH1 0x0 DUP2 MLOAD SWAP1 POP SWAP2 SWAP1 POP JUMP JUMPDEST PUSH1 0x0 DUP3 DUP3 MSTORE PUSH1 0x20 DUP3 ADD SWAP1 POP SWAP3 SWAP2 POP POP JUMP JUMPDEST PUSH1 0x0 DUP3 DUP3 MSTORE PUSH1 0x20 DUP3 ADD SWAP1 POP SWAP3 SWAP2 POP POP JUMP JUMPDEST PUSH1 0x0 PUSH2 0x5F2 DUP3 PUSH2 0x5F9 JUMP JUMPDEST SWAP1 POP SWAP2 SWAP1 POP JUMP JUMPDEST PUSH1 0x0 PUSH20 0xFFFFFFFFFFFFFFFFFFFFFFFFFFFFFFFFFFFFFFFF DUP3 AND SWAP1 POP SWAP2 SWAP1 POP JUMP JUMPDEST PUSH1 0x0 PUSH2 0x624 DUP3 PUSH2 0x62B JUMP JUMPDEST SWAP1 POP SWAP2 SWAP1 POP JUMP JUMPDEST PUSH1 0x0 PUSH2 0x636 DUP3 PUSH2 0x63D JUMP JUMPDEST SWAP1 POP SWAP2 SWAP1 POP JUMP JUMPDEST PUSH1 0x0 PUSH2 0x648 DUP3 PUSH2 0x5F9 JUMP JUMPDEST SWAP1 POP SWAP2 SWAP1 POP JUMP JUMPDEST DUP3 DUP2 DUP4 CALLDATACOPY PUSH1 0x0 DUP4 DUP4 ADD MSTORE POP POP POP JUMP JUMPDEST PUSH1 0x0 JUMPDEST DUP4 DUP2 LT ISZERO PUSH2 0x67C JUMPI DUP1 DUP3 ADD MLOAD DUP2 DUP5 ADD MSTORE PUSH1 0x20 DUP2 ADD SWAP1 POP PUSH2 0x661 JUMP JUMPDEST DUP4 DUP2 GT ISZERO PUSH2 0x68B JUMPI PUSH1 0x0 DUP5 DUP5 ADD MSTORE JUMPDEST POP POP POP POP JUMP JUMPDEST PUSH1 0x0 PUSH1 0x2 DUP3 DIV SWAP1 POP PUSH1 0x1 DUP3 AND DUP1 PUSH2 0x6A9 JUMPI PUSH1 0x7F DUP3 AND SWAP2 POP JUMPDEST PUSH1 0x20 DUP3 LT DUP2 EQ ISZERO PUSH2 0x6BD JUMPI PUSH2 0x6BC PUSH2 0x6F4 JUMP JUMPDEST JUMPDEST POP SWAP2 SWAP1 POP JUMP JUMPDEST PUSH2 0x6CC DUP3 PUSH2 0x766 JUMP JUMPDEST DUP2 ADD DUP2 DUP2 LT PUSH8 0xFFFFFFFFFFFFFFFF DUP3 GT OR ISZERO PUSH2 0x6EB JUMPI PUSH2 0x6EA PUSH2 0x723 JUMP JUMPDEST JUMPDEST DUP1 PUSH1 0x40 MSTORE POP POP POP JUMP JUMPDEST PUSH32 0x4E487B7100000000000000000000000000000000000000000000000000000000 PUSH1 0x0 MSTORE PUSH1 0x22 PUSH1 0x4 MSTORE PUSH1 0x24 PUSH1 0x0 REVERT JUMPDEST PUSH32 0x4E487B7100000000000000000000000000000000000000000000000000000000 PUSH1 0x0 MSTORE PUSH1 0x41 PUSH1 0x4 MSTORE PUSH1 0x24 PUSH1 0x0 REVERT JUMPDEST PUSH1 0x0 DUP1 REVERT JUMPDEST PUSH1 0x0 DUP1 REVERT JUMPDEST PUSH1 0x0 DUP1 REVERT JUMPDEST PUSH1 0x0 DUP1 REVERT JUMPDEST PUSH1 0x0 PUSH1 0x1F NOT PUSH1 0x1F DUP4 ADD AND SWAP1 POP SWAP2 SWAP1 POP JUMP INVALID LOG2 PUSH5 0x6970667358 0x22 SLT KECCAK256 DUP8 PUSH20 0xAE2BCC89602F7A246D4F75572EDE61F32DA0AB0F 0x49 0xD1 PUSH22 0xC209D6867B2CA264736F6C6343000807003300000000 "
				},
				"gasEstimates": {
					"creation": {
						"codeDepositCost": "393000",
						"executionCost": "infinite",
						"totalCost": "infinite"
					},
					"external": {
						"CREDENTIAL_EVENT()": "2622",
						"list()": "infinite",
						"name()": "infinite",
						"postVibe(string,string)": "infinite"
					}
				},
				"methodIdentifiers": {
					"CREDENTIAL_EVENT()": "5f7690b3",
					"list()": "0f560cd7",
					"name()": "06fdde03",
					"postVibe(string,string)": "be58afb0"
				}
			},
			"storageLayout": {
				"storage": [
					{
						"astId": 31,
						"contract": "facets/GateableFacet.sol:GateableFacet",
						"label": "name",
						"offset": 0,
						"slot": "0",
						"type": "t_string_storage"
					},
					{
						"astId": 33,
						"contract": "facets/GateableFacet.sol:GateableFacet",
						"label": "list",
						"offset": 0,
						"slot": "1",
						"type": "t_string_storage"
					},
					{
						"astId": 35,
						"contract": "facets/GateableFacet.sol:GateableFacet",
						"label": "CREDENTIAL_ORACLE",
						"offset": 0,
						"slot": "2",
						"type": "t_address"
					},
					{
						"astId": 38,
						"contract": "facets/GateableFacet.sol:GateableFacet",
						"label": "CREDENTIAL_EVENT",
						"offset": 0,
						"slot": "3",
						"type": "t_contract(CredentialEventFacet)26"
					}
				],
				"types": {
					"t_address": {
						"encoding": "inplace",
						"label": "address",
						"numberOfBytes": "20"
					},
					"t_contract(CredentialEventFacet)26": {
						"encoding": "inplace",
						"label": "contract CredentialEventFacet",
						"numberOfBytes": "20"
					},
					"t_string_storage": {
						"encoding": "bytes",
						"label": "string",
						"numberOfBytes": "32"
					}
				}
			},
			"userdoc": {
				"kind": "user",
				"methods": {},
				"version": 1
			}
		}
	}
}