{
	"facets/CommunicationFacet.sol": {
		"CommunicationFacet": {
			"abi": [
				{
					"inputs": [
						{
							"internalType": "contract CredentialEventFacet",
							"name": "_credentialOracle",
							"type": "address"
						}
					],
					"stateMutability": "nonpayable",
					"type": "constructor"
				},
				{
					"anonymous": false,
					"inputs": [
						{
							"indexed": true,
							"internalType": "address",
							"name": "previousOwner",
							"type": "address"
						},
						{
							"indexed": true,
							"internalType": "address",
							"name": "newOwner",
							"type": "address"
						}
					],
					"name": "OwnershipTransferred",
					"type": "event"
				},
				{
					"inputs": [],
					"name": "CREDENTIAL_EVENT",
					"outputs": [
						{
							"internalType": "contract CredentialEventFacet",
							"name": "",
							"type": "address"
						}
					],
					"stateMutability": "view",
					"type": "function"
				},
				{
					"inputs": [],
					"name": "owner",
					"outputs": [
						{
							"internalType": "address",
							"name": "",
							"type": "address"
						}
					],
					"stateMutability": "view",
					"type": "function"
				},
				{
					"inputs": [
						{
							"internalType": "string",
							"name": "someParam",
							"type": "string"
						},
						{
							"internalType": "string",
							"name": "_listId",
							"type": "string"
						},
						{
							"internalType": "string",
							"name": "thirdparam",
							"type": "string"
						},
						{
							"internalType": "uint256",
							"name": "num",
							"type": "uint256"
						},
						{
							"internalType": "bytes32[]",
							"name": "_good",
							"type": "bytes32[]"
						}
					],
					"name": "postVibe",
					"outputs": [],
					"stateMutability": "nonpayable",
					"type": "function"
				},
				{
					"inputs": [
						{
							"internalType": "string",
							"name": "someParam",
							"type": "string"
						},
						{
							"internalType": "bytes[]",
							"name": "proof",
							"type": "bytes[]"
						}
					],
					"name": "postVibe_authorised",
					"outputs": [],
					"stateMutability": "nonpayable",
					"type": "function"
				},
				{
					"inputs": [
						{
							"internalType": "string",
							"name": "someParam",
							"type": "string"
						}
					],
					"name": "postVibe_unauthorised",
					"outputs": [],
					"stateMutability": "nonpayable",
					"type": "function"
				},
				{
					"inputs": [],
					"name": "renounceOwnership",
					"outputs": [],
					"stateMutability": "nonpayable",
					"type": "function"
				},
				{
					"inputs": [
						{
							"internalType": "address",
							"name": "newOwner",
							"type": "address"
						}
					],
					"name": "transferOwnership",
					"outputs": [],
					"stateMutability": "nonpayable",
					"type": "function"
				}
			],
			"devdoc": {
				"kind": "dev",
				"methods": {
					"owner()": {
						"details": "Returns the address of the current owner."
					},
					"renounceOwnership()": {
						"details": "Leaves the contract without owner. It will not be possible to call `onlyOwner` functions anymore. Can only be called by the current owner. NOTE: Renouncing ownership will leave the contract without an owner, thereby removing any functionality that is only available to the owner."
					},
					"transferOwnership(address)": {
						"details": "Transfers ownership of the contract to a new account (`newOwner`). Can only be called by the current owner."
					}
				},
				"version": 1
			},
			"evm": {
				"assembly": "    /* \"facets/CommunicationFacet.sol\":141:799  contract CommunicationFacet is Ownable, GateableFacet {... */\n  mstore(0x40, 0x80)\n    /* \"facets/CommunicationFacet.sol\":197:285  constructor(CredentialEventFacet _credentialOracle) GateableFacet(_credentialOracle) {... */\n  callvalue\n  dup1\n  iszero\n  tag_1\n  jumpi\n  0x00\n  dup1\n  revert\ntag_1:\n  pop\n  mload(0x40)\n  sub(codesize, bytecodeSize)\n  dup1\n  bytecodeSize\n  dup4\n  codecopy\n  dup2\n  dup2\n  add\n  0x40\n  mstore\n  dup2\n  add\n  swap1\n  tag_2\n  swap2\n  swap1\n  tag_3\n  jump\t// in\ntag_2:\n    /* \"facets/CommunicationFacet.sol\":263:280  _credentialOracle */\n  dup1\n    /* \"@openzeppelin/contracts/access/Ownable.sol\":921:953  _transferOwnership(_msgSender()) */\n  tag_8\n    /* \"@openzeppelin/contracts/access/Ownable.sol\":940:952  _msgSender() */\n  tag_9\n    /* \"@openzeppelin/contracts/access/Ownable.sol\":940:950  _msgSender */\n  shl(0x20, tag_10)\n    /* \"@openzeppelin/contracts/access/Ownable.sol\":940:952  _msgSender() */\n  0x20\n  shr\n  jump\t// in\ntag_9:\n    /* \"@openzeppelin/contracts/access/Ownable.sol\":921:939  _transferOwnership */\n  shl(0x20, tag_11)\n    /* \"@openzeppelin/contracts/access/Ownable.sol\":921:953  _transferOwnership(_msgSender()) */\n  0x20\n  shr\n  jump\t// in\ntag_8:\n    /* \"facets/GateableFacet.sol\":849:866  _credentialOracle */\n  dup1\n    /* \"facets/GateableFacet.sol\":821:838  CREDENTIAL_ORACLE */\n  0x01\n  0x00\n    /* \"facets/GateableFacet.sol\":821:867  CREDENTIAL_ORACLE = address(_credentialOracle) */\n  0x0100\n  exp\n  dup2\n  sload\n  dup2\n  0xffffffffffffffffffffffffffffffffffffffff\n  mul\n  not\n  and\n  swap1\n  dup4\n  0xffffffffffffffffffffffffffffffffffffffff\n  and\n  mul\n  or\n  swap1\n  sstore\n  pop\n    /* \"facets/GateableFacet.sol\":892:909  _credentialOracle */\n  dup1\n    /* \"facets/GateableFacet.sol\":873:889  CREDENTIAL_EVENT */\n  0x02\n  0x00\n    /* \"facets/GateableFacet.sol\":873:909  CREDENTIAL_EVENT = _credentialOracle */\n  0x0100\n  exp\n  dup2\n  sload\n  dup2\n  0xffffffffffffffffffffffffffffffffffffffff\n  mul\n  not\n  and\n  swap1\n  dup4\n  0xffffffffffffffffffffffffffffffffffffffff\n  and\n  mul\n  or\n  swap1\n  sstore\n  pop\n    /* \"facets/GateableFacet.sol\":763:912  constructor(CredentialEventFacet _credentialOracle) {... */\n  pop\n    /* \"facets/CommunicationFacet.sol\":197:285  constructor(CredentialEventFacet _credentialOracle) GateableFacet(_credentialOracle) {... */\n  pop\n    /* \"facets/CommunicationFacet.sol\":141:799  contract CommunicationFacet is Ownable, GateableFacet {... */\n  jump(tag_14)\n    /* \"@openzeppelin/contracts/utils/Context.sol\":640:736  function _msgSender() internal view virtual returns (address) {... */\ntag_10:\n    /* \"@openzeppelin/contracts/utils/Context.sol\":693:700  address */\n  0x00\n    /* \"@openzeppelin/contracts/utils/Context.sol\":719:729  msg.sender */\n  caller\n    /* \"@openzeppelin/contracts/utils/Context.sol\":712:729  return msg.sender */\n  swap1\n  pop\n    /* \"@openzeppelin/contracts/utils/Context.sol\":640:736  function _msgSender() internal view virtual returns (address) {... */\n  swap1\n  jump\t// out\n    /* \"@openzeppelin/contracts/access/Ownable.sol\":2270:2457  function _transferOwnership(address newOwner) internal virtual {... */\ntag_11:\n    /* \"@openzeppelin/contracts/access/Ownable.sol\":2343:2359  address oldOwner */\n  0x00\n    /* \"@openzeppelin/contracts/access/Ownable.sol\":2362:2368  _owner */\n  dup1\n  0x00\n  swap1\n  sload\n  swap1\n  0x0100\n  exp\n  swap1\n  div\n  0xffffffffffffffffffffffffffffffffffffffff\n  and\n    /* \"@openzeppelin/contracts/access/Ownable.sol\":2343:2368  address oldOwner = _owner */\n  swap1\n  pop\n    /* \"@openzeppelin/contracts/access/Ownable.sol\":2387:2395  newOwner */\n  dup2\n    /* \"@openzeppelin/contracts/access/Ownable.sol\":2378:2384  _owner */\n  0x00\n  dup1\n    /* \"@openzeppelin/contracts/access/Ownable.sol\":2378:2395  _owner = newOwner */\n  0x0100\n  exp\n  dup2\n  sload\n  dup2\n  0xffffffffffffffffffffffffffffffffffffffff\n  mul\n  not\n  and\n  swap1\n  dup4\n  0xffffffffffffffffffffffffffffffffffffffff\n  and\n  mul\n  or\n  swap1\n  sstore\n  pop\n    /* \"@openzeppelin/contracts/access/Ownable.sol\":2441:2449  newOwner */\n  dup2\n    /* \"@openzeppelin/contracts/access/Ownable.sol\":2410:2450  OwnershipTransferred(oldOwner, newOwner) */\n  0xffffffffffffffffffffffffffffffffffffffff\n  and\n    /* \"@openzeppelin/contracts/access/Ownable.sol\":2431:2439  oldOwner */\n  dup2\n    /* \"@openzeppelin/contracts/access/Ownable.sol\":2410:2450  OwnershipTransferred(oldOwner, newOwner) */\n  0xffffffffffffffffffffffffffffffffffffffff\n  and\n  0x8be0079c531659141344cd1fd0a4f28419497f9722a3daafe3b4186f6b6457e0\n  mload(0x40)\n  mload(0x40)\n  dup1\n  swap2\n  sub\n  swap1\n  log3\n    /* \"@openzeppelin/contracts/access/Ownable.sol\":2333:2457  {... */\n  pop\n    /* \"@openzeppelin/contracts/access/Ownable.sol\":2270:2457  function _transferOwnership(address newOwner) internal virtual {... */\n  pop\n  jump\t// out\n    /* \"#utility.yul\":7:206   */\ntag_18:\n    /* \"#utility.yul\":92:97   */\n  0x00\n    /* \"#utility.yul\":123:129   */\n  dup2\n    /* \"#utility.yul\":117:130   */\n  mload\n    /* \"#utility.yul\":108:130   */\n  swap1\n  pop\n    /* \"#utility.yul\":139:200   */\n  tag_20\n    /* \"#utility.yul\":194:199   */\n  dup2\n    /* \"#utility.yul\":139:200   */\n  tag_21\n  jump\t// in\ntag_20:\n    /* \"#utility.yul\":7:206   */\n  swap3\n  swap2\n  pop\n  pop\n  jump\t// out\n    /* \"#utility.yul\":212:619   */\ntag_3:\n    /* \"#utility.yul\":310:316   */\n  0x00\n    /* \"#utility.yul\":359:361   */\n  0x20\n    /* \"#utility.yul\":347:356   */\n  dup3\n    /* \"#utility.yul\":338:345   */\n  dup5\n    /* \"#utility.yul\":334:357   */\n  sub\n    /* \"#utility.yul\":330:362   */\n  slt\n    /* \"#utility.yul\":327:446   */\n  iszero\n  tag_23\n  jumpi\n    /* \"#utility.yul\":365:444   */\n  tag_24\n  tag_25\n  jump\t// in\ntag_24:\n    /* \"#utility.yul\":327:446   */\ntag_23:\n    /* \"#utility.yul\":485:486   */\n  0x00\n    /* \"#utility.yul\":510:602   */\n  tag_26\n    /* \"#utility.yul\":594:601   */\n  dup5\n    /* \"#utility.yul\":585:591   */\n  dup3\n    /* \"#utility.yul\":574:583   */\n  dup6\n    /* \"#utility.yul\":570:592   */\n  add\n    /* \"#utility.yul\":510:602   */\n  tag_18\n  jump\t// in\ntag_26:\n    /* \"#utility.yul\":500:602   */\n  swap2\n  pop\n    /* \"#utility.yul\":456:612   */\n  pop\n    /* \"#utility.yul\":212:619   */\n  swap3\n  swap2\n  pop\n  pop\n  jump\t// out\n    /* \"#utility.yul\":706:802   */\ntag_29:\n    /* \"#utility.yul\":743:750   */\n  0x00\n    /* \"#utility.yul\":772:796   */\n  tag_31\n    /* \"#utility.yul\":790:795   */\n  dup3\n    /* \"#utility.yul\":772:796   */\n  tag_32\n  jump\t// in\ntag_31:\n    /* \"#utility.yul\":761:796   */\n  swap1\n  pop\n    /* \"#utility.yul\":706:802   */\n  swap2\n  swap1\n  pop\n  jump\t// out\n    /* \"#utility.yul\":808:932   */\ntag_33:\n    /* \"#utility.yul\":873:880   */\n  0x00\n    /* \"#utility.yul\":902:926   */\n  tag_35\n    /* \"#utility.yul\":920:925   */\n  dup3\n    /* \"#utility.yul\":902:926   */\n  tag_29\n  jump\t// in\ntag_35:\n    /* \"#utility.yul\":891:926   */\n  swap1\n  pop\n    /* \"#utility.yul\":808:932   */\n  swap2\n  swap1\n  pop\n  jump\t// out\n    /* \"#utility.yul\":938:1064   */\ntag_32:\n    /* \"#utility.yul\":975:982   */\n  0x00\n    /* \"#utility.yul\":1015:1057   */\n  0xffffffffffffffffffffffffffffffffffffffff\n    /* \"#utility.yul\":1008:1013   */\n  dup3\n    /* \"#utility.yul\":1004:1058   */\n  and\n    /* \"#utility.yul\":993:1058   */\n  swap1\n  pop\n    /* \"#utility.yul\":938:1064   */\n  swap2\n  swap1\n  pop\n  jump\t// out\n    /* \"#utility.yul\":1193:1310   */\ntag_25:\n    /* \"#utility.yul\":1302:1303   */\n  0x00\n    /* \"#utility.yul\":1299:1300   */\n  dup1\n    /* \"#utility.yul\":1292:1304   */\n  revert\n    /* \"#utility.yul\":1316:1494   */\ntag_21:\n    /* \"#utility.yul\":1417:1469   */\n  tag_41\n    /* \"#utility.yul\":1463:1468   */\n  dup2\n    /* \"#utility.yul\":1417:1469   */\n  tag_33\n  jump\t// in\ntag_41:\n    /* \"#utility.yul\":1410:1415   */\n  dup2\n    /* \"#utility.yul\":1407:1470   */\n  eq\n    /* \"#utility.yul\":1397:1488   */\n  tag_42\n  jumpi\n    /* \"#utility.yul\":1484:1485   */\n  0x00\n    /* \"#utility.yul\":1481:1482   */\n  dup1\n    /* \"#utility.yul\":1474:1486   */\n  revert\n    /* \"#utility.yul\":1397:1488   */\ntag_42:\n    /* \"#utility.yul\":1316:1494   */\n  pop\n  jump\t// out\n    /* \"facets/CommunicationFacet.sol\":141:799  contract CommunicationFacet is Ownable, GateableFacet {... */\ntag_14:\n  dataSize(sub_0)\n  dup1\n  dataOffset(sub_0)\n  0x00\n  codecopy\n  0x00\n  return\nstop\n\nsub_0: assembly {\n        /* \"facets/CommunicationFacet.sol\":141:799  contract CommunicationFacet is Ownable, GateableFacet {... */\n      mstore(0x40, 0x80)\n      callvalue\n      dup1\n      iszero\n      tag_1\n      jumpi\n      0x00\n      dup1\n      revert\n    tag_1:\n      pop\n      jumpi(tag_2, lt(calldatasize, 0x04))\n      shr(0xe0, calldataload(0x00))\n      dup1\n      0x715018a6\n      gt\n      tag_10\n      jumpi\n      dup1\n      0x715018a6\n      eq\n      tag_6\n      jumpi\n      dup1\n      0x8da5cb5b\n      eq\n      tag_7\n      jumpi\n      dup1\n      0xdce8a955\n      eq\n      tag_8\n      jumpi\n      dup1\n      0xf2fde38b\n      eq\n      tag_9\n      jumpi\n      jump(tag_2)\n    tag_10:\n      dup1\n      0x169c4424\n      eq\n      tag_3\n      jumpi\n      dup1\n      0x436e99f3\n      eq\n      tag_4\n      jumpi\n      dup1\n      0x5f7690b3\n      eq\n      tag_5\n      jumpi\n    tag_2:\n      0x00\n      dup1\n      revert\n        /* \"facets/CommunicationFacet.sol\":370:541  function postVibe(string memory someParam, string memory _listId, string memory thirdparam, uint256 num, bytes32[] memory _good) has_credential(address(this)) external {... */\n    tag_3:\n      tag_11\n      0x04\n      dup1\n      calldatasize\n      sub\n      dup2\n      add\n      swap1\n      tag_12\n      swap2\n      swap1\n      tag_13\n      jump\t// in\n    tag_12:\n      tag_14\n      jump\t// in\n    tag_11:\n      stop\n        /* \"facets/CommunicationFacet.sol\":679:796  function postVibe_unauthorised(string memory someParam) credentialCallback external {... */\n    tag_4:\n      tag_15\n      0x04\n      dup1\n      calldatasize\n      sub\n      dup2\n      add\n      swap1\n      tag_16\n      swap2\n      swap1\n      tag_17\n      jump\t// in\n    tag_16:\n      tag_18\n      jump\t// in\n    tag_15:\n      stop\n        /* \"facets/GateableFacet.sol\":165:209  CredentialEventFacet public CREDENTIAL_EVENT */\n    tag_5:\n      tag_19\n      tag_20\n      jump\t// in\n    tag_19:\n      mload(0x40)\n      tag_21\n      swap2\n      swap1\n      tag_22\n      jump\t// in\n    tag_21:\n      mload(0x40)\n      dup1\n      swap2\n      sub\n      swap1\n      return\n        /* \"@openzeppelin/contracts/access/Ownable.sol\":1668:1769  function renounceOwnership() public virtual onlyOwner {... */\n    tag_6:\n      tag_23\n      tag_24\n      jump\t// in\n    tag_23:\n      stop\n        /* \"@openzeppelin/contracts/access/Ownable.sol\":1036:1121  function owner() public view virtual returns (address) {... */\n    tag_7:\n      tag_25\n      tag_26\n      jump\t// in\n    tag_25:\n      mload(0x40)\n      tag_27\n      swap2\n      swap1\n      tag_28\n      jump\t// in\n    tag_27:\n      mload(0x40)\n      dup1\n      swap2\n      sub\n      swap1\n      return\n        /* \"facets/CommunicationFacet.sol\":543:677  function postVibe_authorised(string memory someParam, bytes[] memory proof) credentialCallback external {... */\n    tag_8:\n      tag_29\n      0x04\n      dup1\n      calldatasize\n      sub\n      dup2\n      add\n      swap1\n      tag_30\n      swap2\n      swap1\n      tag_31\n      jump\t// in\n    tag_30:\n      tag_32\n      jump\t// in\n    tag_29:\n      stop\n        /* \"@openzeppelin/contracts/access/Ownable.sol\":1918:2116  function transferOwnership(address newOwner) public virtual onlyOwner {... */\n    tag_9:\n      tag_33\n      0x04\n      dup1\n      calldatasize\n      sub\n      dup2\n      add\n      swap1\n      tag_34\n      swap2\n      swap1\n      tag_35\n      jump\t// in\n    tag_34:\n      tag_36\n      jump\t// in\n    tag_33:\n      stop\n        /* \"facets/CommunicationFacet.sol\":370:541  function postVibe(string memory someParam, string memory _listId, string memory thirdparam, uint256 num, bytes32[] memory _good) has_credential(address(this)) external {... */\n    tag_14:\n        /* \"facets/CommunicationFacet.sol\":522:526  this */\n      address\n        /* \"facets/GateableFacet.sol\":378:394  CREDENTIAL_EVENT */\n      0x02\n      0x00\n      swap1\n      sload\n      swap1\n      0x0100\n      exp\n      swap1\n      div\n      0xffffffffffffffffffffffffffffffffffffffff\n      and\n        /* \"facets/GateableFacet.sol\":378:404  CREDENTIAL_EVENT.emitEvent */\n      0xffffffffffffffffffffffffffffffffffffffff\n      and\n      0x502d6671\n        /* \"facets/GateableFacet.sol\":405:415  msg.sender */\n      caller\n        /* \"facets/GateableFacet.sol\":417:430  _contractAddr */\n      dup4\n        /* \"facets/GateableFacet.sol\":432:440  msg.data */\n      0x00\n      calldatasize\n        /* \"facets/GateableFacet.sol\":378:441  CREDENTIAL_EVENT.emitEvent(msg.sender, _contractAddr, msg.data) */\n      mload(0x40)\n      dup6\n      0xffffffff\n      and\n      0xe0\n      shl\n      dup2\n      mstore\n      0x04\n      add\n      tag_38\n      swap5\n      swap4\n      swap3\n      swap2\n      swap1\n      tag_39\n      jump\t// in\n    tag_38:\n      0x00\n      mload(0x40)\n      dup1\n      dup4\n      sub\n      dup2\n      0x00\n      dup8\n      dup1\n      extcodesize\n      iszero\n      dup1\n      iszero\n      tag_40\n      jumpi\n      0x00\n      dup1\n      revert\n    tag_40:\n      pop\n      gas\n      call\n      iszero\n      dup1\n      iszero\n      tag_42\n      jumpi\n      returndatasize\n      0x00\n      dup1\n      returndatacopy\n      revert(0x00, returndatasize)\n    tag_42:\n      pop\n      pop\n      pop\n      pop\n        /* \"facets/CommunicationFacet.sol\":370:541  function postVibe(string memory someParam, string memory _listId, string memory thirdparam, uint256 num, bytes32[] memory _good) has_credential(address(this)) external {... */\n      pop\n      pop\n      pop\n      pop\n      pop\n      pop\n      jump\t// out\n        /* \"facets/CommunicationFacet.sol\":679:796  function postVibe_unauthorised(string memory someParam) credentialCallback external {... */\n    tag_18:\n        /* \"facets/GateableFacet.sol\":672:689  CREDENTIAL_ORACLE */\n      0x01\n      0x00\n      swap1\n      sload\n      swap1\n      0x0100\n      exp\n      swap1\n      div\n      0xffffffffffffffffffffffffffffffffffffffff\n      and\n        /* \"facets/GateableFacet.sol\":658:689  msg.sender == CREDENTIAL_ORACLE */\n      0xffffffffffffffffffffffffffffffffffffffff\n      and\n        /* \"facets/GateableFacet.sol\":658:668  msg.sender */\n      caller\n        /* \"facets/GateableFacet.sol\":658:689  msg.sender == CREDENTIAL_ORACLE */\n      0xffffffffffffffffffffffffffffffffffffffff\n      and\n      eq\n        /* \"facets/GateableFacet.sol\":650:753  require(msg.sender == CREDENTIAL_ORACLE, \"Credential CallBack: Only the oracle can call this function\") */\n      tag_45\n      jumpi\n      mload(0x40)\n      0x08c379a000000000000000000000000000000000000000000000000000000000\n      dup2\n      mstore\n      0x04\n      add\n      tag_46\n      swap1\n      tag_47\n      jump\t// in\n    tag_46:\n      mload(0x40)\n      dup1\n      swap2\n      sub\n      swap1\n      revert\n    tag_45:\n        /* \"facets/CommunicationFacet.sol\":679:796  function postVibe_unauthorised(string memory someParam) credentialCallback external {... */\n      pop\n      jump\t// out\n        /* \"facets/GateableFacet.sol\":165:209  CredentialEventFacet public CREDENTIAL_EVENT */\n    tag_20:\n      0x02\n      0x00\n      swap1\n      sload\n      swap1\n      0x0100\n      exp\n      swap1\n      div\n      0xffffffffffffffffffffffffffffffffffffffff\n      and\n      dup2\n      jump\t// out\n        /* \"@openzeppelin/contracts/access/Ownable.sol\":1668:1769  function renounceOwnership() public virtual onlyOwner {... */\n    tag_24:\n        /* \"@openzeppelin/contracts/access/Ownable.sol\":1259:1271  _msgSender() */\n      tag_50\n        /* \"@openzeppelin/contracts/access/Ownable.sol\":1259:1269  _msgSender */\n      tag_51\n        /* \"@openzeppelin/contracts/access/Ownable.sol\":1259:1271  _msgSender() */\n      jump\t// in\n    tag_50:\n        /* \"@openzeppelin/contracts/access/Ownable.sol\":1248:1271  owner() == _msgSender() */\n      0xffffffffffffffffffffffffffffffffffffffff\n      and\n        /* \"@openzeppelin/contracts/access/Ownable.sol\":1248:1255  owner() */\n      tag_52\n        /* \"@openzeppelin/contracts/access/Ownable.sol\":1248:1253  owner */\n      tag_26\n        /* \"@openzeppelin/contracts/access/Ownable.sol\":1248:1255  owner() */\n      jump\t// in\n    tag_52:\n        /* \"@openzeppelin/contracts/access/Ownable.sol\":1248:1271  owner() == _msgSender() */\n      0xffffffffffffffffffffffffffffffffffffffff\n      and\n      eq\n        /* \"@openzeppelin/contracts/access/Ownable.sol\":1240:1308  require(owner() == _msgSender(), \"Ownable: caller is not the owner\") */\n      tag_53\n      jumpi\n      mload(0x40)\n      0x08c379a000000000000000000000000000000000000000000000000000000000\n      dup2\n      mstore\n      0x04\n      add\n      tag_54\n      swap1\n      tag_55\n      jump\t// in\n    tag_54:\n      mload(0x40)\n      dup1\n      swap2\n      sub\n      swap1\n      revert\n    tag_53:\n        /* \"@openzeppelin/contracts/access/Ownable.sol\":1732:1762  _transferOwnership(address(0)) */\n      tag_57\n        /* \"@openzeppelin/contracts/access/Ownable.sol\":1759:1760  0 */\n      0x00\n        /* \"@openzeppelin/contracts/access/Ownable.sol\":1732:1750  _transferOwnership */\n      tag_58\n        /* \"@openzeppelin/contracts/access/Ownable.sol\":1732:1762  _transferOwnership(address(0)) */\n      jump\t// in\n    tag_57:\n        /* \"@openzeppelin/contracts/access/Ownable.sol\":1668:1769  function renounceOwnership() public virtual onlyOwner {... */\n      jump\t// out\n        /* \"@openzeppelin/contracts/access/Ownable.sol\":1036:1121  function owner() public view virtual returns (address) {... */\n    tag_26:\n        /* \"@openzeppelin/contracts/access/Ownable.sol\":1082:1089  address */\n      0x00\n        /* \"@openzeppelin/contracts/access/Ownable.sol\":1108:1114  _owner */\n      dup1\n      0x00\n      swap1\n      sload\n      swap1\n      0x0100\n      exp\n      swap1\n      div\n      0xffffffffffffffffffffffffffffffffffffffff\n      and\n        /* \"@openzeppelin/contracts/access/Ownable.sol\":1101:1114  return _owner */\n      swap1\n      pop\n        /* \"@openzeppelin/contracts/access/Ownable.sol\":1036:1121  function owner() public view virtual returns (address) {... */\n      swap1\n      jump\t// out\n        /* \"facets/CommunicationFacet.sol\":543:677  function postVibe_authorised(string memory someParam, bytes[] memory proof) credentialCallback external {... */\n    tag_32:\n        /* \"facets/GateableFacet.sol\":672:689  CREDENTIAL_ORACLE */\n      0x01\n      0x00\n      swap1\n      sload\n      swap1\n      0x0100\n      exp\n      swap1\n      div\n      0xffffffffffffffffffffffffffffffffffffffff\n      and\n        /* \"facets/GateableFacet.sol\":658:689  msg.sender == CREDENTIAL_ORACLE */\n      0xffffffffffffffffffffffffffffffffffffffff\n      and\n        /* \"facets/GateableFacet.sol\":658:668  msg.sender */\n      caller\n        /* \"facets/GateableFacet.sol\":658:689  msg.sender == CREDENTIAL_ORACLE */\n      0xffffffffffffffffffffffffffffffffffffffff\n      and\n      eq\n        /* \"facets/GateableFacet.sol\":650:753  require(msg.sender == CREDENTIAL_ORACLE, \"Credential CallBack: Only the oracle can call this function\") */\n      tag_61\n      jumpi\n      mload(0x40)\n      0x08c379a000000000000000000000000000000000000000000000000000000000\n      dup2\n      mstore\n      0x04\n      add\n      tag_62\n      swap1\n      tag_47\n      jump\t// in\n    tag_62:\n      mload(0x40)\n      dup1\n      swap2\n      sub\n      swap1\n      revert\n    tag_61:\n        /* \"facets/CommunicationFacet.sol\":543:677  function postVibe_authorised(string memory someParam, bytes[] memory proof) credentialCallback external {... */\n      pop\n      pop\n      jump\t// out\n        /* \"@openzeppelin/contracts/access/Ownable.sol\":1918:2116  function transferOwnership(address newOwner) public virtual onlyOwner {... */\n    tag_36:\n        /* \"@openzeppelin/contracts/access/Ownable.sol\":1259:1271  _msgSender() */\n      tag_65\n        /* \"@openzeppelin/contracts/access/Ownable.sol\":1259:1269  _msgSender */\n      tag_51\n        /* \"@openzeppelin/contracts/access/Ownable.sol\":1259:1271  _msgSender() */\n      jump\t// in\n    tag_65:\n        /* \"@openzeppelin/contracts/access/Ownable.sol\":1248:1271  owner() == _msgSender() */\n      0xffffffffffffffffffffffffffffffffffffffff\n      and\n        /* \"@openzeppelin/contracts/access/Ownable.sol\":1248:1255  owner() */\n      tag_66\n        /* \"@openzeppelin/contracts/access/Ownable.sol\":1248:1253  owner */\n      tag_26\n        /* \"@openzeppelin/contracts/access/Ownable.sol\":1248:1255  owner() */\n      jump\t// in\n    tag_66:\n        /* \"@openzeppelin/contracts/access/Ownable.sol\":1248:1271  owner() == _msgSender() */\n      0xffffffffffffffffffffffffffffffffffffffff\n      and\n      eq\n        /* \"@openzeppelin/contracts/access/Ownable.sol\":1240:1308  require(owner() == _msgSender(), \"Ownable: caller is not the owner\") */\n      tag_67\n      jumpi\n      mload(0x40)\n      0x08c379a000000000000000000000000000000000000000000000000000000000\n      dup2\n      mstore\n      0x04\n      add\n      tag_68\n      swap1\n      tag_55\n      jump\t// in\n    tag_68:\n      mload(0x40)\n      dup1\n      swap2\n      sub\n      swap1\n      revert\n    tag_67:\n        /* \"@openzeppelin/contracts/access/Ownable.sol\":2026:2027  0 */\n      0x00\n        /* \"@openzeppelin/contracts/access/Ownable.sol\":2006:2028  newOwner != address(0) */\n      0xffffffffffffffffffffffffffffffffffffffff\n      and\n        /* \"@openzeppelin/contracts/access/Ownable.sol\":2006:2014  newOwner */\n      dup2\n        /* \"@openzeppelin/contracts/access/Ownable.sol\":2006:2028  newOwner != address(0) */\n      0xffffffffffffffffffffffffffffffffffffffff\n      and\n      eq\n      iszero\n        /* \"@openzeppelin/contracts/access/Ownable.sol\":1998:2071  require(newOwner != address(0), \"Ownable: new owner is the zero address\") */\n      tag_70\n      jumpi\n      mload(0x40)\n      0x08c379a000000000000000000000000000000000000000000000000000000000\n      dup2\n      mstore\n      0x04\n      add\n      tag_71\n      swap1\n      tag_72\n      jump\t// in\n    tag_71:\n      mload(0x40)\n      dup1\n      swap2\n      sub\n      swap1\n      revert\n    tag_70:\n        /* \"@openzeppelin/contracts/access/Ownable.sol\":2081:2109  _transferOwnership(newOwner) */\n      tag_73\n        /* \"@openzeppelin/contracts/access/Ownable.sol\":2100:2108  newOwner */\n      dup2\n        /* \"@openzeppelin/contracts/access/Ownable.sol\":2081:2099  _transferOwnership */\n      tag_58\n        /* \"@openzeppelin/contracts/access/Ownable.sol\":2081:2109  _transferOwnership(newOwner) */\n      jump\t// in\n    tag_73:\n        /* \"@openzeppelin/contracts/access/Ownable.sol\":1918:2116  function transferOwnership(address newOwner) public virtual onlyOwner {... */\n      pop\n      jump\t// out\n        /* \"@openzeppelin/contracts/utils/Context.sol\":640:736  function _msgSender() internal view virtual returns (address) {... */\n    tag_51:\n        /* \"@openzeppelin/contracts/utils/Context.sol\":693:700  address */\n      0x00\n        /* \"@openzeppelin/contracts/utils/Context.sol\":719:729  msg.sender */\n      caller\n        /* \"@openzeppelin/contracts/utils/Context.sol\":712:729  return msg.sender */\n      swap1\n      pop\n        /* \"@openzeppelin/contracts/utils/Context.sol\":640:736  function _msgSender() internal view virtual returns (address) {... */\n      swap1\n      jump\t// out\n        /* \"@openzeppelin/contracts/access/Ownable.sol\":2270:2457  function _transferOwnership(address newOwner) internal virtual {... */\n    tag_58:\n        /* \"@openzeppelin/contracts/access/Ownable.sol\":2343:2359  address oldOwner */\n      0x00\n        /* \"@openzeppelin/contracts/access/Ownable.sol\":2362:2368  _owner */\n      dup1\n      0x00\n      swap1\n      sload\n      swap1\n      0x0100\n      exp\n      swap1\n      div\n      0xffffffffffffffffffffffffffffffffffffffff\n      and\n        /* \"@openzeppelin/contracts/access/Ownable.sol\":2343:2368  address oldOwner = _owner */\n      swap1\n      pop\n        /* \"@openzeppelin/contracts/access/Ownable.sol\":2387:2395  newOwner */\n      dup2\n        /* \"@openzeppelin/contracts/access/Ownable.sol\":2378:2384  _owner */\n      0x00\n      dup1\n        /* \"@openzeppelin/contracts/access/Ownable.sol\":2378:2395  _owner = newOwner */\n      0x0100\n      exp\n      dup2\n      sload\n      dup2\n      0xffffffffffffffffffffffffffffffffffffffff\n      mul\n      not\n      and\n      swap1\n      dup4\n      0xffffffffffffffffffffffffffffffffffffffff\n      and\n      mul\n      or\n      swap1\n      sstore\n      pop\n        /* \"@openzeppelin/contracts/access/Ownable.sol\":2441:2449  newOwner */\n      dup2\n        /* \"@openzeppelin/contracts/access/Ownable.sol\":2410:2450  OwnershipTransferred(oldOwner, newOwner) */\n      0xffffffffffffffffffffffffffffffffffffffff\n      and\n        /* \"@openzeppelin/contracts/access/Ownable.sol\":2431:2439  oldOwner */\n      dup2\n        /* \"@openzeppelin/contracts/access/Ownable.sol\":2410:2450  OwnershipTransferred(oldOwner, newOwner) */\n      0xffffffffffffffffffffffffffffffffffffffff\n      and\n      0x8be0079c531659141344cd1fd0a4f28419497f9722a3daafe3b4186f6b6457e0\n      mload(0x40)\n      mload(0x40)\n      dup1\n      swap2\n      sub\n      swap1\n      log3\n        /* \"@openzeppelin/contracts/access/Ownable.sol\":2333:2457  {... */\n      pop\n        /* \"@openzeppelin/contracts/access/Ownable.sol\":2270:2457  function _transferOwnership(address newOwner) internal virtual {... */\n      pop\n      jump\t// out\n        /* \"#utility.yul\":24:746   */\n    tag_77:\n        /* \"#utility.yul\":120:125   */\n      0x00\n        /* \"#utility.yul\":145:226   */\n      tag_79\n        /* \"#utility.yul\":161:225   */\n      tag_80\n        /* \"#utility.yul\":218:224   */\n      dup5\n        /* \"#utility.yul\":161:225   */\n      tag_81\n      jump\t// in\n    tag_80:\n        /* \"#utility.yul\":145:226   */\n      tag_82\n      jump\t// in\n    tag_79:\n        /* \"#utility.yul\":136:226   */\n      swap1\n      pop\n        /* \"#utility.yul\":246:251   */\n      dup1\n        /* \"#utility.yul\":275:281   */\n      dup4\n        /* \"#utility.yul\":268:273   */\n      dup3\n        /* \"#utility.yul\":261:282   */\n      mstore\n        /* \"#utility.yul\":309:313   */\n      0x20\n        /* \"#utility.yul\":302:307   */\n      dup3\n        /* \"#utility.yul\":298:314   */\n      add\n        /* \"#utility.yul\":291:314   */\n      swap1\n      pop\n        /* \"#utility.yul\":335:341   */\n      dup3\n        /* \"#utility.yul\":385:388   */\n      dup6\n        /* \"#utility.yul\":377:381   */\n      0x20\n        /* \"#utility.yul\":369:375   */\n      dup7\n        /* \"#utility.yul\":365:382   */\n      mul\n        /* \"#utility.yul\":360:363   */\n      dup3\n        /* \"#utility.yul\":356:383   */\n      add\n        /* \"#utility.yul\":353:389   */\n      gt\n        /* \"#utility.yul\":350:493   */\n      iszero\n      tag_83\n      jumpi\n        /* \"#utility.yul\":404:483   */\n      tag_84\n      tag_85\n      jump\t// in\n    tag_84:\n        /* \"#utility.yul\":350:493   */\n    tag_83:\n        /* \"#utility.yul\":517:518   */\n      0x00\n        /* \"#utility.yul\":502:740   */\n    tag_86:\n        /* \"#utility.yul\":527:533   */\n      dup6\n        /* \"#utility.yul\":524:525   */\n      dup2\n        /* \"#utility.yul\":521:534   */\n      lt\n        /* \"#utility.yul\":502:740   */\n      iszero\n      tag_88\n      jumpi\n        /* \"#utility.yul\":595:598   */\n      dup2\n        /* \"#utility.yul\":624:661   */\n      tag_89\n        /* \"#utility.yul\":657:660   */\n      dup9\n        /* \"#utility.yul\":645:655   */\n      dup3\n        /* \"#utility.yul\":624:661   */\n      tag_90\n      jump\t// in\n    tag_89:\n        /* \"#utility.yul\":619:622   */\n      dup5\n        /* \"#utility.yul\":612:662   */\n      mstore\n        /* \"#utility.yul\":691:695   */\n      0x20\n        /* \"#utility.yul\":686:689   */\n      dup5\n        /* \"#utility.yul\":682:696   */\n      add\n        /* \"#utility.yul\":675:696   */\n      swap4\n      pop\n        /* \"#utility.yul\":725:729   */\n      0x20\n        /* \"#utility.yul\":720:723   */\n      dup4\n        /* \"#utility.yul\":716:730   */\n      add\n        /* \"#utility.yul\":709:730   */\n      swap3\n      pop\n        /* \"#utility.yul\":562:740   */\n      pop\n        /* \"#utility.yul\":549:550   */\n      0x01\n        /* \"#utility.yul\":546:547   */\n      dup2\n        /* \"#utility.yul\":542:551   */\n      add\n        /* \"#utility.yul\":537:551   */\n      swap1\n      pop\n        /* \"#utility.yul\":502:740   */\n      jump(tag_86)\n    tag_88:\n        /* \"#utility.yul\":506:520   */\n      pop\n        /* \"#utility.yul\":126:746   */\n      pop\n      pop\n        /* \"#utility.yul\":24:746   */\n      swap4\n      swap3\n      pop\n      pop\n      pop\n      jump\t// out\n        /* \"#utility.yul\":767:1721   */\n    tag_91:\n        /* \"#utility.yul\":872:877   */\n      0x00\n        /* \"#utility.yul\":897:987   */\n      tag_93\n        /* \"#utility.yul\":913:986   */\n      tag_94\n        /* \"#utility.yul\":979:985   */\n      dup5\n        /* \"#utility.yul\":913:986   */\n      tag_95\n      jump\t// in\n    tag_94:\n        /* \"#utility.yul\":897:987   */\n      tag_82\n      jump\t// in\n    tag_93:\n        /* \"#utility.yul\":888:987   */\n      swap1\n      pop\n        /* \"#utility.yul\":1007:1012   */\n      dup1\n        /* \"#utility.yul\":1036:1042   */\n      dup4\n        /* \"#utility.yul\":1029:1034   */\n      dup3\n        /* \"#utility.yul\":1022:1043   */\n      mstore\n        /* \"#utility.yul\":1070:1074   */\n      0x20\n        /* \"#utility.yul\":1063:1068   */\n      dup3\n        /* \"#utility.yul\":1059:1075   */\n      add\n        /* \"#utility.yul\":1052:1075   */\n      swap1\n      pop\n        /* \"#utility.yul\":1096:1102   */\n      dup3\n        /* \"#utility.yul\":1146:1149   */\n      dup6\n        /* \"#utility.yul\":1138:1142   */\n      0x20\n        /* \"#utility.yul\":1130:1136   */\n      dup7\n        /* \"#utility.yul\":1126:1143   */\n      mul\n        /* \"#utility.yul\":1121:1124   */\n      dup3\n        /* \"#utility.yul\":1117:1144   */\n      add\n        /* \"#utility.yul\":1114:1150   */\n      gt\n        /* \"#utility.yul\":1111:1254   */\n      iszero\n      tag_96\n      jumpi\n        /* \"#utility.yul\":1165:1244   */\n      tag_97\n      tag_85\n      jump\t// in\n    tag_97:\n        /* \"#utility.yul\":1111:1254   */\n    tag_96:\n        /* \"#utility.yul\":1278:1279   */\n      0x00\n        /* \"#utility.yul\":1263:1715   */\n    tag_98:\n        /* \"#utility.yul\":1288:1294   */\n      dup6\n        /* \"#utility.yul\":1285:1286   */\n      dup2\n        /* \"#utility.yul\":1282:1295   */\n      lt\n        /* \"#utility.yul\":1263:1715   */\n      iszero\n      tag_100\n      jumpi\n        /* \"#utility.yul\":1370:1373   */\n      dup2\n        /* \"#utility.yul\":1357:1374   */\n      calldataload\n        /* \"#utility.yul\":1406:1424   */\n      0xffffffffffffffff\n        /* \"#utility.yul\":1393:1404   */\n      dup2\n        /* \"#utility.yul\":1390:1425   */\n      gt\n        /* \"#utility.yul\":1387:1509   */\n      iszero\n      tag_101\n      jumpi\n        /* \"#utility.yul\":1428:1507   */\n      tag_102\n      tag_103\n      jump\t// in\n    tag_102:\n        /* \"#utility.yul\":1387:1509   */\n    tag_101:\n        /* \"#utility.yul\":1552:1563   */\n      dup1\n        /* \"#utility.yul\":1544:1550   */\n      dup7\n        /* \"#utility.yul\":1540:1564   */\n      add\n        /* \"#utility.yul\":1590:1636   */\n      tag_104\n        /* \"#utility.yul\":1632:1635   */\n      dup10\n        /* \"#utility.yul\":1620:1630   */\n      dup3\n        /* \"#utility.yul\":1590:1636   */\n      tag_105\n      jump\t// in\n    tag_104:\n        /* \"#utility.yul\":1585:1588   */\n      dup6\n        /* \"#utility.yul\":1578:1637   */\n      mstore\n        /* \"#utility.yul\":1666:1670   */\n      0x20\n        /* \"#utility.yul\":1661:1664   */\n      dup6\n        /* \"#utility.yul\":1657:1671   */\n      add\n        /* \"#utility.yul\":1650:1671   */\n      swap5\n      pop\n        /* \"#utility.yul\":1700:1704   */\n      0x20\n        /* \"#utility.yul\":1695:1698   */\n      dup5\n        /* \"#utility.yul\":1691:1705   */\n      add\n        /* \"#utility.yul\":1684:1705   */\n      swap4\n      pop\n        /* \"#utility.yul\":1323:1715   */\n      pop\n      pop\n        /* \"#utility.yul\":1310:1311   */\n      0x01\n        /* \"#utility.yul\":1307:1308   */\n      dup2\n        /* \"#utility.yul\":1303:1312   */\n      add\n        /* \"#utility.yul\":1298:1312   */\n      swap1\n      pop\n        /* \"#utility.yul\":1263:1715   */\n      jump(tag_98)\n    tag_100:\n        /* \"#utility.yul\":1267:1281   */\n      pop\n        /* \"#utility.yul\":878:1721   */\n      pop\n      pop\n        /* \"#utility.yul\":767:1721   */\n      swap4\n      swap3\n      pop\n      pop\n      pop\n      jump\t// out\n        /* \"#utility.yul\":1727:2137   */\n    tag_106:\n        /* \"#utility.yul\":1804:1809   */\n      0x00\n        /* \"#utility.yul\":1829:1894   */\n      tag_108\n        /* \"#utility.yul\":1845:1893   */\n      tag_109\n        /* \"#utility.yul\":1886:1892   */\n      dup5\n        /* \"#utility.yul\":1845:1893   */\n      tag_110\n      jump\t// in\n    tag_109:\n        /* \"#utility.yul\":1829:1894   */\n      tag_82\n      jump\t// in\n    tag_108:\n        /* \"#utility.yul\":1820:1894   */\n      swap1\n      pop\n        /* \"#utility.yul\":1917:1923   */\n      dup3\n        /* \"#utility.yul\":1910:1915   */\n      dup2\n        /* \"#utility.yul\":1903:1924   */\n      mstore\n        /* \"#utility.yul\":1955:1959   */\n      0x20\n        /* \"#utility.yul\":1948:1953   */\n      dup2\n        /* \"#utility.yul\":1944:1960   */\n      add\n        /* \"#utility.yul\":1993:1996   */\n      dup5\n        /* \"#utility.yul\":1984:1990   */\n      dup5\n        /* \"#utility.yul\":1979:1982   */\n      dup5\n        /* \"#utility.yul\":1975:1991   */\n      add\n        /* \"#utility.yul\":1972:1997   */\n      gt\n        /* \"#utility.yul\":1969:2081   */\n      iszero\n      tag_111\n      jumpi\n        /* \"#utility.yul\":2000:2079   */\n      tag_112\n      tag_113\n      jump\t// in\n    tag_112:\n        /* \"#utility.yul\":1969:2081   */\n    tag_111:\n        /* \"#utility.yul\":2090:2131   */\n      tag_114\n        /* \"#utility.yul\":2124:2130   */\n      dup5\n        /* \"#utility.yul\":2119:2122   */\n      dup3\n        /* \"#utility.yul\":2114:2117   */\n      dup6\n        /* \"#utility.yul\":2090:2131   */\n      tag_115\n      jump\t// in\n    tag_114:\n        /* \"#utility.yul\":1810:2137   */\n      pop\n        /* \"#utility.yul\":1727:2137   */\n      swap4\n      swap3\n      pop\n      pop\n      pop\n      jump\t// out\n        /* \"#utility.yul\":2143:2555   */\n    tag_116:\n        /* \"#utility.yul\":2221:2226   */\n      0x00\n        /* \"#utility.yul\":2246:2312   */\n      tag_118\n        /* \"#utility.yul\":2262:2311   */\n      tag_119\n        /* \"#utility.yul\":2304:2310   */\n      dup5\n        /* \"#utility.yul\":2262:2311   */\n      tag_120\n      jump\t// in\n    tag_119:\n        /* \"#utility.yul\":2246:2312   */\n      tag_82\n      jump\t// in\n    tag_118:\n        /* \"#utility.yul\":2237:2312   */\n      swap1\n      pop\n        /* \"#utility.yul\":2335:2341   */\n      dup3\n        /* \"#utility.yul\":2328:2333   */\n      dup2\n        /* \"#utility.yul\":2321:2342   */\n      mstore\n        /* \"#utility.yul\":2373:2377   */\n      0x20\n        /* \"#utility.yul\":2366:2371   */\n      dup2\n        /* \"#utility.yul\":2362:2378   */\n      add\n        /* \"#utility.yul\":2411:2414   */\n      dup5\n        /* \"#utility.yul\":2402:2408   */\n      dup5\n        /* \"#utility.yul\":2397:2400   */\n      dup5\n        /* \"#utility.yul\":2393:2409   */\n      add\n        /* \"#utility.yul\":2390:2415   */\n      gt\n        /* \"#utility.yul\":2387:2499   */\n      iszero\n      tag_121\n      jumpi\n        /* \"#utility.yul\":2418:2497   */\n      tag_122\n      tag_113\n      jump\t// in\n    tag_122:\n        /* \"#utility.yul\":2387:2499   */\n    tag_121:\n        /* \"#utility.yul\":2508:2549   */\n      tag_123\n        /* \"#utility.yul\":2542:2548   */\n      dup5\n        /* \"#utility.yul\":2537:2540   */\n      dup3\n        /* \"#utility.yul\":2532:2535   */\n      dup6\n        /* \"#utility.yul\":2508:2549   */\n      tag_115\n      jump\t// in\n    tag_123:\n        /* \"#utility.yul\":2227:2555   */\n      pop\n        /* \"#utility.yul\":2143:2555   */\n      swap4\n      swap3\n      pop\n      pop\n      pop\n      jump\t// out\n        /* \"#utility.yul\":2561:2700   */\n    tag_124:\n        /* \"#utility.yul\":2607:2612   */\n      0x00\n        /* \"#utility.yul\":2645:2651   */\n      dup2\n        /* \"#utility.yul\":2632:2652   */\n      calldataload\n        /* \"#utility.yul\":2623:2652   */\n      swap1\n      pop\n        /* \"#utility.yul\":2661:2694   */\n      tag_126\n        /* \"#utility.yul\":2688:2693   */\n      dup2\n        /* \"#utility.yul\":2661:2694   */\n      tag_127\n      jump\t// in\n    tag_126:\n        /* \"#utility.yul\":2561:2700   */\n      swap3\n      swap2\n      pop\n      pop\n      jump\t// out\n        /* \"#utility.yul\":2723:3093   */\n    tag_128:\n        /* \"#utility.yul\":2794:2799   */\n      0x00\n        /* \"#utility.yul\":2843:2846   */\n      dup3\n        /* \"#utility.yul\":2836:2840   */\n      0x1f\n        /* \"#utility.yul\":2828:2834   */\n      dup4\n        /* \"#utility.yul\":2824:2841   */\n      add\n        /* \"#utility.yul\":2820:2847   */\n      slt\n        /* \"#utility.yul\":2810:2932   */\n      tag_130\n      jumpi\n        /* \"#utility.yul\":2851:2930   */\n      tag_131\n      tag_103\n      jump\t// in\n    tag_131:\n        /* \"#utility.yul\":2810:2932   */\n    tag_130:\n        /* \"#utility.yul\":2968:2974   */\n      dup2\n        /* \"#utility.yul\":2955:2975   */\n      calldataload\n        /* \"#utility.yul\":2993:3087   */\n      tag_132\n        /* \"#utility.yul\":3083:3086   */\n      dup5\n        /* \"#utility.yul\":3075:3081   */\n      dup3\n        /* \"#utility.yul\":3068:3072   */\n      0x20\n        /* \"#utility.yul\":3060:3066   */\n      dup7\n        /* \"#utility.yul\":3056:3073   */\n      add\n        /* \"#utility.yul\":2993:3087   */\n      tag_77\n      jump\t// in\n    tag_132:\n        /* \"#utility.yul\":2984:3087   */\n      swap2\n      pop\n        /* \"#utility.yul\":2800:3093   */\n      pop\n        /* \"#utility.yul\":2723:3093   */\n      swap3\n      swap2\n      pop\n      pop\n      jump\t// out\n        /* \"#utility.yul\":3114:3502   */\n    tag_133:\n        /* \"#utility.yul\":3194:3199   */\n      0x00\n        /* \"#utility.yul\":3243:3246   */\n      dup3\n        /* \"#utility.yul\":3236:3240   */\n      0x1f\n        /* \"#utility.yul\":3228:3234   */\n      dup4\n        /* \"#utility.yul\":3224:3241   */\n      add\n        /* \"#utility.yul\":3220:3247   */\n      slt\n        /* \"#utility.yul\":3210:3332   */\n      tag_135\n      jumpi\n        /* \"#utility.yul\":3251:3330   */\n      tag_136\n      tag_103\n      jump\t// in\n    tag_136:\n        /* \"#utility.yul\":3210:3332   */\n    tag_135:\n        /* \"#utility.yul\":3368:3374   */\n      dup2\n        /* \"#utility.yul\":3355:3375   */\n      calldataload\n        /* \"#utility.yul\":3393:3496   */\n      tag_137\n        /* \"#utility.yul\":3492:3495   */\n      dup5\n        /* \"#utility.yul\":3484:3490   */\n      dup3\n        /* \"#utility.yul\":3477:3481   */\n      0x20\n        /* \"#utility.yul\":3469:3475   */\n      dup7\n        /* \"#utility.yul\":3465:3482   */\n      add\n        /* \"#utility.yul\":3393:3496   */\n      tag_91\n      jump\t// in\n    tag_137:\n        /* \"#utility.yul\":3384:3496   */\n      swap2\n      pop\n        /* \"#utility.yul\":3200:3502   */\n      pop\n        /* \"#utility.yul\":3114:3502   */\n      swap3\n      swap2\n      pop\n      pop\n      jump\t// out\n        /* \"#utility.yul\":3508:3647   */\n    tag_90:\n        /* \"#utility.yul\":3554:3559   */\n      0x00\n        /* \"#utility.yul\":3592:3598   */\n      dup2\n        /* \"#utility.yul\":3579:3599   */\n      calldataload\n        /* \"#utility.yul\":3570:3599   */\n      swap1\n      pop\n        /* \"#utility.yul\":3608:3641   */\n      tag_139\n        /* \"#utility.yul\":3635:3640   */\n      dup2\n        /* \"#utility.yul\":3608:3641   */\n      tag_140\n      jump\t// in\n    tag_139:\n        /* \"#utility.yul\":3508:3647   */\n      swap3\n      swap2\n      pop\n      pop\n      jump\t// out\n        /* \"#utility.yul\":3666:4004   */\n    tag_105:\n        /* \"#utility.yul\":3721:3726   */\n      0x00\n        /* \"#utility.yul\":3770:3773   */\n      dup3\n        /* \"#utility.yul\":3763:3767   */\n      0x1f\n        /* \"#utility.yul\":3755:3761   */\n      dup4\n        /* \"#utility.yul\":3751:3768   */\n      add\n        /* \"#utility.yul\":3747:3774   */\n      slt\n        /* \"#utility.yul\":3737:3859   */\n      tag_142\n      jumpi\n        /* \"#utility.yul\":3778:3857   */\n      tag_143\n      tag_103\n      jump\t// in\n    tag_143:\n        /* \"#utility.yul\":3737:3859   */\n    tag_142:\n        /* \"#utility.yul\":3895:3901   */\n      dup2\n        /* \"#utility.yul\":3882:3902   */\n      calldataload\n        /* \"#utility.yul\":3920:3998   */\n      tag_144\n        /* \"#utility.yul\":3994:3997   */\n      dup5\n        /* \"#utility.yul\":3986:3992   */\n      dup3\n        /* \"#utility.yul\":3979:3983   */\n      0x20\n        /* \"#utility.yul\":3971:3977   */\n      dup7\n        /* \"#utility.yul\":3967:3984   */\n      add\n        /* \"#utility.yul\":3920:3998   */\n      tag_106\n      jump\t// in\n    tag_144:\n        /* \"#utility.yul\":3911:3998   */\n      swap2\n      pop\n        /* \"#utility.yul\":3727:4004   */\n      pop\n        /* \"#utility.yul\":3666:4004   */\n      swap3\n      swap2\n      pop\n      pop\n      jump\t// out\n        /* \"#utility.yul\":4024:4364   */\n    tag_145:\n        /* \"#utility.yul\":4080:4085   */\n      0x00\n        /* \"#utility.yul\":4129:4132   */\n      dup3\n        /* \"#utility.yul\":4122:4126   */\n      0x1f\n        /* \"#utility.yul\":4114:4120   */\n      dup4\n        /* \"#utility.yul\":4110:4127   */\n      add\n        /* \"#utility.yul\":4106:4133   */\n      slt\n        /* \"#utility.yul\":4096:4218   */\n      tag_147\n      jumpi\n        /* \"#utility.yul\":4137:4216   */\n      tag_148\n      tag_103\n      jump\t// in\n    tag_148:\n        /* \"#utility.yul\":4096:4218   */\n    tag_147:\n        /* \"#utility.yul\":4254:4260   */\n      dup2\n        /* \"#utility.yul\":4241:4261   */\n      calldataload\n        /* \"#utility.yul\":4279:4358   */\n      tag_149\n        /* \"#utility.yul\":4354:4357   */\n      dup5\n        /* \"#utility.yul\":4346:4352   */\n      dup3\n        /* \"#utility.yul\":4339:4343   */\n      0x20\n        /* \"#utility.yul\":4331:4337   */\n      dup7\n        /* \"#utility.yul\":4327:4344   */\n      add\n        /* \"#utility.yul\":4279:4358   */\n      tag_116\n      jump\t// in\n    tag_149:\n        /* \"#utility.yul\":4270:4358   */\n      swap2\n      pop\n        /* \"#utility.yul\":4086:4364   */\n      pop\n        /* \"#utility.yul\":4024:4364   */\n      swap3\n      swap2\n      pop\n      pop\n      jump\t// out\n        /* \"#utility.yul\":4370:4509   */\n    tag_150:\n        /* \"#utility.yul\":4416:4421   */\n      0x00\n        /* \"#utility.yul\":4454:4460   */\n      dup2\n        /* \"#utility.yul\":4441:4461   */\n      calldataload\n        /* \"#utility.yul\":4432:4461   */\n      swap1\n      pop\n        /* \"#utility.yul\":4470:4503   */\n      tag_152\n        /* \"#utility.yul\":4497:4502   */\n      dup2\n        /* \"#utility.yul\":4470:4503   */\n      tag_153\n      jump\t// in\n    tag_152:\n        /* \"#utility.yul\":4370:4509   */\n      swap3\n      swap2\n      pop\n      pop\n      jump\t// out\n        /* \"#utility.yul\":4515:4844   */\n    tag_35:\n        /* \"#utility.yul\":4574:4580   */\n      0x00\n        /* \"#utility.yul\":4623:4625   */\n      0x20\n        /* \"#utility.yul\":4611:4620   */\n      dup3\n        /* \"#utility.yul\":4602:4609   */\n      dup5\n        /* \"#utility.yul\":4598:4621   */\n      sub\n        /* \"#utility.yul\":4594:4626   */\n      slt\n        /* \"#utility.yul\":4591:4710   */\n      iszero\n      tag_155\n      jumpi\n        /* \"#utility.yul\":4629:4708   */\n      tag_156\n      tag_157\n      jump\t// in\n    tag_156:\n        /* \"#utility.yul\":4591:4710   */\n    tag_155:\n        /* \"#utility.yul\":4749:4750   */\n      0x00\n        /* \"#utility.yul\":4774:4827   */\n      tag_158\n        /* \"#utility.yul\":4819:4826   */\n      dup5\n        /* \"#utility.yul\":4810:4816   */\n      dup3\n        /* \"#utility.yul\":4799:4808   */\n      dup6\n        /* \"#utility.yul\":4795:4817   */\n      add\n        /* \"#utility.yul\":4774:4827   */\n      tag_124\n      jump\t// in\n    tag_158:\n        /* \"#utility.yul\":4764:4827   */\n      swap2\n      pop\n        /* \"#utility.yul\":4720:4837   */\n      pop\n        /* \"#utility.yul\":4515:4844   */\n      swap3\n      swap2\n      pop\n      pop\n      jump\t// out\n        /* \"#utility.yul\":4850:5359   */\n    tag_17:\n        /* \"#utility.yul\":4919:4925   */\n      0x00\n        /* \"#utility.yul\":4968:4970   */\n      0x20\n        /* \"#utility.yul\":4956:4965   */\n      dup3\n        /* \"#utility.yul\":4947:4954   */\n      dup5\n        /* \"#utility.yul\":4943:4966   */\n      sub\n        /* \"#utility.yul\":4939:4971   */\n      slt\n        /* \"#utility.yul\":4936:5055   */\n      iszero\n      tag_160\n      jumpi\n        /* \"#utility.yul\":4974:5053   */\n      tag_161\n      tag_157\n      jump\t// in\n    tag_161:\n        /* \"#utility.yul\":4936:5055   */\n    tag_160:\n        /* \"#utility.yul\":5122:5123   */\n      0x00\n        /* \"#utility.yul\":5111:5120   */\n      dup3\n        /* \"#utility.yul\":5107:5124   */\n      add\n        /* \"#utility.yul\":5094:5125   */\n      calldataload\n        /* \"#utility.yul\":5152:5170   */\n      0xffffffffffffffff\n        /* \"#utility.yul\":5144:5150   */\n      dup2\n        /* \"#utility.yul\":5141:5171   */\n      gt\n        /* \"#utility.yul\":5138:5255   */\n      iszero\n      tag_162\n      jumpi\n        /* \"#utility.yul\":5174:5253   */\n      tag_163\n      tag_164\n      jump\t// in\n    tag_163:\n        /* \"#utility.yul\":5138:5255   */\n    tag_162:\n        /* \"#utility.yul\":5279:5342   */\n      tag_165\n        /* \"#utility.yul\":5334:5341   */\n      dup5\n        /* \"#utility.yul\":5325:5331   */\n      dup3\n        /* \"#utility.yul\":5314:5323   */\n      dup6\n        /* \"#utility.yul\":5310:5332   */\n      add\n        /* \"#utility.yul\":5279:5342   */\n      tag_145\n      jump\t// in\n    tag_165:\n        /* \"#utility.yul\":5269:5342   */\n      swap2\n      pop\n        /* \"#utility.yul\":5065:5352   */\n      pop\n        /* \"#utility.yul\":4850:5359   */\n      swap3\n      swap2\n      pop\n      pop\n      jump\t// out\n        /* \"#utility.yul\":5365:6247   */\n    tag_31:\n        /* \"#utility.yul\":5477:5483   */\n      0x00\n        /* \"#utility.yul\":5485:5491   */\n      dup1\n        /* \"#utility.yul\":5534:5536   */\n      0x40\n        /* \"#utility.yul\":5522:5531   */\n      dup4\n        /* \"#utility.yul\":5513:5520   */\n      dup6\n        /* \"#utility.yul\":5509:5532   */\n      sub\n        /* \"#utility.yul\":5505:5537   */\n      slt\n        /* \"#utility.yul\":5502:5621   */\n      iszero\n      tag_167\n      jumpi\n        /* \"#utility.yul\":5540:5619   */\n      tag_168\n      tag_157\n      jump\t// in\n    tag_168:\n        /* \"#utility.yul\":5502:5621   */\n    tag_167:\n        /* \"#utility.yul\":5688:5689   */\n      0x00\n        /* \"#utility.yul\":5677:5686   */\n      dup4\n        /* \"#utility.yul\":5673:5690   */\n      add\n        /* \"#utility.yul\":5660:5691   */\n      calldataload\n        /* \"#utility.yul\":5718:5736   */\n      0xffffffffffffffff\n        /* \"#utility.yul\":5710:5716   */\n      dup2\n        /* \"#utility.yul\":5707:5737   */\n      gt\n        /* \"#utility.yul\":5704:5821   */\n      iszero\n      tag_169\n      jumpi\n        /* \"#utility.yul\":5740:5819   */\n      tag_170\n      tag_164\n      jump\t// in\n    tag_170:\n        /* \"#utility.yul\":5704:5821   */\n    tag_169:\n        /* \"#utility.yul\":5845:5908   */\n      tag_171\n        /* \"#utility.yul\":5900:5907   */\n      dup6\n        /* \"#utility.yul\":5891:5897   */\n      dup3\n        /* \"#utility.yul\":5880:5889   */\n      dup7\n        /* \"#utility.yul\":5876:5898   */\n      add\n        /* \"#utility.yul\":5845:5908   */\n      tag_145\n      jump\t// in\n    tag_171:\n        /* \"#utility.yul\":5835:5908   */\n      swap3\n      pop\n        /* \"#utility.yul\":5631:5918   */\n      pop\n        /* \"#utility.yul\":5985:5987   */\n      0x20\n        /* \"#utility.yul\":5974:5983   */\n      dup4\n        /* \"#utility.yul\":5970:5988   */\n      add\n        /* \"#utility.yul\":5957:5989   */\n      calldataload\n        /* \"#utility.yul\":6016:6034   */\n      0xffffffffffffffff\n        /* \"#utility.yul\":6008:6014   */\n      dup2\n        /* \"#utility.yul\":6005:6035   */\n      gt\n        /* \"#utility.yul\":6002:6119   */\n      iszero\n      tag_172\n      jumpi\n        /* \"#utility.yul\":6038:6117   */\n      tag_173\n      tag_164\n      jump\t// in\n    tag_173:\n        /* \"#utility.yul\":6002:6119   */\n    tag_172:\n        /* \"#utility.yul\":6143:6230   */\n      tag_174\n        /* \"#utility.yul\":6222:6229   */\n      dup6\n        /* \"#utility.yul\":6213:6219   */\n      dup3\n        /* \"#utility.yul\":6202:6211   */\n      dup7\n        /* \"#utility.yul\":6198:6220   */\n      add\n        /* \"#utility.yul\":6143:6230   */\n      tag_133\n      jump\t// in\n    tag_174:\n        /* \"#utility.yul\":6133:6230   */\n      swap2\n      pop\n        /* \"#utility.yul\":5928:6240   */\n      pop\n        /* \"#utility.yul\":5365:6247   */\n      swap3\n      pop\n      swap3\n      swap1\n      pop\n      jump\t// out\n        /* \"#utility.yul\":6253:7914   */\n    tag_13:\n        /* \"#utility.yul\":6403:6409   */\n      0x00\n        /* \"#utility.yul\":6411:6417   */\n      dup1\n        /* \"#utility.yul\":6419:6425   */\n      0x00\n        /* \"#utility.yul\":6427:6433   */\n      dup1\n        /* \"#utility.yul\":6435:6441   */\n      0x00\n        /* \"#utility.yul\":6484:6487   */\n      0xa0\n        /* \"#utility.yul\":6472:6481   */\n      dup7\n        /* \"#utility.yul\":6463:6470   */\n      dup9\n        /* \"#utility.yul\":6459:6482   */\n      sub\n        /* \"#utility.yul\":6455:6488   */\n      slt\n        /* \"#utility.yul\":6452:6572   */\n      iszero\n      tag_176\n      jumpi\n        /* \"#utility.yul\":6491:6570   */\n      tag_177\n      tag_157\n      jump\t// in\n    tag_177:\n        /* \"#utility.yul\":6452:6572   */\n    tag_176:\n        /* \"#utility.yul\":6639:6640   */\n      0x00\n        /* \"#utility.yul\":6628:6637   */\n      dup7\n        /* \"#utility.yul\":6624:6641   */\n      add\n        /* \"#utility.yul\":6611:6642   */\n      calldataload\n        /* \"#utility.yul\":6669:6687   */\n      0xffffffffffffffff\n        /* \"#utility.yul\":6661:6667   */\n      dup2\n        /* \"#utility.yul\":6658:6688   */\n      gt\n        /* \"#utility.yul\":6655:6772   */\n      iszero\n      tag_178\n      jumpi\n        /* \"#utility.yul\":6691:6770   */\n      tag_179\n      tag_164\n      jump\t// in\n    tag_179:\n        /* \"#utility.yul\":6655:6772   */\n    tag_178:\n        /* \"#utility.yul\":6796:6859   */\n      tag_180\n        /* \"#utility.yul\":6851:6858   */\n      dup9\n        /* \"#utility.yul\":6842:6848   */\n      dup3\n        /* \"#utility.yul\":6831:6840   */\n      dup10\n        /* \"#utility.yul\":6827:6849   */\n      add\n        /* \"#utility.yul\":6796:6859   */\n      tag_145\n      jump\t// in\n    tag_180:\n        /* \"#utility.yul\":6786:6859   */\n      swap6\n      pop\n        /* \"#utility.yul\":6582:6869   */\n      pop\n        /* \"#utility.yul\":6936:6938   */\n      0x20\n        /* \"#utility.yul\":6925:6934   */\n      dup7\n        /* \"#utility.yul\":6921:6939   */\n      add\n        /* \"#utility.yul\":6908:6940   */\n      calldataload\n        /* \"#utility.yul\":6967:6985   */\n      0xffffffffffffffff\n        /* \"#utility.yul\":6959:6965   */\n      dup2\n        /* \"#utility.yul\":6956:6986   */\n      gt\n        /* \"#utility.yul\":6953:7070   */\n      iszero\n      tag_181\n      jumpi\n        /* \"#utility.yul\":6989:7068   */\n      tag_182\n      tag_164\n      jump\t// in\n    tag_182:\n        /* \"#utility.yul\":6953:7070   */\n    tag_181:\n        /* \"#utility.yul\":7094:7157   */\n      tag_183\n        /* \"#utility.yul\":7149:7156   */\n      dup9\n        /* \"#utility.yul\":7140:7146   */\n      dup3\n        /* \"#utility.yul\":7129:7138   */\n      dup10\n        /* \"#utility.yul\":7125:7147   */\n      add\n        /* \"#utility.yul\":7094:7157   */\n      tag_145\n      jump\t// in\n    tag_183:\n        /* \"#utility.yul\":7084:7157   */\n      swap5\n      pop\n        /* \"#utility.yul\":6879:7167   */\n      pop\n        /* \"#utility.yul\":7234:7236   */\n      0x40\n        /* \"#utility.yul\":7223:7232   */\n      dup7\n        /* \"#utility.yul\":7219:7237   */\n      add\n        /* \"#utility.yul\":7206:7238   */\n      calldataload\n        /* \"#utility.yul\":7265:7283   */\n      0xffffffffffffffff\n        /* \"#utility.yul\":7257:7263   */\n      dup2\n        /* \"#utility.yul\":7254:7284   */\n      gt\n        /* \"#utility.yul\":7251:7368   */\n      iszero\n      tag_184\n      jumpi\n        /* \"#utility.yul\":7287:7366   */\n      tag_185\n      tag_164\n      jump\t// in\n    tag_185:\n        /* \"#utility.yul\":7251:7368   */\n    tag_184:\n        /* \"#utility.yul\":7392:7455   */\n      tag_186\n        /* \"#utility.yul\":7447:7454   */\n      dup9\n        /* \"#utility.yul\":7438:7444   */\n      dup3\n        /* \"#utility.yul\":7427:7436   */\n      dup10\n        /* \"#utility.yul\":7423:7445   */\n      add\n        /* \"#utility.yul\":7392:7455   */\n      tag_145\n      jump\t// in\n    tag_186:\n        /* \"#utility.yul\":7382:7455   */\n      swap4\n      pop\n        /* \"#utility.yul\":7177:7465   */\n      pop\n        /* \"#utility.yul\":7504:7506   */\n      0x60\n        /* \"#utility.yul\":7530:7583   */\n      tag_187\n        /* \"#utility.yul\":7575:7582   */\n      dup9\n        /* \"#utility.yul\":7566:7572   */\n      dup3\n        /* \"#utility.yul\":7555:7564   */\n      dup10\n        /* \"#utility.yul\":7551:7573   */\n      add\n        /* \"#utility.yul\":7530:7583   */\n      tag_150\n      jump\t// in\n    tag_187:\n        /* \"#utility.yul\":7520:7583   */\n      swap3\n      pop\n        /* \"#utility.yul\":7475:7593   */\n      pop\n        /* \"#utility.yul\":7660:7663   */\n      0x80\n        /* \"#utility.yul\":7649:7658   */\n      dup7\n        /* \"#utility.yul\":7645:7664   */\n      add\n        /* \"#utility.yul\":7632:7665   */\n      calldataload\n        /* \"#utility.yul\":7692:7710   */\n      0xffffffffffffffff\n        /* \"#utility.yul\":7684:7690   */\n      dup2\n        /* \"#utility.yul\":7681:7711   */\n      gt\n        /* \"#utility.yul\":7678:7795   */\n      iszero\n      tag_188\n      jumpi\n        /* \"#utility.yul\":7714:7793   */\n      tag_189\n      tag_164\n      jump\t// in\n    tag_189:\n        /* \"#utility.yul\":7678:7795   */\n    tag_188:\n        /* \"#utility.yul\":7819:7897   */\n      tag_190\n        /* \"#utility.yul\":7889:7896   */\n      dup9\n        /* \"#utility.yul\":7880:7886   */\n      dup3\n        /* \"#utility.yul\":7869:7878   */\n      dup10\n        /* \"#utility.yul\":7865:7887   */\n      add\n        /* \"#utility.yul\":7819:7897   */\n      tag_128\n      jump\t// in\n    tag_190:\n        /* \"#utility.yul\":7809:7897   */\n      swap2\n      pop\n        /* \"#utility.yul\":7603:7907   */\n      pop\n        /* \"#utility.yul\":6253:7914   */\n      swap3\n      swap6\n      pop\n      swap3\n      swap6\n      swap1\n      swap4\n      pop\n      jump\t// out\n        /* \"#utility.yul\":7920:8038   */\n    tag_191:\n        /* \"#utility.yul\":8007:8031   */\n      tag_193\n        /* \"#utility.yul\":8025:8030   */\n      dup2\n        /* \"#utility.yul\":8007:8031   */\n      tag_194\n      jump\t// in\n    tag_193:\n        /* \"#utility.yul\":8002:8005   */\n      dup3\n        /* \"#utility.yul\":7995:8032   */\n      mstore\n        /* \"#utility.yul\":7920:8038   */\n      pop\n      pop\n      jump\t// out\n        /* \"#utility.yul\":8066:8367   */\n    tag_195:\n        /* \"#utility.yul\":8162:8165   */\n      0x00\n        /* \"#utility.yul\":8183:8253   */\n      tag_197\n        /* \"#utility.yul\":8246:8252   */\n      dup4\n        /* \"#utility.yul\":8241:8244   */\n      dup6\n        /* \"#utility.yul\":8183:8253   */\n      tag_198\n      jump\t// in\n    tag_197:\n        /* \"#utility.yul\":8176:8253   */\n      swap4\n      pop\n        /* \"#utility.yul\":8263:8306   */\n      tag_199\n        /* \"#utility.yul\":8299:8305   */\n      dup4\n        /* \"#utility.yul\":8294:8297   */\n      dup6\n        /* \"#utility.yul\":8287:8292   */\n      dup5\n        /* \"#utility.yul\":8263:8306   */\n      tag_115\n      jump\t// in\n    tag_199:\n        /* \"#utility.yul\":8331:8360   */\n      tag_200\n        /* \"#utility.yul\":8353:8359   */\n      dup4\n        /* \"#utility.yul\":8331:8360   */\n      tag_201\n      jump\t// in\n    tag_200:\n        /* \"#utility.yul\":8326:8329   */\n      dup5\n        /* \"#utility.yul\":8322:8361   */\n      add\n        /* \"#utility.yul\":8315:8361   */\n      swap1\n      pop\n        /* \"#utility.yul\":8066:8367   */\n      swap4\n      swap3\n      pop\n      pop\n      pop\n      jump\t// out\n        /* \"#utility.yul\":8373:8560   */\n    tag_202:\n        /* \"#utility.yul\":8488:8553   */\n      tag_204\n        /* \"#utility.yul\":8547:8552   */\n      dup2\n        /* \"#utility.yul\":8488:8553   */\n      tag_205\n      jump\t// in\n    tag_204:\n        /* \"#utility.yul\":8483:8486   */\n      dup3\n        /* \"#utility.yul\":8476:8554   */\n      mstore\n        /* \"#utility.yul\":8373:8560   */\n      pop\n      pop\n      jump\t// out\n        /* \"#utility.yul\":8566:8932   */\n    tag_206:\n        /* \"#utility.yul\":8708:8711   */\n      0x00\n        /* \"#utility.yul\":8729:8796   */\n      tag_208\n        /* \"#utility.yul\":8793:8795   */\n      0x26\n        /* \"#utility.yul\":8788:8791   */\n      dup4\n        /* \"#utility.yul\":8729:8796   */\n      tag_209\n      jump\t// in\n    tag_208:\n        /* \"#utility.yul\":8722:8796   */\n      swap2\n      pop\n        /* \"#utility.yul\":8805:8898   */\n      tag_210\n        /* \"#utility.yul\":8894:8897   */\n      dup3\n        /* \"#utility.yul\":8805:8898   */\n      tag_211\n      jump\t// in\n    tag_210:\n        /* \"#utility.yul\":8923:8925   */\n      0x40\n        /* \"#utility.yul\":8918:8921   */\n      dup3\n        /* \"#utility.yul\":8914:8926   */\n      add\n        /* \"#utility.yul\":8907:8926   */\n      swap1\n      pop\n        /* \"#utility.yul\":8566:8932   */\n      swap2\n      swap1\n      pop\n      jump\t// out\n        /* \"#utility.yul\":8938:9304   */\n    tag_212:\n        /* \"#utility.yul\":9080:9083   */\n      0x00\n        /* \"#utility.yul\":9101:9168   */\n      tag_214\n        /* \"#utility.yul\":9165:9167   */\n      0x20\n        /* \"#utility.yul\":9160:9163   */\n      dup4\n        /* \"#utility.yul\":9101:9168   */\n      tag_209\n      jump\t// in\n    tag_214:\n        /* \"#utility.yul\":9094:9168   */\n      swap2\n      pop\n        /* \"#utility.yul\":9177:9270   */\n      tag_215\n        /* \"#utility.yul\":9266:9269   */\n      dup3\n        /* \"#utility.yul\":9177:9270   */\n      tag_216\n      jump\t// in\n    tag_215:\n        /* \"#utility.yul\":9295:9297   */\n      0x20\n        /* \"#utility.yul\":9290:9293   */\n      dup3\n        /* \"#utility.yul\":9286:9298   */\n      add\n        /* \"#utility.yul\":9279:9298   */\n      swap1\n      pop\n        /* \"#utility.yul\":8938:9304   */\n      swap2\n      swap1\n      pop\n      jump\t// out\n        /* \"#utility.yul\":9310:9676   */\n    tag_217:\n        /* \"#utility.yul\":9452:9455   */\n      0x00\n        /* \"#utility.yul\":9473:9540   */\n      tag_219\n        /* \"#utility.yul\":9537:9539   */\n      0x3b\n        /* \"#utility.yul\":9532:9535   */\n      dup4\n        /* \"#utility.yul\":9473:9540   */\n      tag_209\n      jump\t// in\n    tag_219:\n        /* \"#utility.yul\":9466:9540   */\n      swap2\n      pop\n        /* \"#utility.yul\":9549:9642   */\n      tag_220\n        /* \"#utility.yul\":9638:9641   */\n      dup3\n        /* \"#utility.yul\":9549:9642   */\n      tag_221\n      jump\t// in\n    tag_220:\n        /* \"#utility.yul\":9667:9669   */\n      0x40\n        /* \"#utility.yul\":9662:9665   */\n      dup3\n        /* \"#utility.yul\":9658:9670   */\n      add\n        /* \"#utility.yul\":9651:9670   */\n      swap1\n      pop\n        /* \"#utility.yul\":9310:9676   */\n      swap2\n      swap1\n      pop\n      jump\t// out\n        /* \"#utility.yul\":9682:9904   */\n    tag_28:\n        /* \"#utility.yul\":9775:9779   */\n      0x00\n        /* \"#utility.yul\":9813:9815   */\n      0x20\n        /* \"#utility.yul\":9802:9811   */\n      dup3\n        /* \"#utility.yul\":9798:9816   */\n      add\n        /* \"#utility.yul\":9790:9816   */\n      swap1\n      pop\n        /* \"#utility.yul\":9826:9897   */\n      tag_223\n        /* \"#utility.yul\":9894:9895   */\n      0x00\n        /* \"#utility.yul\":9883:9892   */\n      dup4\n        /* \"#utility.yul\":9879:9896   */\n      add\n        /* \"#utility.yul\":9870:9876   */\n      dup5\n        /* \"#utility.yul\":9826:9897   */\n      tag_191\n      jump\t// in\n    tag_223:\n        /* \"#utility.yul\":9682:9904   */\n      swap3\n      swap2\n      pop\n      pop\n      jump\t// out\n        /* \"#utility.yul\":9910:10459   */\n    tag_39:\n        /* \"#utility.yul\":10087:10091   */\n      0x00\n        /* \"#utility.yul\":10125:10127   */\n      0x60\n        /* \"#utility.yul\":10114:10123   */\n      dup3\n        /* \"#utility.yul\":10110:10128   */\n      add\n        /* \"#utility.yul\":10102:10128   */\n      swap1\n      pop\n        /* \"#utility.yul\":10138:10209   */\n      tag_225\n        /* \"#utility.yul\":10206:10207   */\n      0x00\n        /* \"#utility.yul\":10195:10204   */\n      dup4\n        /* \"#utility.yul\":10191:10208   */\n      add\n        /* \"#utility.yul\":10182:10188   */\n      dup8\n        /* \"#utility.yul\":10138:10209   */\n      tag_191\n      jump\t// in\n    tag_225:\n        /* \"#utility.yul\":10219:10291   */\n      tag_226\n        /* \"#utility.yul\":10287:10289   */\n      0x20\n        /* \"#utility.yul\":10276:10285   */\n      dup4\n        /* \"#utility.yul\":10272:10290   */\n      add\n        /* \"#utility.yul\":10263:10269   */\n      dup7\n        /* \"#utility.yul\":10219:10291   */\n      tag_191\n      jump\t// in\n    tag_226:\n        /* \"#utility.yul\":10338:10347   */\n      dup2\n        /* \"#utility.yul\":10332:10336   */\n      dup2\n        /* \"#utility.yul\":10328:10348   */\n      sub\n        /* \"#utility.yul\":10323:10325   */\n      0x40\n        /* \"#utility.yul\":10312:10321   */\n      dup4\n        /* \"#utility.yul\":10308:10326   */\n      add\n        /* \"#utility.yul\":10301:10349   */\n      mstore\n        /* \"#utility.yul\":10366:10452   */\n      tag_227\n        /* \"#utility.yul\":10447:10451   */\n      dup2\n        /* \"#utility.yul\":10438:10444   */\n      dup5\n        /* \"#utility.yul\":10430:10436   */\n      dup7\n        /* \"#utility.yul\":10366:10452   */\n      tag_195\n      jump\t// in\n    tag_227:\n        /* \"#utility.yul\":10358:10452   */\n      swap1\n      pop\n        /* \"#utility.yul\":9910:10459   */\n      swap6\n      swap5\n      pop\n      pop\n      pop\n      pop\n      pop\n      jump\t// out\n        /* \"#utility.yul\":10465:10743   */\n    tag_22:\n        /* \"#utility.yul\":10586:10590   */\n      0x00\n        /* \"#utility.yul\":10624:10626   */\n      0x20\n        /* \"#utility.yul\":10613:10622   */\n      dup3\n        /* \"#utility.yul\":10609:10627   */\n      add\n        /* \"#utility.yul\":10601:10627   */\n      swap1\n      pop\n        /* \"#utility.yul\":10637:10736   */\n      tag_229\n        /* \"#utility.yul\":10733:10734   */\n      0x00\n        /* \"#utility.yul\":10722:10731   */\n      dup4\n        /* \"#utility.yul\":10718:10735   */\n      add\n        /* \"#utility.yul\":10709:10715   */\n      dup5\n        /* \"#utility.yul\":10637:10736   */\n      tag_202\n      jump\t// in\n    tag_229:\n        /* \"#utility.yul\":10465:10743   */\n      swap3\n      swap2\n      pop\n      pop\n      jump\t// out\n        /* \"#utility.yul\":10749:11168   */\n    tag_72:\n        /* \"#utility.yul\":10915:10919   */\n      0x00\n        /* \"#utility.yul\":10953:10955   */\n      0x20\n        /* \"#utility.yul\":10942:10951   */\n      dup3\n        /* \"#utility.yul\":10938:10956   */\n      add\n        /* \"#utility.yul\":10930:10956   */\n      swap1\n      pop\n        /* \"#utility.yul\":11002:11011   */\n      dup2\n        /* \"#utility.yul\":10996:11000   */\n      dup2\n        /* \"#utility.yul\":10992:11012   */\n      sub\n        /* \"#utility.yul\":10988:10989   */\n      0x00\n        /* \"#utility.yul\":10977:10986   */\n      dup4\n        /* \"#utility.yul\":10973:10990   */\n      add\n        /* \"#utility.yul\":10966:11013   */\n      mstore\n        /* \"#utility.yul\":11030:11161   */\n      tag_231\n        /* \"#utility.yul\":11156:11160   */\n      dup2\n        /* \"#utility.yul\":11030:11161   */\n      tag_206\n      jump\t// in\n    tag_231:\n        /* \"#utility.yul\":11022:11161   */\n      swap1\n      pop\n        /* \"#utility.yul\":10749:11168   */\n      swap2\n      swap1\n      pop\n      jump\t// out\n        /* \"#utility.yul\":11174:11593   */\n    tag_55:\n        /* \"#utility.yul\":11340:11344   */\n      0x00\n        /* \"#utility.yul\":11378:11380   */\n      0x20\n        /* \"#utility.yul\":11367:11376   */\n      dup3\n        /* \"#utility.yul\":11363:11381   */\n      add\n        /* \"#utility.yul\":11355:11381   */\n      swap1\n      pop\n        /* \"#utility.yul\":11427:11436   */\n      dup2\n        /* \"#utility.yul\":11421:11425   */\n      dup2\n        /* \"#utility.yul\":11417:11437   */\n      sub\n        /* \"#utility.yul\":11413:11414   */\n      0x00\n        /* \"#utility.yul\":11402:11411   */\n      dup4\n        /* \"#utility.yul\":11398:11415   */\n      add\n        /* \"#utility.yul\":11391:11438   */\n      mstore\n        /* \"#utility.yul\":11455:11586   */\n      tag_233\n        /* \"#utility.yul\":11581:11585   */\n      dup2\n        /* \"#utility.yul\":11455:11586   */\n      tag_212\n      jump\t// in\n    tag_233:\n        /* \"#utility.yul\":11447:11586   */\n      swap1\n      pop\n        /* \"#utility.yul\":11174:11593   */\n      swap2\n      swap1\n      pop\n      jump\t// out\n        /* \"#utility.yul\":11599:12018   */\n    tag_47:\n        /* \"#utility.yul\":11765:11769   */\n      0x00\n        /* \"#utility.yul\":11803:11805   */\n      0x20\n        /* \"#utility.yul\":11792:11801   */\n      dup3\n        /* \"#utility.yul\":11788:11806   */\n      add\n        /* \"#utility.yul\":11780:11806   */\n      swap1\n      pop\n        /* \"#utility.yul\":11852:11861   */\n      dup2\n        /* \"#utility.yul\":11846:11850   */\n      dup2\n        /* \"#utility.yul\":11842:11862   */\n      sub\n        /* \"#utility.yul\":11838:11839   */\n      0x00\n        /* \"#utility.yul\":11827:11836   */\n      dup4\n        /* \"#utility.yul\":11823:11840   */\n      add\n        /* \"#utility.yul\":11816:11863   */\n      mstore\n        /* \"#utility.yul\":11880:12011   */\n      tag_235\n        /* \"#utility.yul\":12006:12010   */\n      dup2\n        /* \"#utility.yul\":11880:12011   */\n      tag_217\n      jump\t// in\n    tag_235:\n        /* \"#utility.yul\":11872:12011   */\n      swap1\n      pop\n        /* \"#utility.yul\":11599:12018   */\n      swap2\n      swap1\n      pop\n      jump\t// out\n        /* \"#utility.yul\":12024:12153   */\n    tag_82:\n        /* \"#utility.yul\":12058:12064   */\n      0x00\n        /* \"#utility.yul\":12085:12105   */\n      tag_237\n      tag_238\n      jump\t// in\n    tag_237:\n        /* \"#utility.yul\":12075:12105   */\n      swap1\n      pop\n        /* \"#utility.yul\":12114:12147   */\n      tag_239\n        /* \"#utility.yul\":12142:12146   */\n      dup3\n        /* \"#utility.yul\":12134:12140   */\n      dup3\n        /* \"#utility.yul\":12114:12147   */\n      tag_240\n      jump\t// in\n    tag_239:\n        /* \"#utility.yul\":12024:12153   */\n      swap2\n      swap1\n      pop\n      jump\t// out\n        /* \"#utility.yul\":12159:12234   */\n    tag_238:\n        /* \"#utility.yul\":12192:12198   */\n      0x00\n        /* \"#utility.yul\":12225:12227   */\n      0x40\n        /* \"#utility.yul\":12219:12228   */\n      mload\n        /* \"#utility.yul\":12209:12228   */\n      swap1\n      pop\n        /* \"#utility.yul\":12159:12234   */\n      swap1\n      jump\t// out\n        /* \"#utility.yul\":12240:12551   */\n    tag_81:\n        /* \"#utility.yul\":12317:12321   */\n      0x00\n        /* \"#utility.yul\":12407:12425   */\n      0xffffffffffffffff\n        /* \"#utility.yul\":12399:12405   */\n      dup3\n        /* \"#utility.yul\":12396:12426   */\n      gt\n        /* \"#utility.yul\":12393:12449   */\n      iszero\n      tag_243\n      jumpi\n        /* \"#utility.yul\":12429:12447   */\n      tag_244\n      tag_245\n      jump\t// in\n    tag_244:\n        /* \"#utility.yul\":12393:12449   */\n    tag_243:\n        /* \"#utility.yul\":12479:12483   */\n      0x20\n        /* \"#utility.yul\":12471:12477   */\n      dup3\n        /* \"#utility.yul\":12467:12484   */\n      mul\n        /* \"#utility.yul\":12459:12484   */\n      swap1\n      pop\n        /* \"#utility.yul\":12539:12543   */\n      0x20\n        /* \"#utility.yul\":12533:12537   */\n      dup2\n        /* \"#utility.yul\":12529:12544   */\n      add\n        /* \"#utility.yul\":12521:12544   */\n      swap1\n      pop\n        /* \"#utility.yul\":12240:12551   */\n      swap2\n      swap1\n      pop\n      jump\t// out\n        /* \"#utility.yul\":12557:12877   */\n    tag_95:\n        /* \"#utility.yul\":12643:12647   */\n      0x00\n        /* \"#utility.yul\":12733:12751   */\n      0xffffffffffffffff\n        /* \"#utility.yul\":12725:12731   */\n      dup3\n        /* \"#utility.yul\":12722:12752   */\n      gt\n        /* \"#utility.yul\":12719:12775   */\n      iszero\n      tag_247\n      jumpi\n        /* \"#utility.yul\":12755:12773   */\n      tag_248\n      tag_245\n      jump\t// in\n    tag_248:\n        /* \"#utility.yul\":12719:12775   */\n    tag_247:\n        /* \"#utility.yul\":12805:12809   */\n      0x20\n        /* \"#utility.yul\":12797:12803   */\n      dup3\n        /* \"#utility.yul\":12793:12810   */\n      mul\n        /* \"#utility.yul\":12785:12810   */\n      swap1\n      pop\n        /* \"#utility.yul\":12865:12869   */\n      0x20\n        /* \"#utility.yul\":12859:12863   */\n      dup2\n        /* \"#utility.yul\":12855:12870   */\n      add\n        /* \"#utility.yul\":12847:12870   */\n      swap1\n      pop\n        /* \"#utility.yul\":12557:12877   */\n      swap2\n      swap1\n      pop\n      jump\t// out\n        /* \"#utility.yul\":12883:13190   */\n    tag_110:\n        /* \"#utility.yul\":12944:12948   */\n      0x00\n        /* \"#utility.yul\":13034:13052   */\n      0xffffffffffffffff\n        /* \"#utility.yul\":13026:13032   */\n      dup3\n        /* \"#utility.yul\":13023:13053   */\n      gt\n        /* \"#utility.yul\":13020:13076   */\n      iszero\n      tag_250\n      jumpi\n        /* \"#utility.yul\":13056:13074   */\n      tag_251\n      tag_245\n      jump\t// in\n    tag_251:\n        /* \"#utility.yul\":13020:13076   */\n    tag_250:\n        /* \"#utility.yul\":13094:13123   */\n      tag_252\n        /* \"#utility.yul\":13116:13122   */\n      dup3\n        /* \"#utility.yul\":13094:13123   */\n      tag_201\n      jump\t// in\n    tag_252:\n        /* \"#utility.yul\":13086:13123   */\n      swap1\n      pop\n        /* \"#utility.yul\":13178:13182   */\n      0x20\n        /* \"#utility.yul\":13172:13176   */\n      dup2\n        /* \"#utility.yul\":13168:13183   */\n      add\n        /* \"#utility.yul\":13160:13183   */\n      swap1\n      pop\n        /* \"#utility.yul\":12883:13190   */\n      swap2\n      swap1\n      pop\n      jump\t// out\n        /* \"#utility.yul\":13196:13504   */\n    tag_120:\n        /* \"#utility.yul\":13258:13262   */\n      0x00\n        /* \"#utility.yul\":13348:13366   */\n      0xffffffffffffffff\n        /* \"#utility.yul\":13340:13346   */\n      dup3\n        /* \"#utility.yul\":13337:13367   */\n      gt\n        /* \"#utility.yul\":13334:13390   */\n      iszero\n      tag_254\n      jumpi\n        /* \"#utility.yul\":13370:13388   */\n      tag_255\n      tag_245\n      jump\t// in\n    tag_255:\n        /* \"#utility.yul\":13334:13390   */\n    tag_254:\n        /* \"#utility.yul\":13408:13437   */\n      tag_256\n        /* \"#utility.yul\":13430:13436   */\n      dup3\n        /* \"#utility.yul\":13408:13437   */\n      tag_201\n      jump\t// in\n    tag_256:\n        /* \"#utility.yul\":13400:13437   */\n      swap1\n      pop\n        /* \"#utility.yul\":13492:13496   */\n      0x20\n        /* \"#utility.yul\":13486:13490   */\n      dup2\n        /* \"#utility.yul\":13482:13497   */\n      add\n        /* \"#utility.yul\":13474:13497   */\n      swap1\n      pop\n        /* \"#utility.yul\":13196:13504   */\n      swap2\n      swap1\n      pop\n      jump\t// out\n        /* \"#utility.yul\":13510:13678   */\n    tag_198:\n        /* \"#utility.yul\":13593:13604   */\n      0x00\n        /* \"#utility.yul\":13627:13633   */\n      dup3\n        /* \"#utility.yul\":13622:13625   */\n      dup3\n        /* \"#utility.yul\":13615:13634   */\n      mstore\n        /* \"#utility.yul\":13667:13671   */\n      0x20\n        /* \"#utility.yul\":13662:13665   */\n      dup3\n        /* \"#utility.yul\":13658:13672   */\n      add\n        /* \"#utility.yul\":13643:13672   */\n      swap1\n      pop\n        /* \"#utility.yul\":13510:13678   */\n      swap3\n      swap2\n      pop\n      pop\n      jump\t// out\n        /* \"#utility.yul\":13684:13853   */\n    tag_209:\n        /* \"#utility.yul\":13768:13779   */\n      0x00\n        /* \"#utility.yul\":13802:13808   */\n      dup3\n        /* \"#utility.yul\":13797:13800   */\n      dup3\n        /* \"#utility.yul\":13790:13809   */\n      mstore\n        /* \"#utility.yul\":13842:13846   */\n      0x20\n        /* \"#utility.yul\":13837:13840   */\n      dup3\n        /* \"#utility.yul\":13833:13847   */\n      add\n        /* \"#utility.yul\":13818:13847   */\n      swap1\n      pop\n        /* \"#utility.yul\":13684:13853   */\n      swap3\n      swap2\n      pop\n      pop\n      jump\t// out\n        /* \"#utility.yul\":13859:13955   */\n    tag_194:\n        /* \"#utility.yul\":13896:13903   */\n      0x00\n        /* \"#utility.yul\":13925:13949   */\n      tag_260\n        /* \"#utility.yul\":13943:13948   */\n      dup3\n        /* \"#utility.yul\":13925:13949   */\n      tag_261\n      jump\t// in\n    tag_260:\n        /* \"#utility.yul\":13914:13949   */\n      swap1\n      pop\n        /* \"#utility.yul\":13859:13955   */\n      swap2\n      swap1\n      pop\n      jump\t// out\n        /* \"#utility.yul\":13961:14038   */\n    tag_262:\n        /* \"#utility.yul\":13998:14005   */\n      0x00\n        /* \"#utility.yul\":14027:14032   */\n      dup2\n        /* \"#utility.yul\":14016:14032   */\n      swap1\n      pop\n        /* \"#utility.yul\":13961:14038   */\n      swap2\n      swap1\n      pop\n      jump\t// out\n        /* \"#utility.yul\":14044:14170   */\n    tag_261:\n        /* \"#utility.yul\":14081:14088   */\n      0x00\n        /* \"#utility.yul\":14121:14163   */\n      0xffffffffffffffffffffffffffffffffffffffff\n        /* \"#utility.yul\":14114:14119   */\n      dup3\n        /* \"#utility.yul\":14110:14164   */\n      and\n        /* \"#utility.yul\":14099:14164   */\n      swap1\n      pop\n        /* \"#utility.yul\":14044:14170   */\n      swap2\n      swap1\n      pop\n      jump\t// out\n        /* \"#utility.yul\":14176:14253   */\n    tag_265:\n        /* \"#utility.yul\":14213:14220   */\n      0x00\n        /* \"#utility.yul\":14242:14247   */\n      dup2\n        /* \"#utility.yul\":14231:14247   */\n      swap1\n      pop\n        /* \"#utility.yul\":14176:14253   */\n      swap2\n      swap1\n      pop\n      jump\t// out\n        /* \"#utility.yul\":14259:14413   */\n    tag_205:\n        /* \"#utility.yul\":14337:14346   */\n      0x00\n        /* \"#utility.yul\":14370:14407   */\n      tag_268\n        /* \"#utility.yul\":14401:14406   */\n      dup3\n        /* \"#utility.yul\":14370:14407   */\n      tag_269\n      jump\t// in\n    tag_268:\n        /* \"#utility.yul\":14357:14407   */\n      swap1\n      pop\n        /* \"#utility.yul\":14259:14413   */\n      swap2\n      swap1\n      pop\n      jump\t// out\n        /* \"#utility.yul\":14419:14545   */\n    tag_269:\n        /* \"#utility.yul\":14469:14478   */\n      0x00\n        /* \"#utility.yul\":14502:14539   */\n      tag_271\n        /* \"#utility.yul\":14533:14538   */\n      dup3\n        /* \"#utility.yul\":14502:14539   */\n      tag_272\n      jump\t// in\n    tag_271:\n        /* \"#utility.yul\":14489:14539   */\n      swap1\n      pop\n        /* \"#utility.yul\":14419:14545   */\n      swap2\n      swap1\n      pop\n      jump\t// out\n        /* \"#utility.yul\":14551:14664   */\n    tag_272:\n        /* \"#utility.yul\":14601:14610   */\n      0x00\n        /* \"#utility.yul\":14634:14658   */\n      tag_274\n        /* \"#utility.yul\":14652:14657   */\n      dup3\n        /* \"#utility.yul\":14634:14658   */\n      tag_261\n      jump\t// in\n    tag_274:\n        /* \"#utility.yul\":14621:14658   */\n      swap1\n      pop\n        /* \"#utility.yul\":14551:14664   */\n      swap2\n      swap1\n      pop\n      jump\t// out\n        /* \"#utility.yul\":14670:14824   */\n    tag_115:\n        /* \"#utility.yul\":14754:14760   */\n      dup3\n        /* \"#utility.yul\":14749:14752   */\n      dup2\n        /* \"#utility.yul\":14744:14747   */\n      dup4\n        /* \"#utility.yul\":14731:14761   */\n      calldatacopy\n        /* \"#utility.yul\":14816:14817   */\n      0x00\n        /* \"#utility.yul\":14807:14813   */\n      dup4\n        /* \"#utility.yul\":14802:14805   */\n      dup4\n        /* \"#utility.yul\":14798:14814   */\n      add\n        /* \"#utility.yul\":14791:14818   */\n      mstore\n        /* \"#utility.yul\":14670:14824   */\n      pop\n      pop\n      pop\n      jump\t// out\n        /* \"#utility.yul\":14830:15111   */\n    tag_240:\n        /* \"#utility.yul\":14913:14940   */\n      tag_277\n        /* \"#utility.yul\":14935:14939   */\n      dup3\n        /* \"#utility.yul\":14913:14940   */\n      tag_201\n      jump\t// in\n    tag_277:\n        /* \"#utility.yul\":14905:14911   */\n      dup2\n        /* \"#utility.yul\":14901:14941   */\n      add\n        /* \"#utility.yul\":15043:15049   */\n      dup2\n        /* \"#utility.yul\":15031:15041   */\n      dup2\n        /* \"#utility.yul\":15028:15050   */\n      lt\n        /* \"#utility.yul\":15007:15025   */\n      0xffffffffffffffff\n        /* \"#utility.yul\":14995:15005   */\n      dup3\n        /* \"#utility.yul\":14992:15026   */\n      gt\n        /* \"#utility.yul\":14989:15051   */\n      or\n        /* \"#utility.yul\":14986:15074   */\n      iszero\n      tag_278\n      jumpi\n        /* \"#utility.yul\":15054:15072   */\n      tag_279\n      tag_245\n      jump\t// in\n    tag_279:\n        /* \"#utility.yul\":14986:15074   */\n    tag_278:\n        /* \"#utility.yul\":15094:15104   */\n      dup1\n        /* \"#utility.yul\":15090:15092   */\n      0x40\n        /* \"#utility.yul\":15083:15105   */\n      mstore\n        /* \"#utility.yul\":14873:15111   */\n      pop\n        /* \"#utility.yul\":14830:15111   */\n      pop\n      pop\n      jump\t// out\n        /* \"#utility.yul\":15117:15297   */\n    tag_245:\n        /* \"#utility.yul\":15165:15242   */\n      0x4e487b7100000000000000000000000000000000000000000000000000000000\n        /* \"#utility.yul\":15162:15163   */\n      0x00\n        /* \"#utility.yul\":15155:15243   */\n      mstore\n        /* \"#utility.yul\":15262:15266   */\n      0x41\n        /* \"#utility.yul\":15259:15260   */\n      0x04\n        /* \"#utility.yul\":15252:15267   */\n      mstore\n        /* \"#utility.yul\":15286:15290   */\n      0x24\n        /* \"#utility.yul\":15283:15284   */\n      0x00\n        /* \"#utility.yul\":15276:15291   */\n      revert\n        /* \"#utility.yul\":15303:15420   */\n    tag_103:\n        /* \"#utility.yul\":15412:15413   */\n      0x00\n        /* \"#utility.yul\":15409:15410   */\n      dup1\n        /* \"#utility.yul\":15402:15414   */\n      revert\n        /* \"#utility.yul\":15426:15543   */\n    tag_85:\n        /* \"#utility.yul\":15535:15536   */\n      0x00\n        /* \"#utility.yul\":15532:15533   */\n      dup1\n        /* \"#utility.yul\":15525:15537   */\n      revert\n        /* \"#utility.yul\":15549:15666   */\n    tag_113:\n        /* \"#utility.yul\":15658:15659   */\n      0x00\n        /* \"#utility.yul\":15655:15656   */\n      dup1\n        /* \"#utility.yul\":15648:15660   */\n      revert\n        /* \"#utility.yul\":15672:15789   */\n    tag_164:\n        /* \"#utility.yul\":15781:15782   */\n      0x00\n        /* \"#utility.yul\":15778:15779   */\n      dup1\n        /* \"#utility.yul\":15771:15783   */\n      revert\n        /* \"#utility.yul\":15795:15912   */\n    tag_157:\n        /* \"#utility.yul\":15904:15905   */\n      0x00\n        /* \"#utility.yul\":15901:15902   */\n      dup1\n        /* \"#utility.yul\":15894:15906   */\n      revert\n        /* \"#utility.yul\":15918:16020   */\n    tag_201:\n        /* \"#utility.yul\":15959:15965   */\n      0x00\n        /* \"#utility.yul\":16010:16012   */\n      0x1f\n        /* \"#utility.yul\":16006:16013   */\n      not\n        /* \"#utility.yul\":16001:16003   */\n      0x1f\n        /* \"#utility.yul\":15994:15999   */\n      dup4\n        /* \"#utility.yul\":15990:16004   */\n      add\n        /* \"#utility.yul\":15986:16014   */\n      and\n        /* \"#utility.yul\":15976:16014   */\n      swap1\n      pop\n        /* \"#utility.yul\":15918:16020   */\n      swap2\n      swap1\n      pop\n      jump\t// out\n        /* \"#utility.yul\":16026:16251   */\n    tag_211:\n        /* \"#utility.yul\":16166:16200   */\n      0x4f776e61626c653a206e6577206f776e657220697320746865207a65726f2061\n        /* \"#utility.yul\":16162:16163   */\n      0x00\n        /* \"#utility.yul\":16154:16160   */\n      dup3\n        /* \"#utility.yul\":16150:16164   */\n      add\n        /* \"#utility.yul\":16143:16201   */\n      mstore\n        /* \"#utility.yul\":16235:16243   */\n      0x6464726573730000000000000000000000000000000000000000000000000000\n        /* \"#utility.yul\":16230:16232   */\n      0x20\n        /* \"#utility.yul\":16222:16228   */\n      dup3\n        /* \"#utility.yul\":16218:16233   */\n      add\n        /* \"#utility.yul\":16211:16244   */\n      mstore\n        /* \"#utility.yul\":16026:16251   */\n      pop\n      jump\t// out\n        /* \"#utility.yul\":16257:16439   */\n    tag_216:\n        /* \"#utility.yul\":16397:16431   */\n      0x4f776e61626c653a2063616c6c6572206973206e6f7420746865206f776e6572\n        /* \"#utility.yul\":16393:16394   */\n      0x00\n        /* \"#utility.yul\":16385:16391   */\n      dup3\n        /* \"#utility.yul\":16381:16395   */\n      add\n        /* \"#utility.yul\":16374:16432   */\n      mstore\n        /* \"#utility.yul\":16257:16439   */\n      pop\n      jump\t// out\n        /* \"#utility.yul\":16445:16691   */\n    tag_221:\n        /* \"#utility.yul\":16585:16619   */\n      0x43726564656e7469616c2043616c6c4261636b3a204f6e6c7920746865206f72\n        /* \"#utility.yul\":16581:16582   */\n      0x00\n        /* \"#utility.yul\":16573:16579   */\n      dup3\n        /* \"#utility.yul\":16569:16583   */\n      add\n        /* \"#utility.yul\":16562:16620   */\n      mstore\n        /* \"#utility.yul\":16654:16683   */\n      0x61636c652063616e2063616c6c20746869732066756e6374696f6e0000000000\n        /* \"#utility.yul\":16649:16651   */\n      0x20\n        /* \"#utility.yul\":16641:16647   */\n      dup3\n        /* \"#utility.yul\":16637:16652   */\n      add\n        /* \"#utility.yul\":16630:16684   */\n      mstore\n        /* \"#utility.yul\":16445:16691   */\n      pop\n      jump\t// out\n        /* \"#utility.yul\":16697:16819   */\n    tag_127:\n        /* \"#utility.yul\":16770:16794   */\n      tag_291\n        /* \"#utility.yul\":16788:16793   */\n      dup2\n        /* \"#utility.yul\":16770:16794   */\n      tag_194\n      jump\t// in\n    tag_291:\n        /* \"#utility.yul\":16763:16768   */\n      dup2\n        /* \"#utility.yul\":16760:16795   */\n      eq\n        /* \"#utility.yul\":16750:16813   */\n      tag_292\n      jumpi\n        /* \"#utility.yul\":16809:16810   */\n      0x00\n        /* \"#utility.yul\":16806:16807   */\n      dup1\n        /* \"#utility.yul\":16799:16811   */\n      revert\n        /* \"#utility.yul\":16750:16813   */\n    tag_292:\n        /* \"#utility.yul\":16697:16819   */\n      pop\n      jump\t// out\n        /* \"#utility.yul\":16825:16947   */\n    tag_140:\n        /* \"#utility.yul\":16898:16922   */\n      tag_294\n        /* \"#utility.yul\":16916:16921   */\n      dup2\n        /* \"#utility.yul\":16898:16922   */\n      tag_262\n      jump\t// in\n    tag_294:\n        /* \"#utility.yul\":16891:16896   */\n      dup2\n        /* \"#utility.yul\":16888:16923   */\n      eq\n        /* \"#utility.yul\":16878:16941   */\n      tag_295\n      jumpi\n        /* \"#utility.yul\":16937:16938   */\n      0x00\n        /* \"#utility.yul\":16934:16935   */\n      dup1\n        /* \"#utility.yul\":16927:16939   */\n      revert\n        /* \"#utility.yul\":16878:16941   */\n    tag_295:\n        /* \"#utility.yul\":16825:16947   */\n      pop\n      jump\t// out\n        /* \"#utility.yul\":16953:17075   */\n    tag_153:\n        /* \"#utility.yul\":17026:17050   */\n      tag_297\n        /* \"#utility.yul\":17044:17049   */\n      dup2\n        /* \"#utility.yul\":17026:17050   */\n      tag_265\n      jump\t// in\n    tag_297:\n        /* \"#utility.yul\":17019:17024   */\n      dup2\n        /* \"#utility.yul\":17016:17051   */\n      eq\n        /* \"#utility.yul\":17006:17069   */\n      tag_298\n      jumpi\n        /* \"#utility.yul\":17065:17066   */\n      0x00\n        /* \"#utility.yul\":17062:17063   */\n      dup1\n        /* \"#utility.yul\":17055:17067   */\n      revert\n        /* \"#utility.yul\":17006:17069   */\n    tag_298:\n        /* \"#utility.yul\":16953:17075   */\n      pop\n      jump\t// out\n\n    auxdata: 0xa264697066735822122092af595962fd0ce734a072baf45e579c3327c9c9729e8f6c7773efe66272b35564736f6c63430008070033\n}\n",
				"bytecode": {
					"linkReferences": {},
					"object": "60806040523480156200001157600080fd5b5060405162001139380380620011398339818101604052810190620000379190620001c5565b80620000586200004c620000e260201b60201c565b620000ea60201b60201c565b80600160006101000a81548173ffffffffffffffffffffffffffffffffffffffff021916908373ffffffffffffffffffffffffffffffffffffffff16021790555080600260006101000a81548173ffffffffffffffffffffffffffffffffffffffff021916908373ffffffffffffffffffffffffffffffffffffffff16021790555050506200025e565b600033905090565b60008060009054906101000a900473ffffffffffffffffffffffffffffffffffffffff169050816000806101000a81548173ffffffffffffffffffffffffffffffffffffffff021916908373ffffffffffffffffffffffffffffffffffffffff1602179055508173ffffffffffffffffffffffffffffffffffffffff168173ffffffffffffffffffffffffffffffffffffffff167f8be0079c531659141344cd1fd0a4f28419497f9722a3daafe3b4186f6b6457e060405160405180910390a35050565b600081519050620001bf8162000244565b92915050565b600060208284031215620001de57620001dd6200023f565b5b6000620001ee84828501620001ae565b91505092915050565b600062000204826200021f565b9050919050565b60006200021882620001f7565b9050919050565b600073ffffffffffffffffffffffffffffffffffffffff82169050919050565b600080fd5b6200024f816200020b565b81146200025b57600080fd5b50565b610ecb806200026e6000396000f3fe608060405234801561001057600080fd5b506004361061007d5760003560e01c8063715018a61161005b578063715018a6146100d85780638da5cb5b146100e2578063dce8a95514610100578063f2fde38b1461011c5761007d565b8063169c442414610082578063436e99f31461009e5780635f7690b3146100ba575b600080fd5b61009c600480360381019061009791906108fe565b610138565b005b6100b860048036038101906100b3919061083d565b6101d5565b005b6100c2610268565b6040516100cf9190610af8565b60405180910390f35b6100e061028e565b005b6100ea610316565b6040516100f79190610a9d565b60405180910390f35b61011a60048036038101906101159190610886565b61033f565b005b61013660048036038101906101319190610810565b6103d3565b005b30600260009054906101000a900473ffffffffffffffffffffffffffffffffffffffff1673ffffffffffffffffffffffffffffffffffffffff1663502d667133836000366040518563ffffffff1660e01b815260040161019b9493929190610ab8565b600060405180830381600087803b1580156101b557600080fd5b505af11580156101c9573d6000803e3d6000fd5b50505050505050505050565b600160009054906101000a900473ffffffffffffffffffffffffffffffffffffffff1673ffffffffffffffffffffffffffffffffffffffff163373ffffffffffffffffffffffffffffffffffffffff1614610265576040517f08c379a000000000000000000000000000000000000000000000000000000000815260040161025c90610b53565b60405180910390fd5b50565b600260009054906101000a900473ffffffffffffffffffffffffffffffffffffffff1681565b6102966104cb565b73ffffffffffffffffffffffffffffffffffffffff166102b4610316565b73ffffffffffffffffffffffffffffffffffffffff161461030a576040517f08c379a000000000000000000000000000000000000000000000000000000000815260040161030190610b33565b60405180910390fd5b61031460006104d3565b565b60008060009054906101000a900473ffffffffffffffffffffffffffffffffffffffff16905090565b600160009054906101000a900473ffffffffffffffffffffffffffffffffffffffff1673ffffffffffffffffffffffffffffffffffffffff163373ffffffffffffffffffffffffffffffffffffffff16146103cf576040517f08c379a00000000000000000000000000000000000000000000000000000000081526004016103c690610b53565b60405180910390fd5b5050565b6103db6104cb565b73ffffffffffffffffffffffffffffffffffffffff166103f9610316565b73ffffffffffffffffffffffffffffffffffffffff161461044f576040517f08c379a000000000000000000000000000000000000000000000000000000000815260040161044690610b33565b60405180910390fd5b600073ffffffffffffffffffffffffffffffffffffffff168173ffffffffffffffffffffffffffffffffffffffff1614156104bf576040517f08c379a00000000000000000000000000000000000000000000000000000000081526004016104b690610b13565b60405180910390fd5b6104c8816104d3565b50565b600033905090565b60008060009054906101000a900473ffffffffffffffffffffffffffffffffffffffff169050816000806101000a81548173ffffffffffffffffffffffffffffffffffffffff021916908373ffffffffffffffffffffffffffffffffffffffff1602179055508173ffffffffffffffffffffffffffffffffffffffff168173ffffffffffffffffffffffffffffffffffffffff167f8be0079c531659141344cd1fd0a4f28419497f9722a3daafe3b4186f6b6457e060405160405180910390a35050565b60006105aa6105a584610b98565b610b73565b905080838252602082019050828560208602820111156105cd576105cc610d64565b5b60005b858110156105fd57816105e3888261078a565b8452602084019350602083019250506001810190506105d0565b5050509392505050565b600061061a61061584610bc4565b610b73565b9050808382526020820190508285602086028201111561063d5761063c610d64565b5b60005b8581101561068b57813567ffffffffffffffff81111561066357610662610d5f565b5b808601610670898261079f565b85526020850194506020840193505050600181019050610640565b5050509392505050565b60006106a86106a384610bf0565b610b73565b9050828152602081018484840111156106c4576106c3610d69565b5b6106cf848285610cf0565b509392505050565b60006106ea6106e584610c21565b610b73565b90508281526020810184848401111561070657610705610d69565b5b610711848285610cf0565b509392505050565b60008135905061072881610e50565b92915050565b600082601f83011261074357610742610d5f565b5b8135610753848260208601610597565b91505092915050565b600082601f83011261077157610770610d5f565b5b8135610781848260208601610607565b91505092915050565b60008135905061079981610e67565b92915050565b600082601f8301126107b4576107b3610d5f565b5b81356107c4848260208601610695565b91505092915050565b600082601f8301126107e2576107e1610d5f565b5b81356107f28482602086016106d7565b91505092915050565b60008135905061080a81610e7e565b92915050565b60006020828403121561082657610825610d73565b5b600061083484828501610719565b91505092915050565b60006020828403121561085357610852610d73565b5b600082013567ffffffffffffffff81111561087157610870610d6e565b5b61087d848285016107cd565b91505092915050565b6000806040838503121561089d5761089c610d73565b5b600083013567ffffffffffffffff8111156108bb576108ba610d6e565b5b6108c7858286016107cd565b925050602083013567ffffffffffffffff8111156108e8576108e7610d6e565b5b6108f48582860161075c565b9150509250929050565b600080600080600060a0868803121561091a57610919610d73565b5b600086013567ffffffffffffffff81111561093857610937610d6e565b5b610944888289016107cd565b955050602086013567ffffffffffffffff81111561096557610964610d6e565b5b610971888289016107cd565b945050604086013567ffffffffffffffff81111561099257610991610d6e565b5b61099e888289016107cd565b93505060606109af888289016107fb565b925050608086013567ffffffffffffffff8111156109d0576109cf610d6e565b5b6109dc8882890161072e565b9150509295509295909350565b6109f281610c74565b82525050565b6000610a048385610c52565b9350610a11838584610cf0565b610a1a83610d78565b840190509392505050565b610a2e81610cba565b82525050565b6000610a41602683610c63565b9150610a4c82610d89565b604082019050919050565b6000610a64602083610c63565b9150610a6f82610dd8565b602082019050919050565b6000610a87603b83610c63565b9150610a9282610e01565b604082019050919050565b6000602082019050610ab260008301846109e9565b92915050565b6000606082019050610acd60008301876109e9565b610ada60208301866109e9565b8181036040830152610aed8184866109f8565b905095945050505050565b6000602082019050610b0d6000830184610a25565b92915050565b60006020820190508181036000830152610b2c81610a34565b9050919050565b60006020820190508181036000830152610b4c81610a57565b9050919050565b60006020820190508181036000830152610b6c81610a7a565b9050919050565b6000610b7d610b8e565b9050610b898282610cff565b919050565b6000604051905090565b600067ffffffffffffffff821115610bb357610bb2610d30565b5b602082029050602081019050919050565b600067ffffffffffffffff821115610bdf57610bde610d30565b5b602082029050602081019050919050565b600067ffffffffffffffff821115610c0b57610c0a610d30565b5b610c1482610d78565b9050602081019050919050565b600067ffffffffffffffff821115610c3c57610c3b610d30565b5b610c4582610d78565b9050602081019050919050565b600082825260208201905092915050565b600082825260208201905092915050565b6000610c7f82610c90565b9050919050565b6000819050919050565b600073ffffffffffffffffffffffffffffffffffffffff82169050919050565b6000819050919050565b6000610cc582610ccc565b9050919050565b6000610cd782610cde565b9050919050565b6000610ce982610c90565b9050919050565b82818337600083830152505050565b610d0882610d78565b810181811067ffffffffffffffff82111715610d2757610d26610d30565b5b80604052505050565b7f4e487b7100000000000000000000000000000000000000000000000000000000600052604160045260246000fd5b600080fd5b600080fd5b600080fd5b600080fd5b600080fd5b6000601f19601f8301169050919050565b7f4f776e61626c653a206e6577206f776e657220697320746865207a65726f206160008201527f6464726573730000000000000000000000000000000000000000000000000000602082015250565b7f4f776e61626c653a2063616c6c6572206973206e6f7420746865206f776e6572600082015250565b7f43726564656e7469616c2043616c6c4261636b3a204f6e6c7920746865206f7260008201527f61636c652063616e2063616c6c20746869732066756e6374696f6e0000000000602082015250565b610e5981610c74565b8114610e6457600080fd5b50565b610e7081610c86565b8114610e7b57600080fd5b50565b610e8781610cb0565b8114610e9257600080fd5b5056fea264697066735822122092af595962fd0ce734a072baf45e579c3327c9c9729e8f6c7773efe66272b35564736f6c63430008070033",
					"opcodes": "PUSH1 0x80 PUSH1 0x40 MSTORE CALLVALUE DUP1 ISZERO PUSH3 0x11 JUMPI PUSH1 0x0 DUP1 REVERT JUMPDEST POP PUSH1 0x40 MLOAD PUSH3 0x1139 CODESIZE SUB DUP1 PUSH3 0x1139 DUP4 CODECOPY DUP2 DUP2 ADD PUSH1 0x40 MSTORE DUP2 ADD SWAP1 PUSH3 0x37 SWAP2 SWAP1 PUSH3 0x1C5 JUMP JUMPDEST DUP1 PUSH3 0x58 PUSH3 0x4C PUSH3 0xE2 PUSH1 0x20 SHL PUSH1 0x20 SHR JUMP JUMPDEST PUSH3 0xEA PUSH1 0x20 SHL PUSH1 0x20 SHR JUMP JUMPDEST DUP1 PUSH1 0x1 PUSH1 0x0 PUSH2 0x100 EXP DUP2 SLOAD DUP2 PUSH20 0xFFFFFFFFFFFFFFFFFFFFFFFFFFFFFFFFFFFFFFFF MUL NOT AND SWAP1 DUP4 PUSH20 0xFFFFFFFFFFFFFFFFFFFFFFFFFFFFFFFFFFFFFFFF AND MUL OR SWAP1 SSTORE POP DUP1 PUSH1 0x2 PUSH1 0x0 PUSH2 0x100 EXP DUP2 SLOAD DUP2 PUSH20 0xFFFFFFFFFFFFFFFFFFFFFFFFFFFFFFFFFFFFFFFF MUL NOT AND SWAP1 DUP4 PUSH20 0xFFFFFFFFFFFFFFFFFFFFFFFFFFFFFFFFFFFFFFFF AND MUL OR SWAP1 SSTORE POP POP POP PUSH3 0x25E JUMP JUMPDEST PUSH1 0x0 CALLER SWAP1 POP SWAP1 JUMP JUMPDEST PUSH1 0x0 DUP1 PUSH1 0x0 SWAP1 SLOAD SWAP1 PUSH2 0x100 EXP SWAP1 DIV PUSH20 0xFFFFFFFFFFFFFFFFFFFFFFFFFFFFFFFFFFFFFFFF AND SWAP1 POP DUP2 PUSH1 0x0 DUP1 PUSH2 0x100 EXP DUP2 SLOAD DUP2 PUSH20 0xFFFFFFFFFFFFFFFFFFFFFFFFFFFFFFFFFFFFFFFF MUL NOT AND SWAP1 DUP4 PUSH20 0xFFFFFFFFFFFFFFFFFFFFFFFFFFFFFFFFFFFFFFFF AND MUL OR SWAP1 SSTORE POP DUP2 PUSH20 0xFFFFFFFFFFFFFFFFFFFFFFFFFFFFFFFFFFFFFFFF AND DUP2 PUSH20 0xFFFFFFFFFFFFFFFFFFFFFFFFFFFFFFFFFFFFFFFF AND PUSH32 0x8BE0079C531659141344CD1FD0A4F28419497F9722A3DAAFE3B4186F6B6457E0 PUSH1 0x40 MLOAD PUSH1 0x40 MLOAD DUP1 SWAP2 SUB SWAP1 LOG3 POP POP JUMP JUMPDEST PUSH1 0x0 DUP2 MLOAD SWAP1 POP PUSH3 0x1BF DUP2 PUSH3 0x244 JUMP JUMPDEST SWAP3 SWAP2 POP POP JUMP JUMPDEST PUSH1 0x0 PUSH1 0x20 DUP3 DUP5 SUB SLT ISZERO PUSH3 0x1DE JUMPI PUSH3 0x1DD PUSH3 0x23F JUMP JUMPDEST JUMPDEST PUSH1 0x0 PUSH3 0x1EE DUP5 DUP3 DUP6 ADD PUSH3 0x1AE JUMP JUMPDEST SWAP2 POP POP SWAP3 SWAP2 POP POP JUMP JUMPDEST PUSH1 0x0 PUSH3 0x204 DUP3 PUSH3 0x21F JUMP JUMPDEST SWAP1 POP SWAP2 SWAP1 POP JUMP JUMPDEST PUSH1 0x0 PUSH3 0x218 DUP3 PUSH3 0x1F7 JUMP JUMPDEST SWAP1 POP SWAP2 SWAP1 POP JUMP JUMPDEST PUSH1 0x0 PUSH20 0xFFFFFFFFFFFFFFFFFFFFFFFFFFFFFFFFFFFFFFFF DUP3 AND SWAP1 POP SWAP2 SWAP1 POP JUMP JUMPDEST PUSH1 0x0 DUP1 REVERT JUMPDEST PUSH3 0x24F DUP2 PUSH3 0x20B JUMP JUMPDEST DUP2 EQ PUSH3 0x25B JUMPI PUSH1 0x0 DUP1 REVERT JUMPDEST POP JUMP JUMPDEST PUSH2 0xECB DUP1 PUSH3 0x26E PUSH1 0x0 CODECOPY PUSH1 0x0 RETURN INVALID PUSH1 0x80 PUSH1 0x40 MSTORE CALLVALUE DUP1 ISZERO PUSH2 0x10 JUMPI PUSH1 0x0 DUP1 REVERT JUMPDEST POP PUSH1 0x4 CALLDATASIZE LT PUSH2 0x7D JUMPI PUSH1 0x0 CALLDATALOAD PUSH1 0xE0 SHR DUP1 PUSH4 0x715018A6 GT PUSH2 0x5B JUMPI DUP1 PUSH4 0x715018A6 EQ PUSH2 0xD8 JUMPI DUP1 PUSH4 0x8DA5CB5B EQ PUSH2 0xE2 JUMPI DUP1 PUSH4 0xDCE8A955 EQ PUSH2 0x100 JUMPI DUP1 PUSH4 0xF2FDE38B EQ PUSH2 0x11C JUMPI PUSH2 0x7D JUMP JUMPDEST DUP1 PUSH4 0x169C4424 EQ PUSH2 0x82 JUMPI DUP1 PUSH4 0x436E99F3 EQ PUSH2 0x9E JUMPI DUP1 PUSH4 0x5F7690B3 EQ PUSH2 0xBA JUMPI JUMPDEST PUSH1 0x0 DUP1 REVERT JUMPDEST PUSH2 0x9C PUSH1 0x4 DUP1 CALLDATASIZE SUB DUP2 ADD SWAP1 PUSH2 0x97 SWAP2 SWAP1 PUSH2 0x8FE JUMP JUMPDEST PUSH2 0x138 JUMP JUMPDEST STOP JUMPDEST PUSH2 0xB8 PUSH1 0x4 DUP1 CALLDATASIZE SUB DUP2 ADD SWAP1 PUSH2 0xB3 SWAP2 SWAP1 PUSH2 0x83D JUMP JUMPDEST PUSH2 0x1D5 JUMP JUMPDEST STOP JUMPDEST PUSH2 0xC2 PUSH2 0x268 JUMP JUMPDEST PUSH1 0x40 MLOAD PUSH2 0xCF SWAP2 SWAP1 PUSH2 0xAF8 JUMP JUMPDEST PUSH1 0x40 MLOAD DUP1 SWAP2 SUB SWAP1 RETURN JUMPDEST PUSH2 0xE0 PUSH2 0x28E JUMP JUMPDEST STOP JUMPDEST PUSH2 0xEA PUSH2 0x316 JUMP JUMPDEST PUSH1 0x40 MLOAD PUSH2 0xF7 SWAP2 SWAP1 PUSH2 0xA9D JUMP JUMPDEST PUSH1 0x40 MLOAD DUP1 SWAP2 SUB SWAP1 RETURN JUMPDEST PUSH2 0x11A PUSH1 0x4 DUP1 CALLDATASIZE SUB DUP2 ADD SWAP1 PUSH2 0x115 SWAP2 SWAP1 PUSH2 0x886 JUMP JUMPDEST PUSH2 0x33F JUMP JUMPDEST STOP JUMPDEST PUSH2 0x136 PUSH1 0x4 DUP1 CALLDATASIZE SUB DUP2 ADD SWAP1 PUSH2 0x131 SWAP2 SWAP1 PUSH2 0x810 JUMP JUMPDEST PUSH2 0x3D3 JUMP JUMPDEST STOP JUMPDEST ADDRESS PUSH1 0x2 PUSH1 0x0 SWAP1 SLOAD SWAP1 PUSH2 0x100 EXP SWAP1 DIV PUSH20 0xFFFFFFFFFFFFFFFFFFFFFFFFFFFFFFFFFFFFFFFF AND PUSH20 0xFFFFFFFFFFFFFFFFFFFFFFFFFFFFFFFFFFFFFFFF AND PUSH4 0x502D6671 CALLER DUP4 PUSH1 0x0 CALLDATASIZE PUSH1 0x40 MLOAD DUP6 PUSH4 0xFFFFFFFF AND PUSH1 0xE0 SHL DUP2 MSTORE PUSH1 0x4 ADD PUSH2 0x19B SWAP5 SWAP4 SWAP3 SWAP2 SWAP1 PUSH2 0xAB8 JUMP JUMPDEST PUSH1 0x0 PUSH1 0x40 MLOAD DUP1 DUP4 SUB DUP2 PUSH1 0x0 DUP8 DUP1 EXTCODESIZE ISZERO DUP1 ISZERO PUSH2 0x1B5 JUMPI PUSH1 0x0 DUP1 REVERT JUMPDEST POP GAS CALL ISZERO DUP1 ISZERO PUSH2 0x1C9 JUMPI RETURNDATASIZE PUSH1 0x0 DUP1 RETURNDATACOPY RETURNDATASIZE PUSH1 0x0 REVERT JUMPDEST POP POP POP POP POP POP POP POP POP POP JUMP JUMPDEST PUSH1 0x1 PUSH1 0x0 SWAP1 SLOAD SWAP1 PUSH2 0x100 EXP SWAP1 DIV PUSH20 0xFFFFFFFFFFFFFFFFFFFFFFFFFFFFFFFFFFFFFFFF AND PUSH20 0xFFFFFFFFFFFFFFFFFFFFFFFFFFFFFFFFFFFFFFFF AND CALLER PUSH20 0xFFFFFFFFFFFFFFFFFFFFFFFFFFFFFFFFFFFFFFFF AND EQ PUSH2 0x265 JUMPI PUSH1 0x40 MLOAD PUSH32 0x8C379A000000000000000000000000000000000000000000000000000000000 DUP2 MSTORE PUSH1 0x4 ADD PUSH2 0x25C SWAP1 PUSH2 0xB53 JUMP JUMPDEST PUSH1 0x40 MLOAD DUP1 SWAP2 SUB SWAP1 REVERT JUMPDEST POP JUMP JUMPDEST PUSH1 0x2 PUSH1 0x0 SWAP1 SLOAD SWAP1 PUSH2 0x100 EXP SWAP1 DIV PUSH20 0xFFFFFFFFFFFFFFFFFFFFFFFFFFFFFFFFFFFFFFFF AND DUP2 JUMP JUMPDEST PUSH2 0x296 PUSH2 0x4CB JUMP JUMPDEST PUSH20 0xFFFFFFFFFFFFFFFFFFFFFFFFFFFFFFFFFFFFFFFF AND PUSH2 0x2B4 PUSH2 0x316 JUMP JUMPDEST PUSH20 0xFFFFFFFFFFFFFFFFFFFFFFFFFFFFFFFFFFFFFFFF AND EQ PUSH2 0x30A JUMPI PUSH1 0x40 MLOAD PUSH32 0x8C379A000000000000000000000000000000000000000000000000000000000 DUP2 MSTORE PUSH1 0x4 ADD PUSH2 0x301 SWAP1 PUSH2 0xB33 JUMP JUMPDEST PUSH1 0x40 MLOAD DUP1 SWAP2 SUB SWAP1 REVERT JUMPDEST PUSH2 0x314 PUSH1 0x0 PUSH2 0x4D3 JUMP JUMPDEST JUMP JUMPDEST PUSH1 0x0 DUP1 PUSH1 0x0 SWAP1 SLOAD SWAP1 PUSH2 0x100 EXP SWAP1 DIV PUSH20 0xFFFFFFFFFFFFFFFFFFFFFFFFFFFFFFFFFFFFFFFF AND SWAP1 POP SWAP1 JUMP JUMPDEST PUSH1 0x1 PUSH1 0x0 SWAP1 SLOAD SWAP1 PUSH2 0x100 EXP SWAP1 DIV PUSH20 0xFFFFFFFFFFFFFFFFFFFFFFFFFFFFFFFFFFFFFFFF AND PUSH20 0xFFFFFFFFFFFFFFFFFFFFFFFFFFFFFFFFFFFFFFFF AND CALLER PUSH20 0xFFFFFFFFFFFFFFFFFFFFFFFFFFFFFFFFFFFFFFFF AND EQ PUSH2 0x3CF JUMPI PUSH1 0x40 MLOAD PUSH32 0x8C379A000000000000000000000000000000000000000000000000000000000 DUP2 MSTORE PUSH1 0x4 ADD PUSH2 0x3C6 SWAP1 PUSH2 0xB53 JUMP JUMPDEST PUSH1 0x40 MLOAD DUP1 SWAP2 SUB SWAP1 REVERT JUMPDEST POP POP JUMP JUMPDEST PUSH2 0x3DB PUSH2 0x4CB JUMP JUMPDEST PUSH20 0xFFFFFFFFFFFFFFFFFFFFFFFFFFFFFFFFFFFFFFFF AND PUSH2 0x3F9 PUSH2 0x316 JUMP JUMPDEST PUSH20 0xFFFFFFFFFFFFFFFFFFFFFFFFFFFFFFFFFFFFFFFF AND EQ PUSH2 0x44F JUMPI PUSH1 0x40 MLOAD PUSH32 0x8C379A000000000000000000000000000000000000000000000000000000000 DUP2 MSTORE PUSH1 0x4 ADD PUSH2 0x446 SWAP1 PUSH2 0xB33 JUMP JUMPDEST PUSH1 0x40 MLOAD DUP1 SWAP2 SUB SWAP1 REVERT JUMPDEST PUSH1 0x0 PUSH20 0xFFFFFFFFFFFFFFFFFFFFFFFFFFFFFFFFFFFFFFFF AND DUP2 PUSH20 0xFFFFFFFFFFFFFFFFFFFFFFFFFFFFFFFFFFFFFFFF AND EQ ISZERO PUSH2 0x4BF JUMPI PUSH1 0x40 MLOAD PUSH32 0x8C379A000000000000000000000000000000000000000000000000000000000 DUP2 MSTORE PUSH1 0x4 ADD PUSH2 0x4B6 SWAP1 PUSH2 0xB13 JUMP JUMPDEST PUSH1 0x40 MLOAD DUP1 SWAP2 SUB SWAP1 REVERT JUMPDEST PUSH2 0x4C8 DUP2 PUSH2 0x4D3 JUMP JUMPDEST POP JUMP JUMPDEST PUSH1 0x0 CALLER SWAP1 POP SWAP1 JUMP JUMPDEST PUSH1 0x0 DUP1 PUSH1 0x0 SWAP1 SLOAD SWAP1 PUSH2 0x100 EXP SWAP1 DIV PUSH20 0xFFFFFFFFFFFFFFFFFFFFFFFFFFFFFFFFFFFFFFFF AND SWAP1 POP DUP2 PUSH1 0x0 DUP1 PUSH2 0x100 EXP DUP2 SLOAD DUP2 PUSH20 0xFFFFFFFFFFFFFFFFFFFFFFFFFFFFFFFFFFFFFFFF MUL NOT AND SWAP1 DUP4 PUSH20 0xFFFFFFFFFFFFFFFFFFFFFFFFFFFFFFFFFFFFFFFF AND MUL OR SWAP1 SSTORE POP DUP2 PUSH20 0xFFFFFFFFFFFFFFFFFFFFFFFFFFFFFFFFFFFFFFFF AND DUP2 PUSH20 0xFFFFFFFFFFFFFFFFFFFFFFFFFFFFFFFFFFFFFFFF AND PUSH32 0x8BE0079C531659141344CD1FD0A4F28419497F9722A3DAAFE3B4186F6B6457E0 PUSH1 0x40 MLOAD PUSH1 0x40 MLOAD DUP1 SWAP2 SUB SWAP1 LOG3 POP POP JUMP JUMPDEST PUSH1 0x0 PUSH2 0x5AA PUSH2 0x5A5 DUP5 PUSH2 0xB98 JUMP JUMPDEST PUSH2 0xB73 JUMP JUMPDEST SWAP1 POP DUP1 DUP4 DUP3 MSTORE PUSH1 0x20 DUP3 ADD SWAP1 POP DUP3 DUP6 PUSH1 0x20 DUP7 MUL DUP3 ADD GT ISZERO PUSH2 0x5CD JUMPI PUSH2 0x5CC PUSH2 0xD64 JUMP JUMPDEST JUMPDEST PUSH1 0x0 JUMPDEST DUP6 DUP2 LT ISZERO PUSH2 0x5FD JUMPI DUP2 PUSH2 0x5E3 DUP9 DUP3 PUSH2 0x78A JUMP JUMPDEST DUP5 MSTORE PUSH1 0x20 DUP5 ADD SWAP4 POP PUSH1 0x20 DUP4 ADD SWAP3 POP POP PUSH1 0x1 DUP2 ADD SWAP1 POP PUSH2 0x5D0 JUMP JUMPDEST POP POP POP SWAP4 SWAP3 POP POP POP JUMP JUMPDEST PUSH1 0x0 PUSH2 0x61A PUSH2 0x615 DUP5 PUSH2 0xBC4 JUMP JUMPDEST PUSH2 0xB73 JUMP JUMPDEST SWAP1 POP DUP1 DUP4 DUP3 MSTORE PUSH1 0x20 DUP3 ADD SWAP1 POP DUP3 DUP6 PUSH1 0x20 DUP7 MUL DUP3 ADD GT ISZERO PUSH2 0x63D JUMPI PUSH2 0x63C PUSH2 0xD64 JUMP JUMPDEST JUMPDEST PUSH1 0x0 JUMPDEST DUP6 DUP2 LT ISZERO PUSH2 0x68B JUMPI DUP2 CALLDATALOAD PUSH8 0xFFFFFFFFFFFFFFFF DUP2 GT ISZERO PUSH2 0x663 JUMPI PUSH2 0x662 PUSH2 0xD5F JUMP JUMPDEST JUMPDEST DUP1 DUP7 ADD PUSH2 0x670 DUP10 DUP3 PUSH2 0x79F JUMP JUMPDEST DUP6 MSTORE PUSH1 0x20 DUP6 ADD SWAP5 POP PUSH1 0x20 DUP5 ADD SWAP4 POP POP POP PUSH1 0x1 DUP2 ADD SWAP1 POP PUSH2 0x640 JUMP JUMPDEST POP POP POP SWAP4 SWAP3 POP POP POP JUMP JUMPDEST PUSH1 0x0 PUSH2 0x6A8 PUSH2 0x6A3 DUP5 PUSH2 0xBF0 JUMP JUMPDEST PUSH2 0xB73 JUMP JUMPDEST SWAP1 POP DUP3 DUP2 MSTORE PUSH1 0x20 DUP2 ADD DUP5 DUP5 DUP5 ADD GT ISZERO PUSH2 0x6C4 JUMPI PUSH2 0x6C3 PUSH2 0xD69 JUMP JUMPDEST JUMPDEST PUSH2 0x6CF DUP5 DUP3 DUP6 PUSH2 0xCF0 JUMP JUMPDEST POP SWAP4 SWAP3 POP POP POP JUMP JUMPDEST PUSH1 0x0 PUSH2 0x6EA PUSH2 0x6E5 DUP5 PUSH2 0xC21 JUMP JUMPDEST PUSH2 0xB73 JUMP JUMPDEST SWAP1 POP DUP3 DUP2 MSTORE PUSH1 0x20 DUP2 ADD DUP5 DUP5 DUP5 ADD GT ISZERO PUSH2 0x706 JUMPI PUSH2 0x705 PUSH2 0xD69 JUMP JUMPDEST JUMPDEST PUSH2 0x711 DUP5 DUP3 DUP6 PUSH2 0xCF0 JUMP JUMPDEST POP SWAP4 SWAP3 POP POP POP JUMP JUMPDEST PUSH1 0x0 DUP2 CALLDATALOAD SWAP1 POP PUSH2 0x728 DUP2 PUSH2 0xE50 JUMP JUMPDEST SWAP3 SWAP2 POP POP JUMP JUMPDEST PUSH1 0x0 DUP3 PUSH1 0x1F DUP4 ADD SLT PUSH2 0x743 JUMPI PUSH2 0x742 PUSH2 0xD5F JUMP JUMPDEST JUMPDEST DUP2 CALLDATALOAD PUSH2 0x753 DUP5 DUP3 PUSH1 0x20 DUP7 ADD PUSH2 0x597 JUMP JUMPDEST SWAP2 POP POP SWAP3 SWAP2 POP POP JUMP JUMPDEST PUSH1 0x0 DUP3 PUSH1 0x1F DUP4 ADD SLT PUSH2 0x771 JUMPI PUSH2 0x770 PUSH2 0xD5F JUMP JUMPDEST JUMPDEST DUP2 CALLDATALOAD PUSH2 0x781 DUP5 DUP3 PUSH1 0x20 DUP7 ADD PUSH2 0x607 JUMP JUMPDEST SWAP2 POP POP SWAP3 SWAP2 POP POP JUMP JUMPDEST PUSH1 0x0 DUP2 CALLDATALOAD SWAP1 POP PUSH2 0x799 DUP2 PUSH2 0xE67 JUMP JUMPDEST SWAP3 SWAP2 POP POP JUMP JUMPDEST PUSH1 0x0 DUP3 PUSH1 0x1F DUP4 ADD SLT PUSH2 0x7B4 JUMPI PUSH2 0x7B3 PUSH2 0xD5F JUMP JUMPDEST JUMPDEST DUP2 CALLDATALOAD PUSH2 0x7C4 DUP5 DUP3 PUSH1 0x20 DUP7 ADD PUSH2 0x695 JUMP JUMPDEST SWAP2 POP POP SWAP3 SWAP2 POP POP JUMP JUMPDEST PUSH1 0x0 DUP3 PUSH1 0x1F DUP4 ADD SLT PUSH2 0x7E2 JUMPI PUSH2 0x7E1 PUSH2 0xD5F JUMP JUMPDEST JUMPDEST DUP2 CALLDATALOAD PUSH2 0x7F2 DUP5 DUP3 PUSH1 0x20 DUP7 ADD PUSH2 0x6D7 JUMP JUMPDEST SWAP2 POP POP SWAP3 SWAP2 POP POP JUMP JUMPDEST PUSH1 0x0 DUP2 CALLDATALOAD SWAP1 POP PUSH2 0x80A DUP2 PUSH2 0xE7E JUMP JUMPDEST SWAP3 SWAP2 POP POP JUMP JUMPDEST PUSH1 0x0 PUSH1 0x20 DUP3 DUP5 SUB SLT ISZERO PUSH2 0x826 JUMPI PUSH2 0x825 PUSH2 0xD73 JUMP JUMPDEST JUMPDEST PUSH1 0x0 PUSH2 0x834 DUP5 DUP3 DUP6 ADD PUSH2 0x719 JUMP JUMPDEST SWAP2 POP POP SWAP3 SWAP2 POP POP JUMP JUMPDEST PUSH1 0x0 PUSH1 0x20 DUP3 DUP5 SUB SLT ISZERO PUSH2 0x853 JUMPI PUSH2 0x852 PUSH2 0xD73 JUMP JUMPDEST JUMPDEST PUSH1 0x0 DUP3 ADD CALLDATALOAD PUSH8 0xFFFFFFFFFFFFFFFF DUP2 GT ISZERO PUSH2 0x871 JUMPI PUSH2 0x870 PUSH2 0xD6E JUMP JUMPDEST JUMPDEST PUSH2 0x87D DUP5 DUP3 DUP6 ADD PUSH2 0x7CD JUMP JUMPDEST SWAP2 POP POP SWAP3 SWAP2 POP POP JUMP JUMPDEST PUSH1 0x0 DUP1 PUSH1 0x40 DUP4 DUP6 SUB SLT ISZERO PUSH2 0x89D JUMPI PUSH2 0x89C PUSH2 0xD73 JUMP JUMPDEST JUMPDEST PUSH1 0x0 DUP4 ADD CALLDATALOAD PUSH8 0xFFFFFFFFFFFFFFFF DUP2 GT ISZERO PUSH2 0x8BB JUMPI PUSH2 0x8BA PUSH2 0xD6E JUMP JUMPDEST JUMPDEST PUSH2 0x8C7 DUP6 DUP3 DUP7 ADD PUSH2 0x7CD JUMP JUMPDEST SWAP3 POP POP PUSH1 0x20 DUP4 ADD CALLDATALOAD PUSH8 0xFFFFFFFFFFFFFFFF DUP2 GT ISZERO PUSH2 0x8E8 JUMPI PUSH2 0x8E7 PUSH2 0xD6E JUMP JUMPDEST JUMPDEST PUSH2 0x8F4 DUP6 DUP3 DUP7 ADD PUSH2 0x75C JUMP JUMPDEST SWAP2 POP POP SWAP3 POP SWAP3 SWAP1 POP JUMP JUMPDEST PUSH1 0x0 DUP1 PUSH1 0x0 DUP1 PUSH1 0x0 PUSH1 0xA0 DUP7 DUP9 SUB SLT ISZERO PUSH2 0x91A JUMPI PUSH2 0x919 PUSH2 0xD73 JUMP JUMPDEST JUMPDEST PUSH1 0x0 DUP7 ADD CALLDATALOAD PUSH8 0xFFFFFFFFFFFFFFFF DUP2 GT ISZERO PUSH2 0x938 JUMPI PUSH2 0x937 PUSH2 0xD6E JUMP JUMPDEST JUMPDEST PUSH2 0x944 DUP9 DUP3 DUP10 ADD PUSH2 0x7CD JUMP JUMPDEST SWAP6 POP POP PUSH1 0x20 DUP7 ADD CALLDATALOAD PUSH8 0xFFFFFFFFFFFFFFFF DUP2 GT ISZERO PUSH2 0x965 JUMPI PUSH2 0x964 PUSH2 0xD6E JUMP JUMPDEST JUMPDEST PUSH2 0x971 DUP9 DUP3 DUP10 ADD PUSH2 0x7CD JUMP JUMPDEST SWAP5 POP POP PUSH1 0x40 DUP7 ADD CALLDATALOAD PUSH8 0xFFFFFFFFFFFFFFFF DUP2 GT ISZERO PUSH2 0x992 JUMPI PUSH2 0x991 PUSH2 0xD6E JUMP JUMPDEST JUMPDEST PUSH2 0x99E DUP9 DUP3 DUP10 ADD PUSH2 0x7CD JUMP JUMPDEST SWAP4 POP POP PUSH1 0x60 PUSH2 0x9AF DUP9 DUP3 DUP10 ADD PUSH2 0x7FB JUMP JUMPDEST SWAP3 POP POP PUSH1 0x80 DUP7 ADD CALLDATALOAD PUSH8 0xFFFFFFFFFFFFFFFF DUP2 GT ISZERO PUSH2 0x9D0 JUMPI PUSH2 0x9CF PUSH2 0xD6E JUMP JUMPDEST JUMPDEST PUSH2 0x9DC DUP9 DUP3 DUP10 ADD PUSH2 0x72E JUMP JUMPDEST SWAP2 POP POP SWAP3 SWAP6 POP SWAP3 SWAP6 SWAP1 SWAP4 POP JUMP JUMPDEST PUSH2 0x9F2 DUP2 PUSH2 0xC74 JUMP JUMPDEST DUP3 MSTORE POP POP JUMP JUMPDEST PUSH1 0x0 PUSH2 0xA04 DUP4 DUP6 PUSH2 0xC52 JUMP JUMPDEST SWAP4 POP PUSH2 0xA11 DUP4 DUP6 DUP5 PUSH2 0xCF0 JUMP JUMPDEST PUSH2 0xA1A DUP4 PUSH2 0xD78 JUMP JUMPDEST DUP5 ADD SWAP1 POP SWAP4 SWAP3 POP POP POP JUMP JUMPDEST PUSH2 0xA2E DUP2 PUSH2 0xCBA JUMP JUMPDEST DUP3 MSTORE POP POP JUMP JUMPDEST PUSH1 0x0 PUSH2 0xA41 PUSH1 0x26 DUP4 PUSH2 0xC63 JUMP JUMPDEST SWAP2 POP PUSH2 0xA4C DUP3 PUSH2 0xD89 JUMP JUMPDEST PUSH1 0x40 DUP3 ADD SWAP1 POP SWAP2 SWAP1 POP JUMP JUMPDEST PUSH1 0x0 PUSH2 0xA64 PUSH1 0x20 DUP4 PUSH2 0xC63 JUMP JUMPDEST SWAP2 POP PUSH2 0xA6F DUP3 PUSH2 0xDD8 JUMP JUMPDEST PUSH1 0x20 DUP3 ADD SWAP1 POP SWAP2 SWAP1 POP JUMP JUMPDEST PUSH1 0x0 PUSH2 0xA87 PUSH1 0x3B DUP4 PUSH2 0xC63 JUMP JUMPDEST SWAP2 POP PUSH2 0xA92 DUP3 PUSH2 0xE01 JUMP JUMPDEST PUSH1 0x40 DUP3 ADD SWAP1 POP SWAP2 SWAP1 POP JUMP JUMPDEST PUSH1 0x0 PUSH1 0x20 DUP3 ADD SWAP1 POP PUSH2 0xAB2 PUSH1 0x0 DUP4 ADD DUP5 PUSH2 0x9E9 JUMP JUMPDEST SWAP3 SWAP2 POP POP JUMP JUMPDEST PUSH1 0x0 PUSH1 0x60 DUP3 ADD SWAP1 POP PUSH2 0xACD PUSH1 0x0 DUP4 ADD DUP8 PUSH2 0x9E9 JUMP JUMPDEST PUSH2 0xADA PUSH1 0x20 DUP4 ADD DUP7 PUSH2 0x9E9 JUMP JUMPDEST DUP2 DUP2 SUB PUSH1 0x40 DUP4 ADD MSTORE PUSH2 0xAED DUP2 DUP5 DUP7 PUSH2 0x9F8 JUMP JUMPDEST SWAP1 POP SWAP6 SWAP5 POP POP POP POP POP JUMP JUMPDEST PUSH1 0x0 PUSH1 0x20 DUP3 ADD SWAP1 POP PUSH2 0xB0D PUSH1 0x0 DUP4 ADD DUP5 PUSH2 0xA25 JUMP JUMPDEST SWAP3 SWAP2 POP POP JUMP JUMPDEST PUSH1 0x0 PUSH1 0x20 DUP3 ADD SWAP1 POP DUP2 DUP2 SUB PUSH1 0x0 DUP4 ADD MSTORE PUSH2 0xB2C DUP2 PUSH2 0xA34 JUMP JUMPDEST SWAP1 POP SWAP2 SWAP1 POP JUMP JUMPDEST PUSH1 0x0 PUSH1 0x20 DUP3 ADD SWAP1 POP DUP2 DUP2 SUB PUSH1 0x0 DUP4 ADD MSTORE PUSH2 0xB4C DUP2 PUSH2 0xA57 JUMP JUMPDEST SWAP1 POP SWAP2 SWAP1 POP JUMP JUMPDEST PUSH1 0x0 PUSH1 0x20 DUP3 ADD SWAP1 POP DUP2 DUP2 SUB PUSH1 0x0 DUP4 ADD MSTORE PUSH2 0xB6C DUP2 PUSH2 0xA7A JUMP JUMPDEST SWAP1 POP SWAP2 SWAP1 POP JUMP JUMPDEST PUSH1 0x0 PUSH2 0xB7D PUSH2 0xB8E JUMP JUMPDEST SWAP1 POP PUSH2 0xB89 DUP3 DUP3 PUSH2 0xCFF JUMP JUMPDEST SWAP2 SWAP1 POP JUMP JUMPDEST PUSH1 0x0 PUSH1 0x40 MLOAD SWAP1 POP SWAP1 JUMP JUMPDEST PUSH1 0x0 PUSH8 0xFFFFFFFFFFFFFFFF DUP3 GT ISZERO PUSH2 0xBB3 JUMPI PUSH2 0xBB2 PUSH2 0xD30 JUMP JUMPDEST JUMPDEST PUSH1 0x20 DUP3 MUL SWAP1 POP PUSH1 0x20 DUP2 ADD SWAP1 POP SWAP2 SWAP1 POP JUMP JUMPDEST PUSH1 0x0 PUSH8 0xFFFFFFFFFFFFFFFF DUP3 GT ISZERO PUSH2 0xBDF JUMPI PUSH2 0xBDE PUSH2 0xD30 JUMP JUMPDEST JUMPDEST PUSH1 0x20 DUP3 MUL SWAP1 POP PUSH1 0x20 DUP2 ADD SWAP1 POP SWAP2 SWAP1 POP JUMP JUMPDEST PUSH1 0x0 PUSH8 0xFFFFFFFFFFFFFFFF DUP3 GT ISZERO PUSH2 0xC0B JUMPI PUSH2 0xC0A PUSH2 0xD30 JUMP JUMPDEST JUMPDEST PUSH2 0xC14 DUP3 PUSH2 0xD78 JUMP JUMPDEST SWAP1 POP PUSH1 0x20 DUP2 ADD SWAP1 POP SWAP2 SWAP1 POP JUMP JUMPDEST PUSH1 0x0 PUSH8 0xFFFFFFFFFFFFFFFF DUP3 GT ISZERO PUSH2 0xC3C JUMPI PUSH2 0xC3B PUSH2 0xD30 JUMP JUMPDEST JUMPDEST PUSH2 0xC45 DUP3 PUSH2 0xD78 JUMP JUMPDEST SWAP1 POP PUSH1 0x20 DUP2 ADD SWAP1 POP SWAP2 SWAP1 POP JUMP JUMPDEST PUSH1 0x0 DUP3 DUP3 MSTORE PUSH1 0x20 DUP3 ADD SWAP1 POP SWAP3 SWAP2 POP POP JUMP JUMPDEST PUSH1 0x0 DUP3 DUP3 MSTORE PUSH1 0x20 DUP3 ADD SWAP1 POP SWAP3 SWAP2 POP POP JUMP JUMPDEST PUSH1 0x0 PUSH2 0xC7F DUP3 PUSH2 0xC90 JUMP JUMPDEST SWAP1 POP SWAP2 SWAP1 POP JUMP JUMPDEST PUSH1 0x0 DUP2 SWAP1 POP SWAP2 SWAP1 POP JUMP JUMPDEST PUSH1 0x0 PUSH20 0xFFFFFFFFFFFFFFFFFFFFFFFFFFFFFFFFFFFFFFFF DUP3 AND SWAP1 POP SWAP2 SWAP1 POP JUMP JUMPDEST PUSH1 0x0 DUP2 SWAP1 POP SWAP2 SWAP1 POP JUMP JUMPDEST PUSH1 0x0 PUSH2 0xCC5 DUP3 PUSH2 0xCCC JUMP JUMPDEST SWAP1 POP SWAP2 SWAP1 POP JUMP JUMPDEST PUSH1 0x0 PUSH2 0xCD7 DUP3 PUSH2 0xCDE JUMP JUMPDEST SWAP1 POP SWAP2 SWAP1 POP JUMP JUMPDEST PUSH1 0x0 PUSH2 0xCE9 DUP3 PUSH2 0xC90 JUMP JUMPDEST SWAP1 POP SWAP2 SWAP1 POP JUMP JUMPDEST DUP3 DUP2 DUP4 CALLDATACOPY PUSH1 0x0 DUP4 DUP4 ADD MSTORE POP POP POP JUMP JUMPDEST PUSH2 0xD08 DUP3 PUSH2 0xD78 JUMP JUMPDEST DUP2 ADD DUP2 DUP2 LT PUSH8 0xFFFFFFFFFFFFFFFF DUP3 GT OR ISZERO PUSH2 0xD27 JUMPI PUSH2 0xD26 PUSH2 0xD30 JUMP JUMPDEST JUMPDEST DUP1 PUSH1 0x40 MSTORE POP POP POP JUMP JUMPDEST PUSH32 0x4E487B7100000000000000000000000000000000000000000000000000000000 PUSH1 0x0 MSTORE PUSH1 0x41 PUSH1 0x4 MSTORE PUSH1 0x24 PUSH1 0x0 REVERT JUMPDEST PUSH1 0x0 DUP1 REVERT JUMPDEST PUSH1 0x0 DUP1 REVERT JUMPDEST PUSH1 0x0 DUP1 REVERT JUMPDEST PUSH1 0x0 DUP1 REVERT JUMPDEST PUSH1 0x0 DUP1 REVERT JUMPDEST PUSH1 0x0 PUSH1 0x1F NOT PUSH1 0x1F DUP4 ADD AND SWAP1 POP SWAP2 SWAP1 POP JUMP JUMPDEST PUSH32 0x4F776E61626C653A206E6577206F776E657220697320746865207A65726F2061 PUSH1 0x0 DUP3 ADD MSTORE PUSH32 0x6464726573730000000000000000000000000000000000000000000000000000 PUSH1 0x20 DUP3 ADD MSTORE POP JUMP JUMPDEST PUSH32 0x4F776E61626C653A2063616C6C6572206973206E6F7420746865206F776E6572 PUSH1 0x0 DUP3 ADD MSTORE POP JUMP JUMPDEST PUSH32 0x43726564656E7469616C2043616C6C4261636B3A204F6E6C7920746865206F72 PUSH1 0x0 DUP3 ADD MSTORE PUSH32 0x61636C652063616E2063616C6C20746869732066756E6374696F6E0000000000 PUSH1 0x20 DUP3 ADD MSTORE POP JUMP JUMPDEST PUSH2 0xE59 DUP2 PUSH2 0xC74 JUMP JUMPDEST DUP2 EQ PUSH2 0xE64 JUMPI PUSH1 0x0 DUP1 REVERT JUMPDEST POP JUMP JUMPDEST PUSH2 0xE70 DUP2 PUSH2 0xC86 JUMP JUMPDEST DUP2 EQ PUSH2 0xE7B JUMPI PUSH1 0x0 DUP1 REVERT JUMPDEST POP JUMP JUMPDEST PUSH2 0xE87 DUP2 PUSH2 0xCB0 JUMP JUMPDEST DUP2 EQ PUSH2 0xE92 JUMPI PUSH1 0x0 DUP1 REVERT JUMPDEST POP JUMP INVALID LOG2 PUSH5 0x6970667358 0x22 SLT KECCAK256 SWAP3 0xAF MSIZE MSIZE PUSH3 0xFD0CE7 CALLVALUE LOG0 PUSH19 0xBAF45E579C3327C9C9729E8F6C7773EFE66272 0xB3 SSTORE PUSH5 0x736F6C6343 STOP ADDMOD SMOD STOP CALLER "
				},
				"gasEstimates": {
					"creation": {
						"codeDepositCost": "757400",
						"executionCost": "infinite",
						"totalCost": "infinite"
					},
					"external": {
						"CREDENTIAL_EVENT()": "2645",
						"owner()": "2544",
						"postVibe(string,string,string,uint256,bytes32[])": "infinite",
						"postVibe_authorised(string,bytes[])": "infinite",
						"postVibe_unauthorised(string)": "infinite",
						"renounceOwnership()": "30374",
						"transferOwnership(address)": "30789"
					}
				},
				"methodIdentifiers": {
					"CREDENTIAL_EVENT()": "5f7690b3",
					"owner()": "8da5cb5b",
					"postVibe(string,string,string,uint256,bytes32[])": "169c4424",
					"postVibe_authorised(string,bytes[])": "dce8a955",
					"postVibe_unauthorised(string)": "436e99f3",
					"renounceOwnership()": "715018a6",
					"transferOwnership(address)": "f2fde38b"
				}
			},
			"storageLayout": {
				"storage": [
					{
						"astId": 7,
						"contract": "facets/CommunicationFacet.sol:CommunicationFacet",
						"label": "_owner",
						"offset": 0,
						"slot": "0",
						"type": "t_address"
					},
					{
						"astId": 235,
						"contract": "facets/CommunicationFacet.sol:CommunicationFacet",
						"label": "CREDENTIAL_ORACLE",
						"offset": 0,
						"slot": "1",
						"type": "t_address"
					},
					{
						"astId": 238,
						"contract": "facets/CommunicationFacet.sol:CommunicationFacet",
						"label": "CREDENTIAL_EVENT",
						"offset": 0,
						"slot": "2",
						"type": "t_contract(CredentialEventFacet)230"
					}
				],
				"types": {
					"t_address": {
						"encoding": "inplace",
						"label": "address",
						"numberOfBytes": "20"
					},
					"t_contract(CredentialEventFacet)230": {
						"encoding": "inplace",
						"label": "contract CredentialEventFacet",
						"numberOfBytes": "20"
					}
				}
			},
			"userdoc": {
				"kind": "user",
				"methods": {},
				"version": 1
			}
		}
	}
}