{
	"facets/CredentialEventFacet.sol": {
		"CredentialEventFacet": {
			"abi": [
				{
					"anonymous": false,
					"inputs": [
						{
							"indexed": false,
							"internalType": "string",
							"name": "list_id",
							"type": "string"
						},
						{
							"indexed": false,
							"internalType": "address",
							"name": "original_msg_sender",
							"type": "address"
						},
						{
							"indexed": false,
							"internalType": "address",
							"name": "contractAddr",
							"type": "address"
						},
						{
							"indexed": false,
							"internalType": "string",
							"name": "funcName",
							"type": "string"
						},
						{
							"indexed": false,
							"internalType": "bytes",
							"name": "original_msg_data",
							"type": "bytes"
						}
					],
					"name": "RequestCredentialsCallback",
					"type": "event"
				},
				{
					"inputs": [
						{
							"internalType": "address",
							"name": "",
							"type": "address"
						}
					],
					"name": "abiStorage",
					"outputs": [
						{
							"internalType": "bytes",
							"name": "",
							"type": "bytes"
						}
					],
					"stateMutability": "view",
					"type": "function"
				},
				{
					"inputs": [
						{
							"internalType": "string",
							"name": "_list_id",
							"type": "string"
						},
						{
							"internalType": "address",
							"name": "_sender",
							"type": "address"
						},
						{
							"internalType": "address",
							"name": "_contractAddr",
							"type": "address"
						},
						{
							"internalType": "string",
							"name": "_funcName",
							"type": "string"
						},
						{
							"internalType": "bytes",
							"name": "_data",
							"type": "bytes"
						}
					],
					"name": "emitEvent",
					"outputs": [],
					"stateMutability": "nonpayable",
					"type": "function"
				},
				{
					"inputs": [
						{
							"internalType": "address",
							"name": "_contractAddr",
							"type": "address"
						},
						{
							"internalType": "bytes",
							"name": "_abiData",
							"type": "bytes"
						}
					],
					"name": "storeAbi",
					"outputs": [],
					"stateMutability": "nonpayable",
					"type": "function"
				}
			],
			"devdoc": {
				"kind": "dev",
				"methods": {},
				"version": 1
			},
			"evm": {
				"assembly": "    /* \"facets/CredentialEventFacet.sol\":57:1049  contract CredentialEventFacet {... */\n  mstore(0x40, 0x80)\n  callvalue\n  dup1\n  iszero\n  tag_1\n  jumpi\n  0x00\n  dup1\n  revert\ntag_1:\n  pop\n  dataSize(sub_0)\n  dup1\n  dataOffset(sub_0)\n  0x00\n  codecopy\n  0x00\n  return\nstop\n\nsub_0: assembly {\n        /* \"facets/CredentialEventFacet.sol\":57:1049  contract CredentialEventFacet {... */\n      mstore(0x40, 0x80)\n      callvalue\n      dup1\n      iszero\n      tag_1\n      jumpi\n      0x00\n      dup1\n      revert\n    tag_1:\n      pop\n      jumpi(tag_2, lt(calldatasize, 0x04))\n      shr(0xe0, calldataload(0x00))\n      dup1\n      0x45b0e8a8\n      eq\n      tag_3\n      jumpi\n      dup1\n      0x634aa983\n      eq\n      tag_4\n      jumpi\n      dup1\n      0xa78d2ba3\n      eq\n      tag_5\n      jumpi\n    tag_2:\n      0x00\n      dup1\n      revert\n        /* \"facets/CredentialEventFacet.sol\":893:1047  function storeAbi(address _contractAddr, bytes memory _abiData) public {... */\n    tag_3:\n      tag_6\n      0x04\n      dup1\n      calldatasize\n      sub\n      dup2\n      add\n      swap1\n      tag_7\n      swap2\n      swap1\n      tag_8\n      jump\t// in\n    tag_7:\n      tag_9\n      jump\t// in\n    tag_6:\n      stop\n        /* \"facets/CredentialEventFacet.sol\":91:134  mapping(address => bytes) public abiStorage */\n    tag_4:\n      tag_10\n      0x04\n      dup1\n      calldatasize\n      sub\n      dup2\n      add\n      swap1\n      tag_11\n      swap2\n      swap1\n      tag_12\n      jump\t// in\n    tag_11:\n      tag_13\n      jump\t// in\n    tag_10:\n      mload(0x40)\n      tag_14\n      swap2\n      swap1\n      tag_15\n      jump\t// in\n    tag_14:\n      mload(0x40)\n      dup1\n      swap2\n      sub\n      swap1\n      return\n        /* \"facets/CredentialEventFacet.sol\":284:891  function emitEvent(string memory _list_id, address _sender, address _contractAddr, string memory _funcName, bytes calldata _data) public {... */\n    tag_5:\n      tag_16\n      0x04\n      dup1\n      calldatasize\n      sub\n      dup2\n      add\n      swap1\n      tag_17\n      swap2\n      swap1\n      tag_18\n      jump\t// in\n    tag_17:\n      tag_19\n      jump\t// in\n    tag_16:\n      stop\n        /* \"facets/CredentialEventFacet.sol\":893:1047  function storeAbi(address _contractAddr, bytes memory _abiData) public {... */\n    tag_9:\n        /* \"facets/CredentialEventFacet.sol\":1036:1044  _abiData */\n      dup1\n        /* \"facets/CredentialEventFacet.sol\":1008:1018  abiStorage */\n      0x00\n        /* \"facets/CredentialEventFacet.sol\":1008:1033  abiStorage[_contractAddr] */\n      dup1\n        /* \"facets/CredentialEventFacet.sol\":1019:1032  _contractAddr */\n      dup5\n        /* \"facets/CredentialEventFacet.sol\":1008:1033  abiStorage[_contractAddr] */\n      0xffffffffffffffffffffffffffffffffffffffff\n      and\n      0xffffffffffffffffffffffffffffffffffffffff\n      and\n      dup2\n      mstore\n      0x20\n      add\n      swap1\n      dup2\n      mstore\n      0x20\n      add\n      0x00\n      keccak256\n        /* \"facets/CredentialEventFacet.sol\":1008:1044  abiStorage[_contractAddr] = _abiData */\n      swap1\n      dup1\n      mload\n      swap1\n      0x20\n      add\n      swap1\n      tag_21\n      swap3\n      swap2\n      swap1\n      tag_22\n      jump\t// in\n    tag_21:\n      pop\n        /* \"facets/CredentialEventFacet.sol\":893:1047  function storeAbi(address _contractAddr, bytes memory _abiData) public {... */\n      pop\n      pop\n      jump\t// out\n        /* \"facets/CredentialEventFacet.sol\":91:134  mapping(address => bytes) public abiStorage */\n    tag_13:\n      mstore(0x20, 0x00)\n      dup1\n      0x00\n      mstore\n      keccak256(0x00, 0x40)\n      0x00\n      swap2\n      pop\n      swap1\n      pop\n      dup1\n      sload\n      tag_23\n      swap1\n      tag_24\n      jump\t// in\n    tag_23:\n      dup1\n      0x1f\n      add\n      0x20\n      dup1\n      swap2\n      div\n      mul\n      0x20\n      add\n      mload(0x40)\n      swap1\n      dup2\n      add\n      0x40\n      mstore\n      dup1\n      swap3\n      swap2\n      swap1\n      dup2\n      dup2\n      mstore\n      0x20\n      add\n      dup3\n      dup1\n      sload\n      tag_25\n      swap1\n      tag_24\n      jump\t// in\n    tag_25:\n      dup1\n      iszero\n      tag_26\n      jumpi\n      dup1\n      0x1f\n      lt\n      tag_27\n      jumpi\n      0x0100\n      dup1\n      dup4\n      sload\n      div\n      mul\n      dup4\n      mstore\n      swap2\n      0x20\n      add\n      swap2\n      jump(tag_26)\n    tag_27:\n      dup3\n      add\n      swap2\n      swap1\n      0x00\n      mstore\n      keccak256(0x00, 0x20)\n      swap1\n    tag_28:\n      dup2\n      sload\n      dup2\n      mstore\n      swap1\n      0x01\n      add\n      swap1\n      0x20\n      add\n      dup1\n      dup4\n      gt\n      tag_28\n      jumpi\n      dup3\n      swap1\n      sub\n      0x1f\n      and\n      dup3\n      add\n      swap2\n    tag_26:\n      pop\n      pop\n      pop\n      pop\n      pop\n      dup2\n      jump\t// out\n        /* \"facets/CredentialEventFacet.sol\":284:891  function emitEvent(string memory _list_id, address _sender, address _contractAddr, string memory _funcName, bytes calldata _data) public {... */\n    tag_19:\n        /* \"facets/CredentialEventFacet.sol\":807:886  RequestCredentialsCallback(_list_id, _sender, _contractAddr, _funcName,  _data) */\n      0x37c3fbf03a160c29acc48ad2883e3c46f0041d8d41057b519658a7135a2afbf7\n        /* \"facets/CredentialEventFacet.sol\":834:842  _list_id */\n      dup7\n        /* \"facets/CredentialEventFacet.sol\":844:851  _sender */\n      dup7\n        /* \"facets/CredentialEventFacet.sol\":853:866  _contractAddr */\n      dup7\n        /* \"facets/CredentialEventFacet.sol\":868:877  _funcName */\n      dup7\n        /* \"facets/CredentialEventFacet.sol\":880:885  _data */\n      dup7\n      dup7\n        /* \"facets/CredentialEventFacet.sol\":807:886  RequestCredentialsCallback(_list_id, _sender, _contractAddr, _funcName,  _data) */\n      mload(0x40)\n      tag_30\n      swap7\n      swap6\n      swap5\n      swap4\n      swap3\n      swap2\n      swap1\n      tag_31\n      jump\t// in\n    tag_30:\n      mload(0x40)\n      dup1\n      swap2\n      sub\n      swap1\n      log1\n        /* \"facets/CredentialEventFacet.sol\":284:891  function emitEvent(string memory _list_id, address _sender, address _contractAddr, string memory _funcName, bytes calldata _data) public {... */\n      pop\n      pop\n      pop\n      pop\n      pop\n      pop\n      jump\t// out\n    tag_22:\n      dup3\n      dup1\n      sload\n      tag_32\n      swap1\n      tag_24\n      jump\t// in\n    tag_32:\n      swap1\n      0x00\n      mstore\n      keccak256(0x00, 0x20)\n      swap1\n      0x1f\n      add\n      0x20\n      swap1\n      div\n      dup2\n      add\n      swap3\n      dup3\n      tag_34\n      jumpi\n      0x00\n      dup6\n      sstore\n      jump(tag_33)\n    tag_34:\n      dup3\n      0x1f\n      lt\n      tag_35\n      jumpi\n      dup1\n      mload\n      not(0xff)\n      and\n      dup4\n      dup1\n      add\n      or\n      dup6\n      sstore\n      jump(tag_33)\n    tag_35:\n      dup3\n      dup1\n      add\n      0x01\n      add\n      dup6\n      sstore\n      dup3\n      iszero\n      tag_33\n      jumpi\n      swap2\n      dup3\n      add\n    tag_36:\n      dup3\n      dup2\n      gt\n      iszero\n      tag_37\n      jumpi\n      dup3\n      mload\n      dup3\n      sstore\n      swap2\n      0x20\n      add\n      swap2\n      swap1\n      0x01\n      add\n      swap1\n      jump(tag_36)\n    tag_37:\n    tag_33:\n      pop\n      swap1\n      pop\n      tag_38\n      swap2\n      swap1\n      tag_39\n      jump\t// in\n    tag_38:\n      pop\n      swap1\n      jump\t// out\n    tag_39:\n    tag_40:\n      dup1\n      dup3\n      gt\n      iszero\n      tag_41\n      jumpi\n      0x00\n      dup2\n      0x00\n      swap1\n      sstore\n      pop\n      0x01\n      add\n      jump(tag_40)\n    tag_41:\n      pop\n      swap1\n      jump\t// out\n        /* \"#utility.yul\":7:417   */\n    tag_43:\n        /* \"#utility.yul\":84:89   */\n      0x00\n        /* \"#utility.yul\":109:174   */\n      tag_45\n        /* \"#utility.yul\":125:173   */\n      tag_46\n        /* \"#utility.yul\":166:172   */\n      dup5\n        /* \"#utility.yul\":125:173   */\n      tag_47\n      jump\t// in\n    tag_46:\n        /* \"#utility.yul\":109:174   */\n      tag_48\n      jump\t// in\n    tag_45:\n        /* \"#utility.yul\":100:174   */\n      swap1\n      pop\n        /* \"#utility.yul\":197:203   */\n      dup3\n        /* \"#utility.yul\":190:195   */\n      dup2\n        /* \"#utility.yul\":183:204   */\n      mstore\n        /* \"#utility.yul\":235:239   */\n      0x20\n        /* \"#utility.yul\":228:233   */\n      dup2\n        /* \"#utility.yul\":224:240   */\n      add\n        /* \"#utility.yul\":273:276   */\n      dup5\n        /* \"#utility.yul\":264:270   */\n      dup5\n        /* \"#utility.yul\":259:262   */\n      dup5\n        /* \"#utility.yul\":255:271   */\n      add\n        /* \"#utility.yul\":252:277   */\n      gt\n        /* \"#utility.yul\":249:361   */\n      iszero\n      tag_49\n      jumpi\n        /* \"#utility.yul\":280:359   */\n      tag_50\n      tag_51\n      jump\t// in\n    tag_50:\n        /* \"#utility.yul\":249:361   */\n    tag_49:\n        /* \"#utility.yul\":370:411   */\n      tag_52\n        /* \"#utility.yul\":404:410   */\n      dup5\n        /* \"#utility.yul\":399:402   */\n      dup3\n        /* \"#utility.yul\":394:397   */\n      dup6\n        /* \"#utility.yul\":370:411   */\n      tag_53\n      jump\t// in\n    tag_52:\n        /* \"#utility.yul\":90:417   */\n      pop\n        /* \"#utility.yul\":7:417   */\n      swap4\n      swap3\n      pop\n      pop\n      pop\n      jump\t// out\n        /* \"#utility.yul\":423:835   */\n    tag_54:\n        /* \"#utility.yul\":501:506   */\n      0x00\n        /* \"#utility.yul\":526:592   */\n      tag_56\n        /* \"#utility.yul\":542:591   */\n      tag_57\n        /* \"#utility.yul\":584:590   */\n      dup5\n        /* \"#utility.yul\":542:591   */\n      tag_58\n      jump\t// in\n    tag_57:\n        /* \"#utility.yul\":526:592   */\n      tag_48\n      jump\t// in\n    tag_56:\n        /* \"#utility.yul\":517:592   */\n      swap1\n      pop\n        /* \"#utility.yul\":615:621   */\n      dup3\n        /* \"#utility.yul\":608:613   */\n      dup2\n        /* \"#utility.yul\":601:622   */\n      mstore\n        /* \"#utility.yul\":653:657   */\n      0x20\n        /* \"#utility.yul\":646:651   */\n      dup2\n        /* \"#utility.yul\":642:658   */\n      add\n        /* \"#utility.yul\":691:694   */\n      dup5\n        /* \"#utility.yul\":682:688   */\n      dup5\n        /* \"#utility.yul\":677:680   */\n      dup5\n        /* \"#utility.yul\":673:689   */\n      add\n        /* \"#utility.yul\":670:695   */\n      gt\n        /* \"#utility.yul\":667:779   */\n      iszero\n      tag_59\n      jumpi\n        /* \"#utility.yul\":698:777   */\n      tag_60\n      tag_51\n      jump\t// in\n    tag_60:\n        /* \"#utility.yul\":667:779   */\n    tag_59:\n        /* \"#utility.yul\":788:829   */\n      tag_61\n        /* \"#utility.yul\":822:828   */\n      dup5\n        /* \"#utility.yul\":817:820   */\n      dup3\n        /* \"#utility.yul\":812:815   */\n      dup6\n        /* \"#utility.yul\":788:829   */\n      tag_53\n      jump\t// in\n    tag_61:\n        /* \"#utility.yul\":507:835   */\n      pop\n        /* \"#utility.yul\":423:835   */\n      swap4\n      swap3\n      pop\n      pop\n      pop\n      jump\t// out\n        /* \"#utility.yul\":841:980   */\n    tag_62:\n        /* \"#utility.yul\":887:892   */\n      0x00\n        /* \"#utility.yul\":925:931   */\n      dup2\n        /* \"#utility.yul\":912:932   */\n      calldataload\n        /* \"#utility.yul\":903:932   */\n      swap1\n      pop\n        /* \"#utility.yul\":941:974   */\n      tag_64\n        /* \"#utility.yul\":968:973   */\n      dup2\n        /* \"#utility.yul\":941:974   */\n      tag_65\n      jump\t// in\n    tag_64:\n        /* \"#utility.yul\":841:980   */\n      swap3\n      swap2\n      pop\n      pop\n      jump\t// out\n        /* \"#utility.yul\":999:1551   */\n    tag_66:\n        /* \"#utility.yul\":1056:1064   */\n      0x00\n        /* \"#utility.yul\":1066:1072   */\n      dup1\n        /* \"#utility.yul\":1116:1119   */\n      dup4\n        /* \"#utility.yul\":1109:1113   */\n      0x1f\n        /* \"#utility.yul\":1101:1107   */\n      dup5\n        /* \"#utility.yul\":1097:1114   */\n      add\n        /* \"#utility.yul\":1093:1120   */\n      slt\n        /* \"#utility.yul\":1083:1205   */\n      tag_68\n      jumpi\n        /* \"#utility.yul\":1124:1203   */\n      tag_69\n      tag_70\n      jump\t// in\n    tag_69:\n        /* \"#utility.yul\":1083:1205   */\n    tag_68:\n        /* \"#utility.yul\":1237:1243   */\n      dup3\n        /* \"#utility.yul\":1224:1244   */\n      calldataload\n        /* \"#utility.yul\":1214:1244   */\n      swap1\n      pop\n        /* \"#utility.yul\":1267:1285   */\n      0xffffffffffffffff\n        /* \"#utility.yul\":1259:1265   */\n      dup2\n        /* \"#utility.yul\":1256:1286   */\n      gt\n        /* \"#utility.yul\":1253:1370   */\n      iszero\n      tag_71\n      jumpi\n        /* \"#utility.yul\":1289:1368   */\n      tag_72\n      tag_73\n      jump\t// in\n    tag_72:\n        /* \"#utility.yul\":1253:1370   */\n    tag_71:\n        /* \"#utility.yul\":1403:1407   */\n      0x20\n        /* \"#utility.yul\":1395:1401   */\n      dup4\n        /* \"#utility.yul\":1391:1408   */\n      add\n        /* \"#utility.yul\":1379:1408   */\n      swap2\n      pop\n        /* \"#utility.yul\":1457:1460   */\n      dup4\n        /* \"#utility.yul\":1449:1453   */\n      0x01\n        /* \"#utility.yul\":1441:1447   */\n      dup3\n        /* \"#utility.yul\":1437:1454   */\n      mul\n        /* \"#utility.yul\":1427:1435   */\n      dup4\n        /* \"#utility.yul\":1423:1455   */\n      add\n        /* \"#utility.yul\":1420:1461   */\n      gt\n        /* \"#utility.yul\":1417:1545   */\n      iszero\n      tag_74\n      jumpi\n        /* \"#utility.yul\":1464:1543   */\n      tag_75\n      tag_76\n      jump\t// in\n    tag_75:\n        /* \"#utility.yul\":1417:1545   */\n    tag_74:\n        /* \"#utility.yul\":999:1551   */\n      swap3\n      pop\n      swap3\n      swap1\n      pop\n      jump\t// out\n        /* \"#utility.yul\":1570:1908   */\n    tag_77:\n        /* \"#utility.yul\":1625:1630   */\n      0x00\n        /* \"#utility.yul\":1674:1677   */\n      dup3\n        /* \"#utility.yul\":1667:1671   */\n      0x1f\n        /* \"#utility.yul\":1659:1665   */\n      dup4\n        /* \"#utility.yul\":1655:1672   */\n      add\n        /* \"#utility.yul\":1651:1678   */\n      slt\n        /* \"#utility.yul\":1641:1763   */\n      tag_79\n      jumpi\n        /* \"#utility.yul\":1682:1761   */\n      tag_80\n      tag_70\n      jump\t// in\n    tag_80:\n        /* \"#utility.yul\":1641:1763   */\n    tag_79:\n        /* \"#utility.yul\":1799:1805   */\n      dup2\n        /* \"#utility.yul\":1786:1806   */\n      calldataload\n        /* \"#utility.yul\":1824:1902   */\n      tag_81\n        /* \"#utility.yul\":1898:1901   */\n      dup5\n        /* \"#utility.yul\":1890:1896   */\n      dup3\n        /* \"#utility.yul\":1883:1887   */\n      0x20\n        /* \"#utility.yul\":1875:1881   */\n      dup7\n        /* \"#utility.yul\":1871:1888   */\n      add\n        /* \"#utility.yul\":1824:1902   */\n      tag_43\n      jump\t// in\n    tag_81:\n        /* \"#utility.yul\":1815:1902   */\n      swap2\n      pop\n        /* \"#utility.yul\":1631:1908   */\n      pop\n        /* \"#utility.yul\":1570:1908   */\n      swap3\n      swap2\n      pop\n      pop\n      jump\t// out\n        /* \"#utility.yul\":1928:2268   */\n    tag_82:\n        /* \"#utility.yul\":1984:1989   */\n      0x00\n        /* \"#utility.yul\":2033:2036   */\n      dup3\n        /* \"#utility.yul\":2026:2030   */\n      0x1f\n        /* \"#utility.yul\":2018:2024   */\n      dup4\n        /* \"#utility.yul\":2014:2031   */\n      add\n        /* \"#utility.yul\":2010:2037   */\n      slt\n        /* \"#utility.yul\":2000:2122   */\n      tag_84\n      jumpi\n        /* \"#utility.yul\":2041:2120   */\n      tag_85\n      tag_70\n      jump\t// in\n    tag_85:\n        /* \"#utility.yul\":2000:2122   */\n    tag_84:\n        /* \"#utility.yul\":2158:2164   */\n      dup2\n        /* \"#utility.yul\":2145:2165   */\n      calldataload\n        /* \"#utility.yul\":2183:2262   */\n      tag_86\n        /* \"#utility.yul\":2258:2261   */\n      dup5\n        /* \"#utility.yul\":2250:2256   */\n      dup3\n        /* \"#utility.yul\":2243:2247   */\n      0x20\n        /* \"#utility.yul\":2235:2241   */\n      dup7\n        /* \"#utility.yul\":2231:2248   */\n      add\n        /* \"#utility.yul\":2183:2262   */\n      tag_54\n      jump\t// in\n    tag_86:\n        /* \"#utility.yul\":2174:2262   */\n      swap2\n      pop\n        /* \"#utility.yul\":1990:2268   */\n      pop\n        /* \"#utility.yul\":1928:2268   */\n      swap3\n      swap2\n      pop\n      pop\n      jump\t// out\n        /* \"#utility.yul\":2274:2603   */\n    tag_12:\n        /* \"#utility.yul\":2333:2339   */\n      0x00\n        /* \"#utility.yul\":2382:2384   */\n      0x20\n        /* \"#utility.yul\":2370:2379   */\n      dup3\n        /* \"#utility.yul\":2361:2368   */\n      dup5\n        /* \"#utility.yul\":2357:2380   */\n      sub\n        /* \"#utility.yul\":2353:2385   */\n      slt\n        /* \"#utility.yul\":2350:2469   */\n      iszero\n      tag_88\n      jumpi\n        /* \"#utility.yul\":2388:2467   */\n      tag_89\n      tag_90\n      jump\t// in\n    tag_89:\n        /* \"#utility.yul\":2350:2469   */\n    tag_88:\n        /* \"#utility.yul\":2508:2509   */\n      0x00\n        /* \"#utility.yul\":2533:2586   */\n      tag_91\n        /* \"#utility.yul\":2578:2585   */\n      dup5\n        /* \"#utility.yul\":2569:2575   */\n      dup3\n        /* \"#utility.yul\":2558:2567   */\n      dup6\n        /* \"#utility.yul\":2554:2576   */\n      add\n        /* \"#utility.yul\":2533:2586   */\n      tag_62\n      jump\t// in\n    tag_91:\n        /* \"#utility.yul\":2523:2586   */\n      swap2\n      pop\n        /* \"#utility.yul\":2479:2596   */\n      pop\n        /* \"#utility.yul\":2274:2603   */\n      swap3\n      swap2\n      pop\n      pop\n      jump\t// out\n        /* \"#utility.yul\":2609:3261   */\n    tag_8:\n        /* \"#utility.yul\":2686:2692   */\n      0x00\n        /* \"#utility.yul\":2694:2700   */\n      dup1\n        /* \"#utility.yul\":2743:2745   */\n      0x40\n        /* \"#utility.yul\":2731:2740   */\n      dup4\n        /* \"#utility.yul\":2722:2729   */\n      dup6\n        /* \"#utility.yul\":2718:2741   */\n      sub\n        /* \"#utility.yul\":2714:2746   */\n      slt\n        /* \"#utility.yul\":2711:2830   */\n      iszero\n      tag_93\n      jumpi\n        /* \"#utility.yul\":2749:2828   */\n      tag_94\n      tag_90\n      jump\t// in\n    tag_94:\n        /* \"#utility.yul\":2711:2830   */\n    tag_93:\n        /* \"#utility.yul\":2869:2870   */\n      0x00\n        /* \"#utility.yul\":2894:2947   */\n      tag_95\n        /* \"#utility.yul\":2939:2946   */\n      dup6\n        /* \"#utility.yul\":2930:2936   */\n      dup3\n        /* \"#utility.yul\":2919:2928   */\n      dup7\n        /* \"#utility.yul\":2915:2937   */\n      add\n        /* \"#utility.yul\":2894:2947   */\n      tag_62\n      jump\t// in\n    tag_95:\n        /* \"#utility.yul\":2884:2947   */\n      swap3\n      pop\n        /* \"#utility.yul\":2840:2957   */\n      pop\n        /* \"#utility.yul\":3024:3026   */\n      0x20\n        /* \"#utility.yul\":3013:3022   */\n      dup4\n        /* \"#utility.yul\":3009:3027   */\n      add\n        /* \"#utility.yul\":2996:3028   */\n      calldataload\n        /* \"#utility.yul\":3055:3073   */\n      0xffffffffffffffff\n        /* \"#utility.yul\":3047:3053   */\n      dup2\n        /* \"#utility.yul\":3044:3074   */\n      gt\n        /* \"#utility.yul\":3041:3158   */\n      iszero\n      tag_96\n      jumpi\n        /* \"#utility.yul\":3077:3156   */\n      tag_97\n      tag_98\n      jump\t// in\n    tag_97:\n        /* \"#utility.yul\":3041:3158   */\n    tag_96:\n        /* \"#utility.yul\":3182:3244   */\n      tag_99\n        /* \"#utility.yul\":3236:3243   */\n      dup6\n        /* \"#utility.yul\":3227:3233   */\n      dup3\n        /* \"#utility.yul\":3216:3225   */\n      dup7\n        /* \"#utility.yul\":3212:3234   */\n      add\n        /* \"#utility.yul\":3182:3244   */\n      tag_77\n      jump\t// in\n    tag_99:\n        /* \"#utility.yul\":3172:3244   */\n      swap2\n      pop\n        /* \"#utility.yul\":2967:3254   */\n      pop\n        /* \"#utility.yul\":2609:3261   */\n      swap3\n      pop\n      swap3\n      swap1\n      pop\n      jump\t// out\n        /* \"#utility.yul\":3267:4736   */\n    tag_18:\n        /* \"#utility.yul\":3393:3399   */\n      0x00\n        /* \"#utility.yul\":3401:3407   */\n      dup1\n        /* \"#utility.yul\":3409:3415   */\n      0x00\n        /* \"#utility.yul\":3417:3423   */\n      dup1\n        /* \"#utility.yul\":3425:3431   */\n      0x00\n        /* \"#utility.yul\":3433:3439   */\n      dup1\n        /* \"#utility.yul\":3482:3485   */\n      0xa0\n        /* \"#utility.yul\":3470:3479   */\n      dup8\n        /* \"#utility.yul\":3461:3468   */\n      dup10\n        /* \"#utility.yul\":3457:3480   */\n      sub\n        /* \"#utility.yul\":3453:3486   */\n      slt\n        /* \"#utility.yul\":3450:3570   */\n      iszero\n      tag_101\n      jumpi\n        /* \"#utility.yul\":3489:3568   */\n      tag_102\n      tag_90\n      jump\t// in\n    tag_102:\n        /* \"#utility.yul\":3450:3570   */\n    tag_101:\n        /* \"#utility.yul\":3637:3638   */\n      0x00\n        /* \"#utility.yul\":3626:3635   */\n      dup8\n        /* \"#utility.yul\":3622:3639   */\n      add\n        /* \"#utility.yul\":3609:3640   */\n      calldataload\n        /* \"#utility.yul\":3667:3685   */\n      0xffffffffffffffff\n        /* \"#utility.yul\":3659:3665   */\n      dup2\n        /* \"#utility.yul\":3656:3686   */\n      gt\n        /* \"#utility.yul\":3653:3770   */\n      iszero\n      tag_103\n      jumpi\n        /* \"#utility.yul\":3689:3768   */\n      tag_104\n      tag_98\n      jump\t// in\n    tag_104:\n        /* \"#utility.yul\":3653:3770   */\n    tag_103:\n        /* \"#utility.yul\":3794:3857   */\n      tag_105\n        /* \"#utility.yul\":3849:3856   */\n      dup10\n        /* \"#utility.yul\":3840:3846   */\n      dup3\n        /* \"#utility.yul\":3829:3838   */\n      dup11\n        /* \"#utility.yul\":3825:3847   */\n      add\n        /* \"#utility.yul\":3794:3857   */\n      tag_82\n      jump\t// in\n    tag_105:\n        /* \"#utility.yul\":3784:3857   */\n      swap7\n      pop\n        /* \"#utility.yul\":3580:3867   */\n      pop\n        /* \"#utility.yul\":3906:3908   */\n      0x20\n        /* \"#utility.yul\":3932:3985   */\n      tag_106\n        /* \"#utility.yul\":3977:3984   */\n      dup10\n        /* \"#utility.yul\":3968:3974   */\n      dup3\n        /* \"#utility.yul\":3957:3966   */\n      dup11\n        /* \"#utility.yul\":3953:3975   */\n      add\n        /* \"#utility.yul\":3932:3985   */\n      tag_62\n      jump\t// in\n    tag_106:\n        /* \"#utility.yul\":3922:3985   */\n      swap6\n      pop\n        /* \"#utility.yul\":3877:3995   */\n      pop\n        /* \"#utility.yul\":4034:4036   */\n      0x40\n        /* \"#utility.yul\":4060:4113   */\n      tag_107\n        /* \"#utility.yul\":4105:4112   */\n      dup10\n        /* \"#utility.yul\":4096:4102   */\n      dup3\n        /* \"#utility.yul\":4085:4094   */\n      dup11\n        /* \"#utility.yul\":4081:4103   */\n      add\n        /* \"#utility.yul\":4060:4113   */\n      tag_62\n      jump\t// in\n    tag_107:\n        /* \"#utility.yul\":4050:4113   */\n      swap5\n      pop\n        /* \"#utility.yul\":4005:4123   */\n      pop\n        /* \"#utility.yul\":4190:4192   */\n      0x60\n        /* \"#utility.yul\":4179:4188   */\n      dup8\n        /* \"#utility.yul\":4175:4193   */\n      add\n        /* \"#utility.yul\":4162:4194   */\n      calldataload\n        /* \"#utility.yul\":4221:4239   */\n      0xffffffffffffffff\n        /* \"#utility.yul\":4213:4219   */\n      dup2\n        /* \"#utility.yul\":4210:4240   */\n      gt\n        /* \"#utility.yul\":4207:4324   */\n      iszero\n      tag_108\n      jumpi\n        /* \"#utility.yul\":4243:4322   */\n      tag_109\n      tag_98\n      jump\t// in\n    tag_109:\n        /* \"#utility.yul\":4207:4324   */\n    tag_108:\n        /* \"#utility.yul\":4348:4411   */\n      tag_110\n        /* \"#utility.yul\":4403:4410   */\n      dup10\n        /* \"#utility.yul\":4394:4400   */\n      dup3\n        /* \"#utility.yul\":4383:4392   */\n      dup11\n        /* \"#utility.yul\":4379:4401   */\n      add\n        /* \"#utility.yul\":4348:4411   */\n      tag_82\n      jump\t// in\n    tag_110:\n        /* \"#utility.yul\":4338:4411   */\n      swap4\n      pop\n        /* \"#utility.yul\":4133:4421   */\n      pop\n        /* \"#utility.yul\":4488:4491   */\n      0x80\n        /* \"#utility.yul\":4477:4486   */\n      dup8\n        /* \"#utility.yul\":4473:4492   */\n      add\n        /* \"#utility.yul\":4460:4493   */\n      calldataload\n        /* \"#utility.yul\":4520:4538   */\n      0xffffffffffffffff\n        /* \"#utility.yul\":4512:4518   */\n      dup2\n        /* \"#utility.yul\":4509:4539   */\n      gt\n        /* \"#utility.yul\":4506:4623   */\n      iszero\n      tag_111\n      jumpi\n        /* \"#utility.yul\":4542:4621   */\n      tag_112\n      tag_98\n      jump\t// in\n    tag_112:\n        /* \"#utility.yul\":4506:4623   */\n    tag_111:\n        /* \"#utility.yul\":4655:4719   */\n      tag_113\n        /* \"#utility.yul\":4711:4718   */\n      dup10\n        /* \"#utility.yul\":4702:4708   */\n      dup3\n        /* \"#utility.yul\":4691:4700   */\n      dup11\n        /* \"#utility.yul\":4687:4709   */\n      add\n        /* \"#utility.yul\":4655:4719   */\n      tag_66\n      jump\t// in\n    tag_113:\n        /* \"#utility.yul\":4637:4719   */\n      swap3\n      pop\n      swap3\n      pop\n        /* \"#utility.yul\":4431:4729   */\n      pop\n        /* \"#utility.yul\":3267:4736   */\n      swap3\n      swap6\n      pop\n      swap3\n      swap6\n      pop\n      swap3\n      swap6\n      jump\t// out\n        /* \"#utility.yul\":4742:4860   */\n    tag_114:\n        /* \"#utility.yul\":4829:4853   */\n      tag_116\n        /* \"#utility.yul\":4847:4852   */\n      dup2\n        /* \"#utility.yul\":4829:4853   */\n      tag_117\n      jump\t// in\n    tag_116:\n        /* \"#utility.yul\":4824:4827   */\n      dup3\n        /* \"#utility.yul\":4817:4854   */\n      mstore\n        /* \"#utility.yul\":4742:4860   */\n      pop\n      pop\n      jump\t// out\n        /* \"#utility.yul\":4888:5189   */\n    tag_118:\n        /* \"#utility.yul\":4984:4987   */\n      0x00\n        /* \"#utility.yul\":5005:5075   */\n      tag_120\n        /* \"#utility.yul\":5068:5074   */\n      dup4\n        /* \"#utility.yul\":5063:5066   */\n      dup6\n        /* \"#utility.yul\":5005:5075   */\n      tag_121\n      jump\t// in\n    tag_120:\n        /* \"#utility.yul\":4998:5075   */\n      swap4\n      pop\n        /* \"#utility.yul\":5085:5128   */\n      tag_122\n        /* \"#utility.yul\":5121:5127   */\n      dup4\n        /* \"#utility.yul\":5116:5119   */\n      dup6\n        /* \"#utility.yul\":5109:5114   */\n      dup5\n        /* \"#utility.yul\":5085:5128   */\n      tag_53\n      jump\t// in\n    tag_122:\n        /* \"#utility.yul\":5153:5182   */\n      tag_123\n        /* \"#utility.yul\":5175:5181   */\n      dup4\n        /* \"#utility.yul\":5153:5182   */\n      tag_124\n      jump\t// in\n    tag_123:\n        /* \"#utility.yul\":5148:5151   */\n      dup5\n        /* \"#utility.yul\":5144:5183   */\n      add\n        /* \"#utility.yul\":5137:5183   */\n      swap1\n      pop\n        /* \"#utility.yul\":4888:5189   */\n      swap4\n      swap3\n      pop\n      pop\n      pop\n      jump\t// out\n        /* \"#utility.yul\":5195:5555   */\n    tag_125:\n        /* \"#utility.yul\":5281:5284   */\n      0x00\n        /* \"#utility.yul\":5309:5347   */\n      tag_127\n        /* \"#utility.yul\":5341:5346   */\n      dup3\n        /* \"#utility.yul\":5309:5347   */\n      tag_128\n      jump\t// in\n    tag_127:\n        /* \"#utility.yul\":5363:5433   */\n      tag_129\n        /* \"#utility.yul\":5426:5432   */\n      dup2\n        /* \"#utility.yul\":5421:5424   */\n      dup6\n        /* \"#utility.yul\":5363:5433   */\n      tag_121\n      jump\t// in\n    tag_129:\n        /* \"#utility.yul\":5356:5433   */\n      swap4\n      pop\n        /* \"#utility.yul\":5442:5494   */\n      tag_130\n        /* \"#utility.yul\":5487:5493   */\n      dup2\n        /* \"#utility.yul\":5482:5485   */\n      dup6\n        /* \"#utility.yul\":5475:5479   */\n      0x20\n        /* \"#utility.yul\":5468:5473   */\n      dup7\n        /* \"#utility.yul\":5464:5480   */\n      add\n        /* \"#utility.yul\":5442:5494   */\n      tag_131\n      jump\t// in\n    tag_130:\n        /* \"#utility.yul\":5519:5548   */\n      tag_132\n        /* \"#utility.yul\":5541:5547   */\n      dup2\n        /* \"#utility.yul\":5519:5548   */\n      tag_124\n      jump\t// in\n    tag_132:\n        /* \"#utility.yul\":5514:5517   */\n      dup5\n        /* \"#utility.yul\":5510:5549   */\n      add\n        /* \"#utility.yul\":5503:5549   */\n      swap2\n      pop\n        /* \"#utility.yul\":5285:5555   */\n      pop\n        /* \"#utility.yul\":5195:5555   */\n      swap3\n      swap2\n      pop\n      pop\n      jump\t// out\n        /* \"#utility.yul\":5561:5925   */\n    tag_133:\n        /* \"#utility.yul\":5649:5652   */\n      0x00\n        /* \"#utility.yul\":5677:5716   */\n      tag_135\n        /* \"#utility.yul\":5710:5715   */\n      dup3\n        /* \"#utility.yul\":5677:5716   */\n      tag_136\n      jump\t// in\n    tag_135:\n        /* \"#utility.yul\":5732:5803   */\n      tag_137\n        /* \"#utility.yul\":5796:5802   */\n      dup2\n        /* \"#utility.yul\":5791:5794   */\n      dup6\n        /* \"#utility.yul\":5732:5803   */\n      tag_138\n      jump\t// in\n    tag_137:\n        /* \"#utility.yul\":5725:5803   */\n      swap4\n      pop\n        /* \"#utility.yul\":5812:5864   */\n      tag_139\n        /* \"#utility.yul\":5857:5863   */\n      dup2\n        /* \"#utility.yul\":5852:5855   */\n      dup6\n        /* \"#utility.yul\":5845:5849   */\n      0x20\n        /* \"#utility.yul\":5838:5843   */\n      dup7\n        /* \"#utility.yul\":5834:5850   */\n      add\n        /* \"#utility.yul\":5812:5864   */\n      tag_131\n      jump\t// in\n    tag_139:\n        /* \"#utility.yul\":5889:5918   */\n      tag_140\n        /* \"#utility.yul\":5911:5917   */\n      dup2\n        /* \"#utility.yul\":5889:5918   */\n      tag_124\n      jump\t// in\n    tag_140:\n        /* \"#utility.yul\":5884:5887   */\n      dup5\n        /* \"#utility.yul\":5880:5919   */\n      add\n        /* \"#utility.yul\":5873:5919   */\n      swap2\n      pop\n        /* \"#utility.yul\":5653:5925   */\n      pop\n        /* \"#utility.yul\":5561:5925   */\n      swap3\n      swap2\n      pop\n      pop\n      jump\t// out\n        /* \"#utility.yul\":5931:6240   */\n    tag_15:\n        /* \"#utility.yul\":6042:6046   */\n      0x00\n        /* \"#utility.yul\":6080:6082   */\n      0x20\n        /* \"#utility.yul\":6069:6078   */\n      dup3\n        /* \"#utility.yul\":6065:6083   */\n      add\n        /* \"#utility.yul\":6057:6083   */\n      swap1\n      pop\n        /* \"#utility.yul\":6129:6138   */\n      dup2\n        /* \"#utility.yul\":6123:6127   */\n      dup2\n        /* \"#utility.yul\":6119:6139   */\n      sub\n        /* \"#utility.yul\":6115:6116   */\n      0x00\n        /* \"#utility.yul\":6104:6113   */\n      dup4\n        /* \"#utility.yul\":6100:6117   */\n      add\n        /* \"#utility.yul\":6093:6140   */\n      mstore\n        /* \"#utility.yul\":6157:6233   */\n      tag_142\n        /* \"#utility.yul\":6228:6232   */\n      dup2\n        /* \"#utility.yul\":6219:6225   */\n      dup5\n        /* \"#utility.yul\":6157:6233   */\n      tag_125\n      jump\t// in\n    tag_142:\n        /* \"#utility.yul\":6149:6233   */\n      swap1\n      pop\n        /* \"#utility.yul\":5931:6240   */\n      swap3\n      swap2\n      pop\n      pop\n      jump\t// out\n        /* \"#utility.yul\":6246:7199   */\n    tag_31:\n        /* \"#utility.yul\":6519:6523   */\n      0x00\n        /* \"#utility.yul\":6557:6560   */\n      0xa0\n        /* \"#utility.yul\":6546:6555   */\n      dup3\n        /* \"#utility.yul\":6542:6561   */\n      add\n        /* \"#utility.yul\":6534:6561   */\n      swap1\n      pop\n        /* \"#utility.yul\":6607:6616   */\n      dup2\n        /* \"#utility.yul\":6601:6605   */\n      dup2\n        /* \"#utility.yul\":6597:6617   */\n      sub\n        /* \"#utility.yul\":6593:6594   */\n      0x00\n        /* \"#utility.yul\":6582:6591   */\n      dup4\n        /* \"#utility.yul\":6578:6595   */\n      add\n        /* \"#utility.yul\":6571:6618   */\n      mstore\n        /* \"#utility.yul\":6635:6713   */\n      tag_144\n        /* \"#utility.yul\":6708:6712   */\n      dup2\n        /* \"#utility.yul\":6699:6705   */\n      dup10\n        /* \"#utility.yul\":6635:6713   */\n      tag_133\n      jump\t// in\n    tag_144:\n        /* \"#utility.yul\":6627:6713   */\n      swap1\n      pop\n        /* \"#utility.yul\":6723:6795   */\n      tag_145\n        /* \"#utility.yul\":6791:6793   */\n      0x20\n        /* \"#utility.yul\":6780:6789   */\n      dup4\n        /* \"#utility.yul\":6776:6794   */\n      add\n        /* \"#utility.yul\":6767:6773   */\n      dup9\n        /* \"#utility.yul\":6723:6795   */\n      tag_114\n      jump\t// in\n    tag_145:\n        /* \"#utility.yul\":6805:6877   */\n      tag_146\n        /* \"#utility.yul\":6873:6875   */\n      0x40\n        /* \"#utility.yul\":6862:6871   */\n      dup4\n        /* \"#utility.yul\":6858:6876   */\n      add\n        /* \"#utility.yul\":6849:6855   */\n      dup8\n        /* \"#utility.yul\":6805:6877   */\n      tag_114\n      jump\t// in\n    tag_146:\n        /* \"#utility.yul\":6924:6933   */\n      dup2\n        /* \"#utility.yul\":6918:6922   */\n      dup2\n        /* \"#utility.yul\":6914:6934   */\n      sub\n        /* \"#utility.yul\":6909:6911   */\n      0x60\n        /* \"#utility.yul\":6898:6907   */\n      dup4\n        /* \"#utility.yul\":6894:6912   */\n      add\n        /* \"#utility.yul\":6887:6935   */\n      mstore\n        /* \"#utility.yul\":6952:7030   */\n      tag_147\n        /* \"#utility.yul\":7025:7029   */\n      dup2\n        /* \"#utility.yul\":7016:7022   */\n      dup7\n        /* \"#utility.yul\":6952:7030   */\n      tag_133\n      jump\t// in\n    tag_147:\n        /* \"#utility.yul\":6944:7030   */\n      swap1\n      pop\n        /* \"#utility.yul\":7078:7087   */\n      dup2\n        /* \"#utility.yul\":7072:7076   */\n      dup2\n        /* \"#utility.yul\":7068:7088   */\n      sub\n        /* \"#utility.yul\":7062:7065   */\n      0x80\n        /* \"#utility.yul\":7051:7060   */\n      dup4\n        /* \"#utility.yul\":7047:7066   */\n      add\n        /* \"#utility.yul\":7040:7089   */\n      mstore\n        /* \"#utility.yul\":7106:7192   */\n      tag_148\n        /* \"#utility.yul\":7187:7191   */\n      dup2\n        /* \"#utility.yul\":7178:7184   */\n      dup5\n        /* \"#utility.yul\":7170:7176   */\n      dup7\n        /* \"#utility.yul\":7106:7192   */\n      tag_118\n      jump\t// in\n    tag_148:\n        /* \"#utility.yul\":7098:7192   */\n      swap1\n      pop\n        /* \"#utility.yul\":6246:7199   */\n      swap8\n      swap7\n      pop\n      pop\n      pop\n      pop\n      pop\n      pop\n      pop\n      jump\t// out\n        /* \"#utility.yul\":7205:7334   */\n    tag_48:\n        /* \"#utility.yul\":7239:7245   */\n      0x00\n        /* \"#utility.yul\":7266:7286   */\n      tag_150\n      tag_151\n      jump\t// in\n    tag_150:\n        /* \"#utility.yul\":7256:7286   */\n      swap1\n      pop\n        /* \"#utility.yul\":7295:7328   */\n      tag_152\n        /* \"#utility.yul\":7323:7327   */\n      dup3\n        /* \"#utility.yul\":7315:7321   */\n      dup3\n        /* \"#utility.yul\":7295:7328   */\n      tag_153\n      jump\t// in\n    tag_152:\n        /* \"#utility.yul\":7205:7334   */\n      swap2\n      swap1\n      pop\n      jump\t// out\n        /* \"#utility.yul\":7340:7415   */\n    tag_151:\n        /* \"#utility.yul\":7373:7379   */\n      0x00\n        /* \"#utility.yul\":7406:7408   */\n      0x40\n        /* \"#utility.yul\":7400:7409   */\n      mload\n        /* \"#utility.yul\":7390:7409   */\n      swap1\n      pop\n        /* \"#utility.yul\":7340:7415   */\n      swap1\n      jump\t// out\n        /* \"#utility.yul\":7421:7728   */\n    tag_47:\n        /* \"#utility.yul\":7482:7486   */\n      0x00\n        /* \"#utility.yul\":7572:7590   */\n      0xffffffffffffffff\n        /* \"#utility.yul\":7564:7570   */\n      dup3\n        /* \"#utility.yul\":7561:7591   */\n      gt\n        /* \"#utility.yul\":7558:7614   */\n      iszero\n      tag_156\n      jumpi\n        /* \"#utility.yul\":7594:7612   */\n      tag_157\n      tag_158\n      jump\t// in\n    tag_157:\n        /* \"#utility.yul\":7558:7614   */\n    tag_156:\n        /* \"#utility.yul\":7632:7661   */\n      tag_159\n        /* \"#utility.yul\":7654:7660   */\n      dup3\n        /* \"#utility.yul\":7632:7661   */\n      tag_124\n      jump\t// in\n    tag_159:\n        /* \"#utility.yul\":7624:7661   */\n      swap1\n      pop\n        /* \"#utility.yul\":7716:7720   */\n      0x20\n        /* \"#utility.yul\":7710:7714   */\n      dup2\n        /* \"#utility.yul\":7706:7721   */\n      add\n        /* \"#utility.yul\":7698:7721   */\n      swap1\n      pop\n        /* \"#utility.yul\":7421:7728   */\n      swap2\n      swap1\n      pop\n      jump\t// out\n        /* \"#utility.yul\":7734:8042   */\n    tag_58:\n        /* \"#utility.yul\":7796:7800   */\n      0x00\n        /* \"#utility.yul\":7886:7904   */\n      0xffffffffffffffff\n        /* \"#utility.yul\":7878:7884   */\n      dup3\n        /* \"#utility.yul\":7875:7905   */\n      gt\n        /* \"#utility.yul\":7872:7928   */\n      iszero\n      tag_161\n      jumpi\n        /* \"#utility.yul\":7908:7926   */\n      tag_162\n      tag_158\n      jump\t// in\n    tag_162:\n        /* \"#utility.yul\":7872:7928   */\n    tag_161:\n        /* \"#utility.yul\":7946:7975   */\n      tag_163\n        /* \"#utility.yul\":7968:7974   */\n      dup3\n        /* \"#utility.yul\":7946:7975   */\n      tag_124\n      jump\t// in\n    tag_163:\n        /* \"#utility.yul\":7938:7975   */\n      swap1\n      pop\n        /* \"#utility.yul\":8030:8034   */\n      0x20\n        /* \"#utility.yul\":8024:8028   */\n      dup2\n        /* \"#utility.yul\":8020:8035   */\n      add\n        /* \"#utility.yul\":8012:8035   */\n      swap1\n      pop\n        /* \"#utility.yul\":7734:8042   */\n      swap2\n      swap1\n      pop\n      jump\t// out\n        /* \"#utility.yul\":8048:8146   */\n    tag_128:\n        /* \"#utility.yul\":8099:8105   */\n      0x00\n        /* \"#utility.yul\":8133:8138   */\n      dup2\n        /* \"#utility.yul\":8127:8139   */\n      mload\n        /* \"#utility.yul\":8117:8139   */\n      swap1\n      pop\n        /* \"#utility.yul\":8048:8146   */\n      swap2\n      swap1\n      pop\n      jump\t// out\n        /* \"#utility.yul\":8152:8251   */\n    tag_136:\n        /* \"#utility.yul\":8204:8210   */\n      0x00\n        /* \"#utility.yul\":8238:8243   */\n      dup2\n        /* \"#utility.yul\":8232:8244   */\n      mload\n        /* \"#utility.yul\":8222:8244   */\n      swap1\n      pop\n        /* \"#utility.yul\":8152:8251   */\n      swap2\n      swap1\n      pop\n      jump\t// out\n        /* \"#utility.yul\":8257:8425   */\n    tag_121:\n        /* \"#utility.yul\":8340:8351   */\n      0x00\n        /* \"#utility.yul\":8374:8380   */\n      dup3\n        /* \"#utility.yul\":8369:8372   */\n      dup3\n        /* \"#utility.yul\":8362:8381   */\n      mstore\n        /* \"#utility.yul\":8414:8418   */\n      0x20\n        /* \"#utility.yul\":8409:8412   */\n      dup3\n        /* \"#utility.yul\":8405:8419   */\n      add\n        /* \"#utility.yul\":8390:8419   */\n      swap1\n      pop\n        /* \"#utility.yul\":8257:8425   */\n      swap3\n      swap2\n      pop\n      pop\n      jump\t// out\n        /* \"#utility.yul\":8431:8600   */\n    tag_138:\n        /* \"#utility.yul\":8515:8526   */\n      0x00\n        /* \"#utility.yul\":8549:8555   */\n      dup3\n        /* \"#utility.yul\":8544:8547   */\n      dup3\n        /* \"#utility.yul\":8537:8556   */\n      mstore\n        /* \"#utility.yul\":8589:8593   */\n      0x20\n        /* \"#utility.yul\":8584:8587   */\n      dup3\n        /* \"#utility.yul\":8580:8594   */\n      add\n        /* \"#utility.yul\":8565:8594   */\n      swap1\n      pop\n        /* \"#utility.yul\":8431:8600   */\n      swap3\n      swap2\n      pop\n      pop\n      jump\t// out\n        /* \"#utility.yul\":8606:8702   */\n    tag_117:\n        /* \"#utility.yul\":8643:8650   */\n      0x00\n        /* \"#utility.yul\":8672:8696   */\n      tag_169\n        /* \"#utility.yul\":8690:8695   */\n      dup3\n        /* \"#utility.yul\":8672:8696   */\n      tag_170\n      jump\t// in\n    tag_169:\n        /* \"#utility.yul\":8661:8696   */\n      swap1\n      pop\n        /* \"#utility.yul\":8606:8702   */\n      swap2\n      swap1\n      pop\n      jump\t// out\n        /* \"#utility.yul\":8708:8834   */\n    tag_170:\n        /* \"#utility.yul\":8745:8752   */\n      0x00\n        /* \"#utility.yul\":8785:8827   */\n      0xffffffffffffffffffffffffffffffffffffffff\n        /* \"#utility.yul\":8778:8783   */\n      dup3\n        /* \"#utility.yul\":8774:8828   */\n      and\n        /* \"#utility.yul\":8763:8828   */\n      swap1\n      pop\n        /* \"#utility.yul\":8708:8834   */\n      swap2\n      swap1\n      pop\n      jump\t// out\n        /* \"#utility.yul\":8840:8994   */\n    tag_53:\n        /* \"#utility.yul\":8924:8930   */\n      dup3\n        /* \"#utility.yul\":8919:8922   */\n      dup2\n        /* \"#utility.yul\":8914:8917   */\n      dup4\n        /* \"#utility.yul\":8901:8931   */\n      calldatacopy\n        /* \"#utility.yul\":8986:8987   */\n      0x00\n        /* \"#utility.yul\":8977:8983   */\n      dup4\n        /* \"#utility.yul\":8972:8975   */\n      dup4\n        /* \"#utility.yul\":8968:8984   */\n      add\n        /* \"#utility.yul\":8961:8988   */\n      mstore\n        /* \"#utility.yul\":8840:8994   */\n      pop\n      pop\n      pop\n      jump\t// out\n        /* \"#utility.yul\":9000:9307   */\n    tag_131:\n        /* \"#utility.yul\":9068:9069   */\n      0x00\n        /* \"#utility.yul\":9078:9191   */\n    tag_174:\n        /* \"#utility.yul\":9092:9098   */\n      dup4\n        /* \"#utility.yul\":9089:9090   */\n      dup2\n        /* \"#utility.yul\":9086:9099   */\n      lt\n        /* \"#utility.yul\":9078:9191   */\n      iszero\n      tag_176\n      jumpi\n        /* \"#utility.yul\":9177:9178   */\n      dup1\n        /* \"#utility.yul\":9172:9175   */\n      dup3\n        /* \"#utility.yul\":9168:9179   */\n      add\n        /* \"#utility.yul\":9162:9180   */\n      mload\n        /* \"#utility.yul\":9158:9159   */\n      dup2\n        /* \"#utility.yul\":9153:9156   */\n      dup5\n        /* \"#utility.yul\":9149:9160   */\n      add\n        /* \"#utility.yul\":9142:9181   */\n      mstore\n        /* \"#utility.yul\":9114:9116   */\n      0x20\n        /* \"#utility.yul\":9111:9112   */\n      dup2\n        /* \"#utility.yul\":9107:9117   */\n      add\n        /* \"#utility.yul\":9102:9117   */\n      swap1\n      pop\n        /* \"#utility.yul\":9078:9191   */\n      jump(tag_174)\n    tag_176:\n        /* \"#utility.yul\":9209:9215   */\n      dup4\n        /* \"#utility.yul\":9206:9207   */\n      dup2\n        /* \"#utility.yul\":9203:9216   */\n      gt\n        /* \"#utility.yul\":9200:9301   */\n      iszero\n      tag_177\n      jumpi\n        /* \"#utility.yul\":9289:9290   */\n      0x00\n        /* \"#utility.yul\":9280:9286   */\n      dup5\n        /* \"#utility.yul\":9275:9278   */\n      dup5\n        /* \"#utility.yul\":9271:9287   */\n      add\n        /* \"#utility.yul\":9264:9291   */\n      mstore\n        /* \"#utility.yul\":9200:9301   */\n    tag_177:\n        /* \"#utility.yul\":9049:9307   */\n      pop\n        /* \"#utility.yul\":9000:9307   */\n      pop\n      pop\n      pop\n      jump\t// out\n        /* \"#utility.yul\":9313:9633   */\n    tag_24:\n        /* \"#utility.yul\":9357:9363   */\n      0x00\n        /* \"#utility.yul\":9394:9395   */\n      0x02\n        /* \"#utility.yul\":9388:9392   */\n      dup3\n        /* \"#utility.yul\":9384:9396   */\n      div\n        /* \"#utility.yul\":9374:9396   */\n      swap1\n      pop\n        /* \"#utility.yul\":9441:9442   */\n      0x01\n        /* \"#utility.yul\":9435:9439   */\n      dup3\n        /* \"#utility.yul\":9431:9443   */\n      and\n        /* \"#utility.yul\":9462:9480   */\n      dup1\n        /* \"#utility.yul\":9452:9533   */\n      tag_179\n      jumpi\n        /* \"#utility.yul\":9518:9522   */\n      0x7f\n        /* \"#utility.yul\":9510:9516   */\n      dup3\n        /* \"#utility.yul\":9506:9523   */\n      and\n        /* \"#utility.yul\":9496:9523   */\n      swap2\n      pop\n        /* \"#utility.yul\":9452:9533   */\n    tag_179:\n        /* \"#utility.yul\":9580:9582   */\n      0x20\n        /* \"#utility.yul\":9572:9578   */\n      dup3\n        /* \"#utility.yul\":9569:9583   */\n      lt\n        /* \"#utility.yul\":9549:9567   */\n      dup2\n        /* \"#utility.yul\":9546:9584   */\n      eq\n        /* \"#utility.yul\":9543:9627   */\n      iszero\n      tag_180\n      jumpi\n        /* \"#utility.yul\":9599:9617   */\n      tag_181\n      tag_182\n      jump\t// in\n    tag_181:\n        /* \"#utility.yul\":9543:9627   */\n    tag_180:\n        /* \"#utility.yul\":9364:9633   */\n      pop\n        /* \"#utility.yul\":9313:9633   */\n      swap2\n      swap1\n      pop\n      jump\t// out\n        /* \"#utility.yul\":9639:9920   */\n    tag_153:\n        /* \"#utility.yul\":9722:9749   */\n      tag_184\n        /* \"#utility.yul\":9744:9748   */\n      dup3\n        /* \"#utility.yul\":9722:9749   */\n      tag_124\n      jump\t// in\n    tag_184:\n        /* \"#utility.yul\":9714:9720   */\n      dup2\n        /* \"#utility.yul\":9710:9750   */\n      add\n        /* \"#utility.yul\":9852:9858   */\n      dup2\n        /* \"#utility.yul\":9840:9850   */\n      dup2\n        /* \"#utility.yul\":9837:9859   */\n      lt\n        /* \"#utility.yul\":9816:9834   */\n      0xffffffffffffffff\n        /* \"#utility.yul\":9804:9814   */\n      dup3\n        /* \"#utility.yul\":9801:9835   */\n      gt\n        /* \"#utility.yul\":9798:9860   */\n      or\n        /* \"#utility.yul\":9795:9883   */\n      iszero\n      tag_185\n      jumpi\n        /* \"#utility.yul\":9863:9881   */\n      tag_186\n      tag_158\n      jump\t// in\n    tag_186:\n        /* \"#utility.yul\":9795:9883   */\n    tag_185:\n        /* \"#utility.yul\":9903:9913   */\n      dup1\n        /* \"#utility.yul\":9899:9901   */\n      0x40\n        /* \"#utility.yul\":9892:9914   */\n      mstore\n        /* \"#utility.yul\":9682:9920   */\n      pop\n        /* \"#utility.yul\":9639:9920   */\n      pop\n      pop\n      jump\t// out\n        /* \"#utility.yul\":9926:10106   */\n    tag_182:\n        /* \"#utility.yul\":9974:10051   */\n      0x4e487b7100000000000000000000000000000000000000000000000000000000\n        /* \"#utility.yul\":9971:9972   */\n      0x00\n        /* \"#utility.yul\":9964:10052   */\n      mstore\n        /* \"#utility.yul\":10071:10075   */\n      0x22\n        /* \"#utility.yul\":10068:10069   */\n      0x04\n        /* \"#utility.yul\":10061:10076   */\n      mstore\n        /* \"#utility.yul\":10095:10099   */\n      0x24\n        /* \"#utility.yul\":10092:10093   */\n      0x00\n        /* \"#utility.yul\":10085:10100   */\n      revert\n        /* \"#utility.yul\":10112:10292   */\n    tag_158:\n        /* \"#utility.yul\":10160:10237   */\n      0x4e487b7100000000000000000000000000000000000000000000000000000000\n        /* \"#utility.yul\":10157:10158   */\n      0x00\n        /* \"#utility.yul\":10150:10238   */\n      mstore\n        /* \"#utility.yul\":10257:10261   */\n      0x41\n        /* \"#utility.yul\":10254:10255   */\n      0x04\n        /* \"#utility.yul\":10247:10262   */\n      mstore\n        /* \"#utility.yul\":10281:10285   */\n      0x24\n        /* \"#utility.yul\":10278:10279   */\n      0x00\n        /* \"#utility.yul\":10271:10286   */\n      revert\n        /* \"#utility.yul\":10298:10415   */\n    tag_73:\n        /* \"#utility.yul\":10407:10408   */\n      0x00\n        /* \"#utility.yul\":10404:10405   */\n      dup1\n        /* \"#utility.yul\":10397:10409   */\n      revert\n        /* \"#utility.yul\":10421:10538   */\n    tag_70:\n        /* \"#utility.yul\":10530:10531   */\n      0x00\n        /* \"#utility.yul\":10527:10528   */\n      dup1\n        /* \"#utility.yul\":10520:10532   */\n      revert\n        /* \"#utility.yul\":10544:10661   */\n    tag_76:\n        /* \"#utility.yul\":10653:10654   */\n      0x00\n        /* \"#utility.yul\":10650:10651   */\n      dup1\n        /* \"#utility.yul\":10643:10655   */\n      revert\n        /* \"#utility.yul\":10667:10784   */\n    tag_51:\n        /* \"#utility.yul\":10776:10777   */\n      0x00\n        /* \"#utility.yul\":10773:10774   */\n      dup1\n        /* \"#utility.yul\":10766:10778   */\n      revert\n        /* \"#utility.yul\":10790:10907   */\n    tag_98:\n        /* \"#utility.yul\":10899:10900   */\n      0x00\n        /* \"#utility.yul\":10896:10897   */\n      dup1\n        /* \"#utility.yul\":10889:10901   */\n      revert\n        /* \"#utility.yul\":10913:11030   */\n    tag_90:\n        /* \"#utility.yul\":11022:11023   */\n      0x00\n        /* \"#utility.yul\":11019:11020   */\n      dup1\n        /* \"#utility.yul\":11012:11024   */\n      revert\n        /* \"#utility.yul\":11036:11138   */\n    tag_124:\n        /* \"#utility.yul\":11077:11083   */\n      0x00\n        /* \"#utility.yul\":11128:11130   */\n      0x1f\n        /* \"#utility.yul\":11124:11131   */\n      not\n        /* \"#utility.yul\":11119:11121   */\n      0x1f\n        /* \"#utility.yul\":11112:11117   */\n      dup4\n        /* \"#utility.yul\":11108:11122   */\n      add\n        /* \"#utility.yul\":11104:11132   */\n      and\n        /* \"#utility.yul\":11094:11132   */\n      swap1\n      pop\n        /* \"#utility.yul\":11036:11138   */\n      swap2\n      swap1\n      pop\n      jump\t// out\n        /* \"#utility.yul\":11144:11266   */\n    tag_65:\n        /* \"#utility.yul\":11217:11241   */\n      tag_197\n        /* \"#utility.yul\":11235:11240   */\n      dup2\n        /* \"#utility.yul\":11217:11241   */\n      tag_117\n      jump\t// in\n    tag_197:\n        /* \"#utility.yul\":11210:11215   */\n      dup2\n        /* \"#utility.yul\":11207:11242   */\n      eq\n        /* \"#utility.yul\":11197:11260   */\n      tag_198\n      jumpi\n        /* \"#utility.yul\":11256:11257   */\n      0x00\n        /* \"#utility.yul\":11253:11254   */\n      dup1\n        /* \"#utility.yul\":11246:11258   */\n      revert\n        /* \"#utility.yul\":11197:11260   */\n    tag_198:\n        /* \"#utility.yul\":11144:11266   */\n      pop\n      jump\t// out\n\n    auxdata: 0xa26469706673582212203d4dcc956ff5f5052952b11d64db38ef026ba840f28d911217e87d02544e665a64736f6c63430008070033\n}\n",
				"bytecode": {
					"linkReferences": {},
					"object": "608060405234801561001057600080fd5b506108e1806100206000396000f3fe608060405234801561001057600080fd5b50600436106100415760003560e01c806345b0e8a814610046578063634aa98314610062578063a78d2ba314610092575b600080fd5b610060600480360381019061005b9190610409565b6100ae565b005b61007c600480360381019061007791906103dc565b610105565b60405161008991906105e5565b60405180910390f35b6100ac60048036038101906100a79190610465565b6101a5565b005b806000808473ffffffffffffffffffffffffffffffffffffffff1673ffffffffffffffffffffffffffffffffffffffff16815260200190815260200160002090805190602001906101009291906101ee565b505050565b60006020528060005260406000206000915090508054610124906107a4565b80601f0160208091040260200160405190810160405280929190818152602001828054610150906107a4565b801561019d5780601f106101725761010080835404028352916020019161019d565b820191906000526020600020905b81548152906001019060200180831161018057829003601f168201915b505050505081565b7f37c3fbf03a160c29acc48ad2883e3c46f0041d8d41057b519658a7135a2afbf78686868686866040516101de96959493929190610607565b60405180910390a1505050505050565b8280546101fa906107a4565b90600052602060002090601f01602090048101928261021c5760008555610263565b82601f1061023557805160ff1916838001178555610263565b82800160010185558215610263579182015b82811115610262578251825591602001919060010190610247565b5b5090506102709190610274565b5090565b5b8082111561028d576000816000905550600101610275565b5090565b60006102a461029f84610696565b610671565b9050828152602081018484840111156102c0576102bf610874565b5b6102cb848285610762565b509392505050565b60006102e66102e1846106c7565b610671565b90508281526020810184848401111561030257610301610874565b5b61030d848285610762565b509392505050565b60008135905061032481610894565b92915050565b60008083601f8401126103405761033f61086a565b5b8235905067ffffffffffffffff81111561035d5761035c610865565b5b6020830191508360018202830111156103795761037861086f565b5b9250929050565b600082601f8301126103955761039461086a565b5b81356103a5848260208601610291565b91505092915050565b600082601f8301126103c3576103c261086a565b5b81356103d38482602086016102d3565b91505092915050565b6000602082840312156103f2576103f161087e565b5b600061040084828501610315565b91505092915050565b600080604083850312156104205761041f61087e565b5b600061042e85828601610315565b925050602083013567ffffffffffffffff81111561044f5761044e610879565b5b61045b85828601610380565b9150509250929050565b60008060008060008060a087890312156104825761048161087e565b5b600087013567ffffffffffffffff8111156104a05761049f610879565b5b6104ac89828a016103ae565b96505060206104bd89828a01610315565b95505060406104ce89828a01610315565b945050606087013567ffffffffffffffff8111156104ef576104ee610879565b5b6104fb89828a016103ae565b935050608087013567ffffffffffffffff81111561051c5761051b610879565b5b61052889828a0161032a565b92509250509295509295509295565b61054081610730565b82525050565b6000610552838561070e565b935061055f838584610762565b61056883610883565b840190509392505050565b600061057e826106f8565b610588818561070e565b9350610598818560208601610771565b6105a181610883565b840191505092915050565b60006105b782610703565b6105c1818561071f565b93506105d1818560208601610771565b6105da81610883565b840191505092915050565b600060208201905081810360008301526105ff8184610573565b905092915050565b600060a082019050818103600083015261062181896105ac565b90506106306020830188610537565b61063d6040830187610537565b818103606083015261064f81866105ac565b90508181036080830152610664818486610546565b9050979650505050505050565b600061067b61068c565b905061068782826107d6565b919050565b6000604051905090565b600067ffffffffffffffff8211156106b1576106b0610836565b5b6106ba82610883565b9050602081019050919050565b600067ffffffffffffffff8211156106e2576106e1610836565b5b6106eb82610883565b9050602081019050919050565b600081519050919050565b600081519050919050565b600082825260208201905092915050565b600082825260208201905092915050565b600061073b82610742565b9050919050565b600073ffffffffffffffffffffffffffffffffffffffff82169050919050565b82818337600083830152505050565b60005b8381101561078f578082015181840152602081019050610774565b8381111561079e576000848401525b50505050565b600060028204905060018216806107bc57607f821691505b602082108114156107d0576107cf610807565b5b50919050565b6107df82610883565b810181811067ffffffffffffffff821117156107fe576107fd610836565b5b80604052505050565b7f4e487b7100000000000000000000000000000000000000000000000000000000600052602260045260246000fd5b7f4e487b7100000000000000000000000000000000000000000000000000000000600052604160045260246000fd5b600080fd5b600080fd5b600080fd5b600080fd5b600080fd5b600080fd5b6000601f19601f8301169050919050565b61089d81610730565b81146108a857600080fd5b5056fea26469706673582212203d4dcc956ff5f5052952b11d64db38ef026ba840f28d911217e87d02544e665a64736f6c63430008070033",
					"opcodes": "PUSH1 0x80 PUSH1 0x40 MSTORE CALLVALUE DUP1 ISZERO PUSH2 0x10 JUMPI PUSH1 0x0 DUP1 REVERT JUMPDEST POP PUSH2 0x8E1 DUP1 PUSH2 0x20 PUSH1 0x0 CODECOPY PUSH1 0x0 RETURN INVALID PUSH1 0x80 PUSH1 0x40 MSTORE CALLVALUE DUP1 ISZERO PUSH2 0x10 JUMPI PUSH1 0x0 DUP1 REVERT JUMPDEST POP PUSH1 0x4 CALLDATASIZE LT PUSH2 0x41 JUMPI PUSH1 0x0 CALLDATALOAD PUSH1 0xE0 SHR DUP1 PUSH4 0x45B0E8A8 EQ PUSH2 0x46 JUMPI DUP1 PUSH4 0x634AA983 EQ PUSH2 0x62 JUMPI DUP1 PUSH4 0xA78D2BA3 EQ PUSH2 0x92 JUMPI JUMPDEST PUSH1 0x0 DUP1 REVERT JUMPDEST PUSH2 0x60 PUSH1 0x4 DUP1 CALLDATASIZE SUB DUP2 ADD SWAP1 PUSH2 0x5B SWAP2 SWAP1 PUSH2 0x409 JUMP JUMPDEST PUSH2 0xAE JUMP JUMPDEST STOP JUMPDEST PUSH2 0x7C PUSH1 0x4 DUP1 CALLDATASIZE SUB DUP2 ADD SWAP1 PUSH2 0x77 SWAP2 SWAP1 PUSH2 0x3DC JUMP JUMPDEST PUSH2 0x105 JUMP JUMPDEST PUSH1 0x40 MLOAD PUSH2 0x89 SWAP2 SWAP1 PUSH2 0x5E5 JUMP JUMPDEST PUSH1 0x40 MLOAD DUP1 SWAP2 SUB SWAP1 RETURN JUMPDEST PUSH2 0xAC PUSH1 0x4 DUP1 CALLDATASIZE SUB DUP2 ADD SWAP1 PUSH2 0xA7 SWAP2 SWAP1 PUSH2 0x465 JUMP JUMPDEST PUSH2 0x1A5 JUMP JUMPDEST STOP JUMPDEST DUP1 PUSH1 0x0 DUP1 DUP5 PUSH20 0xFFFFFFFFFFFFFFFFFFFFFFFFFFFFFFFFFFFFFFFF AND PUSH20 0xFFFFFFFFFFFFFFFFFFFFFFFFFFFFFFFFFFFFFFFF AND DUP2 MSTORE PUSH1 0x20 ADD SWAP1 DUP2 MSTORE PUSH1 0x20 ADD PUSH1 0x0 KECCAK256 SWAP1 DUP1 MLOAD SWAP1 PUSH1 0x20 ADD SWAP1 PUSH2 0x100 SWAP3 SWAP2 SWAP1 PUSH2 0x1EE JUMP JUMPDEST POP POP POP JUMP JUMPDEST PUSH1 0x0 PUSH1 0x20 MSTORE DUP1 PUSH1 0x0 MSTORE PUSH1 0x40 PUSH1 0x0 KECCAK256 PUSH1 0x0 SWAP2 POP SWAP1 POP DUP1 SLOAD PUSH2 0x124 SWAP1 PUSH2 0x7A4 JUMP JUMPDEST DUP1 PUSH1 0x1F ADD PUSH1 0x20 DUP1 SWAP2 DIV MUL PUSH1 0x20 ADD PUSH1 0x40 MLOAD SWAP1 DUP2 ADD PUSH1 0x40 MSTORE DUP1 SWAP3 SWAP2 SWAP1 DUP2 DUP2 MSTORE PUSH1 0x20 ADD DUP3 DUP1 SLOAD PUSH2 0x150 SWAP1 PUSH2 0x7A4 JUMP JUMPDEST DUP1 ISZERO PUSH2 0x19D JUMPI DUP1 PUSH1 0x1F LT PUSH2 0x172 JUMPI PUSH2 0x100 DUP1 DUP4 SLOAD DIV MUL DUP4 MSTORE SWAP2 PUSH1 0x20 ADD SWAP2 PUSH2 0x19D JUMP JUMPDEST DUP3 ADD SWAP2 SWAP1 PUSH1 0x0 MSTORE PUSH1 0x20 PUSH1 0x0 KECCAK256 SWAP1 JUMPDEST DUP2 SLOAD DUP2 MSTORE SWAP1 PUSH1 0x1 ADD SWAP1 PUSH1 0x20 ADD DUP1 DUP4 GT PUSH2 0x180 JUMPI DUP3 SWAP1 SUB PUSH1 0x1F AND DUP3 ADD SWAP2 JUMPDEST POP POP POP POP POP DUP2 JUMP JUMPDEST PUSH32 0x37C3FBF03A160C29ACC48AD2883E3C46F0041D8D41057B519658A7135A2AFBF7 DUP7 DUP7 DUP7 DUP7 DUP7 DUP7 PUSH1 0x40 MLOAD PUSH2 0x1DE SWAP7 SWAP6 SWAP5 SWAP4 SWAP3 SWAP2 SWAP1 PUSH2 0x607 JUMP JUMPDEST PUSH1 0x40 MLOAD DUP1 SWAP2 SUB SWAP1 LOG1 POP POP POP POP POP POP JUMP JUMPDEST DUP3 DUP1 SLOAD PUSH2 0x1FA SWAP1 PUSH2 0x7A4 JUMP JUMPDEST SWAP1 PUSH1 0x0 MSTORE PUSH1 0x20 PUSH1 0x0 KECCAK256 SWAP1 PUSH1 0x1F ADD PUSH1 0x20 SWAP1 DIV DUP2 ADD SWAP3 DUP3 PUSH2 0x21C JUMPI PUSH1 0x0 DUP6 SSTORE PUSH2 0x263 JUMP JUMPDEST DUP3 PUSH1 0x1F LT PUSH2 0x235 JUMPI DUP1 MLOAD PUSH1 0xFF NOT AND DUP4 DUP1 ADD OR DUP6 SSTORE PUSH2 0x263 JUMP JUMPDEST DUP3 DUP1 ADD PUSH1 0x1 ADD DUP6 SSTORE DUP3 ISZERO PUSH2 0x263 JUMPI SWAP2 DUP3 ADD JUMPDEST DUP3 DUP2 GT ISZERO PUSH2 0x262 JUMPI DUP3 MLOAD DUP3 SSTORE SWAP2 PUSH1 0x20 ADD SWAP2 SWAP1 PUSH1 0x1 ADD SWAP1 PUSH2 0x247 JUMP JUMPDEST JUMPDEST POP SWAP1 POP PUSH2 0x270 SWAP2 SWAP1 PUSH2 0x274 JUMP JUMPDEST POP SWAP1 JUMP JUMPDEST JUMPDEST DUP1 DUP3 GT ISZERO PUSH2 0x28D JUMPI PUSH1 0x0 DUP2 PUSH1 0x0 SWAP1 SSTORE POP PUSH1 0x1 ADD PUSH2 0x275 JUMP JUMPDEST POP SWAP1 JUMP JUMPDEST PUSH1 0x0 PUSH2 0x2A4 PUSH2 0x29F DUP5 PUSH2 0x696 JUMP JUMPDEST PUSH2 0x671 JUMP JUMPDEST SWAP1 POP DUP3 DUP2 MSTORE PUSH1 0x20 DUP2 ADD DUP5 DUP5 DUP5 ADD GT ISZERO PUSH2 0x2C0 JUMPI PUSH2 0x2BF PUSH2 0x874 JUMP JUMPDEST JUMPDEST PUSH2 0x2CB DUP5 DUP3 DUP6 PUSH2 0x762 JUMP JUMPDEST POP SWAP4 SWAP3 POP POP POP JUMP JUMPDEST PUSH1 0x0 PUSH2 0x2E6 PUSH2 0x2E1 DUP5 PUSH2 0x6C7 JUMP JUMPDEST PUSH2 0x671 JUMP JUMPDEST SWAP1 POP DUP3 DUP2 MSTORE PUSH1 0x20 DUP2 ADD DUP5 DUP5 DUP5 ADD GT ISZERO PUSH2 0x302 JUMPI PUSH2 0x301 PUSH2 0x874 JUMP JUMPDEST JUMPDEST PUSH2 0x30D DUP5 DUP3 DUP6 PUSH2 0x762 JUMP JUMPDEST POP SWAP4 SWAP3 POP POP POP JUMP JUMPDEST PUSH1 0x0 DUP2 CALLDATALOAD SWAP1 POP PUSH2 0x324 DUP2 PUSH2 0x894 JUMP JUMPDEST SWAP3 SWAP2 POP POP JUMP JUMPDEST PUSH1 0x0 DUP1 DUP4 PUSH1 0x1F DUP5 ADD SLT PUSH2 0x340 JUMPI PUSH2 0x33F PUSH2 0x86A JUMP JUMPDEST JUMPDEST DUP3 CALLDATALOAD SWAP1 POP PUSH8 0xFFFFFFFFFFFFFFFF DUP2 GT ISZERO PUSH2 0x35D JUMPI PUSH2 0x35C PUSH2 0x865 JUMP JUMPDEST JUMPDEST PUSH1 0x20 DUP4 ADD SWAP2 POP DUP4 PUSH1 0x1 DUP3 MUL DUP4 ADD GT ISZERO PUSH2 0x379 JUMPI PUSH2 0x378 PUSH2 0x86F JUMP JUMPDEST JUMPDEST SWAP3 POP SWAP3 SWAP1 POP JUMP JUMPDEST PUSH1 0x0 DUP3 PUSH1 0x1F DUP4 ADD SLT PUSH2 0x395 JUMPI PUSH2 0x394 PUSH2 0x86A JUMP JUMPDEST JUMPDEST DUP2 CALLDATALOAD PUSH2 0x3A5 DUP5 DUP3 PUSH1 0x20 DUP7 ADD PUSH2 0x291 JUMP JUMPDEST SWAP2 POP POP SWAP3 SWAP2 POP POP JUMP JUMPDEST PUSH1 0x0 DUP3 PUSH1 0x1F DUP4 ADD SLT PUSH2 0x3C3 JUMPI PUSH2 0x3C2 PUSH2 0x86A JUMP JUMPDEST JUMPDEST DUP2 CALLDATALOAD PUSH2 0x3D3 DUP5 DUP3 PUSH1 0x20 DUP7 ADD PUSH2 0x2D3 JUMP JUMPDEST SWAP2 POP POP SWAP3 SWAP2 POP POP JUMP JUMPDEST PUSH1 0x0 PUSH1 0x20 DUP3 DUP5 SUB SLT ISZERO PUSH2 0x3F2 JUMPI PUSH2 0x3F1 PUSH2 0x87E JUMP JUMPDEST JUMPDEST PUSH1 0x0 PUSH2 0x400 DUP5 DUP3 DUP6 ADD PUSH2 0x315 JUMP JUMPDEST SWAP2 POP POP SWAP3 SWAP2 POP POP JUMP JUMPDEST PUSH1 0x0 DUP1 PUSH1 0x40 DUP4 DUP6 SUB SLT ISZERO PUSH2 0x420 JUMPI PUSH2 0x41F PUSH2 0x87E JUMP JUMPDEST JUMPDEST PUSH1 0x0 PUSH2 0x42E DUP6 DUP3 DUP7 ADD PUSH2 0x315 JUMP JUMPDEST SWAP3 POP POP PUSH1 0x20 DUP4 ADD CALLDATALOAD PUSH8 0xFFFFFFFFFFFFFFFF DUP2 GT ISZERO PUSH2 0x44F JUMPI PUSH2 0x44E PUSH2 0x879 JUMP JUMPDEST JUMPDEST PUSH2 0x45B DUP6 DUP3 DUP7 ADD PUSH2 0x380 JUMP JUMPDEST SWAP2 POP POP SWAP3 POP SWAP3 SWAP1 POP JUMP JUMPDEST PUSH1 0x0 DUP1 PUSH1 0x0 DUP1 PUSH1 0x0 DUP1 PUSH1 0xA0 DUP8 DUP10 SUB SLT ISZERO PUSH2 0x482 JUMPI PUSH2 0x481 PUSH2 0x87E JUMP JUMPDEST JUMPDEST PUSH1 0x0 DUP8 ADD CALLDATALOAD PUSH8 0xFFFFFFFFFFFFFFFF DUP2 GT ISZERO PUSH2 0x4A0 JUMPI PUSH2 0x49F PUSH2 0x879 JUMP JUMPDEST JUMPDEST PUSH2 0x4AC DUP10 DUP3 DUP11 ADD PUSH2 0x3AE JUMP JUMPDEST SWAP7 POP POP PUSH1 0x20 PUSH2 0x4BD DUP10 DUP3 DUP11 ADD PUSH2 0x315 JUMP JUMPDEST SWAP6 POP POP PUSH1 0x40 PUSH2 0x4CE DUP10 DUP3 DUP11 ADD PUSH2 0x315 JUMP JUMPDEST SWAP5 POP POP PUSH1 0x60 DUP8 ADD CALLDATALOAD PUSH8 0xFFFFFFFFFFFFFFFF DUP2 GT ISZERO PUSH2 0x4EF JUMPI PUSH2 0x4EE PUSH2 0x879 JUMP JUMPDEST JUMPDEST PUSH2 0x4FB DUP10 DUP3 DUP11 ADD PUSH2 0x3AE JUMP JUMPDEST SWAP4 POP POP PUSH1 0x80 DUP8 ADD CALLDATALOAD PUSH8 0xFFFFFFFFFFFFFFFF DUP2 GT ISZERO PUSH2 0x51C JUMPI PUSH2 0x51B PUSH2 0x879 JUMP JUMPDEST JUMPDEST PUSH2 0x528 DUP10 DUP3 DUP11 ADD PUSH2 0x32A JUMP JUMPDEST SWAP3 POP SWAP3 POP POP SWAP3 SWAP6 POP SWAP3 SWAP6 POP SWAP3 SWAP6 JUMP JUMPDEST PUSH2 0x540 DUP2 PUSH2 0x730 JUMP JUMPDEST DUP3 MSTORE POP POP JUMP JUMPDEST PUSH1 0x0 PUSH2 0x552 DUP4 DUP6 PUSH2 0x70E JUMP JUMPDEST SWAP4 POP PUSH2 0x55F DUP4 DUP6 DUP5 PUSH2 0x762 JUMP JUMPDEST PUSH2 0x568 DUP4 PUSH2 0x883 JUMP JUMPDEST DUP5 ADD SWAP1 POP SWAP4 SWAP3 POP POP POP JUMP JUMPDEST PUSH1 0x0 PUSH2 0x57E DUP3 PUSH2 0x6F8 JUMP JUMPDEST PUSH2 0x588 DUP2 DUP6 PUSH2 0x70E JUMP JUMPDEST SWAP4 POP PUSH2 0x598 DUP2 DUP6 PUSH1 0x20 DUP7 ADD PUSH2 0x771 JUMP JUMPDEST PUSH2 0x5A1 DUP2 PUSH2 0x883 JUMP JUMPDEST DUP5 ADD SWAP2 POP POP SWAP3 SWAP2 POP POP JUMP JUMPDEST PUSH1 0x0 PUSH2 0x5B7 DUP3 PUSH2 0x703 JUMP JUMPDEST PUSH2 0x5C1 DUP2 DUP6 PUSH2 0x71F JUMP JUMPDEST SWAP4 POP PUSH2 0x5D1 DUP2 DUP6 PUSH1 0x20 DUP7 ADD PUSH2 0x771 JUMP JUMPDEST PUSH2 0x5DA DUP2 PUSH2 0x883 JUMP JUMPDEST DUP5 ADD SWAP2 POP POP SWAP3 SWAP2 POP POP JUMP JUMPDEST PUSH1 0x0 PUSH1 0x20 DUP3 ADD SWAP1 POP DUP2 DUP2 SUB PUSH1 0x0 DUP4 ADD MSTORE PUSH2 0x5FF DUP2 DUP5 PUSH2 0x573 JUMP JUMPDEST SWAP1 POP SWAP3 SWAP2 POP POP JUMP JUMPDEST PUSH1 0x0 PUSH1 0xA0 DUP3 ADD SWAP1 POP DUP2 DUP2 SUB PUSH1 0x0 DUP4 ADD MSTORE PUSH2 0x621 DUP2 DUP10 PUSH2 0x5AC JUMP JUMPDEST SWAP1 POP PUSH2 0x630 PUSH1 0x20 DUP4 ADD DUP9 PUSH2 0x537 JUMP JUMPDEST PUSH2 0x63D PUSH1 0x40 DUP4 ADD DUP8 PUSH2 0x537 JUMP JUMPDEST DUP2 DUP2 SUB PUSH1 0x60 DUP4 ADD MSTORE PUSH2 0x64F DUP2 DUP7 PUSH2 0x5AC JUMP JUMPDEST SWAP1 POP DUP2 DUP2 SUB PUSH1 0x80 DUP4 ADD MSTORE PUSH2 0x664 DUP2 DUP5 DUP7 PUSH2 0x546 JUMP JUMPDEST SWAP1 POP SWAP8 SWAP7 POP POP POP POP POP POP POP JUMP JUMPDEST PUSH1 0x0 PUSH2 0x67B PUSH2 0x68C JUMP JUMPDEST SWAP1 POP PUSH2 0x687 DUP3 DUP3 PUSH2 0x7D6 JUMP JUMPDEST SWAP2 SWAP1 POP JUMP JUMPDEST PUSH1 0x0 PUSH1 0x40 MLOAD SWAP1 POP SWAP1 JUMP JUMPDEST PUSH1 0x0 PUSH8 0xFFFFFFFFFFFFFFFF DUP3 GT ISZERO PUSH2 0x6B1 JUMPI PUSH2 0x6B0 PUSH2 0x836 JUMP JUMPDEST JUMPDEST PUSH2 0x6BA DUP3 PUSH2 0x883 JUMP JUMPDEST SWAP1 POP PUSH1 0x20 DUP2 ADD SWAP1 POP SWAP2 SWAP1 POP JUMP JUMPDEST PUSH1 0x0 PUSH8 0xFFFFFFFFFFFFFFFF DUP3 GT ISZERO PUSH2 0x6E2 JUMPI PUSH2 0x6E1 PUSH2 0x836 JUMP JUMPDEST JUMPDEST PUSH2 0x6EB DUP3 PUSH2 0x883 JUMP JUMPDEST SWAP1 POP PUSH1 0x20 DUP2 ADD SWAP1 POP SWAP2 SWAP1 POP JUMP JUMPDEST PUSH1 0x0 DUP2 MLOAD SWAP1 POP SWAP2 SWAP1 POP JUMP JUMPDEST PUSH1 0x0 DUP2 MLOAD SWAP1 POP SWAP2 SWAP1 POP JUMP JUMPDEST PUSH1 0x0 DUP3 DUP3 MSTORE PUSH1 0x20 DUP3 ADD SWAP1 POP SWAP3 SWAP2 POP POP JUMP JUMPDEST PUSH1 0x0 DUP3 DUP3 MSTORE PUSH1 0x20 DUP3 ADD SWAP1 POP SWAP3 SWAP2 POP POP JUMP JUMPDEST PUSH1 0x0 PUSH2 0x73B DUP3 PUSH2 0x742 JUMP JUMPDEST SWAP1 POP SWAP2 SWAP1 POP JUMP JUMPDEST PUSH1 0x0 PUSH20 0xFFFFFFFFFFFFFFFFFFFFFFFFFFFFFFFFFFFFFFFF DUP3 AND SWAP1 POP SWAP2 SWAP1 POP JUMP JUMPDEST DUP3 DUP2 DUP4 CALLDATACOPY PUSH1 0x0 DUP4 DUP4 ADD MSTORE POP POP POP JUMP JUMPDEST PUSH1 0x0 JUMPDEST DUP4 DUP2 LT ISZERO PUSH2 0x78F JUMPI DUP1 DUP3 ADD MLOAD DUP2 DUP5 ADD MSTORE PUSH1 0x20 DUP2 ADD SWAP1 POP PUSH2 0x774 JUMP JUMPDEST DUP4 DUP2 GT ISZERO PUSH2 0x79E JUMPI PUSH1 0x0 DUP5 DUP5 ADD MSTORE JUMPDEST POP POP POP POP JUMP JUMPDEST PUSH1 0x0 PUSH1 0x2 DUP3 DIV SWAP1 POP PUSH1 0x1 DUP3 AND DUP1 PUSH2 0x7BC JUMPI PUSH1 0x7F DUP3 AND SWAP2 POP JUMPDEST PUSH1 0x20 DUP3 LT DUP2 EQ ISZERO PUSH2 0x7D0 JUMPI PUSH2 0x7CF PUSH2 0x807 JUMP JUMPDEST JUMPDEST POP SWAP2 SWAP1 POP JUMP JUMPDEST PUSH2 0x7DF DUP3 PUSH2 0x883 JUMP JUMPDEST DUP2 ADD DUP2 DUP2 LT PUSH8 0xFFFFFFFFFFFFFFFF DUP3 GT OR ISZERO PUSH2 0x7FE JUMPI PUSH2 0x7FD PUSH2 0x836 JUMP JUMPDEST JUMPDEST DUP1 PUSH1 0x40 MSTORE POP POP POP JUMP JUMPDEST PUSH32 0x4E487B7100000000000000000000000000000000000000000000000000000000 PUSH1 0x0 MSTORE PUSH1 0x22 PUSH1 0x4 MSTORE PUSH1 0x24 PUSH1 0x0 REVERT JUMPDEST PUSH32 0x4E487B7100000000000000000000000000000000000000000000000000000000 PUSH1 0x0 MSTORE PUSH1 0x41 PUSH1 0x4 MSTORE PUSH1 0x24 PUSH1 0x0 REVERT JUMPDEST PUSH1 0x0 DUP1 REVERT JUMPDEST PUSH1 0x0 DUP1 REVERT JUMPDEST PUSH1 0x0 DUP1 REVERT JUMPDEST PUSH1 0x0 DUP1 REVERT JUMPDEST PUSH1 0x0 DUP1 REVERT JUMPDEST PUSH1 0x0 DUP1 REVERT JUMPDEST PUSH1 0x0 PUSH1 0x1F NOT PUSH1 0x1F DUP4 ADD AND SWAP1 POP SWAP2 SWAP1 POP JUMP JUMPDEST PUSH2 0x89D DUP2 PUSH2 0x730 JUMP JUMPDEST DUP2 EQ PUSH2 0x8A8 JUMPI PUSH1 0x0 DUP1 REVERT JUMPDEST POP JUMP INVALID LOG2 PUSH5 0x6970667358 0x22 SLT KECCAK256 RETURNDATASIZE 0x4D 0xCC SWAP6 PUSH16 0xF5F5052952B11D64DB38EF026BA840F2 DUP14 SWAP2 SLT OR 0xE8 PUSH30 0x2544E665A64736F6C634300080700330000000000000000000000000000 "
				},
				"gasEstimates": {
					"creation": {
						"codeDepositCost": "454600",
						"executionCost": "493",
						"totalCost": "455093"
					},
					"external": {
						"abiStorage(address)": "infinite",
						"emitEvent(string,address,address,string,bytes)": "infinite",
						"storeAbi(address,bytes)": "infinite"
					}
				},
				"methodIdentifiers": {
					"abiStorage(address)": "634aa983",
					"emitEvent(string,address,address,string,bytes)": "a78d2ba3",
					"storeAbi(address,bytes)": "45b0e8a8"
				}
			},
			"storageLayout": {
				"storage": [
					{
						"astId": 5,
						"contract": "facets/CredentialEventFacet.sol:CredentialEventFacet",
						"label": "abiStorage",
						"offset": 0,
						"slot": "0",
						"type": "t_mapping(t_address,t_bytes_storage)"
					}
				],
				"types": {
					"t_address": {
						"encoding": "inplace",
						"label": "address",
						"numberOfBytes": "20"
					},
					"t_bytes_storage": {
						"encoding": "bytes",
						"label": "bytes",
						"numberOfBytes": "32"
					},
					"t_mapping(t_address,t_bytes_storage)": {
						"encoding": "mapping",
						"key": "t_address",
						"label": "mapping(address => bytes)",
						"numberOfBytes": "32",
						"value": "t_bytes_storage"
					}
				}
			},
			"userdoc": {
				"kind": "user",
				"methods": {},
				"version": 1
			}
		}
	}
}