{
	"facets/CommunicationFacet.sol": {
		"CommunicationFacet": {
			"abi": [
				{
					"inputs": [
						{
							"internalType": "contract CredentialEventFacet",
							"name": "_credentialOracle",
							"type": "address"
						}
					],
					"stateMutability": "nonpayable",
					"type": "constructor"
				},
				{
					"anonymous": false,
					"inputs": [
						{
							"indexed": true,
							"internalType": "address",
							"name": "previousOwner",
							"type": "address"
						},
						{
							"indexed": true,
							"internalType": "address",
							"name": "newOwner",
							"type": "address"
						}
					],
					"name": "OwnershipTransferred",
					"type": "event"
				},
				{
					"inputs": [],
					"name": "CREDENTIAL_EVENT",
					"outputs": [
						{
							"internalType": "contract CredentialEventFacet",
							"name": "",
							"type": "address"
						}
					],
					"stateMutability": "view",
					"type": "function"
				},
				{
					"inputs": [],
					"name": "owner",
					"outputs": [
						{
							"internalType": "address",
							"name": "",
							"type": "address"
						}
					],
					"stateMutability": "view",
					"type": "function"
				},
				{
					"inputs": [
						{
							"internalType": "string",
							"name": "someParam",
							"type": "string"
						},
						{
							"internalType": "string",
							"name": "_listId",
							"type": "string"
						},
						{
							"internalType": "string",
							"name": "thirdparam",
							"type": "string"
						},
						{
							"internalType": "uint256",
							"name": "num",
							"type": "uint256"
						},
						{
							"internalType": "uint256[]",
							"name": "_good",
							"type": "uint256[]"
						}
					],
					"name": "postVibe",
					"outputs": [],
					"stateMutability": "nonpayable",
					"type": "function"
				},
				{
					"inputs": [
						{
							"internalType": "string",
							"name": "someParam",
							"type": "string"
						},
						{
							"internalType": "bytes[]",
							"name": "proof",
							"type": "bytes[]"
						}
					],
					"name": "postVibe_authorised",
					"outputs": [],
					"stateMutability": "nonpayable",
					"type": "function"
				},
				{
					"inputs": [
						{
							"internalType": "string",
							"name": "someParam",
							"type": "string"
						}
					],
					"name": "postVibe_unauthorised",
					"outputs": [],
					"stateMutability": "nonpayable",
					"type": "function"
				},
				{
					"inputs": [],
					"name": "renounceOwnership",
					"outputs": [],
					"stateMutability": "nonpayable",
					"type": "function"
				},
				{
					"inputs": [
						{
							"internalType": "address",
							"name": "newOwner",
							"type": "address"
						}
					],
					"name": "transferOwnership",
					"outputs": [],
					"stateMutability": "nonpayable",
					"type": "function"
				}
			],
			"devdoc": {
				"kind": "dev",
				"methods": {
					"owner()": {
						"details": "Returns the address of the current owner."
					},
					"renounceOwnership()": {
						"details": "Leaves the contract without owner. It will not be possible to call `onlyOwner` functions anymore. Can only be called by the current owner. NOTE: Renouncing ownership will leave the contract without an owner, thereby removing any functionality that is only available to the owner."
					},
					"transferOwnership(address)": {
						"details": "Transfers ownership of the contract to a new account (`newOwner`). Can only be called by the current owner."
					}
				},
				"version": 1
			},
			"evm": {
				"assembly": "    /* \"facets/CommunicationFacet.sol\":141:796  contract CommunicationFacet is Ownable, GateableFacet {... */\n  mstore(0x40, 0x80)\n    /* \"facets/CommunicationFacet.sol\":197:285  constructor(CredentialEventFacet _credentialOracle) GateableFacet(_credentialOracle) {... */\n  callvalue\n  dup1\n  iszero\n  tag_1\n  jumpi\n  0x00\n  dup1\n  revert\ntag_1:\n  pop\n  mload(0x40)\n  sub(codesize, bytecodeSize)\n  dup1\n  bytecodeSize\n  dup4\n  codecopy\n  dup2\n  dup2\n  add\n  0x40\n  mstore\n  dup2\n  add\n  swap1\n  tag_2\n  swap2\n  swap1\n  tag_3\n  jump\t// in\ntag_2:\n    /* \"facets/CommunicationFacet.sol\":263:280  _credentialOracle */\n  dup1\n    /* \"@openzeppelin/contracts/access/Ownable.sol\":921:953  _transferOwnership(_msgSender()) */\n  tag_8\n    /* \"@openzeppelin/contracts/access/Ownable.sol\":940:952  _msgSender() */\n  tag_9\n    /* \"@openzeppelin/contracts/access/Ownable.sol\":940:950  _msgSender */\n  shl(0x20, tag_10)\n    /* \"@openzeppelin/contracts/access/Ownable.sol\":940:952  _msgSender() */\n  0x20\n  shr\n  jump\t// in\ntag_9:\n    /* \"@openzeppelin/contracts/access/Ownable.sol\":921:939  _transferOwnership */\n  shl(0x20, tag_11)\n    /* \"@openzeppelin/contracts/access/Ownable.sol\":921:953  _transferOwnership(_msgSender()) */\n  0x20\n  shr\n  jump\t// in\ntag_8:\n    /* \"facets/GateableFacet.sol\":849:866  _credentialOracle */\n  dup1\n    /* \"facets/GateableFacet.sol\":821:838  CREDENTIAL_ORACLE */\n  0x01\n  0x00\n    /* \"facets/GateableFacet.sol\":821:867  CREDENTIAL_ORACLE = address(_credentialOracle) */\n  0x0100\n  exp\n  dup2\n  sload\n  dup2\n  0xffffffffffffffffffffffffffffffffffffffff\n  mul\n  not\n  and\n  swap1\n  dup4\n  0xffffffffffffffffffffffffffffffffffffffff\n  and\n  mul\n  or\n  swap1\n  sstore\n  pop\n    /* \"facets/GateableFacet.sol\":892:909  _credentialOracle */\n  dup1\n    /* \"facets/GateableFacet.sol\":873:889  CREDENTIAL_EVENT */\n  0x02\n  0x00\n    /* \"facets/GateableFacet.sol\":873:909  CREDENTIAL_EVENT = _credentialOracle */\n  0x0100\n  exp\n  dup2\n  sload\n  dup2\n  0xffffffffffffffffffffffffffffffffffffffff\n  mul\n  not\n  and\n  swap1\n  dup4\n  0xffffffffffffffffffffffffffffffffffffffff\n  and\n  mul\n  or\n  swap1\n  sstore\n  pop\n    /* \"facets/GateableFacet.sol\":763:912  constructor(CredentialEventFacet _credentialOracle) {... */\n  pop\n    /* \"facets/CommunicationFacet.sol\":197:285  constructor(CredentialEventFacet _credentialOracle) GateableFacet(_credentialOracle) {... */\n  pop\n    /* \"facets/CommunicationFacet.sol\":141:796  contract CommunicationFacet is Ownable, GateableFacet {... */\n  jump(tag_14)\n    /* \"@openzeppelin/contracts/utils/Context.sol\":640:736  function _msgSender() internal view virtual returns (address) {... */\ntag_10:\n    /* \"@openzeppelin/contracts/utils/Context.sol\":693:700  address */\n  0x00\n    /* \"@openzeppelin/contracts/utils/Context.sol\":719:729  msg.sender */\n  caller\n    /* \"@openzeppelin/contracts/utils/Context.sol\":712:729  return msg.sender */\n  swap1\n  pop\n    /* \"@openzeppelin/contracts/utils/Context.sol\":640:736  function _msgSender() internal view virtual returns (address) {... */\n  swap1\n  jump\t// out\n    /* \"@openzeppelin/contracts/access/Ownable.sol\":2270:2457  function _transferOwnership(address newOwner) internal virtual {... */\ntag_11:\n    /* \"@openzeppelin/contracts/access/Ownable.sol\":2343:2359  address oldOwner */\n  0x00\n    /* \"@openzeppelin/contracts/access/Ownable.sol\":2362:2368  _owner */\n  dup1\n  0x00\n  swap1\n  sload\n  swap1\n  0x0100\n  exp\n  swap1\n  div\n  0xffffffffffffffffffffffffffffffffffffffff\n  and\n    /* \"@openzeppelin/contracts/access/Ownable.sol\":2343:2368  address oldOwner = _owner */\n  swap1\n  pop\n    /* \"@openzeppelin/contracts/access/Ownable.sol\":2387:2395  newOwner */\n  dup2\n    /* \"@openzeppelin/contracts/access/Ownable.sol\":2378:2384  _owner */\n  0x00\n  dup1\n    /* \"@openzeppelin/contracts/access/Ownable.sol\":2378:2395  _owner = newOwner */\n  0x0100\n  exp\n  dup2\n  sload\n  dup2\n  0xffffffffffffffffffffffffffffffffffffffff\n  mul\n  not\n  and\n  swap1\n  dup4\n  0xffffffffffffffffffffffffffffffffffffffff\n  and\n  mul\n  or\n  swap1\n  sstore\n  pop\n    /* \"@openzeppelin/contracts/access/Ownable.sol\":2441:2449  newOwner */\n  dup2\n    /* \"@openzeppelin/contracts/access/Ownable.sol\":2410:2450  OwnershipTransferred(oldOwner, newOwner) */\n  0xffffffffffffffffffffffffffffffffffffffff\n  and\n    /* \"@openzeppelin/contracts/access/Ownable.sol\":2431:2439  oldOwner */\n  dup2\n    /* \"@openzeppelin/contracts/access/Ownable.sol\":2410:2450  OwnershipTransferred(oldOwner, newOwner) */\n  0xffffffffffffffffffffffffffffffffffffffff\n  and\n  0x8be0079c531659141344cd1fd0a4f28419497f9722a3daafe3b4186f6b6457e0\n  mload(0x40)\n  mload(0x40)\n  dup1\n  swap2\n  sub\n  swap1\n  log3\n    /* \"@openzeppelin/contracts/access/Ownable.sol\":2333:2457  {... */\n  pop\n    /* \"@openzeppelin/contracts/access/Ownable.sol\":2270:2457  function _transferOwnership(address newOwner) internal virtual {... */\n  pop\n  jump\t// out\n    /* \"#utility.yul\":7:206   */\ntag_18:\n    /* \"#utility.yul\":92:97   */\n  0x00\n    /* \"#utility.yul\":123:129   */\n  dup2\n    /* \"#utility.yul\":117:130   */\n  mload\n    /* \"#utility.yul\":108:130   */\n  swap1\n  pop\n    /* \"#utility.yul\":139:200   */\n  tag_20\n    /* \"#utility.yul\":194:199   */\n  dup2\n    /* \"#utility.yul\":139:200   */\n  tag_21\n  jump\t// in\ntag_20:\n    /* \"#utility.yul\":7:206   */\n  swap3\n  swap2\n  pop\n  pop\n  jump\t// out\n    /* \"#utility.yul\":212:619   */\ntag_3:\n    /* \"#utility.yul\":310:316   */\n  0x00\n    /* \"#utility.yul\":359:361   */\n  0x20\n    /* \"#utility.yul\":347:356   */\n  dup3\n    /* \"#utility.yul\":338:345   */\n  dup5\n    /* \"#utility.yul\":334:357   */\n  sub\n    /* \"#utility.yul\":330:362   */\n  slt\n    /* \"#utility.yul\":327:446   */\n  iszero\n  tag_23\n  jumpi\n    /* \"#utility.yul\":365:444   */\n  tag_24\n  tag_25\n  jump\t// in\ntag_24:\n    /* \"#utility.yul\":327:446   */\ntag_23:\n    /* \"#utility.yul\":485:486   */\n  0x00\n    /* \"#utility.yul\":510:602   */\n  tag_26\n    /* \"#utility.yul\":594:601   */\n  dup5\n    /* \"#utility.yul\":585:591   */\n  dup3\n    /* \"#utility.yul\":574:583   */\n  dup6\n    /* \"#utility.yul\":570:592   */\n  add\n    /* \"#utility.yul\":510:602   */\n  tag_18\n  jump\t// in\ntag_26:\n    /* \"#utility.yul\":500:602   */\n  swap2\n  pop\n    /* \"#utility.yul\":456:612   */\n  pop\n    /* \"#utility.yul\":212:619   */\n  swap3\n  swap2\n  pop\n  pop\n  jump\t// out\n    /* \"#utility.yul\":706:802   */\ntag_29:\n    /* \"#utility.yul\":743:750   */\n  0x00\n    /* \"#utility.yul\":772:796   */\n  tag_31\n    /* \"#utility.yul\":790:795   */\n  dup3\n    /* \"#utility.yul\":772:796   */\n  tag_32\n  jump\t// in\ntag_31:\n    /* \"#utility.yul\":761:796   */\n  swap1\n  pop\n    /* \"#utility.yul\":706:802   */\n  swap2\n  swap1\n  pop\n  jump\t// out\n    /* \"#utility.yul\":808:932   */\ntag_33:\n    /* \"#utility.yul\":873:880   */\n  0x00\n    /* \"#utility.yul\":902:926   */\n  tag_35\n    /* \"#utility.yul\":920:925   */\n  dup3\n    /* \"#utility.yul\":902:926   */\n  tag_29\n  jump\t// in\ntag_35:\n    /* \"#utility.yul\":891:926   */\n  swap1\n  pop\n    /* \"#utility.yul\":808:932   */\n  swap2\n  swap1\n  pop\n  jump\t// out\n    /* \"#utility.yul\":938:1064   */\ntag_32:\n    /* \"#utility.yul\":975:982   */\n  0x00\n    /* \"#utility.yul\":1015:1057   */\n  0xffffffffffffffffffffffffffffffffffffffff\n    /* \"#utility.yul\":1008:1013   */\n  dup3\n    /* \"#utility.yul\":1004:1058   */\n  and\n    /* \"#utility.yul\":993:1058   */\n  swap1\n  pop\n    /* \"#utility.yul\":938:1064   */\n  swap2\n  swap1\n  pop\n  jump\t// out\n    /* \"#utility.yul\":1193:1310   */\ntag_25:\n    /* \"#utility.yul\":1302:1303   */\n  0x00\n    /* \"#utility.yul\":1299:1300   */\n  dup1\n    /* \"#utility.yul\":1292:1304   */\n  revert\n    /* \"#utility.yul\":1316:1494   */\ntag_21:\n    /* \"#utility.yul\":1417:1469   */\n  tag_41\n    /* \"#utility.yul\":1463:1468   */\n  dup2\n    /* \"#utility.yul\":1417:1469   */\n  tag_33\n  jump\t// in\ntag_41:\n    /* \"#utility.yul\":1410:1415   */\n  dup2\n    /* \"#utility.yul\":1407:1470   */\n  eq\n    /* \"#utility.yul\":1397:1488   */\n  tag_42\n  jumpi\n    /* \"#utility.yul\":1484:1485   */\n  0x00\n    /* \"#utility.yul\":1481:1482   */\n  dup1\n    /* \"#utility.yul\":1474:1486   */\n  revert\n    /* \"#utility.yul\":1397:1488   */\ntag_42:\n    /* \"#utility.yul\":1316:1494   */\n  pop\n  jump\t// out\n    /* \"facets/CommunicationFacet.sol\":141:796  contract CommunicationFacet is Ownable, GateableFacet {... */\ntag_14:\n  dataSize(sub_0)\n  dup1\n  dataOffset(sub_0)\n  0x00\n  codecopy\n  0x00\n  return\nstop\n\nsub_0: assembly {\n        /* \"facets/CommunicationFacet.sol\":141:796  contract CommunicationFacet is Ownable, GateableFacet {... */\n      mstore(0x40, 0x80)\n      callvalue\n      dup1\n      iszero\n      tag_1\n      jumpi\n      0x00\n      dup1\n      revert\n    tag_1:\n      pop\n      jumpi(tag_2, lt(calldatasize, 0x04))\n      shr(0xe0, calldataload(0x00))\n      dup1\n      0x8da5cb5b\n      gt\n      tag_10\n      jumpi\n      dup1\n      0x8da5cb5b\n      eq\n      tag_6\n      jumpi\n      dup1\n      0xd37c1100\n      eq\n      tag_7\n      jumpi\n      dup1\n      0xdce8a955\n      eq\n      tag_8\n      jumpi\n      dup1\n      0xf2fde38b\n      eq\n      tag_9\n      jumpi\n      jump(tag_2)\n    tag_10:\n      dup1\n      0x436e99f3\n      eq\n      tag_3\n      jumpi\n      dup1\n      0x5f7690b3\n      eq\n      tag_4\n      jumpi\n      dup1\n      0x715018a6\n      eq\n      tag_5\n      jumpi\n    tag_2:\n      0x00\n      dup1\n      revert\n        /* \"facets/CommunicationFacet.sol\":676:793  function postVibe_unauthorised(string memory someParam) credentialCallback external {... */\n    tag_3:\n      tag_11\n      0x04\n      dup1\n      calldatasize\n      sub\n      dup2\n      add\n      swap1\n      tag_12\n      swap2\n      swap1\n      tag_13\n      jump\t// in\n    tag_12:\n      tag_14\n      jump\t// in\n    tag_11:\n      stop\n        /* \"facets/GateableFacet.sol\":165:209  CredentialEventFacet public CREDENTIAL_EVENT */\n    tag_4:\n      tag_15\n      tag_16\n      jump\t// in\n    tag_15:\n      mload(0x40)\n      tag_17\n      swap2\n      swap1\n      tag_18\n      jump\t// in\n    tag_17:\n      mload(0x40)\n      dup1\n      swap2\n      sub\n      swap1\n      return\n        /* \"@openzeppelin/contracts/access/Ownable.sol\":1668:1769  function renounceOwnership() public virtual onlyOwner {... */\n    tag_5:\n      tag_19\n      tag_20\n      jump\t// in\n    tag_19:\n      stop\n        /* \"@openzeppelin/contracts/access/Ownable.sol\":1036:1121  function owner() public view virtual returns (address) {... */\n    tag_6:\n      tag_21\n      tag_22\n      jump\t// in\n    tag_21:\n      mload(0x40)\n      tag_23\n      swap2\n      swap1\n      tag_24\n      jump\t// in\n    tag_23:\n      mload(0x40)\n      dup1\n      swap2\n      sub\n      swap1\n      return\n        /* \"facets/CommunicationFacet.sol\":370:538  function postVibe(string memory someParam, string memory _listId, string memory thirdparam, uint256 num, uint[] memory _good) has_credential(address(this)) external {... */\n    tag_7:\n      tag_25\n      0x04\n      dup1\n      calldatasize\n      sub\n      dup2\n      add\n      swap1\n      tag_26\n      swap2\n      swap1\n      tag_27\n      jump\t// in\n    tag_26:\n      tag_28\n      jump\t// in\n    tag_25:\n      stop\n        /* \"facets/CommunicationFacet.sol\":540:674  function postVibe_authorised(string memory someParam, bytes[] memory proof) credentialCallback external {... */\n    tag_8:\n      tag_29\n      0x04\n      dup1\n      calldatasize\n      sub\n      dup2\n      add\n      swap1\n      tag_30\n      swap2\n      swap1\n      tag_31\n      jump\t// in\n    tag_30:\n      tag_32\n      jump\t// in\n    tag_29:\n      stop\n        /* \"@openzeppelin/contracts/access/Ownable.sol\":1918:2116  function transferOwnership(address newOwner) public virtual onlyOwner {... */\n    tag_9:\n      tag_33\n      0x04\n      dup1\n      calldatasize\n      sub\n      dup2\n      add\n      swap1\n      tag_34\n      swap2\n      swap1\n      tag_35\n      jump\t// in\n    tag_34:\n      tag_36\n      jump\t// in\n    tag_33:\n      stop\n        /* \"facets/CommunicationFacet.sol\":676:793  function postVibe_unauthorised(string memory someParam) credentialCallback external {... */\n    tag_14:\n        /* \"facets/GateableFacet.sol\":672:689  CREDENTIAL_ORACLE */\n      0x01\n      0x00\n      swap1\n      sload\n      swap1\n      0x0100\n      exp\n      swap1\n      div\n      0xffffffffffffffffffffffffffffffffffffffff\n      and\n        /* \"facets/GateableFacet.sol\":658:689  msg.sender == CREDENTIAL_ORACLE */\n      0xffffffffffffffffffffffffffffffffffffffff\n      and\n        /* \"facets/GateableFacet.sol\":658:668  msg.sender */\n      caller\n        /* \"facets/GateableFacet.sol\":658:689  msg.sender == CREDENTIAL_ORACLE */\n      0xffffffffffffffffffffffffffffffffffffffff\n      and\n      eq\n        /* \"facets/GateableFacet.sol\":650:753  require(msg.sender == CREDENTIAL_ORACLE, \"Credential CallBack: Only the oracle can call this function\") */\n      tag_38\n      jumpi\n      mload(0x40)\n      0x08c379a000000000000000000000000000000000000000000000000000000000\n      dup2\n      mstore\n      0x04\n      add\n      tag_39\n      swap1\n      tag_40\n      jump\t// in\n    tag_39:\n      mload(0x40)\n      dup1\n      swap2\n      sub\n      swap1\n      revert\n    tag_38:\n        /* \"facets/CommunicationFacet.sol\":676:793  function postVibe_unauthorised(string memory someParam) credentialCallback external {... */\n      pop\n      jump\t// out\n        /* \"facets/GateableFacet.sol\":165:209  CredentialEventFacet public CREDENTIAL_EVENT */\n    tag_16:\n      0x02\n      0x00\n      swap1\n      sload\n      swap1\n      0x0100\n      exp\n      swap1\n      div\n      0xffffffffffffffffffffffffffffffffffffffff\n      and\n      dup2\n      jump\t// out\n        /* \"@openzeppelin/contracts/access/Ownable.sol\":1668:1769  function renounceOwnership() public virtual onlyOwner {... */\n    tag_20:\n        /* \"@openzeppelin/contracts/access/Ownable.sol\":1259:1271  _msgSender() */\n      tag_43\n        /* \"@openzeppelin/contracts/access/Ownable.sol\":1259:1269  _msgSender */\n      tag_44\n        /* \"@openzeppelin/contracts/access/Ownable.sol\":1259:1271  _msgSender() */\n      jump\t// in\n    tag_43:\n        /* \"@openzeppelin/contracts/access/Ownable.sol\":1248:1271  owner() == _msgSender() */\n      0xffffffffffffffffffffffffffffffffffffffff\n      and\n        /* \"@openzeppelin/contracts/access/Ownable.sol\":1248:1255  owner() */\n      tag_45\n        /* \"@openzeppelin/contracts/access/Ownable.sol\":1248:1253  owner */\n      tag_22\n        /* \"@openzeppelin/contracts/access/Ownable.sol\":1248:1255  owner() */\n      jump\t// in\n    tag_45:\n        /* \"@openzeppelin/contracts/access/Ownable.sol\":1248:1271  owner() == _msgSender() */\n      0xffffffffffffffffffffffffffffffffffffffff\n      and\n      eq\n        /* \"@openzeppelin/contracts/access/Ownable.sol\":1240:1308  require(owner() == _msgSender(), \"Ownable: caller is not the owner\") */\n      tag_46\n      jumpi\n      mload(0x40)\n      0x08c379a000000000000000000000000000000000000000000000000000000000\n      dup2\n      mstore\n      0x04\n      add\n      tag_47\n      swap1\n      tag_48\n      jump\t// in\n    tag_47:\n      mload(0x40)\n      dup1\n      swap2\n      sub\n      swap1\n      revert\n    tag_46:\n        /* \"@openzeppelin/contracts/access/Ownable.sol\":1732:1762  _transferOwnership(address(0)) */\n      tag_50\n        /* \"@openzeppelin/contracts/access/Ownable.sol\":1759:1760  0 */\n      0x00\n        /* \"@openzeppelin/contracts/access/Ownable.sol\":1732:1750  _transferOwnership */\n      tag_51\n        /* \"@openzeppelin/contracts/access/Ownable.sol\":1732:1762  _transferOwnership(address(0)) */\n      jump\t// in\n    tag_50:\n        /* \"@openzeppelin/contracts/access/Ownable.sol\":1668:1769  function renounceOwnership() public virtual onlyOwner {... */\n      jump\t// out\n        /* \"@openzeppelin/contracts/access/Ownable.sol\":1036:1121  function owner() public view virtual returns (address) {... */\n    tag_22:\n        /* \"@openzeppelin/contracts/access/Ownable.sol\":1082:1089  address */\n      0x00\n        /* \"@openzeppelin/contracts/access/Ownable.sol\":1108:1114  _owner */\n      dup1\n      0x00\n      swap1\n      sload\n      swap1\n      0x0100\n      exp\n      swap1\n      div\n      0xffffffffffffffffffffffffffffffffffffffff\n      and\n        /* \"@openzeppelin/contracts/access/Ownable.sol\":1101:1114  return _owner */\n      swap1\n      pop\n        /* \"@openzeppelin/contracts/access/Ownable.sol\":1036:1121  function owner() public view virtual returns (address) {... */\n      swap1\n      jump\t// out\n        /* \"facets/CommunicationFacet.sol\":370:538  function postVibe(string memory someParam, string memory _listId, string memory thirdparam, uint256 num, uint[] memory _good) has_credential(address(this)) external {... */\n    tag_28:\n        /* \"facets/CommunicationFacet.sol\":519:523  this */\n      address\n        /* \"facets/GateableFacet.sol\":378:394  CREDENTIAL_EVENT */\n      0x02\n      0x00\n      swap1\n      sload\n      swap1\n      0x0100\n      exp\n      swap1\n      div\n      0xffffffffffffffffffffffffffffffffffffffff\n      and\n        /* \"facets/GateableFacet.sol\":378:404  CREDENTIAL_EVENT.emitEvent */\n      0xffffffffffffffffffffffffffffffffffffffff\n      and\n      0x502d6671\n        /* \"facets/GateableFacet.sol\":405:415  msg.sender */\n      caller\n        /* \"facets/GateableFacet.sol\":417:430  _contractAddr */\n      dup4\n        /* \"facets/GateableFacet.sol\":432:440  msg.data */\n      0x00\n      calldatasize\n        /* \"facets/GateableFacet.sol\":378:441  CREDENTIAL_EVENT.emitEvent(msg.sender, _contractAddr, msg.data) */\n      mload(0x40)\n      dup6\n      0xffffffff\n      and\n      0xe0\n      shl\n      dup2\n      mstore\n      0x04\n      add\n      tag_54\n      swap5\n      swap4\n      swap3\n      swap2\n      swap1\n      tag_55\n      jump\t// in\n    tag_54:\n      0x00\n      mload(0x40)\n      dup1\n      dup4\n      sub\n      dup2\n      0x00\n      dup8\n      dup1\n      extcodesize\n      iszero\n      dup1\n      iszero\n      tag_56\n      jumpi\n      0x00\n      dup1\n      revert\n    tag_56:\n      pop\n      gas\n      call\n      iszero\n      dup1\n      iszero\n      tag_58\n      jumpi\n      returndatasize\n      0x00\n      dup1\n      returndatacopy\n      revert(0x00, returndatasize)\n    tag_58:\n      pop\n      pop\n      pop\n      pop\n        /* \"facets/CommunicationFacet.sol\":370:538  function postVibe(string memory someParam, string memory _listId, string memory thirdparam, uint256 num, uint[] memory _good) has_credential(address(this)) external {... */\n      pop\n      pop\n      pop\n      pop\n      pop\n      pop\n      jump\t// out\n        /* \"facets/CommunicationFacet.sol\":540:674  function postVibe_authorised(string memory someParam, bytes[] memory proof) credentialCallback external {... */\n    tag_32:\n        /* \"facets/GateableFacet.sol\":672:689  CREDENTIAL_ORACLE */\n      0x01\n      0x00\n      swap1\n      sload\n      swap1\n      0x0100\n      exp\n      swap1\n      div\n      0xffffffffffffffffffffffffffffffffffffffff\n      and\n        /* \"facets/GateableFacet.sol\":658:689  msg.sender == CREDENTIAL_ORACLE */\n      0xffffffffffffffffffffffffffffffffffffffff\n      and\n        /* \"facets/GateableFacet.sol\":658:668  msg.sender */\n      caller\n        /* \"facets/GateableFacet.sol\":658:689  msg.sender == CREDENTIAL_ORACLE */\n      0xffffffffffffffffffffffffffffffffffffffff\n      and\n      eq\n        /* \"facets/GateableFacet.sol\":650:753  require(msg.sender == CREDENTIAL_ORACLE, \"Credential CallBack: Only the oracle can call this function\") */\n      tag_61\n      jumpi\n      mload(0x40)\n      0x08c379a000000000000000000000000000000000000000000000000000000000\n      dup2\n      mstore\n      0x04\n      add\n      tag_62\n      swap1\n      tag_40\n      jump\t// in\n    tag_62:\n      mload(0x40)\n      dup1\n      swap2\n      sub\n      swap1\n      revert\n    tag_61:\n        /* \"facets/CommunicationFacet.sol\":540:674  function postVibe_authorised(string memory someParam, bytes[] memory proof) credentialCallback external {... */\n      pop\n      pop\n      jump\t// out\n        /* \"@openzeppelin/contracts/access/Ownable.sol\":1918:2116  function transferOwnership(address newOwner) public virtual onlyOwner {... */\n    tag_36:\n        /* \"@openzeppelin/contracts/access/Ownable.sol\":1259:1271  _msgSender() */\n      tag_65\n        /* \"@openzeppelin/contracts/access/Ownable.sol\":1259:1269  _msgSender */\n      tag_44\n        /* \"@openzeppelin/contracts/access/Ownable.sol\":1259:1271  _msgSender() */\n      jump\t// in\n    tag_65:\n        /* \"@openzeppelin/contracts/access/Ownable.sol\":1248:1271  owner() == _msgSender() */\n      0xffffffffffffffffffffffffffffffffffffffff\n      and\n        /* \"@openzeppelin/contracts/access/Ownable.sol\":1248:1255  owner() */\n      tag_66\n        /* \"@openzeppelin/contracts/access/Ownable.sol\":1248:1253  owner */\n      tag_22\n        /* \"@openzeppelin/contracts/access/Ownable.sol\":1248:1255  owner() */\n      jump\t// in\n    tag_66:\n        /* \"@openzeppelin/contracts/access/Ownable.sol\":1248:1271  owner() == _msgSender() */\n      0xffffffffffffffffffffffffffffffffffffffff\n      and\n      eq\n        /* \"@openzeppelin/contracts/access/Ownable.sol\":1240:1308  require(owner() == _msgSender(), \"Ownable: caller is not the owner\") */\n      tag_67\n      jumpi\n      mload(0x40)\n      0x08c379a000000000000000000000000000000000000000000000000000000000\n      dup2\n      mstore\n      0x04\n      add\n      tag_68\n      swap1\n      tag_48\n      jump\t// in\n    tag_68:\n      mload(0x40)\n      dup1\n      swap2\n      sub\n      swap1\n      revert\n    tag_67:\n        /* \"@openzeppelin/contracts/access/Ownable.sol\":2026:2027  0 */\n      0x00\n        /* \"@openzeppelin/contracts/access/Ownable.sol\":2006:2028  newOwner != address(0) */\n      0xffffffffffffffffffffffffffffffffffffffff\n      and\n        /* \"@openzeppelin/contracts/access/Ownable.sol\":2006:2014  newOwner */\n      dup2\n        /* \"@openzeppelin/contracts/access/Ownable.sol\":2006:2028  newOwner != address(0) */\n      0xffffffffffffffffffffffffffffffffffffffff\n      and\n      eq\n      iszero\n        /* \"@openzeppelin/contracts/access/Ownable.sol\":1998:2071  require(newOwner != address(0), \"Ownable: new owner is the zero address\") */\n      tag_70\n      jumpi\n      mload(0x40)\n      0x08c379a000000000000000000000000000000000000000000000000000000000\n      dup2\n      mstore\n      0x04\n      add\n      tag_71\n      swap1\n      tag_72\n      jump\t// in\n    tag_71:\n      mload(0x40)\n      dup1\n      swap2\n      sub\n      swap1\n      revert\n    tag_70:\n        /* \"@openzeppelin/contracts/access/Ownable.sol\":2081:2109  _transferOwnership(newOwner) */\n      tag_73\n        /* \"@openzeppelin/contracts/access/Ownable.sol\":2100:2108  newOwner */\n      dup2\n        /* \"@openzeppelin/contracts/access/Ownable.sol\":2081:2099  _transferOwnership */\n      tag_51\n        /* \"@openzeppelin/contracts/access/Ownable.sol\":2081:2109  _transferOwnership(newOwner) */\n      jump\t// in\n    tag_73:\n        /* \"@openzeppelin/contracts/access/Ownable.sol\":1918:2116  function transferOwnership(address newOwner) public virtual onlyOwner {... */\n      pop\n      jump\t// out\n        /* \"@openzeppelin/contracts/utils/Context.sol\":640:736  function _msgSender() internal view virtual returns (address) {... */\n    tag_44:\n        /* \"@openzeppelin/contracts/utils/Context.sol\":693:700  address */\n      0x00\n        /* \"@openzeppelin/contracts/utils/Context.sol\":719:729  msg.sender */\n      caller\n        /* \"@openzeppelin/contracts/utils/Context.sol\":712:729  return msg.sender */\n      swap1\n      pop\n        /* \"@openzeppelin/contracts/utils/Context.sol\":640:736  function _msgSender() internal view virtual returns (address) {... */\n      swap1\n      jump\t// out\n        /* \"@openzeppelin/contracts/access/Ownable.sol\":2270:2457  function _transferOwnership(address newOwner) internal virtual {... */\n    tag_51:\n        /* \"@openzeppelin/contracts/access/Ownable.sol\":2343:2359  address oldOwner */\n      0x00\n        /* \"@openzeppelin/contracts/access/Ownable.sol\":2362:2368  _owner */\n      dup1\n      0x00\n      swap1\n      sload\n      swap1\n      0x0100\n      exp\n      swap1\n      div\n      0xffffffffffffffffffffffffffffffffffffffff\n      and\n        /* \"@openzeppelin/contracts/access/Ownable.sol\":2343:2368  address oldOwner = _owner */\n      swap1\n      pop\n        /* \"@openzeppelin/contracts/access/Ownable.sol\":2387:2395  newOwner */\n      dup2\n        /* \"@openzeppelin/contracts/access/Ownable.sol\":2378:2384  _owner */\n      0x00\n      dup1\n        /* \"@openzeppelin/contracts/access/Ownable.sol\":2378:2395  _owner = newOwner */\n      0x0100\n      exp\n      dup2\n      sload\n      dup2\n      0xffffffffffffffffffffffffffffffffffffffff\n      mul\n      not\n      and\n      swap1\n      dup4\n      0xffffffffffffffffffffffffffffffffffffffff\n      and\n      mul\n      or\n      swap1\n      sstore\n      pop\n        /* \"@openzeppelin/contracts/access/Ownable.sol\":2441:2449  newOwner */\n      dup2\n        /* \"@openzeppelin/contracts/access/Ownable.sol\":2410:2450  OwnershipTransferred(oldOwner, newOwner) */\n      0xffffffffffffffffffffffffffffffffffffffff\n      and\n        /* \"@openzeppelin/contracts/access/Ownable.sol\":2431:2439  oldOwner */\n      dup2\n        /* \"@openzeppelin/contracts/access/Ownable.sol\":2410:2450  OwnershipTransferred(oldOwner, newOwner) */\n      0xffffffffffffffffffffffffffffffffffffffff\n      and\n      0x8be0079c531659141344cd1fd0a4f28419497f9722a3daafe3b4186f6b6457e0\n      mload(0x40)\n      mload(0x40)\n      dup1\n      swap2\n      sub\n      swap1\n      log3\n        /* \"@openzeppelin/contracts/access/Ownable.sol\":2333:2457  {... */\n      pop\n        /* \"@openzeppelin/contracts/access/Ownable.sol\":2270:2457  function _transferOwnership(address newOwner) internal virtual {... */\n      pop\n      jump\t// out\n        /* \"#utility.yul\":22:976   */\n    tag_77:\n        /* \"#utility.yul\":127:132   */\n      0x00\n        /* \"#utility.yul\":152:242   */\n      tag_79\n        /* \"#utility.yul\":168:241   */\n      tag_80\n        /* \"#utility.yul\":234:240   */\n      dup5\n        /* \"#utility.yul\":168:241   */\n      tag_81\n      jump\t// in\n    tag_80:\n        /* \"#utility.yul\":152:242   */\n      tag_82\n      jump\t// in\n    tag_79:\n        /* \"#utility.yul\":143:242   */\n      swap1\n      pop\n        /* \"#utility.yul\":262:267   */\n      dup1\n        /* \"#utility.yul\":291:297   */\n      dup4\n        /* \"#utility.yul\":284:289   */\n      dup3\n        /* \"#utility.yul\":277:298   */\n      mstore\n        /* \"#utility.yul\":325:329   */\n      0x20\n        /* \"#utility.yul\":318:323   */\n      dup3\n        /* \"#utility.yul\":314:330   */\n      add\n        /* \"#utility.yul\":307:330   */\n      swap1\n      pop\n        /* \"#utility.yul\":351:357   */\n      dup3\n        /* \"#utility.yul\":401:404   */\n      dup6\n        /* \"#utility.yul\":393:397   */\n      0x20\n        /* \"#utility.yul\":385:391   */\n      dup7\n        /* \"#utility.yul\":381:398   */\n      mul\n        /* \"#utility.yul\":376:379   */\n      dup3\n        /* \"#utility.yul\":372:399   */\n      add\n        /* \"#utility.yul\":369:405   */\n      gt\n        /* \"#utility.yul\":366:509   */\n      iszero\n      tag_83\n      jumpi\n        /* \"#utility.yul\":420:499   */\n      tag_84\n      tag_85\n      jump\t// in\n    tag_84:\n        /* \"#utility.yul\":366:509   */\n    tag_83:\n        /* \"#utility.yul\":533:534   */\n      0x00\n        /* \"#utility.yul\":518:970   */\n    tag_86:\n        /* \"#utility.yul\":543:549   */\n      dup6\n        /* \"#utility.yul\":540:541   */\n      dup2\n        /* \"#utility.yul\":537:550   */\n      lt\n        /* \"#utility.yul\":518:970   */\n      iszero\n      tag_88\n      jumpi\n        /* \"#utility.yul\":625:628   */\n      dup2\n        /* \"#utility.yul\":612:629   */\n      calldataload\n        /* \"#utility.yul\":661:679   */\n      0xffffffffffffffff\n        /* \"#utility.yul\":648:659   */\n      dup2\n        /* \"#utility.yul\":645:680   */\n      gt\n        /* \"#utility.yul\":642:764   */\n      iszero\n      tag_89\n      jumpi\n        /* \"#utility.yul\":683:762   */\n      tag_90\n      tag_91\n      jump\t// in\n    tag_90:\n        /* \"#utility.yul\":642:764   */\n    tag_89:\n        /* \"#utility.yul\":807:818   */\n      dup1\n        /* \"#utility.yul\":799:805   */\n      dup7\n        /* \"#utility.yul\":795:819   */\n      add\n        /* \"#utility.yul\":845:891   */\n      tag_92\n        /* \"#utility.yul\":887:890   */\n      dup10\n        /* \"#utility.yul\":875:885   */\n      dup3\n        /* \"#utility.yul\":845:891   */\n      tag_93\n      jump\t// in\n    tag_92:\n        /* \"#utility.yul\":840:843   */\n      dup6\n        /* \"#utility.yul\":833:892   */\n      mstore\n        /* \"#utility.yul\":921:925   */\n      0x20\n        /* \"#utility.yul\":916:919   */\n      dup6\n        /* \"#utility.yul\":912:926   */\n      add\n        /* \"#utility.yul\":905:926   */\n      swap5\n      pop\n        /* \"#utility.yul\":955:959   */\n      0x20\n        /* \"#utility.yul\":950:953   */\n      dup5\n        /* \"#utility.yul\":946:960   */\n      add\n        /* \"#utility.yul\":939:960   */\n      swap4\n      pop\n        /* \"#utility.yul\":578:970   */\n      pop\n      pop\n        /* \"#utility.yul\":565:566   */\n      0x01\n        /* \"#utility.yul\":562:563   */\n      dup2\n        /* \"#utility.yul\":558:567   */\n      add\n        /* \"#utility.yul\":553:567   */\n      swap1\n      pop\n        /* \"#utility.yul\":518:970   */\n      jump(tag_86)\n    tag_88:\n        /* \"#utility.yul\":522:536   */\n      pop\n        /* \"#utility.yul\":133:976   */\n      pop\n      pop\n        /* \"#utility.yul\":22:976   */\n      swap4\n      swap3\n      pop\n      pop\n      pop\n      jump\t// out\n        /* \"#utility.yul\":999:1721   */\n    tag_94:\n        /* \"#utility.yul\":1095:1100   */\n      0x00\n        /* \"#utility.yul\":1120:1201   */\n      tag_96\n        /* \"#utility.yul\":1136:1200   */\n      tag_97\n        /* \"#utility.yul\":1193:1199   */\n      dup5\n        /* \"#utility.yul\":1136:1200   */\n      tag_98\n      jump\t// in\n    tag_97:\n        /* \"#utility.yul\":1120:1201   */\n      tag_82\n      jump\t// in\n    tag_96:\n        /* \"#utility.yul\":1111:1201   */\n      swap1\n      pop\n        /* \"#utility.yul\":1221:1226   */\n      dup1\n        /* \"#utility.yul\":1250:1256   */\n      dup4\n        /* \"#utility.yul\":1243:1248   */\n      dup3\n        /* \"#utility.yul\":1236:1257   */\n      mstore\n        /* \"#utility.yul\":1284:1288   */\n      0x20\n        /* \"#utility.yul\":1277:1282   */\n      dup3\n        /* \"#utility.yul\":1273:1289   */\n      add\n        /* \"#utility.yul\":1266:1289   */\n      swap1\n      pop\n        /* \"#utility.yul\":1310:1316   */\n      dup3\n        /* \"#utility.yul\":1360:1363   */\n      dup6\n        /* \"#utility.yul\":1352:1356   */\n      0x20\n        /* \"#utility.yul\":1344:1350   */\n      dup7\n        /* \"#utility.yul\":1340:1357   */\n      mul\n        /* \"#utility.yul\":1335:1338   */\n      dup3\n        /* \"#utility.yul\":1331:1358   */\n      add\n        /* \"#utility.yul\":1328:1364   */\n      gt\n        /* \"#utility.yul\":1325:1468   */\n      iszero\n      tag_99\n      jumpi\n        /* \"#utility.yul\":1379:1458   */\n      tag_100\n      tag_85\n      jump\t// in\n    tag_100:\n        /* \"#utility.yul\":1325:1468   */\n    tag_99:\n        /* \"#utility.yul\":1492:1493   */\n      0x00\n        /* \"#utility.yul\":1477:1715   */\n    tag_101:\n        /* \"#utility.yul\":1502:1508   */\n      dup6\n        /* \"#utility.yul\":1499:1500   */\n      dup2\n        /* \"#utility.yul\":1496:1509   */\n      lt\n        /* \"#utility.yul\":1477:1715   */\n      iszero\n      tag_103\n      jumpi\n        /* \"#utility.yul\":1570:1573   */\n      dup2\n        /* \"#utility.yul\":1599:1636   */\n      tag_104\n        /* \"#utility.yul\":1632:1635   */\n      dup9\n        /* \"#utility.yul\":1620:1630   */\n      dup3\n        /* \"#utility.yul\":1599:1636   */\n      tag_105\n      jump\t// in\n    tag_104:\n        /* \"#utility.yul\":1594:1597   */\n      dup5\n        /* \"#utility.yul\":1587:1637   */\n      mstore\n        /* \"#utility.yul\":1666:1670   */\n      0x20\n        /* \"#utility.yul\":1661:1664   */\n      dup5\n        /* \"#utility.yul\":1657:1671   */\n      add\n        /* \"#utility.yul\":1650:1671   */\n      swap4\n      pop\n        /* \"#utility.yul\":1700:1704   */\n      0x20\n        /* \"#utility.yul\":1695:1698   */\n      dup4\n        /* \"#utility.yul\":1691:1705   */\n      add\n        /* \"#utility.yul\":1684:1705   */\n      swap3\n      pop\n        /* \"#utility.yul\":1537:1715   */\n      pop\n        /* \"#utility.yul\":1524:1525   */\n      0x01\n        /* \"#utility.yul\":1521:1522   */\n      dup2\n        /* \"#utility.yul\":1517:1526   */\n      add\n        /* \"#utility.yul\":1512:1526   */\n      swap1\n      pop\n        /* \"#utility.yul\":1477:1715   */\n      jump(tag_101)\n    tag_103:\n        /* \"#utility.yul\":1481:1495   */\n      pop\n        /* \"#utility.yul\":1101:1721   */\n      pop\n      pop\n        /* \"#utility.yul\":999:1721   */\n      swap4\n      swap3\n      pop\n      pop\n      pop\n      jump\t// out\n        /* \"#utility.yul\":1727:2137   */\n    tag_106:\n        /* \"#utility.yul\":1804:1809   */\n      0x00\n        /* \"#utility.yul\":1829:1894   */\n      tag_108\n        /* \"#utility.yul\":1845:1893   */\n      tag_109\n        /* \"#utility.yul\":1886:1892   */\n      dup5\n        /* \"#utility.yul\":1845:1893   */\n      tag_110\n      jump\t// in\n    tag_109:\n        /* \"#utility.yul\":1829:1894   */\n      tag_82\n      jump\t// in\n    tag_108:\n        /* \"#utility.yul\":1820:1894   */\n      swap1\n      pop\n        /* \"#utility.yul\":1917:1923   */\n      dup3\n        /* \"#utility.yul\":1910:1915   */\n      dup2\n        /* \"#utility.yul\":1903:1924   */\n      mstore\n        /* \"#utility.yul\":1955:1959   */\n      0x20\n        /* \"#utility.yul\":1948:1953   */\n      dup2\n        /* \"#utility.yul\":1944:1960   */\n      add\n        /* \"#utility.yul\":1993:1996   */\n      dup5\n        /* \"#utility.yul\":1984:1990   */\n      dup5\n        /* \"#utility.yul\":1979:1982   */\n      dup5\n        /* \"#utility.yul\":1975:1991   */\n      add\n        /* \"#utility.yul\":1972:1997   */\n      gt\n        /* \"#utility.yul\":1969:2081   */\n      iszero\n      tag_111\n      jumpi\n        /* \"#utility.yul\":2000:2079   */\n      tag_112\n      tag_113\n      jump\t// in\n    tag_112:\n        /* \"#utility.yul\":1969:2081   */\n    tag_111:\n        /* \"#utility.yul\":2090:2131   */\n      tag_114\n        /* \"#utility.yul\":2124:2130   */\n      dup5\n        /* \"#utility.yul\":2119:2122   */\n      dup3\n        /* \"#utility.yul\":2114:2117   */\n      dup6\n        /* \"#utility.yul\":2090:2131   */\n      tag_115\n      jump\t// in\n    tag_114:\n        /* \"#utility.yul\":1810:2137   */\n      pop\n        /* \"#utility.yul\":1727:2137   */\n      swap4\n      swap3\n      pop\n      pop\n      pop\n      jump\t// out\n        /* \"#utility.yul\":2143:2555   */\n    tag_116:\n        /* \"#utility.yul\":2221:2226   */\n      0x00\n        /* \"#utility.yul\":2246:2312   */\n      tag_118\n        /* \"#utility.yul\":2262:2311   */\n      tag_119\n        /* \"#utility.yul\":2304:2310   */\n      dup5\n        /* \"#utility.yul\":2262:2311   */\n      tag_120\n      jump\t// in\n    tag_119:\n        /* \"#utility.yul\":2246:2312   */\n      tag_82\n      jump\t// in\n    tag_118:\n        /* \"#utility.yul\":2237:2312   */\n      swap1\n      pop\n        /* \"#utility.yul\":2335:2341   */\n      dup3\n        /* \"#utility.yul\":2328:2333   */\n      dup2\n        /* \"#utility.yul\":2321:2342   */\n      mstore\n        /* \"#utility.yul\":2373:2377   */\n      0x20\n        /* \"#utility.yul\":2366:2371   */\n      dup2\n        /* \"#utility.yul\":2362:2378   */\n      add\n        /* \"#utility.yul\":2411:2414   */\n      dup5\n        /* \"#utility.yul\":2402:2408   */\n      dup5\n        /* \"#utility.yul\":2397:2400   */\n      dup5\n        /* \"#utility.yul\":2393:2409   */\n      add\n        /* \"#utility.yul\":2390:2415   */\n      gt\n        /* \"#utility.yul\":2387:2499   */\n      iszero\n      tag_121\n      jumpi\n        /* \"#utility.yul\":2418:2497   */\n      tag_122\n      tag_113\n      jump\t// in\n    tag_122:\n        /* \"#utility.yul\":2387:2499   */\n    tag_121:\n        /* \"#utility.yul\":2508:2549   */\n      tag_123\n        /* \"#utility.yul\":2542:2548   */\n      dup5\n        /* \"#utility.yul\":2537:2540   */\n      dup3\n        /* \"#utility.yul\":2532:2535   */\n      dup6\n        /* \"#utility.yul\":2508:2549   */\n      tag_115\n      jump\t// in\n    tag_123:\n        /* \"#utility.yul\":2227:2555   */\n      pop\n        /* \"#utility.yul\":2143:2555   */\n      swap4\n      swap3\n      pop\n      pop\n      pop\n      jump\t// out\n        /* \"#utility.yul\":2561:2700   */\n    tag_124:\n        /* \"#utility.yul\":2607:2612   */\n      0x00\n        /* \"#utility.yul\":2645:2651   */\n      dup2\n        /* \"#utility.yul\":2632:2652   */\n      calldataload\n        /* \"#utility.yul\":2623:2652   */\n      swap1\n      pop\n        /* \"#utility.yul\":2661:2694   */\n      tag_126\n        /* \"#utility.yul\":2688:2693   */\n      dup2\n        /* \"#utility.yul\":2661:2694   */\n      tag_127\n      jump\t// in\n    tag_126:\n        /* \"#utility.yul\":2561:2700   */\n      swap3\n      swap2\n      pop\n      pop\n      jump\t// out\n        /* \"#utility.yul\":2721:3109   */\n    tag_128:\n        /* \"#utility.yul\":2801:2806   */\n      0x00\n        /* \"#utility.yul\":2850:2853   */\n      dup3\n        /* \"#utility.yul\":2843:2847   */\n      0x1f\n        /* \"#utility.yul\":2835:2841   */\n      dup4\n        /* \"#utility.yul\":2831:2848   */\n      add\n        /* \"#utility.yul\":2827:2854   */\n      slt\n        /* \"#utility.yul\":2817:2939   */\n      tag_130\n      jumpi\n        /* \"#utility.yul\":2858:2937   */\n      tag_131\n      tag_91\n      jump\t// in\n    tag_131:\n        /* \"#utility.yul\":2817:2939   */\n    tag_130:\n        /* \"#utility.yul\":2975:2981   */\n      dup2\n        /* \"#utility.yul\":2962:2982   */\n      calldataload\n        /* \"#utility.yul\":3000:3103   */\n      tag_132\n        /* \"#utility.yul\":3099:3102   */\n      dup5\n        /* \"#utility.yul\":3091:3097   */\n      dup3\n        /* \"#utility.yul\":3084:3088   */\n      0x20\n        /* \"#utility.yul\":3076:3082   */\n      dup7\n        /* \"#utility.yul\":3072:3089   */\n      add\n        /* \"#utility.yul\":3000:3103   */\n      tag_77\n      jump\t// in\n    tag_132:\n        /* \"#utility.yul\":2991:3103   */\n      swap2\n      pop\n        /* \"#utility.yul\":2807:3109   */\n      pop\n        /* \"#utility.yul\":2721:3109   */\n      swap3\n      swap2\n      pop\n      pop\n      jump\t// out\n        /* \"#utility.yul\":3132:3502   */\n    tag_133:\n        /* \"#utility.yul\":3203:3208   */\n      0x00\n        /* \"#utility.yul\":3252:3255   */\n      dup3\n        /* \"#utility.yul\":3245:3249   */\n      0x1f\n        /* \"#utility.yul\":3237:3243   */\n      dup4\n        /* \"#utility.yul\":3233:3250   */\n      add\n        /* \"#utility.yul\":3229:3256   */\n      slt\n        /* \"#utility.yul\":3219:3341   */\n      tag_135\n      jumpi\n        /* \"#utility.yul\":3260:3339   */\n      tag_136\n      tag_91\n      jump\t// in\n    tag_136:\n        /* \"#utility.yul\":3219:3341   */\n    tag_135:\n        /* \"#utility.yul\":3377:3383   */\n      dup2\n        /* \"#utility.yul\":3364:3384   */\n      calldataload\n        /* \"#utility.yul\":3402:3496   */\n      tag_137\n        /* \"#utility.yul\":3492:3495   */\n      dup5\n        /* \"#utility.yul\":3484:3490   */\n      dup3\n        /* \"#utility.yul\":3477:3481   */\n      0x20\n        /* \"#utility.yul\":3469:3475   */\n      dup7\n        /* \"#utility.yul\":3465:3482   */\n      add\n        /* \"#utility.yul\":3402:3496   */\n      tag_94\n      jump\t// in\n    tag_137:\n        /* \"#utility.yul\":3393:3496   */\n      swap2\n      pop\n        /* \"#utility.yul\":3209:3502   */\n      pop\n        /* \"#utility.yul\":3132:3502   */\n      swap3\n      swap2\n      pop\n      pop\n      jump\t// out\n        /* \"#utility.yul\":3521:3859   */\n    tag_93:\n        /* \"#utility.yul\":3576:3581   */\n      0x00\n        /* \"#utility.yul\":3625:3628   */\n      dup3\n        /* \"#utility.yul\":3618:3622   */\n      0x1f\n        /* \"#utility.yul\":3610:3616   */\n      dup4\n        /* \"#utility.yul\":3606:3623   */\n      add\n        /* \"#utility.yul\":3602:3629   */\n      slt\n        /* \"#utility.yul\":3592:3714   */\n      tag_139\n      jumpi\n        /* \"#utility.yul\":3633:3712   */\n      tag_140\n      tag_91\n      jump\t// in\n    tag_140:\n        /* \"#utility.yul\":3592:3714   */\n    tag_139:\n        /* \"#utility.yul\":3750:3756   */\n      dup2\n        /* \"#utility.yul\":3737:3757   */\n      calldataload\n        /* \"#utility.yul\":3775:3853   */\n      tag_141\n        /* \"#utility.yul\":3849:3852   */\n      dup5\n        /* \"#utility.yul\":3841:3847   */\n      dup3\n        /* \"#utility.yul\":3834:3838   */\n      0x20\n        /* \"#utility.yul\":3826:3832   */\n      dup7\n        /* \"#utility.yul\":3822:3839   */\n      add\n        /* \"#utility.yul\":3775:3853   */\n      tag_106\n      jump\t// in\n    tag_141:\n        /* \"#utility.yul\":3766:3853   */\n      swap2\n      pop\n        /* \"#utility.yul\":3582:3859   */\n      pop\n        /* \"#utility.yul\":3521:3859   */\n      swap3\n      swap2\n      pop\n      pop\n      jump\t// out\n        /* \"#utility.yul\":3879:4219   */\n    tag_142:\n        /* \"#utility.yul\":3935:3940   */\n      0x00\n        /* \"#utility.yul\":3984:3987   */\n      dup3\n        /* \"#utility.yul\":3977:3981   */\n      0x1f\n        /* \"#utility.yul\":3969:3975   */\n      dup4\n        /* \"#utility.yul\":3965:3982   */\n      add\n        /* \"#utility.yul\":3961:3988   */\n      slt\n        /* \"#utility.yul\":3951:4073   */\n      tag_144\n      jumpi\n        /* \"#utility.yul\":3992:4071   */\n      tag_145\n      tag_91\n      jump\t// in\n    tag_145:\n        /* \"#utility.yul\":3951:4073   */\n    tag_144:\n        /* \"#utility.yul\":4109:4115   */\n      dup2\n        /* \"#utility.yul\":4096:4116   */\n      calldataload\n        /* \"#utility.yul\":4134:4213   */\n      tag_146\n        /* \"#utility.yul\":4209:4212   */\n      dup5\n        /* \"#utility.yul\":4201:4207   */\n      dup3\n        /* \"#utility.yul\":4194:4198   */\n      0x20\n        /* \"#utility.yul\":4186:4192   */\n      dup7\n        /* \"#utility.yul\":4182:4199   */\n      add\n        /* \"#utility.yul\":4134:4213   */\n      tag_116\n      jump\t// in\n    tag_146:\n        /* \"#utility.yul\":4125:4213   */\n      swap2\n      pop\n        /* \"#utility.yul\":3941:4219   */\n      pop\n        /* \"#utility.yul\":3879:4219   */\n      swap3\n      swap2\n      pop\n      pop\n      jump\t// out\n        /* \"#utility.yul\":4225:4364   */\n    tag_105:\n        /* \"#utility.yul\":4271:4276   */\n      0x00\n        /* \"#utility.yul\":4309:4315   */\n      dup2\n        /* \"#utility.yul\":4296:4316   */\n      calldataload\n        /* \"#utility.yul\":4287:4316   */\n      swap1\n      pop\n        /* \"#utility.yul\":4325:4358   */\n      tag_148\n        /* \"#utility.yul\":4352:4357   */\n      dup2\n        /* \"#utility.yul\":4325:4358   */\n      tag_149\n      jump\t// in\n    tag_148:\n        /* \"#utility.yul\":4225:4364   */\n      swap3\n      swap2\n      pop\n      pop\n      jump\t// out\n        /* \"#utility.yul\":4370:4699   */\n    tag_35:\n        /* \"#utility.yul\":4429:4435   */\n      0x00\n        /* \"#utility.yul\":4478:4480   */\n      0x20\n        /* \"#utility.yul\":4466:4475   */\n      dup3\n        /* \"#utility.yul\":4457:4464   */\n      dup5\n        /* \"#utility.yul\":4453:4476   */\n      sub\n        /* \"#utility.yul\":4449:4481   */\n      slt\n        /* \"#utility.yul\":4446:4565   */\n      iszero\n      tag_151\n      jumpi\n        /* \"#utility.yul\":4484:4563   */\n      tag_152\n      tag_153\n      jump\t// in\n    tag_152:\n        /* \"#utility.yul\":4446:4565   */\n    tag_151:\n        /* \"#utility.yul\":4604:4605   */\n      0x00\n        /* \"#utility.yul\":4629:4682   */\n      tag_154\n        /* \"#utility.yul\":4674:4681   */\n      dup5\n        /* \"#utility.yul\":4665:4671   */\n      dup3\n        /* \"#utility.yul\":4654:4663   */\n      dup6\n        /* \"#utility.yul\":4650:4672   */\n      add\n        /* \"#utility.yul\":4629:4682   */\n      tag_124\n      jump\t// in\n    tag_154:\n        /* \"#utility.yul\":4619:4682   */\n      swap2\n      pop\n        /* \"#utility.yul\":4575:4692   */\n      pop\n        /* \"#utility.yul\":4370:4699   */\n      swap3\n      swap2\n      pop\n      pop\n      jump\t// out\n        /* \"#utility.yul\":4705:5214   */\n    tag_13:\n        /* \"#utility.yul\":4774:4780   */\n      0x00\n        /* \"#utility.yul\":4823:4825   */\n      0x20\n        /* \"#utility.yul\":4811:4820   */\n      dup3\n        /* \"#utility.yul\":4802:4809   */\n      dup5\n        /* \"#utility.yul\":4798:4821   */\n      sub\n        /* \"#utility.yul\":4794:4826   */\n      slt\n        /* \"#utility.yul\":4791:4910   */\n      iszero\n      tag_156\n      jumpi\n        /* \"#utility.yul\":4829:4908   */\n      tag_157\n      tag_153\n      jump\t// in\n    tag_157:\n        /* \"#utility.yul\":4791:4910   */\n    tag_156:\n        /* \"#utility.yul\":4977:4978   */\n      0x00\n        /* \"#utility.yul\":4966:4975   */\n      dup3\n        /* \"#utility.yul\":4962:4979   */\n      add\n        /* \"#utility.yul\":4949:4980   */\n      calldataload\n        /* \"#utility.yul\":5007:5025   */\n      0xffffffffffffffff\n        /* \"#utility.yul\":4999:5005   */\n      dup2\n        /* \"#utility.yul\":4996:5026   */\n      gt\n        /* \"#utility.yul\":4993:5110   */\n      iszero\n      tag_158\n      jumpi\n        /* \"#utility.yul\":5029:5108   */\n      tag_159\n      tag_160\n      jump\t// in\n    tag_159:\n        /* \"#utility.yul\":4993:5110   */\n    tag_158:\n        /* \"#utility.yul\":5134:5197   */\n      tag_161\n        /* \"#utility.yul\":5189:5196   */\n      dup5\n        /* \"#utility.yul\":5180:5186   */\n      dup3\n        /* \"#utility.yul\":5169:5178   */\n      dup6\n        /* \"#utility.yul\":5165:5187   */\n      add\n        /* \"#utility.yul\":5134:5197   */\n      tag_142\n      jump\t// in\n    tag_161:\n        /* \"#utility.yul\":5124:5197   */\n      swap2\n      pop\n        /* \"#utility.yul\":4920:5207   */\n      pop\n        /* \"#utility.yul\":4705:5214   */\n      swap3\n      swap2\n      pop\n      pop\n      jump\t// out\n        /* \"#utility.yul\":5220:6102   */\n    tag_31:\n        /* \"#utility.yul\":5332:5338   */\n      0x00\n        /* \"#utility.yul\":5340:5346   */\n      dup1\n        /* \"#utility.yul\":5389:5391   */\n      0x40\n        /* \"#utility.yul\":5377:5386   */\n      dup4\n        /* \"#utility.yul\":5368:5375   */\n      dup6\n        /* \"#utility.yul\":5364:5387   */\n      sub\n        /* \"#utility.yul\":5360:5392   */\n      slt\n        /* \"#utility.yul\":5357:5476   */\n      iszero\n      tag_163\n      jumpi\n        /* \"#utility.yul\":5395:5474   */\n      tag_164\n      tag_153\n      jump\t// in\n    tag_164:\n        /* \"#utility.yul\":5357:5476   */\n    tag_163:\n        /* \"#utility.yul\":5543:5544   */\n      0x00\n        /* \"#utility.yul\":5532:5541   */\n      dup4\n        /* \"#utility.yul\":5528:5545   */\n      add\n        /* \"#utility.yul\":5515:5546   */\n      calldataload\n        /* \"#utility.yul\":5573:5591   */\n      0xffffffffffffffff\n        /* \"#utility.yul\":5565:5571   */\n      dup2\n        /* \"#utility.yul\":5562:5592   */\n      gt\n        /* \"#utility.yul\":5559:5676   */\n      iszero\n      tag_165\n      jumpi\n        /* \"#utility.yul\":5595:5674   */\n      tag_166\n      tag_160\n      jump\t// in\n    tag_166:\n        /* \"#utility.yul\":5559:5676   */\n    tag_165:\n        /* \"#utility.yul\":5700:5763   */\n      tag_167\n        /* \"#utility.yul\":5755:5762   */\n      dup6\n        /* \"#utility.yul\":5746:5752   */\n      dup3\n        /* \"#utility.yul\":5735:5744   */\n      dup7\n        /* \"#utility.yul\":5731:5753   */\n      add\n        /* \"#utility.yul\":5700:5763   */\n      tag_142\n      jump\t// in\n    tag_167:\n        /* \"#utility.yul\":5690:5763   */\n      swap3\n      pop\n        /* \"#utility.yul\":5486:5773   */\n      pop\n        /* \"#utility.yul\":5840:5842   */\n      0x20\n        /* \"#utility.yul\":5829:5838   */\n      dup4\n        /* \"#utility.yul\":5825:5843   */\n      add\n        /* \"#utility.yul\":5812:5844   */\n      calldataload\n        /* \"#utility.yul\":5871:5889   */\n      0xffffffffffffffff\n        /* \"#utility.yul\":5863:5869   */\n      dup2\n        /* \"#utility.yul\":5860:5890   */\n      gt\n        /* \"#utility.yul\":5857:5974   */\n      iszero\n      tag_168\n      jumpi\n        /* \"#utility.yul\":5893:5972   */\n      tag_169\n      tag_160\n      jump\t// in\n    tag_169:\n        /* \"#utility.yul\":5857:5974   */\n    tag_168:\n        /* \"#utility.yul\":5998:6085   */\n      tag_170\n        /* \"#utility.yul\":6077:6084   */\n      dup6\n        /* \"#utility.yul\":6068:6074   */\n      dup3\n        /* \"#utility.yul\":6057:6066   */\n      dup7\n        /* \"#utility.yul\":6053:6075   */\n      add\n        /* \"#utility.yul\":5998:6085   */\n      tag_128\n      jump\t// in\n    tag_170:\n        /* \"#utility.yul\":5988:6085   */\n      swap2\n      pop\n        /* \"#utility.yul\":5783:6095   */\n      pop\n        /* \"#utility.yul\":5220:6102   */\n      swap3\n      pop\n      swap3\n      swap1\n      pop\n      jump\t// out\n        /* \"#utility.yul\":6108:7769   */\n    tag_27:\n        /* \"#utility.yul\":6258:6264   */\n      0x00\n        /* \"#utility.yul\":6266:6272   */\n      dup1\n        /* \"#utility.yul\":6274:6280   */\n      0x00\n        /* \"#utility.yul\":6282:6288   */\n      dup1\n        /* \"#utility.yul\":6290:6296   */\n      0x00\n        /* \"#utility.yul\":6339:6342   */\n      0xa0\n        /* \"#utility.yul\":6327:6336   */\n      dup7\n        /* \"#utility.yul\":6318:6325   */\n      dup9\n        /* \"#utility.yul\":6314:6337   */\n      sub\n        /* \"#utility.yul\":6310:6343   */\n      slt\n        /* \"#utility.yul\":6307:6427   */\n      iszero\n      tag_172\n      jumpi\n        /* \"#utility.yul\":6346:6425   */\n      tag_173\n      tag_153\n      jump\t// in\n    tag_173:\n        /* \"#utility.yul\":6307:6427   */\n    tag_172:\n        /* \"#utility.yul\":6494:6495   */\n      0x00\n        /* \"#utility.yul\":6483:6492   */\n      dup7\n        /* \"#utility.yul\":6479:6496   */\n      add\n        /* \"#utility.yul\":6466:6497   */\n      calldataload\n        /* \"#utility.yul\":6524:6542   */\n      0xffffffffffffffff\n        /* \"#utility.yul\":6516:6522   */\n      dup2\n        /* \"#utility.yul\":6513:6543   */\n      gt\n        /* \"#utility.yul\":6510:6627   */\n      iszero\n      tag_174\n      jumpi\n        /* \"#utility.yul\":6546:6625   */\n      tag_175\n      tag_160\n      jump\t// in\n    tag_175:\n        /* \"#utility.yul\":6510:6627   */\n    tag_174:\n        /* \"#utility.yul\":6651:6714   */\n      tag_176\n        /* \"#utility.yul\":6706:6713   */\n      dup9\n        /* \"#utility.yul\":6697:6703   */\n      dup3\n        /* \"#utility.yul\":6686:6695   */\n      dup10\n        /* \"#utility.yul\":6682:6704   */\n      add\n        /* \"#utility.yul\":6651:6714   */\n      tag_142\n      jump\t// in\n    tag_176:\n        /* \"#utility.yul\":6641:6714   */\n      swap6\n      pop\n        /* \"#utility.yul\":6437:6724   */\n      pop\n        /* \"#utility.yul\":6791:6793   */\n      0x20\n        /* \"#utility.yul\":6780:6789   */\n      dup7\n        /* \"#utility.yul\":6776:6794   */\n      add\n        /* \"#utility.yul\":6763:6795   */\n      calldataload\n        /* \"#utility.yul\":6822:6840   */\n      0xffffffffffffffff\n        /* \"#utility.yul\":6814:6820   */\n      dup2\n        /* \"#utility.yul\":6811:6841   */\n      gt\n        /* \"#utility.yul\":6808:6925   */\n      iszero\n      tag_177\n      jumpi\n        /* \"#utility.yul\":6844:6923   */\n      tag_178\n      tag_160\n      jump\t// in\n    tag_178:\n        /* \"#utility.yul\":6808:6925   */\n    tag_177:\n        /* \"#utility.yul\":6949:7012   */\n      tag_179\n        /* \"#utility.yul\":7004:7011   */\n      dup9\n        /* \"#utility.yul\":6995:7001   */\n      dup3\n        /* \"#utility.yul\":6984:6993   */\n      dup10\n        /* \"#utility.yul\":6980:7002   */\n      add\n        /* \"#utility.yul\":6949:7012   */\n      tag_142\n      jump\t// in\n    tag_179:\n        /* \"#utility.yul\":6939:7012   */\n      swap5\n      pop\n        /* \"#utility.yul\":6734:7022   */\n      pop\n        /* \"#utility.yul\":7089:7091   */\n      0x40\n        /* \"#utility.yul\":7078:7087   */\n      dup7\n        /* \"#utility.yul\":7074:7092   */\n      add\n        /* \"#utility.yul\":7061:7093   */\n      calldataload\n        /* \"#utility.yul\":7120:7138   */\n      0xffffffffffffffff\n        /* \"#utility.yul\":7112:7118   */\n      dup2\n        /* \"#utility.yul\":7109:7139   */\n      gt\n        /* \"#utility.yul\":7106:7223   */\n      iszero\n      tag_180\n      jumpi\n        /* \"#utility.yul\":7142:7221   */\n      tag_181\n      tag_160\n      jump\t// in\n    tag_181:\n        /* \"#utility.yul\":7106:7223   */\n    tag_180:\n        /* \"#utility.yul\":7247:7310   */\n      tag_182\n        /* \"#utility.yul\":7302:7309   */\n      dup9\n        /* \"#utility.yul\":7293:7299   */\n      dup3\n        /* \"#utility.yul\":7282:7291   */\n      dup10\n        /* \"#utility.yul\":7278:7300   */\n      add\n        /* \"#utility.yul\":7247:7310   */\n      tag_142\n      jump\t// in\n    tag_182:\n        /* \"#utility.yul\":7237:7310   */\n      swap4\n      pop\n        /* \"#utility.yul\":7032:7320   */\n      pop\n        /* \"#utility.yul\":7359:7361   */\n      0x60\n        /* \"#utility.yul\":7385:7438   */\n      tag_183\n        /* \"#utility.yul\":7430:7437   */\n      dup9\n        /* \"#utility.yul\":7421:7427   */\n      dup3\n        /* \"#utility.yul\":7410:7419   */\n      dup10\n        /* \"#utility.yul\":7406:7428   */\n      add\n        /* \"#utility.yul\":7385:7438   */\n      tag_105\n      jump\t// in\n    tag_183:\n        /* \"#utility.yul\":7375:7438   */\n      swap3\n      pop\n        /* \"#utility.yul\":7330:7448   */\n      pop\n        /* \"#utility.yul\":7515:7518   */\n      0x80\n        /* \"#utility.yul\":7504:7513   */\n      dup7\n        /* \"#utility.yul\":7500:7519   */\n      add\n        /* \"#utility.yul\":7487:7520   */\n      calldataload\n        /* \"#utility.yul\":7547:7565   */\n      0xffffffffffffffff\n        /* \"#utility.yul\":7539:7545   */\n      dup2\n        /* \"#utility.yul\":7536:7566   */\n      gt\n        /* \"#utility.yul\":7533:7650   */\n      iszero\n      tag_184\n      jumpi\n        /* \"#utility.yul\":7569:7648   */\n      tag_185\n      tag_160\n      jump\t// in\n    tag_185:\n        /* \"#utility.yul\":7533:7650   */\n    tag_184:\n        /* \"#utility.yul\":7674:7752   */\n      tag_186\n        /* \"#utility.yul\":7744:7751   */\n      dup9\n        /* \"#utility.yul\":7735:7741   */\n      dup3\n        /* \"#utility.yul\":7724:7733   */\n      dup10\n        /* \"#utility.yul\":7720:7742   */\n      add\n        /* \"#utility.yul\":7674:7752   */\n      tag_133\n      jump\t// in\n    tag_186:\n        /* \"#utility.yul\":7664:7752   */\n      swap2\n      pop\n        /* \"#utility.yul\":7458:7762   */\n      pop\n        /* \"#utility.yul\":6108:7769   */\n      swap3\n      swap6\n      pop\n      swap3\n      swap6\n      swap1\n      swap4\n      pop\n      jump\t// out\n        /* \"#utility.yul\":7775:7893   */\n    tag_187:\n        /* \"#utility.yul\":7862:7886   */\n      tag_189\n        /* \"#utility.yul\":7880:7885   */\n      dup2\n        /* \"#utility.yul\":7862:7886   */\n      tag_190\n      jump\t// in\n    tag_189:\n        /* \"#utility.yul\":7857:7860   */\n      dup3\n        /* \"#utility.yul\":7850:7887   */\n      mstore\n        /* \"#utility.yul\":7775:7893   */\n      pop\n      pop\n      jump\t// out\n        /* \"#utility.yul\":7921:8222   */\n    tag_191:\n        /* \"#utility.yul\":8017:8020   */\n      0x00\n        /* \"#utility.yul\":8038:8108   */\n      tag_193\n        /* \"#utility.yul\":8101:8107   */\n      dup4\n        /* \"#utility.yul\":8096:8099   */\n      dup6\n        /* \"#utility.yul\":8038:8108   */\n      tag_194\n      jump\t// in\n    tag_193:\n        /* \"#utility.yul\":8031:8108   */\n      swap4\n      pop\n        /* \"#utility.yul\":8118:8161   */\n      tag_195\n        /* \"#utility.yul\":8154:8160   */\n      dup4\n        /* \"#utility.yul\":8149:8152   */\n      dup6\n        /* \"#utility.yul\":8142:8147   */\n      dup5\n        /* \"#utility.yul\":8118:8161   */\n      tag_115\n      jump\t// in\n    tag_195:\n        /* \"#utility.yul\":8186:8215   */\n      tag_196\n        /* \"#utility.yul\":8208:8214   */\n      dup4\n        /* \"#utility.yul\":8186:8215   */\n      tag_197\n      jump\t// in\n    tag_196:\n        /* \"#utility.yul\":8181:8184   */\n      dup5\n        /* \"#utility.yul\":8177:8216   */\n      add\n        /* \"#utility.yul\":8170:8216   */\n      swap1\n      pop\n        /* \"#utility.yul\":7921:8222   */\n      swap4\n      swap3\n      pop\n      pop\n      pop\n      jump\t// out\n        /* \"#utility.yul\":8228:8415   */\n    tag_198:\n        /* \"#utility.yul\":8343:8408   */\n      tag_200\n        /* \"#utility.yul\":8402:8407   */\n      dup2\n        /* \"#utility.yul\":8343:8408   */\n      tag_201\n      jump\t// in\n    tag_200:\n        /* \"#utility.yul\":8338:8341   */\n      dup3\n        /* \"#utility.yul\":8331:8409   */\n      mstore\n        /* \"#utility.yul\":8228:8415   */\n      pop\n      pop\n      jump\t// out\n        /* \"#utility.yul\":8421:8787   */\n    tag_202:\n        /* \"#utility.yul\":8563:8566   */\n      0x00\n        /* \"#utility.yul\":8584:8651   */\n      tag_204\n        /* \"#utility.yul\":8648:8650   */\n      0x26\n        /* \"#utility.yul\":8643:8646   */\n      dup4\n        /* \"#utility.yul\":8584:8651   */\n      tag_205\n      jump\t// in\n    tag_204:\n        /* \"#utility.yul\":8577:8651   */\n      swap2\n      pop\n        /* \"#utility.yul\":8660:8753   */\n      tag_206\n        /* \"#utility.yul\":8749:8752   */\n      dup3\n        /* \"#utility.yul\":8660:8753   */\n      tag_207\n      jump\t// in\n    tag_206:\n        /* \"#utility.yul\":8778:8780   */\n      0x40\n        /* \"#utility.yul\":8773:8776   */\n      dup3\n        /* \"#utility.yul\":8769:8781   */\n      add\n        /* \"#utility.yul\":8762:8781   */\n      swap1\n      pop\n        /* \"#utility.yul\":8421:8787   */\n      swap2\n      swap1\n      pop\n      jump\t// out\n        /* \"#utility.yul\":8793:9159   */\n    tag_208:\n        /* \"#utility.yul\":8935:8938   */\n      0x00\n        /* \"#utility.yul\":8956:9023   */\n      tag_210\n        /* \"#utility.yul\":9020:9022   */\n      0x20\n        /* \"#utility.yul\":9015:9018   */\n      dup4\n        /* \"#utility.yul\":8956:9023   */\n      tag_205\n      jump\t// in\n    tag_210:\n        /* \"#utility.yul\":8949:9023   */\n      swap2\n      pop\n        /* \"#utility.yul\":9032:9125   */\n      tag_211\n        /* \"#utility.yul\":9121:9124   */\n      dup3\n        /* \"#utility.yul\":9032:9125   */\n      tag_212\n      jump\t// in\n    tag_211:\n        /* \"#utility.yul\":9150:9152   */\n      0x20\n        /* \"#utility.yul\":9145:9148   */\n      dup3\n        /* \"#utility.yul\":9141:9153   */\n      add\n        /* \"#utility.yul\":9134:9153   */\n      swap1\n      pop\n        /* \"#utility.yul\":8793:9159   */\n      swap2\n      swap1\n      pop\n      jump\t// out\n        /* \"#utility.yul\":9165:9531   */\n    tag_213:\n        /* \"#utility.yul\":9307:9310   */\n      0x00\n        /* \"#utility.yul\":9328:9395   */\n      tag_215\n        /* \"#utility.yul\":9392:9394   */\n      0x3b\n        /* \"#utility.yul\":9387:9390   */\n      dup4\n        /* \"#utility.yul\":9328:9395   */\n      tag_205\n      jump\t// in\n    tag_215:\n        /* \"#utility.yul\":9321:9395   */\n      swap2\n      pop\n        /* \"#utility.yul\":9404:9497   */\n      tag_216\n        /* \"#utility.yul\":9493:9496   */\n      dup3\n        /* \"#utility.yul\":9404:9497   */\n      tag_217\n      jump\t// in\n    tag_216:\n        /* \"#utility.yul\":9522:9524   */\n      0x40\n        /* \"#utility.yul\":9517:9520   */\n      dup3\n        /* \"#utility.yul\":9513:9525   */\n      add\n        /* \"#utility.yul\":9506:9525   */\n      swap1\n      pop\n        /* \"#utility.yul\":9165:9531   */\n      swap2\n      swap1\n      pop\n      jump\t// out\n        /* \"#utility.yul\":9537:9759   */\n    tag_24:\n        /* \"#utility.yul\":9630:9634   */\n      0x00\n        /* \"#utility.yul\":9668:9670   */\n      0x20\n        /* \"#utility.yul\":9657:9666   */\n      dup3\n        /* \"#utility.yul\":9653:9671   */\n      add\n        /* \"#utility.yul\":9645:9671   */\n      swap1\n      pop\n        /* \"#utility.yul\":9681:9752   */\n      tag_219\n        /* \"#utility.yul\":9749:9750   */\n      0x00\n        /* \"#utility.yul\":9738:9747   */\n      dup4\n        /* \"#utility.yul\":9734:9751   */\n      add\n        /* \"#utility.yul\":9725:9731   */\n      dup5\n        /* \"#utility.yul\":9681:9752   */\n      tag_187\n      jump\t// in\n    tag_219:\n        /* \"#utility.yul\":9537:9759   */\n      swap3\n      swap2\n      pop\n      pop\n      jump\t// out\n        /* \"#utility.yul\":9765:10314   */\n    tag_55:\n        /* \"#utility.yul\":9942:9946   */\n      0x00\n        /* \"#utility.yul\":9980:9982   */\n      0x60\n        /* \"#utility.yul\":9969:9978   */\n      dup3\n        /* \"#utility.yul\":9965:9983   */\n      add\n        /* \"#utility.yul\":9957:9983   */\n      swap1\n      pop\n        /* \"#utility.yul\":9993:10064   */\n      tag_221\n        /* \"#utility.yul\":10061:10062   */\n      0x00\n        /* \"#utility.yul\":10050:10059   */\n      dup4\n        /* \"#utility.yul\":10046:10063   */\n      add\n        /* \"#utility.yul\":10037:10043   */\n      dup8\n        /* \"#utility.yul\":9993:10064   */\n      tag_187\n      jump\t// in\n    tag_221:\n        /* \"#utility.yul\":10074:10146   */\n      tag_222\n        /* \"#utility.yul\":10142:10144   */\n      0x20\n        /* \"#utility.yul\":10131:10140   */\n      dup4\n        /* \"#utility.yul\":10127:10145   */\n      add\n        /* \"#utility.yul\":10118:10124   */\n      dup7\n        /* \"#utility.yul\":10074:10146   */\n      tag_187\n      jump\t// in\n    tag_222:\n        /* \"#utility.yul\":10193:10202   */\n      dup2\n        /* \"#utility.yul\":10187:10191   */\n      dup2\n        /* \"#utility.yul\":10183:10203   */\n      sub\n        /* \"#utility.yul\":10178:10180   */\n      0x40\n        /* \"#utility.yul\":10167:10176   */\n      dup4\n        /* \"#utility.yul\":10163:10181   */\n      add\n        /* \"#utility.yul\":10156:10204   */\n      mstore\n        /* \"#utility.yul\":10221:10307   */\n      tag_223\n        /* \"#utility.yul\":10302:10306   */\n      dup2\n        /* \"#utility.yul\":10293:10299   */\n      dup5\n        /* \"#utility.yul\":10285:10291   */\n      dup7\n        /* \"#utility.yul\":10221:10307   */\n      tag_191\n      jump\t// in\n    tag_223:\n        /* \"#utility.yul\":10213:10307   */\n      swap1\n      pop\n        /* \"#utility.yul\":9765:10314   */\n      swap6\n      swap5\n      pop\n      pop\n      pop\n      pop\n      pop\n      jump\t// out\n        /* \"#utility.yul\":10320:10598   */\n    tag_18:\n        /* \"#utility.yul\":10441:10445   */\n      0x00\n        /* \"#utility.yul\":10479:10481   */\n      0x20\n        /* \"#utility.yul\":10468:10477   */\n      dup3\n        /* \"#utility.yul\":10464:10482   */\n      add\n        /* \"#utility.yul\":10456:10482   */\n      swap1\n      pop\n        /* \"#utility.yul\":10492:10591   */\n      tag_225\n        /* \"#utility.yul\":10588:10589   */\n      0x00\n        /* \"#utility.yul\":10577:10586   */\n      dup4\n        /* \"#utility.yul\":10573:10590   */\n      add\n        /* \"#utility.yul\":10564:10570   */\n      dup5\n        /* \"#utility.yul\":10492:10591   */\n      tag_198\n      jump\t// in\n    tag_225:\n        /* \"#utility.yul\":10320:10598   */\n      swap3\n      swap2\n      pop\n      pop\n      jump\t// out\n        /* \"#utility.yul\":10604:11023   */\n    tag_72:\n        /* \"#utility.yul\":10770:10774   */\n      0x00\n        /* \"#utility.yul\":10808:10810   */\n      0x20\n        /* \"#utility.yul\":10797:10806   */\n      dup3\n        /* \"#utility.yul\":10793:10811   */\n      add\n        /* \"#utility.yul\":10785:10811   */\n      swap1\n      pop\n        /* \"#utility.yul\":10857:10866   */\n      dup2\n        /* \"#utility.yul\":10851:10855   */\n      dup2\n        /* \"#utility.yul\":10847:10867   */\n      sub\n        /* \"#utility.yul\":10843:10844   */\n      0x00\n        /* \"#utility.yul\":10832:10841   */\n      dup4\n        /* \"#utility.yul\":10828:10845   */\n      add\n        /* \"#utility.yul\":10821:10868   */\n      mstore\n        /* \"#utility.yul\":10885:11016   */\n      tag_227\n        /* \"#utility.yul\":11011:11015   */\n      dup2\n        /* \"#utility.yul\":10885:11016   */\n      tag_202\n      jump\t// in\n    tag_227:\n        /* \"#utility.yul\":10877:11016   */\n      swap1\n      pop\n        /* \"#utility.yul\":10604:11023   */\n      swap2\n      swap1\n      pop\n      jump\t// out\n        /* \"#utility.yul\":11029:11448   */\n    tag_48:\n        /* \"#utility.yul\":11195:11199   */\n      0x00\n        /* \"#utility.yul\":11233:11235   */\n      0x20\n        /* \"#utility.yul\":11222:11231   */\n      dup3\n        /* \"#utility.yul\":11218:11236   */\n      add\n        /* \"#utility.yul\":11210:11236   */\n      swap1\n      pop\n        /* \"#utility.yul\":11282:11291   */\n      dup2\n        /* \"#utility.yul\":11276:11280   */\n      dup2\n        /* \"#utility.yul\":11272:11292   */\n      sub\n        /* \"#utility.yul\":11268:11269   */\n      0x00\n        /* \"#utility.yul\":11257:11266   */\n      dup4\n        /* \"#utility.yul\":11253:11270   */\n      add\n        /* \"#utility.yul\":11246:11293   */\n      mstore\n        /* \"#utility.yul\":11310:11441   */\n      tag_229\n        /* \"#utility.yul\":11436:11440   */\n      dup2\n        /* \"#utility.yul\":11310:11441   */\n      tag_208\n      jump\t// in\n    tag_229:\n        /* \"#utility.yul\":11302:11441   */\n      swap1\n      pop\n        /* \"#utility.yul\":11029:11448   */\n      swap2\n      swap1\n      pop\n      jump\t// out\n        /* \"#utility.yul\":11454:11873   */\n    tag_40:\n        /* \"#utility.yul\":11620:11624   */\n      0x00\n        /* \"#utility.yul\":11658:11660   */\n      0x20\n        /* \"#utility.yul\":11647:11656   */\n      dup3\n        /* \"#utility.yul\":11643:11661   */\n      add\n        /* \"#utility.yul\":11635:11661   */\n      swap1\n      pop\n        /* \"#utility.yul\":11707:11716   */\n      dup2\n        /* \"#utility.yul\":11701:11705   */\n      dup2\n        /* \"#utility.yul\":11697:11717   */\n      sub\n        /* \"#utility.yul\":11693:11694   */\n      0x00\n        /* \"#utility.yul\":11682:11691   */\n      dup4\n        /* \"#utility.yul\":11678:11695   */\n      add\n        /* \"#utility.yul\":11671:11718   */\n      mstore\n        /* \"#utility.yul\":11735:11866   */\n      tag_231\n        /* \"#utility.yul\":11861:11865   */\n      dup2\n        /* \"#utility.yul\":11735:11866   */\n      tag_213\n      jump\t// in\n    tag_231:\n        /* \"#utility.yul\":11727:11866   */\n      swap1\n      pop\n        /* \"#utility.yul\":11454:11873   */\n      swap2\n      swap1\n      pop\n      jump\t// out\n        /* \"#utility.yul\":11879:12008   */\n    tag_82:\n        /* \"#utility.yul\":11913:11919   */\n      0x00\n        /* \"#utility.yul\":11940:11960   */\n      tag_233\n      tag_234\n      jump\t// in\n    tag_233:\n        /* \"#utility.yul\":11930:11960   */\n      swap1\n      pop\n        /* \"#utility.yul\":11969:12002   */\n      tag_235\n        /* \"#utility.yul\":11997:12001   */\n      dup3\n        /* \"#utility.yul\":11989:11995   */\n      dup3\n        /* \"#utility.yul\":11969:12002   */\n      tag_236\n      jump\t// in\n    tag_235:\n        /* \"#utility.yul\":11879:12008   */\n      swap2\n      swap1\n      pop\n      jump\t// out\n        /* \"#utility.yul\":12014:12089   */\n    tag_234:\n        /* \"#utility.yul\":12047:12053   */\n      0x00\n        /* \"#utility.yul\":12080:12082   */\n      0x40\n        /* \"#utility.yul\":12074:12083   */\n      mload\n        /* \"#utility.yul\":12064:12083   */\n      swap1\n      pop\n        /* \"#utility.yul\":12014:12089   */\n      swap1\n      jump\t// out\n        /* \"#utility.yul\":12095:12415   */\n    tag_81:\n        /* \"#utility.yul\":12181:12185   */\n      0x00\n        /* \"#utility.yul\":12271:12289   */\n      0xffffffffffffffff\n        /* \"#utility.yul\":12263:12269   */\n      dup3\n        /* \"#utility.yul\":12260:12290   */\n      gt\n        /* \"#utility.yul\":12257:12313   */\n      iszero\n      tag_239\n      jumpi\n        /* \"#utility.yul\":12293:12311   */\n      tag_240\n      tag_241\n      jump\t// in\n    tag_240:\n        /* \"#utility.yul\":12257:12313   */\n    tag_239:\n        /* \"#utility.yul\":12343:12347   */\n      0x20\n        /* \"#utility.yul\":12335:12341   */\n      dup3\n        /* \"#utility.yul\":12331:12348   */\n      mul\n        /* \"#utility.yul\":12323:12348   */\n      swap1\n      pop\n        /* \"#utility.yul\":12403:12407   */\n      0x20\n        /* \"#utility.yul\":12397:12401   */\n      dup2\n        /* \"#utility.yul\":12393:12408   */\n      add\n        /* \"#utility.yul\":12385:12408   */\n      swap1\n      pop\n        /* \"#utility.yul\":12095:12415   */\n      swap2\n      swap1\n      pop\n      jump\t// out\n        /* \"#utility.yul\":12421:12732   */\n    tag_98:\n        /* \"#utility.yul\":12498:12502   */\n      0x00\n        /* \"#utility.yul\":12588:12606   */\n      0xffffffffffffffff\n        /* \"#utility.yul\":12580:12586   */\n      dup3\n        /* \"#utility.yul\":12577:12607   */\n      gt\n        /* \"#utility.yul\":12574:12630   */\n      iszero\n      tag_243\n      jumpi\n        /* \"#utility.yul\":12610:12628   */\n      tag_244\n      tag_241\n      jump\t// in\n    tag_244:\n        /* \"#utility.yul\":12574:12630   */\n    tag_243:\n        /* \"#utility.yul\":12660:12664   */\n      0x20\n        /* \"#utility.yul\":12652:12658   */\n      dup3\n        /* \"#utility.yul\":12648:12665   */\n      mul\n        /* \"#utility.yul\":12640:12665   */\n      swap1\n      pop\n        /* \"#utility.yul\":12720:12724   */\n      0x20\n        /* \"#utility.yul\":12714:12718   */\n      dup2\n        /* \"#utility.yul\":12710:12725   */\n      add\n        /* \"#utility.yul\":12702:12725   */\n      swap1\n      pop\n        /* \"#utility.yul\":12421:12732   */\n      swap2\n      swap1\n      pop\n      jump\t// out\n        /* \"#utility.yul\":12738:13045   */\n    tag_110:\n        /* \"#utility.yul\":12799:12803   */\n      0x00\n        /* \"#utility.yul\":12889:12907   */\n      0xffffffffffffffff\n        /* \"#utility.yul\":12881:12887   */\n      dup3\n        /* \"#utility.yul\":12878:12908   */\n      gt\n        /* \"#utility.yul\":12875:12931   */\n      iszero\n      tag_246\n      jumpi\n        /* \"#utility.yul\":12911:12929   */\n      tag_247\n      tag_241\n      jump\t// in\n    tag_247:\n        /* \"#utility.yul\":12875:12931   */\n    tag_246:\n        /* \"#utility.yul\":12949:12978   */\n      tag_248\n        /* \"#utility.yul\":12971:12977   */\n      dup3\n        /* \"#utility.yul\":12949:12978   */\n      tag_197\n      jump\t// in\n    tag_248:\n        /* \"#utility.yul\":12941:12978   */\n      swap1\n      pop\n        /* \"#utility.yul\":13033:13037   */\n      0x20\n        /* \"#utility.yul\":13027:13031   */\n      dup2\n        /* \"#utility.yul\":13023:13038   */\n      add\n        /* \"#utility.yul\":13015:13038   */\n      swap1\n      pop\n        /* \"#utility.yul\":12738:13045   */\n      swap2\n      swap1\n      pop\n      jump\t// out\n        /* \"#utility.yul\":13051:13359   */\n    tag_120:\n        /* \"#utility.yul\":13113:13117   */\n      0x00\n        /* \"#utility.yul\":13203:13221   */\n      0xffffffffffffffff\n        /* \"#utility.yul\":13195:13201   */\n      dup3\n        /* \"#utility.yul\":13192:13222   */\n      gt\n        /* \"#utility.yul\":13189:13245   */\n      iszero\n      tag_250\n      jumpi\n        /* \"#utility.yul\":13225:13243   */\n      tag_251\n      tag_241\n      jump\t// in\n    tag_251:\n        /* \"#utility.yul\":13189:13245   */\n    tag_250:\n        /* \"#utility.yul\":13263:13292   */\n      tag_252\n        /* \"#utility.yul\":13285:13291   */\n      dup3\n        /* \"#utility.yul\":13263:13292   */\n      tag_197\n      jump\t// in\n    tag_252:\n        /* \"#utility.yul\":13255:13292   */\n      swap1\n      pop\n        /* \"#utility.yul\":13347:13351   */\n      0x20\n        /* \"#utility.yul\":13341:13345   */\n      dup2\n        /* \"#utility.yul\":13337:13352   */\n      add\n        /* \"#utility.yul\":13329:13352   */\n      swap1\n      pop\n        /* \"#utility.yul\":13051:13359   */\n      swap2\n      swap1\n      pop\n      jump\t// out\n        /* \"#utility.yul\":13365:13533   */\n    tag_194:\n        /* \"#utility.yul\":13448:13459   */\n      0x00\n        /* \"#utility.yul\":13482:13488   */\n      dup3\n        /* \"#utility.yul\":13477:13480   */\n      dup3\n        /* \"#utility.yul\":13470:13489   */\n      mstore\n        /* \"#utility.yul\":13522:13526   */\n      0x20\n        /* \"#utility.yul\":13517:13520   */\n      dup3\n        /* \"#utility.yul\":13513:13527   */\n      add\n        /* \"#utility.yul\":13498:13527   */\n      swap1\n      pop\n        /* \"#utility.yul\":13365:13533   */\n      swap3\n      swap2\n      pop\n      pop\n      jump\t// out\n        /* \"#utility.yul\":13539:13708   */\n    tag_205:\n        /* \"#utility.yul\":13623:13634   */\n      0x00\n        /* \"#utility.yul\":13657:13663   */\n      dup3\n        /* \"#utility.yul\":13652:13655   */\n      dup3\n        /* \"#utility.yul\":13645:13664   */\n      mstore\n        /* \"#utility.yul\":13697:13701   */\n      0x20\n        /* \"#utility.yul\":13692:13695   */\n      dup3\n        /* \"#utility.yul\":13688:13702   */\n      add\n        /* \"#utility.yul\":13673:13702   */\n      swap1\n      pop\n        /* \"#utility.yul\":13539:13708   */\n      swap3\n      swap2\n      pop\n      pop\n      jump\t// out\n        /* \"#utility.yul\":13714:13810   */\n    tag_190:\n        /* \"#utility.yul\":13751:13758   */\n      0x00\n        /* \"#utility.yul\":13780:13804   */\n      tag_256\n        /* \"#utility.yul\":13798:13803   */\n      dup3\n        /* \"#utility.yul\":13780:13804   */\n      tag_257\n      jump\t// in\n    tag_256:\n        /* \"#utility.yul\":13769:13804   */\n      swap1\n      pop\n        /* \"#utility.yul\":13714:13810   */\n      swap2\n      swap1\n      pop\n      jump\t// out\n        /* \"#utility.yul\":13816:13942   */\n    tag_257:\n        /* \"#utility.yul\":13853:13860   */\n      0x00\n        /* \"#utility.yul\":13893:13935   */\n      0xffffffffffffffffffffffffffffffffffffffff\n        /* \"#utility.yul\":13886:13891   */\n      dup3\n        /* \"#utility.yul\":13882:13936   */\n      and\n        /* \"#utility.yul\":13871:13936   */\n      swap1\n      pop\n        /* \"#utility.yul\":13816:13942   */\n      swap2\n      swap1\n      pop\n      jump\t// out\n        /* \"#utility.yul\":13948:14025   */\n    tag_259:\n        /* \"#utility.yul\":13985:13992   */\n      0x00\n        /* \"#utility.yul\":14014:14019   */\n      dup2\n        /* \"#utility.yul\":14003:14019   */\n      swap1\n      pop\n        /* \"#utility.yul\":13948:14025   */\n      swap2\n      swap1\n      pop\n      jump\t// out\n        /* \"#utility.yul\":14031:14185   */\n    tag_201:\n        /* \"#utility.yul\":14109:14118   */\n      0x00\n        /* \"#utility.yul\":14142:14179   */\n      tag_262\n        /* \"#utility.yul\":14173:14178   */\n      dup3\n        /* \"#utility.yul\":14142:14179   */\n      tag_263\n      jump\t// in\n    tag_262:\n        /* \"#utility.yul\":14129:14179   */\n      swap1\n      pop\n        /* \"#utility.yul\":14031:14185   */\n      swap2\n      swap1\n      pop\n      jump\t// out\n        /* \"#utility.yul\":14191:14317   */\n    tag_263:\n        /* \"#utility.yul\":14241:14250   */\n      0x00\n        /* \"#utility.yul\":14274:14311   */\n      tag_265\n        /* \"#utility.yul\":14305:14310   */\n      dup3\n        /* \"#utility.yul\":14274:14311   */\n      tag_266\n      jump\t// in\n    tag_265:\n        /* \"#utility.yul\":14261:14311   */\n      swap1\n      pop\n        /* \"#utility.yul\":14191:14317   */\n      swap2\n      swap1\n      pop\n      jump\t// out\n        /* \"#utility.yul\":14323:14436   */\n    tag_266:\n        /* \"#utility.yul\":14373:14382   */\n      0x00\n        /* \"#utility.yul\":14406:14430   */\n      tag_268\n        /* \"#utility.yul\":14424:14429   */\n      dup3\n        /* \"#utility.yul\":14406:14430   */\n      tag_257\n      jump\t// in\n    tag_268:\n        /* \"#utility.yul\":14393:14430   */\n      swap1\n      pop\n        /* \"#utility.yul\":14323:14436   */\n      swap2\n      swap1\n      pop\n      jump\t// out\n        /* \"#utility.yul\":14442:14596   */\n    tag_115:\n        /* \"#utility.yul\":14526:14532   */\n      dup3\n        /* \"#utility.yul\":14521:14524   */\n      dup2\n        /* \"#utility.yul\":14516:14519   */\n      dup4\n        /* \"#utility.yul\":14503:14533   */\n      calldatacopy\n        /* \"#utility.yul\":14588:14589   */\n      0x00\n        /* \"#utility.yul\":14579:14585   */\n      dup4\n        /* \"#utility.yul\":14574:14577   */\n      dup4\n        /* \"#utility.yul\":14570:14586   */\n      add\n        /* \"#utility.yul\":14563:14590   */\n      mstore\n        /* \"#utility.yul\":14442:14596   */\n      pop\n      pop\n      pop\n      jump\t// out\n        /* \"#utility.yul\":14602:14883   */\n    tag_236:\n        /* \"#utility.yul\":14685:14712   */\n      tag_271\n        /* \"#utility.yul\":14707:14711   */\n      dup3\n        /* \"#utility.yul\":14685:14712   */\n      tag_197\n      jump\t// in\n    tag_271:\n        /* \"#utility.yul\":14677:14683   */\n      dup2\n        /* \"#utility.yul\":14673:14713   */\n      add\n        /* \"#utility.yul\":14815:14821   */\n      dup2\n        /* \"#utility.yul\":14803:14813   */\n      dup2\n        /* \"#utility.yul\":14800:14822   */\n      lt\n        /* \"#utility.yul\":14779:14797   */\n      0xffffffffffffffff\n        /* \"#utility.yul\":14767:14777   */\n      dup3\n        /* \"#utility.yul\":14764:14798   */\n      gt\n        /* \"#utility.yul\":14761:14823   */\n      or\n        /* \"#utility.yul\":14758:14846   */\n      iszero\n      tag_272\n      jumpi\n        /* \"#utility.yul\":14826:14844   */\n      tag_273\n      tag_241\n      jump\t// in\n    tag_273:\n        /* \"#utility.yul\":14758:14846   */\n    tag_272:\n        /* \"#utility.yul\":14866:14876   */\n      dup1\n        /* \"#utility.yul\":14862:14864   */\n      0x40\n        /* \"#utility.yul\":14855:14877   */\n      mstore\n        /* \"#utility.yul\":14645:14883   */\n      pop\n        /* \"#utility.yul\":14602:14883   */\n      pop\n      pop\n      jump\t// out\n        /* \"#utility.yul\":14889:15069   */\n    tag_241:\n        /* \"#utility.yul\":14937:15014   */\n      0x4e487b7100000000000000000000000000000000000000000000000000000000\n        /* \"#utility.yul\":14934:14935   */\n      0x00\n        /* \"#utility.yul\":14927:15015   */\n      mstore\n        /* \"#utility.yul\":15034:15038   */\n      0x41\n        /* \"#utility.yul\":15031:15032   */\n      0x04\n        /* \"#utility.yul\":15024:15039   */\n      mstore\n        /* \"#utility.yul\":15058:15062   */\n      0x24\n        /* \"#utility.yul\":15055:15056   */\n      0x00\n        /* \"#utility.yul\":15048:15063   */\n      revert\n        /* \"#utility.yul\":15075:15192   */\n    tag_91:\n        /* \"#utility.yul\":15184:15185   */\n      0x00\n        /* \"#utility.yul\":15181:15182   */\n      dup1\n        /* \"#utility.yul\":15174:15186   */\n      revert\n        /* \"#utility.yul\":15198:15315   */\n    tag_85:\n        /* \"#utility.yul\":15307:15308   */\n      0x00\n        /* \"#utility.yul\":15304:15305   */\n      dup1\n        /* \"#utility.yul\":15297:15309   */\n      revert\n        /* \"#utility.yul\":15321:15438   */\n    tag_113:\n        /* \"#utility.yul\":15430:15431   */\n      0x00\n        /* \"#utility.yul\":15427:15428   */\n      dup1\n        /* \"#utility.yul\":15420:15432   */\n      revert\n        /* \"#utility.yul\":15444:15561   */\n    tag_160:\n        /* \"#utility.yul\":15553:15554   */\n      0x00\n        /* \"#utility.yul\":15550:15551   */\n      dup1\n        /* \"#utility.yul\":15543:15555   */\n      revert\n        /* \"#utility.yul\":15567:15684   */\n    tag_153:\n        /* \"#utility.yul\":15676:15677   */\n      0x00\n        /* \"#utility.yul\":15673:15674   */\n      dup1\n        /* \"#utility.yul\":15666:15678   */\n      revert\n        /* \"#utility.yul\":15690:15792   */\n    tag_197:\n        /* \"#utility.yul\":15731:15737   */\n      0x00\n        /* \"#utility.yul\":15782:15784   */\n      0x1f\n        /* \"#utility.yul\":15778:15785   */\n      not\n        /* \"#utility.yul\":15773:15775   */\n      0x1f\n        /* \"#utility.yul\":15766:15771   */\n      dup4\n        /* \"#utility.yul\":15762:15776   */\n      add\n        /* \"#utility.yul\":15758:15786   */\n      and\n        /* \"#utility.yul\":15748:15786   */\n      swap1\n      pop\n        /* \"#utility.yul\":15690:15792   */\n      swap2\n      swap1\n      pop\n      jump\t// out\n        /* \"#utility.yul\":15798:16023   */\n    tag_207:\n        /* \"#utility.yul\":15938:15972   */\n      0x4f776e61626c653a206e6577206f776e657220697320746865207a65726f2061\n        /* \"#utility.yul\":15934:15935   */\n      0x00\n        /* \"#utility.yul\":15926:15932   */\n      dup3\n        /* \"#utility.yul\":15922:15936   */\n      add\n        /* \"#utility.yul\":15915:15973   */\n      mstore\n        /* \"#utility.yul\":16007:16015   */\n      0x6464726573730000000000000000000000000000000000000000000000000000\n        /* \"#utility.yul\":16002:16004   */\n      0x20\n        /* \"#utility.yul\":15994:16000   */\n      dup3\n        /* \"#utility.yul\":15990:16005   */\n      add\n        /* \"#utility.yul\":15983:16016   */\n      mstore\n        /* \"#utility.yul\":15798:16023   */\n      pop\n      jump\t// out\n        /* \"#utility.yul\":16029:16211   */\n    tag_212:\n        /* \"#utility.yul\":16169:16203   */\n      0x4f776e61626c653a2063616c6c6572206973206e6f7420746865206f776e6572\n        /* \"#utility.yul\":16165:16166   */\n      0x00\n        /* \"#utility.yul\":16157:16163   */\n      dup3\n        /* \"#utility.yul\":16153:16167   */\n      add\n        /* \"#utility.yul\":16146:16204   */\n      mstore\n        /* \"#utility.yul\":16029:16211   */\n      pop\n      jump\t// out\n        /* \"#utility.yul\":16217:16463   */\n    tag_217:\n        /* \"#utility.yul\":16357:16391   */\n      0x43726564656e7469616c2043616c6c4261636b3a204f6e6c7920746865206f72\n        /* \"#utility.yul\":16353:16354   */\n      0x00\n        /* \"#utility.yul\":16345:16351   */\n      dup3\n        /* \"#utility.yul\":16341:16355   */\n      add\n        /* \"#utility.yul\":16334:16392   */\n      mstore\n        /* \"#utility.yul\":16426:16455   */\n      0x61636c652063616e2063616c6c20746869732066756e6374696f6e0000000000\n        /* \"#utility.yul\":16421:16423   */\n      0x20\n        /* \"#utility.yul\":16413:16419   */\n      dup3\n        /* \"#utility.yul\":16409:16424   */\n      add\n        /* \"#utility.yul\":16402:16456   */\n      mstore\n        /* \"#utility.yul\":16217:16463   */\n      pop\n      jump\t// out\n        /* \"#utility.yul\":16469:16591   */\n    tag_127:\n        /* \"#utility.yul\":16542:16566   */\n      tag_285\n        /* \"#utility.yul\":16560:16565   */\n      dup2\n        /* \"#utility.yul\":16542:16566   */\n      tag_190\n      jump\t// in\n    tag_285:\n        /* \"#utility.yul\":16535:16540   */\n      dup2\n        /* \"#utility.yul\":16532:16567   */\n      eq\n        /* \"#utility.yul\":16522:16585   */\n      tag_286\n      jumpi\n        /* \"#utility.yul\":16581:16582   */\n      0x00\n        /* \"#utility.yul\":16578:16579   */\n      dup1\n        /* \"#utility.yul\":16571:16583   */\n      revert\n        /* \"#utility.yul\":16522:16585   */\n    tag_286:\n        /* \"#utility.yul\":16469:16591   */\n      pop\n      jump\t// out\n        /* \"#utility.yul\":16597:16719   */\n    tag_149:\n        /* \"#utility.yul\":16670:16694   */\n      tag_288\n        /* \"#utility.yul\":16688:16693   */\n      dup2\n        /* \"#utility.yul\":16670:16694   */\n      tag_259\n      jump\t// in\n    tag_288:\n        /* \"#utility.yul\":16663:16668   */\n      dup2\n        /* \"#utility.yul\":16660:16695   */\n      eq\n        /* \"#utility.yul\":16650:16713   */\n      tag_289\n      jumpi\n        /* \"#utility.yul\":16709:16710   */\n      0x00\n        /* \"#utility.yul\":16706:16707   */\n      dup1\n        /* \"#utility.yul\":16699:16711   */\n      revert\n        /* \"#utility.yul\":16650:16713   */\n    tag_289:\n        /* \"#utility.yul\":16597:16719   */\n      pop\n      jump\t// out\n\n    auxdata: 0xa26469706673582212207776d9bba054aa7f85f349a96478de2f8c75e662e4fefc8729a424774c70706564736f6c63430008070033\n}\n",
				"bytecode": {
					"linkReferences": {},
					"object": "60806040523480156200001157600080fd5b5060405162001103380380620011038339818101604052810190620000379190620001c5565b80620000586200004c620000e260201b60201c565b620000ea60201b60201c565b80600160006101000a81548173ffffffffffffffffffffffffffffffffffffffff021916908373ffffffffffffffffffffffffffffffffffffffff16021790555080600260006101000a81548173ffffffffffffffffffffffffffffffffffffffff021916908373ffffffffffffffffffffffffffffffffffffffff16021790555050506200025e565b600033905090565b60008060009054906101000a900473ffffffffffffffffffffffffffffffffffffffff169050816000806101000a81548173ffffffffffffffffffffffffffffffffffffffff021916908373ffffffffffffffffffffffffffffffffffffffff1602179055508173ffffffffffffffffffffffffffffffffffffffff168173ffffffffffffffffffffffffffffffffffffffff167f8be0079c531659141344cd1fd0a4f28419497f9722a3daafe3b4186f6b6457e060405160405180910390a35050565b600081519050620001bf8162000244565b92915050565b600060208284031215620001de57620001dd6200023f565b5b6000620001ee84828501620001ae565b91505092915050565b600062000204826200021f565b9050919050565b60006200021882620001f7565b9050919050565b600073ffffffffffffffffffffffffffffffffffffffff82169050919050565b600080fd5b6200024f816200020b565b81146200025b57600080fd5b50565b610e95806200026e6000396000f3fe608060405234801561001057600080fd5b506004361061007d5760003560e01c80638da5cb5b1161005b5780638da5cb5b146100c6578063d37c1100146100e4578063dce8a95514610100578063f2fde38b1461011c5761007d565b8063436e99f3146100825780635f7690b31461009e578063715018a6146100bc575b600080fd5b61009c60048036038101906100979190610828565b610138565b005b6100a66101cb565b6040516100b39190610ae3565b60405180910390f35b6100c46101f1565b005b6100ce610279565b6040516100db9190610a88565b60405180910390f35b6100fe60048036038101906100f991906108e9565b6102a2565b005b61011a60048036038101906101159190610871565b61033f565b005b610136600480360381019061013191906107fb565b6103d3565b005b600160009054906101000a900473ffffffffffffffffffffffffffffffffffffffff1673ffffffffffffffffffffffffffffffffffffffff163373ffffffffffffffffffffffffffffffffffffffff16146101c8576040517f08c379a00000000000000000000000000000000000000000000000000000000081526004016101bf90610b3e565b60405180910390fd5b50565b600260009054906101000a900473ffffffffffffffffffffffffffffffffffffffff1681565b6101f96104cb565b73ffffffffffffffffffffffffffffffffffffffff16610217610279565b73ffffffffffffffffffffffffffffffffffffffff161461026d576040517f08c379a000000000000000000000000000000000000000000000000000000000815260040161026490610b1e565b60405180910390fd5b61027760006104d3565b565b60008060009054906101000a900473ffffffffffffffffffffffffffffffffffffffff16905090565b30600260009054906101000a900473ffffffffffffffffffffffffffffffffffffffff1673ffffffffffffffffffffffffffffffffffffffff1663502d667133836000366040518563ffffffff1660e01b81526004016103059493929190610aa3565b600060405180830381600087803b15801561031f57600080fd5b505af1158015610333573d6000803e3d6000fd5b50505050505050505050565b600160009054906101000a900473ffffffffffffffffffffffffffffffffffffffff1673ffffffffffffffffffffffffffffffffffffffff163373ffffffffffffffffffffffffffffffffffffffff16146103cf576040517f08c379a00000000000000000000000000000000000000000000000000000000081526004016103c690610b3e565b60405180910390fd5b5050565b6103db6104cb565b73ffffffffffffffffffffffffffffffffffffffff166103f9610279565b73ffffffffffffffffffffffffffffffffffffffff161461044f576040517f08c379a000000000000000000000000000000000000000000000000000000000815260040161044690610b1e565b60405180910390fd5b600073ffffffffffffffffffffffffffffffffffffffff168173ffffffffffffffffffffffffffffffffffffffff1614156104bf576040517f08c379a00000000000000000000000000000000000000000000000000000000081526004016104b690610afe565b60405180910390fd5b6104c8816104d3565b50565b600033905090565b60008060009054906101000a900473ffffffffffffffffffffffffffffffffffffffff169050816000806101000a81548173ffffffffffffffffffffffffffffffffffffffff021916908373ffffffffffffffffffffffffffffffffffffffff1602179055508173ffffffffffffffffffffffffffffffffffffffff168173ffffffffffffffffffffffffffffffffffffffff167f8be0079c531659141344cd1fd0a4f28419497f9722a3daafe3b4186f6b6457e060405160405180910390a35050565b60006105aa6105a584610b83565b610b5e565b905080838252602082019050828560208602820111156105cd576105cc610d45565b5b60005b8581101561061b57813567ffffffffffffffff8111156105f3576105f2610d40565b5b808601610600898261078a565b855260208501945060208401935050506001810190506105d0565b5050509392505050565b600061063861063384610baf565b610b5e565b9050808382526020820190508285602086028201111561065b5761065a610d45565b5b60005b8581101561068b578161067188826107e6565b84526020840193506020830192505060018101905061065e565b5050509392505050565b60006106a86106a384610bdb565b610b5e565b9050828152602081018484840111156106c4576106c3610d4a565b5b6106cf848285610cd1565b509392505050565b60006106ea6106e584610c0c565b610b5e565b90508281526020810184848401111561070657610705610d4a565b5b610711848285610cd1565b509392505050565b60008135905061072881610e31565b92915050565b600082601f83011261074357610742610d40565b5b8135610753848260208601610597565b91505092915050565b600082601f83011261077157610770610d40565b5b8135610781848260208601610625565b91505092915050565b600082601f83011261079f5761079e610d40565b5b81356107af848260208601610695565b91505092915050565b600082601f8301126107cd576107cc610d40565b5b81356107dd8482602086016106d7565b91505092915050565b6000813590506107f581610e48565b92915050565b60006020828403121561081157610810610d54565b5b600061081f84828501610719565b91505092915050565b60006020828403121561083e5761083d610d54565b5b600082013567ffffffffffffffff81111561085c5761085b610d4f565b5b610868848285016107b8565b91505092915050565b6000806040838503121561088857610887610d54565b5b600083013567ffffffffffffffff8111156108a6576108a5610d4f565b5b6108b2858286016107b8565b925050602083013567ffffffffffffffff8111156108d3576108d2610d4f565b5b6108df8582860161072e565b9150509250929050565b600080600080600060a0868803121561090557610904610d54565b5b600086013567ffffffffffffffff81111561092357610922610d4f565b5b61092f888289016107b8565b955050602086013567ffffffffffffffff8111156109505761094f610d4f565b5b61095c888289016107b8565b945050604086013567ffffffffffffffff81111561097d5761097c610d4f565b5b610989888289016107b8565b935050606061099a888289016107e6565b925050608086013567ffffffffffffffff8111156109bb576109ba610d4f565b5b6109c78882890161075c565b9150509295509295909350565b6109dd81610c5f565b82525050565b60006109ef8385610c3d565b93506109fc838584610cd1565b610a0583610d59565b840190509392505050565b610a1981610c9b565b82525050565b6000610a2c602683610c4e565b9150610a3782610d6a565b604082019050919050565b6000610a4f602083610c4e565b9150610a5a82610db9565b602082019050919050565b6000610a72603b83610c4e565b9150610a7d82610de2565b604082019050919050565b6000602082019050610a9d60008301846109d4565b92915050565b6000606082019050610ab860008301876109d4565b610ac560208301866109d4565b8181036040830152610ad88184866109e3565b905095945050505050565b6000602082019050610af86000830184610a10565b92915050565b60006020820190508181036000830152610b1781610a1f565b9050919050565b60006020820190508181036000830152610b3781610a42565b9050919050565b60006020820190508181036000830152610b5781610a65565b9050919050565b6000610b68610b79565b9050610b748282610ce0565b919050565b6000604051905090565b600067ffffffffffffffff821115610b9e57610b9d610d11565b5b602082029050602081019050919050565b600067ffffffffffffffff821115610bca57610bc9610d11565b5b602082029050602081019050919050565b600067ffffffffffffffff821115610bf657610bf5610d11565b5b610bff82610d59565b9050602081019050919050565b600067ffffffffffffffff821115610c2757610c26610d11565b5b610c3082610d59565b9050602081019050919050565b600082825260208201905092915050565b600082825260208201905092915050565b6000610c6a82610c71565b9050919050565b600073ffffffffffffffffffffffffffffffffffffffff82169050919050565b6000819050919050565b6000610ca682610cad565b9050919050565b6000610cb882610cbf565b9050919050565b6000610cca82610c71565b9050919050565b82818337600083830152505050565b610ce982610d59565b810181811067ffffffffffffffff82111715610d0857610d07610d11565b5b80604052505050565b7f4e487b7100000000000000000000000000000000000000000000000000000000600052604160045260246000fd5b600080fd5b600080fd5b600080fd5b600080fd5b600080fd5b6000601f19601f8301169050919050565b7f4f776e61626c653a206e6577206f776e657220697320746865207a65726f206160008201527f6464726573730000000000000000000000000000000000000000000000000000602082015250565b7f4f776e61626c653a2063616c6c6572206973206e6f7420746865206f776e6572600082015250565b7f43726564656e7469616c2043616c6c4261636b3a204f6e6c7920746865206f7260008201527f61636c652063616e2063616c6c20746869732066756e6374696f6e0000000000602082015250565b610e3a81610c5f565b8114610e4557600080fd5b50565b610e5181610c91565b8114610e5c57600080fd5b5056fea26469706673582212207776d9bba054aa7f85f349a96478de2f8c75e662e4fefc8729a424774c70706564736f6c63430008070033",
					"opcodes": "PUSH1 0x80 PUSH1 0x40 MSTORE CALLVALUE DUP1 ISZERO PUSH3 0x11 JUMPI PUSH1 0x0 DUP1 REVERT JUMPDEST POP PUSH1 0x40 MLOAD PUSH3 0x1103 CODESIZE SUB DUP1 PUSH3 0x1103 DUP4 CODECOPY DUP2 DUP2 ADD PUSH1 0x40 MSTORE DUP2 ADD SWAP1 PUSH3 0x37 SWAP2 SWAP1 PUSH3 0x1C5 JUMP JUMPDEST DUP1 PUSH3 0x58 PUSH3 0x4C PUSH3 0xE2 PUSH1 0x20 SHL PUSH1 0x20 SHR JUMP JUMPDEST PUSH3 0xEA PUSH1 0x20 SHL PUSH1 0x20 SHR JUMP JUMPDEST DUP1 PUSH1 0x1 PUSH1 0x0 PUSH2 0x100 EXP DUP2 SLOAD DUP2 PUSH20 0xFFFFFFFFFFFFFFFFFFFFFFFFFFFFFFFFFFFFFFFF MUL NOT AND SWAP1 DUP4 PUSH20 0xFFFFFFFFFFFFFFFFFFFFFFFFFFFFFFFFFFFFFFFF AND MUL OR SWAP1 SSTORE POP DUP1 PUSH1 0x2 PUSH1 0x0 PUSH2 0x100 EXP DUP2 SLOAD DUP2 PUSH20 0xFFFFFFFFFFFFFFFFFFFFFFFFFFFFFFFFFFFFFFFF MUL NOT AND SWAP1 DUP4 PUSH20 0xFFFFFFFFFFFFFFFFFFFFFFFFFFFFFFFFFFFFFFFF AND MUL OR SWAP1 SSTORE POP POP POP PUSH3 0x25E JUMP JUMPDEST PUSH1 0x0 CALLER SWAP1 POP SWAP1 JUMP JUMPDEST PUSH1 0x0 DUP1 PUSH1 0x0 SWAP1 SLOAD SWAP1 PUSH2 0x100 EXP SWAP1 DIV PUSH20 0xFFFFFFFFFFFFFFFFFFFFFFFFFFFFFFFFFFFFFFFF AND SWAP1 POP DUP2 PUSH1 0x0 DUP1 PUSH2 0x100 EXP DUP2 SLOAD DUP2 PUSH20 0xFFFFFFFFFFFFFFFFFFFFFFFFFFFFFFFFFFFFFFFF MUL NOT AND SWAP1 DUP4 PUSH20 0xFFFFFFFFFFFFFFFFFFFFFFFFFFFFFFFFFFFFFFFF AND MUL OR SWAP1 SSTORE POP DUP2 PUSH20 0xFFFFFFFFFFFFFFFFFFFFFFFFFFFFFFFFFFFFFFFF AND DUP2 PUSH20 0xFFFFFFFFFFFFFFFFFFFFFFFFFFFFFFFFFFFFFFFF AND PUSH32 0x8BE0079C531659141344CD1FD0A4F28419497F9722A3DAAFE3B4186F6B6457E0 PUSH1 0x40 MLOAD PUSH1 0x40 MLOAD DUP1 SWAP2 SUB SWAP1 LOG3 POP POP JUMP JUMPDEST PUSH1 0x0 DUP2 MLOAD SWAP1 POP PUSH3 0x1BF DUP2 PUSH3 0x244 JUMP JUMPDEST SWAP3 SWAP2 POP POP JUMP JUMPDEST PUSH1 0x0 PUSH1 0x20 DUP3 DUP5 SUB SLT ISZERO PUSH3 0x1DE JUMPI PUSH3 0x1DD PUSH3 0x23F JUMP JUMPDEST JUMPDEST PUSH1 0x0 PUSH3 0x1EE DUP5 DUP3 DUP6 ADD PUSH3 0x1AE JUMP JUMPDEST SWAP2 POP POP SWAP3 SWAP2 POP POP JUMP JUMPDEST PUSH1 0x0 PUSH3 0x204 DUP3 PUSH3 0x21F JUMP JUMPDEST SWAP1 POP SWAP2 SWAP1 POP JUMP JUMPDEST PUSH1 0x0 PUSH3 0x218 DUP3 PUSH3 0x1F7 JUMP JUMPDEST SWAP1 POP SWAP2 SWAP1 POP JUMP JUMPDEST PUSH1 0x0 PUSH20 0xFFFFFFFFFFFFFFFFFFFFFFFFFFFFFFFFFFFFFFFF DUP3 AND SWAP1 POP SWAP2 SWAP1 POP JUMP JUMPDEST PUSH1 0x0 DUP1 REVERT JUMPDEST PUSH3 0x24F DUP2 PUSH3 0x20B JUMP JUMPDEST DUP2 EQ PUSH3 0x25B JUMPI PUSH1 0x0 DUP1 REVERT JUMPDEST POP JUMP JUMPDEST PUSH2 0xE95 DUP1 PUSH3 0x26E PUSH1 0x0 CODECOPY PUSH1 0x0 RETURN INVALID PUSH1 0x80 PUSH1 0x40 MSTORE CALLVALUE DUP1 ISZERO PUSH2 0x10 JUMPI PUSH1 0x0 DUP1 REVERT JUMPDEST POP PUSH1 0x4 CALLDATASIZE LT PUSH2 0x7D JUMPI PUSH1 0x0 CALLDATALOAD PUSH1 0xE0 SHR DUP1 PUSH4 0x8DA5CB5B GT PUSH2 0x5B JUMPI DUP1 PUSH4 0x8DA5CB5B EQ PUSH2 0xC6 JUMPI DUP1 PUSH4 0xD37C1100 EQ PUSH2 0xE4 JUMPI DUP1 PUSH4 0xDCE8A955 EQ PUSH2 0x100 JUMPI DUP1 PUSH4 0xF2FDE38B EQ PUSH2 0x11C JUMPI PUSH2 0x7D JUMP JUMPDEST DUP1 PUSH4 0x436E99F3 EQ PUSH2 0x82 JUMPI DUP1 PUSH4 0x5F7690B3 EQ PUSH2 0x9E JUMPI DUP1 PUSH4 0x715018A6 EQ PUSH2 0xBC JUMPI JUMPDEST PUSH1 0x0 DUP1 REVERT JUMPDEST PUSH2 0x9C PUSH1 0x4 DUP1 CALLDATASIZE SUB DUP2 ADD SWAP1 PUSH2 0x97 SWAP2 SWAP1 PUSH2 0x828 JUMP JUMPDEST PUSH2 0x138 JUMP JUMPDEST STOP JUMPDEST PUSH2 0xA6 PUSH2 0x1CB JUMP JUMPDEST PUSH1 0x40 MLOAD PUSH2 0xB3 SWAP2 SWAP1 PUSH2 0xAE3 JUMP JUMPDEST PUSH1 0x40 MLOAD DUP1 SWAP2 SUB SWAP1 RETURN JUMPDEST PUSH2 0xC4 PUSH2 0x1F1 JUMP JUMPDEST STOP JUMPDEST PUSH2 0xCE PUSH2 0x279 JUMP JUMPDEST PUSH1 0x40 MLOAD PUSH2 0xDB SWAP2 SWAP1 PUSH2 0xA88 JUMP JUMPDEST PUSH1 0x40 MLOAD DUP1 SWAP2 SUB SWAP1 RETURN JUMPDEST PUSH2 0xFE PUSH1 0x4 DUP1 CALLDATASIZE SUB DUP2 ADD SWAP1 PUSH2 0xF9 SWAP2 SWAP1 PUSH2 0x8E9 JUMP JUMPDEST PUSH2 0x2A2 JUMP JUMPDEST STOP JUMPDEST PUSH2 0x11A PUSH1 0x4 DUP1 CALLDATASIZE SUB DUP2 ADD SWAP1 PUSH2 0x115 SWAP2 SWAP1 PUSH2 0x871 JUMP JUMPDEST PUSH2 0x33F JUMP JUMPDEST STOP JUMPDEST PUSH2 0x136 PUSH1 0x4 DUP1 CALLDATASIZE SUB DUP2 ADD SWAP1 PUSH2 0x131 SWAP2 SWAP1 PUSH2 0x7FB JUMP JUMPDEST PUSH2 0x3D3 JUMP JUMPDEST STOP JUMPDEST PUSH1 0x1 PUSH1 0x0 SWAP1 SLOAD SWAP1 PUSH2 0x100 EXP SWAP1 DIV PUSH20 0xFFFFFFFFFFFFFFFFFFFFFFFFFFFFFFFFFFFFFFFF AND PUSH20 0xFFFFFFFFFFFFFFFFFFFFFFFFFFFFFFFFFFFFFFFF AND CALLER PUSH20 0xFFFFFFFFFFFFFFFFFFFFFFFFFFFFFFFFFFFFFFFF AND EQ PUSH2 0x1C8 JUMPI PUSH1 0x40 MLOAD PUSH32 0x8C379A000000000000000000000000000000000000000000000000000000000 DUP2 MSTORE PUSH1 0x4 ADD PUSH2 0x1BF SWAP1 PUSH2 0xB3E JUMP JUMPDEST PUSH1 0x40 MLOAD DUP1 SWAP2 SUB SWAP1 REVERT JUMPDEST POP JUMP JUMPDEST PUSH1 0x2 PUSH1 0x0 SWAP1 SLOAD SWAP1 PUSH2 0x100 EXP SWAP1 DIV PUSH20 0xFFFFFFFFFFFFFFFFFFFFFFFFFFFFFFFFFFFFFFFF AND DUP2 JUMP JUMPDEST PUSH2 0x1F9 PUSH2 0x4CB JUMP JUMPDEST PUSH20 0xFFFFFFFFFFFFFFFFFFFFFFFFFFFFFFFFFFFFFFFF AND PUSH2 0x217 PUSH2 0x279 JUMP JUMPDEST PUSH20 0xFFFFFFFFFFFFFFFFFFFFFFFFFFFFFFFFFFFFFFFF AND EQ PUSH2 0x26D JUMPI PUSH1 0x40 MLOAD PUSH32 0x8C379A000000000000000000000000000000000000000000000000000000000 DUP2 MSTORE PUSH1 0x4 ADD PUSH2 0x264 SWAP1 PUSH2 0xB1E JUMP JUMPDEST PUSH1 0x40 MLOAD DUP1 SWAP2 SUB SWAP1 REVERT JUMPDEST PUSH2 0x277 PUSH1 0x0 PUSH2 0x4D3 JUMP JUMPDEST JUMP JUMPDEST PUSH1 0x0 DUP1 PUSH1 0x0 SWAP1 SLOAD SWAP1 PUSH2 0x100 EXP SWAP1 DIV PUSH20 0xFFFFFFFFFFFFFFFFFFFFFFFFFFFFFFFFFFFFFFFF AND SWAP1 POP SWAP1 JUMP JUMPDEST ADDRESS PUSH1 0x2 PUSH1 0x0 SWAP1 SLOAD SWAP1 PUSH2 0x100 EXP SWAP1 DIV PUSH20 0xFFFFFFFFFFFFFFFFFFFFFFFFFFFFFFFFFFFFFFFF AND PUSH20 0xFFFFFFFFFFFFFFFFFFFFFFFFFFFFFFFFFFFFFFFF AND PUSH4 0x502D6671 CALLER DUP4 PUSH1 0x0 CALLDATASIZE PUSH1 0x40 MLOAD DUP6 PUSH4 0xFFFFFFFF AND PUSH1 0xE0 SHL DUP2 MSTORE PUSH1 0x4 ADD PUSH2 0x305 SWAP5 SWAP4 SWAP3 SWAP2 SWAP1 PUSH2 0xAA3 JUMP JUMPDEST PUSH1 0x0 PUSH1 0x40 MLOAD DUP1 DUP4 SUB DUP2 PUSH1 0x0 DUP8 DUP1 EXTCODESIZE ISZERO DUP1 ISZERO PUSH2 0x31F JUMPI PUSH1 0x0 DUP1 REVERT JUMPDEST POP GAS CALL ISZERO DUP1 ISZERO PUSH2 0x333 JUMPI RETURNDATASIZE PUSH1 0x0 DUP1 RETURNDATACOPY RETURNDATASIZE PUSH1 0x0 REVERT JUMPDEST POP POP POP POP POP POP POP POP POP POP JUMP JUMPDEST PUSH1 0x1 PUSH1 0x0 SWAP1 SLOAD SWAP1 PUSH2 0x100 EXP SWAP1 DIV PUSH20 0xFFFFFFFFFFFFFFFFFFFFFFFFFFFFFFFFFFFFFFFF AND PUSH20 0xFFFFFFFFFFFFFFFFFFFFFFFFFFFFFFFFFFFFFFFF AND CALLER PUSH20 0xFFFFFFFFFFFFFFFFFFFFFFFFFFFFFFFFFFFFFFFF AND EQ PUSH2 0x3CF JUMPI PUSH1 0x40 MLOAD PUSH32 0x8C379A000000000000000000000000000000000000000000000000000000000 DUP2 MSTORE PUSH1 0x4 ADD PUSH2 0x3C6 SWAP1 PUSH2 0xB3E JUMP JUMPDEST PUSH1 0x40 MLOAD DUP1 SWAP2 SUB SWAP1 REVERT JUMPDEST POP POP JUMP JUMPDEST PUSH2 0x3DB PUSH2 0x4CB JUMP JUMPDEST PUSH20 0xFFFFFFFFFFFFFFFFFFFFFFFFFFFFFFFFFFFFFFFF AND PUSH2 0x3F9 PUSH2 0x279 JUMP JUMPDEST PUSH20 0xFFFFFFFFFFFFFFFFFFFFFFFFFFFFFFFFFFFFFFFF AND EQ PUSH2 0x44F JUMPI PUSH1 0x40 MLOAD PUSH32 0x8C379A000000000000000000000000000000000000000000000000000000000 DUP2 MSTORE PUSH1 0x4 ADD PUSH2 0x446 SWAP1 PUSH2 0xB1E JUMP JUMPDEST PUSH1 0x40 MLOAD DUP1 SWAP2 SUB SWAP1 REVERT JUMPDEST PUSH1 0x0 PUSH20 0xFFFFFFFFFFFFFFFFFFFFFFFFFFFFFFFFFFFFFFFF AND DUP2 PUSH20 0xFFFFFFFFFFFFFFFFFFFFFFFFFFFFFFFFFFFFFFFF AND EQ ISZERO PUSH2 0x4BF JUMPI PUSH1 0x40 MLOAD PUSH32 0x8C379A000000000000000000000000000000000000000000000000000000000 DUP2 MSTORE PUSH1 0x4 ADD PUSH2 0x4B6 SWAP1 PUSH2 0xAFE JUMP JUMPDEST PUSH1 0x40 MLOAD DUP1 SWAP2 SUB SWAP1 REVERT JUMPDEST PUSH2 0x4C8 DUP2 PUSH2 0x4D3 JUMP JUMPDEST POP JUMP JUMPDEST PUSH1 0x0 CALLER SWAP1 POP SWAP1 JUMP JUMPDEST PUSH1 0x0 DUP1 PUSH1 0x0 SWAP1 SLOAD SWAP1 PUSH2 0x100 EXP SWAP1 DIV PUSH20 0xFFFFFFFFFFFFFFFFFFFFFFFFFFFFFFFFFFFFFFFF AND SWAP1 POP DUP2 PUSH1 0x0 DUP1 PUSH2 0x100 EXP DUP2 SLOAD DUP2 PUSH20 0xFFFFFFFFFFFFFFFFFFFFFFFFFFFFFFFFFFFFFFFF MUL NOT AND SWAP1 DUP4 PUSH20 0xFFFFFFFFFFFFFFFFFFFFFFFFFFFFFFFFFFFFFFFF AND MUL OR SWAP1 SSTORE POP DUP2 PUSH20 0xFFFFFFFFFFFFFFFFFFFFFFFFFFFFFFFFFFFFFFFF AND DUP2 PUSH20 0xFFFFFFFFFFFFFFFFFFFFFFFFFFFFFFFFFFFFFFFF AND PUSH32 0x8BE0079C531659141344CD1FD0A4F28419497F9722A3DAAFE3B4186F6B6457E0 PUSH1 0x40 MLOAD PUSH1 0x40 MLOAD DUP1 SWAP2 SUB SWAP1 LOG3 POP POP JUMP JUMPDEST PUSH1 0x0 PUSH2 0x5AA PUSH2 0x5A5 DUP5 PUSH2 0xB83 JUMP JUMPDEST PUSH2 0xB5E JUMP JUMPDEST SWAP1 POP DUP1 DUP4 DUP3 MSTORE PUSH1 0x20 DUP3 ADD SWAP1 POP DUP3 DUP6 PUSH1 0x20 DUP7 MUL DUP3 ADD GT ISZERO PUSH2 0x5CD JUMPI PUSH2 0x5CC PUSH2 0xD45 JUMP JUMPDEST JUMPDEST PUSH1 0x0 JUMPDEST DUP6 DUP2 LT ISZERO PUSH2 0x61B JUMPI DUP2 CALLDATALOAD PUSH8 0xFFFFFFFFFFFFFFFF DUP2 GT ISZERO PUSH2 0x5F3 JUMPI PUSH2 0x5F2 PUSH2 0xD40 JUMP JUMPDEST JUMPDEST DUP1 DUP7 ADD PUSH2 0x600 DUP10 DUP3 PUSH2 0x78A JUMP JUMPDEST DUP6 MSTORE PUSH1 0x20 DUP6 ADD SWAP5 POP PUSH1 0x20 DUP5 ADD SWAP4 POP POP POP PUSH1 0x1 DUP2 ADD SWAP1 POP PUSH2 0x5D0 JUMP JUMPDEST POP POP POP SWAP4 SWAP3 POP POP POP JUMP JUMPDEST PUSH1 0x0 PUSH2 0x638 PUSH2 0x633 DUP5 PUSH2 0xBAF JUMP JUMPDEST PUSH2 0xB5E JUMP JUMPDEST SWAP1 POP DUP1 DUP4 DUP3 MSTORE PUSH1 0x20 DUP3 ADD SWAP1 POP DUP3 DUP6 PUSH1 0x20 DUP7 MUL DUP3 ADD GT ISZERO PUSH2 0x65B JUMPI PUSH2 0x65A PUSH2 0xD45 JUMP JUMPDEST JUMPDEST PUSH1 0x0 JUMPDEST DUP6 DUP2 LT ISZERO PUSH2 0x68B JUMPI DUP2 PUSH2 0x671 DUP9 DUP3 PUSH2 0x7E6 JUMP JUMPDEST DUP5 MSTORE PUSH1 0x20 DUP5 ADD SWAP4 POP PUSH1 0x20 DUP4 ADD SWAP3 POP POP PUSH1 0x1 DUP2 ADD SWAP1 POP PUSH2 0x65E JUMP JUMPDEST POP POP POP SWAP4 SWAP3 POP POP POP JUMP JUMPDEST PUSH1 0x0 PUSH2 0x6A8 PUSH2 0x6A3 DUP5 PUSH2 0xBDB JUMP JUMPDEST PUSH2 0xB5E JUMP JUMPDEST SWAP1 POP DUP3 DUP2 MSTORE PUSH1 0x20 DUP2 ADD DUP5 DUP5 DUP5 ADD GT ISZERO PUSH2 0x6C4 JUMPI PUSH2 0x6C3 PUSH2 0xD4A JUMP JUMPDEST JUMPDEST PUSH2 0x6CF DUP5 DUP3 DUP6 PUSH2 0xCD1 JUMP JUMPDEST POP SWAP4 SWAP3 POP POP POP JUMP JUMPDEST PUSH1 0x0 PUSH2 0x6EA PUSH2 0x6E5 DUP5 PUSH2 0xC0C JUMP JUMPDEST PUSH2 0xB5E JUMP JUMPDEST SWAP1 POP DUP3 DUP2 MSTORE PUSH1 0x20 DUP2 ADD DUP5 DUP5 DUP5 ADD GT ISZERO PUSH2 0x706 JUMPI PUSH2 0x705 PUSH2 0xD4A JUMP JUMPDEST JUMPDEST PUSH2 0x711 DUP5 DUP3 DUP6 PUSH2 0xCD1 JUMP JUMPDEST POP SWAP4 SWAP3 POP POP POP JUMP JUMPDEST PUSH1 0x0 DUP2 CALLDATALOAD SWAP1 POP PUSH2 0x728 DUP2 PUSH2 0xE31 JUMP JUMPDEST SWAP3 SWAP2 POP POP JUMP JUMPDEST PUSH1 0x0 DUP3 PUSH1 0x1F DUP4 ADD SLT PUSH2 0x743 JUMPI PUSH2 0x742 PUSH2 0xD40 JUMP JUMPDEST JUMPDEST DUP2 CALLDATALOAD PUSH2 0x753 DUP5 DUP3 PUSH1 0x20 DUP7 ADD PUSH2 0x597 JUMP JUMPDEST SWAP2 POP POP SWAP3 SWAP2 POP POP JUMP JUMPDEST PUSH1 0x0 DUP3 PUSH1 0x1F DUP4 ADD SLT PUSH2 0x771 JUMPI PUSH2 0x770 PUSH2 0xD40 JUMP JUMPDEST JUMPDEST DUP2 CALLDATALOAD PUSH2 0x781 DUP5 DUP3 PUSH1 0x20 DUP7 ADD PUSH2 0x625 JUMP JUMPDEST SWAP2 POP POP SWAP3 SWAP2 POP POP JUMP JUMPDEST PUSH1 0x0 DUP3 PUSH1 0x1F DUP4 ADD SLT PUSH2 0x79F JUMPI PUSH2 0x79E PUSH2 0xD40 JUMP JUMPDEST JUMPDEST DUP2 CALLDATALOAD PUSH2 0x7AF DUP5 DUP3 PUSH1 0x20 DUP7 ADD PUSH2 0x695 JUMP JUMPDEST SWAP2 POP POP SWAP3 SWAP2 POP POP JUMP JUMPDEST PUSH1 0x0 DUP3 PUSH1 0x1F DUP4 ADD SLT PUSH2 0x7CD JUMPI PUSH2 0x7CC PUSH2 0xD40 JUMP JUMPDEST JUMPDEST DUP2 CALLDATALOAD PUSH2 0x7DD DUP5 DUP3 PUSH1 0x20 DUP7 ADD PUSH2 0x6D7 JUMP JUMPDEST SWAP2 POP POP SWAP3 SWAP2 POP POP JUMP JUMPDEST PUSH1 0x0 DUP2 CALLDATALOAD SWAP1 POP PUSH2 0x7F5 DUP2 PUSH2 0xE48 JUMP JUMPDEST SWAP3 SWAP2 POP POP JUMP JUMPDEST PUSH1 0x0 PUSH1 0x20 DUP3 DUP5 SUB SLT ISZERO PUSH2 0x811 JUMPI PUSH2 0x810 PUSH2 0xD54 JUMP JUMPDEST JUMPDEST PUSH1 0x0 PUSH2 0x81F DUP5 DUP3 DUP6 ADD PUSH2 0x719 JUMP JUMPDEST SWAP2 POP POP SWAP3 SWAP2 POP POP JUMP JUMPDEST PUSH1 0x0 PUSH1 0x20 DUP3 DUP5 SUB SLT ISZERO PUSH2 0x83E JUMPI PUSH2 0x83D PUSH2 0xD54 JUMP JUMPDEST JUMPDEST PUSH1 0x0 DUP3 ADD CALLDATALOAD PUSH8 0xFFFFFFFFFFFFFFFF DUP2 GT ISZERO PUSH2 0x85C JUMPI PUSH2 0x85B PUSH2 0xD4F JUMP JUMPDEST JUMPDEST PUSH2 0x868 DUP5 DUP3 DUP6 ADD PUSH2 0x7B8 JUMP JUMPDEST SWAP2 POP POP SWAP3 SWAP2 POP POP JUMP JUMPDEST PUSH1 0x0 DUP1 PUSH1 0x40 DUP4 DUP6 SUB SLT ISZERO PUSH2 0x888 JUMPI PUSH2 0x887 PUSH2 0xD54 JUMP JUMPDEST JUMPDEST PUSH1 0x0 DUP4 ADD CALLDATALOAD PUSH8 0xFFFFFFFFFFFFFFFF DUP2 GT ISZERO PUSH2 0x8A6 JUMPI PUSH2 0x8A5 PUSH2 0xD4F JUMP JUMPDEST JUMPDEST PUSH2 0x8B2 DUP6 DUP3 DUP7 ADD PUSH2 0x7B8 JUMP JUMPDEST SWAP3 POP POP PUSH1 0x20 DUP4 ADD CALLDATALOAD PUSH8 0xFFFFFFFFFFFFFFFF DUP2 GT ISZERO PUSH2 0x8D3 JUMPI PUSH2 0x8D2 PUSH2 0xD4F JUMP JUMPDEST JUMPDEST PUSH2 0x8DF DUP6 DUP3 DUP7 ADD PUSH2 0x72E JUMP JUMPDEST SWAP2 POP POP SWAP3 POP SWAP3 SWAP1 POP JUMP JUMPDEST PUSH1 0x0 DUP1 PUSH1 0x0 DUP1 PUSH1 0x0 PUSH1 0xA0 DUP7 DUP9 SUB SLT ISZERO PUSH2 0x905 JUMPI PUSH2 0x904 PUSH2 0xD54 JUMP JUMPDEST JUMPDEST PUSH1 0x0 DUP7 ADD CALLDATALOAD PUSH8 0xFFFFFFFFFFFFFFFF DUP2 GT ISZERO PUSH2 0x923 JUMPI PUSH2 0x922 PUSH2 0xD4F JUMP JUMPDEST JUMPDEST PUSH2 0x92F DUP9 DUP3 DUP10 ADD PUSH2 0x7B8 JUMP JUMPDEST SWAP6 POP POP PUSH1 0x20 DUP7 ADD CALLDATALOAD PUSH8 0xFFFFFFFFFFFFFFFF DUP2 GT ISZERO PUSH2 0x950 JUMPI PUSH2 0x94F PUSH2 0xD4F JUMP JUMPDEST JUMPDEST PUSH2 0x95C DUP9 DUP3 DUP10 ADD PUSH2 0x7B8 JUMP JUMPDEST SWAP5 POP POP PUSH1 0x40 DUP7 ADD CALLDATALOAD PUSH8 0xFFFFFFFFFFFFFFFF DUP2 GT ISZERO PUSH2 0x97D JUMPI PUSH2 0x97C PUSH2 0xD4F JUMP JUMPDEST JUMPDEST PUSH2 0x989 DUP9 DUP3 DUP10 ADD PUSH2 0x7B8 JUMP JUMPDEST SWAP4 POP POP PUSH1 0x60 PUSH2 0x99A DUP9 DUP3 DUP10 ADD PUSH2 0x7E6 JUMP JUMPDEST SWAP3 POP POP PUSH1 0x80 DUP7 ADD CALLDATALOAD PUSH8 0xFFFFFFFFFFFFFFFF DUP2 GT ISZERO PUSH2 0x9BB JUMPI PUSH2 0x9BA PUSH2 0xD4F JUMP JUMPDEST JUMPDEST PUSH2 0x9C7 DUP9 DUP3 DUP10 ADD PUSH2 0x75C JUMP JUMPDEST SWAP2 POP POP SWAP3 SWAP6 POP SWAP3 SWAP6 SWAP1 SWAP4 POP JUMP JUMPDEST PUSH2 0x9DD DUP2 PUSH2 0xC5F JUMP JUMPDEST DUP3 MSTORE POP POP JUMP JUMPDEST PUSH1 0x0 PUSH2 0x9EF DUP4 DUP6 PUSH2 0xC3D JUMP JUMPDEST SWAP4 POP PUSH2 0x9FC DUP4 DUP6 DUP5 PUSH2 0xCD1 JUMP JUMPDEST PUSH2 0xA05 DUP4 PUSH2 0xD59 JUMP JUMPDEST DUP5 ADD SWAP1 POP SWAP4 SWAP3 POP POP POP JUMP JUMPDEST PUSH2 0xA19 DUP2 PUSH2 0xC9B JUMP JUMPDEST DUP3 MSTORE POP POP JUMP JUMPDEST PUSH1 0x0 PUSH2 0xA2C PUSH1 0x26 DUP4 PUSH2 0xC4E JUMP JUMPDEST SWAP2 POP PUSH2 0xA37 DUP3 PUSH2 0xD6A JUMP JUMPDEST PUSH1 0x40 DUP3 ADD SWAP1 POP SWAP2 SWAP1 POP JUMP JUMPDEST PUSH1 0x0 PUSH2 0xA4F PUSH1 0x20 DUP4 PUSH2 0xC4E JUMP JUMPDEST SWAP2 POP PUSH2 0xA5A DUP3 PUSH2 0xDB9 JUMP JUMPDEST PUSH1 0x20 DUP3 ADD SWAP1 POP SWAP2 SWAP1 POP JUMP JUMPDEST PUSH1 0x0 PUSH2 0xA72 PUSH1 0x3B DUP4 PUSH2 0xC4E JUMP JUMPDEST SWAP2 POP PUSH2 0xA7D DUP3 PUSH2 0xDE2 JUMP JUMPDEST PUSH1 0x40 DUP3 ADD SWAP1 POP SWAP2 SWAP1 POP JUMP JUMPDEST PUSH1 0x0 PUSH1 0x20 DUP3 ADD SWAP1 POP PUSH2 0xA9D PUSH1 0x0 DUP4 ADD DUP5 PUSH2 0x9D4 JUMP JUMPDEST SWAP3 SWAP2 POP POP JUMP JUMPDEST PUSH1 0x0 PUSH1 0x60 DUP3 ADD SWAP1 POP PUSH2 0xAB8 PUSH1 0x0 DUP4 ADD DUP8 PUSH2 0x9D4 JUMP JUMPDEST PUSH2 0xAC5 PUSH1 0x20 DUP4 ADD DUP7 PUSH2 0x9D4 JUMP JUMPDEST DUP2 DUP2 SUB PUSH1 0x40 DUP4 ADD MSTORE PUSH2 0xAD8 DUP2 DUP5 DUP7 PUSH2 0x9E3 JUMP JUMPDEST SWAP1 POP SWAP6 SWAP5 POP POP POP POP POP JUMP JUMPDEST PUSH1 0x0 PUSH1 0x20 DUP3 ADD SWAP1 POP PUSH2 0xAF8 PUSH1 0x0 DUP4 ADD DUP5 PUSH2 0xA10 JUMP JUMPDEST SWAP3 SWAP2 POP POP JUMP JUMPDEST PUSH1 0x0 PUSH1 0x20 DUP3 ADD SWAP1 POP DUP2 DUP2 SUB PUSH1 0x0 DUP4 ADD MSTORE PUSH2 0xB17 DUP2 PUSH2 0xA1F JUMP JUMPDEST SWAP1 POP SWAP2 SWAP1 POP JUMP JUMPDEST PUSH1 0x0 PUSH1 0x20 DUP3 ADD SWAP1 POP DUP2 DUP2 SUB PUSH1 0x0 DUP4 ADD MSTORE PUSH2 0xB37 DUP2 PUSH2 0xA42 JUMP JUMPDEST SWAP1 POP SWAP2 SWAP1 POP JUMP JUMPDEST PUSH1 0x0 PUSH1 0x20 DUP3 ADD SWAP1 POP DUP2 DUP2 SUB PUSH1 0x0 DUP4 ADD MSTORE PUSH2 0xB57 DUP2 PUSH2 0xA65 JUMP JUMPDEST SWAP1 POP SWAP2 SWAP1 POP JUMP JUMPDEST PUSH1 0x0 PUSH2 0xB68 PUSH2 0xB79 JUMP JUMPDEST SWAP1 POP PUSH2 0xB74 DUP3 DUP3 PUSH2 0xCE0 JUMP JUMPDEST SWAP2 SWAP1 POP JUMP JUMPDEST PUSH1 0x0 PUSH1 0x40 MLOAD SWAP1 POP SWAP1 JUMP JUMPDEST PUSH1 0x0 PUSH8 0xFFFFFFFFFFFFFFFF DUP3 GT ISZERO PUSH2 0xB9E JUMPI PUSH2 0xB9D PUSH2 0xD11 JUMP JUMPDEST JUMPDEST PUSH1 0x20 DUP3 MUL SWAP1 POP PUSH1 0x20 DUP2 ADD SWAP1 POP SWAP2 SWAP1 POP JUMP JUMPDEST PUSH1 0x0 PUSH8 0xFFFFFFFFFFFFFFFF DUP3 GT ISZERO PUSH2 0xBCA JUMPI PUSH2 0xBC9 PUSH2 0xD11 JUMP JUMPDEST JUMPDEST PUSH1 0x20 DUP3 MUL SWAP1 POP PUSH1 0x20 DUP2 ADD SWAP1 POP SWAP2 SWAP1 POP JUMP JUMPDEST PUSH1 0x0 PUSH8 0xFFFFFFFFFFFFFFFF DUP3 GT ISZERO PUSH2 0xBF6 JUMPI PUSH2 0xBF5 PUSH2 0xD11 JUMP JUMPDEST JUMPDEST PUSH2 0xBFF DUP3 PUSH2 0xD59 JUMP JUMPDEST SWAP1 POP PUSH1 0x20 DUP2 ADD SWAP1 POP SWAP2 SWAP1 POP JUMP JUMPDEST PUSH1 0x0 PUSH8 0xFFFFFFFFFFFFFFFF DUP3 GT ISZERO PUSH2 0xC27 JUMPI PUSH2 0xC26 PUSH2 0xD11 JUMP JUMPDEST JUMPDEST PUSH2 0xC30 DUP3 PUSH2 0xD59 JUMP JUMPDEST SWAP1 POP PUSH1 0x20 DUP2 ADD SWAP1 POP SWAP2 SWAP1 POP JUMP JUMPDEST PUSH1 0x0 DUP3 DUP3 MSTORE PUSH1 0x20 DUP3 ADD SWAP1 POP SWAP3 SWAP2 POP POP JUMP JUMPDEST PUSH1 0x0 DUP3 DUP3 MSTORE PUSH1 0x20 DUP3 ADD SWAP1 POP SWAP3 SWAP2 POP POP JUMP JUMPDEST PUSH1 0x0 PUSH2 0xC6A DUP3 PUSH2 0xC71 JUMP JUMPDEST SWAP1 POP SWAP2 SWAP1 POP JUMP JUMPDEST PUSH1 0x0 PUSH20 0xFFFFFFFFFFFFFFFFFFFFFFFFFFFFFFFFFFFFFFFF DUP3 AND SWAP1 POP SWAP2 SWAP1 POP JUMP JUMPDEST PUSH1 0x0 DUP2 SWAP1 POP SWAP2 SWAP1 POP JUMP JUMPDEST PUSH1 0x0 PUSH2 0xCA6 DUP3 PUSH2 0xCAD JUMP JUMPDEST SWAP1 POP SWAP2 SWAP1 POP JUMP JUMPDEST PUSH1 0x0 PUSH2 0xCB8 DUP3 PUSH2 0xCBF JUMP JUMPDEST SWAP1 POP SWAP2 SWAP1 POP JUMP JUMPDEST PUSH1 0x0 PUSH2 0xCCA DUP3 PUSH2 0xC71 JUMP JUMPDEST SWAP1 POP SWAP2 SWAP1 POP JUMP JUMPDEST DUP3 DUP2 DUP4 CALLDATACOPY PUSH1 0x0 DUP4 DUP4 ADD MSTORE POP POP POP JUMP JUMPDEST PUSH2 0xCE9 DUP3 PUSH2 0xD59 JUMP JUMPDEST DUP2 ADD DUP2 DUP2 LT PUSH8 0xFFFFFFFFFFFFFFFF DUP3 GT OR ISZERO PUSH2 0xD08 JUMPI PUSH2 0xD07 PUSH2 0xD11 JUMP JUMPDEST JUMPDEST DUP1 PUSH1 0x40 MSTORE POP POP POP JUMP JUMPDEST PUSH32 0x4E487B7100000000000000000000000000000000000000000000000000000000 PUSH1 0x0 MSTORE PUSH1 0x41 PUSH1 0x4 MSTORE PUSH1 0x24 PUSH1 0x0 REVERT JUMPDEST PUSH1 0x0 DUP1 REVERT JUMPDEST PUSH1 0x0 DUP1 REVERT JUMPDEST PUSH1 0x0 DUP1 REVERT JUMPDEST PUSH1 0x0 DUP1 REVERT JUMPDEST PUSH1 0x0 DUP1 REVERT JUMPDEST PUSH1 0x0 PUSH1 0x1F NOT PUSH1 0x1F DUP4 ADD AND SWAP1 POP SWAP2 SWAP1 POP JUMP JUMPDEST PUSH32 0x4F776E61626C653A206E6577206F776E657220697320746865207A65726F2061 PUSH1 0x0 DUP3 ADD MSTORE PUSH32 0x6464726573730000000000000000000000000000000000000000000000000000 PUSH1 0x20 DUP3 ADD MSTORE POP JUMP JUMPDEST PUSH32 0x4F776E61626C653A2063616C6C6572206973206E6F7420746865206F776E6572 PUSH1 0x0 DUP3 ADD MSTORE POP JUMP JUMPDEST PUSH32 0x43726564656E7469616C2043616C6C4261636B3A204F6E6C7920746865206F72 PUSH1 0x0 DUP3 ADD MSTORE PUSH32 0x61636C652063616E2063616C6C20746869732066756E6374696F6E0000000000 PUSH1 0x20 DUP3 ADD MSTORE POP JUMP JUMPDEST PUSH2 0xE3A DUP2 PUSH2 0xC5F JUMP JUMPDEST DUP2 EQ PUSH2 0xE45 JUMPI PUSH1 0x0 DUP1 REVERT JUMPDEST POP JUMP JUMPDEST PUSH2 0xE51 DUP2 PUSH2 0xC91 JUMP JUMPDEST DUP2 EQ PUSH2 0xE5C JUMPI PUSH1 0x0 DUP1 REVERT JUMPDEST POP JUMP INVALID LOG2 PUSH5 0x6970667358 0x22 SLT KECCAK256 PUSH24 0x76D9BBA054AA7F85F349A96478DE2F8C75E662E4FEFC8729 LOG4 0x24 PUSH24 0x4C70706564736F6C63430008070033000000000000000000 "
				},
				"gasEstimates": {
					"creation": {
						"codeDepositCost": "746600",
						"executionCost": "infinite",
						"totalCost": "infinite"
					},
					"external": {
						"CREDENTIAL_EVENT()": "2623",
						"owner()": "2522",
						"postVibe(string,string,string,uint256,uint256[])": "infinite",
						"postVibe_authorised(string,bytes[])": "infinite",
						"postVibe_unauthorised(string)": "infinite",
						"renounceOwnership()": "30419",
						"transferOwnership(address)": "30789"
					}
				},
				"methodIdentifiers": {
					"CREDENTIAL_EVENT()": "5f7690b3",
					"owner()": "8da5cb5b",
					"postVibe(string,string,string,uint256,uint256[])": "d37c1100",
					"postVibe_authorised(string,bytes[])": "dce8a955",
					"postVibe_unauthorised(string)": "436e99f3",
					"renounceOwnership()": "715018a6",
					"transferOwnership(address)": "f2fde38b"
				}
			},
			"storageLayout": {
				"storage": [
					{
						"astId": 7,
						"contract": "facets/CommunicationFacet.sol:CommunicationFacet",
						"label": "_owner",
						"offset": 0,
						"slot": "0",
						"type": "t_address"
					},
					{
						"astId": 235,
						"contract": "facets/CommunicationFacet.sol:CommunicationFacet",
						"label": "CREDENTIAL_ORACLE",
						"offset": 0,
						"slot": "1",
						"type": "t_address"
					},
					{
						"astId": 238,
						"contract": "facets/CommunicationFacet.sol:CommunicationFacet",
						"label": "CREDENTIAL_EVENT",
						"offset": 0,
						"slot": "2",
						"type": "t_contract(CredentialEventFacet)230"
					}
				],
				"types": {
					"t_address": {
						"encoding": "inplace",
						"label": "address",
						"numberOfBytes": "20"
					},
					"t_contract(CredentialEventFacet)230": {
						"encoding": "inplace",
						"label": "contract CredentialEventFacet",
						"numberOfBytes": "20"
					}
				}
			},
			"userdoc": {
				"kind": "user",
				"methods": {},
				"version": 1
			}
		}
	}
}