{
	"facets/CommunicationFacet.sol": {
		"CommunicationFacet": {
			"abi": [
				{
					"inputs": [
						{
							"internalType": "contract CredentialEventFacet",
							"name": "_credentialOracle",
							"type": "address"
						}
					],
					"stateMutability": "nonpayable",
					"type": "constructor"
				},
				{
					"anonymous": false,
					"inputs": [
						{
							"indexed": true,
							"internalType": "address",
							"name": "previousOwner",
							"type": "address"
						},
						{
							"indexed": true,
							"internalType": "address",
							"name": "newOwner",
							"type": "address"
						}
					],
					"name": "OwnershipTransferred",
					"type": "event"
				},
				{
					"inputs": [],
					"name": "CREDENTIAL_EVENT",
					"outputs": [
						{
							"internalType": "contract CredentialEventFacet",
							"name": "",
							"type": "address"
						}
					],
					"stateMutability": "view",
					"type": "function"
				},
				{
					"inputs": [],
					"name": "owner",
					"outputs": [
						{
							"internalType": "address",
							"name": "",
							"type": "address"
						}
					],
					"stateMutability": "view",
					"type": "function"
				},
				{
					"inputs": [
						{
							"internalType": "string",
							"name": "someParam",
							"type": "string"
						},
						{
							"internalType": "string",
							"name": "_listId",
							"type": "string"
						},
						{
							"internalType": "string",
							"name": "thr",
							"type": "string"
						}
					],
					"name": "postVibe",
					"outputs": [],
					"stateMutability": "nonpayable",
					"type": "function"
				},
				{
					"inputs": [
						{
							"internalType": "string",
							"name": "someParam",
							"type": "string"
						},
						{
							"internalType": "bytes[]",
							"name": "proof",
							"type": "bytes[]"
						}
					],
					"name": "postVibe_authorised",
					"outputs": [],
					"stateMutability": "nonpayable",
					"type": "function"
				},
				{
					"inputs": [
						{
							"internalType": "string",
							"name": "someParam",
							"type": "string"
						}
					],
					"name": "postVibe_unauthorised",
					"outputs": [],
					"stateMutability": "nonpayable",
					"type": "function"
				},
				{
					"inputs": [],
					"name": "renounceOwnership",
					"outputs": [],
					"stateMutability": "nonpayable",
					"type": "function"
				},
				{
					"inputs": [
						{
							"internalType": "address",
							"name": "newOwner",
							"type": "address"
						}
					],
					"name": "transferOwnership",
					"outputs": [],
					"stateMutability": "nonpayable",
					"type": "function"
				}
			],
			"devdoc": {
				"kind": "dev",
				"methods": {
					"owner()": {
						"details": "Returns the address of the current owner."
					},
					"renounceOwnership()": {
						"details": "Leaves the contract without owner. It will not be possible to call `onlyOwner` functions anymore. Can only be called by the current owner. NOTE: Renouncing ownership will leave the contract without an owner, thereby removing any functionality that is only available to the owner."
					},
					"transferOwnership(address)": {
						"details": "Transfers ownership of the contract to a new account (`newOwner`). Can only be called by the current owner."
					}
				},
				"version": 1
			},
			"evm": {
				"assembly": "    /* \"facets/CommunicationFacet.sol\":141:776  contract CommunicationFacet is Ownable, GateableFacet {... */\n  mstore(0x40, 0x80)\n    /* \"facets/CommunicationFacet.sol\":197:285  constructor(CredentialEventFacet _credentialOracle) GateableFacet(_credentialOracle) {... */\n  callvalue\n  dup1\n  iszero\n  tag_1\n  jumpi\n  0x00\n  dup1\n  revert\ntag_1:\n  pop\n  mload(0x40)\n  sub(codesize, bytecodeSize)\n  dup1\n  bytecodeSize\n  dup4\n  codecopy\n  dup2\n  dup2\n  add\n  0x40\n  mstore\n  dup2\n  add\n  swap1\n  tag_2\n  swap2\n  swap1\n  tag_3\n  jump\t// in\ntag_2:\n    /* \"facets/CommunicationFacet.sol\":263:280  _credentialOracle */\n  dup1\n    /* \"@openzeppelin/contracts/access/Ownable.sol\":921:953  _transferOwnership(_msgSender()) */\n  tag_8\n    /* \"@openzeppelin/contracts/access/Ownable.sol\":940:952  _msgSender() */\n  tag_9\n    /* \"@openzeppelin/contracts/access/Ownable.sol\":940:950  _msgSender */\n  shl(0x20, tag_10)\n    /* \"@openzeppelin/contracts/access/Ownable.sol\":940:952  _msgSender() */\n  0x20\n  shr\n  jump\t// in\ntag_9:\n    /* \"@openzeppelin/contracts/access/Ownable.sol\":921:939  _transferOwnership */\n  shl(0x20, tag_11)\n    /* \"@openzeppelin/contracts/access/Ownable.sol\":921:953  _transferOwnership(_msgSender()) */\n  0x20\n  shr\n  jump\t// in\ntag_8:\n    /* \"facets/GateableFacet.sol\":919:936  _credentialOracle */\n  dup1\n    /* \"facets/GateableFacet.sol\":891:908  CREDENTIAL_ORACLE */\n  0x01\n  0x00\n    /* \"facets/GateableFacet.sol\":891:937  CREDENTIAL_ORACLE = address(_credentialOracle) */\n  0x0100\n  exp\n  dup2\n  sload\n  dup2\n  0xffffffffffffffffffffffffffffffffffffffff\n  mul\n  not\n  and\n  swap1\n  dup4\n  0xffffffffffffffffffffffffffffffffffffffff\n  and\n  mul\n  or\n  swap1\n  sstore\n  pop\n    /* \"facets/GateableFacet.sol\":962:979  _credentialOracle */\n  dup1\n    /* \"facets/GateableFacet.sol\":943:959  CREDENTIAL_EVENT */\n  0x02\n  0x00\n    /* \"facets/GateableFacet.sol\":943:979  CREDENTIAL_EVENT = _credentialOracle */\n  0x0100\n  exp\n  dup2\n  sload\n  dup2\n  0xffffffffffffffffffffffffffffffffffffffff\n  mul\n  not\n  and\n  swap1\n  dup4\n  0xffffffffffffffffffffffffffffffffffffffff\n  and\n  mul\n  or\n  swap1\n  sstore\n  pop\n    /* \"facets/GateableFacet.sol\":833:982  constructor(CredentialEventFacet _credentialOracle) {... */\n  pop\n    /* \"facets/CommunicationFacet.sol\":197:285  constructor(CredentialEventFacet _credentialOracle) GateableFacet(_credentialOracle) {... */\n  pop\n    /* \"facets/CommunicationFacet.sol\":141:776  contract CommunicationFacet is Ownable, GateableFacet {... */\n  jump(tag_14)\n    /* \"@openzeppelin/contracts/utils/Context.sol\":640:736  function _msgSender() internal view virtual returns (address) {... */\ntag_10:\n    /* \"@openzeppelin/contracts/utils/Context.sol\":693:700  address */\n  0x00\n    /* \"@openzeppelin/contracts/utils/Context.sol\":719:729  msg.sender */\n  caller\n    /* \"@openzeppelin/contracts/utils/Context.sol\":712:729  return msg.sender */\n  swap1\n  pop\n    /* \"@openzeppelin/contracts/utils/Context.sol\":640:736  function _msgSender() internal view virtual returns (address) {... */\n  swap1\n  jump\t// out\n    /* \"@openzeppelin/contracts/access/Ownable.sol\":2270:2457  function _transferOwnership(address newOwner) internal virtual {... */\ntag_11:\n    /* \"@openzeppelin/contracts/access/Ownable.sol\":2343:2359  address oldOwner */\n  0x00\n    /* \"@openzeppelin/contracts/access/Ownable.sol\":2362:2368  _owner */\n  dup1\n  0x00\n  swap1\n  sload\n  swap1\n  0x0100\n  exp\n  swap1\n  div\n  0xffffffffffffffffffffffffffffffffffffffff\n  and\n    /* \"@openzeppelin/contracts/access/Ownable.sol\":2343:2368  address oldOwner = _owner */\n  swap1\n  pop\n    /* \"@openzeppelin/contracts/access/Ownable.sol\":2387:2395  newOwner */\n  dup2\n    /* \"@openzeppelin/contracts/access/Ownable.sol\":2378:2384  _owner */\n  0x00\n  dup1\n    /* \"@openzeppelin/contracts/access/Ownable.sol\":2378:2395  _owner = newOwner */\n  0x0100\n  exp\n  dup2\n  sload\n  dup2\n  0xffffffffffffffffffffffffffffffffffffffff\n  mul\n  not\n  and\n  swap1\n  dup4\n  0xffffffffffffffffffffffffffffffffffffffff\n  and\n  mul\n  or\n  swap1\n  sstore\n  pop\n    /* \"@openzeppelin/contracts/access/Ownable.sol\":2441:2449  newOwner */\n  dup2\n    /* \"@openzeppelin/contracts/access/Ownable.sol\":2410:2450  OwnershipTransferred(oldOwner, newOwner) */\n  0xffffffffffffffffffffffffffffffffffffffff\n  and\n    /* \"@openzeppelin/contracts/access/Ownable.sol\":2431:2439  oldOwner */\n  dup2\n    /* \"@openzeppelin/contracts/access/Ownable.sol\":2410:2450  OwnershipTransferred(oldOwner, newOwner) */\n  0xffffffffffffffffffffffffffffffffffffffff\n  and\n  0x8be0079c531659141344cd1fd0a4f28419497f9722a3daafe3b4186f6b6457e0\n  mload(0x40)\n  mload(0x40)\n  dup1\n  swap2\n  sub\n  swap1\n  log3\n    /* \"@openzeppelin/contracts/access/Ownable.sol\":2333:2457  {... */\n  pop\n    /* \"@openzeppelin/contracts/access/Ownable.sol\":2270:2457  function _transferOwnership(address newOwner) internal virtual {... */\n  pop\n  jump\t// out\n    /* \"#utility.yul\":7:206   */\ntag_18:\n    /* \"#utility.yul\":92:97   */\n  0x00\n    /* \"#utility.yul\":123:129   */\n  dup2\n    /* \"#utility.yul\":117:130   */\n  mload\n    /* \"#utility.yul\":108:130   */\n  swap1\n  pop\n    /* \"#utility.yul\":139:200   */\n  tag_20\n    /* \"#utility.yul\":194:199   */\n  dup2\n    /* \"#utility.yul\":139:200   */\n  tag_21\n  jump\t// in\ntag_20:\n    /* \"#utility.yul\":7:206   */\n  swap3\n  swap2\n  pop\n  pop\n  jump\t// out\n    /* \"#utility.yul\":212:619   */\ntag_3:\n    /* \"#utility.yul\":310:316   */\n  0x00\n    /* \"#utility.yul\":359:361   */\n  0x20\n    /* \"#utility.yul\":347:356   */\n  dup3\n    /* \"#utility.yul\":338:345   */\n  dup5\n    /* \"#utility.yul\":334:357   */\n  sub\n    /* \"#utility.yul\":330:362   */\n  slt\n    /* \"#utility.yul\":327:446   */\n  iszero\n  tag_23\n  jumpi\n    /* \"#utility.yul\":365:444   */\n  tag_24\n  tag_25\n  jump\t// in\ntag_24:\n    /* \"#utility.yul\":327:446   */\ntag_23:\n    /* \"#utility.yul\":485:486   */\n  0x00\n    /* \"#utility.yul\":510:602   */\n  tag_26\n    /* \"#utility.yul\":594:601   */\n  dup5\n    /* \"#utility.yul\":585:591   */\n  dup3\n    /* \"#utility.yul\":574:583   */\n  dup6\n    /* \"#utility.yul\":570:592   */\n  add\n    /* \"#utility.yul\":510:602   */\n  tag_18\n  jump\t// in\ntag_26:\n    /* \"#utility.yul\":500:602   */\n  swap2\n  pop\n    /* \"#utility.yul\":456:612   */\n  pop\n    /* \"#utility.yul\":212:619   */\n  swap3\n  swap2\n  pop\n  pop\n  jump\t// out\n    /* \"#utility.yul\":706:802   */\ntag_29:\n    /* \"#utility.yul\":743:750   */\n  0x00\n    /* \"#utility.yul\":772:796   */\n  tag_31\n    /* \"#utility.yul\":790:795   */\n  dup3\n    /* \"#utility.yul\":772:796   */\n  tag_32\n  jump\t// in\ntag_31:\n    /* \"#utility.yul\":761:796   */\n  swap1\n  pop\n    /* \"#utility.yul\":706:802   */\n  swap2\n  swap1\n  pop\n  jump\t// out\n    /* \"#utility.yul\":808:932   */\ntag_33:\n    /* \"#utility.yul\":873:880   */\n  0x00\n    /* \"#utility.yul\":902:926   */\n  tag_35\n    /* \"#utility.yul\":920:925   */\n  dup3\n    /* \"#utility.yul\":902:926   */\n  tag_29\n  jump\t// in\ntag_35:\n    /* \"#utility.yul\":891:926   */\n  swap1\n  pop\n    /* \"#utility.yul\":808:932   */\n  swap2\n  swap1\n  pop\n  jump\t// out\n    /* \"#utility.yul\":938:1064   */\ntag_32:\n    /* \"#utility.yul\":975:982   */\n  0x00\n    /* \"#utility.yul\":1015:1057   */\n  0xffffffffffffffffffffffffffffffffffffffff\n    /* \"#utility.yul\":1008:1013   */\n  dup3\n    /* \"#utility.yul\":1004:1058   */\n  and\n    /* \"#utility.yul\":993:1058   */\n  swap1\n  pop\n    /* \"#utility.yul\":938:1064   */\n  swap2\n  swap1\n  pop\n  jump\t// out\n    /* \"#utility.yul\":1193:1310   */\ntag_25:\n    /* \"#utility.yul\":1302:1303   */\n  0x00\n    /* \"#utility.yul\":1299:1300   */\n  dup1\n    /* \"#utility.yul\":1292:1304   */\n  revert\n    /* \"#utility.yul\":1316:1494   */\ntag_21:\n    /* \"#utility.yul\":1417:1469   */\n  tag_41\n    /* \"#utility.yul\":1463:1468   */\n  dup2\n    /* \"#utility.yul\":1417:1469   */\n  tag_33\n  jump\t// in\ntag_41:\n    /* \"#utility.yul\":1410:1415   */\n  dup2\n    /* \"#utility.yul\":1407:1470   */\n  eq\n    /* \"#utility.yul\":1397:1488   */\n  tag_42\n  jumpi\n    /* \"#utility.yul\":1484:1485   */\n  0x00\n    /* \"#utility.yul\":1481:1482   */\n  dup1\n    /* \"#utility.yul\":1474:1486   */\n  revert\n    /* \"#utility.yul\":1397:1488   */\ntag_42:\n    /* \"#utility.yul\":1316:1494   */\n  pop\n  jump\t// out\n    /* \"facets/CommunicationFacet.sol\":141:776  contract CommunicationFacet is Ownable, GateableFacet {... */\ntag_14:\n  dataSize(sub_0)\n  dup1\n  dataOffset(sub_0)\n  0x00\n  codecopy\n  0x00\n  return\nstop\n\nsub_0: assembly {\n        /* \"facets/CommunicationFacet.sol\":141:776  contract CommunicationFacet is Ownable, GateableFacet {... */\n      mstore(0x40, 0x80)\n      callvalue\n      dup1\n      iszero\n      tag_1\n      jumpi\n      0x00\n      dup1\n      revert\n    tag_1:\n      pop\n      jumpi(tag_2, lt(calldatasize, 0x04))\n      shr(0xe0, calldataload(0x00))\n      dup1\n      0x8da5cb5b\n      gt\n      tag_10\n      jumpi\n      dup1\n      0x8da5cb5b\n      eq\n      tag_6\n      jumpi\n      dup1\n      0xdce8a955\n      eq\n      tag_7\n      jumpi\n      dup1\n      0xf2fde38b\n      eq\n      tag_8\n      jumpi\n      dup1\n      0xf37d9ecd\n      eq\n      tag_9\n      jumpi\n      jump(tag_2)\n    tag_10:\n      dup1\n      0x436e99f3\n      eq\n      tag_3\n      jumpi\n      dup1\n      0x5f7690b3\n      eq\n      tag_4\n      jumpi\n      dup1\n      0x715018a6\n      eq\n      tag_5\n      jumpi\n    tag_2:\n      0x00\n      dup1\n      revert\n        /* \"facets/CommunicationFacet.sol\":656:773  function postVibe_unauthorised(string memory someParam) credentialCallback external {... */\n    tag_3:\n      tag_11\n      0x04\n      dup1\n      calldatasize\n      sub\n      dup2\n      add\n      swap1\n      tag_12\n      swap2\n      swap1\n      tag_13\n      jump\t// in\n    tag_12:\n      tag_14\n      jump\t// in\n    tag_11:\n      stop\n        /* \"facets/GateableFacet.sol\":165:209  CredentialEventFacet public CREDENTIAL_EVENT */\n    tag_4:\n      tag_15\n      tag_16\n      jump\t// in\n    tag_15:\n      mload(0x40)\n      tag_17\n      swap2\n      swap1\n      tag_18\n      jump\t// in\n    tag_17:\n      mload(0x40)\n      dup1\n      swap2\n      sub\n      swap1\n      return\n        /* \"@openzeppelin/contracts/access/Ownable.sol\":1668:1769  function renounceOwnership() public virtual onlyOwner {... */\n    tag_5:\n      tag_19\n      tag_20\n      jump\t// in\n    tag_19:\n      stop\n        /* \"@openzeppelin/contracts/access/Ownable.sol\":1036:1121  function owner() public view virtual returns (address) {... */\n    tag_6:\n      tag_21\n      tag_22\n      jump\t// in\n    tag_21:\n      mload(0x40)\n      tag_23\n      swap2\n      swap1\n      tag_24\n      jump\t// in\n    tag_23:\n      mload(0x40)\n      dup1\n      swap2\n      sub\n      swap1\n      return\n        /* \"facets/CommunicationFacet.sol\":520:654  function postVibe_authorised(string memory someParam, bytes[] memory proof) credentialCallback external {... */\n    tag_7:\n      tag_25\n      0x04\n      dup1\n      calldatasize\n      sub\n      dup2\n      add\n      swap1\n      tag_26\n      swap2\n      swap1\n      tag_27\n      jump\t// in\n    tag_26:\n      tag_28\n      jump\t// in\n    tag_25:\n      stop\n        /* \"@openzeppelin/contracts/access/Ownable.sol\":1918:2116  function transferOwnership(address newOwner) public virtual onlyOwner {... */\n    tag_8:\n      tag_29\n      0x04\n      dup1\n      calldatasize\n      sub\n      dup2\n      add\n      swap1\n      tag_30\n      swap2\n      swap1\n      tag_31\n      jump\t// in\n    tag_30:\n      tag_32\n      jump\t// in\n    tag_29:\n      stop\n        /* \"facets/CommunicationFacet.sol\":370:518  function postVibe(string memory someParam, string memory _listId, string memory thr) has_credential(_listId, address(this), 'postVibe') external {... */\n    tag_9:\n      tag_33\n      0x04\n      dup1\n      calldatasize\n      sub\n      dup2\n      add\n      swap1\n      tag_34\n      swap2\n      swap1\n      tag_35\n      jump\t// in\n    tag_34:\n      tag_36\n      jump\t// in\n    tag_33:\n      stop\n        /* \"facets/CommunicationFacet.sol\":656:773  function postVibe_unauthorised(string memory someParam) credentialCallback external {... */\n    tag_14:\n        /* \"facets/GateableFacet.sol\":742:759  CREDENTIAL_ORACLE */\n      0x01\n      0x00\n      swap1\n      sload\n      swap1\n      0x0100\n      exp\n      swap1\n      div\n      0xffffffffffffffffffffffffffffffffffffffff\n      and\n        /* \"facets/GateableFacet.sol\":728:759  msg.sender == CREDENTIAL_ORACLE */\n      0xffffffffffffffffffffffffffffffffffffffff\n      and\n        /* \"facets/GateableFacet.sol\":728:738  msg.sender */\n      caller\n        /* \"facets/GateableFacet.sol\":728:759  msg.sender == CREDENTIAL_ORACLE */\n      0xffffffffffffffffffffffffffffffffffffffff\n      and\n      eq\n        /* \"facets/GateableFacet.sol\":720:823  require(msg.sender == CREDENTIAL_ORACLE, \"Credential CallBack: Only the oracle can call this function\") */\n      tag_38\n      jumpi\n      mload(0x40)\n      0x08c379a000000000000000000000000000000000000000000000000000000000\n      dup2\n      mstore\n      0x04\n      add\n      tag_39\n      swap1\n      tag_40\n      jump\t// in\n    tag_39:\n      mload(0x40)\n      dup1\n      swap2\n      sub\n      swap1\n      revert\n    tag_38:\n        /* \"facets/CommunicationFacet.sol\":656:773  function postVibe_unauthorised(string memory someParam) credentialCallback external {... */\n      pop\n      jump\t// out\n        /* \"facets/GateableFacet.sol\":165:209  CredentialEventFacet public CREDENTIAL_EVENT */\n    tag_16:\n      0x02\n      0x00\n      swap1\n      sload\n      swap1\n      0x0100\n      exp\n      swap1\n      div\n      0xffffffffffffffffffffffffffffffffffffffff\n      and\n      dup2\n      jump\t// out\n        /* \"@openzeppelin/contracts/access/Ownable.sol\":1668:1769  function renounceOwnership() public virtual onlyOwner {... */\n    tag_20:\n        /* \"@openzeppelin/contracts/access/Ownable.sol\":1259:1271  _msgSender() */\n      tag_43\n        /* \"@openzeppelin/contracts/access/Ownable.sol\":1259:1269  _msgSender */\n      tag_44\n        /* \"@openzeppelin/contracts/access/Ownable.sol\":1259:1271  _msgSender() */\n      jump\t// in\n    tag_43:\n        /* \"@openzeppelin/contracts/access/Ownable.sol\":1248:1271  owner() == _msgSender() */\n      0xffffffffffffffffffffffffffffffffffffffff\n      and\n        /* \"@openzeppelin/contracts/access/Ownable.sol\":1248:1255  owner() */\n      tag_45\n        /* \"@openzeppelin/contracts/access/Ownable.sol\":1248:1253  owner */\n      tag_22\n        /* \"@openzeppelin/contracts/access/Ownable.sol\":1248:1255  owner() */\n      jump\t// in\n    tag_45:\n        /* \"@openzeppelin/contracts/access/Ownable.sol\":1248:1271  owner() == _msgSender() */\n      0xffffffffffffffffffffffffffffffffffffffff\n      and\n      eq\n        /* \"@openzeppelin/contracts/access/Ownable.sol\":1240:1308  require(owner() == _msgSender(), \"Ownable: caller is not the owner\") */\n      tag_46\n      jumpi\n      mload(0x40)\n      0x08c379a000000000000000000000000000000000000000000000000000000000\n      dup2\n      mstore\n      0x04\n      add\n      tag_47\n      swap1\n      tag_48\n      jump\t// in\n    tag_47:\n      mload(0x40)\n      dup1\n      swap2\n      sub\n      swap1\n      revert\n    tag_46:\n        /* \"@openzeppelin/contracts/access/Ownable.sol\":1732:1762  _transferOwnership(address(0)) */\n      tag_50\n        /* \"@openzeppelin/contracts/access/Ownable.sol\":1759:1760  0 */\n      0x00\n        /* \"@openzeppelin/contracts/access/Ownable.sol\":1732:1750  _transferOwnership */\n      tag_51\n        /* \"@openzeppelin/contracts/access/Ownable.sol\":1732:1762  _transferOwnership(address(0)) */\n      jump\t// in\n    tag_50:\n        /* \"@openzeppelin/contracts/access/Ownable.sol\":1668:1769  function renounceOwnership() public virtual onlyOwner {... */\n      jump\t// out\n        /* \"@openzeppelin/contracts/access/Ownable.sol\":1036:1121  function owner() public view virtual returns (address) {... */\n    tag_22:\n        /* \"@openzeppelin/contracts/access/Ownable.sol\":1082:1089  address */\n      0x00\n        /* \"@openzeppelin/contracts/access/Ownable.sol\":1108:1114  _owner */\n      dup1\n      0x00\n      swap1\n      sload\n      swap1\n      0x0100\n      exp\n      swap1\n      div\n      0xffffffffffffffffffffffffffffffffffffffff\n      and\n        /* \"@openzeppelin/contracts/access/Ownable.sol\":1101:1114  return _owner */\n      swap1\n      pop\n        /* \"@openzeppelin/contracts/access/Ownable.sol\":1036:1121  function owner() public view virtual returns (address) {... */\n      swap1\n      jump\t// out\n        /* \"facets/CommunicationFacet.sol\":520:654  function postVibe_authorised(string memory someParam, bytes[] memory proof) credentialCallback external {... */\n    tag_28:\n        /* \"facets/GateableFacet.sol\":742:759  CREDENTIAL_ORACLE */\n      0x01\n      0x00\n      swap1\n      sload\n      swap1\n      0x0100\n      exp\n      swap1\n      div\n      0xffffffffffffffffffffffffffffffffffffffff\n      and\n        /* \"facets/GateableFacet.sol\":728:759  msg.sender == CREDENTIAL_ORACLE */\n      0xffffffffffffffffffffffffffffffffffffffff\n      and\n        /* \"facets/GateableFacet.sol\":728:738  msg.sender */\n      caller\n        /* \"facets/GateableFacet.sol\":728:759  msg.sender == CREDENTIAL_ORACLE */\n      0xffffffffffffffffffffffffffffffffffffffff\n      and\n      eq\n        /* \"facets/GateableFacet.sol\":720:823  require(msg.sender == CREDENTIAL_ORACLE, \"Credential CallBack: Only the oracle can call this function\") */\n      tag_54\n      jumpi\n      mload(0x40)\n      0x08c379a000000000000000000000000000000000000000000000000000000000\n      dup2\n      mstore\n      0x04\n      add\n      tag_55\n      swap1\n      tag_40\n      jump\t// in\n    tag_55:\n      mload(0x40)\n      dup1\n      swap2\n      sub\n      swap1\n      revert\n    tag_54:\n        /* \"facets/CommunicationFacet.sol\":520:654  function postVibe_authorised(string memory someParam, bytes[] memory proof) credentialCallback external {... */\n      pop\n      pop\n      jump\t// out\n        /* \"@openzeppelin/contracts/access/Ownable.sol\":1918:2116  function transferOwnership(address newOwner) public virtual onlyOwner {... */\n    tag_32:\n        /* \"@openzeppelin/contracts/access/Ownable.sol\":1259:1271  _msgSender() */\n      tag_58\n        /* \"@openzeppelin/contracts/access/Ownable.sol\":1259:1269  _msgSender */\n      tag_44\n        /* \"@openzeppelin/contracts/access/Ownable.sol\":1259:1271  _msgSender() */\n      jump\t// in\n    tag_58:\n        /* \"@openzeppelin/contracts/access/Ownable.sol\":1248:1271  owner() == _msgSender() */\n      0xffffffffffffffffffffffffffffffffffffffff\n      and\n        /* \"@openzeppelin/contracts/access/Ownable.sol\":1248:1255  owner() */\n      tag_59\n        /* \"@openzeppelin/contracts/access/Ownable.sol\":1248:1253  owner */\n      tag_22\n        /* \"@openzeppelin/contracts/access/Ownable.sol\":1248:1255  owner() */\n      jump\t// in\n    tag_59:\n        /* \"@openzeppelin/contracts/access/Ownable.sol\":1248:1271  owner() == _msgSender() */\n      0xffffffffffffffffffffffffffffffffffffffff\n      and\n      eq\n        /* \"@openzeppelin/contracts/access/Ownable.sol\":1240:1308  require(owner() == _msgSender(), \"Ownable: caller is not the owner\") */\n      tag_60\n      jumpi\n      mload(0x40)\n      0x08c379a000000000000000000000000000000000000000000000000000000000\n      dup2\n      mstore\n      0x04\n      add\n      tag_61\n      swap1\n      tag_48\n      jump\t// in\n    tag_61:\n      mload(0x40)\n      dup1\n      swap2\n      sub\n      swap1\n      revert\n    tag_60:\n        /* \"@openzeppelin/contracts/access/Ownable.sol\":2026:2027  0 */\n      0x00\n        /* \"@openzeppelin/contracts/access/Ownable.sol\":2006:2028  newOwner != address(0) */\n      0xffffffffffffffffffffffffffffffffffffffff\n      and\n        /* \"@openzeppelin/contracts/access/Ownable.sol\":2006:2014  newOwner */\n      dup2\n        /* \"@openzeppelin/contracts/access/Ownable.sol\":2006:2028  newOwner != address(0) */\n      0xffffffffffffffffffffffffffffffffffffffff\n      and\n      eq\n      iszero\n        /* \"@openzeppelin/contracts/access/Ownable.sol\":1998:2071  require(newOwner != address(0), \"Ownable: new owner is the zero address\") */\n      tag_63\n      jumpi\n      mload(0x40)\n      0x08c379a000000000000000000000000000000000000000000000000000000000\n      dup2\n      mstore\n      0x04\n      add\n      tag_64\n      swap1\n      tag_65\n      jump\t// in\n    tag_64:\n      mload(0x40)\n      dup1\n      swap2\n      sub\n      swap1\n      revert\n    tag_63:\n        /* \"@openzeppelin/contracts/access/Ownable.sol\":2081:2109  _transferOwnership(newOwner) */\n      tag_66\n        /* \"@openzeppelin/contracts/access/Ownable.sol\":2100:2108  newOwner */\n      dup2\n        /* \"@openzeppelin/contracts/access/Ownable.sol\":2081:2099  _transferOwnership */\n      tag_51\n        /* \"@openzeppelin/contracts/access/Ownable.sol\":2081:2109  _transferOwnership(newOwner) */\n      jump\t// in\n    tag_66:\n        /* \"@openzeppelin/contracts/access/Ownable.sol\":1918:2116  function transferOwnership(address newOwner) public virtual onlyOwner {... */\n      pop\n      jump\t// out\n        /* \"facets/CommunicationFacet.sol\":370:518  function postVibe(string memory someParam, string memory _listId, string memory thr) has_credential(_listId, address(this), 'postVibe') external {... */\n    tag_36:\n        /* \"facets/CommunicationFacet.sol\":470:477  _listId */\n      dup2\n        /* \"facets/CommunicationFacet.sol\":487:491  this */\n      address\n        /* \"facets/GateableFacet.sol\":328:521  modifier has_credential(string memory _list_id, address _contractAddr, string memory _funcName) {... */\n      mload(0x40)\n      dup1\n      0x40\n      add\n      0x40\n      mstore\n      dup1\n      0x08\n      dup2\n      mstore\n      0x20\n      add\n      0x706f737456696265000000000000000000000000000000000000000000000000\n      dup2\n      mstore\n      pop\n        /* \"facets/GateableFacet.sol\":427:443  CREDENTIAL_EVENT */\n      0x02\n      0x00\n      swap1\n      sload\n      swap1\n      0x0100\n      exp\n      swap1\n      div\n      0xffffffffffffffffffffffffffffffffffffffff\n      and\n        /* \"facets/GateableFacet.sol\":427:453  CREDENTIAL_EVENT.emitEvent */\n      0xffffffffffffffffffffffffffffffffffffffff\n      and\n      0xa78d2ba3\n        /* \"facets/GateableFacet.sol\":454:462  _list_id */\n      dup5\n        /* \"facets/GateableFacet.sol\":464:474  msg.sender */\n      caller\n        /* \"facets/GateableFacet.sol\":476:489  _contractAddr */\n      dup6\n        /* \"facets/GateableFacet.sol\":491:500  _funcName */\n      dup6\n        /* \"facets/GateableFacet.sol\":502:510  msg.data */\n      0x00\n      calldatasize\n        /* \"facets/GateableFacet.sol\":427:511  CREDENTIAL_EVENT.emitEvent(_list_id, msg.sender, _contractAddr, _funcName, msg.data) */\n      mload(0x40)\n      dup8\n      0xffffffff\n      and\n      0xe0\n      shl\n      dup2\n      mstore\n      0x04\n      add\n      tag_68\n      swap7\n      swap6\n      swap5\n      swap4\n      swap3\n      swap2\n      swap1\n      tag_69\n      jump\t// in\n    tag_68:\n      0x00\n      mload(0x40)\n      dup1\n      dup4\n      sub\n      dup2\n      0x00\n      dup8\n      dup1\n      extcodesize\n      iszero\n      dup1\n      iszero\n      tag_70\n      jumpi\n      0x00\n      dup1\n      revert\n    tag_70:\n      pop\n      gas\n      call\n      iszero\n      dup1\n      iszero\n      tag_72\n      jumpi\n      returndatasize\n      0x00\n      dup1\n      returndatacopy\n      revert(0x00, returndatasize)\n    tag_72:\n      pop\n      pop\n      pop\n      pop\n        /* \"facets/CommunicationFacet.sol\":370:518  function postVibe(string memory someParam, string memory _listId, string memory thr) has_credential(_listId, address(this), 'postVibe') external {... */\n      pop\n      pop\n      pop\n      pop\n      pop\n      pop\n      jump\t// out\n        /* \"@openzeppelin/contracts/utils/Context.sol\":640:736  function _msgSender() internal view virtual returns (address) {... */\n    tag_44:\n        /* \"@openzeppelin/contracts/utils/Context.sol\":693:700  address */\n      0x00\n        /* \"@openzeppelin/contracts/utils/Context.sol\":719:729  msg.sender */\n      caller\n        /* \"@openzeppelin/contracts/utils/Context.sol\":712:729  return msg.sender */\n      swap1\n      pop\n        /* \"@openzeppelin/contracts/utils/Context.sol\":640:736  function _msgSender() internal view virtual returns (address) {... */\n      swap1\n      jump\t// out\n        /* \"@openzeppelin/contracts/access/Ownable.sol\":2270:2457  function _transferOwnership(address newOwner) internal virtual {... */\n    tag_51:\n        /* \"@openzeppelin/contracts/access/Ownable.sol\":2343:2359  address oldOwner */\n      0x00\n        /* \"@openzeppelin/contracts/access/Ownable.sol\":2362:2368  _owner */\n      dup1\n      0x00\n      swap1\n      sload\n      swap1\n      0x0100\n      exp\n      swap1\n      div\n      0xffffffffffffffffffffffffffffffffffffffff\n      and\n        /* \"@openzeppelin/contracts/access/Ownable.sol\":2343:2368  address oldOwner = _owner */\n      swap1\n      pop\n        /* \"@openzeppelin/contracts/access/Ownable.sol\":2387:2395  newOwner */\n      dup2\n        /* \"@openzeppelin/contracts/access/Ownable.sol\":2378:2384  _owner */\n      0x00\n      dup1\n        /* \"@openzeppelin/contracts/access/Ownable.sol\":2378:2395  _owner = newOwner */\n      0x0100\n      exp\n      dup2\n      sload\n      dup2\n      0xffffffffffffffffffffffffffffffffffffffff\n      mul\n      not\n      and\n      swap1\n      dup4\n      0xffffffffffffffffffffffffffffffffffffffff\n      and\n      mul\n      or\n      swap1\n      sstore\n      pop\n        /* \"@openzeppelin/contracts/access/Ownable.sol\":2441:2449  newOwner */\n      dup2\n        /* \"@openzeppelin/contracts/access/Ownable.sol\":2410:2450  OwnershipTransferred(oldOwner, newOwner) */\n      0xffffffffffffffffffffffffffffffffffffffff\n      and\n        /* \"@openzeppelin/contracts/access/Ownable.sol\":2431:2439  oldOwner */\n      dup2\n        /* \"@openzeppelin/contracts/access/Ownable.sol\":2410:2450  OwnershipTransferred(oldOwner, newOwner) */\n      0xffffffffffffffffffffffffffffffffffffffff\n      and\n      0x8be0079c531659141344cd1fd0a4f28419497f9722a3daafe3b4186f6b6457e0\n      mload(0x40)\n      mload(0x40)\n      dup1\n      swap2\n      sub\n      swap1\n      log3\n        /* \"@openzeppelin/contracts/access/Ownable.sol\":2333:2457  {... */\n      pop\n        /* \"@openzeppelin/contracts/access/Ownable.sol\":2270:2457  function _transferOwnership(address newOwner) internal virtual {... */\n      pop\n      jump\t// out\n        /* \"#utility.yul\":22:976   */\n    tag_77:\n        /* \"#utility.yul\":127:132   */\n      0x00\n        /* \"#utility.yul\":152:242   */\n      tag_79\n        /* \"#utility.yul\":168:241   */\n      tag_80\n        /* \"#utility.yul\":234:240   */\n      dup5\n        /* \"#utility.yul\":168:241   */\n      tag_81\n      jump\t// in\n    tag_80:\n        /* \"#utility.yul\":152:242   */\n      tag_82\n      jump\t// in\n    tag_79:\n        /* \"#utility.yul\":143:242   */\n      swap1\n      pop\n        /* \"#utility.yul\":262:267   */\n      dup1\n        /* \"#utility.yul\":291:297   */\n      dup4\n        /* \"#utility.yul\":284:289   */\n      dup3\n        /* \"#utility.yul\":277:298   */\n      mstore\n        /* \"#utility.yul\":325:329   */\n      0x20\n        /* \"#utility.yul\":318:323   */\n      dup3\n        /* \"#utility.yul\":314:330   */\n      add\n        /* \"#utility.yul\":307:330   */\n      swap1\n      pop\n        /* \"#utility.yul\":351:357   */\n      dup3\n        /* \"#utility.yul\":401:404   */\n      dup6\n        /* \"#utility.yul\":393:397   */\n      0x20\n        /* \"#utility.yul\":385:391   */\n      dup7\n        /* \"#utility.yul\":381:398   */\n      mul\n        /* \"#utility.yul\":376:379   */\n      dup3\n        /* \"#utility.yul\":372:399   */\n      add\n        /* \"#utility.yul\":369:405   */\n      gt\n        /* \"#utility.yul\":366:509   */\n      iszero\n      tag_83\n      jumpi\n        /* \"#utility.yul\":420:499   */\n      tag_84\n      tag_85\n      jump\t// in\n    tag_84:\n        /* \"#utility.yul\":366:509   */\n    tag_83:\n        /* \"#utility.yul\":533:534   */\n      0x00\n        /* \"#utility.yul\":518:970   */\n    tag_86:\n        /* \"#utility.yul\":543:549   */\n      dup6\n        /* \"#utility.yul\":540:541   */\n      dup2\n        /* \"#utility.yul\":537:550   */\n      lt\n        /* \"#utility.yul\":518:970   */\n      iszero\n      tag_88\n      jumpi\n        /* \"#utility.yul\":625:628   */\n      dup2\n        /* \"#utility.yul\":612:629   */\n      calldataload\n        /* \"#utility.yul\":661:679   */\n      0xffffffffffffffff\n        /* \"#utility.yul\":648:659   */\n      dup2\n        /* \"#utility.yul\":645:680   */\n      gt\n        /* \"#utility.yul\":642:764   */\n      iszero\n      tag_89\n      jumpi\n        /* \"#utility.yul\":683:762   */\n      tag_90\n      tag_91\n      jump\t// in\n    tag_90:\n        /* \"#utility.yul\":642:764   */\n    tag_89:\n        /* \"#utility.yul\":807:818   */\n      dup1\n        /* \"#utility.yul\":799:805   */\n      dup7\n        /* \"#utility.yul\":795:819   */\n      add\n        /* \"#utility.yul\":845:891   */\n      tag_92\n        /* \"#utility.yul\":887:890   */\n      dup10\n        /* \"#utility.yul\":875:885   */\n      dup3\n        /* \"#utility.yul\":845:891   */\n      tag_93\n      jump\t// in\n    tag_92:\n        /* \"#utility.yul\":840:843   */\n      dup6\n        /* \"#utility.yul\":833:892   */\n      mstore\n        /* \"#utility.yul\":921:925   */\n      0x20\n        /* \"#utility.yul\":916:919   */\n      dup6\n        /* \"#utility.yul\":912:926   */\n      add\n        /* \"#utility.yul\":905:926   */\n      swap5\n      pop\n        /* \"#utility.yul\":955:959   */\n      0x20\n        /* \"#utility.yul\":950:953   */\n      dup5\n        /* \"#utility.yul\":946:960   */\n      add\n        /* \"#utility.yul\":939:960   */\n      swap4\n      pop\n        /* \"#utility.yul\":578:970   */\n      pop\n      pop\n        /* \"#utility.yul\":565:566   */\n      0x01\n        /* \"#utility.yul\":562:563   */\n      dup2\n        /* \"#utility.yul\":558:567   */\n      add\n        /* \"#utility.yul\":553:567   */\n      swap1\n      pop\n        /* \"#utility.yul\":518:970   */\n      jump(tag_86)\n    tag_88:\n        /* \"#utility.yul\":522:536   */\n      pop\n        /* \"#utility.yul\":133:976   */\n      pop\n      pop\n        /* \"#utility.yul\":22:976   */\n      swap4\n      swap3\n      pop\n      pop\n      pop\n      jump\t// out\n        /* \"#utility.yul\":982:1392   */\n    tag_94:\n        /* \"#utility.yul\":1059:1064   */\n      0x00\n        /* \"#utility.yul\":1084:1149   */\n      tag_96\n        /* \"#utility.yul\":1100:1148   */\n      tag_97\n        /* \"#utility.yul\":1141:1147   */\n      dup5\n        /* \"#utility.yul\":1100:1148   */\n      tag_98\n      jump\t// in\n    tag_97:\n        /* \"#utility.yul\":1084:1149   */\n      tag_82\n      jump\t// in\n    tag_96:\n        /* \"#utility.yul\":1075:1149   */\n      swap1\n      pop\n        /* \"#utility.yul\":1172:1178   */\n      dup3\n        /* \"#utility.yul\":1165:1170   */\n      dup2\n        /* \"#utility.yul\":1158:1179   */\n      mstore\n        /* \"#utility.yul\":1210:1214   */\n      0x20\n        /* \"#utility.yul\":1203:1208   */\n      dup2\n        /* \"#utility.yul\":1199:1215   */\n      add\n        /* \"#utility.yul\":1248:1251   */\n      dup5\n        /* \"#utility.yul\":1239:1245   */\n      dup5\n        /* \"#utility.yul\":1234:1237   */\n      dup5\n        /* \"#utility.yul\":1230:1246   */\n      add\n        /* \"#utility.yul\":1227:1252   */\n      gt\n        /* \"#utility.yul\":1224:1336   */\n      iszero\n      tag_99\n      jumpi\n        /* \"#utility.yul\":1255:1334   */\n      tag_100\n      tag_101\n      jump\t// in\n    tag_100:\n        /* \"#utility.yul\":1224:1336   */\n    tag_99:\n        /* \"#utility.yul\":1345:1386   */\n      tag_102\n        /* \"#utility.yul\":1379:1385   */\n      dup5\n        /* \"#utility.yul\":1374:1377   */\n      dup3\n        /* \"#utility.yul\":1369:1372   */\n      dup6\n        /* \"#utility.yul\":1345:1386   */\n      tag_103\n      jump\t// in\n    tag_102:\n        /* \"#utility.yul\":1065:1392   */\n      pop\n        /* \"#utility.yul\":982:1392   */\n      swap4\n      swap3\n      pop\n      pop\n      pop\n      jump\t// out\n        /* \"#utility.yul\":1398:1810   */\n    tag_104:\n        /* \"#utility.yul\":1476:1481   */\n      0x00\n        /* \"#utility.yul\":1501:1567   */\n      tag_106\n        /* \"#utility.yul\":1517:1566   */\n      tag_107\n        /* \"#utility.yul\":1559:1565   */\n      dup5\n        /* \"#utility.yul\":1517:1566   */\n      tag_108\n      jump\t// in\n    tag_107:\n        /* \"#utility.yul\":1501:1567   */\n      tag_82\n      jump\t// in\n    tag_106:\n        /* \"#utility.yul\":1492:1567   */\n      swap1\n      pop\n        /* \"#utility.yul\":1590:1596   */\n      dup3\n        /* \"#utility.yul\":1583:1588   */\n      dup2\n        /* \"#utility.yul\":1576:1597   */\n      mstore\n        /* \"#utility.yul\":1628:1632   */\n      0x20\n        /* \"#utility.yul\":1621:1626   */\n      dup2\n        /* \"#utility.yul\":1617:1633   */\n      add\n        /* \"#utility.yul\":1666:1669   */\n      dup5\n        /* \"#utility.yul\":1657:1663   */\n      dup5\n        /* \"#utility.yul\":1652:1655   */\n      dup5\n        /* \"#utility.yul\":1648:1664   */\n      add\n        /* \"#utility.yul\":1645:1670   */\n      gt\n        /* \"#utility.yul\":1642:1754   */\n      iszero\n      tag_109\n      jumpi\n        /* \"#utility.yul\":1673:1752   */\n      tag_110\n      tag_101\n      jump\t// in\n    tag_110:\n        /* \"#utility.yul\":1642:1754   */\n    tag_109:\n        /* \"#utility.yul\":1763:1804   */\n      tag_111\n        /* \"#utility.yul\":1797:1803   */\n      dup5\n        /* \"#utility.yul\":1792:1795   */\n      dup3\n        /* \"#utility.yul\":1787:1790   */\n      dup6\n        /* \"#utility.yul\":1763:1804   */\n      tag_103\n      jump\t// in\n    tag_111:\n        /* \"#utility.yul\":1482:1810   */\n      pop\n        /* \"#utility.yul\":1398:1810   */\n      swap4\n      swap3\n      pop\n      pop\n      pop\n      jump\t// out\n        /* \"#utility.yul\":1816:1955   */\n    tag_112:\n        /* \"#utility.yul\":1862:1867   */\n      0x00\n        /* \"#utility.yul\":1900:1906   */\n      dup2\n        /* \"#utility.yul\":1887:1907   */\n      calldataload\n        /* \"#utility.yul\":1878:1907   */\n      swap1\n      pop\n        /* \"#utility.yul\":1916:1949   */\n      tag_114\n        /* \"#utility.yul\":1943:1948   */\n      dup2\n        /* \"#utility.yul\":1916:1949   */\n      tag_115\n      jump\t// in\n    tag_114:\n        /* \"#utility.yul\":1816:1955   */\n      swap3\n      swap2\n      pop\n      pop\n      jump\t// out\n        /* \"#utility.yul\":1976:2364   */\n    tag_116:\n        /* \"#utility.yul\":2056:2061   */\n      0x00\n        /* \"#utility.yul\":2105:2108   */\n      dup3\n        /* \"#utility.yul\":2098:2102   */\n      0x1f\n        /* \"#utility.yul\":2090:2096   */\n      dup4\n        /* \"#utility.yul\":2086:2103   */\n      add\n        /* \"#utility.yul\":2082:2109   */\n      slt\n        /* \"#utility.yul\":2072:2194   */\n      tag_118\n      jumpi\n        /* \"#utility.yul\":2113:2192   */\n      tag_119\n      tag_91\n      jump\t// in\n    tag_119:\n        /* \"#utility.yul\":2072:2194   */\n    tag_118:\n        /* \"#utility.yul\":2230:2236   */\n      dup2\n        /* \"#utility.yul\":2217:2237   */\n      calldataload\n        /* \"#utility.yul\":2255:2358   */\n      tag_120\n        /* \"#utility.yul\":2354:2357   */\n      dup5\n        /* \"#utility.yul\":2346:2352   */\n      dup3\n        /* \"#utility.yul\":2339:2343   */\n      0x20\n        /* \"#utility.yul\":2331:2337   */\n      dup7\n        /* \"#utility.yul\":2327:2344   */\n      add\n        /* \"#utility.yul\":2255:2358   */\n      tag_77\n      jump\t// in\n    tag_120:\n        /* \"#utility.yul\":2246:2358   */\n      swap2\n      pop\n        /* \"#utility.yul\":2062:2364   */\n      pop\n        /* \"#utility.yul\":1976:2364   */\n      swap3\n      swap2\n      pop\n      pop\n      jump\t// out\n        /* \"#utility.yul\":2383:2721   */\n    tag_93:\n        /* \"#utility.yul\":2438:2443   */\n      0x00\n        /* \"#utility.yul\":2487:2490   */\n      dup3\n        /* \"#utility.yul\":2480:2484   */\n      0x1f\n        /* \"#utility.yul\":2472:2478   */\n      dup4\n        /* \"#utility.yul\":2468:2485   */\n      add\n        /* \"#utility.yul\":2464:2491   */\n      slt\n        /* \"#utility.yul\":2454:2576   */\n      tag_122\n      jumpi\n        /* \"#utility.yul\":2495:2574   */\n      tag_123\n      tag_91\n      jump\t// in\n    tag_123:\n        /* \"#utility.yul\":2454:2576   */\n    tag_122:\n        /* \"#utility.yul\":2612:2618   */\n      dup2\n        /* \"#utility.yul\":2599:2619   */\n      calldataload\n        /* \"#utility.yul\":2637:2715   */\n      tag_124\n        /* \"#utility.yul\":2711:2714   */\n      dup5\n        /* \"#utility.yul\":2703:2709   */\n      dup3\n        /* \"#utility.yul\":2696:2700   */\n      0x20\n        /* \"#utility.yul\":2688:2694   */\n      dup7\n        /* \"#utility.yul\":2684:2701   */\n      add\n        /* \"#utility.yul\":2637:2715   */\n      tag_94\n      jump\t// in\n    tag_124:\n        /* \"#utility.yul\":2628:2715   */\n      swap2\n      pop\n        /* \"#utility.yul\":2444:2721   */\n      pop\n        /* \"#utility.yul\":2383:2721   */\n      swap3\n      swap2\n      pop\n      pop\n      jump\t// out\n        /* \"#utility.yul\":2741:3081   */\n    tag_125:\n        /* \"#utility.yul\":2797:2802   */\n      0x00\n        /* \"#utility.yul\":2846:2849   */\n      dup3\n        /* \"#utility.yul\":2839:2843   */\n      0x1f\n        /* \"#utility.yul\":2831:2837   */\n      dup4\n        /* \"#utility.yul\":2827:2844   */\n      add\n        /* \"#utility.yul\":2823:2850   */\n      slt\n        /* \"#utility.yul\":2813:2935   */\n      tag_127\n      jumpi\n        /* \"#utility.yul\":2854:2933   */\n      tag_128\n      tag_91\n      jump\t// in\n    tag_128:\n        /* \"#utility.yul\":2813:2935   */\n    tag_127:\n        /* \"#utility.yul\":2971:2977   */\n      dup2\n        /* \"#utility.yul\":2958:2978   */\n      calldataload\n        /* \"#utility.yul\":2996:3075   */\n      tag_129\n        /* \"#utility.yul\":3071:3074   */\n      dup5\n        /* \"#utility.yul\":3063:3069   */\n      dup3\n        /* \"#utility.yul\":3056:3060   */\n      0x20\n        /* \"#utility.yul\":3048:3054   */\n      dup7\n        /* \"#utility.yul\":3044:3061   */\n      add\n        /* \"#utility.yul\":2996:3075   */\n      tag_104\n      jump\t// in\n    tag_129:\n        /* \"#utility.yul\":2987:3075   */\n      swap2\n      pop\n        /* \"#utility.yul\":2803:3081   */\n      pop\n        /* \"#utility.yul\":2741:3081   */\n      swap3\n      swap2\n      pop\n      pop\n      jump\t// out\n        /* \"#utility.yul\":3087:3416   */\n    tag_31:\n        /* \"#utility.yul\":3146:3152   */\n      0x00\n        /* \"#utility.yul\":3195:3197   */\n      0x20\n        /* \"#utility.yul\":3183:3192   */\n      dup3\n        /* \"#utility.yul\":3174:3181   */\n      dup5\n        /* \"#utility.yul\":3170:3193   */\n      sub\n        /* \"#utility.yul\":3166:3198   */\n      slt\n        /* \"#utility.yul\":3163:3282   */\n      iszero\n      tag_131\n      jumpi\n        /* \"#utility.yul\":3201:3280   */\n      tag_132\n      tag_133\n      jump\t// in\n    tag_132:\n        /* \"#utility.yul\":3163:3282   */\n    tag_131:\n        /* \"#utility.yul\":3321:3322   */\n      0x00\n        /* \"#utility.yul\":3346:3399   */\n      tag_134\n        /* \"#utility.yul\":3391:3398   */\n      dup5\n        /* \"#utility.yul\":3382:3388   */\n      dup3\n        /* \"#utility.yul\":3371:3380   */\n      dup6\n        /* \"#utility.yul\":3367:3389   */\n      add\n        /* \"#utility.yul\":3346:3399   */\n      tag_112\n      jump\t// in\n    tag_134:\n        /* \"#utility.yul\":3336:3399   */\n      swap2\n      pop\n        /* \"#utility.yul\":3292:3409   */\n      pop\n        /* \"#utility.yul\":3087:3416   */\n      swap3\n      swap2\n      pop\n      pop\n      jump\t// out\n        /* \"#utility.yul\":3422:3931   */\n    tag_13:\n        /* \"#utility.yul\":3491:3497   */\n      0x00\n        /* \"#utility.yul\":3540:3542   */\n      0x20\n        /* \"#utility.yul\":3528:3537   */\n      dup3\n        /* \"#utility.yul\":3519:3526   */\n      dup5\n        /* \"#utility.yul\":3515:3538   */\n      sub\n        /* \"#utility.yul\":3511:3543   */\n      slt\n        /* \"#utility.yul\":3508:3627   */\n      iszero\n      tag_136\n      jumpi\n        /* \"#utility.yul\":3546:3625   */\n      tag_137\n      tag_133\n      jump\t// in\n    tag_137:\n        /* \"#utility.yul\":3508:3627   */\n    tag_136:\n        /* \"#utility.yul\":3694:3695   */\n      0x00\n        /* \"#utility.yul\":3683:3692   */\n      dup3\n        /* \"#utility.yul\":3679:3696   */\n      add\n        /* \"#utility.yul\":3666:3697   */\n      calldataload\n        /* \"#utility.yul\":3724:3742   */\n      0xffffffffffffffff\n        /* \"#utility.yul\":3716:3722   */\n      dup2\n        /* \"#utility.yul\":3713:3743   */\n      gt\n        /* \"#utility.yul\":3710:3827   */\n      iszero\n      tag_138\n      jumpi\n        /* \"#utility.yul\":3746:3825   */\n      tag_139\n      tag_140\n      jump\t// in\n    tag_139:\n        /* \"#utility.yul\":3710:3827   */\n    tag_138:\n        /* \"#utility.yul\":3851:3914   */\n      tag_141\n        /* \"#utility.yul\":3906:3913   */\n      dup5\n        /* \"#utility.yul\":3897:3903   */\n      dup3\n        /* \"#utility.yul\":3886:3895   */\n      dup6\n        /* \"#utility.yul\":3882:3904   */\n      add\n        /* \"#utility.yul\":3851:3914   */\n      tag_125\n      jump\t// in\n    tag_141:\n        /* \"#utility.yul\":3841:3914   */\n      swap2\n      pop\n        /* \"#utility.yul\":3637:3924   */\n      pop\n        /* \"#utility.yul\":3422:3931   */\n      swap3\n      swap2\n      pop\n      pop\n      jump\t// out\n        /* \"#utility.yul\":3937:4819   */\n    tag_27:\n        /* \"#utility.yul\":4049:4055   */\n      0x00\n        /* \"#utility.yul\":4057:4063   */\n      dup1\n        /* \"#utility.yul\":4106:4108   */\n      0x40\n        /* \"#utility.yul\":4094:4103   */\n      dup4\n        /* \"#utility.yul\":4085:4092   */\n      dup6\n        /* \"#utility.yul\":4081:4104   */\n      sub\n        /* \"#utility.yul\":4077:4109   */\n      slt\n        /* \"#utility.yul\":4074:4193   */\n      iszero\n      tag_143\n      jumpi\n        /* \"#utility.yul\":4112:4191   */\n      tag_144\n      tag_133\n      jump\t// in\n    tag_144:\n        /* \"#utility.yul\":4074:4193   */\n    tag_143:\n        /* \"#utility.yul\":4260:4261   */\n      0x00\n        /* \"#utility.yul\":4249:4258   */\n      dup4\n        /* \"#utility.yul\":4245:4262   */\n      add\n        /* \"#utility.yul\":4232:4263   */\n      calldataload\n        /* \"#utility.yul\":4290:4308   */\n      0xffffffffffffffff\n        /* \"#utility.yul\":4282:4288   */\n      dup2\n        /* \"#utility.yul\":4279:4309   */\n      gt\n        /* \"#utility.yul\":4276:4393   */\n      iszero\n      tag_145\n      jumpi\n        /* \"#utility.yul\":4312:4391   */\n      tag_146\n      tag_140\n      jump\t// in\n    tag_146:\n        /* \"#utility.yul\":4276:4393   */\n    tag_145:\n        /* \"#utility.yul\":4417:4480   */\n      tag_147\n        /* \"#utility.yul\":4472:4479   */\n      dup6\n        /* \"#utility.yul\":4463:4469   */\n      dup3\n        /* \"#utility.yul\":4452:4461   */\n      dup7\n        /* \"#utility.yul\":4448:4470   */\n      add\n        /* \"#utility.yul\":4417:4480   */\n      tag_125\n      jump\t// in\n    tag_147:\n        /* \"#utility.yul\":4407:4480   */\n      swap3\n      pop\n        /* \"#utility.yul\":4203:4490   */\n      pop\n        /* \"#utility.yul\":4557:4559   */\n      0x20\n        /* \"#utility.yul\":4546:4555   */\n      dup4\n        /* \"#utility.yul\":4542:4560   */\n      add\n        /* \"#utility.yul\":4529:4561   */\n      calldataload\n        /* \"#utility.yul\":4588:4606   */\n      0xffffffffffffffff\n        /* \"#utility.yul\":4580:4586   */\n      dup2\n        /* \"#utility.yul\":4577:4607   */\n      gt\n        /* \"#utility.yul\":4574:4691   */\n      iszero\n      tag_148\n      jumpi\n        /* \"#utility.yul\":4610:4689   */\n      tag_149\n      tag_140\n      jump\t// in\n    tag_149:\n        /* \"#utility.yul\":4574:4691   */\n    tag_148:\n        /* \"#utility.yul\":4715:4802   */\n      tag_150\n        /* \"#utility.yul\":4794:4801   */\n      dup6\n        /* \"#utility.yul\":4785:4791   */\n      dup3\n        /* \"#utility.yul\":4774:4783   */\n      dup7\n        /* \"#utility.yul\":4770:4792   */\n      add\n        /* \"#utility.yul\":4715:4802   */\n      tag_116\n      jump\t// in\n    tag_150:\n        /* \"#utility.yul\":4705:4802   */\n      swap2\n      pop\n        /* \"#utility.yul\":4500:4812   */\n      pop\n        /* \"#utility.yul\":3937:4819   */\n      swap3\n      pop\n      swap3\n      swap1\n      pop\n      jump\t// out\n        /* \"#utility.yul\":4825:5984   */\n    tag_35:\n        /* \"#utility.yul\":4932:4938   */\n      0x00\n        /* \"#utility.yul\":4940:4946   */\n      dup1\n        /* \"#utility.yul\":4948:4954   */\n      0x00\n        /* \"#utility.yul\":4997:4999   */\n      0x60\n        /* \"#utility.yul\":4985:4994   */\n      dup5\n        /* \"#utility.yul\":4976:4983   */\n      dup7\n        /* \"#utility.yul\":4972:4995   */\n      sub\n        /* \"#utility.yul\":4968:5000   */\n      slt\n        /* \"#utility.yul\":4965:5084   */\n      iszero\n      tag_152\n      jumpi\n        /* \"#utility.yul\":5003:5082   */\n      tag_153\n      tag_133\n      jump\t// in\n    tag_153:\n        /* \"#utility.yul\":4965:5084   */\n    tag_152:\n        /* \"#utility.yul\":5151:5152   */\n      0x00\n        /* \"#utility.yul\":5140:5149   */\n      dup5\n        /* \"#utility.yul\":5136:5153   */\n      add\n        /* \"#utility.yul\":5123:5154   */\n      calldataload\n        /* \"#utility.yul\":5181:5199   */\n      0xffffffffffffffff\n        /* \"#utility.yul\":5173:5179   */\n      dup2\n        /* \"#utility.yul\":5170:5200   */\n      gt\n        /* \"#utility.yul\":5167:5284   */\n      iszero\n      tag_154\n      jumpi\n        /* \"#utility.yul\":5203:5282   */\n      tag_155\n      tag_140\n      jump\t// in\n    tag_155:\n        /* \"#utility.yul\":5167:5284   */\n    tag_154:\n        /* \"#utility.yul\":5308:5371   */\n      tag_156\n        /* \"#utility.yul\":5363:5370   */\n      dup7\n        /* \"#utility.yul\":5354:5360   */\n      dup3\n        /* \"#utility.yul\":5343:5352   */\n      dup8\n        /* \"#utility.yul\":5339:5361   */\n      add\n        /* \"#utility.yul\":5308:5371   */\n      tag_125\n      jump\t// in\n    tag_156:\n        /* \"#utility.yul\":5298:5371   */\n      swap4\n      pop\n        /* \"#utility.yul\":5094:5381   */\n      pop\n        /* \"#utility.yul\":5448:5450   */\n      0x20\n        /* \"#utility.yul\":5437:5446   */\n      dup5\n        /* \"#utility.yul\":5433:5451   */\n      add\n        /* \"#utility.yul\":5420:5452   */\n      calldataload\n        /* \"#utility.yul\":5479:5497   */\n      0xffffffffffffffff\n        /* \"#utility.yul\":5471:5477   */\n      dup2\n        /* \"#utility.yul\":5468:5498   */\n      gt\n        /* \"#utility.yul\":5465:5582   */\n      iszero\n      tag_157\n      jumpi\n        /* \"#utility.yul\":5501:5580   */\n      tag_158\n      tag_140\n      jump\t// in\n    tag_158:\n        /* \"#utility.yul\":5465:5582   */\n    tag_157:\n        /* \"#utility.yul\":5606:5669   */\n      tag_159\n        /* \"#utility.yul\":5661:5668   */\n      dup7\n        /* \"#utility.yul\":5652:5658   */\n      dup3\n        /* \"#utility.yul\":5641:5650   */\n      dup8\n        /* \"#utility.yul\":5637:5659   */\n      add\n        /* \"#utility.yul\":5606:5669   */\n      tag_125\n      jump\t// in\n    tag_159:\n        /* \"#utility.yul\":5596:5669   */\n      swap3\n      pop\n        /* \"#utility.yul\":5391:5679   */\n      pop\n        /* \"#utility.yul\":5746:5748   */\n      0x40\n        /* \"#utility.yul\":5735:5744   */\n      dup5\n        /* \"#utility.yul\":5731:5749   */\n      add\n        /* \"#utility.yul\":5718:5750   */\n      calldataload\n        /* \"#utility.yul\":5777:5795   */\n      0xffffffffffffffff\n        /* \"#utility.yul\":5769:5775   */\n      dup2\n        /* \"#utility.yul\":5766:5796   */\n      gt\n        /* \"#utility.yul\":5763:5880   */\n      iszero\n      tag_160\n      jumpi\n        /* \"#utility.yul\":5799:5878   */\n      tag_161\n      tag_140\n      jump\t// in\n    tag_161:\n        /* \"#utility.yul\":5763:5880   */\n    tag_160:\n        /* \"#utility.yul\":5904:5967   */\n      tag_162\n        /* \"#utility.yul\":5959:5966   */\n      dup7\n        /* \"#utility.yul\":5950:5956   */\n      dup3\n        /* \"#utility.yul\":5939:5948   */\n      dup8\n        /* \"#utility.yul\":5935:5957   */\n      add\n        /* \"#utility.yul\":5904:5967   */\n      tag_125\n      jump\t// in\n    tag_162:\n        /* \"#utility.yul\":5894:5967   */\n      swap2\n      pop\n        /* \"#utility.yul\":5689:5977   */\n      pop\n        /* \"#utility.yul\":4825:5984   */\n      swap3\n      pop\n      swap3\n      pop\n      swap3\n      jump\t// out\n        /* \"#utility.yul\":5990:6108   */\n    tag_163:\n        /* \"#utility.yul\":6077:6101   */\n      tag_165\n        /* \"#utility.yul\":6095:6100   */\n      dup2\n        /* \"#utility.yul\":6077:6101   */\n      tag_166\n      jump\t// in\n    tag_165:\n        /* \"#utility.yul\":6072:6075   */\n      dup3\n        /* \"#utility.yul\":6065:6102   */\n      mstore\n        /* \"#utility.yul\":5990:6108   */\n      pop\n      pop\n      jump\t// out\n        /* \"#utility.yul\":6136:6437   */\n    tag_167:\n        /* \"#utility.yul\":6232:6235   */\n      0x00\n        /* \"#utility.yul\":6253:6323   */\n      tag_169\n        /* \"#utility.yul\":6316:6322   */\n      dup4\n        /* \"#utility.yul\":6311:6314   */\n      dup6\n        /* \"#utility.yul\":6253:6323   */\n      tag_170\n      jump\t// in\n    tag_169:\n        /* \"#utility.yul\":6246:6323   */\n      swap4\n      pop\n        /* \"#utility.yul\":6333:6376   */\n      tag_171\n        /* \"#utility.yul\":6369:6375   */\n      dup4\n        /* \"#utility.yul\":6364:6367   */\n      dup6\n        /* \"#utility.yul\":6357:6362   */\n      dup5\n        /* \"#utility.yul\":6333:6376   */\n      tag_103\n      jump\t// in\n    tag_171:\n        /* \"#utility.yul\":6401:6430   */\n      tag_172\n        /* \"#utility.yul\":6423:6429   */\n      dup4\n        /* \"#utility.yul\":6401:6430   */\n      tag_173\n      jump\t// in\n    tag_172:\n        /* \"#utility.yul\":6396:6399   */\n      dup5\n        /* \"#utility.yul\":6392:6431   */\n      add\n        /* \"#utility.yul\":6385:6431   */\n      swap1\n      pop\n        /* \"#utility.yul\":6136:6437   */\n      swap4\n      swap3\n      pop\n      pop\n      pop\n      jump\t// out\n        /* \"#utility.yul\":6443:6630   */\n    tag_174:\n        /* \"#utility.yul\":6558:6623   */\n      tag_176\n        /* \"#utility.yul\":6617:6622   */\n      dup2\n        /* \"#utility.yul\":6558:6623   */\n      tag_177\n      jump\t// in\n    tag_176:\n        /* \"#utility.yul\":6553:6556   */\n      dup3\n        /* \"#utility.yul\":6546:6624   */\n      mstore\n        /* \"#utility.yul\":6443:6630   */\n      pop\n      pop\n      jump\t// out\n        /* \"#utility.yul\":6636:7000   */\n    tag_178:\n        /* \"#utility.yul\":6724:6727   */\n      0x00\n        /* \"#utility.yul\":6752:6791   */\n      tag_180\n        /* \"#utility.yul\":6785:6790   */\n      dup3\n        /* \"#utility.yul\":6752:6791   */\n      tag_181\n      jump\t// in\n    tag_180:\n        /* \"#utility.yul\":6807:6878   */\n      tag_182\n        /* \"#utility.yul\":6871:6877   */\n      dup2\n        /* \"#utility.yul\":6866:6869   */\n      dup6\n        /* \"#utility.yul\":6807:6878   */\n      tag_183\n      jump\t// in\n    tag_182:\n        /* \"#utility.yul\":6800:6878   */\n      swap4\n      pop\n        /* \"#utility.yul\":6887:6939   */\n      tag_184\n        /* \"#utility.yul\":6932:6938   */\n      dup2\n        /* \"#utility.yul\":6927:6930   */\n      dup6\n        /* \"#utility.yul\":6920:6924   */\n      0x20\n        /* \"#utility.yul\":6913:6918   */\n      dup7\n        /* \"#utility.yul\":6909:6925   */\n      add\n        /* \"#utility.yul\":6887:6939   */\n      tag_185\n      jump\t// in\n    tag_184:\n        /* \"#utility.yul\":6964:6993   */\n      tag_186\n        /* \"#utility.yul\":6986:6992   */\n      dup2\n        /* \"#utility.yul\":6964:6993   */\n      tag_173\n      jump\t// in\n    tag_186:\n        /* \"#utility.yul\":6959:6962   */\n      dup5\n        /* \"#utility.yul\":6955:6994   */\n      add\n        /* \"#utility.yul\":6948:6994   */\n      swap2\n      pop\n        /* \"#utility.yul\":6728:7000   */\n      pop\n        /* \"#utility.yul\":6636:7000   */\n      swap3\n      swap2\n      pop\n      pop\n      jump\t// out\n        /* \"#utility.yul\":7006:7372   */\n    tag_187:\n        /* \"#utility.yul\":7148:7151   */\n      0x00\n        /* \"#utility.yul\":7169:7236   */\n      tag_189\n        /* \"#utility.yul\":7233:7235   */\n      0x26\n        /* \"#utility.yul\":7228:7231   */\n      dup4\n        /* \"#utility.yul\":7169:7236   */\n      tag_183\n      jump\t// in\n    tag_189:\n        /* \"#utility.yul\":7162:7236   */\n      swap2\n      pop\n        /* \"#utility.yul\":7245:7338   */\n      tag_190\n        /* \"#utility.yul\":7334:7337   */\n      dup3\n        /* \"#utility.yul\":7245:7338   */\n      tag_191\n      jump\t// in\n    tag_190:\n        /* \"#utility.yul\":7363:7365   */\n      0x40\n        /* \"#utility.yul\":7358:7361   */\n      dup3\n        /* \"#utility.yul\":7354:7366   */\n      add\n        /* \"#utility.yul\":7347:7366   */\n      swap1\n      pop\n        /* \"#utility.yul\":7006:7372   */\n      swap2\n      swap1\n      pop\n      jump\t// out\n        /* \"#utility.yul\":7378:7744   */\n    tag_192:\n        /* \"#utility.yul\":7520:7523   */\n      0x00\n        /* \"#utility.yul\":7541:7608   */\n      tag_194\n        /* \"#utility.yul\":7605:7607   */\n      0x20\n        /* \"#utility.yul\":7600:7603   */\n      dup4\n        /* \"#utility.yul\":7541:7608   */\n      tag_183\n      jump\t// in\n    tag_194:\n        /* \"#utility.yul\":7534:7608   */\n      swap2\n      pop\n        /* \"#utility.yul\":7617:7710   */\n      tag_195\n        /* \"#utility.yul\":7706:7709   */\n      dup3\n        /* \"#utility.yul\":7617:7710   */\n      tag_196\n      jump\t// in\n    tag_195:\n        /* \"#utility.yul\":7735:7737   */\n      0x20\n        /* \"#utility.yul\":7730:7733   */\n      dup3\n        /* \"#utility.yul\":7726:7738   */\n      add\n        /* \"#utility.yul\":7719:7738   */\n      swap1\n      pop\n        /* \"#utility.yul\":7378:7744   */\n      swap2\n      swap1\n      pop\n      jump\t// out\n        /* \"#utility.yul\":7750:8116   */\n    tag_197:\n        /* \"#utility.yul\":7892:7895   */\n      0x00\n        /* \"#utility.yul\":7913:7980   */\n      tag_199\n        /* \"#utility.yul\":7977:7979   */\n      0x3b\n        /* \"#utility.yul\":7972:7975   */\n      dup4\n        /* \"#utility.yul\":7913:7980   */\n      tag_183\n      jump\t// in\n    tag_199:\n        /* \"#utility.yul\":7906:7980   */\n      swap2\n      pop\n        /* \"#utility.yul\":7989:8082   */\n      tag_200\n        /* \"#utility.yul\":8078:8081   */\n      dup3\n        /* \"#utility.yul\":7989:8082   */\n      tag_201\n      jump\t// in\n    tag_200:\n        /* \"#utility.yul\":8107:8109   */\n      0x40\n        /* \"#utility.yul\":8102:8105   */\n      dup3\n        /* \"#utility.yul\":8098:8110   */\n      add\n        /* \"#utility.yul\":8091:8110   */\n      swap1\n      pop\n        /* \"#utility.yul\":7750:8116   */\n      swap2\n      swap1\n      pop\n      jump\t// out\n        /* \"#utility.yul\":8122:8344   */\n    tag_24:\n        /* \"#utility.yul\":8215:8219   */\n      0x00\n        /* \"#utility.yul\":8253:8255   */\n      0x20\n        /* \"#utility.yul\":8242:8251   */\n      dup3\n        /* \"#utility.yul\":8238:8256   */\n      add\n        /* \"#utility.yul\":8230:8256   */\n      swap1\n      pop\n        /* \"#utility.yul\":8266:8337   */\n      tag_203\n        /* \"#utility.yul\":8334:8335   */\n      0x00\n        /* \"#utility.yul\":8323:8332   */\n      dup4\n        /* \"#utility.yul\":8319:8336   */\n      add\n        /* \"#utility.yul\":8310:8316   */\n      dup5\n        /* \"#utility.yul\":8266:8337   */\n      tag_163\n      jump\t// in\n    tag_203:\n        /* \"#utility.yul\":8122:8344   */\n      swap3\n      swap2\n      pop\n      pop\n      jump\t// out\n        /* \"#utility.yul\":8350:8628   */\n    tag_18:\n        /* \"#utility.yul\":8471:8475   */\n      0x00\n        /* \"#utility.yul\":8509:8511   */\n      0x20\n        /* \"#utility.yul\":8498:8507   */\n      dup3\n        /* \"#utility.yul\":8494:8512   */\n      add\n        /* \"#utility.yul\":8486:8512   */\n      swap1\n      pop\n        /* \"#utility.yul\":8522:8621   */\n      tag_205\n        /* \"#utility.yul\":8618:8619   */\n      0x00\n        /* \"#utility.yul\":8607:8616   */\n      dup4\n        /* \"#utility.yul\":8603:8620   */\n      add\n        /* \"#utility.yul\":8594:8600   */\n      dup5\n        /* \"#utility.yul\":8522:8621   */\n      tag_174\n      jump\t// in\n    tag_205:\n        /* \"#utility.yul\":8350:8628   */\n      swap3\n      swap2\n      pop\n      pop\n      jump\t// out\n        /* \"#utility.yul\":8634:9587   */\n    tag_69:\n        /* \"#utility.yul\":8907:8911   */\n      0x00\n        /* \"#utility.yul\":8945:8948   */\n      0xa0\n        /* \"#utility.yul\":8934:8943   */\n      dup3\n        /* \"#utility.yul\":8930:8949   */\n      add\n        /* \"#utility.yul\":8922:8949   */\n      swap1\n      pop\n        /* \"#utility.yul\":8995:9004   */\n      dup2\n        /* \"#utility.yul\":8989:8993   */\n      dup2\n        /* \"#utility.yul\":8985:9005   */\n      sub\n        /* \"#utility.yul\":8981:8982   */\n      0x00\n        /* \"#utility.yul\":8970:8979   */\n      dup4\n        /* \"#utility.yul\":8966:8983   */\n      add\n        /* \"#utility.yul\":8959:9006   */\n      mstore\n        /* \"#utility.yul\":9023:9101   */\n      tag_207\n        /* \"#utility.yul\":9096:9100   */\n      dup2\n        /* \"#utility.yul\":9087:9093   */\n      dup10\n        /* \"#utility.yul\":9023:9101   */\n      tag_178\n      jump\t// in\n    tag_207:\n        /* \"#utility.yul\":9015:9101   */\n      swap1\n      pop\n        /* \"#utility.yul\":9111:9183   */\n      tag_208\n        /* \"#utility.yul\":9179:9181   */\n      0x20\n        /* \"#utility.yul\":9168:9177   */\n      dup4\n        /* \"#utility.yul\":9164:9182   */\n      add\n        /* \"#utility.yul\":9155:9161   */\n      dup9\n        /* \"#utility.yul\":9111:9183   */\n      tag_163\n      jump\t// in\n    tag_208:\n        /* \"#utility.yul\":9193:9265   */\n      tag_209\n        /* \"#utility.yul\":9261:9263   */\n      0x40\n        /* \"#utility.yul\":9250:9259   */\n      dup4\n        /* \"#utility.yul\":9246:9264   */\n      add\n        /* \"#utility.yul\":9237:9243   */\n      dup8\n        /* \"#utility.yul\":9193:9265   */\n      tag_163\n      jump\t// in\n    tag_209:\n        /* \"#utility.yul\":9312:9321   */\n      dup2\n        /* \"#utility.yul\":9306:9310   */\n      dup2\n        /* \"#utility.yul\":9302:9322   */\n      sub\n        /* \"#utility.yul\":9297:9299   */\n      0x60\n        /* \"#utility.yul\":9286:9295   */\n      dup4\n        /* \"#utility.yul\":9282:9300   */\n      add\n        /* \"#utility.yul\":9275:9323   */\n      mstore\n        /* \"#utility.yul\":9340:9418   */\n      tag_210\n        /* \"#utility.yul\":9413:9417   */\n      dup2\n        /* \"#utility.yul\":9404:9410   */\n      dup7\n        /* \"#utility.yul\":9340:9418   */\n      tag_178\n      jump\t// in\n    tag_210:\n        /* \"#utility.yul\":9332:9418   */\n      swap1\n      pop\n        /* \"#utility.yul\":9466:9475   */\n      dup2\n        /* \"#utility.yul\":9460:9464   */\n      dup2\n        /* \"#utility.yul\":9456:9476   */\n      sub\n        /* \"#utility.yul\":9450:9453   */\n      0x80\n        /* \"#utility.yul\":9439:9448   */\n      dup4\n        /* \"#utility.yul\":9435:9454   */\n      add\n        /* \"#utility.yul\":9428:9477   */\n      mstore\n        /* \"#utility.yul\":9494:9580   */\n      tag_211\n        /* \"#utility.yul\":9575:9579   */\n      dup2\n        /* \"#utility.yul\":9566:9572   */\n      dup5\n        /* \"#utility.yul\":9558:9564   */\n      dup7\n        /* \"#utility.yul\":9494:9580   */\n      tag_167\n      jump\t// in\n    tag_211:\n        /* \"#utility.yul\":9486:9580   */\n      swap1\n      pop\n        /* \"#utility.yul\":8634:9587   */\n      swap8\n      swap7\n      pop\n      pop\n      pop\n      pop\n      pop\n      pop\n      pop\n      jump\t// out\n        /* \"#utility.yul\":9593:10012   */\n    tag_65:\n        /* \"#utility.yul\":9759:9763   */\n      0x00\n        /* \"#utility.yul\":9797:9799   */\n      0x20\n        /* \"#utility.yul\":9786:9795   */\n      dup3\n        /* \"#utility.yul\":9782:9800   */\n      add\n        /* \"#utility.yul\":9774:9800   */\n      swap1\n      pop\n        /* \"#utility.yul\":9846:9855   */\n      dup2\n        /* \"#utility.yul\":9840:9844   */\n      dup2\n        /* \"#utility.yul\":9836:9856   */\n      sub\n        /* \"#utility.yul\":9832:9833   */\n      0x00\n        /* \"#utility.yul\":9821:9830   */\n      dup4\n        /* \"#utility.yul\":9817:9834   */\n      add\n        /* \"#utility.yul\":9810:9857   */\n      mstore\n        /* \"#utility.yul\":9874:10005   */\n      tag_213\n        /* \"#utility.yul\":10000:10004   */\n      dup2\n        /* \"#utility.yul\":9874:10005   */\n      tag_187\n      jump\t// in\n    tag_213:\n        /* \"#utility.yul\":9866:10005   */\n      swap1\n      pop\n        /* \"#utility.yul\":9593:10012   */\n      swap2\n      swap1\n      pop\n      jump\t// out\n        /* \"#utility.yul\":10018:10437   */\n    tag_48:\n        /* \"#utility.yul\":10184:10188   */\n      0x00\n        /* \"#utility.yul\":10222:10224   */\n      0x20\n        /* \"#utility.yul\":10211:10220   */\n      dup3\n        /* \"#utility.yul\":10207:10225   */\n      add\n        /* \"#utility.yul\":10199:10225   */\n      swap1\n      pop\n        /* \"#utility.yul\":10271:10280   */\n      dup2\n        /* \"#utility.yul\":10265:10269   */\n      dup2\n        /* \"#utility.yul\":10261:10281   */\n      sub\n        /* \"#utility.yul\":10257:10258   */\n      0x00\n        /* \"#utility.yul\":10246:10255   */\n      dup4\n        /* \"#utility.yul\":10242:10259   */\n      add\n        /* \"#utility.yul\":10235:10282   */\n      mstore\n        /* \"#utility.yul\":10299:10430   */\n      tag_215\n        /* \"#utility.yul\":10425:10429   */\n      dup2\n        /* \"#utility.yul\":10299:10430   */\n      tag_192\n      jump\t// in\n    tag_215:\n        /* \"#utility.yul\":10291:10430   */\n      swap1\n      pop\n        /* \"#utility.yul\":10018:10437   */\n      swap2\n      swap1\n      pop\n      jump\t// out\n        /* \"#utility.yul\":10443:10862   */\n    tag_40:\n        /* \"#utility.yul\":10609:10613   */\n      0x00\n        /* \"#utility.yul\":10647:10649   */\n      0x20\n        /* \"#utility.yul\":10636:10645   */\n      dup3\n        /* \"#utility.yul\":10632:10650   */\n      add\n        /* \"#utility.yul\":10624:10650   */\n      swap1\n      pop\n        /* \"#utility.yul\":10696:10705   */\n      dup2\n        /* \"#utility.yul\":10690:10694   */\n      dup2\n        /* \"#utility.yul\":10686:10706   */\n      sub\n        /* \"#utility.yul\":10682:10683   */\n      0x00\n        /* \"#utility.yul\":10671:10680   */\n      dup4\n        /* \"#utility.yul\":10667:10684   */\n      add\n        /* \"#utility.yul\":10660:10707   */\n      mstore\n        /* \"#utility.yul\":10724:10855   */\n      tag_217\n        /* \"#utility.yul\":10850:10854   */\n      dup2\n        /* \"#utility.yul\":10724:10855   */\n      tag_197\n      jump\t// in\n    tag_217:\n        /* \"#utility.yul\":10716:10855   */\n      swap1\n      pop\n        /* \"#utility.yul\":10443:10862   */\n      swap2\n      swap1\n      pop\n      jump\t// out\n        /* \"#utility.yul\":10868:10997   */\n    tag_82:\n        /* \"#utility.yul\":10902:10908   */\n      0x00\n        /* \"#utility.yul\":10929:10949   */\n      tag_219\n      tag_220\n      jump\t// in\n    tag_219:\n        /* \"#utility.yul\":10919:10949   */\n      swap1\n      pop\n        /* \"#utility.yul\":10958:10991   */\n      tag_221\n        /* \"#utility.yul\":10986:10990   */\n      dup3\n        /* \"#utility.yul\":10978:10984   */\n      dup3\n        /* \"#utility.yul\":10958:10991   */\n      tag_222\n      jump\t// in\n    tag_221:\n        /* \"#utility.yul\":10868:10997   */\n      swap2\n      swap1\n      pop\n      jump\t// out\n        /* \"#utility.yul\":11003:11078   */\n    tag_220:\n        /* \"#utility.yul\":11036:11042   */\n      0x00\n        /* \"#utility.yul\":11069:11071   */\n      0x40\n        /* \"#utility.yul\":11063:11072   */\n      mload\n        /* \"#utility.yul\":11053:11072   */\n      swap1\n      pop\n        /* \"#utility.yul\":11003:11078   */\n      swap1\n      jump\t// out\n        /* \"#utility.yul\":11084:11404   */\n    tag_81:\n        /* \"#utility.yul\":11170:11174   */\n      0x00\n        /* \"#utility.yul\":11260:11278   */\n      0xffffffffffffffff\n        /* \"#utility.yul\":11252:11258   */\n      dup3\n        /* \"#utility.yul\":11249:11279   */\n      gt\n        /* \"#utility.yul\":11246:11302   */\n      iszero\n      tag_225\n      jumpi\n        /* \"#utility.yul\":11282:11300   */\n      tag_226\n      tag_227\n      jump\t// in\n    tag_226:\n        /* \"#utility.yul\":11246:11302   */\n    tag_225:\n        /* \"#utility.yul\":11332:11336   */\n      0x20\n        /* \"#utility.yul\":11324:11330   */\n      dup3\n        /* \"#utility.yul\":11320:11337   */\n      mul\n        /* \"#utility.yul\":11312:11337   */\n      swap1\n      pop\n        /* \"#utility.yul\":11392:11396   */\n      0x20\n        /* \"#utility.yul\":11386:11390   */\n      dup2\n        /* \"#utility.yul\":11382:11397   */\n      add\n        /* \"#utility.yul\":11374:11397   */\n      swap1\n      pop\n        /* \"#utility.yul\":11084:11404   */\n      swap2\n      swap1\n      pop\n      jump\t// out\n        /* \"#utility.yul\":11410:11717   */\n    tag_98:\n        /* \"#utility.yul\":11471:11475   */\n      0x00\n        /* \"#utility.yul\":11561:11579   */\n      0xffffffffffffffff\n        /* \"#utility.yul\":11553:11559   */\n      dup3\n        /* \"#utility.yul\":11550:11580   */\n      gt\n        /* \"#utility.yul\":11547:11603   */\n      iszero\n      tag_229\n      jumpi\n        /* \"#utility.yul\":11583:11601   */\n      tag_230\n      tag_227\n      jump\t// in\n    tag_230:\n        /* \"#utility.yul\":11547:11603   */\n    tag_229:\n        /* \"#utility.yul\":11621:11650   */\n      tag_231\n        /* \"#utility.yul\":11643:11649   */\n      dup3\n        /* \"#utility.yul\":11621:11650   */\n      tag_173\n      jump\t// in\n    tag_231:\n        /* \"#utility.yul\":11613:11650   */\n      swap1\n      pop\n        /* \"#utility.yul\":11705:11709   */\n      0x20\n        /* \"#utility.yul\":11699:11703   */\n      dup2\n        /* \"#utility.yul\":11695:11710   */\n      add\n        /* \"#utility.yul\":11687:11710   */\n      swap1\n      pop\n        /* \"#utility.yul\":11410:11717   */\n      swap2\n      swap1\n      pop\n      jump\t// out\n        /* \"#utility.yul\":11723:12031   */\n    tag_108:\n        /* \"#utility.yul\":11785:11789   */\n      0x00\n        /* \"#utility.yul\":11875:11893   */\n      0xffffffffffffffff\n        /* \"#utility.yul\":11867:11873   */\n      dup3\n        /* \"#utility.yul\":11864:11894   */\n      gt\n        /* \"#utility.yul\":11861:11917   */\n      iszero\n      tag_233\n      jumpi\n        /* \"#utility.yul\":11897:11915   */\n      tag_234\n      tag_227\n      jump\t// in\n    tag_234:\n        /* \"#utility.yul\":11861:11917   */\n    tag_233:\n        /* \"#utility.yul\":11935:11964   */\n      tag_235\n        /* \"#utility.yul\":11957:11963   */\n      dup3\n        /* \"#utility.yul\":11935:11964   */\n      tag_173\n      jump\t// in\n    tag_235:\n        /* \"#utility.yul\":11927:11964   */\n      swap1\n      pop\n        /* \"#utility.yul\":12019:12023   */\n      0x20\n        /* \"#utility.yul\":12013:12017   */\n      dup2\n        /* \"#utility.yul\":12009:12024   */\n      add\n        /* \"#utility.yul\":12001:12024   */\n      swap1\n      pop\n        /* \"#utility.yul\":11723:12031   */\n      swap2\n      swap1\n      pop\n      jump\t// out\n        /* \"#utility.yul\":12037:12136   */\n    tag_181:\n        /* \"#utility.yul\":12089:12095   */\n      0x00\n        /* \"#utility.yul\":12123:12128   */\n      dup2\n        /* \"#utility.yul\":12117:12129   */\n      mload\n        /* \"#utility.yul\":12107:12129   */\n      swap1\n      pop\n        /* \"#utility.yul\":12037:12136   */\n      swap2\n      swap1\n      pop\n      jump\t// out\n        /* \"#utility.yul\":12142:12310   */\n    tag_170:\n        /* \"#utility.yul\":12225:12236   */\n      0x00\n        /* \"#utility.yul\":12259:12265   */\n      dup3\n        /* \"#utility.yul\":12254:12257   */\n      dup3\n        /* \"#utility.yul\":12247:12266   */\n      mstore\n        /* \"#utility.yul\":12299:12303   */\n      0x20\n        /* \"#utility.yul\":12294:12297   */\n      dup3\n        /* \"#utility.yul\":12290:12304   */\n      add\n        /* \"#utility.yul\":12275:12304   */\n      swap1\n      pop\n        /* \"#utility.yul\":12142:12310   */\n      swap3\n      swap2\n      pop\n      pop\n      jump\t// out\n        /* \"#utility.yul\":12316:12485   */\n    tag_183:\n        /* \"#utility.yul\":12400:12411   */\n      0x00\n        /* \"#utility.yul\":12434:12440   */\n      dup3\n        /* \"#utility.yul\":12429:12432   */\n      dup3\n        /* \"#utility.yul\":12422:12441   */\n      mstore\n        /* \"#utility.yul\":12474:12478   */\n      0x20\n        /* \"#utility.yul\":12469:12472   */\n      dup3\n        /* \"#utility.yul\":12465:12479   */\n      add\n        /* \"#utility.yul\":12450:12479   */\n      swap1\n      pop\n        /* \"#utility.yul\":12316:12485   */\n      swap3\n      swap2\n      pop\n      pop\n      jump\t// out\n        /* \"#utility.yul\":12491:12587   */\n    tag_166:\n        /* \"#utility.yul\":12528:12535   */\n      0x00\n        /* \"#utility.yul\":12557:12581   */\n      tag_240\n        /* \"#utility.yul\":12575:12580   */\n      dup3\n        /* \"#utility.yul\":12557:12581   */\n      tag_241\n      jump\t// in\n    tag_240:\n        /* \"#utility.yul\":12546:12581   */\n      swap1\n      pop\n        /* \"#utility.yul\":12491:12587   */\n      swap2\n      swap1\n      pop\n      jump\t// out\n        /* \"#utility.yul\":12593:12719   */\n    tag_241:\n        /* \"#utility.yul\":12630:12637   */\n      0x00\n        /* \"#utility.yul\":12670:12712   */\n      0xffffffffffffffffffffffffffffffffffffffff\n        /* \"#utility.yul\":12663:12668   */\n      dup3\n        /* \"#utility.yul\":12659:12713   */\n      and\n        /* \"#utility.yul\":12648:12713   */\n      swap1\n      pop\n        /* \"#utility.yul\":12593:12719   */\n      swap2\n      swap1\n      pop\n      jump\t// out\n        /* \"#utility.yul\":12725:12879   */\n    tag_177:\n        /* \"#utility.yul\":12803:12812   */\n      0x00\n        /* \"#utility.yul\":12836:12873   */\n      tag_244\n        /* \"#utility.yul\":12867:12872   */\n      dup3\n        /* \"#utility.yul\":12836:12873   */\n      tag_245\n      jump\t// in\n    tag_244:\n        /* \"#utility.yul\":12823:12873   */\n      swap1\n      pop\n        /* \"#utility.yul\":12725:12879   */\n      swap2\n      swap1\n      pop\n      jump\t// out\n        /* \"#utility.yul\":12885:13011   */\n    tag_245:\n        /* \"#utility.yul\":12935:12944   */\n      0x00\n        /* \"#utility.yul\":12968:13005   */\n      tag_247\n        /* \"#utility.yul\":12999:13004   */\n      dup3\n        /* \"#utility.yul\":12968:13005   */\n      tag_248\n      jump\t// in\n    tag_247:\n        /* \"#utility.yul\":12955:13005   */\n      swap1\n      pop\n        /* \"#utility.yul\":12885:13011   */\n      swap2\n      swap1\n      pop\n      jump\t// out\n        /* \"#utility.yul\":13017:13130   */\n    tag_248:\n        /* \"#utility.yul\":13067:13076   */\n      0x00\n        /* \"#utility.yul\":13100:13124   */\n      tag_250\n        /* \"#utility.yul\":13118:13123   */\n      dup3\n        /* \"#utility.yul\":13100:13124   */\n      tag_241\n      jump\t// in\n    tag_250:\n        /* \"#utility.yul\":13087:13124   */\n      swap1\n      pop\n        /* \"#utility.yul\":13017:13130   */\n      swap2\n      swap1\n      pop\n      jump\t// out\n        /* \"#utility.yul\":13136:13290   */\n    tag_103:\n        /* \"#utility.yul\":13220:13226   */\n      dup3\n        /* \"#utility.yul\":13215:13218   */\n      dup2\n        /* \"#utility.yul\":13210:13213   */\n      dup4\n        /* \"#utility.yul\":13197:13227   */\n      calldatacopy\n        /* \"#utility.yul\":13282:13283   */\n      0x00\n        /* \"#utility.yul\":13273:13279   */\n      dup4\n        /* \"#utility.yul\":13268:13271   */\n      dup4\n        /* \"#utility.yul\":13264:13280   */\n      add\n        /* \"#utility.yul\":13257:13284   */\n      mstore\n        /* \"#utility.yul\":13136:13290   */\n      pop\n      pop\n      pop\n      jump\t// out\n        /* \"#utility.yul\":13296:13603   */\n    tag_185:\n        /* \"#utility.yul\":13364:13365   */\n      0x00\n        /* \"#utility.yul\":13374:13487   */\n    tag_253:\n        /* \"#utility.yul\":13388:13394   */\n      dup4\n        /* \"#utility.yul\":13385:13386   */\n      dup2\n        /* \"#utility.yul\":13382:13395   */\n      lt\n        /* \"#utility.yul\":13374:13487   */\n      iszero\n      tag_255\n      jumpi\n        /* \"#utility.yul\":13473:13474   */\n      dup1\n        /* \"#utility.yul\":13468:13471   */\n      dup3\n        /* \"#utility.yul\":13464:13475   */\n      add\n        /* \"#utility.yul\":13458:13476   */\n      mload\n        /* \"#utility.yul\":13454:13455   */\n      dup2\n        /* \"#utility.yul\":13449:13452   */\n      dup5\n        /* \"#utility.yul\":13445:13456   */\n      add\n        /* \"#utility.yul\":13438:13477   */\n      mstore\n        /* \"#utility.yul\":13410:13412   */\n      0x20\n        /* \"#utility.yul\":13407:13408   */\n      dup2\n        /* \"#utility.yul\":13403:13413   */\n      add\n        /* \"#utility.yul\":13398:13413   */\n      swap1\n      pop\n        /* \"#utility.yul\":13374:13487   */\n      jump(tag_253)\n    tag_255:\n        /* \"#utility.yul\":13505:13511   */\n      dup4\n        /* \"#utility.yul\":13502:13503   */\n      dup2\n        /* \"#utility.yul\":13499:13512   */\n      gt\n        /* \"#utility.yul\":13496:13597   */\n      iszero\n      tag_256\n      jumpi\n        /* \"#utility.yul\":13585:13586   */\n      0x00\n        /* \"#utility.yul\":13576:13582   */\n      dup5\n        /* \"#utility.yul\":13571:13574   */\n      dup5\n        /* \"#utility.yul\":13567:13583   */\n      add\n        /* \"#utility.yul\":13560:13587   */\n      mstore\n        /* \"#utility.yul\":13496:13597   */\n    tag_256:\n        /* \"#utility.yul\":13345:13603   */\n      pop\n        /* \"#utility.yul\":13296:13603   */\n      pop\n      pop\n      pop\n      jump\t// out\n        /* \"#utility.yul\":13609:13890   */\n    tag_222:\n        /* \"#utility.yul\":13692:13719   */\n      tag_258\n        /* \"#utility.yul\":13714:13718   */\n      dup3\n        /* \"#utility.yul\":13692:13719   */\n      tag_173\n      jump\t// in\n    tag_258:\n        /* \"#utility.yul\":13684:13690   */\n      dup2\n        /* \"#utility.yul\":13680:13720   */\n      add\n        /* \"#utility.yul\":13822:13828   */\n      dup2\n        /* \"#utility.yul\":13810:13820   */\n      dup2\n        /* \"#utility.yul\":13807:13829   */\n      lt\n        /* \"#utility.yul\":13786:13804   */\n      0xffffffffffffffff\n        /* \"#utility.yul\":13774:13784   */\n      dup3\n        /* \"#utility.yul\":13771:13805   */\n      gt\n        /* \"#utility.yul\":13768:13830   */\n      or\n        /* \"#utility.yul\":13765:13853   */\n      iszero\n      tag_259\n      jumpi\n        /* \"#utility.yul\":13833:13851   */\n      tag_260\n      tag_227\n      jump\t// in\n    tag_260:\n        /* \"#utility.yul\":13765:13853   */\n    tag_259:\n        /* \"#utility.yul\":13873:13883   */\n      dup1\n        /* \"#utility.yul\":13869:13871   */\n      0x40\n        /* \"#utility.yul\":13862:13884   */\n      mstore\n        /* \"#utility.yul\":13652:13890   */\n      pop\n        /* \"#utility.yul\":13609:13890   */\n      pop\n      pop\n      jump\t// out\n        /* \"#utility.yul\":13896:14076   */\n    tag_227:\n        /* \"#utility.yul\":13944:14021   */\n      0x4e487b7100000000000000000000000000000000000000000000000000000000\n        /* \"#utility.yul\":13941:13942   */\n      0x00\n        /* \"#utility.yul\":13934:14022   */\n      mstore\n        /* \"#utility.yul\":14041:14045   */\n      0x41\n        /* \"#utility.yul\":14038:14039   */\n      0x04\n        /* \"#utility.yul\":14031:14046   */\n      mstore\n        /* \"#utility.yul\":14065:14069   */\n      0x24\n        /* \"#utility.yul\":14062:14063   */\n      0x00\n        /* \"#utility.yul\":14055:14070   */\n      revert\n        /* \"#utility.yul\":14082:14199   */\n    tag_91:\n        /* \"#utility.yul\":14191:14192   */\n      0x00\n        /* \"#utility.yul\":14188:14189   */\n      dup1\n        /* \"#utility.yul\":14181:14193   */\n      revert\n        /* \"#utility.yul\":14205:14322   */\n    tag_85:\n        /* \"#utility.yul\":14314:14315   */\n      0x00\n        /* \"#utility.yul\":14311:14312   */\n      dup1\n        /* \"#utility.yul\":14304:14316   */\n      revert\n        /* \"#utility.yul\":14328:14445   */\n    tag_101:\n        /* \"#utility.yul\":14437:14438   */\n      0x00\n        /* \"#utility.yul\":14434:14435   */\n      dup1\n        /* \"#utility.yul\":14427:14439   */\n      revert\n        /* \"#utility.yul\":14451:14568   */\n    tag_140:\n        /* \"#utility.yul\":14560:14561   */\n      0x00\n        /* \"#utility.yul\":14557:14558   */\n      dup1\n        /* \"#utility.yul\":14550:14562   */\n      revert\n        /* \"#utility.yul\":14574:14691   */\n    tag_133:\n        /* \"#utility.yul\":14683:14684   */\n      0x00\n        /* \"#utility.yul\":14680:14681   */\n      dup1\n        /* \"#utility.yul\":14673:14685   */\n      revert\n        /* \"#utility.yul\":14697:14799   */\n    tag_173:\n        /* \"#utility.yul\":14738:14744   */\n      0x00\n        /* \"#utility.yul\":14789:14791   */\n      0x1f\n        /* \"#utility.yul\":14785:14792   */\n      not\n        /* \"#utility.yul\":14780:14782   */\n      0x1f\n        /* \"#utility.yul\":14773:14778   */\n      dup4\n        /* \"#utility.yul\":14769:14783   */\n      add\n        /* \"#utility.yul\":14765:14793   */\n      and\n        /* \"#utility.yul\":14755:14793   */\n      swap1\n      pop\n        /* \"#utility.yul\":14697:14799   */\n      swap2\n      swap1\n      pop\n      jump\t// out\n        /* \"#utility.yul\":14805:15030   */\n    tag_191:\n        /* \"#utility.yul\":14945:14979   */\n      0x4f776e61626c653a206e6577206f776e657220697320746865207a65726f2061\n        /* \"#utility.yul\":14941:14942   */\n      0x00\n        /* \"#utility.yul\":14933:14939   */\n      dup3\n        /* \"#utility.yul\":14929:14943   */\n      add\n        /* \"#utility.yul\":14922:14980   */\n      mstore\n        /* \"#utility.yul\":15014:15022   */\n      0x6464726573730000000000000000000000000000000000000000000000000000\n        /* \"#utility.yul\":15009:15011   */\n      0x20\n        /* \"#utility.yul\":15001:15007   */\n      dup3\n        /* \"#utility.yul\":14997:15012   */\n      add\n        /* \"#utility.yul\":14990:15023   */\n      mstore\n        /* \"#utility.yul\":14805:15030   */\n      pop\n      jump\t// out\n        /* \"#utility.yul\":15036:15218   */\n    tag_196:\n        /* \"#utility.yul\":15176:15210   */\n      0x4f776e61626c653a2063616c6c6572206973206e6f7420746865206f776e6572\n        /* \"#utility.yul\":15172:15173   */\n      0x00\n        /* \"#utility.yul\":15164:15170   */\n      dup3\n        /* \"#utility.yul\":15160:15174   */\n      add\n        /* \"#utility.yul\":15153:15211   */\n      mstore\n        /* \"#utility.yul\":15036:15218   */\n      pop\n      jump\t// out\n        /* \"#utility.yul\":15224:15470   */\n    tag_201:\n        /* \"#utility.yul\":15364:15398   */\n      0x43726564656e7469616c2043616c6c4261636b3a204f6e6c7920746865206f72\n        /* \"#utility.yul\":15360:15361   */\n      0x00\n        /* \"#utility.yul\":15352:15358   */\n      dup3\n        /* \"#utility.yul\":15348:15362   */\n      add\n        /* \"#utility.yul\":15341:15399   */\n      mstore\n        /* \"#utility.yul\":15433:15462   */\n      0x61636c652063616e2063616c6c20746869732066756e6374696f6e0000000000\n        /* \"#utility.yul\":15428:15430   */\n      0x20\n        /* \"#utility.yul\":15420:15426   */\n      dup3\n        /* \"#utility.yul\":15416:15431   */\n      add\n        /* \"#utility.yul\":15409:15463   */\n      mstore\n        /* \"#utility.yul\":15224:15470   */\n      pop\n      jump\t// out\n        /* \"#utility.yul\":15476:15598   */\n    tag_115:\n        /* \"#utility.yul\":15549:15573   */\n      tag_272\n        /* \"#utility.yul\":15567:15572   */\n      dup2\n        /* \"#utility.yul\":15549:15573   */\n      tag_166\n      jump\t// in\n    tag_272:\n        /* \"#utility.yul\":15542:15547   */\n      dup2\n        /* \"#utility.yul\":15539:15574   */\n      eq\n        /* \"#utility.yul\":15529:15592   */\n      tag_273\n      jumpi\n        /* \"#utility.yul\":15588:15589   */\n      0x00\n        /* \"#utility.yul\":15585:15586   */\n      dup1\n        /* \"#utility.yul\":15578:15590   */\n      revert\n        /* \"#utility.yul\":15529:15592   */\n    tag_273:\n        /* \"#utility.yul\":15476:15598   */\n      pop\n      jump\t// out\n\n    auxdata: 0xa2646970667358221220a0f928de2dd7f1a6b2dc22ab97956a1f0f302220973b3528be5f2feb320cffee64736f6c63430008070033\n}\n",
				"bytecode": {
					"linkReferences": {},
					"object": "60806040523480156200001157600080fd5b506040516200109b3803806200109b8339818101604052810190620000379190620001c5565b80620000586200004c620000e260201b60201c565b620000ea60201b60201c565b80600160006101000a81548173ffffffffffffffffffffffffffffffffffffffff021916908373ffffffffffffffffffffffffffffffffffffffff16021790555080600260006101000a81548173ffffffffffffffffffffffffffffffffffffffff021916908373ffffffffffffffffffffffffffffffffffffffff16021790555050506200025e565b600033905090565b60008060009054906101000a900473ffffffffffffffffffffffffffffffffffffffff169050816000806101000a81548173ffffffffffffffffffffffffffffffffffffffff021916908373ffffffffffffffffffffffffffffffffffffffff1602179055508173ffffffffffffffffffffffffffffffffffffffff168173ffffffffffffffffffffffffffffffffffffffff167f8be0079c531659141344cd1fd0a4f28419497f9722a3daafe3b4186f6b6457e060405160405180910390a35050565b600081519050620001bf8162000244565b92915050565b600060208284031215620001de57620001dd6200023f565b5b6000620001ee84828501620001ae565b91505092915050565b600062000204826200021f565b9050919050565b60006200021882620001f7565b9050919050565b600073ffffffffffffffffffffffffffffffffffffffff82169050919050565b600080fd5b6200024f816200020b565b81146200025b57600080fd5b50565b610e2d806200026e6000396000f3fe608060405234801561001057600080fd5b506004361061007d5760003560e01c80638da5cb5b1161005b5780638da5cb5b146100c6578063dce8a955146100e4578063f2fde38b14610100578063f37d9ecd1461011c5761007d565b8063436e99f3146100825780635f7690b31461009e578063715018a6146100bc575b600080fd5b61009c600480360381019061009791906107b0565b610138565b005b6100a66101cb565b6040516100b39190610a20565b60405180910390f35b6100c46101f1565b005b6100ce610279565b6040516100db9190610a05565b60405180910390f35b6100fe60048036038101906100f991906107f9565b6102a2565b005b61011a60048036038101906101159190610783565b610336565b005b61013660048036038101906101319190610871565b61042e565b005b600160009054906101000a900473ffffffffffffffffffffffffffffffffffffffff1673ffffffffffffffffffffffffffffffffffffffff163373ffffffffffffffffffffffffffffffffffffffff16146101c8576040517f08c379a00000000000000000000000000000000000000000000000000000000081526004016101bf90610ae5565b60405180910390fd5b50565b600260009054906101000a900473ffffffffffffffffffffffffffffffffffffffff1681565b6101f9610506565b73ffffffffffffffffffffffffffffffffffffffff16610217610279565b73ffffffffffffffffffffffffffffffffffffffff161461026d576040517f08c379a000000000000000000000000000000000000000000000000000000000815260040161026490610ac5565b60405180910390fd5b610277600061050e565b565b60008060009054906101000a900473ffffffffffffffffffffffffffffffffffffffff16905090565b600160009054906101000a900473ffffffffffffffffffffffffffffffffffffffff1673ffffffffffffffffffffffffffffffffffffffff163373ffffffffffffffffffffffffffffffffffffffff1614610332576040517f08c379a000000000000000000000000000000000000000000000000000000000815260040161032990610ae5565b60405180910390fd5b5050565b61033e610506565b73ffffffffffffffffffffffffffffffffffffffff1661035c610279565b73ffffffffffffffffffffffffffffffffffffffff16146103b2576040517f08c379a00000000000000000000000000000000000000000000000000000000081526004016103a990610ac5565b60405180910390fd5b600073ffffffffffffffffffffffffffffffffffffffff168173ffffffffffffffffffffffffffffffffffffffff161415610422576040517f08c379a000000000000000000000000000000000000000000000000000000000815260040161041990610aa5565b60405180910390fd5b61042b8161050e565b50565b81306040518060400160405280600881526020017f706f737456696265000000000000000000000000000000000000000000000000815250600260009054906101000a900473ffffffffffffffffffffffffffffffffffffffff1673ffffffffffffffffffffffffffffffffffffffff1663a78d2ba3843385856000366040518763ffffffff1660e01b81526004016104cc96959493929190610a3b565b600060405180830381600087803b1580156104e657600080fd5b505af11580156104fa573d6000803e3d6000fd5b50505050505050505050565b600033905090565b60008060009054906101000a900473ffffffffffffffffffffffffffffffffffffffff169050816000806101000a81548173ffffffffffffffffffffffffffffffffffffffff021916908373ffffffffffffffffffffffffffffffffffffffff1602179055508173ffffffffffffffffffffffffffffffffffffffff168173ffffffffffffffffffffffffffffffffffffffff167f8be0079c531659141344cd1fd0a4f28419497f9722a3daafe3b4186f6b6457e060405160405180910390a35050565b60006105e56105e084610b2a565b610b05565b9050808382526020820190508285602086028201111561060857610607610cf4565b5b60005b8581101561065657813567ffffffffffffffff81111561062e5761062d610cef565b5b80860161063b8982610727565b8552602085019450602084019350505060018101905061060b565b5050509392505050565b600061067361066e84610b56565b610b05565b90508281526020810184848401111561068f5761068e610cf9565b5b61069a848285610c4d565b509392505050565b60006106b56106b084610b87565b610b05565b9050828152602081018484840111156106d1576106d0610cf9565b5b6106dc848285610c4d565b509392505050565b6000813590506106f381610de0565b92915050565b600082601f83011261070e5761070d610cef565b5b813561071e8482602086016105d2565b91505092915050565b600082601f83011261073c5761073b610cef565b5b813561074c848260208601610660565b91505092915050565b600082601f83011261076a57610769610cef565b5b813561077a8482602086016106a2565b91505092915050565b60006020828403121561079957610798610d03565b5b60006107a7848285016106e4565b91505092915050565b6000602082840312156107c6576107c5610d03565b5b600082013567ffffffffffffffff8111156107e4576107e3610cfe565b5b6107f084828501610755565b91505092915050565b600080604083850312156108105761080f610d03565b5b600083013567ffffffffffffffff81111561082e5761082d610cfe565b5b61083a85828601610755565b925050602083013567ffffffffffffffff81111561085b5761085a610cfe565b5b610867858286016106f9565b9150509250929050565b60008060006060848603121561088a57610889610d03565b5b600084013567ffffffffffffffff8111156108a8576108a7610cfe565b5b6108b486828701610755565b935050602084013567ffffffffffffffff8111156108d5576108d4610cfe565b5b6108e186828701610755565b925050604084013567ffffffffffffffff81111561090257610901610cfe565b5b61090e86828701610755565b9150509250925092565b61092181610be5565b82525050565b60006109338385610bc3565b9350610940838584610c4d565b61094983610d08565b840190509392505050565b61095d81610c17565b82525050565b600061096e82610bb8565b6109788185610bd4565b9350610988818560208601610c5c565b61099181610d08565b840191505092915050565b60006109a9602683610bd4565b91506109b482610d19565b604082019050919050565b60006109cc602083610bd4565b91506109d782610d68565b602082019050919050565b60006109ef603b83610bd4565b91506109fa82610d91565b604082019050919050565b6000602082019050610a1a6000830184610918565b92915050565b6000602082019050610a356000830184610954565b92915050565b600060a0820190508181036000830152610a558189610963565b9050610a646020830188610918565b610a716040830187610918565b8181036060830152610a838186610963565b90508181036080830152610a98818486610927565b9050979650505050505050565b60006020820190508181036000830152610abe8161099c565b9050919050565b60006020820190508181036000830152610ade816109bf565b9050919050565b60006020820190508181036000830152610afe816109e2565b9050919050565b6000610b0f610b20565b9050610b1b8282610c8f565b919050565b6000604051905090565b600067ffffffffffffffff821115610b4557610b44610cc0565b5b602082029050602081019050919050565b600067ffffffffffffffff821115610b7157610b70610cc0565b5b610b7a82610d08565b9050602081019050919050565b600067ffffffffffffffff821115610ba257610ba1610cc0565b5b610bab82610d08565b9050602081019050919050565b600081519050919050565b600082825260208201905092915050565b600082825260208201905092915050565b6000610bf082610bf7565b9050919050565b600073ffffffffffffffffffffffffffffffffffffffff82169050919050565b6000610c2282610c29565b9050919050565b6000610c3482610c3b565b9050919050565b6000610c4682610bf7565b9050919050565b82818337600083830152505050565b60005b83811015610c7a578082015181840152602081019050610c5f565b83811115610c89576000848401525b50505050565b610c9882610d08565b810181811067ffffffffffffffff82111715610cb757610cb6610cc0565b5b80604052505050565b7f4e487b7100000000000000000000000000000000000000000000000000000000600052604160045260246000fd5b600080fd5b600080fd5b600080fd5b600080fd5b600080fd5b6000601f19601f8301169050919050565b7f4f776e61626c653a206e6577206f776e657220697320746865207a65726f206160008201527f6464726573730000000000000000000000000000000000000000000000000000602082015250565b7f4f776e61626c653a2063616c6c6572206973206e6f7420746865206f776e6572600082015250565b7f43726564656e7469616c2043616c6c4261636b3a204f6e6c7920746865206f7260008201527f61636c652063616e2063616c6c20746869732066756e6374696f6e0000000000602082015250565b610de981610be5565b8114610df457600080fd5b5056fea2646970667358221220a0f928de2dd7f1a6b2dc22ab97956a1f0f302220973b3528be5f2feb320cffee64736f6c63430008070033",
					"opcodes": "PUSH1 0x80 PUSH1 0x40 MSTORE CALLVALUE DUP1 ISZERO PUSH3 0x11 JUMPI PUSH1 0x0 DUP1 REVERT JUMPDEST POP PUSH1 0x40 MLOAD PUSH3 0x109B CODESIZE SUB DUP1 PUSH3 0x109B DUP4 CODECOPY DUP2 DUP2 ADD PUSH1 0x40 MSTORE DUP2 ADD SWAP1 PUSH3 0x37 SWAP2 SWAP1 PUSH3 0x1C5 JUMP JUMPDEST DUP1 PUSH3 0x58 PUSH3 0x4C PUSH3 0xE2 PUSH1 0x20 SHL PUSH1 0x20 SHR JUMP JUMPDEST PUSH3 0xEA PUSH1 0x20 SHL PUSH1 0x20 SHR JUMP JUMPDEST DUP1 PUSH1 0x1 PUSH1 0x0 PUSH2 0x100 EXP DUP2 SLOAD DUP2 PUSH20 0xFFFFFFFFFFFFFFFFFFFFFFFFFFFFFFFFFFFFFFFF MUL NOT AND SWAP1 DUP4 PUSH20 0xFFFFFFFFFFFFFFFFFFFFFFFFFFFFFFFFFFFFFFFF AND MUL OR SWAP1 SSTORE POP DUP1 PUSH1 0x2 PUSH1 0x0 PUSH2 0x100 EXP DUP2 SLOAD DUP2 PUSH20 0xFFFFFFFFFFFFFFFFFFFFFFFFFFFFFFFFFFFFFFFF MUL NOT AND SWAP1 DUP4 PUSH20 0xFFFFFFFFFFFFFFFFFFFFFFFFFFFFFFFFFFFFFFFF AND MUL OR SWAP1 SSTORE POP POP POP PUSH3 0x25E JUMP JUMPDEST PUSH1 0x0 CALLER SWAP1 POP SWAP1 JUMP JUMPDEST PUSH1 0x0 DUP1 PUSH1 0x0 SWAP1 SLOAD SWAP1 PUSH2 0x100 EXP SWAP1 DIV PUSH20 0xFFFFFFFFFFFFFFFFFFFFFFFFFFFFFFFFFFFFFFFF AND SWAP1 POP DUP2 PUSH1 0x0 DUP1 PUSH2 0x100 EXP DUP2 SLOAD DUP2 PUSH20 0xFFFFFFFFFFFFFFFFFFFFFFFFFFFFFFFFFFFFFFFF MUL NOT AND SWAP1 DUP4 PUSH20 0xFFFFFFFFFFFFFFFFFFFFFFFFFFFFFFFFFFFFFFFF AND MUL OR SWAP1 SSTORE POP DUP2 PUSH20 0xFFFFFFFFFFFFFFFFFFFFFFFFFFFFFFFFFFFFFFFF AND DUP2 PUSH20 0xFFFFFFFFFFFFFFFFFFFFFFFFFFFFFFFFFFFFFFFF AND PUSH32 0x8BE0079C531659141344CD1FD0A4F28419497F9722A3DAAFE3B4186F6B6457E0 PUSH1 0x40 MLOAD PUSH1 0x40 MLOAD DUP1 SWAP2 SUB SWAP1 LOG3 POP POP JUMP JUMPDEST PUSH1 0x0 DUP2 MLOAD SWAP1 POP PUSH3 0x1BF DUP2 PUSH3 0x244 JUMP JUMPDEST SWAP3 SWAP2 POP POP JUMP JUMPDEST PUSH1 0x0 PUSH1 0x20 DUP3 DUP5 SUB SLT ISZERO PUSH3 0x1DE JUMPI PUSH3 0x1DD PUSH3 0x23F JUMP JUMPDEST JUMPDEST PUSH1 0x0 PUSH3 0x1EE DUP5 DUP3 DUP6 ADD PUSH3 0x1AE JUMP JUMPDEST SWAP2 POP POP SWAP3 SWAP2 POP POP JUMP JUMPDEST PUSH1 0x0 PUSH3 0x204 DUP3 PUSH3 0x21F JUMP JUMPDEST SWAP1 POP SWAP2 SWAP1 POP JUMP JUMPDEST PUSH1 0x0 PUSH3 0x218 DUP3 PUSH3 0x1F7 JUMP JUMPDEST SWAP1 POP SWAP2 SWAP1 POP JUMP JUMPDEST PUSH1 0x0 PUSH20 0xFFFFFFFFFFFFFFFFFFFFFFFFFFFFFFFFFFFFFFFF DUP3 AND SWAP1 POP SWAP2 SWAP1 POP JUMP JUMPDEST PUSH1 0x0 DUP1 REVERT JUMPDEST PUSH3 0x24F DUP2 PUSH3 0x20B JUMP JUMPDEST DUP2 EQ PUSH3 0x25B JUMPI PUSH1 0x0 DUP1 REVERT JUMPDEST POP JUMP JUMPDEST PUSH2 0xE2D DUP1 PUSH3 0x26E PUSH1 0x0 CODECOPY PUSH1 0x0 RETURN INVALID PUSH1 0x80 PUSH1 0x40 MSTORE CALLVALUE DUP1 ISZERO PUSH2 0x10 JUMPI PUSH1 0x0 DUP1 REVERT JUMPDEST POP PUSH1 0x4 CALLDATASIZE LT PUSH2 0x7D JUMPI PUSH1 0x0 CALLDATALOAD PUSH1 0xE0 SHR DUP1 PUSH4 0x8DA5CB5B GT PUSH2 0x5B JUMPI DUP1 PUSH4 0x8DA5CB5B EQ PUSH2 0xC6 JUMPI DUP1 PUSH4 0xDCE8A955 EQ PUSH2 0xE4 JUMPI DUP1 PUSH4 0xF2FDE38B EQ PUSH2 0x100 JUMPI DUP1 PUSH4 0xF37D9ECD EQ PUSH2 0x11C JUMPI PUSH2 0x7D JUMP JUMPDEST DUP1 PUSH4 0x436E99F3 EQ PUSH2 0x82 JUMPI DUP1 PUSH4 0x5F7690B3 EQ PUSH2 0x9E JUMPI DUP1 PUSH4 0x715018A6 EQ PUSH2 0xBC JUMPI JUMPDEST PUSH1 0x0 DUP1 REVERT JUMPDEST PUSH2 0x9C PUSH1 0x4 DUP1 CALLDATASIZE SUB DUP2 ADD SWAP1 PUSH2 0x97 SWAP2 SWAP1 PUSH2 0x7B0 JUMP JUMPDEST PUSH2 0x138 JUMP JUMPDEST STOP JUMPDEST PUSH2 0xA6 PUSH2 0x1CB JUMP JUMPDEST PUSH1 0x40 MLOAD PUSH2 0xB3 SWAP2 SWAP1 PUSH2 0xA20 JUMP JUMPDEST PUSH1 0x40 MLOAD DUP1 SWAP2 SUB SWAP1 RETURN JUMPDEST PUSH2 0xC4 PUSH2 0x1F1 JUMP JUMPDEST STOP JUMPDEST PUSH2 0xCE PUSH2 0x279 JUMP JUMPDEST PUSH1 0x40 MLOAD PUSH2 0xDB SWAP2 SWAP1 PUSH2 0xA05 JUMP JUMPDEST PUSH1 0x40 MLOAD DUP1 SWAP2 SUB SWAP1 RETURN JUMPDEST PUSH2 0xFE PUSH1 0x4 DUP1 CALLDATASIZE SUB DUP2 ADD SWAP1 PUSH2 0xF9 SWAP2 SWAP1 PUSH2 0x7F9 JUMP JUMPDEST PUSH2 0x2A2 JUMP JUMPDEST STOP JUMPDEST PUSH2 0x11A PUSH1 0x4 DUP1 CALLDATASIZE SUB DUP2 ADD SWAP1 PUSH2 0x115 SWAP2 SWAP1 PUSH2 0x783 JUMP JUMPDEST PUSH2 0x336 JUMP JUMPDEST STOP JUMPDEST PUSH2 0x136 PUSH1 0x4 DUP1 CALLDATASIZE SUB DUP2 ADD SWAP1 PUSH2 0x131 SWAP2 SWAP1 PUSH2 0x871 JUMP JUMPDEST PUSH2 0x42E JUMP JUMPDEST STOP JUMPDEST PUSH1 0x1 PUSH1 0x0 SWAP1 SLOAD SWAP1 PUSH2 0x100 EXP SWAP1 DIV PUSH20 0xFFFFFFFFFFFFFFFFFFFFFFFFFFFFFFFFFFFFFFFF AND PUSH20 0xFFFFFFFFFFFFFFFFFFFFFFFFFFFFFFFFFFFFFFFF AND CALLER PUSH20 0xFFFFFFFFFFFFFFFFFFFFFFFFFFFFFFFFFFFFFFFF AND EQ PUSH2 0x1C8 JUMPI PUSH1 0x40 MLOAD PUSH32 0x8C379A000000000000000000000000000000000000000000000000000000000 DUP2 MSTORE PUSH1 0x4 ADD PUSH2 0x1BF SWAP1 PUSH2 0xAE5 JUMP JUMPDEST PUSH1 0x40 MLOAD DUP1 SWAP2 SUB SWAP1 REVERT JUMPDEST POP JUMP JUMPDEST PUSH1 0x2 PUSH1 0x0 SWAP1 SLOAD SWAP1 PUSH2 0x100 EXP SWAP1 DIV PUSH20 0xFFFFFFFFFFFFFFFFFFFFFFFFFFFFFFFFFFFFFFFF AND DUP2 JUMP JUMPDEST PUSH2 0x1F9 PUSH2 0x506 JUMP JUMPDEST PUSH20 0xFFFFFFFFFFFFFFFFFFFFFFFFFFFFFFFFFFFFFFFF AND PUSH2 0x217 PUSH2 0x279 JUMP JUMPDEST PUSH20 0xFFFFFFFFFFFFFFFFFFFFFFFFFFFFFFFFFFFFFFFF AND EQ PUSH2 0x26D JUMPI PUSH1 0x40 MLOAD PUSH32 0x8C379A000000000000000000000000000000000000000000000000000000000 DUP2 MSTORE PUSH1 0x4 ADD PUSH2 0x264 SWAP1 PUSH2 0xAC5 JUMP JUMPDEST PUSH1 0x40 MLOAD DUP1 SWAP2 SUB SWAP1 REVERT JUMPDEST PUSH2 0x277 PUSH1 0x0 PUSH2 0x50E JUMP JUMPDEST JUMP JUMPDEST PUSH1 0x0 DUP1 PUSH1 0x0 SWAP1 SLOAD SWAP1 PUSH2 0x100 EXP SWAP1 DIV PUSH20 0xFFFFFFFFFFFFFFFFFFFFFFFFFFFFFFFFFFFFFFFF AND SWAP1 POP SWAP1 JUMP JUMPDEST PUSH1 0x1 PUSH1 0x0 SWAP1 SLOAD SWAP1 PUSH2 0x100 EXP SWAP1 DIV PUSH20 0xFFFFFFFFFFFFFFFFFFFFFFFFFFFFFFFFFFFFFFFF AND PUSH20 0xFFFFFFFFFFFFFFFFFFFFFFFFFFFFFFFFFFFFFFFF AND CALLER PUSH20 0xFFFFFFFFFFFFFFFFFFFFFFFFFFFFFFFFFFFFFFFF AND EQ PUSH2 0x332 JUMPI PUSH1 0x40 MLOAD PUSH32 0x8C379A000000000000000000000000000000000000000000000000000000000 DUP2 MSTORE PUSH1 0x4 ADD PUSH2 0x329 SWAP1 PUSH2 0xAE5 JUMP JUMPDEST PUSH1 0x40 MLOAD DUP1 SWAP2 SUB SWAP1 REVERT JUMPDEST POP POP JUMP JUMPDEST PUSH2 0x33E PUSH2 0x506 JUMP JUMPDEST PUSH20 0xFFFFFFFFFFFFFFFFFFFFFFFFFFFFFFFFFFFFFFFF AND PUSH2 0x35C PUSH2 0x279 JUMP JUMPDEST PUSH20 0xFFFFFFFFFFFFFFFFFFFFFFFFFFFFFFFFFFFFFFFF AND EQ PUSH2 0x3B2 JUMPI PUSH1 0x40 MLOAD PUSH32 0x8C379A000000000000000000000000000000000000000000000000000000000 DUP2 MSTORE PUSH1 0x4 ADD PUSH2 0x3A9 SWAP1 PUSH2 0xAC5 JUMP JUMPDEST PUSH1 0x40 MLOAD DUP1 SWAP2 SUB SWAP1 REVERT JUMPDEST PUSH1 0x0 PUSH20 0xFFFFFFFFFFFFFFFFFFFFFFFFFFFFFFFFFFFFFFFF AND DUP2 PUSH20 0xFFFFFFFFFFFFFFFFFFFFFFFFFFFFFFFFFFFFFFFF AND EQ ISZERO PUSH2 0x422 JUMPI PUSH1 0x40 MLOAD PUSH32 0x8C379A000000000000000000000000000000000000000000000000000000000 DUP2 MSTORE PUSH1 0x4 ADD PUSH2 0x419 SWAP1 PUSH2 0xAA5 JUMP JUMPDEST PUSH1 0x40 MLOAD DUP1 SWAP2 SUB SWAP1 REVERT JUMPDEST PUSH2 0x42B DUP2 PUSH2 0x50E JUMP JUMPDEST POP JUMP JUMPDEST DUP2 ADDRESS PUSH1 0x40 MLOAD DUP1 PUSH1 0x40 ADD PUSH1 0x40 MSTORE DUP1 PUSH1 0x8 DUP2 MSTORE PUSH1 0x20 ADD PUSH32 0x706F737456696265000000000000000000000000000000000000000000000000 DUP2 MSTORE POP PUSH1 0x2 PUSH1 0x0 SWAP1 SLOAD SWAP1 PUSH2 0x100 EXP SWAP1 DIV PUSH20 0xFFFFFFFFFFFFFFFFFFFFFFFFFFFFFFFFFFFFFFFF AND PUSH20 0xFFFFFFFFFFFFFFFFFFFFFFFFFFFFFFFFFFFFFFFF AND PUSH4 0xA78D2BA3 DUP5 CALLER DUP6 DUP6 PUSH1 0x0 CALLDATASIZE PUSH1 0x40 MLOAD DUP8 PUSH4 0xFFFFFFFF AND PUSH1 0xE0 SHL DUP2 MSTORE PUSH1 0x4 ADD PUSH2 0x4CC SWAP7 SWAP6 SWAP5 SWAP4 SWAP3 SWAP2 SWAP1 PUSH2 0xA3B JUMP JUMPDEST PUSH1 0x0 PUSH1 0x40 MLOAD DUP1 DUP4 SUB DUP2 PUSH1 0x0 DUP8 DUP1 EXTCODESIZE ISZERO DUP1 ISZERO PUSH2 0x4E6 JUMPI PUSH1 0x0 DUP1 REVERT JUMPDEST POP GAS CALL ISZERO DUP1 ISZERO PUSH2 0x4FA JUMPI RETURNDATASIZE PUSH1 0x0 DUP1 RETURNDATACOPY RETURNDATASIZE PUSH1 0x0 REVERT JUMPDEST POP POP POP POP POP POP POP POP POP POP JUMP JUMPDEST PUSH1 0x0 CALLER SWAP1 POP SWAP1 JUMP JUMPDEST PUSH1 0x0 DUP1 PUSH1 0x0 SWAP1 SLOAD SWAP1 PUSH2 0x100 EXP SWAP1 DIV PUSH20 0xFFFFFFFFFFFFFFFFFFFFFFFFFFFFFFFFFFFFFFFF AND SWAP1 POP DUP2 PUSH1 0x0 DUP1 PUSH2 0x100 EXP DUP2 SLOAD DUP2 PUSH20 0xFFFFFFFFFFFFFFFFFFFFFFFFFFFFFFFFFFFFFFFF MUL NOT AND SWAP1 DUP4 PUSH20 0xFFFFFFFFFFFFFFFFFFFFFFFFFFFFFFFFFFFFFFFF AND MUL OR SWAP1 SSTORE POP DUP2 PUSH20 0xFFFFFFFFFFFFFFFFFFFFFFFFFFFFFFFFFFFFFFFF AND DUP2 PUSH20 0xFFFFFFFFFFFFFFFFFFFFFFFFFFFFFFFFFFFFFFFF AND PUSH32 0x8BE0079C531659141344CD1FD0A4F28419497F9722A3DAAFE3B4186F6B6457E0 PUSH1 0x40 MLOAD PUSH1 0x40 MLOAD DUP1 SWAP2 SUB SWAP1 LOG3 POP POP JUMP JUMPDEST PUSH1 0x0 PUSH2 0x5E5 PUSH2 0x5E0 DUP5 PUSH2 0xB2A JUMP JUMPDEST PUSH2 0xB05 JUMP JUMPDEST SWAP1 POP DUP1 DUP4 DUP3 MSTORE PUSH1 0x20 DUP3 ADD SWAP1 POP DUP3 DUP6 PUSH1 0x20 DUP7 MUL DUP3 ADD GT ISZERO PUSH2 0x608 JUMPI PUSH2 0x607 PUSH2 0xCF4 JUMP JUMPDEST JUMPDEST PUSH1 0x0 JUMPDEST DUP6 DUP2 LT ISZERO PUSH2 0x656 JUMPI DUP2 CALLDATALOAD PUSH8 0xFFFFFFFFFFFFFFFF DUP2 GT ISZERO PUSH2 0x62E JUMPI PUSH2 0x62D PUSH2 0xCEF JUMP JUMPDEST JUMPDEST DUP1 DUP7 ADD PUSH2 0x63B DUP10 DUP3 PUSH2 0x727 JUMP JUMPDEST DUP6 MSTORE PUSH1 0x20 DUP6 ADD SWAP5 POP PUSH1 0x20 DUP5 ADD SWAP4 POP POP POP PUSH1 0x1 DUP2 ADD SWAP1 POP PUSH2 0x60B JUMP JUMPDEST POP POP POP SWAP4 SWAP3 POP POP POP JUMP JUMPDEST PUSH1 0x0 PUSH2 0x673 PUSH2 0x66E DUP5 PUSH2 0xB56 JUMP JUMPDEST PUSH2 0xB05 JUMP JUMPDEST SWAP1 POP DUP3 DUP2 MSTORE PUSH1 0x20 DUP2 ADD DUP5 DUP5 DUP5 ADD GT ISZERO PUSH2 0x68F JUMPI PUSH2 0x68E PUSH2 0xCF9 JUMP JUMPDEST JUMPDEST PUSH2 0x69A DUP5 DUP3 DUP6 PUSH2 0xC4D JUMP JUMPDEST POP SWAP4 SWAP3 POP POP POP JUMP JUMPDEST PUSH1 0x0 PUSH2 0x6B5 PUSH2 0x6B0 DUP5 PUSH2 0xB87 JUMP JUMPDEST PUSH2 0xB05 JUMP JUMPDEST SWAP1 POP DUP3 DUP2 MSTORE PUSH1 0x20 DUP2 ADD DUP5 DUP5 DUP5 ADD GT ISZERO PUSH2 0x6D1 JUMPI PUSH2 0x6D0 PUSH2 0xCF9 JUMP JUMPDEST JUMPDEST PUSH2 0x6DC DUP5 DUP3 DUP6 PUSH2 0xC4D JUMP JUMPDEST POP SWAP4 SWAP3 POP POP POP JUMP JUMPDEST PUSH1 0x0 DUP2 CALLDATALOAD SWAP1 POP PUSH2 0x6F3 DUP2 PUSH2 0xDE0 JUMP JUMPDEST SWAP3 SWAP2 POP POP JUMP JUMPDEST PUSH1 0x0 DUP3 PUSH1 0x1F DUP4 ADD SLT PUSH2 0x70E JUMPI PUSH2 0x70D PUSH2 0xCEF JUMP JUMPDEST JUMPDEST DUP2 CALLDATALOAD PUSH2 0x71E DUP5 DUP3 PUSH1 0x20 DUP7 ADD PUSH2 0x5D2 JUMP JUMPDEST SWAP2 POP POP SWAP3 SWAP2 POP POP JUMP JUMPDEST PUSH1 0x0 DUP3 PUSH1 0x1F DUP4 ADD SLT PUSH2 0x73C JUMPI PUSH2 0x73B PUSH2 0xCEF JUMP JUMPDEST JUMPDEST DUP2 CALLDATALOAD PUSH2 0x74C DUP5 DUP3 PUSH1 0x20 DUP7 ADD PUSH2 0x660 JUMP JUMPDEST SWAP2 POP POP SWAP3 SWAP2 POP POP JUMP JUMPDEST PUSH1 0x0 DUP3 PUSH1 0x1F DUP4 ADD SLT PUSH2 0x76A JUMPI PUSH2 0x769 PUSH2 0xCEF JUMP JUMPDEST JUMPDEST DUP2 CALLDATALOAD PUSH2 0x77A DUP5 DUP3 PUSH1 0x20 DUP7 ADD PUSH2 0x6A2 JUMP JUMPDEST SWAP2 POP POP SWAP3 SWAP2 POP POP JUMP JUMPDEST PUSH1 0x0 PUSH1 0x20 DUP3 DUP5 SUB SLT ISZERO PUSH2 0x799 JUMPI PUSH2 0x798 PUSH2 0xD03 JUMP JUMPDEST JUMPDEST PUSH1 0x0 PUSH2 0x7A7 DUP5 DUP3 DUP6 ADD PUSH2 0x6E4 JUMP JUMPDEST SWAP2 POP POP SWAP3 SWAP2 POP POP JUMP JUMPDEST PUSH1 0x0 PUSH1 0x20 DUP3 DUP5 SUB SLT ISZERO PUSH2 0x7C6 JUMPI PUSH2 0x7C5 PUSH2 0xD03 JUMP JUMPDEST JUMPDEST PUSH1 0x0 DUP3 ADD CALLDATALOAD PUSH8 0xFFFFFFFFFFFFFFFF DUP2 GT ISZERO PUSH2 0x7E4 JUMPI PUSH2 0x7E3 PUSH2 0xCFE JUMP JUMPDEST JUMPDEST PUSH2 0x7F0 DUP5 DUP3 DUP6 ADD PUSH2 0x755 JUMP JUMPDEST SWAP2 POP POP SWAP3 SWAP2 POP POP JUMP JUMPDEST PUSH1 0x0 DUP1 PUSH1 0x40 DUP4 DUP6 SUB SLT ISZERO PUSH2 0x810 JUMPI PUSH2 0x80F PUSH2 0xD03 JUMP JUMPDEST JUMPDEST PUSH1 0x0 DUP4 ADD CALLDATALOAD PUSH8 0xFFFFFFFFFFFFFFFF DUP2 GT ISZERO PUSH2 0x82E JUMPI PUSH2 0x82D PUSH2 0xCFE JUMP JUMPDEST JUMPDEST PUSH2 0x83A DUP6 DUP3 DUP7 ADD PUSH2 0x755 JUMP JUMPDEST SWAP3 POP POP PUSH1 0x20 DUP4 ADD CALLDATALOAD PUSH8 0xFFFFFFFFFFFFFFFF DUP2 GT ISZERO PUSH2 0x85B JUMPI PUSH2 0x85A PUSH2 0xCFE JUMP JUMPDEST JUMPDEST PUSH2 0x867 DUP6 DUP3 DUP7 ADD PUSH2 0x6F9 JUMP JUMPDEST SWAP2 POP POP SWAP3 POP SWAP3 SWAP1 POP JUMP JUMPDEST PUSH1 0x0 DUP1 PUSH1 0x0 PUSH1 0x60 DUP5 DUP7 SUB SLT ISZERO PUSH2 0x88A JUMPI PUSH2 0x889 PUSH2 0xD03 JUMP JUMPDEST JUMPDEST PUSH1 0x0 DUP5 ADD CALLDATALOAD PUSH8 0xFFFFFFFFFFFFFFFF DUP2 GT ISZERO PUSH2 0x8A8 JUMPI PUSH2 0x8A7 PUSH2 0xCFE JUMP JUMPDEST JUMPDEST PUSH2 0x8B4 DUP7 DUP3 DUP8 ADD PUSH2 0x755 JUMP JUMPDEST SWAP4 POP POP PUSH1 0x20 DUP5 ADD CALLDATALOAD PUSH8 0xFFFFFFFFFFFFFFFF DUP2 GT ISZERO PUSH2 0x8D5 JUMPI PUSH2 0x8D4 PUSH2 0xCFE JUMP JUMPDEST JUMPDEST PUSH2 0x8E1 DUP7 DUP3 DUP8 ADD PUSH2 0x755 JUMP JUMPDEST SWAP3 POP POP PUSH1 0x40 DUP5 ADD CALLDATALOAD PUSH8 0xFFFFFFFFFFFFFFFF DUP2 GT ISZERO PUSH2 0x902 JUMPI PUSH2 0x901 PUSH2 0xCFE JUMP JUMPDEST JUMPDEST PUSH2 0x90E DUP7 DUP3 DUP8 ADD PUSH2 0x755 JUMP JUMPDEST SWAP2 POP POP SWAP3 POP SWAP3 POP SWAP3 JUMP JUMPDEST PUSH2 0x921 DUP2 PUSH2 0xBE5 JUMP JUMPDEST DUP3 MSTORE POP POP JUMP JUMPDEST PUSH1 0x0 PUSH2 0x933 DUP4 DUP6 PUSH2 0xBC3 JUMP JUMPDEST SWAP4 POP PUSH2 0x940 DUP4 DUP6 DUP5 PUSH2 0xC4D JUMP JUMPDEST PUSH2 0x949 DUP4 PUSH2 0xD08 JUMP JUMPDEST DUP5 ADD SWAP1 POP SWAP4 SWAP3 POP POP POP JUMP JUMPDEST PUSH2 0x95D DUP2 PUSH2 0xC17 JUMP JUMPDEST DUP3 MSTORE POP POP JUMP JUMPDEST PUSH1 0x0 PUSH2 0x96E DUP3 PUSH2 0xBB8 JUMP JUMPDEST PUSH2 0x978 DUP2 DUP6 PUSH2 0xBD4 JUMP JUMPDEST SWAP4 POP PUSH2 0x988 DUP2 DUP6 PUSH1 0x20 DUP7 ADD PUSH2 0xC5C JUMP JUMPDEST PUSH2 0x991 DUP2 PUSH2 0xD08 JUMP JUMPDEST DUP5 ADD SWAP2 POP POP SWAP3 SWAP2 POP POP JUMP JUMPDEST PUSH1 0x0 PUSH2 0x9A9 PUSH1 0x26 DUP4 PUSH2 0xBD4 JUMP JUMPDEST SWAP2 POP PUSH2 0x9B4 DUP3 PUSH2 0xD19 JUMP JUMPDEST PUSH1 0x40 DUP3 ADD SWAP1 POP SWAP2 SWAP1 POP JUMP JUMPDEST PUSH1 0x0 PUSH2 0x9CC PUSH1 0x20 DUP4 PUSH2 0xBD4 JUMP JUMPDEST SWAP2 POP PUSH2 0x9D7 DUP3 PUSH2 0xD68 JUMP JUMPDEST PUSH1 0x20 DUP3 ADD SWAP1 POP SWAP2 SWAP1 POP JUMP JUMPDEST PUSH1 0x0 PUSH2 0x9EF PUSH1 0x3B DUP4 PUSH2 0xBD4 JUMP JUMPDEST SWAP2 POP PUSH2 0x9FA DUP3 PUSH2 0xD91 JUMP JUMPDEST PUSH1 0x40 DUP3 ADD SWAP1 POP SWAP2 SWAP1 POP JUMP JUMPDEST PUSH1 0x0 PUSH1 0x20 DUP3 ADD SWAP1 POP PUSH2 0xA1A PUSH1 0x0 DUP4 ADD DUP5 PUSH2 0x918 JUMP JUMPDEST SWAP3 SWAP2 POP POP JUMP JUMPDEST PUSH1 0x0 PUSH1 0x20 DUP3 ADD SWAP1 POP PUSH2 0xA35 PUSH1 0x0 DUP4 ADD DUP5 PUSH2 0x954 JUMP JUMPDEST SWAP3 SWAP2 POP POP JUMP JUMPDEST PUSH1 0x0 PUSH1 0xA0 DUP3 ADD SWAP1 POP DUP2 DUP2 SUB PUSH1 0x0 DUP4 ADD MSTORE PUSH2 0xA55 DUP2 DUP10 PUSH2 0x963 JUMP JUMPDEST SWAP1 POP PUSH2 0xA64 PUSH1 0x20 DUP4 ADD DUP9 PUSH2 0x918 JUMP JUMPDEST PUSH2 0xA71 PUSH1 0x40 DUP4 ADD DUP8 PUSH2 0x918 JUMP JUMPDEST DUP2 DUP2 SUB PUSH1 0x60 DUP4 ADD MSTORE PUSH2 0xA83 DUP2 DUP7 PUSH2 0x963 JUMP JUMPDEST SWAP1 POP DUP2 DUP2 SUB PUSH1 0x80 DUP4 ADD MSTORE PUSH2 0xA98 DUP2 DUP5 DUP7 PUSH2 0x927 JUMP JUMPDEST SWAP1 POP SWAP8 SWAP7 POP POP POP POP POP POP POP JUMP JUMPDEST PUSH1 0x0 PUSH1 0x20 DUP3 ADD SWAP1 POP DUP2 DUP2 SUB PUSH1 0x0 DUP4 ADD MSTORE PUSH2 0xABE DUP2 PUSH2 0x99C JUMP JUMPDEST SWAP1 POP SWAP2 SWAP1 POP JUMP JUMPDEST PUSH1 0x0 PUSH1 0x20 DUP3 ADD SWAP1 POP DUP2 DUP2 SUB PUSH1 0x0 DUP4 ADD MSTORE PUSH2 0xADE DUP2 PUSH2 0x9BF JUMP JUMPDEST SWAP1 POP SWAP2 SWAP1 POP JUMP JUMPDEST PUSH1 0x0 PUSH1 0x20 DUP3 ADD SWAP1 POP DUP2 DUP2 SUB PUSH1 0x0 DUP4 ADD MSTORE PUSH2 0xAFE DUP2 PUSH2 0x9E2 JUMP JUMPDEST SWAP1 POP SWAP2 SWAP1 POP JUMP JUMPDEST PUSH1 0x0 PUSH2 0xB0F PUSH2 0xB20 JUMP JUMPDEST SWAP1 POP PUSH2 0xB1B DUP3 DUP3 PUSH2 0xC8F JUMP JUMPDEST SWAP2 SWAP1 POP JUMP JUMPDEST PUSH1 0x0 PUSH1 0x40 MLOAD SWAP1 POP SWAP1 JUMP JUMPDEST PUSH1 0x0 PUSH8 0xFFFFFFFFFFFFFFFF DUP3 GT ISZERO PUSH2 0xB45 JUMPI PUSH2 0xB44 PUSH2 0xCC0 JUMP JUMPDEST JUMPDEST PUSH1 0x20 DUP3 MUL SWAP1 POP PUSH1 0x20 DUP2 ADD SWAP1 POP SWAP2 SWAP1 POP JUMP JUMPDEST PUSH1 0x0 PUSH8 0xFFFFFFFFFFFFFFFF DUP3 GT ISZERO PUSH2 0xB71 JUMPI PUSH2 0xB70 PUSH2 0xCC0 JUMP JUMPDEST JUMPDEST PUSH2 0xB7A DUP3 PUSH2 0xD08 JUMP JUMPDEST SWAP1 POP PUSH1 0x20 DUP2 ADD SWAP1 POP SWAP2 SWAP1 POP JUMP JUMPDEST PUSH1 0x0 PUSH8 0xFFFFFFFFFFFFFFFF DUP3 GT ISZERO PUSH2 0xBA2 JUMPI PUSH2 0xBA1 PUSH2 0xCC0 JUMP JUMPDEST JUMPDEST PUSH2 0xBAB DUP3 PUSH2 0xD08 JUMP JUMPDEST SWAP1 POP PUSH1 0x20 DUP2 ADD SWAP1 POP SWAP2 SWAP1 POP JUMP JUMPDEST PUSH1 0x0 DUP2 MLOAD SWAP1 POP SWAP2 SWAP1 POP JUMP JUMPDEST PUSH1 0x0 DUP3 DUP3 MSTORE PUSH1 0x20 DUP3 ADD SWAP1 POP SWAP3 SWAP2 POP POP JUMP JUMPDEST PUSH1 0x0 DUP3 DUP3 MSTORE PUSH1 0x20 DUP3 ADD SWAP1 POP SWAP3 SWAP2 POP POP JUMP JUMPDEST PUSH1 0x0 PUSH2 0xBF0 DUP3 PUSH2 0xBF7 JUMP JUMPDEST SWAP1 POP SWAP2 SWAP1 POP JUMP JUMPDEST PUSH1 0x0 PUSH20 0xFFFFFFFFFFFFFFFFFFFFFFFFFFFFFFFFFFFFFFFF DUP3 AND SWAP1 POP SWAP2 SWAP1 POP JUMP JUMPDEST PUSH1 0x0 PUSH2 0xC22 DUP3 PUSH2 0xC29 JUMP JUMPDEST SWAP1 POP SWAP2 SWAP1 POP JUMP JUMPDEST PUSH1 0x0 PUSH2 0xC34 DUP3 PUSH2 0xC3B JUMP JUMPDEST SWAP1 POP SWAP2 SWAP1 POP JUMP JUMPDEST PUSH1 0x0 PUSH2 0xC46 DUP3 PUSH2 0xBF7 JUMP JUMPDEST SWAP1 POP SWAP2 SWAP1 POP JUMP JUMPDEST DUP3 DUP2 DUP4 CALLDATACOPY PUSH1 0x0 DUP4 DUP4 ADD MSTORE POP POP POP JUMP JUMPDEST PUSH1 0x0 JUMPDEST DUP4 DUP2 LT ISZERO PUSH2 0xC7A JUMPI DUP1 DUP3 ADD MLOAD DUP2 DUP5 ADD MSTORE PUSH1 0x20 DUP2 ADD SWAP1 POP PUSH2 0xC5F JUMP JUMPDEST DUP4 DUP2 GT ISZERO PUSH2 0xC89 JUMPI PUSH1 0x0 DUP5 DUP5 ADD MSTORE JUMPDEST POP POP POP POP JUMP JUMPDEST PUSH2 0xC98 DUP3 PUSH2 0xD08 JUMP JUMPDEST DUP2 ADD DUP2 DUP2 LT PUSH8 0xFFFFFFFFFFFFFFFF DUP3 GT OR ISZERO PUSH2 0xCB7 JUMPI PUSH2 0xCB6 PUSH2 0xCC0 JUMP JUMPDEST JUMPDEST DUP1 PUSH1 0x40 MSTORE POP POP POP JUMP JUMPDEST PUSH32 0x4E487B7100000000000000000000000000000000000000000000000000000000 PUSH1 0x0 MSTORE PUSH1 0x41 PUSH1 0x4 MSTORE PUSH1 0x24 PUSH1 0x0 REVERT JUMPDEST PUSH1 0x0 DUP1 REVERT JUMPDEST PUSH1 0x0 DUP1 REVERT JUMPDEST PUSH1 0x0 DUP1 REVERT JUMPDEST PUSH1 0x0 DUP1 REVERT JUMPDEST PUSH1 0x0 DUP1 REVERT JUMPDEST PUSH1 0x0 PUSH1 0x1F NOT PUSH1 0x1F DUP4 ADD AND SWAP1 POP SWAP2 SWAP1 POP JUMP JUMPDEST PUSH32 0x4F776E61626C653A206E6577206F776E657220697320746865207A65726F2061 PUSH1 0x0 DUP3 ADD MSTORE PUSH32 0x6464726573730000000000000000000000000000000000000000000000000000 PUSH1 0x20 DUP3 ADD MSTORE POP JUMP JUMPDEST PUSH32 0x4F776E61626C653A2063616C6C6572206973206E6F7420746865206F776E6572 PUSH1 0x0 DUP3 ADD MSTORE POP JUMP JUMPDEST PUSH32 0x43726564656E7469616C2043616C6C4261636B3A204F6E6C7920746865206F72 PUSH1 0x0 DUP3 ADD MSTORE PUSH32 0x61636C652063616E2063616C6C20746869732066756E6374696F6E0000000000 PUSH1 0x20 DUP3 ADD MSTORE POP JUMP JUMPDEST PUSH2 0xDE9 DUP2 PUSH2 0xBE5 JUMP JUMPDEST DUP2 EQ PUSH2 0xDF4 JUMPI PUSH1 0x0 DUP1 REVERT JUMPDEST POP JUMP INVALID LOG2 PUSH5 0x6970667358 0x22 SLT KECCAK256 LOG0 0xF9 0x28 0xDE 0x2D 0xD7 CALL 0xA6 0xB2 0xDC 0x22 0xAB SWAP8 SWAP6 PUSH11 0x1F0F302220973B3528BE5F 0x2F 0xEB ORIGIN 0xC SELFDESTRUCT 0xEE PUSH5 0x736F6C6343 STOP ADDMOD SMOD STOP CALLER "
				},
				"gasEstimates": {
					"creation": {
						"codeDepositCost": "725800",
						"executionCost": "infinite",
						"totalCost": "infinite"
					},
					"external": {
						"CREDENTIAL_EVENT()": "2623",
						"owner()": "2522",
						"postVibe(string,string,string)": "infinite",
						"postVibe_authorised(string,bytes[])": "infinite",
						"postVibe_unauthorised(string)": "infinite",
						"renounceOwnership()": "30419",
						"transferOwnership(address)": "30767"
					}
				},
				"methodIdentifiers": {
					"CREDENTIAL_EVENT()": "5f7690b3",
					"owner()": "8da5cb5b",
					"postVibe(string,string,string)": "f37d9ecd",
					"postVibe_authorised(string,bytes[])": "dce8a955",
					"postVibe_unauthorised(string)": "436e99f3",
					"renounceOwnership()": "715018a6",
					"transferOwnership(address)": "f2fde38b"
				}
			},
			"storageLayout": {
				"storage": [
					{
						"astId": 7,
						"contract": "facets/CommunicationFacet.sol:CommunicationFacet",
						"label": "_owner",
						"offset": 0,
						"slot": "0",
						"type": "t_address"
					},
					{
						"astId": 224,
						"contract": "facets/CommunicationFacet.sol:CommunicationFacet",
						"label": "CREDENTIAL_ORACLE",
						"offset": 0,
						"slot": "1",
						"type": "t_address"
					},
					{
						"astId": 227,
						"contract": "facets/CommunicationFacet.sol:CommunicationFacet",
						"label": "CREDENTIAL_EVENT",
						"offset": 0,
						"slot": "2",
						"type": "t_contract(CredentialEventFacet)219"
					}
				],
				"types": {
					"t_address": {
						"encoding": "inplace",
						"label": "address",
						"numberOfBytes": "20"
					},
					"t_contract(CredentialEventFacet)219": {
						"encoding": "inplace",
						"label": "contract CredentialEventFacet",
						"numberOfBytes": "20"
					}
				}
			},
			"userdoc": {
				"kind": "user",
				"methods": {},
				"version": 1
			}
		}
	}
}