{
	"facets/CredentialEventFacet.sol": {
		"CredentialEventFacet": {
			"abi": [
				{
					"anonymous": false,
					"inputs": [
						{
							"indexed": false,
							"internalType": "string",
							"name": "list_id",
							"type": "string"
						},
						{
							"indexed": false,
							"internalType": "address",
							"name": "original_msg_sender",
							"type": "address"
						},
						{
							"indexed": false,
							"internalType": "address",
							"name": "contractAddr",
							"type": "address"
						},
						{
							"indexed": false,
							"internalType": "string",
							"name": "funcName",
							"type": "string"
						},
						{
							"indexed": false,
							"internalType": "bytes",
							"name": "original_msg_data",
							"type": "bytes"
						}
					],
					"name": "RequestCredentialsCallback",
					"type": "event"
				},
				{
					"inputs": [
						{
							"internalType": "string",
							"name": "_list_id",
							"type": "string"
						},
						{
							"internalType": "address",
							"name": "_sender",
							"type": "address"
						},
						{
							"internalType": "address",
							"name": "_contractAddr",
							"type": "address"
						},
						{
							"internalType": "string",
							"name": "_funcName",
							"type": "string"
						},
						{
							"internalType": "bytes",
							"name": "_data",
							"type": "bytes"
						}
					],
					"name": "emitEvent",
					"outputs": [],
					"stateMutability": "nonpayable",
					"type": "function"
				}
			],
			"devdoc": {
				"kind": "dev",
				"methods": {},
				"version": 1
			},
			"evm": {
				"assembly": "    /* \"facets/CredentialEventFacet.sol\":57:849  contract CredentialEventFacet {... */\n  mstore(0x40, 0x80)\n  callvalue\n  dup1\n  iszero\n  tag_1\n  jumpi\n  0x00\n  dup1\n  revert\ntag_1:\n  pop\n  dataSize(sub_0)\n  dup1\n  dataOffset(sub_0)\n  0x00\n  codecopy\n  0x00\n  return\nstop\n\nsub_0: assembly {\n        /* \"facets/CredentialEventFacet.sol\":57:849  contract CredentialEventFacet {... */\n      mstore(0x40, 0x80)\n      callvalue\n      dup1\n      iszero\n      tag_1\n      jumpi\n      0x00\n      dup1\n      revert\n    tag_1:\n      pop\n      jumpi(tag_2, lt(calldatasize, 0x04))\n      shr(0xe0, calldataload(0x00))\n      dup1\n      0xa78d2ba3\n      eq\n      tag_3\n      jumpi\n    tag_2:\n      0x00\n      dup1\n      revert\n        /* \"facets/CredentialEventFacet.sol\":239:846  function emitEvent(string memory _list_id, address _sender, address _contractAddr, string memory _funcName, bytes calldata _data) public {... */\n    tag_3:\n      tag_4\n      0x04\n      dup1\n      calldatasize\n      sub\n      dup2\n      add\n      swap1\n      tag_5\n      swap2\n      swap1\n      tag_6\n      jump\t// in\n    tag_5:\n      tag_7\n      jump\t// in\n    tag_4:\n      stop\n    tag_7:\n        /* \"facets/CredentialEventFacet.sol\":762:841  RequestCredentialsCallback(_list_id, _sender, _contractAddr, _funcName,  _data) */\n      0x37c3fbf03a160c29acc48ad2883e3c46f0041d8d41057b519658a7135a2afbf7\n        /* \"facets/CredentialEventFacet.sol\":789:797  _list_id */\n      dup7\n        /* \"facets/CredentialEventFacet.sol\":799:806  _sender */\n      dup7\n        /* \"facets/CredentialEventFacet.sol\":808:821  _contractAddr */\n      dup7\n        /* \"facets/CredentialEventFacet.sol\":823:832  _funcName */\n      dup7\n        /* \"facets/CredentialEventFacet.sol\":835:840  _data */\n      dup7\n      dup7\n        /* \"facets/CredentialEventFacet.sol\":762:841  RequestCredentialsCallback(_list_id, _sender, _contractAddr, _funcName,  _data) */\n      mload(0x40)\n      tag_9\n      swap7\n      swap6\n      swap5\n      swap4\n      swap3\n      swap2\n      swap1\n      tag_10\n      jump\t// in\n    tag_9:\n      mload(0x40)\n      dup1\n      swap2\n      sub\n      swap1\n      log1\n        /* \"facets/CredentialEventFacet.sol\":239:846  function emitEvent(string memory _list_id, address _sender, address _contractAddr, string memory _funcName, bytes calldata _data) public {... */\n      pop\n      pop\n      pop\n      pop\n      pop\n      pop\n      jump\t// out\n        /* \"#utility.yul\":7:419   */\n    tag_12:\n        /* \"#utility.yul\":85:90   */\n      0x00\n        /* \"#utility.yul\":110:176   */\n      tag_14\n        /* \"#utility.yul\":126:175   */\n      tag_15\n        /* \"#utility.yul\":168:174   */\n      dup5\n        /* \"#utility.yul\":126:175   */\n      tag_16\n      jump\t// in\n    tag_15:\n        /* \"#utility.yul\":110:176   */\n      tag_17\n      jump\t// in\n    tag_14:\n        /* \"#utility.yul\":101:176   */\n      swap1\n      pop\n        /* \"#utility.yul\":199:205   */\n      dup3\n        /* \"#utility.yul\":192:197   */\n      dup2\n        /* \"#utility.yul\":185:206   */\n      mstore\n        /* \"#utility.yul\":237:241   */\n      0x20\n        /* \"#utility.yul\":230:235   */\n      dup2\n        /* \"#utility.yul\":226:242   */\n      add\n        /* \"#utility.yul\":275:278   */\n      dup5\n        /* \"#utility.yul\":266:272   */\n      dup5\n        /* \"#utility.yul\":261:264   */\n      dup5\n        /* \"#utility.yul\":257:273   */\n      add\n        /* \"#utility.yul\":254:279   */\n      gt\n        /* \"#utility.yul\":251:363   */\n      iszero\n      tag_18\n      jumpi\n        /* \"#utility.yul\":282:361   */\n      tag_19\n      tag_20\n      jump\t// in\n    tag_19:\n        /* \"#utility.yul\":251:363   */\n    tag_18:\n        /* \"#utility.yul\":372:413   */\n      tag_21\n        /* \"#utility.yul\":406:412   */\n      dup5\n        /* \"#utility.yul\":401:404   */\n      dup3\n        /* \"#utility.yul\":396:399   */\n      dup6\n        /* \"#utility.yul\":372:413   */\n      tag_22\n      jump\t// in\n    tag_21:\n        /* \"#utility.yul\":91:419   */\n      pop\n        /* \"#utility.yul\":7:419   */\n      swap4\n      swap3\n      pop\n      pop\n      pop\n      jump\t// out\n        /* \"#utility.yul\":425:564   */\n    tag_23:\n        /* \"#utility.yul\":471:476   */\n      0x00\n        /* \"#utility.yul\":509:515   */\n      dup2\n        /* \"#utility.yul\":496:516   */\n      calldataload\n        /* \"#utility.yul\":487:516   */\n      swap1\n      pop\n        /* \"#utility.yul\":525:558   */\n      tag_25\n        /* \"#utility.yul\":552:557   */\n      dup2\n        /* \"#utility.yul\":525:558   */\n      tag_26\n      jump\t// in\n    tag_25:\n        /* \"#utility.yul\":425:564   */\n      swap3\n      swap2\n      pop\n      pop\n      jump\t// out\n        /* \"#utility.yul\":583:1135   */\n    tag_27:\n        /* \"#utility.yul\":640:648   */\n      0x00\n        /* \"#utility.yul\":650:656   */\n      dup1\n        /* \"#utility.yul\":700:703   */\n      dup4\n        /* \"#utility.yul\":693:697   */\n      0x1f\n        /* \"#utility.yul\":685:691   */\n      dup5\n        /* \"#utility.yul\":681:698   */\n      add\n        /* \"#utility.yul\":677:704   */\n      slt\n        /* \"#utility.yul\":667:789   */\n      tag_29\n      jumpi\n        /* \"#utility.yul\":708:787   */\n      tag_30\n      tag_31\n      jump\t// in\n    tag_30:\n        /* \"#utility.yul\":667:789   */\n    tag_29:\n        /* \"#utility.yul\":821:827   */\n      dup3\n        /* \"#utility.yul\":808:828   */\n      calldataload\n        /* \"#utility.yul\":798:828   */\n      swap1\n      pop\n        /* \"#utility.yul\":851:869   */\n      0xffffffffffffffff\n        /* \"#utility.yul\":843:849   */\n      dup2\n        /* \"#utility.yul\":840:870   */\n      gt\n        /* \"#utility.yul\":837:954   */\n      iszero\n      tag_32\n      jumpi\n        /* \"#utility.yul\":873:952   */\n      tag_33\n      tag_34\n      jump\t// in\n    tag_33:\n        /* \"#utility.yul\":837:954   */\n    tag_32:\n        /* \"#utility.yul\":987:991   */\n      0x20\n        /* \"#utility.yul\":979:985   */\n      dup4\n        /* \"#utility.yul\":975:992   */\n      add\n        /* \"#utility.yul\":963:992   */\n      swap2\n      pop\n        /* \"#utility.yul\":1041:1044   */\n      dup4\n        /* \"#utility.yul\":1033:1037   */\n      0x01\n        /* \"#utility.yul\":1025:1031   */\n      dup3\n        /* \"#utility.yul\":1021:1038   */\n      mul\n        /* \"#utility.yul\":1011:1019   */\n      dup4\n        /* \"#utility.yul\":1007:1039   */\n      add\n        /* \"#utility.yul\":1004:1045   */\n      gt\n        /* \"#utility.yul\":1001:1129   */\n      iszero\n      tag_35\n      jumpi\n        /* \"#utility.yul\":1048:1127   */\n      tag_36\n      tag_37\n      jump\t// in\n    tag_36:\n        /* \"#utility.yul\":1001:1129   */\n    tag_35:\n        /* \"#utility.yul\":583:1135   */\n      swap3\n      pop\n      swap3\n      swap1\n      pop\n      jump\t// out\n        /* \"#utility.yul\":1155:1495   */\n    tag_38:\n        /* \"#utility.yul\":1211:1216   */\n      0x00\n        /* \"#utility.yul\":1260:1263   */\n      dup3\n        /* \"#utility.yul\":1253:1257   */\n      0x1f\n        /* \"#utility.yul\":1245:1251   */\n      dup4\n        /* \"#utility.yul\":1241:1258   */\n      add\n        /* \"#utility.yul\":1237:1264   */\n      slt\n        /* \"#utility.yul\":1227:1349   */\n      tag_40\n      jumpi\n        /* \"#utility.yul\":1268:1347   */\n      tag_41\n      tag_31\n      jump\t// in\n    tag_41:\n        /* \"#utility.yul\":1227:1349   */\n    tag_40:\n        /* \"#utility.yul\":1385:1391   */\n      dup2\n        /* \"#utility.yul\":1372:1392   */\n      calldataload\n        /* \"#utility.yul\":1410:1489   */\n      tag_42\n        /* \"#utility.yul\":1485:1488   */\n      dup5\n        /* \"#utility.yul\":1477:1483   */\n      dup3\n        /* \"#utility.yul\":1470:1474   */\n      0x20\n        /* \"#utility.yul\":1462:1468   */\n      dup7\n        /* \"#utility.yul\":1458:1475   */\n      add\n        /* \"#utility.yul\":1410:1489   */\n      tag_12\n      jump\t// in\n    tag_42:\n        /* \"#utility.yul\":1401:1489   */\n      swap2\n      pop\n        /* \"#utility.yul\":1217:1495   */\n      pop\n        /* \"#utility.yul\":1155:1495   */\n      swap3\n      swap2\n      pop\n      pop\n      jump\t// out\n        /* \"#utility.yul\":1501:2970   */\n    tag_6:\n        /* \"#utility.yul\":1627:1633   */\n      0x00\n        /* \"#utility.yul\":1635:1641   */\n      dup1\n        /* \"#utility.yul\":1643:1649   */\n      0x00\n        /* \"#utility.yul\":1651:1657   */\n      dup1\n        /* \"#utility.yul\":1659:1665   */\n      0x00\n        /* \"#utility.yul\":1667:1673   */\n      dup1\n        /* \"#utility.yul\":1716:1719   */\n      0xa0\n        /* \"#utility.yul\":1704:1713   */\n      dup8\n        /* \"#utility.yul\":1695:1702   */\n      dup10\n        /* \"#utility.yul\":1691:1714   */\n      sub\n        /* \"#utility.yul\":1687:1720   */\n      slt\n        /* \"#utility.yul\":1684:1804   */\n      iszero\n      tag_44\n      jumpi\n        /* \"#utility.yul\":1723:1802   */\n      tag_45\n      tag_46\n      jump\t// in\n    tag_45:\n        /* \"#utility.yul\":1684:1804   */\n    tag_44:\n        /* \"#utility.yul\":1871:1872   */\n      0x00\n        /* \"#utility.yul\":1860:1869   */\n      dup8\n        /* \"#utility.yul\":1856:1873   */\n      add\n        /* \"#utility.yul\":1843:1874   */\n      calldataload\n        /* \"#utility.yul\":1901:1919   */\n      0xffffffffffffffff\n        /* \"#utility.yul\":1893:1899   */\n      dup2\n        /* \"#utility.yul\":1890:1920   */\n      gt\n        /* \"#utility.yul\":1887:2004   */\n      iszero\n      tag_47\n      jumpi\n        /* \"#utility.yul\":1923:2002   */\n      tag_48\n      tag_49\n      jump\t// in\n    tag_48:\n        /* \"#utility.yul\":1887:2004   */\n    tag_47:\n        /* \"#utility.yul\":2028:2091   */\n      tag_50\n        /* \"#utility.yul\":2083:2090   */\n      dup10\n        /* \"#utility.yul\":2074:2080   */\n      dup3\n        /* \"#utility.yul\":2063:2072   */\n      dup11\n        /* \"#utility.yul\":2059:2081   */\n      add\n        /* \"#utility.yul\":2028:2091   */\n      tag_38\n      jump\t// in\n    tag_50:\n        /* \"#utility.yul\":2018:2091   */\n      swap7\n      pop\n        /* \"#utility.yul\":1814:2101   */\n      pop\n        /* \"#utility.yul\":2140:2142   */\n      0x20\n        /* \"#utility.yul\":2166:2219   */\n      tag_51\n        /* \"#utility.yul\":2211:2218   */\n      dup10\n        /* \"#utility.yul\":2202:2208   */\n      dup3\n        /* \"#utility.yul\":2191:2200   */\n      dup11\n        /* \"#utility.yul\":2187:2209   */\n      add\n        /* \"#utility.yul\":2166:2219   */\n      tag_23\n      jump\t// in\n    tag_51:\n        /* \"#utility.yul\":2156:2219   */\n      swap6\n      pop\n        /* \"#utility.yul\":2111:2229   */\n      pop\n        /* \"#utility.yul\":2268:2270   */\n      0x40\n        /* \"#utility.yul\":2294:2347   */\n      tag_52\n        /* \"#utility.yul\":2339:2346   */\n      dup10\n        /* \"#utility.yul\":2330:2336   */\n      dup3\n        /* \"#utility.yul\":2319:2328   */\n      dup11\n        /* \"#utility.yul\":2315:2337   */\n      add\n        /* \"#utility.yul\":2294:2347   */\n      tag_23\n      jump\t// in\n    tag_52:\n        /* \"#utility.yul\":2284:2347   */\n      swap5\n      pop\n        /* \"#utility.yul\":2239:2357   */\n      pop\n        /* \"#utility.yul\":2424:2426   */\n      0x60\n        /* \"#utility.yul\":2413:2422   */\n      dup8\n        /* \"#utility.yul\":2409:2427   */\n      add\n        /* \"#utility.yul\":2396:2428   */\n      calldataload\n        /* \"#utility.yul\":2455:2473   */\n      0xffffffffffffffff\n        /* \"#utility.yul\":2447:2453   */\n      dup2\n        /* \"#utility.yul\":2444:2474   */\n      gt\n        /* \"#utility.yul\":2441:2558   */\n      iszero\n      tag_53\n      jumpi\n        /* \"#utility.yul\":2477:2556   */\n      tag_54\n      tag_49\n      jump\t// in\n    tag_54:\n        /* \"#utility.yul\":2441:2558   */\n    tag_53:\n        /* \"#utility.yul\":2582:2645   */\n      tag_55\n        /* \"#utility.yul\":2637:2644   */\n      dup10\n        /* \"#utility.yul\":2628:2634   */\n      dup3\n        /* \"#utility.yul\":2617:2626   */\n      dup11\n        /* \"#utility.yul\":2613:2635   */\n      add\n        /* \"#utility.yul\":2582:2645   */\n      tag_38\n      jump\t// in\n    tag_55:\n        /* \"#utility.yul\":2572:2645   */\n      swap4\n      pop\n        /* \"#utility.yul\":2367:2655   */\n      pop\n        /* \"#utility.yul\":2722:2725   */\n      0x80\n        /* \"#utility.yul\":2711:2720   */\n      dup8\n        /* \"#utility.yul\":2707:2726   */\n      add\n        /* \"#utility.yul\":2694:2727   */\n      calldataload\n        /* \"#utility.yul\":2754:2772   */\n      0xffffffffffffffff\n        /* \"#utility.yul\":2746:2752   */\n      dup2\n        /* \"#utility.yul\":2743:2773   */\n      gt\n        /* \"#utility.yul\":2740:2857   */\n      iszero\n      tag_56\n      jumpi\n        /* \"#utility.yul\":2776:2855   */\n      tag_57\n      tag_49\n      jump\t// in\n    tag_57:\n        /* \"#utility.yul\":2740:2857   */\n    tag_56:\n        /* \"#utility.yul\":2889:2953   */\n      tag_58\n        /* \"#utility.yul\":2945:2952   */\n      dup10\n        /* \"#utility.yul\":2936:2942   */\n      dup3\n        /* \"#utility.yul\":2925:2934   */\n      dup11\n        /* \"#utility.yul\":2921:2943   */\n      add\n        /* \"#utility.yul\":2889:2953   */\n      tag_27\n      jump\t// in\n    tag_58:\n        /* \"#utility.yul\":2871:2953   */\n      swap3\n      pop\n      swap3\n      pop\n        /* \"#utility.yul\":2665:2963   */\n      pop\n        /* \"#utility.yul\":1501:2970   */\n      swap3\n      swap6\n      pop\n      swap3\n      swap6\n      pop\n      swap3\n      swap6\n      jump\t// out\n        /* \"#utility.yul\":2976:3094   */\n    tag_59:\n        /* \"#utility.yul\":3063:3087   */\n      tag_61\n        /* \"#utility.yul\":3081:3086   */\n      dup2\n        /* \"#utility.yul\":3063:3087   */\n      tag_62\n      jump\t// in\n    tag_61:\n        /* \"#utility.yul\":3058:3061   */\n      dup3\n        /* \"#utility.yul\":3051:3088   */\n      mstore\n        /* \"#utility.yul\":2976:3094   */\n      pop\n      pop\n      jump\t// out\n        /* \"#utility.yul\":3122:3423   */\n    tag_63:\n        /* \"#utility.yul\":3218:3221   */\n      0x00\n        /* \"#utility.yul\":3239:3309   */\n      tag_65\n        /* \"#utility.yul\":3302:3308   */\n      dup4\n        /* \"#utility.yul\":3297:3300   */\n      dup6\n        /* \"#utility.yul\":3239:3309   */\n      tag_66\n      jump\t// in\n    tag_65:\n        /* \"#utility.yul\":3232:3309   */\n      swap4\n      pop\n        /* \"#utility.yul\":3319:3362   */\n      tag_67\n        /* \"#utility.yul\":3355:3361   */\n      dup4\n        /* \"#utility.yul\":3350:3353   */\n      dup6\n        /* \"#utility.yul\":3343:3348   */\n      dup5\n        /* \"#utility.yul\":3319:3362   */\n      tag_22\n      jump\t// in\n    tag_67:\n        /* \"#utility.yul\":3387:3416   */\n      tag_68\n        /* \"#utility.yul\":3409:3415   */\n      dup4\n        /* \"#utility.yul\":3387:3416   */\n      tag_69\n      jump\t// in\n    tag_68:\n        /* \"#utility.yul\":3382:3385   */\n      dup5\n        /* \"#utility.yul\":3378:3417   */\n      add\n        /* \"#utility.yul\":3371:3417   */\n      swap1\n      pop\n        /* \"#utility.yul\":3122:3423   */\n      swap4\n      swap3\n      pop\n      pop\n      pop\n      jump\t// out\n        /* \"#utility.yul\":3429:3793   */\n    tag_70:\n        /* \"#utility.yul\":3517:3520   */\n      0x00\n        /* \"#utility.yul\":3545:3584   */\n      tag_72\n        /* \"#utility.yul\":3578:3583   */\n      dup3\n        /* \"#utility.yul\":3545:3584   */\n      tag_73\n      jump\t// in\n    tag_72:\n        /* \"#utility.yul\":3600:3671   */\n      tag_74\n        /* \"#utility.yul\":3664:3670   */\n      dup2\n        /* \"#utility.yul\":3659:3662   */\n      dup6\n        /* \"#utility.yul\":3600:3671   */\n      tag_75\n      jump\t// in\n    tag_74:\n        /* \"#utility.yul\":3593:3671   */\n      swap4\n      pop\n        /* \"#utility.yul\":3680:3732   */\n      tag_76\n        /* \"#utility.yul\":3725:3731   */\n      dup2\n        /* \"#utility.yul\":3720:3723   */\n      dup6\n        /* \"#utility.yul\":3713:3717   */\n      0x20\n        /* \"#utility.yul\":3706:3711   */\n      dup7\n        /* \"#utility.yul\":3702:3718   */\n      add\n        /* \"#utility.yul\":3680:3732   */\n      tag_77\n      jump\t// in\n    tag_76:\n        /* \"#utility.yul\":3757:3786   */\n      tag_78\n        /* \"#utility.yul\":3779:3785   */\n      dup2\n        /* \"#utility.yul\":3757:3786   */\n      tag_69\n      jump\t// in\n    tag_78:\n        /* \"#utility.yul\":3752:3755   */\n      dup5\n        /* \"#utility.yul\":3748:3787   */\n      add\n        /* \"#utility.yul\":3741:3787   */\n      swap2\n      pop\n        /* \"#utility.yul\":3521:3793   */\n      pop\n        /* \"#utility.yul\":3429:3793   */\n      swap3\n      swap2\n      pop\n      pop\n      jump\t// out\n        /* \"#utility.yul\":3799:4752   */\n    tag_10:\n        /* \"#utility.yul\":4072:4076   */\n      0x00\n        /* \"#utility.yul\":4110:4113   */\n      0xa0\n        /* \"#utility.yul\":4099:4108   */\n      dup3\n        /* \"#utility.yul\":4095:4114   */\n      add\n        /* \"#utility.yul\":4087:4114   */\n      swap1\n      pop\n        /* \"#utility.yul\":4160:4169   */\n      dup2\n        /* \"#utility.yul\":4154:4158   */\n      dup2\n        /* \"#utility.yul\":4150:4170   */\n      sub\n        /* \"#utility.yul\":4146:4147   */\n      0x00\n        /* \"#utility.yul\":4135:4144   */\n      dup4\n        /* \"#utility.yul\":4131:4148   */\n      add\n        /* \"#utility.yul\":4124:4171   */\n      mstore\n        /* \"#utility.yul\":4188:4266   */\n      tag_80\n        /* \"#utility.yul\":4261:4265   */\n      dup2\n        /* \"#utility.yul\":4252:4258   */\n      dup10\n        /* \"#utility.yul\":4188:4266   */\n      tag_70\n      jump\t// in\n    tag_80:\n        /* \"#utility.yul\":4180:4266   */\n      swap1\n      pop\n        /* \"#utility.yul\":4276:4348   */\n      tag_81\n        /* \"#utility.yul\":4344:4346   */\n      0x20\n        /* \"#utility.yul\":4333:4342   */\n      dup4\n        /* \"#utility.yul\":4329:4347   */\n      add\n        /* \"#utility.yul\":4320:4326   */\n      dup9\n        /* \"#utility.yul\":4276:4348   */\n      tag_59\n      jump\t// in\n    tag_81:\n        /* \"#utility.yul\":4358:4430   */\n      tag_82\n        /* \"#utility.yul\":4426:4428   */\n      0x40\n        /* \"#utility.yul\":4415:4424   */\n      dup4\n        /* \"#utility.yul\":4411:4429   */\n      add\n        /* \"#utility.yul\":4402:4408   */\n      dup8\n        /* \"#utility.yul\":4358:4430   */\n      tag_59\n      jump\t// in\n    tag_82:\n        /* \"#utility.yul\":4477:4486   */\n      dup2\n        /* \"#utility.yul\":4471:4475   */\n      dup2\n        /* \"#utility.yul\":4467:4487   */\n      sub\n        /* \"#utility.yul\":4462:4464   */\n      0x60\n        /* \"#utility.yul\":4451:4460   */\n      dup4\n        /* \"#utility.yul\":4447:4465   */\n      add\n        /* \"#utility.yul\":4440:4488   */\n      mstore\n        /* \"#utility.yul\":4505:4583   */\n      tag_83\n        /* \"#utility.yul\":4578:4582   */\n      dup2\n        /* \"#utility.yul\":4569:4575   */\n      dup7\n        /* \"#utility.yul\":4505:4583   */\n      tag_70\n      jump\t// in\n    tag_83:\n        /* \"#utility.yul\":4497:4583   */\n      swap1\n      pop\n        /* \"#utility.yul\":4631:4640   */\n      dup2\n        /* \"#utility.yul\":4625:4629   */\n      dup2\n        /* \"#utility.yul\":4621:4641   */\n      sub\n        /* \"#utility.yul\":4615:4618   */\n      0x80\n        /* \"#utility.yul\":4604:4613   */\n      dup4\n        /* \"#utility.yul\":4600:4619   */\n      add\n        /* \"#utility.yul\":4593:4642   */\n      mstore\n        /* \"#utility.yul\":4659:4745   */\n      tag_84\n        /* \"#utility.yul\":4740:4744   */\n      dup2\n        /* \"#utility.yul\":4731:4737   */\n      dup5\n        /* \"#utility.yul\":4723:4729   */\n      dup7\n        /* \"#utility.yul\":4659:4745   */\n      tag_63\n      jump\t// in\n    tag_84:\n        /* \"#utility.yul\":4651:4745   */\n      swap1\n      pop\n        /* \"#utility.yul\":3799:4752   */\n      swap8\n      swap7\n      pop\n      pop\n      pop\n      pop\n      pop\n      pop\n      pop\n      jump\t// out\n        /* \"#utility.yul\":4758:4887   */\n    tag_17:\n        /* \"#utility.yul\":4792:4798   */\n      0x00\n        /* \"#utility.yul\":4819:4839   */\n      tag_86\n      tag_87\n      jump\t// in\n    tag_86:\n        /* \"#utility.yul\":4809:4839   */\n      swap1\n      pop\n        /* \"#utility.yul\":4848:4881   */\n      tag_88\n        /* \"#utility.yul\":4876:4880   */\n      dup3\n        /* \"#utility.yul\":4868:4874   */\n      dup3\n        /* \"#utility.yul\":4848:4881   */\n      tag_89\n      jump\t// in\n    tag_88:\n        /* \"#utility.yul\":4758:4887   */\n      swap2\n      swap1\n      pop\n      jump\t// out\n        /* \"#utility.yul\":4893:4968   */\n    tag_87:\n        /* \"#utility.yul\":4926:4932   */\n      0x00\n        /* \"#utility.yul\":4959:4961   */\n      0x40\n        /* \"#utility.yul\":4953:4962   */\n      mload\n        /* \"#utility.yul\":4943:4962   */\n      swap1\n      pop\n        /* \"#utility.yul\":4893:4968   */\n      swap1\n      jump\t// out\n        /* \"#utility.yul\":4974:5282   */\n    tag_16:\n        /* \"#utility.yul\":5036:5040   */\n      0x00\n        /* \"#utility.yul\":5126:5144   */\n      0xffffffffffffffff\n        /* \"#utility.yul\":5118:5124   */\n      dup3\n        /* \"#utility.yul\":5115:5145   */\n      gt\n        /* \"#utility.yul\":5112:5168   */\n      iszero\n      tag_92\n      jumpi\n        /* \"#utility.yul\":5148:5166   */\n      tag_93\n      tag_94\n      jump\t// in\n    tag_93:\n        /* \"#utility.yul\":5112:5168   */\n    tag_92:\n        /* \"#utility.yul\":5186:5215   */\n      tag_95\n        /* \"#utility.yul\":5208:5214   */\n      dup3\n        /* \"#utility.yul\":5186:5215   */\n      tag_69\n      jump\t// in\n    tag_95:\n        /* \"#utility.yul\":5178:5215   */\n      swap1\n      pop\n        /* \"#utility.yul\":5270:5274   */\n      0x20\n        /* \"#utility.yul\":5264:5268   */\n      dup2\n        /* \"#utility.yul\":5260:5275   */\n      add\n        /* \"#utility.yul\":5252:5275   */\n      swap1\n      pop\n        /* \"#utility.yul\":4974:5282   */\n      swap2\n      swap1\n      pop\n      jump\t// out\n        /* \"#utility.yul\":5288:5387   */\n    tag_73:\n        /* \"#utility.yul\":5340:5346   */\n      0x00\n        /* \"#utility.yul\":5374:5379   */\n      dup2\n        /* \"#utility.yul\":5368:5380   */\n      mload\n        /* \"#utility.yul\":5358:5380   */\n      swap1\n      pop\n        /* \"#utility.yul\":5288:5387   */\n      swap2\n      swap1\n      pop\n      jump\t// out\n        /* \"#utility.yul\":5393:5561   */\n    tag_66:\n        /* \"#utility.yul\":5476:5487   */\n      0x00\n        /* \"#utility.yul\":5510:5516   */\n      dup3\n        /* \"#utility.yul\":5505:5508   */\n      dup3\n        /* \"#utility.yul\":5498:5517   */\n      mstore\n        /* \"#utility.yul\":5550:5554   */\n      0x20\n        /* \"#utility.yul\":5545:5548   */\n      dup3\n        /* \"#utility.yul\":5541:5555   */\n      add\n        /* \"#utility.yul\":5526:5555   */\n      swap1\n      pop\n        /* \"#utility.yul\":5393:5561   */\n      swap3\n      swap2\n      pop\n      pop\n      jump\t// out\n        /* \"#utility.yul\":5567:5736   */\n    tag_75:\n        /* \"#utility.yul\":5651:5662   */\n      0x00\n        /* \"#utility.yul\":5685:5691   */\n      dup3\n        /* \"#utility.yul\":5680:5683   */\n      dup3\n        /* \"#utility.yul\":5673:5692   */\n      mstore\n        /* \"#utility.yul\":5725:5729   */\n      0x20\n        /* \"#utility.yul\":5720:5723   */\n      dup3\n        /* \"#utility.yul\":5716:5730   */\n      add\n        /* \"#utility.yul\":5701:5730   */\n      swap1\n      pop\n        /* \"#utility.yul\":5567:5736   */\n      swap3\n      swap2\n      pop\n      pop\n      jump\t// out\n        /* \"#utility.yul\":5742:5838   */\n    tag_62:\n        /* \"#utility.yul\":5779:5786   */\n      0x00\n        /* \"#utility.yul\":5808:5832   */\n      tag_100\n        /* \"#utility.yul\":5826:5831   */\n      dup3\n        /* \"#utility.yul\":5808:5832   */\n      tag_101\n      jump\t// in\n    tag_100:\n        /* \"#utility.yul\":5797:5832   */\n      swap1\n      pop\n        /* \"#utility.yul\":5742:5838   */\n      swap2\n      swap1\n      pop\n      jump\t// out\n        /* \"#utility.yul\":5844:5970   */\n    tag_101:\n        /* \"#utility.yul\":5881:5888   */\n      0x00\n        /* \"#utility.yul\":5921:5963   */\n      0xffffffffffffffffffffffffffffffffffffffff\n        /* \"#utility.yul\":5914:5919   */\n      dup3\n        /* \"#utility.yul\":5910:5964   */\n      and\n        /* \"#utility.yul\":5899:5964   */\n      swap1\n      pop\n        /* \"#utility.yul\":5844:5970   */\n      swap2\n      swap1\n      pop\n      jump\t// out\n        /* \"#utility.yul\":5976:6130   */\n    tag_22:\n        /* \"#utility.yul\":6060:6066   */\n      dup3\n        /* \"#utility.yul\":6055:6058   */\n      dup2\n        /* \"#utility.yul\":6050:6053   */\n      dup4\n        /* \"#utility.yul\":6037:6067   */\n      calldatacopy\n        /* \"#utility.yul\":6122:6123   */\n      0x00\n        /* \"#utility.yul\":6113:6119   */\n      dup4\n        /* \"#utility.yul\":6108:6111   */\n      dup4\n        /* \"#utility.yul\":6104:6120   */\n      add\n        /* \"#utility.yul\":6097:6124   */\n      mstore\n        /* \"#utility.yul\":5976:6130   */\n      pop\n      pop\n      pop\n      jump\t// out\n        /* \"#utility.yul\":6136:6443   */\n    tag_77:\n        /* \"#utility.yul\":6204:6205   */\n      0x00\n        /* \"#utility.yul\":6214:6327   */\n    tag_105:\n        /* \"#utility.yul\":6228:6234   */\n      dup4\n        /* \"#utility.yul\":6225:6226   */\n      dup2\n        /* \"#utility.yul\":6222:6235   */\n      lt\n        /* \"#utility.yul\":6214:6327   */\n      iszero\n      tag_107\n      jumpi\n        /* \"#utility.yul\":6313:6314   */\n      dup1\n        /* \"#utility.yul\":6308:6311   */\n      dup3\n        /* \"#utility.yul\":6304:6315   */\n      add\n        /* \"#utility.yul\":6298:6316   */\n      mload\n        /* \"#utility.yul\":6294:6295   */\n      dup2\n        /* \"#utility.yul\":6289:6292   */\n      dup5\n        /* \"#utility.yul\":6285:6296   */\n      add\n        /* \"#utility.yul\":6278:6317   */\n      mstore\n        /* \"#utility.yul\":6250:6252   */\n      0x20\n        /* \"#utility.yul\":6247:6248   */\n      dup2\n        /* \"#utility.yul\":6243:6253   */\n      add\n        /* \"#utility.yul\":6238:6253   */\n      swap1\n      pop\n        /* \"#utility.yul\":6214:6327   */\n      jump(tag_105)\n    tag_107:\n        /* \"#utility.yul\":6345:6351   */\n      dup4\n        /* \"#utility.yul\":6342:6343   */\n      dup2\n        /* \"#utility.yul\":6339:6352   */\n      gt\n        /* \"#utility.yul\":6336:6437   */\n      iszero\n      tag_108\n      jumpi\n        /* \"#utility.yul\":6425:6426   */\n      0x00\n        /* \"#utility.yul\":6416:6422   */\n      dup5\n        /* \"#utility.yul\":6411:6414   */\n      dup5\n        /* \"#utility.yul\":6407:6423   */\n      add\n        /* \"#utility.yul\":6400:6427   */\n      mstore\n        /* \"#utility.yul\":6336:6437   */\n    tag_108:\n        /* \"#utility.yul\":6185:6443   */\n      pop\n        /* \"#utility.yul\":6136:6443   */\n      pop\n      pop\n      pop\n      jump\t// out\n        /* \"#utility.yul\":6449:6730   */\n    tag_89:\n        /* \"#utility.yul\":6532:6559   */\n      tag_110\n        /* \"#utility.yul\":6554:6558   */\n      dup3\n        /* \"#utility.yul\":6532:6559   */\n      tag_69\n      jump\t// in\n    tag_110:\n        /* \"#utility.yul\":6524:6530   */\n      dup2\n        /* \"#utility.yul\":6520:6560   */\n      add\n        /* \"#utility.yul\":6662:6668   */\n      dup2\n        /* \"#utility.yul\":6650:6660   */\n      dup2\n        /* \"#utility.yul\":6647:6669   */\n      lt\n        /* \"#utility.yul\":6626:6644   */\n      0xffffffffffffffff\n        /* \"#utility.yul\":6614:6624   */\n      dup3\n        /* \"#utility.yul\":6611:6645   */\n      gt\n        /* \"#utility.yul\":6608:6670   */\n      or\n        /* \"#utility.yul\":6605:6693   */\n      iszero\n      tag_111\n      jumpi\n        /* \"#utility.yul\":6673:6691   */\n      tag_112\n      tag_94\n      jump\t// in\n    tag_112:\n        /* \"#utility.yul\":6605:6693   */\n    tag_111:\n        /* \"#utility.yul\":6713:6723   */\n      dup1\n        /* \"#utility.yul\":6709:6711   */\n      0x40\n        /* \"#utility.yul\":6702:6724   */\n      mstore\n        /* \"#utility.yul\":6492:6730   */\n      pop\n        /* \"#utility.yul\":6449:6730   */\n      pop\n      pop\n      jump\t// out\n        /* \"#utility.yul\":6736:6916   */\n    tag_94:\n        /* \"#utility.yul\":6784:6861   */\n      0x4e487b7100000000000000000000000000000000000000000000000000000000\n        /* \"#utility.yul\":6781:6782   */\n      0x00\n        /* \"#utility.yul\":6774:6862   */\n      mstore\n        /* \"#utility.yul\":6881:6885   */\n      0x41\n        /* \"#utility.yul\":6878:6879   */\n      0x04\n        /* \"#utility.yul\":6871:6886   */\n      mstore\n        /* \"#utility.yul\":6905:6909   */\n      0x24\n        /* \"#utility.yul\":6902:6903   */\n      0x00\n        /* \"#utility.yul\":6895:6910   */\n      revert\n        /* \"#utility.yul\":6922:7039   */\n    tag_34:\n        /* \"#utility.yul\":7031:7032   */\n      0x00\n        /* \"#utility.yul\":7028:7029   */\n      dup1\n        /* \"#utility.yul\":7021:7033   */\n      revert\n        /* \"#utility.yul\":7045:7162   */\n    tag_31:\n        /* \"#utility.yul\":7154:7155   */\n      0x00\n        /* \"#utility.yul\":7151:7152   */\n      dup1\n        /* \"#utility.yul\":7144:7156   */\n      revert\n        /* \"#utility.yul\":7168:7285   */\n    tag_37:\n        /* \"#utility.yul\":7277:7278   */\n      0x00\n        /* \"#utility.yul\":7274:7275   */\n      dup1\n        /* \"#utility.yul\":7267:7279   */\n      revert\n        /* \"#utility.yul\":7291:7408   */\n    tag_20:\n        /* \"#utility.yul\":7400:7401   */\n      0x00\n        /* \"#utility.yul\":7397:7398   */\n      dup1\n        /* \"#utility.yul\":7390:7402   */\n      revert\n        /* \"#utility.yul\":7414:7531   */\n    tag_49:\n        /* \"#utility.yul\":7523:7524   */\n      0x00\n        /* \"#utility.yul\":7520:7521   */\n      dup1\n        /* \"#utility.yul\":7513:7525   */\n      revert\n        /* \"#utility.yul\":7537:7654   */\n    tag_46:\n        /* \"#utility.yul\":7646:7647   */\n      0x00\n        /* \"#utility.yul\":7643:7644   */\n      dup1\n        /* \"#utility.yul\":7636:7648   */\n      revert\n        /* \"#utility.yul\":7660:7762   */\n    tag_69:\n        /* \"#utility.yul\":7701:7707   */\n      0x00\n        /* \"#utility.yul\":7752:7754   */\n      0x1f\n        /* \"#utility.yul\":7748:7755   */\n      not\n        /* \"#utility.yul\":7743:7745   */\n      0x1f\n        /* \"#utility.yul\":7736:7741   */\n      dup4\n        /* \"#utility.yul\":7732:7746   */\n      add\n        /* \"#utility.yul\":7728:7756   */\n      and\n        /* \"#utility.yul\":7718:7756   */\n      swap1\n      pop\n        /* \"#utility.yul\":7660:7762   */\n      swap2\n      swap1\n      pop\n      jump\t// out\n        /* \"#utility.yul\":7768:7890   */\n    tag_26:\n        /* \"#utility.yul\":7841:7865   */\n      tag_122\n        /* \"#utility.yul\":7859:7864   */\n      dup2\n        /* \"#utility.yul\":7841:7865   */\n      tag_62\n      jump\t// in\n    tag_122:\n        /* \"#utility.yul\":7834:7839   */\n      dup2\n        /* \"#utility.yul\":7831:7866   */\n      eq\n        /* \"#utility.yul\":7821:7884   */\n      tag_123\n      jumpi\n        /* \"#utility.yul\":7880:7881   */\n      0x00\n        /* \"#utility.yul\":7877:7878   */\n      dup1\n        /* \"#utility.yul\":7870:7882   */\n      revert\n        /* \"#utility.yul\":7821:7884   */\n    tag_123:\n        /* \"#utility.yul\":7768:7890   */\n      pop\n      jump\t// out\n\n    auxdata: 0xa2646970667358221220758f614db9e82cdfbcadb839a538563eb0a3eabc3fdb70948bc5c917aba475b864736f6c63430008070033\n}\n",
				"bytecode": {
					"linkReferences": {},
					"object": "608060405234801561001057600080fd5b506104f4806100206000396000f3fe608060405234801561001057600080fd5b506004361061002b5760003560e01c8063a78d2ba314610030575b600080fd5b61004a60048036038101906100459190610170565b61004c565b005b7f37c3fbf03a160c29acc48ad2883e3c46f0041d8d41057b519658a7135a2afbf7868686868686604051610085969594939291906102b7565b60405180910390a1505050505050565b60006100a86100a384610346565b610321565b9050828152602081018484840111156100c4576100c3610487565b5b6100cf8482856103d6565b509392505050565b6000813590506100e6816104a7565b92915050565b60008083601f8401126101025761010161047d565b5b8235905067ffffffffffffffff81111561011f5761011e610478565b5b60208301915083600182028301111561013b5761013a610482565b5b9250929050565b600082601f8301126101575761015661047d565b5b8135610167848260208601610095565b91505092915050565b60008060008060008060a0878903121561018d5761018c610491565b5b600087013567ffffffffffffffff8111156101ab576101aa61048c565b5b6101b789828a01610142565b96505060206101c889828a016100d7565b95505060406101d989828a016100d7565b945050606087013567ffffffffffffffff8111156101fa576101f961048c565b5b61020689828a01610142565b935050608087013567ffffffffffffffff8111156102275761022661048c565b5b61023389828a016100ec565b92509250509295509295509295565b61024b816103a4565b82525050565b600061025d8385610382565b935061026a8385846103d6565b61027383610496565b840190509392505050565b600061028982610377565b6102938185610393565b93506102a38185602086016103e5565b6102ac81610496565b840191505092915050565b600060a08201905081810360008301526102d1818961027e565b90506102e06020830188610242565b6102ed6040830187610242565b81810360608301526102ff818661027e565b90508181036080830152610314818486610251565b9050979650505050505050565b600061032b61033c565b90506103378282610418565b919050565b6000604051905090565b600067ffffffffffffffff82111561036157610360610449565b5b61036a82610496565b9050602081019050919050565b600081519050919050565b600082825260208201905092915050565b600082825260208201905092915050565b60006103af826103b6565b9050919050565b600073ffffffffffffffffffffffffffffffffffffffff82169050919050565b82818337600083830152505050565b60005b838110156104035780820151818401526020810190506103e8565b83811115610412576000848401525b50505050565b61042182610496565b810181811067ffffffffffffffff821117156104405761043f610449565b5b80604052505050565b7f4e487b7100000000000000000000000000000000000000000000000000000000600052604160045260246000fd5b600080fd5b600080fd5b600080fd5b600080fd5b600080fd5b600080fd5b6000601f19601f8301169050919050565b6104b0816103a4565b81146104bb57600080fd5b5056fea2646970667358221220758f614db9e82cdfbcadb839a538563eb0a3eabc3fdb70948bc5c917aba475b864736f6c63430008070033",
					"opcodes": "PUSH1 0x80 PUSH1 0x40 MSTORE CALLVALUE DUP1 ISZERO PUSH2 0x10 JUMPI PUSH1 0x0 DUP1 REVERT JUMPDEST POP PUSH2 0x4F4 DUP1 PUSH2 0x20 PUSH1 0x0 CODECOPY PUSH1 0x0 RETURN INVALID PUSH1 0x80 PUSH1 0x40 MSTORE CALLVALUE DUP1 ISZERO PUSH2 0x10 JUMPI PUSH1 0x0 DUP1 REVERT JUMPDEST POP PUSH1 0x4 CALLDATASIZE LT PUSH2 0x2B JUMPI PUSH1 0x0 CALLDATALOAD PUSH1 0xE0 SHR DUP1 PUSH4 0xA78D2BA3 EQ PUSH2 0x30 JUMPI JUMPDEST PUSH1 0x0 DUP1 REVERT JUMPDEST PUSH2 0x4A PUSH1 0x4 DUP1 CALLDATASIZE SUB DUP2 ADD SWAP1 PUSH2 0x45 SWAP2 SWAP1 PUSH2 0x170 JUMP JUMPDEST PUSH2 0x4C JUMP JUMPDEST STOP JUMPDEST PUSH32 0x37C3FBF03A160C29ACC48AD2883E3C46F0041D8D41057B519658A7135A2AFBF7 DUP7 DUP7 DUP7 DUP7 DUP7 DUP7 PUSH1 0x40 MLOAD PUSH2 0x85 SWAP7 SWAP6 SWAP5 SWAP4 SWAP3 SWAP2 SWAP1 PUSH2 0x2B7 JUMP JUMPDEST PUSH1 0x40 MLOAD DUP1 SWAP2 SUB SWAP1 LOG1 POP POP POP POP POP POP JUMP JUMPDEST PUSH1 0x0 PUSH2 0xA8 PUSH2 0xA3 DUP5 PUSH2 0x346 JUMP JUMPDEST PUSH2 0x321 JUMP JUMPDEST SWAP1 POP DUP3 DUP2 MSTORE PUSH1 0x20 DUP2 ADD DUP5 DUP5 DUP5 ADD GT ISZERO PUSH2 0xC4 JUMPI PUSH2 0xC3 PUSH2 0x487 JUMP JUMPDEST JUMPDEST PUSH2 0xCF DUP5 DUP3 DUP6 PUSH2 0x3D6 JUMP JUMPDEST POP SWAP4 SWAP3 POP POP POP JUMP JUMPDEST PUSH1 0x0 DUP2 CALLDATALOAD SWAP1 POP PUSH2 0xE6 DUP2 PUSH2 0x4A7 JUMP JUMPDEST SWAP3 SWAP2 POP POP JUMP JUMPDEST PUSH1 0x0 DUP1 DUP4 PUSH1 0x1F DUP5 ADD SLT PUSH2 0x102 JUMPI PUSH2 0x101 PUSH2 0x47D JUMP JUMPDEST JUMPDEST DUP3 CALLDATALOAD SWAP1 POP PUSH8 0xFFFFFFFFFFFFFFFF DUP2 GT ISZERO PUSH2 0x11F JUMPI PUSH2 0x11E PUSH2 0x478 JUMP JUMPDEST JUMPDEST PUSH1 0x20 DUP4 ADD SWAP2 POP DUP4 PUSH1 0x1 DUP3 MUL DUP4 ADD GT ISZERO PUSH2 0x13B JUMPI PUSH2 0x13A PUSH2 0x482 JUMP JUMPDEST JUMPDEST SWAP3 POP SWAP3 SWAP1 POP JUMP JUMPDEST PUSH1 0x0 DUP3 PUSH1 0x1F DUP4 ADD SLT PUSH2 0x157 JUMPI PUSH2 0x156 PUSH2 0x47D JUMP JUMPDEST JUMPDEST DUP2 CALLDATALOAD PUSH2 0x167 DUP5 DUP3 PUSH1 0x20 DUP7 ADD PUSH2 0x95 JUMP JUMPDEST SWAP2 POP POP SWAP3 SWAP2 POP POP JUMP JUMPDEST PUSH1 0x0 DUP1 PUSH1 0x0 DUP1 PUSH1 0x0 DUP1 PUSH1 0xA0 DUP8 DUP10 SUB SLT ISZERO PUSH2 0x18D JUMPI PUSH2 0x18C PUSH2 0x491 JUMP JUMPDEST JUMPDEST PUSH1 0x0 DUP8 ADD CALLDATALOAD PUSH8 0xFFFFFFFFFFFFFFFF DUP2 GT ISZERO PUSH2 0x1AB JUMPI PUSH2 0x1AA PUSH2 0x48C JUMP JUMPDEST JUMPDEST PUSH2 0x1B7 DUP10 DUP3 DUP11 ADD PUSH2 0x142 JUMP JUMPDEST SWAP7 POP POP PUSH1 0x20 PUSH2 0x1C8 DUP10 DUP3 DUP11 ADD PUSH2 0xD7 JUMP JUMPDEST SWAP6 POP POP PUSH1 0x40 PUSH2 0x1D9 DUP10 DUP3 DUP11 ADD PUSH2 0xD7 JUMP JUMPDEST SWAP5 POP POP PUSH1 0x60 DUP8 ADD CALLDATALOAD PUSH8 0xFFFFFFFFFFFFFFFF DUP2 GT ISZERO PUSH2 0x1FA JUMPI PUSH2 0x1F9 PUSH2 0x48C JUMP JUMPDEST JUMPDEST PUSH2 0x206 DUP10 DUP3 DUP11 ADD PUSH2 0x142 JUMP JUMPDEST SWAP4 POP POP PUSH1 0x80 DUP8 ADD CALLDATALOAD PUSH8 0xFFFFFFFFFFFFFFFF DUP2 GT ISZERO PUSH2 0x227 JUMPI PUSH2 0x226 PUSH2 0x48C JUMP JUMPDEST JUMPDEST PUSH2 0x233 DUP10 DUP3 DUP11 ADD PUSH2 0xEC JUMP JUMPDEST SWAP3 POP SWAP3 POP POP SWAP3 SWAP6 POP SWAP3 SWAP6 POP SWAP3 SWAP6 JUMP JUMPDEST PUSH2 0x24B DUP2 PUSH2 0x3A4 JUMP JUMPDEST DUP3 MSTORE POP POP JUMP JUMPDEST PUSH1 0x0 PUSH2 0x25D DUP4 DUP6 PUSH2 0x382 JUMP JUMPDEST SWAP4 POP PUSH2 0x26A DUP4 DUP6 DUP5 PUSH2 0x3D6 JUMP JUMPDEST PUSH2 0x273 DUP4 PUSH2 0x496 JUMP JUMPDEST DUP5 ADD SWAP1 POP SWAP4 SWAP3 POP POP POP JUMP JUMPDEST PUSH1 0x0 PUSH2 0x289 DUP3 PUSH2 0x377 JUMP JUMPDEST PUSH2 0x293 DUP2 DUP6 PUSH2 0x393 JUMP JUMPDEST SWAP4 POP PUSH2 0x2A3 DUP2 DUP6 PUSH1 0x20 DUP7 ADD PUSH2 0x3E5 JUMP JUMPDEST PUSH2 0x2AC DUP2 PUSH2 0x496 JUMP JUMPDEST DUP5 ADD SWAP2 POP POP SWAP3 SWAP2 POP POP JUMP JUMPDEST PUSH1 0x0 PUSH1 0xA0 DUP3 ADD SWAP1 POP DUP2 DUP2 SUB PUSH1 0x0 DUP4 ADD MSTORE PUSH2 0x2D1 DUP2 DUP10 PUSH2 0x27E JUMP JUMPDEST SWAP1 POP PUSH2 0x2E0 PUSH1 0x20 DUP4 ADD DUP9 PUSH2 0x242 JUMP JUMPDEST PUSH2 0x2ED PUSH1 0x40 DUP4 ADD DUP8 PUSH2 0x242 JUMP JUMPDEST DUP2 DUP2 SUB PUSH1 0x60 DUP4 ADD MSTORE PUSH2 0x2FF DUP2 DUP7 PUSH2 0x27E JUMP JUMPDEST SWAP1 POP DUP2 DUP2 SUB PUSH1 0x80 DUP4 ADD MSTORE PUSH2 0x314 DUP2 DUP5 DUP7 PUSH2 0x251 JUMP JUMPDEST SWAP1 POP SWAP8 SWAP7 POP POP POP POP POP POP POP JUMP JUMPDEST PUSH1 0x0 PUSH2 0x32B PUSH2 0x33C JUMP JUMPDEST SWAP1 POP PUSH2 0x337 DUP3 DUP3 PUSH2 0x418 JUMP JUMPDEST SWAP2 SWAP1 POP JUMP JUMPDEST PUSH1 0x0 PUSH1 0x40 MLOAD SWAP1 POP SWAP1 JUMP JUMPDEST PUSH1 0x0 PUSH8 0xFFFFFFFFFFFFFFFF DUP3 GT ISZERO PUSH2 0x361 JUMPI PUSH2 0x360 PUSH2 0x449 JUMP JUMPDEST JUMPDEST PUSH2 0x36A DUP3 PUSH2 0x496 JUMP JUMPDEST SWAP1 POP PUSH1 0x20 DUP2 ADD SWAP1 POP SWAP2 SWAP1 POP JUMP JUMPDEST PUSH1 0x0 DUP2 MLOAD SWAP1 POP SWAP2 SWAP1 POP JUMP JUMPDEST PUSH1 0x0 DUP3 DUP3 MSTORE PUSH1 0x20 DUP3 ADD SWAP1 POP SWAP3 SWAP2 POP POP JUMP JUMPDEST PUSH1 0x0 DUP3 DUP3 MSTORE PUSH1 0x20 DUP3 ADD SWAP1 POP SWAP3 SWAP2 POP POP JUMP JUMPDEST PUSH1 0x0 PUSH2 0x3AF DUP3 PUSH2 0x3B6 JUMP JUMPDEST SWAP1 POP SWAP2 SWAP1 POP JUMP JUMPDEST PUSH1 0x0 PUSH20 0xFFFFFFFFFFFFFFFFFFFFFFFFFFFFFFFFFFFFFFFF DUP3 AND SWAP1 POP SWAP2 SWAP1 POP JUMP JUMPDEST DUP3 DUP2 DUP4 CALLDATACOPY PUSH1 0x0 DUP4 DUP4 ADD MSTORE POP POP POP JUMP JUMPDEST PUSH1 0x0 JUMPDEST DUP4 DUP2 LT ISZERO PUSH2 0x403 JUMPI DUP1 DUP3 ADD MLOAD DUP2 DUP5 ADD MSTORE PUSH1 0x20 DUP2 ADD SWAP1 POP PUSH2 0x3E8 JUMP JUMPDEST DUP4 DUP2 GT ISZERO PUSH2 0x412 JUMPI PUSH1 0x0 DUP5 DUP5 ADD MSTORE JUMPDEST POP POP POP POP JUMP JUMPDEST PUSH2 0x421 DUP3 PUSH2 0x496 JUMP JUMPDEST DUP2 ADD DUP2 DUP2 LT PUSH8 0xFFFFFFFFFFFFFFFF DUP3 GT OR ISZERO PUSH2 0x440 JUMPI PUSH2 0x43F PUSH2 0x449 JUMP JUMPDEST JUMPDEST DUP1 PUSH1 0x40 MSTORE POP POP POP JUMP JUMPDEST PUSH32 0x4E487B7100000000000000000000000000000000000000000000000000000000 PUSH1 0x0 MSTORE PUSH1 0x41 PUSH1 0x4 MSTORE PUSH1 0x24 PUSH1 0x0 REVERT JUMPDEST PUSH1 0x0 DUP1 REVERT JUMPDEST PUSH1 0x0 DUP1 REVERT JUMPDEST PUSH1 0x0 DUP1 REVERT JUMPDEST PUSH1 0x0 DUP1 REVERT JUMPDEST PUSH1 0x0 DUP1 REVERT JUMPDEST PUSH1 0x0 DUP1 REVERT JUMPDEST PUSH1 0x0 PUSH1 0x1F NOT PUSH1 0x1F DUP4 ADD AND SWAP1 POP SWAP2 SWAP1 POP JUMP JUMPDEST PUSH2 0x4B0 DUP2 PUSH2 0x3A4 JUMP JUMPDEST DUP2 EQ PUSH2 0x4BB JUMPI PUSH1 0x0 DUP1 REVERT JUMPDEST POP JUMP INVALID LOG2 PUSH5 0x6970667358 0x22 SLT KECCAK256 PUSH22 0x8F614DB9E82CDFBCADB839A538563EB0A3EABC3FDB70 SWAP5 DUP12 0xC5 0xC9 OR 0xAB LOG4 PUSH22 0xB864736F6C6343000807003300000000000000000000 "
				},
				"gasEstimates": {
					"creation": {
						"codeDepositCost": "253600",
						"executionCost": "294",
						"totalCost": "253894"
					},
					"external": {
						"emitEvent(string,address,address,string,bytes)": "infinite"
					}
				},
				"methodIdentifiers": {
					"emitEvent(string,address,address,string,bytes)": "a78d2ba3"
				}
			},
			"storageLayout": {
				"storage": [],
				"types": null
			},
			"userdoc": {
				"kind": "user",
				"methods": {},
				"version": 1
			}
		}
	}
}