{
	"facets/CommunicationFacet.sol": {
		"CommunicationFacet": {
			"abi": [
				{
					"inputs": [
						{
							"internalType": "contract CredentialEventFacet",
							"name": "_credentialOracle",
							"type": "address"
						}
					],
					"stateMutability": "nonpayable",
					"type": "constructor"
				},
				{
					"anonymous": false,
					"inputs": [
						{
							"indexed": true,
							"internalType": "address",
							"name": "previousOwner",
							"type": "address"
						},
						{
							"indexed": true,
							"internalType": "address",
							"name": "newOwner",
							"type": "address"
						}
					],
					"name": "OwnershipTransferred",
					"type": "event"
				},
				{
					"inputs": [],
					"name": "CREDENTIAL_EVENT",
					"outputs": [
						{
							"internalType": "contract CredentialEventFacet",
							"name": "",
							"type": "address"
						}
					],
					"stateMutability": "view",
					"type": "function"
				},
				{
					"inputs": [],
					"name": "owner",
					"outputs": [
						{
							"internalType": "address",
							"name": "",
							"type": "address"
						}
					],
					"stateMutability": "view",
					"type": "function"
				},
				{
					"inputs": [
						{
							"internalType": "string",
							"name": "someParam",
							"type": "string"
						},
						{
							"internalType": "string",
							"name": "_listId",
							"type": "string"
						},
						{
							"internalType": "string",
							"name": "thirdparam",
							"type": "string"
						},
						{
							"internalType": "uint256",
							"name": "num",
							"type": "uint256"
						}
					],
					"name": "postVibe",
					"outputs": [],
					"stateMutability": "nonpayable",
					"type": "function"
				},
				{
					"inputs": [
						{
							"internalType": "string",
							"name": "someParam",
							"type": "string"
						},
						{
							"internalType": "bytes[]",
							"name": "proof",
							"type": "bytes[]"
						}
					],
					"name": "postVibe_authorised",
					"outputs": [],
					"stateMutability": "nonpayable",
					"type": "function"
				},
				{
					"inputs": [
						{
							"internalType": "string",
							"name": "someParam",
							"type": "string"
						}
					],
					"name": "postVibe_unauthorised",
					"outputs": [],
					"stateMutability": "nonpayable",
					"type": "function"
				},
				{
					"inputs": [],
					"name": "renounceOwnership",
					"outputs": [],
					"stateMutability": "nonpayable",
					"type": "function"
				},
				{
					"inputs": [
						{
							"internalType": "address",
							"name": "newOwner",
							"type": "address"
						}
					],
					"name": "transferOwnership",
					"outputs": [],
					"stateMutability": "nonpayable",
					"type": "function"
				}
			],
			"devdoc": {
				"kind": "dev",
				"methods": {
					"owner()": {
						"details": "Returns the address of the current owner."
					},
					"renounceOwnership()": {
						"details": "Leaves the contract without owner. It will not be possible to call `onlyOwner` functions anymore. Can only be called by the current owner. NOTE: Renouncing ownership will leave the contract without an owner, thereby removing any functionality that is only available to the owner."
					},
					"transferOwnership(address)": {
						"details": "Transfers ownership of the contract to a new account (`newOwner`). Can only be called by the current owner."
					}
				},
				"version": 1
			},
			"evm": {
				"assembly": "    /* \"facets/CommunicationFacet.sol\":141:796  contract CommunicationFacet is Ownable, GateableFacet {... */\n  mstore(0x40, 0x80)\n    /* \"facets/CommunicationFacet.sol\":197:285  constructor(CredentialEventFacet _credentialOracle) GateableFacet(_credentialOracle) {... */\n  callvalue\n  dup1\n  iszero\n  tag_1\n  jumpi\n  0x00\n  dup1\n  revert\ntag_1:\n  pop\n  mload(0x40)\n  sub(codesize, bytecodeSize)\n  dup1\n  bytecodeSize\n  dup4\n  codecopy\n  dup2\n  dup2\n  add\n  0x40\n  mstore\n  dup2\n  add\n  swap1\n  tag_2\n  swap2\n  swap1\n  tag_3\n  jump\t// in\ntag_2:\n    /* \"facets/CommunicationFacet.sol\":263:280  _credentialOracle */\n  dup1\n    /* \"@openzeppelin/contracts/access/Ownable.sol\":921:953  _transferOwnership(_msgSender()) */\n  tag_8\n    /* \"@openzeppelin/contracts/access/Ownable.sol\":940:952  _msgSender() */\n  tag_9\n    /* \"@openzeppelin/contracts/access/Ownable.sol\":940:950  _msgSender */\n  shl(0x20, tag_10)\n    /* \"@openzeppelin/contracts/access/Ownable.sol\":940:952  _msgSender() */\n  0x20\n  shr\n  jump\t// in\ntag_9:\n    /* \"@openzeppelin/contracts/access/Ownable.sol\":921:939  _transferOwnership */\n  shl(0x20, tag_11)\n    /* \"@openzeppelin/contracts/access/Ownable.sol\":921:953  _transferOwnership(_msgSender()) */\n  0x20\n  shr\n  jump\t// in\ntag_8:\n    /* \"facets/GateableFacet.sol\":919:936  _credentialOracle */\n  dup1\n    /* \"facets/GateableFacet.sol\":891:908  CREDENTIAL_ORACLE */\n  0x01\n  0x00\n    /* \"facets/GateableFacet.sol\":891:937  CREDENTIAL_ORACLE = address(_credentialOracle) */\n  0x0100\n  exp\n  dup2\n  sload\n  dup2\n  0xffffffffffffffffffffffffffffffffffffffff\n  mul\n  not\n  and\n  swap1\n  dup4\n  0xffffffffffffffffffffffffffffffffffffffff\n  and\n  mul\n  or\n  swap1\n  sstore\n  pop\n    /* \"facets/GateableFacet.sol\":962:979  _credentialOracle */\n  dup1\n    /* \"facets/GateableFacet.sol\":943:959  CREDENTIAL_EVENT */\n  0x02\n  0x00\n    /* \"facets/GateableFacet.sol\":943:979  CREDENTIAL_EVENT = _credentialOracle */\n  0x0100\n  exp\n  dup2\n  sload\n  dup2\n  0xffffffffffffffffffffffffffffffffffffffff\n  mul\n  not\n  and\n  swap1\n  dup4\n  0xffffffffffffffffffffffffffffffffffffffff\n  and\n  mul\n  or\n  swap1\n  sstore\n  pop\n    /* \"facets/GateableFacet.sol\":833:982  constructor(CredentialEventFacet _credentialOracle) {... */\n  pop\n    /* \"facets/CommunicationFacet.sol\":197:285  constructor(CredentialEventFacet _credentialOracle) GateableFacet(_credentialOracle) {... */\n  pop\n    /* \"facets/CommunicationFacet.sol\":141:796  contract CommunicationFacet is Ownable, GateableFacet {... */\n  jump(tag_14)\n    /* \"@openzeppelin/contracts/utils/Context.sol\":640:736  function _msgSender() internal view virtual returns (address) {... */\ntag_10:\n    /* \"@openzeppelin/contracts/utils/Context.sol\":693:700  address */\n  0x00\n    /* \"@openzeppelin/contracts/utils/Context.sol\":719:729  msg.sender */\n  caller\n    /* \"@openzeppelin/contracts/utils/Context.sol\":712:729  return msg.sender */\n  swap1\n  pop\n    /* \"@openzeppelin/contracts/utils/Context.sol\":640:736  function _msgSender() internal view virtual returns (address) {... */\n  swap1\n  jump\t// out\n    /* \"@openzeppelin/contracts/access/Ownable.sol\":2270:2457  function _transferOwnership(address newOwner) internal virtual {... */\ntag_11:\n    /* \"@openzeppelin/contracts/access/Ownable.sol\":2343:2359  address oldOwner */\n  0x00\n    /* \"@openzeppelin/contracts/access/Ownable.sol\":2362:2368  _owner */\n  dup1\n  0x00\n  swap1\n  sload\n  swap1\n  0x0100\n  exp\n  swap1\n  div\n  0xffffffffffffffffffffffffffffffffffffffff\n  and\n    /* \"@openzeppelin/contracts/access/Ownable.sol\":2343:2368  address oldOwner = _owner */\n  swap1\n  pop\n    /* \"@openzeppelin/contracts/access/Ownable.sol\":2387:2395  newOwner */\n  dup2\n    /* \"@openzeppelin/contracts/access/Ownable.sol\":2378:2384  _owner */\n  0x00\n  dup1\n    /* \"@openzeppelin/contracts/access/Ownable.sol\":2378:2395  _owner = newOwner */\n  0x0100\n  exp\n  dup2\n  sload\n  dup2\n  0xffffffffffffffffffffffffffffffffffffffff\n  mul\n  not\n  and\n  swap1\n  dup4\n  0xffffffffffffffffffffffffffffffffffffffff\n  and\n  mul\n  or\n  swap1\n  sstore\n  pop\n    /* \"@openzeppelin/contracts/access/Ownable.sol\":2441:2449  newOwner */\n  dup2\n    /* \"@openzeppelin/contracts/access/Ownable.sol\":2410:2450  OwnershipTransferred(oldOwner, newOwner) */\n  0xffffffffffffffffffffffffffffffffffffffff\n  and\n    /* \"@openzeppelin/contracts/access/Ownable.sol\":2431:2439  oldOwner */\n  dup2\n    /* \"@openzeppelin/contracts/access/Ownable.sol\":2410:2450  OwnershipTransferred(oldOwner, newOwner) */\n  0xffffffffffffffffffffffffffffffffffffffff\n  and\n  0x8be0079c531659141344cd1fd0a4f28419497f9722a3daafe3b4186f6b6457e0\n  mload(0x40)\n  mload(0x40)\n  dup1\n  swap2\n  sub\n  swap1\n  log3\n    /* \"@openzeppelin/contracts/access/Ownable.sol\":2333:2457  {... */\n  pop\n    /* \"@openzeppelin/contracts/access/Ownable.sol\":2270:2457  function _transferOwnership(address newOwner) internal virtual {... */\n  pop\n  jump\t// out\n    /* \"#utility.yul\":7:206   */\ntag_18:\n    /* \"#utility.yul\":92:97   */\n  0x00\n    /* \"#utility.yul\":123:129   */\n  dup2\n    /* \"#utility.yul\":117:130   */\n  mload\n    /* \"#utility.yul\":108:130   */\n  swap1\n  pop\n    /* \"#utility.yul\":139:200   */\n  tag_20\n    /* \"#utility.yul\":194:199   */\n  dup2\n    /* \"#utility.yul\":139:200   */\n  tag_21\n  jump\t// in\ntag_20:\n    /* \"#utility.yul\":7:206   */\n  swap3\n  swap2\n  pop\n  pop\n  jump\t// out\n    /* \"#utility.yul\":212:619   */\ntag_3:\n    /* \"#utility.yul\":310:316   */\n  0x00\n    /* \"#utility.yul\":359:361   */\n  0x20\n    /* \"#utility.yul\":347:356   */\n  dup3\n    /* \"#utility.yul\":338:345   */\n  dup5\n    /* \"#utility.yul\":334:357   */\n  sub\n    /* \"#utility.yul\":330:362   */\n  slt\n    /* \"#utility.yul\":327:446   */\n  iszero\n  tag_23\n  jumpi\n    /* \"#utility.yul\":365:444   */\n  tag_24\n  tag_25\n  jump\t// in\ntag_24:\n    /* \"#utility.yul\":327:446   */\ntag_23:\n    /* \"#utility.yul\":485:486   */\n  0x00\n    /* \"#utility.yul\":510:602   */\n  tag_26\n    /* \"#utility.yul\":594:601   */\n  dup5\n    /* \"#utility.yul\":585:591   */\n  dup3\n    /* \"#utility.yul\":574:583   */\n  dup6\n    /* \"#utility.yul\":570:592   */\n  add\n    /* \"#utility.yul\":510:602   */\n  tag_18\n  jump\t// in\ntag_26:\n    /* \"#utility.yul\":500:602   */\n  swap2\n  pop\n    /* \"#utility.yul\":456:612   */\n  pop\n    /* \"#utility.yul\":212:619   */\n  swap3\n  swap2\n  pop\n  pop\n  jump\t// out\n    /* \"#utility.yul\":706:802   */\ntag_29:\n    /* \"#utility.yul\":743:750   */\n  0x00\n    /* \"#utility.yul\":772:796   */\n  tag_31\n    /* \"#utility.yul\":790:795   */\n  dup3\n    /* \"#utility.yul\":772:796   */\n  tag_32\n  jump\t// in\ntag_31:\n    /* \"#utility.yul\":761:796   */\n  swap1\n  pop\n    /* \"#utility.yul\":706:802   */\n  swap2\n  swap1\n  pop\n  jump\t// out\n    /* \"#utility.yul\":808:932   */\ntag_33:\n    /* \"#utility.yul\":873:880   */\n  0x00\n    /* \"#utility.yul\":902:926   */\n  tag_35\n    /* \"#utility.yul\":920:925   */\n  dup3\n    /* \"#utility.yul\":902:926   */\n  tag_29\n  jump\t// in\ntag_35:\n    /* \"#utility.yul\":891:926   */\n  swap1\n  pop\n    /* \"#utility.yul\":808:932   */\n  swap2\n  swap1\n  pop\n  jump\t// out\n    /* \"#utility.yul\":938:1064   */\ntag_32:\n    /* \"#utility.yul\":975:982   */\n  0x00\n    /* \"#utility.yul\":1015:1057   */\n  0xffffffffffffffffffffffffffffffffffffffff\n    /* \"#utility.yul\":1008:1013   */\n  dup3\n    /* \"#utility.yul\":1004:1058   */\n  and\n    /* \"#utility.yul\":993:1058   */\n  swap1\n  pop\n    /* \"#utility.yul\":938:1064   */\n  swap2\n  swap1\n  pop\n  jump\t// out\n    /* \"#utility.yul\":1193:1310   */\ntag_25:\n    /* \"#utility.yul\":1302:1303   */\n  0x00\n    /* \"#utility.yul\":1299:1300   */\n  dup1\n    /* \"#utility.yul\":1292:1304   */\n  revert\n    /* \"#utility.yul\":1316:1494   */\ntag_21:\n    /* \"#utility.yul\":1417:1469   */\n  tag_41\n    /* \"#utility.yul\":1463:1468   */\n  dup2\n    /* \"#utility.yul\":1417:1469   */\n  tag_33\n  jump\t// in\ntag_41:\n    /* \"#utility.yul\":1410:1415   */\n  dup2\n    /* \"#utility.yul\":1407:1470   */\n  eq\n    /* \"#utility.yul\":1397:1488   */\n  tag_42\n  jumpi\n    /* \"#utility.yul\":1484:1485   */\n  0x00\n    /* \"#utility.yul\":1481:1482   */\n  dup1\n    /* \"#utility.yul\":1474:1486   */\n  revert\n    /* \"#utility.yul\":1397:1488   */\ntag_42:\n    /* \"#utility.yul\":1316:1494   */\n  pop\n  jump\t// out\n    /* \"facets/CommunicationFacet.sol\":141:796  contract CommunicationFacet is Ownable, GateableFacet {... */\ntag_14:\n  dataSize(sub_0)\n  dup1\n  dataOffset(sub_0)\n  0x00\n  codecopy\n  0x00\n  return\nstop\n\nsub_0: assembly {\n        /* \"facets/CommunicationFacet.sol\":141:796  contract CommunicationFacet is Ownable, GateableFacet {... */\n      mstore(0x40, 0x80)\n      callvalue\n      dup1\n      iszero\n      tag_1\n      jumpi\n      0x00\n      dup1\n      revert\n    tag_1:\n      pop\n      jumpi(tag_2, lt(calldatasize, 0x04))\n      shr(0xe0, calldataload(0x00))\n      dup1\n      0x8da5cb5b\n      gt\n      tag_10\n      jumpi\n      dup1\n      0x8da5cb5b\n      eq\n      tag_6\n      jumpi\n      dup1\n      0xdce8a955\n      eq\n      tag_7\n      jumpi\n      dup1\n      0xe137cfd6\n      eq\n      tag_8\n      jumpi\n      dup1\n      0xf2fde38b\n      eq\n      tag_9\n      jumpi\n      jump(tag_2)\n    tag_10:\n      dup1\n      0x436e99f3\n      eq\n      tag_3\n      jumpi\n      dup1\n      0x5f7690b3\n      eq\n      tag_4\n      jumpi\n      dup1\n      0x715018a6\n      eq\n      tag_5\n      jumpi\n    tag_2:\n      0x00\n      dup1\n      revert\n        /* \"facets/CommunicationFacet.sol\":676:793  function postVibe_unauthorised(string memory someParam) credentialCallback external {... */\n    tag_3:\n      tag_11\n      0x04\n      dup1\n      calldatasize\n      sub\n      dup2\n      add\n      swap1\n      tag_12\n      swap2\n      swap1\n      tag_13\n      jump\t// in\n    tag_12:\n      tag_14\n      jump\t// in\n    tag_11:\n      stop\n        /* \"facets/GateableFacet.sol\":165:209  CredentialEventFacet public CREDENTIAL_EVENT */\n    tag_4:\n      tag_15\n      tag_16\n      jump\t// in\n    tag_15:\n      mload(0x40)\n      tag_17\n      swap2\n      swap1\n      tag_18\n      jump\t// in\n    tag_17:\n      mload(0x40)\n      dup1\n      swap2\n      sub\n      swap1\n      return\n        /* \"@openzeppelin/contracts/access/Ownable.sol\":1668:1769  function renounceOwnership() public virtual onlyOwner {... */\n    tag_5:\n      tag_19\n      tag_20\n      jump\t// in\n    tag_19:\n      stop\n        /* \"@openzeppelin/contracts/access/Ownable.sol\":1036:1121  function owner() public view virtual returns (address) {... */\n    tag_6:\n      tag_21\n      tag_22\n      jump\t// in\n    tag_21:\n      mload(0x40)\n      tag_23\n      swap2\n      swap1\n      tag_24\n      jump\t// in\n    tag_23:\n      mload(0x40)\n      dup1\n      swap2\n      sub\n      swap1\n      return\n        /* \"facets/CommunicationFacet.sol\":540:674  function postVibe_authorised(string memory someParam, bytes[] memory proof) credentialCallback external {... */\n    tag_7:\n      tag_25\n      0x04\n      dup1\n      calldatasize\n      sub\n      dup2\n      add\n      swap1\n      tag_26\n      swap2\n      swap1\n      tag_27\n      jump\t// in\n    tag_26:\n      tag_28\n      jump\t// in\n    tag_25:\n      stop\n        /* \"facets/CommunicationFacet.sol\":370:538  function postVibe(string memory someParam, string memory _listId, string memory thirdparam, uint256 num) has_credential(_listId, address(this), 'postVibe') external {... */\n    tag_8:\n      tag_29\n      0x04\n      dup1\n      calldatasize\n      sub\n      dup2\n      add\n      swap1\n      tag_30\n      swap2\n      swap1\n      tag_31\n      jump\t// in\n    tag_30:\n      tag_32\n      jump\t// in\n    tag_29:\n      stop\n        /* \"@openzeppelin/contracts/access/Ownable.sol\":1918:2116  function transferOwnership(address newOwner) public virtual onlyOwner {... */\n    tag_9:\n      tag_33\n      0x04\n      dup1\n      calldatasize\n      sub\n      dup2\n      add\n      swap1\n      tag_34\n      swap2\n      swap1\n      tag_35\n      jump\t// in\n    tag_34:\n      tag_36\n      jump\t// in\n    tag_33:\n      stop\n        /* \"facets/CommunicationFacet.sol\":676:793  function postVibe_unauthorised(string memory someParam) credentialCallback external {... */\n    tag_14:\n        /* \"facets/GateableFacet.sol\":742:759  CREDENTIAL_ORACLE */\n      0x01\n      0x00\n      swap1\n      sload\n      swap1\n      0x0100\n      exp\n      swap1\n      div\n      0xffffffffffffffffffffffffffffffffffffffff\n      and\n        /* \"facets/GateableFacet.sol\":728:759  msg.sender == CREDENTIAL_ORACLE */\n      0xffffffffffffffffffffffffffffffffffffffff\n      and\n        /* \"facets/GateableFacet.sol\":728:738  msg.sender */\n      caller\n        /* \"facets/GateableFacet.sol\":728:759  msg.sender == CREDENTIAL_ORACLE */\n      0xffffffffffffffffffffffffffffffffffffffff\n      and\n      eq\n        /* \"facets/GateableFacet.sol\":720:823  require(msg.sender == CREDENTIAL_ORACLE, \"Credential CallBack: Only the oracle can call this function\") */\n      tag_38\n      jumpi\n      mload(0x40)\n      0x08c379a000000000000000000000000000000000000000000000000000000000\n      dup2\n      mstore\n      0x04\n      add\n      tag_39\n      swap1\n      tag_40\n      jump\t// in\n    tag_39:\n      mload(0x40)\n      dup1\n      swap2\n      sub\n      swap1\n      revert\n    tag_38:\n        /* \"facets/CommunicationFacet.sol\":676:793  function postVibe_unauthorised(string memory someParam) credentialCallback external {... */\n      pop\n      jump\t// out\n        /* \"facets/GateableFacet.sol\":165:209  CredentialEventFacet public CREDENTIAL_EVENT */\n    tag_16:\n      0x02\n      0x00\n      swap1\n      sload\n      swap1\n      0x0100\n      exp\n      swap1\n      div\n      0xffffffffffffffffffffffffffffffffffffffff\n      and\n      dup2\n      jump\t// out\n        /* \"@openzeppelin/contracts/access/Ownable.sol\":1668:1769  function renounceOwnership() public virtual onlyOwner {... */\n    tag_20:\n        /* \"@openzeppelin/contracts/access/Ownable.sol\":1259:1271  _msgSender() */\n      tag_43\n        /* \"@openzeppelin/contracts/access/Ownable.sol\":1259:1269  _msgSender */\n      tag_44\n        /* \"@openzeppelin/contracts/access/Ownable.sol\":1259:1271  _msgSender() */\n      jump\t// in\n    tag_43:\n        /* \"@openzeppelin/contracts/access/Ownable.sol\":1248:1271  owner() == _msgSender() */\n      0xffffffffffffffffffffffffffffffffffffffff\n      and\n        /* \"@openzeppelin/contracts/access/Ownable.sol\":1248:1255  owner() */\n      tag_45\n        /* \"@openzeppelin/contracts/access/Ownable.sol\":1248:1253  owner */\n      tag_22\n        /* \"@openzeppelin/contracts/access/Ownable.sol\":1248:1255  owner() */\n      jump\t// in\n    tag_45:\n        /* \"@openzeppelin/contracts/access/Ownable.sol\":1248:1271  owner() == _msgSender() */\n      0xffffffffffffffffffffffffffffffffffffffff\n      and\n      eq\n        /* \"@openzeppelin/contracts/access/Ownable.sol\":1240:1308  require(owner() == _msgSender(), \"Ownable: caller is not the owner\") */\n      tag_46\n      jumpi\n      mload(0x40)\n      0x08c379a000000000000000000000000000000000000000000000000000000000\n      dup2\n      mstore\n      0x04\n      add\n      tag_47\n      swap1\n      tag_48\n      jump\t// in\n    tag_47:\n      mload(0x40)\n      dup1\n      swap2\n      sub\n      swap1\n      revert\n    tag_46:\n        /* \"@openzeppelin/contracts/access/Ownable.sol\":1732:1762  _transferOwnership(address(0)) */\n      tag_50\n        /* \"@openzeppelin/contracts/access/Ownable.sol\":1759:1760  0 */\n      0x00\n        /* \"@openzeppelin/contracts/access/Ownable.sol\":1732:1750  _transferOwnership */\n      tag_51\n        /* \"@openzeppelin/contracts/access/Ownable.sol\":1732:1762  _transferOwnership(address(0)) */\n      jump\t// in\n    tag_50:\n        /* \"@openzeppelin/contracts/access/Ownable.sol\":1668:1769  function renounceOwnership() public virtual onlyOwner {... */\n      jump\t// out\n        /* \"@openzeppelin/contracts/access/Ownable.sol\":1036:1121  function owner() public view virtual returns (address) {... */\n    tag_22:\n        /* \"@openzeppelin/contracts/access/Ownable.sol\":1082:1089  address */\n      0x00\n        /* \"@openzeppelin/contracts/access/Ownable.sol\":1108:1114  _owner */\n      dup1\n      0x00\n      swap1\n      sload\n      swap1\n      0x0100\n      exp\n      swap1\n      div\n      0xffffffffffffffffffffffffffffffffffffffff\n      and\n        /* \"@openzeppelin/contracts/access/Ownable.sol\":1101:1114  return _owner */\n      swap1\n      pop\n        /* \"@openzeppelin/contracts/access/Ownable.sol\":1036:1121  function owner() public view virtual returns (address) {... */\n      swap1\n      jump\t// out\n        /* \"facets/CommunicationFacet.sol\":540:674  function postVibe_authorised(string memory someParam, bytes[] memory proof) credentialCallback external {... */\n    tag_28:\n        /* \"facets/GateableFacet.sol\":742:759  CREDENTIAL_ORACLE */\n      0x01\n      0x00\n      swap1\n      sload\n      swap1\n      0x0100\n      exp\n      swap1\n      div\n      0xffffffffffffffffffffffffffffffffffffffff\n      and\n        /* \"facets/GateableFacet.sol\":728:759  msg.sender == CREDENTIAL_ORACLE */\n      0xffffffffffffffffffffffffffffffffffffffff\n      and\n        /* \"facets/GateableFacet.sol\":728:738  msg.sender */\n      caller\n        /* \"facets/GateableFacet.sol\":728:759  msg.sender == CREDENTIAL_ORACLE */\n      0xffffffffffffffffffffffffffffffffffffffff\n      and\n      eq\n        /* \"facets/GateableFacet.sol\":720:823  require(msg.sender == CREDENTIAL_ORACLE, \"Credential CallBack: Only the oracle can call this function\") */\n      tag_54\n      jumpi\n      mload(0x40)\n      0x08c379a000000000000000000000000000000000000000000000000000000000\n      dup2\n      mstore\n      0x04\n      add\n      tag_55\n      swap1\n      tag_40\n      jump\t// in\n    tag_55:\n      mload(0x40)\n      dup1\n      swap2\n      sub\n      swap1\n      revert\n    tag_54:\n        /* \"facets/CommunicationFacet.sol\":540:674  function postVibe_authorised(string memory someParam, bytes[] memory proof) credentialCallback external {... */\n      pop\n      pop\n      jump\t// out\n        /* \"facets/CommunicationFacet.sol\":370:538  function postVibe(string memory someParam, string memory _listId, string memory thirdparam, uint256 num) has_credential(_listId, address(this), 'postVibe') external {... */\n    tag_32:\n        /* \"facets/CommunicationFacet.sol\":490:497  _listId */\n      dup3\n        /* \"facets/CommunicationFacet.sol\":507:511  this */\n      address\n        /* \"facets/GateableFacet.sol\":328:521  modifier has_credential(string memory _list_id, address _contractAddr, string memory _funcName) {... */\n      mload(0x40)\n      dup1\n      0x40\n      add\n      0x40\n      mstore\n      dup1\n      0x08\n      dup2\n      mstore\n      0x20\n      add\n      0x706f737456696265000000000000000000000000000000000000000000000000\n      dup2\n      mstore\n      pop\n        /* \"facets/GateableFacet.sol\":427:443  CREDENTIAL_EVENT */\n      0x02\n      0x00\n      swap1\n      sload\n      swap1\n      0x0100\n      exp\n      swap1\n      div\n      0xffffffffffffffffffffffffffffffffffffffff\n      and\n        /* \"facets/GateableFacet.sol\":427:453  CREDENTIAL_EVENT.emitEvent */\n      0xffffffffffffffffffffffffffffffffffffffff\n      and\n      0xa78d2ba3\n        /* \"facets/GateableFacet.sol\":454:462  _list_id */\n      dup5\n        /* \"facets/GateableFacet.sol\":464:474  msg.sender */\n      caller\n        /* \"facets/GateableFacet.sol\":476:489  _contractAddr */\n      dup6\n        /* \"facets/GateableFacet.sol\":491:500  _funcName */\n      dup6\n        /* \"facets/GateableFacet.sol\":502:510  msg.data */\n      0x00\n      calldatasize\n        /* \"facets/GateableFacet.sol\":427:511  CREDENTIAL_EVENT.emitEvent(_list_id, msg.sender, _contractAddr, _funcName, msg.data) */\n      mload(0x40)\n      dup8\n      0xffffffff\n      and\n      0xe0\n      shl\n      dup2\n      mstore\n      0x04\n      add\n      tag_58\n      swap7\n      swap6\n      swap5\n      swap4\n      swap3\n      swap2\n      swap1\n      tag_59\n      jump\t// in\n    tag_58:\n      0x00\n      mload(0x40)\n      dup1\n      dup4\n      sub\n      dup2\n      0x00\n      dup8\n      dup1\n      extcodesize\n      iszero\n      dup1\n      iszero\n      tag_60\n      jumpi\n      0x00\n      dup1\n      revert\n    tag_60:\n      pop\n      gas\n      call\n      iszero\n      dup1\n      iszero\n      tag_62\n      jumpi\n      returndatasize\n      0x00\n      dup1\n      returndatacopy\n      revert(0x00, returndatasize)\n    tag_62:\n      pop\n      pop\n      pop\n      pop\n        /* \"facets/CommunicationFacet.sol\":370:538  function postVibe(string memory someParam, string memory _listId, string memory thirdparam, uint256 num) has_credential(_listId, address(this), 'postVibe') external {... */\n      pop\n      pop\n      pop\n      pop\n      pop\n      pop\n      pop\n      jump\t// out\n        /* \"@openzeppelin/contracts/access/Ownable.sol\":1918:2116  function transferOwnership(address newOwner) public virtual onlyOwner {... */\n    tag_36:\n        /* \"@openzeppelin/contracts/access/Ownable.sol\":1259:1271  _msgSender() */\n      tag_65\n        /* \"@openzeppelin/contracts/access/Ownable.sol\":1259:1269  _msgSender */\n      tag_44\n        /* \"@openzeppelin/contracts/access/Ownable.sol\":1259:1271  _msgSender() */\n      jump\t// in\n    tag_65:\n        /* \"@openzeppelin/contracts/access/Ownable.sol\":1248:1271  owner() == _msgSender() */\n      0xffffffffffffffffffffffffffffffffffffffff\n      and\n        /* \"@openzeppelin/contracts/access/Ownable.sol\":1248:1255  owner() */\n      tag_66\n        /* \"@openzeppelin/contracts/access/Ownable.sol\":1248:1253  owner */\n      tag_22\n        /* \"@openzeppelin/contracts/access/Ownable.sol\":1248:1255  owner() */\n      jump\t// in\n    tag_66:\n        /* \"@openzeppelin/contracts/access/Ownable.sol\":1248:1271  owner() == _msgSender() */\n      0xffffffffffffffffffffffffffffffffffffffff\n      and\n      eq\n        /* \"@openzeppelin/contracts/access/Ownable.sol\":1240:1308  require(owner() == _msgSender(), \"Ownable: caller is not the owner\") */\n      tag_67\n      jumpi\n      mload(0x40)\n      0x08c379a000000000000000000000000000000000000000000000000000000000\n      dup2\n      mstore\n      0x04\n      add\n      tag_68\n      swap1\n      tag_48\n      jump\t// in\n    tag_68:\n      mload(0x40)\n      dup1\n      swap2\n      sub\n      swap1\n      revert\n    tag_67:\n        /* \"@openzeppelin/contracts/access/Ownable.sol\":2026:2027  0 */\n      0x00\n        /* \"@openzeppelin/contracts/access/Ownable.sol\":2006:2028  newOwner != address(0) */\n      0xffffffffffffffffffffffffffffffffffffffff\n      and\n        /* \"@openzeppelin/contracts/access/Ownable.sol\":2006:2014  newOwner */\n      dup2\n        /* \"@openzeppelin/contracts/access/Ownable.sol\":2006:2028  newOwner != address(0) */\n      0xffffffffffffffffffffffffffffffffffffffff\n      and\n      eq\n      iszero\n        /* \"@openzeppelin/contracts/access/Ownable.sol\":1998:2071  require(newOwner != address(0), \"Ownable: new owner is the zero address\") */\n      tag_70\n      jumpi\n      mload(0x40)\n      0x08c379a000000000000000000000000000000000000000000000000000000000\n      dup2\n      mstore\n      0x04\n      add\n      tag_71\n      swap1\n      tag_72\n      jump\t// in\n    tag_71:\n      mload(0x40)\n      dup1\n      swap2\n      sub\n      swap1\n      revert\n    tag_70:\n        /* \"@openzeppelin/contracts/access/Ownable.sol\":2081:2109  _transferOwnership(newOwner) */\n      tag_73\n        /* \"@openzeppelin/contracts/access/Ownable.sol\":2100:2108  newOwner */\n      dup2\n        /* \"@openzeppelin/contracts/access/Ownable.sol\":2081:2099  _transferOwnership */\n      tag_51\n        /* \"@openzeppelin/contracts/access/Ownable.sol\":2081:2109  _transferOwnership(newOwner) */\n      jump\t// in\n    tag_73:\n        /* \"@openzeppelin/contracts/access/Ownable.sol\":1918:2116  function transferOwnership(address newOwner) public virtual onlyOwner {... */\n      pop\n      jump\t// out\n        /* \"@openzeppelin/contracts/utils/Context.sol\":640:736  function _msgSender() internal view virtual returns (address) {... */\n    tag_44:\n        /* \"@openzeppelin/contracts/utils/Context.sol\":693:700  address */\n      0x00\n        /* \"@openzeppelin/contracts/utils/Context.sol\":719:729  msg.sender */\n      caller\n        /* \"@openzeppelin/contracts/utils/Context.sol\":712:729  return msg.sender */\n      swap1\n      pop\n        /* \"@openzeppelin/contracts/utils/Context.sol\":640:736  function _msgSender() internal view virtual returns (address) {... */\n      swap1\n      jump\t// out\n        /* \"@openzeppelin/contracts/access/Ownable.sol\":2270:2457  function _transferOwnership(address newOwner) internal virtual {... */\n    tag_51:\n        /* \"@openzeppelin/contracts/access/Ownable.sol\":2343:2359  address oldOwner */\n      0x00\n        /* \"@openzeppelin/contracts/access/Ownable.sol\":2362:2368  _owner */\n      dup1\n      0x00\n      swap1\n      sload\n      swap1\n      0x0100\n      exp\n      swap1\n      div\n      0xffffffffffffffffffffffffffffffffffffffff\n      and\n        /* \"@openzeppelin/contracts/access/Ownable.sol\":2343:2368  address oldOwner = _owner */\n      swap1\n      pop\n        /* \"@openzeppelin/contracts/access/Ownable.sol\":2387:2395  newOwner */\n      dup2\n        /* \"@openzeppelin/contracts/access/Ownable.sol\":2378:2384  _owner */\n      0x00\n      dup1\n        /* \"@openzeppelin/contracts/access/Ownable.sol\":2378:2395  _owner = newOwner */\n      0x0100\n      exp\n      dup2\n      sload\n      dup2\n      0xffffffffffffffffffffffffffffffffffffffff\n      mul\n      not\n      and\n      swap1\n      dup4\n      0xffffffffffffffffffffffffffffffffffffffff\n      and\n      mul\n      or\n      swap1\n      sstore\n      pop\n        /* \"@openzeppelin/contracts/access/Ownable.sol\":2441:2449  newOwner */\n      dup2\n        /* \"@openzeppelin/contracts/access/Ownable.sol\":2410:2450  OwnershipTransferred(oldOwner, newOwner) */\n      0xffffffffffffffffffffffffffffffffffffffff\n      and\n        /* \"@openzeppelin/contracts/access/Ownable.sol\":2431:2439  oldOwner */\n      dup2\n        /* \"@openzeppelin/contracts/access/Ownable.sol\":2410:2450  OwnershipTransferred(oldOwner, newOwner) */\n      0xffffffffffffffffffffffffffffffffffffffff\n      and\n      0x8be0079c531659141344cd1fd0a4f28419497f9722a3daafe3b4186f6b6457e0\n      mload(0x40)\n      mload(0x40)\n      dup1\n      swap2\n      sub\n      swap1\n      log3\n        /* \"@openzeppelin/contracts/access/Ownable.sol\":2333:2457  {... */\n      pop\n        /* \"@openzeppelin/contracts/access/Ownable.sol\":2270:2457  function _transferOwnership(address newOwner) internal virtual {... */\n      pop\n      jump\t// out\n        /* \"#utility.yul\":22:976   */\n    tag_77:\n        /* \"#utility.yul\":127:132   */\n      0x00\n        /* \"#utility.yul\":152:242   */\n      tag_79\n        /* \"#utility.yul\":168:241   */\n      tag_80\n        /* \"#utility.yul\":234:240   */\n      dup5\n        /* \"#utility.yul\":168:241   */\n      tag_81\n      jump\t// in\n    tag_80:\n        /* \"#utility.yul\":152:242   */\n      tag_82\n      jump\t// in\n    tag_79:\n        /* \"#utility.yul\":143:242   */\n      swap1\n      pop\n        /* \"#utility.yul\":262:267   */\n      dup1\n        /* \"#utility.yul\":291:297   */\n      dup4\n        /* \"#utility.yul\":284:289   */\n      dup3\n        /* \"#utility.yul\":277:298   */\n      mstore\n        /* \"#utility.yul\":325:329   */\n      0x20\n        /* \"#utility.yul\":318:323   */\n      dup3\n        /* \"#utility.yul\":314:330   */\n      add\n        /* \"#utility.yul\":307:330   */\n      swap1\n      pop\n        /* \"#utility.yul\":351:357   */\n      dup3\n        /* \"#utility.yul\":401:404   */\n      dup6\n        /* \"#utility.yul\":393:397   */\n      0x20\n        /* \"#utility.yul\":385:391   */\n      dup7\n        /* \"#utility.yul\":381:398   */\n      mul\n        /* \"#utility.yul\":376:379   */\n      dup3\n        /* \"#utility.yul\":372:399   */\n      add\n        /* \"#utility.yul\":369:405   */\n      gt\n        /* \"#utility.yul\":366:509   */\n      iszero\n      tag_83\n      jumpi\n        /* \"#utility.yul\":420:499   */\n      tag_84\n      tag_85\n      jump\t// in\n    tag_84:\n        /* \"#utility.yul\":366:509   */\n    tag_83:\n        /* \"#utility.yul\":533:534   */\n      0x00\n        /* \"#utility.yul\":518:970   */\n    tag_86:\n        /* \"#utility.yul\":543:549   */\n      dup6\n        /* \"#utility.yul\":540:541   */\n      dup2\n        /* \"#utility.yul\":537:550   */\n      lt\n        /* \"#utility.yul\":518:970   */\n      iszero\n      tag_88\n      jumpi\n        /* \"#utility.yul\":625:628   */\n      dup2\n        /* \"#utility.yul\":612:629   */\n      calldataload\n        /* \"#utility.yul\":661:679   */\n      0xffffffffffffffff\n        /* \"#utility.yul\":648:659   */\n      dup2\n        /* \"#utility.yul\":645:680   */\n      gt\n        /* \"#utility.yul\":642:764   */\n      iszero\n      tag_89\n      jumpi\n        /* \"#utility.yul\":683:762   */\n      tag_90\n      tag_91\n      jump\t// in\n    tag_90:\n        /* \"#utility.yul\":642:764   */\n    tag_89:\n        /* \"#utility.yul\":807:818   */\n      dup1\n        /* \"#utility.yul\":799:805   */\n      dup7\n        /* \"#utility.yul\":795:819   */\n      add\n        /* \"#utility.yul\":845:891   */\n      tag_92\n        /* \"#utility.yul\":887:890   */\n      dup10\n        /* \"#utility.yul\":875:885   */\n      dup3\n        /* \"#utility.yul\":845:891   */\n      tag_93\n      jump\t// in\n    tag_92:\n        /* \"#utility.yul\":840:843   */\n      dup6\n        /* \"#utility.yul\":833:892   */\n      mstore\n        /* \"#utility.yul\":921:925   */\n      0x20\n        /* \"#utility.yul\":916:919   */\n      dup6\n        /* \"#utility.yul\":912:926   */\n      add\n        /* \"#utility.yul\":905:926   */\n      swap5\n      pop\n        /* \"#utility.yul\":955:959   */\n      0x20\n        /* \"#utility.yul\":950:953   */\n      dup5\n        /* \"#utility.yul\":946:960   */\n      add\n        /* \"#utility.yul\":939:960   */\n      swap4\n      pop\n        /* \"#utility.yul\":578:970   */\n      pop\n      pop\n        /* \"#utility.yul\":565:566   */\n      0x01\n        /* \"#utility.yul\":562:563   */\n      dup2\n        /* \"#utility.yul\":558:567   */\n      add\n        /* \"#utility.yul\":553:567   */\n      swap1\n      pop\n        /* \"#utility.yul\":518:970   */\n      jump(tag_86)\n    tag_88:\n        /* \"#utility.yul\":522:536   */\n      pop\n        /* \"#utility.yul\":133:976   */\n      pop\n      pop\n        /* \"#utility.yul\":22:976   */\n      swap4\n      swap3\n      pop\n      pop\n      pop\n      jump\t// out\n        /* \"#utility.yul\":982:1392   */\n    tag_94:\n        /* \"#utility.yul\":1059:1064   */\n      0x00\n        /* \"#utility.yul\":1084:1149   */\n      tag_96\n        /* \"#utility.yul\":1100:1148   */\n      tag_97\n        /* \"#utility.yul\":1141:1147   */\n      dup5\n        /* \"#utility.yul\":1100:1148   */\n      tag_98\n      jump\t// in\n    tag_97:\n        /* \"#utility.yul\":1084:1149   */\n      tag_82\n      jump\t// in\n    tag_96:\n        /* \"#utility.yul\":1075:1149   */\n      swap1\n      pop\n        /* \"#utility.yul\":1172:1178   */\n      dup3\n        /* \"#utility.yul\":1165:1170   */\n      dup2\n        /* \"#utility.yul\":1158:1179   */\n      mstore\n        /* \"#utility.yul\":1210:1214   */\n      0x20\n        /* \"#utility.yul\":1203:1208   */\n      dup2\n        /* \"#utility.yul\":1199:1215   */\n      add\n        /* \"#utility.yul\":1248:1251   */\n      dup5\n        /* \"#utility.yul\":1239:1245   */\n      dup5\n        /* \"#utility.yul\":1234:1237   */\n      dup5\n        /* \"#utility.yul\":1230:1246   */\n      add\n        /* \"#utility.yul\":1227:1252   */\n      gt\n        /* \"#utility.yul\":1224:1336   */\n      iszero\n      tag_99\n      jumpi\n        /* \"#utility.yul\":1255:1334   */\n      tag_100\n      tag_101\n      jump\t// in\n    tag_100:\n        /* \"#utility.yul\":1224:1336   */\n    tag_99:\n        /* \"#utility.yul\":1345:1386   */\n      tag_102\n        /* \"#utility.yul\":1379:1385   */\n      dup5\n        /* \"#utility.yul\":1374:1377   */\n      dup3\n        /* \"#utility.yul\":1369:1372   */\n      dup6\n        /* \"#utility.yul\":1345:1386   */\n      tag_103\n      jump\t// in\n    tag_102:\n        /* \"#utility.yul\":1065:1392   */\n      pop\n        /* \"#utility.yul\":982:1392   */\n      swap4\n      swap3\n      pop\n      pop\n      pop\n      jump\t// out\n        /* \"#utility.yul\":1398:1810   */\n    tag_104:\n        /* \"#utility.yul\":1476:1481   */\n      0x00\n        /* \"#utility.yul\":1501:1567   */\n      tag_106\n        /* \"#utility.yul\":1517:1566   */\n      tag_107\n        /* \"#utility.yul\":1559:1565   */\n      dup5\n        /* \"#utility.yul\":1517:1566   */\n      tag_108\n      jump\t// in\n    tag_107:\n        /* \"#utility.yul\":1501:1567   */\n      tag_82\n      jump\t// in\n    tag_106:\n        /* \"#utility.yul\":1492:1567   */\n      swap1\n      pop\n        /* \"#utility.yul\":1590:1596   */\n      dup3\n        /* \"#utility.yul\":1583:1588   */\n      dup2\n        /* \"#utility.yul\":1576:1597   */\n      mstore\n        /* \"#utility.yul\":1628:1632   */\n      0x20\n        /* \"#utility.yul\":1621:1626   */\n      dup2\n        /* \"#utility.yul\":1617:1633   */\n      add\n        /* \"#utility.yul\":1666:1669   */\n      dup5\n        /* \"#utility.yul\":1657:1663   */\n      dup5\n        /* \"#utility.yul\":1652:1655   */\n      dup5\n        /* \"#utility.yul\":1648:1664   */\n      add\n        /* \"#utility.yul\":1645:1670   */\n      gt\n        /* \"#utility.yul\":1642:1754   */\n      iszero\n      tag_109\n      jumpi\n        /* \"#utility.yul\":1673:1752   */\n      tag_110\n      tag_101\n      jump\t// in\n    tag_110:\n        /* \"#utility.yul\":1642:1754   */\n    tag_109:\n        /* \"#utility.yul\":1763:1804   */\n      tag_111\n        /* \"#utility.yul\":1797:1803   */\n      dup5\n        /* \"#utility.yul\":1792:1795   */\n      dup3\n        /* \"#utility.yul\":1787:1790   */\n      dup6\n        /* \"#utility.yul\":1763:1804   */\n      tag_103\n      jump\t// in\n    tag_111:\n        /* \"#utility.yul\":1482:1810   */\n      pop\n        /* \"#utility.yul\":1398:1810   */\n      swap4\n      swap3\n      pop\n      pop\n      pop\n      jump\t// out\n        /* \"#utility.yul\":1816:1955   */\n    tag_112:\n        /* \"#utility.yul\":1862:1867   */\n      0x00\n        /* \"#utility.yul\":1900:1906   */\n      dup2\n        /* \"#utility.yul\":1887:1907   */\n      calldataload\n        /* \"#utility.yul\":1878:1907   */\n      swap1\n      pop\n        /* \"#utility.yul\":1916:1949   */\n      tag_114\n        /* \"#utility.yul\":1943:1948   */\n      dup2\n        /* \"#utility.yul\":1916:1949   */\n      tag_115\n      jump\t// in\n    tag_114:\n        /* \"#utility.yul\":1816:1955   */\n      swap3\n      swap2\n      pop\n      pop\n      jump\t// out\n        /* \"#utility.yul\":1976:2364   */\n    tag_116:\n        /* \"#utility.yul\":2056:2061   */\n      0x00\n        /* \"#utility.yul\":2105:2108   */\n      dup3\n        /* \"#utility.yul\":2098:2102   */\n      0x1f\n        /* \"#utility.yul\":2090:2096   */\n      dup4\n        /* \"#utility.yul\":2086:2103   */\n      add\n        /* \"#utility.yul\":2082:2109   */\n      slt\n        /* \"#utility.yul\":2072:2194   */\n      tag_118\n      jumpi\n        /* \"#utility.yul\":2113:2192   */\n      tag_119\n      tag_91\n      jump\t// in\n    tag_119:\n        /* \"#utility.yul\":2072:2194   */\n    tag_118:\n        /* \"#utility.yul\":2230:2236   */\n      dup2\n        /* \"#utility.yul\":2217:2237   */\n      calldataload\n        /* \"#utility.yul\":2255:2358   */\n      tag_120\n        /* \"#utility.yul\":2354:2357   */\n      dup5\n        /* \"#utility.yul\":2346:2352   */\n      dup3\n        /* \"#utility.yul\":2339:2343   */\n      0x20\n        /* \"#utility.yul\":2331:2337   */\n      dup7\n        /* \"#utility.yul\":2327:2344   */\n      add\n        /* \"#utility.yul\":2255:2358   */\n      tag_77\n      jump\t// in\n    tag_120:\n        /* \"#utility.yul\":2246:2358   */\n      swap2\n      pop\n        /* \"#utility.yul\":2062:2364   */\n      pop\n        /* \"#utility.yul\":1976:2364   */\n      swap3\n      swap2\n      pop\n      pop\n      jump\t// out\n        /* \"#utility.yul\":2383:2721   */\n    tag_93:\n        /* \"#utility.yul\":2438:2443   */\n      0x00\n        /* \"#utility.yul\":2487:2490   */\n      dup3\n        /* \"#utility.yul\":2480:2484   */\n      0x1f\n        /* \"#utility.yul\":2472:2478   */\n      dup4\n        /* \"#utility.yul\":2468:2485   */\n      add\n        /* \"#utility.yul\":2464:2491   */\n      slt\n        /* \"#utility.yul\":2454:2576   */\n      tag_122\n      jumpi\n        /* \"#utility.yul\":2495:2574   */\n      tag_123\n      tag_91\n      jump\t// in\n    tag_123:\n        /* \"#utility.yul\":2454:2576   */\n    tag_122:\n        /* \"#utility.yul\":2612:2618   */\n      dup2\n        /* \"#utility.yul\":2599:2619   */\n      calldataload\n        /* \"#utility.yul\":2637:2715   */\n      tag_124\n        /* \"#utility.yul\":2711:2714   */\n      dup5\n        /* \"#utility.yul\":2703:2709   */\n      dup3\n        /* \"#utility.yul\":2696:2700   */\n      0x20\n        /* \"#utility.yul\":2688:2694   */\n      dup7\n        /* \"#utility.yul\":2684:2701   */\n      add\n        /* \"#utility.yul\":2637:2715   */\n      tag_94\n      jump\t// in\n    tag_124:\n        /* \"#utility.yul\":2628:2715   */\n      swap2\n      pop\n        /* \"#utility.yul\":2444:2721   */\n      pop\n        /* \"#utility.yul\":2383:2721   */\n      swap3\n      swap2\n      pop\n      pop\n      jump\t// out\n        /* \"#utility.yul\":2741:3081   */\n    tag_125:\n        /* \"#utility.yul\":2797:2802   */\n      0x00\n        /* \"#utility.yul\":2846:2849   */\n      dup3\n        /* \"#utility.yul\":2839:2843   */\n      0x1f\n        /* \"#utility.yul\":2831:2837   */\n      dup4\n        /* \"#utility.yul\":2827:2844   */\n      add\n        /* \"#utility.yul\":2823:2850   */\n      slt\n        /* \"#utility.yul\":2813:2935   */\n      tag_127\n      jumpi\n        /* \"#utility.yul\":2854:2933   */\n      tag_128\n      tag_91\n      jump\t// in\n    tag_128:\n        /* \"#utility.yul\":2813:2935   */\n    tag_127:\n        /* \"#utility.yul\":2971:2977   */\n      dup2\n        /* \"#utility.yul\":2958:2978   */\n      calldataload\n        /* \"#utility.yul\":2996:3075   */\n      tag_129\n        /* \"#utility.yul\":3071:3074   */\n      dup5\n        /* \"#utility.yul\":3063:3069   */\n      dup3\n        /* \"#utility.yul\":3056:3060   */\n      0x20\n        /* \"#utility.yul\":3048:3054   */\n      dup7\n        /* \"#utility.yul\":3044:3061   */\n      add\n        /* \"#utility.yul\":2996:3075   */\n      tag_104\n      jump\t// in\n    tag_129:\n        /* \"#utility.yul\":2987:3075   */\n      swap2\n      pop\n        /* \"#utility.yul\":2803:3081   */\n      pop\n        /* \"#utility.yul\":2741:3081   */\n      swap3\n      swap2\n      pop\n      pop\n      jump\t// out\n        /* \"#utility.yul\":3087:3226   */\n    tag_130:\n        /* \"#utility.yul\":3133:3138   */\n      0x00\n        /* \"#utility.yul\":3171:3177   */\n      dup2\n        /* \"#utility.yul\":3158:3178   */\n      calldataload\n        /* \"#utility.yul\":3149:3178   */\n      swap1\n      pop\n        /* \"#utility.yul\":3187:3220   */\n      tag_132\n        /* \"#utility.yul\":3214:3219   */\n      dup2\n        /* \"#utility.yul\":3187:3220   */\n      tag_133\n      jump\t// in\n    tag_132:\n        /* \"#utility.yul\":3087:3226   */\n      swap3\n      swap2\n      pop\n      pop\n      jump\t// out\n        /* \"#utility.yul\":3232:3561   */\n    tag_35:\n        /* \"#utility.yul\":3291:3297   */\n      0x00\n        /* \"#utility.yul\":3340:3342   */\n      0x20\n        /* \"#utility.yul\":3328:3337   */\n      dup3\n        /* \"#utility.yul\":3319:3326   */\n      dup5\n        /* \"#utility.yul\":3315:3338   */\n      sub\n        /* \"#utility.yul\":3311:3343   */\n      slt\n        /* \"#utility.yul\":3308:3427   */\n      iszero\n      tag_135\n      jumpi\n        /* \"#utility.yul\":3346:3425   */\n      tag_136\n      tag_137\n      jump\t// in\n    tag_136:\n        /* \"#utility.yul\":3308:3427   */\n    tag_135:\n        /* \"#utility.yul\":3466:3467   */\n      0x00\n        /* \"#utility.yul\":3491:3544   */\n      tag_138\n        /* \"#utility.yul\":3536:3543   */\n      dup5\n        /* \"#utility.yul\":3527:3533   */\n      dup3\n        /* \"#utility.yul\":3516:3525   */\n      dup6\n        /* \"#utility.yul\":3512:3534   */\n      add\n        /* \"#utility.yul\":3491:3544   */\n      tag_112\n      jump\t// in\n    tag_138:\n        /* \"#utility.yul\":3481:3544   */\n      swap2\n      pop\n        /* \"#utility.yul\":3437:3554   */\n      pop\n        /* \"#utility.yul\":3232:3561   */\n      swap3\n      swap2\n      pop\n      pop\n      jump\t// out\n        /* \"#utility.yul\":3567:4076   */\n    tag_13:\n        /* \"#utility.yul\":3636:3642   */\n      0x00\n        /* \"#utility.yul\":3685:3687   */\n      0x20\n        /* \"#utility.yul\":3673:3682   */\n      dup3\n        /* \"#utility.yul\":3664:3671   */\n      dup5\n        /* \"#utility.yul\":3660:3683   */\n      sub\n        /* \"#utility.yul\":3656:3688   */\n      slt\n        /* \"#utility.yul\":3653:3772   */\n      iszero\n      tag_140\n      jumpi\n        /* \"#utility.yul\":3691:3770   */\n      tag_141\n      tag_137\n      jump\t// in\n    tag_141:\n        /* \"#utility.yul\":3653:3772   */\n    tag_140:\n        /* \"#utility.yul\":3839:3840   */\n      0x00\n        /* \"#utility.yul\":3828:3837   */\n      dup3\n        /* \"#utility.yul\":3824:3841   */\n      add\n        /* \"#utility.yul\":3811:3842   */\n      calldataload\n        /* \"#utility.yul\":3869:3887   */\n      0xffffffffffffffff\n        /* \"#utility.yul\":3861:3867   */\n      dup2\n        /* \"#utility.yul\":3858:3888   */\n      gt\n        /* \"#utility.yul\":3855:3972   */\n      iszero\n      tag_142\n      jumpi\n        /* \"#utility.yul\":3891:3970   */\n      tag_143\n      tag_144\n      jump\t// in\n    tag_143:\n        /* \"#utility.yul\":3855:3972   */\n    tag_142:\n        /* \"#utility.yul\":3996:4059   */\n      tag_145\n        /* \"#utility.yul\":4051:4058   */\n      dup5\n        /* \"#utility.yul\":4042:4048   */\n      dup3\n        /* \"#utility.yul\":4031:4040   */\n      dup6\n        /* \"#utility.yul\":4027:4049   */\n      add\n        /* \"#utility.yul\":3996:4059   */\n      tag_125\n      jump\t// in\n    tag_145:\n        /* \"#utility.yul\":3986:4059   */\n      swap2\n      pop\n        /* \"#utility.yul\":3782:4069   */\n      pop\n        /* \"#utility.yul\":3567:4076   */\n      swap3\n      swap2\n      pop\n      pop\n      jump\t// out\n        /* \"#utility.yul\":4082:4964   */\n    tag_27:\n        /* \"#utility.yul\":4194:4200   */\n      0x00\n        /* \"#utility.yul\":4202:4208   */\n      dup1\n        /* \"#utility.yul\":4251:4253   */\n      0x40\n        /* \"#utility.yul\":4239:4248   */\n      dup4\n        /* \"#utility.yul\":4230:4237   */\n      dup6\n        /* \"#utility.yul\":4226:4249   */\n      sub\n        /* \"#utility.yul\":4222:4254   */\n      slt\n        /* \"#utility.yul\":4219:4338   */\n      iszero\n      tag_147\n      jumpi\n        /* \"#utility.yul\":4257:4336   */\n      tag_148\n      tag_137\n      jump\t// in\n    tag_148:\n        /* \"#utility.yul\":4219:4338   */\n    tag_147:\n        /* \"#utility.yul\":4405:4406   */\n      0x00\n        /* \"#utility.yul\":4394:4403   */\n      dup4\n        /* \"#utility.yul\":4390:4407   */\n      add\n        /* \"#utility.yul\":4377:4408   */\n      calldataload\n        /* \"#utility.yul\":4435:4453   */\n      0xffffffffffffffff\n        /* \"#utility.yul\":4427:4433   */\n      dup2\n        /* \"#utility.yul\":4424:4454   */\n      gt\n        /* \"#utility.yul\":4421:4538   */\n      iszero\n      tag_149\n      jumpi\n        /* \"#utility.yul\":4457:4536   */\n      tag_150\n      tag_144\n      jump\t// in\n    tag_150:\n        /* \"#utility.yul\":4421:4538   */\n    tag_149:\n        /* \"#utility.yul\":4562:4625   */\n      tag_151\n        /* \"#utility.yul\":4617:4624   */\n      dup6\n        /* \"#utility.yul\":4608:4614   */\n      dup3\n        /* \"#utility.yul\":4597:4606   */\n      dup7\n        /* \"#utility.yul\":4593:4615   */\n      add\n        /* \"#utility.yul\":4562:4625   */\n      tag_125\n      jump\t// in\n    tag_151:\n        /* \"#utility.yul\":4552:4625   */\n      swap3\n      pop\n        /* \"#utility.yul\":4348:4635   */\n      pop\n        /* \"#utility.yul\":4702:4704   */\n      0x20\n        /* \"#utility.yul\":4691:4700   */\n      dup4\n        /* \"#utility.yul\":4687:4705   */\n      add\n        /* \"#utility.yul\":4674:4706   */\n      calldataload\n        /* \"#utility.yul\":4733:4751   */\n      0xffffffffffffffff\n        /* \"#utility.yul\":4725:4731   */\n      dup2\n        /* \"#utility.yul\":4722:4752   */\n      gt\n        /* \"#utility.yul\":4719:4836   */\n      iszero\n      tag_152\n      jumpi\n        /* \"#utility.yul\":4755:4834   */\n      tag_153\n      tag_144\n      jump\t// in\n    tag_153:\n        /* \"#utility.yul\":4719:4836   */\n    tag_152:\n        /* \"#utility.yul\":4860:4947   */\n      tag_154\n        /* \"#utility.yul\":4939:4946   */\n      dup6\n        /* \"#utility.yul\":4930:4936   */\n      dup3\n        /* \"#utility.yul\":4919:4928   */\n      dup7\n        /* \"#utility.yul\":4915:4937   */\n      add\n        /* \"#utility.yul\":4860:4947   */\n      tag_116\n      jump\t// in\n    tag_154:\n        /* \"#utility.yul\":4850:4947   */\n      swap2\n      pop\n        /* \"#utility.yul\":4645:4957   */\n      pop\n        /* \"#utility.yul\":4082:4964   */\n      swap3\n      pop\n      swap3\n      swap1\n      pop\n      jump\t// out\n        /* \"#utility.yul\":4970:6275   */\n    tag_31:\n        /* \"#utility.yul\":5086:5092   */\n      0x00\n        /* \"#utility.yul\":5094:5100   */\n      dup1\n        /* \"#utility.yul\":5102:5108   */\n      0x00\n        /* \"#utility.yul\":5110:5116   */\n      dup1\n        /* \"#utility.yul\":5159:5162   */\n      0x80\n        /* \"#utility.yul\":5147:5156   */\n      dup6\n        /* \"#utility.yul\":5138:5145   */\n      dup8\n        /* \"#utility.yul\":5134:5157   */\n      sub\n        /* \"#utility.yul\":5130:5163   */\n      slt\n        /* \"#utility.yul\":5127:5247   */\n      iszero\n      tag_156\n      jumpi\n        /* \"#utility.yul\":5166:5245   */\n      tag_157\n      tag_137\n      jump\t// in\n    tag_157:\n        /* \"#utility.yul\":5127:5247   */\n    tag_156:\n        /* \"#utility.yul\":5314:5315   */\n      0x00\n        /* \"#utility.yul\":5303:5312   */\n      dup6\n        /* \"#utility.yul\":5299:5316   */\n      add\n        /* \"#utility.yul\":5286:5317   */\n      calldataload\n        /* \"#utility.yul\":5344:5362   */\n      0xffffffffffffffff\n        /* \"#utility.yul\":5336:5342   */\n      dup2\n        /* \"#utility.yul\":5333:5363   */\n      gt\n        /* \"#utility.yul\":5330:5447   */\n      iszero\n      tag_158\n      jumpi\n        /* \"#utility.yul\":5366:5445   */\n      tag_159\n      tag_144\n      jump\t// in\n    tag_159:\n        /* \"#utility.yul\":5330:5447   */\n    tag_158:\n        /* \"#utility.yul\":5471:5534   */\n      tag_160\n        /* \"#utility.yul\":5526:5533   */\n      dup8\n        /* \"#utility.yul\":5517:5523   */\n      dup3\n        /* \"#utility.yul\":5506:5515   */\n      dup9\n        /* \"#utility.yul\":5502:5524   */\n      add\n        /* \"#utility.yul\":5471:5534   */\n      tag_125\n      jump\t// in\n    tag_160:\n        /* \"#utility.yul\":5461:5534   */\n      swap5\n      pop\n        /* \"#utility.yul\":5257:5544   */\n      pop\n        /* \"#utility.yul\":5611:5613   */\n      0x20\n        /* \"#utility.yul\":5600:5609   */\n      dup6\n        /* \"#utility.yul\":5596:5614   */\n      add\n        /* \"#utility.yul\":5583:5615   */\n      calldataload\n        /* \"#utility.yul\":5642:5660   */\n      0xffffffffffffffff\n        /* \"#utility.yul\":5634:5640   */\n      dup2\n        /* \"#utility.yul\":5631:5661   */\n      gt\n        /* \"#utility.yul\":5628:5745   */\n      iszero\n      tag_161\n      jumpi\n        /* \"#utility.yul\":5664:5743   */\n      tag_162\n      tag_144\n      jump\t// in\n    tag_162:\n        /* \"#utility.yul\":5628:5745   */\n    tag_161:\n        /* \"#utility.yul\":5769:5832   */\n      tag_163\n        /* \"#utility.yul\":5824:5831   */\n      dup8\n        /* \"#utility.yul\":5815:5821   */\n      dup3\n        /* \"#utility.yul\":5804:5813   */\n      dup9\n        /* \"#utility.yul\":5800:5822   */\n      add\n        /* \"#utility.yul\":5769:5832   */\n      tag_125\n      jump\t// in\n    tag_163:\n        /* \"#utility.yul\":5759:5832   */\n      swap4\n      pop\n        /* \"#utility.yul\":5554:5842   */\n      pop\n        /* \"#utility.yul\":5909:5911   */\n      0x40\n        /* \"#utility.yul\":5898:5907   */\n      dup6\n        /* \"#utility.yul\":5894:5912   */\n      add\n        /* \"#utility.yul\":5881:5913   */\n      calldataload\n        /* \"#utility.yul\":5940:5958   */\n      0xffffffffffffffff\n        /* \"#utility.yul\":5932:5938   */\n      dup2\n        /* \"#utility.yul\":5929:5959   */\n      gt\n        /* \"#utility.yul\":5926:6043   */\n      iszero\n      tag_164\n      jumpi\n        /* \"#utility.yul\":5962:6041   */\n      tag_165\n      tag_144\n      jump\t// in\n    tag_165:\n        /* \"#utility.yul\":5926:6043   */\n    tag_164:\n        /* \"#utility.yul\":6067:6130   */\n      tag_166\n        /* \"#utility.yul\":6122:6129   */\n      dup8\n        /* \"#utility.yul\":6113:6119   */\n      dup3\n        /* \"#utility.yul\":6102:6111   */\n      dup9\n        /* \"#utility.yul\":6098:6120   */\n      add\n        /* \"#utility.yul\":6067:6130   */\n      tag_125\n      jump\t// in\n    tag_166:\n        /* \"#utility.yul\":6057:6130   */\n      swap3\n      pop\n        /* \"#utility.yul\":5852:6140   */\n      pop\n        /* \"#utility.yul\":6179:6181   */\n      0x60\n        /* \"#utility.yul\":6205:6258   */\n      tag_167\n        /* \"#utility.yul\":6250:6257   */\n      dup8\n        /* \"#utility.yul\":6241:6247   */\n      dup3\n        /* \"#utility.yul\":6230:6239   */\n      dup9\n        /* \"#utility.yul\":6226:6248   */\n      add\n        /* \"#utility.yul\":6205:6258   */\n      tag_130\n      jump\t// in\n    tag_167:\n        /* \"#utility.yul\":6195:6258   */\n      swap2\n      pop\n        /* \"#utility.yul\":6150:6268   */\n      pop\n        /* \"#utility.yul\":4970:6275   */\n      swap3\n      swap6\n      swap2\n      swap5\n      pop\n      swap3\n      pop\n      jump\t// out\n        /* \"#utility.yul\":6281:6399   */\n    tag_168:\n        /* \"#utility.yul\":6368:6392   */\n      tag_170\n        /* \"#utility.yul\":6386:6391   */\n      dup2\n        /* \"#utility.yul\":6368:6392   */\n      tag_171\n      jump\t// in\n    tag_170:\n        /* \"#utility.yul\":6363:6366   */\n      dup3\n        /* \"#utility.yul\":6356:6393   */\n      mstore\n        /* \"#utility.yul\":6281:6399   */\n      pop\n      pop\n      jump\t// out\n        /* \"#utility.yul\":6427:6728   */\n    tag_172:\n        /* \"#utility.yul\":6523:6526   */\n      0x00\n        /* \"#utility.yul\":6544:6614   */\n      tag_174\n        /* \"#utility.yul\":6607:6613   */\n      dup4\n        /* \"#utility.yul\":6602:6605   */\n      dup6\n        /* \"#utility.yul\":6544:6614   */\n      tag_175\n      jump\t// in\n    tag_174:\n        /* \"#utility.yul\":6537:6614   */\n      swap4\n      pop\n        /* \"#utility.yul\":6624:6667   */\n      tag_176\n        /* \"#utility.yul\":6660:6666   */\n      dup4\n        /* \"#utility.yul\":6655:6658   */\n      dup6\n        /* \"#utility.yul\":6648:6653   */\n      dup5\n        /* \"#utility.yul\":6624:6667   */\n      tag_103\n      jump\t// in\n    tag_176:\n        /* \"#utility.yul\":6692:6721   */\n      tag_177\n        /* \"#utility.yul\":6714:6720   */\n      dup4\n        /* \"#utility.yul\":6692:6721   */\n      tag_178\n      jump\t// in\n    tag_177:\n        /* \"#utility.yul\":6687:6690   */\n      dup5\n        /* \"#utility.yul\":6683:6722   */\n      add\n        /* \"#utility.yul\":6676:6722   */\n      swap1\n      pop\n        /* \"#utility.yul\":6427:6728   */\n      swap4\n      swap3\n      pop\n      pop\n      pop\n      jump\t// out\n        /* \"#utility.yul\":6734:6921   */\n    tag_179:\n        /* \"#utility.yul\":6849:6914   */\n      tag_181\n        /* \"#utility.yul\":6908:6913   */\n      dup2\n        /* \"#utility.yul\":6849:6914   */\n      tag_182\n      jump\t// in\n    tag_181:\n        /* \"#utility.yul\":6844:6847   */\n      dup3\n        /* \"#utility.yul\":6837:6915   */\n      mstore\n        /* \"#utility.yul\":6734:6921   */\n      pop\n      pop\n      jump\t// out\n        /* \"#utility.yul\":6927:7291   */\n    tag_183:\n        /* \"#utility.yul\":7015:7018   */\n      0x00\n        /* \"#utility.yul\":7043:7082   */\n      tag_185\n        /* \"#utility.yul\":7076:7081   */\n      dup3\n        /* \"#utility.yul\":7043:7082   */\n      tag_186\n      jump\t// in\n    tag_185:\n        /* \"#utility.yul\":7098:7169   */\n      tag_187\n        /* \"#utility.yul\":7162:7168   */\n      dup2\n        /* \"#utility.yul\":7157:7160   */\n      dup6\n        /* \"#utility.yul\":7098:7169   */\n      tag_188\n      jump\t// in\n    tag_187:\n        /* \"#utility.yul\":7091:7169   */\n      swap4\n      pop\n        /* \"#utility.yul\":7178:7230   */\n      tag_189\n        /* \"#utility.yul\":7223:7229   */\n      dup2\n        /* \"#utility.yul\":7218:7221   */\n      dup6\n        /* \"#utility.yul\":7211:7215   */\n      0x20\n        /* \"#utility.yul\":7204:7209   */\n      dup7\n        /* \"#utility.yul\":7200:7216   */\n      add\n        /* \"#utility.yul\":7178:7230   */\n      tag_190\n      jump\t// in\n    tag_189:\n        /* \"#utility.yul\":7255:7284   */\n      tag_191\n        /* \"#utility.yul\":7277:7283   */\n      dup2\n        /* \"#utility.yul\":7255:7284   */\n      tag_178\n      jump\t// in\n    tag_191:\n        /* \"#utility.yul\":7250:7253   */\n      dup5\n        /* \"#utility.yul\":7246:7285   */\n      add\n        /* \"#utility.yul\":7239:7285   */\n      swap2\n      pop\n        /* \"#utility.yul\":7019:7291   */\n      pop\n        /* \"#utility.yul\":6927:7291   */\n      swap3\n      swap2\n      pop\n      pop\n      jump\t// out\n        /* \"#utility.yul\":7297:7663   */\n    tag_192:\n        /* \"#utility.yul\":7439:7442   */\n      0x00\n        /* \"#utility.yul\":7460:7527   */\n      tag_194\n        /* \"#utility.yul\":7524:7526   */\n      0x26\n        /* \"#utility.yul\":7519:7522   */\n      dup4\n        /* \"#utility.yul\":7460:7527   */\n      tag_188\n      jump\t// in\n    tag_194:\n        /* \"#utility.yul\":7453:7527   */\n      swap2\n      pop\n        /* \"#utility.yul\":7536:7629   */\n      tag_195\n        /* \"#utility.yul\":7625:7628   */\n      dup3\n        /* \"#utility.yul\":7536:7629   */\n      tag_196\n      jump\t// in\n    tag_195:\n        /* \"#utility.yul\":7654:7656   */\n      0x40\n        /* \"#utility.yul\":7649:7652   */\n      dup3\n        /* \"#utility.yul\":7645:7657   */\n      add\n        /* \"#utility.yul\":7638:7657   */\n      swap1\n      pop\n        /* \"#utility.yul\":7297:7663   */\n      swap2\n      swap1\n      pop\n      jump\t// out\n        /* \"#utility.yul\":7669:8035   */\n    tag_197:\n        /* \"#utility.yul\":7811:7814   */\n      0x00\n        /* \"#utility.yul\":7832:7899   */\n      tag_199\n        /* \"#utility.yul\":7896:7898   */\n      0x20\n        /* \"#utility.yul\":7891:7894   */\n      dup4\n        /* \"#utility.yul\":7832:7899   */\n      tag_188\n      jump\t// in\n    tag_199:\n        /* \"#utility.yul\":7825:7899   */\n      swap2\n      pop\n        /* \"#utility.yul\":7908:8001   */\n      tag_200\n        /* \"#utility.yul\":7997:8000   */\n      dup3\n        /* \"#utility.yul\":7908:8001   */\n      tag_201\n      jump\t// in\n    tag_200:\n        /* \"#utility.yul\":8026:8028   */\n      0x20\n        /* \"#utility.yul\":8021:8024   */\n      dup3\n        /* \"#utility.yul\":8017:8029   */\n      add\n        /* \"#utility.yul\":8010:8029   */\n      swap1\n      pop\n        /* \"#utility.yul\":7669:8035   */\n      swap2\n      swap1\n      pop\n      jump\t// out\n        /* \"#utility.yul\":8041:8407   */\n    tag_202:\n        /* \"#utility.yul\":8183:8186   */\n      0x00\n        /* \"#utility.yul\":8204:8271   */\n      tag_204\n        /* \"#utility.yul\":8268:8270   */\n      0x3b\n        /* \"#utility.yul\":8263:8266   */\n      dup4\n        /* \"#utility.yul\":8204:8271   */\n      tag_188\n      jump\t// in\n    tag_204:\n        /* \"#utility.yul\":8197:8271   */\n      swap2\n      pop\n        /* \"#utility.yul\":8280:8373   */\n      tag_205\n        /* \"#utility.yul\":8369:8372   */\n      dup3\n        /* \"#utility.yul\":8280:8373   */\n      tag_206\n      jump\t// in\n    tag_205:\n        /* \"#utility.yul\":8398:8400   */\n      0x40\n        /* \"#utility.yul\":8393:8396   */\n      dup3\n        /* \"#utility.yul\":8389:8401   */\n      add\n        /* \"#utility.yul\":8382:8401   */\n      swap1\n      pop\n        /* \"#utility.yul\":8041:8407   */\n      swap2\n      swap1\n      pop\n      jump\t// out\n        /* \"#utility.yul\":8413:8635   */\n    tag_24:\n        /* \"#utility.yul\":8506:8510   */\n      0x00\n        /* \"#utility.yul\":8544:8546   */\n      0x20\n        /* \"#utility.yul\":8533:8542   */\n      dup3\n        /* \"#utility.yul\":8529:8547   */\n      add\n        /* \"#utility.yul\":8521:8547   */\n      swap1\n      pop\n        /* \"#utility.yul\":8557:8628   */\n      tag_208\n        /* \"#utility.yul\":8625:8626   */\n      0x00\n        /* \"#utility.yul\":8614:8623   */\n      dup4\n        /* \"#utility.yul\":8610:8627   */\n      add\n        /* \"#utility.yul\":8601:8607   */\n      dup5\n        /* \"#utility.yul\":8557:8628   */\n      tag_168\n      jump\t// in\n    tag_208:\n        /* \"#utility.yul\":8413:8635   */\n      swap3\n      swap2\n      pop\n      pop\n      jump\t// out\n        /* \"#utility.yul\":8641:8919   */\n    tag_18:\n        /* \"#utility.yul\":8762:8766   */\n      0x00\n        /* \"#utility.yul\":8800:8802   */\n      0x20\n        /* \"#utility.yul\":8789:8798   */\n      dup3\n        /* \"#utility.yul\":8785:8803   */\n      add\n        /* \"#utility.yul\":8777:8803   */\n      swap1\n      pop\n        /* \"#utility.yul\":8813:8912   */\n      tag_210\n        /* \"#utility.yul\":8909:8910   */\n      0x00\n        /* \"#utility.yul\":8898:8907   */\n      dup4\n        /* \"#utility.yul\":8894:8911   */\n      add\n        /* \"#utility.yul\":8885:8891   */\n      dup5\n        /* \"#utility.yul\":8813:8912   */\n      tag_179\n      jump\t// in\n    tag_210:\n        /* \"#utility.yul\":8641:8919   */\n      swap3\n      swap2\n      pop\n      pop\n      jump\t// out\n        /* \"#utility.yul\":8925:9878   */\n    tag_59:\n        /* \"#utility.yul\":9198:9202   */\n      0x00\n        /* \"#utility.yul\":9236:9239   */\n      0xa0\n        /* \"#utility.yul\":9225:9234   */\n      dup3\n        /* \"#utility.yul\":9221:9240   */\n      add\n        /* \"#utility.yul\":9213:9240   */\n      swap1\n      pop\n        /* \"#utility.yul\":9286:9295   */\n      dup2\n        /* \"#utility.yul\":9280:9284   */\n      dup2\n        /* \"#utility.yul\":9276:9296   */\n      sub\n        /* \"#utility.yul\":9272:9273   */\n      0x00\n        /* \"#utility.yul\":9261:9270   */\n      dup4\n        /* \"#utility.yul\":9257:9274   */\n      add\n        /* \"#utility.yul\":9250:9297   */\n      mstore\n        /* \"#utility.yul\":9314:9392   */\n      tag_212\n        /* \"#utility.yul\":9387:9391   */\n      dup2\n        /* \"#utility.yul\":9378:9384   */\n      dup10\n        /* \"#utility.yul\":9314:9392   */\n      tag_183\n      jump\t// in\n    tag_212:\n        /* \"#utility.yul\":9306:9392   */\n      swap1\n      pop\n        /* \"#utility.yul\":9402:9474   */\n      tag_213\n        /* \"#utility.yul\":9470:9472   */\n      0x20\n        /* \"#utility.yul\":9459:9468   */\n      dup4\n        /* \"#utility.yul\":9455:9473   */\n      add\n        /* \"#utility.yul\":9446:9452   */\n      dup9\n        /* \"#utility.yul\":9402:9474   */\n      tag_168\n      jump\t// in\n    tag_213:\n        /* \"#utility.yul\":9484:9556   */\n      tag_214\n        /* \"#utility.yul\":9552:9554   */\n      0x40\n        /* \"#utility.yul\":9541:9550   */\n      dup4\n        /* \"#utility.yul\":9537:9555   */\n      add\n        /* \"#utility.yul\":9528:9534   */\n      dup8\n        /* \"#utility.yul\":9484:9556   */\n      tag_168\n      jump\t// in\n    tag_214:\n        /* \"#utility.yul\":9603:9612   */\n      dup2\n        /* \"#utility.yul\":9597:9601   */\n      dup2\n        /* \"#utility.yul\":9593:9613   */\n      sub\n        /* \"#utility.yul\":9588:9590   */\n      0x60\n        /* \"#utility.yul\":9577:9586   */\n      dup4\n        /* \"#utility.yul\":9573:9591   */\n      add\n        /* \"#utility.yul\":9566:9614   */\n      mstore\n        /* \"#utility.yul\":9631:9709   */\n      tag_215\n        /* \"#utility.yul\":9704:9708   */\n      dup2\n        /* \"#utility.yul\":9695:9701   */\n      dup7\n        /* \"#utility.yul\":9631:9709   */\n      tag_183\n      jump\t// in\n    tag_215:\n        /* \"#utility.yul\":9623:9709   */\n      swap1\n      pop\n        /* \"#utility.yul\":9757:9766   */\n      dup2\n        /* \"#utility.yul\":9751:9755   */\n      dup2\n        /* \"#utility.yul\":9747:9767   */\n      sub\n        /* \"#utility.yul\":9741:9744   */\n      0x80\n        /* \"#utility.yul\":9730:9739   */\n      dup4\n        /* \"#utility.yul\":9726:9745   */\n      add\n        /* \"#utility.yul\":9719:9768   */\n      mstore\n        /* \"#utility.yul\":9785:9871   */\n      tag_216\n        /* \"#utility.yul\":9866:9870   */\n      dup2\n        /* \"#utility.yul\":9857:9863   */\n      dup5\n        /* \"#utility.yul\":9849:9855   */\n      dup7\n        /* \"#utility.yul\":9785:9871   */\n      tag_172\n      jump\t// in\n    tag_216:\n        /* \"#utility.yul\":9777:9871   */\n      swap1\n      pop\n        /* \"#utility.yul\":8925:9878   */\n      swap8\n      swap7\n      pop\n      pop\n      pop\n      pop\n      pop\n      pop\n      pop\n      jump\t// out\n        /* \"#utility.yul\":9884:10303   */\n    tag_72:\n        /* \"#utility.yul\":10050:10054   */\n      0x00\n        /* \"#utility.yul\":10088:10090   */\n      0x20\n        /* \"#utility.yul\":10077:10086   */\n      dup3\n        /* \"#utility.yul\":10073:10091   */\n      add\n        /* \"#utility.yul\":10065:10091   */\n      swap1\n      pop\n        /* \"#utility.yul\":10137:10146   */\n      dup2\n        /* \"#utility.yul\":10131:10135   */\n      dup2\n        /* \"#utility.yul\":10127:10147   */\n      sub\n        /* \"#utility.yul\":10123:10124   */\n      0x00\n        /* \"#utility.yul\":10112:10121   */\n      dup4\n        /* \"#utility.yul\":10108:10125   */\n      add\n        /* \"#utility.yul\":10101:10148   */\n      mstore\n        /* \"#utility.yul\":10165:10296   */\n      tag_218\n        /* \"#utility.yul\":10291:10295   */\n      dup2\n        /* \"#utility.yul\":10165:10296   */\n      tag_192\n      jump\t// in\n    tag_218:\n        /* \"#utility.yul\":10157:10296   */\n      swap1\n      pop\n        /* \"#utility.yul\":9884:10303   */\n      swap2\n      swap1\n      pop\n      jump\t// out\n        /* \"#utility.yul\":10309:10728   */\n    tag_48:\n        /* \"#utility.yul\":10475:10479   */\n      0x00\n        /* \"#utility.yul\":10513:10515   */\n      0x20\n        /* \"#utility.yul\":10502:10511   */\n      dup3\n        /* \"#utility.yul\":10498:10516   */\n      add\n        /* \"#utility.yul\":10490:10516   */\n      swap1\n      pop\n        /* \"#utility.yul\":10562:10571   */\n      dup2\n        /* \"#utility.yul\":10556:10560   */\n      dup2\n        /* \"#utility.yul\":10552:10572   */\n      sub\n        /* \"#utility.yul\":10548:10549   */\n      0x00\n        /* \"#utility.yul\":10537:10546   */\n      dup4\n        /* \"#utility.yul\":10533:10550   */\n      add\n        /* \"#utility.yul\":10526:10573   */\n      mstore\n        /* \"#utility.yul\":10590:10721   */\n      tag_220\n        /* \"#utility.yul\":10716:10720   */\n      dup2\n        /* \"#utility.yul\":10590:10721   */\n      tag_197\n      jump\t// in\n    tag_220:\n        /* \"#utility.yul\":10582:10721   */\n      swap1\n      pop\n        /* \"#utility.yul\":10309:10728   */\n      swap2\n      swap1\n      pop\n      jump\t// out\n        /* \"#utility.yul\":10734:11153   */\n    tag_40:\n        /* \"#utility.yul\":10900:10904   */\n      0x00\n        /* \"#utility.yul\":10938:10940   */\n      0x20\n        /* \"#utility.yul\":10927:10936   */\n      dup3\n        /* \"#utility.yul\":10923:10941   */\n      add\n        /* \"#utility.yul\":10915:10941   */\n      swap1\n      pop\n        /* \"#utility.yul\":10987:10996   */\n      dup2\n        /* \"#utility.yul\":10981:10985   */\n      dup2\n        /* \"#utility.yul\":10977:10997   */\n      sub\n        /* \"#utility.yul\":10973:10974   */\n      0x00\n        /* \"#utility.yul\":10962:10971   */\n      dup4\n        /* \"#utility.yul\":10958:10975   */\n      add\n        /* \"#utility.yul\":10951:10998   */\n      mstore\n        /* \"#utility.yul\":11015:11146   */\n      tag_222\n        /* \"#utility.yul\":11141:11145   */\n      dup2\n        /* \"#utility.yul\":11015:11146   */\n      tag_202\n      jump\t// in\n    tag_222:\n        /* \"#utility.yul\":11007:11146   */\n      swap1\n      pop\n        /* \"#utility.yul\":10734:11153   */\n      swap2\n      swap1\n      pop\n      jump\t// out\n        /* \"#utility.yul\":11159:11288   */\n    tag_82:\n        /* \"#utility.yul\":11193:11199   */\n      0x00\n        /* \"#utility.yul\":11220:11240   */\n      tag_224\n      tag_225\n      jump\t// in\n    tag_224:\n        /* \"#utility.yul\":11210:11240   */\n      swap1\n      pop\n        /* \"#utility.yul\":11249:11282   */\n      tag_226\n        /* \"#utility.yul\":11277:11281   */\n      dup3\n        /* \"#utility.yul\":11269:11275   */\n      dup3\n        /* \"#utility.yul\":11249:11282   */\n      tag_227\n      jump\t// in\n    tag_226:\n        /* \"#utility.yul\":11159:11288   */\n      swap2\n      swap1\n      pop\n      jump\t// out\n        /* \"#utility.yul\":11294:11369   */\n    tag_225:\n        /* \"#utility.yul\":11327:11333   */\n      0x00\n        /* \"#utility.yul\":11360:11362   */\n      0x40\n        /* \"#utility.yul\":11354:11363   */\n      mload\n        /* \"#utility.yul\":11344:11363   */\n      swap1\n      pop\n        /* \"#utility.yul\":11294:11369   */\n      swap1\n      jump\t// out\n        /* \"#utility.yul\":11375:11695   */\n    tag_81:\n        /* \"#utility.yul\":11461:11465   */\n      0x00\n        /* \"#utility.yul\":11551:11569   */\n      0xffffffffffffffff\n        /* \"#utility.yul\":11543:11549   */\n      dup3\n        /* \"#utility.yul\":11540:11570   */\n      gt\n        /* \"#utility.yul\":11537:11593   */\n      iszero\n      tag_230\n      jumpi\n        /* \"#utility.yul\":11573:11591   */\n      tag_231\n      tag_232\n      jump\t// in\n    tag_231:\n        /* \"#utility.yul\":11537:11593   */\n    tag_230:\n        /* \"#utility.yul\":11623:11627   */\n      0x20\n        /* \"#utility.yul\":11615:11621   */\n      dup3\n        /* \"#utility.yul\":11611:11628   */\n      mul\n        /* \"#utility.yul\":11603:11628   */\n      swap1\n      pop\n        /* \"#utility.yul\":11683:11687   */\n      0x20\n        /* \"#utility.yul\":11677:11681   */\n      dup2\n        /* \"#utility.yul\":11673:11688   */\n      add\n        /* \"#utility.yul\":11665:11688   */\n      swap1\n      pop\n        /* \"#utility.yul\":11375:11695   */\n      swap2\n      swap1\n      pop\n      jump\t// out\n        /* \"#utility.yul\":11701:12008   */\n    tag_98:\n        /* \"#utility.yul\":11762:11766   */\n      0x00\n        /* \"#utility.yul\":11852:11870   */\n      0xffffffffffffffff\n        /* \"#utility.yul\":11844:11850   */\n      dup3\n        /* \"#utility.yul\":11841:11871   */\n      gt\n        /* \"#utility.yul\":11838:11894   */\n      iszero\n      tag_234\n      jumpi\n        /* \"#utility.yul\":11874:11892   */\n      tag_235\n      tag_232\n      jump\t// in\n    tag_235:\n        /* \"#utility.yul\":11838:11894   */\n    tag_234:\n        /* \"#utility.yul\":11912:11941   */\n      tag_236\n        /* \"#utility.yul\":11934:11940   */\n      dup3\n        /* \"#utility.yul\":11912:11941   */\n      tag_178\n      jump\t// in\n    tag_236:\n        /* \"#utility.yul\":11904:11941   */\n      swap1\n      pop\n        /* \"#utility.yul\":11996:12000   */\n      0x20\n        /* \"#utility.yul\":11990:11994   */\n      dup2\n        /* \"#utility.yul\":11986:12001   */\n      add\n        /* \"#utility.yul\":11978:12001   */\n      swap1\n      pop\n        /* \"#utility.yul\":11701:12008   */\n      swap2\n      swap1\n      pop\n      jump\t// out\n        /* \"#utility.yul\":12014:12322   */\n    tag_108:\n        /* \"#utility.yul\":12076:12080   */\n      0x00\n        /* \"#utility.yul\":12166:12184   */\n      0xffffffffffffffff\n        /* \"#utility.yul\":12158:12164   */\n      dup3\n        /* \"#utility.yul\":12155:12185   */\n      gt\n        /* \"#utility.yul\":12152:12208   */\n      iszero\n      tag_238\n      jumpi\n        /* \"#utility.yul\":12188:12206   */\n      tag_239\n      tag_232\n      jump\t// in\n    tag_239:\n        /* \"#utility.yul\":12152:12208   */\n    tag_238:\n        /* \"#utility.yul\":12226:12255   */\n      tag_240\n        /* \"#utility.yul\":12248:12254   */\n      dup3\n        /* \"#utility.yul\":12226:12255   */\n      tag_178\n      jump\t// in\n    tag_240:\n        /* \"#utility.yul\":12218:12255   */\n      swap1\n      pop\n        /* \"#utility.yul\":12310:12314   */\n      0x20\n        /* \"#utility.yul\":12304:12308   */\n      dup2\n        /* \"#utility.yul\":12300:12315   */\n      add\n        /* \"#utility.yul\":12292:12315   */\n      swap1\n      pop\n        /* \"#utility.yul\":12014:12322   */\n      swap2\n      swap1\n      pop\n      jump\t// out\n        /* \"#utility.yul\":12328:12427   */\n    tag_186:\n        /* \"#utility.yul\":12380:12386   */\n      0x00\n        /* \"#utility.yul\":12414:12419   */\n      dup2\n        /* \"#utility.yul\":12408:12420   */\n      mload\n        /* \"#utility.yul\":12398:12420   */\n      swap1\n      pop\n        /* \"#utility.yul\":12328:12427   */\n      swap2\n      swap1\n      pop\n      jump\t// out\n        /* \"#utility.yul\":12433:12601   */\n    tag_175:\n        /* \"#utility.yul\":12516:12527   */\n      0x00\n        /* \"#utility.yul\":12550:12556   */\n      dup3\n        /* \"#utility.yul\":12545:12548   */\n      dup3\n        /* \"#utility.yul\":12538:12557   */\n      mstore\n        /* \"#utility.yul\":12590:12594   */\n      0x20\n        /* \"#utility.yul\":12585:12588   */\n      dup3\n        /* \"#utility.yul\":12581:12595   */\n      add\n        /* \"#utility.yul\":12566:12595   */\n      swap1\n      pop\n        /* \"#utility.yul\":12433:12601   */\n      swap3\n      swap2\n      pop\n      pop\n      jump\t// out\n        /* \"#utility.yul\":12607:12776   */\n    tag_188:\n        /* \"#utility.yul\":12691:12702   */\n      0x00\n        /* \"#utility.yul\":12725:12731   */\n      dup3\n        /* \"#utility.yul\":12720:12723   */\n      dup3\n        /* \"#utility.yul\":12713:12732   */\n      mstore\n        /* \"#utility.yul\":12765:12769   */\n      0x20\n        /* \"#utility.yul\":12760:12763   */\n      dup3\n        /* \"#utility.yul\":12756:12770   */\n      add\n        /* \"#utility.yul\":12741:12770   */\n      swap1\n      pop\n        /* \"#utility.yul\":12607:12776   */\n      swap3\n      swap2\n      pop\n      pop\n      jump\t// out\n        /* \"#utility.yul\":12782:12878   */\n    tag_171:\n        /* \"#utility.yul\":12819:12826   */\n      0x00\n        /* \"#utility.yul\":12848:12872   */\n      tag_245\n        /* \"#utility.yul\":12866:12871   */\n      dup3\n        /* \"#utility.yul\":12848:12872   */\n      tag_246\n      jump\t// in\n    tag_245:\n        /* \"#utility.yul\":12837:12872   */\n      swap1\n      pop\n        /* \"#utility.yul\":12782:12878   */\n      swap2\n      swap1\n      pop\n      jump\t// out\n        /* \"#utility.yul\":12884:13010   */\n    tag_246:\n        /* \"#utility.yul\":12921:12928   */\n      0x00\n        /* \"#utility.yul\":12961:13003   */\n      0xffffffffffffffffffffffffffffffffffffffff\n        /* \"#utility.yul\":12954:12959   */\n      dup3\n        /* \"#utility.yul\":12950:13004   */\n      and\n        /* \"#utility.yul\":12939:13004   */\n      swap1\n      pop\n        /* \"#utility.yul\":12884:13010   */\n      swap2\n      swap1\n      pop\n      jump\t// out\n        /* \"#utility.yul\":13016:13093   */\n    tag_248:\n        /* \"#utility.yul\":13053:13060   */\n      0x00\n        /* \"#utility.yul\":13082:13087   */\n      dup2\n        /* \"#utility.yul\":13071:13087   */\n      swap1\n      pop\n        /* \"#utility.yul\":13016:13093   */\n      swap2\n      swap1\n      pop\n      jump\t// out\n        /* \"#utility.yul\":13099:13253   */\n    tag_182:\n        /* \"#utility.yul\":13177:13186   */\n      0x00\n        /* \"#utility.yul\":13210:13247   */\n      tag_251\n        /* \"#utility.yul\":13241:13246   */\n      dup3\n        /* \"#utility.yul\":13210:13247   */\n      tag_252\n      jump\t// in\n    tag_251:\n        /* \"#utility.yul\":13197:13247   */\n      swap1\n      pop\n        /* \"#utility.yul\":13099:13253   */\n      swap2\n      swap1\n      pop\n      jump\t// out\n        /* \"#utility.yul\":13259:13385   */\n    tag_252:\n        /* \"#utility.yul\":13309:13318   */\n      0x00\n        /* \"#utility.yul\":13342:13379   */\n      tag_254\n        /* \"#utility.yul\":13373:13378   */\n      dup3\n        /* \"#utility.yul\":13342:13379   */\n      tag_255\n      jump\t// in\n    tag_254:\n        /* \"#utility.yul\":13329:13379   */\n      swap1\n      pop\n        /* \"#utility.yul\":13259:13385   */\n      swap2\n      swap1\n      pop\n      jump\t// out\n        /* \"#utility.yul\":13391:13504   */\n    tag_255:\n        /* \"#utility.yul\":13441:13450   */\n      0x00\n        /* \"#utility.yul\":13474:13498   */\n      tag_257\n        /* \"#utility.yul\":13492:13497   */\n      dup3\n        /* \"#utility.yul\":13474:13498   */\n      tag_246\n      jump\t// in\n    tag_257:\n        /* \"#utility.yul\":13461:13498   */\n      swap1\n      pop\n        /* \"#utility.yul\":13391:13504   */\n      swap2\n      swap1\n      pop\n      jump\t// out\n        /* \"#utility.yul\":13510:13664   */\n    tag_103:\n        /* \"#utility.yul\":13594:13600   */\n      dup3\n        /* \"#utility.yul\":13589:13592   */\n      dup2\n        /* \"#utility.yul\":13584:13587   */\n      dup4\n        /* \"#utility.yul\":13571:13601   */\n      calldatacopy\n        /* \"#utility.yul\":13656:13657   */\n      0x00\n        /* \"#utility.yul\":13647:13653   */\n      dup4\n        /* \"#utility.yul\":13642:13645   */\n      dup4\n        /* \"#utility.yul\":13638:13654   */\n      add\n        /* \"#utility.yul\":13631:13658   */\n      mstore\n        /* \"#utility.yul\":13510:13664   */\n      pop\n      pop\n      pop\n      jump\t// out\n        /* \"#utility.yul\":13670:13977   */\n    tag_190:\n        /* \"#utility.yul\":13738:13739   */\n      0x00\n        /* \"#utility.yul\":13748:13861   */\n    tag_260:\n        /* \"#utility.yul\":13762:13768   */\n      dup4\n        /* \"#utility.yul\":13759:13760   */\n      dup2\n        /* \"#utility.yul\":13756:13769   */\n      lt\n        /* \"#utility.yul\":13748:13861   */\n      iszero\n      tag_262\n      jumpi\n        /* \"#utility.yul\":13847:13848   */\n      dup1\n        /* \"#utility.yul\":13842:13845   */\n      dup3\n        /* \"#utility.yul\":13838:13849   */\n      add\n        /* \"#utility.yul\":13832:13850   */\n      mload\n        /* \"#utility.yul\":13828:13829   */\n      dup2\n        /* \"#utility.yul\":13823:13826   */\n      dup5\n        /* \"#utility.yul\":13819:13830   */\n      add\n        /* \"#utility.yul\":13812:13851   */\n      mstore\n        /* \"#utility.yul\":13784:13786   */\n      0x20\n        /* \"#utility.yul\":13781:13782   */\n      dup2\n        /* \"#utility.yul\":13777:13787   */\n      add\n        /* \"#utility.yul\":13772:13787   */\n      swap1\n      pop\n        /* \"#utility.yul\":13748:13861   */\n      jump(tag_260)\n    tag_262:\n        /* \"#utility.yul\":13879:13885   */\n      dup4\n        /* \"#utility.yul\":13876:13877   */\n      dup2\n        /* \"#utility.yul\":13873:13886   */\n      gt\n        /* \"#utility.yul\":13870:13971   */\n      iszero\n      tag_263\n      jumpi\n        /* \"#utility.yul\":13959:13960   */\n      0x00\n        /* \"#utility.yul\":13950:13956   */\n      dup5\n        /* \"#utility.yul\":13945:13948   */\n      dup5\n        /* \"#utility.yul\":13941:13957   */\n      add\n        /* \"#utility.yul\":13934:13961   */\n      mstore\n        /* \"#utility.yul\":13870:13971   */\n    tag_263:\n        /* \"#utility.yul\":13719:13977   */\n      pop\n        /* \"#utility.yul\":13670:13977   */\n      pop\n      pop\n      pop\n      jump\t// out\n        /* \"#utility.yul\":13983:14264   */\n    tag_227:\n        /* \"#utility.yul\":14066:14093   */\n      tag_265\n        /* \"#utility.yul\":14088:14092   */\n      dup3\n        /* \"#utility.yul\":14066:14093   */\n      tag_178\n      jump\t// in\n    tag_265:\n        /* \"#utility.yul\":14058:14064   */\n      dup2\n        /* \"#utility.yul\":14054:14094   */\n      add\n        /* \"#utility.yul\":14196:14202   */\n      dup2\n        /* \"#utility.yul\":14184:14194   */\n      dup2\n        /* \"#utility.yul\":14181:14203   */\n      lt\n        /* \"#utility.yul\":14160:14178   */\n      0xffffffffffffffff\n        /* \"#utility.yul\":14148:14158   */\n      dup3\n        /* \"#utility.yul\":14145:14179   */\n      gt\n        /* \"#utility.yul\":14142:14204   */\n      or\n        /* \"#utility.yul\":14139:14227   */\n      iszero\n      tag_266\n      jumpi\n        /* \"#utility.yul\":14207:14225   */\n      tag_267\n      tag_232\n      jump\t// in\n    tag_267:\n        /* \"#utility.yul\":14139:14227   */\n    tag_266:\n        /* \"#utility.yul\":14247:14257   */\n      dup1\n        /* \"#utility.yul\":14243:14245   */\n      0x40\n        /* \"#utility.yul\":14236:14258   */\n      mstore\n        /* \"#utility.yul\":14026:14264   */\n      pop\n        /* \"#utility.yul\":13983:14264   */\n      pop\n      pop\n      jump\t// out\n        /* \"#utility.yul\":14270:14450   */\n    tag_232:\n        /* \"#utility.yul\":14318:14395   */\n      0x4e487b7100000000000000000000000000000000000000000000000000000000\n        /* \"#utility.yul\":14315:14316   */\n      0x00\n        /* \"#utility.yul\":14308:14396   */\n      mstore\n        /* \"#utility.yul\":14415:14419   */\n      0x41\n        /* \"#utility.yul\":14412:14413   */\n      0x04\n        /* \"#utility.yul\":14405:14420   */\n      mstore\n        /* \"#utility.yul\":14439:14443   */\n      0x24\n        /* \"#utility.yul\":14436:14437   */\n      0x00\n        /* \"#utility.yul\":14429:14444   */\n      revert\n        /* \"#utility.yul\":14456:14573   */\n    tag_91:\n        /* \"#utility.yul\":14565:14566   */\n      0x00\n        /* \"#utility.yul\":14562:14563   */\n      dup1\n        /* \"#utility.yul\":14555:14567   */\n      revert\n        /* \"#utility.yul\":14579:14696   */\n    tag_85:\n        /* \"#utility.yul\":14688:14689   */\n      0x00\n        /* \"#utility.yul\":14685:14686   */\n      dup1\n        /* \"#utility.yul\":14678:14690   */\n      revert\n        /* \"#utility.yul\":14702:14819   */\n    tag_101:\n        /* \"#utility.yul\":14811:14812   */\n      0x00\n        /* \"#utility.yul\":14808:14809   */\n      dup1\n        /* \"#utility.yul\":14801:14813   */\n      revert\n        /* \"#utility.yul\":14825:14942   */\n    tag_144:\n        /* \"#utility.yul\":14934:14935   */\n      0x00\n        /* \"#utility.yul\":14931:14932   */\n      dup1\n        /* \"#utility.yul\":14924:14936   */\n      revert\n        /* \"#utility.yul\":14948:15065   */\n    tag_137:\n        /* \"#utility.yul\":15057:15058   */\n      0x00\n        /* \"#utility.yul\":15054:15055   */\n      dup1\n        /* \"#utility.yul\":15047:15059   */\n      revert\n        /* \"#utility.yul\":15071:15173   */\n    tag_178:\n        /* \"#utility.yul\":15112:15118   */\n      0x00\n        /* \"#utility.yul\":15163:15165   */\n      0x1f\n        /* \"#utility.yul\":15159:15166   */\n      not\n        /* \"#utility.yul\":15154:15156   */\n      0x1f\n        /* \"#utility.yul\":15147:15152   */\n      dup4\n        /* \"#utility.yul\":15143:15157   */\n      add\n        /* \"#utility.yul\":15139:15167   */\n      and\n        /* \"#utility.yul\":15129:15167   */\n      swap1\n      pop\n        /* \"#utility.yul\":15071:15173   */\n      swap2\n      swap1\n      pop\n      jump\t// out\n        /* \"#utility.yul\":15179:15404   */\n    tag_196:\n        /* \"#utility.yul\":15319:15353   */\n      0x4f776e61626c653a206e6577206f776e657220697320746865207a65726f2061\n        /* \"#utility.yul\":15315:15316   */\n      0x00\n        /* \"#utility.yul\":15307:15313   */\n      dup3\n        /* \"#utility.yul\":15303:15317   */\n      add\n        /* \"#utility.yul\":15296:15354   */\n      mstore\n        /* \"#utility.yul\":15388:15396   */\n      0x6464726573730000000000000000000000000000000000000000000000000000\n        /* \"#utility.yul\":15383:15385   */\n      0x20\n        /* \"#utility.yul\":15375:15381   */\n      dup3\n        /* \"#utility.yul\":15371:15386   */\n      add\n        /* \"#utility.yul\":15364:15397   */\n      mstore\n        /* \"#utility.yul\":15179:15404   */\n      pop\n      jump\t// out\n        /* \"#utility.yul\":15410:15592   */\n    tag_201:\n        /* \"#utility.yul\":15550:15584   */\n      0x4f776e61626c653a2063616c6c6572206973206e6f7420746865206f776e6572\n        /* \"#utility.yul\":15546:15547   */\n      0x00\n        /* \"#utility.yul\":15538:15544   */\n      dup3\n        /* \"#utility.yul\":15534:15548   */\n      add\n        /* \"#utility.yul\":15527:15585   */\n      mstore\n        /* \"#utility.yul\":15410:15592   */\n      pop\n      jump\t// out\n        /* \"#utility.yul\":15598:15844   */\n    tag_206:\n        /* \"#utility.yul\":15738:15772   */\n      0x43726564656e7469616c2043616c6c4261636b3a204f6e6c7920746865206f72\n        /* \"#utility.yul\":15734:15735   */\n      0x00\n        /* \"#utility.yul\":15726:15732   */\n      dup3\n        /* \"#utility.yul\":15722:15736   */\n      add\n        /* \"#utility.yul\":15715:15773   */\n      mstore\n        /* \"#utility.yul\":15807:15836   */\n      0x61636c652063616e2063616c6c20746869732066756e6374696f6e0000000000\n        /* \"#utility.yul\":15802:15804   */\n      0x20\n        /* \"#utility.yul\":15794:15800   */\n      dup3\n        /* \"#utility.yul\":15790:15805   */\n      add\n        /* \"#utility.yul\":15783:15837   */\n      mstore\n        /* \"#utility.yul\":15598:15844   */\n      pop\n      jump\t// out\n        /* \"#utility.yul\":15850:15972   */\n    tag_115:\n        /* \"#utility.yul\":15923:15947   */\n      tag_279\n        /* \"#utility.yul\":15941:15946   */\n      dup2\n        /* \"#utility.yul\":15923:15947   */\n      tag_171\n      jump\t// in\n    tag_279:\n        /* \"#utility.yul\":15916:15921   */\n      dup2\n        /* \"#utility.yul\":15913:15948   */\n      eq\n        /* \"#utility.yul\":15903:15966   */\n      tag_280\n      jumpi\n        /* \"#utility.yul\":15962:15963   */\n      0x00\n        /* \"#utility.yul\":15959:15960   */\n      dup1\n        /* \"#utility.yul\":15952:15964   */\n      revert\n        /* \"#utility.yul\":15903:15966   */\n    tag_280:\n        /* \"#utility.yul\":15850:15972   */\n      pop\n      jump\t// out\n        /* \"#utility.yul\":15978:16100   */\n    tag_133:\n        /* \"#utility.yul\":16051:16075   */\n      tag_282\n        /* \"#utility.yul\":16069:16074   */\n      dup2\n        /* \"#utility.yul\":16051:16075   */\n      tag_248\n      jump\t// in\n    tag_282:\n        /* \"#utility.yul\":16044:16049   */\n      dup2\n        /* \"#utility.yul\":16041:16076   */\n      eq\n        /* \"#utility.yul\":16031:16094   */\n      tag_283\n      jumpi\n        /* \"#utility.yul\":16090:16091   */\n      0x00\n        /* \"#utility.yul\":16087:16088   */\n      dup1\n        /* \"#utility.yul\":16080:16092   */\n      revert\n        /* \"#utility.yul\":16031:16094   */\n    tag_283:\n        /* \"#utility.yul\":15978:16100   */\n      pop\n      jump\t// out\n\n    auxdata: 0xa26469706673582212202d81faa0e8024d580c0aee3a69f6da19894469606ffaf5e97c30fcd278bb4a5164736f6c63430008070033\n}\n",
				"bytecode": {
					"linkReferences": {},
					"object": "60806040523480156200001157600080fd5b50604051620010e6380380620010e68339818101604052810190620000379190620001c5565b80620000586200004c620000e260201b60201c565b620000ea60201b60201c565b80600160006101000a81548173ffffffffffffffffffffffffffffffffffffffff021916908373ffffffffffffffffffffffffffffffffffffffff16021790555080600260006101000a81548173ffffffffffffffffffffffffffffffffffffffff021916908373ffffffffffffffffffffffffffffffffffffffff16021790555050506200025e565b600033905090565b60008060009054906101000a900473ffffffffffffffffffffffffffffffffffffffff169050816000806101000a81548173ffffffffffffffffffffffffffffffffffffffff021916908373ffffffffffffffffffffffffffffffffffffffff1602179055508173ffffffffffffffffffffffffffffffffffffffff168173ffffffffffffffffffffffffffffffffffffffff167f8be0079c531659141344cd1fd0a4f28419497f9722a3daafe3b4186f6b6457e060405160405180910390a35050565b600081519050620001bf8162000244565b92915050565b600060208284031215620001de57620001dd6200023f565b5b6000620001ee84828501620001ae565b91505092915050565b600062000204826200021f565b9050919050565b60006200021882620001f7565b9050919050565b600073ffffffffffffffffffffffffffffffffffffffff82169050919050565b600080fd5b6200024f816200020b565b81146200025b57600080fd5b50565b610e78806200026e6000396000f3fe608060405234801561001057600080fd5b506004361061007d5760003560e01c80638da5cb5b1161005b5780638da5cb5b146100c6578063dce8a955146100e4578063e137cfd614610100578063f2fde38b1461011c5761007d565b8063436e99f3146100825780635f7690b31461009e578063715018a6146100bc575b600080fd5b61009c600480360381019061009791906107c6565b610138565b005b6100a66101cb565b6040516100b39190610a4a565b60405180910390f35b6100c46101f1565b005b6100ce610279565b6040516100db9190610a2f565b60405180910390f35b6100fe60048036038101906100f9919061080f565b6102a2565b005b61011a60048036038101906101159190610887565b610336565b005b61013660048036038101906101319190610799565b61040f565b005b600160009054906101000a900473ffffffffffffffffffffffffffffffffffffffff1673ffffffffffffffffffffffffffffffffffffffff163373ffffffffffffffffffffffffffffffffffffffff16146101c8576040517f08c379a00000000000000000000000000000000000000000000000000000000081526004016101bf90610b0f565b60405180910390fd5b50565b600260009054906101000a900473ffffffffffffffffffffffffffffffffffffffff1681565b6101f9610507565b73ffffffffffffffffffffffffffffffffffffffff16610217610279565b73ffffffffffffffffffffffffffffffffffffffff161461026d576040517f08c379a000000000000000000000000000000000000000000000000000000000815260040161026490610aef565b60405180910390fd5b610277600061050f565b565b60008060009054906101000a900473ffffffffffffffffffffffffffffffffffffffff16905090565b600160009054906101000a900473ffffffffffffffffffffffffffffffffffffffff1673ffffffffffffffffffffffffffffffffffffffff163373ffffffffffffffffffffffffffffffffffffffff1614610332576040517f08c379a000000000000000000000000000000000000000000000000000000000815260040161032990610b0f565b60405180910390fd5b5050565b82306040518060400160405280600881526020017f706f737456696265000000000000000000000000000000000000000000000000815250600260009054906101000a900473ffffffffffffffffffffffffffffffffffffffff1673ffffffffffffffffffffffffffffffffffffffff1663a78d2ba3843385856000366040518763ffffffff1660e01b81526004016103d496959493929190610a65565b600060405180830381600087803b1580156103ee57600080fd5b505af1158015610402573d6000803e3d6000fd5b5050505050505050505050565b610417610507565b73ffffffffffffffffffffffffffffffffffffffff16610435610279565b73ffffffffffffffffffffffffffffffffffffffff161461048b576040517f08c379a000000000000000000000000000000000000000000000000000000000815260040161048290610aef565b60405180910390fd5b600073ffffffffffffffffffffffffffffffffffffffff168173ffffffffffffffffffffffffffffffffffffffff1614156104fb576040517f08c379a00000000000000000000000000000000000000000000000000000000081526004016104f290610acf565b60405180910390fd5b6105048161050f565b50565b600033905090565b60008060009054906101000a900473ffffffffffffffffffffffffffffffffffffffff169050816000806101000a81548173ffffffffffffffffffffffffffffffffffffffff021916908373ffffffffffffffffffffffffffffffffffffffff1602179055508173ffffffffffffffffffffffffffffffffffffffff168173ffffffffffffffffffffffffffffffffffffffff167f8be0079c531659141344cd1fd0a4f28419497f9722a3daafe3b4186f6b6457e060405160405180910390a35050565b60006105e66105e184610b54565b610b2f565b9050808382526020820190508285602086028201111561060957610608610d28565b5b60005b8581101561065757813567ffffffffffffffff81111561062f5761062e610d23565b5b80860161063c8982610728565b8552602085019450602084019350505060018101905061060c565b5050509392505050565b600061067461066f84610b80565b610b2f565b9050828152602081018484840111156106905761068f610d2d565b5b61069b848285610c81565b509392505050565b60006106b66106b184610bb1565b610b2f565b9050828152602081018484840111156106d2576106d1610d2d565b5b6106dd848285610c81565b509392505050565b6000813590506106f481610e14565b92915050565b600082601f83011261070f5761070e610d23565b5b813561071f8482602086016105d3565b91505092915050565b600082601f83011261073d5761073c610d23565b5b813561074d848260208601610661565b91505092915050565b600082601f83011261076b5761076a610d23565b5b813561077b8482602086016106a3565b91505092915050565b60008135905061079381610e2b565b92915050565b6000602082840312156107af576107ae610d37565b5b60006107bd848285016106e5565b91505092915050565b6000602082840312156107dc576107db610d37565b5b600082013567ffffffffffffffff8111156107fa576107f9610d32565b5b61080684828501610756565b91505092915050565b6000806040838503121561082657610825610d37565b5b600083013567ffffffffffffffff81111561084457610843610d32565b5b61085085828601610756565b925050602083013567ffffffffffffffff81111561087157610870610d32565b5b61087d858286016106fa565b9150509250929050565b600080600080608085870312156108a1576108a0610d37565b5b600085013567ffffffffffffffff8111156108bf576108be610d32565b5b6108cb87828801610756565b945050602085013567ffffffffffffffff8111156108ec576108eb610d32565b5b6108f887828801610756565b935050604085013567ffffffffffffffff81111561091957610918610d32565b5b61092587828801610756565b925050606061093687828801610784565b91505092959194509250565b61094b81610c0f565b82525050565b600061095d8385610bed565b935061096a838584610c81565b61097383610d3c565b840190509392505050565b61098781610c4b565b82525050565b600061099882610be2565b6109a28185610bfe565b93506109b2818560208601610c90565b6109bb81610d3c565b840191505092915050565b60006109d3602683610bfe565b91506109de82610d4d565b604082019050919050565b60006109f6602083610bfe565b9150610a0182610d9c565b602082019050919050565b6000610a19603b83610bfe565b9150610a2482610dc5565b604082019050919050565b6000602082019050610a446000830184610942565b92915050565b6000602082019050610a5f600083018461097e565b92915050565b600060a0820190508181036000830152610a7f818961098d565b9050610a8e6020830188610942565b610a9b6040830187610942565b8181036060830152610aad818661098d565b90508181036080830152610ac2818486610951565b9050979650505050505050565b60006020820190508181036000830152610ae8816109c6565b9050919050565b60006020820190508181036000830152610b08816109e9565b9050919050565b60006020820190508181036000830152610b2881610a0c565b9050919050565b6000610b39610b4a565b9050610b458282610cc3565b919050565b6000604051905090565b600067ffffffffffffffff821115610b6f57610b6e610cf4565b5b602082029050602081019050919050565b600067ffffffffffffffff821115610b9b57610b9a610cf4565b5b610ba482610d3c565b9050602081019050919050565b600067ffffffffffffffff821115610bcc57610bcb610cf4565b5b610bd582610d3c565b9050602081019050919050565b600081519050919050565b600082825260208201905092915050565b600082825260208201905092915050565b6000610c1a82610c21565b9050919050565b600073ffffffffffffffffffffffffffffffffffffffff82169050919050565b6000819050919050565b6000610c5682610c5d565b9050919050565b6000610c6882610c6f565b9050919050565b6000610c7a82610c21565b9050919050565b82818337600083830152505050565b60005b83811015610cae578082015181840152602081019050610c93565b83811115610cbd576000848401525b50505050565b610ccc82610d3c565b810181811067ffffffffffffffff82111715610ceb57610cea610cf4565b5b80604052505050565b7f4e487b7100000000000000000000000000000000000000000000000000000000600052604160045260246000fd5b600080fd5b600080fd5b600080fd5b600080fd5b600080fd5b6000601f19601f8301169050919050565b7f4f776e61626c653a206e6577206f776e657220697320746865207a65726f206160008201527f6464726573730000000000000000000000000000000000000000000000000000602082015250565b7f4f776e61626c653a2063616c6c6572206973206e6f7420746865206f776e6572600082015250565b7f43726564656e7469616c2043616c6c4261636b3a204f6e6c7920746865206f7260008201527f61636c652063616e2063616c6c20746869732066756e6374696f6e0000000000602082015250565b610e1d81610c0f565b8114610e2857600080fd5b50565b610e3481610c41565b8114610e3f57600080fd5b5056fea26469706673582212202d81faa0e8024d580c0aee3a69f6da19894469606ffaf5e97c30fcd278bb4a5164736f6c63430008070033",
					"opcodes": "PUSH1 0x80 PUSH1 0x40 MSTORE CALLVALUE DUP1 ISZERO PUSH3 0x11 JUMPI PUSH1 0x0 DUP1 REVERT JUMPDEST POP PUSH1 0x40 MLOAD PUSH3 0x10E6 CODESIZE SUB DUP1 PUSH3 0x10E6 DUP4 CODECOPY DUP2 DUP2 ADD PUSH1 0x40 MSTORE DUP2 ADD SWAP1 PUSH3 0x37 SWAP2 SWAP1 PUSH3 0x1C5 JUMP JUMPDEST DUP1 PUSH3 0x58 PUSH3 0x4C PUSH3 0xE2 PUSH1 0x20 SHL PUSH1 0x20 SHR JUMP JUMPDEST PUSH3 0xEA PUSH1 0x20 SHL PUSH1 0x20 SHR JUMP JUMPDEST DUP1 PUSH1 0x1 PUSH1 0x0 PUSH2 0x100 EXP DUP2 SLOAD DUP2 PUSH20 0xFFFFFFFFFFFFFFFFFFFFFFFFFFFFFFFFFFFFFFFF MUL NOT AND SWAP1 DUP4 PUSH20 0xFFFFFFFFFFFFFFFFFFFFFFFFFFFFFFFFFFFFFFFF AND MUL OR SWAP1 SSTORE POP DUP1 PUSH1 0x2 PUSH1 0x0 PUSH2 0x100 EXP DUP2 SLOAD DUP2 PUSH20 0xFFFFFFFFFFFFFFFFFFFFFFFFFFFFFFFFFFFFFFFF MUL NOT AND SWAP1 DUP4 PUSH20 0xFFFFFFFFFFFFFFFFFFFFFFFFFFFFFFFFFFFFFFFF AND MUL OR SWAP1 SSTORE POP POP POP PUSH3 0x25E JUMP JUMPDEST PUSH1 0x0 CALLER SWAP1 POP SWAP1 JUMP JUMPDEST PUSH1 0x0 DUP1 PUSH1 0x0 SWAP1 SLOAD SWAP1 PUSH2 0x100 EXP SWAP1 DIV PUSH20 0xFFFFFFFFFFFFFFFFFFFFFFFFFFFFFFFFFFFFFFFF AND SWAP1 POP DUP2 PUSH1 0x0 DUP1 PUSH2 0x100 EXP DUP2 SLOAD DUP2 PUSH20 0xFFFFFFFFFFFFFFFFFFFFFFFFFFFFFFFFFFFFFFFF MUL NOT AND SWAP1 DUP4 PUSH20 0xFFFFFFFFFFFFFFFFFFFFFFFFFFFFFFFFFFFFFFFF AND MUL OR SWAP1 SSTORE POP DUP2 PUSH20 0xFFFFFFFFFFFFFFFFFFFFFFFFFFFFFFFFFFFFFFFF AND DUP2 PUSH20 0xFFFFFFFFFFFFFFFFFFFFFFFFFFFFFFFFFFFFFFFF AND PUSH32 0x8BE0079C531659141344CD1FD0A4F28419497F9722A3DAAFE3B4186F6B6457E0 PUSH1 0x40 MLOAD PUSH1 0x40 MLOAD DUP1 SWAP2 SUB SWAP1 LOG3 POP POP JUMP JUMPDEST PUSH1 0x0 DUP2 MLOAD SWAP1 POP PUSH3 0x1BF DUP2 PUSH3 0x244 JUMP JUMPDEST SWAP3 SWAP2 POP POP JUMP JUMPDEST PUSH1 0x0 PUSH1 0x20 DUP3 DUP5 SUB SLT ISZERO PUSH3 0x1DE JUMPI PUSH3 0x1DD PUSH3 0x23F JUMP JUMPDEST JUMPDEST PUSH1 0x0 PUSH3 0x1EE DUP5 DUP3 DUP6 ADD PUSH3 0x1AE JUMP JUMPDEST SWAP2 POP POP SWAP3 SWAP2 POP POP JUMP JUMPDEST PUSH1 0x0 PUSH3 0x204 DUP3 PUSH3 0x21F JUMP JUMPDEST SWAP1 POP SWAP2 SWAP1 POP JUMP JUMPDEST PUSH1 0x0 PUSH3 0x218 DUP3 PUSH3 0x1F7 JUMP JUMPDEST SWAP1 POP SWAP2 SWAP1 POP JUMP JUMPDEST PUSH1 0x0 PUSH20 0xFFFFFFFFFFFFFFFFFFFFFFFFFFFFFFFFFFFFFFFF DUP3 AND SWAP1 POP SWAP2 SWAP1 POP JUMP JUMPDEST PUSH1 0x0 DUP1 REVERT JUMPDEST PUSH3 0x24F DUP2 PUSH3 0x20B JUMP JUMPDEST DUP2 EQ PUSH3 0x25B JUMPI PUSH1 0x0 DUP1 REVERT JUMPDEST POP JUMP JUMPDEST PUSH2 0xE78 DUP1 PUSH3 0x26E PUSH1 0x0 CODECOPY PUSH1 0x0 RETURN INVALID PUSH1 0x80 PUSH1 0x40 MSTORE CALLVALUE DUP1 ISZERO PUSH2 0x10 JUMPI PUSH1 0x0 DUP1 REVERT JUMPDEST POP PUSH1 0x4 CALLDATASIZE LT PUSH2 0x7D JUMPI PUSH1 0x0 CALLDATALOAD PUSH1 0xE0 SHR DUP1 PUSH4 0x8DA5CB5B GT PUSH2 0x5B JUMPI DUP1 PUSH4 0x8DA5CB5B EQ PUSH2 0xC6 JUMPI DUP1 PUSH4 0xDCE8A955 EQ PUSH2 0xE4 JUMPI DUP1 PUSH4 0xE137CFD6 EQ PUSH2 0x100 JUMPI DUP1 PUSH4 0xF2FDE38B EQ PUSH2 0x11C JUMPI PUSH2 0x7D JUMP JUMPDEST DUP1 PUSH4 0x436E99F3 EQ PUSH2 0x82 JUMPI DUP1 PUSH4 0x5F7690B3 EQ PUSH2 0x9E JUMPI DUP1 PUSH4 0x715018A6 EQ PUSH2 0xBC JUMPI JUMPDEST PUSH1 0x0 DUP1 REVERT JUMPDEST PUSH2 0x9C PUSH1 0x4 DUP1 CALLDATASIZE SUB DUP2 ADD SWAP1 PUSH2 0x97 SWAP2 SWAP1 PUSH2 0x7C6 JUMP JUMPDEST PUSH2 0x138 JUMP JUMPDEST STOP JUMPDEST PUSH2 0xA6 PUSH2 0x1CB JUMP JUMPDEST PUSH1 0x40 MLOAD PUSH2 0xB3 SWAP2 SWAP1 PUSH2 0xA4A JUMP JUMPDEST PUSH1 0x40 MLOAD DUP1 SWAP2 SUB SWAP1 RETURN JUMPDEST PUSH2 0xC4 PUSH2 0x1F1 JUMP JUMPDEST STOP JUMPDEST PUSH2 0xCE PUSH2 0x279 JUMP JUMPDEST PUSH1 0x40 MLOAD PUSH2 0xDB SWAP2 SWAP1 PUSH2 0xA2F JUMP JUMPDEST PUSH1 0x40 MLOAD DUP1 SWAP2 SUB SWAP1 RETURN JUMPDEST PUSH2 0xFE PUSH1 0x4 DUP1 CALLDATASIZE SUB DUP2 ADD SWAP1 PUSH2 0xF9 SWAP2 SWAP1 PUSH2 0x80F JUMP JUMPDEST PUSH2 0x2A2 JUMP JUMPDEST STOP JUMPDEST PUSH2 0x11A PUSH1 0x4 DUP1 CALLDATASIZE SUB DUP2 ADD SWAP1 PUSH2 0x115 SWAP2 SWAP1 PUSH2 0x887 JUMP JUMPDEST PUSH2 0x336 JUMP JUMPDEST STOP JUMPDEST PUSH2 0x136 PUSH1 0x4 DUP1 CALLDATASIZE SUB DUP2 ADD SWAP1 PUSH2 0x131 SWAP2 SWAP1 PUSH2 0x799 JUMP JUMPDEST PUSH2 0x40F JUMP JUMPDEST STOP JUMPDEST PUSH1 0x1 PUSH1 0x0 SWAP1 SLOAD SWAP1 PUSH2 0x100 EXP SWAP1 DIV PUSH20 0xFFFFFFFFFFFFFFFFFFFFFFFFFFFFFFFFFFFFFFFF AND PUSH20 0xFFFFFFFFFFFFFFFFFFFFFFFFFFFFFFFFFFFFFFFF AND CALLER PUSH20 0xFFFFFFFFFFFFFFFFFFFFFFFFFFFFFFFFFFFFFFFF AND EQ PUSH2 0x1C8 JUMPI PUSH1 0x40 MLOAD PUSH32 0x8C379A000000000000000000000000000000000000000000000000000000000 DUP2 MSTORE PUSH1 0x4 ADD PUSH2 0x1BF SWAP1 PUSH2 0xB0F JUMP JUMPDEST PUSH1 0x40 MLOAD DUP1 SWAP2 SUB SWAP1 REVERT JUMPDEST POP JUMP JUMPDEST PUSH1 0x2 PUSH1 0x0 SWAP1 SLOAD SWAP1 PUSH2 0x100 EXP SWAP1 DIV PUSH20 0xFFFFFFFFFFFFFFFFFFFFFFFFFFFFFFFFFFFFFFFF AND DUP2 JUMP JUMPDEST PUSH2 0x1F9 PUSH2 0x507 JUMP JUMPDEST PUSH20 0xFFFFFFFFFFFFFFFFFFFFFFFFFFFFFFFFFFFFFFFF AND PUSH2 0x217 PUSH2 0x279 JUMP JUMPDEST PUSH20 0xFFFFFFFFFFFFFFFFFFFFFFFFFFFFFFFFFFFFFFFF AND EQ PUSH2 0x26D JUMPI PUSH1 0x40 MLOAD PUSH32 0x8C379A000000000000000000000000000000000000000000000000000000000 DUP2 MSTORE PUSH1 0x4 ADD PUSH2 0x264 SWAP1 PUSH2 0xAEF JUMP JUMPDEST PUSH1 0x40 MLOAD DUP1 SWAP2 SUB SWAP1 REVERT JUMPDEST PUSH2 0x277 PUSH1 0x0 PUSH2 0x50F JUMP JUMPDEST JUMP JUMPDEST PUSH1 0x0 DUP1 PUSH1 0x0 SWAP1 SLOAD SWAP1 PUSH2 0x100 EXP SWAP1 DIV PUSH20 0xFFFFFFFFFFFFFFFFFFFFFFFFFFFFFFFFFFFFFFFF AND SWAP1 POP SWAP1 JUMP JUMPDEST PUSH1 0x1 PUSH1 0x0 SWAP1 SLOAD SWAP1 PUSH2 0x100 EXP SWAP1 DIV PUSH20 0xFFFFFFFFFFFFFFFFFFFFFFFFFFFFFFFFFFFFFFFF AND PUSH20 0xFFFFFFFFFFFFFFFFFFFFFFFFFFFFFFFFFFFFFFFF AND CALLER PUSH20 0xFFFFFFFFFFFFFFFFFFFFFFFFFFFFFFFFFFFFFFFF AND EQ PUSH2 0x332 JUMPI PUSH1 0x40 MLOAD PUSH32 0x8C379A000000000000000000000000000000000000000000000000000000000 DUP2 MSTORE PUSH1 0x4 ADD PUSH2 0x329 SWAP1 PUSH2 0xB0F JUMP JUMPDEST PUSH1 0x40 MLOAD DUP1 SWAP2 SUB SWAP1 REVERT JUMPDEST POP POP JUMP JUMPDEST DUP3 ADDRESS PUSH1 0x40 MLOAD DUP1 PUSH1 0x40 ADD PUSH1 0x40 MSTORE DUP1 PUSH1 0x8 DUP2 MSTORE PUSH1 0x20 ADD PUSH32 0x706F737456696265000000000000000000000000000000000000000000000000 DUP2 MSTORE POP PUSH1 0x2 PUSH1 0x0 SWAP1 SLOAD SWAP1 PUSH2 0x100 EXP SWAP1 DIV PUSH20 0xFFFFFFFFFFFFFFFFFFFFFFFFFFFFFFFFFFFFFFFF AND PUSH20 0xFFFFFFFFFFFFFFFFFFFFFFFFFFFFFFFFFFFFFFFF AND PUSH4 0xA78D2BA3 DUP5 CALLER DUP6 DUP6 PUSH1 0x0 CALLDATASIZE PUSH1 0x40 MLOAD DUP8 PUSH4 0xFFFFFFFF AND PUSH1 0xE0 SHL DUP2 MSTORE PUSH1 0x4 ADD PUSH2 0x3D4 SWAP7 SWAP6 SWAP5 SWAP4 SWAP3 SWAP2 SWAP1 PUSH2 0xA65 JUMP JUMPDEST PUSH1 0x0 PUSH1 0x40 MLOAD DUP1 DUP4 SUB DUP2 PUSH1 0x0 DUP8 DUP1 EXTCODESIZE ISZERO DUP1 ISZERO PUSH2 0x3EE JUMPI PUSH1 0x0 DUP1 REVERT JUMPDEST POP GAS CALL ISZERO DUP1 ISZERO PUSH2 0x402 JUMPI RETURNDATASIZE PUSH1 0x0 DUP1 RETURNDATACOPY RETURNDATASIZE PUSH1 0x0 REVERT JUMPDEST POP POP POP POP POP POP POP POP POP POP POP JUMP JUMPDEST PUSH2 0x417 PUSH2 0x507 JUMP JUMPDEST PUSH20 0xFFFFFFFFFFFFFFFFFFFFFFFFFFFFFFFFFFFFFFFF AND PUSH2 0x435 PUSH2 0x279 JUMP JUMPDEST PUSH20 0xFFFFFFFFFFFFFFFFFFFFFFFFFFFFFFFFFFFFFFFF AND EQ PUSH2 0x48B JUMPI PUSH1 0x40 MLOAD PUSH32 0x8C379A000000000000000000000000000000000000000000000000000000000 DUP2 MSTORE PUSH1 0x4 ADD PUSH2 0x482 SWAP1 PUSH2 0xAEF JUMP JUMPDEST PUSH1 0x40 MLOAD DUP1 SWAP2 SUB SWAP1 REVERT JUMPDEST PUSH1 0x0 PUSH20 0xFFFFFFFFFFFFFFFFFFFFFFFFFFFFFFFFFFFFFFFF AND DUP2 PUSH20 0xFFFFFFFFFFFFFFFFFFFFFFFFFFFFFFFFFFFFFFFF AND EQ ISZERO PUSH2 0x4FB JUMPI PUSH1 0x40 MLOAD PUSH32 0x8C379A000000000000000000000000000000000000000000000000000000000 DUP2 MSTORE PUSH1 0x4 ADD PUSH2 0x4F2 SWAP1 PUSH2 0xACF JUMP JUMPDEST PUSH1 0x40 MLOAD DUP1 SWAP2 SUB SWAP1 REVERT JUMPDEST PUSH2 0x504 DUP2 PUSH2 0x50F JUMP JUMPDEST POP JUMP JUMPDEST PUSH1 0x0 CALLER SWAP1 POP SWAP1 JUMP JUMPDEST PUSH1 0x0 DUP1 PUSH1 0x0 SWAP1 SLOAD SWAP1 PUSH2 0x100 EXP SWAP1 DIV PUSH20 0xFFFFFFFFFFFFFFFFFFFFFFFFFFFFFFFFFFFFFFFF AND SWAP1 POP DUP2 PUSH1 0x0 DUP1 PUSH2 0x100 EXP DUP2 SLOAD DUP2 PUSH20 0xFFFFFFFFFFFFFFFFFFFFFFFFFFFFFFFFFFFFFFFF MUL NOT AND SWAP1 DUP4 PUSH20 0xFFFFFFFFFFFFFFFFFFFFFFFFFFFFFFFFFFFFFFFF AND MUL OR SWAP1 SSTORE POP DUP2 PUSH20 0xFFFFFFFFFFFFFFFFFFFFFFFFFFFFFFFFFFFFFFFF AND DUP2 PUSH20 0xFFFFFFFFFFFFFFFFFFFFFFFFFFFFFFFFFFFFFFFF AND PUSH32 0x8BE0079C531659141344CD1FD0A4F28419497F9722A3DAAFE3B4186F6B6457E0 PUSH1 0x40 MLOAD PUSH1 0x40 MLOAD DUP1 SWAP2 SUB SWAP1 LOG3 POP POP JUMP JUMPDEST PUSH1 0x0 PUSH2 0x5E6 PUSH2 0x5E1 DUP5 PUSH2 0xB54 JUMP JUMPDEST PUSH2 0xB2F JUMP JUMPDEST SWAP1 POP DUP1 DUP4 DUP3 MSTORE PUSH1 0x20 DUP3 ADD SWAP1 POP DUP3 DUP6 PUSH1 0x20 DUP7 MUL DUP3 ADD GT ISZERO PUSH2 0x609 JUMPI PUSH2 0x608 PUSH2 0xD28 JUMP JUMPDEST JUMPDEST PUSH1 0x0 JUMPDEST DUP6 DUP2 LT ISZERO PUSH2 0x657 JUMPI DUP2 CALLDATALOAD PUSH8 0xFFFFFFFFFFFFFFFF DUP2 GT ISZERO PUSH2 0x62F JUMPI PUSH2 0x62E PUSH2 0xD23 JUMP JUMPDEST JUMPDEST DUP1 DUP7 ADD PUSH2 0x63C DUP10 DUP3 PUSH2 0x728 JUMP JUMPDEST DUP6 MSTORE PUSH1 0x20 DUP6 ADD SWAP5 POP PUSH1 0x20 DUP5 ADD SWAP4 POP POP POP PUSH1 0x1 DUP2 ADD SWAP1 POP PUSH2 0x60C JUMP JUMPDEST POP POP POP SWAP4 SWAP3 POP POP POP JUMP JUMPDEST PUSH1 0x0 PUSH2 0x674 PUSH2 0x66F DUP5 PUSH2 0xB80 JUMP JUMPDEST PUSH2 0xB2F JUMP JUMPDEST SWAP1 POP DUP3 DUP2 MSTORE PUSH1 0x20 DUP2 ADD DUP5 DUP5 DUP5 ADD GT ISZERO PUSH2 0x690 JUMPI PUSH2 0x68F PUSH2 0xD2D JUMP JUMPDEST JUMPDEST PUSH2 0x69B DUP5 DUP3 DUP6 PUSH2 0xC81 JUMP JUMPDEST POP SWAP4 SWAP3 POP POP POP JUMP JUMPDEST PUSH1 0x0 PUSH2 0x6B6 PUSH2 0x6B1 DUP5 PUSH2 0xBB1 JUMP JUMPDEST PUSH2 0xB2F JUMP JUMPDEST SWAP1 POP DUP3 DUP2 MSTORE PUSH1 0x20 DUP2 ADD DUP5 DUP5 DUP5 ADD GT ISZERO PUSH2 0x6D2 JUMPI PUSH2 0x6D1 PUSH2 0xD2D JUMP JUMPDEST JUMPDEST PUSH2 0x6DD DUP5 DUP3 DUP6 PUSH2 0xC81 JUMP JUMPDEST POP SWAP4 SWAP3 POP POP POP JUMP JUMPDEST PUSH1 0x0 DUP2 CALLDATALOAD SWAP1 POP PUSH2 0x6F4 DUP2 PUSH2 0xE14 JUMP JUMPDEST SWAP3 SWAP2 POP POP JUMP JUMPDEST PUSH1 0x0 DUP3 PUSH1 0x1F DUP4 ADD SLT PUSH2 0x70F JUMPI PUSH2 0x70E PUSH2 0xD23 JUMP JUMPDEST JUMPDEST DUP2 CALLDATALOAD PUSH2 0x71F DUP5 DUP3 PUSH1 0x20 DUP7 ADD PUSH2 0x5D3 JUMP JUMPDEST SWAP2 POP POP SWAP3 SWAP2 POP POP JUMP JUMPDEST PUSH1 0x0 DUP3 PUSH1 0x1F DUP4 ADD SLT PUSH2 0x73D JUMPI PUSH2 0x73C PUSH2 0xD23 JUMP JUMPDEST JUMPDEST DUP2 CALLDATALOAD PUSH2 0x74D DUP5 DUP3 PUSH1 0x20 DUP7 ADD PUSH2 0x661 JUMP JUMPDEST SWAP2 POP POP SWAP3 SWAP2 POP POP JUMP JUMPDEST PUSH1 0x0 DUP3 PUSH1 0x1F DUP4 ADD SLT PUSH2 0x76B JUMPI PUSH2 0x76A PUSH2 0xD23 JUMP JUMPDEST JUMPDEST DUP2 CALLDATALOAD PUSH2 0x77B DUP5 DUP3 PUSH1 0x20 DUP7 ADD PUSH2 0x6A3 JUMP JUMPDEST SWAP2 POP POP SWAP3 SWAP2 POP POP JUMP JUMPDEST PUSH1 0x0 DUP2 CALLDATALOAD SWAP1 POP PUSH2 0x793 DUP2 PUSH2 0xE2B JUMP JUMPDEST SWAP3 SWAP2 POP POP JUMP JUMPDEST PUSH1 0x0 PUSH1 0x20 DUP3 DUP5 SUB SLT ISZERO PUSH2 0x7AF JUMPI PUSH2 0x7AE PUSH2 0xD37 JUMP JUMPDEST JUMPDEST PUSH1 0x0 PUSH2 0x7BD DUP5 DUP3 DUP6 ADD PUSH2 0x6E5 JUMP JUMPDEST SWAP2 POP POP SWAP3 SWAP2 POP POP JUMP JUMPDEST PUSH1 0x0 PUSH1 0x20 DUP3 DUP5 SUB SLT ISZERO PUSH2 0x7DC JUMPI PUSH2 0x7DB PUSH2 0xD37 JUMP JUMPDEST JUMPDEST PUSH1 0x0 DUP3 ADD CALLDATALOAD PUSH8 0xFFFFFFFFFFFFFFFF DUP2 GT ISZERO PUSH2 0x7FA JUMPI PUSH2 0x7F9 PUSH2 0xD32 JUMP JUMPDEST JUMPDEST PUSH2 0x806 DUP5 DUP3 DUP6 ADD PUSH2 0x756 JUMP JUMPDEST SWAP2 POP POP SWAP3 SWAP2 POP POP JUMP JUMPDEST PUSH1 0x0 DUP1 PUSH1 0x40 DUP4 DUP6 SUB SLT ISZERO PUSH2 0x826 JUMPI PUSH2 0x825 PUSH2 0xD37 JUMP JUMPDEST JUMPDEST PUSH1 0x0 DUP4 ADD CALLDATALOAD PUSH8 0xFFFFFFFFFFFFFFFF DUP2 GT ISZERO PUSH2 0x844 JUMPI PUSH2 0x843 PUSH2 0xD32 JUMP JUMPDEST JUMPDEST PUSH2 0x850 DUP6 DUP3 DUP7 ADD PUSH2 0x756 JUMP JUMPDEST SWAP3 POP POP PUSH1 0x20 DUP4 ADD CALLDATALOAD PUSH8 0xFFFFFFFFFFFFFFFF DUP2 GT ISZERO PUSH2 0x871 JUMPI PUSH2 0x870 PUSH2 0xD32 JUMP JUMPDEST JUMPDEST PUSH2 0x87D DUP6 DUP3 DUP7 ADD PUSH2 0x6FA JUMP JUMPDEST SWAP2 POP POP SWAP3 POP SWAP3 SWAP1 POP JUMP JUMPDEST PUSH1 0x0 DUP1 PUSH1 0x0 DUP1 PUSH1 0x80 DUP6 DUP8 SUB SLT ISZERO PUSH2 0x8A1 JUMPI PUSH2 0x8A0 PUSH2 0xD37 JUMP JUMPDEST JUMPDEST PUSH1 0x0 DUP6 ADD CALLDATALOAD PUSH8 0xFFFFFFFFFFFFFFFF DUP2 GT ISZERO PUSH2 0x8BF JUMPI PUSH2 0x8BE PUSH2 0xD32 JUMP JUMPDEST JUMPDEST PUSH2 0x8CB DUP8 DUP3 DUP9 ADD PUSH2 0x756 JUMP JUMPDEST SWAP5 POP POP PUSH1 0x20 DUP6 ADD CALLDATALOAD PUSH8 0xFFFFFFFFFFFFFFFF DUP2 GT ISZERO PUSH2 0x8EC JUMPI PUSH2 0x8EB PUSH2 0xD32 JUMP JUMPDEST JUMPDEST PUSH2 0x8F8 DUP8 DUP3 DUP9 ADD PUSH2 0x756 JUMP JUMPDEST SWAP4 POP POP PUSH1 0x40 DUP6 ADD CALLDATALOAD PUSH8 0xFFFFFFFFFFFFFFFF DUP2 GT ISZERO PUSH2 0x919 JUMPI PUSH2 0x918 PUSH2 0xD32 JUMP JUMPDEST JUMPDEST PUSH2 0x925 DUP8 DUP3 DUP9 ADD PUSH2 0x756 JUMP JUMPDEST SWAP3 POP POP PUSH1 0x60 PUSH2 0x936 DUP8 DUP3 DUP9 ADD PUSH2 0x784 JUMP JUMPDEST SWAP2 POP POP SWAP3 SWAP6 SWAP2 SWAP5 POP SWAP3 POP JUMP JUMPDEST PUSH2 0x94B DUP2 PUSH2 0xC0F JUMP JUMPDEST DUP3 MSTORE POP POP JUMP JUMPDEST PUSH1 0x0 PUSH2 0x95D DUP4 DUP6 PUSH2 0xBED JUMP JUMPDEST SWAP4 POP PUSH2 0x96A DUP4 DUP6 DUP5 PUSH2 0xC81 JUMP JUMPDEST PUSH2 0x973 DUP4 PUSH2 0xD3C JUMP JUMPDEST DUP5 ADD SWAP1 POP SWAP4 SWAP3 POP POP POP JUMP JUMPDEST PUSH2 0x987 DUP2 PUSH2 0xC4B JUMP JUMPDEST DUP3 MSTORE POP POP JUMP JUMPDEST PUSH1 0x0 PUSH2 0x998 DUP3 PUSH2 0xBE2 JUMP JUMPDEST PUSH2 0x9A2 DUP2 DUP6 PUSH2 0xBFE JUMP JUMPDEST SWAP4 POP PUSH2 0x9B2 DUP2 DUP6 PUSH1 0x20 DUP7 ADD PUSH2 0xC90 JUMP JUMPDEST PUSH2 0x9BB DUP2 PUSH2 0xD3C JUMP JUMPDEST DUP5 ADD SWAP2 POP POP SWAP3 SWAP2 POP POP JUMP JUMPDEST PUSH1 0x0 PUSH2 0x9D3 PUSH1 0x26 DUP4 PUSH2 0xBFE JUMP JUMPDEST SWAP2 POP PUSH2 0x9DE DUP3 PUSH2 0xD4D JUMP JUMPDEST PUSH1 0x40 DUP3 ADD SWAP1 POP SWAP2 SWAP1 POP JUMP JUMPDEST PUSH1 0x0 PUSH2 0x9F6 PUSH1 0x20 DUP4 PUSH2 0xBFE JUMP JUMPDEST SWAP2 POP PUSH2 0xA01 DUP3 PUSH2 0xD9C JUMP JUMPDEST PUSH1 0x20 DUP3 ADD SWAP1 POP SWAP2 SWAP1 POP JUMP JUMPDEST PUSH1 0x0 PUSH2 0xA19 PUSH1 0x3B DUP4 PUSH2 0xBFE JUMP JUMPDEST SWAP2 POP PUSH2 0xA24 DUP3 PUSH2 0xDC5 JUMP JUMPDEST PUSH1 0x40 DUP3 ADD SWAP1 POP SWAP2 SWAP1 POP JUMP JUMPDEST PUSH1 0x0 PUSH1 0x20 DUP3 ADD SWAP1 POP PUSH2 0xA44 PUSH1 0x0 DUP4 ADD DUP5 PUSH2 0x942 JUMP JUMPDEST SWAP3 SWAP2 POP POP JUMP JUMPDEST PUSH1 0x0 PUSH1 0x20 DUP3 ADD SWAP1 POP PUSH2 0xA5F PUSH1 0x0 DUP4 ADD DUP5 PUSH2 0x97E JUMP JUMPDEST SWAP3 SWAP2 POP POP JUMP JUMPDEST PUSH1 0x0 PUSH1 0xA0 DUP3 ADD SWAP1 POP DUP2 DUP2 SUB PUSH1 0x0 DUP4 ADD MSTORE PUSH2 0xA7F DUP2 DUP10 PUSH2 0x98D JUMP JUMPDEST SWAP1 POP PUSH2 0xA8E PUSH1 0x20 DUP4 ADD DUP9 PUSH2 0x942 JUMP JUMPDEST PUSH2 0xA9B PUSH1 0x40 DUP4 ADD DUP8 PUSH2 0x942 JUMP JUMPDEST DUP2 DUP2 SUB PUSH1 0x60 DUP4 ADD MSTORE PUSH2 0xAAD DUP2 DUP7 PUSH2 0x98D JUMP JUMPDEST SWAP1 POP DUP2 DUP2 SUB PUSH1 0x80 DUP4 ADD MSTORE PUSH2 0xAC2 DUP2 DUP5 DUP7 PUSH2 0x951 JUMP JUMPDEST SWAP1 POP SWAP8 SWAP7 POP POP POP POP POP POP POP JUMP JUMPDEST PUSH1 0x0 PUSH1 0x20 DUP3 ADD SWAP1 POP DUP2 DUP2 SUB PUSH1 0x0 DUP4 ADD MSTORE PUSH2 0xAE8 DUP2 PUSH2 0x9C6 JUMP JUMPDEST SWAP1 POP SWAP2 SWAP1 POP JUMP JUMPDEST PUSH1 0x0 PUSH1 0x20 DUP3 ADD SWAP1 POP DUP2 DUP2 SUB PUSH1 0x0 DUP4 ADD MSTORE PUSH2 0xB08 DUP2 PUSH2 0x9E9 JUMP JUMPDEST SWAP1 POP SWAP2 SWAP1 POP JUMP JUMPDEST PUSH1 0x0 PUSH1 0x20 DUP3 ADD SWAP1 POP DUP2 DUP2 SUB PUSH1 0x0 DUP4 ADD MSTORE PUSH2 0xB28 DUP2 PUSH2 0xA0C JUMP JUMPDEST SWAP1 POP SWAP2 SWAP1 POP JUMP JUMPDEST PUSH1 0x0 PUSH2 0xB39 PUSH2 0xB4A JUMP JUMPDEST SWAP1 POP PUSH2 0xB45 DUP3 DUP3 PUSH2 0xCC3 JUMP JUMPDEST SWAP2 SWAP1 POP JUMP JUMPDEST PUSH1 0x0 PUSH1 0x40 MLOAD SWAP1 POP SWAP1 JUMP JUMPDEST PUSH1 0x0 PUSH8 0xFFFFFFFFFFFFFFFF DUP3 GT ISZERO PUSH2 0xB6F JUMPI PUSH2 0xB6E PUSH2 0xCF4 JUMP JUMPDEST JUMPDEST PUSH1 0x20 DUP3 MUL SWAP1 POP PUSH1 0x20 DUP2 ADD SWAP1 POP SWAP2 SWAP1 POP JUMP JUMPDEST PUSH1 0x0 PUSH8 0xFFFFFFFFFFFFFFFF DUP3 GT ISZERO PUSH2 0xB9B JUMPI PUSH2 0xB9A PUSH2 0xCF4 JUMP JUMPDEST JUMPDEST PUSH2 0xBA4 DUP3 PUSH2 0xD3C JUMP JUMPDEST SWAP1 POP PUSH1 0x20 DUP2 ADD SWAP1 POP SWAP2 SWAP1 POP JUMP JUMPDEST PUSH1 0x0 PUSH8 0xFFFFFFFFFFFFFFFF DUP3 GT ISZERO PUSH2 0xBCC JUMPI PUSH2 0xBCB PUSH2 0xCF4 JUMP JUMPDEST JUMPDEST PUSH2 0xBD5 DUP3 PUSH2 0xD3C JUMP JUMPDEST SWAP1 POP PUSH1 0x20 DUP2 ADD SWAP1 POP SWAP2 SWAP1 POP JUMP JUMPDEST PUSH1 0x0 DUP2 MLOAD SWAP1 POP SWAP2 SWAP1 POP JUMP JUMPDEST PUSH1 0x0 DUP3 DUP3 MSTORE PUSH1 0x20 DUP3 ADD SWAP1 POP SWAP3 SWAP2 POP POP JUMP JUMPDEST PUSH1 0x0 DUP3 DUP3 MSTORE PUSH1 0x20 DUP3 ADD SWAP1 POP SWAP3 SWAP2 POP POP JUMP JUMPDEST PUSH1 0x0 PUSH2 0xC1A DUP3 PUSH2 0xC21 JUMP JUMPDEST SWAP1 POP SWAP2 SWAP1 POP JUMP JUMPDEST PUSH1 0x0 PUSH20 0xFFFFFFFFFFFFFFFFFFFFFFFFFFFFFFFFFFFFFFFF DUP3 AND SWAP1 POP SWAP2 SWAP1 POP JUMP JUMPDEST PUSH1 0x0 DUP2 SWAP1 POP SWAP2 SWAP1 POP JUMP JUMPDEST PUSH1 0x0 PUSH2 0xC56 DUP3 PUSH2 0xC5D JUMP JUMPDEST SWAP1 POP SWAP2 SWAP1 POP JUMP JUMPDEST PUSH1 0x0 PUSH2 0xC68 DUP3 PUSH2 0xC6F JUMP JUMPDEST SWAP1 POP SWAP2 SWAP1 POP JUMP JUMPDEST PUSH1 0x0 PUSH2 0xC7A DUP3 PUSH2 0xC21 JUMP JUMPDEST SWAP1 POP SWAP2 SWAP1 POP JUMP JUMPDEST DUP3 DUP2 DUP4 CALLDATACOPY PUSH1 0x0 DUP4 DUP4 ADD MSTORE POP POP POP JUMP JUMPDEST PUSH1 0x0 JUMPDEST DUP4 DUP2 LT ISZERO PUSH2 0xCAE JUMPI DUP1 DUP3 ADD MLOAD DUP2 DUP5 ADD MSTORE PUSH1 0x20 DUP2 ADD SWAP1 POP PUSH2 0xC93 JUMP JUMPDEST DUP4 DUP2 GT ISZERO PUSH2 0xCBD JUMPI PUSH1 0x0 DUP5 DUP5 ADD MSTORE JUMPDEST POP POP POP POP JUMP JUMPDEST PUSH2 0xCCC DUP3 PUSH2 0xD3C JUMP JUMPDEST DUP2 ADD DUP2 DUP2 LT PUSH8 0xFFFFFFFFFFFFFFFF DUP3 GT OR ISZERO PUSH2 0xCEB JUMPI PUSH2 0xCEA PUSH2 0xCF4 JUMP JUMPDEST JUMPDEST DUP1 PUSH1 0x40 MSTORE POP POP POP JUMP JUMPDEST PUSH32 0x4E487B7100000000000000000000000000000000000000000000000000000000 PUSH1 0x0 MSTORE PUSH1 0x41 PUSH1 0x4 MSTORE PUSH1 0x24 PUSH1 0x0 REVERT JUMPDEST PUSH1 0x0 DUP1 REVERT JUMPDEST PUSH1 0x0 DUP1 REVERT JUMPDEST PUSH1 0x0 DUP1 REVERT JUMPDEST PUSH1 0x0 DUP1 REVERT JUMPDEST PUSH1 0x0 DUP1 REVERT JUMPDEST PUSH1 0x0 PUSH1 0x1F NOT PUSH1 0x1F DUP4 ADD AND SWAP1 POP SWAP2 SWAP1 POP JUMP JUMPDEST PUSH32 0x4F776E61626C653A206E6577206F776E657220697320746865207A65726F2061 PUSH1 0x0 DUP3 ADD MSTORE PUSH32 0x6464726573730000000000000000000000000000000000000000000000000000 PUSH1 0x20 DUP3 ADD MSTORE POP JUMP JUMPDEST PUSH32 0x4F776E61626C653A2063616C6C6572206973206E6F7420746865206F776E6572 PUSH1 0x0 DUP3 ADD MSTORE POP JUMP JUMPDEST PUSH32 0x43726564656E7469616C2043616C6C4261636B3A204F6E6C7920746865206F72 PUSH1 0x0 DUP3 ADD MSTORE PUSH32 0x61636C652063616E2063616C6C20746869732066756E6374696F6E0000000000 PUSH1 0x20 DUP3 ADD MSTORE POP JUMP JUMPDEST PUSH2 0xE1D DUP2 PUSH2 0xC0F JUMP JUMPDEST DUP2 EQ PUSH2 0xE28 JUMPI PUSH1 0x0 DUP1 REVERT JUMPDEST POP JUMP JUMPDEST PUSH2 0xE34 DUP2 PUSH2 0xC41 JUMP JUMPDEST DUP2 EQ PUSH2 0xE3F JUMPI PUSH1 0x0 DUP1 REVERT JUMPDEST POP JUMP INVALID LOG2 PUSH5 0x6970667358 0x22 SLT KECCAK256 0x2D DUP2 STATICCALL LOG0 0xE8 MUL 0x4D PC 0xC EXP 0xEE GASPRICE PUSH10 0xF6DA19894469606FFAF5 0xE9 PUSH29 0x30FCD278BB4A5164736F6C634300080700330000000000000000000000 "
				},
				"gasEstimates": {
					"creation": {
						"codeDepositCost": "740800",
						"executionCost": "infinite",
						"totalCost": "infinite"
					},
					"external": {
						"CREDENTIAL_EVENT()": "2623",
						"owner()": "2522",
						"postVibe(string,string,string,uint256)": "infinite",
						"postVibe_authorised(string,bytes[])": "infinite",
						"postVibe_unauthorised(string)": "infinite",
						"renounceOwnership()": "30419",
						"transferOwnership(address)": "30789"
					}
				},
				"methodIdentifiers": {
					"CREDENTIAL_EVENT()": "5f7690b3",
					"owner()": "8da5cb5b",
					"postVibe(string,string,string,uint256)": "e137cfd6",
					"postVibe_authorised(string,bytes[])": "dce8a955",
					"postVibe_unauthorised(string)": "436e99f3",
					"renounceOwnership()": "715018a6",
					"transferOwnership(address)": "f2fde38b"
				}
			},
			"storageLayout": {
				"storage": [
					{
						"astId": 7,
						"contract": "facets/CommunicationFacet.sol:CommunicationFacet",
						"label": "_owner",
						"offset": 0,
						"slot": "0",
						"type": "t_address"
					},
					{
						"astId": 244,
						"contract": "facets/CommunicationFacet.sol:CommunicationFacet",
						"label": "CREDENTIAL_ORACLE",
						"offset": 0,
						"slot": "1",
						"type": "t_address"
					},
					{
						"astId": 247,
						"contract": "facets/CommunicationFacet.sol:CommunicationFacet",
						"label": "CREDENTIAL_EVENT",
						"offset": 0,
						"slot": "2",
						"type": "t_contract(CredentialEventFacet)239"
					}
				],
				"types": {
					"t_address": {
						"encoding": "inplace",
						"label": "address",
						"numberOfBytes": "20"
					},
					"t_contract(CredentialEventFacet)239": {
						"encoding": "inplace",
						"label": "contract CredentialEventFacet",
						"numberOfBytes": "20"
					}
				}
			},
			"userdoc": {
				"kind": "user",
				"methods": {},
				"version": 1
			}
		}
	}
}