{
	"facets/GateableFacet.sol": {
		"GateableFacet": {
			"abi": [
				{
					"inputs": [
						{
							"internalType": "address",
							"name": "_credentialOracle",
							"type": "address"
						}
					],
					"stateMutability": "nonpayable",
					"type": "constructor"
				},
				{
					"inputs": [],
					"name": "CREDENTIAL_EVENT",
					"outputs": [
						{
							"internalType": "contract CredentialEventFacet",
							"name": "",
							"type": "address"
						}
					],
					"stateMutability": "view",
					"type": "function"
				}
			],
			"devdoc": {
				"kind": "dev",
				"methods": {},
				"version": 1
			},
			"evm": {
				"assembly": "    /* \"facets/GateableFacet.sol\":95:844  contract GateableFacet {... */\n  mstore(0x40, 0x80)\n    /* \"facets/GateableFacet.sol\":756:841  constructor(address _credentialOracle) {... */\n  callvalue\n  dup1\n  iszero\n  tag_1\n  jumpi\n  0x00\n  dup1\n  revert\ntag_1:\n  pop\n  mload(0x40)\n  sub(codesize, bytecodeSize)\n  dup1\n  bytecodeSize\n  dup4\n  codecopy\n  dup2\n  dup2\n  add\n  0x40\n  mstore\n  dup2\n  add\n  swap1\n  tag_2\n  swap2\n  swap1\n  tag_3\n  jump\t// in\ntag_2:\n    /* \"facets/GateableFacet.sol\":821:838  _credentialOracle */\n  dup1\n    /* \"facets/GateableFacet.sol\":801:818  CREDENTIAL_ORACLE */\n  0x00\n  dup1\n    /* \"facets/GateableFacet.sol\":801:838  CREDENTIAL_ORACLE = _credentialOracle */\n  0x0100\n  exp\n  dup2\n  sload\n  dup2\n  0xffffffffffffffffffffffffffffffffffffffff\n  mul\n  not\n  and\n  swap1\n  dup4\n  0xffffffffffffffffffffffffffffffffffffffff\n  and\n  mul\n  or\n  swap1\n  sstore\n  pop\n    /* \"facets/GateableFacet.sol\":756:841  constructor(address _credentialOracle) {... */\n  pop\n    /* \"facets/GateableFacet.sol\":95:844  contract GateableFacet {... */\n  jump(tag_6)\n    /* \"#utility.yul\":7:150   */\ntag_8:\n    /* \"#utility.yul\":64:69   */\n  0x00\n    /* \"#utility.yul\":95:101   */\n  dup2\n    /* \"#utility.yul\":89:102   */\n  mload\n    /* \"#utility.yul\":80:102   */\n  swap1\n  pop\n    /* \"#utility.yul\":111:144   */\n  tag_10\n    /* \"#utility.yul\":138:143   */\n  dup2\n    /* \"#utility.yul\":111:144   */\n  tag_11\n  jump\t// in\ntag_10:\n    /* \"#utility.yul\":7:150   */\n  swap3\n  swap2\n  pop\n  pop\n  jump\t// out\n    /* \"#utility.yul\":156:507   */\ntag_3:\n    /* \"#utility.yul\":226:232   */\n  0x00\n    /* \"#utility.yul\":275:277   */\n  0x20\n    /* \"#utility.yul\":263:272   */\n  dup3\n    /* \"#utility.yul\":254:261   */\n  dup5\n    /* \"#utility.yul\":250:273   */\n  sub\n    /* \"#utility.yul\":246:278   */\n  slt\n    /* \"#utility.yul\":243:362   */\n  iszero\n  tag_13\n  jumpi\n    /* \"#utility.yul\":281:360   */\n  tag_14\n  tag_15\n  jump\t// in\ntag_14:\n    /* \"#utility.yul\":243:362   */\ntag_13:\n    /* \"#utility.yul\":401:402   */\n  0x00\n    /* \"#utility.yul\":426:490   */\n  tag_16\n    /* \"#utility.yul\":482:489   */\n  dup5\n    /* \"#utility.yul\":473:479   */\n  dup3\n    /* \"#utility.yul\":462:471   */\n  dup6\n    /* \"#utility.yul\":458:480   */\n  add\n    /* \"#utility.yul\":426:490   */\n  tag_8\n  jump\t// in\ntag_16:\n    /* \"#utility.yul\":416:490   */\n  swap2\n  pop\n    /* \"#utility.yul\":372:500   */\n  pop\n    /* \"#utility.yul\":156:507   */\n  swap3\n  swap2\n  pop\n  pop\n  jump\t// out\n    /* \"#utility.yul\":594:690   */\ntag_19:\n    /* \"#utility.yul\":631:638   */\n  0x00\n    /* \"#utility.yul\":660:684   */\n  tag_21\n    /* \"#utility.yul\":678:683   */\n  dup3\n    /* \"#utility.yul\":660:684   */\n  tag_22\n  jump\t// in\ntag_21:\n    /* \"#utility.yul\":649:684   */\n  swap1\n  pop\n    /* \"#utility.yul\":594:690   */\n  swap2\n  swap1\n  pop\n  jump\t// out\n    /* \"#utility.yul\":696:822   */\ntag_22:\n    /* \"#utility.yul\":733:740   */\n  0x00\n    /* \"#utility.yul\":773:815   */\n  0xffffffffffffffffffffffffffffffffffffffff\n    /* \"#utility.yul\":766:771   */\n  dup3\n    /* \"#utility.yul\":762:816   */\n  and\n    /* \"#utility.yul\":751:816   */\n  swap1\n  pop\n    /* \"#utility.yul\":696:822   */\n  swap2\n  swap1\n  pop\n  jump\t// out\n    /* \"#utility.yul\":951:1068   */\ntag_15:\n    /* \"#utility.yul\":1060:1061   */\n  0x00\n    /* \"#utility.yul\":1057:1058   */\n  dup1\n    /* \"#utility.yul\":1050:1062   */\n  revert\n    /* \"#utility.yul\":1074:1196   */\ntag_11:\n    /* \"#utility.yul\":1147:1171   */\n  tag_28\n    /* \"#utility.yul\":1165:1170   */\n  dup2\n    /* \"#utility.yul\":1147:1171   */\n  tag_19\n  jump\t// in\ntag_28:\n    /* \"#utility.yul\":1140:1145   */\n  dup2\n    /* \"#utility.yul\":1137:1172   */\n  eq\n    /* \"#utility.yul\":1127:1190   */\n  tag_29\n  jumpi\n    /* \"#utility.yul\":1186:1187   */\n  0x00\n    /* \"#utility.yul\":1183:1184   */\n  dup1\n    /* \"#utility.yul\":1176:1188   */\n  revert\n    /* \"#utility.yul\":1127:1190   */\ntag_29:\n    /* \"#utility.yul\":1074:1196   */\n  pop\n  jump\t// out\n    /* \"facets/GateableFacet.sol\":95:844  contract GateableFacet {... */\ntag_6:\n  dataSize(sub_0)\n  dup1\n  dataOffset(sub_0)\n  0x00\n  codecopy\n  0x00\n  return\nstop\n\nsub_0: assembly {\n        /* \"facets/GateableFacet.sol\":95:844  contract GateableFacet {... */\n      mstore(0x40, 0x80)\n      callvalue\n      dup1\n      iszero\n      tag_1\n      jumpi\n      0x00\n      dup1\n      revert\n    tag_1:\n      pop\n      jumpi(tag_2, lt(calldatasize, 0x04))\n      shr(0xe0, calldataload(0x00))\n      dup1\n      0x5f7690b3\n      eq\n      tag_3\n      jumpi\n    tag_2:\n      0x00\n      dup1\n      revert\n        /* \"facets/GateableFacet.sol\":164:208  CredentialEventFacet public CREDENTIAL_EVENT */\n    tag_3:\n      tag_4\n      tag_5\n      jump\t// in\n    tag_4:\n      mload(0x40)\n      tag_6\n      swap2\n      swap1\n      tag_7\n      jump\t// in\n    tag_6:\n      mload(0x40)\n      dup1\n      swap2\n      sub\n      swap1\n      return\n    tag_5:\n      0x01\n      0x00\n      swap1\n      sload\n      swap1\n      0x0100\n      exp\n      swap1\n      div\n      0xffffffffffffffffffffffffffffffffffffffff\n      and\n      dup2\n      jump\t// out\n        /* \"#utility.yul\":7:194   */\n    tag_9:\n        /* \"#utility.yul\":122:187   */\n      tag_11\n        /* \"#utility.yul\":181:186   */\n      dup2\n        /* \"#utility.yul\":122:187   */\n      tag_12\n      jump\t// in\n    tag_11:\n        /* \"#utility.yul\":117:120   */\n      dup3\n        /* \"#utility.yul\":110:188   */\n      mstore\n        /* \"#utility.yul\":7:194   */\n      pop\n      pop\n      jump\t// out\n        /* \"#utility.yul\":200:478   */\n    tag_7:\n        /* \"#utility.yul\":321:325   */\n      0x00\n        /* \"#utility.yul\":359:361   */\n      0x20\n        /* \"#utility.yul\":348:357   */\n      dup3\n        /* \"#utility.yul\":344:362   */\n      add\n        /* \"#utility.yul\":336:362   */\n      swap1\n      pop\n        /* \"#utility.yul\":372:471   */\n      tag_14\n        /* \"#utility.yul\":468:469   */\n      0x00\n        /* \"#utility.yul\":457:466   */\n      dup4\n        /* \"#utility.yul\":453:470   */\n      add\n        /* \"#utility.yul\":444:450   */\n      dup5\n        /* \"#utility.yul\":372:471   */\n      tag_9\n      jump\t// in\n    tag_14:\n        /* \"#utility.yul\":200:478   */\n      swap3\n      swap2\n      pop\n      pop\n      jump\t// out\n        /* \"#utility.yul\":484:610   */\n    tag_15:\n        /* \"#utility.yul\":521:528   */\n      0x00\n        /* \"#utility.yul\":561:603   */\n      0xffffffffffffffffffffffffffffffffffffffff\n        /* \"#utility.yul\":554:559   */\n      dup3\n        /* \"#utility.yul\":550:604   */\n      and\n        /* \"#utility.yul\":539:604   */\n      swap1\n      pop\n        /* \"#utility.yul\":484:610   */\n      swap2\n      swap1\n      pop\n      jump\t// out\n        /* \"#utility.yul\":616:770   */\n    tag_12:\n        /* \"#utility.yul\":694:703   */\n      0x00\n        /* \"#utility.yul\":727:764   */\n      tag_18\n        /* \"#utility.yul\":758:763   */\n      dup3\n        /* \"#utility.yul\":727:764   */\n      tag_19\n      jump\t// in\n    tag_18:\n        /* \"#utility.yul\":714:764   */\n      swap1\n      pop\n        /* \"#utility.yul\":616:770   */\n      swap2\n      swap1\n      pop\n      jump\t// out\n        /* \"#utility.yul\":776:902   */\n    tag_19:\n        /* \"#utility.yul\":826:835   */\n      0x00\n        /* \"#utility.yul\":859:896   */\n      tag_21\n        /* \"#utility.yul\":890:895   */\n      dup3\n        /* \"#utility.yul\":859:896   */\n      tag_22\n      jump\t// in\n    tag_21:\n        /* \"#utility.yul\":846:896   */\n      swap1\n      pop\n        /* \"#utility.yul\":776:902   */\n      swap2\n      swap1\n      pop\n      jump\t// out\n        /* \"#utility.yul\":908:1021   */\n    tag_22:\n        /* \"#utility.yul\":958:967   */\n      0x00\n        /* \"#utility.yul\":991:1015   */\n      tag_24\n        /* \"#utility.yul\":1009:1014   */\n      dup3\n        /* \"#utility.yul\":991:1015   */\n      tag_15\n      jump\t// in\n    tag_24:\n        /* \"#utility.yul\":978:1015   */\n      swap1\n      pop\n        /* \"#utility.yul\":908:1021   */\n      swap2\n      swap1\n      pop\n      jump\t// out\n\n    auxdata: 0xa26469706673582212209d861e9685a21b9a6297ca5ae3645dc968dc98390b544f776d68f692f8bce98364736f6c63430008070033\n}\n",
				"bytecode": {
					"linkReferences": {},
					"object": "608060405234801561001057600080fd5b506040516102303803806102308339818101604052810190610032919061008d565b806000806101000a81548173ffffffffffffffffffffffffffffffffffffffff021916908373ffffffffffffffffffffffffffffffffffffffff16021790555050610108565b600081519050610087816100f1565b92915050565b6000602082840312156100a3576100a26100ec565b5b60006100b184828501610078565b91505092915050565b60006100c5826100cc565b9050919050565b600073ffffffffffffffffffffffffffffffffffffffff82169050919050565b600080fd5b6100fa816100ba565b811461010557600080fd5b50565b610119806101176000396000f3fe6080604052348015600f57600080fd5b506004361060285760003560e01c80635f7690b314602d575b600080fd5b60336047565b604051603e9190607a565b60405180910390f35b600160009054906101000a900473ffffffffffffffffffffffffffffffffffffffff1681565b60748160b3565b82525050565b6000602082019050608d6000830184606d565b92915050565b600073ffffffffffffffffffffffffffffffffffffffff82169050919050565b600060bc8260c3565b9050919050565b600060cc8260d3565b9050919050565b600060dc826093565b905091905056fea26469706673582212209d861e9685a21b9a6297ca5ae3645dc968dc98390b544f776d68f692f8bce98364736f6c63430008070033",
					"opcodes": "PUSH1 0x80 PUSH1 0x40 MSTORE CALLVALUE DUP1 ISZERO PUSH2 0x10 JUMPI PUSH1 0x0 DUP1 REVERT JUMPDEST POP PUSH1 0x40 MLOAD PUSH2 0x230 CODESIZE SUB DUP1 PUSH2 0x230 DUP4 CODECOPY DUP2 DUP2 ADD PUSH1 0x40 MSTORE DUP2 ADD SWAP1 PUSH2 0x32 SWAP2 SWAP1 PUSH2 0x8D JUMP JUMPDEST DUP1 PUSH1 0x0 DUP1 PUSH2 0x100 EXP DUP2 SLOAD DUP2 PUSH20 0xFFFFFFFFFFFFFFFFFFFFFFFFFFFFFFFFFFFFFFFF MUL NOT AND SWAP1 DUP4 PUSH20 0xFFFFFFFFFFFFFFFFFFFFFFFFFFFFFFFFFFFFFFFF AND MUL OR SWAP1 SSTORE POP POP PUSH2 0x108 JUMP JUMPDEST PUSH1 0x0 DUP2 MLOAD SWAP1 POP PUSH2 0x87 DUP2 PUSH2 0xF1 JUMP JUMPDEST SWAP3 SWAP2 POP POP JUMP JUMPDEST PUSH1 0x0 PUSH1 0x20 DUP3 DUP5 SUB SLT ISZERO PUSH2 0xA3 JUMPI PUSH2 0xA2 PUSH2 0xEC JUMP JUMPDEST JUMPDEST PUSH1 0x0 PUSH2 0xB1 DUP5 DUP3 DUP6 ADD PUSH2 0x78 JUMP JUMPDEST SWAP2 POP POP SWAP3 SWAP2 POP POP JUMP JUMPDEST PUSH1 0x0 PUSH2 0xC5 DUP3 PUSH2 0xCC JUMP JUMPDEST SWAP1 POP SWAP2 SWAP1 POP JUMP JUMPDEST PUSH1 0x0 PUSH20 0xFFFFFFFFFFFFFFFFFFFFFFFFFFFFFFFFFFFFFFFF DUP3 AND SWAP1 POP SWAP2 SWAP1 POP JUMP JUMPDEST PUSH1 0x0 DUP1 REVERT JUMPDEST PUSH2 0xFA DUP2 PUSH2 0xBA JUMP JUMPDEST DUP2 EQ PUSH2 0x105 JUMPI PUSH1 0x0 DUP1 REVERT JUMPDEST POP JUMP JUMPDEST PUSH2 0x119 DUP1 PUSH2 0x117 PUSH1 0x0 CODECOPY PUSH1 0x0 RETURN INVALID PUSH1 0x80 PUSH1 0x40 MSTORE CALLVALUE DUP1 ISZERO PUSH1 0xF JUMPI PUSH1 0x0 DUP1 REVERT JUMPDEST POP PUSH1 0x4 CALLDATASIZE LT PUSH1 0x28 JUMPI PUSH1 0x0 CALLDATALOAD PUSH1 0xE0 SHR DUP1 PUSH4 0x5F7690B3 EQ PUSH1 0x2D JUMPI JUMPDEST PUSH1 0x0 DUP1 REVERT JUMPDEST PUSH1 0x33 PUSH1 0x47 JUMP JUMPDEST PUSH1 0x40 MLOAD PUSH1 0x3E SWAP2 SWAP1 PUSH1 0x7A JUMP JUMPDEST PUSH1 0x40 MLOAD DUP1 SWAP2 SUB SWAP1 RETURN JUMPDEST PUSH1 0x1 PUSH1 0x0 SWAP1 SLOAD SWAP1 PUSH2 0x100 EXP SWAP1 DIV PUSH20 0xFFFFFFFFFFFFFFFFFFFFFFFFFFFFFFFFFFFFFFFF AND DUP2 JUMP JUMPDEST PUSH1 0x74 DUP2 PUSH1 0xB3 JUMP JUMPDEST DUP3 MSTORE POP POP JUMP JUMPDEST PUSH1 0x0 PUSH1 0x20 DUP3 ADD SWAP1 POP PUSH1 0x8D PUSH1 0x0 DUP4 ADD DUP5 PUSH1 0x6D JUMP JUMPDEST SWAP3 SWAP2 POP POP JUMP JUMPDEST PUSH1 0x0 PUSH20 0xFFFFFFFFFFFFFFFFFFFFFFFFFFFFFFFFFFFFFFFF DUP3 AND SWAP1 POP SWAP2 SWAP1 POP JUMP JUMPDEST PUSH1 0x0 PUSH1 0xBC DUP3 PUSH1 0xC3 JUMP JUMPDEST SWAP1 POP SWAP2 SWAP1 POP JUMP JUMPDEST PUSH1 0x0 PUSH1 0xCC DUP3 PUSH1 0xD3 JUMP JUMPDEST SWAP1 POP SWAP2 SWAP1 POP JUMP JUMPDEST PUSH1 0x0 PUSH1 0xDC DUP3 PUSH1 0x93 JUMP JUMPDEST SWAP1 POP SWAP2 SWAP1 POP JUMP INVALID LOG2 PUSH5 0x6970667358 0x22 SLT KECCAK256 SWAP14 DUP7 0x1E SWAP7 DUP6 LOG2 SHL SWAP11 PUSH3 0x97CA5A 0xE3 PUSH5 0x5DC968DC98 CODECOPY SIGNEXTEND SLOAD 0x4F PUSH24 0x6D68F692F8BCE98364736F6C634300080700330000000000 "
				},
				"gasEstimates": {
					"creation": {
						"codeDepositCost": "56200",
						"executionCost": "infinite",
						"totalCost": "infinite"
					},
					"external": {
						"CREDENTIAL_EVENT()": "2578"
					}
				},
				"methodIdentifiers": {
					"CREDENTIAL_EVENT()": "5f7690b3"
				}
			},
			"storageLayout": {
				"storage": [
					{
						"astId": 282,
						"contract": "facets/GateableFacet.sol:GateableFacet",
						"label": "CREDENTIAL_ORACLE",
						"offset": 0,
						"slot": "0",
						"type": "t_address"
					},
					{
						"astId": 285,
						"contract": "facets/GateableFacet.sol:GateableFacet",
						"label": "CREDENTIAL_EVENT",
						"offset": 0,
						"slot": "1",
						"type": "t_contract(CredentialEventFacet)277"
					}
				],
				"types": {
					"t_address": {
						"encoding": "inplace",
						"label": "address",
						"numberOfBytes": "20"
					},
					"t_contract(CredentialEventFacet)277": {
						"encoding": "inplace",
						"label": "contract CredentialEventFacet",
						"numberOfBytes": "20"
					}
				}
			},
			"userdoc": {
				"kind": "user",
				"methods": {},
				"version": 1
			}
		}
	}
}