{
	"facets/CommunicationFacet.sol": {
		"CommunicationFacet": {
			"abi": [
				{
					"inputs": [
						{
							"internalType": "contract CredentialEventFacet",
							"name": "_credentialOracle",
							"type": "address"
						}
					],
					"stateMutability": "nonpayable",
					"type": "constructor"
				},
				{
					"anonymous": false,
					"inputs": [
						{
							"indexed": true,
							"internalType": "address",
							"name": "previousOwner",
							"type": "address"
						},
						{
							"indexed": true,
							"internalType": "address",
							"name": "newOwner",
							"type": "address"
						}
					],
					"name": "OwnershipTransferred",
					"type": "event"
				},
				{
					"inputs": [],
					"name": "CREDENTIAL_EVENT",
					"outputs": [
						{
							"internalType": "contract CredentialEventFacet",
							"name": "",
							"type": "address"
						}
					],
					"stateMutability": "view",
					"type": "function"
				},
				{
					"inputs": [],
					"name": "owner",
					"outputs": [
						{
							"internalType": "address",
							"name": "",
							"type": "address"
						}
					],
					"stateMutability": "view",
					"type": "function"
				},
				{
					"inputs": [
						{
							"internalType": "string",
							"name": "someParam",
							"type": "string"
						},
						{
							"internalType": "string",
							"name": "_listId",
							"type": "string"
						},
						{
							"internalType": "string",
							"name": "thirdparam",
							"type": "string"
						},
						{
							"internalType": "uint256",
							"name": "num",
							"type": "uint256"
						},
						{
							"internalType": "bytes32[]",
							"name": "_good",
							"type": "bytes32[]"
						}
					],
					"name": "postVibe",
					"outputs": [],
					"stateMutability": "nonpayable",
					"type": "function"
				},
				{
					"inputs": [
						{
							"internalType": "string",
							"name": "someParam",
							"type": "string"
						},
						{
							"internalType": "bytes[]",
							"name": "proof",
							"type": "bytes[]"
						}
					],
					"name": "postVibe_authorised",
					"outputs": [],
					"stateMutability": "nonpayable",
					"type": "function"
				},
				{
					"inputs": [
						{
							"internalType": "string",
							"name": "someParam",
							"type": "string"
						}
					],
					"name": "postVibe_unauthorised",
					"outputs": [],
					"stateMutability": "nonpayable",
					"type": "function"
				},
				{
					"inputs": [],
					"name": "renounceOwnership",
					"outputs": [],
					"stateMutability": "nonpayable",
					"type": "function"
				},
				{
					"inputs": [
						{
							"internalType": "address",
							"name": "newOwner",
							"type": "address"
						}
					],
					"name": "transferOwnership",
					"outputs": [],
					"stateMutability": "nonpayable",
					"type": "function"
				}
			],
			"devdoc": {
				"kind": "dev",
				"methods": {
					"owner()": {
						"details": "Returns the address of the current owner."
					},
					"renounceOwnership()": {
						"details": "Leaves the contract without owner. It will not be possible to call `onlyOwner` functions anymore. Can only be called by the current owner. NOTE: Renouncing ownership will leave the contract without an owner, thereby removing any functionality that is only available to the owner."
					},
					"transferOwnership(address)": {
						"details": "Transfers ownership of the contract to a new account (`newOwner`). Can only be called by the current owner."
					}
				},
				"version": 1
			},
			"evm": {
				"assembly": "    /* \"facets/CommunicationFacet.sol\":141:820  contract CommunicationFacet is Ownable, GateableFacet {... */\n  mstore(0x40, 0x80)\n    /* \"facets/CommunicationFacet.sol\":197:285  constructor(CredentialEventFacet _credentialOracle) GateableFacet(_credentialOracle) {... */\n  callvalue\n  dup1\n  iszero\n  tag_1\n  jumpi\n  0x00\n  dup1\n  revert\ntag_1:\n  pop\n  mload(0x40)\n  sub(codesize, bytecodeSize)\n  dup1\n  bytecodeSize\n  dup4\n  codecopy\n  dup2\n  dup2\n  add\n  0x40\n  mstore\n  dup2\n  add\n  swap1\n  tag_2\n  swap2\n  swap1\n  tag_3\n  jump\t// in\ntag_2:\n    /* \"facets/CommunicationFacet.sol\":263:280  _credentialOracle */\n  dup1\n    /* \"@openzeppelin/contracts/access/Ownable.sol\":921:953  _transferOwnership(_msgSender()) */\n  tag_8\n    /* \"@openzeppelin/contracts/access/Ownable.sol\":940:952  _msgSender() */\n  tag_9\n    /* \"@openzeppelin/contracts/access/Ownable.sol\":940:950  _msgSender */\n  shl(0x20, tag_10)\n    /* \"@openzeppelin/contracts/access/Ownable.sol\":940:952  _msgSender() */\n  0x20\n  shr\n  jump\t// in\ntag_9:\n    /* \"@openzeppelin/contracts/access/Ownable.sol\":921:939  _transferOwnership */\n  shl(0x20, tag_11)\n    /* \"@openzeppelin/contracts/access/Ownable.sol\":921:953  _transferOwnership(_msgSender()) */\n  0x20\n  shr\n  jump\t// in\ntag_8:\n    /* \"facets/GateableFacet.sol\":919:936  _credentialOracle */\n  dup1\n    /* \"facets/GateableFacet.sol\":891:908  CREDENTIAL_ORACLE */\n  0x01\n  0x00\n    /* \"facets/GateableFacet.sol\":891:937  CREDENTIAL_ORACLE = address(_credentialOracle) */\n  0x0100\n  exp\n  dup2\n  sload\n  dup2\n  0xffffffffffffffffffffffffffffffffffffffff\n  mul\n  not\n  and\n  swap1\n  dup4\n  0xffffffffffffffffffffffffffffffffffffffff\n  and\n  mul\n  or\n  swap1\n  sstore\n  pop\n    /* \"facets/GateableFacet.sol\":962:979  _credentialOracle */\n  dup1\n    /* \"facets/GateableFacet.sol\":943:959  CREDENTIAL_EVENT */\n  0x02\n  0x00\n    /* \"facets/GateableFacet.sol\":943:979  CREDENTIAL_EVENT = _credentialOracle */\n  0x0100\n  exp\n  dup2\n  sload\n  dup2\n  0xffffffffffffffffffffffffffffffffffffffff\n  mul\n  not\n  and\n  swap1\n  dup4\n  0xffffffffffffffffffffffffffffffffffffffff\n  and\n  mul\n  or\n  swap1\n  sstore\n  pop\n    /* \"facets/GateableFacet.sol\":833:982  constructor(CredentialEventFacet _credentialOracle) {... */\n  pop\n    /* \"facets/CommunicationFacet.sol\":197:285  constructor(CredentialEventFacet _credentialOracle) GateableFacet(_credentialOracle) {... */\n  pop\n    /* \"facets/CommunicationFacet.sol\":141:820  contract CommunicationFacet is Ownable, GateableFacet {... */\n  jump(tag_14)\n    /* \"@openzeppelin/contracts/utils/Context.sol\":640:736  function _msgSender() internal view virtual returns (address) {... */\ntag_10:\n    /* \"@openzeppelin/contracts/utils/Context.sol\":693:700  address */\n  0x00\n    /* \"@openzeppelin/contracts/utils/Context.sol\":719:729  msg.sender */\n  caller\n    /* \"@openzeppelin/contracts/utils/Context.sol\":712:729  return msg.sender */\n  swap1\n  pop\n    /* \"@openzeppelin/contracts/utils/Context.sol\":640:736  function _msgSender() internal view virtual returns (address) {... */\n  swap1\n  jump\t// out\n    /* \"@openzeppelin/contracts/access/Ownable.sol\":2270:2457  function _transferOwnership(address newOwner) internal virtual {... */\ntag_11:\n    /* \"@openzeppelin/contracts/access/Ownable.sol\":2343:2359  address oldOwner */\n  0x00\n    /* \"@openzeppelin/contracts/access/Ownable.sol\":2362:2368  _owner */\n  dup1\n  0x00\n  swap1\n  sload\n  swap1\n  0x0100\n  exp\n  swap1\n  div\n  0xffffffffffffffffffffffffffffffffffffffff\n  and\n    /* \"@openzeppelin/contracts/access/Ownable.sol\":2343:2368  address oldOwner = _owner */\n  swap1\n  pop\n    /* \"@openzeppelin/contracts/access/Ownable.sol\":2387:2395  newOwner */\n  dup2\n    /* \"@openzeppelin/contracts/access/Ownable.sol\":2378:2384  _owner */\n  0x00\n  dup1\n    /* \"@openzeppelin/contracts/access/Ownable.sol\":2378:2395  _owner = newOwner */\n  0x0100\n  exp\n  dup2\n  sload\n  dup2\n  0xffffffffffffffffffffffffffffffffffffffff\n  mul\n  not\n  and\n  swap1\n  dup4\n  0xffffffffffffffffffffffffffffffffffffffff\n  and\n  mul\n  or\n  swap1\n  sstore\n  pop\n    /* \"@openzeppelin/contracts/access/Ownable.sol\":2441:2449  newOwner */\n  dup2\n    /* \"@openzeppelin/contracts/access/Ownable.sol\":2410:2450  OwnershipTransferred(oldOwner, newOwner) */\n  0xffffffffffffffffffffffffffffffffffffffff\n  and\n    /* \"@openzeppelin/contracts/access/Ownable.sol\":2431:2439  oldOwner */\n  dup2\n    /* \"@openzeppelin/contracts/access/Ownable.sol\":2410:2450  OwnershipTransferred(oldOwner, newOwner) */\n  0xffffffffffffffffffffffffffffffffffffffff\n  and\n  0x8be0079c531659141344cd1fd0a4f28419497f9722a3daafe3b4186f6b6457e0\n  mload(0x40)\n  mload(0x40)\n  dup1\n  swap2\n  sub\n  swap1\n  log3\n    /* \"@openzeppelin/contracts/access/Ownable.sol\":2333:2457  {... */\n  pop\n    /* \"@openzeppelin/contracts/access/Ownable.sol\":2270:2457  function _transferOwnership(address newOwner) internal virtual {... */\n  pop\n  jump\t// out\n    /* \"#utility.yul\":7:206   */\ntag_18:\n    /* \"#utility.yul\":92:97   */\n  0x00\n    /* \"#utility.yul\":123:129   */\n  dup2\n    /* \"#utility.yul\":117:130   */\n  mload\n    /* \"#utility.yul\":108:130   */\n  swap1\n  pop\n    /* \"#utility.yul\":139:200   */\n  tag_20\n    /* \"#utility.yul\":194:199   */\n  dup2\n    /* \"#utility.yul\":139:200   */\n  tag_21\n  jump\t// in\ntag_20:\n    /* \"#utility.yul\":7:206   */\n  swap3\n  swap2\n  pop\n  pop\n  jump\t// out\n    /* \"#utility.yul\":212:619   */\ntag_3:\n    /* \"#utility.yul\":310:316   */\n  0x00\n    /* \"#utility.yul\":359:361   */\n  0x20\n    /* \"#utility.yul\":347:356   */\n  dup3\n    /* \"#utility.yul\":338:345   */\n  dup5\n    /* \"#utility.yul\":334:357   */\n  sub\n    /* \"#utility.yul\":330:362   */\n  slt\n    /* \"#utility.yul\":327:446   */\n  iszero\n  tag_23\n  jumpi\n    /* \"#utility.yul\":365:444   */\n  tag_24\n  tag_25\n  jump\t// in\ntag_24:\n    /* \"#utility.yul\":327:446   */\ntag_23:\n    /* \"#utility.yul\":485:486   */\n  0x00\n    /* \"#utility.yul\":510:602   */\n  tag_26\n    /* \"#utility.yul\":594:601   */\n  dup5\n    /* \"#utility.yul\":585:591   */\n  dup3\n    /* \"#utility.yul\":574:583   */\n  dup6\n    /* \"#utility.yul\":570:592   */\n  add\n    /* \"#utility.yul\":510:602   */\n  tag_18\n  jump\t// in\ntag_26:\n    /* \"#utility.yul\":500:602   */\n  swap2\n  pop\n    /* \"#utility.yul\":456:612   */\n  pop\n    /* \"#utility.yul\":212:619   */\n  swap3\n  swap2\n  pop\n  pop\n  jump\t// out\n    /* \"#utility.yul\":706:802   */\ntag_29:\n    /* \"#utility.yul\":743:750   */\n  0x00\n    /* \"#utility.yul\":772:796   */\n  tag_31\n    /* \"#utility.yul\":790:795   */\n  dup3\n    /* \"#utility.yul\":772:796   */\n  tag_32\n  jump\t// in\ntag_31:\n    /* \"#utility.yul\":761:796   */\n  swap1\n  pop\n    /* \"#utility.yul\":706:802   */\n  swap2\n  swap1\n  pop\n  jump\t// out\n    /* \"#utility.yul\":808:932   */\ntag_33:\n    /* \"#utility.yul\":873:880   */\n  0x00\n    /* \"#utility.yul\":902:926   */\n  tag_35\n    /* \"#utility.yul\":920:925   */\n  dup3\n    /* \"#utility.yul\":902:926   */\n  tag_29\n  jump\t// in\ntag_35:\n    /* \"#utility.yul\":891:926   */\n  swap1\n  pop\n    /* \"#utility.yul\":808:932   */\n  swap2\n  swap1\n  pop\n  jump\t// out\n    /* \"#utility.yul\":938:1064   */\ntag_32:\n    /* \"#utility.yul\":975:982   */\n  0x00\n    /* \"#utility.yul\":1015:1057   */\n  0xffffffffffffffffffffffffffffffffffffffff\n    /* \"#utility.yul\":1008:1013   */\n  dup3\n    /* \"#utility.yul\":1004:1058   */\n  and\n    /* \"#utility.yul\":993:1058   */\n  swap1\n  pop\n    /* \"#utility.yul\":938:1064   */\n  swap2\n  swap1\n  pop\n  jump\t// out\n    /* \"#utility.yul\":1193:1310   */\ntag_25:\n    /* \"#utility.yul\":1302:1303   */\n  0x00\n    /* \"#utility.yul\":1299:1300   */\n  dup1\n    /* \"#utility.yul\":1292:1304   */\n  revert\n    /* \"#utility.yul\":1316:1494   */\ntag_21:\n    /* \"#utility.yul\":1417:1469   */\n  tag_41\n    /* \"#utility.yul\":1463:1468   */\n  dup2\n    /* \"#utility.yul\":1417:1469   */\n  tag_33\n  jump\t// in\ntag_41:\n    /* \"#utility.yul\":1410:1415   */\n  dup2\n    /* \"#utility.yul\":1407:1470   */\n  eq\n    /* \"#utility.yul\":1397:1488   */\n  tag_42\n  jumpi\n    /* \"#utility.yul\":1484:1485   */\n  0x00\n    /* \"#utility.yul\":1481:1482   */\n  dup1\n    /* \"#utility.yul\":1474:1486   */\n  revert\n    /* \"#utility.yul\":1397:1488   */\ntag_42:\n    /* \"#utility.yul\":1316:1494   */\n  pop\n  jump\t// out\n    /* \"facets/CommunicationFacet.sol\":141:820  contract CommunicationFacet is Ownable, GateableFacet {... */\ntag_14:\n  dataSize(sub_0)\n  dup1\n  dataOffset(sub_0)\n  0x00\n  codecopy\n  0x00\n  return\nstop\n\nsub_0: assembly {\n        /* \"facets/CommunicationFacet.sol\":141:820  contract CommunicationFacet is Ownable, GateableFacet {... */\n      mstore(0x40, 0x80)\n      callvalue\n      dup1\n      iszero\n      tag_1\n      jumpi\n      0x00\n      dup1\n      revert\n    tag_1:\n      pop\n      jumpi(tag_2, lt(calldatasize, 0x04))\n      shr(0xe0, calldataload(0x00))\n      dup1\n      0x715018a6\n      gt\n      tag_10\n      jumpi\n      dup1\n      0x715018a6\n      eq\n      tag_6\n      jumpi\n      dup1\n      0x8da5cb5b\n      eq\n      tag_7\n      jumpi\n      dup1\n      0xdce8a955\n      eq\n      tag_8\n      jumpi\n      dup1\n      0xf2fde38b\n      eq\n      tag_9\n      jumpi\n      jump(tag_2)\n    tag_10:\n      dup1\n      0x169c4424\n      eq\n      tag_3\n      jumpi\n      dup1\n      0x436e99f3\n      eq\n      tag_4\n      jumpi\n      dup1\n      0x5f7690b3\n      eq\n      tag_5\n      jumpi\n    tag_2:\n      0x00\n      dup1\n      revert\n        /* \"facets/CommunicationFacet.sol\":370:562  function postVibe(string memory someParam, string memory _listId, string memory thirdparam, uint256 num, bytes32[] memory _good) has_credential(_listId, address(this), 'postVibe') external {... */\n    tag_3:\n      tag_11\n      0x04\n      dup1\n      calldatasize\n      sub\n      dup2\n      add\n      swap1\n      tag_12\n      swap2\n      swap1\n      tag_13\n      jump\t// in\n    tag_12:\n      tag_14\n      jump\t// in\n    tag_11:\n      stop\n        /* \"facets/CommunicationFacet.sol\":700:817  function postVibe_unauthorised(string memory someParam) credentialCallback external {... */\n    tag_4:\n      tag_15\n      0x04\n      dup1\n      calldatasize\n      sub\n      dup2\n      add\n      swap1\n      tag_16\n      swap2\n      swap1\n      tag_17\n      jump\t// in\n    tag_16:\n      tag_18\n      jump\t// in\n    tag_15:\n      stop\n        /* \"facets/GateableFacet.sol\":165:209  CredentialEventFacet public CREDENTIAL_EVENT */\n    tag_5:\n      tag_19\n      tag_20\n      jump\t// in\n    tag_19:\n      mload(0x40)\n      tag_21\n      swap2\n      swap1\n      tag_22\n      jump\t// in\n    tag_21:\n      mload(0x40)\n      dup1\n      swap2\n      sub\n      swap1\n      return\n        /* \"@openzeppelin/contracts/access/Ownable.sol\":1668:1769  function renounceOwnership() public virtual onlyOwner {... */\n    tag_6:\n      tag_23\n      tag_24\n      jump\t// in\n    tag_23:\n      stop\n        /* \"@openzeppelin/contracts/access/Ownable.sol\":1036:1121  function owner() public view virtual returns (address) {... */\n    tag_7:\n      tag_25\n      tag_26\n      jump\t// in\n    tag_25:\n      mload(0x40)\n      tag_27\n      swap2\n      swap1\n      tag_28\n      jump\t// in\n    tag_27:\n      mload(0x40)\n      dup1\n      swap2\n      sub\n      swap1\n      return\n        /* \"facets/CommunicationFacet.sol\":564:698  function postVibe_authorised(string memory someParam, bytes[] memory proof) credentialCallback external {... */\n    tag_8:\n      tag_29\n      0x04\n      dup1\n      calldatasize\n      sub\n      dup2\n      add\n      swap1\n      tag_30\n      swap2\n      swap1\n      tag_31\n      jump\t// in\n    tag_30:\n      tag_32\n      jump\t// in\n    tag_29:\n      stop\n        /* \"@openzeppelin/contracts/access/Ownable.sol\":1918:2116  function transferOwnership(address newOwner) public virtual onlyOwner {... */\n    tag_9:\n      tag_33\n      0x04\n      dup1\n      calldatasize\n      sub\n      dup2\n      add\n      swap1\n      tag_34\n      swap2\n      swap1\n      tag_35\n      jump\t// in\n    tag_34:\n      tag_36\n      jump\t// in\n    tag_33:\n      stop\n        /* \"facets/CommunicationFacet.sol\":370:562  function postVibe(string memory someParam, string memory _listId, string memory thirdparam, uint256 num, bytes32[] memory _good) has_credential(_listId, address(this), 'postVibe') external {... */\n    tag_14:\n        /* \"facets/CommunicationFacet.sol\":514:521  _listId */\n      dup4\n        /* \"facets/CommunicationFacet.sol\":531:535  this */\n      address\n        /* \"facets/GateableFacet.sol\":328:521  modifier has_credential(string memory _list_id, address _contractAddr, string memory _funcName) {... */\n      mload(0x40)\n      dup1\n      0x40\n      add\n      0x40\n      mstore\n      dup1\n      0x08\n      dup2\n      mstore\n      0x20\n      add\n      0x706f737456696265000000000000000000000000000000000000000000000000\n      dup2\n      mstore\n      pop\n        /* \"facets/GateableFacet.sol\":427:443  CREDENTIAL_EVENT */\n      0x02\n      0x00\n      swap1\n      sload\n      swap1\n      0x0100\n      exp\n      swap1\n      div\n      0xffffffffffffffffffffffffffffffffffffffff\n      and\n        /* \"facets/GateableFacet.sol\":427:453  CREDENTIAL_EVENT.emitEvent */\n      0xffffffffffffffffffffffffffffffffffffffff\n      and\n      0xa78d2ba3\n        /* \"facets/GateableFacet.sol\":454:462  _list_id */\n      dup5\n        /* \"facets/GateableFacet.sol\":464:474  msg.sender */\n      caller\n        /* \"facets/GateableFacet.sol\":476:489  _contractAddr */\n      dup6\n        /* \"facets/GateableFacet.sol\":491:500  _funcName */\n      dup6\n        /* \"facets/GateableFacet.sol\":502:510  msg.data */\n      0x00\n      calldatasize\n        /* \"facets/GateableFacet.sol\":427:511  CREDENTIAL_EVENT.emitEvent(_list_id, msg.sender, _contractAddr, _funcName, msg.data) */\n      mload(0x40)\n      dup8\n      0xffffffff\n      and\n      0xe0\n      shl\n      dup2\n      mstore\n      0x04\n      add\n      tag_38\n      swap7\n      swap6\n      swap5\n      swap4\n      swap3\n      swap2\n      swap1\n      tag_39\n      jump\t// in\n    tag_38:\n      0x00\n      mload(0x40)\n      dup1\n      dup4\n      sub\n      dup2\n      0x00\n      dup8\n      dup1\n      extcodesize\n      iszero\n      dup1\n      iszero\n      tag_40\n      jumpi\n      0x00\n      dup1\n      revert\n    tag_40:\n      pop\n      gas\n      call\n      iszero\n      dup1\n      iszero\n      tag_42\n      jumpi\n      returndatasize\n      0x00\n      dup1\n      returndatacopy\n      revert(0x00, returndatasize)\n    tag_42:\n      pop\n      pop\n      pop\n      pop\n        /* \"facets/CommunicationFacet.sol\":370:562  function postVibe(string memory someParam, string memory _listId, string memory thirdparam, uint256 num, bytes32[] memory _good) has_credential(_listId, address(this), 'postVibe') external {... */\n      pop\n      pop\n      pop\n      pop\n      pop\n      pop\n      pop\n      pop\n      jump\t// out\n        /* \"facets/CommunicationFacet.sol\":700:817  function postVibe_unauthorised(string memory someParam) credentialCallback external {... */\n    tag_18:\n        /* \"facets/GateableFacet.sol\":742:759  CREDENTIAL_ORACLE */\n      0x01\n      0x00\n      swap1\n      sload\n      swap1\n      0x0100\n      exp\n      swap1\n      div\n      0xffffffffffffffffffffffffffffffffffffffff\n      and\n        /* \"facets/GateableFacet.sol\":728:759  msg.sender == CREDENTIAL_ORACLE */\n      0xffffffffffffffffffffffffffffffffffffffff\n      and\n        /* \"facets/GateableFacet.sol\":728:738  msg.sender */\n      caller\n        /* \"facets/GateableFacet.sol\":728:759  msg.sender == CREDENTIAL_ORACLE */\n      0xffffffffffffffffffffffffffffffffffffffff\n      and\n      eq\n        /* \"facets/GateableFacet.sol\":720:823  require(msg.sender == CREDENTIAL_ORACLE, \"Credential CallBack: Only the oracle can call this function\") */\n      tag_45\n      jumpi\n      mload(0x40)\n      0x08c379a000000000000000000000000000000000000000000000000000000000\n      dup2\n      mstore\n      0x04\n      add\n      tag_46\n      swap1\n      tag_47\n      jump\t// in\n    tag_46:\n      mload(0x40)\n      dup1\n      swap2\n      sub\n      swap1\n      revert\n    tag_45:\n        /* \"facets/CommunicationFacet.sol\":700:817  function postVibe_unauthorised(string memory someParam) credentialCallback external {... */\n      pop\n      jump\t// out\n        /* \"facets/GateableFacet.sol\":165:209  CredentialEventFacet public CREDENTIAL_EVENT */\n    tag_20:\n      0x02\n      0x00\n      swap1\n      sload\n      swap1\n      0x0100\n      exp\n      swap1\n      div\n      0xffffffffffffffffffffffffffffffffffffffff\n      and\n      dup2\n      jump\t// out\n        /* \"@openzeppelin/contracts/access/Ownable.sol\":1668:1769  function renounceOwnership() public virtual onlyOwner {... */\n    tag_24:\n        /* \"@openzeppelin/contracts/access/Ownable.sol\":1259:1271  _msgSender() */\n      tag_50\n        /* \"@openzeppelin/contracts/access/Ownable.sol\":1259:1269  _msgSender */\n      tag_51\n        /* \"@openzeppelin/contracts/access/Ownable.sol\":1259:1271  _msgSender() */\n      jump\t// in\n    tag_50:\n        /* \"@openzeppelin/contracts/access/Ownable.sol\":1248:1271  owner() == _msgSender() */\n      0xffffffffffffffffffffffffffffffffffffffff\n      and\n        /* \"@openzeppelin/contracts/access/Ownable.sol\":1248:1255  owner() */\n      tag_52\n        /* \"@openzeppelin/contracts/access/Ownable.sol\":1248:1253  owner */\n      tag_26\n        /* \"@openzeppelin/contracts/access/Ownable.sol\":1248:1255  owner() */\n      jump\t// in\n    tag_52:\n        /* \"@openzeppelin/contracts/access/Ownable.sol\":1248:1271  owner() == _msgSender() */\n      0xffffffffffffffffffffffffffffffffffffffff\n      and\n      eq\n        /* \"@openzeppelin/contracts/access/Ownable.sol\":1240:1308  require(owner() == _msgSender(), \"Ownable: caller is not the owner\") */\n      tag_53\n      jumpi\n      mload(0x40)\n      0x08c379a000000000000000000000000000000000000000000000000000000000\n      dup2\n      mstore\n      0x04\n      add\n      tag_54\n      swap1\n      tag_55\n      jump\t// in\n    tag_54:\n      mload(0x40)\n      dup1\n      swap2\n      sub\n      swap1\n      revert\n    tag_53:\n        /* \"@openzeppelin/contracts/access/Ownable.sol\":1732:1762  _transferOwnership(address(0)) */\n      tag_57\n        /* \"@openzeppelin/contracts/access/Ownable.sol\":1759:1760  0 */\n      0x00\n        /* \"@openzeppelin/contracts/access/Ownable.sol\":1732:1750  _transferOwnership */\n      tag_58\n        /* \"@openzeppelin/contracts/access/Ownable.sol\":1732:1762  _transferOwnership(address(0)) */\n      jump\t// in\n    tag_57:\n        /* \"@openzeppelin/contracts/access/Ownable.sol\":1668:1769  function renounceOwnership() public virtual onlyOwner {... */\n      jump\t// out\n        /* \"@openzeppelin/contracts/access/Ownable.sol\":1036:1121  function owner() public view virtual returns (address) {... */\n    tag_26:\n        /* \"@openzeppelin/contracts/access/Ownable.sol\":1082:1089  address */\n      0x00\n        /* \"@openzeppelin/contracts/access/Ownable.sol\":1108:1114  _owner */\n      dup1\n      0x00\n      swap1\n      sload\n      swap1\n      0x0100\n      exp\n      swap1\n      div\n      0xffffffffffffffffffffffffffffffffffffffff\n      and\n        /* \"@openzeppelin/contracts/access/Ownable.sol\":1101:1114  return _owner */\n      swap1\n      pop\n        /* \"@openzeppelin/contracts/access/Ownable.sol\":1036:1121  function owner() public view virtual returns (address) {... */\n      swap1\n      jump\t// out\n        /* \"facets/CommunicationFacet.sol\":564:698  function postVibe_authorised(string memory someParam, bytes[] memory proof) credentialCallback external {... */\n    tag_32:\n        /* \"facets/GateableFacet.sol\":742:759  CREDENTIAL_ORACLE */\n      0x01\n      0x00\n      swap1\n      sload\n      swap1\n      0x0100\n      exp\n      swap1\n      div\n      0xffffffffffffffffffffffffffffffffffffffff\n      and\n        /* \"facets/GateableFacet.sol\":728:759  msg.sender == CREDENTIAL_ORACLE */\n      0xffffffffffffffffffffffffffffffffffffffff\n      and\n        /* \"facets/GateableFacet.sol\":728:738  msg.sender */\n      caller\n        /* \"facets/GateableFacet.sol\":728:759  msg.sender == CREDENTIAL_ORACLE */\n      0xffffffffffffffffffffffffffffffffffffffff\n      and\n      eq\n        /* \"facets/GateableFacet.sol\":720:823  require(msg.sender == CREDENTIAL_ORACLE, \"Credential CallBack: Only the oracle can call this function\") */\n      tag_61\n      jumpi\n      mload(0x40)\n      0x08c379a000000000000000000000000000000000000000000000000000000000\n      dup2\n      mstore\n      0x04\n      add\n      tag_62\n      swap1\n      tag_47\n      jump\t// in\n    tag_62:\n      mload(0x40)\n      dup1\n      swap2\n      sub\n      swap1\n      revert\n    tag_61:\n        /* \"facets/CommunicationFacet.sol\":564:698  function postVibe_authorised(string memory someParam, bytes[] memory proof) credentialCallback external {... */\n      pop\n      pop\n      jump\t// out\n        /* \"@openzeppelin/contracts/access/Ownable.sol\":1918:2116  function transferOwnership(address newOwner) public virtual onlyOwner {... */\n    tag_36:\n        /* \"@openzeppelin/contracts/access/Ownable.sol\":1259:1271  _msgSender() */\n      tag_65\n        /* \"@openzeppelin/contracts/access/Ownable.sol\":1259:1269  _msgSender */\n      tag_51\n        /* \"@openzeppelin/contracts/access/Ownable.sol\":1259:1271  _msgSender() */\n      jump\t// in\n    tag_65:\n        /* \"@openzeppelin/contracts/access/Ownable.sol\":1248:1271  owner() == _msgSender() */\n      0xffffffffffffffffffffffffffffffffffffffff\n      and\n        /* \"@openzeppelin/contracts/access/Ownable.sol\":1248:1255  owner() */\n      tag_66\n        /* \"@openzeppelin/contracts/access/Ownable.sol\":1248:1253  owner */\n      tag_26\n        /* \"@openzeppelin/contracts/access/Ownable.sol\":1248:1255  owner() */\n      jump\t// in\n    tag_66:\n        /* \"@openzeppelin/contracts/access/Ownable.sol\":1248:1271  owner() == _msgSender() */\n      0xffffffffffffffffffffffffffffffffffffffff\n      and\n      eq\n        /* \"@openzeppelin/contracts/access/Ownable.sol\":1240:1308  require(owner() == _msgSender(), \"Ownable: caller is not the owner\") */\n      tag_67\n      jumpi\n      mload(0x40)\n      0x08c379a000000000000000000000000000000000000000000000000000000000\n      dup2\n      mstore\n      0x04\n      add\n      tag_68\n      swap1\n      tag_55\n      jump\t// in\n    tag_68:\n      mload(0x40)\n      dup1\n      swap2\n      sub\n      swap1\n      revert\n    tag_67:\n        /* \"@openzeppelin/contracts/access/Ownable.sol\":2026:2027  0 */\n      0x00\n        /* \"@openzeppelin/contracts/access/Ownable.sol\":2006:2028  newOwner != address(0) */\n      0xffffffffffffffffffffffffffffffffffffffff\n      and\n        /* \"@openzeppelin/contracts/access/Ownable.sol\":2006:2014  newOwner */\n      dup2\n        /* \"@openzeppelin/contracts/access/Ownable.sol\":2006:2028  newOwner != address(0) */\n      0xffffffffffffffffffffffffffffffffffffffff\n      and\n      eq\n      iszero\n        /* \"@openzeppelin/contracts/access/Ownable.sol\":1998:2071  require(newOwner != address(0), \"Ownable: new owner is the zero address\") */\n      tag_70\n      jumpi\n      mload(0x40)\n      0x08c379a000000000000000000000000000000000000000000000000000000000\n      dup2\n      mstore\n      0x04\n      add\n      tag_71\n      swap1\n      tag_72\n      jump\t// in\n    tag_71:\n      mload(0x40)\n      dup1\n      swap2\n      sub\n      swap1\n      revert\n    tag_70:\n        /* \"@openzeppelin/contracts/access/Ownable.sol\":2081:2109  _transferOwnership(newOwner) */\n      tag_73\n        /* \"@openzeppelin/contracts/access/Ownable.sol\":2100:2108  newOwner */\n      dup2\n        /* \"@openzeppelin/contracts/access/Ownable.sol\":2081:2099  _transferOwnership */\n      tag_58\n        /* \"@openzeppelin/contracts/access/Ownable.sol\":2081:2109  _transferOwnership(newOwner) */\n      jump\t// in\n    tag_73:\n        /* \"@openzeppelin/contracts/access/Ownable.sol\":1918:2116  function transferOwnership(address newOwner) public virtual onlyOwner {... */\n      pop\n      jump\t// out\n        /* \"@openzeppelin/contracts/utils/Context.sol\":640:736  function _msgSender() internal view virtual returns (address) {... */\n    tag_51:\n        /* \"@openzeppelin/contracts/utils/Context.sol\":693:700  address */\n      0x00\n        /* \"@openzeppelin/contracts/utils/Context.sol\":719:729  msg.sender */\n      caller\n        /* \"@openzeppelin/contracts/utils/Context.sol\":712:729  return msg.sender */\n      swap1\n      pop\n        /* \"@openzeppelin/contracts/utils/Context.sol\":640:736  function _msgSender() internal view virtual returns (address) {... */\n      swap1\n      jump\t// out\n        /* \"@openzeppelin/contracts/access/Ownable.sol\":2270:2457  function _transferOwnership(address newOwner) internal virtual {... */\n    tag_58:\n        /* \"@openzeppelin/contracts/access/Ownable.sol\":2343:2359  address oldOwner */\n      0x00\n        /* \"@openzeppelin/contracts/access/Ownable.sol\":2362:2368  _owner */\n      dup1\n      0x00\n      swap1\n      sload\n      swap1\n      0x0100\n      exp\n      swap1\n      div\n      0xffffffffffffffffffffffffffffffffffffffff\n      and\n        /* \"@openzeppelin/contracts/access/Ownable.sol\":2343:2368  address oldOwner = _owner */\n      swap1\n      pop\n        /* \"@openzeppelin/contracts/access/Ownable.sol\":2387:2395  newOwner */\n      dup2\n        /* \"@openzeppelin/contracts/access/Ownable.sol\":2378:2384  _owner */\n      0x00\n      dup1\n        /* \"@openzeppelin/contracts/access/Ownable.sol\":2378:2395  _owner = newOwner */\n      0x0100\n      exp\n      dup2\n      sload\n      dup2\n      0xffffffffffffffffffffffffffffffffffffffff\n      mul\n      not\n      and\n      swap1\n      dup4\n      0xffffffffffffffffffffffffffffffffffffffff\n      and\n      mul\n      or\n      swap1\n      sstore\n      pop\n        /* \"@openzeppelin/contracts/access/Ownable.sol\":2441:2449  newOwner */\n      dup2\n        /* \"@openzeppelin/contracts/access/Ownable.sol\":2410:2450  OwnershipTransferred(oldOwner, newOwner) */\n      0xffffffffffffffffffffffffffffffffffffffff\n      and\n        /* \"@openzeppelin/contracts/access/Ownable.sol\":2431:2439  oldOwner */\n      dup2\n        /* \"@openzeppelin/contracts/access/Ownable.sol\":2410:2450  OwnershipTransferred(oldOwner, newOwner) */\n      0xffffffffffffffffffffffffffffffffffffffff\n      and\n      0x8be0079c531659141344cd1fd0a4f28419497f9722a3daafe3b4186f6b6457e0\n      mload(0x40)\n      mload(0x40)\n      dup1\n      swap2\n      sub\n      swap1\n      log3\n        /* \"@openzeppelin/contracts/access/Ownable.sol\":2333:2457  {... */\n      pop\n        /* \"@openzeppelin/contracts/access/Ownable.sol\":2270:2457  function _transferOwnership(address newOwner) internal virtual {... */\n      pop\n      jump\t// out\n        /* \"#utility.yul\":24:746   */\n    tag_77:\n        /* \"#utility.yul\":120:125   */\n      0x00\n        /* \"#utility.yul\":145:226   */\n      tag_79\n        /* \"#utility.yul\":161:225   */\n      tag_80\n        /* \"#utility.yul\":218:224   */\n      dup5\n        /* \"#utility.yul\":161:225   */\n      tag_81\n      jump\t// in\n    tag_80:\n        /* \"#utility.yul\":145:226   */\n      tag_82\n      jump\t// in\n    tag_79:\n        /* \"#utility.yul\":136:226   */\n      swap1\n      pop\n        /* \"#utility.yul\":246:251   */\n      dup1\n        /* \"#utility.yul\":275:281   */\n      dup4\n        /* \"#utility.yul\":268:273   */\n      dup3\n        /* \"#utility.yul\":261:282   */\n      mstore\n        /* \"#utility.yul\":309:313   */\n      0x20\n        /* \"#utility.yul\":302:307   */\n      dup3\n        /* \"#utility.yul\":298:314   */\n      add\n        /* \"#utility.yul\":291:314   */\n      swap1\n      pop\n        /* \"#utility.yul\":335:341   */\n      dup3\n        /* \"#utility.yul\":385:388   */\n      dup6\n        /* \"#utility.yul\":377:381   */\n      0x20\n        /* \"#utility.yul\":369:375   */\n      dup7\n        /* \"#utility.yul\":365:382   */\n      mul\n        /* \"#utility.yul\":360:363   */\n      dup3\n        /* \"#utility.yul\":356:383   */\n      add\n        /* \"#utility.yul\":353:389   */\n      gt\n        /* \"#utility.yul\":350:493   */\n      iszero\n      tag_83\n      jumpi\n        /* \"#utility.yul\":404:483   */\n      tag_84\n      tag_85\n      jump\t// in\n    tag_84:\n        /* \"#utility.yul\":350:493   */\n    tag_83:\n        /* \"#utility.yul\":517:518   */\n      0x00\n        /* \"#utility.yul\":502:740   */\n    tag_86:\n        /* \"#utility.yul\":527:533   */\n      dup6\n        /* \"#utility.yul\":524:525   */\n      dup2\n        /* \"#utility.yul\":521:534   */\n      lt\n        /* \"#utility.yul\":502:740   */\n      iszero\n      tag_88\n      jumpi\n        /* \"#utility.yul\":595:598   */\n      dup2\n        /* \"#utility.yul\":624:661   */\n      tag_89\n        /* \"#utility.yul\":657:660   */\n      dup9\n        /* \"#utility.yul\":645:655   */\n      dup3\n        /* \"#utility.yul\":624:661   */\n      tag_90\n      jump\t// in\n    tag_89:\n        /* \"#utility.yul\":619:622   */\n      dup5\n        /* \"#utility.yul\":612:662   */\n      mstore\n        /* \"#utility.yul\":691:695   */\n      0x20\n        /* \"#utility.yul\":686:689   */\n      dup5\n        /* \"#utility.yul\":682:696   */\n      add\n        /* \"#utility.yul\":675:696   */\n      swap4\n      pop\n        /* \"#utility.yul\":725:729   */\n      0x20\n        /* \"#utility.yul\":720:723   */\n      dup4\n        /* \"#utility.yul\":716:730   */\n      add\n        /* \"#utility.yul\":709:730   */\n      swap3\n      pop\n        /* \"#utility.yul\":562:740   */\n      pop\n        /* \"#utility.yul\":549:550   */\n      0x01\n        /* \"#utility.yul\":546:547   */\n      dup2\n        /* \"#utility.yul\":542:551   */\n      add\n        /* \"#utility.yul\":537:551   */\n      swap1\n      pop\n        /* \"#utility.yul\":502:740   */\n      jump(tag_86)\n    tag_88:\n        /* \"#utility.yul\":506:520   */\n      pop\n        /* \"#utility.yul\":126:746   */\n      pop\n      pop\n        /* \"#utility.yul\":24:746   */\n      swap4\n      swap3\n      pop\n      pop\n      pop\n      jump\t// out\n        /* \"#utility.yul\":767:1721   */\n    tag_91:\n        /* \"#utility.yul\":872:877   */\n      0x00\n        /* \"#utility.yul\":897:987   */\n      tag_93\n        /* \"#utility.yul\":913:986   */\n      tag_94\n        /* \"#utility.yul\":979:985   */\n      dup5\n        /* \"#utility.yul\":913:986   */\n      tag_95\n      jump\t// in\n    tag_94:\n        /* \"#utility.yul\":897:987   */\n      tag_82\n      jump\t// in\n    tag_93:\n        /* \"#utility.yul\":888:987   */\n      swap1\n      pop\n        /* \"#utility.yul\":1007:1012   */\n      dup1\n        /* \"#utility.yul\":1036:1042   */\n      dup4\n        /* \"#utility.yul\":1029:1034   */\n      dup3\n        /* \"#utility.yul\":1022:1043   */\n      mstore\n        /* \"#utility.yul\":1070:1074   */\n      0x20\n        /* \"#utility.yul\":1063:1068   */\n      dup3\n        /* \"#utility.yul\":1059:1075   */\n      add\n        /* \"#utility.yul\":1052:1075   */\n      swap1\n      pop\n        /* \"#utility.yul\":1096:1102   */\n      dup3\n        /* \"#utility.yul\":1146:1149   */\n      dup6\n        /* \"#utility.yul\":1138:1142   */\n      0x20\n        /* \"#utility.yul\":1130:1136   */\n      dup7\n        /* \"#utility.yul\":1126:1143   */\n      mul\n        /* \"#utility.yul\":1121:1124   */\n      dup3\n        /* \"#utility.yul\":1117:1144   */\n      add\n        /* \"#utility.yul\":1114:1150   */\n      gt\n        /* \"#utility.yul\":1111:1254   */\n      iszero\n      tag_96\n      jumpi\n        /* \"#utility.yul\":1165:1244   */\n      tag_97\n      tag_85\n      jump\t// in\n    tag_97:\n        /* \"#utility.yul\":1111:1254   */\n    tag_96:\n        /* \"#utility.yul\":1278:1279   */\n      0x00\n        /* \"#utility.yul\":1263:1715   */\n    tag_98:\n        /* \"#utility.yul\":1288:1294   */\n      dup6\n        /* \"#utility.yul\":1285:1286   */\n      dup2\n        /* \"#utility.yul\":1282:1295   */\n      lt\n        /* \"#utility.yul\":1263:1715   */\n      iszero\n      tag_100\n      jumpi\n        /* \"#utility.yul\":1370:1373   */\n      dup2\n        /* \"#utility.yul\":1357:1374   */\n      calldataload\n        /* \"#utility.yul\":1406:1424   */\n      0xffffffffffffffff\n        /* \"#utility.yul\":1393:1404   */\n      dup2\n        /* \"#utility.yul\":1390:1425   */\n      gt\n        /* \"#utility.yul\":1387:1509   */\n      iszero\n      tag_101\n      jumpi\n        /* \"#utility.yul\":1428:1507   */\n      tag_102\n      tag_103\n      jump\t// in\n    tag_102:\n        /* \"#utility.yul\":1387:1509   */\n    tag_101:\n        /* \"#utility.yul\":1552:1563   */\n      dup1\n        /* \"#utility.yul\":1544:1550   */\n      dup7\n        /* \"#utility.yul\":1540:1564   */\n      add\n        /* \"#utility.yul\":1590:1636   */\n      tag_104\n        /* \"#utility.yul\":1632:1635   */\n      dup10\n        /* \"#utility.yul\":1620:1630   */\n      dup3\n        /* \"#utility.yul\":1590:1636   */\n      tag_105\n      jump\t// in\n    tag_104:\n        /* \"#utility.yul\":1585:1588   */\n      dup6\n        /* \"#utility.yul\":1578:1637   */\n      mstore\n        /* \"#utility.yul\":1666:1670   */\n      0x20\n        /* \"#utility.yul\":1661:1664   */\n      dup6\n        /* \"#utility.yul\":1657:1671   */\n      add\n        /* \"#utility.yul\":1650:1671   */\n      swap5\n      pop\n        /* \"#utility.yul\":1700:1704   */\n      0x20\n        /* \"#utility.yul\":1695:1698   */\n      dup5\n        /* \"#utility.yul\":1691:1705   */\n      add\n        /* \"#utility.yul\":1684:1705   */\n      swap4\n      pop\n        /* \"#utility.yul\":1323:1715   */\n      pop\n      pop\n        /* \"#utility.yul\":1310:1311   */\n      0x01\n        /* \"#utility.yul\":1307:1308   */\n      dup2\n        /* \"#utility.yul\":1303:1312   */\n      add\n        /* \"#utility.yul\":1298:1312   */\n      swap1\n      pop\n        /* \"#utility.yul\":1263:1715   */\n      jump(tag_98)\n    tag_100:\n        /* \"#utility.yul\":1267:1281   */\n      pop\n        /* \"#utility.yul\":878:1721   */\n      pop\n      pop\n        /* \"#utility.yul\":767:1721   */\n      swap4\n      swap3\n      pop\n      pop\n      pop\n      jump\t// out\n        /* \"#utility.yul\":1727:2137   */\n    tag_106:\n        /* \"#utility.yul\":1804:1809   */\n      0x00\n        /* \"#utility.yul\":1829:1894   */\n      tag_108\n        /* \"#utility.yul\":1845:1893   */\n      tag_109\n        /* \"#utility.yul\":1886:1892   */\n      dup5\n        /* \"#utility.yul\":1845:1893   */\n      tag_110\n      jump\t// in\n    tag_109:\n        /* \"#utility.yul\":1829:1894   */\n      tag_82\n      jump\t// in\n    tag_108:\n        /* \"#utility.yul\":1820:1894   */\n      swap1\n      pop\n        /* \"#utility.yul\":1917:1923   */\n      dup3\n        /* \"#utility.yul\":1910:1915   */\n      dup2\n        /* \"#utility.yul\":1903:1924   */\n      mstore\n        /* \"#utility.yul\":1955:1959   */\n      0x20\n        /* \"#utility.yul\":1948:1953   */\n      dup2\n        /* \"#utility.yul\":1944:1960   */\n      add\n        /* \"#utility.yul\":1993:1996   */\n      dup5\n        /* \"#utility.yul\":1984:1990   */\n      dup5\n        /* \"#utility.yul\":1979:1982   */\n      dup5\n        /* \"#utility.yul\":1975:1991   */\n      add\n        /* \"#utility.yul\":1972:1997   */\n      gt\n        /* \"#utility.yul\":1969:2081   */\n      iszero\n      tag_111\n      jumpi\n        /* \"#utility.yul\":2000:2079   */\n      tag_112\n      tag_113\n      jump\t// in\n    tag_112:\n        /* \"#utility.yul\":1969:2081   */\n    tag_111:\n        /* \"#utility.yul\":2090:2131   */\n      tag_114\n        /* \"#utility.yul\":2124:2130   */\n      dup5\n        /* \"#utility.yul\":2119:2122   */\n      dup3\n        /* \"#utility.yul\":2114:2117   */\n      dup6\n        /* \"#utility.yul\":2090:2131   */\n      tag_115\n      jump\t// in\n    tag_114:\n        /* \"#utility.yul\":1810:2137   */\n      pop\n        /* \"#utility.yul\":1727:2137   */\n      swap4\n      swap3\n      pop\n      pop\n      pop\n      jump\t// out\n        /* \"#utility.yul\":2143:2555   */\n    tag_116:\n        /* \"#utility.yul\":2221:2226   */\n      0x00\n        /* \"#utility.yul\":2246:2312   */\n      tag_118\n        /* \"#utility.yul\":2262:2311   */\n      tag_119\n        /* \"#utility.yul\":2304:2310   */\n      dup5\n        /* \"#utility.yul\":2262:2311   */\n      tag_120\n      jump\t// in\n    tag_119:\n        /* \"#utility.yul\":2246:2312   */\n      tag_82\n      jump\t// in\n    tag_118:\n        /* \"#utility.yul\":2237:2312   */\n      swap1\n      pop\n        /* \"#utility.yul\":2335:2341   */\n      dup3\n        /* \"#utility.yul\":2328:2333   */\n      dup2\n        /* \"#utility.yul\":2321:2342   */\n      mstore\n        /* \"#utility.yul\":2373:2377   */\n      0x20\n        /* \"#utility.yul\":2366:2371   */\n      dup2\n        /* \"#utility.yul\":2362:2378   */\n      add\n        /* \"#utility.yul\":2411:2414   */\n      dup5\n        /* \"#utility.yul\":2402:2408   */\n      dup5\n        /* \"#utility.yul\":2397:2400   */\n      dup5\n        /* \"#utility.yul\":2393:2409   */\n      add\n        /* \"#utility.yul\":2390:2415   */\n      gt\n        /* \"#utility.yul\":2387:2499   */\n      iszero\n      tag_121\n      jumpi\n        /* \"#utility.yul\":2418:2497   */\n      tag_122\n      tag_113\n      jump\t// in\n    tag_122:\n        /* \"#utility.yul\":2387:2499   */\n    tag_121:\n        /* \"#utility.yul\":2508:2549   */\n      tag_123\n        /* \"#utility.yul\":2542:2548   */\n      dup5\n        /* \"#utility.yul\":2537:2540   */\n      dup3\n        /* \"#utility.yul\":2532:2535   */\n      dup6\n        /* \"#utility.yul\":2508:2549   */\n      tag_115\n      jump\t// in\n    tag_123:\n        /* \"#utility.yul\":2227:2555   */\n      pop\n        /* \"#utility.yul\":2143:2555   */\n      swap4\n      swap3\n      pop\n      pop\n      pop\n      jump\t// out\n        /* \"#utility.yul\":2561:2700   */\n    tag_124:\n        /* \"#utility.yul\":2607:2612   */\n      0x00\n        /* \"#utility.yul\":2645:2651   */\n      dup2\n        /* \"#utility.yul\":2632:2652   */\n      calldataload\n        /* \"#utility.yul\":2623:2652   */\n      swap1\n      pop\n        /* \"#utility.yul\":2661:2694   */\n      tag_126\n        /* \"#utility.yul\":2688:2693   */\n      dup2\n        /* \"#utility.yul\":2661:2694   */\n      tag_127\n      jump\t// in\n    tag_126:\n        /* \"#utility.yul\":2561:2700   */\n      swap3\n      swap2\n      pop\n      pop\n      jump\t// out\n        /* \"#utility.yul\":2723:3093   */\n    tag_128:\n        /* \"#utility.yul\":2794:2799   */\n      0x00\n        /* \"#utility.yul\":2843:2846   */\n      dup3\n        /* \"#utility.yul\":2836:2840   */\n      0x1f\n        /* \"#utility.yul\":2828:2834   */\n      dup4\n        /* \"#utility.yul\":2824:2841   */\n      add\n        /* \"#utility.yul\":2820:2847   */\n      slt\n        /* \"#utility.yul\":2810:2932   */\n      tag_130\n      jumpi\n        /* \"#utility.yul\":2851:2930   */\n      tag_131\n      tag_103\n      jump\t// in\n    tag_131:\n        /* \"#utility.yul\":2810:2932   */\n    tag_130:\n        /* \"#utility.yul\":2968:2974   */\n      dup2\n        /* \"#utility.yul\":2955:2975   */\n      calldataload\n        /* \"#utility.yul\":2993:3087   */\n      tag_132\n        /* \"#utility.yul\":3083:3086   */\n      dup5\n        /* \"#utility.yul\":3075:3081   */\n      dup3\n        /* \"#utility.yul\":3068:3072   */\n      0x20\n        /* \"#utility.yul\":3060:3066   */\n      dup7\n        /* \"#utility.yul\":3056:3073   */\n      add\n        /* \"#utility.yul\":2993:3087   */\n      tag_77\n      jump\t// in\n    tag_132:\n        /* \"#utility.yul\":2984:3087   */\n      swap2\n      pop\n        /* \"#utility.yul\":2800:3093   */\n      pop\n        /* \"#utility.yul\":2723:3093   */\n      swap3\n      swap2\n      pop\n      pop\n      jump\t// out\n        /* \"#utility.yul\":3114:3502   */\n    tag_133:\n        /* \"#utility.yul\":3194:3199   */\n      0x00\n        /* \"#utility.yul\":3243:3246   */\n      dup3\n        /* \"#utility.yul\":3236:3240   */\n      0x1f\n        /* \"#utility.yul\":3228:3234   */\n      dup4\n        /* \"#utility.yul\":3224:3241   */\n      add\n        /* \"#utility.yul\":3220:3247   */\n      slt\n        /* \"#utility.yul\":3210:3332   */\n      tag_135\n      jumpi\n        /* \"#utility.yul\":3251:3330   */\n      tag_136\n      tag_103\n      jump\t// in\n    tag_136:\n        /* \"#utility.yul\":3210:3332   */\n    tag_135:\n        /* \"#utility.yul\":3368:3374   */\n      dup2\n        /* \"#utility.yul\":3355:3375   */\n      calldataload\n        /* \"#utility.yul\":3393:3496   */\n      tag_137\n        /* \"#utility.yul\":3492:3495   */\n      dup5\n        /* \"#utility.yul\":3484:3490   */\n      dup3\n        /* \"#utility.yul\":3477:3481   */\n      0x20\n        /* \"#utility.yul\":3469:3475   */\n      dup7\n        /* \"#utility.yul\":3465:3482   */\n      add\n        /* \"#utility.yul\":3393:3496   */\n      tag_91\n      jump\t// in\n    tag_137:\n        /* \"#utility.yul\":3384:3496   */\n      swap2\n      pop\n        /* \"#utility.yul\":3200:3502   */\n      pop\n        /* \"#utility.yul\":3114:3502   */\n      swap3\n      swap2\n      pop\n      pop\n      jump\t// out\n        /* \"#utility.yul\":3508:3647   */\n    tag_90:\n        /* \"#utility.yul\":3554:3559   */\n      0x00\n        /* \"#utility.yul\":3592:3598   */\n      dup2\n        /* \"#utility.yul\":3579:3599   */\n      calldataload\n        /* \"#utility.yul\":3570:3599   */\n      swap1\n      pop\n        /* \"#utility.yul\":3608:3641   */\n      tag_139\n        /* \"#utility.yul\":3635:3640   */\n      dup2\n        /* \"#utility.yul\":3608:3641   */\n      tag_140\n      jump\t// in\n    tag_139:\n        /* \"#utility.yul\":3508:3647   */\n      swap3\n      swap2\n      pop\n      pop\n      jump\t// out\n        /* \"#utility.yul\":3666:4004   */\n    tag_105:\n        /* \"#utility.yul\":3721:3726   */\n      0x00\n        /* \"#utility.yul\":3770:3773   */\n      dup3\n        /* \"#utility.yul\":3763:3767   */\n      0x1f\n        /* \"#utility.yul\":3755:3761   */\n      dup4\n        /* \"#utility.yul\":3751:3768   */\n      add\n        /* \"#utility.yul\":3747:3774   */\n      slt\n        /* \"#utility.yul\":3737:3859   */\n      tag_142\n      jumpi\n        /* \"#utility.yul\":3778:3857   */\n      tag_143\n      tag_103\n      jump\t// in\n    tag_143:\n        /* \"#utility.yul\":3737:3859   */\n    tag_142:\n        /* \"#utility.yul\":3895:3901   */\n      dup2\n        /* \"#utility.yul\":3882:3902   */\n      calldataload\n        /* \"#utility.yul\":3920:3998   */\n      tag_144\n        /* \"#utility.yul\":3994:3997   */\n      dup5\n        /* \"#utility.yul\":3986:3992   */\n      dup3\n        /* \"#utility.yul\":3979:3983   */\n      0x20\n        /* \"#utility.yul\":3971:3977   */\n      dup7\n        /* \"#utility.yul\":3967:3984   */\n      add\n        /* \"#utility.yul\":3920:3998   */\n      tag_106\n      jump\t// in\n    tag_144:\n        /* \"#utility.yul\":3911:3998   */\n      swap2\n      pop\n        /* \"#utility.yul\":3727:4004   */\n      pop\n        /* \"#utility.yul\":3666:4004   */\n      swap3\n      swap2\n      pop\n      pop\n      jump\t// out\n        /* \"#utility.yul\":4024:4364   */\n    tag_145:\n        /* \"#utility.yul\":4080:4085   */\n      0x00\n        /* \"#utility.yul\":4129:4132   */\n      dup3\n        /* \"#utility.yul\":4122:4126   */\n      0x1f\n        /* \"#utility.yul\":4114:4120   */\n      dup4\n        /* \"#utility.yul\":4110:4127   */\n      add\n        /* \"#utility.yul\":4106:4133   */\n      slt\n        /* \"#utility.yul\":4096:4218   */\n      tag_147\n      jumpi\n        /* \"#utility.yul\":4137:4216   */\n      tag_148\n      tag_103\n      jump\t// in\n    tag_148:\n        /* \"#utility.yul\":4096:4218   */\n    tag_147:\n        /* \"#utility.yul\":4254:4260   */\n      dup2\n        /* \"#utility.yul\":4241:4261   */\n      calldataload\n        /* \"#utility.yul\":4279:4358   */\n      tag_149\n        /* \"#utility.yul\":4354:4357   */\n      dup5\n        /* \"#utility.yul\":4346:4352   */\n      dup3\n        /* \"#utility.yul\":4339:4343   */\n      0x20\n        /* \"#utility.yul\":4331:4337   */\n      dup7\n        /* \"#utility.yul\":4327:4344   */\n      add\n        /* \"#utility.yul\":4279:4358   */\n      tag_116\n      jump\t// in\n    tag_149:\n        /* \"#utility.yul\":4270:4358   */\n      swap2\n      pop\n        /* \"#utility.yul\":4086:4364   */\n      pop\n        /* \"#utility.yul\":4024:4364   */\n      swap3\n      swap2\n      pop\n      pop\n      jump\t// out\n        /* \"#utility.yul\":4370:4509   */\n    tag_150:\n        /* \"#utility.yul\":4416:4421   */\n      0x00\n        /* \"#utility.yul\":4454:4460   */\n      dup2\n        /* \"#utility.yul\":4441:4461   */\n      calldataload\n        /* \"#utility.yul\":4432:4461   */\n      swap1\n      pop\n        /* \"#utility.yul\":4470:4503   */\n      tag_152\n        /* \"#utility.yul\":4497:4502   */\n      dup2\n        /* \"#utility.yul\":4470:4503   */\n      tag_153\n      jump\t// in\n    tag_152:\n        /* \"#utility.yul\":4370:4509   */\n      swap3\n      swap2\n      pop\n      pop\n      jump\t// out\n        /* \"#utility.yul\":4515:4844   */\n    tag_35:\n        /* \"#utility.yul\":4574:4580   */\n      0x00\n        /* \"#utility.yul\":4623:4625   */\n      0x20\n        /* \"#utility.yul\":4611:4620   */\n      dup3\n        /* \"#utility.yul\":4602:4609   */\n      dup5\n        /* \"#utility.yul\":4598:4621   */\n      sub\n        /* \"#utility.yul\":4594:4626   */\n      slt\n        /* \"#utility.yul\":4591:4710   */\n      iszero\n      tag_155\n      jumpi\n        /* \"#utility.yul\":4629:4708   */\n      tag_156\n      tag_157\n      jump\t// in\n    tag_156:\n        /* \"#utility.yul\":4591:4710   */\n    tag_155:\n        /* \"#utility.yul\":4749:4750   */\n      0x00\n        /* \"#utility.yul\":4774:4827   */\n      tag_158\n        /* \"#utility.yul\":4819:4826   */\n      dup5\n        /* \"#utility.yul\":4810:4816   */\n      dup3\n        /* \"#utility.yul\":4799:4808   */\n      dup6\n        /* \"#utility.yul\":4795:4817   */\n      add\n        /* \"#utility.yul\":4774:4827   */\n      tag_124\n      jump\t// in\n    tag_158:\n        /* \"#utility.yul\":4764:4827   */\n      swap2\n      pop\n        /* \"#utility.yul\":4720:4837   */\n      pop\n        /* \"#utility.yul\":4515:4844   */\n      swap3\n      swap2\n      pop\n      pop\n      jump\t// out\n        /* \"#utility.yul\":4850:5359   */\n    tag_17:\n        /* \"#utility.yul\":4919:4925   */\n      0x00\n        /* \"#utility.yul\":4968:4970   */\n      0x20\n        /* \"#utility.yul\":4956:4965   */\n      dup3\n        /* \"#utility.yul\":4947:4954   */\n      dup5\n        /* \"#utility.yul\":4943:4966   */\n      sub\n        /* \"#utility.yul\":4939:4971   */\n      slt\n        /* \"#utility.yul\":4936:5055   */\n      iszero\n      tag_160\n      jumpi\n        /* \"#utility.yul\":4974:5053   */\n      tag_161\n      tag_157\n      jump\t// in\n    tag_161:\n        /* \"#utility.yul\":4936:5055   */\n    tag_160:\n        /* \"#utility.yul\":5122:5123   */\n      0x00\n        /* \"#utility.yul\":5111:5120   */\n      dup3\n        /* \"#utility.yul\":5107:5124   */\n      add\n        /* \"#utility.yul\":5094:5125   */\n      calldataload\n        /* \"#utility.yul\":5152:5170   */\n      0xffffffffffffffff\n        /* \"#utility.yul\":5144:5150   */\n      dup2\n        /* \"#utility.yul\":5141:5171   */\n      gt\n        /* \"#utility.yul\":5138:5255   */\n      iszero\n      tag_162\n      jumpi\n        /* \"#utility.yul\":5174:5253   */\n      tag_163\n      tag_164\n      jump\t// in\n    tag_163:\n        /* \"#utility.yul\":5138:5255   */\n    tag_162:\n        /* \"#utility.yul\":5279:5342   */\n      tag_165\n        /* \"#utility.yul\":5334:5341   */\n      dup5\n        /* \"#utility.yul\":5325:5331   */\n      dup3\n        /* \"#utility.yul\":5314:5323   */\n      dup6\n        /* \"#utility.yul\":5310:5332   */\n      add\n        /* \"#utility.yul\":5279:5342   */\n      tag_145\n      jump\t// in\n    tag_165:\n        /* \"#utility.yul\":5269:5342   */\n      swap2\n      pop\n        /* \"#utility.yul\":5065:5352   */\n      pop\n        /* \"#utility.yul\":4850:5359   */\n      swap3\n      swap2\n      pop\n      pop\n      jump\t// out\n        /* \"#utility.yul\":5365:6247   */\n    tag_31:\n        /* \"#utility.yul\":5477:5483   */\n      0x00\n        /* \"#utility.yul\":5485:5491   */\n      dup1\n        /* \"#utility.yul\":5534:5536   */\n      0x40\n        /* \"#utility.yul\":5522:5531   */\n      dup4\n        /* \"#utility.yul\":5513:5520   */\n      dup6\n        /* \"#utility.yul\":5509:5532   */\n      sub\n        /* \"#utility.yul\":5505:5537   */\n      slt\n        /* \"#utility.yul\":5502:5621   */\n      iszero\n      tag_167\n      jumpi\n        /* \"#utility.yul\":5540:5619   */\n      tag_168\n      tag_157\n      jump\t// in\n    tag_168:\n        /* \"#utility.yul\":5502:5621   */\n    tag_167:\n        /* \"#utility.yul\":5688:5689   */\n      0x00\n        /* \"#utility.yul\":5677:5686   */\n      dup4\n        /* \"#utility.yul\":5673:5690   */\n      add\n        /* \"#utility.yul\":5660:5691   */\n      calldataload\n        /* \"#utility.yul\":5718:5736   */\n      0xffffffffffffffff\n        /* \"#utility.yul\":5710:5716   */\n      dup2\n        /* \"#utility.yul\":5707:5737   */\n      gt\n        /* \"#utility.yul\":5704:5821   */\n      iszero\n      tag_169\n      jumpi\n        /* \"#utility.yul\":5740:5819   */\n      tag_170\n      tag_164\n      jump\t// in\n    tag_170:\n        /* \"#utility.yul\":5704:5821   */\n    tag_169:\n        /* \"#utility.yul\":5845:5908   */\n      tag_171\n        /* \"#utility.yul\":5900:5907   */\n      dup6\n        /* \"#utility.yul\":5891:5897   */\n      dup3\n        /* \"#utility.yul\":5880:5889   */\n      dup7\n        /* \"#utility.yul\":5876:5898   */\n      add\n        /* \"#utility.yul\":5845:5908   */\n      tag_145\n      jump\t// in\n    tag_171:\n        /* \"#utility.yul\":5835:5908   */\n      swap3\n      pop\n        /* \"#utility.yul\":5631:5918   */\n      pop\n        /* \"#utility.yul\":5985:5987   */\n      0x20\n        /* \"#utility.yul\":5974:5983   */\n      dup4\n        /* \"#utility.yul\":5970:5988   */\n      add\n        /* \"#utility.yul\":5957:5989   */\n      calldataload\n        /* \"#utility.yul\":6016:6034   */\n      0xffffffffffffffff\n        /* \"#utility.yul\":6008:6014   */\n      dup2\n        /* \"#utility.yul\":6005:6035   */\n      gt\n        /* \"#utility.yul\":6002:6119   */\n      iszero\n      tag_172\n      jumpi\n        /* \"#utility.yul\":6038:6117   */\n      tag_173\n      tag_164\n      jump\t// in\n    tag_173:\n        /* \"#utility.yul\":6002:6119   */\n    tag_172:\n        /* \"#utility.yul\":6143:6230   */\n      tag_174\n        /* \"#utility.yul\":6222:6229   */\n      dup6\n        /* \"#utility.yul\":6213:6219   */\n      dup3\n        /* \"#utility.yul\":6202:6211   */\n      dup7\n        /* \"#utility.yul\":6198:6220   */\n      add\n        /* \"#utility.yul\":6143:6230   */\n      tag_133\n      jump\t// in\n    tag_174:\n        /* \"#utility.yul\":6133:6230   */\n      swap2\n      pop\n        /* \"#utility.yul\":5928:6240   */\n      pop\n        /* \"#utility.yul\":5365:6247   */\n      swap3\n      pop\n      swap3\n      swap1\n      pop\n      jump\t// out\n        /* \"#utility.yul\":6253:7914   */\n    tag_13:\n        /* \"#utility.yul\":6403:6409   */\n      0x00\n        /* \"#utility.yul\":6411:6417   */\n      dup1\n        /* \"#utility.yul\":6419:6425   */\n      0x00\n        /* \"#utility.yul\":6427:6433   */\n      dup1\n        /* \"#utility.yul\":6435:6441   */\n      0x00\n        /* \"#utility.yul\":6484:6487   */\n      0xa0\n        /* \"#utility.yul\":6472:6481   */\n      dup7\n        /* \"#utility.yul\":6463:6470   */\n      dup9\n        /* \"#utility.yul\":6459:6482   */\n      sub\n        /* \"#utility.yul\":6455:6488   */\n      slt\n        /* \"#utility.yul\":6452:6572   */\n      iszero\n      tag_176\n      jumpi\n        /* \"#utility.yul\":6491:6570   */\n      tag_177\n      tag_157\n      jump\t// in\n    tag_177:\n        /* \"#utility.yul\":6452:6572   */\n    tag_176:\n        /* \"#utility.yul\":6639:6640   */\n      0x00\n        /* \"#utility.yul\":6628:6637   */\n      dup7\n        /* \"#utility.yul\":6624:6641   */\n      add\n        /* \"#utility.yul\":6611:6642   */\n      calldataload\n        /* \"#utility.yul\":6669:6687   */\n      0xffffffffffffffff\n        /* \"#utility.yul\":6661:6667   */\n      dup2\n        /* \"#utility.yul\":6658:6688   */\n      gt\n        /* \"#utility.yul\":6655:6772   */\n      iszero\n      tag_178\n      jumpi\n        /* \"#utility.yul\":6691:6770   */\n      tag_179\n      tag_164\n      jump\t// in\n    tag_179:\n        /* \"#utility.yul\":6655:6772   */\n    tag_178:\n        /* \"#utility.yul\":6796:6859   */\n      tag_180\n        /* \"#utility.yul\":6851:6858   */\n      dup9\n        /* \"#utility.yul\":6842:6848   */\n      dup3\n        /* \"#utility.yul\":6831:6840   */\n      dup10\n        /* \"#utility.yul\":6827:6849   */\n      add\n        /* \"#utility.yul\":6796:6859   */\n      tag_145\n      jump\t// in\n    tag_180:\n        /* \"#utility.yul\":6786:6859   */\n      swap6\n      pop\n        /* \"#utility.yul\":6582:6869   */\n      pop\n        /* \"#utility.yul\":6936:6938   */\n      0x20\n        /* \"#utility.yul\":6925:6934   */\n      dup7\n        /* \"#utility.yul\":6921:6939   */\n      add\n        /* \"#utility.yul\":6908:6940   */\n      calldataload\n        /* \"#utility.yul\":6967:6985   */\n      0xffffffffffffffff\n        /* \"#utility.yul\":6959:6965   */\n      dup2\n        /* \"#utility.yul\":6956:6986   */\n      gt\n        /* \"#utility.yul\":6953:7070   */\n      iszero\n      tag_181\n      jumpi\n        /* \"#utility.yul\":6989:7068   */\n      tag_182\n      tag_164\n      jump\t// in\n    tag_182:\n        /* \"#utility.yul\":6953:7070   */\n    tag_181:\n        /* \"#utility.yul\":7094:7157   */\n      tag_183\n        /* \"#utility.yul\":7149:7156   */\n      dup9\n        /* \"#utility.yul\":7140:7146   */\n      dup3\n        /* \"#utility.yul\":7129:7138   */\n      dup10\n        /* \"#utility.yul\":7125:7147   */\n      add\n        /* \"#utility.yul\":7094:7157   */\n      tag_145\n      jump\t// in\n    tag_183:\n        /* \"#utility.yul\":7084:7157   */\n      swap5\n      pop\n        /* \"#utility.yul\":6879:7167   */\n      pop\n        /* \"#utility.yul\":7234:7236   */\n      0x40\n        /* \"#utility.yul\":7223:7232   */\n      dup7\n        /* \"#utility.yul\":7219:7237   */\n      add\n        /* \"#utility.yul\":7206:7238   */\n      calldataload\n        /* \"#utility.yul\":7265:7283   */\n      0xffffffffffffffff\n        /* \"#utility.yul\":7257:7263   */\n      dup2\n        /* \"#utility.yul\":7254:7284   */\n      gt\n        /* \"#utility.yul\":7251:7368   */\n      iszero\n      tag_184\n      jumpi\n        /* \"#utility.yul\":7287:7366   */\n      tag_185\n      tag_164\n      jump\t// in\n    tag_185:\n        /* \"#utility.yul\":7251:7368   */\n    tag_184:\n        /* \"#utility.yul\":7392:7455   */\n      tag_186\n        /* \"#utility.yul\":7447:7454   */\n      dup9\n        /* \"#utility.yul\":7438:7444   */\n      dup3\n        /* \"#utility.yul\":7427:7436   */\n      dup10\n        /* \"#utility.yul\":7423:7445   */\n      add\n        /* \"#utility.yul\":7392:7455   */\n      tag_145\n      jump\t// in\n    tag_186:\n        /* \"#utility.yul\":7382:7455   */\n      swap4\n      pop\n        /* \"#utility.yul\":7177:7465   */\n      pop\n        /* \"#utility.yul\":7504:7506   */\n      0x60\n        /* \"#utility.yul\":7530:7583   */\n      tag_187\n        /* \"#utility.yul\":7575:7582   */\n      dup9\n        /* \"#utility.yul\":7566:7572   */\n      dup3\n        /* \"#utility.yul\":7555:7564   */\n      dup10\n        /* \"#utility.yul\":7551:7573   */\n      add\n        /* \"#utility.yul\":7530:7583   */\n      tag_150\n      jump\t// in\n    tag_187:\n        /* \"#utility.yul\":7520:7583   */\n      swap3\n      pop\n        /* \"#utility.yul\":7475:7593   */\n      pop\n        /* \"#utility.yul\":7660:7663   */\n      0x80\n        /* \"#utility.yul\":7649:7658   */\n      dup7\n        /* \"#utility.yul\":7645:7664   */\n      add\n        /* \"#utility.yul\":7632:7665   */\n      calldataload\n        /* \"#utility.yul\":7692:7710   */\n      0xffffffffffffffff\n        /* \"#utility.yul\":7684:7690   */\n      dup2\n        /* \"#utility.yul\":7681:7711   */\n      gt\n        /* \"#utility.yul\":7678:7795   */\n      iszero\n      tag_188\n      jumpi\n        /* \"#utility.yul\":7714:7793   */\n      tag_189\n      tag_164\n      jump\t// in\n    tag_189:\n        /* \"#utility.yul\":7678:7795   */\n    tag_188:\n        /* \"#utility.yul\":7819:7897   */\n      tag_190\n        /* \"#utility.yul\":7889:7896   */\n      dup9\n        /* \"#utility.yul\":7880:7886   */\n      dup3\n        /* \"#utility.yul\":7869:7878   */\n      dup10\n        /* \"#utility.yul\":7865:7887   */\n      add\n        /* \"#utility.yul\":7819:7897   */\n      tag_128\n      jump\t// in\n    tag_190:\n        /* \"#utility.yul\":7809:7897   */\n      swap2\n      pop\n        /* \"#utility.yul\":7603:7907   */\n      pop\n        /* \"#utility.yul\":6253:7914   */\n      swap3\n      swap6\n      pop\n      swap3\n      swap6\n      swap1\n      swap4\n      pop\n      jump\t// out\n        /* \"#utility.yul\":7920:8038   */\n    tag_191:\n        /* \"#utility.yul\":8007:8031   */\n      tag_193\n        /* \"#utility.yul\":8025:8030   */\n      dup2\n        /* \"#utility.yul\":8007:8031   */\n      tag_194\n      jump\t// in\n    tag_193:\n        /* \"#utility.yul\":8002:8005   */\n      dup3\n        /* \"#utility.yul\":7995:8032   */\n      mstore\n        /* \"#utility.yul\":7920:8038   */\n      pop\n      pop\n      jump\t// out\n        /* \"#utility.yul\":8066:8367   */\n    tag_195:\n        /* \"#utility.yul\":8162:8165   */\n      0x00\n        /* \"#utility.yul\":8183:8253   */\n      tag_197\n        /* \"#utility.yul\":8246:8252   */\n      dup4\n        /* \"#utility.yul\":8241:8244   */\n      dup6\n        /* \"#utility.yul\":8183:8253   */\n      tag_198\n      jump\t// in\n    tag_197:\n        /* \"#utility.yul\":8176:8253   */\n      swap4\n      pop\n        /* \"#utility.yul\":8263:8306   */\n      tag_199\n        /* \"#utility.yul\":8299:8305   */\n      dup4\n        /* \"#utility.yul\":8294:8297   */\n      dup6\n        /* \"#utility.yul\":8287:8292   */\n      dup5\n        /* \"#utility.yul\":8263:8306   */\n      tag_115\n      jump\t// in\n    tag_199:\n        /* \"#utility.yul\":8331:8360   */\n      tag_200\n        /* \"#utility.yul\":8353:8359   */\n      dup4\n        /* \"#utility.yul\":8331:8360   */\n      tag_201\n      jump\t// in\n    tag_200:\n        /* \"#utility.yul\":8326:8329   */\n      dup5\n        /* \"#utility.yul\":8322:8361   */\n      add\n        /* \"#utility.yul\":8315:8361   */\n      swap1\n      pop\n        /* \"#utility.yul\":8066:8367   */\n      swap4\n      swap3\n      pop\n      pop\n      pop\n      jump\t// out\n        /* \"#utility.yul\":8373:8560   */\n    tag_202:\n        /* \"#utility.yul\":8488:8553   */\n      tag_204\n        /* \"#utility.yul\":8547:8552   */\n      dup2\n        /* \"#utility.yul\":8488:8553   */\n      tag_205\n      jump\t// in\n    tag_204:\n        /* \"#utility.yul\":8483:8486   */\n      dup3\n        /* \"#utility.yul\":8476:8554   */\n      mstore\n        /* \"#utility.yul\":8373:8560   */\n      pop\n      pop\n      jump\t// out\n        /* \"#utility.yul\":8566:8930   */\n    tag_206:\n        /* \"#utility.yul\":8654:8657   */\n      0x00\n        /* \"#utility.yul\":8682:8721   */\n      tag_208\n        /* \"#utility.yul\":8715:8720   */\n      dup3\n        /* \"#utility.yul\":8682:8721   */\n      tag_209\n      jump\t// in\n    tag_208:\n        /* \"#utility.yul\":8737:8808   */\n      tag_210\n        /* \"#utility.yul\":8801:8807   */\n      dup2\n        /* \"#utility.yul\":8796:8799   */\n      dup6\n        /* \"#utility.yul\":8737:8808   */\n      tag_211\n      jump\t// in\n    tag_210:\n        /* \"#utility.yul\":8730:8808   */\n      swap4\n      pop\n        /* \"#utility.yul\":8817:8869   */\n      tag_212\n        /* \"#utility.yul\":8862:8868   */\n      dup2\n        /* \"#utility.yul\":8857:8860   */\n      dup6\n        /* \"#utility.yul\":8850:8854   */\n      0x20\n        /* \"#utility.yul\":8843:8848   */\n      dup7\n        /* \"#utility.yul\":8839:8855   */\n      add\n        /* \"#utility.yul\":8817:8869   */\n      tag_213\n      jump\t// in\n    tag_212:\n        /* \"#utility.yul\":8894:8923   */\n      tag_214\n        /* \"#utility.yul\":8916:8922   */\n      dup2\n        /* \"#utility.yul\":8894:8923   */\n      tag_201\n      jump\t// in\n    tag_214:\n        /* \"#utility.yul\":8889:8892   */\n      dup5\n        /* \"#utility.yul\":8885:8924   */\n      add\n        /* \"#utility.yul\":8878:8924   */\n      swap2\n      pop\n        /* \"#utility.yul\":8658:8930   */\n      pop\n        /* \"#utility.yul\":8566:8930   */\n      swap3\n      swap2\n      pop\n      pop\n      jump\t// out\n        /* \"#utility.yul\":8936:9302   */\n    tag_215:\n        /* \"#utility.yul\":9078:9081   */\n      0x00\n        /* \"#utility.yul\":9099:9166   */\n      tag_217\n        /* \"#utility.yul\":9163:9165   */\n      0x26\n        /* \"#utility.yul\":9158:9161   */\n      dup4\n        /* \"#utility.yul\":9099:9166   */\n      tag_211\n      jump\t// in\n    tag_217:\n        /* \"#utility.yul\":9092:9166   */\n      swap2\n      pop\n        /* \"#utility.yul\":9175:9268   */\n      tag_218\n        /* \"#utility.yul\":9264:9267   */\n      dup3\n        /* \"#utility.yul\":9175:9268   */\n      tag_219\n      jump\t// in\n    tag_218:\n        /* \"#utility.yul\":9293:9295   */\n      0x40\n        /* \"#utility.yul\":9288:9291   */\n      dup3\n        /* \"#utility.yul\":9284:9296   */\n      add\n        /* \"#utility.yul\":9277:9296   */\n      swap1\n      pop\n        /* \"#utility.yul\":8936:9302   */\n      swap2\n      swap1\n      pop\n      jump\t// out\n        /* \"#utility.yul\":9308:9674   */\n    tag_220:\n        /* \"#utility.yul\":9450:9453   */\n      0x00\n        /* \"#utility.yul\":9471:9538   */\n      tag_222\n        /* \"#utility.yul\":9535:9537   */\n      0x20\n        /* \"#utility.yul\":9530:9533   */\n      dup4\n        /* \"#utility.yul\":9471:9538   */\n      tag_211\n      jump\t// in\n    tag_222:\n        /* \"#utility.yul\":9464:9538   */\n      swap2\n      pop\n        /* \"#utility.yul\":9547:9640   */\n      tag_223\n        /* \"#utility.yul\":9636:9639   */\n      dup3\n        /* \"#utility.yul\":9547:9640   */\n      tag_224\n      jump\t// in\n    tag_223:\n        /* \"#utility.yul\":9665:9667   */\n      0x20\n        /* \"#utility.yul\":9660:9663   */\n      dup3\n        /* \"#utility.yul\":9656:9668   */\n      add\n        /* \"#utility.yul\":9649:9668   */\n      swap1\n      pop\n        /* \"#utility.yul\":9308:9674   */\n      swap2\n      swap1\n      pop\n      jump\t// out\n        /* \"#utility.yul\":9680:10046   */\n    tag_225:\n        /* \"#utility.yul\":9822:9825   */\n      0x00\n        /* \"#utility.yul\":9843:9910   */\n      tag_227\n        /* \"#utility.yul\":9907:9909   */\n      0x3b\n        /* \"#utility.yul\":9902:9905   */\n      dup4\n        /* \"#utility.yul\":9843:9910   */\n      tag_211\n      jump\t// in\n    tag_227:\n        /* \"#utility.yul\":9836:9910   */\n      swap2\n      pop\n        /* \"#utility.yul\":9919:10012   */\n      tag_228\n        /* \"#utility.yul\":10008:10011   */\n      dup3\n        /* \"#utility.yul\":9919:10012   */\n      tag_229\n      jump\t// in\n    tag_228:\n        /* \"#utility.yul\":10037:10039   */\n      0x40\n        /* \"#utility.yul\":10032:10035   */\n      dup3\n        /* \"#utility.yul\":10028:10040   */\n      add\n        /* \"#utility.yul\":10021:10040   */\n      swap1\n      pop\n        /* \"#utility.yul\":9680:10046   */\n      swap2\n      swap1\n      pop\n      jump\t// out\n        /* \"#utility.yul\":10052:10274   */\n    tag_28:\n        /* \"#utility.yul\":10145:10149   */\n      0x00\n        /* \"#utility.yul\":10183:10185   */\n      0x20\n        /* \"#utility.yul\":10172:10181   */\n      dup3\n        /* \"#utility.yul\":10168:10186   */\n      add\n        /* \"#utility.yul\":10160:10186   */\n      swap1\n      pop\n        /* \"#utility.yul\":10196:10267   */\n      tag_231\n        /* \"#utility.yul\":10264:10265   */\n      0x00\n        /* \"#utility.yul\":10253:10262   */\n      dup4\n        /* \"#utility.yul\":10249:10266   */\n      add\n        /* \"#utility.yul\":10240:10246   */\n      dup5\n        /* \"#utility.yul\":10196:10267   */\n      tag_191\n      jump\t// in\n    tag_231:\n        /* \"#utility.yul\":10052:10274   */\n      swap3\n      swap2\n      pop\n      pop\n      jump\t// out\n        /* \"#utility.yul\":10280:10558   */\n    tag_22:\n        /* \"#utility.yul\":10401:10405   */\n      0x00\n        /* \"#utility.yul\":10439:10441   */\n      0x20\n        /* \"#utility.yul\":10428:10437   */\n      dup3\n        /* \"#utility.yul\":10424:10442   */\n      add\n        /* \"#utility.yul\":10416:10442   */\n      swap1\n      pop\n        /* \"#utility.yul\":10452:10551   */\n      tag_233\n        /* \"#utility.yul\":10548:10549   */\n      0x00\n        /* \"#utility.yul\":10537:10546   */\n      dup4\n        /* \"#utility.yul\":10533:10550   */\n      add\n        /* \"#utility.yul\":10524:10530   */\n      dup5\n        /* \"#utility.yul\":10452:10551   */\n      tag_202\n      jump\t// in\n    tag_233:\n        /* \"#utility.yul\":10280:10558   */\n      swap3\n      swap2\n      pop\n      pop\n      jump\t// out\n        /* \"#utility.yul\":10564:11517   */\n    tag_39:\n        /* \"#utility.yul\":10837:10841   */\n      0x00\n        /* \"#utility.yul\":10875:10878   */\n      0xa0\n        /* \"#utility.yul\":10864:10873   */\n      dup3\n        /* \"#utility.yul\":10860:10879   */\n      add\n        /* \"#utility.yul\":10852:10879   */\n      swap1\n      pop\n        /* \"#utility.yul\":10925:10934   */\n      dup2\n        /* \"#utility.yul\":10919:10923   */\n      dup2\n        /* \"#utility.yul\":10915:10935   */\n      sub\n        /* \"#utility.yul\":10911:10912   */\n      0x00\n        /* \"#utility.yul\":10900:10909   */\n      dup4\n        /* \"#utility.yul\":10896:10913   */\n      add\n        /* \"#utility.yul\":10889:10936   */\n      mstore\n        /* \"#utility.yul\":10953:11031   */\n      tag_235\n        /* \"#utility.yul\":11026:11030   */\n      dup2\n        /* \"#utility.yul\":11017:11023   */\n      dup10\n        /* \"#utility.yul\":10953:11031   */\n      tag_206\n      jump\t// in\n    tag_235:\n        /* \"#utility.yul\":10945:11031   */\n      swap1\n      pop\n        /* \"#utility.yul\":11041:11113   */\n      tag_236\n        /* \"#utility.yul\":11109:11111   */\n      0x20\n        /* \"#utility.yul\":11098:11107   */\n      dup4\n        /* \"#utility.yul\":11094:11112   */\n      add\n        /* \"#utility.yul\":11085:11091   */\n      dup9\n        /* \"#utility.yul\":11041:11113   */\n      tag_191\n      jump\t// in\n    tag_236:\n        /* \"#utility.yul\":11123:11195   */\n      tag_237\n        /* \"#utility.yul\":11191:11193   */\n      0x40\n        /* \"#utility.yul\":11180:11189   */\n      dup4\n        /* \"#utility.yul\":11176:11194   */\n      add\n        /* \"#utility.yul\":11167:11173   */\n      dup8\n        /* \"#utility.yul\":11123:11195   */\n      tag_191\n      jump\t// in\n    tag_237:\n        /* \"#utility.yul\":11242:11251   */\n      dup2\n        /* \"#utility.yul\":11236:11240   */\n      dup2\n        /* \"#utility.yul\":11232:11252   */\n      sub\n        /* \"#utility.yul\":11227:11229   */\n      0x60\n        /* \"#utility.yul\":11216:11225   */\n      dup4\n        /* \"#utility.yul\":11212:11230   */\n      add\n        /* \"#utility.yul\":11205:11253   */\n      mstore\n        /* \"#utility.yul\":11270:11348   */\n      tag_238\n        /* \"#utility.yul\":11343:11347   */\n      dup2\n        /* \"#utility.yul\":11334:11340   */\n      dup7\n        /* \"#utility.yul\":11270:11348   */\n      tag_206\n      jump\t// in\n    tag_238:\n        /* \"#utility.yul\":11262:11348   */\n      swap1\n      pop\n        /* \"#utility.yul\":11396:11405   */\n      dup2\n        /* \"#utility.yul\":11390:11394   */\n      dup2\n        /* \"#utility.yul\":11386:11406   */\n      sub\n        /* \"#utility.yul\":11380:11383   */\n      0x80\n        /* \"#utility.yul\":11369:11378   */\n      dup4\n        /* \"#utility.yul\":11365:11384   */\n      add\n        /* \"#utility.yul\":11358:11407   */\n      mstore\n        /* \"#utility.yul\":11424:11510   */\n      tag_239\n        /* \"#utility.yul\":11505:11509   */\n      dup2\n        /* \"#utility.yul\":11496:11502   */\n      dup5\n        /* \"#utility.yul\":11488:11494   */\n      dup7\n        /* \"#utility.yul\":11424:11510   */\n      tag_195\n      jump\t// in\n    tag_239:\n        /* \"#utility.yul\":11416:11510   */\n      swap1\n      pop\n        /* \"#utility.yul\":10564:11517   */\n      swap8\n      swap7\n      pop\n      pop\n      pop\n      pop\n      pop\n      pop\n      pop\n      jump\t// out\n        /* \"#utility.yul\":11523:11942   */\n    tag_72:\n        /* \"#utility.yul\":11689:11693   */\n      0x00\n        /* \"#utility.yul\":11727:11729   */\n      0x20\n        /* \"#utility.yul\":11716:11725   */\n      dup3\n        /* \"#utility.yul\":11712:11730   */\n      add\n        /* \"#utility.yul\":11704:11730   */\n      swap1\n      pop\n        /* \"#utility.yul\":11776:11785   */\n      dup2\n        /* \"#utility.yul\":11770:11774   */\n      dup2\n        /* \"#utility.yul\":11766:11786   */\n      sub\n        /* \"#utility.yul\":11762:11763   */\n      0x00\n        /* \"#utility.yul\":11751:11760   */\n      dup4\n        /* \"#utility.yul\":11747:11764   */\n      add\n        /* \"#utility.yul\":11740:11787   */\n      mstore\n        /* \"#utility.yul\":11804:11935   */\n      tag_241\n        /* \"#utility.yul\":11930:11934   */\n      dup2\n        /* \"#utility.yul\":11804:11935   */\n      tag_215\n      jump\t// in\n    tag_241:\n        /* \"#utility.yul\":11796:11935   */\n      swap1\n      pop\n        /* \"#utility.yul\":11523:11942   */\n      swap2\n      swap1\n      pop\n      jump\t// out\n        /* \"#utility.yul\":11948:12367   */\n    tag_55:\n        /* \"#utility.yul\":12114:12118   */\n      0x00\n        /* \"#utility.yul\":12152:12154   */\n      0x20\n        /* \"#utility.yul\":12141:12150   */\n      dup3\n        /* \"#utility.yul\":12137:12155   */\n      add\n        /* \"#utility.yul\":12129:12155   */\n      swap1\n      pop\n        /* \"#utility.yul\":12201:12210   */\n      dup2\n        /* \"#utility.yul\":12195:12199   */\n      dup2\n        /* \"#utility.yul\":12191:12211   */\n      sub\n        /* \"#utility.yul\":12187:12188   */\n      0x00\n        /* \"#utility.yul\":12176:12185   */\n      dup4\n        /* \"#utility.yul\":12172:12189   */\n      add\n        /* \"#utility.yul\":12165:12212   */\n      mstore\n        /* \"#utility.yul\":12229:12360   */\n      tag_243\n        /* \"#utility.yul\":12355:12359   */\n      dup2\n        /* \"#utility.yul\":12229:12360   */\n      tag_220\n      jump\t// in\n    tag_243:\n        /* \"#utility.yul\":12221:12360   */\n      swap1\n      pop\n        /* \"#utility.yul\":11948:12367   */\n      swap2\n      swap1\n      pop\n      jump\t// out\n        /* \"#utility.yul\":12373:12792   */\n    tag_47:\n        /* \"#utility.yul\":12539:12543   */\n      0x00\n        /* \"#utility.yul\":12577:12579   */\n      0x20\n        /* \"#utility.yul\":12566:12575   */\n      dup3\n        /* \"#utility.yul\":12562:12580   */\n      add\n        /* \"#utility.yul\":12554:12580   */\n      swap1\n      pop\n        /* \"#utility.yul\":12626:12635   */\n      dup2\n        /* \"#utility.yul\":12620:12624   */\n      dup2\n        /* \"#utility.yul\":12616:12636   */\n      sub\n        /* \"#utility.yul\":12612:12613   */\n      0x00\n        /* \"#utility.yul\":12601:12610   */\n      dup4\n        /* \"#utility.yul\":12597:12614   */\n      add\n        /* \"#utility.yul\":12590:12637   */\n      mstore\n        /* \"#utility.yul\":12654:12785   */\n      tag_245\n        /* \"#utility.yul\":12780:12784   */\n      dup2\n        /* \"#utility.yul\":12654:12785   */\n      tag_225\n      jump\t// in\n    tag_245:\n        /* \"#utility.yul\":12646:12785   */\n      swap1\n      pop\n        /* \"#utility.yul\":12373:12792   */\n      swap2\n      swap1\n      pop\n      jump\t// out\n        /* \"#utility.yul\":12798:12927   */\n    tag_82:\n        /* \"#utility.yul\":12832:12838   */\n      0x00\n        /* \"#utility.yul\":12859:12879   */\n      tag_247\n      tag_248\n      jump\t// in\n    tag_247:\n        /* \"#utility.yul\":12849:12879   */\n      swap1\n      pop\n        /* \"#utility.yul\":12888:12921   */\n      tag_249\n        /* \"#utility.yul\":12916:12920   */\n      dup3\n        /* \"#utility.yul\":12908:12914   */\n      dup3\n        /* \"#utility.yul\":12888:12921   */\n      tag_250\n      jump\t// in\n    tag_249:\n        /* \"#utility.yul\":12798:12927   */\n      swap2\n      swap1\n      pop\n      jump\t// out\n        /* \"#utility.yul\":12933:13008   */\n    tag_248:\n        /* \"#utility.yul\":12966:12972   */\n      0x00\n        /* \"#utility.yul\":12999:13001   */\n      0x40\n        /* \"#utility.yul\":12993:13002   */\n      mload\n        /* \"#utility.yul\":12983:13002   */\n      swap1\n      pop\n        /* \"#utility.yul\":12933:13008   */\n      swap1\n      jump\t// out\n        /* \"#utility.yul\":13014:13325   */\n    tag_81:\n        /* \"#utility.yul\":13091:13095   */\n      0x00\n        /* \"#utility.yul\":13181:13199   */\n      0xffffffffffffffff\n        /* \"#utility.yul\":13173:13179   */\n      dup3\n        /* \"#utility.yul\":13170:13200   */\n      gt\n        /* \"#utility.yul\":13167:13223   */\n      iszero\n      tag_253\n      jumpi\n        /* \"#utility.yul\":13203:13221   */\n      tag_254\n      tag_255\n      jump\t// in\n    tag_254:\n        /* \"#utility.yul\":13167:13223   */\n    tag_253:\n        /* \"#utility.yul\":13253:13257   */\n      0x20\n        /* \"#utility.yul\":13245:13251   */\n      dup3\n        /* \"#utility.yul\":13241:13258   */\n      mul\n        /* \"#utility.yul\":13233:13258   */\n      swap1\n      pop\n        /* \"#utility.yul\":13313:13317   */\n      0x20\n        /* \"#utility.yul\":13307:13311   */\n      dup2\n        /* \"#utility.yul\":13303:13318   */\n      add\n        /* \"#utility.yul\":13295:13318   */\n      swap1\n      pop\n        /* \"#utility.yul\":13014:13325   */\n      swap2\n      swap1\n      pop\n      jump\t// out\n        /* \"#utility.yul\":13331:13651   */\n    tag_95:\n        /* \"#utility.yul\":13417:13421   */\n      0x00\n        /* \"#utility.yul\":13507:13525   */\n      0xffffffffffffffff\n        /* \"#utility.yul\":13499:13505   */\n      dup3\n        /* \"#utility.yul\":13496:13526   */\n      gt\n        /* \"#utility.yul\":13493:13549   */\n      iszero\n      tag_257\n      jumpi\n        /* \"#utility.yul\":13529:13547   */\n      tag_258\n      tag_255\n      jump\t// in\n    tag_258:\n        /* \"#utility.yul\":13493:13549   */\n    tag_257:\n        /* \"#utility.yul\":13579:13583   */\n      0x20\n        /* \"#utility.yul\":13571:13577   */\n      dup3\n        /* \"#utility.yul\":13567:13584   */\n      mul\n        /* \"#utility.yul\":13559:13584   */\n      swap1\n      pop\n        /* \"#utility.yul\":13639:13643   */\n      0x20\n        /* \"#utility.yul\":13633:13637   */\n      dup2\n        /* \"#utility.yul\":13629:13644   */\n      add\n        /* \"#utility.yul\":13621:13644   */\n      swap1\n      pop\n        /* \"#utility.yul\":13331:13651   */\n      swap2\n      swap1\n      pop\n      jump\t// out\n        /* \"#utility.yul\":13657:13964   */\n    tag_110:\n        /* \"#utility.yul\":13718:13722   */\n      0x00\n        /* \"#utility.yul\":13808:13826   */\n      0xffffffffffffffff\n        /* \"#utility.yul\":13800:13806   */\n      dup3\n        /* \"#utility.yul\":13797:13827   */\n      gt\n        /* \"#utility.yul\":13794:13850   */\n      iszero\n      tag_260\n      jumpi\n        /* \"#utility.yul\":13830:13848   */\n      tag_261\n      tag_255\n      jump\t// in\n    tag_261:\n        /* \"#utility.yul\":13794:13850   */\n    tag_260:\n        /* \"#utility.yul\":13868:13897   */\n      tag_262\n        /* \"#utility.yul\":13890:13896   */\n      dup3\n        /* \"#utility.yul\":13868:13897   */\n      tag_201\n      jump\t// in\n    tag_262:\n        /* \"#utility.yul\":13860:13897   */\n      swap1\n      pop\n        /* \"#utility.yul\":13952:13956   */\n      0x20\n        /* \"#utility.yul\":13946:13950   */\n      dup2\n        /* \"#utility.yul\":13942:13957   */\n      add\n        /* \"#utility.yul\":13934:13957   */\n      swap1\n      pop\n        /* \"#utility.yul\":13657:13964   */\n      swap2\n      swap1\n      pop\n      jump\t// out\n        /* \"#utility.yul\":13970:14278   */\n    tag_120:\n        /* \"#utility.yul\":14032:14036   */\n      0x00\n        /* \"#utility.yul\":14122:14140   */\n      0xffffffffffffffff\n        /* \"#utility.yul\":14114:14120   */\n      dup3\n        /* \"#utility.yul\":14111:14141   */\n      gt\n        /* \"#utility.yul\":14108:14164   */\n      iszero\n      tag_264\n      jumpi\n        /* \"#utility.yul\":14144:14162   */\n      tag_265\n      tag_255\n      jump\t// in\n    tag_265:\n        /* \"#utility.yul\":14108:14164   */\n    tag_264:\n        /* \"#utility.yul\":14182:14211   */\n      tag_266\n        /* \"#utility.yul\":14204:14210   */\n      dup3\n        /* \"#utility.yul\":14182:14211   */\n      tag_201\n      jump\t// in\n    tag_266:\n        /* \"#utility.yul\":14174:14211   */\n      swap1\n      pop\n        /* \"#utility.yul\":14266:14270   */\n      0x20\n        /* \"#utility.yul\":14260:14264   */\n      dup2\n        /* \"#utility.yul\":14256:14271   */\n      add\n        /* \"#utility.yul\":14248:14271   */\n      swap1\n      pop\n        /* \"#utility.yul\":13970:14278   */\n      swap2\n      swap1\n      pop\n      jump\t// out\n        /* \"#utility.yul\":14284:14383   */\n    tag_209:\n        /* \"#utility.yul\":14336:14342   */\n      0x00\n        /* \"#utility.yul\":14370:14375   */\n      dup2\n        /* \"#utility.yul\":14364:14376   */\n      mload\n        /* \"#utility.yul\":14354:14376   */\n      swap1\n      pop\n        /* \"#utility.yul\":14284:14383   */\n      swap2\n      swap1\n      pop\n      jump\t// out\n        /* \"#utility.yul\":14389:14557   */\n    tag_198:\n        /* \"#utility.yul\":14472:14483   */\n      0x00\n        /* \"#utility.yul\":14506:14512   */\n      dup3\n        /* \"#utility.yul\":14501:14504   */\n      dup3\n        /* \"#utility.yul\":14494:14513   */\n      mstore\n        /* \"#utility.yul\":14546:14550   */\n      0x20\n        /* \"#utility.yul\":14541:14544   */\n      dup3\n        /* \"#utility.yul\":14537:14551   */\n      add\n        /* \"#utility.yul\":14522:14551   */\n      swap1\n      pop\n        /* \"#utility.yul\":14389:14557   */\n      swap3\n      swap2\n      pop\n      pop\n      jump\t// out\n        /* \"#utility.yul\":14563:14732   */\n    tag_211:\n        /* \"#utility.yul\":14647:14658   */\n      0x00\n        /* \"#utility.yul\":14681:14687   */\n      dup3\n        /* \"#utility.yul\":14676:14679   */\n      dup3\n        /* \"#utility.yul\":14669:14688   */\n      mstore\n        /* \"#utility.yul\":14721:14725   */\n      0x20\n        /* \"#utility.yul\":14716:14719   */\n      dup3\n        /* \"#utility.yul\":14712:14726   */\n      add\n        /* \"#utility.yul\":14697:14726   */\n      swap1\n      pop\n        /* \"#utility.yul\":14563:14732   */\n      swap3\n      swap2\n      pop\n      pop\n      jump\t// out\n        /* \"#utility.yul\":14738:14834   */\n    tag_194:\n        /* \"#utility.yul\":14775:14782   */\n      0x00\n        /* \"#utility.yul\":14804:14828   */\n      tag_271\n        /* \"#utility.yul\":14822:14827   */\n      dup3\n        /* \"#utility.yul\":14804:14828   */\n      tag_272\n      jump\t// in\n    tag_271:\n        /* \"#utility.yul\":14793:14828   */\n      swap1\n      pop\n        /* \"#utility.yul\":14738:14834   */\n      swap2\n      swap1\n      pop\n      jump\t// out\n        /* \"#utility.yul\":14840:14917   */\n    tag_273:\n        /* \"#utility.yul\":14877:14884   */\n      0x00\n        /* \"#utility.yul\":14906:14911   */\n      dup2\n        /* \"#utility.yul\":14895:14911   */\n      swap1\n      pop\n        /* \"#utility.yul\":14840:14917   */\n      swap2\n      swap1\n      pop\n      jump\t// out\n        /* \"#utility.yul\":14923:15049   */\n    tag_272:\n        /* \"#utility.yul\":14960:14967   */\n      0x00\n        /* \"#utility.yul\":15000:15042   */\n      0xffffffffffffffffffffffffffffffffffffffff\n        /* \"#utility.yul\":14993:14998   */\n      dup3\n        /* \"#utility.yul\":14989:15043   */\n      and\n        /* \"#utility.yul\":14978:15043   */\n      swap1\n      pop\n        /* \"#utility.yul\":14923:15049   */\n      swap2\n      swap1\n      pop\n      jump\t// out\n        /* \"#utility.yul\":15055:15132   */\n    tag_276:\n        /* \"#utility.yul\":15092:15099   */\n      0x00\n        /* \"#utility.yul\":15121:15126   */\n      dup2\n        /* \"#utility.yul\":15110:15126   */\n      swap1\n      pop\n        /* \"#utility.yul\":15055:15132   */\n      swap2\n      swap1\n      pop\n      jump\t// out\n        /* \"#utility.yul\":15138:15292   */\n    tag_205:\n        /* \"#utility.yul\":15216:15225   */\n      0x00\n        /* \"#utility.yul\":15249:15286   */\n      tag_279\n        /* \"#utility.yul\":15280:15285   */\n      dup3\n        /* \"#utility.yul\":15249:15286   */\n      tag_280\n      jump\t// in\n    tag_279:\n        /* \"#utility.yul\":15236:15286   */\n      swap1\n      pop\n        /* \"#utility.yul\":15138:15292   */\n      swap2\n      swap1\n      pop\n      jump\t// out\n        /* \"#utility.yul\":15298:15424   */\n    tag_280:\n        /* \"#utility.yul\":15348:15357   */\n      0x00\n        /* \"#utility.yul\":15381:15418   */\n      tag_282\n        /* \"#utility.yul\":15412:15417   */\n      dup3\n        /* \"#utility.yul\":15381:15418   */\n      tag_283\n      jump\t// in\n    tag_282:\n        /* \"#utility.yul\":15368:15418   */\n      swap1\n      pop\n        /* \"#utility.yul\":15298:15424   */\n      swap2\n      swap1\n      pop\n      jump\t// out\n        /* \"#utility.yul\":15430:15543   */\n    tag_283:\n        /* \"#utility.yul\":15480:15489   */\n      0x00\n        /* \"#utility.yul\":15513:15537   */\n      tag_285\n        /* \"#utility.yul\":15531:15536   */\n      dup3\n        /* \"#utility.yul\":15513:15537   */\n      tag_272\n      jump\t// in\n    tag_285:\n        /* \"#utility.yul\":15500:15537   */\n      swap1\n      pop\n        /* \"#utility.yul\":15430:15543   */\n      swap2\n      swap1\n      pop\n      jump\t// out\n        /* \"#utility.yul\":15549:15703   */\n    tag_115:\n        /* \"#utility.yul\":15633:15639   */\n      dup3\n        /* \"#utility.yul\":15628:15631   */\n      dup2\n        /* \"#utility.yul\":15623:15626   */\n      dup4\n        /* \"#utility.yul\":15610:15640   */\n      calldatacopy\n        /* \"#utility.yul\":15695:15696   */\n      0x00\n        /* \"#utility.yul\":15686:15692   */\n      dup4\n        /* \"#utility.yul\":15681:15684   */\n      dup4\n        /* \"#utility.yul\":15677:15693   */\n      add\n        /* \"#utility.yul\":15670:15697   */\n      mstore\n        /* \"#utility.yul\":15549:15703   */\n      pop\n      pop\n      pop\n      jump\t// out\n        /* \"#utility.yul\":15709:16016   */\n    tag_213:\n        /* \"#utility.yul\":15777:15778   */\n      0x00\n        /* \"#utility.yul\":15787:15900   */\n    tag_288:\n        /* \"#utility.yul\":15801:15807   */\n      dup4\n        /* \"#utility.yul\":15798:15799   */\n      dup2\n        /* \"#utility.yul\":15795:15808   */\n      lt\n        /* \"#utility.yul\":15787:15900   */\n      iszero\n      tag_290\n      jumpi\n        /* \"#utility.yul\":15886:15887   */\n      dup1\n        /* \"#utility.yul\":15881:15884   */\n      dup3\n        /* \"#utility.yul\":15877:15888   */\n      add\n        /* \"#utility.yul\":15871:15889   */\n      mload\n        /* \"#utility.yul\":15867:15868   */\n      dup2\n        /* \"#utility.yul\":15862:15865   */\n      dup5\n        /* \"#utility.yul\":15858:15869   */\n      add\n        /* \"#utility.yul\":15851:15890   */\n      mstore\n        /* \"#utility.yul\":15823:15825   */\n      0x20\n        /* \"#utility.yul\":15820:15821   */\n      dup2\n        /* \"#utility.yul\":15816:15826   */\n      add\n        /* \"#utility.yul\":15811:15826   */\n      swap1\n      pop\n        /* \"#utility.yul\":15787:15900   */\n      jump(tag_288)\n    tag_290:\n        /* \"#utility.yul\":15918:15924   */\n      dup4\n        /* \"#utility.yul\":15915:15916   */\n      dup2\n        /* \"#utility.yul\":15912:15925   */\n      gt\n        /* \"#utility.yul\":15909:16010   */\n      iszero\n      tag_291\n      jumpi\n        /* \"#utility.yul\":15998:15999   */\n      0x00\n        /* \"#utility.yul\":15989:15995   */\n      dup5\n        /* \"#utility.yul\":15984:15987   */\n      dup5\n        /* \"#utility.yul\":15980:15996   */\n      add\n        /* \"#utility.yul\":15973:16000   */\n      mstore\n        /* \"#utility.yul\":15909:16010   */\n    tag_291:\n        /* \"#utility.yul\":15758:16016   */\n      pop\n        /* \"#utility.yul\":15709:16016   */\n      pop\n      pop\n      pop\n      jump\t// out\n        /* \"#utility.yul\":16022:16303   */\n    tag_250:\n        /* \"#utility.yul\":16105:16132   */\n      tag_293\n        /* \"#utility.yul\":16127:16131   */\n      dup3\n        /* \"#utility.yul\":16105:16132   */\n      tag_201\n      jump\t// in\n    tag_293:\n        /* \"#utility.yul\":16097:16103   */\n      dup2\n        /* \"#utility.yul\":16093:16133   */\n      add\n        /* \"#utility.yul\":16235:16241   */\n      dup2\n        /* \"#utility.yul\":16223:16233   */\n      dup2\n        /* \"#utility.yul\":16220:16242   */\n      lt\n        /* \"#utility.yul\":16199:16217   */\n      0xffffffffffffffff\n        /* \"#utility.yul\":16187:16197   */\n      dup3\n        /* \"#utility.yul\":16184:16218   */\n      gt\n        /* \"#utility.yul\":16181:16243   */\n      or\n        /* \"#utility.yul\":16178:16266   */\n      iszero\n      tag_294\n      jumpi\n        /* \"#utility.yul\":16246:16264   */\n      tag_295\n      tag_255\n      jump\t// in\n    tag_295:\n        /* \"#utility.yul\":16178:16266   */\n    tag_294:\n        /* \"#utility.yul\":16286:16296   */\n      dup1\n        /* \"#utility.yul\":16282:16284   */\n      0x40\n        /* \"#utility.yul\":16275:16297   */\n      mstore\n        /* \"#utility.yul\":16065:16303   */\n      pop\n        /* \"#utility.yul\":16022:16303   */\n      pop\n      pop\n      jump\t// out\n        /* \"#utility.yul\":16309:16489   */\n    tag_255:\n        /* \"#utility.yul\":16357:16434   */\n      0x4e487b7100000000000000000000000000000000000000000000000000000000\n        /* \"#utility.yul\":16354:16355   */\n      0x00\n        /* \"#utility.yul\":16347:16435   */\n      mstore\n        /* \"#utility.yul\":16454:16458   */\n      0x41\n        /* \"#utility.yul\":16451:16452   */\n      0x04\n        /* \"#utility.yul\":16444:16459   */\n      mstore\n        /* \"#utility.yul\":16478:16482   */\n      0x24\n        /* \"#utility.yul\":16475:16476   */\n      0x00\n        /* \"#utility.yul\":16468:16483   */\n      revert\n        /* \"#utility.yul\":16495:16612   */\n    tag_103:\n        /* \"#utility.yul\":16604:16605   */\n      0x00\n        /* \"#utility.yul\":16601:16602   */\n      dup1\n        /* \"#utility.yul\":16594:16606   */\n      revert\n        /* \"#utility.yul\":16618:16735   */\n    tag_85:\n        /* \"#utility.yul\":16727:16728   */\n      0x00\n        /* \"#utility.yul\":16724:16725   */\n      dup1\n        /* \"#utility.yul\":16717:16729   */\n      revert\n        /* \"#utility.yul\":16741:16858   */\n    tag_113:\n        /* \"#utility.yul\":16850:16851   */\n      0x00\n        /* \"#utility.yul\":16847:16848   */\n      dup1\n        /* \"#utility.yul\":16840:16852   */\n      revert\n        /* \"#utility.yul\":16864:16981   */\n    tag_164:\n        /* \"#utility.yul\":16973:16974   */\n      0x00\n        /* \"#utility.yul\":16970:16971   */\n      dup1\n        /* \"#utility.yul\":16963:16975   */\n      revert\n        /* \"#utility.yul\":16987:17104   */\n    tag_157:\n        /* \"#utility.yul\":17096:17097   */\n      0x00\n        /* \"#utility.yul\":17093:17094   */\n      dup1\n        /* \"#utility.yul\":17086:17098   */\n      revert\n        /* \"#utility.yul\":17110:17212   */\n    tag_201:\n        /* \"#utility.yul\":17151:17157   */\n      0x00\n        /* \"#utility.yul\":17202:17204   */\n      0x1f\n        /* \"#utility.yul\":17198:17205   */\n      not\n        /* \"#utility.yul\":17193:17195   */\n      0x1f\n        /* \"#utility.yul\":17186:17191   */\n      dup4\n        /* \"#utility.yul\":17182:17196   */\n      add\n        /* \"#utility.yul\":17178:17206   */\n      and\n        /* \"#utility.yul\":17168:17206   */\n      swap1\n      pop\n        /* \"#utility.yul\":17110:17212   */\n      swap2\n      swap1\n      pop\n      jump\t// out\n        /* \"#utility.yul\":17218:17443   */\n    tag_219:\n        /* \"#utility.yul\":17358:17392   */\n      0x4f776e61626c653a206e6577206f776e657220697320746865207a65726f2061\n        /* \"#utility.yul\":17354:17355   */\n      0x00\n        /* \"#utility.yul\":17346:17352   */\n      dup3\n        /* \"#utility.yul\":17342:17356   */\n      add\n        /* \"#utility.yul\":17335:17393   */\n      mstore\n        /* \"#utility.yul\":17427:17435   */\n      0x6464726573730000000000000000000000000000000000000000000000000000\n        /* \"#utility.yul\":17422:17424   */\n      0x20\n        /* \"#utility.yul\":17414:17420   */\n      dup3\n        /* \"#utility.yul\":17410:17425   */\n      add\n        /* \"#utility.yul\":17403:17436   */\n      mstore\n        /* \"#utility.yul\":17218:17443   */\n      pop\n      jump\t// out\n        /* \"#utility.yul\":17449:17631   */\n    tag_224:\n        /* \"#utility.yul\":17589:17623   */\n      0x4f776e61626c653a2063616c6c6572206973206e6f7420746865206f776e6572\n        /* \"#utility.yul\":17585:17586   */\n      0x00\n        /* \"#utility.yul\":17577:17583   */\n      dup3\n        /* \"#utility.yul\":17573:17587   */\n      add\n        /* \"#utility.yul\":17566:17624   */\n      mstore\n        /* \"#utility.yul\":17449:17631   */\n      pop\n      jump\t// out\n        /* \"#utility.yul\":17637:17883   */\n    tag_229:\n        /* \"#utility.yul\":17777:17811   */\n      0x43726564656e7469616c2043616c6c4261636b3a204f6e6c7920746865206f72\n        /* \"#utility.yul\":17773:17774   */\n      0x00\n        /* \"#utility.yul\":17765:17771   */\n      dup3\n        /* \"#utility.yul\":17761:17775   */\n      add\n        /* \"#utility.yul\":17754:17812   */\n      mstore\n        /* \"#utility.yul\":17846:17875   */\n      0x61636c652063616e2063616c6c20746869732066756e6374696f6e0000000000\n        /* \"#utility.yul\":17841:17843   */\n      0x20\n        /* \"#utility.yul\":17833:17839   */\n      dup3\n        /* \"#utility.yul\":17829:17844   */\n      add\n        /* \"#utility.yul\":17822:17876   */\n      mstore\n        /* \"#utility.yul\":17637:17883   */\n      pop\n      jump\t// out\n        /* \"#utility.yul\":17889:18011   */\n    tag_127:\n        /* \"#utility.yul\":17962:17986   */\n      tag_307\n        /* \"#utility.yul\":17980:17985   */\n      dup2\n        /* \"#utility.yul\":17962:17986   */\n      tag_194\n      jump\t// in\n    tag_307:\n        /* \"#utility.yul\":17955:17960   */\n      dup2\n        /* \"#utility.yul\":17952:17987   */\n      eq\n        /* \"#utility.yul\":17942:18005   */\n      tag_308\n      jumpi\n        /* \"#utility.yul\":18001:18002   */\n      0x00\n        /* \"#utility.yul\":17998:17999   */\n      dup1\n        /* \"#utility.yul\":17991:18003   */\n      revert\n        /* \"#utility.yul\":17942:18005   */\n    tag_308:\n        /* \"#utility.yul\":17889:18011   */\n      pop\n      jump\t// out\n        /* \"#utility.yul\":18017:18139   */\n    tag_140:\n        /* \"#utility.yul\":18090:18114   */\n      tag_310\n        /* \"#utility.yul\":18108:18113   */\n      dup2\n        /* \"#utility.yul\":18090:18114   */\n      tag_273\n      jump\t// in\n    tag_310:\n        /* \"#utility.yul\":18083:18088   */\n      dup2\n        /* \"#utility.yul\":18080:18115   */\n      eq\n        /* \"#utility.yul\":18070:18133   */\n      tag_311\n      jumpi\n        /* \"#utility.yul\":18129:18130   */\n      0x00\n        /* \"#utility.yul\":18126:18127   */\n      dup1\n        /* \"#utility.yul\":18119:18131   */\n      revert\n        /* \"#utility.yul\":18070:18133   */\n    tag_311:\n        /* \"#utility.yul\":18017:18139   */\n      pop\n      jump\t// out\n        /* \"#utility.yul\":18145:18267   */\n    tag_153:\n        /* \"#utility.yul\":18218:18242   */\n      tag_313\n        /* \"#utility.yul\":18236:18241   */\n      dup2\n        /* \"#utility.yul\":18218:18242   */\n      tag_276\n      jump\t// in\n    tag_313:\n        /* \"#utility.yul\":18211:18216   */\n      dup2\n        /* \"#utility.yul\":18208:18243   */\n      eq\n        /* \"#utility.yul\":18198:18261   */\n      tag_314\n      jumpi\n        /* \"#utility.yul\":18257:18258   */\n      0x00\n        /* \"#utility.yul\":18254:18255   */\n      dup1\n        /* \"#utility.yul\":18247:18259   */\n      revert\n        /* \"#utility.yul\":18198:18261   */\n    tag_314:\n        /* \"#utility.yul\":18145:18267   */\n      pop\n      jump\t// out\n\n    auxdata: 0xa2646970667358221220cd2ac20e1779bdc716ff96a4377d2dd055349b53d488b4996344c8c9d948e81364736f6c63430008070033\n}\n",
				"bytecode": {
					"linkReferences": {},
					"object": "60806040523480156200001157600080fd5b5060405162001217380380620012178339818101604052810190620000379190620001c5565b80620000586200004c620000e260201b60201c565b620000ea60201b60201c565b80600160006101000a81548173ffffffffffffffffffffffffffffffffffffffff021916908373ffffffffffffffffffffffffffffffffffffffff16021790555080600260006101000a81548173ffffffffffffffffffffffffffffffffffffffff021916908373ffffffffffffffffffffffffffffffffffffffff16021790555050506200025e565b600033905090565b60008060009054906101000a900473ffffffffffffffffffffffffffffffffffffffff169050816000806101000a81548173ffffffffffffffffffffffffffffffffffffffff021916908373ffffffffffffffffffffffffffffffffffffffff1602179055508173ffffffffffffffffffffffffffffffffffffffff168173ffffffffffffffffffffffffffffffffffffffff167f8be0079c531659141344cd1fd0a4f28419497f9722a3daafe3b4186f6b6457e060405160405180910390a35050565b600081519050620001bf8162000244565b92915050565b600060208284031215620001de57620001dd6200023f565b5b6000620001ee84828501620001ae565b91505092915050565b600062000204826200021f565b9050919050565b60006200021882620001f7565b9050919050565b600073ffffffffffffffffffffffffffffffffffffffff82169050919050565b600080fd5b6200024f816200020b565b81146200025b57600080fd5b50565b610fa9806200026e6000396000f3fe608060405234801561001057600080fd5b506004361061007d5760003560e01c8063715018a61161005b578063715018a6146100d85780638da5cb5b146100e2578063dce8a95514610100578063f2fde38b1461011c5761007d565b8063169c442414610082578063436e99f31461009e5780635f7690b3146100ba575b600080fd5b61009c6004803603810190610097919061093b565b610138565b005b6100b860048036038101906100b3919061087a565b610212565b005b6100c26102a5565b6040516100cf9190610b2e565b60405180910390f35b6100e06102cb565b005b6100ea610353565b6040516100f79190610b13565b60405180910390f35b61011a600480360381019061011591906108c3565b61037c565b005b6101366004803603810190610131919061084d565b610410565b005b83306040518060400160405280600881526020017f706f737456696265000000000000000000000000000000000000000000000000815250600260009054906101000a900473ffffffffffffffffffffffffffffffffffffffff1673ffffffffffffffffffffffffffffffffffffffff1663a78d2ba3843385856000366040518763ffffffff1660e01b81526004016101d696959493929190610b49565b600060405180830381600087803b1580156101f057600080fd5b505af1158015610204573d6000803e3d6000fd5b505050505050505050505050565b600160009054906101000a900473ffffffffffffffffffffffffffffffffffffffff1673ffffffffffffffffffffffffffffffffffffffff163373ffffffffffffffffffffffffffffffffffffffff16146102a2576040517f08c379a000000000000000000000000000000000000000000000000000000000815260040161029990610bf3565b60405180910390fd5b50565b600260009054906101000a900473ffffffffffffffffffffffffffffffffffffffff1681565b6102d3610508565b73ffffffffffffffffffffffffffffffffffffffff166102f1610353565b73ffffffffffffffffffffffffffffffffffffffff1614610347576040517f08c379a000000000000000000000000000000000000000000000000000000000815260040161033e90610bd3565b60405180910390fd5b6103516000610510565b565b60008060009054906101000a900473ffffffffffffffffffffffffffffffffffffffff16905090565b600160009054906101000a900473ffffffffffffffffffffffffffffffffffffffff1673ffffffffffffffffffffffffffffffffffffffff163373ffffffffffffffffffffffffffffffffffffffff161461040c576040517f08c379a000000000000000000000000000000000000000000000000000000000815260040161040390610bf3565b60405180910390fd5b5050565b610418610508565b73ffffffffffffffffffffffffffffffffffffffff16610436610353565b73ffffffffffffffffffffffffffffffffffffffff161461048c576040517f08c379a000000000000000000000000000000000000000000000000000000000815260040161048390610bd3565b60405180910390fd5b600073ffffffffffffffffffffffffffffffffffffffff168173ffffffffffffffffffffffffffffffffffffffff1614156104fc576040517f08c379a00000000000000000000000000000000000000000000000000000000081526004016104f390610bb3565b60405180910390fd5b61050581610510565b50565b600033905090565b60008060009054906101000a900473ffffffffffffffffffffffffffffffffffffffff169050816000806101000a81548173ffffffffffffffffffffffffffffffffffffffff021916908373ffffffffffffffffffffffffffffffffffffffff1602179055508173ffffffffffffffffffffffffffffffffffffffff168173ffffffffffffffffffffffffffffffffffffffff167f8be0079c531659141344cd1fd0a4f28419497f9722a3daafe3b4186f6b6457e060405160405180910390a35050565b60006105e76105e284610c38565b610c13565b9050808382526020820190508285602086028201111561060a57610609610e42565b5b60005b8581101561063a578161062088826107c7565b84526020840193506020830192505060018101905061060d565b5050509392505050565b600061065761065284610c64565b610c13565b9050808382526020820190508285602086028201111561067a57610679610e42565b5b60005b858110156106c857813567ffffffffffffffff8111156106a05761069f610e3d565b5b8086016106ad89826107dc565b8552602085019450602084019350505060018101905061067d565b5050509392505050565b60006106e56106e084610c90565b610c13565b90508281526020810184848401111561070157610700610e47565b5b61070c848285610d9b565b509392505050565b600061072761072284610cc1565b610c13565b90508281526020810184848401111561074357610742610e47565b5b61074e848285610d9b565b509392505050565b60008135905061076581610f2e565b92915050565b600082601f8301126107805761077f610e3d565b5b81356107908482602086016105d4565b91505092915050565b600082601f8301126107ae576107ad610e3d565b5b81356107be848260208601610644565b91505092915050565b6000813590506107d681610f45565b92915050565b600082601f8301126107f1576107f0610e3d565b5b81356108018482602086016106d2565b91505092915050565b600082601f83011261081f5761081e610e3d565b5b813561082f848260208601610714565b91505092915050565b60008135905061084781610f5c565b92915050565b60006020828403121561086357610862610e51565b5b600061087184828501610756565b91505092915050565b6000602082840312156108905761088f610e51565b5b600082013567ffffffffffffffff8111156108ae576108ad610e4c565b5b6108ba8482850161080a565b91505092915050565b600080604083850312156108da576108d9610e51565b5b600083013567ffffffffffffffff8111156108f8576108f7610e4c565b5b6109048582860161080a565b925050602083013567ffffffffffffffff81111561092557610924610e4c565b5b61093185828601610799565b9150509250929050565b600080600080600060a0868803121561095757610956610e51565b5b600086013567ffffffffffffffff81111561097557610974610e4c565b5b6109818882890161080a565b955050602086013567ffffffffffffffff8111156109a2576109a1610e4c565b5b6109ae8882890161080a565b945050604086013567ffffffffffffffff8111156109cf576109ce610e4c565b5b6109db8882890161080a565b93505060606109ec88828901610838565b925050608086013567ffffffffffffffff811115610a0d57610a0c610e4c565b5b610a198882890161076b565b9150509295509295909350565b610a2f81610d1f565b82525050565b6000610a418385610cfd565b9350610a4e838584610d9b565b610a5783610e56565b840190509392505050565b610a6b81610d65565b82525050565b6000610a7c82610cf2565b610a868185610d0e565b9350610a96818560208601610daa565b610a9f81610e56565b840191505092915050565b6000610ab7602683610d0e565b9150610ac282610e67565b604082019050919050565b6000610ada602083610d0e565b9150610ae582610eb6565b602082019050919050565b6000610afd603b83610d0e565b9150610b0882610edf565b604082019050919050565b6000602082019050610b286000830184610a26565b92915050565b6000602082019050610b436000830184610a62565b92915050565b600060a0820190508181036000830152610b638189610a71565b9050610b726020830188610a26565b610b7f6040830187610a26565b8181036060830152610b918186610a71565b90508181036080830152610ba6818486610a35565b9050979650505050505050565b60006020820190508181036000830152610bcc81610aaa565b9050919050565b60006020820190508181036000830152610bec81610acd565b9050919050565b60006020820190508181036000830152610c0c81610af0565b9050919050565b6000610c1d610c2e565b9050610c298282610ddd565b919050565b6000604051905090565b600067ffffffffffffffff821115610c5357610c52610e0e565b5b602082029050602081019050919050565b600067ffffffffffffffff821115610c7f57610c7e610e0e565b5b602082029050602081019050919050565b600067ffffffffffffffff821115610cab57610caa610e0e565b5b610cb482610e56565b9050602081019050919050565b600067ffffffffffffffff821115610cdc57610cdb610e0e565b5b610ce582610e56565b9050602081019050919050565b600081519050919050565b600082825260208201905092915050565b600082825260208201905092915050565b6000610d2a82610d3b565b9050919050565b6000819050919050565b600073ffffffffffffffffffffffffffffffffffffffff82169050919050565b6000819050919050565b6000610d7082610d77565b9050919050565b6000610d8282610d89565b9050919050565b6000610d9482610d3b565b9050919050565b82818337600083830152505050565b60005b83811015610dc8578082015181840152602081019050610dad565b83811115610dd7576000848401525b50505050565b610de682610e56565b810181811067ffffffffffffffff82111715610e0557610e04610e0e565b5b80604052505050565b7f4e487b7100000000000000000000000000000000000000000000000000000000600052604160045260246000fd5b600080fd5b600080fd5b600080fd5b600080fd5b600080fd5b6000601f19601f8301169050919050565b7f4f776e61626c653a206e6577206f776e657220697320746865207a65726f206160008201527f6464726573730000000000000000000000000000000000000000000000000000602082015250565b7f4f776e61626c653a2063616c6c6572206973206e6f7420746865206f776e6572600082015250565b7f43726564656e7469616c2043616c6c4261636b3a204f6e6c7920746865206f7260008201527f61636c652063616e2063616c6c20746869732066756e6374696f6e0000000000602082015250565b610f3781610d1f565b8114610f4257600080fd5b50565b610f4e81610d31565b8114610f5957600080fd5b50565b610f6581610d5b565b8114610f7057600080fd5b5056fea2646970667358221220cd2ac20e1779bdc716ff96a4377d2dd055349b53d488b4996344c8c9d948e81364736f6c63430008070033",
					"opcodes": "PUSH1 0x80 PUSH1 0x40 MSTORE CALLVALUE DUP1 ISZERO PUSH3 0x11 JUMPI PUSH1 0x0 DUP1 REVERT JUMPDEST POP PUSH1 0x40 MLOAD PUSH3 0x1217 CODESIZE SUB DUP1 PUSH3 0x1217 DUP4 CODECOPY DUP2 DUP2 ADD PUSH1 0x40 MSTORE DUP2 ADD SWAP1 PUSH3 0x37 SWAP2 SWAP1 PUSH3 0x1C5 JUMP JUMPDEST DUP1 PUSH3 0x58 PUSH3 0x4C PUSH3 0xE2 PUSH1 0x20 SHL PUSH1 0x20 SHR JUMP JUMPDEST PUSH3 0xEA PUSH1 0x20 SHL PUSH1 0x20 SHR JUMP JUMPDEST DUP1 PUSH1 0x1 PUSH1 0x0 PUSH2 0x100 EXP DUP2 SLOAD DUP2 PUSH20 0xFFFFFFFFFFFFFFFFFFFFFFFFFFFFFFFFFFFFFFFF MUL NOT AND SWAP1 DUP4 PUSH20 0xFFFFFFFFFFFFFFFFFFFFFFFFFFFFFFFFFFFFFFFF AND MUL OR SWAP1 SSTORE POP DUP1 PUSH1 0x2 PUSH1 0x0 PUSH2 0x100 EXP DUP2 SLOAD DUP2 PUSH20 0xFFFFFFFFFFFFFFFFFFFFFFFFFFFFFFFFFFFFFFFF MUL NOT AND SWAP1 DUP4 PUSH20 0xFFFFFFFFFFFFFFFFFFFFFFFFFFFFFFFFFFFFFFFF AND MUL OR SWAP1 SSTORE POP POP POP PUSH3 0x25E JUMP JUMPDEST PUSH1 0x0 CALLER SWAP1 POP SWAP1 JUMP JUMPDEST PUSH1 0x0 DUP1 PUSH1 0x0 SWAP1 SLOAD SWAP1 PUSH2 0x100 EXP SWAP1 DIV PUSH20 0xFFFFFFFFFFFFFFFFFFFFFFFFFFFFFFFFFFFFFFFF AND SWAP1 POP DUP2 PUSH1 0x0 DUP1 PUSH2 0x100 EXP DUP2 SLOAD DUP2 PUSH20 0xFFFFFFFFFFFFFFFFFFFFFFFFFFFFFFFFFFFFFFFF MUL NOT AND SWAP1 DUP4 PUSH20 0xFFFFFFFFFFFFFFFFFFFFFFFFFFFFFFFFFFFFFFFF AND MUL OR SWAP1 SSTORE POP DUP2 PUSH20 0xFFFFFFFFFFFFFFFFFFFFFFFFFFFFFFFFFFFFFFFF AND DUP2 PUSH20 0xFFFFFFFFFFFFFFFFFFFFFFFFFFFFFFFFFFFFFFFF AND PUSH32 0x8BE0079C531659141344CD1FD0A4F28419497F9722A3DAAFE3B4186F6B6457E0 PUSH1 0x40 MLOAD PUSH1 0x40 MLOAD DUP1 SWAP2 SUB SWAP1 LOG3 POP POP JUMP JUMPDEST PUSH1 0x0 DUP2 MLOAD SWAP1 POP PUSH3 0x1BF DUP2 PUSH3 0x244 JUMP JUMPDEST SWAP3 SWAP2 POP POP JUMP JUMPDEST PUSH1 0x0 PUSH1 0x20 DUP3 DUP5 SUB SLT ISZERO PUSH3 0x1DE JUMPI PUSH3 0x1DD PUSH3 0x23F JUMP JUMPDEST JUMPDEST PUSH1 0x0 PUSH3 0x1EE DUP5 DUP3 DUP6 ADD PUSH3 0x1AE JUMP JUMPDEST SWAP2 POP POP SWAP3 SWAP2 POP POP JUMP JUMPDEST PUSH1 0x0 PUSH3 0x204 DUP3 PUSH3 0x21F JUMP JUMPDEST SWAP1 POP SWAP2 SWAP1 POP JUMP JUMPDEST PUSH1 0x0 PUSH3 0x218 DUP3 PUSH3 0x1F7 JUMP JUMPDEST SWAP1 POP SWAP2 SWAP1 POP JUMP JUMPDEST PUSH1 0x0 PUSH20 0xFFFFFFFFFFFFFFFFFFFFFFFFFFFFFFFFFFFFFFFF DUP3 AND SWAP1 POP SWAP2 SWAP1 POP JUMP JUMPDEST PUSH1 0x0 DUP1 REVERT JUMPDEST PUSH3 0x24F DUP2 PUSH3 0x20B JUMP JUMPDEST DUP2 EQ PUSH3 0x25B JUMPI PUSH1 0x0 DUP1 REVERT JUMPDEST POP JUMP JUMPDEST PUSH2 0xFA9 DUP1 PUSH3 0x26E PUSH1 0x0 CODECOPY PUSH1 0x0 RETURN INVALID PUSH1 0x80 PUSH1 0x40 MSTORE CALLVALUE DUP1 ISZERO PUSH2 0x10 JUMPI PUSH1 0x0 DUP1 REVERT JUMPDEST POP PUSH1 0x4 CALLDATASIZE LT PUSH2 0x7D JUMPI PUSH1 0x0 CALLDATALOAD PUSH1 0xE0 SHR DUP1 PUSH4 0x715018A6 GT PUSH2 0x5B JUMPI DUP1 PUSH4 0x715018A6 EQ PUSH2 0xD8 JUMPI DUP1 PUSH4 0x8DA5CB5B EQ PUSH2 0xE2 JUMPI DUP1 PUSH4 0xDCE8A955 EQ PUSH2 0x100 JUMPI DUP1 PUSH4 0xF2FDE38B EQ PUSH2 0x11C JUMPI PUSH2 0x7D JUMP JUMPDEST DUP1 PUSH4 0x169C4424 EQ PUSH2 0x82 JUMPI DUP1 PUSH4 0x436E99F3 EQ PUSH2 0x9E JUMPI DUP1 PUSH4 0x5F7690B3 EQ PUSH2 0xBA JUMPI JUMPDEST PUSH1 0x0 DUP1 REVERT JUMPDEST PUSH2 0x9C PUSH1 0x4 DUP1 CALLDATASIZE SUB DUP2 ADD SWAP1 PUSH2 0x97 SWAP2 SWAP1 PUSH2 0x93B JUMP JUMPDEST PUSH2 0x138 JUMP JUMPDEST STOP JUMPDEST PUSH2 0xB8 PUSH1 0x4 DUP1 CALLDATASIZE SUB DUP2 ADD SWAP1 PUSH2 0xB3 SWAP2 SWAP1 PUSH2 0x87A JUMP JUMPDEST PUSH2 0x212 JUMP JUMPDEST STOP JUMPDEST PUSH2 0xC2 PUSH2 0x2A5 JUMP JUMPDEST PUSH1 0x40 MLOAD PUSH2 0xCF SWAP2 SWAP1 PUSH2 0xB2E JUMP JUMPDEST PUSH1 0x40 MLOAD DUP1 SWAP2 SUB SWAP1 RETURN JUMPDEST PUSH2 0xE0 PUSH2 0x2CB JUMP JUMPDEST STOP JUMPDEST PUSH2 0xEA PUSH2 0x353 JUMP JUMPDEST PUSH1 0x40 MLOAD PUSH2 0xF7 SWAP2 SWAP1 PUSH2 0xB13 JUMP JUMPDEST PUSH1 0x40 MLOAD DUP1 SWAP2 SUB SWAP1 RETURN JUMPDEST PUSH2 0x11A PUSH1 0x4 DUP1 CALLDATASIZE SUB DUP2 ADD SWAP1 PUSH2 0x115 SWAP2 SWAP1 PUSH2 0x8C3 JUMP JUMPDEST PUSH2 0x37C JUMP JUMPDEST STOP JUMPDEST PUSH2 0x136 PUSH1 0x4 DUP1 CALLDATASIZE SUB DUP2 ADD SWAP1 PUSH2 0x131 SWAP2 SWAP1 PUSH2 0x84D JUMP JUMPDEST PUSH2 0x410 JUMP JUMPDEST STOP JUMPDEST DUP4 ADDRESS PUSH1 0x40 MLOAD DUP1 PUSH1 0x40 ADD PUSH1 0x40 MSTORE DUP1 PUSH1 0x8 DUP2 MSTORE PUSH1 0x20 ADD PUSH32 0x706F737456696265000000000000000000000000000000000000000000000000 DUP2 MSTORE POP PUSH1 0x2 PUSH1 0x0 SWAP1 SLOAD SWAP1 PUSH2 0x100 EXP SWAP1 DIV PUSH20 0xFFFFFFFFFFFFFFFFFFFFFFFFFFFFFFFFFFFFFFFF AND PUSH20 0xFFFFFFFFFFFFFFFFFFFFFFFFFFFFFFFFFFFFFFFF AND PUSH4 0xA78D2BA3 DUP5 CALLER DUP6 DUP6 PUSH1 0x0 CALLDATASIZE PUSH1 0x40 MLOAD DUP8 PUSH4 0xFFFFFFFF AND PUSH1 0xE0 SHL DUP2 MSTORE PUSH1 0x4 ADD PUSH2 0x1D6 SWAP7 SWAP6 SWAP5 SWAP4 SWAP3 SWAP2 SWAP1 PUSH2 0xB49 JUMP JUMPDEST PUSH1 0x0 PUSH1 0x40 MLOAD DUP1 DUP4 SUB DUP2 PUSH1 0x0 DUP8 DUP1 EXTCODESIZE ISZERO DUP1 ISZERO PUSH2 0x1F0 JUMPI PUSH1 0x0 DUP1 REVERT JUMPDEST POP GAS CALL ISZERO DUP1 ISZERO PUSH2 0x204 JUMPI RETURNDATASIZE PUSH1 0x0 DUP1 RETURNDATACOPY RETURNDATASIZE PUSH1 0x0 REVERT JUMPDEST POP POP POP POP POP POP POP POP POP POP POP POP JUMP JUMPDEST PUSH1 0x1 PUSH1 0x0 SWAP1 SLOAD SWAP1 PUSH2 0x100 EXP SWAP1 DIV PUSH20 0xFFFFFFFFFFFFFFFFFFFFFFFFFFFFFFFFFFFFFFFF AND PUSH20 0xFFFFFFFFFFFFFFFFFFFFFFFFFFFFFFFFFFFFFFFF AND CALLER PUSH20 0xFFFFFFFFFFFFFFFFFFFFFFFFFFFFFFFFFFFFFFFF AND EQ PUSH2 0x2A2 JUMPI PUSH1 0x40 MLOAD PUSH32 0x8C379A000000000000000000000000000000000000000000000000000000000 DUP2 MSTORE PUSH1 0x4 ADD PUSH2 0x299 SWAP1 PUSH2 0xBF3 JUMP JUMPDEST PUSH1 0x40 MLOAD DUP1 SWAP2 SUB SWAP1 REVERT JUMPDEST POP JUMP JUMPDEST PUSH1 0x2 PUSH1 0x0 SWAP1 SLOAD SWAP1 PUSH2 0x100 EXP SWAP1 DIV PUSH20 0xFFFFFFFFFFFFFFFFFFFFFFFFFFFFFFFFFFFFFFFF AND DUP2 JUMP JUMPDEST PUSH2 0x2D3 PUSH2 0x508 JUMP JUMPDEST PUSH20 0xFFFFFFFFFFFFFFFFFFFFFFFFFFFFFFFFFFFFFFFF AND PUSH2 0x2F1 PUSH2 0x353 JUMP JUMPDEST PUSH20 0xFFFFFFFFFFFFFFFFFFFFFFFFFFFFFFFFFFFFFFFF AND EQ PUSH2 0x347 JUMPI PUSH1 0x40 MLOAD PUSH32 0x8C379A000000000000000000000000000000000000000000000000000000000 DUP2 MSTORE PUSH1 0x4 ADD PUSH2 0x33E SWAP1 PUSH2 0xBD3 JUMP JUMPDEST PUSH1 0x40 MLOAD DUP1 SWAP2 SUB SWAP1 REVERT JUMPDEST PUSH2 0x351 PUSH1 0x0 PUSH2 0x510 JUMP JUMPDEST JUMP JUMPDEST PUSH1 0x0 DUP1 PUSH1 0x0 SWAP1 SLOAD SWAP1 PUSH2 0x100 EXP SWAP1 DIV PUSH20 0xFFFFFFFFFFFFFFFFFFFFFFFFFFFFFFFFFFFFFFFF AND SWAP1 POP SWAP1 JUMP JUMPDEST PUSH1 0x1 PUSH1 0x0 SWAP1 SLOAD SWAP1 PUSH2 0x100 EXP SWAP1 DIV PUSH20 0xFFFFFFFFFFFFFFFFFFFFFFFFFFFFFFFFFFFFFFFF AND PUSH20 0xFFFFFFFFFFFFFFFFFFFFFFFFFFFFFFFFFFFFFFFF AND CALLER PUSH20 0xFFFFFFFFFFFFFFFFFFFFFFFFFFFFFFFFFFFFFFFF AND EQ PUSH2 0x40C JUMPI PUSH1 0x40 MLOAD PUSH32 0x8C379A000000000000000000000000000000000000000000000000000000000 DUP2 MSTORE PUSH1 0x4 ADD PUSH2 0x403 SWAP1 PUSH2 0xBF3 JUMP JUMPDEST PUSH1 0x40 MLOAD DUP1 SWAP2 SUB SWAP1 REVERT JUMPDEST POP POP JUMP JUMPDEST PUSH2 0x418 PUSH2 0x508 JUMP JUMPDEST PUSH20 0xFFFFFFFFFFFFFFFFFFFFFFFFFFFFFFFFFFFFFFFF AND PUSH2 0x436 PUSH2 0x353 JUMP JUMPDEST PUSH20 0xFFFFFFFFFFFFFFFFFFFFFFFFFFFFFFFFFFFFFFFF AND EQ PUSH2 0x48C JUMPI PUSH1 0x40 MLOAD PUSH32 0x8C379A000000000000000000000000000000000000000000000000000000000 DUP2 MSTORE PUSH1 0x4 ADD PUSH2 0x483 SWAP1 PUSH2 0xBD3 JUMP JUMPDEST PUSH1 0x40 MLOAD DUP1 SWAP2 SUB SWAP1 REVERT JUMPDEST PUSH1 0x0 PUSH20 0xFFFFFFFFFFFFFFFFFFFFFFFFFFFFFFFFFFFFFFFF AND DUP2 PUSH20 0xFFFFFFFFFFFFFFFFFFFFFFFFFFFFFFFFFFFFFFFF AND EQ ISZERO PUSH2 0x4FC JUMPI PUSH1 0x40 MLOAD PUSH32 0x8C379A000000000000000000000000000000000000000000000000000000000 DUP2 MSTORE PUSH1 0x4 ADD PUSH2 0x4F3 SWAP1 PUSH2 0xBB3 JUMP JUMPDEST PUSH1 0x40 MLOAD DUP1 SWAP2 SUB SWAP1 REVERT JUMPDEST PUSH2 0x505 DUP2 PUSH2 0x510 JUMP JUMPDEST POP JUMP JUMPDEST PUSH1 0x0 CALLER SWAP1 POP SWAP1 JUMP JUMPDEST PUSH1 0x0 DUP1 PUSH1 0x0 SWAP1 SLOAD SWAP1 PUSH2 0x100 EXP SWAP1 DIV PUSH20 0xFFFFFFFFFFFFFFFFFFFFFFFFFFFFFFFFFFFFFFFF AND SWAP1 POP DUP2 PUSH1 0x0 DUP1 PUSH2 0x100 EXP DUP2 SLOAD DUP2 PUSH20 0xFFFFFFFFFFFFFFFFFFFFFFFFFFFFFFFFFFFFFFFF MUL NOT AND SWAP1 DUP4 PUSH20 0xFFFFFFFFFFFFFFFFFFFFFFFFFFFFFFFFFFFFFFFF AND MUL OR SWAP1 SSTORE POP DUP2 PUSH20 0xFFFFFFFFFFFFFFFFFFFFFFFFFFFFFFFFFFFFFFFF AND DUP2 PUSH20 0xFFFFFFFFFFFFFFFFFFFFFFFFFFFFFFFFFFFFFFFF AND PUSH32 0x8BE0079C531659141344CD1FD0A4F28419497F9722A3DAAFE3B4186F6B6457E0 PUSH1 0x40 MLOAD PUSH1 0x40 MLOAD DUP1 SWAP2 SUB SWAP1 LOG3 POP POP JUMP JUMPDEST PUSH1 0x0 PUSH2 0x5E7 PUSH2 0x5E2 DUP5 PUSH2 0xC38 JUMP JUMPDEST PUSH2 0xC13 JUMP JUMPDEST SWAP1 POP DUP1 DUP4 DUP3 MSTORE PUSH1 0x20 DUP3 ADD SWAP1 POP DUP3 DUP6 PUSH1 0x20 DUP7 MUL DUP3 ADD GT ISZERO PUSH2 0x60A JUMPI PUSH2 0x609 PUSH2 0xE42 JUMP JUMPDEST JUMPDEST PUSH1 0x0 JUMPDEST DUP6 DUP2 LT ISZERO PUSH2 0x63A JUMPI DUP2 PUSH2 0x620 DUP9 DUP3 PUSH2 0x7C7 JUMP JUMPDEST DUP5 MSTORE PUSH1 0x20 DUP5 ADD SWAP4 POP PUSH1 0x20 DUP4 ADD SWAP3 POP POP PUSH1 0x1 DUP2 ADD SWAP1 POP PUSH2 0x60D JUMP JUMPDEST POP POP POP SWAP4 SWAP3 POP POP POP JUMP JUMPDEST PUSH1 0x0 PUSH2 0x657 PUSH2 0x652 DUP5 PUSH2 0xC64 JUMP JUMPDEST PUSH2 0xC13 JUMP JUMPDEST SWAP1 POP DUP1 DUP4 DUP3 MSTORE PUSH1 0x20 DUP3 ADD SWAP1 POP DUP3 DUP6 PUSH1 0x20 DUP7 MUL DUP3 ADD GT ISZERO PUSH2 0x67A JUMPI PUSH2 0x679 PUSH2 0xE42 JUMP JUMPDEST JUMPDEST PUSH1 0x0 JUMPDEST DUP6 DUP2 LT ISZERO PUSH2 0x6C8 JUMPI DUP2 CALLDATALOAD PUSH8 0xFFFFFFFFFFFFFFFF DUP2 GT ISZERO PUSH2 0x6A0 JUMPI PUSH2 0x69F PUSH2 0xE3D JUMP JUMPDEST JUMPDEST DUP1 DUP7 ADD PUSH2 0x6AD DUP10 DUP3 PUSH2 0x7DC JUMP JUMPDEST DUP6 MSTORE PUSH1 0x20 DUP6 ADD SWAP5 POP PUSH1 0x20 DUP5 ADD SWAP4 POP POP POP PUSH1 0x1 DUP2 ADD SWAP1 POP PUSH2 0x67D JUMP JUMPDEST POP POP POP SWAP4 SWAP3 POP POP POP JUMP JUMPDEST PUSH1 0x0 PUSH2 0x6E5 PUSH2 0x6E0 DUP5 PUSH2 0xC90 JUMP JUMPDEST PUSH2 0xC13 JUMP JUMPDEST SWAP1 POP DUP3 DUP2 MSTORE PUSH1 0x20 DUP2 ADD DUP5 DUP5 DUP5 ADD GT ISZERO PUSH2 0x701 JUMPI PUSH2 0x700 PUSH2 0xE47 JUMP JUMPDEST JUMPDEST PUSH2 0x70C DUP5 DUP3 DUP6 PUSH2 0xD9B JUMP JUMPDEST POP SWAP4 SWAP3 POP POP POP JUMP JUMPDEST PUSH1 0x0 PUSH2 0x727 PUSH2 0x722 DUP5 PUSH2 0xCC1 JUMP JUMPDEST PUSH2 0xC13 JUMP JUMPDEST SWAP1 POP DUP3 DUP2 MSTORE PUSH1 0x20 DUP2 ADD DUP5 DUP5 DUP5 ADD GT ISZERO PUSH2 0x743 JUMPI PUSH2 0x742 PUSH2 0xE47 JUMP JUMPDEST JUMPDEST PUSH2 0x74E DUP5 DUP3 DUP6 PUSH2 0xD9B JUMP JUMPDEST POP SWAP4 SWAP3 POP POP POP JUMP JUMPDEST PUSH1 0x0 DUP2 CALLDATALOAD SWAP1 POP PUSH2 0x765 DUP2 PUSH2 0xF2E JUMP JUMPDEST SWAP3 SWAP2 POP POP JUMP JUMPDEST PUSH1 0x0 DUP3 PUSH1 0x1F DUP4 ADD SLT PUSH2 0x780 JUMPI PUSH2 0x77F PUSH2 0xE3D JUMP JUMPDEST JUMPDEST DUP2 CALLDATALOAD PUSH2 0x790 DUP5 DUP3 PUSH1 0x20 DUP7 ADD PUSH2 0x5D4 JUMP JUMPDEST SWAP2 POP POP SWAP3 SWAP2 POP POP JUMP JUMPDEST PUSH1 0x0 DUP3 PUSH1 0x1F DUP4 ADD SLT PUSH2 0x7AE JUMPI PUSH2 0x7AD PUSH2 0xE3D JUMP JUMPDEST JUMPDEST DUP2 CALLDATALOAD PUSH2 0x7BE DUP5 DUP3 PUSH1 0x20 DUP7 ADD PUSH2 0x644 JUMP JUMPDEST SWAP2 POP POP SWAP3 SWAP2 POP POP JUMP JUMPDEST PUSH1 0x0 DUP2 CALLDATALOAD SWAP1 POP PUSH2 0x7D6 DUP2 PUSH2 0xF45 JUMP JUMPDEST SWAP3 SWAP2 POP POP JUMP JUMPDEST PUSH1 0x0 DUP3 PUSH1 0x1F DUP4 ADD SLT PUSH2 0x7F1 JUMPI PUSH2 0x7F0 PUSH2 0xE3D JUMP JUMPDEST JUMPDEST DUP2 CALLDATALOAD PUSH2 0x801 DUP5 DUP3 PUSH1 0x20 DUP7 ADD PUSH2 0x6D2 JUMP JUMPDEST SWAP2 POP POP SWAP3 SWAP2 POP POP JUMP JUMPDEST PUSH1 0x0 DUP3 PUSH1 0x1F DUP4 ADD SLT PUSH2 0x81F JUMPI PUSH2 0x81E PUSH2 0xE3D JUMP JUMPDEST JUMPDEST DUP2 CALLDATALOAD PUSH2 0x82F DUP5 DUP3 PUSH1 0x20 DUP7 ADD PUSH2 0x714 JUMP JUMPDEST SWAP2 POP POP SWAP3 SWAP2 POP POP JUMP JUMPDEST PUSH1 0x0 DUP2 CALLDATALOAD SWAP1 POP PUSH2 0x847 DUP2 PUSH2 0xF5C JUMP JUMPDEST SWAP3 SWAP2 POP POP JUMP JUMPDEST PUSH1 0x0 PUSH1 0x20 DUP3 DUP5 SUB SLT ISZERO PUSH2 0x863 JUMPI PUSH2 0x862 PUSH2 0xE51 JUMP JUMPDEST JUMPDEST PUSH1 0x0 PUSH2 0x871 DUP5 DUP3 DUP6 ADD PUSH2 0x756 JUMP JUMPDEST SWAP2 POP POP SWAP3 SWAP2 POP POP JUMP JUMPDEST PUSH1 0x0 PUSH1 0x20 DUP3 DUP5 SUB SLT ISZERO PUSH2 0x890 JUMPI PUSH2 0x88F PUSH2 0xE51 JUMP JUMPDEST JUMPDEST PUSH1 0x0 DUP3 ADD CALLDATALOAD PUSH8 0xFFFFFFFFFFFFFFFF DUP2 GT ISZERO PUSH2 0x8AE JUMPI PUSH2 0x8AD PUSH2 0xE4C JUMP JUMPDEST JUMPDEST PUSH2 0x8BA DUP5 DUP3 DUP6 ADD PUSH2 0x80A JUMP JUMPDEST SWAP2 POP POP SWAP3 SWAP2 POP POP JUMP JUMPDEST PUSH1 0x0 DUP1 PUSH1 0x40 DUP4 DUP6 SUB SLT ISZERO PUSH2 0x8DA JUMPI PUSH2 0x8D9 PUSH2 0xE51 JUMP JUMPDEST JUMPDEST PUSH1 0x0 DUP4 ADD CALLDATALOAD PUSH8 0xFFFFFFFFFFFFFFFF DUP2 GT ISZERO PUSH2 0x8F8 JUMPI PUSH2 0x8F7 PUSH2 0xE4C JUMP JUMPDEST JUMPDEST PUSH2 0x904 DUP6 DUP3 DUP7 ADD PUSH2 0x80A JUMP JUMPDEST SWAP3 POP POP PUSH1 0x20 DUP4 ADD CALLDATALOAD PUSH8 0xFFFFFFFFFFFFFFFF DUP2 GT ISZERO PUSH2 0x925 JUMPI PUSH2 0x924 PUSH2 0xE4C JUMP JUMPDEST JUMPDEST PUSH2 0x931 DUP6 DUP3 DUP7 ADD PUSH2 0x799 JUMP JUMPDEST SWAP2 POP POP SWAP3 POP SWAP3 SWAP1 POP JUMP JUMPDEST PUSH1 0x0 DUP1 PUSH1 0x0 DUP1 PUSH1 0x0 PUSH1 0xA0 DUP7 DUP9 SUB SLT ISZERO PUSH2 0x957 JUMPI PUSH2 0x956 PUSH2 0xE51 JUMP JUMPDEST JUMPDEST PUSH1 0x0 DUP7 ADD CALLDATALOAD PUSH8 0xFFFFFFFFFFFFFFFF DUP2 GT ISZERO PUSH2 0x975 JUMPI PUSH2 0x974 PUSH2 0xE4C JUMP JUMPDEST JUMPDEST PUSH2 0x981 DUP9 DUP3 DUP10 ADD PUSH2 0x80A JUMP JUMPDEST SWAP6 POP POP PUSH1 0x20 DUP7 ADD CALLDATALOAD PUSH8 0xFFFFFFFFFFFFFFFF DUP2 GT ISZERO PUSH2 0x9A2 JUMPI PUSH2 0x9A1 PUSH2 0xE4C JUMP JUMPDEST JUMPDEST PUSH2 0x9AE DUP9 DUP3 DUP10 ADD PUSH2 0x80A JUMP JUMPDEST SWAP5 POP POP PUSH1 0x40 DUP7 ADD CALLDATALOAD PUSH8 0xFFFFFFFFFFFFFFFF DUP2 GT ISZERO PUSH2 0x9CF JUMPI PUSH2 0x9CE PUSH2 0xE4C JUMP JUMPDEST JUMPDEST PUSH2 0x9DB DUP9 DUP3 DUP10 ADD PUSH2 0x80A JUMP JUMPDEST SWAP4 POP POP PUSH1 0x60 PUSH2 0x9EC DUP9 DUP3 DUP10 ADD PUSH2 0x838 JUMP JUMPDEST SWAP3 POP POP PUSH1 0x80 DUP7 ADD CALLDATALOAD PUSH8 0xFFFFFFFFFFFFFFFF DUP2 GT ISZERO PUSH2 0xA0D JUMPI PUSH2 0xA0C PUSH2 0xE4C JUMP JUMPDEST JUMPDEST PUSH2 0xA19 DUP9 DUP3 DUP10 ADD PUSH2 0x76B JUMP JUMPDEST SWAP2 POP POP SWAP3 SWAP6 POP SWAP3 SWAP6 SWAP1 SWAP4 POP JUMP JUMPDEST PUSH2 0xA2F DUP2 PUSH2 0xD1F JUMP JUMPDEST DUP3 MSTORE POP POP JUMP JUMPDEST PUSH1 0x0 PUSH2 0xA41 DUP4 DUP6 PUSH2 0xCFD JUMP JUMPDEST SWAP4 POP PUSH2 0xA4E DUP4 DUP6 DUP5 PUSH2 0xD9B JUMP JUMPDEST PUSH2 0xA57 DUP4 PUSH2 0xE56 JUMP JUMPDEST DUP5 ADD SWAP1 POP SWAP4 SWAP3 POP POP POP JUMP JUMPDEST PUSH2 0xA6B DUP2 PUSH2 0xD65 JUMP JUMPDEST DUP3 MSTORE POP POP JUMP JUMPDEST PUSH1 0x0 PUSH2 0xA7C DUP3 PUSH2 0xCF2 JUMP JUMPDEST PUSH2 0xA86 DUP2 DUP6 PUSH2 0xD0E JUMP JUMPDEST SWAP4 POP PUSH2 0xA96 DUP2 DUP6 PUSH1 0x20 DUP7 ADD PUSH2 0xDAA JUMP JUMPDEST PUSH2 0xA9F DUP2 PUSH2 0xE56 JUMP JUMPDEST DUP5 ADD SWAP2 POP POP SWAP3 SWAP2 POP POP JUMP JUMPDEST PUSH1 0x0 PUSH2 0xAB7 PUSH1 0x26 DUP4 PUSH2 0xD0E JUMP JUMPDEST SWAP2 POP PUSH2 0xAC2 DUP3 PUSH2 0xE67 JUMP JUMPDEST PUSH1 0x40 DUP3 ADD SWAP1 POP SWAP2 SWAP1 POP JUMP JUMPDEST PUSH1 0x0 PUSH2 0xADA PUSH1 0x20 DUP4 PUSH2 0xD0E JUMP JUMPDEST SWAP2 POP PUSH2 0xAE5 DUP3 PUSH2 0xEB6 JUMP JUMPDEST PUSH1 0x20 DUP3 ADD SWAP1 POP SWAP2 SWAP1 POP JUMP JUMPDEST PUSH1 0x0 PUSH2 0xAFD PUSH1 0x3B DUP4 PUSH2 0xD0E JUMP JUMPDEST SWAP2 POP PUSH2 0xB08 DUP3 PUSH2 0xEDF JUMP JUMPDEST PUSH1 0x40 DUP3 ADD SWAP1 POP SWAP2 SWAP1 POP JUMP JUMPDEST PUSH1 0x0 PUSH1 0x20 DUP3 ADD SWAP1 POP PUSH2 0xB28 PUSH1 0x0 DUP4 ADD DUP5 PUSH2 0xA26 JUMP JUMPDEST SWAP3 SWAP2 POP POP JUMP JUMPDEST PUSH1 0x0 PUSH1 0x20 DUP3 ADD SWAP1 POP PUSH2 0xB43 PUSH1 0x0 DUP4 ADD DUP5 PUSH2 0xA62 JUMP JUMPDEST SWAP3 SWAP2 POP POP JUMP JUMPDEST PUSH1 0x0 PUSH1 0xA0 DUP3 ADD SWAP1 POP DUP2 DUP2 SUB PUSH1 0x0 DUP4 ADD MSTORE PUSH2 0xB63 DUP2 DUP10 PUSH2 0xA71 JUMP JUMPDEST SWAP1 POP PUSH2 0xB72 PUSH1 0x20 DUP4 ADD DUP9 PUSH2 0xA26 JUMP JUMPDEST PUSH2 0xB7F PUSH1 0x40 DUP4 ADD DUP8 PUSH2 0xA26 JUMP JUMPDEST DUP2 DUP2 SUB PUSH1 0x60 DUP4 ADD MSTORE PUSH2 0xB91 DUP2 DUP7 PUSH2 0xA71 JUMP JUMPDEST SWAP1 POP DUP2 DUP2 SUB PUSH1 0x80 DUP4 ADD MSTORE PUSH2 0xBA6 DUP2 DUP5 DUP7 PUSH2 0xA35 JUMP JUMPDEST SWAP1 POP SWAP8 SWAP7 POP POP POP POP POP POP POP JUMP JUMPDEST PUSH1 0x0 PUSH1 0x20 DUP3 ADD SWAP1 POP DUP2 DUP2 SUB PUSH1 0x0 DUP4 ADD MSTORE PUSH2 0xBCC DUP2 PUSH2 0xAAA JUMP JUMPDEST SWAP1 POP SWAP2 SWAP1 POP JUMP JUMPDEST PUSH1 0x0 PUSH1 0x20 DUP3 ADD SWAP1 POP DUP2 DUP2 SUB PUSH1 0x0 DUP4 ADD MSTORE PUSH2 0xBEC DUP2 PUSH2 0xACD JUMP JUMPDEST SWAP1 POP SWAP2 SWAP1 POP JUMP JUMPDEST PUSH1 0x0 PUSH1 0x20 DUP3 ADD SWAP1 POP DUP2 DUP2 SUB PUSH1 0x0 DUP4 ADD MSTORE PUSH2 0xC0C DUP2 PUSH2 0xAF0 JUMP JUMPDEST SWAP1 POP SWAP2 SWAP1 POP JUMP JUMPDEST PUSH1 0x0 PUSH2 0xC1D PUSH2 0xC2E JUMP JUMPDEST SWAP1 POP PUSH2 0xC29 DUP3 DUP3 PUSH2 0xDDD JUMP JUMPDEST SWAP2 SWAP1 POP JUMP JUMPDEST PUSH1 0x0 PUSH1 0x40 MLOAD SWAP1 POP SWAP1 JUMP JUMPDEST PUSH1 0x0 PUSH8 0xFFFFFFFFFFFFFFFF DUP3 GT ISZERO PUSH2 0xC53 JUMPI PUSH2 0xC52 PUSH2 0xE0E JUMP JUMPDEST JUMPDEST PUSH1 0x20 DUP3 MUL SWAP1 POP PUSH1 0x20 DUP2 ADD SWAP1 POP SWAP2 SWAP1 POP JUMP JUMPDEST PUSH1 0x0 PUSH8 0xFFFFFFFFFFFFFFFF DUP3 GT ISZERO PUSH2 0xC7F JUMPI PUSH2 0xC7E PUSH2 0xE0E JUMP JUMPDEST JUMPDEST PUSH1 0x20 DUP3 MUL SWAP1 POP PUSH1 0x20 DUP2 ADD SWAP1 POP SWAP2 SWAP1 POP JUMP JUMPDEST PUSH1 0x0 PUSH8 0xFFFFFFFFFFFFFFFF DUP3 GT ISZERO PUSH2 0xCAB JUMPI PUSH2 0xCAA PUSH2 0xE0E JUMP JUMPDEST JUMPDEST PUSH2 0xCB4 DUP3 PUSH2 0xE56 JUMP JUMPDEST SWAP1 POP PUSH1 0x20 DUP2 ADD SWAP1 POP SWAP2 SWAP1 POP JUMP JUMPDEST PUSH1 0x0 PUSH8 0xFFFFFFFFFFFFFFFF DUP3 GT ISZERO PUSH2 0xCDC JUMPI PUSH2 0xCDB PUSH2 0xE0E JUMP JUMPDEST JUMPDEST PUSH2 0xCE5 DUP3 PUSH2 0xE56 JUMP JUMPDEST SWAP1 POP PUSH1 0x20 DUP2 ADD SWAP1 POP SWAP2 SWAP1 POP JUMP JUMPDEST PUSH1 0x0 DUP2 MLOAD SWAP1 POP SWAP2 SWAP1 POP JUMP JUMPDEST PUSH1 0x0 DUP3 DUP3 MSTORE PUSH1 0x20 DUP3 ADD SWAP1 POP SWAP3 SWAP2 POP POP JUMP JUMPDEST PUSH1 0x0 DUP3 DUP3 MSTORE PUSH1 0x20 DUP3 ADD SWAP1 POP SWAP3 SWAP2 POP POP JUMP JUMPDEST PUSH1 0x0 PUSH2 0xD2A DUP3 PUSH2 0xD3B JUMP JUMPDEST SWAP1 POP SWAP2 SWAP1 POP JUMP JUMPDEST PUSH1 0x0 DUP2 SWAP1 POP SWAP2 SWAP1 POP JUMP JUMPDEST PUSH1 0x0 PUSH20 0xFFFFFFFFFFFFFFFFFFFFFFFFFFFFFFFFFFFFFFFF DUP3 AND SWAP1 POP SWAP2 SWAP1 POP JUMP JUMPDEST PUSH1 0x0 DUP2 SWAP1 POP SWAP2 SWAP1 POP JUMP JUMPDEST PUSH1 0x0 PUSH2 0xD70 DUP3 PUSH2 0xD77 JUMP JUMPDEST SWAP1 POP SWAP2 SWAP1 POP JUMP JUMPDEST PUSH1 0x0 PUSH2 0xD82 DUP3 PUSH2 0xD89 JUMP JUMPDEST SWAP1 POP SWAP2 SWAP1 POP JUMP JUMPDEST PUSH1 0x0 PUSH2 0xD94 DUP3 PUSH2 0xD3B JUMP JUMPDEST SWAP1 POP SWAP2 SWAP1 POP JUMP JUMPDEST DUP3 DUP2 DUP4 CALLDATACOPY PUSH1 0x0 DUP4 DUP4 ADD MSTORE POP POP POP JUMP JUMPDEST PUSH1 0x0 JUMPDEST DUP4 DUP2 LT ISZERO PUSH2 0xDC8 JUMPI DUP1 DUP3 ADD MLOAD DUP2 DUP5 ADD MSTORE PUSH1 0x20 DUP2 ADD SWAP1 POP PUSH2 0xDAD JUMP JUMPDEST DUP4 DUP2 GT ISZERO PUSH2 0xDD7 JUMPI PUSH1 0x0 DUP5 DUP5 ADD MSTORE JUMPDEST POP POP POP POP JUMP JUMPDEST PUSH2 0xDE6 DUP3 PUSH2 0xE56 JUMP JUMPDEST DUP2 ADD DUP2 DUP2 LT PUSH8 0xFFFFFFFFFFFFFFFF DUP3 GT OR ISZERO PUSH2 0xE05 JUMPI PUSH2 0xE04 PUSH2 0xE0E JUMP JUMPDEST JUMPDEST DUP1 PUSH1 0x40 MSTORE POP POP POP JUMP JUMPDEST PUSH32 0x4E487B7100000000000000000000000000000000000000000000000000000000 PUSH1 0x0 MSTORE PUSH1 0x41 PUSH1 0x4 MSTORE PUSH1 0x24 PUSH1 0x0 REVERT JUMPDEST PUSH1 0x0 DUP1 REVERT JUMPDEST PUSH1 0x0 DUP1 REVERT JUMPDEST PUSH1 0x0 DUP1 REVERT JUMPDEST PUSH1 0x0 DUP1 REVERT JUMPDEST PUSH1 0x0 DUP1 REVERT JUMPDEST PUSH1 0x0 PUSH1 0x1F NOT PUSH1 0x1F DUP4 ADD AND SWAP1 POP SWAP2 SWAP1 POP JUMP JUMPDEST PUSH32 0x4F776E61626C653A206E6577206F776E657220697320746865207A65726F2061 PUSH1 0x0 DUP3 ADD MSTORE PUSH32 0x6464726573730000000000000000000000000000000000000000000000000000 PUSH1 0x20 DUP3 ADD MSTORE POP JUMP JUMPDEST PUSH32 0x4F776E61626C653A2063616C6C6572206973206E6F7420746865206F776E6572 PUSH1 0x0 DUP3 ADD MSTORE POP JUMP JUMPDEST PUSH32 0x43726564656E7469616C2043616C6C4261636B3A204F6E6C7920746865206F72 PUSH1 0x0 DUP3 ADD MSTORE PUSH32 0x61636C652063616E2063616C6C20746869732066756E6374696F6E0000000000 PUSH1 0x20 DUP3 ADD MSTORE POP JUMP JUMPDEST PUSH2 0xF37 DUP2 PUSH2 0xD1F JUMP JUMPDEST DUP2 EQ PUSH2 0xF42 JUMPI PUSH1 0x0 DUP1 REVERT JUMPDEST POP JUMP JUMPDEST PUSH2 0xF4E DUP2 PUSH2 0xD31 JUMP JUMPDEST DUP2 EQ PUSH2 0xF59 JUMPI PUSH1 0x0 DUP1 REVERT JUMPDEST POP JUMP JUMPDEST PUSH2 0xF65 DUP2 PUSH2 0xD5B JUMP JUMPDEST DUP2 EQ PUSH2 0xF70 JUMPI PUSH1 0x0 DUP1 REVERT JUMPDEST POP JUMP INVALID LOG2 PUSH5 0x6970667358 0x22 SLT KECCAK256 0xCD 0x2A 0xC2 0xE OR PUSH26 0xBDC716FF96A4377D2DD055349B53D488B4996344C8C9D948E813 PUSH5 0x736F6C6343 STOP ADDMOD SMOD STOP CALLER "
				},
				"gasEstimates": {
					"creation": {
						"codeDepositCost": "801800",
						"executionCost": "infinite",
						"totalCost": "infinite"
					},
					"external": {
						"CREDENTIAL_EVENT()": "2645",
						"owner()": "2544",
						"postVibe(string,string,string,uint256,bytes32[])": "infinite",
						"postVibe_authorised(string,bytes[])": "infinite",
						"postVibe_unauthorised(string)": "infinite",
						"renounceOwnership()": "30374",
						"transferOwnership(address)": "30789"
					}
				},
				"methodIdentifiers": {
					"CREDENTIAL_EVENT()": "5f7690b3",
					"owner()": "8da5cb5b",
					"postVibe(string,string,string,uint256,bytes32[])": "169c4424",
					"postVibe_authorised(string,bytes[])": "dce8a955",
					"postVibe_unauthorised(string)": "436e99f3",
					"renounceOwnership()": "715018a6",
					"transferOwnership(address)": "f2fde38b"
				}
			},
			"storageLayout": {
				"storage": [
					{
						"astId": 7,
						"contract": "facets/CommunicationFacet.sol:CommunicationFacet",
						"label": "_owner",
						"offset": 0,
						"slot": "0",
						"type": "t_address"
					},
					{
						"astId": 247,
						"contract": "facets/CommunicationFacet.sol:CommunicationFacet",
						"label": "CREDENTIAL_ORACLE",
						"offset": 0,
						"slot": "1",
						"type": "t_address"
					},
					{
						"astId": 250,
						"contract": "facets/CommunicationFacet.sol:CommunicationFacet",
						"label": "CREDENTIAL_EVENT",
						"offset": 0,
						"slot": "2",
						"type": "t_contract(CredentialEventFacet)242"
					}
				],
				"types": {
					"t_address": {
						"encoding": "inplace",
						"label": "address",
						"numberOfBytes": "20"
					},
					"t_contract(CredentialEventFacet)242": {
						"encoding": "inplace",
						"label": "contract CredentialEventFacet",
						"numberOfBytes": "20"
					}
				}
			},
			"userdoc": {
				"kind": "user",
				"methods": {},
				"version": 1
			}
		}
	}
}