{
	"facets/CommunicationFacet.sol": {
		"CommunicationFacet": {
			"abi": [
				{
					"inputs": [
						{
							"internalType": "address",
							"name": "_credentialOracle",
							"type": "address"
						}
					],
					"stateMutability": "nonpayable",
					"type": "constructor"
				},
				{
					"anonymous": false,
					"inputs": [
						{
							"indexed": true,
							"internalType": "address",
							"name": "previousOwner",
							"type": "address"
						},
						{
							"indexed": true,
							"internalType": "address",
							"name": "newOwner",
							"type": "address"
						}
					],
					"name": "OwnershipTransferred",
					"type": "event"
				},
				{
					"inputs": [],
					"name": "CREDENTIAL_EVENT",
					"outputs": [
						{
							"internalType": "contract CredentialEventFacet",
							"name": "",
							"type": "address"
						}
					],
					"stateMutability": "view",
					"type": "function"
				},
				{
					"inputs": [
						{
							"internalType": "string",
							"name": "someParam",
							"type": "string"
						},
						{
							"internalType": "string",
							"name": "_listId",
							"type": "string"
						}
					],
					"name": "downVoteVibe",
					"outputs": [],
					"stateMutability": "nonpayable",
					"type": "function"
				},
				{
					"inputs": [
						{
							"internalType": "string",
							"name": "someParam",
							"type": "string"
						},
						{
							"internalType": "bytes[]",
							"name": "proof",
							"type": "bytes[]"
						}
					],
					"name": "downVoteVibe_authorised",
					"outputs": [],
					"stateMutability": "nonpayable",
					"type": "function"
				},
				{
					"inputs": [
						{
							"internalType": "string",
							"name": "someParam",
							"type": "string"
						}
					],
					"name": "downVoteVibe_unauthorised",
					"outputs": [],
					"stateMutability": "nonpayable",
					"type": "function"
				},
				{
					"inputs": [],
					"name": "name",
					"outputs": [
						{
							"internalType": "string",
							"name": "",
							"type": "string"
						}
					],
					"stateMutability": "view",
					"type": "function"
				},
				{
					"inputs": [],
					"name": "owner",
					"outputs": [
						{
							"internalType": "address",
							"name": "",
							"type": "address"
						}
					],
					"stateMutability": "view",
					"type": "function"
				},
				{
					"inputs": [
						{
							"internalType": "string",
							"name": "someParam",
							"type": "string"
						},
						{
							"internalType": "string",
							"name": "_listId",
							"type": "string"
						}
					],
					"name": "postVibe",
					"outputs": [],
					"stateMutability": "nonpayable",
					"type": "function"
				},
				{
					"inputs": [
						{
							"internalType": "string",
							"name": "someParam",
							"type": "string"
						},
						{
							"internalType": "bytes[]",
							"name": "proof",
							"type": "bytes[]"
						}
					],
					"name": "postVibe_authorised",
					"outputs": [],
					"stateMutability": "nonpayable",
					"type": "function"
				},
				{
					"inputs": [
						{
							"internalType": "string",
							"name": "someParam",
							"type": "string"
						}
					],
					"name": "postVibe_unauthorised",
					"outputs": [],
					"stateMutability": "nonpayable",
					"type": "function"
				},
				{
					"inputs": [],
					"name": "renounceOwnership",
					"outputs": [],
					"stateMutability": "nonpayable",
					"type": "function"
				},
				{
					"inputs": [
						{
							"internalType": "string",
							"name": "someParam",
							"type": "string"
						}
					],
					"name": "setInboxPriceForCredential",
					"outputs": [],
					"stateMutability": "nonpayable",
					"type": "function"
				},
				{
					"inputs": [],
					"name": "setUpVibePool",
					"outputs": [],
					"stateMutability": "nonpayable",
					"type": "function"
				},
				{
					"inputs": [],
					"name": "settleVibes",
					"outputs": [],
					"stateMutability": "nonpayable",
					"type": "function"
				},
				{
					"inputs": [
						{
							"internalType": "address",
							"name": "newOwner",
							"type": "address"
						}
					],
					"name": "transferOwnership",
					"outputs": [],
					"stateMutability": "nonpayable",
					"type": "function"
				},
				{
					"inputs": [
						{
							"internalType": "string",
							"name": "someParam",
							"type": "string"
						},
						{
							"internalType": "string",
							"name": "_listId",
							"type": "string"
						}
					],
					"name": "upVoteVibe",
					"outputs": [],
					"stateMutability": "nonpayable",
					"type": "function"
				},
				{
					"inputs": [
						{
							"internalType": "string",
							"name": "someParam",
							"type": "string"
						},
						{
							"internalType": "bytes[]",
							"name": "proof",
							"type": "bytes[]"
						}
					],
					"name": "upVoteVibe_authorised",
					"outputs": [],
					"stateMutability": "nonpayable",
					"type": "function"
				},
				{
					"inputs": [
						{
							"internalType": "string",
							"name": "someParam",
							"type": "string"
						}
					],
					"name": "upVoteVibe_unauthorised",
					"outputs": [],
					"stateMutability": "nonpayable",
					"type": "function"
				}
			],
			"devdoc": {
				"kind": "dev",
				"methods": {
					"owner()": {
						"details": "Returns the address of the current owner."
					},
					"renounceOwnership()": {
						"details": "Leaves the contract without owner. It will not be possible to call `onlyOwner` functions anymore. Can only be called by the current owner. NOTE: Renouncing ownership will leave the contract without an owner, thereby removing any functionality that is only available to the owner."
					},
					"transferOwnership(address)": {
						"details": "Transfers ownership of the contract to a new account (`newOwner`). Can only be called by the current owner."
					}
				},
				"version": 1
			},
			"evm": {
				"assembly": "    /* \"facets/CommunicationFacet.sol\":141:1576  contract CommunicationFacet is Ownable, GateableFacet {... */\n  mstore(0x40, 0x80)\n    /* \"facets/CommunicationFacet.sol\":198:273  constructor(address _credentialOracle) GateableFacet(_credentialOracle) {... */\n  callvalue\n  dup1\n  iszero\n  tag_1\n  jumpi\n  0x00\n  dup1\n  revert\ntag_1:\n  pop\n  mload(0x40)\n  sub(codesize, bytecodeSize)\n  dup1\n  bytecodeSize\n  dup4\n  codecopy\n  dup2\n  dup2\n  add\n  0x40\n  mstore\n  dup2\n  add\n  swap1\n  tag_2\n  swap2\n  swap1\n  tag_3\n  jump\t// in\ntag_2:\n    /* \"facets/CommunicationFacet.sol\":251:268  _credentialOracle */\n  dup1\n    /* \"@openzeppelin/contracts/access/Ownable.sol\":921:953  _transferOwnership(_msgSender()) */\n  tag_8\n    /* \"@openzeppelin/contracts/access/Ownable.sol\":940:952  _msgSender() */\n  tag_9\n    /* \"@openzeppelin/contracts/access/Ownable.sol\":940:950  _msgSender */\n  shl(0x20, tag_10)\n    /* \"@openzeppelin/contracts/access/Ownable.sol\":940:952  _msgSender() */\n  0x20\n  shr\n  jump\t// in\ntag_9:\n    /* \"@openzeppelin/contracts/access/Ownable.sol\":921:939  _transferOwnership */\n  shl(0x20, tag_11)\n    /* \"@openzeppelin/contracts/access/Ownable.sol\":921:953  _transferOwnership(_msgSender()) */\n  0x20\n  shr\n  jump\t// in\ntag_8:\n    /* \"facets/GateableFacet.sol\":821:838  _credentialOracle */\n  dup1\n    /* \"facets/GateableFacet.sol\":801:818  CREDENTIAL_ORACLE */\n  0x01\n  0x00\n    /* \"facets/GateableFacet.sol\":801:838  CREDENTIAL_ORACLE = _credentialOracle */\n  0x0100\n  exp\n  dup2\n  sload\n  dup2\n  0xffffffffffffffffffffffffffffffffffffffff\n  mul\n  not\n  and\n  swap1\n  dup4\n  0xffffffffffffffffffffffffffffffffffffffff\n  and\n  mul\n  or\n  swap1\n  sstore\n  pop\n    /* \"facets/GateableFacet.sol\":756:841  constructor(address _credentialOracle) {... */\n  pop\n    /* \"facets/CommunicationFacet.sol\":198:273  constructor(address _credentialOracle) GateableFacet(_credentialOracle) {... */\n  pop\n    /* \"facets/CommunicationFacet.sol\":141:1576  contract CommunicationFacet is Ownable, GateableFacet {... */\n  jump(tag_14)\n    /* \"@openzeppelin/contracts/utils/Context.sol\":640:736  function _msgSender() internal view virtual returns (address) {... */\ntag_10:\n    /* \"@openzeppelin/contracts/utils/Context.sol\":693:700  address */\n  0x00\n    /* \"@openzeppelin/contracts/utils/Context.sol\":719:729  msg.sender */\n  caller\n    /* \"@openzeppelin/contracts/utils/Context.sol\":712:729  return msg.sender */\n  swap1\n  pop\n    /* \"@openzeppelin/contracts/utils/Context.sol\":640:736  function _msgSender() internal view virtual returns (address) {... */\n  swap1\n  jump\t// out\n    /* \"@openzeppelin/contracts/access/Ownable.sol\":2270:2457  function _transferOwnership(address newOwner) internal virtual {... */\ntag_11:\n    /* \"@openzeppelin/contracts/access/Ownable.sol\":2343:2359  address oldOwner */\n  0x00\n    /* \"@openzeppelin/contracts/access/Ownable.sol\":2362:2368  _owner */\n  dup1\n  0x00\n  swap1\n  sload\n  swap1\n  0x0100\n  exp\n  swap1\n  div\n  0xffffffffffffffffffffffffffffffffffffffff\n  and\n    /* \"@openzeppelin/contracts/access/Ownable.sol\":2343:2368  address oldOwner = _owner */\n  swap1\n  pop\n    /* \"@openzeppelin/contracts/access/Ownable.sol\":2387:2395  newOwner */\n  dup2\n    /* \"@openzeppelin/contracts/access/Ownable.sol\":2378:2384  _owner */\n  0x00\n  dup1\n    /* \"@openzeppelin/contracts/access/Ownable.sol\":2378:2395  _owner = newOwner */\n  0x0100\n  exp\n  dup2\n  sload\n  dup2\n  0xffffffffffffffffffffffffffffffffffffffff\n  mul\n  not\n  and\n  swap1\n  dup4\n  0xffffffffffffffffffffffffffffffffffffffff\n  and\n  mul\n  or\n  swap1\n  sstore\n  pop\n    /* \"@openzeppelin/contracts/access/Ownable.sol\":2441:2449  newOwner */\n  dup2\n    /* \"@openzeppelin/contracts/access/Ownable.sol\":2410:2450  OwnershipTransferred(oldOwner, newOwner) */\n  0xffffffffffffffffffffffffffffffffffffffff\n  and\n    /* \"@openzeppelin/contracts/access/Ownable.sol\":2431:2439  oldOwner */\n  dup2\n    /* \"@openzeppelin/contracts/access/Ownable.sol\":2410:2450  OwnershipTransferred(oldOwner, newOwner) */\n  0xffffffffffffffffffffffffffffffffffffffff\n  and\n  0x8be0079c531659141344cd1fd0a4f28419497f9722a3daafe3b4186f6b6457e0\n  mload(0x40)\n  mload(0x40)\n  dup1\n  swap2\n  sub\n  swap1\n  log3\n    /* \"@openzeppelin/contracts/access/Ownable.sol\":2333:2457  {... */\n  pop\n    /* \"@openzeppelin/contracts/access/Ownable.sol\":2270:2457  function _transferOwnership(address newOwner) internal virtual {... */\n  pop\n  jump\t// out\n    /* \"#utility.yul\":7:150   */\ntag_18:\n    /* \"#utility.yul\":64:69   */\n  0x00\n    /* \"#utility.yul\":95:101   */\n  dup2\n    /* \"#utility.yul\":89:102   */\n  mload\n    /* \"#utility.yul\":80:102   */\n  swap1\n  pop\n    /* \"#utility.yul\":111:144   */\n  tag_20\n    /* \"#utility.yul\":138:143   */\n  dup2\n    /* \"#utility.yul\":111:144   */\n  tag_21\n  jump\t// in\ntag_20:\n    /* \"#utility.yul\":7:150   */\n  swap3\n  swap2\n  pop\n  pop\n  jump\t// out\n    /* \"#utility.yul\":156:507   */\ntag_3:\n    /* \"#utility.yul\":226:232   */\n  0x00\n    /* \"#utility.yul\":275:277   */\n  0x20\n    /* \"#utility.yul\":263:272   */\n  dup3\n    /* \"#utility.yul\":254:261   */\n  dup5\n    /* \"#utility.yul\":250:273   */\n  sub\n    /* \"#utility.yul\":246:278   */\n  slt\n    /* \"#utility.yul\":243:362   */\n  iszero\n  tag_23\n  jumpi\n    /* \"#utility.yul\":281:360   */\n  tag_24\n  tag_25\n  jump\t// in\ntag_24:\n    /* \"#utility.yul\":243:362   */\ntag_23:\n    /* \"#utility.yul\":401:402   */\n  0x00\n    /* \"#utility.yul\":426:490   */\n  tag_26\n    /* \"#utility.yul\":482:489   */\n  dup5\n    /* \"#utility.yul\":473:479   */\n  dup3\n    /* \"#utility.yul\":462:471   */\n  dup6\n    /* \"#utility.yul\":458:480   */\n  add\n    /* \"#utility.yul\":426:490   */\n  tag_18\n  jump\t// in\ntag_26:\n    /* \"#utility.yul\":416:490   */\n  swap2\n  pop\n    /* \"#utility.yul\":372:500   */\n  pop\n    /* \"#utility.yul\":156:507   */\n  swap3\n  swap2\n  pop\n  pop\n  jump\t// out\n    /* \"#utility.yul\":594:690   */\ntag_29:\n    /* \"#utility.yul\":631:638   */\n  0x00\n    /* \"#utility.yul\":660:684   */\n  tag_31\n    /* \"#utility.yul\":678:683   */\n  dup3\n    /* \"#utility.yul\":660:684   */\n  tag_32\n  jump\t// in\ntag_31:\n    /* \"#utility.yul\":649:684   */\n  swap1\n  pop\n    /* \"#utility.yul\":594:690   */\n  swap2\n  swap1\n  pop\n  jump\t// out\n    /* \"#utility.yul\":696:822   */\ntag_32:\n    /* \"#utility.yul\":733:740   */\n  0x00\n    /* \"#utility.yul\":773:815   */\n  0xffffffffffffffffffffffffffffffffffffffff\n    /* \"#utility.yul\":766:771   */\n  dup3\n    /* \"#utility.yul\":762:816   */\n  and\n    /* \"#utility.yul\":751:816   */\n  swap1\n  pop\n    /* \"#utility.yul\":696:822   */\n  swap2\n  swap1\n  pop\n  jump\t// out\n    /* \"#utility.yul\":951:1068   */\ntag_25:\n    /* \"#utility.yul\":1060:1061   */\n  0x00\n    /* \"#utility.yul\":1057:1058   */\n  dup1\n    /* \"#utility.yul\":1050:1062   */\n  revert\n    /* \"#utility.yul\":1074:1196   */\ntag_21:\n    /* \"#utility.yul\":1147:1171   */\n  tag_38\n    /* \"#utility.yul\":1165:1170   */\n  dup2\n    /* \"#utility.yul\":1147:1171   */\n  tag_29\n  jump\t// in\ntag_38:\n    /* \"#utility.yul\":1140:1145   */\n  dup2\n    /* \"#utility.yul\":1137:1172   */\n  eq\n    /* \"#utility.yul\":1127:1190   */\n  tag_39\n  jumpi\n    /* \"#utility.yul\":1186:1187   */\n  0x00\n    /* \"#utility.yul\":1183:1184   */\n  dup1\n    /* \"#utility.yul\":1176:1188   */\n  revert\n    /* \"#utility.yul\":1127:1190   */\ntag_39:\n    /* \"#utility.yul\":1074:1196   */\n  pop\n  jump\t// out\n    /* \"facets/CommunicationFacet.sol\":141:1576  contract CommunicationFacet is Ownable, GateableFacet {... */\ntag_14:\n  dataSize(sub_0)\n  dup1\n  dataOffset(sub_0)\n  0x00\n  codecopy\n  0x00\n  return\nstop\n\nsub_0: assembly {\n        /* \"facets/CommunicationFacet.sol\":141:1576  contract CommunicationFacet is Ownable, GateableFacet {... */\n      mstore(0x40, 0x80)\n      callvalue\n      dup1\n      iszero\n      tag_1\n      jumpi\n      0x00\n      dup1\n      revert\n    tag_1:\n      pop\n      jumpi(tag_2, lt(calldatasize, 0x04))\n      shr(0xe0, calldataload(0x00))\n      dup1\n      0x8da5cb5b\n      gt\n      tag_20\n      jumpi\n      dup1\n      0xc113344b\n      gt\n      tag_21\n      jumpi\n      dup1\n      0xc113344b\n      eq\n      tag_15\n      jumpi\n      dup1\n      0xc1d15676\n      eq\n      tag_16\n      jumpi\n      dup1\n      0xcd680492\n      eq\n      tag_17\n      jumpi\n      dup1\n      0xdce8a955\n      eq\n      tag_18\n      jumpi\n      dup1\n      0xf2fde38b\n      eq\n      tag_19\n      jumpi\n      jump(tag_2)\n    tag_21:\n      dup1\n      0x8da5cb5b\n      eq\n      tag_11\n      jumpi\n      dup1\n      0xa890e381\n      eq\n      tag_12\n      jumpi\n      dup1\n      0xb0c7f4c0\n      eq\n      tag_13\n      jumpi\n      dup1\n      0xbe58afb0\n      eq\n      tag_14\n      jumpi\n      jump(tag_2)\n    tag_20:\n      dup1\n      0x715018a6\n      gt\n      tag_22\n      jumpi\n      dup1\n      0x715018a6\n      eq\n      tag_7\n      jumpi\n      dup1\n      0x787a9a95\n      eq\n      tag_8\n      jumpi\n      dup1\n      0x7fa25879\n      eq\n      tag_9\n      jumpi\n      dup1\n      0x89aeb071\n      eq\n      tag_10\n      jumpi\n      jump(tag_2)\n    tag_22:\n      dup1\n      0x06fdde03\n      eq\n      tag_3\n      jumpi\n      dup1\n      0x0bf0ea18\n      eq\n      tag_4\n      jumpi\n      dup1\n      0x436e99f3\n      eq\n      tag_5\n      jumpi\n      dup1\n      0x5f7690b3\n      eq\n      tag_6\n      jumpi\n    tag_2:\n      0x00\n      dup1\n      revert\n        /* \"facets/CommunicationFacet.sol\":274:292  string public name */\n    tag_3:\n      tag_23\n      tag_24\n      jump\t// in\n    tag_23:\n      mload(0x40)\n      tag_25\n      swap2\n      swap1\n      tag_26\n      jump\t// in\n    tag_25:\n      mload(0x40)\n      dup1\n      swap2\n      sub\n      swap1\n      return\n        /* \"facets/CommunicationFacet.sol\":1227:1365  function downVoteVibe_authorised(string memory someParam, bytes[] memory proof) credentialCallback external {... */\n    tag_4:\n      tag_27\n      0x04\n      dup1\n      calldatasize\n      sub\n      dup2\n      add\n      swap1\n      tag_28\n      swap2\n      swap1\n      tag_29\n      jump\t// in\n    tag_28:\n      tag_30\n      jump\t// in\n    tag_27:\n      stop\n        /* \"facets/CommunicationFacet.sol\":631:748  function postVibe_unauthorised(string memory someParam) credentialCallback external {... */\n    tag_5:\n      tag_31\n      0x04\n      dup1\n      calldatasize\n      sub\n      dup2\n      add\n      swap1\n      tag_32\n      swap2\n      swap1\n      tag_33\n      jump\t// in\n    tag_32:\n      tag_34\n      jump\t// in\n    tag_31:\n      stop\n        /* \"facets/GateableFacet.sol\":164:208  CredentialEventFacet public CREDENTIAL_EVENT */\n    tag_6:\n      tag_35\n      tag_36\n      jump\t// in\n    tag_35:\n      mload(0x40)\n      tag_37\n      swap2\n      swap1\n      tag_38\n      jump\t// in\n    tag_37:\n      mload(0x40)\n      dup1\n      swap2\n      sub\n      swap1\n      return\n        /* \"@openzeppelin/contracts/access/Ownable.sol\":1668:1769  function renounceOwnership() public virtual onlyOwner {... */\n    tag_7:\n      tag_39\n      tag_40\n      jump\t// in\n    tag_39:\n      stop\n        /* \"facets/CommunicationFacet.sol\":996:1115  function upVoteVibe_unauthorised(string memory someParam) credentialCallback external {... */\n    tag_8:\n      tag_41\n      0x04\n      dup1\n      calldatasize\n      sub\n      dup2\n      add\n      swap1\n      tag_42\n      swap2\n      swap1\n      tag_33\n      jump\t// in\n    tag_42:\n      tag_43\n      jump\t// in\n    tag_41:\n      stop\n        /* \"facets/CommunicationFacet.sol\":1367:1488  function downVoteVibe_unauthorised(string memory someParam) credentialCallback external {... */\n    tag_9:\n      tag_44\n      0x04\n      dup1\n      calldatasize\n      sub\n      dup2\n      add\n      swap1\n      tag_45\n      swap2\n      swap1\n      tag_33\n      jump\t// in\n    tag_45:\n      tag_46\n      jump\t// in\n    tag_44:\n      stop\n        /* \"facets/CommunicationFacet.sol\":1491:1535  function settleVibes() external onlyOwner {} */\n    tag_10:\n      tag_47\n      tag_48\n      jump\t// in\n    tag_47:\n      stop\n        /* \"@openzeppelin/contracts/access/Ownable.sol\":1036:1121  function owner() public view virtual returns (address) {... */\n    tag_11:\n      tag_49\n      tag_50\n      jump\t// in\n    tag_49:\n      mload(0x40)\n      tag_51\n      swap2\n      swap1\n      tag_52\n      jump\t// in\n    tag_51:\n      mload(0x40)\n      dup1\n      swap2\n      sub\n      swap1\n      return\n        /* \"facets/CommunicationFacet.sol\":1118:1225  function downVoteVibe(string memory someParam, string memory _listId) has_credential(_listId) external {... */\n    tag_12:\n      tag_53\n      0x04\n      dup1\n      calldatasize\n      sub\n      dup2\n      add\n      swap1\n      tag_54\n      swap2\n      swap1\n      tag_55\n      jump\t// in\n    tag_54:\n      tag_56\n      jump\t// in\n    tag_53:\n      stop\n        /* \"facets/CommunicationFacet.sol\":858:994  function upVoteVibe_authorised(string memory someParam, bytes[] memory proof) credentialCallback external {... */\n    tag_13:\n      tag_57\n      0x04\n      dup1\n      calldatasize\n      sub\n      dup2\n      add\n      swap1\n      tag_58\n      swap2\n      swap1\n      tag_29\n      jump\t// in\n    tag_58:\n      tag_59\n      jump\t// in\n    tag_57:\n      stop\n        /* \"facets/CommunicationFacet.sol\":371:493  function postVibe(string memory someParam, string memory _listId) has_credential(_listId) external {... */\n    tag_14:\n      tag_60\n      0x04\n      dup1\n      calldatasize\n      sub\n      dup2\n      add\n      swap1\n      tag_61\n      swap2\n      swap1\n      tag_55\n      jump\t// in\n    tag_61:\n      tag_62\n      jump\t// in\n    tag_60:\n      stop\n        /* \"facets/CommunicationFacet.sol\":751:856  function upVoteVibe(string memory someParam, string memory _listId) has_credential(_listId) external {... */\n    tag_15:\n      tag_63\n      0x04\n      dup1\n      calldatasize\n      sub\n      dup2\n      add\n      swap1\n      tag_64\n      swap2\n      swap1\n      tag_55\n      jump\t// in\n    tag_64:\n      tag_65\n      jump\t// in\n    tag_63:\n      stop\n        /* \"facets/CommunicationFacet.sol\":1537:1573  function setUpVibePool() external {} */\n    tag_16:\n      tag_66\n      tag_67\n      jump\t// in\n    tag_66:\n      stop\n        /* \"facets/CommunicationFacet.sol\":294:368  function setInboxPriceForCredential(string memory someParam) external {... */\n    tag_17:\n      tag_68\n      0x04\n      dup1\n      calldatasize\n      sub\n      dup2\n      add\n      swap1\n      tag_69\n      swap2\n      swap1\n      tag_33\n      jump\t// in\n    tag_69:\n      tag_70\n      jump\t// in\n    tag_68:\n      stop\n        /* \"facets/CommunicationFacet.sol\":495:629  function postVibe_authorised(string memory someParam, bytes[] memory proof) credentialCallback external {... */\n    tag_18:\n      tag_71\n      0x04\n      dup1\n      calldatasize\n      sub\n      dup2\n      add\n      swap1\n      tag_72\n      swap2\n      swap1\n      tag_29\n      jump\t// in\n    tag_72:\n      tag_73\n      jump\t// in\n    tag_71:\n      stop\n        /* \"@openzeppelin/contracts/access/Ownable.sol\":1918:2116  function transferOwnership(address newOwner) public virtual onlyOwner {... */\n    tag_19:\n      tag_74\n      0x04\n      dup1\n      calldatasize\n      sub\n      dup2\n      add\n      swap1\n      tag_75\n      swap2\n      swap1\n      tag_76\n      jump\t// in\n    tag_75:\n      tag_77\n      jump\t// in\n    tag_74:\n      stop\n        /* \"facets/CommunicationFacet.sol\":274:292  string public name */\n    tag_24:\n      0x03\n      dup1\n      sload\n      tag_78\n      swap1\n      tag_79\n      jump\t// in\n    tag_78:\n      dup1\n      0x1f\n      add\n      0x20\n      dup1\n      swap2\n      div\n      mul\n      0x20\n      add\n      mload(0x40)\n      swap1\n      dup2\n      add\n      0x40\n      mstore\n      dup1\n      swap3\n      swap2\n      swap1\n      dup2\n      dup2\n      mstore\n      0x20\n      add\n      dup3\n      dup1\n      sload\n      tag_80\n      swap1\n      tag_79\n      jump\t// in\n    tag_80:\n      dup1\n      iszero\n      tag_81\n      jumpi\n      dup1\n      0x1f\n      lt\n      tag_82\n      jumpi\n      0x0100\n      dup1\n      dup4\n      sload\n      div\n      mul\n      dup4\n      mstore\n      swap2\n      0x20\n      add\n      swap2\n      jump(tag_81)\n    tag_82:\n      dup3\n      add\n      swap2\n      swap1\n      0x00\n      mstore\n      keccak256(0x00, 0x20)\n      swap1\n    tag_83:\n      dup2\n      sload\n      dup2\n      mstore\n      swap1\n      0x01\n      add\n      swap1\n      0x20\n      add\n      dup1\n      dup4\n      gt\n      tag_83\n      jumpi\n      dup3\n      swap1\n      sub\n      0x1f\n      and\n      dup3\n      add\n      swap2\n    tag_81:\n      pop\n      pop\n      pop\n      pop\n      pop\n      dup2\n      jump\t// out\n        /* \"facets/CommunicationFacet.sol\":1227:1365  function downVoteVibe_authorised(string memory someParam, bytes[] memory proof) credentialCallback external {... */\n    tag_30:\n        /* \"facets/GateableFacet.sol\":665:682  CREDENTIAL_ORACLE */\n      0x01\n      0x00\n      swap1\n      sload\n      swap1\n      0x0100\n      exp\n      swap1\n      div\n      0xffffffffffffffffffffffffffffffffffffffff\n      and\n        /* \"facets/GateableFacet.sol\":651:682  msg.sender == CREDENTIAL_ORACLE */\n      0xffffffffffffffffffffffffffffffffffffffff\n      and\n        /* \"facets/GateableFacet.sol\":651:661  msg.sender */\n      caller\n        /* \"facets/GateableFacet.sol\":651:682  msg.sender == CREDENTIAL_ORACLE */\n      0xffffffffffffffffffffffffffffffffffffffff\n      and\n      eq\n        /* \"facets/GateableFacet.sol\":643:746  require(msg.sender == CREDENTIAL_ORACLE, \"Credential CallBack: Only the oracle can call this function\") */\n      tag_85\n      jumpi\n      mload(0x40)\n      0x08c379a000000000000000000000000000000000000000000000000000000000\n      dup2\n      mstore\n      0x04\n      add\n      tag_86\n      swap1\n      tag_87\n      jump\t// in\n    tag_86:\n      mload(0x40)\n      dup1\n      swap2\n      sub\n      swap1\n      revert\n    tag_85:\n        /* \"facets/CommunicationFacet.sol\":1227:1365  function downVoteVibe_authorised(string memory someParam, bytes[] memory proof) credentialCallback external {... */\n      pop\n      pop\n      jump\t// out\n        /* \"facets/CommunicationFacet.sol\":631:748  function postVibe_unauthorised(string memory someParam) credentialCallback external {... */\n    tag_34:\n        /* \"facets/GateableFacet.sol\":665:682  CREDENTIAL_ORACLE */\n      0x01\n      0x00\n      swap1\n      sload\n      swap1\n      0x0100\n      exp\n      swap1\n      div\n      0xffffffffffffffffffffffffffffffffffffffff\n      and\n        /* \"facets/GateableFacet.sol\":651:682  msg.sender == CREDENTIAL_ORACLE */\n      0xffffffffffffffffffffffffffffffffffffffff\n      and\n        /* \"facets/GateableFacet.sol\":651:661  msg.sender */\n      caller\n        /* \"facets/GateableFacet.sol\":651:682  msg.sender == CREDENTIAL_ORACLE */\n      0xffffffffffffffffffffffffffffffffffffffff\n      and\n      eq\n        /* \"facets/GateableFacet.sol\":643:746  require(msg.sender == CREDENTIAL_ORACLE, \"Credential CallBack: Only the oracle can call this function\") */\n      tag_90\n      jumpi\n      mload(0x40)\n      0x08c379a000000000000000000000000000000000000000000000000000000000\n      dup2\n      mstore\n      0x04\n      add\n      tag_91\n      swap1\n      tag_87\n      jump\t// in\n    tag_91:\n      mload(0x40)\n      dup1\n      swap2\n      sub\n      swap1\n      revert\n    tag_90:\n        /* \"facets/CommunicationFacet.sol\":631:748  function postVibe_unauthorised(string memory someParam) credentialCallback external {... */\n      pop\n      jump\t// out\n        /* \"facets/GateableFacet.sol\":164:208  CredentialEventFacet public CREDENTIAL_EVENT */\n    tag_36:\n      0x02\n      0x00\n      swap1\n      sload\n      swap1\n      0x0100\n      exp\n      swap1\n      div\n      0xffffffffffffffffffffffffffffffffffffffff\n      and\n      dup2\n      jump\t// out\n        /* \"@openzeppelin/contracts/access/Ownable.sol\":1668:1769  function renounceOwnership() public virtual onlyOwner {... */\n    tag_40:\n        /* \"@openzeppelin/contracts/access/Ownable.sol\":1259:1271  _msgSender() */\n      tag_94\n        /* \"@openzeppelin/contracts/access/Ownable.sol\":1259:1269  _msgSender */\n      tag_95\n        /* \"@openzeppelin/contracts/access/Ownable.sol\":1259:1271  _msgSender() */\n      jump\t// in\n    tag_94:\n        /* \"@openzeppelin/contracts/access/Ownable.sol\":1248:1271  owner() == _msgSender() */\n      0xffffffffffffffffffffffffffffffffffffffff\n      and\n        /* \"@openzeppelin/contracts/access/Ownable.sol\":1248:1255  owner() */\n      tag_96\n        /* \"@openzeppelin/contracts/access/Ownable.sol\":1248:1253  owner */\n      tag_50\n        /* \"@openzeppelin/contracts/access/Ownable.sol\":1248:1255  owner() */\n      jump\t// in\n    tag_96:\n        /* \"@openzeppelin/contracts/access/Ownable.sol\":1248:1271  owner() == _msgSender() */\n      0xffffffffffffffffffffffffffffffffffffffff\n      and\n      eq\n        /* \"@openzeppelin/contracts/access/Ownable.sol\":1240:1308  require(owner() == _msgSender(), \"Ownable: caller is not the owner\") */\n      tag_97\n      jumpi\n      mload(0x40)\n      0x08c379a000000000000000000000000000000000000000000000000000000000\n      dup2\n      mstore\n      0x04\n      add\n      tag_98\n      swap1\n      tag_99\n      jump\t// in\n    tag_98:\n      mload(0x40)\n      dup1\n      swap2\n      sub\n      swap1\n      revert\n    tag_97:\n        /* \"@openzeppelin/contracts/access/Ownable.sol\":1732:1762  _transferOwnership(address(0)) */\n      tag_101\n        /* \"@openzeppelin/contracts/access/Ownable.sol\":1759:1760  0 */\n      0x00\n        /* \"@openzeppelin/contracts/access/Ownable.sol\":1732:1750  _transferOwnership */\n      tag_102\n        /* \"@openzeppelin/contracts/access/Ownable.sol\":1732:1762  _transferOwnership(address(0)) */\n      jump\t// in\n    tag_101:\n        /* \"@openzeppelin/contracts/access/Ownable.sol\":1668:1769  function renounceOwnership() public virtual onlyOwner {... */\n      jump\t// out\n        /* \"facets/CommunicationFacet.sol\":996:1115  function upVoteVibe_unauthorised(string memory someParam) credentialCallback external {... */\n    tag_43:\n        /* \"facets/GateableFacet.sol\":665:682  CREDENTIAL_ORACLE */\n      0x01\n      0x00\n      swap1\n      sload\n      swap1\n      0x0100\n      exp\n      swap1\n      div\n      0xffffffffffffffffffffffffffffffffffffffff\n      and\n        /* \"facets/GateableFacet.sol\":651:682  msg.sender == CREDENTIAL_ORACLE */\n      0xffffffffffffffffffffffffffffffffffffffff\n      and\n        /* \"facets/GateableFacet.sol\":651:661  msg.sender */\n      caller\n        /* \"facets/GateableFacet.sol\":651:682  msg.sender == CREDENTIAL_ORACLE */\n      0xffffffffffffffffffffffffffffffffffffffff\n      and\n      eq\n        /* \"facets/GateableFacet.sol\":643:746  require(msg.sender == CREDENTIAL_ORACLE, \"Credential CallBack: Only the oracle can call this function\") */\n      tag_104\n      jumpi\n      mload(0x40)\n      0x08c379a000000000000000000000000000000000000000000000000000000000\n      dup2\n      mstore\n      0x04\n      add\n      tag_105\n      swap1\n      tag_87\n      jump\t// in\n    tag_105:\n      mload(0x40)\n      dup1\n      swap2\n      sub\n      swap1\n      revert\n    tag_104:\n        /* \"facets/CommunicationFacet.sol\":996:1115  function upVoteVibe_unauthorised(string memory someParam) credentialCallback external {... */\n      pop\n      jump\t// out\n        /* \"facets/CommunicationFacet.sol\":1367:1488  function downVoteVibe_unauthorised(string memory someParam) credentialCallback external {... */\n    tag_46:\n        /* \"facets/GateableFacet.sol\":665:682  CREDENTIAL_ORACLE */\n      0x01\n      0x00\n      swap1\n      sload\n      swap1\n      0x0100\n      exp\n      swap1\n      div\n      0xffffffffffffffffffffffffffffffffffffffff\n      and\n        /* \"facets/GateableFacet.sol\":651:682  msg.sender == CREDENTIAL_ORACLE */\n      0xffffffffffffffffffffffffffffffffffffffff\n      and\n        /* \"facets/GateableFacet.sol\":651:661  msg.sender */\n      caller\n        /* \"facets/GateableFacet.sol\":651:682  msg.sender == CREDENTIAL_ORACLE */\n      0xffffffffffffffffffffffffffffffffffffffff\n      and\n      eq\n        /* \"facets/GateableFacet.sol\":643:746  require(msg.sender == CREDENTIAL_ORACLE, \"Credential CallBack: Only the oracle can call this function\") */\n      tag_108\n      jumpi\n      mload(0x40)\n      0x08c379a000000000000000000000000000000000000000000000000000000000\n      dup2\n      mstore\n      0x04\n      add\n      tag_109\n      swap1\n      tag_87\n      jump\t// in\n    tag_109:\n      mload(0x40)\n      dup1\n      swap2\n      sub\n      swap1\n      revert\n    tag_108:\n        /* \"facets/CommunicationFacet.sol\":1367:1488  function downVoteVibe_unauthorised(string memory someParam) credentialCallback external {... */\n      pop\n      jump\t// out\n        /* \"facets/CommunicationFacet.sol\":1491:1535  function settleVibes() external onlyOwner {} */\n    tag_48:\n        /* \"@openzeppelin/contracts/access/Ownable.sol\":1259:1271  _msgSender() */\n      tag_112\n        /* \"@openzeppelin/contracts/access/Ownable.sol\":1259:1269  _msgSender */\n      tag_95\n        /* \"@openzeppelin/contracts/access/Ownable.sol\":1259:1271  _msgSender() */\n      jump\t// in\n    tag_112:\n        /* \"@openzeppelin/contracts/access/Ownable.sol\":1248:1271  owner() == _msgSender() */\n      0xffffffffffffffffffffffffffffffffffffffff\n      and\n        /* \"@openzeppelin/contracts/access/Ownable.sol\":1248:1255  owner() */\n      tag_113\n        /* \"@openzeppelin/contracts/access/Ownable.sol\":1248:1253  owner */\n      tag_50\n        /* \"@openzeppelin/contracts/access/Ownable.sol\":1248:1255  owner() */\n      jump\t// in\n    tag_113:\n        /* \"@openzeppelin/contracts/access/Ownable.sol\":1248:1271  owner() == _msgSender() */\n      0xffffffffffffffffffffffffffffffffffffffff\n      and\n      eq\n        /* \"@openzeppelin/contracts/access/Ownable.sol\":1240:1308  require(owner() == _msgSender(), \"Ownable: caller is not the owner\") */\n      tag_114\n      jumpi\n      mload(0x40)\n      0x08c379a000000000000000000000000000000000000000000000000000000000\n      dup2\n      mstore\n      0x04\n      add\n      tag_115\n      swap1\n      tag_99\n      jump\t// in\n    tag_115:\n      mload(0x40)\n      dup1\n      swap2\n      sub\n      swap1\n      revert\n    tag_114:\n        /* \"facets/CommunicationFacet.sol\":1491:1535  function settleVibes() external onlyOwner {} */\n      jump\t// out\n        /* \"@openzeppelin/contracts/access/Ownable.sol\":1036:1121  function owner() public view virtual returns (address) {... */\n    tag_50:\n        /* \"@openzeppelin/contracts/access/Ownable.sol\":1082:1089  address */\n      0x00\n        /* \"@openzeppelin/contracts/access/Ownable.sol\":1108:1114  _owner */\n      dup1\n      0x00\n      swap1\n      sload\n      swap1\n      0x0100\n      exp\n      swap1\n      div\n      0xffffffffffffffffffffffffffffffffffffffff\n      and\n        /* \"@openzeppelin/contracts/access/Ownable.sol\":1101:1114  return _owner */\n      swap1\n      pop\n        /* \"@openzeppelin/contracts/access/Ownable.sol\":1036:1121  function owner() public view virtual returns (address) {... */\n      swap1\n      jump\t// out\n        /* \"facets/CommunicationFacet.sol\":1118:1225  function downVoteVibe(string memory someParam, string memory _listId) has_credential(_listId) external {... */\n    tag_56:\n        /* \"facets/CommunicationFacet.sol\":1203:1210  _listId */\n      dup1\n        /* \"facets/GateableFacet.sol\":377:393  CREDENTIAL_EVENT */\n      0x02\n      0x00\n      swap1\n      sload\n      swap1\n      0x0100\n      exp\n      swap1\n      div\n      0xffffffffffffffffffffffffffffffffffffffff\n      and\n        /* \"facets/GateableFacet.sol\":377:403  CREDENTIAL_EVENT.emitEvent */\n      0xffffffffffffffffffffffffffffffffffffffff\n      and\n      0x1a971c1b\n        /* \"facets/GateableFacet.sol\":404:411  list_id */\n      dup3\n        /* \"facets/GateableFacet.sol\":413:423  msg.sender */\n      caller\n        /* \"facets/GateableFacet.sol\":425:433  msg.data */\n      0x00\n      calldatasize\n        /* \"facets/GateableFacet.sol\":377:434  CREDENTIAL_EVENT.emitEvent(list_id, msg.sender, msg.data) */\n      mload(0x40)\n      dup6\n      0xffffffff\n      and\n      0xe0\n      shl\n      dup2\n      mstore\n      0x04\n      add\n      tag_119\n      swap5\n      swap4\n      swap3\n      swap2\n      swap1\n      tag_120\n      jump\t// in\n    tag_119:\n      0x00\n      mload(0x40)\n      dup1\n      dup4\n      sub\n      dup2\n      0x00\n      dup8\n      dup1\n      extcodesize\n      iszero\n      dup1\n      iszero\n      tag_121\n      jumpi\n      0x00\n      dup1\n      revert\n    tag_121:\n      pop\n      gas\n      call\n      iszero\n      dup1\n      iszero\n      tag_123\n      jumpi\n      returndatasize\n      0x00\n      dup1\n      returndatacopy\n      revert(0x00, returndatasize)\n    tag_123:\n      pop\n      pop\n      pop\n      pop\n        /* \"facets/CommunicationFacet.sol\":1118:1225  function downVoteVibe(string memory someParam, string memory _listId) has_credential(_listId) external {... */\n      pop\n      pop\n      pop\n      jump\t// out\n        /* \"facets/CommunicationFacet.sol\":858:994  function upVoteVibe_authorised(string memory someParam, bytes[] memory proof) credentialCallback external {... */\n    tag_59:\n        /* \"facets/GateableFacet.sol\":665:682  CREDENTIAL_ORACLE */\n      0x01\n      0x00\n      swap1\n      sload\n      swap1\n      0x0100\n      exp\n      swap1\n      div\n      0xffffffffffffffffffffffffffffffffffffffff\n      and\n        /* \"facets/GateableFacet.sol\":651:682  msg.sender == CREDENTIAL_ORACLE */\n      0xffffffffffffffffffffffffffffffffffffffff\n      and\n        /* \"facets/GateableFacet.sol\":651:661  msg.sender */\n      caller\n        /* \"facets/GateableFacet.sol\":651:682  msg.sender == CREDENTIAL_ORACLE */\n      0xffffffffffffffffffffffffffffffffffffffff\n      and\n      eq\n        /* \"facets/GateableFacet.sol\":643:746  require(msg.sender == CREDENTIAL_ORACLE, \"Credential CallBack: Only the oracle can call this function\") */\n      tag_126\n      jumpi\n      mload(0x40)\n      0x08c379a000000000000000000000000000000000000000000000000000000000\n      dup2\n      mstore\n      0x04\n      add\n      tag_127\n      swap1\n      tag_87\n      jump\t// in\n    tag_127:\n      mload(0x40)\n      dup1\n      swap2\n      sub\n      swap1\n      revert\n    tag_126:\n        /* \"facets/CommunicationFacet.sol\":858:994  function upVoteVibe_authorised(string memory someParam, bytes[] memory proof) credentialCallback external {... */\n      pop\n      pop\n      jump\t// out\n        /* \"facets/CommunicationFacet.sol\":371:493  function postVibe(string memory someParam, string memory _listId) has_credential(_listId) external {... */\n    tag_62:\n        /* \"facets/CommunicationFacet.sol\":452:459  _listId */\n      dup1\n        /* \"facets/GateableFacet.sol\":377:393  CREDENTIAL_EVENT */\n      0x02\n      0x00\n      swap1\n      sload\n      swap1\n      0x0100\n      exp\n      swap1\n      div\n      0xffffffffffffffffffffffffffffffffffffffff\n      and\n        /* \"facets/GateableFacet.sol\":377:403  CREDENTIAL_EVENT.emitEvent */\n      0xffffffffffffffffffffffffffffffffffffffff\n      and\n      0x1a971c1b\n        /* \"facets/GateableFacet.sol\":404:411  list_id */\n      dup3\n        /* \"facets/GateableFacet.sol\":413:423  msg.sender */\n      caller\n        /* \"facets/GateableFacet.sol\":425:433  msg.data */\n      0x00\n      calldatasize\n        /* \"facets/GateableFacet.sol\":377:434  CREDENTIAL_EVENT.emitEvent(list_id, msg.sender, msg.data) */\n      mload(0x40)\n      dup6\n      0xffffffff\n      and\n      0xe0\n      shl\n      dup2\n      mstore\n      0x04\n      add\n      tag_130\n      swap5\n      swap4\n      swap3\n      swap2\n      swap1\n      tag_120\n      jump\t// in\n    tag_130:\n      0x00\n      mload(0x40)\n      dup1\n      dup4\n      sub\n      dup2\n      0x00\n      dup8\n      dup1\n      extcodesize\n      iszero\n      dup1\n      iszero\n      tag_131\n      jumpi\n      0x00\n      dup1\n      revert\n    tag_131:\n      pop\n      gas\n      call\n      iszero\n      dup1\n      iszero\n      tag_133\n      jumpi\n      returndatasize\n      0x00\n      dup1\n      returndatacopy\n      revert(0x00, returndatasize)\n    tag_133:\n      pop\n      pop\n      pop\n      pop\n        /* \"facets/CommunicationFacet.sol\":481:490  someParam */\n      dup3\n        /* \"facets/CommunicationFacet.sol\":474:478  name */\n      0x03\n        /* \"facets/CommunicationFacet.sol\":474:490  name = someParam */\n      swap1\n      dup1\n      mload\n      swap1\n      0x20\n      add\n      swap1\n      tag_135\n      swap3\n      swap2\n      swap1\n      tag_136\n      jump\t// in\n    tag_135:\n      pop\n        /* \"facets/CommunicationFacet.sol\":371:493  function postVibe(string memory someParam, string memory _listId) has_credential(_listId) external {... */\n      pop\n      pop\n      pop\n      jump\t// out\n        /* \"facets/CommunicationFacet.sol\":751:856  function upVoteVibe(string memory someParam, string memory _listId) has_credential(_listId) external {... */\n    tag_65:\n        /* \"facets/CommunicationFacet.sol\":834:841  _listId */\n      dup1\n        /* \"facets/GateableFacet.sol\":377:393  CREDENTIAL_EVENT */\n      0x02\n      0x00\n      swap1\n      sload\n      swap1\n      0x0100\n      exp\n      swap1\n      div\n      0xffffffffffffffffffffffffffffffffffffffff\n      and\n        /* \"facets/GateableFacet.sol\":377:403  CREDENTIAL_EVENT.emitEvent */\n      0xffffffffffffffffffffffffffffffffffffffff\n      and\n      0x1a971c1b\n        /* \"facets/GateableFacet.sol\":404:411  list_id */\n      dup3\n        /* \"facets/GateableFacet.sol\":413:423  msg.sender */\n      caller\n        /* \"facets/GateableFacet.sol\":425:433  msg.data */\n      0x00\n      calldatasize\n        /* \"facets/GateableFacet.sol\":377:434  CREDENTIAL_EVENT.emitEvent(list_id, msg.sender, msg.data) */\n      mload(0x40)\n      dup6\n      0xffffffff\n      and\n      0xe0\n      shl\n      dup2\n      mstore\n      0x04\n      add\n      tag_138\n      swap5\n      swap4\n      swap3\n      swap2\n      swap1\n      tag_120\n      jump\t// in\n    tag_138:\n      0x00\n      mload(0x40)\n      dup1\n      dup4\n      sub\n      dup2\n      0x00\n      dup8\n      dup1\n      extcodesize\n      iszero\n      dup1\n      iszero\n      tag_139\n      jumpi\n      0x00\n      dup1\n      revert\n    tag_139:\n      pop\n      gas\n      call\n      iszero\n      dup1\n      iszero\n      tag_141\n      jumpi\n      returndatasize\n      0x00\n      dup1\n      returndatacopy\n      revert(0x00, returndatasize)\n    tag_141:\n      pop\n      pop\n      pop\n      pop\n        /* \"facets/CommunicationFacet.sol\":751:856  function upVoteVibe(string memory someParam, string memory _listId) has_credential(_listId) external {... */\n      pop\n      pop\n      pop\n      jump\t// out\n        /* \"facets/CommunicationFacet.sol\":1537:1573  function setUpVibePool() external {} */\n    tag_67:\n      jump\t// out\n        /* \"facets/CommunicationFacet.sol\":294:368  function setInboxPriceForCredential(string memory someParam) external {... */\n    tag_70:\n      pop\n      jump\t// out\n        /* \"facets/CommunicationFacet.sol\":495:629  function postVibe_authorised(string memory someParam, bytes[] memory proof) credentialCallback external {... */\n    tag_73:\n        /* \"facets/GateableFacet.sol\":665:682  CREDENTIAL_ORACLE */\n      0x01\n      0x00\n      swap1\n      sload\n      swap1\n      0x0100\n      exp\n      swap1\n      div\n      0xffffffffffffffffffffffffffffffffffffffff\n      and\n        /* \"facets/GateableFacet.sol\":651:682  msg.sender == CREDENTIAL_ORACLE */\n      0xffffffffffffffffffffffffffffffffffffffff\n      and\n        /* \"facets/GateableFacet.sol\":651:661  msg.sender */\n      caller\n        /* \"facets/GateableFacet.sol\":651:682  msg.sender == CREDENTIAL_ORACLE */\n      0xffffffffffffffffffffffffffffffffffffffff\n      and\n      eq\n        /* \"facets/GateableFacet.sol\":643:746  require(msg.sender == CREDENTIAL_ORACLE, \"Credential CallBack: Only the oracle can call this function\") */\n      tag_146\n      jumpi\n      mload(0x40)\n      0x08c379a000000000000000000000000000000000000000000000000000000000\n      dup2\n      mstore\n      0x04\n      add\n      tag_147\n      swap1\n      tag_87\n      jump\t// in\n    tag_147:\n      mload(0x40)\n      dup1\n      swap2\n      sub\n      swap1\n      revert\n    tag_146:\n        /* \"facets/CommunicationFacet.sol\":495:629  function postVibe_authorised(string memory someParam, bytes[] memory proof) credentialCallback external {... */\n      pop\n      pop\n      jump\t// out\n        /* \"@openzeppelin/contracts/access/Ownable.sol\":1918:2116  function transferOwnership(address newOwner) public virtual onlyOwner {... */\n    tag_77:\n        /* \"@openzeppelin/contracts/access/Ownable.sol\":1259:1271  _msgSender() */\n      tag_150\n        /* \"@openzeppelin/contracts/access/Ownable.sol\":1259:1269  _msgSender */\n      tag_95\n        /* \"@openzeppelin/contracts/access/Ownable.sol\":1259:1271  _msgSender() */\n      jump\t// in\n    tag_150:\n        /* \"@openzeppelin/contracts/access/Ownable.sol\":1248:1271  owner() == _msgSender() */\n      0xffffffffffffffffffffffffffffffffffffffff\n      and\n        /* \"@openzeppelin/contracts/access/Ownable.sol\":1248:1255  owner() */\n      tag_151\n        /* \"@openzeppelin/contracts/access/Ownable.sol\":1248:1253  owner */\n      tag_50\n        /* \"@openzeppelin/contracts/access/Ownable.sol\":1248:1255  owner() */\n      jump\t// in\n    tag_151:\n        /* \"@openzeppelin/contracts/access/Ownable.sol\":1248:1271  owner() == _msgSender() */\n      0xffffffffffffffffffffffffffffffffffffffff\n      and\n      eq\n        /* \"@openzeppelin/contracts/access/Ownable.sol\":1240:1308  require(owner() == _msgSender(), \"Ownable: caller is not the owner\") */\n      tag_152\n      jumpi\n      mload(0x40)\n      0x08c379a000000000000000000000000000000000000000000000000000000000\n      dup2\n      mstore\n      0x04\n      add\n      tag_153\n      swap1\n      tag_99\n      jump\t// in\n    tag_153:\n      mload(0x40)\n      dup1\n      swap2\n      sub\n      swap1\n      revert\n    tag_152:\n        /* \"@openzeppelin/contracts/access/Ownable.sol\":2026:2027  0 */\n      0x00\n        /* \"@openzeppelin/contracts/access/Ownable.sol\":2006:2028  newOwner != address(0) */\n      0xffffffffffffffffffffffffffffffffffffffff\n      and\n        /* \"@openzeppelin/contracts/access/Ownable.sol\":2006:2014  newOwner */\n      dup2\n        /* \"@openzeppelin/contracts/access/Ownable.sol\":2006:2028  newOwner != address(0) */\n      0xffffffffffffffffffffffffffffffffffffffff\n      and\n      eq\n      iszero\n        /* \"@openzeppelin/contracts/access/Ownable.sol\":1998:2071  require(newOwner != address(0), \"Ownable: new owner is the zero address\") */\n      tag_155\n      jumpi\n      mload(0x40)\n      0x08c379a000000000000000000000000000000000000000000000000000000000\n      dup2\n      mstore\n      0x04\n      add\n      tag_156\n      swap1\n      tag_157\n      jump\t// in\n    tag_156:\n      mload(0x40)\n      dup1\n      swap2\n      sub\n      swap1\n      revert\n    tag_155:\n        /* \"@openzeppelin/contracts/access/Ownable.sol\":2081:2109  _transferOwnership(newOwner) */\n      tag_158\n        /* \"@openzeppelin/contracts/access/Ownable.sol\":2100:2108  newOwner */\n      dup2\n        /* \"@openzeppelin/contracts/access/Ownable.sol\":2081:2099  _transferOwnership */\n      tag_102\n        /* \"@openzeppelin/contracts/access/Ownable.sol\":2081:2109  _transferOwnership(newOwner) */\n      jump\t// in\n    tag_158:\n        /* \"@openzeppelin/contracts/access/Ownable.sol\":1918:2116  function transferOwnership(address newOwner) public virtual onlyOwner {... */\n      pop\n      jump\t// out\n        /* \"@openzeppelin/contracts/utils/Context.sol\":640:736  function _msgSender() internal view virtual returns (address) {... */\n    tag_95:\n        /* \"@openzeppelin/contracts/utils/Context.sol\":693:700  address */\n      0x00\n        /* \"@openzeppelin/contracts/utils/Context.sol\":719:729  msg.sender */\n      caller\n        /* \"@openzeppelin/contracts/utils/Context.sol\":712:729  return msg.sender */\n      swap1\n      pop\n        /* \"@openzeppelin/contracts/utils/Context.sol\":640:736  function _msgSender() internal view virtual returns (address) {... */\n      swap1\n      jump\t// out\n        /* \"@openzeppelin/contracts/access/Ownable.sol\":2270:2457  function _transferOwnership(address newOwner) internal virtual {... */\n    tag_102:\n        /* \"@openzeppelin/contracts/access/Ownable.sol\":2343:2359  address oldOwner */\n      0x00\n        /* \"@openzeppelin/contracts/access/Ownable.sol\":2362:2368  _owner */\n      dup1\n      0x00\n      swap1\n      sload\n      swap1\n      0x0100\n      exp\n      swap1\n      div\n      0xffffffffffffffffffffffffffffffffffffffff\n      and\n        /* \"@openzeppelin/contracts/access/Ownable.sol\":2343:2368  address oldOwner = _owner */\n      swap1\n      pop\n        /* \"@openzeppelin/contracts/access/Ownable.sol\":2387:2395  newOwner */\n      dup2\n        /* \"@openzeppelin/contracts/access/Ownable.sol\":2378:2384  _owner */\n      0x00\n      dup1\n        /* \"@openzeppelin/contracts/access/Ownable.sol\":2378:2395  _owner = newOwner */\n      0x0100\n      exp\n      dup2\n      sload\n      dup2\n      0xffffffffffffffffffffffffffffffffffffffff\n      mul\n      not\n      and\n      swap1\n      dup4\n      0xffffffffffffffffffffffffffffffffffffffff\n      and\n      mul\n      or\n      swap1\n      sstore\n      pop\n        /* \"@openzeppelin/contracts/access/Ownable.sol\":2441:2449  newOwner */\n      dup2\n        /* \"@openzeppelin/contracts/access/Ownable.sol\":2410:2450  OwnershipTransferred(oldOwner, newOwner) */\n      0xffffffffffffffffffffffffffffffffffffffff\n      and\n        /* \"@openzeppelin/contracts/access/Ownable.sol\":2431:2439  oldOwner */\n      dup2\n        /* \"@openzeppelin/contracts/access/Ownable.sol\":2410:2450  OwnershipTransferred(oldOwner, newOwner) */\n      0xffffffffffffffffffffffffffffffffffffffff\n      and\n      0x8be0079c531659141344cd1fd0a4f28419497f9722a3daafe3b4186f6b6457e0\n      mload(0x40)\n      mload(0x40)\n      dup1\n      swap2\n      sub\n      swap1\n      log3\n        /* \"@openzeppelin/contracts/access/Ownable.sol\":2333:2457  {... */\n      pop\n        /* \"@openzeppelin/contracts/access/Ownable.sol\":2270:2457  function _transferOwnership(address newOwner) internal virtual {... */\n      pop\n      jump\t// out\n    tag_136:\n      dup3\n      dup1\n      sload\n      tag_161\n      swap1\n      tag_79\n      jump\t// in\n    tag_161:\n      swap1\n      0x00\n      mstore\n      keccak256(0x00, 0x20)\n      swap1\n      0x1f\n      add\n      0x20\n      swap1\n      div\n      dup2\n      add\n      swap3\n      dup3\n      tag_163\n      jumpi\n      0x00\n      dup6\n      sstore\n      jump(tag_162)\n    tag_163:\n      dup3\n      0x1f\n      lt\n      tag_164\n      jumpi\n      dup1\n      mload\n      not(0xff)\n      and\n      dup4\n      dup1\n      add\n      or\n      dup6\n      sstore\n      jump(tag_162)\n    tag_164:\n      dup3\n      dup1\n      add\n      0x01\n      add\n      dup6\n      sstore\n      dup3\n      iszero\n      tag_162\n      jumpi\n      swap2\n      dup3\n      add\n    tag_165:\n      dup3\n      dup2\n      gt\n      iszero\n      tag_166\n      jumpi\n      dup3\n      mload\n      dup3\n      sstore\n      swap2\n      0x20\n      add\n      swap2\n      swap1\n      0x01\n      add\n      swap1\n      jump(tag_165)\n    tag_166:\n    tag_162:\n      pop\n      swap1\n      pop\n      tag_167\n      swap2\n      swap1\n      tag_168\n      jump\t// in\n    tag_167:\n      pop\n      swap1\n      jump\t// out\n    tag_168:\n    tag_169:\n      dup1\n      dup3\n      gt\n      iszero\n      tag_170\n      jumpi\n      0x00\n      dup2\n      0x00\n      swap1\n      sstore\n      pop\n      0x01\n      add\n      jump(tag_169)\n    tag_170:\n      pop\n      swap1\n      jump\t// out\n        /* \"#utility.yul\":22:976   */\n    tag_172:\n        /* \"#utility.yul\":127:132   */\n      0x00\n        /* \"#utility.yul\":152:242   */\n      tag_174\n        /* \"#utility.yul\":168:241   */\n      tag_175\n        /* \"#utility.yul\":234:240   */\n      dup5\n        /* \"#utility.yul\":168:241   */\n      tag_176\n      jump\t// in\n    tag_175:\n        /* \"#utility.yul\":152:242   */\n      tag_177\n      jump\t// in\n    tag_174:\n        /* \"#utility.yul\":143:242   */\n      swap1\n      pop\n        /* \"#utility.yul\":262:267   */\n      dup1\n        /* \"#utility.yul\":291:297   */\n      dup4\n        /* \"#utility.yul\":284:289   */\n      dup3\n        /* \"#utility.yul\":277:298   */\n      mstore\n        /* \"#utility.yul\":325:329   */\n      0x20\n        /* \"#utility.yul\":318:323   */\n      dup3\n        /* \"#utility.yul\":314:330   */\n      add\n        /* \"#utility.yul\":307:330   */\n      swap1\n      pop\n        /* \"#utility.yul\":351:357   */\n      dup3\n        /* \"#utility.yul\":401:404   */\n      dup6\n        /* \"#utility.yul\":393:397   */\n      0x20\n        /* \"#utility.yul\":385:391   */\n      dup7\n        /* \"#utility.yul\":381:398   */\n      mul\n        /* \"#utility.yul\":376:379   */\n      dup3\n        /* \"#utility.yul\":372:399   */\n      add\n        /* \"#utility.yul\":369:405   */\n      gt\n        /* \"#utility.yul\":366:509   */\n      iszero\n      tag_178\n      jumpi\n        /* \"#utility.yul\":420:499   */\n      tag_179\n      tag_180\n      jump\t// in\n    tag_179:\n        /* \"#utility.yul\":366:509   */\n    tag_178:\n        /* \"#utility.yul\":533:534   */\n      0x00\n        /* \"#utility.yul\":518:970   */\n    tag_181:\n        /* \"#utility.yul\":543:549   */\n      dup6\n        /* \"#utility.yul\":540:541   */\n      dup2\n        /* \"#utility.yul\":537:550   */\n      lt\n        /* \"#utility.yul\":518:970   */\n      iszero\n      tag_183\n      jumpi\n        /* \"#utility.yul\":625:628   */\n      dup2\n        /* \"#utility.yul\":612:629   */\n      calldataload\n        /* \"#utility.yul\":661:679   */\n      0xffffffffffffffff\n        /* \"#utility.yul\":648:659   */\n      dup2\n        /* \"#utility.yul\":645:680   */\n      gt\n        /* \"#utility.yul\":642:764   */\n      iszero\n      tag_184\n      jumpi\n        /* \"#utility.yul\":683:762   */\n      tag_185\n      tag_186\n      jump\t// in\n    tag_185:\n        /* \"#utility.yul\":642:764   */\n    tag_184:\n        /* \"#utility.yul\":807:818   */\n      dup1\n        /* \"#utility.yul\":799:805   */\n      dup7\n        /* \"#utility.yul\":795:819   */\n      add\n        /* \"#utility.yul\":845:891   */\n      tag_187\n        /* \"#utility.yul\":887:890   */\n      dup10\n        /* \"#utility.yul\":875:885   */\n      dup3\n        /* \"#utility.yul\":845:891   */\n      tag_188\n      jump\t// in\n    tag_187:\n        /* \"#utility.yul\":840:843   */\n      dup6\n        /* \"#utility.yul\":833:892   */\n      mstore\n        /* \"#utility.yul\":921:925   */\n      0x20\n        /* \"#utility.yul\":916:919   */\n      dup6\n        /* \"#utility.yul\":912:926   */\n      add\n        /* \"#utility.yul\":905:926   */\n      swap5\n      pop\n        /* \"#utility.yul\":955:959   */\n      0x20\n        /* \"#utility.yul\":950:953   */\n      dup5\n        /* \"#utility.yul\":946:960   */\n      add\n        /* \"#utility.yul\":939:960   */\n      swap4\n      pop\n        /* \"#utility.yul\":578:970   */\n      pop\n      pop\n        /* \"#utility.yul\":565:566   */\n      0x01\n        /* \"#utility.yul\":562:563   */\n      dup2\n        /* \"#utility.yul\":558:567   */\n      add\n        /* \"#utility.yul\":553:567   */\n      swap1\n      pop\n        /* \"#utility.yul\":518:970   */\n      jump(tag_181)\n    tag_183:\n        /* \"#utility.yul\":522:536   */\n      pop\n        /* \"#utility.yul\":133:976   */\n      pop\n      pop\n        /* \"#utility.yul\":22:976   */\n      swap4\n      swap3\n      pop\n      pop\n      pop\n      jump\t// out\n        /* \"#utility.yul\":982:1392   */\n    tag_189:\n        /* \"#utility.yul\":1059:1064   */\n      0x00\n        /* \"#utility.yul\":1084:1149   */\n      tag_191\n        /* \"#utility.yul\":1100:1148   */\n      tag_192\n        /* \"#utility.yul\":1141:1147   */\n      dup5\n        /* \"#utility.yul\":1100:1148   */\n      tag_193\n      jump\t// in\n    tag_192:\n        /* \"#utility.yul\":1084:1149   */\n      tag_177\n      jump\t// in\n    tag_191:\n        /* \"#utility.yul\":1075:1149   */\n      swap1\n      pop\n        /* \"#utility.yul\":1172:1178   */\n      dup3\n        /* \"#utility.yul\":1165:1170   */\n      dup2\n        /* \"#utility.yul\":1158:1179   */\n      mstore\n        /* \"#utility.yul\":1210:1214   */\n      0x20\n        /* \"#utility.yul\":1203:1208   */\n      dup2\n        /* \"#utility.yul\":1199:1215   */\n      add\n        /* \"#utility.yul\":1248:1251   */\n      dup5\n        /* \"#utility.yul\":1239:1245   */\n      dup5\n        /* \"#utility.yul\":1234:1237   */\n      dup5\n        /* \"#utility.yul\":1230:1246   */\n      add\n        /* \"#utility.yul\":1227:1252   */\n      gt\n        /* \"#utility.yul\":1224:1336   */\n      iszero\n      tag_194\n      jumpi\n        /* \"#utility.yul\":1255:1334   */\n      tag_195\n      tag_196\n      jump\t// in\n    tag_195:\n        /* \"#utility.yul\":1224:1336   */\n    tag_194:\n        /* \"#utility.yul\":1345:1386   */\n      tag_197\n        /* \"#utility.yul\":1379:1385   */\n      dup5\n        /* \"#utility.yul\":1374:1377   */\n      dup3\n        /* \"#utility.yul\":1369:1372   */\n      dup6\n        /* \"#utility.yul\":1345:1386   */\n      tag_198\n      jump\t// in\n    tag_197:\n        /* \"#utility.yul\":1065:1392   */\n      pop\n        /* \"#utility.yul\":982:1392   */\n      swap4\n      swap3\n      pop\n      pop\n      pop\n      jump\t// out\n        /* \"#utility.yul\":1398:1810   */\n    tag_199:\n        /* \"#utility.yul\":1476:1481   */\n      0x00\n        /* \"#utility.yul\":1501:1567   */\n      tag_201\n        /* \"#utility.yul\":1517:1566   */\n      tag_202\n        /* \"#utility.yul\":1559:1565   */\n      dup5\n        /* \"#utility.yul\":1517:1566   */\n      tag_203\n      jump\t// in\n    tag_202:\n        /* \"#utility.yul\":1501:1567   */\n      tag_177\n      jump\t// in\n    tag_201:\n        /* \"#utility.yul\":1492:1567   */\n      swap1\n      pop\n        /* \"#utility.yul\":1590:1596   */\n      dup3\n        /* \"#utility.yul\":1583:1588   */\n      dup2\n        /* \"#utility.yul\":1576:1597   */\n      mstore\n        /* \"#utility.yul\":1628:1632   */\n      0x20\n        /* \"#utility.yul\":1621:1626   */\n      dup2\n        /* \"#utility.yul\":1617:1633   */\n      add\n        /* \"#utility.yul\":1666:1669   */\n      dup5\n        /* \"#utility.yul\":1657:1663   */\n      dup5\n        /* \"#utility.yul\":1652:1655   */\n      dup5\n        /* \"#utility.yul\":1648:1664   */\n      add\n        /* \"#utility.yul\":1645:1670   */\n      gt\n        /* \"#utility.yul\":1642:1754   */\n      iszero\n      tag_204\n      jumpi\n        /* \"#utility.yul\":1673:1752   */\n      tag_205\n      tag_196\n      jump\t// in\n    tag_205:\n        /* \"#utility.yul\":1642:1754   */\n    tag_204:\n        /* \"#utility.yul\":1763:1804   */\n      tag_206\n        /* \"#utility.yul\":1797:1803   */\n      dup5\n        /* \"#utility.yul\":1792:1795   */\n      dup3\n        /* \"#utility.yul\":1787:1790   */\n      dup6\n        /* \"#utility.yul\":1763:1804   */\n      tag_198\n      jump\t// in\n    tag_206:\n        /* \"#utility.yul\":1482:1810   */\n      pop\n        /* \"#utility.yul\":1398:1810   */\n      swap4\n      swap3\n      pop\n      pop\n      pop\n      jump\t// out\n        /* \"#utility.yul\":1816:1955   */\n    tag_207:\n        /* \"#utility.yul\":1862:1867   */\n      0x00\n        /* \"#utility.yul\":1900:1906   */\n      dup2\n        /* \"#utility.yul\":1887:1907   */\n      calldataload\n        /* \"#utility.yul\":1878:1907   */\n      swap1\n      pop\n        /* \"#utility.yul\":1916:1949   */\n      tag_209\n        /* \"#utility.yul\":1943:1948   */\n      dup2\n        /* \"#utility.yul\":1916:1949   */\n      tag_210\n      jump\t// in\n    tag_209:\n        /* \"#utility.yul\":1816:1955   */\n      swap3\n      swap2\n      pop\n      pop\n      jump\t// out\n        /* \"#utility.yul\":1976:2364   */\n    tag_211:\n        /* \"#utility.yul\":2056:2061   */\n      0x00\n        /* \"#utility.yul\":2105:2108   */\n      dup3\n        /* \"#utility.yul\":2098:2102   */\n      0x1f\n        /* \"#utility.yul\":2090:2096   */\n      dup4\n        /* \"#utility.yul\":2086:2103   */\n      add\n        /* \"#utility.yul\":2082:2109   */\n      slt\n        /* \"#utility.yul\":2072:2194   */\n      tag_213\n      jumpi\n        /* \"#utility.yul\":2113:2192   */\n      tag_214\n      tag_186\n      jump\t// in\n    tag_214:\n        /* \"#utility.yul\":2072:2194   */\n    tag_213:\n        /* \"#utility.yul\":2230:2236   */\n      dup2\n        /* \"#utility.yul\":2217:2237   */\n      calldataload\n        /* \"#utility.yul\":2255:2358   */\n      tag_215\n        /* \"#utility.yul\":2354:2357   */\n      dup5\n        /* \"#utility.yul\":2346:2352   */\n      dup3\n        /* \"#utility.yul\":2339:2343   */\n      0x20\n        /* \"#utility.yul\":2331:2337   */\n      dup7\n        /* \"#utility.yul\":2327:2344   */\n      add\n        /* \"#utility.yul\":2255:2358   */\n      tag_172\n      jump\t// in\n    tag_215:\n        /* \"#utility.yul\":2246:2358   */\n      swap2\n      pop\n        /* \"#utility.yul\":2062:2364   */\n      pop\n        /* \"#utility.yul\":1976:2364   */\n      swap3\n      swap2\n      pop\n      pop\n      jump\t// out\n        /* \"#utility.yul\":2383:2721   */\n    tag_188:\n        /* \"#utility.yul\":2438:2443   */\n      0x00\n        /* \"#utility.yul\":2487:2490   */\n      dup3\n        /* \"#utility.yul\":2480:2484   */\n      0x1f\n        /* \"#utility.yul\":2472:2478   */\n      dup4\n        /* \"#utility.yul\":2468:2485   */\n      add\n        /* \"#utility.yul\":2464:2491   */\n      slt\n        /* \"#utility.yul\":2454:2576   */\n      tag_217\n      jumpi\n        /* \"#utility.yul\":2495:2574   */\n      tag_218\n      tag_186\n      jump\t// in\n    tag_218:\n        /* \"#utility.yul\":2454:2576   */\n    tag_217:\n        /* \"#utility.yul\":2612:2618   */\n      dup2\n        /* \"#utility.yul\":2599:2619   */\n      calldataload\n        /* \"#utility.yul\":2637:2715   */\n      tag_219\n        /* \"#utility.yul\":2711:2714   */\n      dup5\n        /* \"#utility.yul\":2703:2709   */\n      dup3\n        /* \"#utility.yul\":2696:2700   */\n      0x20\n        /* \"#utility.yul\":2688:2694   */\n      dup7\n        /* \"#utility.yul\":2684:2701   */\n      add\n        /* \"#utility.yul\":2637:2715   */\n      tag_189\n      jump\t// in\n    tag_219:\n        /* \"#utility.yul\":2628:2715   */\n      swap2\n      pop\n        /* \"#utility.yul\":2444:2721   */\n      pop\n        /* \"#utility.yul\":2383:2721   */\n      swap3\n      swap2\n      pop\n      pop\n      jump\t// out\n        /* \"#utility.yul\":2741:3081   */\n    tag_220:\n        /* \"#utility.yul\":2797:2802   */\n      0x00\n        /* \"#utility.yul\":2846:2849   */\n      dup3\n        /* \"#utility.yul\":2839:2843   */\n      0x1f\n        /* \"#utility.yul\":2831:2837   */\n      dup4\n        /* \"#utility.yul\":2827:2844   */\n      add\n        /* \"#utility.yul\":2823:2850   */\n      slt\n        /* \"#utility.yul\":2813:2935   */\n      tag_222\n      jumpi\n        /* \"#utility.yul\":2854:2933   */\n      tag_223\n      tag_186\n      jump\t// in\n    tag_223:\n        /* \"#utility.yul\":2813:2935   */\n    tag_222:\n        /* \"#utility.yul\":2971:2977   */\n      dup2\n        /* \"#utility.yul\":2958:2978   */\n      calldataload\n        /* \"#utility.yul\":2996:3075   */\n      tag_224\n        /* \"#utility.yul\":3071:3074   */\n      dup5\n        /* \"#utility.yul\":3063:3069   */\n      dup3\n        /* \"#utility.yul\":3056:3060   */\n      0x20\n        /* \"#utility.yul\":3048:3054   */\n      dup7\n        /* \"#utility.yul\":3044:3061   */\n      add\n        /* \"#utility.yul\":2996:3075   */\n      tag_199\n      jump\t// in\n    tag_224:\n        /* \"#utility.yul\":2987:3075   */\n      swap2\n      pop\n        /* \"#utility.yul\":2803:3081   */\n      pop\n        /* \"#utility.yul\":2741:3081   */\n      swap3\n      swap2\n      pop\n      pop\n      jump\t// out\n        /* \"#utility.yul\":3087:3416   */\n    tag_76:\n        /* \"#utility.yul\":3146:3152   */\n      0x00\n        /* \"#utility.yul\":3195:3197   */\n      0x20\n        /* \"#utility.yul\":3183:3192   */\n      dup3\n        /* \"#utility.yul\":3174:3181   */\n      dup5\n        /* \"#utility.yul\":3170:3193   */\n      sub\n        /* \"#utility.yul\":3166:3198   */\n      slt\n        /* \"#utility.yul\":3163:3282   */\n      iszero\n      tag_226\n      jumpi\n        /* \"#utility.yul\":3201:3280   */\n      tag_227\n      tag_228\n      jump\t// in\n    tag_227:\n        /* \"#utility.yul\":3163:3282   */\n    tag_226:\n        /* \"#utility.yul\":3321:3322   */\n      0x00\n        /* \"#utility.yul\":3346:3399   */\n      tag_229\n        /* \"#utility.yul\":3391:3398   */\n      dup5\n        /* \"#utility.yul\":3382:3388   */\n      dup3\n        /* \"#utility.yul\":3371:3380   */\n      dup6\n        /* \"#utility.yul\":3367:3389   */\n      add\n        /* \"#utility.yul\":3346:3399   */\n      tag_207\n      jump\t// in\n    tag_229:\n        /* \"#utility.yul\":3336:3399   */\n      swap2\n      pop\n        /* \"#utility.yul\":3292:3409   */\n      pop\n        /* \"#utility.yul\":3087:3416   */\n      swap3\n      swap2\n      pop\n      pop\n      jump\t// out\n        /* \"#utility.yul\":3422:3931   */\n    tag_33:\n        /* \"#utility.yul\":3491:3497   */\n      0x00\n        /* \"#utility.yul\":3540:3542   */\n      0x20\n        /* \"#utility.yul\":3528:3537   */\n      dup3\n        /* \"#utility.yul\":3519:3526   */\n      dup5\n        /* \"#utility.yul\":3515:3538   */\n      sub\n        /* \"#utility.yul\":3511:3543   */\n      slt\n        /* \"#utility.yul\":3508:3627   */\n      iszero\n      tag_231\n      jumpi\n        /* \"#utility.yul\":3546:3625   */\n      tag_232\n      tag_228\n      jump\t// in\n    tag_232:\n        /* \"#utility.yul\":3508:3627   */\n    tag_231:\n        /* \"#utility.yul\":3694:3695   */\n      0x00\n        /* \"#utility.yul\":3683:3692   */\n      dup3\n        /* \"#utility.yul\":3679:3696   */\n      add\n        /* \"#utility.yul\":3666:3697   */\n      calldataload\n        /* \"#utility.yul\":3724:3742   */\n      0xffffffffffffffff\n        /* \"#utility.yul\":3716:3722   */\n      dup2\n        /* \"#utility.yul\":3713:3743   */\n      gt\n        /* \"#utility.yul\":3710:3827   */\n      iszero\n      tag_233\n      jumpi\n        /* \"#utility.yul\":3746:3825   */\n      tag_234\n      tag_235\n      jump\t// in\n    tag_234:\n        /* \"#utility.yul\":3710:3827   */\n    tag_233:\n        /* \"#utility.yul\":3851:3914   */\n      tag_236\n        /* \"#utility.yul\":3906:3913   */\n      dup5\n        /* \"#utility.yul\":3897:3903   */\n      dup3\n        /* \"#utility.yul\":3886:3895   */\n      dup6\n        /* \"#utility.yul\":3882:3904   */\n      add\n        /* \"#utility.yul\":3851:3914   */\n      tag_220\n      jump\t// in\n    tag_236:\n        /* \"#utility.yul\":3841:3914   */\n      swap2\n      pop\n        /* \"#utility.yul\":3637:3924   */\n      pop\n        /* \"#utility.yul\":3422:3931   */\n      swap3\n      swap2\n      pop\n      pop\n      jump\t// out\n        /* \"#utility.yul\":3937:4819   */\n    tag_29:\n        /* \"#utility.yul\":4049:4055   */\n      0x00\n        /* \"#utility.yul\":4057:4063   */\n      dup1\n        /* \"#utility.yul\":4106:4108   */\n      0x40\n        /* \"#utility.yul\":4094:4103   */\n      dup4\n        /* \"#utility.yul\":4085:4092   */\n      dup6\n        /* \"#utility.yul\":4081:4104   */\n      sub\n        /* \"#utility.yul\":4077:4109   */\n      slt\n        /* \"#utility.yul\":4074:4193   */\n      iszero\n      tag_238\n      jumpi\n        /* \"#utility.yul\":4112:4191   */\n      tag_239\n      tag_228\n      jump\t// in\n    tag_239:\n        /* \"#utility.yul\":4074:4193   */\n    tag_238:\n        /* \"#utility.yul\":4260:4261   */\n      0x00\n        /* \"#utility.yul\":4249:4258   */\n      dup4\n        /* \"#utility.yul\":4245:4262   */\n      add\n        /* \"#utility.yul\":4232:4263   */\n      calldataload\n        /* \"#utility.yul\":4290:4308   */\n      0xffffffffffffffff\n        /* \"#utility.yul\":4282:4288   */\n      dup2\n        /* \"#utility.yul\":4279:4309   */\n      gt\n        /* \"#utility.yul\":4276:4393   */\n      iszero\n      tag_240\n      jumpi\n        /* \"#utility.yul\":4312:4391   */\n      tag_241\n      tag_235\n      jump\t// in\n    tag_241:\n        /* \"#utility.yul\":4276:4393   */\n    tag_240:\n        /* \"#utility.yul\":4417:4480   */\n      tag_242\n        /* \"#utility.yul\":4472:4479   */\n      dup6\n        /* \"#utility.yul\":4463:4469   */\n      dup3\n        /* \"#utility.yul\":4452:4461   */\n      dup7\n        /* \"#utility.yul\":4448:4470   */\n      add\n        /* \"#utility.yul\":4417:4480   */\n      tag_220\n      jump\t// in\n    tag_242:\n        /* \"#utility.yul\":4407:4480   */\n      swap3\n      pop\n        /* \"#utility.yul\":4203:4490   */\n      pop\n        /* \"#utility.yul\":4557:4559   */\n      0x20\n        /* \"#utility.yul\":4546:4555   */\n      dup4\n        /* \"#utility.yul\":4542:4560   */\n      add\n        /* \"#utility.yul\":4529:4561   */\n      calldataload\n        /* \"#utility.yul\":4588:4606   */\n      0xffffffffffffffff\n        /* \"#utility.yul\":4580:4586   */\n      dup2\n        /* \"#utility.yul\":4577:4607   */\n      gt\n        /* \"#utility.yul\":4574:4691   */\n      iszero\n      tag_243\n      jumpi\n        /* \"#utility.yul\":4610:4689   */\n      tag_244\n      tag_235\n      jump\t// in\n    tag_244:\n        /* \"#utility.yul\":4574:4691   */\n    tag_243:\n        /* \"#utility.yul\":4715:4802   */\n      tag_245\n        /* \"#utility.yul\":4794:4801   */\n      dup6\n        /* \"#utility.yul\":4785:4791   */\n      dup3\n        /* \"#utility.yul\":4774:4783   */\n      dup7\n        /* \"#utility.yul\":4770:4792   */\n      add\n        /* \"#utility.yul\":4715:4802   */\n      tag_211\n      jump\t// in\n    tag_245:\n        /* \"#utility.yul\":4705:4802   */\n      swap2\n      pop\n        /* \"#utility.yul\":4500:4812   */\n      pop\n        /* \"#utility.yul\":3937:4819   */\n      swap3\n      pop\n      swap3\n      swap1\n      pop\n      jump\t// out\n        /* \"#utility.yul\":4825:5659   */\n    tag_55:\n        /* \"#utility.yul\":4913:4919   */\n      0x00\n        /* \"#utility.yul\":4921:4927   */\n      dup1\n        /* \"#utility.yul\":4970:4972   */\n      0x40\n        /* \"#utility.yul\":4958:4967   */\n      dup4\n        /* \"#utility.yul\":4949:4956   */\n      dup6\n        /* \"#utility.yul\":4945:4968   */\n      sub\n        /* \"#utility.yul\":4941:4973   */\n      slt\n        /* \"#utility.yul\":4938:5057   */\n      iszero\n      tag_247\n      jumpi\n        /* \"#utility.yul\":4976:5055   */\n      tag_248\n      tag_228\n      jump\t// in\n    tag_248:\n        /* \"#utility.yul\":4938:5057   */\n    tag_247:\n        /* \"#utility.yul\":5124:5125   */\n      0x00\n        /* \"#utility.yul\":5113:5122   */\n      dup4\n        /* \"#utility.yul\":5109:5126   */\n      add\n        /* \"#utility.yul\":5096:5127   */\n      calldataload\n        /* \"#utility.yul\":5154:5172   */\n      0xffffffffffffffff\n        /* \"#utility.yul\":5146:5152   */\n      dup2\n        /* \"#utility.yul\":5143:5173   */\n      gt\n        /* \"#utility.yul\":5140:5257   */\n      iszero\n      tag_249\n      jumpi\n        /* \"#utility.yul\":5176:5255   */\n      tag_250\n      tag_235\n      jump\t// in\n    tag_250:\n        /* \"#utility.yul\":5140:5257   */\n    tag_249:\n        /* \"#utility.yul\":5281:5344   */\n      tag_251\n        /* \"#utility.yul\":5336:5343   */\n      dup6\n        /* \"#utility.yul\":5327:5333   */\n      dup3\n        /* \"#utility.yul\":5316:5325   */\n      dup7\n        /* \"#utility.yul\":5312:5334   */\n      add\n        /* \"#utility.yul\":5281:5344   */\n      tag_220\n      jump\t// in\n    tag_251:\n        /* \"#utility.yul\":5271:5344   */\n      swap3\n      pop\n        /* \"#utility.yul\":5067:5354   */\n      pop\n        /* \"#utility.yul\":5421:5423   */\n      0x20\n        /* \"#utility.yul\":5410:5419   */\n      dup4\n        /* \"#utility.yul\":5406:5424   */\n      add\n        /* \"#utility.yul\":5393:5425   */\n      calldataload\n        /* \"#utility.yul\":5452:5470   */\n      0xffffffffffffffff\n        /* \"#utility.yul\":5444:5450   */\n      dup2\n        /* \"#utility.yul\":5441:5471   */\n      gt\n        /* \"#utility.yul\":5438:5555   */\n      iszero\n      tag_252\n      jumpi\n        /* \"#utility.yul\":5474:5553   */\n      tag_253\n      tag_235\n      jump\t// in\n    tag_253:\n        /* \"#utility.yul\":5438:5555   */\n    tag_252:\n        /* \"#utility.yul\":5579:5642   */\n      tag_254\n        /* \"#utility.yul\":5634:5641   */\n      dup6\n        /* \"#utility.yul\":5625:5631   */\n      dup3\n        /* \"#utility.yul\":5614:5623   */\n      dup7\n        /* \"#utility.yul\":5610:5632   */\n      add\n        /* \"#utility.yul\":5579:5642   */\n      tag_220\n      jump\t// in\n    tag_254:\n        /* \"#utility.yul\":5569:5642   */\n      swap2\n      pop\n        /* \"#utility.yul\":5364:5652   */\n      pop\n        /* \"#utility.yul\":4825:5659   */\n      swap3\n      pop\n      swap3\n      swap1\n      pop\n      jump\t// out\n        /* \"#utility.yul\":5665:5783   */\n    tag_255:\n        /* \"#utility.yul\":5752:5776   */\n      tag_257\n        /* \"#utility.yul\":5770:5775   */\n      dup2\n        /* \"#utility.yul\":5752:5776   */\n      tag_258\n      jump\t// in\n    tag_257:\n        /* \"#utility.yul\":5747:5750   */\n      dup3\n        /* \"#utility.yul\":5740:5777   */\n      mstore\n        /* \"#utility.yul\":5665:5783   */\n      pop\n      pop\n      jump\t// out\n        /* \"#utility.yul\":5811:6112   */\n    tag_259:\n        /* \"#utility.yul\":5907:5910   */\n      0x00\n        /* \"#utility.yul\":5928:5998   */\n      tag_261\n        /* \"#utility.yul\":5991:5997   */\n      dup4\n        /* \"#utility.yul\":5986:5989   */\n      dup6\n        /* \"#utility.yul\":5928:5998   */\n      tag_262\n      jump\t// in\n    tag_261:\n        /* \"#utility.yul\":5921:5998   */\n      swap4\n      pop\n        /* \"#utility.yul\":6008:6051   */\n      tag_263\n        /* \"#utility.yul\":6044:6050   */\n      dup4\n        /* \"#utility.yul\":6039:6042   */\n      dup6\n        /* \"#utility.yul\":6032:6037   */\n      dup5\n        /* \"#utility.yul\":6008:6051   */\n      tag_198\n      jump\t// in\n    tag_263:\n        /* \"#utility.yul\":6076:6105   */\n      tag_264\n        /* \"#utility.yul\":6098:6104   */\n      dup4\n        /* \"#utility.yul\":6076:6105   */\n      tag_265\n      jump\t// in\n    tag_264:\n        /* \"#utility.yul\":6071:6074   */\n      dup5\n        /* \"#utility.yul\":6067:6106   */\n      add\n        /* \"#utility.yul\":6060:6106   */\n      swap1\n      pop\n        /* \"#utility.yul\":5811:6112   */\n      swap4\n      swap3\n      pop\n      pop\n      pop\n      jump\t// out\n        /* \"#utility.yul\":6118:6305   */\n    tag_266:\n        /* \"#utility.yul\":6233:6298   */\n      tag_268\n        /* \"#utility.yul\":6292:6297   */\n      dup2\n        /* \"#utility.yul\":6233:6298   */\n      tag_269\n      jump\t// in\n    tag_268:\n        /* \"#utility.yul\":6228:6231   */\n      dup3\n        /* \"#utility.yul\":6221:6299   */\n      mstore\n        /* \"#utility.yul\":6118:6305   */\n      pop\n      pop\n      jump\t// out\n        /* \"#utility.yul\":6311:6675   */\n    tag_270:\n        /* \"#utility.yul\":6399:6402   */\n      0x00\n        /* \"#utility.yul\":6427:6466   */\n      tag_272\n        /* \"#utility.yul\":6460:6465   */\n      dup3\n        /* \"#utility.yul\":6427:6466   */\n      tag_273\n      jump\t// in\n    tag_272:\n        /* \"#utility.yul\":6482:6553   */\n      tag_274\n        /* \"#utility.yul\":6546:6552   */\n      dup2\n        /* \"#utility.yul\":6541:6544   */\n      dup6\n        /* \"#utility.yul\":6482:6553   */\n      tag_275\n      jump\t// in\n    tag_274:\n        /* \"#utility.yul\":6475:6553   */\n      swap4\n      pop\n        /* \"#utility.yul\":6562:6614   */\n      tag_276\n        /* \"#utility.yul\":6607:6613   */\n      dup2\n        /* \"#utility.yul\":6602:6605   */\n      dup6\n        /* \"#utility.yul\":6595:6599   */\n      0x20\n        /* \"#utility.yul\":6588:6593   */\n      dup7\n        /* \"#utility.yul\":6584:6600   */\n      add\n        /* \"#utility.yul\":6562:6614   */\n      tag_277\n      jump\t// in\n    tag_276:\n        /* \"#utility.yul\":6639:6668   */\n      tag_278\n        /* \"#utility.yul\":6661:6667   */\n      dup2\n        /* \"#utility.yul\":6639:6668   */\n      tag_265\n      jump\t// in\n    tag_278:\n        /* \"#utility.yul\":6634:6637   */\n      dup5\n        /* \"#utility.yul\":6630:6669   */\n      add\n        /* \"#utility.yul\":6623:6669   */\n      swap2\n      pop\n        /* \"#utility.yul\":6403:6675   */\n      pop\n        /* \"#utility.yul\":6311:6675   */\n      swap3\n      swap2\n      pop\n      pop\n      jump\t// out\n        /* \"#utility.yul\":6681:7047   */\n    tag_279:\n        /* \"#utility.yul\":6823:6826   */\n      0x00\n        /* \"#utility.yul\":6844:6911   */\n      tag_281\n        /* \"#utility.yul\":6908:6910   */\n      0x26\n        /* \"#utility.yul\":6903:6906   */\n      dup4\n        /* \"#utility.yul\":6844:6911   */\n      tag_275\n      jump\t// in\n    tag_281:\n        /* \"#utility.yul\":6837:6911   */\n      swap2\n      pop\n        /* \"#utility.yul\":6920:7013   */\n      tag_282\n        /* \"#utility.yul\":7009:7012   */\n      dup3\n        /* \"#utility.yul\":6920:7013   */\n      tag_283\n      jump\t// in\n    tag_282:\n        /* \"#utility.yul\":7038:7040   */\n      0x40\n        /* \"#utility.yul\":7033:7036   */\n      dup3\n        /* \"#utility.yul\":7029:7041   */\n      add\n        /* \"#utility.yul\":7022:7041   */\n      swap1\n      pop\n        /* \"#utility.yul\":6681:7047   */\n      swap2\n      swap1\n      pop\n      jump\t// out\n        /* \"#utility.yul\":7053:7419   */\n    tag_284:\n        /* \"#utility.yul\":7195:7198   */\n      0x00\n        /* \"#utility.yul\":7216:7283   */\n      tag_286\n        /* \"#utility.yul\":7280:7282   */\n      0x20\n        /* \"#utility.yul\":7275:7278   */\n      dup4\n        /* \"#utility.yul\":7216:7283   */\n      tag_275\n      jump\t// in\n    tag_286:\n        /* \"#utility.yul\":7209:7283   */\n      swap2\n      pop\n        /* \"#utility.yul\":7292:7385   */\n      tag_287\n        /* \"#utility.yul\":7381:7384   */\n      dup3\n        /* \"#utility.yul\":7292:7385   */\n      tag_288\n      jump\t// in\n    tag_287:\n        /* \"#utility.yul\":7410:7412   */\n      0x20\n        /* \"#utility.yul\":7405:7408   */\n      dup3\n        /* \"#utility.yul\":7401:7413   */\n      add\n        /* \"#utility.yul\":7394:7413   */\n      swap1\n      pop\n        /* \"#utility.yul\":7053:7419   */\n      swap2\n      swap1\n      pop\n      jump\t// out\n        /* \"#utility.yul\":7425:7791   */\n    tag_289:\n        /* \"#utility.yul\":7567:7570   */\n      0x00\n        /* \"#utility.yul\":7588:7655   */\n      tag_291\n        /* \"#utility.yul\":7652:7654   */\n      0x3b\n        /* \"#utility.yul\":7647:7650   */\n      dup4\n        /* \"#utility.yul\":7588:7655   */\n      tag_275\n      jump\t// in\n    tag_291:\n        /* \"#utility.yul\":7581:7655   */\n      swap2\n      pop\n        /* \"#utility.yul\":7664:7757   */\n      tag_292\n        /* \"#utility.yul\":7753:7756   */\n      dup3\n        /* \"#utility.yul\":7664:7757   */\n      tag_293\n      jump\t// in\n    tag_292:\n        /* \"#utility.yul\":7782:7784   */\n      0x40\n        /* \"#utility.yul\":7777:7780   */\n      dup3\n        /* \"#utility.yul\":7773:7785   */\n      add\n        /* \"#utility.yul\":7766:7785   */\n      swap1\n      pop\n        /* \"#utility.yul\":7425:7791   */\n      swap2\n      swap1\n      pop\n      jump\t// out\n        /* \"#utility.yul\":7797:8019   */\n    tag_52:\n        /* \"#utility.yul\":7890:7894   */\n      0x00\n        /* \"#utility.yul\":7928:7930   */\n      0x20\n        /* \"#utility.yul\":7917:7926   */\n      dup3\n        /* \"#utility.yul\":7913:7931   */\n      add\n        /* \"#utility.yul\":7905:7931   */\n      swap1\n      pop\n        /* \"#utility.yul\":7941:8012   */\n      tag_295\n        /* \"#utility.yul\":8009:8010   */\n      0x00\n        /* \"#utility.yul\":7998:8007   */\n      dup4\n        /* \"#utility.yul\":7994:8011   */\n      add\n        /* \"#utility.yul\":7985:7991   */\n      dup5\n        /* \"#utility.yul\":7941:8012   */\n      tag_255\n      jump\t// in\n    tag_295:\n        /* \"#utility.yul\":7797:8019   */\n      swap3\n      swap2\n      pop\n      pop\n      jump\t// out\n        /* \"#utility.yul\":8025:8303   */\n    tag_38:\n        /* \"#utility.yul\":8146:8150   */\n      0x00\n        /* \"#utility.yul\":8184:8186   */\n      0x20\n        /* \"#utility.yul\":8173:8182   */\n      dup3\n        /* \"#utility.yul\":8169:8187   */\n      add\n        /* \"#utility.yul\":8161:8187   */\n      swap1\n      pop\n        /* \"#utility.yul\":8197:8296   */\n      tag_297\n        /* \"#utility.yul\":8293:8294   */\n      0x00\n        /* \"#utility.yul\":8282:8291   */\n      dup4\n        /* \"#utility.yul\":8278:8295   */\n      add\n        /* \"#utility.yul\":8269:8275   */\n      dup5\n        /* \"#utility.yul\":8197:8296   */\n      tag_266\n      jump\t// in\n    tag_297:\n        /* \"#utility.yul\":8025:8303   */\n      swap3\n      swap2\n      pop\n      pop\n      jump\t// out\n        /* \"#utility.yul\":8309:8622   */\n    tag_26:\n        /* \"#utility.yul\":8422:8426   */\n      0x00\n        /* \"#utility.yul\":8460:8462   */\n      0x20\n        /* \"#utility.yul\":8449:8458   */\n      dup3\n        /* \"#utility.yul\":8445:8463   */\n      add\n        /* \"#utility.yul\":8437:8463   */\n      swap1\n      pop\n        /* \"#utility.yul\":8509:8518   */\n      dup2\n        /* \"#utility.yul\":8503:8507   */\n      dup2\n        /* \"#utility.yul\":8499:8519   */\n      sub\n        /* \"#utility.yul\":8495:8496   */\n      0x00\n        /* \"#utility.yul\":8484:8493   */\n      dup4\n        /* \"#utility.yul\":8480:8497   */\n      add\n        /* \"#utility.yul\":8473:8520   */\n      mstore\n        /* \"#utility.yul\":8537:8615   */\n      tag_299\n        /* \"#utility.yul\":8610:8614   */\n      dup2\n        /* \"#utility.yul\":8601:8607   */\n      dup5\n        /* \"#utility.yul\":8537:8615   */\n      tag_270\n      jump\t// in\n    tag_299:\n        /* \"#utility.yul\":8529:8615   */\n      swap1\n      pop\n        /* \"#utility.yul\":8309:8622   */\n      swap3\n      swap2\n      pop\n      pop\n      jump\t// out\n        /* \"#utility.yul\":8628:9268   */\n    tag_120:\n        /* \"#utility.yul\":8825:8829   */\n      0x00\n        /* \"#utility.yul\":8863:8865   */\n      0x60\n        /* \"#utility.yul\":8852:8861   */\n      dup3\n        /* \"#utility.yul\":8848:8866   */\n      add\n        /* \"#utility.yul\":8840:8866   */\n      swap1\n      pop\n        /* \"#utility.yul\":8912:8921   */\n      dup2\n        /* \"#utility.yul\":8906:8910   */\n      dup2\n        /* \"#utility.yul\":8902:8922   */\n      sub\n        /* \"#utility.yul\":8898:8899   */\n      0x00\n        /* \"#utility.yul\":8887:8896   */\n      dup4\n        /* \"#utility.yul\":8883:8900   */\n      add\n        /* \"#utility.yul\":8876:8923   */\n      mstore\n        /* \"#utility.yul\":8940:9018   */\n      tag_301\n        /* \"#utility.yul\":9013:9017   */\n      dup2\n        /* \"#utility.yul\":9004:9010   */\n      dup8\n        /* \"#utility.yul\":8940:9018   */\n      tag_270\n      jump\t// in\n    tag_301:\n        /* \"#utility.yul\":8932:9018   */\n      swap1\n      pop\n        /* \"#utility.yul\":9028:9100   */\n      tag_302\n        /* \"#utility.yul\":9096:9098   */\n      0x20\n        /* \"#utility.yul\":9085:9094   */\n      dup4\n        /* \"#utility.yul\":9081:9099   */\n      add\n        /* \"#utility.yul\":9072:9078   */\n      dup7\n        /* \"#utility.yul\":9028:9100   */\n      tag_255\n      jump\t// in\n    tag_302:\n        /* \"#utility.yul\":9147:9156   */\n      dup2\n        /* \"#utility.yul\":9141:9145   */\n      dup2\n        /* \"#utility.yul\":9137:9157   */\n      sub\n        /* \"#utility.yul\":9132:9134   */\n      0x40\n        /* \"#utility.yul\":9121:9130   */\n      dup4\n        /* \"#utility.yul\":9117:9135   */\n      add\n        /* \"#utility.yul\":9110:9158   */\n      mstore\n        /* \"#utility.yul\":9175:9261   */\n      tag_303\n        /* \"#utility.yul\":9256:9260   */\n      dup2\n        /* \"#utility.yul\":9247:9253   */\n      dup5\n        /* \"#utility.yul\":9239:9245   */\n      dup7\n        /* \"#utility.yul\":9175:9261   */\n      tag_259\n      jump\t// in\n    tag_303:\n        /* \"#utility.yul\":9167:9261   */\n      swap1\n      pop\n        /* \"#utility.yul\":8628:9268   */\n      swap6\n      swap5\n      pop\n      pop\n      pop\n      pop\n      pop\n      jump\t// out\n        /* \"#utility.yul\":9274:9693   */\n    tag_157:\n        /* \"#utility.yul\":9440:9444   */\n      0x00\n        /* \"#utility.yul\":9478:9480   */\n      0x20\n        /* \"#utility.yul\":9467:9476   */\n      dup3\n        /* \"#utility.yul\":9463:9481   */\n      add\n        /* \"#utility.yul\":9455:9481   */\n      swap1\n      pop\n        /* \"#utility.yul\":9527:9536   */\n      dup2\n        /* \"#utility.yul\":9521:9525   */\n      dup2\n        /* \"#utility.yul\":9517:9537   */\n      sub\n        /* \"#utility.yul\":9513:9514   */\n      0x00\n        /* \"#utility.yul\":9502:9511   */\n      dup4\n        /* \"#utility.yul\":9498:9515   */\n      add\n        /* \"#utility.yul\":9491:9538   */\n      mstore\n        /* \"#utility.yul\":9555:9686   */\n      tag_305\n        /* \"#utility.yul\":9681:9685   */\n      dup2\n        /* \"#utility.yul\":9555:9686   */\n      tag_279\n      jump\t// in\n    tag_305:\n        /* \"#utility.yul\":9547:9686   */\n      swap1\n      pop\n        /* \"#utility.yul\":9274:9693   */\n      swap2\n      swap1\n      pop\n      jump\t// out\n        /* \"#utility.yul\":9699:10118   */\n    tag_99:\n        /* \"#utility.yul\":9865:9869   */\n      0x00\n        /* \"#utility.yul\":9903:9905   */\n      0x20\n        /* \"#utility.yul\":9892:9901   */\n      dup3\n        /* \"#utility.yul\":9888:9906   */\n      add\n        /* \"#utility.yul\":9880:9906   */\n      swap1\n      pop\n        /* \"#utility.yul\":9952:9961   */\n      dup2\n        /* \"#utility.yul\":9946:9950   */\n      dup2\n        /* \"#utility.yul\":9942:9962   */\n      sub\n        /* \"#utility.yul\":9938:9939   */\n      0x00\n        /* \"#utility.yul\":9927:9936   */\n      dup4\n        /* \"#utility.yul\":9923:9940   */\n      add\n        /* \"#utility.yul\":9916:9963   */\n      mstore\n        /* \"#utility.yul\":9980:10111   */\n      tag_307\n        /* \"#utility.yul\":10106:10110   */\n      dup2\n        /* \"#utility.yul\":9980:10111   */\n      tag_284\n      jump\t// in\n    tag_307:\n        /* \"#utility.yul\":9972:10111   */\n      swap1\n      pop\n        /* \"#utility.yul\":9699:10118   */\n      swap2\n      swap1\n      pop\n      jump\t// out\n        /* \"#utility.yul\":10124:10543   */\n    tag_87:\n        /* \"#utility.yul\":10290:10294   */\n      0x00\n        /* \"#utility.yul\":10328:10330   */\n      0x20\n        /* \"#utility.yul\":10317:10326   */\n      dup3\n        /* \"#utility.yul\":10313:10331   */\n      add\n        /* \"#utility.yul\":10305:10331   */\n      swap1\n      pop\n        /* \"#utility.yul\":10377:10386   */\n      dup2\n        /* \"#utility.yul\":10371:10375   */\n      dup2\n        /* \"#utility.yul\":10367:10387   */\n      sub\n        /* \"#utility.yul\":10363:10364   */\n      0x00\n        /* \"#utility.yul\":10352:10361   */\n      dup4\n        /* \"#utility.yul\":10348:10365   */\n      add\n        /* \"#utility.yul\":10341:10388   */\n      mstore\n        /* \"#utility.yul\":10405:10536   */\n      tag_309\n        /* \"#utility.yul\":10531:10535   */\n      dup2\n        /* \"#utility.yul\":10405:10536   */\n      tag_289\n      jump\t// in\n    tag_309:\n        /* \"#utility.yul\":10397:10536   */\n      swap1\n      pop\n        /* \"#utility.yul\":10124:10543   */\n      swap2\n      swap1\n      pop\n      jump\t// out\n        /* \"#utility.yul\":10549:10678   */\n    tag_177:\n        /* \"#utility.yul\":10583:10589   */\n      0x00\n        /* \"#utility.yul\":10610:10630   */\n      tag_311\n      tag_312\n      jump\t// in\n    tag_311:\n        /* \"#utility.yul\":10600:10630   */\n      swap1\n      pop\n        /* \"#utility.yul\":10639:10672   */\n      tag_313\n        /* \"#utility.yul\":10667:10671   */\n      dup3\n        /* \"#utility.yul\":10659:10665   */\n      dup3\n        /* \"#utility.yul\":10639:10672   */\n      tag_314\n      jump\t// in\n    tag_313:\n        /* \"#utility.yul\":10549:10678   */\n      swap2\n      swap1\n      pop\n      jump\t// out\n        /* \"#utility.yul\":10684:10759   */\n    tag_312:\n        /* \"#utility.yul\":10717:10723   */\n      0x00\n        /* \"#utility.yul\":10750:10752   */\n      0x40\n        /* \"#utility.yul\":10744:10753   */\n      mload\n        /* \"#utility.yul\":10734:10753   */\n      swap1\n      pop\n        /* \"#utility.yul\":10684:10759   */\n      swap1\n      jump\t// out\n        /* \"#utility.yul\":10765:11085   */\n    tag_176:\n        /* \"#utility.yul\":10851:10855   */\n      0x00\n        /* \"#utility.yul\":10941:10959   */\n      0xffffffffffffffff\n        /* \"#utility.yul\":10933:10939   */\n      dup3\n        /* \"#utility.yul\":10930:10960   */\n      gt\n        /* \"#utility.yul\":10927:10983   */\n      iszero\n      tag_317\n      jumpi\n        /* \"#utility.yul\":10963:10981   */\n      tag_318\n      tag_319\n      jump\t// in\n    tag_318:\n        /* \"#utility.yul\":10927:10983   */\n    tag_317:\n        /* \"#utility.yul\":11013:11017   */\n      0x20\n        /* \"#utility.yul\":11005:11011   */\n      dup3\n        /* \"#utility.yul\":11001:11018   */\n      mul\n        /* \"#utility.yul\":10993:11018   */\n      swap1\n      pop\n        /* \"#utility.yul\":11073:11077   */\n      0x20\n        /* \"#utility.yul\":11067:11071   */\n      dup2\n        /* \"#utility.yul\":11063:11078   */\n      add\n        /* \"#utility.yul\":11055:11078   */\n      swap1\n      pop\n        /* \"#utility.yul\":10765:11085   */\n      swap2\n      swap1\n      pop\n      jump\t// out\n        /* \"#utility.yul\":11091:11398   */\n    tag_193:\n        /* \"#utility.yul\":11152:11156   */\n      0x00\n        /* \"#utility.yul\":11242:11260   */\n      0xffffffffffffffff\n        /* \"#utility.yul\":11234:11240   */\n      dup3\n        /* \"#utility.yul\":11231:11261   */\n      gt\n        /* \"#utility.yul\":11228:11284   */\n      iszero\n      tag_321\n      jumpi\n        /* \"#utility.yul\":11264:11282   */\n      tag_322\n      tag_319\n      jump\t// in\n    tag_322:\n        /* \"#utility.yul\":11228:11284   */\n    tag_321:\n        /* \"#utility.yul\":11302:11331   */\n      tag_323\n        /* \"#utility.yul\":11324:11330   */\n      dup3\n        /* \"#utility.yul\":11302:11331   */\n      tag_265\n      jump\t// in\n    tag_323:\n        /* \"#utility.yul\":11294:11331   */\n      swap1\n      pop\n        /* \"#utility.yul\":11386:11390   */\n      0x20\n        /* \"#utility.yul\":11380:11384   */\n      dup2\n        /* \"#utility.yul\":11376:11391   */\n      add\n        /* \"#utility.yul\":11368:11391   */\n      swap1\n      pop\n        /* \"#utility.yul\":11091:11398   */\n      swap2\n      swap1\n      pop\n      jump\t// out\n        /* \"#utility.yul\":11404:11712   */\n    tag_203:\n        /* \"#utility.yul\":11466:11470   */\n      0x00\n        /* \"#utility.yul\":11556:11574   */\n      0xffffffffffffffff\n        /* \"#utility.yul\":11548:11554   */\n      dup3\n        /* \"#utility.yul\":11545:11575   */\n      gt\n        /* \"#utility.yul\":11542:11598   */\n      iszero\n      tag_325\n      jumpi\n        /* \"#utility.yul\":11578:11596   */\n      tag_326\n      tag_319\n      jump\t// in\n    tag_326:\n        /* \"#utility.yul\":11542:11598   */\n    tag_325:\n        /* \"#utility.yul\":11616:11645   */\n      tag_327\n        /* \"#utility.yul\":11638:11644   */\n      dup3\n        /* \"#utility.yul\":11616:11645   */\n      tag_265\n      jump\t// in\n    tag_327:\n        /* \"#utility.yul\":11608:11645   */\n      swap1\n      pop\n        /* \"#utility.yul\":11700:11704   */\n      0x20\n        /* \"#utility.yul\":11694:11698   */\n      dup2\n        /* \"#utility.yul\":11690:11705   */\n      add\n        /* \"#utility.yul\":11682:11705   */\n      swap1\n      pop\n        /* \"#utility.yul\":11404:11712   */\n      swap2\n      swap1\n      pop\n      jump\t// out\n        /* \"#utility.yul\":11718:11817   */\n    tag_273:\n        /* \"#utility.yul\":11770:11776   */\n      0x00\n        /* \"#utility.yul\":11804:11809   */\n      dup2\n        /* \"#utility.yul\":11798:11810   */\n      mload\n        /* \"#utility.yul\":11788:11810   */\n      swap1\n      pop\n        /* \"#utility.yul\":11718:11817   */\n      swap2\n      swap1\n      pop\n      jump\t// out\n        /* \"#utility.yul\":11823:11991   */\n    tag_262:\n        /* \"#utility.yul\":11906:11917   */\n      0x00\n        /* \"#utility.yul\":11940:11946   */\n      dup3\n        /* \"#utility.yul\":11935:11938   */\n      dup3\n        /* \"#utility.yul\":11928:11947   */\n      mstore\n        /* \"#utility.yul\":11980:11984   */\n      0x20\n        /* \"#utility.yul\":11975:11978   */\n      dup3\n        /* \"#utility.yul\":11971:11985   */\n      add\n        /* \"#utility.yul\":11956:11985   */\n      swap1\n      pop\n        /* \"#utility.yul\":11823:11991   */\n      swap3\n      swap2\n      pop\n      pop\n      jump\t// out\n        /* \"#utility.yul\":11997:12166   */\n    tag_275:\n        /* \"#utility.yul\":12081:12092   */\n      0x00\n        /* \"#utility.yul\":12115:12121   */\n      dup3\n        /* \"#utility.yul\":12110:12113   */\n      dup3\n        /* \"#utility.yul\":12103:12122   */\n      mstore\n        /* \"#utility.yul\":12155:12159   */\n      0x20\n        /* \"#utility.yul\":12150:12153   */\n      dup3\n        /* \"#utility.yul\":12146:12160   */\n      add\n        /* \"#utility.yul\":12131:12160   */\n      swap1\n      pop\n        /* \"#utility.yul\":11997:12166   */\n      swap3\n      swap2\n      pop\n      pop\n      jump\t// out\n        /* \"#utility.yul\":12172:12268   */\n    tag_258:\n        /* \"#utility.yul\":12209:12216   */\n      0x00\n        /* \"#utility.yul\":12238:12262   */\n      tag_332\n        /* \"#utility.yul\":12256:12261   */\n      dup3\n        /* \"#utility.yul\":12238:12262   */\n      tag_333\n      jump\t// in\n    tag_332:\n        /* \"#utility.yul\":12227:12262   */\n      swap1\n      pop\n        /* \"#utility.yul\":12172:12268   */\n      swap2\n      swap1\n      pop\n      jump\t// out\n        /* \"#utility.yul\":12274:12400   */\n    tag_333:\n        /* \"#utility.yul\":12311:12318   */\n      0x00\n        /* \"#utility.yul\":12351:12393   */\n      0xffffffffffffffffffffffffffffffffffffffff\n        /* \"#utility.yul\":12344:12349   */\n      dup3\n        /* \"#utility.yul\":12340:12394   */\n      and\n        /* \"#utility.yul\":12329:12394   */\n      swap1\n      pop\n        /* \"#utility.yul\":12274:12400   */\n      swap2\n      swap1\n      pop\n      jump\t// out\n        /* \"#utility.yul\":12406:12560   */\n    tag_269:\n        /* \"#utility.yul\":12484:12493   */\n      0x00\n        /* \"#utility.yul\":12517:12554   */\n      tag_336\n        /* \"#utility.yul\":12548:12553   */\n      dup3\n        /* \"#utility.yul\":12517:12554   */\n      tag_337\n      jump\t// in\n    tag_336:\n        /* \"#utility.yul\":12504:12554   */\n      swap1\n      pop\n        /* \"#utility.yul\":12406:12560   */\n      swap2\n      swap1\n      pop\n      jump\t// out\n        /* \"#utility.yul\":12566:12692   */\n    tag_337:\n        /* \"#utility.yul\":12616:12625   */\n      0x00\n        /* \"#utility.yul\":12649:12686   */\n      tag_339\n        /* \"#utility.yul\":12680:12685   */\n      dup3\n        /* \"#utility.yul\":12649:12686   */\n      tag_340\n      jump\t// in\n    tag_339:\n        /* \"#utility.yul\":12636:12686   */\n      swap1\n      pop\n        /* \"#utility.yul\":12566:12692   */\n      swap2\n      swap1\n      pop\n      jump\t// out\n        /* \"#utility.yul\":12698:12811   */\n    tag_340:\n        /* \"#utility.yul\":12748:12757   */\n      0x00\n        /* \"#utility.yul\":12781:12805   */\n      tag_342\n        /* \"#utility.yul\":12799:12804   */\n      dup3\n        /* \"#utility.yul\":12781:12805   */\n      tag_333\n      jump\t// in\n    tag_342:\n        /* \"#utility.yul\":12768:12805   */\n      swap1\n      pop\n        /* \"#utility.yul\":12698:12811   */\n      swap2\n      swap1\n      pop\n      jump\t// out\n        /* \"#utility.yul\":12817:12971   */\n    tag_198:\n        /* \"#utility.yul\":12901:12907   */\n      dup3\n        /* \"#utility.yul\":12896:12899   */\n      dup2\n        /* \"#utility.yul\":12891:12894   */\n      dup4\n        /* \"#utility.yul\":12878:12908   */\n      calldatacopy\n        /* \"#utility.yul\":12963:12964   */\n      0x00\n        /* \"#utility.yul\":12954:12960   */\n      dup4\n        /* \"#utility.yul\":12949:12952   */\n      dup4\n        /* \"#utility.yul\":12945:12961   */\n      add\n        /* \"#utility.yul\":12938:12965   */\n      mstore\n        /* \"#utility.yul\":12817:12971   */\n      pop\n      pop\n      pop\n      jump\t// out\n        /* \"#utility.yul\":12977:13284   */\n    tag_277:\n        /* \"#utility.yul\":13045:13046   */\n      0x00\n        /* \"#utility.yul\":13055:13168   */\n    tag_345:\n        /* \"#utility.yul\":13069:13075   */\n      dup4\n        /* \"#utility.yul\":13066:13067   */\n      dup2\n        /* \"#utility.yul\":13063:13076   */\n      lt\n        /* \"#utility.yul\":13055:13168   */\n      iszero\n      tag_347\n      jumpi\n        /* \"#utility.yul\":13154:13155   */\n      dup1\n        /* \"#utility.yul\":13149:13152   */\n      dup3\n        /* \"#utility.yul\":13145:13156   */\n      add\n        /* \"#utility.yul\":13139:13157   */\n      mload\n        /* \"#utility.yul\":13135:13136   */\n      dup2\n        /* \"#utility.yul\":13130:13133   */\n      dup5\n        /* \"#utility.yul\":13126:13137   */\n      add\n        /* \"#utility.yul\":13119:13158   */\n      mstore\n        /* \"#utility.yul\":13091:13093   */\n      0x20\n        /* \"#utility.yul\":13088:13089   */\n      dup2\n        /* \"#utility.yul\":13084:13094   */\n      add\n        /* \"#utility.yul\":13079:13094   */\n      swap1\n      pop\n        /* \"#utility.yul\":13055:13168   */\n      jump(tag_345)\n    tag_347:\n        /* \"#utility.yul\":13186:13192   */\n      dup4\n        /* \"#utility.yul\":13183:13184   */\n      dup2\n        /* \"#utility.yul\":13180:13193   */\n      gt\n        /* \"#utility.yul\":13177:13278   */\n      iszero\n      tag_348\n      jumpi\n        /* \"#utility.yul\":13266:13267   */\n      0x00\n        /* \"#utility.yul\":13257:13263   */\n      dup5\n        /* \"#utility.yul\":13252:13255   */\n      dup5\n        /* \"#utility.yul\":13248:13264   */\n      add\n        /* \"#utility.yul\":13241:13268   */\n      mstore\n        /* \"#utility.yul\":13177:13278   */\n    tag_348:\n        /* \"#utility.yul\":13026:13284   */\n      pop\n        /* \"#utility.yul\":12977:13284   */\n      pop\n      pop\n      pop\n      jump\t// out\n        /* \"#utility.yul\":13290:13610   */\n    tag_79:\n        /* \"#utility.yul\":13334:13340   */\n      0x00\n        /* \"#utility.yul\":13371:13372   */\n      0x02\n        /* \"#utility.yul\":13365:13369   */\n      dup3\n        /* \"#utility.yul\":13361:13373   */\n      div\n        /* \"#utility.yul\":13351:13373   */\n      swap1\n      pop\n        /* \"#utility.yul\":13418:13419   */\n      0x01\n        /* \"#utility.yul\":13412:13416   */\n      dup3\n        /* \"#utility.yul\":13408:13420   */\n      and\n        /* \"#utility.yul\":13439:13457   */\n      dup1\n        /* \"#utility.yul\":13429:13510   */\n      tag_350\n      jumpi\n        /* \"#utility.yul\":13495:13499   */\n      0x7f\n        /* \"#utility.yul\":13487:13493   */\n      dup3\n        /* \"#utility.yul\":13483:13500   */\n      and\n        /* \"#utility.yul\":13473:13500   */\n      swap2\n      pop\n        /* \"#utility.yul\":13429:13510   */\n    tag_350:\n        /* \"#utility.yul\":13557:13559   */\n      0x20\n        /* \"#utility.yul\":13549:13555   */\n      dup3\n        /* \"#utility.yul\":13546:13560   */\n      lt\n        /* \"#utility.yul\":13526:13544   */\n      dup2\n        /* \"#utility.yul\":13523:13561   */\n      eq\n        /* \"#utility.yul\":13520:13604   */\n      iszero\n      tag_351\n      jumpi\n        /* \"#utility.yul\":13576:13594   */\n      tag_352\n      tag_353\n      jump\t// in\n    tag_352:\n        /* \"#utility.yul\":13520:13604   */\n    tag_351:\n        /* \"#utility.yul\":13341:13610   */\n      pop\n        /* \"#utility.yul\":13290:13610   */\n      swap2\n      swap1\n      pop\n      jump\t// out\n        /* \"#utility.yul\":13616:13897   */\n    tag_314:\n        /* \"#utility.yul\":13699:13726   */\n      tag_355\n        /* \"#utility.yul\":13721:13725   */\n      dup3\n        /* \"#utility.yul\":13699:13726   */\n      tag_265\n      jump\t// in\n    tag_355:\n        /* \"#utility.yul\":13691:13697   */\n      dup2\n        /* \"#utility.yul\":13687:13727   */\n      add\n        /* \"#utility.yul\":13829:13835   */\n      dup2\n        /* \"#utility.yul\":13817:13827   */\n      dup2\n        /* \"#utility.yul\":13814:13836   */\n      lt\n        /* \"#utility.yul\":13793:13811   */\n      0xffffffffffffffff\n        /* \"#utility.yul\":13781:13791   */\n      dup3\n        /* \"#utility.yul\":13778:13812   */\n      gt\n        /* \"#utility.yul\":13775:13837   */\n      or\n        /* \"#utility.yul\":13772:13860   */\n      iszero\n      tag_356\n      jumpi\n        /* \"#utility.yul\":13840:13858   */\n      tag_357\n      tag_319\n      jump\t// in\n    tag_357:\n        /* \"#utility.yul\":13772:13860   */\n    tag_356:\n        /* \"#utility.yul\":13880:13890   */\n      dup1\n        /* \"#utility.yul\":13876:13878   */\n      0x40\n        /* \"#utility.yul\":13869:13891   */\n      mstore\n        /* \"#utility.yul\":13659:13897   */\n      pop\n        /* \"#utility.yul\":13616:13897   */\n      pop\n      pop\n      jump\t// out\n        /* \"#utility.yul\":13903:14083   */\n    tag_353:\n        /* \"#utility.yul\":13951:14028   */\n      0x4e487b7100000000000000000000000000000000000000000000000000000000\n        /* \"#utility.yul\":13948:13949   */\n      0x00\n        /* \"#utility.yul\":13941:14029   */\n      mstore\n        /* \"#utility.yul\":14048:14052   */\n      0x22\n        /* \"#utility.yul\":14045:14046   */\n      0x04\n        /* \"#utility.yul\":14038:14053   */\n      mstore\n        /* \"#utility.yul\":14072:14076   */\n      0x24\n        /* \"#utility.yul\":14069:14070   */\n      0x00\n        /* \"#utility.yul\":14062:14077   */\n      revert\n        /* \"#utility.yul\":14089:14269   */\n    tag_319:\n        /* \"#utility.yul\":14137:14214   */\n      0x4e487b7100000000000000000000000000000000000000000000000000000000\n        /* \"#utility.yul\":14134:14135   */\n      0x00\n        /* \"#utility.yul\":14127:14215   */\n      mstore\n        /* \"#utility.yul\":14234:14238   */\n      0x41\n        /* \"#utility.yul\":14231:14232   */\n      0x04\n        /* \"#utility.yul\":14224:14239   */\n      mstore\n        /* \"#utility.yul\":14258:14262   */\n      0x24\n        /* \"#utility.yul\":14255:14256   */\n      0x00\n        /* \"#utility.yul\":14248:14263   */\n      revert\n        /* \"#utility.yul\":14275:14392   */\n    tag_186:\n        /* \"#utility.yul\":14384:14385   */\n      0x00\n        /* \"#utility.yul\":14381:14382   */\n      dup1\n        /* \"#utility.yul\":14374:14386   */\n      revert\n        /* \"#utility.yul\":14398:14515   */\n    tag_180:\n        /* \"#utility.yul\":14507:14508   */\n      0x00\n        /* \"#utility.yul\":14504:14505   */\n      dup1\n        /* \"#utility.yul\":14497:14509   */\n      revert\n        /* \"#utility.yul\":14521:14638   */\n    tag_196:\n        /* \"#utility.yul\":14630:14631   */\n      0x00\n        /* \"#utility.yul\":14627:14628   */\n      dup1\n        /* \"#utility.yul\":14620:14632   */\n      revert\n        /* \"#utility.yul\":14644:14761   */\n    tag_235:\n        /* \"#utility.yul\":14753:14754   */\n      0x00\n        /* \"#utility.yul\":14750:14751   */\n      dup1\n        /* \"#utility.yul\":14743:14755   */\n      revert\n        /* \"#utility.yul\":14767:14884   */\n    tag_228:\n        /* \"#utility.yul\":14876:14877   */\n      0x00\n        /* \"#utility.yul\":14873:14874   */\n      dup1\n        /* \"#utility.yul\":14866:14878   */\n      revert\n        /* \"#utility.yul\":14890:14992   */\n    tag_265:\n        /* \"#utility.yul\":14931:14937   */\n      0x00\n        /* \"#utility.yul\":14982:14984   */\n      0x1f\n        /* \"#utility.yul\":14978:14985   */\n      not\n        /* \"#utility.yul\":14973:14975   */\n      0x1f\n        /* \"#utility.yul\":14966:14971   */\n      dup4\n        /* \"#utility.yul\":14962:14976   */\n      add\n        /* \"#utility.yul\":14958:14986   */\n      and\n        /* \"#utility.yul\":14948:14986   */\n      swap1\n      pop\n        /* \"#utility.yul\":14890:14992   */\n      swap2\n      swap1\n      pop\n      jump\t// out\n        /* \"#utility.yul\":14998:15223   */\n    tag_283:\n        /* \"#utility.yul\":15138:15172   */\n      0x4f776e61626c653a206e6577206f776e657220697320746865207a65726f2061\n        /* \"#utility.yul\":15134:15135   */\n      0x00\n        /* \"#utility.yul\":15126:15132   */\n      dup3\n        /* \"#utility.yul\":15122:15136   */\n      add\n        /* \"#utility.yul\":15115:15173   */\n      mstore\n        /* \"#utility.yul\":15207:15215   */\n      0x6464726573730000000000000000000000000000000000000000000000000000\n        /* \"#utility.yul\":15202:15204   */\n      0x20\n        /* \"#utility.yul\":15194:15200   */\n      dup3\n        /* \"#utility.yul\":15190:15205   */\n      add\n        /* \"#utility.yul\":15183:15216   */\n      mstore\n        /* \"#utility.yul\":14998:15223   */\n      pop\n      jump\t// out\n        /* \"#utility.yul\":15229:15411   */\n    tag_288:\n        /* \"#utility.yul\":15369:15403   */\n      0x4f776e61626c653a2063616c6c6572206973206e6f7420746865206f776e6572\n        /* \"#utility.yul\":15365:15366   */\n      0x00\n        /* \"#utility.yul\":15357:15363   */\n      dup3\n        /* \"#utility.yul\":15353:15367   */\n      add\n        /* \"#utility.yul\":15346:15404   */\n      mstore\n        /* \"#utility.yul\":15229:15411   */\n      pop\n      jump\t// out\n        /* \"#utility.yul\":15417:15663   */\n    tag_293:\n        /* \"#utility.yul\":15557:15591   */\n      0x43726564656e7469616c2043616c6c4261636b3a204f6e6c7920746865206f72\n        /* \"#utility.yul\":15553:15554   */\n      0x00\n        /* \"#utility.yul\":15545:15551   */\n      dup3\n        /* \"#utility.yul\":15541:15555   */\n      add\n        /* \"#utility.yul\":15534:15592   */\n      mstore\n        /* \"#utility.yul\":15626:15655   */\n      0x61636c652063616e2063616c6c20746869732066756e6374696f6e0000000000\n        /* \"#utility.yul\":15621:15623   */\n      0x20\n        /* \"#utility.yul\":15613:15619   */\n      dup3\n        /* \"#utility.yul\":15609:15624   */\n      add\n        /* \"#utility.yul\":15602:15656   */\n      mstore\n        /* \"#utility.yul\":15417:15663   */\n      pop\n      jump\t// out\n        /* \"#utility.yul\":15669:15791   */\n    tag_210:\n        /* \"#utility.yul\":15742:15766   */\n      tag_370\n        /* \"#utility.yul\":15760:15765   */\n      dup2\n        /* \"#utility.yul\":15742:15766   */\n      tag_258\n      jump\t// in\n    tag_370:\n        /* \"#utility.yul\":15735:15740   */\n      dup2\n        /* \"#utility.yul\":15732:15767   */\n      eq\n        /* \"#utility.yul\":15722:15785   */\n      tag_371\n      jumpi\n        /* \"#utility.yul\":15781:15782   */\n      0x00\n        /* \"#utility.yul\":15778:15779   */\n      dup1\n        /* \"#utility.yul\":15771:15783   */\n      revert\n        /* \"#utility.yul\":15722:15785   */\n    tag_371:\n        /* \"#utility.yul\":15669:15791   */\n      pop\n      jump\t// out\n\n    auxdata: 0xa2646970667358221220ebf299d86c23e044c5bf951dfee17db636ae964c6d63b615023527466d4bbb5b64736f6c63430008070033\n}\n",
				"bytecode": {
					"linkReferences": {},
					"object": "60806040523480156200001157600080fd5b506040516200170a3803806200170a833981810160405281019062000037919062000184565b80620000586200004c620000a160201b60201c565b620000a960201b60201c565b80600160006101000a81548173ffffffffffffffffffffffffffffffffffffffff021916908373ffffffffffffffffffffffffffffffffffffffff160217905550505062000209565b600033905090565b60008060009054906101000a900473ffffffffffffffffffffffffffffffffffffffff169050816000806101000a81548173ffffffffffffffffffffffffffffffffffffffff021916908373ffffffffffffffffffffffffffffffffffffffff1602179055508173ffffffffffffffffffffffffffffffffffffffff168173ffffffffffffffffffffffffffffffffffffffff167f8be0079c531659141344cd1fd0a4f28419497f9722a3daafe3b4186f6b6457e060405160405180910390a35050565b6000815190506200017e81620001ef565b92915050565b6000602082840312156200019d576200019c620001ea565b5b6000620001ad848285016200016d565b91505092915050565b6000620001c382620001ca565b9050919050565b600073ffffffffffffffffffffffffffffffffffffffff82169050919050565b600080fd5b620001fa81620001b6565b81146200020657600080fd5b50565b6114f180620002196000396000f3fe608060405234801561001057600080fd5b506004361061010b5760003560e01c80638da5cb5b116100a2578063c113344b11610071578063c113344b14610242578063c1d156761461025e578063cd68049214610268578063dce8a95514610284578063f2fde38b146102a05761010b565b80638da5cb5b146101d0578063a890e381146101ee578063b0c7f4c01461020a578063be58afb0146102265761010b565b8063715018a6116100de578063715018a614610184578063787a9a951461018e5780637fa25879146101aa57806389aeb071146101c65761010b565b806306fdde03146101105780630bf0ea181461012e578063436e99f31461014a5780635f7690b314610166575b600080fd5b6101186102bc565b604051610125919061109f565b60405180910390f35b61014860048036038101906101439190610e8c565b61034a565b005b610164600480360381019061015f9190610e43565b6103de565b005b61016e610471565b60405161017b9190611084565b60405180910390f35b61018c610497565b005b6101a860048036038101906101a39190610e43565b61051f565b005b6101c460048036038101906101bf9190610e43565b6105b2565b005b6101ce610645565b005b6101d86106c3565b6040516101e59190611069565b60405180910390f35b61020860048036038101906102039190610f04565b6106ec565b005b610224600480360381019061021f9190610e8c565b610786565b005b610240600480360381019061023b9190610f04565b61081a565b005b61025c60048036038101906102579190610f04565b6108cb565b005b610266610965565b005b610282600480360381019061027d9190610e43565b610967565b005b61029e60048036038101906102999190610e8c565b61096a565b005b6102ba60048036038101906102b59190610e16565b6109fe565b005b600380546102c9906112f2565b80601f01602080910402602001604051908101604052809291908181526020018280546102f5906112f2565b80156103425780601f1061031757610100808354040283529160200191610342565b820191906000526020600020905b81548152906001019060200180831161032557829003601f168201915b505050505081565b600160009054906101000a900473ffffffffffffffffffffffffffffffffffffffff1673ffffffffffffffffffffffffffffffffffffffff163373ffffffffffffffffffffffffffffffffffffffff16146103da576040517f08c379a00000000000000000000000000000000000000000000000000000000081526004016103d190611148565b60405180910390fd5b5050565b600160009054906101000a900473ffffffffffffffffffffffffffffffffffffffff1673ffffffffffffffffffffffffffffffffffffffff163373ffffffffffffffffffffffffffffffffffffffff161461046e576040517f08c379a000000000000000000000000000000000000000000000000000000000815260040161046590611148565b60405180910390fd5b50565b600260009054906101000a900473ffffffffffffffffffffffffffffffffffffffff1681565b61049f610af6565b73ffffffffffffffffffffffffffffffffffffffff166104bd6106c3565b73ffffffffffffffffffffffffffffffffffffffff1614610513576040517f08c379a000000000000000000000000000000000000000000000000000000000815260040161050a90611128565b60405180910390fd5b61051d6000610afe565b565b600160009054906101000a900473ffffffffffffffffffffffffffffffffffffffff1673ffffffffffffffffffffffffffffffffffffffff163373ffffffffffffffffffffffffffffffffffffffff16146105af576040517f08c379a00000000000000000000000000000000000000000000000000000000081526004016105a690611148565b60405180910390fd5b50565b600160009054906101000a900473ffffffffffffffffffffffffffffffffffffffff1673ffffffffffffffffffffffffffffffffffffffff163373ffffffffffffffffffffffffffffffffffffffff1614610642576040517f08c379a000000000000000000000000000000000000000000000000000000000815260040161063990611148565b60405180910390fd5b50565b61064d610af6565b73ffffffffffffffffffffffffffffffffffffffff1661066b6106c3565b73ffffffffffffffffffffffffffffffffffffffff16146106c1576040517f08c379a00000000000000000000000000000000000000000000000000000000081526004016106b890611128565b60405180910390fd5b565b60008060009054906101000a900473ffffffffffffffffffffffffffffffffffffffff16905090565b80600260009054906101000a900473ffffffffffffffffffffffffffffffffffffffff1673ffffffffffffffffffffffffffffffffffffffff16631a971c1b82336000366040518563ffffffff1660e01b815260040161074f94939291906110c1565b600060405180830381600087803b15801561076957600080fd5b505af115801561077d573d6000803e3d6000fd5b50505050505050565b600160009054906101000a900473ffffffffffffffffffffffffffffffffffffffff1673ffffffffffffffffffffffffffffffffffffffff163373ffffffffffffffffffffffffffffffffffffffff1614610816576040517f08c379a000000000000000000000000000000000000000000000000000000000815260040161080d90611148565b60405180910390fd5b5050565b80600260009054906101000a900473ffffffffffffffffffffffffffffffffffffffff1673ffffffffffffffffffffffffffffffffffffffff16631a971c1b82336000366040518563ffffffff1660e01b815260040161087d94939291906110c1565b600060405180830381600087803b15801561089757600080fd5b505af11580156108ab573d6000803e3d6000fd5b5050505082600390805190602001906108c5929190610bc2565b50505050565b80600260009054906101000a900473ffffffffffffffffffffffffffffffffffffffff1673ffffffffffffffffffffffffffffffffffffffff16631a971c1b82336000366040518563ffffffff1660e01b815260040161092e94939291906110c1565b600060405180830381600087803b15801561094857600080fd5b505af115801561095c573d6000803e3d6000fd5b50505050505050565b565b50565b600160009054906101000a900473ffffffffffffffffffffffffffffffffffffffff1673ffffffffffffffffffffffffffffffffffffffff163373ffffffffffffffffffffffffffffffffffffffff16146109fa576040517f08c379a00000000000000000000000000000000000000000000000000000000081526004016109f190611148565b60405180910390fd5b5050565b610a06610af6565b73ffffffffffffffffffffffffffffffffffffffff16610a246106c3565b73ffffffffffffffffffffffffffffffffffffffff1614610a7a576040517f08c379a0000000000000000000000000000000000000000000000000000000008152600401610a7190611128565b60405180910390fd5b600073ffffffffffffffffffffffffffffffffffffffff168173ffffffffffffffffffffffffffffffffffffffff161415610aea576040517f08c379a0000000000000000000000000000000000000000000000000000000008152600401610ae190611108565b60405180910390fd5b610af381610afe565b50565b600033905090565b60008060009054906101000a900473ffffffffffffffffffffffffffffffffffffffff169050816000806101000a81548173ffffffffffffffffffffffffffffffffffffffff021916908373ffffffffffffffffffffffffffffffffffffffff1602179055508173ffffffffffffffffffffffffffffffffffffffff168173ffffffffffffffffffffffffffffffffffffffff167f8be0079c531659141344cd1fd0a4f28419497f9722a3daafe3b4186f6b6457e060405160405180910390a35050565b828054610bce906112f2565b90600052602060002090601f016020900481019282610bf05760008555610c37565b82601f10610c0957805160ff1916838001178555610c37565b82800160010185558215610c37579182015b82811115610c36578251825591602001919060010190610c1b565b5b509050610c449190610c48565b5090565b5b80821115610c61576000816000905550600101610c49565b5090565b6000610c78610c738461118d565b611168565b90508083825260208201905082856020860282011115610c9b57610c9a6113b8565b5b60005b85811015610ce957813567ffffffffffffffff811115610cc157610cc06113b3565b5b808601610cce8982610dba565b85526020850194506020840193505050600181019050610c9e565b5050509392505050565b6000610d06610d01846111b9565b611168565b905082815260208101848484011115610d2257610d216113bd565b5b610d2d8482856112b0565b509392505050565b6000610d48610d43846111ea565b611168565b905082815260208101848484011115610d6457610d636113bd565b5b610d6f8482856112b0565b509392505050565b600081359050610d86816114a4565b92915050565b600082601f830112610da157610da06113b3565b5b8135610db1848260208601610c65565b91505092915050565b600082601f830112610dcf57610dce6113b3565b5b8135610ddf848260208601610cf3565b91505092915050565b600082601f830112610dfd57610dfc6113b3565b5b8135610e0d848260208601610d35565b91505092915050565b600060208284031215610e2c57610e2b6113c7565b5b6000610e3a84828501610d77565b91505092915050565b600060208284031215610e5957610e586113c7565b5b600082013567ffffffffffffffff811115610e7757610e766113c2565b5b610e8384828501610de8565b91505092915050565b60008060408385031215610ea357610ea26113c7565b5b600083013567ffffffffffffffff811115610ec157610ec06113c2565b5b610ecd85828601610de8565b925050602083013567ffffffffffffffff811115610eee57610eed6113c2565b5b610efa85828601610d8c565b9150509250929050565b60008060408385031215610f1b57610f1a6113c7565b5b600083013567ffffffffffffffff811115610f3957610f386113c2565b5b610f4585828601610de8565b925050602083013567ffffffffffffffff811115610f6657610f656113c2565b5b610f7285828601610de8565b9150509250929050565b610f8581611248565b82525050565b6000610f978385611226565b9350610fa48385846112b0565b610fad836113cc565b840190509392505050565b610fc18161127a565b82525050565b6000610fd28261121b565b610fdc8185611237565b9350610fec8185602086016112bf565b610ff5816113cc565b840191505092915050565b600061100d602683611237565b9150611018826113dd565b604082019050919050565b6000611030602083611237565b915061103b8261142c565b602082019050919050565b6000611053603b83611237565b915061105e82611455565b604082019050919050565b600060208201905061107e6000830184610f7c565b92915050565b60006020820190506110996000830184610fb8565b92915050565b600060208201905081810360008301526110b98184610fc7565b905092915050565b600060608201905081810360008301526110db8187610fc7565b90506110ea6020830186610f7c565b81810360408301526110fd818486610f8b565b905095945050505050565b6000602082019050818103600083015261112181611000565b9050919050565b6000602082019050818103600083015261114181611023565b9050919050565b6000602082019050818103600083015261116181611046565b9050919050565b6000611172611183565b905061117e8282611324565b919050565b6000604051905090565b600067ffffffffffffffff8211156111a8576111a7611384565b5b602082029050602081019050919050565b600067ffffffffffffffff8211156111d4576111d3611384565b5b6111dd826113cc565b9050602081019050919050565b600067ffffffffffffffff82111561120557611204611384565b5b61120e826113cc565b9050602081019050919050565b600081519050919050565b600082825260208201905092915050565b600082825260208201905092915050565b60006112538261125a565b9050919050565b600073ffffffffffffffffffffffffffffffffffffffff82169050919050565b60006112858261128c565b9050919050565b60006112978261129e565b9050919050565b60006112a98261125a565b9050919050565b82818337600083830152505050565b60005b838110156112dd5780820151818401526020810190506112c2565b838111156112ec576000848401525b50505050565b6000600282049050600182168061130a57607f821691505b6020821081141561131e5761131d611355565b5b50919050565b61132d826113cc565b810181811067ffffffffffffffff8211171561134c5761134b611384565b5b80604052505050565b7f4e487b7100000000000000000000000000000000000000000000000000000000600052602260045260246000fd5b7f4e487b7100000000000000000000000000000000000000000000000000000000600052604160045260246000fd5b600080fd5b600080fd5b600080fd5b600080fd5b600080fd5b6000601f19601f8301169050919050565b7f4f776e61626c653a206e6577206f776e657220697320746865207a65726f206160008201527f6464726573730000000000000000000000000000000000000000000000000000602082015250565b7f4f776e61626c653a2063616c6c6572206973206e6f7420746865206f776e6572600082015250565b7f43726564656e7469616c2043616c6c4261636b3a204f6e6c7920746865206f7260008201527f61636c652063616e2063616c6c20746869732066756e6374696f6e0000000000602082015250565b6114ad81611248565b81146114b857600080fd5b5056fea2646970667358221220ebf299d86c23e044c5bf951dfee17db636ae964c6d63b615023527466d4bbb5b64736f6c63430008070033",
					"opcodes": "PUSH1 0x80 PUSH1 0x40 MSTORE CALLVALUE DUP1 ISZERO PUSH3 0x11 JUMPI PUSH1 0x0 DUP1 REVERT JUMPDEST POP PUSH1 0x40 MLOAD PUSH3 0x170A CODESIZE SUB DUP1 PUSH3 0x170A DUP4 CODECOPY DUP2 DUP2 ADD PUSH1 0x40 MSTORE DUP2 ADD SWAP1 PUSH3 0x37 SWAP2 SWAP1 PUSH3 0x184 JUMP JUMPDEST DUP1 PUSH3 0x58 PUSH3 0x4C PUSH3 0xA1 PUSH1 0x20 SHL PUSH1 0x20 SHR JUMP JUMPDEST PUSH3 0xA9 PUSH1 0x20 SHL PUSH1 0x20 SHR JUMP JUMPDEST DUP1 PUSH1 0x1 PUSH1 0x0 PUSH2 0x100 EXP DUP2 SLOAD DUP2 PUSH20 0xFFFFFFFFFFFFFFFFFFFFFFFFFFFFFFFFFFFFFFFF MUL NOT AND SWAP1 DUP4 PUSH20 0xFFFFFFFFFFFFFFFFFFFFFFFFFFFFFFFFFFFFFFFF AND MUL OR SWAP1 SSTORE POP POP POP PUSH3 0x209 JUMP JUMPDEST PUSH1 0x0 CALLER SWAP1 POP SWAP1 JUMP JUMPDEST PUSH1 0x0 DUP1 PUSH1 0x0 SWAP1 SLOAD SWAP1 PUSH2 0x100 EXP SWAP1 DIV PUSH20 0xFFFFFFFFFFFFFFFFFFFFFFFFFFFFFFFFFFFFFFFF AND SWAP1 POP DUP2 PUSH1 0x0 DUP1 PUSH2 0x100 EXP DUP2 SLOAD DUP2 PUSH20 0xFFFFFFFFFFFFFFFFFFFFFFFFFFFFFFFFFFFFFFFF MUL NOT AND SWAP1 DUP4 PUSH20 0xFFFFFFFFFFFFFFFFFFFFFFFFFFFFFFFFFFFFFFFF AND MUL OR SWAP1 SSTORE POP DUP2 PUSH20 0xFFFFFFFFFFFFFFFFFFFFFFFFFFFFFFFFFFFFFFFF AND DUP2 PUSH20 0xFFFFFFFFFFFFFFFFFFFFFFFFFFFFFFFFFFFFFFFF AND PUSH32 0x8BE0079C531659141344CD1FD0A4F28419497F9722A3DAAFE3B4186F6B6457E0 PUSH1 0x40 MLOAD PUSH1 0x40 MLOAD DUP1 SWAP2 SUB SWAP1 LOG3 POP POP JUMP JUMPDEST PUSH1 0x0 DUP2 MLOAD SWAP1 POP PUSH3 0x17E DUP2 PUSH3 0x1EF JUMP JUMPDEST SWAP3 SWAP2 POP POP JUMP JUMPDEST PUSH1 0x0 PUSH1 0x20 DUP3 DUP5 SUB SLT ISZERO PUSH3 0x19D JUMPI PUSH3 0x19C PUSH3 0x1EA JUMP JUMPDEST JUMPDEST PUSH1 0x0 PUSH3 0x1AD DUP5 DUP3 DUP6 ADD PUSH3 0x16D JUMP JUMPDEST SWAP2 POP POP SWAP3 SWAP2 POP POP JUMP JUMPDEST PUSH1 0x0 PUSH3 0x1C3 DUP3 PUSH3 0x1CA JUMP JUMPDEST SWAP1 POP SWAP2 SWAP1 POP JUMP JUMPDEST PUSH1 0x0 PUSH20 0xFFFFFFFFFFFFFFFFFFFFFFFFFFFFFFFFFFFFFFFF DUP3 AND SWAP1 POP SWAP2 SWAP1 POP JUMP JUMPDEST PUSH1 0x0 DUP1 REVERT JUMPDEST PUSH3 0x1FA DUP2 PUSH3 0x1B6 JUMP JUMPDEST DUP2 EQ PUSH3 0x206 JUMPI PUSH1 0x0 DUP1 REVERT JUMPDEST POP JUMP JUMPDEST PUSH2 0x14F1 DUP1 PUSH3 0x219 PUSH1 0x0 CODECOPY PUSH1 0x0 RETURN INVALID PUSH1 0x80 PUSH1 0x40 MSTORE CALLVALUE DUP1 ISZERO PUSH2 0x10 JUMPI PUSH1 0x0 DUP1 REVERT JUMPDEST POP PUSH1 0x4 CALLDATASIZE LT PUSH2 0x10B JUMPI PUSH1 0x0 CALLDATALOAD PUSH1 0xE0 SHR DUP1 PUSH4 0x8DA5CB5B GT PUSH2 0xA2 JUMPI DUP1 PUSH4 0xC113344B GT PUSH2 0x71 JUMPI DUP1 PUSH4 0xC113344B EQ PUSH2 0x242 JUMPI DUP1 PUSH4 0xC1D15676 EQ PUSH2 0x25E JUMPI DUP1 PUSH4 0xCD680492 EQ PUSH2 0x268 JUMPI DUP1 PUSH4 0xDCE8A955 EQ PUSH2 0x284 JUMPI DUP1 PUSH4 0xF2FDE38B EQ PUSH2 0x2A0 JUMPI PUSH2 0x10B JUMP JUMPDEST DUP1 PUSH4 0x8DA5CB5B EQ PUSH2 0x1D0 JUMPI DUP1 PUSH4 0xA890E381 EQ PUSH2 0x1EE JUMPI DUP1 PUSH4 0xB0C7F4C0 EQ PUSH2 0x20A JUMPI DUP1 PUSH4 0xBE58AFB0 EQ PUSH2 0x226 JUMPI PUSH2 0x10B JUMP JUMPDEST DUP1 PUSH4 0x715018A6 GT PUSH2 0xDE JUMPI DUP1 PUSH4 0x715018A6 EQ PUSH2 0x184 JUMPI DUP1 PUSH4 0x787A9A95 EQ PUSH2 0x18E JUMPI DUP1 PUSH4 0x7FA25879 EQ PUSH2 0x1AA JUMPI DUP1 PUSH4 0x89AEB071 EQ PUSH2 0x1C6 JUMPI PUSH2 0x10B JUMP JUMPDEST DUP1 PUSH4 0x6FDDE03 EQ PUSH2 0x110 JUMPI DUP1 PUSH4 0xBF0EA18 EQ PUSH2 0x12E JUMPI DUP1 PUSH4 0x436E99F3 EQ PUSH2 0x14A JUMPI DUP1 PUSH4 0x5F7690B3 EQ PUSH2 0x166 JUMPI JUMPDEST PUSH1 0x0 DUP1 REVERT JUMPDEST PUSH2 0x118 PUSH2 0x2BC JUMP JUMPDEST PUSH1 0x40 MLOAD PUSH2 0x125 SWAP2 SWAP1 PUSH2 0x109F JUMP JUMPDEST PUSH1 0x40 MLOAD DUP1 SWAP2 SUB SWAP1 RETURN JUMPDEST PUSH2 0x148 PUSH1 0x4 DUP1 CALLDATASIZE SUB DUP2 ADD SWAP1 PUSH2 0x143 SWAP2 SWAP1 PUSH2 0xE8C JUMP JUMPDEST PUSH2 0x34A JUMP JUMPDEST STOP JUMPDEST PUSH2 0x164 PUSH1 0x4 DUP1 CALLDATASIZE SUB DUP2 ADD SWAP1 PUSH2 0x15F SWAP2 SWAP1 PUSH2 0xE43 JUMP JUMPDEST PUSH2 0x3DE JUMP JUMPDEST STOP JUMPDEST PUSH2 0x16E PUSH2 0x471 JUMP JUMPDEST PUSH1 0x40 MLOAD PUSH2 0x17B SWAP2 SWAP1 PUSH2 0x1084 JUMP JUMPDEST PUSH1 0x40 MLOAD DUP1 SWAP2 SUB SWAP1 RETURN JUMPDEST PUSH2 0x18C PUSH2 0x497 JUMP JUMPDEST STOP JUMPDEST PUSH2 0x1A8 PUSH1 0x4 DUP1 CALLDATASIZE SUB DUP2 ADD SWAP1 PUSH2 0x1A3 SWAP2 SWAP1 PUSH2 0xE43 JUMP JUMPDEST PUSH2 0x51F JUMP JUMPDEST STOP JUMPDEST PUSH2 0x1C4 PUSH1 0x4 DUP1 CALLDATASIZE SUB DUP2 ADD SWAP1 PUSH2 0x1BF SWAP2 SWAP1 PUSH2 0xE43 JUMP JUMPDEST PUSH2 0x5B2 JUMP JUMPDEST STOP JUMPDEST PUSH2 0x1CE PUSH2 0x645 JUMP JUMPDEST STOP JUMPDEST PUSH2 0x1D8 PUSH2 0x6C3 JUMP JUMPDEST PUSH1 0x40 MLOAD PUSH2 0x1E5 SWAP2 SWAP1 PUSH2 0x1069 JUMP JUMPDEST PUSH1 0x40 MLOAD DUP1 SWAP2 SUB SWAP1 RETURN JUMPDEST PUSH2 0x208 PUSH1 0x4 DUP1 CALLDATASIZE SUB DUP2 ADD SWAP1 PUSH2 0x203 SWAP2 SWAP1 PUSH2 0xF04 JUMP JUMPDEST PUSH2 0x6EC JUMP JUMPDEST STOP JUMPDEST PUSH2 0x224 PUSH1 0x4 DUP1 CALLDATASIZE SUB DUP2 ADD SWAP1 PUSH2 0x21F SWAP2 SWAP1 PUSH2 0xE8C JUMP JUMPDEST PUSH2 0x786 JUMP JUMPDEST STOP JUMPDEST PUSH2 0x240 PUSH1 0x4 DUP1 CALLDATASIZE SUB DUP2 ADD SWAP1 PUSH2 0x23B SWAP2 SWAP1 PUSH2 0xF04 JUMP JUMPDEST PUSH2 0x81A JUMP JUMPDEST STOP JUMPDEST PUSH2 0x25C PUSH1 0x4 DUP1 CALLDATASIZE SUB DUP2 ADD SWAP1 PUSH2 0x257 SWAP2 SWAP1 PUSH2 0xF04 JUMP JUMPDEST PUSH2 0x8CB JUMP JUMPDEST STOP JUMPDEST PUSH2 0x266 PUSH2 0x965 JUMP JUMPDEST STOP JUMPDEST PUSH2 0x282 PUSH1 0x4 DUP1 CALLDATASIZE SUB DUP2 ADD SWAP1 PUSH2 0x27D SWAP2 SWAP1 PUSH2 0xE43 JUMP JUMPDEST PUSH2 0x967 JUMP JUMPDEST STOP JUMPDEST PUSH2 0x29E PUSH1 0x4 DUP1 CALLDATASIZE SUB DUP2 ADD SWAP1 PUSH2 0x299 SWAP2 SWAP1 PUSH2 0xE8C JUMP JUMPDEST PUSH2 0x96A JUMP JUMPDEST STOP JUMPDEST PUSH2 0x2BA PUSH1 0x4 DUP1 CALLDATASIZE SUB DUP2 ADD SWAP1 PUSH2 0x2B5 SWAP2 SWAP1 PUSH2 0xE16 JUMP JUMPDEST PUSH2 0x9FE JUMP JUMPDEST STOP JUMPDEST PUSH1 0x3 DUP1 SLOAD PUSH2 0x2C9 SWAP1 PUSH2 0x12F2 JUMP JUMPDEST DUP1 PUSH1 0x1F ADD PUSH1 0x20 DUP1 SWAP2 DIV MUL PUSH1 0x20 ADD PUSH1 0x40 MLOAD SWAP1 DUP2 ADD PUSH1 0x40 MSTORE DUP1 SWAP3 SWAP2 SWAP1 DUP2 DUP2 MSTORE PUSH1 0x20 ADD DUP3 DUP1 SLOAD PUSH2 0x2F5 SWAP1 PUSH2 0x12F2 JUMP JUMPDEST DUP1 ISZERO PUSH2 0x342 JUMPI DUP1 PUSH1 0x1F LT PUSH2 0x317 JUMPI PUSH2 0x100 DUP1 DUP4 SLOAD DIV MUL DUP4 MSTORE SWAP2 PUSH1 0x20 ADD SWAP2 PUSH2 0x342 JUMP JUMPDEST DUP3 ADD SWAP2 SWAP1 PUSH1 0x0 MSTORE PUSH1 0x20 PUSH1 0x0 KECCAK256 SWAP1 JUMPDEST DUP2 SLOAD DUP2 MSTORE SWAP1 PUSH1 0x1 ADD SWAP1 PUSH1 0x20 ADD DUP1 DUP4 GT PUSH2 0x325 JUMPI DUP3 SWAP1 SUB PUSH1 0x1F AND DUP3 ADD SWAP2 JUMPDEST POP POP POP POP POP DUP2 JUMP JUMPDEST PUSH1 0x1 PUSH1 0x0 SWAP1 SLOAD SWAP1 PUSH2 0x100 EXP SWAP1 DIV PUSH20 0xFFFFFFFFFFFFFFFFFFFFFFFFFFFFFFFFFFFFFFFF AND PUSH20 0xFFFFFFFFFFFFFFFFFFFFFFFFFFFFFFFFFFFFFFFF AND CALLER PUSH20 0xFFFFFFFFFFFFFFFFFFFFFFFFFFFFFFFFFFFFFFFF AND EQ PUSH2 0x3DA JUMPI PUSH1 0x40 MLOAD PUSH32 0x8C379A000000000000000000000000000000000000000000000000000000000 DUP2 MSTORE PUSH1 0x4 ADD PUSH2 0x3D1 SWAP1 PUSH2 0x1148 JUMP JUMPDEST PUSH1 0x40 MLOAD DUP1 SWAP2 SUB SWAP1 REVERT JUMPDEST POP POP JUMP JUMPDEST PUSH1 0x1 PUSH1 0x0 SWAP1 SLOAD SWAP1 PUSH2 0x100 EXP SWAP1 DIV PUSH20 0xFFFFFFFFFFFFFFFFFFFFFFFFFFFFFFFFFFFFFFFF AND PUSH20 0xFFFFFFFFFFFFFFFFFFFFFFFFFFFFFFFFFFFFFFFF AND CALLER PUSH20 0xFFFFFFFFFFFFFFFFFFFFFFFFFFFFFFFFFFFFFFFF AND EQ PUSH2 0x46E JUMPI PUSH1 0x40 MLOAD PUSH32 0x8C379A000000000000000000000000000000000000000000000000000000000 DUP2 MSTORE PUSH1 0x4 ADD PUSH2 0x465 SWAP1 PUSH2 0x1148 JUMP JUMPDEST PUSH1 0x40 MLOAD DUP1 SWAP2 SUB SWAP1 REVERT JUMPDEST POP JUMP JUMPDEST PUSH1 0x2 PUSH1 0x0 SWAP1 SLOAD SWAP1 PUSH2 0x100 EXP SWAP1 DIV PUSH20 0xFFFFFFFFFFFFFFFFFFFFFFFFFFFFFFFFFFFFFFFF AND DUP2 JUMP JUMPDEST PUSH2 0x49F PUSH2 0xAF6 JUMP JUMPDEST PUSH20 0xFFFFFFFFFFFFFFFFFFFFFFFFFFFFFFFFFFFFFFFF AND PUSH2 0x4BD PUSH2 0x6C3 JUMP JUMPDEST PUSH20 0xFFFFFFFFFFFFFFFFFFFFFFFFFFFFFFFFFFFFFFFF AND EQ PUSH2 0x513 JUMPI PUSH1 0x40 MLOAD PUSH32 0x8C379A000000000000000000000000000000000000000000000000000000000 DUP2 MSTORE PUSH1 0x4 ADD PUSH2 0x50A SWAP1 PUSH2 0x1128 JUMP JUMPDEST PUSH1 0x40 MLOAD DUP1 SWAP2 SUB SWAP1 REVERT JUMPDEST PUSH2 0x51D PUSH1 0x0 PUSH2 0xAFE JUMP JUMPDEST JUMP JUMPDEST PUSH1 0x1 PUSH1 0x0 SWAP1 SLOAD SWAP1 PUSH2 0x100 EXP SWAP1 DIV PUSH20 0xFFFFFFFFFFFFFFFFFFFFFFFFFFFFFFFFFFFFFFFF AND PUSH20 0xFFFFFFFFFFFFFFFFFFFFFFFFFFFFFFFFFFFFFFFF AND CALLER PUSH20 0xFFFFFFFFFFFFFFFFFFFFFFFFFFFFFFFFFFFFFFFF AND EQ PUSH2 0x5AF JUMPI PUSH1 0x40 MLOAD PUSH32 0x8C379A000000000000000000000000000000000000000000000000000000000 DUP2 MSTORE PUSH1 0x4 ADD PUSH2 0x5A6 SWAP1 PUSH2 0x1148 JUMP JUMPDEST PUSH1 0x40 MLOAD DUP1 SWAP2 SUB SWAP1 REVERT JUMPDEST POP JUMP JUMPDEST PUSH1 0x1 PUSH1 0x0 SWAP1 SLOAD SWAP1 PUSH2 0x100 EXP SWAP1 DIV PUSH20 0xFFFFFFFFFFFFFFFFFFFFFFFFFFFFFFFFFFFFFFFF AND PUSH20 0xFFFFFFFFFFFFFFFFFFFFFFFFFFFFFFFFFFFFFFFF AND CALLER PUSH20 0xFFFFFFFFFFFFFFFFFFFFFFFFFFFFFFFFFFFFFFFF AND EQ PUSH2 0x642 JUMPI PUSH1 0x40 MLOAD PUSH32 0x8C379A000000000000000000000000000000000000000000000000000000000 DUP2 MSTORE PUSH1 0x4 ADD PUSH2 0x639 SWAP1 PUSH2 0x1148 JUMP JUMPDEST PUSH1 0x40 MLOAD DUP1 SWAP2 SUB SWAP1 REVERT JUMPDEST POP JUMP JUMPDEST PUSH2 0x64D PUSH2 0xAF6 JUMP JUMPDEST PUSH20 0xFFFFFFFFFFFFFFFFFFFFFFFFFFFFFFFFFFFFFFFF AND PUSH2 0x66B PUSH2 0x6C3 JUMP JUMPDEST PUSH20 0xFFFFFFFFFFFFFFFFFFFFFFFFFFFFFFFFFFFFFFFF AND EQ PUSH2 0x6C1 JUMPI PUSH1 0x40 MLOAD PUSH32 0x8C379A000000000000000000000000000000000000000000000000000000000 DUP2 MSTORE PUSH1 0x4 ADD PUSH2 0x6B8 SWAP1 PUSH2 0x1128 JUMP JUMPDEST PUSH1 0x40 MLOAD DUP1 SWAP2 SUB SWAP1 REVERT JUMPDEST JUMP JUMPDEST PUSH1 0x0 DUP1 PUSH1 0x0 SWAP1 SLOAD SWAP1 PUSH2 0x100 EXP SWAP1 DIV PUSH20 0xFFFFFFFFFFFFFFFFFFFFFFFFFFFFFFFFFFFFFFFF AND SWAP1 POP SWAP1 JUMP JUMPDEST DUP1 PUSH1 0x2 PUSH1 0x0 SWAP1 SLOAD SWAP1 PUSH2 0x100 EXP SWAP1 DIV PUSH20 0xFFFFFFFFFFFFFFFFFFFFFFFFFFFFFFFFFFFFFFFF AND PUSH20 0xFFFFFFFFFFFFFFFFFFFFFFFFFFFFFFFFFFFFFFFF AND PUSH4 0x1A971C1B DUP3 CALLER PUSH1 0x0 CALLDATASIZE PUSH1 0x40 MLOAD DUP6 PUSH4 0xFFFFFFFF AND PUSH1 0xE0 SHL DUP2 MSTORE PUSH1 0x4 ADD PUSH2 0x74F SWAP5 SWAP4 SWAP3 SWAP2 SWAP1 PUSH2 0x10C1 JUMP JUMPDEST PUSH1 0x0 PUSH1 0x40 MLOAD DUP1 DUP4 SUB DUP2 PUSH1 0x0 DUP8 DUP1 EXTCODESIZE ISZERO DUP1 ISZERO PUSH2 0x769 JUMPI PUSH1 0x0 DUP1 REVERT JUMPDEST POP GAS CALL ISZERO DUP1 ISZERO PUSH2 0x77D JUMPI RETURNDATASIZE PUSH1 0x0 DUP1 RETURNDATACOPY RETURNDATASIZE PUSH1 0x0 REVERT JUMPDEST POP POP POP POP POP POP POP JUMP JUMPDEST PUSH1 0x1 PUSH1 0x0 SWAP1 SLOAD SWAP1 PUSH2 0x100 EXP SWAP1 DIV PUSH20 0xFFFFFFFFFFFFFFFFFFFFFFFFFFFFFFFFFFFFFFFF AND PUSH20 0xFFFFFFFFFFFFFFFFFFFFFFFFFFFFFFFFFFFFFFFF AND CALLER PUSH20 0xFFFFFFFFFFFFFFFFFFFFFFFFFFFFFFFFFFFFFFFF AND EQ PUSH2 0x816 JUMPI PUSH1 0x40 MLOAD PUSH32 0x8C379A000000000000000000000000000000000000000000000000000000000 DUP2 MSTORE PUSH1 0x4 ADD PUSH2 0x80D SWAP1 PUSH2 0x1148 JUMP JUMPDEST PUSH1 0x40 MLOAD DUP1 SWAP2 SUB SWAP1 REVERT JUMPDEST POP POP JUMP JUMPDEST DUP1 PUSH1 0x2 PUSH1 0x0 SWAP1 SLOAD SWAP1 PUSH2 0x100 EXP SWAP1 DIV PUSH20 0xFFFFFFFFFFFFFFFFFFFFFFFFFFFFFFFFFFFFFFFF AND PUSH20 0xFFFFFFFFFFFFFFFFFFFFFFFFFFFFFFFFFFFFFFFF AND PUSH4 0x1A971C1B DUP3 CALLER PUSH1 0x0 CALLDATASIZE PUSH1 0x40 MLOAD DUP6 PUSH4 0xFFFFFFFF AND PUSH1 0xE0 SHL DUP2 MSTORE PUSH1 0x4 ADD PUSH2 0x87D SWAP5 SWAP4 SWAP3 SWAP2 SWAP1 PUSH2 0x10C1 JUMP JUMPDEST PUSH1 0x0 PUSH1 0x40 MLOAD DUP1 DUP4 SUB DUP2 PUSH1 0x0 DUP8 DUP1 EXTCODESIZE ISZERO DUP1 ISZERO PUSH2 0x897 JUMPI PUSH1 0x0 DUP1 REVERT JUMPDEST POP GAS CALL ISZERO DUP1 ISZERO PUSH2 0x8AB JUMPI RETURNDATASIZE PUSH1 0x0 DUP1 RETURNDATACOPY RETURNDATASIZE PUSH1 0x0 REVERT JUMPDEST POP POP POP POP DUP3 PUSH1 0x3 SWAP1 DUP1 MLOAD SWAP1 PUSH1 0x20 ADD SWAP1 PUSH2 0x8C5 SWAP3 SWAP2 SWAP1 PUSH2 0xBC2 JUMP JUMPDEST POP POP POP POP JUMP JUMPDEST DUP1 PUSH1 0x2 PUSH1 0x0 SWAP1 SLOAD SWAP1 PUSH2 0x100 EXP SWAP1 DIV PUSH20 0xFFFFFFFFFFFFFFFFFFFFFFFFFFFFFFFFFFFFFFFF AND PUSH20 0xFFFFFFFFFFFFFFFFFFFFFFFFFFFFFFFFFFFFFFFF AND PUSH4 0x1A971C1B DUP3 CALLER PUSH1 0x0 CALLDATASIZE PUSH1 0x40 MLOAD DUP6 PUSH4 0xFFFFFFFF AND PUSH1 0xE0 SHL DUP2 MSTORE PUSH1 0x4 ADD PUSH2 0x92E SWAP5 SWAP4 SWAP3 SWAP2 SWAP1 PUSH2 0x10C1 JUMP JUMPDEST PUSH1 0x0 PUSH1 0x40 MLOAD DUP1 DUP4 SUB DUP2 PUSH1 0x0 DUP8 DUP1 EXTCODESIZE ISZERO DUP1 ISZERO PUSH2 0x948 JUMPI PUSH1 0x0 DUP1 REVERT JUMPDEST POP GAS CALL ISZERO DUP1 ISZERO PUSH2 0x95C JUMPI RETURNDATASIZE PUSH1 0x0 DUP1 RETURNDATACOPY RETURNDATASIZE PUSH1 0x0 REVERT JUMPDEST POP POP POP POP POP POP POP JUMP JUMPDEST JUMP JUMPDEST POP JUMP JUMPDEST PUSH1 0x1 PUSH1 0x0 SWAP1 SLOAD SWAP1 PUSH2 0x100 EXP SWAP1 DIV PUSH20 0xFFFFFFFFFFFFFFFFFFFFFFFFFFFFFFFFFFFFFFFF AND PUSH20 0xFFFFFFFFFFFFFFFFFFFFFFFFFFFFFFFFFFFFFFFF AND CALLER PUSH20 0xFFFFFFFFFFFFFFFFFFFFFFFFFFFFFFFFFFFFFFFF AND EQ PUSH2 0x9FA JUMPI PUSH1 0x40 MLOAD PUSH32 0x8C379A000000000000000000000000000000000000000000000000000000000 DUP2 MSTORE PUSH1 0x4 ADD PUSH2 0x9F1 SWAP1 PUSH2 0x1148 JUMP JUMPDEST PUSH1 0x40 MLOAD DUP1 SWAP2 SUB SWAP1 REVERT JUMPDEST POP POP JUMP JUMPDEST PUSH2 0xA06 PUSH2 0xAF6 JUMP JUMPDEST PUSH20 0xFFFFFFFFFFFFFFFFFFFFFFFFFFFFFFFFFFFFFFFF AND PUSH2 0xA24 PUSH2 0x6C3 JUMP JUMPDEST PUSH20 0xFFFFFFFFFFFFFFFFFFFFFFFFFFFFFFFFFFFFFFFF AND EQ PUSH2 0xA7A JUMPI PUSH1 0x40 MLOAD PUSH32 0x8C379A000000000000000000000000000000000000000000000000000000000 DUP2 MSTORE PUSH1 0x4 ADD PUSH2 0xA71 SWAP1 PUSH2 0x1128 JUMP JUMPDEST PUSH1 0x40 MLOAD DUP1 SWAP2 SUB SWAP1 REVERT JUMPDEST PUSH1 0x0 PUSH20 0xFFFFFFFFFFFFFFFFFFFFFFFFFFFFFFFFFFFFFFFF AND DUP2 PUSH20 0xFFFFFFFFFFFFFFFFFFFFFFFFFFFFFFFFFFFFFFFF AND EQ ISZERO PUSH2 0xAEA JUMPI PUSH1 0x40 MLOAD PUSH32 0x8C379A000000000000000000000000000000000000000000000000000000000 DUP2 MSTORE PUSH1 0x4 ADD PUSH2 0xAE1 SWAP1 PUSH2 0x1108 JUMP JUMPDEST PUSH1 0x40 MLOAD DUP1 SWAP2 SUB SWAP1 REVERT JUMPDEST PUSH2 0xAF3 DUP2 PUSH2 0xAFE JUMP JUMPDEST POP JUMP JUMPDEST PUSH1 0x0 CALLER SWAP1 POP SWAP1 JUMP JUMPDEST PUSH1 0x0 DUP1 PUSH1 0x0 SWAP1 SLOAD SWAP1 PUSH2 0x100 EXP SWAP1 DIV PUSH20 0xFFFFFFFFFFFFFFFFFFFFFFFFFFFFFFFFFFFFFFFF AND SWAP1 POP DUP2 PUSH1 0x0 DUP1 PUSH2 0x100 EXP DUP2 SLOAD DUP2 PUSH20 0xFFFFFFFFFFFFFFFFFFFFFFFFFFFFFFFFFFFFFFFF MUL NOT AND SWAP1 DUP4 PUSH20 0xFFFFFFFFFFFFFFFFFFFFFFFFFFFFFFFFFFFFFFFF AND MUL OR SWAP1 SSTORE POP DUP2 PUSH20 0xFFFFFFFFFFFFFFFFFFFFFFFFFFFFFFFFFFFFFFFF AND DUP2 PUSH20 0xFFFFFFFFFFFFFFFFFFFFFFFFFFFFFFFFFFFFFFFF AND PUSH32 0x8BE0079C531659141344CD1FD0A4F28419497F9722A3DAAFE3B4186F6B6457E0 PUSH1 0x40 MLOAD PUSH1 0x40 MLOAD DUP1 SWAP2 SUB SWAP1 LOG3 POP POP JUMP JUMPDEST DUP3 DUP1 SLOAD PUSH2 0xBCE SWAP1 PUSH2 0x12F2 JUMP JUMPDEST SWAP1 PUSH1 0x0 MSTORE PUSH1 0x20 PUSH1 0x0 KECCAK256 SWAP1 PUSH1 0x1F ADD PUSH1 0x20 SWAP1 DIV DUP2 ADD SWAP3 DUP3 PUSH2 0xBF0 JUMPI PUSH1 0x0 DUP6 SSTORE PUSH2 0xC37 JUMP JUMPDEST DUP3 PUSH1 0x1F LT PUSH2 0xC09 JUMPI DUP1 MLOAD PUSH1 0xFF NOT AND DUP4 DUP1 ADD OR DUP6 SSTORE PUSH2 0xC37 JUMP JUMPDEST DUP3 DUP1 ADD PUSH1 0x1 ADD DUP6 SSTORE DUP3 ISZERO PUSH2 0xC37 JUMPI SWAP2 DUP3 ADD JUMPDEST DUP3 DUP2 GT ISZERO PUSH2 0xC36 JUMPI DUP3 MLOAD DUP3 SSTORE SWAP2 PUSH1 0x20 ADD SWAP2 SWAP1 PUSH1 0x1 ADD SWAP1 PUSH2 0xC1B JUMP JUMPDEST JUMPDEST POP SWAP1 POP PUSH2 0xC44 SWAP2 SWAP1 PUSH2 0xC48 JUMP JUMPDEST POP SWAP1 JUMP JUMPDEST JUMPDEST DUP1 DUP3 GT ISZERO PUSH2 0xC61 JUMPI PUSH1 0x0 DUP2 PUSH1 0x0 SWAP1 SSTORE POP PUSH1 0x1 ADD PUSH2 0xC49 JUMP JUMPDEST POP SWAP1 JUMP JUMPDEST PUSH1 0x0 PUSH2 0xC78 PUSH2 0xC73 DUP5 PUSH2 0x118D JUMP JUMPDEST PUSH2 0x1168 JUMP JUMPDEST SWAP1 POP DUP1 DUP4 DUP3 MSTORE PUSH1 0x20 DUP3 ADD SWAP1 POP DUP3 DUP6 PUSH1 0x20 DUP7 MUL DUP3 ADD GT ISZERO PUSH2 0xC9B JUMPI PUSH2 0xC9A PUSH2 0x13B8 JUMP JUMPDEST JUMPDEST PUSH1 0x0 JUMPDEST DUP6 DUP2 LT ISZERO PUSH2 0xCE9 JUMPI DUP2 CALLDATALOAD PUSH8 0xFFFFFFFFFFFFFFFF DUP2 GT ISZERO PUSH2 0xCC1 JUMPI PUSH2 0xCC0 PUSH2 0x13B3 JUMP JUMPDEST JUMPDEST DUP1 DUP7 ADD PUSH2 0xCCE DUP10 DUP3 PUSH2 0xDBA JUMP JUMPDEST DUP6 MSTORE PUSH1 0x20 DUP6 ADD SWAP5 POP PUSH1 0x20 DUP5 ADD SWAP4 POP POP POP PUSH1 0x1 DUP2 ADD SWAP1 POP PUSH2 0xC9E JUMP JUMPDEST POP POP POP SWAP4 SWAP3 POP POP POP JUMP JUMPDEST PUSH1 0x0 PUSH2 0xD06 PUSH2 0xD01 DUP5 PUSH2 0x11B9 JUMP JUMPDEST PUSH2 0x1168 JUMP JUMPDEST SWAP1 POP DUP3 DUP2 MSTORE PUSH1 0x20 DUP2 ADD DUP5 DUP5 DUP5 ADD GT ISZERO PUSH2 0xD22 JUMPI PUSH2 0xD21 PUSH2 0x13BD JUMP JUMPDEST JUMPDEST PUSH2 0xD2D DUP5 DUP3 DUP6 PUSH2 0x12B0 JUMP JUMPDEST POP SWAP4 SWAP3 POP POP POP JUMP JUMPDEST PUSH1 0x0 PUSH2 0xD48 PUSH2 0xD43 DUP5 PUSH2 0x11EA JUMP JUMPDEST PUSH2 0x1168 JUMP JUMPDEST SWAP1 POP DUP3 DUP2 MSTORE PUSH1 0x20 DUP2 ADD DUP5 DUP5 DUP5 ADD GT ISZERO PUSH2 0xD64 JUMPI PUSH2 0xD63 PUSH2 0x13BD JUMP JUMPDEST JUMPDEST PUSH2 0xD6F DUP5 DUP3 DUP6 PUSH2 0x12B0 JUMP JUMPDEST POP SWAP4 SWAP3 POP POP POP JUMP JUMPDEST PUSH1 0x0 DUP2 CALLDATALOAD SWAP1 POP PUSH2 0xD86 DUP2 PUSH2 0x14A4 JUMP JUMPDEST SWAP3 SWAP2 POP POP JUMP JUMPDEST PUSH1 0x0 DUP3 PUSH1 0x1F DUP4 ADD SLT PUSH2 0xDA1 JUMPI PUSH2 0xDA0 PUSH2 0x13B3 JUMP JUMPDEST JUMPDEST DUP2 CALLDATALOAD PUSH2 0xDB1 DUP5 DUP3 PUSH1 0x20 DUP7 ADD PUSH2 0xC65 JUMP JUMPDEST SWAP2 POP POP SWAP3 SWAP2 POP POP JUMP JUMPDEST PUSH1 0x0 DUP3 PUSH1 0x1F DUP4 ADD SLT PUSH2 0xDCF JUMPI PUSH2 0xDCE PUSH2 0x13B3 JUMP JUMPDEST JUMPDEST DUP2 CALLDATALOAD PUSH2 0xDDF DUP5 DUP3 PUSH1 0x20 DUP7 ADD PUSH2 0xCF3 JUMP JUMPDEST SWAP2 POP POP SWAP3 SWAP2 POP POP JUMP JUMPDEST PUSH1 0x0 DUP3 PUSH1 0x1F DUP4 ADD SLT PUSH2 0xDFD JUMPI PUSH2 0xDFC PUSH2 0x13B3 JUMP JUMPDEST JUMPDEST DUP2 CALLDATALOAD PUSH2 0xE0D DUP5 DUP3 PUSH1 0x20 DUP7 ADD PUSH2 0xD35 JUMP JUMPDEST SWAP2 POP POP SWAP3 SWAP2 POP POP JUMP JUMPDEST PUSH1 0x0 PUSH1 0x20 DUP3 DUP5 SUB SLT ISZERO PUSH2 0xE2C JUMPI PUSH2 0xE2B PUSH2 0x13C7 JUMP JUMPDEST JUMPDEST PUSH1 0x0 PUSH2 0xE3A DUP5 DUP3 DUP6 ADD PUSH2 0xD77 JUMP JUMPDEST SWAP2 POP POP SWAP3 SWAP2 POP POP JUMP JUMPDEST PUSH1 0x0 PUSH1 0x20 DUP3 DUP5 SUB SLT ISZERO PUSH2 0xE59 JUMPI PUSH2 0xE58 PUSH2 0x13C7 JUMP JUMPDEST JUMPDEST PUSH1 0x0 DUP3 ADD CALLDATALOAD PUSH8 0xFFFFFFFFFFFFFFFF DUP2 GT ISZERO PUSH2 0xE77 JUMPI PUSH2 0xE76 PUSH2 0x13C2 JUMP JUMPDEST JUMPDEST PUSH2 0xE83 DUP5 DUP3 DUP6 ADD PUSH2 0xDE8 JUMP JUMPDEST SWAP2 POP POP SWAP3 SWAP2 POP POP JUMP JUMPDEST PUSH1 0x0 DUP1 PUSH1 0x40 DUP4 DUP6 SUB SLT ISZERO PUSH2 0xEA3 JUMPI PUSH2 0xEA2 PUSH2 0x13C7 JUMP JUMPDEST JUMPDEST PUSH1 0x0 DUP4 ADD CALLDATALOAD PUSH8 0xFFFFFFFFFFFFFFFF DUP2 GT ISZERO PUSH2 0xEC1 JUMPI PUSH2 0xEC0 PUSH2 0x13C2 JUMP JUMPDEST JUMPDEST PUSH2 0xECD DUP6 DUP3 DUP7 ADD PUSH2 0xDE8 JUMP JUMPDEST SWAP3 POP POP PUSH1 0x20 DUP4 ADD CALLDATALOAD PUSH8 0xFFFFFFFFFFFFFFFF DUP2 GT ISZERO PUSH2 0xEEE JUMPI PUSH2 0xEED PUSH2 0x13C2 JUMP JUMPDEST JUMPDEST PUSH2 0xEFA DUP6 DUP3 DUP7 ADD PUSH2 0xD8C JUMP JUMPDEST SWAP2 POP POP SWAP3 POP SWAP3 SWAP1 POP JUMP JUMPDEST PUSH1 0x0 DUP1 PUSH1 0x40 DUP4 DUP6 SUB SLT ISZERO PUSH2 0xF1B JUMPI PUSH2 0xF1A PUSH2 0x13C7 JUMP JUMPDEST JUMPDEST PUSH1 0x0 DUP4 ADD CALLDATALOAD PUSH8 0xFFFFFFFFFFFFFFFF DUP2 GT ISZERO PUSH2 0xF39 JUMPI PUSH2 0xF38 PUSH2 0x13C2 JUMP JUMPDEST JUMPDEST PUSH2 0xF45 DUP6 DUP3 DUP7 ADD PUSH2 0xDE8 JUMP JUMPDEST SWAP3 POP POP PUSH1 0x20 DUP4 ADD CALLDATALOAD PUSH8 0xFFFFFFFFFFFFFFFF DUP2 GT ISZERO PUSH2 0xF66 JUMPI PUSH2 0xF65 PUSH2 0x13C2 JUMP JUMPDEST JUMPDEST PUSH2 0xF72 DUP6 DUP3 DUP7 ADD PUSH2 0xDE8 JUMP JUMPDEST SWAP2 POP POP SWAP3 POP SWAP3 SWAP1 POP JUMP JUMPDEST PUSH2 0xF85 DUP2 PUSH2 0x1248 JUMP JUMPDEST DUP3 MSTORE POP POP JUMP JUMPDEST PUSH1 0x0 PUSH2 0xF97 DUP4 DUP6 PUSH2 0x1226 JUMP JUMPDEST SWAP4 POP PUSH2 0xFA4 DUP4 DUP6 DUP5 PUSH2 0x12B0 JUMP JUMPDEST PUSH2 0xFAD DUP4 PUSH2 0x13CC JUMP JUMPDEST DUP5 ADD SWAP1 POP SWAP4 SWAP3 POP POP POP JUMP JUMPDEST PUSH2 0xFC1 DUP2 PUSH2 0x127A JUMP JUMPDEST DUP3 MSTORE POP POP JUMP JUMPDEST PUSH1 0x0 PUSH2 0xFD2 DUP3 PUSH2 0x121B JUMP JUMPDEST PUSH2 0xFDC DUP2 DUP6 PUSH2 0x1237 JUMP JUMPDEST SWAP4 POP PUSH2 0xFEC DUP2 DUP6 PUSH1 0x20 DUP7 ADD PUSH2 0x12BF JUMP JUMPDEST PUSH2 0xFF5 DUP2 PUSH2 0x13CC JUMP JUMPDEST DUP5 ADD SWAP2 POP POP SWAP3 SWAP2 POP POP JUMP JUMPDEST PUSH1 0x0 PUSH2 0x100D PUSH1 0x26 DUP4 PUSH2 0x1237 JUMP JUMPDEST SWAP2 POP PUSH2 0x1018 DUP3 PUSH2 0x13DD JUMP JUMPDEST PUSH1 0x40 DUP3 ADD SWAP1 POP SWAP2 SWAP1 POP JUMP JUMPDEST PUSH1 0x0 PUSH2 0x1030 PUSH1 0x20 DUP4 PUSH2 0x1237 JUMP JUMPDEST SWAP2 POP PUSH2 0x103B DUP3 PUSH2 0x142C JUMP JUMPDEST PUSH1 0x20 DUP3 ADD SWAP1 POP SWAP2 SWAP1 POP JUMP JUMPDEST PUSH1 0x0 PUSH2 0x1053 PUSH1 0x3B DUP4 PUSH2 0x1237 JUMP JUMPDEST SWAP2 POP PUSH2 0x105E DUP3 PUSH2 0x1455 JUMP JUMPDEST PUSH1 0x40 DUP3 ADD SWAP1 POP SWAP2 SWAP1 POP JUMP JUMPDEST PUSH1 0x0 PUSH1 0x20 DUP3 ADD SWAP1 POP PUSH2 0x107E PUSH1 0x0 DUP4 ADD DUP5 PUSH2 0xF7C JUMP JUMPDEST SWAP3 SWAP2 POP POP JUMP JUMPDEST PUSH1 0x0 PUSH1 0x20 DUP3 ADD SWAP1 POP PUSH2 0x1099 PUSH1 0x0 DUP4 ADD DUP5 PUSH2 0xFB8 JUMP JUMPDEST SWAP3 SWAP2 POP POP JUMP JUMPDEST PUSH1 0x0 PUSH1 0x20 DUP3 ADD SWAP1 POP DUP2 DUP2 SUB PUSH1 0x0 DUP4 ADD MSTORE PUSH2 0x10B9 DUP2 DUP5 PUSH2 0xFC7 JUMP JUMPDEST SWAP1 POP SWAP3 SWAP2 POP POP JUMP JUMPDEST PUSH1 0x0 PUSH1 0x60 DUP3 ADD SWAP1 POP DUP2 DUP2 SUB PUSH1 0x0 DUP4 ADD MSTORE PUSH2 0x10DB DUP2 DUP8 PUSH2 0xFC7 JUMP JUMPDEST SWAP1 POP PUSH2 0x10EA PUSH1 0x20 DUP4 ADD DUP7 PUSH2 0xF7C JUMP JUMPDEST DUP2 DUP2 SUB PUSH1 0x40 DUP4 ADD MSTORE PUSH2 0x10FD DUP2 DUP5 DUP7 PUSH2 0xF8B JUMP JUMPDEST SWAP1 POP SWAP6 SWAP5 POP POP POP POP POP JUMP JUMPDEST PUSH1 0x0 PUSH1 0x20 DUP3 ADD SWAP1 POP DUP2 DUP2 SUB PUSH1 0x0 DUP4 ADD MSTORE PUSH2 0x1121 DUP2 PUSH2 0x1000 JUMP JUMPDEST SWAP1 POP SWAP2 SWAP1 POP JUMP JUMPDEST PUSH1 0x0 PUSH1 0x20 DUP3 ADD SWAP1 POP DUP2 DUP2 SUB PUSH1 0x0 DUP4 ADD MSTORE PUSH2 0x1141 DUP2 PUSH2 0x1023 JUMP JUMPDEST SWAP1 POP SWAP2 SWAP1 POP JUMP JUMPDEST PUSH1 0x0 PUSH1 0x20 DUP3 ADD SWAP1 POP DUP2 DUP2 SUB PUSH1 0x0 DUP4 ADD MSTORE PUSH2 0x1161 DUP2 PUSH2 0x1046 JUMP JUMPDEST SWAP1 POP SWAP2 SWAP1 POP JUMP JUMPDEST PUSH1 0x0 PUSH2 0x1172 PUSH2 0x1183 JUMP JUMPDEST SWAP1 POP PUSH2 0x117E DUP3 DUP3 PUSH2 0x1324 JUMP JUMPDEST SWAP2 SWAP1 POP JUMP JUMPDEST PUSH1 0x0 PUSH1 0x40 MLOAD SWAP1 POP SWAP1 JUMP JUMPDEST PUSH1 0x0 PUSH8 0xFFFFFFFFFFFFFFFF DUP3 GT ISZERO PUSH2 0x11A8 JUMPI PUSH2 0x11A7 PUSH2 0x1384 JUMP JUMPDEST JUMPDEST PUSH1 0x20 DUP3 MUL SWAP1 POP PUSH1 0x20 DUP2 ADD SWAP1 POP SWAP2 SWAP1 POP JUMP JUMPDEST PUSH1 0x0 PUSH8 0xFFFFFFFFFFFFFFFF DUP3 GT ISZERO PUSH2 0x11D4 JUMPI PUSH2 0x11D3 PUSH2 0x1384 JUMP JUMPDEST JUMPDEST PUSH2 0x11DD DUP3 PUSH2 0x13CC JUMP JUMPDEST SWAP1 POP PUSH1 0x20 DUP2 ADD SWAP1 POP SWAP2 SWAP1 POP JUMP JUMPDEST PUSH1 0x0 PUSH8 0xFFFFFFFFFFFFFFFF DUP3 GT ISZERO PUSH2 0x1205 JUMPI PUSH2 0x1204 PUSH2 0x1384 JUMP JUMPDEST JUMPDEST PUSH2 0x120E DUP3 PUSH2 0x13CC JUMP JUMPDEST SWAP1 POP PUSH1 0x20 DUP2 ADD SWAP1 POP SWAP2 SWAP1 POP JUMP JUMPDEST PUSH1 0x0 DUP2 MLOAD SWAP1 POP SWAP2 SWAP1 POP JUMP JUMPDEST PUSH1 0x0 DUP3 DUP3 MSTORE PUSH1 0x20 DUP3 ADD SWAP1 POP SWAP3 SWAP2 POP POP JUMP JUMPDEST PUSH1 0x0 DUP3 DUP3 MSTORE PUSH1 0x20 DUP3 ADD SWAP1 POP SWAP3 SWAP2 POP POP JUMP JUMPDEST PUSH1 0x0 PUSH2 0x1253 DUP3 PUSH2 0x125A JUMP JUMPDEST SWAP1 POP SWAP2 SWAP1 POP JUMP JUMPDEST PUSH1 0x0 PUSH20 0xFFFFFFFFFFFFFFFFFFFFFFFFFFFFFFFFFFFFFFFF DUP3 AND SWAP1 POP SWAP2 SWAP1 POP JUMP JUMPDEST PUSH1 0x0 PUSH2 0x1285 DUP3 PUSH2 0x128C JUMP JUMPDEST SWAP1 POP SWAP2 SWAP1 POP JUMP JUMPDEST PUSH1 0x0 PUSH2 0x1297 DUP3 PUSH2 0x129E JUMP JUMPDEST SWAP1 POP SWAP2 SWAP1 POP JUMP JUMPDEST PUSH1 0x0 PUSH2 0x12A9 DUP3 PUSH2 0x125A JUMP JUMPDEST SWAP1 POP SWAP2 SWAP1 POP JUMP JUMPDEST DUP3 DUP2 DUP4 CALLDATACOPY PUSH1 0x0 DUP4 DUP4 ADD MSTORE POP POP POP JUMP JUMPDEST PUSH1 0x0 JUMPDEST DUP4 DUP2 LT ISZERO PUSH2 0x12DD JUMPI DUP1 DUP3 ADD MLOAD DUP2 DUP5 ADD MSTORE PUSH1 0x20 DUP2 ADD SWAP1 POP PUSH2 0x12C2 JUMP JUMPDEST DUP4 DUP2 GT ISZERO PUSH2 0x12EC JUMPI PUSH1 0x0 DUP5 DUP5 ADD MSTORE JUMPDEST POP POP POP POP JUMP JUMPDEST PUSH1 0x0 PUSH1 0x2 DUP3 DIV SWAP1 POP PUSH1 0x1 DUP3 AND DUP1 PUSH2 0x130A JUMPI PUSH1 0x7F DUP3 AND SWAP2 POP JUMPDEST PUSH1 0x20 DUP3 LT DUP2 EQ ISZERO PUSH2 0x131E JUMPI PUSH2 0x131D PUSH2 0x1355 JUMP JUMPDEST JUMPDEST POP SWAP2 SWAP1 POP JUMP JUMPDEST PUSH2 0x132D DUP3 PUSH2 0x13CC JUMP JUMPDEST DUP2 ADD DUP2 DUP2 LT PUSH8 0xFFFFFFFFFFFFFFFF DUP3 GT OR ISZERO PUSH2 0x134C JUMPI PUSH2 0x134B PUSH2 0x1384 JUMP JUMPDEST JUMPDEST DUP1 PUSH1 0x40 MSTORE POP POP POP JUMP JUMPDEST PUSH32 0x4E487B7100000000000000000000000000000000000000000000000000000000 PUSH1 0x0 MSTORE PUSH1 0x22 PUSH1 0x4 MSTORE PUSH1 0x24 PUSH1 0x0 REVERT JUMPDEST PUSH32 0x4E487B7100000000000000000000000000000000000000000000000000000000 PUSH1 0x0 MSTORE PUSH1 0x41 PUSH1 0x4 MSTORE PUSH1 0x24 PUSH1 0x0 REVERT JUMPDEST PUSH1 0x0 DUP1 REVERT JUMPDEST PUSH1 0x0 DUP1 REVERT JUMPDEST PUSH1 0x0 DUP1 REVERT JUMPDEST PUSH1 0x0 DUP1 REVERT JUMPDEST PUSH1 0x0 DUP1 REVERT JUMPDEST PUSH1 0x0 PUSH1 0x1F NOT PUSH1 0x1F DUP4 ADD AND SWAP1 POP SWAP2 SWAP1 POP JUMP JUMPDEST PUSH32 0x4F776E61626C653A206E6577206F776E657220697320746865207A65726F2061 PUSH1 0x0 DUP3 ADD MSTORE PUSH32 0x6464726573730000000000000000000000000000000000000000000000000000 PUSH1 0x20 DUP3 ADD MSTORE POP JUMP JUMPDEST PUSH32 0x4F776E61626C653A2063616C6C6572206973206E6F7420746865206F776E6572 PUSH1 0x0 DUP3 ADD MSTORE POP JUMP JUMPDEST PUSH32 0x43726564656E7469616C2043616C6C4261636B3A204F6E6C7920746865206F72 PUSH1 0x0 DUP3 ADD MSTORE PUSH32 0x61636C652063616E2063616C6C20746869732066756E6374696F6E0000000000 PUSH1 0x20 DUP3 ADD MSTORE POP JUMP JUMPDEST PUSH2 0x14AD DUP2 PUSH2 0x1248 JUMP JUMPDEST DUP2 EQ PUSH2 0x14B8 JUMPI PUSH1 0x0 DUP1 REVERT JUMPDEST POP JUMP INVALID LOG2 PUSH5 0x6970667358 0x22 SLT KECCAK256 0xEB CALLCODE SWAP10 0xD8 PUSH13 0x23E044C5BF951DFEE17DB636AE SWAP7 0x4C PUSH14 0x63B615023527466D4BBB5B64736F PUSH13 0x63430008070033000000000000 "
				},
				"gasEstimates": {
					"creation": {
						"codeDepositCost": "1072200",
						"executionCost": "infinite",
						"totalCost": "infinite"
					},
					"external": {
						"CREDENTIAL_EVENT()": "2690",
						"downVoteVibe(string,string)": "infinite",
						"downVoteVibe_authorised(string,bytes[])": "infinite",
						"downVoteVibe_unauthorised(string)": "infinite",
						"name()": "infinite",
						"owner()": "2545",
						"postVibe(string,string)": "infinite",
						"postVibe_authorised(string,bytes[])": "infinite",
						"postVibe_unauthorised(string)": "infinite",
						"renounceOwnership()": "30397",
						"setInboxPriceForCredential(string)": "infinite",
						"setUpVibePool()": "188",
						"settleVibes()": "2762",
						"transferOwnership(address)": "30833",
						"upVoteVibe(string,string)": "infinite",
						"upVoteVibe_authorised(string,bytes[])": "infinite",
						"upVoteVibe_unauthorised(string)": "infinite"
					}
				},
				"methodIdentifiers": {
					"CREDENTIAL_EVENT()": "5f7690b3",
					"downVoteVibe(string,string)": "a890e381",
					"downVoteVibe_authorised(string,bytes[])": "0bf0ea18",
					"downVoteVibe_unauthorised(string)": "7fa25879",
					"name()": "06fdde03",
					"owner()": "8da5cb5b",
					"postVibe(string,string)": "be58afb0",
					"postVibe_authorised(string,bytes[])": "dce8a955",
					"postVibe_unauthorised(string)": "436e99f3",
					"renounceOwnership()": "715018a6",
					"setInboxPriceForCredential(string)": "cd680492",
					"setUpVibePool()": "c1d15676",
					"settleVibes()": "89aeb071",
					"transferOwnership(address)": "f2fde38b",
					"upVoteVibe(string,string)": "c113344b",
					"upVoteVibe_authorised(string,bytes[])": "b0c7f4c0",
					"upVoteVibe_unauthorised(string)": "787a9a95"
				}
			},
			"storageLayout": {
				"storage": [
					{
						"astId": 7,
						"contract": "facets/CommunicationFacet.sol:CommunicationFacet",
						"label": "_owner",
						"offset": 0,
						"slot": "0",
						"type": "t_address"
					},
					{
						"astId": 288,
						"contract": "facets/CommunicationFacet.sol:CommunicationFacet",
						"label": "CREDENTIAL_ORACLE",
						"offset": 0,
						"slot": "1",
						"type": "t_address"
					},
					{
						"astId": 291,
						"contract": "facets/CommunicationFacet.sol:CommunicationFacet",
						"label": "CREDENTIAL_EVENT",
						"offset": 0,
						"slot": "2",
						"type": "t_contract(CredentialEventFacet)283"
					},
					{
						"astId": 145,
						"contract": "facets/CommunicationFacet.sol:CommunicationFacet",
						"label": "name",
						"offset": 0,
						"slot": "3",
						"type": "t_string_storage"
					}
				],
				"types": {
					"t_address": {
						"encoding": "inplace",
						"label": "address",
						"numberOfBytes": "20"
					},
					"t_contract(CredentialEventFacet)283": {
						"encoding": "inplace",
						"label": "contract CredentialEventFacet",
						"numberOfBytes": "20"
					},
					"t_string_storage": {
						"encoding": "bytes",
						"label": "string",
						"numberOfBytes": "32"
					}
				}
			},
			"userdoc": {
				"kind": "user",
				"methods": {},
				"version": 1
			}
		}
	}
}