{
	"facets/CommunicationFacet.sol": {
		"CommunicationFacet": {
			"abi": [
				{
					"inputs": [
						{
							"internalType": "contract CredentialEventFacet",
							"name": "_credentialOracle",
							"type": "address"
						}
					],
					"stateMutability": "nonpayable",
					"type": "constructor"
				},
				{
					"anonymous": false,
					"inputs": [
						{
							"indexed": true,
							"internalType": "address",
							"name": "previousOwner",
							"type": "address"
						},
						{
							"indexed": true,
							"internalType": "address",
							"name": "newOwner",
							"type": "address"
						}
					],
					"name": "OwnershipTransferred",
					"type": "event"
				},
				{
					"inputs": [],
					"name": "CREDENTIAL_EVENT",
					"outputs": [
						{
							"internalType": "contract CredentialEventFacet",
							"name": "",
							"type": "address"
						}
					],
					"stateMutability": "view",
					"type": "function"
				},
				{
					"inputs": [],
					"name": "owner",
					"outputs": [
						{
							"internalType": "address",
							"name": "",
							"type": "address"
						}
					],
					"stateMutability": "view",
					"type": "function"
				},
				{
					"inputs": [
						{
							"internalType": "string",
							"name": "someParam",
							"type": "string"
						},
						{
							"internalType": "string",
							"name": "_listId",
							"type": "string"
						},
						{
							"internalType": "string",
							"name": "thirdparam",
							"type": "string"
						},
						{
							"internalType": "uint256",
							"name": "num",
							"type": "uint256"
						},
						{
							"internalType": "bytes32",
							"name": "",
							"type": "bytes32"
						}
					],
					"name": "postVibe",
					"outputs": [],
					"stateMutability": "nonpayable",
					"type": "function"
				},
				{
					"inputs": [
						{
							"internalType": "string",
							"name": "someParam",
							"type": "string"
						},
						{
							"internalType": "bytes[]",
							"name": "proof",
							"type": "bytes[]"
						}
					],
					"name": "postVibe_authorised",
					"outputs": [],
					"stateMutability": "nonpayable",
					"type": "function"
				},
				{
					"inputs": [
						{
							"internalType": "string",
							"name": "someParam",
							"type": "string"
						}
					],
					"name": "postVibe_unauthorised",
					"outputs": [],
					"stateMutability": "nonpayable",
					"type": "function"
				},
				{
					"inputs": [],
					"name": "renounceOwnership",
					"outputs": [],
					"stateMutability": "nonpayable",
					"type": "function"
				},
				{
					"inputs": [
						{
							"internalType": "address",
							"name": "newOwner",
							"type": "address"
						}
					],
					"name": "transferOwnership",
					"outputs": [],
					"stateMutability": "nonpayable",
					"type": "function"
				}
			],
			"devdoc": {
				"kind": "dev",
				"methods": {
					"owner()": {
						"details": "Returns the address of the current owner."
					},
					"renounceOwnership()": {
						"details": "Leaves the contract without owner. It will not be possible to call `onlyOwner` functions anymore. Can only be called by the current owner. NOTE: Renouncing ownership will leave the contract without an owner, thereby removing any functionality that is only available to the owner."
					},
					"transferOwnership(address)": {
						"details": "Transfers ownership of the contract to a new account (`newOwner`). Can only be called by the current owner."
					}
				},
				"version": 1
			},
			"evm": {
				"assembly": "    /* \"facets/CommunicationFacet.sol\":141:805  contract CommunicationFacet is Ownable, GateableFacet {... */\n  mstore(0x40, 0x80)\n    /* \"facets/CommunicationFacet.sol\":197:285  constructor(CredentialEventFacet _credentialOracle) GateableFacet(_credentialOracle) {... */\n  callvalue\n  dup1\n  iszero\n  tag_1\n  jumpi\n  0x00\n  dup1\n  revert\ntag_1:\n  pop\n  mload(0x40)\n  sub(codesize, bytecodeSize)\n  dup1\n  bytecodeSize\n  dup4\n  codecopy\n  dup2\n  dup2\n  add\n  0x40\n  mstore\n  dup2\n  add\n  swap1\n  tag_2\n  swap2\n  swap1\n  tag_3\n  jump\t// in\ntag_2:\n    /* \"facets/CommunicationFacet.sol\":263:280  _credentialOracle */\n  dup1\n    /* \"@openzeppelin/contracts/access/Ownable.sol\":921:953  _transferOwnership(_msgSender()) */\n  tag_8\n    /* \"@openzeppelin/contracts/access/Ownable.sol\":940:952  _msgSender() */\n  tag_9\n    /* \"@openzeppelin/contracts/access/Ownable.sol\":940:950  _msgSender */\n  shl(0x20, tag_10)\n    /* \"@openzeppelin/contracts/access/Ownable.sol\":940:952  _msgSender() */\n  0x20\n  shr\n  jump\t// in\ntag_9:\n    /* \"@openzeppelin/contracts/access/Ownable.sol\":921:939  _transferOwnership */\n  shl(0x20, tag_11)\n    /* \"@openzeppelin/contracts/access/Ownable.sol\":921:953  _transferOwnership(_msgSender()) */\n  0x20\n  shr\n  jump\t// in\ntag_8:\n    /* \"facets/GateableFacet.sol\":919:936  _credentialOracle */\n  dup1\n    /* \"facets/GateableFacet.sol\":891:908  CREDENTIAL_ORACLE */\n  0x01\n  0x00\n    /* \"facets/GateableFacet.sol\":891:937  CREDENTIAL_ORACLE = address(_credentialOracle) */\n  0x0100\n  exp\n  dup2\n  sload\n  dup2\n  0xffffffffffffffffffffffffffffffffffffffff\n  mul\n  not\n  and\n  swap1\n  dup4\n  0xffffffffffffffffffffffffffffffffffffffff\n  and\n  mul\n  or\n  swap1\n  sstore\n  pop\n    /* \"facets/GateableFacet.sol\":962:979  _credentialOracle */\n  dup1\n    /* \"facets/GateableFacet.sol\":943:959  CREDENTIAL_EVENT */\n  0x02\n  0x00\n    /* \"facets/GateableFacet.sol\":943:979  CREDENTIAL_EVENT = _credentialOracle */\n  0x0100\n  exp\n  dup2\n  sload\n  dup2\n  0xffffffffffffffffffffffffffffffffffffffff\n  mul\n  not\n  and\n  swap1\n  dup4\n  0xffffffffffffffffffffffffffffffffffffffff\n  and\n  mul\n  or\n  swap1\n  sstore\n  pop\n    /* \"facets/GateableFacet.sol\":833:982  constructor(CredentialEventFacet _credentialOracle) {... */\n  pop\n    /* \"facets/CommunicationFacet.sol\":197:285  constructor(CredentialEventFacet _credentialOracle) GateableFacet(_credentialOracle) {... */\n  pop\n    /* \"facets/CommunicationFacet.sol\":141:805  contract CommunicationFacet is Ownable, GateableFacet {... */\n  jump(tag_14)\n    /* \"@openzeppelin/contracts/utils/Context.sol\":640:736  function _msgSender() internal view virtual returns (address) {... */\ntag_10:\n    /* \"@openzeppelin/contracts/utils/Context.sol\":693:700  address */\n  0x00\n    /* \"@openzeppelin/contracts/utils/Context.sol\":719:729  msg.sender */\n  caller\n    /* \"@openzeppelin/contracts/utils/Context.sol\":712:729  return msg.sender */\n  swap1\n  pop\n    /* \"@openzeppelin/contracts/utils/Context.sol\":640:736  function _msgSender() internal view virtual returns (address) {... */\n  swap1\n  jump\t// out\n    /* \"@openzeppelin/contracts/access/Ownable.sol\":2270:2457  function _transferOwnership(address newOwner) internal virtual {... */\ntag_11:\n    /* \"@openzeppelin/contracts/access/Ownable.sol\":2343:2359  address oldOwner */\n  0x00\n    /* \"@openzeppelin/contracts/access/Ownable.sol\":2362:2368  _owner */\n  dup1\n  0x00\n  swap1\n  sload\n  swap1\n  0x0100\n  exp\n  swap1\n  div\n  0xffffffffffffffffffffffffffffffffffffffff\n  and\n    /* \"@openzeppelin/contracts/access/Ownable.sol\":2343:2368  address oldOwner = _owner */\n  swap1\n  pop\n    /* \"@openzeppelin/contracts/access/Ownable.sol\":2387:2395  newOwner */\n  dup2\n    /* \"@openzeppelin/contracts/access/Ownable.sol\":2378:2384  _owner */\n  0x00\n  dup1\n    /* \"@openzeppelin/contracts/access/Ownable.sol\":2378:2395  _owner = newOwner */\n  0x0100\n  exp\n  dup2\n  sload\n  dup2\n  0xffffffffffffffffffffffffffffffffffffffff\n  mul\n  not\n  and\n  swap1\n  dup4\n  0xffffffffffffffffffffffffffffffffffffffff\n  and\n  mul\n  or\n  swap1\n  sstore\n  pop\n    /* \"@openzeppelin/contracts/access/Ownable.sol\":2441:2449  newOwner */\n  dup2\n    /* \"@openzeppelin/contracts/access/Ownable.sol\":2410:2450  OwnershipTransferred(oldOwner, newOwner) */\n  0xffffffffffffffffffffffffffffffffffffffff\n  and\n    /* \"@openzeppelin/contracts/access/Ownable.sol\":2431:2439  oldOwner */\n  dup2\n    /* \"@openzeppelin/contracts/access/Ownable.sol\":2410:2450  OwnershipTransferred(oldOwner, newOwner) */\n  0xffffffffffffffffffffffffffffffffffffffff\n  and\n  0x8be0079c531659141344cd1fd0a4f28419497f9722a3daafe3b4186f6b6457e0\n  mload(0x40)\n  mload(0x40)\n  dup1\n  swap2\n  sub\n  swap1\n  log3\n    /* \"@openzeppelin/contracts/access/Ownable.sol\":2333:2457  {... */\n  pop\n    /* \"@openzeppelin/contracts/access/Ownable.sol\":2270:2457  function _transferOwnership(address newOwner) internal virtual {... */\n  pop\n  jump\t// out\n    /* \"#utility.yul\":7:206   */\ntag_18:\n    /* \"#utility.yul\":92:97   */\n  0x00\n    /* \"#utility.yul\":123:129   */\n  dup2\n    /* \"#utility.yul\":117:130   */\n  mload\n    /* \"#utility.yul\":108:130   */\n  swap1\n  pop\n    /* \"#utility.yul\":139:200   */\n  tag_20\n    /* \"#utility.yul\":194:199   */\n  dup2\n    /* \"#utility.yul\":139:200   */\n  tag_21\n  jump\t// in\ntag_20:\n    /* \"#utility.yul\":7:206   */\n  swap3\n  swap2\n  pop\n  pop\n  jump\t// out\n    /* \"#utility.yul\":212:619   */\ntag_3:\n    /* \"#utility.yul\":310:316   */\n  0x00\n    /* \"#utility.yul\":359:361   */\n  0x20\n    /* \"#utility.yul\":347:356   */\n  dup3\n    /* \"#utility.yul\":338:345   */\n  dup5\n    /* \"#utility.yul\":334:357   */\n  sub\n    /* \"#utility.yul\":330:362   */\n  slt\n    /* \"#utility.yul\":327:446   */\n  iszero\n  tag_23\n  jumpi\n    /* \"#utility.yul\":365:444   */\n  tag_24\n  tag_25\n  jump\t// in\ntag_24:\n    /* \"#utility.yul\":327:446   */\ntag_23:\n    /* \"#utility.yul\":485:486   */\n  0x00\n    /* \"#utility.yul\":510:602   */\n  tag_26\n    /* \"#utility.yul\":594:601   */\n  dup5\n    /* \"#utility.yul\":585:591   */\n  dup3\n    /* \"#utility.yul\":574:583   */\n  dup6\n    /* \"#utility.yul\":570:592   */\n  add\n    /* \"#utility.yul\":510:602   */\n  tag_18\n  jump\t// in\ntag_26:\n    /* \"#utility.yul\":500:602   */\n  swap2\n  pop\n    /* \"#utility.yul\":456:612   */\n  pop\n    /* \"#utility.yul\":212:619   */\n  swap3\n  swap2\n  pop\n  pop\n  jump\t// out\n    /* \"#utility.yul\":706:802   */\ntag_29:\n    /* \"#utility.yul\":743:750   */\n  0x00\n    /* \"#utility.yul\":772:796   */\n  tag_31\n    /* \"#utility.yul\":790:795   */\n  dup3\n    /* \"#utility.yul\":772:796   */\n  tag_32\n  jump\t// in\ntag_31:\n    /* \"#utility.yul\":761:796   */\n  swap1\n  pop\n    /* \"#utility.yul\":706:802   */\n  swap2\n  swap1\n  pop\n  jump\t// out\n    /* \"#utility.yul\":808:932   */\ntag_33:\n    /* \"#utility.yul\":873:880   */\n  0x00\n    /* \"#utility.yul\":902:926   */\n  tag_35\n    /* \"#utility.yul\":920:925   */\n  dup3\n    /* \"#utility.yul\":902:926   */\n  tag_29\n  jump\t// in\ntag_35:\n    /* \"#utility.yul\":891:926   */\n  swap1\n  pop\n    /* \"#utility.yul\":808:932   */\n  swap2\n  swap1\n  pop\n  jump\t// out\n    /* \"#utility.yul\":938:1064   */\ntag_32:\n    /* \"#utility.yul\":975:982   */\n  0x00\n    /* \"#utility.yul\":1015:1057   */\n  0xffffffffffffffffffffffffffffffffffffffff\n    /* \"#utility.yul\":1008:1013   */\n  dup3\n    /* \"#utility.yul\":1004:1058   */\n  and\n    /* \"#utility.yul\":993:1058   */\n  swap1\n  pop\n    /* \"#utility.yul\":938:1064   */\n  swap2\n  swap1\n  pop\n  jump\t// out\n    /* \"#utility.yul\":1193:1310   */\ntag_25:\n    /* \"#utility.yul\":1302:1303   */\n  0x00\n    /* \"#utility.yul\":1299:1300   */\n  dup1\n    /* \"#utility.yul\":1292:1304   */\n  revert\n    /* \"#utility.yul\":1316:1494   */\ntag_21:\n    /* \"#utility.yul\":1417:1469   */\n  tag_41\n    /* \"#utility.yul\":1463:1468   */\n  dup2\n    /* \"#utility.yul\":1417:1469   */\n  tag_33\n  jump\t// in\ntag_41:\n    /* \"#utility.yul\":1410:1415   */\n  dup2\n    /* \"#utility.yul\":1407:1470   */\n  eq\n    /* \"#utility.yul\":1397:1488   */\n  tag_42\n  jumpi\n    /* \"#utility.yul\":1484:1485   */\n  0x00\n    /* \"#utility.yul\":1481:1482   */\n  dup1\n    /* \"#utility.yul\":1474:1486   */\n  revert\n    /* \"#utility.yul\":1397:1488   */\ntag_42:\n    /* \"#utility.yul\":1316:1494   */\n  pop\n  jump\t// out\n    /* \"facets/CommunicationFacet.sol\":141:805  contract CommunicationFacet is Ownable, GateableFacet {... */\ntag_14:\n  dataSize(sub_0)\n  dup1\n  dataOffset(sub_0)\n  0x00\n  codecopy\n  0x00\n  return\nstop\n\nsub_0: assembly {\n        /* \"facets/CommunicationFacet.sol\":141:805  contract CommunicationFacet is Ownable, GateableFacet {... */\n      mstore(0x40, 0x80)\n      callvalue\n      dup1\n      iszero\n      tag_1\n      jumpi\n      0x00\n      dup1\n      revert\n    tag_1:\n      pop\n      jumpi(tag_2, lt(calldatasize, 0x04))\n      shr(0xe0, calldataload(0x00))\n      dup1\n      0x715018a6\n      gt\n      tag_10\n      jumpi\n      dup1\n      0x715018a6\n      eq\n      tag_6\n      jumpi\n      dup1\n      0x8da5cb5b\n      eq\n      tag_7\n      jumpi\n      dup1\n      0xdce8a955\n      eq\n      tag_8\n      jumpi\n      dup1\n      0xf2fde38b\n      eq\n      tag_9\n      jumpi\n      jump(tag_2)\n    tag_10:\n      dup1\n      0x436e99f3\n      eq\n      tag_3\n      jumpi\n      dup1\n      0x4cd2dbb3\n      eq\n      tag_4\n      jumpi\n      dup1\n      0x5f7690b3\n      eq\n      tag_5\n      jumpi\n    tag_2:\n      0x00\n      dup1\n      revert\n        /* \"facets/CommunicationFacet.sol\":685:802  function postVibe_unauthorised(string memory someParam) credentialCallback external {... */\n    tag_3:\n      tag_11\n      0x04\n      dup1\n      calldatasize\n      sub\n      dup2\n      add\n      swap1\n      tag_12\n      swap2\n      swap1\n      tag_13\n      jump\t// in\n    tag_12:\n      tag_14\n      jump\t// in\n    tag_11:\n      stop\n        /* \"facets/CommunicationFacet.sol\":370:547  function postVibe(string memory someParam, string memory _listId, string memory thirdparam, uint256 num, bytes32) has_credential(_listId, address(this), 'postVibe') external {... */\n    tag_4:\n      tag_15\n      0x04\n      dup1\n      calldatasize\n      sub\n      dup2\n      add\n      swap1\n      tag_16\n      swap2\n      swap1\n      tag_17\n      jump\t// in\n    tag_16:\n      tag_18\n      jump\t// in\n    tag_15:\n      stop\n        /* \"facets/GateableFacet.sol\":165:209  CredentialEventFacet public CREDENTIAL_EVENT */\n    tag_5:\n      tag_19\n      tag_20\n      jump\t// in\n    tag_19:\n      mload(0x40)\n      tag_21\n      swap2\n      swap1\n      tag_22\n      jump\t// in\n    tag_21:\n      mload(0x40)\n      dup1\n      swap2\n      sub\n      swap1\n      return\n        /* \"@openzeppelin/contracts/access/Ownable.sol\":1668:1769  function renounceOwnership() public virtual onlyOwner {... */\n    tag_6:\n      tag_23\n      tag_24\n      jump\t// in\n    tag_23:\n      stop\n        /* \"@openzeppelin/contracts/access/Ownable.sol\":1036:1121  function owner() public view virtual returns (address) {... */\n    tag_7:\n      tag_25\n      tag_26\n      jump\t// in\n    tag_25:\n      mload(0x40)\n      tag_27\n      swap2\n      swap1\n      tag_28\n      jump\t// in\n    tag_27:\n      mload(0x40)\n      dup1\n      swap2\n      sub\n      swap1\n      return\n        /* \"facets/CommunicationFacet.sol\":549:683  function postVibe_authorised(string memory someParam, bytes[] memory proof) credentialCallback external {... */\n    tag_8:\n      tag_29\n      0x04\n      dup1\n      calldatasize\n      sub\n      dup2\n      add\n      swap1\n      tag_30\n      swap2\n      swap1\n      tag_31\n      jump\t// in\n    tag_30:\n      tag_32\n      jump\t// in\n    tag_29:\n      stop\n        /* \"@openzeppelin/contracts/access/Ownable.sol\":1918:2116  function transferOwnership(address newOwner) public virtual onlyOwner {... */\n    tag_9:\n      tag_33\n      0x04\n      dup1\n      calldatasize\n      sub\n      dup2\n      add\n      swap1\n      tag_34\n      swap2\n      swap1\n      tag_35\n      jump\t// in\n    tag_34:\n      tag_36\n      jump\t// in\n    tag_33:\n      stop\n        /* \"facets/CommunicationFacet.sol\":685:802  function postVibe_unauthorised(string memory someParam) credentialCallback external {... */\n    tag_14:\n        /* \"facets/GateableFacet.sol\":742:759  CREDENTIAL_ORACLE */\n      0x01\n      0x00\n      swap1\n      sload\n      swap1\n      0x0100\n      exp\n      swap1\n      div\n      0xffffffffffffffffffffffffffffffffffffffff\n      and\n        /* \"facets/GateableFacet.sol\":728:759  msg.sender == CREDENTIAL_ORACLE */\n      0xffffffffffffffffffffffffffffffffffffffff\n      and\n        /* \"facets/GateableFacet.sol\":728:738  msg.sender */\n      caller\n        /* \"facets/GateableFacet.sol\":728:759  msg.sender == CREDENTIAL_ORACLE */\n      0xffffffffffffffffffffffffffffffffffffffff\n      and\n      eq\n        /* \"facets/GateableFacet.sol\":720:823  require(msg.sender == CREDENTIAL_ORACLE, \"Credential CallBack: Only the oracle can call this function\") */\n      tag_38\n      jumpi\n      mload(0x40)\n      0x08c379a000000000000000000000000000000000000000000000000000000000\n      dup2\n      mstore\n      0x04\n      add\n      tag_39\n      swap1\n      tag_40\n      jump\t// in\n    tag_39:\n      mload(0x40)\n      dup1\n      swap2\n      sub\n      swap1\n      revert\n    tag_38:\n        /* \"facets/CommunicationFacet.sol\":685:802  function postVibe_unauthorised(string memory someParam) credentialCallback external {... */\n      pop\n      jump\t// out\n        /* \"facets/CommunicationFacet.sol\":370:547  function postVibe(string memory someParam, string memory _listId, string memory thirdparam, uint256 num, bytes32) has_credential(_listId, address(this), 'postVibe') external {... */\n    tag_18:\n        /* \"facets/CommunicationFacet.sol\":499:506  _listId */\n      dup4\n        /* \"facets/CommunicationFacet.sol\":516:520  this */\n      address\n        /* \"facets/GateableFacet.sol\":328:521  modifier has_credential(string memory _list_id, address _contractAddr, string memory _funcName) {... */\n      mload(0x40)\n      dup1\n      0x40\n      add\n      0x40\n      mstore\n      dup1\n      0x08\n      dup2\n      mstore\n      0x20\n      add\n      0x706f737456696265000000000000000000000000000000000000000000000000\n      dup2\n      mstore\n      pop\n        /* \"facets/GateableFacet.sol\":427:443  CREDENTIAL_EVENT */\n      0x02\n      0x00\n      swap1\n      sload\n      swap1\n      0x0100\n      exp\n      swap1\n      div\n      0xffffffffffffffffffffffffffffffffffffffff\n      and\n        /* \"facets/GateableFacet.sol\":427:453  CREDENTIAL_EVENT.emitEvent */\n      0xffffffffffffffffffffffffffffffffffffffff\n      and\n      0xa78d2ba3\n        /* \"facets/GateableFacet.sol\":454:462  _list_id */\n      dup5\n        /* \"facets/GateableFacet.sol\":464:474  msg.sender */\n      caller\n        /* \"facets/GateableFacet.sol\":476:489  _contractAddr */\n      dup6\n        /* \"facets/GateableFacet.sol\":491:500  _funcName */\n      dup6\n        /* \"facets/GateableFacet.sol\":502:510  msg.data */\n      0x00\n      calldatasize\n        /* \"facets/GateableFacet.sol\":427:511  CREDENTIAL_EVENT.emitEvent(_list_id, msg.sender, _contractAddr, _funcName, msg.data) */\n      mload(0x40)\n      dup8\n      0xffffffff\n      and\n      0xe0\n      shl\n      dup2\n      mstore\n      0x04\n      add\n      tag_43\n      swap7\n      swap6\n      swap5\n      swap4\n      swap3\n      swap2\n      swap1\n      tag_44\n      jump\t// in\n    tag_43:\n      0x00\n      mload(0x40)\n      dup1\n      dup4\n      sub\n      dup2\n      0x00\n      dup8\n      dup1\n      extcodesize\n      iszero\n      dup1\n      iszero\n      tag_45\n      jumpi\n      0x00\n      dup1\n      revert\n    tag_45:\n      pop\n      gas\n      call\n      iszero\n      dup1\n      iszero\n      tag_47\n      jumpi\n      returndatasize\n      0x00\n      dup1\n      returndatacopy\n      revert(0x00, returndatasize)\n    tag_47:\n      pop\n      pop\n      pop\n      pop\n        /* \"facets/CommunicationFacet.sol\":370:547  function postVibe(string memory someParam, string memory _listId, string memory thirdparam, uint256 num, bytes32) has_credential(_listId, address(this), 'postVibe') external {... */\n      pop\n      pop\n      pop\n      pop\n      pop\n      pop\n      pop\n      pop\n      jump\t// out\n        /* \"facets/GateableFacet.sol\":165:209  CredentialEventFacet public CREDENTIAL_EVENT */\n    tag_20:\n      0x02\n      0x00\n      swap1\n      sload\n      swap1\n      0x0100\n      exp\n      swap1\n      div\n      0xffffffffffffffffffffffffffffffffffffffff\n      and\n      dup2\n      jump\t// out\n        /* \"@openzeppelin/contracts/access/Ownable.sol\":1668:1769  function renounceOwnership() public virtual onlyOwner {... */\n    tag_24:\n        /* \"@openzeppelin/contracts/access/Ownable.sol\":1259:1271  _msgSender() */\n      tag_50\n        /* \"@openzeppelin/contracts/access/Ownable.sol\":1259:1269  _msgSender */\n      tag_51\n        /* \"@openzeppelin/contracts/access/Ownable.sol\":1259:1271  _msgSender() */\n      jump\t// in\n    tag_50:\n        /* \"@openzeppelin/contracts/access/Ownable.sol\":1248:1271  owner() == _msgSender() */\n      0xffffffffffffffffffffffffffffffffffffffff\n      and\n        /* \"@openzeppelin/contracts/access/Ownable.sol\":1248:1255  owner() */\n      tag_52\n        /* \"@openzeppelin/contracts/access/Ownable.sol\":1248:1253  owner */\n      tag_26\n        /* \"@openzeppelin/contracts/access/Ownable.sol\":1248:1255  owner() */\n      jump\t// in\n    tag_52:\n        /* \"@openzeppelin/contracts/access/Ownable.sol\":1248:1271  owner() == _msgSender() */\n      0xffffffffffffffffffffffffffffffffffffffff\n      and\n      eq\n        /* \"@openzeppelin/contracts/access/Ownable.sol\":1240:1308  require(owner() == _msgSender(), \"Ownable: caller is not the owner\") */\n      tag_53\n      jumpi\n      mload(0x40)\n      0x08c379a000000000000000000000000000000000000000000000000000000000\n      dup2\n      mstore\n      0x04\n      add\n      tag_54\n      swap1\n      tag_55\n      jump\t// in\n    tag_54:\n      mload(0x40)\n      dup1\n      swap2\n      sub\n      swap1\n      revert\n    tag_53:\n        /* \"@openzeppelin/contracts/access/Ownable.sol\":1732:1762  _transferOwnership(address(0)) */\n      tag_57\n        /* \"@openzeppelin/contracts/access/Ownable.sol\":1759:1760  0 */\n      0x00\n        /* \"@openzeppelin/contracts/access/Ownable.sol\":1732:1750  _transferOwnership */\n      tag_58\n        /* \"@openzeppelin/contracts/access/Ownable.sol\":1732:1762  _transferOwnership(address(0)) */\n      jump\t// in\n    tag_57:\n        /* \"@openzeppelin/contracts/access/Ownable.sol\":1668:1769  function renounceOwnership() public virtual onlyOwner {... */\n      jump\t// out\n        /* \"@openzeppelin/contracts/access/Ownable.sol\":1036:1121  function owner() public view virtual returns (address) {... */\n    tag_26:\n        /* \"@openzeppelin/contracts/access/Ownable.sol\":1082:1089  address */\n      0x00\n        /* \"@openzeppelin/contracts/access/Ownable.sol\":1108:1114  _owner */\n      dup1\n      0x00\n      swap1\n      sload\n      swap1\n      0x0100\n      exp\n      swap1\n      div\n      0xffffffffffffffffffffffffffffffffffffffff\n      and\n        /* \"@openzeppelin/contracts/access/Ownable.sol\":1101:1114  return _owner */\n      swap1\n      pop\n        /* \"@openzeppelin/contracts/access/Ownable.sol\":1036:1121  function owner() public view virtual returns (address) {... */\n      swap1\n      jump\t// out\n        /* \"facets/CommunicationFacet.sol\":549:683  function postVibe_authorised(string memory someParam, bytes[] memory proof) credentialCallback external {... */\n    tag_32:\n        /* \"facets/GateableFacet.sol\":742:759  CREDENTIAL_ORACLE */\n      0x01\n      0x00\n      swap1\n      sload\n      swap1\n      0x0100\n      exp\n      swap1\n      div\n      0xffffffffffffffffffffffffffffffffffffffff\n      and\n        /* \"facets/GateableFacet.sol\":728:759  msg.sender == CREDENTIAL_ORACLE */\n      0xffffffffffffffffffffffffffffffffffffffff\n      and\n        /* \"facets/GateableFacet.sol\":728:738  msg.sender */\n      caller\n        /* \"facets/GateableFacet.sol\":728:759  msg.sender == CREDENTIAL_ORACLE */\n      0xffffffffffffffffffffffffffffffffffffffff\n      and\n      eq\n        /* \"facets/GateableFacet.sol\":720:823  require(msg.sender == CREDENTIAL_ORACLE, \"Credential CallBack: Only the oracle can call this function\") */\n      tag_61\n      jumpi\n      mload(0x40)\n      0x08c379a000000000000000000000000000000000000000000000000000000000\n      dup2\n      mstore\n      0x04\n      add\n      tag_62\n      swap1\n      tag_40\n      jump\t// in\n    tag_62:\n      mload(0x40)\n      dup1\n      swap2\n      sub\n      swap1\n      revert\n    tag_61:\n        /* \"facets/CommunicationFacet.sol\":549:683  function postVibe_authorised(string memory someParam, bytes[] memory proof) credentialCallback external {... */\n      pop\n      pop\n      jump\t// out\n        /* \"@openzeppelin/contracts/access/Ownable.sol\":1918:2116  function transferOwnership(address newOwner) public virtual onlyOwner {... */\n    tag_36:\n        /* \"@openzeppelin/contracts/access/Ownable.sol\":1259:1271  _msgSender() */\n      tag_65\n        /* \"@openzeppelin/contracts/access/Ownable.sol\":1259:1269  _msgSender */\n      tag_51\n        /* \"@openzeppelin/contracts/access/Ownable.sol\":1259:1271  _msgSender() */\n      jump\t// in\n    tag_65:\n        /* \"@openzeppelin/contracts/access/Ownable.sol\":1248:1271  owner() == _msgSender() */\n      0xffffffffffffffffffffffffffffffffffffffff\n      and\n        /* \"@openzeppelin/contracts/access/Ownable.sol\":1248:1255  owner() */\n      tag_66\n        /* \"@openzeppelin/contracts/access/Ownable.sol\":1248:1253  owner */\n      tag_26\n        /* \"@openzeppelin/contracts/access/Ownable.sol\":1248:1255  owner() */\n      jump\t// in\n    tag_66:\n        /* \"@openzeppelin/contracts/access/Ownable.sol\":1248:1271  owner() == _msgSender() */\n      0xffffffffffffffffffffffffffffffffffffffff\n      and\n      eq\n        /* \"@openzeppelin/contracts/access/Ownable.sol\":1240:1308  require(owner() == _msgSender(), \"Ownable: caller is not the owner\") */\n      tag_67\n      jumpi\n      mload(0x40)\n      0x08c379a000000000000000000000000000000000000000000000000000000000\n      dup2\n      mstore\n      0x04\n      add\n      tag_68\n      swap1\n      tag_55\n      jump\t// in\n    tag_68:\n      mload(0x40)\n      dup1\n      swap2\n      sub\n      swap1\n      revert\n    tag_67:\n        /* \"@openzeppelin/contracts/access/Ownable.sol\":2026:2027  0 */\n      0x00\n        /* \"@openzeppelin/contracts/access/Ownable.sol\":2006:2028  newOwner != address(0) */\n      0xffffffffffffffffffffffffffffffffffffffff\n      and\n        /* \"@openzeppelin/contracts/access/Ownable.sol\":2006:2014  newOwner */\n      dup2\n        /* \"@openzeppelin/contracts/access/Ownable.sol\":2006:2028  newOwner != address(0) */\n      0xffffffffffffffffffffffffffffffffffffffff\n      and\n      eq\n      iszero\n        /* \"@openzeppelin/contracts/access/Ownable.sol\":1998:2071  require(newOwner != address(0), \"Ownable: new owner is the zero address\") */\n      tag_70\n      jumpi\n      mload(0x40)\n      0x08c379a000000000000000000000000000000000000000000000000000000000\n      dup2\n      mstore\n      0x04\n      add\n      tag_71\n      swap1\n      tag_72\n      jump\t// in\n    tag_71:\n      mload(0x40)\n      dup1\n      swap2\n      sub\n      swap1\n      revert\n    tag_70:\n        /* \"@openzeppelin/contracts/access/Ownable.sol\":2081:2109  _transferOwnership(newOwner) */\n      tag_73\n        /* \"@openzeppelin/contracts/access/Ownable.sol\":2100:2108  newOwner */\n      dup2\n        /* \"@openzeppelin/contracts/access/Ownable.sol\":2081:2099  _transferOwnership */\n      tag_58\n        /* \"@openzeppelin/contracts/access/Ownable.sol\":2081:2109  _transferOwnership(newOwner) */\n      jump\t// in\n    tag_73:\n        /* \"@openzeppelin/contracts/access/Ownable.sol\":1918:2116  function transferOwnership(address newOwner) public virtual onlyOwner {... */\n      pop\n      jump\t// out\n        /* \"@openzeppelin/contracts/utils/Context.sol\":640:736  function _msgSender() internal view virtual returns (address) {... */\n    tag_51:\n        /* \"@openzeppelin/contracts/utils/Context.sol\":693:700  address */\n      0x00\n        /* \"@openzeppelin/contracts/utils/Context.sol\":719:729  msg.sender */\n      caller\n        /* \"@openzeppelin/contracts/utils/Context.sol\":712:729  return msg.sender */\n      swap1\n      pop\n        /* \"@openzeppelin/contracts/utils/Context.sol\":640:736  function _msgSender() internal view virtual returns (address) {... */\n      swap1\n      jump\t// out\n        /* \"@openzeppelin/contracts/access/Ownable.sol\":2270:2457  function _transferOwnership(address newOwner) internal virtual {... */\n    tag_58:\n        /* \"@openzeppelin/contracts/access/Ownable.sol\":2343:2359  address oldOwner */\n      0x00\n        /* \"@openzeppelin/contracts/access/Ownable.sol\":2362:2368  _owner */\n      dup1\n      0x00\n      swap1\n      sload\n      swap1\n      0x0100\n      exp\n      swap1\n      div\n      0xffffffffffffffffffffffffffffffffffffffff\n      and\n        /* \"@openzeppelin/contracts/access/Ownable.sol\":2343:2368  address oldOwner = _owner */\n      swap1\n      pop\n        /* \"@openzeppelin/contracts/access/Ownable.sol\":2387:2395  newOwner */\n      dup2\n        /* \"@openzeppelin/contracts/access/Ownable.sol\":2378:2384  _owner */\n      0x00\n      dup1\n        /* \"@openzeppelin/contracts/access/Ownable.sol\":2378:2395  _owner = newOwner */\n      0x0100\n      exp\n      dup2\n      sload\n      dup2\n      0xffffffffffffffffffffffffffffffffffffffff\n      mul\n      not\n      and\n      swap1\n      dup4\n      0xffffffffffffffffffffffffffffffffffffffff\n      and\n      mul\n      or\n      swap1\n      sstore\n      pop\n        /* \"@openzeppelin/contracts/access/Ownable.sol\":2441:2449  newOwner */\n      dup2\n        /* \"@openzeppelin/contracts/access/Ownable.sol\":2410:2450  OwnershipTransferred(oldOwner, newOwner) */\n      0xffffffffffffffffffffffffffffffffffffffff\n      and\n        /* \"@openzeppelin/contracts/access/Ownable.sol\":2431:2439  oldOwner */\n      dup2\n        /* \"@openzeppelin/contracts/access/Ownable.sol\":2410:2450  OwnershipTransferred(oldOwner, newOwner) */\n      0xffffffffffffffffffffffffffffffffffffffff\n      and\n      0x8be0079c531659141344cd1fd0a4f28419497f9722a3daafe3b4186f6b6457e0\n      mload(0x40)\n      mload(0x40)\n      dup1\n      swap2\n      sub\n      swap1\n      log3\n        /* \"@openzeppelin/contracts/access/Ownable.sol\":2333:2457  {... */\n      pop\n        /* \"@openzeppelin/contracts/access/Ownable.sol\":2270:2457  function _transferOwnership(address newOwner) internal virtual {... */\n      pop\n      jump\t// out\n        /* \"#utility.yul\":22:976   */\n    tag_77:\n        /* \"#utility.yul\":127:132   */\n      0x00\n        /* \"#utility.yul\":152:242   */\n      tag_79\n        /* \"#utility.yul\":168:241   */\n      tag_80\n        /* \"#utility.yul\":234:240   */\n      dup5\n        /* \"#utility.yul\":168:241   */\n      tag_81\n      jump\t// in\n    tag_80:\n        /* \"#utility.yul\":152:242   */\n      tag_82\n      jump\t// in\n    tag_79:\n        /* \"#utility.yul\":143:242   */\n      swap1\n      pop\n        /* \"#utility.yul\":262:267   */\n      dup1\n        /* \"#utility.yul\":291:297   */\n      dup4\n        /* \"#utility.yul\":284:289   */\n      dup3\n        /* \"#utility.yul\":277:298   */\n      mstore\n        /* \"#utility.yul\":325:329   */\n      0x20\n        /* \"#utility.yul\":318:323   */\n      dup3\n        /* \"#utility.yul\":314:330   */\n      add\n        /* \"#utility.yul\":307:330   */\n      swap1\n      pop\n        /* \"#utility.yul\":351:357   */\n      dup3\n        /* \"#utility.yul\":401:404   */\n      dup6\n        /* \"#utility.yul\":393:397   */\n      0x20\n        /* \"#utility.yul\":385:391   */\n      dup7\n        /* \"#utility.yul\":381:398   */\n      mul\n        /* \"#utility.yul\":376:379   */\n      dup3\n        /* \"#utility.yul\":372:399   */\n      add\n        /* \"#utility.yul\":369:405   */\n      gt\n        /* \"#utility.yul\":366:509   */\n      iszero\n      tag_83\n      jumpi\n        /* \"#utility.yul\":420:499   */\n      tag_84\n      tag_85\n      jump\t// in\n    tag_84:\n        /* \"#utility.yul\":366:509   */\n    tag_83:\n        /* \"#utility.yul\":533:534   */\n      0x00\n        /* \"#utility.yul\":518:970   */\n    tag_86:\n        /* \"#utility.yul\":543:549   */\n      dup6\n        /* \"#utility.yul\":540:541   */\n      dup2\n        /* \"#utility.yul\":537:550   */\n      lt\n        /* \"#utility.yul\":518:970   */\n      iszero\n      tag_88\n      jumpi\n        /* \"#utility.yul\":625:628   */\n      dup2\n        /* \"#utility.yul\":612:629   */\n      calldataload\n        /* \"#utility.yul\":661:679   */\n      0xffffffffffffffff\n        /* \"#utility.yul\":648:659   */\n      dup2\n        /* \"#utility.yul\":645:680   */\n      gt\n        /* \"#utility.yul\":642:764   */\n      iszero\n      tag_89\n      jumpi\n        /* \"#utility.yul\":683:762   */\n      tag_90\n      tag_91\n      jump\t// in\n    tag_90:\n        /* \"#utility.yul\":642:764   */\n    tag_89:\n        /* \"#utility.yul\":807:818   */\n      dup1\n        /* \"#utility.yul\":799:805   */\n      dup7\n        /* \"#utility.yul\":795:819   */\n      add\n        /* \"#utility.yul\":845:891   */\n      tag_92\n        /* \"#utility.yul\":887:890   */\n      dup10\n        /* \"#utility.yul\":875:885   */\n      dup3\n        /* \"#utility.yul\":845:891   */\n      tag_93\n      jump\t// in\n    tag_92:\n        /* \"#utility.yul\":840:843   */\n      dup6\n        /* \"#utility.yul\":833:892   */\n      mstore\n        /* \"#utility.yul\":921:925   */\n      0x20\n        /* \"#utility.yul\":916:919   */\n      dup6\n        /* \"#utility.yul\":912:926   */\n      add\n        /* \"#utility.yul\":905:926   */\n      swap5\n      pop\n        /* \"#utility.yul\":955:959   */\n      0x20\n        /* \"#utility.yul\":950:953   */\n      dup5\n        /* \"#utility.yul\":946:960   */\n      add\n        /* \"#utility.yul\":939:960   */\n      swap4\n      pop\n        /* \"#utility.yul\":578:970   */\n      pop\n      pop\n        /* \"#utility.yul\":565:566   */\n      0x01\n        /* \"#utility.yul\":562:563   */\n      dup2\n        /* \"#utility.yul\":558:567   */\n      add\n        /* \"#utility.yul\":553:567   */\n      swap1\n      pop\n        /* \"#utility.yul\":518:970   */\n      jump(tag_86)\n    tag_88:\n        /* \"#utility.yul\":522:536   */\n      pop\n        /* \"#utility.yul\":133:976   */\n      pop\n      pop\n        /* \"#utility.yul\":22:976   */\n      swap4\n      swap3\n      pop\n      pop\n      pop\n      jump\t// out\n        /* \"#utility.yul\":982:1392   */\n    tag_94:\n        /* \"#utility.yul\":1059:1064   */\n      0x00\n        /* \"#utility.yul\":1084:1149   */\n      tag_96\n        /* \"#utility.yul\":1100:1148   */\n      tag_97\n        /* \"#utility.yul\":1141:1147   */\n      dup5\n        /* \"#utility.yul\":1100:1148   */\n      tag_98\n      jump\t// in\n    tag_97:\n        /* \"#utility.yul\":1084:1149   */\n      tag_82\n      jump\t// in\n    tag_96:\n        /* \"#utility.yul\":1075:1149   */\n      swap1\n      pop\n        /* \"#utility.yul\":1172:1178   */\n      dup3\n        /* \"#utility.yul\":1165:1170   */\n      dup2\n        /* \"#utility.yul\":1158:1179   */\n      mstore\n        /* \"#utility.yul\":1210:1214   */\n      0x20\n        /* \"#utility.yul\":1203:1208   */\n      dup2\n        /* \"#utility.yul\":1199:1215   */\n      add\n        /* \"#utility.yul\":1248:1251   */\n      dup5\n        /* \"#utility.yul\":1239:1245   */\n      dup5\n        /* \"#utility.yul\":1234:1237   */\n      dup5\n        /* \"#utility.yul\":1230:1246   */\n      add\n        /* \"#utility.yul\":1227:1252   */\n      gt\n        /* \"#utility.yul\":1224:1336   */\n      iszero\n      tag_99\n      jumpi\n        /* \"#utility.yul\":1255:1334   */\n      tag_100\n      tag_101\n      jump\t// in\n    tag_100:\n        /* \"#utility.yul\":1224:1336   */\n    tag_99:\n        /* \"#utility.yul\":1345:1386   */\n      tag_102\n        /* \"#utility.yul\":1379:1385   */\n      dup5\n        /* \"#utility.yul\":1374:1377   */\n      dup3\n        /* \"#utility.yul\":1369:1372   */\n      dup6\n        /* \"#utility.yul\":1345:1386   */\n      tag_103\n      jump\t// in\n    tag_102:\n        /* \"#utility.yul\":1065:1392   */\n      pop\n        /* \"#utility.yul\":982:1392   */\n      swap4\n      swap3\n      pop\n      pop\n      pop\n      jump\t// out\n        /* \"#utility.yul\":1398:1810   */\n    tag_104:\n        /* \"#utility.yul\":1476:1481   */\n      0x00\n        /* \"#utility.yul\":1501:1567   */\n      tag_106\n        /* \"#utility.yul\":1517:1566   */\n      tag_107\n        /* \"#utility.yul\":1559:1565   */\n      dup5\n        /* \"#utility.yul\":1517:1566   */\n      tag_108\n      jump\t// in\n    tag_107:\n        /* \"#utility.yul\":1501:1567   */\n      tag_82\n      jump\t// in\n    tag_106:\n        /* \"#utility.yul\":1492:1567   */\n      swap1\n      pop\n        /* \"#utility.yul\":1590:1596   */\n      dup3\n        /* \"#utility.yul\":1583:1588   */\n      dup2\n        /* \"#utility.yul\":1576:1597   */\n      mstore\n        /* \"#utility.yul\":1628:1632   */\n      0x20\n        /* \"#utility.yul\":1621:1626   */\n      dup2\n        /* \"#utility.yul\":1617:1633   */\n      add\n        /* \"#utility.yul\":1666:1669   */\n      dup5\n        /* \"#utility.yul\":1657:1663   */\n      dup5\n        /* \"#utility.yul\":1652:1655   */\n      dup5\n        /* \"#utility.yul\":1648:1664   */\n      add\n        /* \"#utility.yul\":1645:1670   */\n      gt\n        /* \"#utility.yul\":1642:1754   */\n      iszero\n      tag_109\n      jumpi\n        /* \"#utility.yul\":1673:1752   */\n      tag_110\n      tag_101\n      jump\t// in\n    tag_110:\n        /* \"#utility.yul\":1642:1754   */\n    tag_109:\n        /* \"#utility.yul\":1763:1804   */\n      tag_111\n        /* \"#utility.yul\":1797:1803   */\n      dup5\n        /* \"#utility.yul\":1792:1795   */\n      dup3\n        /* \"#utility.yul\":1787:1790   */\n      dup6\n        /* \"#utility.yul\":1763:1804   */\n      tag_103\n      jump\t// in\n    tag_111:\n        /* \"#utility.yul\":1482:1810   */\n      pop\n        /* \"#utility.yul\":1398:1810   */\n      swap4\n      swap3\n      pop\n      pop\n      pop\n      jump\t// out\n        /* \"#utility.yul\":1816:1955   */\n    tag_112:\n        /* \"#utility.yul\":1862:1867   */\n      0x00\n        /* \"#utility.yul\":1900:1906   */\n      dup2\n        /* \"#utility.yul\":1887:1907   */\n      calldataload\n        /* \"#utility.yul\":1878:1907   */\n      swap1\n      pop\n        /* \"#utility.yul\":1916:1949   */\n      tag_114\n        /* \"#utility.yul\":1943:1948   */\n      dup2\n        /* \"#utility.yul\":1916:1949   */\n      tag_115\n      jump\t// in\n    tag_114:\n        /* \"#utility.yul\":1816:1955   */\n      swap3\n      swap2\n      pop\n      pop\n      jump\t// out\n        /* \"#utility.yul\":1976:2364   */\n    tag_116:\n        /* \"#utility.yul\":2056:2061   */\n      0x00\n        /* \"#utility.yul\":2105:2108   */\n      dup3\n        /* \"#utility.yul\":2098:2102   */\n      0x1f\n        /* \"#utility.yul\":2090:2096   */\n      dup4\n        /* \"#utility.yul\":2086:2103   */\n      add\n        /* \"#utility.yul\":2082:2109   */\n      slt\n        /* \"#utility.yul\":2072:2194   */\n      tag_118\n      jumpi\n        /* \"#utility.yul\":2113:2192   */\n      tag_119\n      tag_91\n      jump\t// in\n    tag_119:\n        /* \"#utility.yul\":2072:2194   */\n    tag_118:\n        /* \"#utility.yul\":2230:2236   */\n      dup2\n        /* \"#utility.yul\":2217:2237   */\n      calldataload\n        /* \"#utility.yul\":2255:2358   */\n      tag_120\n        /* \"#utility.yul\":2354:2357   */\n      dup5\n        /* \"#utility.yul\":2346:2352   */\n      dup3\n        /* \"#utility.yul\":2339:2343   */\n      0x20\n        /* \"#utility.yul\":2331:2337   */\n      dup7\n        /* \"#utility.yul\":2327:2344   */\n      add\n        /* \"#utility.yul\":2255:2358   */\n      tag_77\n      jump\t// in\n    tag_120:\n        /* \"#utility.yul\":2246:2358   */\n      swap2\n      pop\n        /* \"#utility.yul\":2062:2364   */\n      pop\n        /* \"#utility.yul\":1976:2364   */\n      swap3\n      swap2\n      pop\n      pop\n      jump\t// out\n        /* \"#utility.yul\":2370:2509   */\n    tag_121:\n        /* \"#utility.yul\":2416:2421   */\n      0x00\n        /* \"#utility.yul\":2454:2460   */\n      dup2\n        /* \"#utility.yul\":2441:2461   */\n      calldataload\n        /* \"#utility.yul\":2432:2461   */\n      swap1\n      pop\n        /* \"#utility.yul\":2470:2503   */\n      tag_123\n        /* \"#utility.yul\":2497:2502   */\n      dup2\n        /* \"#utility.yul\":2470:2503   */\n      tag_124\n      jump\t// in\n    tag_123:\n        /* \"#utility.yul\":2370:2509   */\n      swap3\n      swap2\n      pop\n      pop\n      jump\t// out\n        /* \"#utility.yul\":2528:2866   */\n    tag_93:\n        /* \"#utility.yul\":2583:2588   */\n      0x00\n        /* \"#utility.yul\":2632:2635   */\n      dup3\n        /* \"#utility.yul\":2625:2629   */\n      0x1f\n        /* \"#utility.yul\":2617:2623   */\n      dup4\n        /* \"#utility.yul\":2613:2630   */\n      add\n        /* \"#utility.yul\":2609:2636   */\n      slt\n        /* \"#utility.yul\":2599:2721   */\n      tag_126\n      jumpi\n        /* \"#utility.yul\":2640:2719   */\n      tag_127\n      tag_91\n      jump\t// in\n    tag_127:\n        /* \"#utility.yul\":2599:2721   */\n    tag_126:\n        /* \"#utility.yul\":2757:2763   */\n      dup2\n        /* \"#utility.yul\":2744:2764   */\n      calldataload\n        /* \"#utility.yul\":2782:2860   */\n      tag_128\n        /* \"#utility.yul\":2856:2859   */\n      dup5\n        /* \"#utility.yul\":2848:2854   */\n      dup3\n        /* \"#utility.yul\":2841:2845   */\n      0x20\n        /* \"#utility.yul\":2833:2839   */\n      dup7\n        /* \"#utility.yul\":2829:2846   */\n      add\n        /* \"#utility.yul\":2782:2860   */\n      tag_94\n      jump\t// in\n    tag_128:\n        /* \"#utility.yul\":2773:2860   */\n      swap2\n      pop\n        /* \"#utility.yul\":2589:2866   */\n      pop\n        /* \"#utility.yul\":2528:2866   */\n      swap3\n      swap2\n      pop\n      pop\n      jump\t// out\n        /* \"#utility.yul\":2886:3226   */\n    tag_129:\n        /* \"#utility.yul\":2942:2947   */\n      0x00\n        /* \"#utility.yul\":2991:2994   */\n      dup3\n        /* \"#utility.yul\":2984:2988   */\n      0x1f\n        /* \"#utility.yul\":2976:2982   */\n      dup4\n        /* \"#utility.yul\":2972:2989   */\n      add\n        /* \"#utility.yul\":2968:2995   */\n      slt\n        /* \"#utility.yul\":2958:3080   */\n      tag_131\n      jumpi\n        /* \"#utility.yul\":2999:3078   */\n      tag_132\n      tag_91\n      jump\t// in\n    tag_132:\n        /* \"#utility.yul\":2958:3080   */\n    tag_131:\n        /* \"#utility.yul\":3116:3122   */\n      dup2\n        /* \"#utility.yul\":3103:3123   */\n      calldataload\n        /* \"#utility.yul\":3141:3220   */\n      tag_133\n        /* \"#utility.yul\":3216:3219   */\n      dup5\n        /* \"#utility.yul\":3208:3214   */\n      dup3\n        /* \"#utility.yul\":3201:3205   */\n      0x20\n        /* \"#utility.yul\":3193:3199   */\n      dup7\n        /* \"#utility.yul\":3189:3206   */\n      add\n        /* \"#utility.yul\":3141:3220   */\n      tag_104\n      jump\t// in\n    tag_133:\n        /* \"#utility.yul\":3132:3220   */\n      swap2\n      pop\n        /* \"#utility.yul\":2948:3226   */\n      pop\n        /* \"#utility.yul\":2886:3226   */\n      swap3\n      swap2\n      pop\n      pop\n      jump\t// out\n        /* \"#utility.yul\":3232:3371   */\n    tag_134:\n        /* \"#utility.yul\":3278:3283   */\n      0x00\n        /* \"#utility.yul\":3316:3322   */\n      dup2\n        /* \"#utility.yul\":3303:3323   */\n      calldataload\n        /* \"#utility.yul\":3294:3323   */\n      swap1\n      pop\n        /* \"#utility.yul\":3332:3365   */\n      tag_136\n        /* \"#utility.yul\":3359:3364   */\n      dup2\n        /* \"#utility.yul\":3332:3365   */\n      tag_137\n      jump\t// in\n    tag_136:\n        /* \"#utility.yul\":3232:3371   */\n      swap3\n      swap2\n      pop\n      pop\n      jump\t// out\n        /* \"#utility.yul\":3377:3706   */\n    tag_35:\n        /* \"#utility.yul\":3436:3442   */\n      0x00\n        /* \"#utility.yul\":3485:3487   */\n      0x20\n        /* \"#utility.yul\":3473:3482   */\n      dup3\n        /* \"#utility.yul\":3464:3471   */\n      dup5\n        /* \"#utility.yul\":3460:3483   */\n      sub\n        /* \"#utility.yul\":3456:3488   */\n      slt\n        /* \"#utility.yul\":3453:3572   */\n      iszero\n      tag_139\n      jumpi\n        /* \"#utility.yul\":3491:3570   */\n      tag_140\n      tag_141\n      jump\t// in\n    tag_140:\n        /* \"#utility.yul\":3453:3572   */\n    tag_139:\n        /* \"#utility.yul\":3611:3612   */\n      0x00\n        /* \"#utility.yul\":3636:3689   */\n      tag_142\n        /* \"#utility.yul\":3681:3688   */\n      dup5\n        /* \"#utility.yul\":3672:3678   */\n      dup3\n        /* \"#utility.yul\":3661:3670   */\n      dup6\n        /* \"#utility.yul\":3657:3679   */\n      add\n        /* \"#utility.yul\":3636:3689   */\n      tag_112\n      jump\t// in\n    tag_142:\n        /* \"#utility.yul\":3626:3689   */\n      swap2\n      pop\n        /* \"#utility.yul\":3582:3699   */\n      pop\n        /* \"#utility.yul\":3377:3706   */\n      swap3\n      swap2\n      pop\n      pop\n      jump\t// out\n        /* \"#utility.yul\":3712:4221   */\n    tag_13:\n        /* \"#utility.yul\":3781:3787   */\n      0x00\n        /* \"#utility.yul\":3830:3832   */\n      0x20\n        /* \"#utility.yul\":3818:3827   */\n      dup3\n        /* \"#utility.yul\":3809:3816   */\n      dup5\n        /* \"#utility.yul\":3805:3828   */\n      sub\n        /* \"#utility.yul\":3801:3833   */\n      slt\n        /* \"#utility.yul\":3798:3917   */\n      iszero\n      tag_144\n      jumpi\n        /* \"#utility.yul\":3836:3915   */\n      tag_145\n      tag_141\n      jump\t// in\n    tag_145:\n        /* \"#utility.yul\":3798:3917   */\n    tag_144:\n        /* \"#utility.yul\":3984:3985   */\n      0x00\n        /* \"#utility.yul\":3973:3982   */\n      dup3\n        /* \"#utility.yul\":3969:3986   */\n      add\n        /* \"#utility.yul\":3956:3987   */\n      calldataload\n        /* \"#utility.yul\":4014:4032   */\n      0xffffffffffffffff\n        /* \"#utility.yul\":4006:4012   */\n      dup2\n        /* \"#utility.yul\":4003:4033   */\n      gt\n        /* \"#utility.yul\":4000:4117   */\n      iszero\n      tag_146\n      jumpi\n        /* \"#utility.yul\":4036:4115   */\n      tag_147\n      tag_148\n      jump\t// in\n    tag_147:\n        /* \"#utility.yul\":4000:4117   */\n    tag_146:\n        /* \"#utility.yul\":4141:4204   */\n      tag_149\n        /* \"#utility.yul\":4196:4203   */\n      dup5\n        /* \"#utility.yul\":4187:4193   */\n      dup3\n        /* \"#utility.yul\":4176:4185   */\n      dup6\n        /* \"#utility.yul\":4172:4194   */\n      add\n        /* \"#utility.yul\":4141:4204   */\n      tag_129\n      jump\t// in\n    tag_149:\n        /* \"#utility.yul\":4131:4204   */\n      swap2\n      pop\n        /* \"#utility.yul\":3927:4214   */\n      pop\n        /* \"#utility.yul\":3712:4221   */\n      swap3\n      swap2\n      pop\n      pop\n      jump\t// out\n        /* \"#utility.yul\":4227:5109   */\n    tag_31:\n        /* \"#utility.yul\":4339:4345   */\n      0x00\n        /* \"#utility.yul\":4347:4353   */\n      dup1\n        /* \"#utility.yul\":4396:4398   */\n      0x40\n        /* \"#utility.yul\":4384:4393   */\n      dup4\n        /* \"#utility.yul\":4375:4382   */\n      dup6\n        /* \"#utility.yul\":4371:4394   */\n      sub\n        /* \"#utility.yul\":4367:4399   */\n      slt\n        /* \"#utility.yul\":4364:4483   */\n      iszero\n      tag_151\n      jumpi\n        /* \"#utility.yul\":4402:4481   */\n      tag_152\n      tag_141\n      jump\t// in\n    tag_152:\n        /* \"#utility.yul\":4364:4483   */\n    tag_151:\n        /* \"#utility.yul\":4550:4551   */\n      0x00\n        /* \"#utility.yul\":4539:4548   */\n      dup4\n        /* \"#utility.yul\":4535:4552   */\n      add\n        /* \"#utility.yul\":4522:4553   */\n      calldataload\n        /* \"#utility.yul\":4580:4598   */\n      0xffffffffffffffff\n        /* \"#utility.yul\":4572:4578   */\n      dup2\n        /* \"#utility.yul\":4569:4599   */\n      gt\n        /* \"#utility.yul\":4566:4683   */\n      iszero\n      tag_153\n      jumpi\n        /* \"#utility.yul\":4602:4681   */\n      tag_154\n      tag_148\n      jump\t// in\n    tag_154:\n        /* \"#utility.yul\":4566:4683   */\n    tag_153:\n        /* \"#utility.yul\":4707:4770   */\n      tag_155\n        /* \"#utility.yul\":4762:4769   */\n      dup6\n        /* \"#utility.yul\":4753:4759   */\n      dup3\n        /* \"#utility.yul\":4742:4751   */\n      dup7\n        /* \"#utility.yul\":4738:4760   */\n      add\n        /* \"#utility.yul\":4707:4770   */\n      tag_129\n      jump\t// in\n    tag_155:\n        /* \"#utility.yul\":4697:4770   */\n      swap3\n      pop\n        /* \"#utility.yul\":4493:4780   */\n      pop\n        /* \"#utility.yul\":4847:4849   */\n      0x20\n        /* \"#utility.yul\":4836:4845   */\n      dup4\n        /* \"#utility.yul\":4832:4850   */\n      add\n        /* \"#utility.yul\":4819:4851   */\n      calldataload\n        /* \"#utility.yul\":4878:4896   */\n      0xffffffffffffffff\n        /* \"#utility.yul\":4870:4876   */\n      dup2\n        /* \"#utility.yul\":4867:4897   */\n      gt\n        /* \"#utility.yul\":4864:4981   */\n      iszero\n      tag_156\n      jumpi\n        /* \"#utility.yul\":4900:4979   */\n      tag_157\n      tag_148\n      jump\t// in\n    tag_157:\n        /* \"#utility.yul\":4864:4981   */\n    tag_156:\n        /* \"#utility.yul\":5005:5092   */\n      tag_158\n        /* \"#utility.yul\":5084:5091   */\n      dup6\n        /* \"#utility.yul\":5075:5081   */\n      dup3\n        /* \"#utility.yul\":5064:5073   */\n      dup7\n        /* \"#utility.yul\":5060:5082   */\n      add\n        /* \"#utility.yul\":5005:5092   */\n      tag_116\n      jump\t// in\n    tag_158:\n        /* \"#utility.yul\":4995:5092   */\n      swap2\n      pop\n        /* \"#utility.yul\":4790:5102   */\n      pop\n        /* \"#utility.yul\":4227:5109   */\n      swap3\n      pop\n      swap3\n      swap1\n      pop\n      jump\t// out\n        /* \"#utility.yul\":5115:6566   */\n    tag_17:\n        /* \"#utility.yul\":5240:5246   */\n      0x00\n        /* \"#utility.yul\":5248:5254   */\n      dup1\n        /* \"#utility.yul\":5256:5262   */\n      0x00\n        /* \"#utility.yul\":5264:5270   */\n      dup1\n        /* \"#utility.yul\":5272:5278   */\n      0x00\n        /* \"#utility.yul\":5321:5324   */\n      0xa0\n        /* \"#utility.yul\":5309:5318   */\n      dup7\n        /* \"#utility.yul\":5300:5307   */\n      dup9\n        /* \"#utility.yul\":5296:5319   */\n      sub\n        /* \"#utility.yul\":5292:5325   */\n      slt\n        /* \"#utility.yul\":5289:5409   */\n      iszero\n      tag_160\n      jumpi\n        /* \"#utility.yul\":5328:5407   */\n      tag_161\n      tag_141\n      jump\t// in\n    tag_161:\n        /* \"#utility.yul\":5289:5409   */\n    tag_160:\n        /* \"#utility.yul\":5476:5477   */\n      0x00\n        /* \"#utility.yul\":5465:5474   */\n      dup7\n        /* \"#utility.yul\":5461:5478   */\n      add\n        /* \"#utility.yul\":5448:5479   */\n      calldataload\n        /* \"#utility.yul\":5506:5524   */\n      0xffffffffffffffff\n        /* \"#utility.yul\":5498:5504   */\n      dup2\n        /* \"#utility.yul\":5495:5525   */\n      gt\n        /* \"#utility.yul\":5492:5609   */\n      iszero\n      tag_162\n      jumpi\n        /* \"#utility.yul\":5528:5607   */\n      tag_163\n      tag_148\n      jump\t// in\n    tag_163:\n        /* \"#utility.yul\":5492:5609   */\n    tag_162:\n        /* \"#utility.yul\":5633:5696   */\n      tag_164\n        /* \"#utility.yul\":5688:5695   */\n      dup9\n        /* \"#utility.yul\":5679:5685   */\n      dup3\n        /* \"#utility.yul\":5668:5677   */\n      dup10\n        /* \"#utility.yul\":5664:5686   */\n      add\n        /* \"#utility.yul\":5633:5696   */\n      tag_129\n      jump\t// in\n    tag_164:\n        /* \"#utility.yul\":5623:5696   */\n      swap6\n      pop\n        /* \"#utility.yul\":5419:5706   */\n      pop\n        /* \"#utility.yul\":5773:5775   */\n      0x20\n        /* \"#utility.yul\":5762:5771   */\n      dup7\n        /* \"#utility.yul\":5758:5776   */\n      add\n        /* \"#utility.yul\":5745:5777   */\n      calldataload\n        /* \"#utility.yul\":5804:5822   */\n      0xffffffffffffffff\n        /* \"#utility.yul\":5796:5802   */\n      dup2\n        /* \"#utility.yul\":5793:5823   */\n      gt\n        /* \"#utility.yul\":5790:5907   */\n      iszero\n      tag_165\n      jumpi\n        /* \"#utility.yul\":5826:5905   */\n      tag_166\n      tag_148\n      jump\t// in\n    tag_166:\n        /* \"#utility.yul\":5790:5907   */\n    tag_165:\n        /* \"#utility.yul\":5931:5994   */\n      tag_167\n        /* \"#utility.yul\":5986:5993   */\n      dup9\n        /* \"#utility.yul\":5977:5983   */\n      dup3\n        /* \"#utility.yul\":5966:5975   */\n      dup10\n        /* \"#utility.yul\":5962:5984   */\n      add\n        /* \"#utility.yul\":5931:5994   */\n      tag_129\n      jump\t// in\n    tag_167:\n        /* \"#utility.yul\":5921:5994   */\n      swap5\n      pop\n        /* \"#utility.yul\":5716:6004   */\n      pop\n        /* \"#utility.yul\":6071:6073   */\n      0x40\n        /* \"#utility.yul\":6060:6069   */\n      dup7\n        /* \"#utility.yul\":6056:6074   */\n      add\n        /* \"#utility.yul\":6043:6075   */\n      calldataload\n        /* \"#utility.yul\":6102:6120   */\n      0xffffffffffffffff\n        /* \"#utility.yul\":6094:6100   */\n      dup2\n        /* \"#utility.yul\":6091:6121   */\n      gt\n        /* \"#utility.yul\":6088:6205   */\n      iszero\n      tag_168\n      jumpi\n        /* \"#utility.yul\":6124:6203   */\n      tag_169\n      tag_148\n      jump\t// in\n    tag_169:\n        /* \"#utility.yul\":6088:6205   */\n    tag_168:\n        /* \"#utility.yul\":6229:6292   */\n      tag_170\n        /* \"#utility.yul\":6284:6291   */\n      dup9\n        /* \"#utility.yul\":6275:6281   */\n      dup3\n        /* \"#utility.yul\":6264:6273   */\n      dup10\n        /* \"#utility.yul\":6260:6282   */\n      add\n        /* \"#utility.yul\":6229:6292   */\n      tag_129\n      jump\t// in\n    tag_170:\n        /* \"#utility.yul\":6219:6292   */\n      swap4\n      pop\n        /* \"#utility.yul\":6014:6302   */\n      pop\n        /* \"#utility.yul\":6341:6343   */\n      0x60\n        /* \"#utility.yul\":6367:6420   */\n      tag_171\n        /* \"#utility.yul\":6412:6419   */\n      dup9\n        /* \"#utility.yul\":6403:6409   */\n      dup3\n        /* \"#utility.yul\":6392:6401   */\n      dup10\n        /* \"#utility.yul\":6388:6410   */\n      add\n        /* \"#utility.yul\":6367:6420   */\n      tag_134\n      jump\t// in\n    tag_171:\n        /* \"#utility.yul\":6357:6420   */\n      swap3\n      pop\n        /* \"#utility.yul\":6312:6430   */\n      pop\n        /* \"#utility.yul\":6469:6472   */\n      0x80\n        /* \"#utility.yul\":6496:6549   */\n      tag_172\n        /* \"#utility.yul\":6541:6548   */\n      dup9\n        /* \"#utility.yul\":6532:6538   */\n      dup3\n        /* \"#utility.yul\":6521:6530   */\n      dup10\n        /* \"#utility.yul\":6517:6539   */\n      add\n        /* \"#utility.yul\":6496:6549   */\n      tag_121\n      jump\t// in\n    tag_172:\n        /* \"#utility.yul\":6486:6549   */\n      swap2\n      pop\n        /* \"#utility.yul\":6440:6559   */\n      pop\n        /* \"#utility.yul\":5115:6566   */\n      swap3\n      swap6\n      pop\n      swap3\n      swap6\n      swap1\n      swap4\n      pop\n      jump\t// out\n        /* \"#utility.yul\":6572:6690   */\n    tag_173:\n        /* \"#utility.yul\":6659:6683   */\n      tag_175\n        /* \"#utility.yul\":6677:6682   */\n      dup2\n        /* \"#utility.yul\":6659:6683   */\n      tag_176\n      jump\t// in\n    tag_175:\n        /* \"#utility.yul\":6654:6657   */\n      dup3\n        /* \"#utility.yul\":6647:6684   */\n      mstore\n        /* \"#utility.yul\":6572:6690   */\n      pop\n      pop\n      jump\t// out\n        /* \"#utility.yul\":6718:7019   */\n    tag_177:\n        /* \"#utility.yul\":6814:6817   */\n      0x00\n        /* \"#utility.yul\":6835:6905   */\n      tag_179\n        /* \"#utility.yul\":6898:6904   */\n      dup4\n        /* \"#utility.yul\":6893:6896   */\n      dup6\n        /* \"#utility.yul\":6835:6905   */\n      tag_180\n      jump\t// in\n    tag_179:\n        /* \"#utility.yul\":6828:6905   */\n      swap4\n      pop\n        /* \"#utility.yul\":6915:6958   */\n      tag_181\n        /* \"#utility.yul\":6951:6957   */\n      dup4\n        /* \"#utility.yul\":6946:6949   */\n      dup6\n        /* \"#utility.yul\":6939:6944   */\n      dup5\n        /* \"#utility.yul\":6915:6958   */\n      tag_103\n      jump\t// in\n    tag_181:\n        /* \"#utility.yul\":6983:7012   */\n      tag_182\n        /* \"#utility.yul\":7005:7011   */\n      dup4\n        /* \"#utility.yul\":6983:7012   */\n      tag_183\n      jump\t// in\n    tag_182:\n        /* \"#utility.yul\":6978:6981   */\n      dup5\n        /* \"#utility.yul\":6974:7013   */\n      add\n        /* \"#utility.yul\":6967:7013   */\n      swap1\n      pop\n        /* \"#utility.yul\":6718:7019   */\n      swap4\n      swap3\n      pop\n      pop\n      pop\n      jump\t// out\n        /* \"#utility.yul\":7025:7212   */\n    tag_184:\n        /* \"#utility.yul\":7140:7205   */\n      tag_186\n        /* \"#utility.yul\":7199:7204   */\n      dup2\n        /* \"#utility.yul\":7140:7205   */\n      tag_187\n      jump\t// in\n    tag_186:\n        /* \"#utility.yul\":7135:7138   */\n      dup3\n        /* \"#utility.yul\":7128:7206   */\n      mstore\n        /* \"#utility.yul\":7025:7212   */\n      pop\n      pop\n      jump\t// out\n        /* \"#utility.yul\":7218:7582   */\n    tag_188:\n        /* \"#utility.yul\":7306:7309   */\n      0x00\n        /* \"#utility.yul\":7334:7373   */\n      tag_190\n        /* \"#utility.yul\":7367:7372   */\n      dup3\n        /* \"#utility.yul\":7334:7373   */\n      tag_191\n      jump\t// in\n    tag_190:\n        /* \"#utility.yul\":7389:7460   */\n      tag_192\n        /* \"#utility.yul\":7453:7459   */\n      dup2\n        /* \"#utility.yul\":7448:7451   */\n      dup6\n        /* \"#utility.yul\":7389:7460   */\n      tag_193\n      jump\t// in\n    tag_192:\n        /* \"#utility.yul\":7382:7460   */\n      swap4\n      pop\n        /* \"#utility.yul\":7469:7521   */\n      tag_194\n        /* \"#utility.yul\":7514:7520   */\n      dup2\n        /* \"#utility.yul\":7509:7512   */\n      dup6\n        /* \"#utility.yul\":7502:7506   */\n      0x20\n        /* \"#utility.yul\":7495:7500   */\n      dup7\n        /* \"#utility.yul\":7491:7507   */\n      add\n        /* \"#utility.yul\":7469:7521   */\n      tag_195\n      jump\t// in\n    tag_194:\n        /* \"#utility.yul\":7546:7575   */\n      tag_196\n        /* \"#utility.yul\":7568:7574   */\n      dup2\n        /* \"#utility.yul\":7546:7575   */\n      tag_183\n      jump\t// in\n    tag_196:\n        /* \"#utility.yul\":7541:7544   */\n      dup5\n        /* \"#utility.yul\":7537:7576   */\n      add\n        /* \"#utility.yul\":7530:7576   */\n      swap2\n      pop\n        /* \"#utility.yul\":7310:7582   */\n      pop\n        /* \"#utility.yul\":7218:7582   */\n      swap3\n      swap2\n      pop\n      pop\n      jump\t// out\n        /* \"#utility.yul\":7588:7954   */\n    tag_197:\n        /* \"#utility.yul\":7730:7733   */\n      0x00\n        /* \"#utility.yul\":7751:7818   */\n      tag_199\n        /* \"#utility.yul\":7815:7817   */\n      0x26\n        /* \"#utility.yul\":7810:7813   */\n      dup4\n        /* \"#utility.yul\":7751:7818   */\n      tag_193\n      jump\t// in\n    tag_199:\n        /* \"#utility.yul\":7744:7818   */\n      swap2\n      pop\n        /* \"#utility.yul\":7827:7920   */\n      tag_200\n        /* \"#utility.yul\":7916:7919   */\n      dup3\n        /* \"#utility.yul\":7827:7920   */\n      tag_201\n      jump\t// in\n    tag_200:\n        /* \"#utility.yul\":7945:7947   */\n      0x40\n        /* \"#utility.yul\":7940:7943   */\n      dup3\n        /* \"#utility.yul\":7936:7948   */\n      add\n        /* \"#utility.yul\":7929:7948   */\n      swap1\n      pop\n        /* \"#utility.yul\":7588:7954   */\n      swap2\n      swap1\n      pop\n      jump\t// out\n        /* \"#utility.yul\":7960:8326   */\n    tag_202:\n        /* \"#utility.yul\":8102:8105   */\n      0x00\n        /* \"#utility.yul\":8123:8190   */\n      tag_204\n        /* \"#utility.yul\":8187:8189   */\n      0x20\n        /* \"#utility.yul\":8182:8185   */\n      dup4\n        /* \"#utility.yul\":8123:8190   */\n      tag_193\n      jump\t// in\n    tag_204:\n        /* \"#utility.yul\":8116:8190   */\n      swap2\n      pop\n        /* \"#utility.yul\":8199:8292   */\n      tag_205\n        /* \"#utility.yul\":8288:8291   */\n      dup3\n        /* \"#utility.yul\":8199:8292   */\n      tag_206\n      jump\t// in\n    tag_205:\n        /* \"#utility.yul\":8317:8319   */\n      0x20\n        /* \"#utility.yul\":8312:8315   */\n      dup3\n        /* \"#utility.yul\":8308:8320   */\n      add\n        /* \"#utility.yul\":8301:8320   */\n      swap1\n      pop\n        /* \"#utility.yul\":7960:8326   */\n      swap2\n      swap1\n      pop\n      jump\t// out\n        /* \"#utility.yul\":8332:8698   */\n    tag_207:\n        /* \"#utility.yul\":8474:8477   */\n      0x00\n        /* \"#utility.yul\":8495:8562   */\n      tag_209\n        /* \"#utility.yul\":8559:8561   */\n      0x3b\n        /* \"#utility.yul\":8554:8557   */\n      dup4\n        /* \"#utility.yul\":8495:8562   */\n      tag_193\n      jump\t// in\n    tag_209:\n        /* \"#utility.yul\":8488:8562   */\n      swap2\n      pop\n        /* \"#utility.yul\":8571:8664   */\n      tag_210\n        /* \"#utility.yul\":8660:8663   */\n      dup3\n        /* \"#utility.yul\":8571:8664   */\n      tag_211\n      jump\t// in\n    tag_210:\n        /* \"#utility.yul\":8689:8691   */\n      0x40\n        /* \"#utility.yul\":8684:8687   */\n      dup3\n        /* \"#utility.yul\":8680:8692   */\n      add\n        /* \"#utility.yul\":8673:8692   */\n      swap1\n      pop\n        /* \"#utility.yul\":8332:8698   */\n      swap2\n      swap1\n      pop\n      jump\t// out\n        /* \"#utility.yul\":8704:8926   */\n    tag_28:\n        /* \"#utility.yul\":8797:8801   */\n      0x00\n        /* \"#utility.yul\":8835:8837   */\n      0x20\n        /* \"#utility.yul\":8824:8833   */\n      dup3\n        /* \"#utility.yul\":8820:8838   */\n      add\n        /* \"#utility.yul\":8812:8838   */\n      swap1\n      pop\n        /* \"#utility.yul\":8848:8919   */\n      tag_213\n        /* \"#utility.yul\":8916:8917   */\n      0x00\n        /* \"#utility.yul\":8905:8914   */\n      dup4\n        /* \"#utility.yul\":8901:8918   */\n      add\n        /* \"#utility.yul\":8892:8898   */\n      dup5\n        /* \"#utility.yul\":8848:8919   */\n      tag_173\n      jump\t// in\n    tag_213:\n        /* \"#utility.yul\":8704:8926   */\n      swap3\n      swap2\n      pop\n      pop\n      jump\t// out\n        /* \"#utility.yul\":8932:9210   */\n    tag_22:\n        /* \"#utility.yul\":9053:9057   */\n      0x00\n        /* \"#utility.yul\":9091:9093   */\n      0x20\n        /* \"#utility.yul\":9080:9089   */\n      dup3\n        /* \"#utility.yul\":9076:9094   */\n      add\n        /* \"#utility.yul\":9068:9094   */\n      swap1\n      pop\n        /* \"#utility.yul\":9104:9203   */\n      tag_215\n        /* \"#utility.yul\":9200:9201   */\n      0x00\n        /* \"#utility.yul\":9189:9198   */\n      dup4\n        /* \"#utility.yul\":9185:9202   */\n      add\n        /* \"#utility.yul\":9176:9182   */\n      dup5\n        /* \"#utility.yul\":9104:9203   */\n      tag_184\n      jump\t// in\n    tag_215:\n        /* \"#utility.yul\":8932:9210   */\n      swap3\n      swap2\n      pop\n      pop\n      jump\t// out\n        /* \"#utility.yul\":9216:10169   */\n    tag_44:\n        /* \"#utility.yul\":9489:9493   */\n      0x00\n        /* \"#utility.yul\":9527:9530   */\n      0xa0\n        /* \"#utility.yul\":9516:9525   */\n      dup3\n        /* \"#utility.yul\":9512:9531   */\n      add\n        /* \"#utility.yul\":9504:9531   */\n      swap1\n      pop\n        /* \"#utility.yul\":9577:9586   */\n      dup2\n        /* \"#utility.yul\":9571:9575   */\n      dup2\n        /* \"#utility.yul\":9567:9587   */\n      sub\n        /* \"#utility.yul\":9563:9564   */\n      0x00\n        /* \"#utility.yul\":9552:9561   */\n      dup4\n        /* \"#utility.yul\":9548:9565   */\n      add\n        /* \"#utility.yul\":9541:9588   */\n      mstore\n        /* \"#utility.yul\":9605:9683   */\n      tag_217\n        /* \"#utility.yul\":9678:9682   */\n      dup2\n        /* \"#utility.yul\":9669:9675   */\n      dup10\n        /* \"#utility.yul\":9605:9683   */\n      tag_188\n      jump\t// in\n    tag_217:\n        /* \"#utility.yul\":9597:9683   */\n      swap1\n      pop\n        /* \"#utility.yul\":9693:9765   */\n      tag_218\n        /* \"#utility.yul\":9761:9763   */\n      0x20\n        /* \"#utility.yul\":9750:9759   */\n      dup4\n        /* \"#utility.yul\":9746:9764   */\n      add\n        /* \"#utility.yul\":9737:9743   */\n      dup9\n        /* \"#utility.yul\":9693:9765   */\n      tag_173\n      jump\t// in\n    tag_218:\n        /* \"#utility.yul\":9775:9847   */\n      tag_219\n        /* \"#utility.yul\":9843:9845   */\n      0x40\n        /* \"#utility.yul\":9832:9841   */\n      dup4\n        /* \"#utility.yul\":9828:9846   */\n      add\n        /* \"#utility.yul\":9819:9825   */\n      dup8\n        /* \"#utility.yul\":9775:9847   */\n      tag_173\n      jump\t// in\n    tag_219:\n        /* \"#utility.yul\":9894:9903   */\n      dup2\n        /* \"#utility.yul\":9888:9892   */\n      dup2\n        /* \"#utility.yul\":9884:9904   */\n      sub\n        /* \"#utility.yul\":9879:9881   */\n      0x60\n        /* \"#utility.yul\":9868:9877   */\n      dup4\n        /* \"#utility.yul\":9864:9882   */\n      add\n        /* \"#utility.yul\":9857:9905   */\n      mstore\n        /* \"#utility.yul\":9922:10000   */\n      tag_220\n        /* \"#utility.yul\":9995:9999   */\n      dup2\n        /* \"#utility.yul\":9986:9992   */\n      dup7\n        /* \"#utility.yul\":9922:10000   */\n      tag_188\n      jump\t// in\n    tag_220:\n        /* \"#utility.yul\":9914:10000   */\n      swap1\n      pop\n        /* \"#utility.yul\":10048:10057   */\n      dup2\n        /* \"#utility.yul\":10042:10046   */\n      dup2\n        /* \"#utility.yul\":10038:10058   */\n      sub\n        /* \"#utility.yul\":10032:10035   */\n      0x80\n        /* \"#utility.yul\":10021:10030   */\n      dup4\n        /* \"#utility.yul\":10017:10036   */\n      add\n        /* \"#utility.yul\":10010:10059   */\n      mstore\n        /* \"#utility.yul\":10076:10162   */\n      tag_221\n        /* \"#utility.yul\":10157:10161   */\n      dup2\n        /* \"#utility.yul\":10148:10154   */\n      dup5\n        /* \"#utility.yul\":10140:10146   */\n      dup7\n        /* \"#utility.yul\":10076:10162   */\n      tag_177\n      jump\t// in\n    tag_221:\n        /* \"#utility.yul\":10068:10162   */\n      swap1\n      pop\n        /* \"#utility.yul\":9216:10169   */\n      swap8\n      swap7\n      pop\n      pop\n      pop\n      pop\n      pop\n      pop\n      pop\n      jump\t// out\n        /* \"#utility.yul\":10175:10594   */\n    tag_72:\n        /* \"#utility.yul\":10341:10345   */\n      0x00\n        /* \"#utility.yul\":10379:10381   */\n      0x20\n        /* \"#utility.yul\":10368:10377   */\n      dup3\n        /* \"#utility.yul\":10364:10382   */\n      add\n        /* \"#utility.yul\":10356:10382   */\n      swap1\n      pop\n        /* \"#utility.yul\":10428:10437   */\n      dup2\n        /* \"#utility.yul\":10422:10426   */\n      dup2\n        /* \"#utility.yul\":10418:10438   */\n      sub\n        /* \"#utility.yul\":10414:10415   */\n      0x00\n        /* \"#utility.yul\":10403:10412   */\n      dup4\n        /* \"#utility.yul\":10399:10416   */\n      add\n        /* \"#utility.yul\":10392:10439   */\n      mstore\n        /* \"#utility.yul\":10456:10587   */\n      tag_223\n        /* \"#utility.yul\":10582:10586   */\n      dup2\n        /* \"#utility.yul\":10456:10587   */\n      tag_197\n      jump\t// in\n    tag_223:\n        /* \"#utility.yul\":10448:10587   */\n      swap1\n      pop\n        /* \"#utility.yul\":10175:10594   */\n      swap2\n      swap1\n      pop\n      jump\t// out\n        /* \"#utility.yul\":10600:11019   */\n    tag_55:\n        /* \"#utility.yul\":10766:10770   */\n      0x00\n        /* \"#utility.yul\":10804:10806   */\n      0x20\n        /* \"#utility.yul\":10793:10802   */\n      dup3\n        /* \"#utility.yul\":10789:10807   */\n      add\n        /* \"#utility.yul\":10781:10807   */\n      swap1\n      pop\n        /* \"#utility.yul\":10853:10862   */\n      dup2\n        /* \"#utility.yul\":10847:10851   */\n      dup2\n        /* \"#utility.yul\":10843:10863   */\n      sub\n        /* \"#utility.yul\":10839:10840   */\n      0x00\n        /* \"#utility.yul\":10828:10837   */\n      dup4\n        /* \"#utility.yul\":10824:10841   */\n      add\n        /* \"#utility.yul\":10817:10864   */\n      mstore\n        /* \"#utility.yul\":10881:11012   */\n      tag_225\n        /* \"#utility.yul\":11007:11011   */\n      dup2\n        /* \"#utility.yul\":10881:11012   */\n      tag_202\n      jump\t// in\n    tag_225:\n        /* \"#utility.yul\":10873:11012   */\n      swap1\n      pop\n        /* \"#utility.yul\":10600:11019   */\n      swap2\n      swap1\n      pop\n      jump\t// out\n        /* \"#utility.yul\":11025:11444   */\n    tag_40:\n        /* \"#utility.yul\":11191:11195   */\n      0x00\n        /* \"#utility.yul\":11229:11231   */\n      0x20\n        /* \"#utility.yul\":11218:11227   */\n      dup3\n        /* \"#utility.yul\":11214:11232   */\n      add\n        /* \"#utility.yul\":11206:11232   */\n      swap1\n      pop\n        /* \"#utility.yul\":11278:11287   */\n      dup2\n        /* \"#utility.yul\":11272:11276   */\n      dup2\n        /* \"#utility.yul\":11268:11288   */\n      sub\n        /* \"#utility.yul\":11264:11265   */\n      0x00\n        /* \"#utility.yul\":11253:11262   */\n      dup4\n        /* \"#utility.yul\":11249:11266   */\n      add\n        /* \"#utility.yul\":11242:11289   */\n      mstore\n        /* \"#utility.yul\":11306:11437   */\n      tag_227\n        /* \"#utility.yul\":11432:11436   */\n      dup2\n        /* \"#utility.yul\":11306:11437   */\n      tag_207\n      jump\t// in\n    tag_227:\n        /* \"#utility.yul\":11298:11437   */\n      swap1\n      pop\n        /* \"#utility.yul\":11025:11444   */\n      swap2\n      swap1\n      pop\n      jump\t// out\n        /* \"#utility.yul\":11450:11579   */\n    tag_82:\n        /* \"#utility.yul\":11484:11490   */\n      0x00\n        /* \"#utility.yul\":11511:11531   */\n      tag_229\n      tag_230\n      jump\t// in\n    tag_229:\n        /* \"#utility.yul\":11501:11531   */\n      swap1\n      pop\n        /* \"#utility.yul\":11540:11573   */\n      tag_231\n        /* \"#utility.yul\":11568:11572   */\n      dup3\n        /* \"#utility.yul\":11560:11566   */\n      dup3\n        /* \"#utility.yul\":11540:11573   */\n      tag_232\n      jump\t// in\n    tag_231:\n        /* \"#utility.yul\":11450:11579   */\n      swap2\n      swap1\n      pop\n      jump\t// out\n        /* \"#utility.yul\":11585:11660   */\n    tag_230:\n        /* \"#utility.yul\":11618:11624   */\n      0x00\n        /* \"#utility.yul\":11651:11653   */\n      0x40\n        /* \"#utility.yul\":11645:11654   */\n      mload\n        /* \"#utility.yul\":11635:11654   */\n      swap1\n      pop\n        /* \"#utility.yul\":11585:11660   */\n      swap1\n      jump\t// out\n        /* \"#utility.yul\":11666:11986   */\n    tag_81:\n        /* \"#utility.yul\":11752:11756   */\n      0x00\n        /* \"#utility.yul\":11842:11860   */\n      0xffffffffffffffff\n        /* \"#utility.yul\":11834:11840   */\n      dup3\n        /* \"#utility.yul\":11831:11861   */\n      gt\n        /* \"#utility.yul\":11828:11884   */\n      iszero\n      tag_235\n      jumpi\n        /* \"#utility.yul\":11864:11882   */\n      tag_236\n      tag_237\n      jump\t// in\n    tag_236:\n        /* \"#utility.yul\":11828:11884   */\n    tag_235:\n        /* \"#utility.yul\":11914:11918   */\n      0x20\n        /* \"#utility.yul\":11906:11912   */\n      dup3\n        /* \"#utility.yul\":11902:11919   */\n      mul\n        /* \"#utility.yul\":11894:11919   */\n      swap1\n      pop\n        /* \"#utility.yul\":11974:11978   */\n      0x20\n        /* \"#utility.yul\":11968:11972   */\n      dup2\n        /* \"#utility.yul\":11964:11979   */\n      add\n        /* \"#utility.yul\":11956:11979   */\n      swap1\n      pop\n        /* \"#utility.yul\":11666:11986   */\n      swap2\n      swap1\n      pop\n      jump\t// out\n        /* \"#utility.yul\":11992:12299   */\n    tag_98:\n        /* \"#utility.yul\":12053:12057   */\n      0x00\n        /* \"#utility.yul\":12143:12161   */\n      0xffffffffffffffff\n        /* \"#utility.yul\":12135:12141   */\n      dup3\n        /* \"#utility.yul\":12132:12162   */\n      gt\n        /* \"#utility.yul\":12129:12185   */\n      iszero\n      tag_239\n      jumpi\n        /* \"#utility.yul\":12165:12183   */\n      tag_240\n      tag_237\n      jump\t// in\n    tag_240:\n        /* \"#utility.yul\":12129:12185   */\n    tag_239:\n        /* \"#utility.yul\":12203:12232   */\n      tag_241\n        /* \"#utility.yul\":12225:12231   */\n      dup3\n        /* \"#utility.yul\":12203:12232   */\n      tag_183\n      jump\t// in\n    tag_241:\n        /* \"#utility.yul\":12195:12232   */\n      swap1\n      pop\n        /* \"#utility.yul\":12287:12291   */\n      0x20\n        /* \"#utility.yul\":12281:12285   */\n      dup2\n        /* \"#utility.yul\":12277:12292   */\n      add\n        /* \"#utility.yul\":12269:12292   */\n      swap1\n      pop\n        /* \"#utility.yul\":11992:12299   */\n      swap2\n      swap1\n      pop\n      jump\t// out\n        /* \"#utility.yul\":12305:12613   */\n    tag_108:\n        /* \"#utility.yul\":12367:12371   */\n      0x00\n        /* \"#utility.yul\":12457:12475   */\n      0xffffffffffffffff\n        /* \"#utility.yul\":12449:12455   */\n      dup3\n        /* \"#utility.yul\":12446:12476   */\n      gt\n        /* \"#utility.yul\":12443:12499   */\n      iszero\n      tag_243\n      jumpi\n        /* \"#utility.yul\":12479:12497   */\n      tag_244\n      tag_237\n      jump\t// in\n    tag_244:\n        /* \"#utility.yul\":12443:12499   */\n    tag_243:\n        /* \"#utility.yul\":12517:12546   */\n      tag_245\n        /* \"#utility.yul\":12539:12545   */\n      dup3\n        /* \"#utility.yul\":12517:12546   */\n      tag_183\n      jump\t// in\n    tag_245:\n        /* \"#utility.yul\":12509:12546   */\n      swap1\n      pop\n        /* \"#utility.yul\":12601:12605   */\n      0x20\n        /* \"#utility.yul\":12595:12599   */\n      dup2\n        /* \"#utility.yul\":12591:12606   */\n      add\n        /* \"#utility.yul\":12583:12606   */\n      swap1\n      pop\n        /* \"#utility.yul\":12305:12613   */\n      swap2\n      swap1\n      pop\n      jump\t// out\n        /* \"#utility.yul\":12619:12718   */\n    tag_191:\n        /* \"#utility.yul\":12671:12677   */\n      0x00\n        /* \"#utility.yul\":12705:12710   */\n      dup2\n        /* \"#utility.yul\":12699:12711   */\n      mload\n        /* \"#utility.yul\":12689:12711   */\n      swap1\n      pop\n        /* \"#utility.yul\":12619:12718   */\n      swap2\n      swap1\n      pop\n      jump\t// out\n        /* \"#utility.yul\":12724:12892   */\n    tag_180:\n        /* \"#utility.yul\":12807:12818   */\n      0x00\n        /* \"#utility.yul\":12841:12847   */\n      dup3\n        /* \"#utility.yul\":12836:12839   */\n      dup3\n        /* \"#utility.yul\":12829:12848   */\n      mstore\n        /* \"#utility.yul\":12881:12885   */\n      0x20\n        /* \"#utility.yul\":12876:12879   */\n      dup3\n        /* \"#utility.yul\":12872:12886   */\n      add\n        /* \"#utility.yul\":12857:12886   */\n      swap1\n      pop\n        /* \"#utility.yul\":12724:12892   */\n      swap3\n      swap2\n      pop\n      pop\n      jump\t// out\n        /* \"#utility.yul\":12898:13067   */\n    tag_193:\n        /* \"#utility.yul\":12982:12993   */\n      0x00\n        /* \"#utility.yul\":13016:13022   */\n      dup3\n        /* \"#utility.yul\":13011:13014   */\n      dup3\n        /* \"#utility.yul\":13004:13023   */\n      mstore\n        /* \"#utility.yul\":13056:13060   */\n      0x20\n        /* \"#utility.yul\":13051:13054   */\n      dup3\n        /* \"#utility.yul\":13047:13061   */\n      add\n        /* \"#utility.yul\":13032:13061   */\n      swap1\n      pop\n        /* \"#utility.yul\":12898:13067   */\n      swap3\n      swap2\n      pop\n      pop\n      jump\t// out\n        /* \"#utility.yul\":13073:13169   */\n    tag_176:\n        /* \"#utility.yul\":13110:13117   */\n      0x00\n        /* \"#utility.yul\":13139:13163   */\n      tag_250\n        /* \"#utility.yul\":13157:13162   */\n      dup3\n        /* \"#utility.yul\":13139:13163   */\n      tag_251\n      jump\t// in\n    tag_250:\n        /* \"#utility.yul\":13128:13163   */\n      swap1\n      pop\n        /* \"#utility.yul\":13073:13169   */\n      swap2\n      swap1\n      pop\n      jump\t// out\n        /* \"#utility.yul\":13175:13252   */\n    tag_252:\n        /* \"#utility.yul\":13212:13219   */\n      0x00\n        /* \"#utility.yul\":13241:13246   */\n      dup2\n        /* \"#utility.yul\":13230:13246   */\n      swap1\n      pop\n        /* \"#utility.yul\":13175:13252   */\n      swap2\n      swap1\n      pop\n      jump\t// out\n        /* \"#utility.yul\":13258:13384   */\n    tag_251:\n        /* \"#utility.yul\":13295:13302   */\n      0x00\n        /* \"#utility.yul\":13335:13377   */\n      0xffffffffffffffffffffffffffffffffffffffff\n        /* \"#utility.yul\":13328:13333   */\n      dup3\n        /* \"#utility.yul\":13324:13378   */\n      and\n        /* \"#utility.yul\":13313:13378   */\n      swap1\n      pop\n        /* \"#utility.yul\":13258:13384   */\n      swap2\n      swap1\n      pop\n      jump\t// out\n        /* \"#utility.yul\":13390:13467   */\n    tag_255:\n        /* \"#utility.yul\":13427:13434   */\n      0x00\n        /* \"#utility.yul\":13456:13461   */\n      dup2\n        /* \"#utility.yul\":13445:13461   */\n      swap1\n      pop\n        /* \"#utility.yul\":13390:13467   */\n      swap2\n      swap1\n      pop\n      jump\t// out\n        /* \"#utility.yul\":13473:13627   */\n    tag_187:\n        /* \"#utility.yul\":13551:13560   */\n      0x00\n        /* \"#utility.yul\":13584:13621   */\n      tag_258\n        /* \"#utility.yul\":13615:13620   */\n      dup3\n        /* \"#utility.yul\":13584:13621   */\n      tag_259\n      jump\t// in\n    tag_258:\n        /* \"#utility.yul\":13571:13621   */\n      swap1\n      pop\n        /* \"#utility.yul\":13473:13627   */\n      swap2\n      swap1\n      pop\n      jump\t// out\n        /* \"#utility.yul\":13633:13759   */\n    tag_259:\n        /* \"#utility.yul\":13683:13692   */\n      0x00\n        /* \"#utility.yul\":13716:13753   */\n      tag_261\n        /* \"#utility.yul\":13747:13752   */\n      dup3\n        /* \"#utility.yul\":13716:13753   */\n      tag_262\n      jump\t// in\n    tag_261:\n        /* \"#utility.yul\":13703:13753   */\n      swap1\n      pop\n        /* \"#utility.yul\":13633:13759   */\n      swap2\n      swap1\n      pop\n      jump\t// out\n        /* \"#utility.yul\":13765:13878   */\n    tag_262:\n        /* \"#utility.yul\":13815:13824   */\n      0x00\n        /* \"#utility.yul\":13848:13872   */\n      tag_264\n        /* \"#utility.yul\":13866:13871   */\n      dup3\n        /* \"#utility.yul\":13848:13872   */\n      tag_251\n      jump\t// in\n    tag_264:\n        /* \"#utility.yul\":13835:13872   */\n      swap1\n      pop\n        /* \"#utility.yul\":13765:13878   */\n      swap2\n      swap1\n      pop\n      jump\t// out\n        /* \"#utility.yul\":13884:14038   */\n    tag_103:\n        /* \"#utility.yul\":13968:13974   */\n      dup3\n        /* \"#utility.yul\":13963:13966   */\n      dup2\n        /* \"#utility.yul\":13958:13961   */\n      dup4\n        /* \"#utility.yul\":13945:13975   */\n      calldatacopy\n        /* \"#utility.yul\":14030:14031   */\n      0x00\n        /* \"#utility.yul\":14021:14027   */\n      dup4\n        /* \"#utility.yul\":14016:14019   */\n      dup4\n        /* \"#utility.yul\":14012:14028   */\n      add\n        /* \"#utility.yul\":14005:14032   */\n      mstore\n        /* \"#utility.yul\":13884:14038   */\n      pop\n      pop\n      pop\n      jump\t// out\n        /* \"#utility.yul\":14044:14351   */\n    tag_195:\n        /* \"#utility.yul\":14112:14113   */\n      0x00\n        /* \"#utility.yul\":14122:14235   */\n    tag_267:\n        /* \"#utility.yul\":14136:14142   */\n      dup4\n        /* \"#utility.yul\":14133:14134   */\n      dup2\n        /* \"#utility.yul\":14130:14143   */\n      lt\n        /* \"#utility.yul\":14122:14235   */\n      iszero\n      tag_269\n      jumpi\n        /* \"#utility.yul\":14221:14222   */\n      dup1\n        /* \"#utility.yul\":14216:14219   */\n      dup3\n        /* \"#utility.yul\":14212:14223   */\n      add\n        /* \"#utility.yul\":14206:14224   */\n      mload\n        /* \"#utility.yul\":14202:14203   */\n      dup2\n        /* \"#utility.yul\":14197:14200   */\n      dup5\n        /* \"#utility.yul\":14193:14204   */\n      add\n        /* \"#utility.yul\":14186:14225   */\n      mstore\n        /* \"#utility.yul\":14158:14160   */\n      0x20\n        /* \"#utility.yul\":14155:14156   */\n      dup2\n        /* \"#utility.yul\":14151:14161   */\n      add\n        /* \"#utility.yul\":14146:14161   */\n      swap1\n      pop\n        /* \"#utility.yul\":14122:14235   */\n      jump(tag_267)\n    tag_269:\n        /* \"#utility.yul\":14253:14259   */\n      dup4\n        /* \"#utility.yul\":14250:14251   */\n      dup2\n        /* \"#utility.yul\":14247:14260   */\n      gt\n        /* \"#utility.yul\":14244:14345   */\n      iszero\n      tag_270\n      jumpi\n        /* \"#utility.yul\":14333:14334   */\n      0x00\n        /* \"#utility.yul\":14324:14330   */\n      dup5\n        /* \"#utility.yul\":14319:14322   */\n      dup5\n        /* \"#utility.yul\":14315:14331   */\n      add\n        /* \"#utility.yul\":14308:14335   */\n      mstore\n        /* \"#utility.yul\":14244:14345   */\n    tag_270:\n        /* \"#utility.yul\":14093:14351   */\n      pop\n        /* \"#utility.yul\":14044:14351   */\n      pop\n      pop\n      pop\n      jump\t// out\n        /* \"#utility.yul\":14357:14638   */\n    tag_232:\n        /* \"#utility.yul\":14440:14467   */\n      tag_272\n        /* \"#utility.yul\":14462:14466   */\n      dup3\n        /* \"#utility.yul\":14440:14467   */\n      tag_183\n      jump\t// in\n    tag_272:\n        /* \"#utility.yul\":14432:14438   */\n      dup2\n        /* \"#utility.yul\":14428:14468   */\n      add\n        /* \"#utility.yul\":14570:14576   */\n      dup2\n        /* \"#utility.yul\":14558:14568   */\n      dup2\n        /* \"#utility.yul\":14555:14577   */\n      lt\n        /* \"#utility.yul\":14534:14552   */\n      0xffffffffffffffff\n        /* \"#utility.yul\":14522:14532   */\n      dup3\n        /* \"#utility.yul\":14519:14553   */\n      gt\n        /* \"#utility.yul\":14516:14578   */\n      or\n        /* \"#utility.yul\":14513:14601   */\n      iszero\n      tag_273\n      jumpi\n        /* \"#utility.yul\":14581:14599   */\n      tag_274\n      tag_237\n      jump\t// in\n    tag_274:\n        /* \"#utility.yul\":14513:14601   */\n    tag_273:\n        /* \"#utility.yul\":14621:14631   */\n      dup1\n        /* \"#utility.yul\":14617:14619   */\n      0x40\n        /* \"#utility.yul\":14610:14632   */\n      mstore\n        /* \"#utility.yul\":14400:14638   */\n      pop\n        /* \"#utility.yul\":14357:14638   */\n      pop\n      pop\n      jump\t// out\n        /* \"#utility.yul\":14644:14824   */\n    tag_237:\n        /* \"#utility.yul\":14692:14769   */\n      0x4e487b7100000000000000000000000000000000000000000000000000000000\n        /* \"#utility.yul\":14689:14690   */\n      0x00\n        /* \"#utility.yul\":14682:14770   */\n      mstore\n        /* \"#utility.yul\":14789:14793   */\n      0x41\n        /* \"#utility.yul\":14786:14787   */\n      0x04\n        /* \"#utility.yul\":14779:14794   */\n      mstore\n        /* \"#utility.yul\":14813:14817   */\n      0x24\n        /* \"#utility.yul\":14810:14811   */\n      0x00\n        /* \"#utility.yul\":14803:14818   */\n      revert\n        /* \"#utility.yul\":14830:14947   */\n    tag_91:\n        /* \"#utility.yul\":14939:14940   */\n      0x00\n        /* \"#utility.yul\":14936:14937   */\n      dup1\n        /* \"#utility.yul\":14929:14941   */\n      revert\n        /* \"#utility.yul\":14953:15070   */\n    tag_85:\n        /* \"#utility.yul\":15062:15063   */\n      0x00\n        /* \"#utility.yul\":15059:15060   */\n      dup1\n        /* \"#utility.yul\":15052:15064   */\n      revert\n        /* \"#utility.yul\":15076:15193   */\n    tag_101:\n        /* \"#utility.yul\":15185:15186   */\n      0x00\n        /* \"#utility.yul\":15182:15183   */\n      dup1\n        /* \"#utility.yul\":15175:15187   */\n      revert\n        /* \"#utility.yul\":15199:15316   */\n    tag_148:\n        /* \"#utility.yul\":15308:15309   */\n      0x00\n        /* \"#utility.yul\":15305:15306   */\n      dup1\n        /* \"#utility.yul\":15298:15310   */\n      revert\n        /* \"#utility.yul\":15322:15439   */\n    tag_141:\n        /* \"#utility.yul\":15431:15432   */\n      0x00\n        /* \"#utility.yul\":15428:15429   */\n      dup1\n        /* \"#utility.yul\":15421:15433   */\n      revert\n        /* \"#utility.yul\":15445:15547   */\n    tag_183:\n        /* \"#utility.yul\":15486:15492   */\n      0x00\n        /* \"#utility.yul\":15537:15539   */\n      0x1f\n        /* \"#utility.yul\":15533:15540   */\n      not\n        /* \"#utility.yul\":15528:15530   */\n      0x1f\n        /* \"#utility.yul\":15521:15526   */\n      dup4\n        /* \"#utility.yul\":15517:15531   */\n      add\n        /* \"#utility.yul\":15513:15541   */\n      and\n        /* \"#utility.yul\":15503:15541   */\n      swap1\n      pop\n        /* \"#utility.yul\":15445:15547   */\n      swap2\n      swap1\n      pop\n      jump\t// out\n        /* \"#utility.yul\":15553:15778   */\n    tag_201:\n        /* \"#utility.yul\":15693:15727   */\n      0x4f776e61626c653a206e6577206f776e657220697320746865207a65726f2061\n        /* \"#utility.yul\":15689:15690   */\n      0x00\n        /* \"#utility.yul\":15681:15687   */\n      dup3\n        /* \"#utility.yul\":15677:15691   */\n      add\n        /* \"#utility.yul\":15670:15728   */\n      mstore\n        /* \"#utility.yul\":15762:15770   */\n      0x6464726573730000000000000000000000000000000000000000000000000000\n        /* \"#utility.yul\":15757:15759   */\n      0x20\n        /* \"#utility.yul\":15749:15755   */\n      dup3\n        /* \"#utility.yul\":15745:15760   */\n      add\n        /* \"#utility.yul\":15738:15771   */\n      mstore\n        /* \"#utility.yul\":15553:15778   */\n      pop\n      jump\t// out\n        /* \"#utility.yul\":15784:15966   */\n    tag_206:\n        /* \"#utility.yul\":15924:15958   */\n      0x4f776e61626c653a2063616c6c6572206973206e6f7420746865206f776e6572\n        /* \"#utility.yul\":15920:15921   */\n      0x00\n        /* \"#utility.yul\":15912:15918   */\n      dup3\n        /* \"#utility.yul\":15908:15922   */\n      add\n        /* \"#utility.yul\":15901:15959   */\n      mstore\n        /* \"#utility.yul\":15784:15966   */\n      pop\n      jump\t// out\n        /* \"#utility.yul\":15972:16218   */\n    tag_211:\n        /* \"#utility.yul\":16112:16146   */\n      0x43726564656e7469616c2043616c6c4261636b3a204f6e6c7920746865206f72\n        /* \"#utility.yul\":16108:16109   */\n      0x00\n        /* \"#utility.yul\":16100:16106   */\n      dup3\n        /* \"#utility.yul\":16096:16110   */\n      add\n        /* \"#utility.yul\":16089:16147   */\n      mstore\n        /* \"#utility.yul\":16181:16210   */\n      0x61636c652063616e2063616c6c20746869732066756e6374696f6e0000000000\n        /* \"#utility.yul\":16176:16178   */\n      0x20\n        /* \"#utility.yul\":16168:16174   */\n      dup3\n        /* \"#utility.yul\":16164:16179   */\n      add\n        /* \"#utility.yul\":16157:16211   */\n      mstore\n        /* \"#utility.yul\":15972:16218   */\n      pop\n      jump\t// out\n        /* \"#utility.yul\":16224:16346   */\n    tag_115:\n        /* \"#utility.yul\":16297:16321   */\n      tag_286\n        /* \"#utility.yul\":16315:16320   */\n      dup2\n        /* \"#utility.yul\":16297:16321   */\n      tag_176\n      jump\t// in\n    tag_286:\n        /* \"#utility.yul\":16290:16295   */\n      dup2\n        /* \"#utility.yul\":16287:16322   */\n      eq\n        /* \"#utility.yul\":16277:16340   */\n      tag_287\n      jumpi\n        /* \"#utility.yul\":16336:16337   */\n      0x00\n        /* \"#utility.yul\":16333:16334   */\n      dup1\n        /* \"#utility.yul\":16326:16338   */\n      revert\n        /* \"#utility.yul\":16277:16340   */\n    tag_287:\n        /* \"#utility.yul\":16224:16346   */\n      pop\n      jump\t// out\n        /* \"#utility.yul\":16352:16474   */\n    tag_124:\n        /* \"#utility.yul\":16425:16449   */\n      tag_289\n        /* \"#utility.yul\":16443:16448   */\n      dup2\n        /* \"#utility.yul\":16425:16449   */\n      tag_252\n      jump\t// in\n    tag_289:\n        /* \"#utility.yul\":16418:16423   */\n      dup2\n        /* \"#utility.yul\":16415:16450   */\n      eq\n        /* \"#utility.yul\":16405:16468   */\n      tag_290\n      jumpi\n        /* \"#utility.yul\":16464:16465   */\n      0x00\n        /* \"#utility.yul\":16461:16462   */\n      dup1\n        /* \"#utility.yul\":16454:16466   */\n      revert\n        /* \"#utility.yul\":16405:16468   */\n    tag_290:\n        /* \"#utility.yul\":16352:16474   */\n      pop\n      jump\t// out\n        /* \"#utility.yul\":16480:16602   */\n    tag_137:\n        /* \"#utility.yul\":16553:16577   */\n      tag_292\n        /* \"#utility.yul\":16571:16576   */\n      dup2\n        /* \"#utility.yul\":16553:16577   */\n      tag_255\n      jump\t// in\n    tag_292:\n        /* \"#utility.yul\":16546:16551   */\n      dup2\n        /* \"#utility.yul\":16543:16578   */\n      eq\n        /* \"#utility.yul\":16533:16596   */\n      tag_293\n      jumpi\n        /* \"#utility.yul\":16592:16593   */\n      0x00\n        /* \"#utility.yul\":16589:16590   */\n      dup1\n        /* \"#utility.yul\":16582:16594   */\n      revert\n        /* \"#utility.yul\":16533:16596   */\n    tag_293:\n        /* \"#utility.yul\":16480:16602   */\n      pop\n      jump\t// out\n\n    auxdata: 0xa26469706673582212206c3de2f0af5699113174e4303039dad8d0639f1d66b92c9b8e58f3e61e1d64fd64736f6c63430008070033\n}\n",
				"bytecode": {
					"linkReferences": {},
					"object": "60806040523480156200001157600080fd5b5060405162001131380380620011318339818101604052810190620000379190620001c5565b80620000586200004c620000e260201b60201c565b620000ea60201b60201c565b80600160006101000a81548173ffffffffffffffffffffffffffffffffffffffff021916908373ffffffffffffffffffffffffffffffffffffffff16021790555080600260006101000a81548173ffffffffffffffffffffffffffffffffffffffff021916908373ffffffffffffffffffffffffffffffffffffffff16021790555050506200025e565b600033905090565b60008060009054906101000a900473ffffffffffffffffffffffffffffffffffffffff169050816000806101000a81548173ffffffffffffffffffffffffffffffffffffffff021916908373ffffffffffffffffffffffffffffffffffffffff1602179055508173ffffffffffffffffffffffffffffffffffffffff168173ffffffffffffffffffffffffffffffffffffffff167f8be0079c531659141344cd1fd0a4f28419497f9722a3daafe3b4186f6b6457e060405160405180910390a35050565b600081519050620001bf8162000244565b92915050565b600060208284031215620001de57620001dd6200023f565b5b6000620001ee84828501620001ae565b91505092915050565b600062000204826200021f565b9050919050565b60006200021882620001f7565b9050919050565b600073ffffffffffffffffffffffffffffffffffffffff82169050919050565b600080fd5b6200024f816200020b565b81146200025b57600080fd5b50565b610ec3806200026e6000396000f3fe608060405234801561001057600080fd5b506004361061007d5760003560e01c8063715018a61161005b578063715018a6146100d85780638da5cb5b146100e2578063dce8a95514610100578063f2fde38b1461011c5761007d565b8063436e99f3146100825780634cd2dbb31461009e5780635f7690b3146100ba575b600080fd5b61009c600480360381019061009791906107dc565b610138565b005b6100b860048036038101906100b3919061089d565b6101cb565b005b6100c26102a5565b6040516100cf9190610a74565b60405180910390f35b6100e06102cb565b005b6100ea610353565b6040516100f79190610a59565b60405180910390f35b61011a60048036038101906101159190610825565b61037c565b005b610136600480360381019061013191906107af565b610410565b005b600160009054906101000a900473ffffffffffffffffffffffffffffffffffffffff1673ffffffffffffffffffffffffffffffffffffffff163373ffffffffffffffffffffffffffffffffffffffff16146101c8576040517f08c379a00000000000000000000000000000000000000000000000000000000081526004016101bf90610b39565b60405180910390fd5b50565b83306040518060400160405280600881526020017f706f737456696265000000000000000000000000000000000000000000000000815250600260009054906101000a900473ffffffffffffffffffffffffffffffffffffffff1673ffffffffffffffffffffffffffffffffffffffff1663a78d2ba3843385856000366040518763ffffffff1660e01b815260040161026996959493929190610a8f565b600060405180830381600087803b15801561028357600080fd5b505af1158015610297573d6000803e3d6000fd5b505050505050505050505050565b600260009054906101000a900473ffffffffffffffffffffffffffffffffffffffff1681565b6102d3610508565b73ffffffffffffffffffffffffffffffffffffffff166102f1610353565b73ffffffffffffffffffffffffffffffffffffffff1614610347576040517f08c379a000000000000000000000000000000000000000000000000000000000815260040161033e90610b19565b60405180910390fd5b6103516000610510565b565b60008060009054906101000a900473ffffffffffffffffffffffffffffffffffffffff16905090565b600160009054906101000a900473ffffffffffffffffffffffffffffffffffffffff1673ffffffffffffffffffffffffffffffffffffffff163373ffffffffffffffffffffffffffffffffffffffff161461040c576040517f08c379a000000000000000000000000000000000000000000000000000000000815260040161040390610b39565b60405180910390fd5b5050565b610418610508565b73ffffffffffffffffffffffffffffffffffffffff16610436610353565b73ffffffffffffffffffffffffffffffffffffffff161461048c576040517f08c379a000000000000000000000000000000000000000000000000000000000815260040161048390610b19565b60405180910390fd5b600073ffffffffffffffffffffffffffffffffffffffff168173ffffffffffffffffffffffffffffffffffffffff1614156104fc576040517f08c379a00000000000000000000000000000000000000000000000000000000081526004016104f390610af9565b60405180910390fd5b61050581610510565b50565b600033905090565b60008060009054906101000a900473ffffffffffffffffffffffffffffffffffffffff169050816000806101000a81548173ffffffffffffffffffffffffffffffffffffffff021916908373ffffffffffffffffffffffffffffffffffffffff1602179055508173ffffffffffffffffffffffffffffffffffffffff168173ffffffffffffffffffffffffffffffffffffffff167f8be0079c531659141344cd1fd0a4f28419497f9722a3daafe3b4186f6b6457e060405160405180910390a35050565b60006105e76105e284610b7e565b610b59565b9050808382526020820190508285602086028201111561060a57610609610d5c565b5b60005b8581101561065857813567ffffffffffffffff8111156106305761062f610d57565b5b80860161063d898261073e565b8552602085019450602084019350505060018101905061060d565b5050509392505050565b600061067561067084610baa565b610b59565b90508281526020810184848401111561069157610690610d61565b5b61069c848285610cb5565b509392505050565b60006106b76106b284610bdb565b610b59565b9050828152602081018484840111156106d3576106d2610d61565b5b6106de848285610cb5565b509392505050565b6000813590506106f581610e48565b92915050565b600082601f8301126107105761070f610d57565b5b81356107208482602086016105d4565b91505092915050565b60008135905061073881610e5f565b92915050565b600082601f83011261075357610752610d57565b5b8135610763848260208601610662565b91505092915050565b600082601f83011261078157610780610d57565b5b81356107918482602086016106a4565b91505092915050565b6000813590506107a981610e76565b92915050565b6000602082840312156107c5576107c4610d6b565b5b60006107d3848285016106e6565b91505092915050565b6000602082840312156107f2576107f1610d6b565b5b600082013567ffffffffffffffff8111156108105761080f610d66565b5b61081c8482850161076c565b91505092915050565b6000806040838503121561083c5761083b610d6b565b5b600083013567ffffffffffffffff81111561085a57610859610d66565b5b6108668582860161076c565b925050602083013567ffffffffffffffff81111561088757610886610d66565b5b610893858286016106fb565b9150509250929050565b600080600080600060a086880312156108b9576108b8610d6b565b5b600086013567ffffffffffffffff8111156108d7576108d6610d66565b5b6108e38882890161076c565b955050602086013567ffffffffffffffff81111561090457610903610d66565b5b6109108882890161076c565b945050604086013567ffffffffffffffff81111561093157610930610d66565b5b61093d8882890161076c565b935050606061094e8882890161079a565b925050608061095f88828901610729565b9150509295509295909350565b61097581610c39565b82525050565b60006109878385610c17565b9350610994838584610cb5565b61099d83610d70565b840190509392505050565b6109b181610c7f565b82525050565b60006109c282610c0c565b6109cc8185610c28565b93506109dc818560208601610cc4565b6109e581610d70565b840191505092915050565b60006109fd602683610c28565b9150610a0882610d81565b604082019050919050565b6000610a20602083610c28565b9150610a2b82610dd0565b602082019050919050565b6000610a43603b83610c28565b9150610a4e82610df9565b604082019050919050565b6000602082019050610a6e600083018461096c565b92915050565b6000602082019050610a8960008301846109a8565b92915050565b600060a0820190508181036000830152610aa981896109b7565b9050610ab8602083018861096c565b610ac5604083018761096c565b8181036060830152610ad781866109b7565b90508181036080830152610aec81848661097b565b9050979650505050505050565b60006020820190508181036000830152610b12816109f0565b9050919050565b60006020820190508181036000830152610b3281610a13565b9050919050565b60006020820190508181036000830152610b5281610a36565b9050919050565b6000610b63610b74565b9050610b6f8282610cf7565b919050565b6000604051905090565b600067ffffffffffffffff821115610b9957610b98610d28565b5b602082029050602081019050919050565b600067ffffffffffffffff821115610bc557610bc4610d28565b5b610bce82610d70565b9050602081019050919050565b600067ffffffffffffffff821115610bf657610bf5610d28565b5b610bff82610d70565b9050602081019050919050565b600081519050919050565b600082825260208201905092915050565b600082825260208201905092915050565b6000610c4482610c55565b9050919050565b6000819050919050565b600073ffffffffffffffffffffffffffffffffffffffff82169050919050565b6000819050919050565b6000610c8a82610c91565b9050919050565b6000610c9c82610ca3565b9050919050565b6000610cae82610c55565b9050919050565b82818337600083830152505050565b60005b83811015610ce2578082015181840152602081019050610cc7565b83811115610cf1576000848401525b50505050565b610d0082610d70565b810181811067ffffffffffffffff82111715610d1f57610d1e610d28565b5b80604052505050565b7f4e487b7100000000000000000000000000000000000000000000000000000000600052604160045260246000fd5b600080fd5b600080fd5b600080fd5b600080fd5b600080fd5b6000601f19601f8301169050919050565b7f4f776e61626c653a206e6577206f776e657220697320746865207a65726f206160008201527f6464726573730000000000000000000000000000000000000000000000000000602082015250565b7f4f776e61626c653a2063616c6c6572206973206e6f7420746865206f776e6572600082015250565b7f43726564656e7469616c2043616c6c4261636b3a204f6e6c7920746865206f7260008201527f61636c652063616e2063616c6c20746869732066756e6374696f6e0000000000602082015250565b610e5181610c39565b8114610e5c57600080fd5b50565b610e6881610c4b565b8114610e7357600080fd5b50565b610e7f81610c75565b8114610e8a57600080fd5b5056fea26469706673582212206c3de2f0af5699113174e4303039dad8d0639f1d66b92c9b8e58f3e61e1d64fd64736f6c63430008070033",
					"opcodes": "PUSH1 0x80 PUSH1 0x40 MSTORE CALLVALUE DUP1 ISZERO PUSH3 0x11 JUMPI PUSH1 0x0 DUP1 REVERT JUMPDEST POP PUSH1 0x40 MLOAD PUSH3 0x1131 CODESIZE SUB DUP1 PUSH3 0x1131 DUP4 CODECOPY DUP2 DUP2 ADD PUSH1 0x40 MSTORE DUP2 ADD SWAP1 PUSH3 0x37 SWAP2 SWAP1 PUSH3 0x1C5 JUMP JUMPDEST DUP1 PUSH3 0x58 PUSH3 0x4C PUSH3 0xE2 PUSH1 0x20 SHL PUSH1 0x20 SHR JUMP JUMPDEST PUSH3 0xEA PUSH1 0x20 SHL PUSH1 0x20 SHR JUMP JUMPDEST DUP1 PUSH1 0x1 PUSH1 0x0 PUSH2 0x100 EXP DUP2 SLOAD DUP2 PUSH20 0xFFFFFFFFFFFFFFFFFFFFFFFFFFFFFFFFFFFFFFFF MUL NOT AND SWAP1 DUP4 PUSH20 0xFFFFFFFFFFFFFFFFFFFFFFFFFFFFFFFFFFFFFFFF AND MUL OR SWAP1 SSTORE POP DUP1 PUSH1 0x2 PUSH1 0x0 PUSH2 0x100 EXP DUP2 SLOAD DUP2 PUSH20 0xFFFFFFFFFFFFFFFFFFFFFFFFFFFFFFFFFFFFFFFF MUL NOT AND SWAP1 DUP4 PUSH20 0xFFFFFFFFFFFFFFFFFFFFFFFFFFFFFFFFFFFFFFFF AND MUL OR SWAP1 SSTORE POP POP POP PUSH3 0x25E JUMP JUMPDEST PUSH1 0x0 CALLER SWAP1 POP SWAP1 JUMP JUMPDEST PUSH1 0x0 DUP1 PUSH1 0x0 SWAP1 SLOAD SWAP1 PUSH2 0x100 EXP SWAP1 DIV PUSH20 0xFFFFFFFFFFFFFFFFFFFFFFFFFFFFFFFFFFFFFFFF AND SWAP1 POP DUP2 PUSH1 0x0 DUP1 PUSH2 0x100 EXP DUP2 SLOAD DUP2 PUSH20 0xFFFFFFFFFFFFFFFFFFFFFFFFFFFFFFFFFFFFFFFF MUL NOT AND SWAP1 DUP4 PUSH20 0xFFFFFFFFFFFFFFFFFFFFFFFFFFFFFFFFFFFFFFFF AND MUL OR SWAP1 SSTORE POP DUP2 PUSH20 0xFFFFFFFFFFFFFFFFFFFFFFFFFFFFFFFFFFFFFFFF AND DUP2 PUSH20 0xFFFFFFFFFFFFFFFFFFFFFFFFFFFFFFFFFFFFFFFF AND PUSH32 0x8BE0079C531659141344CD1FD0A4F28419497F9722A3DAAFE3B4186F6B6457E0 PUSH1 0x40 MLOAD PUSH1 0x40 MLOAD DUP1 SWAP2 SUB SWAP1 LOG3 POP POP JUMP JUMPDEST PUSH1 0x0 DUP2 MLOAD SWAP1 POP PUSH3 0x1BF DUP2 PUSH3 0x244 JUMP JUMPDEST SWAP3 SWAP2 POP POP JUMP JUMPDEST PUSH1 0x0 PUSH1 0x20 DUP3 DUP5 SUB SLT ISZERO PUSH3 0x1DE JUMPI PUSH3 0x1DD PUSH3 0x23F JUMP JUMPDEST JUMPDEST PUSH1 0x0 PUSH3 0x1EE DUP5 DUP3 DUP6 ADD PUSH3 0x1AE JUMP JUMPDEST SWAP2 POP POP SWAP3 SWAP2 POP POP JUMP JUMPDEST PUSH1 0x0 PUSH3 0x204 DUP3 PUSH3 0x21F JUMP JUMPDEST SWAP1 POP SWAP2 SWAP1 POP JUMP JUMPDEST PUSH1 0x0 PUSH3 0x218 DUP3 PUSH3 0x1F7 JUMP JUMPDEST SWAP1 POP SWAP2 SWAP1 POP JUMP JUMPDEST PUSH1 0x0 PUSH20 0xFFFFFFFFFFFFFFFFFFFFFFFFFFFFFFFFFFFFFFFF DUP3 AND SWAP1 POP SWAP2 SWAP1 POP JUMP JUMPDEST PUSH1 0x0 DUP1 REVERT JUMPDEST PUSH3 0x24F DUP2 PUSH3 0x20B JUMP JUMPDEST DUP2 EQ PUSH3 0x25B JUMPI PUSH1 0x0 DUP1 REVERT JUMPDEST POP JUMP JUMPDEST PUSH2 0xEC3 DUP1 PUSH3 0x26E PUSH1 0x0 CODECOPY PUSH1 0x0 RETURN INVALID PUSH1 0x80 PUSH1 0x40 MSTORE CALLVALUE DUP1 ISZERO PUSH2 0x10 JUMPI PUSH1 0x0 DUP1 REVERT JUMPDEST POP PUSH1 0x4 CALLDATASIZE LT PUSH2 0x7D JUMPI PUSH1 0x0 CALLDATALOAD PUSH1 0xE0 SHR DUP1 PUSH4 0x715018A6 GT PUSH2 0x5B JUMPI DUP1 PUSH4 0x715018A6 EQ PUSH2 0xD8 JUMPI DUP1 PUSH4 0x8DA5CB5B EQ PUSH2 0xE2 JUMPI DUP1 PUSH4 0xDCE8A955 EQ PUSH2 0x100 JUMPI DUP1 PUSH4 0xF2FDE38B EQ PUSH2 0x11C JUMPI PUSH2 0x7D JUMP JUMPDEST DUP1 PUSH4 0x436E99F3 EQ PUSH2 0x82 JUMPI DUP1 PUSH4 0x4CD2DBB3 EQ PUSH2 0x9E JUMPI DUP1 PUSH4 0x5F7690B3 EQ PUSH2 0xBA JUMPI JUMPDEST PUSH1 0x0 DUP1 REVERT JUMPDEST PUSH2 0x9C PUSH1 0x4 DUP1 CALLDATASIZE SUB DUP2 ADD SWAP1 PUSH2 0x97 SWAP2 SWAP1 PUSH2 0x7DC JUMP JUMPDEST PUSH2 0x138 JUMP JUMPDEST STOP JUMPDEST PUSH2 0xB8 PUSH1 0x4 DUP1 CALLDATASIZE SUB DUP2 ADD SWAP1 PUSH2 0xB3 SWAP2 SWAP1 PUSH2 0x89D JUMP JUMPDEST PUSH2 0x1CB JUMP JUMPDEST STOP JUMPDEST PUSH2 0xC2 PUSH2 0x2A5 JUMP JUMPDEST PUSH1 0x40 MLOAD PUSH2 0xCF SWAP2 SWAP1 PUSH2 0xA74 JUMP JUMPDEST PUSH1 0x40 MLOAD DUP1 SWAP2 SUB SWAP1 RETURN JUMPDEST PUSH2 0xE0 PUSH2 0x2CB JUMP JUMPDEST STOP JUMPDEST PUSH2 0xEA PUSH2 0x353 JUMP JUMPDEST PUSH1 0x40 MLOAD PUSH2 0xF7 SWAP2 SWAP1 PUSH2 0xA59 JUMP JUMPDEST PUSH1 0x40 MLOAD DUP1 SWAP2 SUB SWAP1 RETURN JUMPDEST PUSH2 0x11A PUSH1 0x4 DUP1 CALLDATASIZE SUB DUP2 ADD SWAP1 PUSH2 0x115 SWAP2 SWAP1 PUSH2 0x825 JUMP JUMPDEST PUSH2 0x37C JUMP JUMPDEST STOP JUMPDEST PUSH2 0x136 PUSH1 0x4 DUP1 CALLDATASIZE SUB DUP2 ADD SWAP1 PUSH2 0x131 SWAP2 SWAP1 PUSH2 0x7AF JUMP JUMPDEST PUSH2 0x410 JUMP JUMPDEST STOP JUMPDEST PUSH1 0x1 PUSH1 0x0 SWAP1 SLOAD SWAP1 PUSH2 0x100 EXP SWAP1 DIV PUSH20 0xFFFFFFFFFFFFFFFFFFFFFFFFFFFFFFFFFFFFFFFF AND PUSH20 0xFFFFFFFFFFFFFFFFFFFFFFFFFFFFFFFFFFFFFFFF AND CALLER PUSH20 0xFFFFFFFFFFFFFFFFFFFFFFFFFFFFFFFFFFFFFFFF AND EQ PUSH2 0x1C8 JUMPI PUSH1 0x40 MLOAD PUSH32 0x8C379A000000000000000000000000000000000000000000000000000000000 DUP2 MSTORE PUSH1 0x4 ADD PUSH2 0x1BF SWAP1 PUSH2 0xB39 JUMP JUMPDEST PUSH1 0x40 MLOAD DUP1 SWAP2 SUB SWAP1 REVERT JUMPDEST POP JUMP JUMPDEST DUP4 ADDRESS PUSH1 0x40 MLOAD DUP1 PUSH1 0x40 ADD PUSH1 0x40 MSTORE DUP1 PUSH1 0x8 DUP2 MSTORE PUSH1 0x20 ADD PUSH32 0x706F737456696265000000000000000000000000000000000000000000000000 DUP2 MSTORE POP PUSH1 0x2 PUSH1 0x0 SWAP1 SLOAD SWAP1 PUSH2 0x100 EXP SWAP1 DIV PUSH20 0xFFFFFFFFFFFFFFFFFFFFFFFFFFFFFFFFFFFFFFFF AND PUSH20 0xFFFFFFFFFFFFFFFFFFFFFFFFFFFFFFFFFFFFFFFF AND PUSH4 0xA78D2BA3 DUP5 CALLER DUP6 DUP6 PUSH1 0x0 CALLDATASIZE PUSH1 0x40 MLOAD DUP8 PUSH4 0xFFFFFFFF AND PUSH1 0xE0 SHL DUP2 MSTORE PUSH1 0x4 ADD PUSH2 0x269 SWAP7 SWAP6 SWAP5 SWAP4 SWAP3 SWAP2 SWAP1 PUSH2 0xA8F JUMP JUMPDEST PUSH1 0x0 PUSH1 0x40 MLOAD DUP1 DUP4 SUB DUP2 PUSH1 0x0 DUP8 DUP1 EXTCODESIZE ISZERO DUP1 ISZERO PUSH2 0x283 JUMPI PUSH1 0x0 DUP1 REVERT JUMPDEST POP GAS CALL ISZERO DUP1 ISZERO PUSH2 0x297 JUMPI RETURNDATASIZE PUSH1 0x0 DUP1 RETURNDATACOPY RETURNDATASIZE PUSH1 0x0 REVERT JUMPDEST POP POP POP POP POP POP POP POP POP POP POP POP JUMP JUMPDEST PUSH1 0x2 PUSH1 0x0 SWAP1 SLOAD SWAP1 PUSH2 0x100 EXP SWAP1 DIV PUSH20 0xFFFFFFFFFFFFFFFFFFFFFFFFFFFFFFFFFFFFFFFF AND DUP2 JUMP JUMPDEST PUSH2 0x2D3 PUSH2 0x508 JUMP JUMPDEST PUSH20 0xFFFFFFFFFFFFFFFFFFFFFFFFFFFFFFFFFFFFFFFF AND PUSH2 0x2F1 PUSH2 0x353 JUMP JUMPDEST PUSH20 0xFFFFFFFFFFFFFFFFFFFFFFFFFFFFFFFFFFFFFFFF AND EQ PUSH2 0x347 JUMPI PUSH1 0x40 MLOAD PUSH32 0x8C379A000000000000000000000000000000000000000000000000000000000 DUP2 MSTORE PUSH1 0x4 ADD PUSH2 0x33E SWAP1 PUSH2 0xB19 JUMP JUMPDEST PUSH1 0x40 MLOAD DUP1 SWAP2 SUB SWAP1 REVERT JUMPDEST PUSH2 0x351 PUSH1 0x0 PUSH2 0x510 JUMP JUMPDEST JUMP JUMPDEST PUSH1 0x0 DUP1 PUSH1 0x0 SWAP1 SLOAD SWAP1 PUSH2 0x100 EXP SWAP1 DIV PUSH20 0xFFFFFFFFFFFFFFFFFFFFFFFFFFFFFFFFFFFFFFFF AND SWAP1 POP SWAP1 JUMP JUMPDEST PUSH1 0x1 PUSH1 0x0 SWAP1 SLOAD SWAP1 PUSH2 0x100 EXP SWAP1 DIV PUSH20 0xFFFFFFFFFFFFFFFFFFFFFFFFFFFFFFFFFFFFFFFF AND PUSH20 0xFFFFFFFFFFFFFFFFFFFFFFFFFFFFFFFFFFFFFFFF AND CALLER PUSH20 0xFFFFFFFFFFFFFFFFFFFFFFFFFFFFFFFFFFFFFFFF AND EQ PUSH2 0x40C JUMPI PUSH1 0x40 MLOAD PUSH32 0x8C379A000000000000000000000000000000000000000000000000000000000 DUP2 MSTORE PUSH1 0x4 ADD PUSH2 0x403 SWAP1 PUSH2 0xB39 JUMP JUMPDEST PUSH1 0x40 MLOAD DUP1 SWAP2 SUB SWAP1 REVERT JUMPDEST POP POP JUMP JUMPDEST PUSH2 0x418 PUSH2 0x508 JUMP JUMPDEST PUSH20 0xFFFFFFFFFFFFFFFFFFFFFFFFFFFFFFFFFFFFFFFF AND PUSH2 0x436 PUSH2 0x353 JUMP JUMPDEST PUSH20 0xFFFFFFFFFFFFFFFFFFFFFFFFFFFFFFFFFFFFFFFF AND EQ PUSH2 0x48C JUMPI PUSH1 0x40 MLOAD PUSH32 0x8C379A000000000000000000000000000000000000000000000000000000000 DUP2 MSTORE PUSH1 0x4 ADD PUSH2 0x483 SWAP1 PUSH2 0xB19 JUMP JUMPDEST PUSH1 0x40 MLOAD DUP1 SWAP2 SUB SWAP1 REVERT JUMPDEST PUSH1 0x0 PUSH20 0xFFFFFFFFFFFFFFFFFFFFFFFFFFFFFFFFFFFFFFFF AND DUP2 PUSH20 0xFFFFFFFFFFFFFFFFFFFFFFFFFFFFFFFFFFFFFFFF AND EQ ISZERO PUSH2 0x4FC JUMPI PUSH1 0x40 MLOAD PUSH32 0x8C379A000000000000000000000000000000000000000000000000000000000 DUP2 MSTORE PUSH1 0x4 ADD PUSH2 0x4F3 SWAP1 PUSH2 0xAF9 JUMP JUMPDEST PUSH1 0x40 MLOAD DUP1 SWAP2 SUB SWAP1 REVERT JUMPDEST PUSH2 0x505 DUP2 PUSH2 0x510 JUMP JUMPDEST POP JUMP JUMPDEST PUSH1 0x0 CALLER SWAP1 POP SWAP1 JUMP JUMPDEST PUSH1 0x0 DUP1 PUSH1 0x0 SWAP1 SLOAD SWAP1 PUSH2 0x100 EXP SWAP1 DIV PUSH20 0xFFFFFFFFFFFFFFFFFFFFFFFFFFFFFFFFFFFFFFFF AND SWAP1 POP DUP2 PUSH1 0x0 DUP1 PUSH2 0x100 EXP DUP2 SLOAD DUP2 PUSH20 0xFFFFFFFFFFFFFFFFFFFFFFFFFFFFFFFFFFFFFFFF MUL NOT AND SWAP1 DUP4 PUSH20 0xFFFFFFFFFFFFFFFFFFFFFFFFFFFFFFFFFFFFFFFF AND MUL OR SWAP1 SSTORE POP DUP2 PUSH20 0xFFFFFFFFFFFFFFFFFFFFFFFFFFFFFFFFFFFFFFFF AND DUP2 PUSH20 0xFFFFFFFFFFFFFFFFFFFFFFFFFFFFFFFFFFFFFFFF AND PUSH32 0x8BE0079C531659141344CD1FD0A4F28419497F9722A3DAAFE3B4186F6B6457E0 PUSH1 0x40 MLOAD PUSH1 0x40 MLOAD DUP1 SWAP2 SUB SWAP1 LOG3 POP POP JUMP JUMPDEST PUSH1 0x0 PUSH2 0x5E7 PUSH2 0x5E2 DUP5 PUSH2 0xB7E JUMP JUMPDEST PUSH2 0xB59 JUMP JUMPDEST SWAP1 POP DUP1 DUP4 DUP3 MSTORE PUSH1 0x20 DUP3 ADD SWAP1 POP DUP3 DUP6 PUSH1 0x20 DUP7 MUL DUP3 ADD GT ISZERO PUSH2 0x60A JUMPI PUSH2 0x609 PUSH2 0xD5C JUMP JUMPDEST JUMPDEST PUSH1 0x0 JUMPDEST DUP6 DUP2 LT ISZERO PUSH2 0x658 JUMPI DUP2 CALLDATALOAD PUSH8 0xFFFFFFFFFFFFFFFF DUP2 GT ISZERO PUSH2 0x630 JUMPI PUSH2 0x62F PUSH2 0xD57 JUMP JUMPDEST JUMPDEST DUP1 DUP7 ADD PUSH2 0x63D DUP10 DUP3 PUSH2 0x73E JUMP JUMPDEST DUP6 MSTORE PUSH1 0x20 DUP6 ADD SWAP5 POP PUSH1 0x20 DUP5 ADD SWAP4 POP POP POP PUSH1 0x1 DUP2 ADD SWAP1 POP PUSH2 0x60D JUMP JUMPDEST POP POP POP SWAP4 SWAP3 POP POP POP JUMP JUMPDEST PUSH1 0x0 PUSH2 0x675 PUSH2 0x670 DUP5 PUSH2 0xBAA JUMP JUMPDEST PUSH2 0xB59 JUMP JUMPDEST SWAP1 POP DUP3 DUP2 MSTORE PUSH1 0x20 DUP2 ADD DUP5 DUP5 DUP5 ADD GT ISZERO PUSH2 0x691 JUMPI PUSH2 0x690 PUSH2 0xD61 JUMP JUMPDEST JUMPDEST PUSH2 0x69C DUP5 DUP3 DUP6 PUSH2 0xCB5 JUMP JUMPDEST POP SWAP4 SWAP3 POP POP POP JUMP JUMPDEST PUSH1 0x0 PUSH2 0x6B7 PUSH2 0x6B2 DUP5 PUSH2 0xBDB JUMP JUMPDEST PUSH2 0xB59 JUMP JUMPDEST SWAP1 POP DUP3 DUP2 MSTORE PUSH1 0x20 DUP2 ADD DUP5 DUP5 DUP5 ADD GT ISZERO PUSH2 0x6D3 JUMPI PUSH2 0x6D2 PUSH2 0xD61 JUMP JUMPDEST JUMPDEST PUSH2 0x6DE DUP5 DUP3 DUP6 PUSH2 0xCB5 JUMP JUMPDEST POP SWAP4 SWAP3 POP POP POP JUMP JUMPDEST PUSH1 0x0 DUP2 CALLDATALOAD SWAP1 POP PUSH2 0x6F5 DUP2 PUSH2 0xE48 JUMP JUMPDEST SWAP3 SWAP2 POP POP JUMP JUMPDEST PUSH1 0x0 DUP3 PUSH1 0x1F DUP4 ADD SLT PUSH2 0x710 JUMPI PUSH2 0x70F PUSH2 0xD57 JUMP JUMPDEST JUMPDEST DUP2 CALLDATALOAD PUSH2 0x720 DUP5 DUP3 PUSH1 0x20 DUP7 ADD PUSH2 0x5D4 JUMP JUMPDEST SWAP2 POP POP SWAP3 SWAP2 POP POP JUMP JUMPDEST PUSH1 0x0 DUP2 CALLDATALOAD SWAP1 POP PUSH2 0x738 DUP2 PUSH2 0xE5F JUMP JUMPDEST SWAP3 SWAP2 POP POP JUMP JUMPDEST PUSH1 0x0 DUP3 PUSH1 0x1F DUP4 ADD SLT PUSH2 0x753 JUMPI PUSH2 0x752 PUSH2 0xD57 JUMP JUMPDEST JUMPDEST DUP2 CALLDATALOAD PUSH2 0x763 DUP5 DUP3 PUSH1 0x20 DUP7 ADD PUSH2 0x662 JUMP JUMPDEST SWAP2 POP POP SWAP3 SWAP2 POP POP JUMP JUMPDEST PUSH1 0x0 DUP3 PUSH1 0x1F DUP4 ADD SLT PUSH2 0x781 JUMPI PUSH2 0x780 PUSH2 0xD57 JUMP JUMPDEST JUMPDEST DUP2 CALLDATALOAD PUSH2 0x791 DUP5 DUP3 PUSH1 0x20 DUP7 ADD PUSH2 0x6A4 JUMP JUMPDEST SWAP2 POP POP SWAP3 SWAP2 POP POP JUMP JUMPDEST PUSH1 0x0 DUP2 CALLDATALOAD SWAP1 POP PUSH2 0x7A9 DUP2 PUSH2 0xE76 JUMP JUMPDEST SWAP3 SWAP2 POP POP JUMP JUMPDEST PUSH1 0x0 PUSH1 0x20 DUP3 DUP5 SUB SLT ISZERO PUSH2 0x7C5 JUMPI PUSH2 0x7C4 PUSH2 0xD6B JUMP JUMPDEST JUMPDEST PUSH1 0x0 PUSH2 0x7D3 DUP5 DUP3 DUP6 ADD PUSH2 0x6E6 JUMP JUMPDEST SWAP2 POP POP SWAP3 SWAP2 POP POP JUMP JUMPDEST PUSH1 0x0 PUSH1 0x20 DUP3 DUP5 SUB SLT ISZERO PUSH2 0x7F2 JUMPI PUSH2 0x7F1 PUSH2 0xD6B JUMP JUMPDEST JUMPDEST PUSH1 0x0 DUP3 ADD CALLDATALOAD PUSH8 0xFFFFFFFFFFFFFFFF DUP2 GT ISZERO PUSH2 0x810 JUMPI PUSH2 0x80F PUSH2 0xD66 JUMP JUMPDEST JUMPDEST PUSH2 0x81C DUP5 DUP3 DUP6 ADD PUSH2 0x76C JUMP JUMPDEST SWAP2 POP POP SWAP3 SWAP2 POP POP JUMP JUMPDEST PUSH1 0x0 DUP1 PUSH1 0x40 DUP4 DUP6 SUB SLT ISZERO PUSH2 0x83C JUMPI PUSH2 0x83B PUSH2 0xD6B JUMP JUMPDEST JUMPDEST PUSH1 0x0 DUP4 ADD CALLDATALOAD PUSH8 0xFFFFFFFFFFFFFFFF DUP2 GT ISZERO PUSH2 0x85A JUMPI PUSH2 0x859 PUSH2 0xD66 JUMP JUMPDEST JUMPDEST PUSH2 0x866 DUP6 DUP3 DUP7 ADD PUSH2 0x76C JUMP JUMPDEST SWAP3 POP POP PUSH1 0x20 DUP4 ADD CALLDATALOAD PUSH8 0xFFFFFFFFFFFFFFFF DUP2 GT ISZERO PUSH2 0x887 JUMPI PUSH2 0x886 PUSH2 0xD66 JUMP JUMPDEST JUMPDEST PUSH2 0x893 DUP6 DUP3 DUP7 ADD PUSH2 0x6FB JUMP JUMPDEST SWAP2 POP POP SWAP3 POP SWAP3 SWAP1 POP JUMP JUMPDEST PUSH1 0x0 DUP1 PUSH1 0x0 DUP1 PUSH1 0x0 PUSH1 0xA0 DUP7 DUP9 SUB SLT ISZERO PUSH2 0x8B9 JUMPI PUSH2 0x8B8 PUSH2 0xD6B JUMP JUMPDEST JUMPDEST PUSH1 0x0 DUP7 ADD CALLDATALOAD PUSH8 0xFFFFFFFFFFFFFFFF DUP2 GT ISZERO PUSH2 0x8D7 JUMPI PUSH2 0x8D6 PUSH2 0xD66 JUMP JUMPDEST JUMPDEST PUSH2 0x8E3 DUP9 DUP3 DUP10 ADD PUSH2 0x76C JUMP JUMPDEST SWAP6 POP POP PUSH1 0x20 DUP7 ADD CALLDATALOAD PUSH8 0xFFFFFFFFFFFFFFFF DUP2 GT ISZERO PUSH2 0x904 JUMPI PUSH2 0x903 PUSH2 0xD66 JUMP JUMPDEST JUMPDEST PUSH2 0x910 DUP9 DUP3 DUP10 ADD PUSH2 0x76C JUMP JUMPDEST SWAP5 POP POP PUSH1 0x40 DUP7 ADD CALLDATALOAD PUSH8 0xFFFFFFFFFFFFFFFF DUP2 GT ISZERO PUSH2 0x931 JUMPI PUSH2 0x930 PUSH2 0xD66 JUMP JUMPDEST JUMPDEST PUSH2 0x93D DUP9 DUP3 DUP10 ADD PUSH2 0x76C JUMP JUMPDEST SWAP4 POP POP PUSH1 0x60 PUSH2 0x94E DUP9 DUP3 DUP10 ADD PUSH2 0x79A JUMP JUMPDEST SWAP3 POP POP PUSH1 0x80 PUSH2 0x95F DUP9 DUP3 DUP10 ADD PUSH2 0x729 JUMP JUMPDEST SWAP2 POP POP SWAP3 SWAP6 POP SWAP3 SWAP6 SWAP1 SWAP4 POP JUMP JUMPDEST PUSH2 0x975 DUP2 PUSH2 0xC39 JUMP JUMPDEST DUP3 MSTORE POP POP JUMP JUMPDEST PUSH1 0x0 PUSH2 0x987 DUP4 DUP6 PUSH2 0xC17 JUMP JUMPDEST SWAP4 POP PUSH2 0x994 DUP4 DUP6 DUP5 PUSH2 0xCB5 JUMP JUMPDEST PUSH2 0x99D DUP4 PUSH2 0xD70 JUMP JUMPDEST DUP5 ADD SWAP1 POP SWAP4 SWAP3 POP POP POP JUMP JUMPDEST PUSH2 0x9B1 DUP2 PUSH2 0xC7F JUMP JUMPDEST DUP3 MSTORE POP POP JUMP JUMPDEST PUSH1 0x0 PUSH2 0x9C2 DUP3 PUSH2 0xC0C JUMP JUMPDEST PUSH2 0x9CC DUP2 DUP6 PUSH2 0xC28 JUMP JUMPDEST SWAP4 POP PUSH2 0x9DC DUP2 DUP6 PUSH1 0x20 DUP7 ADD PUSH2 0xCC4 JUMP JUMPDEST PUSH2 0x9E5 DUP2 PUSH2 0xD70 JUMP JUMPDEST DUP5 ADD SWAP2 POP POP SWAP3 SWAP2 POP POP JUMP JUMPDEST PUSH1 0x0 PUSH2 0x9FD PUSH1 0x26 DUP4 PUSH2 0xC28 JUMP JUMPDEST SWAP2 POP PUSH2 0xA08 DUP3 PUSH2 0xD81 JUMP JUMPDEST PUSH1 0x40 DUP3 ADD SWAP1 POP SWAP2 SWAP1 POP JUMP JUMPDEST PUSH1 0x0 PUSH2 0xA20 PUSH1 0x20 DUP4 PUSH2 0xC28 JUMP JUMPDEST SWAP2 POP PUSH2 0xA2B DUP3 PUSH2 0xDD0 JUMP JUMPDEST PUSH1 0x20 DUP3 ADD SWAP1 POP SWAP2 SWAP1 POP JUMP JUMPDEST PUSH1 0x0 PUSH2 0xA43 PUSH1 0x3B DUP4 PUSH2 0xC28 JUMP JUMPDEST SWAP2 POP PUSH2 0xA4E DUP3 PUSH2 0xDF9 JUMP JUMPDEST PUSH1 0x40 DUP3 ADD SWAP1 POP SWAP2 SWAP1 POP JUMP JUMPDEST PUSH1 0x0 PUSH1 0x20 DUP3 ADD SWAP1 POP PUSH2 0xA6E PUSH1 0x0 DUP4 ADD DUP5 PUSH2 0x96C JUMP JUMPDEST SWAP3 SWAP2 POP POP JUMP JUMPDEST PUSH1 0x0 PUSH1 0x20 DUP3 ADD SWAP1 POP PUSH2 0xA89 PUSH1 0x0 DUP4 ADD DUP5 PUSH2 0x9A8 JUMP JUMPDEST SWAP3 SWAP2 POP POP JUMP JUMPDEST PUSH1 0x0 PUSH1 0xA0 DUP3 ADD SWAP1 POP DUP2 DUP2 SUB PUSH1 0x0 DUP4 ADD MSTORE PUSH2 0xAA9 DUP2 DUP10 PUSH2 0x9B7 JUMP JUMPDEST SWAP1 POP PUSH2 0xAB8 PUSH1 0x20 DUP4 ADD DUP9 PUSH2 0x96C JUMP JUMPDEST PUSH2 0xAC5 PUSH1 0x40 DUP4 ADD DUP8 PUSH2 0x96C JUMP JUMPDEST DUP2 DUP2 SUB PUSH1 0x60 DUP4 ADD MSTORE PUSH2 0xAD7 DUP2 DUP7 PUSH2 0x9B7 JUMP JUMPDEST SWAP1 POP DUP2 DUP2 SUB PUSH1 0x80 DUP4 ADD MSTORE PUSH2 0xAEC DUP2 DUP5 DUP7 PUSH2 0x97B JUMP JUMPDEST SWAP1 POP SWAP8 SWAP7 POP POP POP POP POP POP POP JUMP JUMPDEST PUSH1 0x0 PUSH1 0x20 DUP3 ADD SWAP1 POP DUP2 DUP2 SUB PUSH1 0x0 DUP4 ADD MSTORE PUSH2 0xB12 DUP2 PUSH2 0x9F0 JUMP JUMPDEST SWAP1 POP SWAP2 SWAP1 POP JUMP JUMPDEST PUSH1 0x0 PUSH1 0x20 DUP3 ADD SWAP1 POP DUP2 DUP2 SUB PUSH1 0x0 DUP4 ADD MSTORE PUSH2 0xB32 DUP2 PUSH2 0xA13 JUMP JUMPDEST SWAP1 POP SWAP2 SWAP1 POP JUMP JUMPDEST PUSH1 0x0 PUSH1 0x20 DUP3 ADD SWAP1 POP DUP2 DUP2 SUB PUSH1 0x0 DUP4 ADD MSTORE PUSH2 0xB52 DUP2 PUSH2 0xA36 JUMP JUMPDEST SWAP1 POP SWAP2 SWAP1 POP JUMP JUMPDEST PUSH1 0x0 PUSH2 0xB63 PUSH2 0xB74 JUMP JUMPDEST SWAP1 POP PUSH2 0xB6F DUP3 DUP3 PUSH2 0xCF7 JUMP JUMPDEST SWAP2 SWAP1 POP JUMP JUMPDEST PUSH1 0x0 PUSH1 0x40 MLOAD SWAP1 POP SWAP1 JUMP JUMPDEST PUSH1 0x0 PUSH8 0xFFFFFFFFFFFFFFFF DUP3 GT ISZERO PUSH2 0xB99 JUMPI PUSH2 0xB98 PUSH2 0xD28 JUMP JUMPDEST JUMPDEST PUSH1 0x20 DUP3 MUL SWAP1 POP PUSH1 0x20 DUP2 ADD SWAP1 POP SWAP2 SWAP1 POP JUMP JUMPDEST PUSH1 0x0 PUSH8 0xFFFFFFFFFFFFFFFF DUP3 GT ISZERO PUSH2 0xBC5 JUMPI PUSH2 0xBC4 PUSH2 0xD28 JUMP JUMPDEST JUMPDEST PUSH2 0xBCE DUP3 PUSH2 0xD70 JUMP JUMPDEST SWAP1 POP PUSH1 0x20 DUP2 ADD SWAP1 POP SWAP2 SWAP1 POP JUMP JUMPDEST PUSH1 0x0 PUSH8 0xFFFFFFFFFFFFFFFF DUP3 GT ISZERO PUSH2 0xBF6 JUMPI PUSH2 0xBF5 PUSH2 0xD28 JUMP JUMPDEST JUMPDEST PUSH2 0xBFF DUP3 PUSH2 0xD70 JUMP JUMPDEST SWAP1 POP PUSH1 0x20 DUP2 ADD SWAP1 POP SWAP2 SWAP1 POP JUMP JUMPDEST PUSH1 0x0 DUP2 MLOAD SWAP1 POP SWAP2 SWAP1 POP JUMP JUMPDEST PUSH1 0x0 DUP3 DUP3 MSTORE PUSH1 0x20 DUP3 ADD SWAP1 POP SWAP3 SWAP2 POP POP JUMP JUMPDEST PUSH1 0x0 DUP3 DUP3 MSTORE PUSH1 0x20 DUP3 ADD SWAP1 POP SWAP3 SWAP2 POP POP JUMP JUMPDEST PUSH1 0x0 PUSH2 0xC44 DUP3 PUSH2 0xC55 JUMP JUMPDEST SWAP1 POP SWAP2 SWAP1 POP JUMP JUMPDEST PUSH1 0x0 DUP2 SWAP1 POP SWAP2 SWAP1 POP JUMP JUMPDEST PUSH1 0x0 PUSH20 0xFFFFFFFFFFFFFFFFFFFFFFFFFFFFFFFFFFFFFFFF DUP3 AND SWAP1 POP SWAP2 SWAP1 POP JUMP JUMPDEST PUSH1 0x0 DUP2 SWAP1 POP SWAP2 SWAP1 POP JUMP JUMPDEST PUSH1 0x0 PUSH2 0xC8A DUP3 PUSH2 0xC91 JUMP JUMPDEST SWAP1 POP SWAP2 SWAP1 POP JUMP JUMPDEST PUSH1 0x0 PUSH2 0xC9C DUP3 PUSH2 0xCA3 JUMP JUMPDEST SWAP1 POP SWAP2 SWAP1 POP JUMP JUMPDEST PUSH1 0x0 PUSH2 0xCAE DUP3 PUSH2 0xC55 JUMP JUMPDEST SWAP1 POP SWAP2 SWAP1 POP JUMP JUMPDEST DUP3 DUP2 DUP4 CALLDATACOPY PUSH1 0x0 DUP4 DUP4 ADD MSTORE POP POP POP JUMP JUMPDEST PUSH1 0x0 JUMPDEST DUP4 DUP2 LT ISZERO PUSH2 0xCE2 JUMPI DUP1 DUP3 ADD MLOAD DUP2 DUP5 ADD MSTORE PUSH1 0x20 DUP2 ADD SWAP1 POP PUSH2 0xCC7 JUMP JUMPDEST DUP4 DUP2 GT ISZERO PUSH2 0xCF1 JUMPI PUSH1 0x0 DUP5 DUP5 ADD MSTORE JUMPDEST POP POP POP POP JUMP JUMPDEST PUSH2 0xD00 DUP3 PUSH2 0xD70 JUMP JUMPDEST DUP2 ADD DUP2 DUP2 LT PUSH8 0xFFFFFFFFFFFFFFFF DUP3 GT OR ISZERO PUSH2 0xD1F JUMPI PUSH2 0xD1E PUSH2 0xD28 JUMP JUMPDEST JUMPDEST DUP1 PUSH1 0x40 MSTORE POP POP POP JUMP JUMPDEST PUSH32 0x4E487B7100000000000000000000000000000000000000000000000000000000 PUSH1 0x0 MSTORE PUSH1 0x41 PUSH1 0x4 MSTORE PUSH1 0x24 PUSH1 0x0 REVERT JUMPDEST PUSH1 0x0 DUP1 REVERT JUMPDEST PUSH1 0x0 DUP1 REVERT JUMPDEST PUSH1 0x0 DUP1 REVERT JUMPDEST PUSH1 0x0 DUP1 REVERT JUMPDEST PUSH1 0x0 DUP1 REVERT JUMPDEST PUSH1 0x0 PUSH1 0x1F NOT PUSH1 0x1F DUP4 ADD AND SWAP1 POP SWAP2 SWAP1 POP JUMP JUMPDEST PUSH32 0x4F776E61626C653A206E6577206F776E657220697320746865207A65726F2061 PUSH1 0x0 DUP3 ADD MSTORE PUSH32 0x6464726573730000000000000000000000000000000000000000000000000000 PUSH1 0x20 DUP3 ADD MSTORE POP JUMP JUMPDEST PUSH32 0x4F776E61626C653A2063616C6C6572206973206E6F7420746865206F776E6572 PUSH1 0x0 DUP3 ADD MSTORE POP JUMP JUMPDEST PUSH32 0x43726564656E7469616C2043616C6C4261636B3A204F6E6C7920746865206F72 PUSH1 0x0 DUP3 ADD MSTORE PUSH32 0x61636C652063616E2063616C6C20746869732066756E6374696F6E0000000000 PUSH1 0x20 DUP3 ADD MSTORE POP JUMP JUMPDEST PUSH2 0xE51 DUP2 PUSH2 0xC39 JUMP JUMPDEST DUP2 EQ PUSH2 0xE5C JUMPI PUSH1 0x0 DUP1 REVERT JUMPDEST POP JUMP JUMPDEST PUSH2 0xE68 DUP2 PUSH2 0xC4B JUMP JUMPDEST DUP2 EQ PUSH2 0xE73 JUMPI PUSH1 0x0 DUP1 REVERT JUMPDEST POP JUMP JUMPDEST PUSH2 0xE7F DUP2 PUSH2 0xC75 JUMP JUMPDEST DUP2 EQ PUSH2 0xE8A JUMPI PUSH1 0x0 DUP1 REVERT JUMPDEST POP JUMP INVALID LOG2 PUSH5 0x6970667358 0x22 SLT KECCAK256 PUSH13 0x3DE2F0AF5699113174E4303039 0xDA 0xD8 0xD0 PUSH4 0x9F1D66B9 0x2C SWAP12 DUP15 PC RETURN 0xE6 0x1E SAR PUSH5 0xFD64736F6C PUSH4 0x43000807 STOP CALLER "
				},
				"gasEstimates": {
					"creation": {
						"codeDepositCost": "755800",
						"executionCost": "infinite",
						"totalCost": "infinite"
					},
					"external": {
						"CREDENTIAL_EVENT()": "2645",
						"owner()": "2544",
						"postVibe(string,string,string,uint256,bytes32)": "infinite",
						"postVibe_authorised(string,bytes[])": "infinite",
						"postVibe_unauthorised(string)": "infinite",
						"renounceOwnership()": "30374",
						"transferOwnership(address)": "30789"
					}
				},
				"methodIdentifiers": {
					"CREDENTIAL_EVENT()": "5f7690b3",
					"owner()": "8da5cb5b",
					"postVibe(string,string,string,uint256,bytes32)": "4cd2dbb3",
					"postVibe_authorised(string,bytes[])": "dce8a955",
					"postVibe_unauthorised(string)": "436e99f3",
					"renounceOwnership()": "715018a6",
					"transferOwnership(address)": "f2fde38b"
				}
			},
			"storageLayout": {
				"storage": [
					{
						"astId": 7,
						"contract": "facets/CommunicationFacet.sol:CommunicationFacet",
						"label": "_owner",
						"offset": 0,
						"slot": "0",
						"type": "t_address"
					},
					{
						"astId": 246,
						"contract": "facets/CommunicationFacet.sol:CommunicationFacet",
						"label": "CREDENTIAL_ORACLE",
						"offset": 0,
						"slot": "1",
						"type": "t_address"
					},
					{
						"astId": 249,
						"contract": "facets/CommunicationFacet.sol:CommunicationFacet",
						"label": "CREDENTIAL_EVENT",
						"offset": 0,
						"slot": "2",
						"type": "t_contract(CredentialEventFacet)241"
					}
				],
				"types": {
					"t_address": {
						"encoding": "inplace",
						"label": "address",
						"numberOfBytes": "20"
					},
					"t_contract(CredentialEventFacet)241": {
						"encoding": "inplace",
						"label": "contract CredentialEventFacet",
						"numberOfBytes": "20"
					}
				}
			},
			"userdoc": {
				"kind": "user",
				"methods": {},
				"version": 1
			}
		}
	}
}