{
  "_format": "hh-sol-artifact-1",
  "contractName": "CommunicationFacet",
  "sourceName": "contracts/facets/CommunicationFacet.sol",
  "abi": [
    {
      "inputs": [
        {
          "internalType": "contract CredentialEventFacet",
          "name": "_credentialOracle",
          "type": "address"
        }
      ],
      "stateMutability": "nonpayable",
      "type": "constructor"
    },
    {
      "anonymous": false,
      "inputs": [
        {
          "indexed": true,
          "internalType": "address",
          "name": "previousOwner",
          "type": "address"
        },
        {
          "indexed": true,
          "internalType": "address",
          "name": "newOwner",
          "type": "address"
        }
      ],
      "name": "OwnershipTransferred",
      "type": "event"
    },
    {
      "inputs": [],
      "name": "CREDENTIAL_EVENT",
      "outputs": [
        {
          "internalType": "contract CredentialEventFacet",
          "name": "",
          "type": "address"
        }
      ],
      "stateMutability": "view",
      "type": "function"
    },
    {
      "inputs": [
        {
          "internalType": "string",
          "name": "someParam",
          "type": "string"
        },
        {
          "internalType": "string",
          "name": "_listId",
          "type": "string"
        }
      ],
      "name": "downVoteVibe",
      "outputs": [],
      "stateMutability": "nonpayable",
      "type": "function"
    },
    {
      "inputs": [
        {
          "internalType": "string",
          "name": "someParam",
          "type": "string"
        },
        {
          "internalType": "bytes[]",
          "name": "proof",
          "type": "bytes[]"
        }
      ],
      "name": "downVoteVibe_authorised",
      "outputs": [],
      "stateMutability": "nonpayable",
      "type": "function"
    },
    {
      "inputs": [
        {
          "internalType": "string",
          "name": "someParam",
          "type": "string"
        }
      ],
      "name": "downVoteVibe_unauthorised",
      "outputs": [],
      "stateMutability": "nonpayable",
      "type": "function"
    },
    {
      "inputs": [],
      "name": "owner",
      "outputs": [
        {
          "internalType": "address",
          "name": "",
          "type": "address"
        }
      ],
      "stateMutability": "view",
      "type": "function"
    },
    {
      "inputs": [
        {
          "internalType": "string",
          "name": "someParam",
          "type": "string"
        },
        {
          "internalType": "string",
          "name": "_listId",
          "type": "string"
        }
      ],
      "name": "postVibe",
      "outputs": [],
      "stateMutability": "nonpayable",
      "type": "function"
    },
    {
      "inputs": [
        {
          "internalType": "string",
          "name": "someParam",
          "type": "string"
        },
        {
          "internalType": "bytes[]",
          "name": "proof",
          "type": "bytes[]"
        }
      ],
      "name": "postVibe_authorised",
      "outputs": [],
      "stateMutability": "nonpayable",
      "type": "function"
    },
    {
      "inputs": [
        {
          "internalType": "string",
          "name": "someParam",
          "type": "string"
        }
      ],
      "name": "postVibe_unauthorised",
      "outputs": [],
      "stateMutability": "nonpayable",
      "type": "function"
    },
    {
      "inputs": [],
      "name": "renounceOwnership",
      "outputs": [],
      "stateMutability": "nonpayable",
      "type": "function"
    },
    {
      "inputs": [
        {
          "internalType": "string",
          "name": "someParam",
          "type": "string"
        }
      ],
      "name": "setInboxPriceForCredential",
      "outputs": [],
      "stateMutability": "nonpayable",
      "type": "function"
    },
    {
      "inputs": [],
      "name": "setUpVibePool",
      "outputs": [],
      "stateMutability": "nonpayable",
      "type": "function"
    },
    {
      "inputs": [],
      "name": "settleVibes",
      "outputs": [],
      "stateMutability": "nonpayable",
      "type": "function"
    },
    {
      "inputs": [
        {
          "internalType": "address",
          "name": "newOwner",
          "type": "address"
        }
      ],
      "name": "transferOwnership",
      "outputs": [],
      "stateMutability": "nonpayable",
      "type": "function"
    },
    {
      "inputs": [
        {
          "internalType": "string",
          "name": "someParam",
          "type": "string"
        },
        {
          "internalType": "string",
          "name": "_listId",
          "type": "string"
        }
      ],
      "name": "upVoteVibe",
      "outputs": [],
      "stateMutability": "nonpayable",
      "type": "function"
    },
    {
      "inputs": [
        {
          "internalType": "string",
          "name": "someParam",
          "type": "string"
        },
        {
          "internalType": "bytes[]",
          "name": "proof",
          "type": "bytes[]"
        }
      ],
      "name": "upVoteVibe_authorised",
      "outputs": [],
      "stateMutability": "nonpayable",
      "type": "function"
    },
    {
      "inputs": [
        {
          "internalType": "string",
          "name": "someParam",
          "type": "string"
        }
      ],
      "name": "upVoteVibe_unauthorised",
      "outputs": [],
      "stateMutability": "nonpayable",
      "type": "function"
    }
  ],
  "bytecode": "0x60806040523480156200001157600080fd5b5060405162001585380380620015858339818101604052810190620000379190620001c5565b80620000586200004c620000e260201b60201c565b620000ea60201b60201c565b80600160006101000a81548173ffffffffffffffffffffffffffffffffffffffff021916908373ffffffffffffffffffffffffffffffffffffffff16021790555080600260006101000a81548173ffffffffffffffffffffffffffffffffffffffff021916908373ffffffffffffffffffffffffffffffffffffffff16021790555050506200025e565b600033905090565b60008060009054906101000a900473ffffffffffffffffffffffffffffffffffffffff169050816000806101000a81548173ffffffffffffffffffffffffffffffffffffffff021916908373ffffffffffffffffffffffffffffffffffffffff1602179055508173ffffffffffffffffffffffffffffffffffffffff168173ffffffffffffffffffffffffffffffffffffffff167f8be0079c531659141344cd1fd0a4f28419497f9722a3daafe3b4186f6b6457e060405160405180910390a35050565b600081519050620001bf8162000244565b92915050565b600060208284031215620001de57620001dd6200023f565b5b6000620001ee84828501620001ae565b91505092915050565b600062000204826200021f565b9050919050565b60006200021882620001f7565b9050919050565b600073ffffffffffffffffffffffffffffffffffffffff82169050919050565b600080fd5b6200024f816200020b565b81146200025b57600080fd5b50565b611317806200026e6000396000f3fe608060405234801561001057600080fd5b50600436106101005760003560e01c8063a890e38111610097578063c1d1567611610066578063c1d1567614610235578063cd6804921461023f578063dce8a9551461025b578063f2fde38b1461027757610100565b8063a890e381146101c5578063b0c7f4c0146101e1578063be58afb0146101fd578063c113344b1461021957610100565b8063787a9a95116100d3578063787a9a95146101655780637fa258791461018157806389aeb0711461019d5780638da5cb5b146101a757610100565b80630bf0ea1814610105578063436e99f3146101215780635f7690b31461013d578063715018a61461015b575b600080fd5b61011f600480360381019061011a9190610d27565b610293565b005b61013b60048036038101906101369190610cde565b610327565b005b6101456103ba565b6040516101529190610f1f565b60405180910390f35b6101636103e0565b005b61017f600480360381019061017a9190610cde565b610468565b005b61019b60048036038101906101969190610cde565b6104fb565b005b6101a561058e565b005b6101af61060c565b6040516101bc9190610f04565b60405180910390f35b6101df60048036038101906101da9190610d9f565b610635565b005b6101fb60048036038101906101f69190610d27565b6106d3565b005b61021760048036038101906102129190610d9f565b610767565b005b610233600480360381019061022e9190610d9f565b610805565b005b61023d6108a3565b005b61025960048036038101906102549190610cde565b6108a5565b005b61027560048036038101906102709190610d27565b6108a8565b005b610291600480360381019061028c9190610cb1565b61093c565b005b600160009054906101000a900473ffffffffffffffffffffffffffffffffffffffff1673ffffffffffffffffffffffffffffffffffffffff163373ffffffffffffffffffffffffffffffffffffffff1614610323576040517f08c379a000000000000000000000000000000000000000000000000000000000815260040161031a90610fcf565b60405180910390fd5b5050565b600160009054906101000a900473ffffffffffffffffffffffffffffffffffffffff1673ffffffffffffffffffffffffffffffffffffffff163373ffffffffffffffffffffffffffffffffffffffff16146103b7576040517f08c379a00000000000000000000000000000000000000000000000000000000081526004016103ae90610fcf565b60405180910390fd5b50565b600260009054906101000a900473ffffffffffffffffffffffffffffffffffffffff1681565b6103e8610a34565b73ffffffffffffffffffffffffffffffffffffffff1661040661060c565b73ffffffffffffffffffffffffffffffffffffffff161461045c576040517f08c379a000000000000000000000000000000000000000000000000000000000815260040161045390610faf565b60405180910390fd5b6104666000610a3c565b565b600160009054906101000a900473ffffffffffffffffffffffffffffffffffffffff1673ffffffffffffffffffffffffffffffffffffffff163373ffffffffffffffffffffffffffffffffffffffff16146104f8576040517f08c379a00000000000000000000000000000000000000000000000000000000081526004016104ef90610fcf565b60405180910390fd5b50565b600160009054906101000a900473ffffffffffffffffffffffffffffffffffffffff1673ffffffffffffffffffffffffffffffffffffffff163373ffffffffffffffffffffffffffffffffffffffff161461058b576040517f08c379a000000000000000000000000000000000000000000000000000000000815260040161058290610fcf565b60405180910390fd5b50565b610596610a34565b73ffffffffffffffffffffffffffffffffffffffff166105b461060c565b73ffffffffffffffffffffffffffffffffffffffff161461060a576040517f08c379a000000000000000000000000000000000000000000000000000000000815260040161060190610faf565b60405180910390fd5b565b60008060009054906101000a900473ffffffffffffffffffffffffffffffffffffffff16905090565b8030600260009054906101000a900473ffffffffffffffffffffffffffffffffffffffff1673ffffffffffffffffffffffffffffffffffffffff1663b5f829d88333846000366040518663ffffffff1660e01b815260040161069b959493929190610f3a565b600060405180830381600087803b1580156106b557600080fd5b505af11580156106c9573d6000803e3d6000fd5b5050505050505050565b600160009054906101000a900473ffffffffffffffffffffffffffffffffffffffff1673ffffffffffffffffffffffffffffffffffffffff163373ffffffffffffffffffffffffffffffffffffffff1614610763576040517f08c379a000000000000000000000000000000000000000000000000000000000815260040161075a90610fcf565b60405180910390fd5b5050565b8030600260009054906101000a900473ffffffffffffffffffffffffffffffffffffffff1673ffffffffffffffffffffffffffffffffffffffff1663b5f829d88333846000366040518663ffffffff1660e01b81526004016107cd959493929190610f3a565b600060405180830381600087803b1580156107e757600080fd5b505af11580156107fb573d6000803e3d6000fd5b5050505050505050565b8030600260009054906101000a900473ffffffffffffffffffffffffffffffffffffffff1673ffffffffffffffffffffffffffffffffffffffff1663b5f829d88333846000366040518663ffffffff1660e01b815260040161086b959493929190610f3a565b600060405180830381600087803b15801561088557600080fd5b505af1158015610899573d6000803e3d6000fd5b5050505050505050565b565b50565b600160009054906101000a900473ffffffffffffffffffffffffffffffffffffffff1673ffffffffffffffffffffffffffffffffffffffff163373ffffffffffffffffffffffffffffffffffffffff1614610938576040517f08c379a000000000000000000000000000000000000000000000000000000000815260040161092f90610fcf565b60405180910390fd5b5050565b610944610a34565b73ffffffffffffffffffffffffffffffffffffffff1661096261060c565b73ffffffffffffffffffffffffffffffffffffffff16146109b8576040517f08c379a00000000000000000000000000000000000000000000000000000000081526004016109af90610faf565b60405180910390fd5b600073ffffffffffffffffffffffffffffffffffffffff168173ffffffffffffffffffffffffffffffffffffffff161415610a28576040517f08c379a0000000000000000000000000000000000000000000000000000000008152600401610a1f90610f8f565b60405180910390fd5b610a3181610a3c565b50565b600033905090565b60008060009054906101000a900473ffffffffffffffffffffffffffffffffffffffff169050816000806101000a81548173ffffffffffffffffffffffffffffffffffffffff021916908373ffffffffffffffffffffffffffffffffffffffff1602179055508173ffffffffffffffffffffffffffffffffffffffff168173ffffffffffffffffffffffffffffffffffffffff167f8be0079c531659141344cd1fd0a4f28419497f9722a3daafe3b4186f6b6457e060405160405180910390a35050565b6000610b13610b0e84611014565b610fef565b90508083825260208201905082856020860282011115610b3657610b356111de565b5b60005b85811015610b8457813567ffffffffffffffff811115610b5c57610b5b6111d9565b5b808601610b698982610c55565b85526020850194506020840193505050600181019050610b39565b5050509392505050565b6000610ba1610b9c84611040565b610fef565b905082815260208101848484011115610bbd57610bbc6111e3565b5b610bc8848285611137565b509392505050565b6000610be3610bde84611071565b610fef565b905082815260208101848484011115610bff57610bfe6111e3565b5b610c0a848285611137565b509392505050565b600081359050610c21816112ca565b92915050565b600082601f830112610c3c57610c3b6111d9565b5b8135610c4c848260208601610b00565b91505092915050565b600082601f830112610c6a57610c696111d9565b5b8135610c7a848260208601610b8e565b91505092915050565b600082601f830112610c9857610c976111d9565b5b8135610ca8848260208601610bd0565b91505092915050565b600060208284031215610cc757610cc66111ed565b5b6000610cd584828501610c12565b91505092915050565b600060208284031215610cf457610cf36111ed565b5b600082013567ffffffffffffffff811115610d1257610d116111e8565b5b610d1e84828501610c83565b91505092915050565b60008060408385031215610d3e57610d3d6111ed565b5b600083013567ffffffffffffffff811115610d5c57610d5b6111e8565b5b610d6885828601610c83565b925050602083013567ffffffffffffffff811115610d8957610d886111e8565b5b610d9585828601610c27565b9150509250929050565b60008060408385031215610db657610db56111ed565b5b600083013567ffffffffffffffff811115610dd457610dd36111e8565b5b610de085828601610c83565b925050602083013567ffffffffffffffff811115610e0157610e006111e8565b5b610e0d85828601610c83565b9150509250929050565b610e20816110cf565b82525050565b6000610e3283856110ad565b9350610e3f838584611137565b610e48836111f2565b840190509392505050565b610e5c81611101565b82525050565b6000610e6d826110a2565b610e7781856110be565b9350610e87818560208601611146565b610e90816111f2565b840191505092915050565b6000610ea86026836110be565b9150610eb382611203565b604082019050919050565b6000610ecb6020836110be565b9150610ed682611252565b602082019050919050565b6000610eee603b836110be565b9150610ef98261127b565b604082019050919050565b6000602082019050610f196000830184610e17565b92915050565b6000602082019050610f346000830184610e53565b92915050565b60006080820190508181036000830152610f548188610e62565b9050610f636020830187610e17565b610f706040830186610e17565b8181036060830152610f83818486610e26565b90509695505050505050565b60006020820190508181036000830152610fa881610e9b565b9050919050565b60006020820190508181036000830152610fc881610ebe565b9050919050565b60006020820190508181036000830152610fe881610ee1565b9050919050565b6000610ff961100a565b90506110058282611179565b919050565b6000604051905090565b600067ffffffffffffffff82111561102f5761102e6111aa565b5b602082029050602081019050919050565b600067ffffffffffffffff82111561105b5761105a6111aa565b5b611064826111f2565b9050602081019050919050565b600067ffffffffffffffff82111561108c5761108b6111aa565b5b611095826111f2565b9050602081019050919050565b600081519050919050565b600082825260208201905092915050565b600082825260208201905092915050565b60006110da826110e1565b9050919050565b600073ffffffffffffffffffffffffffffffffffffffff82169050919050565b600061110c82611113565b9050919050565b600061111e82611125565b9050919050565b6000611130826110e1565b9050919050565b82818337600083830152505050565b60005b83811015611164578082015181840152602081019050611149565b83811115611173576000848401525b50505050565b611182826111f2565b810181811067ffffffffffffffff821117156111a1576111a06111aa565b5b80604052505050565b7f4e487b7100000000000000000000000000000000000000000000000000000000600052604160045260246000fd5b600080fd5b600080fd5b600080fd5b600080fd5b600080fd5b6000601f19601f8301169050919050565b7f4f776e61626c653a206e6577206f776e657220697320746865207a65726f206160008201527f6464726573730000000000000000000000000000000000000000000000000000602082015250565b7f4f776e61626c653a2063616c6c6572206973206e6f7420746865206f776e6572600082015250565b7f43726564656e7469616c2043616c6c4261636b3a204f6e6c7920746865206f7260008201527f61636c652063616e2063616c6c20746869732066756e6374696f6e0000000000602082015250565b6112d3816110cf565b81146112de57600080fd5b5056fea2646970667358221220f44252bf14e15a7d4ce243d3931ec49ea5782433a9283eb05312bb1b7a32744164736f6c63430008070033",
  "linkReferences": {},
  "deployedLinkReferences": {}
}