{
  "_format": "hh-sol-artifact-1",
  "contractName": "CommunicationFacet",
  "sourceName": "contracts/facets/CommunicationFacet.sol",
  "abi": [
    {
      "inputs": [
        {
          "internalType": "contract CredentialEventFacet",
          "name": "_credentialOracle",
          "type": "address"
        }
      ],
      "stateMutability": "nonpayable",
      "type": "constructor"
    },
    {
      "anonymous": false,
      "inputs": [
        {
          "indexed": true,
          "internalType": "address",
          "name": "previousOwner",
          "type": "address"
        },
        {
          "indexed": true,
          "internalType": "address",
          "name": "newOwner",
          "type": "address"
        }
      ],
      "name": "OwnershipTransferred",
      "type": "event"
    },
    {
      "inputs": [],
      "name": "CREDENTIAL_EVENT",
      "outputs": [
        {
          "internalType": "contract CredentialEventFacet",
          "name": "",
          "type": "address"
        }
      ],
      "stateMutability": "view",
      "type": "function"
    },
    {
      "inputs": [],
      "name": "owner",
      "outputs": [
        {
          "internalType": "address",
          "name": "",
          "type": "address"
        }
      ],
      "stateMutability": "view",
      "type": "function"
    },
    {
      "inputs": [
        {
          "internalType": "string",
          "name": "someParam",
          "type": "string"
        },
        {
          "internalType": "string",
          "name": "_listId",
          "type": "string"
        },
        {
          "internalType": "string",
          "name": "thirdparam",
          "type": "string"
        },
        {
          "internalType": "uint256",
          "name": "num",
          "type": "uint256"
        },
        {
          "internalType": "uint32[]",
          "name": "_good",
          "type": "uint32[]"
        }
      ],
      "name": "postVibe",
      "outputs": [],
      "stateMutability": "nonpayable",
      "type": "function"
    },
    {
      "inputs": [
        {
          "internalType": "string",
          "name": "someParam",
          "type": "string"
        },
        {
          "internalType": "bytes[]",
          "name": "proof",
          "type": "bytes[]"
        }
      ],
      "name": "postVibe_authorised",
      "outputs": [],
      "stateMutability": "nonpayable",
      "type": "function"
    },
    {
      "inputs": [
        {
          "internalType": "string",
          "name": "someParam",
          "type": "string"
        }
      ],
      "name": "postVibe_unauthorised",
      "outputs": [],
      "stateMutability": "nonpayable",
      "type": "function"
    },
    {
      "inputs": [],
      "name": "renounceOwnership",
      "outputs": [],
      "stateMutability": "nonpayable",
      "type": "function"
    },
    {
      "inputs": [
        {
          "internalType": "address",
          "name": "newOwner",
          "type": "address"
        }
      ],
      "name": "transferOwnership",
      "outputs": [],
      "stateMutability": "nonpayable",
      "type": "function"
    }
  ],
  "bytecode": "0x60806040523480156200001157600080fd5b506040516200113f3803806200113f8339818101604052810190620000379190620001c5565b80620000586200004c620000e260201b60201c565b620000ea60201b60201c565b80600160006101000a81548173ffffffffffffffffffffffffffffffffffffffff021916908373ffffffffffffffffffffffffffffffffffffffff16021790555080600260006101000a81548173ffffffffffffffffffffffffffffffffffffffff021916908373ffffffffffffffffffffffffffffffffffffffff16021790555050506200025e565b600033905090565b60008060009054906101000a900473ffffffffffffffffffffffffffffffffffffffff169050816000806101000a81548173ffffffffffffffffffffffffffffffffffffffff021916908373ffffffffffffffffffffffffffffffffffffffff1602179055508173ffffffffffffffffffffffffffffffffffffffff168173ffffffffffffffffffffffffffffffffffffffff167f8be0079c531659141344cd1fd0a4f28419497f9722a3daafe3b4186f6b6457e060405160405180910390a35050565b600081519050620001bf8162000244565b92915050565b600060208284031215620001de57620001dd6200023f565b5b6000620001ee84828501620001ae565b91505092915050565b600062000204826200021f565b9050919050565b60006200021882620001f7565b9050919050565b600073ffffffffffffffffffffffffffffffffffffffff82169050919050565b600080fd5b6200024f816200020b565b81146200025b57600080fd5b50565b610ed1806200026e6000396000f3fe608060405234801561001057600080fd5b506004361061007d5760003560e01c80638da5cb5b1161005b5780638da5cb5b146100c65780639833b282146100e4578063dce8a95514610100578063f2fde38b1461011c5761007d565b8063436e99f3146100825780635f7690b31461009e578063715018a6146100bc575b600080fd5b61009c6004803603810190610097919061083d565b610138565b005b6100a66101cb565b6040516100b39190610af8565b60405180910390f35b6100c46101f1565b005b6100ce610279565b6040516100db9190610a9d565b60405180910390f35b6100fe60048036038101906100f991906108fe565b6102a2565b005b61011a60048036038101906101159190610886565b61033f565b005b61013660048036038101906101319190610810565b6103d3565b005b600160009054906101000a900473ffffffffffffffffffffffffffffffffffffffff1673ffffffffffffffffffffffffffffffffffffffff163373ffffffffffffffffffffffffffffffffffffffff16146101c8576040517f08c379a00000000000000000000000000000000000000000000000000000000081526004016101bf90610b53565b60405180910390fd5b50565b600260009054906101000a900473ffffffffffffffffffffffffffffffffffffffff1681565b6101f96104cb565b73ffffffffffffffffffffffffffffffffffffffff16610217610279565b73ffffffffffffffffffffffffffffffffffffffff161461026d576040517f08c379a000000000000000000000000000000000000000000000000000000000815260040161026490610b33565b60405180910390fd5b61027760006104d3565b565b60008060009054906101000a900473ffffffffffffffffffffffffffffffffffffffff16905090565b30600260009054906101000a900473ffffffffffffffffffffffffffffffffffffffff1673ffffffffffffffffffffffffffffffffffffffff1663502d667133836000366040518563ffffffff1660e01b81526004016103059493929190610ab8565b600060405180830381600087803b15801561031f57600080fd5b505af1158015610333573d6000803e3d6000fd5b50505050505050505050565b600160009054906101000a900473ffffffffffffffffffffffffffffffffffffffff1673ffffffffffffffffffffffffffffffffffffffff163373ffffffffffffffffffffffffffffffffffffffff16146103cf576040517f08c379a00000000000000000000000000000000000000000000000000000000081526004016103c690610b53565b60405180910390fd5b5050565b6103db6104cb565b73ffffffffffffffffffffffffffffffffffffffff166103f9610279565b73ffffffffffffffffffffffffffffffffffffffff161461044f576040517f08c379a000000000000000000000000000000000000000000000000000000000815260040161044690610b33565b60405180910390fd5b600073ffffffffffffffffffffffffffffffffffffffff168173ffffffffffffffffffffffffffffffffffffffff1614156104bf576040517f08c379a00000000000000000000000000000000000000000000000000000000081526004016104b690610b13565b60405180910390fd5b6104c8816104d3565b50565b600033905090565b60008060009054906101000a900473ffffffffffffffffffffffffffffffffffffffff169050816000806101000a81548173ffffffffffffffffffffffffffffffffffffffff021916908373ffffffffffffffffffffffffffffffffffffffff1602179055508173ffffffffffffffffffffffffffffffffffffffff168173ffffffffffffffffffffffffffffffffffffffff167f8be0079c531659141344cd1fd0a4f28419497f9722a3daafe3b4186f6b6457e060405160405180910390a35050565b60006105aa6105a584610b98565b610b73565b905080838252602082019050828560208602820111156105cd576105cc610d6a565b5b60005b8581101561061b57813567ffffffffffffffff8111156105f3576105f2610d65565b5b808601610600898261078a565b855260208501945060208401935050506001810190506105d0565b5050509392505050565b600061063861063384610bc4565b610b73565b9050808382526020820190508285602086028201111561065b5761065a610d6a565b5b60005b8581101561068b578161067188826107fb565b84526020840193506020830192505060018101905061065e565b5050509392505050565b60006106a86106a384610bf0565b610b73565b9050828152602081018484840111156106c4576106c3610d6f565b5b6106cf848285610cf6565b509392505050565b60006106ea6106e584610c21565b610b73565b90508281526020810184848401111561070657610705610d6f565b5b610711848285610cf6565b509392505050565b60008135905061072881610e56565b92915050565b600082601f83011261074357610742610d65565b5b8135610753848260208601610597565b91505092915050565b600082601f83011261077157610770610d65565b5b8135610781848260208601610625565b91505092915050565b600082601f83011261079f5761079e610d65565b5b81356107af848260208601610695565b91505092915050565b600082601f8301126107cd576107cc610d65565b5b81356107dd8482602086016106d7565b91505092915050565b6000813590506107f581610e6d565b92915050565b60008135905061080a81610e84565b92915050565b60006020828403121561082657610825610d79565b5b600061083484828501610719565b91505092915050565b60006020828403121561085357610852610d79565b5b600082013567ffffffffffffffff81111561087157610870610d74565b5b61087d848285016107b8565b91505092915050565b6000806040838503121561089d5761089c610d79565b5b600083013567ffffffffffffffff8111156108bb576108ba610d74565b5b6108c7858286016107b8565b925050602083013567ffffffffffffffff8111156108e8576108e7610d74565b5b6108f48582860161072e565b9150509250929050565b600080600080600060a0868803121561091a57610919610d79565b5b600086013567ffffffffffffffff81111561093857610937610d74565b5b610944888289016107b8565b955050602086013567ffffffffffffffff81111561096557610964610d74565b5b610971888289016107b8565b945050604086013567ffffffffffffffff81111561099257610991610d74565b5b61099e888289016107b8565b93505060606109af888289016107e6565b925050608086013567ffffffffffffffff8111156109d0576109cf610d74565b5b6109dc8882890161075c565b9150509295509295909350565b6109f281610c74565b82525050565b6000610a048385610c52565b9350610a11838584610cf6565b610a1a83610d7e565b840190509392505050565b610a2e81610cc0565b82525050565b6000610a41602683610c63565b9150610a4c82610d8f565b604082019050919050565b6000610a64602083610c63565b9150610a6f82610dde565b602082019050919050565b6000610a87603b83610c63565b9150610a9282610e07565b604082019050919050565b6000602082019050610ab260008301846109e9565b92915050565b6000606082019050610acd60008301876109e9565b610ada60208301866109e9565b8181036040830152610aed8184866109f8565b905095945050505050565b6000602082019050610b0d6000830184610a25565b92915050565b60006020820190508181036000830152610b2c81610a34565b9050919050565b60006020820190508181036000830152610b4c81610a57565b9050919050565b60006020820190508181036000830152610b6c81610a7a565b9050919050565b6000610b7d610b8e565b9050610b898282610d05565b919050565b6000604051905090565b600067ffffffffffffffff821115610bb357610bb2610d36565b5b602082029050602081019050919050565b600067ffffffffffffffff821115610bdf57610bde610d36565b5b602082029050602081019050919050565b600067ffffffffffffffff821115610c0b57610c0a610d36565b5b610c1482610d7e565b9050602081019050919050565b600067ffffffffffffffff821115610c3c57610c3b610d36565b5b610c4582610d7e565b9050602081019050919050565b600082825260208201905092915050565b600082825260208201905092915050565b6000610c7f82610c86565b9050919050565b600073ffffffffffffffffffffffffffffffffffffffff82169050919050565b6000819050919050565b600063ffffffff82169050919050565b6000610ccb82610cd2565b9050919050565b6000610cdd82610ce4565b9050919050565b6000610cef82610c86565b9050919050565b82818337600083830152505050565b610d0e82610d7e565b810181811067ffffffffffffffff82111715610d2d57610d2c610d36565b5b80604052505050565b7f4e487b7100000000000000000000000000000000000000000000000000000000600052604160045260246000fd5b600080fd5b600080fd5b600080fd5b600080fd5b600080fd5b6000601f19601f8301169050919050565b7f4f776e61626c653a206e6577206f776e657220697320746865207a65726f206160008201527f6464726573730000000000000000000000000000000000000000000000000000602082015250565b7f4f776e61626c653a2063616c6c6572206973206e6f7420746865206f776e6572600082015250565b7f43726564656e7469616c2043616c6c4261636b3a204f6e6c7920746865206f7260008201527f61636c652063616e2063616c6c20746869732066756e6374696f6e0000000000602082015250565b610e5f81610c74565b8114610e6a57600080fd5b50565b610e7681610ca6565b8114610e8157600080fd5b50565b610e8d81610cb0565b8114610e9857600080fd5b5056fea264697066735822122094ebeabf89ffb9296a98a4454767f153f170a3c4ce1ff15ae93b1e83faaea58164736f6c63430008070033",
  "linkReferences": {},
  "deployedLinkReferences": {}
}