{
  "_format": "hh-sol-artifact-1",
  "contractName": "CommunicationFacet",
  "sourceName": "contracts/facets/CommunicationFacet.sol",
  "abi": [
    {
      "inputs": [
        {
          "internalType": "contract CredentialEventFacet",
          "name": "_credentialOracle",
          "type": "address"
        }
      ],
      "stateMutability": "nonpayable",
      "type": "constructor"
    },
    {
      "anonymous": false,
      "inputs": [
        {
          "indexed": true,
          "internalType": "address",
          "name": "previousOwner",
          "type": "address"
        },
        {
          "indexed": true,
          "internalType": "address",
          "name": "newOwner",
          "type": "address"
        }
      ],
      "name": "OwnershipTransferred",
      "type": "event"
    },
    {
      "inputs": [],
      "name": "CREDENTIAL_EVENT",
      "outputs": [
        {
          "internalType": "contract CredentialEventFacet",
          "name": "",
          "type": "address"
        }
      ],
      "stateMutability": "view",
      "type": "function"
    },
    {
      "inputs": [
        {
          "internalType": "string",
          "name": "someParam",
          "type": "string"
        },
        {
          "internalType": "string",
          "name": "_listId",
          "type": "string"
        }
      ],
      "name": "downVoteVibe",
      "outputs": [],
      "stateMutability": "nonpayable",
      "type": "function"
    },
    {
      "inputs": [
        {
          "internalType": "string",
          "name": "someParam",
          "type": "string"
        },
        {
          "internalType": "bytes[]",
          "name": "proof",
          "type": "bytes[]"
        }
      ],
      "name": "downVoteVibe_authorised",
      "outputs": [],
      "stateMutability": "nonpayable",
      "type": "function"
    },
    {
      "inputs": [
        {
          "internalType": "string",
          "name": "someParam",
          "type": "string"
        }
      ],
      "name": "downVoteVibe_unauthorised",
      "outputs": [],
      "stateMutability": "nonpayable",
      "type": "function"
    },
    {
      "inputs": [],
      "name": "owner",
      "outputs": [
        {
          "internalType": "address",
          "name": "",
          "type": "address"
        }
      ],
      "stateMutability": "view",
      "type": "function"
    },
    {
      "inputs": [
        {
          "internalType": "string",
          "name": "someParam",
          "type": "string"
        },
        {
          "internalType": "string",
          "name": "_listId",
          "type": "string"
        },
        {
          "internalType": "string",
          "name": "_testing",
          "type": "string"
        }
      ],
      "name": "postVibe",
      "outputs": [],
      "stateMutability": "nonpayable",
      "type": "function"
    },
    {
      "inputs": [
        {
          "internalType": "string",
          "name": "someParam",
          "type": "string"
        },
        {
          "internalType": "bytes[]",
          "name": "proof",
          "type": "bytes[]"
        }
      ],
      "name": "postVibe_authorised",
      "outputs": [],
      "stateMutability": "nonpayable",
      "type": "function"
    },
    {
      "inputs": [
        {
          "internalType": "string",
          "name": "someParam",
          "type": "string"
        }
      ],
      "name": "postVibe_unauthorised",
      "outputs": [],
      "stateMutability": "nonpayable",
      "type": "function"
    },
    {
      "inputs": [],
      "name": "renounceOwnership",
      "outputs": [],
      "stateMutability": "nonpayable",
      "type": "function"
    },
    {
      "inputs": [
        {
          "internalType": "string",
          "name": "someParam",
          "type": "string"
        }
      ],
      "name": "setInboxPriceForCredential",
      "outputs": [],
      "stateMutability": "nonpayable",
      "type": "function"
    },
    {
      "inputs": [],
      "name": "setUpVibePool",
      "outputs": [],
      "stateMutability": "nonpayable",
      "type": "function"
    },
    {
      "inputs": [],
      "name": "settleVibes",
      "outputs": [],
      "stateMutability": "nonpayable",
      "type": "function"
    },
    {
      "inputs": [
        {
          "internalType": "address",
          "name": "newOwner",
          "type": "address"
        }
      ],
      "name": "transferOwnership",
      "outputs": [],
      "stateMutability": "nonpayable",
      "type": "function"
    },
    {
      "inputs": [
        {
          "internalType": "string",
          "name": "someParam",
          "type": "string"
        },
        {
          "internalType": "string",
          "name": "_listId",
          "type": "string"
        }
      ],
      "name": "upVoteVibe",
      "outputs": [],
      "stateMutability": "nonpayable",
      "type": "function"
    },
    {
      "inputs": [
        {
          "internalType": "string",
          "name": "someParam",
          "type": "string"
        },
        {
          "internalType": "bytes[]",
          "name": "proof",
          "type": "bytes[]"
        }
      ],
      "name": "upVoteVibe_authorised",
      "outputs": [],
      "stateMutability": "nonpayable",
      "type": "function"
    },
    {
      "inputs": [
        {
          "internalType": "string",
          "name": "someParam",
          "type": "string"
        }
      ],
      "name": "upVoteVibe_unauthorised",
      "outputs": [],
      "stateMutability": "nonpayable",
      "type": "function"
    }
  ],
  "bytecode": "0x60806040523480156200001157600080fd5b5060405162001613380380620016138339818101604052810190620000379190620001c5565b80620000586200004c620000e260201b60201c565b620000ea60201b60201c565b80600160006101000a81548173ffffffffffffffffffffffffffffffffffffffff021916908373ffffffffffffffffffffffffffffffffffffffff16021790555080600260006101000a81548173ffffffffffffffffffffffffffffffffffffffff021916908373ffffffffffffffffffffffffffffffffffffffff16021790555050506200025e565b600033905090565b60008060009054906101000a900473ffffffffffffffffffffffffffffffffffffffff169050816000806101000a81548173ffffffffffffffffffffffffffffffffffffffff021916908373ffffffffffffffffffffffffffffffffffffffff1602179055508173ffffffffffffffffffffffffffffffffffffffff168173ffffffffffffffffffffffffffffffffffffffff167f8be0079c531659141344cd1fd0a4f28419497f9722a3daafe3b4186f6b6457e060405160405180910390a35050565b600081519050620001bf8162000244565b92915050565b600060208284031215620001de57620001dd6200023f565b5b6000620001ee84828501620001ae565b91505092915050565b600062000204826200021f565b9050919050565b60006200021882620001f7565b9050919050565b600073ffffffffffffffffffffffffffffffffffffffff82169050919050565b600080fd5b6200024f816200020b565b81146200025b57600080fd5b50565b6113a5806200026e6000396000f3fe608060405234801561001057600080fd5b50600436106101005760003560e01c8063a890e38111610097578063cd68049211610066578063cd68049214610223578063dce8a9551461023f578063f2fde38b1461025b578063f37d9ecd1461027757610100565b8063a890e381146101c5578063b0c7f4c0146101e1578063c113344b146101fd578063c1d156761461021957610100565b8063787a9a95116100d3578063787a9a95146101655780637fa258791461018157806389aeb0711461019d5780638da5cb5b146101a757610100565b80630bf0ea1814610105578063436e99f3146101215780635f7690b31461013d578063715018a61461015b575b600080fd5b61011f600480360381019061011a9190610d1c565b610293565b005b61013b60048036038101906101369190610cd3565b610327565b005b6101456103ba565b6040516101529190610fbb565b60405180910390f35b6101636103e0565b005b61017f600480360381019061017a9190610cd3565b610468565b005b61019b60048036038101906101969190610cd3565b6104fb565b005b6101a561058e565b005b6101af61060c565b6040516101bc9190610fa0565b60405180910390f35b6101df60048036038101906101da9190610d94565b610635565b005b6101fb60048036038101906101f69190610d1c565b6106cf565b005b61021760048036038101906102129190610d94565b610763565b005b6102216107fd565b005b61023d60048036038101906102389190610cd3565b6107ff565b005b61025960048036038101906102549190610d1c565b610802565b005b61027560048036038101906102709190610ca6565b610896565b005b610291600480360381019061028c9190610e0c565b61098e565b005b600160009054906101000a900473ffffffffffffffffffffffffffffffffffffffff1673ffffffffffffffffffffffffffffffffffffffff163373ffffffffffffffffffffffffffffffffffffffff1614610323576040517f08c379a000000000000000000000000000000000000000000000000000000000815260040161031a9061105d565b60405180910390fd5b5050565b600160009054906101000a900473ffffffffffffffffffffffffffffffffffffffff1673ffffffffffffffffffffffffffffffffffffffff163373ffffffffffffffffffffffffffffffffffffffff16146103b7576040517f08c379a00000000000000000000000000000000000000000000000000000000081526004016103ae9061105d565b60405180910390fd5b50565b600260009054906101000a900473ffffffffffffffffffffffffffffffffffffffff1681565b6103e8610a29565b73ffffffffffffffffffffffffffffffffffffffff1661040661060c565b73ffffffffffffffffffffffffffffffffffffffff161461045c576040517f08c379a00000000000000000000000000000000000000000000000000000000081526004016104539061103d565b60405180910390fd5b6104666000610a31565b565b600160009054906101000a900473ffffffffffffffffffffffffffffffffffffffff1673ffffffffffffffffffffffffffffffffffffffff163373ffffffffffffffffffffffffffffffffffffffff16146104f8576040517f08c379a00000000000000000000000000000000000000000000000000000000081526004016104ef9061105d565b60405180910390fd5b50565b600160009054906101000a900473ffffffffffffffffffffffffffffffffffffffff1673ffffffffffffffffffffffffffffffffffffffff163373ffffffffffffffffffffffffffffffffffffffff161461058b576040517f08c379a00000000000000000000000000000000000000000000000000000000081526004016105829061105d565b60405180910390fd5b50565b610596610a29565b73ffffffffffffffffffffffffffffffffffffffff166105b461060c565b73ffffffffffffffffffffffffffffffffffffffff161461060a576040517f08c379a00000000000000000000000000000000000000000000000000000000081526004016106019061103d565b60405180910390fd5b565b60008060009054906101000a900473ffffffffffffffffffffffffffffffffffffffff16905090565b80600260009054906101000a900473ffffffffffffffffffffffffffffffffffffffff1673ffffffffffffffffffffffffffffffffffffffff16631a971c1b82336000366040518563ffffffff1660e01b81526004016106989493929190610fd6565b600060405180830381600087803b1580156106b257600080fd5b505af11580156106c6573d6000803e3d6000fd5b50505050505050565b600160009054906101000a900473ffffffffffffffffffffffffffffffffffffffff1673ffffffffffffffffffffffffffffffffffffffff163373ffffffffffffffffffffffffffffffffffffffff161461075f576040517f08c379a00000000000000000000000000000000000000000000000000000000081526004016107569061105d565b60405180910390fd5b5050565b80600260009054906101000a900473ffffffffffffffffffffffffffffffffffffffff1673ffffffffffffffffffffffffffffffffffffffff16631a971c1b82336000366040518563ffffffff1660e01b81526004016107c69493929190610fd6565b600060405180830381600087803b1580156107e057600080fd5b505af11580156107f4573d6000803e3d6000fd5b50505050505050565b565b50565b600160009054906101000a900473ffffffffffffffffffffffffffffffffffffffff1673ffffffffffffffffffffffffffffffffffffffff163373ffffffffffffffffffffffffffffffffffffffff1614610892576040517f08c379a00000000000000000000000000000000000000000000000000000000081526004016108899061105d565b60405180910390fd5b5050565b61089e610a29565b73ffffffffffffffffffffffffffffffffffffffff166108bc61060c565b73ffffffffffffffffffffffffffffffffffffffff1614610912576040517f08c379a00000000000000000000000000000000000000000000000000000000081526004016109099061103d565b60405180910390fd5b600073ffffffffffffffffffffffffffffffffffffffff168173ffffffffffffffffffffffffffffffffffffffff161415610982576040517f08c379a00000000000000000000000000000000000000000000000000000000081526004016109799061101d565b60405180910390fd5b61098b81610a31565b50565b81600260009054906101000a900473ffffffffffffffffffffffffffffffffffffffff1673ffffffffffffffffffffffffffffffffffffffff16631a971c1b82336000366040518563ffffffff1660e01b81526004016109f19493929190610fd6565b600060405180830381600087803b158015610a0b57600080fd5b505af1158015610a1f573d6000803e3d6000fd5b5050505050505050565b600033905090565b60008060009054906101000a900473ffffffffffffffffffffffffffffffffffffffff169050816000806101000a81548173ffffffffffffffffffffffffffffffffffffffff021916908373ffffffffffffffffffffffffffffffffffffffff1602179055508173ffffffffffffffffffffffffffffffffffffffff168173ffffffffffffffffffffffffffffffffffffffff167f8be0079c531659141344cd1fd0a4f28419497f9722a3daafe3b4186f6b6457e060405160405180910390a35050565b6000610b08610b03846110a2565b61107d565b90508083825260208201905082856020860282011115610b2b57610b2a61126c565b5b60005b85811015610b7957813567ffffffffffffffff811115610b5157610b50611267565b5b808601610b5e8982610c4a565b85526020850194506020840193505050600181019050610b2e565b5050509392505050565b6000610b96610b91846110ce565b61107d565b905082815260208101848484011115610bb257610bb1611271565b5b610bbd8482856111c5565b509392505050565b6000610bd8610bd3846110ff565b61107d565b905082815260208101848484011115610bf457610bf3611271565b5b610bff8482856111c5565b509392505050565b600081359050610c1681611358565b92915050565b600082601f830112610c3157610c30611267565b5b8135610c41848260208601610af5565b91505092915050565b600082601f830112610c5f57610c5e611267565b5b8135610c6f848260208601610b83565b91505092915050565b600082601f830112610c8d57610c8c611267565b5b8135610c9d848260208601610bc5565b91505092915050565b600060208284031215610cbc57610cbb61127b565b5b6000610cca84828501610c07565b91505092915050565b600060208284031215610ce957610ce861127b565b5b600082013567ffffffffffffffff811115610d0757610d06611276565b5b610d1384828501610c78565b91505092915050565b60008060408385031215610d3357610d3261127b565b5b600083013567ffffffffffffffff811115610d5157610d50611276565b5b610d5d85828601610c78565b925050602083013567ffffffffffffffff811115610d7e57610d7d611276565b5b610d8a85828601610c1c565b9150509250929050565b60008060408385031215610dab57610daa61127b565b5b600083013567ffffffffffffffff811115610dc957610dc8611276565b5b610dd585828601610c78565b925050602083013567ffffffffffffffff811115610df657610df5611276565b5b610e0285828601610c78565b9150509250929050565b600080600060608486031215610e2557610e2461127b565b5b600084013567ffffffffffffffff811115610e4357610e42611276565b5b610e4f86828701610c78565b935050602084013567ffffffffffffffff811115610e7057610e6f611276565b5b610e7c86828701610c78565b925050604084013567ffffffffffffffff811115610e9d57610e9c611276565b5b610ea986828701610c78565b9150509250925092565b610ebc8161115d565b82525050565b6000610ece838561113b565b9350610edb8385846111c5565b610ee483611280565b840190509392505050565b610ef88161118f565b82525050565b6000610f0982611130565b610f13818561114c565b9350610f238185602086016111d4565b610f2c81611280565b840191505092915050565b6000610f4460268361114c565b9150610f4f82611291565b604082019050919050565b6000610f6760208361114c565b9150610f72826112e0565b602082019050919050565b6000610f8a603b8361114c565b9150610f9582611309565b604082019050919050565b6000602082019050610fb56000830184610eb3565b92915050565b6000602082019050610fd06000830184610eef565b92915050565b60006060820190508181036000830152610ff08187610efe565b9050610fff6020830186610eb3565b8181036040830152611012818486610ec2565b905095945050505050565b6000602082019050818103600083015261103681610f37565b9050919050565b6000602082019050818103600083015261105681610f5a565b9050919050565b6000602082019050818103600083015261107681610f7d565b9050919050565b6000611087611098565b90506110938282611207565b919050565b6000604051905090565b600067ffffffffffffffff8211156110bd576110bc611238565b5b602082029050602081019050919050565b600067ffffffffffffffff8211156110e9576110e8611238565b5b6110f282611280565b9050602081019050919050565b600067ffffffffffffffff82111561111a57611119611238565b5b61112382611280565b9050602081019050919050565b600081519050919050565b600082825260208201905092915050565b600082825260208201905092915050565b60006111688261116f565b9050919050565b600073ffffffffffffffffffffffffffffffffffffffff82169050919050565b600061119a826111a1565b9050919050565b60006111ac826111b3565b9050919050565b60006111be8261116f565b9050919050565b82818337600083830152505050565b60005b838110156111f25780820151818401526020810190506111d7565b83811115611201576000848401525b50505050565b61121082611280565b810181811067ffffffffffffffff8211171561122f5761122e611238565b5b80604052505050565b7f4e487b7100000000000000000000000000000000000000000000000000000000600052604160045260246000fd5b600080fd5b600080fd5b600080fd5b600080fd5b600080fd5b6000601f19601f8301169050919050565b7f4f776e61626c653a206e6577206f776e657220697320746865207a65726f206160008201527f6464726573730000000000000000000000000000000000000000000000000000602082015250565b7f4f776e61626c653a2063616c6c6572206973206e6f7420746865206f776e6572600082015250565b7f43726564656e7469616c2043616c6c4261636b3a204f6e6c7920746865206f7260008201527f61636c652063616e2063616c6c20746869732066756e6374696f6e0000000000602082015250565b6113618161115d565b811461136c57600080fd5b5056fea2646970667358221220b3e88bfbbd09eeb46746f7b3538083ebe824016d8f1c21b48926f4ffa3f12a0f64736f6c63430008070033",
  "linkReferences": {},
  "deployedLinkReferences": {}
}