{
  "_format": "hh-sol-artifact-1",
  "contractName": "CommunicationFacet",
  "sourceName": "contracts/facets/CommunicationFacet.sol",
  "abi": [
    {
      "inputs": [
        {
          "internalType": "contract CredentialEventFacet",
          "name": "_credentialOracle",
          "type": "address"
        }
      ],
      "stateMutability": "nonpayable",
      "type": "constructor"
    },
    {
      "anonymous": false,
      "inputs": [
        {
          "indexed": true,
          "internalType": "address",
          "name": "previousOwner",
          "type": "address"
        },
        {
          "indexed": true,
          "internalType": "address",
          "name": "newOwner",
          "type": "address"
        }
      ],
      "name": "OwnershipTransferred",
      "type": "event"
    },
    {
      "inputs": [],
      "name": "CREDENTIAL_EVENT",
      "outputs": [
        {
          "internalType": "contract CredentialEventFacet",
          "name": "",
          "type": "address"
        }
      ],
      "stateMutability": "view",
      "type": "function"
    },
    {
      "inputs": [
        {
          "internalType": "string",
          "name": "someParam",
          "type": "string"
        },
        {
          "internalType": "string",
          "name": "_listId",
          "type": "string"
        }
      ],
      "name": "downVoteVibe",
      "outputs": [],
      "stateMutability": "nonpayable",
      "type": "function"
    },
    {
      "inputs": [
        {
          "internalType": "string",
          "name": "someParam",
          "type": "string"
        },
        {
          "internalType": "bytes[]",
          "name": "proof",
          "type": "bytes[]"
        }
      ],
      "name": "downVoteVibe_authorised",
      "outputs": [],
      "stateMutability": "nonpayable",
      "type": "function"
    },
    {
      "inputs": [
        {
          "internalType": "string",
          "name": "someParam",
          "type": "string"
        }
      ],
      "name": "downVoteVibe_unauthorised",
      "outputs": [],
      "stateMutability": "nonpayable",
      "type": "function"
    },
    {
      "inputs": [],
      "name": "owner",
      "outputs": [
        {
          "internalType": "address",
          "name": "",
          "type": "address"
        }
      ],
      "stateMutability": "view",
      "type": "function"
    },
    {
      "inputs": [
        {
          "internalType": "string",
          "name": "someParam",
          "type": "string"
        },
        {
          "internalType": "string",
          "name": "_listId",
          "type": "string"
        }
      ],
      "name": "postVibe",
      "outputs": [],
      "stateMutability": "nonpayable",
      "type": "function"
    },
    {
      "inputs": [
        {
          "internalType": "string",
          "name": "someParam",
          "type": "string"
        },
        {
          "internalType": "bytes[]",
          "name": "proof",
          "type": "bytes[]"
        }
      ],
      "name": "postVibe_authorised",
      "outputs": [],
      "stateMutability": "nonpayable",
      "type": "function"
    },
    {
      "inputs": [
        {
          "internalType": "string",
          "name": "someParam",
          "type": "string"
        }
      ],
      "name": "postVibe_unauthorised",
      "outputs": [],
      "stateMutability": "nonpayable",
      "type": "function"
    },
    {
      "inputs": [],
      "name": "renounceOwnership",
      "outputs": [],
      "stateMutability": "nonpayable",
      "type": "function"
    },
    {
      "inputs": [
        {
          "internalType": "string",
          "name": "someParam",
          "type": "string"
        }
      ],
      "name": "setInboxPriceForCredential",
      "outputs": [],
      "stateMutability": "nonpayable",
      "type": "function"
    },
    {
      "inputs": [],
      "name": "setUpVibePool",
      "outputs": [],
      "stateMutability": "nonpayable",
      "type": "function"
    },
    {
      "inputs": [],
      "name": "settleVibes",
      "outputs": [],
      "stateMutability": "nonpayable",
      "type": "function"
    },
    {
      "inputs": [
        {
          "internalType": "address",
          "name": "newOwner",
          "type": "address"
        }
      ],
      "name": "transferOwnership",
      "outputs": [],
      "stateMutability": "nonpayable",
      "type": "function"
    },
    {
      "inputs": [
        {
          "internalType": "string",
          "name": "someParam",
          "type": "string"
        },
        {
          "internalType": "string",
          "name": "_listId",
          "type": "string"
        }
      ],
      "name": "upVoteVibe",
      "outputs": [],
      "stateMutability": "nonpayable",
      "type": "function"
    },
    {
      "inputs": [
        {
          "internalType": "string",
          "name": "someParam",
          "type": "string"
        },
        {
          "internalType": "bytes[]",
          "name": "proof",
          "type": "bytes[]"
        }
      ],
      "name": "upVoteVibe_authorised",
      "outputs": [],
      "stateMutability": "nonpayable",
      "type": "function"
    },
    {
      "inputs": [
        {
          "internalType": "string",
          "name": "someParam",
          "type": "string"
        }
      ],
      "name": "upVoteVibe_unauthorised",
      "outputs": [],
      "stateMutability": "nonpayable",
      "type": "function"
    }
  ],
  "bytecode": "0x60806040523480156200001157600080fd5b5060405162001645380380620016458339818101604052810190620000379190620001c5565b80620000586200004c620000e260201b60201c565b620000ea60201b60201c565b80600160006101000a81548173ffffffffffffffffffffffffffffffffffffffff021916908373ffffffffffffffffffffffffffffffffffffffff16021790555080600260006101000a81548173ffffffffffffffffffffffffffffffffffffffff021916908373ffffffffffffffffffffffffffffffffffffffff16021790555050506200025e565b600033905090565b60008060009054906101000a900473ffffffffffffffffffffffffffffffffffffffff169050816000806101000a81548173ffffffffffffffffffffffffffffffffffffffff021916908373ffffffffffffffffffffffffffffffffffffffff1602179055508173ffffffffffffffffffffffffffffffffffffffff168173ffffffffffffffffffffffffffffffffffffffff167f8be0079c531659141344cd1fd0a4f28419497f9722a3daafe3b4186f6b6457e060405160405180910390a35050565b600081519050620001bf8162000244565b92915050565b600060208284031215620001de57620001dd6200023f565b5b6000620001ee84828501620001ae565b91505092915050565b600062000204826200021f565b9050919050565b60006200021882620001f7565b9050919050565b600073ffffffffffffffffffffffffffffffffffffffff82169050919050565b600080fd5b6200024f816200020b565b81146200025b57600080fd5b50565b6113d7806200026e6000396000f3fe608060405234801561001057600080fd5b50600436106101005760003560e01c8063a890e38111610097578063c1d1567611610066578063c1d1567614610235578063cd6804921461023f578063dce8a9551461025b578063f2fde38b1461027757610100565b8063a890e381146101c5578063b0c7f4c0146101e1578063be58afb0146101fd578063c113344b1461021957610100565b8063787a9a95116100d3578063787a9a95146101655780637fa258791461018157806389aeb0711461019d5780638da5cb5b146101a757610100565b80630bf0ea1814610105578063436e99f3146101215780635f7690b31461013d578063715018a61461015b575b600080fd5b61011f600480360381019061011a9190610dd2565b610293565b005b61013b60048036038101906101369190610d89565b610327565b005b6101456103ba565b6040516101529190610fca565b60405180910390f35b6101636103e0565b005b61017f600480360381019061017a9190610d89565b610468565b005b61019b60048036038101906101969190610d89565b6104fb565b005b6101a561058e565b005b6101af61060c565b6040516101bc9190610faf565b60405180910390f35b6101df60048036038101906101da9190610e4a565b610635565b005b6101fb60048036038101906101f69190610dd2565b61070c565b005b61021760048036038101906102129190610e4a565b6107a0565b005b610233600480360381019061022e9190610e4a565b610877565b005b61023d61094e565b005b61025960048036038101906102549190610d89565b610950565b005b61027560048036038101906102709190610dd2565b610953565b005b610291600480360381019061028c9190610d5c565b6109e7565b005b600160009054906101000a900473ffffffffffffffffffffffffffffffffffffffff1673ffffffffffffffffffffffffffffffffffffffff163373ffffffffffffffffffffffffffffffffffffffff1614610323576040517f08c379a000000000000000000000000000000000000000000000000000000000815260040161031a9061108f565b60405180910390fd5b5050565b600160009054906101000a900473ffffffffffffffffffffffffffffffffffffffff1673ffffffffffffffffffffffffffffffffffffffff163373ffffffffffffffffffffffffffffffffffffffff16146103b7576040517f08c379a00000000000000000000000000000000000000000000000000000000081526004016103ae9061108f565b60405180910390fd5b50565b600260009054906101000a900473ffffffffffffffffffffffffffffffffffffffff1681565b6103e8610adf565b73ffffffffffffffffffffffffffffffffffffffff1661040661060c565b73ffffffffffffffffffffffffffffffffffffffff161461045c576040517f08c379a00000000000000000000000000000000000000000000000000000000081526004016104539061106f565b60405180910390fd5b6104666000610ae7565b565b600160009054906101000a900473ffffffffffffffffffffffffffffffffffffffff1673ffffffffffffffffffffffffffffffffffffffff163373ffffffffffffffffffffffffffffffffffffffff16146104f8576040517f08c379a00000000000000000000000000000000000000000000000000000000081526004016104ef9061108f565b60405180910390fd5b50565b600160009054906101000a900473ffffffffffffffffffffffffffffffffffffffff1673ffffffffffffffffffffffffffffffffffffffff163373ffffffffffffffffffffffffffffffffffffffff161461058b576040517f08c379a00000000000000000000000000000000000000000000000000000000081526004016105829061108f565b60405180910390fd5b50565b610596610adf565b73ffffffffffffffffffffffffffffffffffffffff166105b461060c565b73ffffffffffffffffffffffffffffffffffffffff161461060a576040517f08c379a00000000000000000000000000000000000000000000000000000000081526004016106019061106f565b60405180910390fd5b565b60008060009054906101000a900473ffffffffffffffffffffffffffffffffffffffff16905090565b80306040518060400160405280600a81526020017f7570566f74655669626500000000000000000000000000000000000000000000815250600260009054906101000a900473ffffffffffffffffffffffffffffffffffffffff1673ffffffffffffffffffffffffffffffffffffffff1663a78d2ba3843385856000366040518763ffffffff1660e01b81526004016106d396959493929190610fe5565b600060405180830381600087803b1580156106ed57600080fd5b505af1158015610701573d6000803e3d6000fd5b505050505050505050565b600160009054906101000a900473ffffffffffffffffffffffffffffffffffffffff1673ffffffffffffffffffffffffffffffffffffffff163373ffffffffffffffffffffffffffffffffffffffff161461079c576040517f08c379a00000000000000000000000000000000000000000000000000000000081526004016107939061108f565b60405180910390fd5b5050565b80306040518060400160405280600881526020017f706f737456696265000000000000000000000000000000000000000000000000815250600260009054906101000a900473ffffffffffffffffffffffffffffffffffffffff1673ffffffffffffffffffffffffffffffffffffffff1663a78d2ba3843385856000366040518763ffffffff1660e01b815260040161083e96959493929190610fe5565b600060405180830381600087803b15801561085857600080fd5b505af115801561086c573d6000803e3d6000fd5b505050505050505050565b80306040518060400160405280600a81526020017f7570566f74655669626500000000000000000000000000000000000000000000815250600260009054906101000a900473ffffffffffffffffffffffffffffffffffffffff1673ffffffffffffffffffffffffffffffffffffffff1663a78d2ba3843385856000366040518763ffffffff1660e01b815260040161091596959493929190610fe5565b600060405180830381600087803b15801561092f57600080fd5b505af1158015610943573d6000803e3d6000fd5b505050505050505050565b565b50565b600160009054906101000a900473ffffffffffffffffffffffffffffffffffffffff1673ffffffffffffffffffffffffffffffffffffffff163373ffffffffffffffffffffffffffffffffffffffff16146109e3576040517f08c379a00000000000000000000000000000000000000000000000000000000081526004016109da9061108f565b60405180910390fd5b5050565b6109ef610adf565b73ffffffffffffffffffffffffffffffffffffffff16610a0d61060c565b73ffffffffffffffffffffffffffffffffffffffff1614610a63576040517f08c379a0000000000000000000000000000000000000000000000000000000008152600401610a5a9061106f565b60405180910390fd5b600073ffffffffffffffffffffffffffffffffffffffff168173ffffffffffffffffffffffffffffffffffffffff161415610ad3576040517f08c379a0000000000000000000000000000000000000000000000000000000008152600401610aca9061104f565b60405180910390fd5b610adc81610ae7565b50565b600033905090565b60008060009054906101000a900473ffffffffffffffffffffffffffffffffffffffff169050816000806101000a81548173ffffffffffffffffffffffffffffffffffffffff021916908373ffffffffffffffffffffffffffffffffffffffff1602179055508173ffffffffffffffffffffffffffffffffffffffff168173ffffffffffffffffffffffffffffffffffffffff167f8be0079c531659141344cd1fd0a4f28419497f9722a3daafe3b4186f6b6457e060405160405180910390a35050565b6000610bbe610bb9846110d4565b6110af565b90508083825260208201905082856020860282011115610be157610be061129e565b5b60005b85811015610c2f57813567ffffffffffffffff811115610c0757610c06611299565b5b808601610c148982610d00565b85526020850194506020840193505050600181019050610be4565b5050509392505050565b6000610c4c610c4784611100565b6110af565b905082815260208101848484011115610c6857610c676112a3565b5b610c738482856111f7565b509392505050565b6000610c8e610c8984611131565b6110af565b905082815260208101848484011115610caa57610ca96112a3565b5b610cb58482856111f7565b509392505050565b600081359050610ccc8161138a565b92915050565b600082601f830112610ce757610ce6611299565b5b8135610cf7848260208601610bab565b91505092915050565b600082601f830112610d1557610d14611299565b5b8135610d25848260208601610c39565b91505092915050565b600082601f830112610d4357610d42611299565b5b8135610d53848260208601610c7b565b91505092915050565b600060208284031215610d7257610d716112ad565b5b6000610d8084828501610cbd565b91505092915050565b600060208284031215610d9f57610d9e6112ad565b5b600082013567ffffffffffffffff811115610dbd57610dbc6112a8565b5b610dc984828501610d2e565b91505092915050565b60008060408385031215610de957610de86112ad565b5b600083013567ffffffffffffffff811115610e0757610e066112a8565b5b610e1385828601610d2e565b925050602083013567ffffffffffffffff811115610e3457610e336112a8565b5b610e4085828601610cd2565b9150509250929050565b60008060408385031215610e6157610e606112ad565b5b600083013567ffffffffffffffff811115610e7f57610e7e6112a8565b5b610e8b85828601610d2e565b925050602083013567ffffffffffffffff811115610eac57610eab6112a8565b5b610eb885828601610d2e565b9150509250929050565b610ecb8161118f565b82525050565b6000610edd838561116d565b9350610eea8385846111f7565b610ef3836112b2565b840190509392505050565b610f07816111c1565b82525050565b6000610f1882611162565b610f22818561117e565b9350610f32818560208601611206565b610f3b816112b2565b840191505092915050565b6000610f5360268361117e565b9150610f5e826112c3565b604082019050919050565b6000610f7660208361117e565b9150610f8182611312565b602082019050919050565b6000610f99603b8361117e565b9150610fa48261133b565b604082019050919050565b6000602082019050610fc46000830184610ec2565b92915050565b6000602082019050610fdf6000830184610efe565b92915050565b600060a0820190508181036000830152610fff8189610f0d565b905061100e6020830188610ec2565b61101b6040830187610ec2565b818103606083015261102d8186610f0d565b90508181036080830152611042818486610ed1565b9050979650505050505050565b6000602082019050818103600083015261106881610f46565b9050919050565b6000602082019050818103600083015261108881610f69565b9050919050565b600060208201905081810360008301526110a881610f8c565b9050919050565b60006110b96110ca565b90506110c58282611239565b919050565b6000604051905090565b600067ffffffffffffffff8211156110ef576110ee61126a565b5b602082029050602081019050919050565b600067ffffffffffffffff82111561111b5761111a61126a565b5b611124826112b2565b9050602081019050919050565b600067ffffffffffffffff82111561114c5761114b61126a565b5b611155826112b2565b9050602081019050919050565b600081519050919050565b600082825260208201905092915050565b600082825260208201905092915050565b600061119a826111a1565b9050919050565b600073ffffffffffffffffffffffffffffffffffffffff82169050919050565b60006111cc826111d3565b9050919050565b60006111de826111e5565b9050919050565b60006111f0826111a1565b9050919050565b82818337600083830152505050565b60005b83811015611224578082015181840152602081019050611209565b83811115611233576000848401525b50505050565b611242826112b2565b810181811067ffffffffffffffff821117156112615761126061126a565b5b80604052505050565b7f4e487b7100000000000000000000000000000000000000000000000000000000600052604160045260246000fd5b600080fd5b600080fd5b600080fd5b600080fd5b600080fd5b6000601f19601f8301169050919050565b7f4f776e61626c653a206e6577206f776e657220697320746865207a65726f206160008201527f6464726573730000000000000000000000000000000000000000000000000000602082015250565b7f4f776e61626c653a2063616c6c6572206973206e6f7420746865206f776e6572600082015250565b7f43726564656e7469616c2043616c6c4261636b3a204f6e6c7920746865206f7260008201527f61636c652063616e2063616c6c20746869732066756e6374696f6e0000000000602082015250565b6113938161118f565b811461139e57600080fd5b5056fea26469706673582212202cab9f6615e39b95ea3259fa2b47283efdb886a8d40491512666ea9c44d6e99064736f6c63430008070033",
  "linkReferences": {},
  "deployedLinkReferences": {}
}