{
  "_format": "hh-sol-artifact-1",
  "contractName": "CommunicationFacet",
  "sourceName": "contracts/facets/CommunicationFacet.sol",
  "abi": [
    {
      "inputs": [
        {
          "internalType": "address",
          "name": "_credentialOracle",
          "type": "address"
        }
      ],
      "stateMutability": "nonpayable",
      "type": "constructor"
    },
    {
      "anonymous": false,
      "inputs": [
        {
          "indexed": true,
          "internalType": "address",
          "name": "previousOwner",
          "type": "address"
        },
        {
          "indexed": true,
          "internalType": "address",
          "name": "newOwner",
          "type": "address"
        }
      ],
      "name": "OwnershipTransferred",
      "type": "event"
    },
    {
      "inputs": [],
      "name": "CREDENTIAL_EVENT",
      "outputs": [
        {
          "internalType": "contract CredentialEventFacet",
          "name": "",
          "type": "address"
        }
      ],
      "stateMutability": "view",
      "type": "function"
    },
    {
      "inputs": [
        {
          "internalType": "string",
          "name": "someParam",
          "type": "string"
        },
        {
          "internalType": "string",
          "name": "_listId",
          "type": "string"
        }
      ],
      "name": "downVoteVibe",
      "outputs": [],
      "stateMutability": "nonpayable",
      "type": "function"
    },
    {
      "inputs": [
        {
          "internalType": "string",
          "name": "someParam",
          "type": "string"
        },
        {
          "internalType": "bytes[]",
          "name": "proof",
          "type": "bytes[]"
        }
      ],
      "name": "downVoteVibe_authorised",
      "outputs": [],
      "stateMutability": "nonpayable",
      "type": "function"
    },
    {
      "inputs": [
        {
          "internalType": "string",
          "name": "someParam",
          "type": "string"
        }
      ],
      "name": "downVoteVibe_unauthorised",
      "outputs": [],
      "stateMutability": "nonpayable",
      "type": "function"
    },
    {
      "inputs": [],
      "name": "name",
      "outputs": [
        {
          "internalType": "string",
          "name": "",
          "type": "string"
        }
      ],
      "stateMutability": "view",
      "type": "function"
    },
    {
      "inputs": [],
      "name": "owner",
      "outputs": [
        {
          "internalType": "address",
          "name": "",
          "type": "address"
        }
      ],
      "stateMutability": "view",
      "type": "function"
    },
    {
      "inputs": [
        {
          "internalType": "string",
          "name": "someParam",
          "type": "string"
        },
        {
          "internalType": "string",
          "name": "_listId",
          "type": "string"
        }
      ],
      "name": "postVibe",
      "outputs": [],
      "stateMutability": "nonpayable",
      "type": "function"
    },
    {
      "inputs": [
        {
          "internalType": "string",
          "name": "someParam",
          "type": "string"
        },
        {
          "internalType": "bytes[]",
          "name": "proof",
          "type": "bytes[]"
        }
      ],
      "name": "postVibe_authorised",
      "outputs": [],
      "stateMutability": "nonpayable",
      "type": "function"
    },
    {
      "inputs": [
        {
          "internalType": "string",
          "name": "someParam",
          "type": "string"
        }
      ],
      "name": "postVibe_unauthorised",
      "outputs": [],
      "stateMutability": "nonpayable",
      "type": "function"
    },
    {
      "inputs": [],
      "name": "renounceOwnership",
      "outputs": [],
      "stateMutability": "nonpayable",
      "type": "function"
    },
    {
      "inputs": [
        {
          "internalType": "string",
          "name": "someParam",
          "type": "string"
        }
      ],
      "name": "setInboxPriceForCredential",
      "outputs": [],
      "stateMutability": "nonpayable",
      "type": "function"
    },
    {
      "inputs": [],
      "name": "setUpVibePool",
      "outputs": [],
      "stateMutability": "nonpayable",
      "type": "function"
    },
    {
      "inputs": [],
      "name": "settleVibes",
      "outputs": [],
      "stateMutability": "nonpayable",
      "type": "function"
    },
    {
      "inputs": [
        {
          "internalType": "address",
          "name": "newOwner",
          "type": "address"
        }
      ],
      "name": "transferOwnership",
      "outputs": [],
      "stateMutability": "nonpayable",
      "type": "function"
    },
    {
      "inputs": [
        {
          "internalType": "string",
          "name": "someParam",
          "type": "string"
        },
        {
          "internalType": "string",
          "name": "_listId",
          "type": "string"
        }
      ],
      "name": "upVoteVibe",
      "outputs": [],
      "stateMutability": "nonpayable",
      "type": "function"
    },
    {
      "inputs": [
        {
          "internalType": "string",
          "name": "someParam",
          "type": "string"
        },
        {
          "internalType": "bytes[]",
          "name": "proof",
          "type": "bytes[]"
        }
      ],
      "name": "upVoteVibe_authorised",
      "outputs": [],
      "stateMutability": "nonpayable",
      "type": "function"
    },
    {
      "inputs": [
        {
          "internalType": "string",
          "name": "someParam",
          "type": "string"
        }
      ],
      "name": "upVoteVibe_unauthorised",
      "outputs": [],
      "stateMutability": "nonpayable",
      "type": "function"
    }
  ],
  "bytecode": "0x60806040523480156200001157600080fd5b506040516200170a3803806200170a833981810160405281019062000037919062000184565b80620000586200004c620000a160201b60201c565b620000a960201b60201c565b80600160006101000a81548173ffffffffffffffffffffffffffffffffffffffff021916908373ffffffffffffffffffffffffffffffffffffffff160217905550505062000209565b600033905090565b60008060009054906101000a900473ffffffffffffffffffffffffffffffffffffffff169050816000806101000a81548173ffffffffffffffffffffffffffffffffffffffff021916908373ffffffffffffffffffffffffffffffffffffffff1602179055508173ffffffffffffffffffffffffffffffffffffffff168173ffffffffffffffffffffffffffffffffffffffff167f8be0079c531659141344cd1fd0a4f28419497f9722a3daafe3b4186f6b6457e060405160405180910390a35050565b6000815190506200017e81620001ef565b92915050565b6000602082840312156200019d576200019c620001ea565b5b6000620001ad848285016200016d565b91505092915050565b6000620001c382620001ca565b9050919050565b600073ffffffffffffffffffffffffffffffffffffffff82169050919050565b600080fd5b620001fa81620001b6565b81146200020657600080fd5b50565b6114f180620002196000396000f3fe608060405234801561001057600080fd5b506004361061010b5760003560e01c80638da5cb5b116100a2578063c113344b11610071578063c113344b14610242578063c1d156761461025e578063cd68049214610268578063dce8a95514610284578063f2fde38b146102a05761010b565b80638da5cb5b146101d0578063a890e381146101ee578063b0c7f4c01461020a578063be58afb0146102265761010b565b8063715018a6116100de578063715018a614610184578063787a9a951461018e5780637fa25879146101aa57806389aeb071146101c65761010b565b806306fdde03146101105780630bf0ea181461012e578063436e99f31461014a5780635f7690b314610166575b600080fd5b6101186102bc565b604051610125919061109f565b60405180910390f35b61014860048036038101906101439190610e8c565b61034a565b005b610164600480360381019061015f9190610e43565b6103de565b005b61016e610471565b60405161017b9190611084565b60405180910390f35b61018c610497565b005b6101a860048036038101906101a39190610e43565b61051f565b005b6101c460048036038101906101bf9190610e43565b6105b2565b005b6101ce610645565b005b6101d86106c3565b6040516101e59190611069565b60405180910390f35b61020860048036038101906102039190610f04565b6106ec565b005b610224600480360381019061021f9190610e8c565b610786565b005b610240600480360381019061023b9190610f04565b61081a565b005b61025c60048036038101906102579190610f04565b6108cb565b005b610266610965565b005b610282600480360381019061027d9190610e43565b610967565b005b61029e60048036038101906102999190610e8c565b61096a565b005b6102ba60048036038101906102b59190610e16565b6109fe565b005b600380546102c9906112f2565b80601f01602080910402602001604051908101604052809291908181526020018280546102f5906112f2565b80156103425780601f1061031757610100808354040283529160200191610342565b820191906000526020600020905b81548152906001019060200180831161032557829003601f168201915b505050505081565b600160009054906101000a900473ffffffffffffffffffffffffffffffffffffffff1673ffffffffffffffffffffffffffffffffffffffff163373ffffffffffffffffffffffffffffffffffffffff16146103da576040517f08c379a00000000000000000000000000000000000000000000000000000000081526004016103d190611148565b60405180910390fd5b5050565b600160009054906101000a900473ffffffffffffffffffffffffffffffffffffffff1673ffffffffffffffffffffffffffffffffffffffff163373ffffffffffffffffffffffffffffffffffffffff161461046e576040517f08c379a000000000000000000000000000000000000000000000000000000000815260040161046590611148565b60405180910390fd5b50565b600260009054906101000a900473ffffffffffffffffffffffffffffffffffffffff1681565b61049f610af6565b73ffffffffffffffffffffffffffffffffffffffff166104bd6106c3565b73ffffffffffffffffffffffffffffffffffffffff1614610513576040517f08c379a000000000000000000000000000000000000000000000000000000000815260040161050a90611128565b60405180910390fd5b61051d6000610afe565b565b600160009054906101000a900473ffffffffffffffffffffffffffffffffffffffff1673ffffffffffffffffffffffffffffffffffffffff163373ffffffffffffffffffffffffffffffffffffffff16146105af576040517f08c379a00000000000000000000000000000000000000000000000000000000081526004016105a690611148565b60405180910390fd5b50565b600160009054906101000a900473ffffffffffffffffffffffffffffffffffffffff1673ffffffffffffffffffffffffffffffffffffffff163373ffffffffffffffffffffffffffffffffffffffff1614610642576040517f08c379a000000000000000000000000000000000000000000000000000000000815260040161063990611148565b60405180910390fd5b50565b61064d610af6565b73ffffffffffffffffffffffffffffffffffffffff1661066b6106c3565b73ffffffffffffffffffffffffffffffffffffffff16146106c1576040517f08c379a00000000000000000000000000000000000000000000000000000000081526004016106b890611128565b60405180910390fd5b565b60008060009054906101000a900473ffffffffffffffffffffffffffffffffffffffff16905090565b80600260009054906101000a900473ffffffffffffffffffffffffffffffffffffffff1673ffffffffffffffffffffffffffffffffffffffff16631a971c1b82336000366040518563ffffffff1660e01b815260040161074f94939291906110c1565b600060405180830381600087803b15801561076957600080fd5b505af115801561077d573d6000803e3d6000fd5b50505050505050565b600160009054906101000a900473ffffffffffffffffffffffffffffffffffffffff1673ffffffffffffffffffffffffffffffffffffffff163373ffffffffffffffffffffffffffffffffffffffff1614610816576040517f08c379a000000000000000000000000000000000000000000000000000000000815260040161080d90611148565b60405180910390fd5b5050565b80600260009054906101000a900473ffffffffffffffffffffffffffffffffffffffff1673ffffffffffffffffffffffffffffffffffffffff16631a971c1b82336000366040518563ffffffff1660e01b815260040161087d94939291906110c1565b600060405180830381600087803b15801561089757600080fd5b505af11580156108ab573d6000803e3d6000fd5b5050505082600390805190602001906108c5929190610bc2565b50505050565b80600260009054906101000a900473ffffffffffffffffffffffffffffffffffffffff1673ffffffffffffffffffffffffffffffffffffffff16631a971c1b82336000366040518563ffffffff1660e01b815260040161092e94939291906110c1565b600060405180830381600087803b15801561094857600080fd5b505af115801561095c573d6000803e3d6000fd5b50505050505050565b565b50565b600160009054906101000a900473ffffffffffffffffffffffffffffffffffffffff1673ffffffffffffffffffffffffffffffffffffffff163373ffffffffffffffffffffffffffffffffffffffff16146109fa576040517f08c379a00000000000000000000000000000000000000000000000000000000081526004016109f190611148565b60405180910390fd5b5050565b610a06610af6565b73ffffffffffffffffffffffffffffffffffffffff16610a246106c3565b73ffffffffffffffffffffffffffffffffffffffff1614610a7a576040517f08c379a0000000000000000000000000000000000000000000000000000000008152600401610a7190611128565b60405180910390fd5b600073ffffffffffffffffffffffffffffffffffffffff168173ffffffffffffffffffffffffffffffffffffffff161415610aea576040517f08c379a0000000000000000000000000000000000000000000000000000000008152600401610ae190611108565b60405180910390fd5b610af381610afe565b50565b600033905090565b60008060009054906101000a900473ffffffffffffffffffffffffffffffffffffffff169050816000806101000a81548173ffffffffffffffffffffffffffffffffffffffff021916908373ffffffffffffffffffffffffffffffffffffffff1602179055508173ffffffffffffffffffffffffffffffffffffffff168173ffffffffffffffffffffffffffffffffffffffff167f8be0079c531659141344cd1fd0a4f28419497f9722a3daafe3b4186f6b6457e060405160405180910390a35050565b828054610bce906112f2565b90600052602060002090601f016020900481019282610bf05760008555610c37565b82601f10610c0957805160ff1916838001178555610c37565b82800160010185558215610c37579182015b82811115610c36578251825591602001919060010190610c1b565b5b509050610c449190610c48565b5090565b5b80821115610c61576000816000905550600101610c49565b5090565b6000610c78610c738461118d565b611168565b90508083825260208201905082856020860282011115610c9b57610c9a6113b8565b5b60005b85811015610ce957813567ffffffffffffffff811115610cc157610cc06113b3565b5b808601610cce8982610dba565b85526020850194506020840193505050600181019050610c9e565b5050509392505050565b6000610d06610d01846111b9565b611168565b905082815260208101848484011115610d2257610d216113bd565b5b610d2d8482856112b0565b509392505050565b6000610d48610d43846111ea565b611168565b905082815260208101848484011115610d6457610d636113bd565b5b610d6f8482856112b0565b509392505050565b600081359050610d86816114a4565b92915050565b600082601f830112610da157610da06113b3565b5b8135610db1848260208601610c65565b91505092915050565b600082601f830112610dcf57610dce6113b3565b5b8135610ddf848260208601610cf3565b91505092915050565b600082601f830112610dfd57610dfc6113b3565b5b8135610e0d848260208601610d35565b91505092915050565b600060208284031215610e2c57610e2b6113c7565b5b6000610e3a84828501610d77565b91505092915050565b600060208284031215610e5957610e586113c7565b5b600082013567ffffffffffffffff811115610e7757610e766113c2565b5b610e8384828501610de8565b91505092915050565b60008060408385031215610ea357610ea26113c7565b5b600083013567ffffffffffffffff811115610ec157610ec06113c2565b5b610ecd85828601610de8565b925050602083013567ffffffffffffffff811115610eee57610eed6113c2565b5b610efa85828601610d8c565b9150509250929050565b60008060408385031215610f1b57610f1a6113c7565b5b600083013567ffffffffffffffff811115610f3957610f386113c2565b5b610f4585828601610de8565b925050602083013567ffffffffffffffff811115610f6657610f656113c2565b5b610f7285828601610de8565b9150509250929050565b610f8581611248565b82525050565b6000610f978385611226565b9350610fa48385846112b0565b610fad836113cc565b840190509392505050565b610fc18161127a565b82525050565b6000610fd28261121b565b610fdc8185611237565b9350610fec8185602086016112bf565b610ff5816113cc565b840191505092915050565b600061100d602683611237565b9150611018826113dd565b604082019050919050565b6000611030602083611237565b915061103b8261142c565b602082019050919050565b6000611053603b83611237565b915061105e82611455565b604082019050919050565b600060208201905061107e6000830184610f7c565b92915050565b60006020820190506110996000830184610fb8565b92915050565b600060208201905081810360008301526110b98184610fc7565b905092915050565b600060608201905081810360008301526110db8187610fc7565b90506110ea6020830186610f7c565b81810360408301526110fd818486610f8b565b905095945050505050565b6000602082019050818103600083015261112181611000565b9050919050565b6000602082019050818103600083015261114181611023565b9050919050565b6000602082019050818103600083015261116181611046565b9050919050565b6000611172611183565b905061117e8282611324565b919050565b6000604051905090565b600067ffffffffffffffff8211156111a8576111a7611384565b5b602082029050602081019050919050565b600067ffffffffffffffff8211156111d4576111d3611384565b5b6111dd826113cc565b9050602081019050919050565b600067ffffffffffffffff82111561120557611204611384565b5b61120e826113cc565b9050602081019050919050565b600081519050919050565b600082825260208201905092915050565b600082825260208201905092915050565b60006112538261125a565b9050919050565b600073ffffffffffffffffffffffffffffffffffffffff82169050919050565b60006112858261128c565b9050919050565b60006112978261129e565b9050919050565b60006112a98261125a565b9050919050565b82818337600083830152505050565b60005b838110156112dd5780820151818401526020810190506112c2565b838111156112ec576000848401525b50505050565b6000600282049050600182168061130a57607f821691505b6020821081141561131e5761131d611355565b5b50919050565b61132d826113cc565b810181811067ffffffffffffffff8211171561134c5761134b611384565b5b80604052505050565b7f4e487b7100000000000000000000000000000000000000000000000000000000600052602260045260246000fd5b7f4e487b7100000000000000000000000000000000000000000000000000000000600052604160045260246000fd5b600080fd5b600080fd5b600080fd5b600080fd5b600080fd5b6000601f19601f8301169050919050565b7f4f776e61626c653a206e6577206f776e657220697320746865207a65726f206160008201527f6464726573730000000000000000000000000000000000000000000000000000602082015250565b7f4f776e61626c653a2063616c6c6572206973206e6f7420746865206f776e6572600082015250565b7f43726564656e7469616c2043616c6c4261636b3a204f6e6c7920746865206f7260008201527f61636c652063616e2063616c6c20746869732066756e6374696f6e0000000000602082015250565b6114ad81611248565b81146114b857600080fd5b5056fea2646970667358221220c77b44489d4efc646705a664bbaf0e26cea87f5ede028f4f3b4fd30f838a231e64736f6c63430008070033",
  "linkReferences": {},
  "deployedLinkReferences": {}
}