{
  "_format": "hh-sol-artifact-1",
  "contractName": "WorkFacet",
  "sourceName": "contracts/facets/WorkFacet.sol",
  "abi": [
    {
      "inputs": [
        {
          "internalType": "contract CredentialEventFacet",
          "name": "_credentialOracle",
          "type": "address"
        }
      ],
      "stateMutability": "nonpayable",
      "type": "constructor"
    },
    {
      "inputs": [],
      "name": "CREDENTIAL_EVENT",
      "outputs": [
        {
          "internalType": "contract CredentialEventFacet",
          "name": "",
          "type": "address"
        }
      ],
      "stateMutability": "view",
      "type": "function"
    },
    {
      "inputs": [],
      "name": "abandonWorkStream",
      "outputs": [],
      "stateMutability": "nonpayable",
      "type": "function"
    },
    {
      "inputs": [
        {
          "internalType": "string",
          "name": "someParam",
          "type": "string"
        },
        {
          "internalType": "string",
          "name": "_listId",
          "type": "string"
        }
      ],
      "name": "acceptWorkStream",
      "outputs": [],
      "stateMutability": "nonpayable",
      "type": "function"
    },
    {
      "inputs": [
        {
          "internalType": "string",
          "name": "someParam",
          "type": "string"
        }
      ],
      "name": "acceptWorkStream",
      "outputs": [],
      "stateMutability": "nonpayable",
      "type": "function"
    },
    {
      "inputs": [
        {
          "internalType": "string",
          "name": "someParam",
          "type": "string"
        },
        {
          "internalType": "bytes[]",
          "name": "proof",
          "type": "bytes[]"
        }
      ],
      "name": "acceptWorkStream_authorised",
      "outputs": [],
      "stateMutability": "nonpayable",
      "type": "function"
    },
    {
      "inputs": [
        {
          "internalType": "string",
          "name": "someParam",
          "type": "string"
        }
      ],
      "name": "acceptWorkStream_unauthorised",
      "outputs": [],
      "stateMutability": "nonpayable",
      "type": "function"
    },
    {
      "inputs": [
        {
          "internalType": "string",
          "name": "someParam",
          "type": "string"
        }
      ],
      "name": "broadcastAvailability",
      "outputs": [],
      "stateMutability": "nonpayable",
      "type": "function"
    },
    {
      "inputs": [
        {
          "internalType": "string",
          "name": "someParam",
          "type": "string"
        }
      ],
      "name": "postWorkStream",
      "outputs": [],
      "stateMutability": "nonpayable",
      "type": "function"
    }
  ],
  "bytecode": "0x608060405234801561001057600080fd5b50604051610b60380380610b60833981810160405281019061003291906100d0565b80806000806101000a81548173ffffffffffffffffffffffffffffffffffffffff021916908373ffffffffffffffffffffffffffffffffffffffff16021790555080600160006101000a81548173ffffffffffffffffffffffffffffffffffffffff021916908373ffffffffffffffffffffffffffffffffffffffff160217905550505061015d565b6000815190506100ca81610146565b92915050565b6000602082840312156100e6576100e5610141565b5b60006100f4848285016100bb565b91505092915050565b600061010882610121565b9050919050565b600061011a826100fd565b9050919050565b600073ffffffffffffffffffffffffffffffffffffffff82169050919050565b600080fd5b61014f8161010f565b811461015a57600080fd5b50565b6109f48061016c6000396000f3fe608060405234801561001057600080fd5b50600436106100885760003560e01c8063be7399eb1161005b578063be7399eb146100ff578063bf1420ba1461011b578063f733236d14610137578063f9c207c21461015357610088565b806339f0d1ff1461008d578063490d32a7146100a95780635f7690b3146100c557806380aa7034146100e3575b600080fd5b6100a760048036038101906100a291906104eb565b61015d565b005b6100c360048036038101906100be91906104eb565b610160565b005b6100cd6101f1565b6040516100da91906106cb565b60405180910390f35b6100fd60048036038101906100f891906105ac565b610217565b005b610119600480360381019061011491906104eb565b6102b5565b005b610135600480360381019061013091906104eb565b6102b8565b005b610151600480360381019061014c9190610534565b6102bb565b005b61015b61034d565b005b50565b60008054906101000a900473ffffffffffffffffffffffffffffffffffffffff1673ffffffffffffffffffffffffffffffffffffffff163373ffffffffffffffffffffffffffffffffffffffff16146101ee576040517f08c379a00000000000000000000000000000000000000000000000000000000081526004016101e59061073b565b60405180910390fd5b50565b600160009054906101000a900473ffffffffffffffffffffffffffffffffffffffff1681565b8030600160009054906101000a900473ffffffffffffffffffffffffffffffffffffffff1673ffffffffffffffffffffffffffffffffffffffff1663b5f829d88333846000366040518663ffffffff1660e01b815260040161027d9594939291906106e6565b600060405180830381600087803b15801561029757600080fd5b505af11580156102ab573d6000803e3d6000fd5b5050505050505050565b50565b50565b60008054906101000a900473ffffffffffffffffffffffffffffffffffffffff1673ffffffffffffffffffffffffffffffffffffffff163373ffffffffffffffffffffffffffffffffffffffff1614610349576040517f08c379a00000000000000000000000000000000000000000000000000000000081526004016103409061073b565b60405180910390fd5b5050565b565b600061036261035d84610780565b61075b565b905080838252602082019050828560208602820111156103855761038461094a565b5b60005b858110156103d357813567ffffffffffffffff8111156103ab576103aa610945565b5b8086016103b8898261048f565b85526020850194506020840193505050600181019050610388565b5050509392505050565b60006103f06103eb846107ac565b61075b565b90508281526020810184848401111561040c5761040b61094f565b5b6104178482856108a3565b509392505050565b600061043261042d846107dd565b61075b565b90508281526020810184848401111561044e5761044d61094f565b5b6104598482856108a3565b509392505050565b600082601f83011261047657610475610945565b5b813561048684826020860161034f565b91505092915050565b600082601f8301126104a4576104a3610945565b5b81356104b48482602086016103dd565b91505092915050565b600082601f8301126104d2576104d1610945565b5b81356104e284826020860161041f565b91505092915050565b60006020828403121561050157610500610959565b5b600082013567ffffffffffffffff81111561051f5761051e610954565b5b61052b848285016104bd565b91505092915050565b6000806040838503121561054b5761054a610959565b5b600083013567ffffffffffffffff81111561056957610568610954565b5b610575858286016104bd565b925050602083013567ffffffffffffffff81111561059657610595610954565b5b6105a285828601610461565b9150509250929050565b600080604083850312156105c3576105c2610959565b5b600083013567ffffffffffffffff8111156105e1576105e0610954565b5b6105ed858286016104bd565b925050602083013567ffffffffffffffff81111561060e5761060d610954565b5b61061a858286016104bd565b9150509250929050565b61062d8161083b565b82525050565b600061063f8385610819565b935061064c8385846108a3565b6106558361095e565b840190509392505050565b6106698161086d565b82525050565b600061067a8261080e565b610684818561082a565b93506106948185602086016108b2565b61069d8161095e565b840191505092915050565b60006106b5603b8361082a565b91506106c08261096f565b604082019050919050565b60006020820190506106e06000830184610660565b92915050565b60006080820190508181036000830152610700818861066f565b905061070f6020830187610624565b61071c6040830186610624565b818103606083015261072f818486610633565b90509695505050505050565b60006020820190508181036000830152610754816106a8565b9050919050565b6000610765610776565b905061077182826108e5565b919050565b6000604051905090565b600067ffffffffffffffff82111561079b5761079a610916565b5b602082029050602081019050919050565b600067ffffffffffffffff8211156107c7576107c6610916565b5b6107d08261095e565b9050602081019050919050565b600067ffffffffffffffff8211156107f8576107f7610916565b5b6108018261095e565b9050602081019050919050565b600081519050919050565b600082825260208201905092915050565b600082825260208201905092915050565b60006108468261084d565b9050919050565b600073ffffffffffffffffffffffffffffffffffffffff82169050919050565b60006108788261087f565b9050919050565b600061088a82610891565b9050919050565b600061089c8261084d565b9050919050565b82818337600083830152505050565b60005b838110156108d05780820151818401526020810190506108b5565b838111156108df576000848401525b50505050565b6108ee8261095e565b810181811067ffffffffffffffff8211171561090d5761090c610916565b5b80604052505050565b7f4e487b7100000000000000000000000000000000000000000000000000000000600052604160045260246000fd5b600080fd5b600080fd5b600080fd5b600080fd5b600080fd5b6000601f19601f8301169050919050565b7f43726564656e7469616c2043616c6c4261636b3a204f6e6c7920746865206f7260008201527f61636c652063616e2063616c6c20746869732066756e6374696f6e000000000060208201525056fea26469706673582212207f04934d5b86c13eec1ef17c06137d0e6d95a2f061138ea27307d0f917ece0dc64736f6c63430008070033",
  "linkReferences": {},
  "deployedLinkReferences": {}
}