{
  "_format": "hh-sol-artifact-1",
  "contractName": "WorkFacet",
  "sourceName": "contracts/facets/WorkFacet.sol",
  "abi": [
    {
      "inputs": [
        {
          "internalType": "contract CredentialEventFacet",
          "name": "_credentialOracle",
          "type": "address"
        }
      ],
      "stateMutability": "nonpayable",
      "type": "constructor"
    },
    {
      "inputs": [],
      "name": "CREDENTIAL_EVENT",
      "outputs": [
        {
          "internalType": "contract CredentialEventFacet",
          "name": "",
          "type": "address"
        }
      ],
      "stateMutability": "view",
      "type": "function"
    },
    {
      "inputs": [],
      "name": "abandonWorkStream",
      "outputs": [],
      "stateMutability": "nonpayable",
      "type": "function"
    },
    {
      "inputs": [
        {
          "internalType": "string",
          "name": "someParam",
          "type": "string"
        },
        {
          "internalType": "string",
          "name": "_listId",
          "type": "string"
        }
      ],
      "name": "acceptWorkStream",
      "outputs": [],
      "stateMutability": "nonpayable",
      "type": "function"
    },
    {
      "inputs": [
        {
          "internalType": "string",
          "name": "someParam",
          "type": "string"
        }
      ],
      "name": "acceptWorkStream",
      "outputs": [],
      "stateMutability": "nonpayable",
      "type": "function"
    },
    {
      "inputs": [
        {
          "internalType": "string",
          "name": "someParam",
          "type": "string"
        },
        {
          "internalType": "bytes[]",
          "name": "proof",
          "type": "bytes[]"
        }
      ],
      "name": "acceptWorkStream_authorised",
      "outputs": [],
      "stateMutability": "nonpayable",
      "type": "function"
    },
    {
      "inputs": [
        {
          "internalType": "string",
          "name": "someParam",
          "type": "string"
        }
      ],
      "name": "acceptWorkStream_unauthorised",
      "outputs": [],
      "stateMutability": "nonpayable",
      "type": "function"
    },
    {
      "inputs": [
        {
          "internalType": "string",
          "name": "someParam",
          "type": "string"
        }
      ],
      "name": "broadcastAvailability",
      "outputs": [],
      "stateMutability": "nonpayable",
      "type": "function"
    },
    {
      "inputs": [
        {
          "internalType": "string",
          "name": "someParam",
          "type": "string"
        }
      ],
      "name": "postWorkStream",
      "outputs": [],
      "stateMutability": "nonpayable",
      "type": "function"
    }
  ],
  "bytecode": "0x608060405234801561001057600080fd5b50604051610ad0380380610ad0833981810160405281019061003291906100d0565b80806000806101000a81548173ffffffffffffffffffffffffffffffffffffffff021916908373ffffffffffffffffffffffffffffffffffffffff16021790555080600160006101000a81548173ffffffffffffffffffffffffffffffffffffffff021916908373ffffffffffffffffffffffffffffffffffffffff160217905550505061015d565b6000815190506100ca81610146565b92915050565b6000602082840312156100e6576100e5610141565b5b60006100f4848285016100bb565b91505092915050565b600061010882610121565b9050919050565b600061011a826100fd565b9050919050565b600073ffffffffffffffffffffffffffffffffffffffff82169050919050565b600080fd5b61014f8161010f565b811461015a57600080fd5b50565b6109648061016c6000396000f3fe608060405234801561001057600080fd5b50600436106100885760003560e01c8063be7399eb1161005b578063be7399eb146100ff578063bf1420ba1461011b578063f733236d14610137578063f9c207c21461015357610088565b806339f0d1ff1461008d578063490d32a7146100a95780635f7690b3146100c557806380aa7034146100e3575b600080fd5b6100a760048036038101906100a291906104e7565b61015d565b005b6100c360048036038101906100be91906104e7565b610160565b005b6100cd6101f1565b6040516100da91906106ce565b60405180910390f35b6100fd60048036038101906100f891906105a8565b610217565b005b610119600480360381019061011491906104e7565b6102b1565b005b610135600480360381019061013091906104e7565b6102b4565b005b610151600480360381019061014c9190610530565b6102b7565b005b61015b610349565b005b50565b60008054906101000a900473ffffffffffffffffffffffffffffffffffffffff1673ffffffffffffffffffffffffffffffffffffffff163373ffffffffffffffffffffffffffffffffffffffff16146101ee576040517f08c379a00000000000000000000000000000000000000000000000000000000081526004016101e5906106e9565b60405180910390fd5b50565b600160009054906101000a900473ffffffffffffffffffffffffffffffffffffffff1681565b30600160009054906101000a900473ffffffffffffffffffffffffffffffffffffffff1673ffffffffffffffffffffffffffffffffffffffff1663502d667133836000366040518563ffffffff1660e01b815260040161027a949392919061068e565b600060405180830381600087803b15801561029457600080fd5b505af11580156102a8573d6000803e3d6000fd5b50505050505050565b50565b50565b60008054906101000a900473ffffffffffffffffffffffffffffffffffffffff1673ffffffffffffffffffffffffffffffffffffffff163373ffffffffffffffffffffffffffffffffffffffff1614610345576040517f08c379a000000000000000000000000000000000000000000000000000000000815260040161033c906106e9565b60405180910390fd5b5050565b565b600061035e6103598461072e565b610709565b90508083825260208201905082856020860282011115610381576103806108ba565b5b60005b858110156103cf57813567ffffffffffffffff8111156103a7576103a66108b5565b5b8086016103b4898261048b565b85526020850194506020840193505050600181019050610384565b5050509392505050565b60006103ec6103e78461075a565b610709565b905082815260208101848484011115610408576104076108bf565b5b610413848285610846565b509392505050565b600061042e6104298461078b565b610709565b90508281526020810184848401111561044a576104496108bf565b5b610455848285610846565b509392505050565b600082601f830112610472576104716108b5565b5b813561048284826020860161034b565b91505092915050565b600082601f8301126104a05761049f6108b5565b5b81356104b08482602086016103d9565b91505092915050565b600082601f8301126104ce576104cd6108b5565b5b81356104de84826020860161041b565b91505092915050565b6000602082840312156104fd576104fc6108c9565b5b600082013567ffffffffffffffff81111561051b5761051a6108c4565b5b610527848285016104b9565b91505092915050565b60008060408385031215610547576105466108c9565b5b600083013567ffffffffffffffff811115610565576105646108c4565b5b610571858286016104b9565b925050602083013567ffffffffffffffff811115610592576105916108c4565b5b61059e8582860161045d565b9150509250929050565b600080604083850312156105bf576105be6108c9565b5b600083013567ffffffffffffffff8111156105dd576105dc6108c4565b5b6105e9858286016104b9565b925050602083013567ffffffffffffffff81111561060a576106096108c4565b5b610616858286016104b9565b9150509250929050565b610629816107de565b82525050565b600061063b83856107bc565b9350610648838584610846565b610651836108ce565b840190509392505050565b61066581610810565b82525050565b6000610678603b836107cd565b9150610683826108df565b604082019050919050565b60006060820190506106a36000830187610620565b6106b06020830186610620565b81810360408301526106c381848661062f565b905095945050505050565b60006020820190506106e3600083018461065c565b92915050565b600060208201905081810360008301526107028161066b565b9050919050565b6000610713610724565b905061071f8282610855565b919050565b6000604051905090565b600067ffffffffffffffff82111561074957610748610886565b5b602082029050602081019050919050565b600067ffffffffffffffff82111561077557610774610886565b5b61077e826108ce565b9050602081019050919050565b600067ffffffffffffffff8211156107a6576107a5610886565b5b6107af826108ce565b9050602081019050919050565b600082825260208201905092915050565b600082825260208201905092915050565b60006107e9826107f0565b9050919050565b600073ffffffffffffffffffffffffffffffffffffffff82169050919050565b600061081b82610822565b9050919050565b600061082d82610834565b9050919050565b600061083f826107f0565b9050919050565b82818337600083830152505050565b61085e826108ce565b810181811067ffffffffffffffff8211171561087d5761087c610886565b5b80604052505050565b7f4e487b7100000000000000000000000000000000000000000000000000000000600052604160045260246000fd5b600080fd5b600080fd5b600080fd5b600080fd5b600080fd5b6000601f19601f8301169050919050565b7f43726564656e7469616c2043616c6c4261636b3a204f6e6c7920746865206f7260008201527f61636c652063616e2063616c6c20746869732066756e6374696f6e000000000060208201525056fea264697066735822122078d87d78b468fb20d7798f1b839b57d0a594e7f0623416ef9938d09b47eb928f64736f6c63430008070033",
  "linkReferences": {},
  "deployedLinkReferences": {}
}